{
	"gist-8f725c60264b06bd3459f9205e86010e/ReferralStorage.sol": {
		"ReferralStorage": {
			"abi": [
				{
					"anonymous": false,
					"inputs": [
						{
							"indexed": false,
							"internalType": "bytes32",
							"name": "code",
							"type": "bytes32"
						},
						{
							"indexed": false,
							"internalType": "address",
							"name": "newAccount",
							"type": "address"
						}
					],
					"name": "GovSetCodeOwner",
					"type": "event"
				},
				{
					"anonymous": false,
					"inputs": [
						{
							"indexed": false,
							"internalType": "address",
							"name": "account",
							"type": "address"
						},
						{
							"indexed": false,
							"internalType": "bytes32",
							"name": "code",
							"type": "bytes32"
						}
					],
					"name": "RegisterCode",
					"type": "event"
				},
				{
					"anonymous": false,
					"inputs": [
						{
							"indexed": false,
							"internalType": "address",
							"name": "account",
							"type": "address"
						},
						{
							"indexed": false,
							"internalType": "address",
							"name": "newAccount",
							"type": "address"
						},
						{
							"indexed": false,
							"internalType": "bytes32",
							"name": "code",
							"type": "bytes32"
						}
					],
					"name": "SetCodeOwner",
					"type": "event"
				},
				{
					"anonymous": false,
					"inputs": [
						{
							"indexed": false,
							"internalType": "address",
							"name": "handler",
							"type": "address"
						},
						{
							"indexed": false,
							"internalType": "bool",
							"name": "isActive",
							"type": "bool"
						}
					],
					"name": "SetHandler",
					"type": "event"
				},
				{
					"anonymous": false,
					"inputs": [
						{
							"indexed": false,
							"internalType": "address",
							"name": "referrer",
							"type": "address"
						},
						{
							"indexed": false,
							"internalType": "uint256",
							"name": "discountShare",
							"type": "uint256"
						}
					],
					"name": "SetReferrerDiscountShare",
					"type": "event"
				},
				{
					"anonymous": false,
					"inputs": [
						{
							"indexed": false,
							"internalType": "address",
							"name": "referrer",
							"type": "address"
						},
						{
							"indexed": false,
							"internalType": "uint256",
							"name": "tierId",
							"type": "uint256"
						}
					],
					"name": "SetReferrerTier",
					"type": "event"
				},
				{
					"anonymous": false,
					"inputs": [
						{
							"indexed": false,
							"internalType": "uint256",
							"name": "tierId",
							"type": "uint256"
						},
						{
							"indexed": false,
							"internalType": "uint256",
							"name": "totalRebate",
							"type": "uint256"
						},
						{
							"indexed": false,
							"internalType": "uint256",
							"name": "discountShare",
							"type": "uint256"
						}
					],
					"name": "SetTier",
					"type": "event"
				},
				{
					"anonymous": false,
					"inputs": [
						{
							"indexed": false,
							"internalType": "address",
							"name": "account",
							"type": "address"
						},
						{
							"indexed": false,
							"internalType": "bytes32",
							"name": "code",
							"type": "bytes32"
						}
					],
					"name": "SetTraderReferralCode",
					"type": "event"
				},
				{
					"inputs": [],
					"name": "BASIS_POINTS",
					"outputs": [
						{
							"internalType": "uint256",
							"name": "",
							"type": "uint256"
						}
					],
					"stateMutability": "view",
					"type": "function"
				},
				{
					"inputs": [
						{
							"internalType": "bytes32",
							"name": "",
							"type": "bytes32"
						}
					],
					"name": "codeOwners",
					"outputs": [
						{
							"internalType": "address",
							"name": "",
							"type": "address"
						}
					],
					"stateMutability": "view",
					"type": "function"
				},
				{
					"inputs": [
						{
							"internalType": "address",
							"name": "_account",
							"type": "address"
						}
					],
					"name": "getTraderReferralInfo",
					"outputs": [
						{
							"internalType": "bytes32",
							"name": "",
							"type": "bytes32"
						},
						{
							"internalType": "address",
							"name": "",
							"type": "address"
						}
					],
					"stateMutability": "view",
					"type": "function"
				},
				{
					"inputs": [],
					"name": "gov",
					"outputs": [
						{
							"internalType": "address",
							"name": "",
							"type": "address"
						}
					],
					"stateMutability": "view",
					"type": "function"
				},
				{
					"inputs": [
						{
							"internalType": "bytes32",
							"name": "_code",
							"type": "bytes32"
						},
						{
							"internalType": "address",
							"name": "_newAccount",
							"type": "address"
						}
					],
					"name": "govSetCodeOwner",
					"outputs": [],
					"stateMutability": "nonpayable",
					"type": "function"
				},
				{
					"inputs": [
						{
							"internalType": "address",
							"name": "",
							"type": "address"
						}
					],
					"name": "isHandler",
					"outputs": [
						{
							"internalType": "bool",
							"name": "",
							"type": "bool"
						}
					],
					"stateMutability": "view",
					"type": "function"
				},
				{
					"inputs": [
						{
							"internalType": "address",
							"name": "",
							"type": "address"
						}
					],
					"name": "referrerDiscountShares",
					"outputs": [
						{
							"internalType": "uint256",
							"name": "",
							"type": "uint256"
						}
					],
					"stateMutability": "view",
					"type": "function"
				},
				{
					"inputs": [
						{
							"internalType": "address",
							"name": "",
							"type": "address"
						}
					],
					"name": "referrerTiers",
					"outputs": [
						{
							"internalType": "uint256",
							"name": "",
							"type": "uint256"
						}
					],
					"stateMutability": "view",
					"type": "function"
				},
				{
					"inputs": [
						{
							"internalType": "bytes32",
							"name": "_code",
							"type": "bytes32"
						}
					],
					"name": "registerCode",
					"outputs": [],
					"stateMutability": "nonpayable",
					"type": "function"
				},
				{
					"inputs": [
						{
							"internalType": "bytes32",
							"name": "_code",
							"type": "bytes32"
						},
						{
							"internalType": "address",
							"name": "_newAccount",
							"type": "address"
						}
					],
					"name": "setCodeOwner",
					"outputs": [],
					"stateMutability": "nonpayable",
					"type": "function"
				},
				{
					"inputs": [
						{
							"internalType": "address",
							"name": "_gov",
							"type": "address"
						}
					],
					"name": "setGov",
					"outputs": [],
					"stateMutability": "nonpayable",
					"type": "function"
				},
				{
					"inputs": [
						{
							"internalType": "address",
							"name": "_handler",
							"type": "address"
						},
						{
							"internalType": "bool",
							"name": "_isActive",
							"type": "bool"
						}
					],
					"name": "setHandler",
					"outputs": [],
					"stateMutability": "nonpayable",
					"type": "function"
				},
				{
					"inputs": [
						{
							"internalType": "uint256",
							"name": "_discountShare",
							"type": "uint256"
						}
					],
					"name": "setReferrerDiscountShare",
					"outputs": [],
					"stateMutability": "nonpayable",
					"type": "function"
				},
				{
					"inputs": [
						{
							"internalType": "address",
							"name": "_referrer",
							"type": "address"
						},
						{
							"internalType": "uint256",
							"name": "_tierId",
							"type": "uint256"
						}
					],
					"name": "setReferrerTier",
					"outputs": [],
					"stateMutability": "nonpayable",
					"type": "function"
				},
				{
					"inputs": [
						{
							"internalType": "uint256",
							"name": "_tierId",
							"type": "uint256"
						},
						{
							"internalType": "uint256",
							"name": "_totalRebate",
							"type": "uint256"
						},
						{
							"internalType": "uint256",
							"name": "_discountShare",
							"type": "uint256"
						}
					],
					"name": "setTier",
					"outputs": [],
					"stateMutability": "nonpayable",
					"type": "function"
				},
				{
					"inputs": [
						{
							"internalType": "address",
							"name": "_account",
							"type": "address"
						},
						{
							"internalType": "bytes32",
							"name": "_code",
							"type": "bytes32"
						}
					],
					"name": "setTraderReferralCode",
					"outputs": [],
					"stateMutability": "nonpayable",
					"type": "function"
				},
				{
					"inputs": [
						{
							"internalType": "bytes32",
							"name": "_code",
							"type": "bytes32"
						}
					],
					"name": "setTraderReferralCodeByUser",
					"outputs": [],
					"stateMutability": "nonpayable",
					"type": "function"
				},
				{
					"inputs": [
						{
							"internalType": "uint256",
							"name": "",
							"type": "uint256"
						}
					],
					"name": "tiers",
					"outputs": [
						{
							"internalType": "uint256",
							"name": "totalRebate",
							"type": "uint256"
						},
						{
							"internalType": "uint256",
							"name": "discountShare",
							"type": "uint256"
						}
					],
					"stateMutability": "view",
					"type": "function"
				},
				{
					"inputs": [
						{
							"internalType": "address",
							"name": "",
							"type": "address"
						}
					],
					"name": "traderReferralCodes",
					"outputs": [
						{
							"internalType": "bytes32",
							"name": "",
							"type": "bytes32"
						}
					],
					"stateMutability": "view",
					"type": "function"
				}
			],
			"devdoc": {
				"kind": "dev",
				"methods": {},
				"version": 1
			},
			"evm": {
				"assembly": "    /* \"gist-8f725c60264b06bd3459f9205e86010e/ReferralStorage.sol\":1423:5702  contract ReferralStorage is Governable, IReferralStorage {... */\n  mstore(0x40, 0x80)\n  callvalue\n  dup1\n  iszero\n  tag_1\n  jumpi\n  0x00\n  dup1\n  revert\ntag_1:\n  pop\n    /* \"gist-8f725c60264b06bd3459f9205e86010e/Governable.sol\":1397:1407  msg.sender */\n  caller\n    /* \"gist-8f725c60264b06bd3459f9205e86010e/Governable.sol\":1391:1394  gov */\n  0x00\n  dup1\n    /* \"gist-8f725c60264b06bd3459f9205e86010e/Governable.sol\":1391:1407  gov = msg.sender */\n  0x0100\n  exp\n  dup2\n  sload\n  dup2\n  0xffffffffffffffffffffffffffffffffffffffff\n  mul\n  not\n  and\n  swap1\n  dup4\n  0xffffffffffffffffffffffffffffffffffffffff\n  and\n  mul\n  or\n  swap1\n  sstore\n  pop\n    /* \"gist-8f725c60264b06bd3459f9205e86010e/ReferralStorage.sol\":1423:5702  contract ReferralStorage is Governable, IReferralStorage {... */\n  dataSize(sub_0)\n  dup1\n  dataOffset(sub_0)\n  0x00\n  codecopy\n  0x00\n  return\nstop\n\nsub_0: assembly {\n        /* \"gist-8f725c60264b06bd3459f9205e86010e/ReferralStorage.sol\":1423:5702  contract ReferralStorage is Governable, IReferralStorage {... */\n      mstore(0x40, 0x80)\n      callvalue\n      dup1\n      iszero\n      tag_1\n      jumpi\n      0x00\n      dup1\n      revert\n    tag_1:\n      pop\n      jumpi(tag_2, lt(calldatasize, 0x04))\n      shr(0xe0, calldataload(0x00))\n      dup1\n      0x836a0187\n      gt\n      tag_22\n      jumpi\n      dup1\n      0xcfad57a2\n      gt\n      tag_23\n      jumpi\n      dup1\n      0xcfad57a2\n      eq\n      tag_17\n      jumpi\n      dup1\n      0xdfcfa250\n      eq\n      tag_18\n      jumpi\n      dup1\n      0xe1e01bf3\n      eq\n      tag_19\n      jumpi\n      dup1\n      0xe1f1c4a7\n      eq\n      tag_20\n      jumpi\n      dup1\n      0xed843134\n      eq\n      tag_21\n      jumpi\n      jump(tag_2)\n    tag_23:\n      dup1\n      0x836a0187\n      eq\n      tag_12\n      jumpi\n      dup1\n      0x85725b58\n      eq\n      tag_13\n      jumpi\n      dup1\n      0x9c8e2de9\n      eq\n      tag_14\n      jumpi\n      dup1\n      0x9cb7de4b\n      eq\n      tag_15\n      jumpi\n      dup1\n      0xc8b3c460\n      eq\n      tag_16\n      jumpi\n      jump(tag_2)\n    tag_22:\n      dup1\n      0x3fb8b323\n      gt\n      tag_24\n      jumpi\n      dup1\n      0x3fb8b323\n      eq\n      tag_7\n      jumpi\n      dup1\n      0x46ea87af\n      eq\n      tag_8\n      jumpi\n      dup1\n      0x534ef883\n      eq\n      tag_9\n      jumpi\n      dup1\n      0x56b4b2ad\n      eq\n      tag_10\n      jumpi\n      dup1\n      0x71a6a790\n      eq\n      tag_11\n      jumpi\n      jump(tag_2)\n    tag_24:\n      dup1\n      0x039af9eb\n      eq\n      tag_3\n      jumpi\n      dup1\n      0x12d43a51\n      eq\n      tag_4\n      jumpi\n      dup1\n      0x1582a018\n      eq\n      tag_5\n      jumpi\n      dup1\n      0x36def2c8\n      eq\n      tag_6\n      jumpi\n    tag_2:\n      0x00\n      dup1\n      revert\n        /* \"gist-8f725c60264b06bd3459f9205e86010e/ReferralStorage.sol\":1934:1972  mapping (uint256 => Tier) public tiers */\n    tag_3:\n      tag_25\n      0x04\n      dup1\n      calldatasize\n      sub\n      0x20\n      dup2\n      lt\n      iszero\n      tag_26\n      jumpi\n      0x00\n      dup1\n      revert\n    tag_26:\n      dup2\n      add\n      swap1\n      dup1\n      dup1\n      calldataload\n      swap1\n      0x20\n      add\n      swap1\n      swap3\n      swap2\n      swap1\n      pop\n      pop\n      pop\n      tag_27\n      jump\t// in\n    tag_25:\n      mload(0x40)\n      dup1\n      dup4\n      dup2\n      mstore\n      0x20\n      add\n      dup3\n      dup2\n      mstore\n      0x20\n      add\n      swap3\n      pop\n      pop\n      pop\n      mload(0x40)\n      dup1\n      swap2\n      sub\n      swap1\n      return\n        /* \"gist-8f725c60264b06bd3459f9205e86010e/Governable.sol\":1335:1353  address public gov */\n    tag_4:\n      tag_28\n      tag_29\n      jump\t// in\n    tag_28:\n      mload(0x40)\n      dup1\n      dup3\n      0xffffffffffffffffffffffffffffffffffffffff\n      and\n      dup2\n      mstore\n      0x20\n      add\n      swap2\n      pop\n      pop\n      mload(0x40)\n      dup1\n      swap2\n      sub\n      swap1\n      return\n        /* \"gist-8f725c60264b06bd3459f9205e86010e/ReferralStorage.sol\":1841:1899  mapping (address => uint256) public override referrerTiers */\n    tag_5:\n      tag_30\n      0x04\n      dup1\n      calldatasize\n      sub\n      0x20\n      dup2\n      lt\n      iszero\n      tag_31\n      jumpi\n      0x00\n      dup1\n      revert\n    tag_31:\n      dup2\n      add\n      swap1\n      dup1\n      dup1\n      calldataload\n      0xffffffffffffffffffffffffffffffffffffffff\n      and\n      swap1\n      0x20\n      add\n      swap1\n      swap3\n      swap2\n      swap1\n      pop\n      pop\n      pop\n      tag_32\n      jump\t// in\n    tag_30:\n      mload(0x40)\n      dup1\n      dup3\n      dup2\n      mstore\n      0x20\n      add\n      swap2\n      pop\n      pop\n      mload(0x40)\n      dup1\n      swap2\n      sub\n      swap1\n      return\n        /* \"gist-8f725c60264b06bd3459f9205e86010e/ReferralStorage.sol\":4269:4571  function registerCode(bytes32 _code) external {... */\n    tag_6:\n      tag_33\n      0x04\n      dup1\n      calldatasize\n      sub\n      0x20\n      dup2\n      lt\n      iszero\n      tag_34\n      jumpi\n      0x00\n      dup1\n      revert\n    tag_34:\n      dup2\n      add\n      swap1\n      dup1\n      dup1\n      calldataload\n      swap1\n      0x20\n      add\n      swap1\n      swap3\n      swap2\n      swap1\n      pop\n      pop\n      pop\n      tag_35\n      jump\t// in\n    tag_33:\n      stop\n        /* \"gist-8f725c60264b06bd3459f9205e86010e/ReferralStorage.sol\":3494:3682  function setReferrerTier(address _referrer, uint256 _tierId) external override onlyGov {... */\n    tag_7:\n      tag_36\n      0x04\n      dup1\n      calldatasize\n      sub\n      0x40\n      dup2\n      lt\n      iszero\n      tag_37\n      jumpi\n      0x00\n      dup1\n      revert\n    tag_37:\n      dup2\n      add\n      swap1\n      dup1\n      dup1\n      calldataload\n      0xffffffffffffffffffffffffffffffffffffffff\n      and\n      swap1\n      0x20\n      add\n      swap1\n      swap3\n      swap2\n      swap1\n      dup1\n      calldataload\n      swap1\n      0x20\n      add\n      swap1\n      swap3\n      swap2\n      swap1\n      pop\n      pop\n      pop\n      tag_38\n      jump\t// in\n    tag_36:\n      stop\n        /* \"gist-8f725c60264b06bd3459f9205e86010e/ReferralStorage.sol\":1979:2021  mapping (address => bool) public isHandler */\n    tag_8:\n      tag_39\n      0x04\n      dup1\n      calldatasize\n      sub\n      0x20\n      dup2\n      lt\n      iszero\n      tag_40\n      jumpi\n      0x00\n      dup1\n      revert\n    tag_40:\n      dup2\n      add\n      swap1\n      dup1\n      dup1\n      calldataload\n      0xffffffffffffffffffffffffffffffffffffffff\n      and\n      swap1\n      0x20\n      add\n      swap1\n      swap3\n      swap2\n      swap1\n      pop\n      pop\n      pop\n      tag_41\n      jump\t// in\n    tag_39:\n      mload(0x40)\n      dup1\n      dup3\n      iszero\n      iszero\n      dup2\n      mstore\n      0x20\n      add\n      swap2\n      pop\n      pop\n      mload(0x40)\n      dup1\n      swap2\n      sub\n      swap1\n      return\n        /* \"gist-8f725c60264b06bd3459f9205e86010e/ReferralStorage.sol\":5210:5514  function getTraderReferralInfo(address _account) external override view returns (bytes32, address) {... */\n    tag_9:\n      tag_42\n      0x04\n      dup1\n      calldatasize\n      sub\n      0x20\n      dup2\n      lt\n      iszero\n      tag_43\n      jumpi\n      0x00\n      dup1\n      revert\n    tag_43:\n      dup2\n      add\n      swap1\n      dup1\n      dup1\n      calldataload\n      0xffffffffffffffffffffffffffffffffffffffff\n      and\n      swap1\n      0x20\n      add\n      swap1\n      swap3\n      swap2\n      swap1\n      pop\n      pop\n      pop\n      tag_44\n      jump\t// in\n    tag_42:\n      mload(0x40)\n      dup1\n      dup4\n      dup2\n      mstore\n      0x20\n      add\n      dup3\n      0xffffffffffffffffffffffffffffffffffffffff\n      and\n      dup2\n      mstore\n      0x20\n      add\n      swap3\n      pop\n      pop\n      pop\n      mload(0x40)\n      dup1\n      swap2\n      sub\n      swap1\n      return\n        /* \"gist-8f725c60264b06bd3459f9205e86010e/ReferralStorage.sol\":3988:4138  function setTraderReferralCode(address _account, bytes32 _code) external override onlyHandler {... */\n    tag_10:\n      tag_45\n      0x04\n      dup1\n      calldatasize\n      sub\n      0x40\n      dup2\n      lt\n      iszero\n      tag_46\n      jumpi\n      0x00\n      dup1\n      revert\n    tag_46:\n      dup2\n      add\n      swap1\n      dup1\n      dup1\n      calldataload\n      0xffffffffffffffffffffffffffffffffffffffff\n      and\n      swap1\n      0x20\n      add\n      swap1\n      swap3\n      swap2\n      swap1\n      dup1\n      calldataload\n      swap1\n      0x20\n      add\n      swap1\n      swap3\n      swap2\n      swap1\n      pop\n      pop\n      pop\n      tag_47\n      jump\t// in\n    tag_45:\n      stop\n        /* \"gist-8f725c60264b06bd3459f9205e86010e/ReferralStorage.sol\":1731:1798  mapping (address => uint256) public override referrerDiscountShares */\n    tag_11:\n      tag_48\n      0x04\n      dup1\n      calldatasize\n      sub\n      0x20\n      dup2\n      lt\n      iszero\n      tag_49\n      jumpi\n      0x00\n      dup1\n      revert\n    tag_49:\n      dup2\n      add\n      swap1\n      dup1\n      dup1\n      calldataload\n      0xffffffffffffffffffffffffffffffffffffffff\n      and\n      swap1\n      0x20\n      add\n      swap1\n      swap3\n      swap2\n      swap1\n      pop\n      pop\n      pop\n      tag_50\n      jump\t// in\n    tag_48:\n      mload(0x40)\n      dup1\n      dup3\n      dup2\n      mstore\n      0x20\n      add\n      swap2\n      pop\n      pop\n      mload(0x40)\n      dup1\n      swap2\n      sub\n      swap1\n      return\n        /* \"gist-8f725c60264b06bd3459f9205e86010e/ReferralStorage.sol\":2975:3488  function setTier(uint256 _tierId, uint256 _totalRebate, uint256 _discountShare) external override onlyGov {... */\n    tag_12:\n      tag_51\n      0x04\n      dup1\n      calldatasize\n      sub\n      0x60\n      dup2\n      lt\n      iszero\n      tag_52\n      jumpi\n      0x00\n      dup1\n      revert\n    tag_52:\n      dup2\n      add\n      swap1\n      dup1\n      dup1\n      calldataload\n      swap1\n      0x20\n      add\n      swap1\n      swap3\n      swap2\n      swap1\n      dup1\n      calldataload\n      swap1\n      0x20\n      add\n      swap1\n      swap3\n      swap2\n      swap1\n      dup1\n      calldataload\n      swap1\n      0x20\n      add\n      swap1\n      swap3\n      swap2\n      swap1\n      pop\n      pop\n      pop\n      tag_53\n      jump\t// in\n    tag_51:\n      stop\n        /* \"gist-8f725c60264b06bd3459f9205e86010e/ReferralStorage.sol\":2089:2153  mapping (address => bytes32) public override traderReferralCodes */\n    tag_13:\n      tag_54\n      0x04\n      dup1\n      calldatasize\n      sub\n      0x20\n      dup2\n      lt\n      iszero\n      tag_55\n      jumpi\n      0x00\n      dup1\n      revert\n    tag_55:\n      dup2\n      add\n      swap1\n      dup1\n      dup1\n      calldataload\n      0xffffffffffffffffffffffffffffffffffffffff\n      and\n      swap1\n      0x20\n      add\n      swap1\n      swap3\n      swap2\n      swap1\n      pop\n      pop\n      pop\n      tag_56\n      jump\t// in\n    tag_54:\n      mload(0x40)\n      dup1\n      dup3\n      dup2\n      mstore\n      0x20\n      add\n      swap2\n      pop\n      pop\n      mload(0x40)\n      dup1\n      swap2\n      sub\n      swap1\n      return\n        /* \"gist-8f725c60264b06bd3459f9205e86010e/ReferralStorage.sol\":3688:3982  function setReferrerDiscountShare(uint256 _discountShare) external {... */\n    tag_14:\n      tag_57\n      0x04\n      dup1\n      calldatasize\n      sub\n      0x20\n      dup2\n      lt\n      iszero\n      tag_58\n      jumpi\n      0x00\n      dup1\n      revert\n    tag_58:\n      dup2\n      add\n      swap1\n      dup1\n      dup1\n      calldataload\n      swap1\n      0x20\n      add\n      swap1\n      swap3\n      swap2\n      swap1\n      pop\n      pop\n      pop\n      tag_59\n      jump\t// in\n    tag_57:\n      stop\n        /* \"gist-8f725c60264b06bd3459f9205e86010e/ReferralStorage.sol\":2804:2969  function setHandler(address _handler, bool _isActive) external onlyGov {... */\n    tag_15:\n      tag_60\n      0x04\n      dup1\n      calldatasize\n      sub\n      0x40\n      dup2\n      lt\n      iszero\n      tag_61\n      jumpi\n      0x00\n      dup1\n      revert\n    tag_61:\n      dup2\n      add\n      swap1\n      dup1\n      dup1\n      calldataload\n      0xffffffffffffffffffffffffffffffffffffffff\n      and\n      swap1\n      0x20\n      add\n      swap1\n      swap3\n      swap2\n      swap1\n      dup1\n      calldataload\n      iszero\n      iszero\n      swap1\n      0x20\n      add\n      swap1\n      swap3\n      swap2\n      swap1\n      pop\n      pop\n      pop\n      tag_62\n      jump\t// in\n    tag_60:\n      stop\n        /* \"gist-8f725c60264b06bd3459f9205e86010e/ReferralStorage.sol\":2028:2083  mapping (bytes32 => address) public override codeOwners */\n    tag_16:\n      tag_63\n      0x04\n      dup1\n      calldatasize\n      sub\n      0x20\n      dup2\n      lt\n      iszero\n      tag_64\n      jumpi\n      0x00\n      dup1\n      revert\n    tag_64:\n      dup2\n      add\n      swap1\n      dup1\n      dup1\n      calldataload\n      swap1\n      0x20\n      add\n      swap1\n      swap3\n      swap2\n      swap1\n      pop\n      pop\n      pop\n      tag_65\n      jump\t// in\n    tag_63:\n      mload(0x40)\n      dup1\n      dup3\n      0xffffffffffffffffffffffffffffffffffffffff\n      and\n      dup2\n      mstore\n      0x20\n      add\n      swap2\n      pop\n      pop\n      mload(0x40)\n      dup1\n      swap2\n      sub\n      swap1\n      return\n        /* \"gist-8f725c60264b06bd3459f9205e86010e/Governable.sol\":1524:1598  function setGov(address _gov) external onlyGov {... */\n    tag_17:\n      tag_66\n      0x04\n      dup1\n      calldatasize\n      sub\n      0x20\n      dup2\n      lt\n      iszero\n      tag_67\n      jumpi\n      0x00\n      dup1\n      revert\n    tag_67:\n      dup2\n      add\n      swap1\n      dup1\n      dup1\n      calldataload\n      0xffffffffffffffffffffffffffffffffffffffff\n      and\n      swap1\n      0x20\n      add\n      swap1\n      swap3\n      swap2\n      swap1\n      pop\n      pop\n      pop\n      tag_68\n      jump\t// in\n    tag_66:\n      stop\n        /* \"gist-8f725c60264b06bd3459f9205e86010e/ReferralStorage.sol\":4946:5204  function govSetCodeOwner(bytes32 _code, address _newAccount) external override onlyGov {... */\n    tag_18:\n      tag_69\n      0x04\n      dup1\n      calldatasize\n      sub\n      0x40\n      dup2\n      lt\n      iszero\n      tag_70\n      jumpi\n      0x00\n      dup1\n      revert\n    tag_70:\n      dup2\n      add\n      swap1\n      dup1\n      dup1\n      calldataload\n      swap1\n      0x20\n      add\n      swap1\n      swap3\n      swap2\n      swap1\n      dup1\n      calldataload\n      0xffffffffffffffffffffffffffffffffffffffff\n      and\n      swap1\n      0x20\n      add\n      swap1\n      swap3\n      swap2\n      swap1\n      pop\n      pop\n      pop\n      tag_71\n      jump\t// in\n    tag_69:\n      stop\n        /* \"gist-8f725c60264b06bd3459f9205e86010e/ReferralStorage.sol\":4144:4263  function setTraderReferralCodeByUser(bytes32 _code) external {... */\n    tag_19:\n      tag_72\n      0x04\n      dup1\n      calldatasize\n      sub\n      0x20\n      dup2\n      lt\n      iszero\n      tag_73\n      jumpi\n      0x00\n      dup1\n      revert\n    tag_73:\n      dup2\n      add\n      swap1\n      dup1\n      dup1\n      calldataload\n      swap1\n      0x20\n      add\n      swap1\n      swap3\n      swap2\n      swap1\n      pop\n      pop\n      pop\n      tag_74\n      jump\t// in\n    tag_72:\n      stop\n        /* \"gist-8f725c60264b06bd3459f9205e86010e/ReferralStorage.sol\":1680:1724  uint256 public constant BASIS_POINTS = 10000 */\n    tag_20:\n      tag_75\n      tag_76\n      jump\t// in\n    tag_75:\n      mload(0x40)\n      dup1\n      dup3\n      dup2\n      mstore\n      0x20\n      add\n      swap2\n      pop\n      pop\n      mload(0x40)\n      dup1\n      swap2\n      sub\n      swap1\n      return\n        /* \"gist-8f725c60264b06bd3459f9205e86010e/ReferralStorage.sol\":4577:4940  function setCodeOwner(bytes32 _code, address _newAccount) external {... */\n    tag_21:\n      tag_77\n      0x04\n      dup1\n      calldatasize\n      sub\n      0x40\n      dup2\n      lt\n      iszero\n      tag_78\n      jumpi\n      0x00\n      dup1\n      revert\n    tag_78:\n      dup2\n      add\n      swap1\n      dup1\n      dup1\n      calldataload\n      swap1\n      0x20\n      add\n      swap1\n      swap3\n      swap2\n      swap1\n      dup1\n      calldataload\n      0xffffffffffffffffffffffffffffffffffffffff\n      and\n      swap1\n      0x20\n      add\n      swap1\n      swap3\n      swap2\n      swap1\n      pop\n      pop\n      pop\n      tag_79\n      jump\t// in\n    tag_77:\n      stop\n        /* \"gist-8f725c60264b06bd3459f9205e86010e/ReferralStorage.sol\":1934:1972  mapping (uint256 => Tier) public tiers */\n    tag_27:\n      mstore(0x20, 0x03)\n      dup1\n      0x00\n      mstore\n      keccak256(0x00, 0x40)\n      0x00\n      swap2\n      pop\n      swap1\n      pop\n      dup1\n      0x00\n      add\n      sload\n      swap1\n      dup1\n      0x01\n      add\n      sload\n      swap1\n      pop\n      dup3\n      jump\t// out\n        /* \"gist-8f725c60264b06bd3459f9205e86010e/Governable.sol\":1335:1353  address public gov */\n    tag_29:\n      0x00\n      dup1\n      sload\n      swap1\n      0x0100\n      exp\n      swap1\n      div\n      0xffffffffffffffffffffffffffffffffffffffff\n      and\n      dup2\n      jump\t// out\n        /* \"gist-8f725c60264b06bd3459f9205e86010e/ReferralStorage.sol\":1841:1899  mapping (address => uint256) public override referrerTiers */\n    tag_32:\n      mstore(0x20, 0x02)\n      dup1\n      0x00\n      mstore\n      keccak256(0x00, 0x40)\n      0x00\n      swap2\n      pop\n      swap1\n      pop\n      sload\n      dup2\n      jump\t// out\n        /* \"gist-8f725c60264b06bd3459f9205e86010e/ReferralStorage.sol\":4269:4571  function registerCode(bytes32 _code) external {... */\n    tag_35:\n        /* \"gist-8f725c60264b06bd3459f9205e86010e/ReferralStorage.sol\":4350:4351  0 */\n      0x00\n        /* \"gist-8f725c60264b06bd3459f9205e86010e/ReferralStorage.sol\":4342:4352  bytes32(0) */\n      dup1\n      shl\n        /* \"gist-8f725c60264b06bd3459f9205e86010e/ReferralStorage.sol\":4333:4338  _code */\n      dup2\n        /* \"gist-8f725c60264b06bd3459f9205e86010e/ReferralStorage.sol\":4333:4352  _code != bytes32(0) */\n      eq\n      iszero\n        /* \"gist-8f725c60264b06bd3459f9205e86010e/ReferralStorage.sol\":4325:4387  require(_code != bytes32(0), \"ReferralStorage: invalid _code\") */\n      tag_81\n      jumpi\n      mload(0x40)\n      0x08c379a000000000000000000000000000000000000000000000000000000000\n      dup2\n      mstore\n      0x04\n      add\n      dup1\n      dup1\n      0x20\n      add\n      dup3\n      dup2\n      sub\n      dup3\n      mstore\n      0x1e\n      dup2\n      mstore\n      0x20\n      add\n      dup1\n      0x526566657272616c53746f726167653a20696e76616c6964205f636f64650000\n      dup2\n      mstore\n      pop\n      0x20\n      add\n      swap2\n      pop\n      pop\n      mload(0x40)\n      dup1\n      swap2\n      sub\n      swap1\n      revert\n    tag_81:\n        /* \"gist-8f725c60264b06bd3459f9205e86010e/ReferralStorage.sol\":4434:4435  0 */\n      0x00\n        /* \"gist-8f725c60264b06bd3459f9205e86010e/ReferralStorage.sol\":4405:4436  codeOwners[_code] == address(0) */\n      0xffffffffffffffffffffffffffffffffffffffff\n      and\n        /* \"gist-8f725c60264b06bd3459f9205e86010e/ReferralStorage.sol\":4405:4415  codeOwners */\n      0x05\n        /* \"gist-8f725c60264b06bd3459f9205e86010e/ReferralStorage.sol\":4405:4422  codeOwners[_code] */\n      0x00\n        /* \"gist-8f725c60264b06bd3459f9205e86010e/ReferralStorage.sol\":4416:4421  _code */\n      dup4\n        /* \"gist-8f725c60264b06bd3459f9205e86010e/ReferralStorage.sol\":4405:4422  codeOwners[_code] */\n      dup2\n      mstore\n      0x20\n      add\n      swap1\n      dup2\n      mstore\n      0x20\n      add\n      0x00\n      keccak256\n      0x00\n      swap1\n      sload\n      swap1\n      0x0100\n      exp\n      swap1\n      div\n      0xffffffffffffffffffffffffffffffffffffffff\n      and\n        /* \"gist-8f725c60264b06bd3459f9205e86010e/ReferralStorage.sol\":4405:4436  codeOwners[_code] == address(0) */\n      0xffffffffffffffffffffffffffffffffffffffff\n      and\n      eq\n        /* \"gist-8f725c60264b06bd3459f9205e86010e/ReferralStorage.sol\":4397:4477  require(codeOwners[_code] == address(0), \"ReferralStorage: code already exists\") */\n      tag_82\n      jumpi\n      mload(0x40)\n      0x08c379a000000000000000000000000000000000000000000000000000000000\n      dup2\n      mstore\n      0x04\n      add\n      dup1\n      dup1\n      0x20\n      add\n      dup3\n      dup2\n      sub\n      dup3\n      mstore\n      0x24\n      dup2\n      mstore\n      0x20\n      add\n      dup1\n      data_b2355e1e82d95d5e6371e02845c6589636ba7aa2b4d4d7f559f753b06b6b417c\n      0x24\n      swap2\n      codecopy\n      0x40\n      add\n      swap2\n      pop\n      pop\n      mload(0x40)\n      dup1\n      swap2\n      sub\n      swap1\n      revert\n    tag_82:\n        /* \"gist-8f725c60264b06bd3459f9205e86010e/ReferralStorage.sol\":4508:4518  msg.sender */\n      caller\n        /* \"gist-8f725c60264b06bd3459f9205e86010e/ReferralStorage.sol\":4488:4498  codeOwners */\n      0x05\n        /* \"gist-8f725c60264b06bd3459f9205e86010e/ReferralStorage.sol\":4488:4505  codeOwners[_code] */\n      0x00\n        /* \"gist-8f725c60264b06bd3459f9205e86010e/ReferralStorage.sol\":4499:4504  _code */\n      dup4\n        /* \"gist-8f725c60264b06bd3459f9205e86010e/ReferralStorage.sol\":4488:4505  codeOwners[_code] */\n      dup2\n      mstore\n      0x20\n      add\n      swap1\n      dup2\n      mstore\n      0x20\n      add\n      0x00\n      keccak256\n      0x00\n        /* \"gist-8f725c60264b06bd3459f9205e86010e/ReferralStorage.sol\":4488:4518  codeOwners[_code] = msg.sender */\n      0x0100\n      exp\n      dup2\n      sload\n      dup2\n      0xffffffffffffffffffffffffffffffffffffffff\n      mul\n      not\n      and\n      swap1\n      dup4\n      0xffffffffffffffffffffffffffffffffffffffff\n      and\n      mul\n      or\n      swap1\n      sstore\n      pop\n        /* \"gist-8f725c60264b06bd3459f9205e86010e/ReferralStorage.sol\":4533:4564  RegisterCode(msg.sender, _code) */\n      0x04f82286a2a3b2ee5c8555de8304dfe2ea70991613213184b73a9e408d2d8029\n        /* \"gist-8f725c60264b06bd3459f9205e86010e/ReferralStorage.sol\":4546:4556  msg.sender */\n      caller\n        /* \"gist-8f725c60264b06bd3459f9205e86010e/ReferralStorage.sol\":4558:4563  _code */\n      dup3\n        /* \"gist-8f725c60264b06bd3459f9205e86010e/ReferralStorage.sol\":4533:4564  RegisterCode(msg.sender, _code) */\n      mload(0x40)\n      dup1\n      dup4\n      0xffffffffffffffffffffffffffffffffffffffff\n      and\n      dup2\n      mstore\n      0x20\n      add\n      dup3\n      dup2\n      mstore\n      0x20\n      add\n      swap3\n      pop\n      pop\n      pop\n      mload(0x40)\n      dup1\n      swap2\n      sub\n      swap1\n      log1\n        /* \"gist-8f725c60264b06bd3459f9205e86010e/ReferralStorage.sol\":4269:4571  function registerCode(bytes32 _code) external {... */\n      pop\n      jump\t// out\n        /* \"gist-8f725c60264b06bd3459f9205e86010e/ReferralStorage.sol\":3494:3682  function setReferrerTier(address _referrer, uint256 _tierId) external override onlyGov {... */\n    tag_38:\n        /* \"gist-8f725c60264b06bd3459f9205e86010e/Governable.sol\":1471:1474  gov */\n      0x00\n      dup1\n      sload\n      swap1\n      0x0100\n      exp\n      swap1\n      div\n      0xffffffffffffffffffffffffffffffffffffffff\n      and\n        /* \"gist-8f725c60264b06bd3459f9205e86010e/Governable.sol\":1457:1474  msg.sender == gov */\n      0xffffffffffffffffffffffffffffffffffffffff\n      and\n        /* \"gist-8f725c60264b06bd3459f9205e86010e/Governable.sol\":1457:1467  msg.sender */\n      caller\n        /* \"gist-8f725c60264b06bd3459f9205e86010e/Governable.sol\":1457:1474  msg.sender == gov */\n      0xffffffffffffffffffffffffffffffffffffffff\n      and\n      eq\n        /* \"gist-8f725c60264b06bd3459f9205e86010e/Governable.sol\":1449:1500  require(msg.sender == gov, \"Governable: forbidden\") */\n      tag_84\n      jumpi\n      mload(0x40)\n      0x08c379a000000000000000000000000000000000000000000000000000000000\n      dup2\n      mstore\n      0x04\n      add\n      dup1\n      dup1\n      0x20\n      add\n      dup3\n      dup2\n      sub\n      dup3\n      mstore\n      0x15\n      dup2\n      mstore\n      0x20\n      add\n      dup1\n      0x476f7665726e61626c653a20666f7262696464656e0000000000000000000000\n      dup2\n      mstore\n      pop\n      0x20\n      add\n      swap2\n      pop\n      pop\n      mload(0x40)\n      dup1\n      swap2\n      sub\n      swap1\n      revert\n    tag_84:\n        /* \"gist-8f725c60264b06bd3459f9205e86010e/ReferralStorage.sol\":3618:3625  _tierId */\n      dup1\n        /* \"gist-8f725c60264b06bd3459f9205e86010e/ReferralStorage.sol\":3591:3604  referrerTiers */\n      0x02\n        /* \"gist-8f725c60264b06bd3459f9205e86010e/ReferralStorage.sol\":3591:3615  referrerTiers[_referrer] */\n      0x00\n        /* \"gist-8f725c60264b06bd3459f9205e86010e/ReferralStorage.sol\":3605:3614  _referrer */\n      dup5\n        /* \"gist-8f725c60264b06bd3459f9205e86010e/ReferralStorage.sol\":3591:3615  referrerTiers[_referrer] */\n      0xffffffffffffffffffffffffffffffffffffffff\n      and\n      0xffffffffffffffffffffffffffffffffffffffff\n      and\n      dup2\n      mstore\n      0x20\n      add\n      swap1\n      dup2\n      mstore\n      0x20\n      add\n      0x00\n      keccak256\n        /* \"gist-8f725c60264b06bd3459f9205e86010e/ReferralStorage.sol\":3591:3625  referrerTiers[_referrer] = _tierId */\n      dup2\n      swap1\n      sstore\n      pop\n        /* \"gist-8f725c60264b06bd3459f9205e86010e/ReferralStorage.sol\":3640:3675  SetReferrerTier(_referrer, _tierId) */\n      0x7696855cdbb94bb5a44cb0a95caff6f29173aa1cbfba193834b12b90827ce2bc\n        /* \"gist-8f725c60264b06bd3459f9205e86010e/ReferralStorage.sol\":3656:3665  _referrer */\n      dup3\n        /* \"gist-8f725c60264b06bd3459f9205e86010e/ReferralStorage.sol\":3667:3674  _tierId */\n      dup3\n        /* \"gist-8f725c60264b06bd3459f9205e86010e/ReferralStorage.sol\":3640:3675  SetReferrerTier(_referrer, _tierId) */\n      mload(0x40)\n      dup1\n      dup4\n      0xffffffffffffffffffffffffffffffffffffffff\n      and\n      dup2\n      mstore\n      0x20\n      add\n      dup3\n      dup2\n      mstore\n      0x20\n      add\n      swap3\n      pop\n      pop\n      pop\n      mload(0x40)\n      dup1\n      swap2\n      sub\n      swap1\n      log1\n        /* \"gist-8f725c60264b06bd3459f9205e86010e/ReferralStorage.sol\":3494:3682  function setReferrerTier(address _referrer, uint256 _tierId) external override onlyGov {... */\n      pop\n      pop\n      jump\t// out\n        /* \"gist-8f725c60264b06bd3459f9205e86010e/ReferralStorage.sol\":1979:2021  mapping (address => bool) public isHandler */\n    tag_41:\n      mstore(0x20, 0x04)\n      dup1\n      0x00\n      mstore\n      keccak256(0x00, 0x40)\n      0x00\n      swap2\n      pop\n      sload\n      swap1\n      0x0100\n      exp\n      swap1\n      div\n      0xff\n      and\n      dup2\n      jump\t// out\n        /* \"gist-8f725c60264b06bd3459f9205e86010e/ReferralStorage.sol\":5210:5514  function getTraderReferralInfo(address _account) external override view returns (bytes32, address) {... */\n    tag_44:\n        /* \"gist-8f725c60264b06bd3459f9205e86010e/ReferralStorage.sol\":5291:5298  bytes32 */\n      0x00\n        /* \"gist-8f725c60264b06bd3459f9205e86010e/ReferralStorage.sol\":5300:5307  address */\n      dup1\n        /* \"gist-8f725c60264b06bd3459f9205e86010e/ReferralStorage.sol\":5319:5331  bytes32 code */\n      0x00\n        /* \"gist-8f725c60264b06bd3459f9205e86010e/ReferralStorage.sol\":5334:5353  traderReferralCodes */\n      0x06\n        /* \"gist-8f725c60264b06bd3459f9205e86010e/ReferralStorage.sol\":5334:5363  traderReferralCodes[_account] */\n      0x00\n        /* \"gist-8f725c60264b06bd3459f9205e86010e/ReferralStorage.sol\":5354:5362  _account */\n      dup6\n        /* \"gist-8f725c60264b06bd3459f9205e86010e/ReferralStorage.sol\":5334:5363  traderReferralCodes[_account] */\n      0xffffffffffffffffffffffffffffffffffffffff\n      and\n      0xffffffffffffffffffffffffffffffffffffffff\n      and\n      dup2\n      mstore\n      0x20\n      add\n      swap1\n      dup2\n      mstore\n      0x20\n      add\n      0x00\n      keccak256\n      sload\n        /* \"gist-8f725c60264b06bd3459f9205e86010e/ReferralStorage.sol\":5319:5363  bytes32 code = traderReferralCodes[_account] */\n      swap1\n      pop\n        /* \"gist-8f725c60264b06bd3459f9205e86010e/ReferralStorage.sol\":5373:5389  address referrer */\n      0x00\n        /* \"gist-8f725c60264b06bd3459f9205e86010e/ReferralStorage.sol\":5419:5420  0 */\n      dup1\n        /* \"gist-8f725c60264b06bd3459f9205e86010e/ReferralStorage.sol\":5411:5421  bytes32(0) */\n      0x00\n      shl\n        /* \"gist-8f725c60264b06bd3459f9205e86010e/ReferralStorage.sol\":5403:5407  code */\n      dup3\n        /* \"gist-8f725c60264b06bd3459f9205e86010e/ReferralStorage.sol\":5403:5421  code != bytes32(0) */\n      eq\n        /* \"gist-8f725c60264b06bd3459f9205e86010e/ReferralStorage.sol\":5399:5475  if (code != bytes32(0)) {... */\n      tag_87\n      jumpi\n        /* \"gist-8f725c60264b06bd3459f9205e86010e/ReferralStorage.sol\":5448:5458  codeOwners */\n      0x05\n        /* \"gist-8f725c60264b06bd3459f9205e86010e/ReferralStorage.sol\":5448:5464  codeOwners[code] */\n      0x00\n        /* \"gist-8f725c60264b06bd3459f9205e86010e/ReferralStorage.sol\":5459:5463  code */\n      dup4\n        /* \"gist-8f725c60264b06bd3459f9205e86010e/ReferralStorage.sol\":5448:5464  codeOwners[code] */\n      dup2\n      mstore\n      0x20\n      add\n      swap1\n      dup2\n      mstore\n      0x20\n      add\n      0x00\n      keccak256\n      0x00\n      swap1\n      sload\n      swap1\n      0x0100\n      exp\n      swap1\n      div\n      0xffffffffffffffffffffffffffffffffffffffff\n      and\n        /* \"gist-8f725c60264b06bd3459f9205e86010e/ReferralStorage.sol\":5437:5464  referrer = codeOwners[code] */\n      swap1\n      pop\n        /* \"gist-8f725c60264b06bd3459f9205e86010e/ReferralStorage.sol\":5399:5475  if (code != bytes32(0)) {... */\n    tag_87:\n        /* \"gist-8f725c60264b06bd3459f9205e86010e/ReferralStorage.sol\":5492:5496  code */\n      dup2\n        /* \"gist-8f725c60264b06bd3459f9205e86010e/ReferralStorage.sol\":5498:5506  referrer */\n      dup2\n        /* \"gist-8f725c60264b06bd3459f9205e86010e/ReferralStorage.sol\":5484:5507  return (code, referrer) */\n      swap4\n      pop\n      swap4\n      pop\n      pop\n      pop\n        /* \"gist-8f725c60264b06bd3459f9205e86010e/ReferralStorage.sol\":5210:5514  function getTraderReferralInfo(address _account) external override view returns (bytes32, address) {... */\n      swap2\n      pop\n      swap2\n      jump\t// out\n        /* \"gist-8f725c60264b06bd3459f9205e86010e/ReferralStorage.sol\":3988:4138  function setTraderReferralCode(address _account, bytes32 _code) external override onlyHandler {... */\n    tag_47:\n        /* \"gist-8f725c60264b06bd3459f9205e86010e/ReferralStorage.sol\":2728:2737  isHandler */\n      0x04\n        /* \"gist-8f725c60264b06bd3459f9205e86010e/ReferralStorage.sol\":2728:2749  isHandler[msg.sender] */\n      0x00\n        /* \"gist-8f725c60264b06bd3459f9205e86010e/ReferralStorage.sol\":2738:2748  msg.sender */\n      caller\n        /* \"gist-8f725c60264b06bd3459f9205e86010e/ReferralStorage.sol\":2728:2749  isHandler[msg.sender] */\n      0xffffffffffffffffffffffffffffffffffffffff\n      and\n      0xffffffffffffffffffffffffffffffffffffffff\n      and\n      dup2\n      mstore\n      0x20\n      add\n      swap1\n      dup2\n      mstore\n      0x20\n      add\n      0x00\n      keccak256\n      0x00\n      swap1\n      sload\n      swap1\n      0x0100\n      exp\n      swap1\n      div\n      0xff\n      and\n        /* \"gist-8f725c60264b06bd3459f9205e86010e/ReferralStorage.sol\":2720:2780  require(isHandler[msg.sender], \"ReferralStorage: forbidden\") */\n      tag_89\n      jumpi\n      mload(0x40)\n      0x08c379a000000000000000000000000000000000000000000000000000000000\n      dup2\n      mstore\n      0x04\n      add\n      dup1\n      dup1\n      0x20\n      add\n      dup3\n      dup2\n      sub\n      dup3\n      mstore\n      0x1a\n      dup2\n      mstore\n      0x20\n      add\n      dup1\n      0x526566657272616c53746f726167653a20666f7262696464656e000000000000\n      dup2\n      mstore\n      pop\n      0x20\n      add\n      swap2\n      pop\n      pop\n      mload(0x40)\n      dup1\n      swap2\n      sub\n      swap1\n      revert\n    tag_89:\n        /* \"gist-8f725c60264b06bd3459f9205e86010e/ReferralStorage.sol\":4092:4131  _setTraderReferralCode(_account, _code) */\n      tag_91\n        /* \"gist-8f725c60264b06bd3459f9205e86010e/ReferralStorage.sol\":4115:4123  _account */\n      dup3\n        /* \"gist-8f725c60264b06bd3459f9205e86010e/ReferralStorage.sol\":4125:4130  _code */\n      dup3\n        /* \"gist-8f725c60264b06bd3459f9205e86010e/ReferralStorage.sol\":4092:4114  _setTraderReferralCode */\n      tag_92\n        /* \"gist-8f725c60264b06bd3459f9205e86010e/ReferralStorage.sol\":4092:4131  _setTraderReferralCode(_account, _code) */\n      jump\t// in\n    tag_91:\n        /* \"gist-8f725c60264b06bd3459f9205e86010e/ReferralStorage.sol\":3988:4138  function setTraderReferralCode(address _account, bytes32 _code) external override onlyHandler {... */\n      pop\n      pop\n      jump\t// out\n        /* \"gist-8f725c60264b06bd3459f9205e86010e/ReferralStorage.sol\":1731:1798  mapping (address => uint256) public override referrerDiscountShares */\n    tag_50:\n      mstore(0x20, 0x01)\n      dup1\n      0x00\n      mstore\n      keccak256(0x00, 0x40)\n      0x00\n      swap2\n      pop\n      swap1\n      pop\n      sload\n      dup2\n      jump\t// out\n        /* \"gist-8f725c60264b06bd3459f9205e86010e/ReferralStorage.sol\":2975:3488  function setTier(uint256 _tierId, uint256 _totalRebate, uint256 _discountShare) external override onlyGov {... */\n    tag_53:\n        /* \"gist-8f725c60264b06bd3459f9205e86010e/Governable.sol\":1471:1474  gov */\n      0x00\n      dup1\n      sload\n      swap1\n      0x0100\n      exp\n      swap1\n      div\n      0xffffffffffffffffffffffffffffffffffffffff\n      and\n        /* \"gist-8f725c60264b06bd3459f9205e86010e/Governable.sol\":1457:1474  msg.sender == gov */\n      0xffffffffffffffffffffffffffffffffffffffff\n      and\n        /* \"gist-8f725c60264b06bd3459f9205e86010e/Governable.sol\":1457:1467  msg.sender */\n      caller\n        /* \"gist-8f725c60264b06bd3459f9205e86010e/Governable.sol\":1457:1474  msg.sender == gov */\n      0xffffffffffffffffffffffffffffffffffffffff\n      and\n      eq\n        /* \"gist-8f725c60264b06bd3459f9205e86010e/Governable.sol\":1449:1500  require(msg.sender == gov, \"Governable: forbidden\") */\n      tag_94\n      jumpi\n      mload(0x40)\n      0x08c379a000000000000000000000000000000000000000000000000000000000\n      dup2\n      mstore\n      0x04\n      add\n      dup1\n      dup1\n      0x20\n      add\n      dup3\n      dup2\n      sub\n      dup3\n      mstore\n      0x15\n      dup2\n      mstore\n      0x20\n      add\n      dup1\n      0x476f7665726e61626c653a20666f7262696464656e0000000000000000000000\n      dup2\n      mstore\n      pop\n      0x20\n      add\n      swap2\n      pop\n      pop\n      mload(0x40)\n      dup1\n      swap2\n      sub\n      swap1\n      revert\n    tag_94:\n        /* \"gist-8f725c60264b06bd3459f9205e86010e/ReferralStorage.sol\":1719:1724  10000 */\n      0x2710\n        /* \"gist-8f725c60264b06bd3459f9205e86010e/ReferralStorage.sol\":3099:3111  _totalRebate */\n      dup3\n        /* \"gist-8f725c60264b06bd3459f9205e86010e/ReferralStorage.sol\":3099:3127  _totalRebate <= BASIS_POINTS */\n      gt\n      iszero\n        /* \"gist-8f725c60264b06bd3459f9205e86010e/ReferralStorage.sol\":3091:3168  require(_totalRebate <= BASIS_POINTS, \"ReferralStorage: invalid totalRebate\") */\n      tag_96\n      jumpi\n      mload(0x40)\n      0x08c379a000000000000000000000000000000000000000000000000000000000\n      dup2\n      mstore\n      0x04\n      add\n      dup1\n      dup1\n      0x20\n      add\n      dup3\n      dup2\n      sub\n      dup3\n      mstore\n      0x24\n      dup2\n      mstore\n      0x20\n      add\n      dup1\n      data_4d33eb580886f04fd9ff51e197cf41f7959996ab7282f71945dcfa581f4d9b16\n      0x24\n      swap2\n      codecopy\n      0x40\n      add\n      swap2\n      pop\n      pop\n      mload(0x40)\n      dup1\n      swap2\n      sub\n      swap1\n      revert\n    tag_96:\n        /* \"gist-8f725c60264b06bd3459f9205e86010e/ReferralStorage.sol\":1719:1724  10000 */\n      0x2710\n        /* \"gist-8f725c60264b06bd3459f9205e86010e/ReferralStorage.sol\":3186:3200  _discountShare */\n      dup2\n        /* \"gist-8f725c60264b06bd3459f9205e86010e/ReferralStorage.sol\":3186:3216  _discountShare <= BASIS_POINTS */\n      gt\n      iszero\n        /* \"gist-8f725c60264b06bd3459f9205e86010e/ReferralStorage.sol\":3178:3259  require(_discountShare <= BASIS_POINTS, \"ReferralStorage: invalid discountShare\") */\n      tag_97\n      jumpi\n      mload(0x40)\n      0x08c379a000000000000000000000000000000000000000000000000000000000\n      dup2\n      mstore\n      0x04\n      add\n      dup1\n      dup1\n      0x20\n      add\n      dup3\n      dup2\n      sub\n      dup3\n      mstore\n      0x26\n      dup2\n      mstore\n      0x20\n      add\n      dup1\n      data_c46d8d93b77cffbb9e78ce163b985d96aa8f9f84c357795ff72b4672415b6e56\n      0x26\n      swap2\n      codecopy\n      0x40\n      add\n      swap2\n      pop\n      pop\n      mload(0x40)\n      dup1\n      swap2\n      sub\n      swap1\n      revert\n    tag_97:\n        /* \"gist-8f725c60264b06bd3459f9205e86010e/ReferralStorage.sol\":3270:3286  Tier memory tier */\n      tag_98\n      tag_99\n      jump\t// in\n    tag_98:\n        /* \"gist-8f725c60264b06bd3459f9205e86010e/ReferralStorage.sol\":3289:3294  tiers */\n      0x03\n        /* \"gist-8f725c60264b06bd3459f9205e86010e/ReferralStorage.sol\":3289:3303  tiers[_tierId] */\n      0x00\n        /* \"gist-8f725c60264b06bd3459f9205e86010e/ReferralStorage.sol\":3295:3302  _tierId */\n      dup6\n        /* \"gist-8f725c60264b06bd3459f9205e86010e/ReferralStorage.sol\":3289:3303  tiers[_tierId] */\n      dup2\n      mstore\n      0x20\n      add\n      swap1\n      dup2\n      mstore\n      0x20\n      add\n      0x00\n      keccak256\n        /* \"gist-8f725c60264b06bd3459f9205e86010e/ReferralStorage.sol\":3270:3303  Tier memory tier = tiers[_tierId] */\n      mload(0x40)\n      dup1\n      0x40\n      add\n      0x40\n      mstore\n      swap1\n      dup2\n      0x00\n      dup3\n      add\n      sload\n      dup2\n      mstore\n      0x20\n      add\n      0x01\n      dup3\n      add\n      sload\n      dup2\n      mstore\n      pop\n      pop\n      swap1\n      pop\n        /* \"gist-8f725c60264b06bd3459f9205e86010e/ReferralStorage.sol\":3332:3344  _totalRebate */\n      dup3\n        /* \"gist-8f725c60264b06bd3459f9205e86010e/ReferralStorage.sol\":3313:3317  tier */\n      dup2\n        /* \"gist-8f725c60264b06bd3459f9205e86010e/ReferralStorage.sol\":3313:3329  tier.totalRebate */\n      0x00\n      add\n        /* \"gist-8f725c60264b06bd3459f9205e86010e/ReferralStorage.sol\":3313:3344  tier.totalRebate = _totalRebate */\n      dup2\n      dup2\n      mstore\n      pop\n      pop\n        /* \"gist-8f725c60264b06bd3459f9205e86010e/ReferralStorage.sol\":3375:3389  _discountShare */\n      dup2\n        /* \"gist-8f725c60264b06bd3459f9205e86010e/ReferralStorage.sol\":3354:3358  tier */\n      dup2\n        /* \"gist-8f725c60264b06bd3459f9205e86010e/ReferralStorage.sol\":3354:3372  tier.discountShare */\n      0x20\n      add\n        /* \"gist-8f725c60264b06bd3459f9205e86010e/ReferralStorage.sol\":3354:3389  tier.discountShare = _discountShare */\n      dup2\n      dup2\n      mstore\n      pop\n      pop\n        /* \"gist-8f725c60264b06bd3459f9205e86010e/ReferralStorage.sol\":3416:3420  tier */\n      dup1\n        /* \"gist-8f725c60264b06bd3459f9205e86010e/ReferralStorage.sol\":3399:3404  tiers */\n      0x03\n        /* \"gist-8f725c60264b06bd3459f9205e86010e/ReferralStorage.sol\":3399:3413  tiers[_tierId] */\n      0x00\n        /* \"gist-8f725c60264b06bd3459f9205e86010e/ReferralStorage.sol\":3405:3412  _tierId */\n      dup7\n        /* \"gist-8f725c60264b06bd3459f9205e86010e/ReferralStorage.sol\":3399:3413  tiers[_tierId] */\n      dup2\n      mstore\n      0x20\n      add\n      swap1\n      dup2\n      mstore\n      0x20\n      add\n      0x00\n      keccak256\n        /* \"gist-8f725c60264b06bd3459f9205e86010e/ReferralStorage.sol\":3399:3420  tiers[_tierId] = tier */\n      0x00\n      dup3\n      add\n      mload\n      dup2\n      0x00\n      add\n      sstore\n      0x20\n      dup3\n      add\n      mload\n      dup2\n      0x01\n      add\n      sstore\n      swap1\n      pop\n      pop\n        /* \"gist-8f725c60264b06bd3459f9205e86010e/ReferralStorage.sol\":3435:3481  SetTier(_tierId, _totalRebate, _discountShare) */\n      0x4ebd23a492b2bd79586cb57cae40d7793408265f20320f68b478b971e696f4c7\n        /* \"gist-8f725c60264b06bd3459f9205e86010e/ReferralStorage.sol\":3443:3450  _tierId */\n      dup5\n        /* \"gist-8f725c60264b06bd3459f9205e86010e/ReferralStorage.sol\":3452:3464  _totalRebate */\n      dup5\n        /* \"gist-8f725c60264b06bd3459f9205e86010e/ReferralStorage.sol\":3466:3480  _discountShare */\n      dup5\n        /* \"gist-8f725c60264b06bd3459f9205e86010e/ReferralStorage.sol\":3435:3481  SetTier(_tierId, _totalRebate, _discountShare) */\n      mload(0x40)\n      dup1\n      dup5\n      dup2\n      mstore\n      0x20\n      add\n      dup4\n      dup2\n      mstore\n      0x20\n      add\n      dup3\n      dup2\n      mstore\n      0x20\n      add\n      swap4\n      pop\n      pop\n      pop\n      pop\n      mload(0x40)\n      dup1\n      swap2\n      sub\n      swap1\n      log1\n        /* \"gist-8f725c60264b06bd3459f9205e86010e/Governable.sol\":1510:1511  _ */\n      pop\n        /* \"gist-8f725c60264b06bd3459f9205e86010e/ReferralStorage.sol\":2975:3488  function setTier(uint256 _tierId, uint256 _totalRebate, uint256 _discountShare) external override onlyGov {... */\n      pop\n      pop\n      pop\n      jump\t// out\n        /* \"gist-8f725c60264b06bd3459f9205e86010e/ReferralStorage.sol\":2089:2153  mapping (address => bytes32) public override traderReferralCodes */\n    tag_56:\n      mstore(0x20, 0x06)\n      dup1\n      0x00\n      mstore\n      keccak256(0x00, 0x40)\n      0x00\n      swap2\n      pop\n      swap1\n      pop\n      sload\n      dup2\n      jump\t// out\n        /* \"gist-8f725c60264b06bd3459f9205e86010e/ReferralStorage.sol\":3688:3982  function setReferrerDiscountShare(uint256 _discountShare) external {... */\n    tag_59:\n        /* \"gist-8f725c60264b06bd3459f9205e86010e/ReferralStorage.sol\":1719:1724  10000 */\n      0x2710\n        /* \"gist-8f725c60264b06bd3459f9205e86010e/ReferralStorage.sol\":3773:3787  _discountShare */\n      dup2\n        /* \"gist-8f725c60264b06bd3459f9205e86010e/ReferralStorage.sol\":3773:3803  _discountShare <= BASIS_POINTS */\n      gt\n      iszero\n        /* \"gist-8f725c60264b06bd3459f9205e86010e/ReferralStorage.sol\":3765:3846  require(_discountShare <= BASIS_POINTS, \"ReferralStorage: invalid discountShare\") */\n      tag_101\n      jumpi\n      mload(0x40)\n      0x08c379a000000000000000000000000000000000000000000000000000000000\n      dup2\n      mstore\n      0x04\n      add\n      dup1\n      dup1\n      0x20\n      add\n      dup3\n      dup2\n      sub\n      dup3\n      mstore\n      0x26\n      dup2\n      mstore\n      0x20\n      add\n      dup1\n      data_c46d8d93b77cffbb9e78ce163b985d96aa8f9f84c357795ff72b4672415b6e56\n      0x26\n      swap2\n      codecopy\n      0x40\n      add\n      swap2\n      pop\n      pop\n      mload(0x40)\n      dup1\n      swap2\n      sub\n      swap1\n      revert\n    tag_101:\n        /* \"gist-8f725c60264b06bd3459f9205e86010e/ReferralStorage.sol\":3894:3908  _discountShare */\n      dup1\n        /* \"gist-8f725c60264b06bd3459f9205e86010e/ReferralStorage.sol\":3857:3879  referrerDiscountShares */\n      0x01\n        /* \"gist-8f725c60264b06bd3459f9205e86010e/ReferralStorage.sol\":3857:3891  referrerDiscountShares[msg.sender] */\n      0x00\n        /* \"gist-8f725c60264b06bd3459f9205e86010e/ReferralStorage.sol\":3880:3890  msg.sender */\n      caller\n        /* \"gist-8f725c60264b06bd3459f9205e86010e/ReferralStorage.sol\":3857:3891  referrerDiscountShares[msg.sender] */\n      0xffffffffffffffffffffffffffffffffffffffff\n      and\n      0xffffffffffffffffffffffffffffffffffffffff\n      and\n      dup2\n      mstore\n      0x20\n      add\n      swap1\n      dup2\n      mstore\n      0x20\n      add\n      0x00\n      keccak256\n        /* \"gist-8f725c60264b06bd3459f9205e86010e/ReferralStorage.sol\":3857:3908  referrerDiscountShares[msg.sender] = _discountShare */\n      dup2\n      swap1\n      sstore\n      pop\n        /* \"gist-8f725c60264b06bd3459f9205e86010e/ReferralStorage.sol\":3923:3975  SetReferrerDiscountShare(msg.sender, _discountShare) */\n      0xbd224f3917462b0fa80805fe3ec29be3a37f664955aad6224e5ece036224c429\n        /* \"gist-8f725c60264b06bd3459f9205e86010e/ReferralStorage.sol\":3948:3958  msg.sender */\n      caller\n        /* \"gist-8f725c60264b06bd3459f9205e86010e/ReferralStorage.sol\":3960:3974  _discountShare */\n      dup3\n        /* \"gist-8f725c60264b06bd3459f9205e86010e/ReferralStorage.sol\":3923:3975  SetReferrerDiscountShare(msg.sender, _discountShare) */\n      mload(0x40)\n      dup1\n      dup4\n      0xffffffffffffffffffffffffffffffffffffffff\n      and\n      dup2\n      mstore\n      0x20\n      add\n      dup3\n      dup2\n      mstore\n      0x20\n      add\n      swap3\n      pop\n      pop\n      pop\n      mload(0x40)\n      dup1\n      swap2\n      sub\n      swap1\n      log1\n        /* \"gist-8f725c60264b06bd3459f9205e86010e/ReferralStorage.sol\":3688:3982  function setReferrerDiscountShare(uint256 _discountShare) external {... */\n      pop\n      jump\t// out\n        /* \"gist-8f725c60264b06bd3459f9205e86010e/ReferralStorage.sol\":2804:2969  function setHandler(address _handler, bool _isActive) external onlyGov {... */\n    tag_62:\n        /* \"gist-8f725c60264b06bd3459f9205e86010e/Governable.sol\":1471:1474  gov */\n      0x00\n      dup1\n      sload\n      swap1\n      0x0100\n      exp\n      swap1\n      div\n      0xffffffffffffffffffffffffffffffffffffffff\n      and\n        /* \"gist-8f725c60264b06bd3459f9205e86010e/Governable.sol\":1457:1474  msg.sender == gov */\n      0xffffffffffffffffffffffffffffffffffffffff\n      and\n        /* \"gist-8f725c60264b06bd3459f9205e86010e/Governable.sol\":1457:1467  msg.sender */\n      caller\n        /* \"gist-8f725c60264b06bd3459f9205e86010e/Governable.sol\":1457:1474  msg.sender == gov */\n      0xffffffffffffffffffffffffffffffffffffffff\n      and\n      eq\n        /* \"gist-8f725c60264b06bd3459f9205e86010e/Governable.sol\":1449:1500  require(msg.sender == gov, \"Governable: forbidden\") */\n      tag_103\n      jumpi\n      mload(0x40)\n      0x08c379a000000000000000000000000000000000000000000000000000000000\n      dup2\n      mstore\n      0x04\n      add\n      dup1\n      dup1\n      0x20\n      add\n      dup3\n      dup2\n      sub\n      dup3\n      mstore\n      0x15\n      dup2\n      mstore\n      0x20\n      add\n      dup1\n      0x476f7665726e61626c653a20666f7262696464656e0000000000000000000000\n      dup2\n      mstore\n      pop\n      0x20\n      add\n      swap2\n      pop\n      pop\n      mload(0x40)\n      dup1\n      swap2\n      sub\n      swap1\n      revert\n    tag_103:\n        /* \"gist-8f725c60264b06bd3459f9205e86010e/ReferralStorage.sol\":2907:2916  _isActive */\n      dup1\n        /* \"gist-8f725c60264b06bd3459f9205e86010e/ReferralStorage.sol\":2885:2894  isHandler */\n      0x04\n        /* \"gist-8f725c60264b06bd3459f9205e86010e/ReferralStorage.sol\":2885:2904  isHandler[_handler] */\n      0x00\n        /* \"gist-8f725c60264b06bd3459f9205e86010e/ReferralStorage.sol\":2895:2903  _handler */\n      dup5\n        /* \"gist-8f725c60264b06bd3459f9205e86010e/ReferralStorage.sol\":2885:2904  isHandler[_handler] */\n      0xffffffffffffffffffffffffffffffffffffffff\n      and\n      0xffffffffffffffffffffffffffffffffffffffff\n      and\n      dup2\n      mstore\n      0x20\n      add\n      swap1\n      dup2\n      mstore\n      0x20\n      add\n      0x00\n      keccak256\n      0x00\n        /* \"gist-8f725c60264b06bd3459f9205e86010e/ReferralStorage.sol\":2885:2916  isHandler[_handler] = _isActive */\n      0x0100\n      exp\n      dup2\n      sload\n      dup2\n      0xff\n      mul\n      not\n      and\n      swap1\n      dup4\n      iszero\n      iszero\n      mul\n      or\n      swap1\n      sstore\n      pop\n        /* \"gist-8f725c60264b06bd3459f9205e86010e/ReferralStorage.sol\":2931:2962  SetHandler(_handler, _isActive) */\n      0xd373464a39404e5f98fdb4b152b8ba9a094561e97e5c4b4ea11eb18cd9e6695e\n        /* \"gist-8f725c60264b06bd3459f9205e86010e/ReferralStorage.sol\":2942:2950  _handler */\n      dup3\n        /* \"gist-8f725c60264b06bd3459f9205e86010e/ReferralStorage.sol\":2952:2961  _isActive */\n      dup3\n        /* \"gist-8f725c60264b06bd3459f9205e86010e/ReferralStorage.sol\":2931:2962  SetHandler(_handler, _isActive) */\n      mload(0x40)\n      dup1\n      dup4\n      0xffffffffffffffffffffffffffffffffffffffff\n      and\n      dup2\n      mstore\n      0x20\n      add\n      dup3\n      iszero\n      iszero\n      dup2\n      mstore\n      0x20\n      add\n      swap3\n      pop\n      pop\n      pop\n      mload(0x40)\n      dup1\n      swap2\n      sub\n      swap1\n      log1\n        /* \"gist-8f725c60264b06bd3459f9205e86010e/ReferralStorage.sol\":2804:2969  function setHandler(address _handler, bool _isActive) external onlyGov {... */\n      pop\n      pop\n      jump\t// out\n        /* \"gist-8f725c60264b06bd3459f9205e86010e/ReferralStorage.sol\":2028:2083  mapping (bytes32 => address) public override codeOwners */\n    tag_65:\n      mstore(0x20, 0x05)\n      dup1\n      0x00\n      mstore\n      keccak256(0x00, 0x40)\n      0x00\n      swap2\n      pop\n      sload\n      swap1\n      0x0100\n      exp\n      swap1\n      div\n      0xffffffffffffffffffffffffffffffffffffffff\n      and\n      dup2\n      jump\t// out\n        /* \"gist-8f725c60264b06bd3459f9205e86010e/Governable.sol\":1524:1598  function setGov(address _gov) external onlyGov {... */\n    tag_68:\n        /* \"gist-8f725c60264b06bd3459f9205e86010e/Governable.sol\":1471:1474  gov */\n      0x00\n      dup1\n      sload\n      swap1\n      0x0100\n      exp\n      swap1\n      div\n      0xffffffffffffffffffffffffffffffffffffffff\n      and\n        /* \"gist-8f725c60264b06bd3459f9205e86010e/Governable.sol\":1457:1474  msg.sender == gov */\n      0xffffffffffffffffffffffffffffffffffffffff\n      and\n        /* \"gist-8f725c60264b06bd3459f9205e86010e/Governable.sol\":1457:1467  msg.sender */\n      caller\n        /* \"gist-8f725c60264b06bd3459f9205e86010e/Governable.sol\":1457:1474  msg.sender == gov */\n      0xffffffffffffffffffffffffffffffffffffffff\n      and\n      eq\n        /* \"gist-8f725c60264b06bd3459f9205e86010e/Governable.sol\":1449:1500  require(msg.sender == gov, \"Governable: forbidden\") */\n      tag_106\n      jumpi\n      mload(0x40)\n      0x08c379a000000000000000000000000000000000000000000000000000000000\n      dup2\n      mstore\n      0x04\n      add\n      dup1\n      dup1\n      0x20\n      add\n      dup3\n      dup2\n      sub\n      dup3\n      mstore\n      0x15\n      dup2\n      mstore\n      0x20\n      add\n      dup1\n      0x476f7665726e61626c653a20666f7262696464656e0000000000000000000000\n      dup2\n      mstore\n      pop\n      0x20\n      add\n      swap2\n      pop\n      pop\n      mload(0x40)\n      dup1\n      swap2\n      sub\n      swap1\n      revert\n    tag_106:\n        /* \"gist-8f725c60264b06bd3459f9205e86010e/Governable.sol\":1587:1591  _gov */\n      dup1\n        /* \"gist-8f725c60264b06bd3459f9205e86010e/Governable.sol\":1581:1584  gov */\n      0x00\n      dup1\n        /* \"gist-8f725c60264b06bd3459f9205e86010e/Governable.sol\":1581:1591  gov = _gov */\n      0x0100\n      exp\n      dup2\n      sload\n      dup2\n      0xffffffffffffffffffffffffffffffffffffffff\n      mul\n      not\n      and\n      swap1\n      dup4\n      0xffffffffffffffffffffffffffffffffffffffff\n      and\n      mul\n      or\n      swap1\n      sstore\n      pop\n        /* \"gist-8f725c60264b06bd3459f9205e86010e/Governable.sol\":1524:1598  function setGov(address _gov) external onlyGov {... */\n      pop\n      jump\t// out\n        /* \"gist-8f725c60264b06bd3459f9205e86010e/ReferralStorage.sol\":4946:5204  function govSetCodeOwner(bytes32 _code, address _newAccount) external override onlyGov {... */\n    tag_71:\n        /* \"gist-8f725c60264b06bd3459f9205e86010e/Governable.sol\":1471:1474  gov */\n      0x00\n      dup1\n      sload\n      swap1\n      0x0100\n      exp\n      swap1\n      div\n      0xffffffffffffffffffffffffffffffffffffffff\n      and\n        /* \"gist-8f725c60264b06bd3459f9205e86010e/Governable.sol\":1457:1474  msg.sender == gov */\n      0xffffffffffffffffffffffffffffffffffffffff\n      and\n        /* \"gist-8f725c60264b06bd3459f9205e86010e/Governable.sol\":1457:1467  msg.sender */\n      caller\n        /* \"gist-8f725c60264b06bd3459f9205e86010e/Governable.sol\":1457:1474  msg.sender == gov */\n      0xffffffffffffffffffffffffffffffffffffffff\n      and\n      eq\n        /* \"gist-8f725c60264b06bd3459f9205e86010e/Governable.sol\":1449:1500  require(msg.sender == gov, \"Governable: forbidden\") */\n      tag_109\n      jumpi\n      mload(0x40)\n      0x08c379a000000000000000000000000000000000000000000000000000000000\n      dup2\n      mstore\n      0x04\n      add\n      dup1\n      dup1\n      0x20\n      add\n      dup3\n      dup2\n      sub\n      dup3\n      mstore\n      0x15\n      dup2\n      mstore\n      0x20\n      add\n      dup1\n      0x476f7665726e61626c653a20666f7262696464656e0000000000000000000000\n      dup2\n      mstore\n      pop\n      0x20\n      add\n      swap2\n      pop\n      pop\n      mload(0x40)\n      dup1\n      swap2\n      sub\n      swap1\n      revert\n    tag_109:\n        /* \"gist-8f725c60264b06bd3459f9205e86010e/ReferralStorage.sol\":5068:5069  0 */\n      0x00\n        /* \"gist-8f725c60264b06bd3459f9205e86010e/ReferralStorage.sol\":5060:5070  bytes32(0) */\n      dup1\n      shl\n        /* \"gist-8f725c60264b06bd3459f9205e86010e/ReferralStorage.sol\":5051:5056  _code */\n      dup3\n        /* \"gist-8f725c60264b06bd3459f9205e86010e/ReferralStorage.sol\":5051:5070  _code != bytes32(0) */\n      eq\n      iszero\n        /* \"gist-8f725c60264b06bd3459f9205e86010e/ReferralStorage.sol\":5043:5105  require(_code != bytes32(0), \"ReferralStorage: invalid _code\") */\n      tag_111\n      jumpi\n      mload(0x40)\n      0x08c379a000000000000000000000000000000000000000000000000000000000\n      dup2\n      mstore\n      0x04\n      add\n      dup1\n      dup1\n      0x20\n      add\n      dup3\n      dup2\n      sub\n      dup3\n      mstore\n      0x1e\n      dup2\n      mstore\n      0x20\n      add\n      dup1\n      0x526566657272616c53746f726167653a20696e76616c6964205f636f64650000\n      dup2\n      mstore\n      pop\n      0x20\n      add\n      swap2\n      pop\n      pop\n      mload(0x40)\n      dup1\n      swap2\n      sub\n      swap1\n      revert\n    tag_111:\n        /* \"gist-8f725c60264b06bd3459f9205e86010e/ReferralStorage.sol\":5136:5147  _newAccount */\n      dup1\n        /* \"gist-8f725c60264b06bd3459f9205e86010e/ReferralStorage.sol\":5116:5126  codeOwners */\n      0x05\n        /* \"gist-8f725c60264b06bd3459f9205e86010e/ReferralStorage.sol\":5116:5133  codeOwners[_code] */\n      0x00\n        /* \"gist-8f725c60264b06bd3459f9205e86010e/ReferralStorage.sol\":5127:5132  _code */\n      dup5\n        /* \"gist-8f725c60264b06bd3459f9205e86010e/ReferralStorage.sol\":5116:5133  codeOwners[_code] */\n      dup2\n      mstore\n      0x20\n      add\n      swap1\n      dup2\n      mstore\n      0x20\n      add\n      0x00\n      keccak256\n      0x00\n        /* \"gist-8f725c60264b06bd3459f9205e86010e/ReferralStorage.sol\":5116:5147  codeOwners[_code] = _newAccount */\n      0x0100\n      exp\n      dup2\n      sload\n      dup2\n      0xffffffffffffffffffffffffffffffffffffffff\n      mul\n      not\n      and\n      swap1\n      dup4\n      0xffffffffffffffffffffffffffffffffffffffff\n      and\n      mul\n      or\n      swap1\n      sstore\n      pop\n        /* \"gist-8f725c60264b06bd3459f9205e86010e/ReferralStorage.sol\":5162:5197  GovSetCodeOwner(_code, _newAccount) */\n      0x6431f88c655dd0e2b8d09b6405c007c515c66d67f2998e69c902873a8c8f3e97\n        /* \"gist-8f725c60264b06bd3459f9205e86010e/ReferralStorage.sol\":5178:5183  _code */\n      dup3\n        /* \"gist-8f725c60264b06bd3459f9205e86010e/ReferralStorage.sol\":5185:5196  _newAccount */\n      dup3\n        /* \"gist-8f725c60264b06bd3459f9205e86010e/ReferralStorage.sol\":5162:5197  GovSetCodeOwner(_code, _newAccount) */\n      mload(0x40)\n      dup1\n      dup4\n      dup2\n      mstore\n      0x20\n      add\n      dup3\n      0xffffffffffffffffffffffffffffffffffffffff\n      and\n      dup2\n      mstore\n      0x20\n      add\n      swap3\n      pop\n      pop\n      pop\n      mload(0x40)\n      dup1\n      swap2\n      sub\n      swap1\n      log1\n        /* \"gist-8f725c60264b06bd3459f9205e86010e/ReferralStorage.sol\":4946:5204  function govSetCodeOwner(bytes32 _code, address _newAccount) external override onlyGov {... */\n      pop\n      pop\n      jump\t// out\n        /* \"gist-8f725c60264b06bd3459f9205e86010e/ReferralStorage.sol\":4144:4263  function setTraderReferralCodeByUser(bytes32 _code) external {... */\n    tag_74:\n        /* \"gist-8f725c60264b06bd3459f9205e86010e/ReferralStorage.sol\":4215:4256  _setTraderReferralCode(msg.sender, _code) */\n      tag_113\n        /* \"gist-8f725c60264b06bd3459f9205e86010e/ReferralStorage.sol\":4238:4248  msg.sender */\n      caller\n        /* \"gist-8f725c60264b06bd3459f9205e86010e/ReferralStorage.sol\":4250:4255  _code */\n      dup3\n        /* \"gist-8f725c60264b06bd3459f9205e86010e/ReferralStorage.sol\":4215:4237  _setTraderReferralCode */\n      tag_92\n        /* \"gist-8f725c60264b06bd3459f9205e86010e/ReferralStorage.sol\":4215:4256  _setTraderReferralCode(msg.sender, _code) */\n      jump\t// in\n    tag_113:\n        /* \"gist-8f725c60264b06bd3459f9205e86010e/ReferralStorage.sol\":4144:4263  function setTraderReferralCodeByUser(bytes32 _code) external {... */\n      pop\n      jump\t// out\n        /* \"gist-8f725c60264b06bd3459f9205e86010e/ReferralStorage.sol\":1680:1724  uint256 public constant BASIS_POINTS = 10000 */\n    tag_76:\n        /* \"gist-8f725c60264b06bd3459f9205e86010e/ReferralStorage.sol\":1719:1724  10000 */\n      0x2710\n        /* \"gist-8f725c60264b06bd3459f9205e86010e/ReferralStorage.sol\":1680:1724  uint256 public constant BASIS_POINTS = 10000 */\n      dup2\n      jump\t// out\n        /* \"gist-8f725c60264b06bd3459f9205e86010e/ReferralStorage.sol\":4577:4940  function setCodeOwner(bytes32 _code, address _newAccount) external {... */\n    tag_79:\n        /* \"gist-8f725c60264b06bd3459f9205e86010e/ReferralStorage.sol\":4679:4680  0 */\n      0x00\n        /* \"gist-8f725c60264b06bd3459f9205e86010e/ReferralStorage.sol\":4671:4681  bytes32(0) */\n      dup1\n      shl\n        /* \"gist-8f725c60264b06bd3459f9205e86010e/ReferralStorage.sol\":4662:4667  _code */\n      dup3\n        /* \"gist-8f725c60264b06bd3459f9205e86010e/ReferralStorage.sol\":4662:4681  _code != bytes32(0) */\n      eq\n      iszero\n        /* \"gist-8f725c60264b06bd3459f9205e86010e/ReferralStorage.sol\":4654:4716  require(_code != bytes32(0), \"ReferralStorage: invalid _code\") */\n      tag_115\n      jumpi\n      mload(0x40)\n      0x08c379a000000000000000000000000000000000000000000000000000000000\n      dup2\n      mstore\n      0x04\n      add\n      dup1\n      dup1\n      0x20\n      add\n      dup3\n      dup2\n      sub\n      dup3\n      mstore\n      0x1e\n      dup2\n      mstore\n      0x20\n      add\n      dup1\n      0x526566657272616c53746f726167653a20696e76616c6964205f636f64650000\n      dup2\n      mstore\n      pop\n      0x20\n      add\n      swap2\n      pop\n      pop\n      mload(0x40)\n      dup1\n      swap2\n      sub\n      swap1\n      revert\n    tag_115:\n        /* \"gist-8f725c60264b06bd3459f9205e86010e/ReferralStorage.sol\":4727:4742  address account */\n      0x00\n        /* \"gist-8f725c60264b06bd3459f9205e86010e/ReferralStorage.sol\":4745:4755  codeOwners */\n      0x05\n        /* \"gist-8f725c60264b06bd3459f9205e86010e/ReferralStorage.sol\":4745:4762  codeOwners[_code] */\n      0x00\n        /* \"gist-8f725c60264b06bd3459f9205e86010e/ReferralStorage.sol\":4756:4761  _code */\n      dup5\n        /* \"gist-8f725c60264b06bd3459f9205e86010e/ReferralStorage.sol\":4745:4762  codeOwners[_code] */\n      dup2\n      mstore\n      0x20\n      add\n      swap1\n      dup2\n      mstore\n      0x20\n      add\n      0x00\n      keccak256\n      0x00\n      swap1\n      sload\n      swap1\n      0x0100\n      exp\n      swap1\n      div\n      0xffffffffffffffffffffffffffffffffffffffff\n      and\n        /* \"gist-8f725c60264b06bd3459f9205e86010e/ReferralStorage.sol\":4727:4762  address account = codeOwners[_code] */\n      swap1\n      pop\n        /* \"gist-8f725c60264b06bd3459f9205e86010e/ReferralStorage.sol\":4794:4801  account */\n      dup1\n        /* \"gist-8f725c60264b06bd3459f9205e86010e/ReferralStorage.sol\":4780:4801  msg.sender == account */\n      0xffffffffffffffffffffffffffffffffffffffff\n      and\n        /* \"gist-8f725c60264b06bd3459f9205e86010e/ReferralStorage.sol\":4780:4790  msg.sender */\n      caller\n        /* \"gist-8f725c60264b06bd3459f9205e86010e/ReferralStorage.sol\":4780:4801  msg.sender == account */\n      0xffffffffffffffffffffffffffffffffffffffff\n      and\n      eq\n        /* \"gist-8f725c60264b06bd3459f9205e86010e/ReferralStorage.sol\":4772:4832  require(msg.sender == account, \"ReferralStorage: forbidden\") */\n      tag_116\n      jumpi\n      mload(0x40)\n      0x08c379a000000000000000000000000000000000000000000000000000000000\n      dup2\n      mstore\n      0x04\n      add\n      dup1\n      dup1\n      0x20\n      add\n      dup3\n      dup2\n      sub\n      dup3\n      mstore\n      0x1a\n      dup2\n      mstore\n      0x20\n      add\n      dup1\n      0x526566657272616c53746f726167653a20666f7262696464656e000000000000\n      dup2\n      mstore\n      pop\n      0x20\n      add\n      swap2\n      pop\n      pop\n      mload(0x40)\n      dup1\n      swap2\n      sub\n      swap1\n      revert\n    tag_116:\n        /* \"gist-8f725c60264b06bd3459f9205e86010e/ReferralStorage.sol\":4863:4874  _newAccount */\n      dup2\n        /* \"gist-8f725c60264b06bd3459f9205e86010e/ReferralStorage.sol\":4843:4853  codeOwners */\n      0x05\n        /* \"gist-8f725c60264b06bd3459f9205e86010e/ReferralStorage.sol\":4843:4860  codeOwners[_code] */\n      0x00\n        /* \"gist-8f725c60264b06bd3459f9205e86010e/ReferralStorage.sol\":4854:4859  _code */\n      dup6\n        /* \"gist-8f725c60264b06bd3459f9205e86010e/ReferralStorage.sol\":4843:4860  codeOwners[_code] */\n      dup2\n      mstore\n      0x20\n      add\n      swap1\n      dup2\n      mstore\n      0x20\n      add\n      0x00\n      keccak256\n      0x00\n        /* \"gist-8f725c60264b06bd3459f9205e86010e/ReferralStorage.sol\":4843:4874  codeOwners[_code] = _newAccount */\n      0x0100\n      exp\n      dup2\n      sload\n      dup2\n      0xffffffffffffffffffffffffffffffffffffffff\n      mul\n      not\n      and\n      swap1\n      dup4\n      0xffffffffffffffffffffffffffffffffffffffff\n      and\n      mul\n      or\n      swap1\n      sstore\n      pop\n        /* \"gist-8f725c60264b06bd3459f9205e86010e/ReferralStorage.sol\":4889:4933  SetCodeOwner(msg.sender, _newAccount, _code) */\n      0x5640856798d41ce9ca0a109b54c20a06eb99ba9c36ab4547115dafb8473cf397\n        /* \"gist-8f725c60264b06bd3459f9205e86010e/ReferralStorage.sol\":4902:4912  msg.sender */\n      caller\n        /* \"gist-8f725c60264b06bd3459f9205e86010e/ReferralStorage.sol\":4914:4925  _newAccount */\n      dup4\n        /* \"gist-8f725c60264b06bd3459f9205e86010e/ReferralStorage.sol\":4927:4932  _code */\n      dup6\n        /* \"gist-8f725c60264b06bd3459f9205e86010e/ReferralStorage.sol\":4889:4933  SetCodeOwner(msg.sender, _newAccount, _code) */\n      mload(0x40)\n      dup1\n      dup5\n      0xffffffffffffffffffffffffffffffffffffffff\n      and\n      dup2\n      mstore\n      0x20\n      add\n      dup4\n      0xffffffffffffffffffffffffffffffffffffffff\n      and\n      dup2\n      mstore\n      0x20\n      add\n      dup3\n      dup2\n      mstore\n      0x20\n      add\n      swap4\n      pop\n      pop\n      pop\n      pop\n      mload(0x40)\n      dup1\n      swap2\n      sub\n      swap1\n      log1\n        /* \"gist-8f725c60264b06bd3459f9205e86010e/ReferralStorage.sol\":4577:4940  function setCodeOwner(bytes32 _code, address _newAccount) external {... */\n      pop\n      pop\n      pop\n      jump\t// out\n        /* \"gist-8f725c60264b06bd3459f9205e86010e/ReferralStorage.sol\":5520:5700  function _setTraderReferralCode(address _account, bytes32 _code) private {... */\n    tag_92:\n        /* \"gist-8f725c60264b06bd3459f9205e86010e/ReferralStorage.sol\":5635:5640  _code */\n      dup1\n        /* \"gist-8f725c60264b06bd3459f9205e86010e/ReferralStorage.sol\":5603:5622  traderReferralCodes */\n      0x06\n        /* \"gist-8f725c60264b06bd3459f9205e86010e/ReferralStorage.sol\":5603:5632  traderReferralCodes[_account] */\n      0x00\n        /* \"gist-8f725c60264b06bd3459f9205e86010e/ReferralStorage.sol\":5623:5631  _account */\n      dup5\n        /* \"gist-8f725c60264b06bd3459f9205e86010e/ReferralStorage.sol\":5603:5632  traderReferralCodes[_account] */\n      0xffffffffffffffffffffffffffffffffffffffff\n      and\n      0xffffffffffffffffffffffffffffffffffffffff\n      and\n      dup2\n      mstore\n      0x20\n      add\n      swap1\n      dup2\n      mstore\n      0x20\n      add\n      0x00\n      keccak256\n        /* \"gist-8f725c60264b06bd3459f9205e86010e/ReferralStorage.sol\":5603:5640  traderReferralCodes[_account] = _code */\n      dup2\n      swap1\n      sstore\n      pop\n        /* \"gist-8f725c60264b06bd3459f9205e86010e/ReferralStorage.sol\":5655:5693  SetTraderReferralCode(_account, _code) */\n      0x43825f14567dda057e821be2e51a5aa79aa51f3907a647e3ed2bd486a01050f1\n        /* \"gist-8f725c60264b06bd3459f9205e86010e/ReferralStorage.sol\":5677:5685  _account */\n      dup3\n        /* \"gist-8f725c60264b06bd3459f9205e86010e/ReferralStorage.sol\":5687:5692  _code */\n      dup3\n        /* \"gist-8f725c60264b06bd3459f9205e86010e/ReferralStorage.sol\":5655:5693  SetTraderReferralCode(_account, _code) */\n      mload(0x40)\n      dup1\n      dup4\n      0xffffffffffffffffffffffffffffffffffffffff\n      and\n      dup2\n      mstore\n      0x20\n      add\n      dup3\n      dup2\n      mstore\n      0x20\n      add\n      swap3\n      pop\n      pop\n      pop\n      mload(0x40)\n      dup1\n      swap2\n      sub\n      swap1\n      log1\n        /* \"gist-8f725c60264b06bd3459f9205e86010e/ReferralStorage.sol\":5520:5700  function _setTraderReferralCode(address _account, bytes32 _code) private {... */\n      pop\n      pop\n      jump\t// out\n    tag_99:\n      mload(0x40)\n      dup1\n      0x40\n      add\n      0x40\n      mstore\n      dup1\n      0x00\n      dup2\n      mstore\n      0x20\n      add\n      0x00\n      dup2\n      mstore\n      pop\n      swap1\n      jump\t// out\n    stop\n    data_4d33eb580886f04fd9ff51e197cf41f7959996ab7282f71945dcfa581f4d9b16 526566657272616c53746f726167653a20696e76616c696420746f74616c526562617465\n    data_b2355e1e82d95d5e6371e02845c6589636ba7aa2b4d4d7f559f753b06b6b417c 526566657272616c53746f726167653a20636f646520616c726561647920657869737473\n    data_c46d8d93b77cffbb9e78ce163b985d96aa8f9f84c357795ff72b4672415b6e56 526566657272616c53746f726167653a20696e76616c696420646973636f756e745368617265\n\n    auxdata: 0xa26469706673582212203a2787e24327b313c7897ee3af3aedb579c4157a53146b4150c11e7a1d17965e64736f6c634300060c0033\n}\n",
				"bytecode": {
					"linkReferences": {},
					"object": "608060405234801561001057600080fd5b50336000806101000a81548173ffffffffffffffffffffffffffffffffffffffff021916908373ffffffffffffffffffffffffffffffffffffffff160217905550611724806100606000396000f3fe608060405234801561001057600080fd5b50600436106101215760003560e01c8063836a0187116100ad578063cfad57a211610071578063cfad57a21461055c578063dfcfa250146105a0578063e1e01bf3146105ee578063e1f1c4a71461061c578063ed8431341461063a57610121565b8063836a0187146103ec57806385725b581461042e5780639c8e2de9146104865780639cb7de4b146104b4578063c8b3c4601461050457610121565b80633fb8b323116100f45780633fb8b3231461022957806346ea87af14610277578063534ef883146102d157806356b4b2ad1461034657806371a6a7901461039457610121565b8063039af9eb1461012657806312d43a511461016f5780631582a018146101a357806336def2c8146101fb575b600080fd5b6101526004803603602081101561013c57600080fd5b8101908080359060200190929190505050610688565b604051808381526020018281526020019250505060405180910390f35b6101776106ac565b604051808273ffffffffffffffffffffffffffffffffffffffff16815260200191505060405180910390f35b6101e5600480360360208110156101b957600080fd5b81019080803573ffffffffffffffffffffffffffffffffffffffff1690602001909291905050506106d0565b6040518082815260200191505060405180910390f35b6102276004803603602081101561021157600080fd5b81019080803590602001909291905050506106e8565b005b6102756004803603604081101561023f57600080fd5b81019080803573ffffffffffffffffffffffffffffffffffffffff169060200190929190803590602001909291905050506108c3565b005b6102b96004803603602081101561028d57600080fd5b81019080803573ffffffffffffffffffffffffffffffffffffffff169060200190929190505050610a21565b60405180821515815260200191505060405180910390f35b610313600480360360208110156102e757600080fd5b81019080803573ffffffffffffffffffffffffffffffffffffffff169060200190929190505050610a41565b604051808381526020018273ffffffffffffffffffffffffffffffffffffffff1681526020019250505060405180910390f35b6103926004803603604081101561035c57600080fd5b81019080803573ffffffffffffffffffffffffffffffffffffffff16906020019092919080359060200190929190505050610ad8565b005b6103d6600480360360208110156103aa57600080fd5b81019080803573ffffffffffffffffffffffffffffffffffffffff169060200190929190505050610ba5565b6040518082815260200191505060405180910390f35b61042c6004803603606081101561040257600080fd5b81019080803590602001909291908035906020019092919080359060200190929190505050610bbd565b005b6104706004803603602081101561044457600080fd5b81019080803573ffffffffffffffffffffffffffffffffffffffff169060200190929190505050610dfc565b6040518082815260200191505060405180910390f35b6104b26004803603602081101561049c57600080fd5b8101908080359060200190929190505050610e14565b005b610502600480360360408110156104ca57600080fd5b81019080803573ffffffffffffffffffffffffffffffffffffffff169060200190929190803515159060200190929190505050610f0b565b005b6105306004803603602081101561051a57600080fd5b810190808035906020019092919050505061107e565b604051808273ffffffffffffffffffffffffffffffffffffffff16815260200191505060405180910390f35b61059e6004803603602081101561057257600080fd5b81019080803573ffffffffffffffffffffffffffffffffffffffff1690602001909291905050506110b1565b005b6105ec600480360360408110156105b657600080fd5b8101908080359060200190929190803573ffffffffffffffffffffffffffffffffffffffff1690602001909291905050506111b5565b005b61061a6004803603602081101561060457600080fd5b810190808035906020019092919050505061139a565b005b6106246113a7565b6040518082815260200191505060405180910390f35b6106866004803603604081101561065057600080fd5b8101908080359060200190929190803573ffffffffffffffffffffffffffffffffffffffff1690602001909291905050506113ad565b005b60036020528060005260406000206000915090508060000154908060010154905082565b60008054906101000a900473ffffffffffffffffffffffffffffffffffffffff1681565b60026020528060005260406000206000915090505481565b6000801b811415610761576040517f08c379a000000000000000000000000000000000000000000000000000000000815260040180806020018281038252601e8152602001807f526566657272616c53746f726167653a20696e76616c6964205f636f6465000081525060200191505060405180910390fd5b600073ffffffffffffffffffffffffffffffffffffffff166005600083815260200190815260200160002060009054906101000a900473ffffffffffffffffffffffffffffffffffffffff1673ffffffffffffffffffffffffffffffffffffffff1614610819576040517f08c379a00000000000000000000000000000000000000000000000000000000081526004018080602001828103825260248152602001806116a56024913960400191505060405180910390fd5b336005600083815260200190815260200160002060006101000a81548173ffffffffffffffffffffffffffffffffffffffff021916908373ffffffffffffffffffffffffffffffffffffffff1602179055507f04f82286a2a3b2ee5c8555de8304dfe2ea70991613213184b73a9e408d2d80293382604051808373ffffffffffffffffffffffffffffffffffffffff1681526020018281526020019250505060405180910390a150565b60008054906101000a900473ffffffffffffffffffffffffffffffffffffffff1673ffffffffffffffffffffffffffffffffffffffff163373ffffffffffffffffffffffffffffffffffffffff1614610984576040517f08c379a00000000000000000000000000000000000000000000000000000000081526004018080602001828103825260158152602001807f476f7665726e61626c653a20666f7262696464656e000000000000000000000081525060200191505060405180910390fd5b80600260008473ffffffffffffffffffffffffffffffffffffffff1673ffffffffffffffffffffffffffffffffffffffff168152602001908152602001600020819055507f7696855cdbb94bb5a44cb0a95caff6f29173aa1cbfba193834b12b90827ce2bc8282604051808373ffffffffffffffffffffffffffffffffffffffff1681526020018281526020019250505060405180910390a15050565b60046020528060005260406000206000915054906101000a900460ff1681565b6000806000600660008573ffffffffffffffffffffffffffffffffffffffff1673ffffffffffffffffffffffffffffffffffffffff16815260200190815260200160002054905060008060001b8214610acb576005600083815260200190815260200160002060009054906101000a900473ffffffffffffffffffffffffffffffffffffffff1690505b8181935093505050915091565b600460003373ffffffffffffffffffffffffffffffffffffffff1673ffffffffffffffffffffffffffffffffffffffff16815260200190815260200160002060009054906101000a900460ff16610b97576040517f08c379a000000000000000000000000000000000000000000000000000000000815260040180806020018281038252601a8152602001807f526566657272616c53746f726167653a20666f7262696464656e00000000000081525060200191505060405180910390fd5b610ba182826115c9565b5050565b60016020528060005260406000206000915090505481565b60008054906101000a900473ffffffffffffffffffffffffffffffffffffffff1673ffffffffffffffffffffffffffffffffffffffff163373ffffffffffffffffffffffffffffffffffffffff1614610c7e576040517f08c379a00000000000000000000000000000000000000000000000000000000081526004018080602001828103825260158152602001807f476f7665726e61626c653a20666f7262696464656e000000000000000000000081525060200191505060405180910390fd5b612710821115610cd9576040517f08c379a00000000000000000000000000000000000000000000000000000000081526004018080602001828103825260248152602001806116816024913960400191505060405180910390fd5b612710811115610d34576040517f08c379a00000000000000000000000000000000000000000000000000000000081526004018080602001828103825260268152602001806116c96026913960400191505060405180910390fd5b610d3c611666565b600360008581526020019081526020016000206040518060400160405290816000820154815260200160018201548152505090508281600001818152505081816020018181525050806003600086815260200190815260200160002060008201518160000155602082015181600101559050507f4ebd23a492b2bd79586cb57cae40d7793408265f20320f68b478b971e696f4c784848460405180848152602001838152602001828152602001935050505060405180910390a150505050565b60066020528060005260406000206000915090505481565b612710811115610e6f576040517f08c379a00000000000000000000000000000000000000000000000000000000081526004018080602001828103825260268152602001806116c96026913960400191505060405180910390fd5b80600160003373ffffffffffffffffffffffffffffffffffffffff1673ffffffffffffffffffffffffffffffffffffffff168152602001908152602001600020819055507fbd224f3917462b0fa80805fe3ec29be3a37f664955aad6224e5ece036224c4293382604051808373ffffffffffffffffffffffffffffffffffffffff1681526020018281526020019250505060405180910390a150565b60008054906101000a900473ffffffffffffffffffffffffffffffffffffffff1673ffffffffffffffffffffffffffffffffffffffff163373ffffffffffffffffffffffffffffffffffffffff1614610fcc576040517f08c379a00000000000000000000000000000000000000000000000000000000081526004018080602001828103825260158152602001807f476f7665726e61626c653a20666f7262696464656e000000000000000000000081525060200191505060405180910390fd5b80600460008473ffffffffffffffffffffffffffffffffffffffff1673ffffffffffffffffffffffffffffffffffffffff16815260200190815260200160002060006101000a81548160ff0219169083151502179055507fd373464a39404e5f98fdb4b152b8ba9a094561e97e5c4b4ea11eb18cd9e6695e8282604051808373ffffffffffffffffffffffffffffffffffffffff16815260200182151581526020019250505060405180910390a15050565b60056020528060005260406000206000915054906101000a900473ffffffffffffffffffffffffffffffffffffffff1681565b60008054906101000a900473ffffffffffffffffffffffffffffffffffffffff1673ffffffffffffffffffffffffffffffffffffffff163373ffffffffffffffffffffffffffffffffffffffff1614611172576040517f08c379a00000000000000000000000000000000000000000000000000000000081526004018080602001828103825260158152602001807f476f7665726e61626c653a20666f7262696464656e000000000000000000000081525060200191505060405180910390fd5b806000806101000a81548173ffffffffffffffffffffffffffffffffffffffff021916908373ffffffffffffffffffffffffffffffffffffffff16021790555050565b60008054906101000a900473ffffffffffffffffffffffffffffffffffffffff1673ffffffffffffffffffffffffffffffffffffffff163373ffffffffffffffffffffffffffffffffffffffff1614611276576040517f08c379a00000000000000000000000000000000000000000000000000000000081526004018080602001828103825260158152602001807f476f7665726e61626c653a20666f7262696464656e000000000000000000000081525060200191505060405180910390fd5b6000801b8214156112ef576040517f08c379a000000000000000000000000000000000000000000000000000000000815260040180806020018281038252601e8152602001807f526566657272616c53746f726167653a20696e76616c6964205f636f6465000081525060200191505060405180910390fd5b806005600084815260200190815260200160002060006101000a81548173ffffffffffffffffffffffffffffffffffffffff021916908373ffffffffffffffffffffffffffffffffffffffff1602179055507f6431f88c655dd0e2b8d09b6405c007c515c66d67f2998e69c902873a8c8f3e978282604051808381526020018273ffffffffffffffffffffffffffffffffffffffff1681526020019250505060405180910390a15050565b6113a433826115c9565b50565b61271081565b6000801b821415611426576040517f08c379a000000000000000000000000000000000000000000000000000000000815260040180806020018281038252601e8152602001807f526566657272616c53746f726167653a20696e76616c6964205f636f6465000081525060200191505060405180910390fd5b60006005600084815260200190815260200160002060009054906101000a900473ffffffffffffffffffffffffffffffffffffffff1690508073ffffffffffffffffffffffffffffffffffffffff163373ffffffffffffffffffffffffffffffffffffffff16146114ff576040517f08c379a000000000000000000000000000000000000000000000000000000000815260040180806020018281038252601a8152602001807f526566657272616c53746f726167653a20666f7262696464656e00000000000081525060200191505060405180910390fd5b816005600085815260200190815260200160002060006101000a81548173ffffffffffffffffffffffffffffffffffffffff021916908373ffffffffffffffffffffffffffffffffffffffff1602179055507f5640856798d41ce9ca0a109b54c20a06eb99ba9c36ab4547115dafb8473cf397338385604051808473ffffffffffffffffffffffffffffffffffffffff1681526020018373ffffffffffffffffffffffffffffffffffffffff168152602001828152602001935050505060405180910390a1505050565b80600660008473ffffffffffffffffffffffffffffffffffffffff1673ffffffffffffffffffffffffffffffffffffffff168152602001908152602001600020819055507f43825f14567dda057e821be2e51a5aa79aa51f3907a647e3ed2bd486a01050f18282604051808373ffffffffffffffffffffffffffffffffffffffff1681526020018281526020019250505060405180910390a15050565b60405180604001604052806000815260200160008152509056fe526566657272616c53746f726167653a20696e76616c696420746f74616c526562617465526566657272616c53746f726167653a20636f646520616c726561647920657869737473526566657272616c53746f726167653a20696e76616c696420646973636f756e745368617265a26469706673582212203a2787e24327b313c7897ee3af3aedb579c4157a53146b4150c11e7a1d17965e64736f6c634300060c0033",
					"opcodes": "PUSH1 0x80 PUSH1 0x40 MSTORE CALLVALUE DUP1 ISZERO PUSH2 0x10 JUMPI PUSH1 0x0 DUP1 REVERT JUMPDEST POP CALLER PUSH1 0x0 DUP1 PUSH2 0x100 EXP DUP2 SLOAD DUP2 PUSH20 0xFFFFFFFFFFFFFFFFFFFFFFFFFFFFFFFFFFFFFFFF MUL NOT AND SWAP1 DUP4 PUSH20 0xFFFFFFFFFFFFFFFFFFFFFFFFFFFFFFFFFFFFFFFF AND MUL OR SWAP1 SSTORE POP PUSH2 0x1724 DUP1 PUSH2 0x60 PUSH1 0x0 CODECOPY PUSH1 0x0 RETURN INVALID PUSH1 0x80 PUSH1 0x40 MSTORE CALLVALUE DUP1 ISZERO PUSH2 0x10 JUMPI PUSH1 0x0 DUP1 REVERT JUMPDEST POP PUSH1 0x4 CALLDATASIZE LT PUSH2 0x121 JUMPI PUSH1 0x0 CALLDATALOAD PUSH1 0xE0 SHR DUP1 PUSH4 0x836A0187 GT PUSH2 0xAD JUMPI DUP1 PUSH4 0xCFAD57A2 GT PUSH2 0x71 JUMPI DUP1 PUSH4 0xCFAD57A2 EQ PUSH2 0x55C JUMPI DUP1 PUSH4 0xDFCFA250 EQ PUSH2 0x5A0 JUMPI DUP1 PUSH4 0xE1E01BF3 EQ PUSH2 0x5EE JUMPI DUP1 PUSH4 0xE1F1C4A7 EQ PUSH2 0x61C JUMPI DUP1 PUSH4 0xED843134 EQ PUSH2 0x63A JUMPI PUSH2 0x121 JUMP JUMPDEST DUP1 PUSH4 0x836A0187 EQ PUSH2 0x3EC JUMPI DUP1 PUSH4 0x85725B58 EQ PUSH2 0x42E JUMPI DUP1 PUSH4 0x9C8E2DE9 EQ PUSH2 0x486 JUMPI DUP1 PUSH4 0x9CB7DE4B EQ PUSH2 0x4B4 JUMPI DUP1 PUSH4 0xC8B3C460 EQ PUSH2 0x504 JUMPI PUSH2 0x121 JUMP JUMPDEST DUP1 PUSH4 0x3FB8B323 GT PUSH2 0xF4 JUMPI DUP1 PUSH4 0x3FB8B323 EQ PUSH2 0x229 JUMPI DUP1 PUSH4 0x46EA87AF EQ PUSH2 0x277 JUMPI DUP1 PUSH4 0x534EF883 EQ PUSH2 0x2D1 JUMPI DUP1 PUSH4 0x56B4B2AD EQ PUSH2 0x346 JUMPI DUP1 PUSH4 0x71A6A790 EQ PUSH2 0x394 JUMPI PUSH2 0x121 JUMP JUMPDEST DUP1 PUSH4 0x39AF9EB EQ PUSH2 0x126 JUMPI DUP1 PUSH4 0x12D43A51 EQ PUSH2 0x16F JUMPI DUP1 PUSH4 0x1582A018 EQ PUSH2 0x1A3 JUMPI DUP1 PUSH4 0x36DEF2C8 EQ PUSH2 0x1FB JUMPI JUMPDEST PUSH1 0x0 DUP1 REVERT JUMPDEST PUSH2 0x152 PUSH1 0x4 DUP1 CALLDATASIZE SUB PUSH1 0x20 DUP2 LT ISZERO PUSH2 0x13C JUMPI PUSH1 0x0 DUP1 REVERT JUMPDEST DUP2 ADD SWAP1 DUP1 DUP1 CALLDATALOAD SWAP1 PUSH1 0x20 ADD SWAP1 SWAP3 SWAP2 SWAP1 POP POP POP PUSH2 0x688 JUMP JUMPDEST PUSH1 0x40 MLOAD DUP1 DUP4 DUP2 MSTORE PUSH1 0x20 ADD DUP3 DUP2 MSTORE PUSH1 0x20 ADD SWAP3 POP POP POP PUSH1 0x40 MLOAD DUP1 SWAP2 SUB SWAP1 RETURN JUMPDEST PUSH2 0x177 PUSH2 0x6AC JUMP JUMPDEST PUSH1 0x40 MLOAD DUP1 DUP3 PUSH20 0xFFFFFFFFFFFFFFFFFFFFFFFFFFFFFFFFFFFFFFFF AND DUP2 MSTORE PUSH1 0x20 ADD SWAP2 POP POP PUSH1 0x40 MLOAD DUP1 SWAP2 SUB SWAP1 RETURN JUMPDEST PUSH2 0x1E5 PUSH1 0x4 DUP1 CALLDATASIZE SUB PUSH1 0x20 DUP2 LT ISZERO PUSH2 0x1B9 JUMPI PUSH1 0x0 DUP1 REVERT JUMPDEST DUP2 ADD SWAP1 DUP1 DUP1 CALLDATALOAD PUSH20 0xFFFFFFFFFFFFFFFFFFFFFFFFFFFFFFFFFFFFFFFF AND SWAP1 PUSH1 0x20 ADD SWAP1 SWAP3 SWAP2 SWAP1 POP POP POP PUSH2 0x6D0 JUMP JUMPDEST PUSH1 0x40 MLOAD DUP1 DUP3 DUP2 MSTORE PUSH1 0x20 ADD SWAP2 POP POP PUSH1 0x40 MLOAD DUP1 SWAP2 SUB SWAP1 RETURN JUMPDEST PUSH2 0x227 PUSH1 0x4 DUP1 CALLDATASIZE SUB PUSH1 0x20 DUP2 LT ISZERO PUSH2 0x211 JUMPI PUSH1 0x0 DUP1 REVERT JUMPDEST DUP2 ADD SWAP1 DUP1 DUP1 CALLDATALOAD SWAP1 PUSH1 0x20 ADD SWAP1 SWAP3 SWAP2 SWAP1 POP POP POP PUSH2 0x6E8 JUMP JUMPDEST STOP JUMPDEST PUSH2 0x275 PUSH1 0x4 DUP1 CALLDATASIZE SUB PUSH1 0x40 DUP2 LT ISZERO PUSH2 0x23F JUMPI PUSH1 0x0 DUP1 REVERT JUMPDEST DUP2 ADD SWAP1 DUP1 DUP1 CALLDATALOAD PUSH20 0xFFFFFFFFFFFFFFFFFFFFFFFFFFFFFFFFFFFFFFFF AND SWAP1 PUSH1 0x20 ADD SWAP1 SWAP3 SWAP2 SWAP1 DUP1 CALLDATALOAD SWAP1 PUSH1 0x20 ADD SWAP1 SWAP3 SWAP2 SWAP1 POP POP POP PUSH2 0x8C3 JUMP JUMPDEST STOP JUMPDEST PUSH2 0x2B9 PUSH1 0x4 DUP1 CALLDATASIZE SUB PUSH1 0x20 DUP2 LT ISZERO PUSH2 0x28D JUMPI PUSH1 0x0 DUP1 REVERT JUMPDEST DUP2 ADD SWAP1 DUP1 DUP1 CALLDATALOAD PUSH20 0xFFFFFFFFFFFFFFFFFFFFFFFFFFFFFFFFFFFFFFFF AND SWAP1 PUSH1 0x20 ADD SWAP1 SWAP3 SWAP2 SWAP1 POP POP POP PUSH2 0xA21 JUMP JUMPDEST PUSH1 0x40 MLOAD DUP1 DUP3 ISZERO ISZERO DUP2 MSTORE PUSH1 0x20 ADD SWAP2 POP POP PUSH1 0x40 MLOAD DUP1 SWAP2 SUB SWAP1 RETURN JUMPDEST PUSH2 0x313 PUSH1 0x4 DUP1 CALLDATASIZE SUB PUSH1 0x20 DUP2 LT ISZERO PUSH2 0x2E7 JUMPI PUSH1 0x0 DUP1 REVERT JUMPDEST DUP2 ADD SWAP1 DUP1 DUP1 CALLDATALOAD PUSH20 0xFFFFFFFFFFFFFFFFFFFFFFFFFFFFFFFFFFFFFFFF AND SWAP1 PUSH1 0x20 ADD SWAP1 SWAP3 SWAP2 SWAP1 POP POP POP PUSH2 0xA41 JUMP JUMPDEST PUSH1 0x40 MLOAD DUP1 DUP4 DUP2 MSTORE PUSH1 0x20 ADD DUP3 PUSH20 0xFFFFFFFFFFFFFFFFFFFFFFFFFFFFFFFFFFFFFFFF AND DUP2 MSTORE PUSH1 0x20 ADD SWAP3 POP POP POP PUSH1 0x40 MLOAD DUP1 SWAP2 SUB SWAP1 RETURN JUMPDEST PUSH2 0x392 PUSH1 0x4 DUP1 CALLDATASIZE SUB PUSH1 0x40 DUP2 LT ISZERO PUSH2 0x35C JUMPI PUSH1 0x0 DUP1 REVERT JUMPDEST DUP2 ADD SWAP1 DUP1 DUP1 CALLDATALOAD PUSH20 0xFFFFFFFFFFFFFFFFFFFFFFFFFFFFFFFFFFFFFFFF AND SWAP1 PUSH1 0x20 ADD SWAP1 SWAP3 SWAP2 SWAP1 DUP1 CALLDATALOAD SWAP1 PUSH1 0x20 ADD SWAP1 SWAP3 SWAP2 SWAP1 POP POP POP PUSH2 0xAD8 JUMP JUMPDEST STOP JUMPDEST PUSH2 0x3D6 PUSH1 0x4 DUP1 CALLDATASIZE SUB PUSH1 0x20 DUP2 LT ISZERO PUSH2 0x3AA JUMPI PUSH1 0x0 DUP1 REVERT JUMPDEST DUP2 ADD SWAP1 DUP1 DUP1 CALLDATALOAD PUSH20 0xFFFFFFFFFFFFFFFFFFFFFFFFFFFFFFFFFFFFFFFF AND SWAP1 PUSH1 0x20 ADD SWAP1 SWAP3 SWAP2 SWAP1 POP POP POP PUSH2 0xBA5 JUMP JUMPDEST PUSH1 0x40 MLOAD DUP1 DUP3 DUP2 MSTORE PUSH1 0x20 ADD SWAP2 POP POP PUSH1 0x40 MLOAD DUP1 SWAP2 SUB SWAP1 RETURN JUMPDEST PUSH2 0x42C PUSH1 0x4 DUP1 CALLDATASIZE SUB PUSH1 0x60 DUP2 LT ISZERO PUSH2 0x402 JUMPI PUSH1 0x0 DUP1 REVERT JUMPDEST DUP2 ADD SWAP1 DUP1 DUP1 CALLDATALOAD SWAP1 PUSH1 0x20 ADD SWAP1 SWAP3 SWAP2 SWAP1 DUP1 CALLDATALOAD SWAP1 PUSH1 0x20 ADD SWAP1 SWAP3 SWAP2 SWAP1 DUP1 CALLDATALOAD SWAP1 PUSH1 0x20 ADD SWAP1 SWAP3 SWAP2 SWAP1 POP POP POP PUSH2 0xBBD JUMP JUMPDEST STOP JUMPDEST PUSH2 0x470 PUSH1 0x4 DUP1 CALLDATASIZE SUB PUSH1 0x20 DUP2 LT ISZERO PUSH2 0x444 JUMPI PUSH1 0x0 DUP1 REVERT JUMPDEST DUP2 ADD SWAP1 DUP1 DUP1 CALLDATALOAD PUSH20 0xFFFFFFFFFFFFFFFFFFFFFFFFFFFFFFFFFFFFFFFF AND SWAP1 PUSH1 0x20 ADD SWAP1 SWAP3 SWAP2 SWAP1 POP POP POP PUSH2 0xDFC JUMP JUMPDEST PUSH1 0x40 MLOAD DUP1 DUP3 DUP2 MSTORE PUSH1 0x20 ADD SWAP2 POP POP PUSH1 0x40 MLOAD DUP1 SWAP2 SUB SWAP1 RETURN JUMPDEST PUSH2 0x4B2 PUSH1 0x4 DUP1 CALLDATASIZE SUB PUSH1 0x20 DUP2 LT ISZERO PUSH2 0x49C JUMPI PUSH1 0x0 DUP1 REVERT JUMPDEST DUP2 ADD SWAP1 DUP1 DUP1 CALLDATALOAD SWAP1 PUSH1 0x20 ADD SWAP1 SWAP3 SWAP2 SWAP1 POP POP POP PUSH2 0xE14 JUMP JUMPDEST STOP JUMPDEST PUSH2 0x502 PUSH1 0x4 DUP1 CALLDATASIZE SUB PUSH1 0x40 DUP2 LT ISZERO PUSH2 0x4CA JUMPI PUSH1 0x0 DUP1 REVERT JUMPDEST DUP2 ADD SWAP1 DUP1 DUP1 CALLDATALOAD PUSH20 0xFFFFFFFFFFFFFFFFFFFFFFFFFFFFFFFFFFFFFFFF AND SWAP1 PUSH1 0x20 ADD SWAP1 SWAP3 SWAP2 SWAP1 DUP1 CALLDATALOAD ISZERO ISZERO SWAP1 PUSH1 0x20 ADD SWAP1 SWAP3 SWAP2 SWAP1 POP POP POP PUSH2 0xF0B JUMP JUMPDEST STOP JUMPDEST PUSH2 0x530 PUSH1 0x4 DUP1 CALLDATASIZE SUB PUSH1 0x20 DUP2 LT ISZERO PUSH2 0x51A JUMPI PUSH1 0x0 DUP1 REVERT JUMPDEST DUP2 ADD SWAP1 DUP1 DUP1 CALLDATALOAD SWAP1 PUSH1 0x20 ADD SWAP1 SWAP3 SWAP2 SWAP1 POP POP POP PUSH2 0x107E JUMP JUMPDEST PUSH1 0x40 MLOAD DUP1 DUP3 PUSH20 0xFFFFFFFFFFFFFFFFFFFFFFFFFFFFFFFFFFFFFFFF AND DUP2 MSTORE PUSH1 0x20 ADD SWAP2 POP POP PUSH1 0x40 MLOAD DUP1 SWAP2 SUB SWAP1 RETURN JUMPDEST PUSH2 0x59E PUSH1 0x4 DUP1 CALLDATASIZE SUB PUSH1 0x20 DUP2 LT ISZERO PUSH2 0x572 JUMPI PUSH1 0x0 DUP1 REVERT JUMPDEST DUP2 ADD SWAP1 DUP1 DUP1 CALLDATALOAD PUSH20 0xFFFFFFFFFFFFFFFFFFFFFFFFFFFFFFFFFFFFFFFF AND SWAP1 PUSH1 0x20 ADD SWAP1 SWAP3 SWAP2 SWAP1 POP POP POP PUSH2 0x10B1 JUMP JUMPDEST STOP JUMPDEST PUSH2 0x5EC PUSH1 0x4 DUP1 CALLDATASIZE SUB PUSH1 0x40 DUP2 LT ISZERO PUSH2 0x5B6 JUMPI PUSH1 0x0 DUP1 REVERT JUMPDEST DUP2 ADD SWAP1 DUP1 DUP1 CALLDATALOAD SWAP1 PUSH1 0x20 ADD SWAP1 SWAP3 SWAP2 SWAP1 DUP1 CALLDATALOAD PUSH20 0xFFFFFFFFFFFFFFFFFFFFFFFFFFFFFFFFFFFFFFFF AND SWAP1 PUSH1 0x20 ADD SWAP1 SWAP3 SWAP2 SWAP1 POP POP POP PUSH2 0x11B5 JUMP JUMPDEST STOP JUMPDEST PUSH2 0x61A PUSH1 0x4 DUP1 CALLDATASIZE SUB PUSH1 0x20 DUP2 LT ISZERO PUSH2 0x604 JUMPI PUSH1 0x0 DUP1 REVERT JUMPDEST DUP2 ADD SWAP1 DUP1 DUP1 CALLDATALOAD SWAP1 PUSH1 0x20 ADD SWAP1 SWAP3 SWAP2 SWAP1 POP POP POP PUSH2 0x139A JUMP JUMPDEST STOP JUMPDEST PUSH2 0x624 PUSH2 0x13A7 JUMP JUMPDEST PUSH1 0x40 MLOAD DUP1 DUP3 DUP2 MSTORE PUSH1 0x20 ADD SWAP2 POP POP PUSH1 0x40 MLOAD DUP1 SWAP2 SUB SWAP1 RETURN JUMPDEST PUSH2 0x686 PUSH1 0x4 DUP1 CALLDATASIZE SUB PUSH1 0x40 DUP2 LT ISZERO PUSH2 0x650 JUMPI PUSH1 0x0 DUP1 REVERT JUMPDEST DUP2 ADD SWAP1 DUP1 DUP1 CALLDATALOAD SWAP1 PUSH1 0x20 ADD SWAP1 SWAP3 SWAP2 SWAP1 DUP1 CALLDATALOAD PUSH20 0xFFFFFFFFFFFFFFFFFFFFFFFFFFFFFFFFFFFFFFFF AND SWAP1 PUSH1 0x20 ADD SWAP1 SWAP3 SWAP2 SWAP1 POP POP POP PUSH2 0x13AD JUMP JUMPDEST STOP JUMPDEST PUSH1 0x3 PUSH1 0x20 MSTORE DUP1 PUSH1 0x0 MSTORE PUSH1 0x40 PUSH1 0x0 KECCAK256 PUSH1 0x0 SWAP2 POP SWAP1 POP DUP1 PUSH1 0x0 ADD SLOAD SWAP1 DUP1 PUSH1 0x1 ADD SLOAD SWAP1 POP DUP3 JUMP JUMPDEST PUSH1 0x0 DUP1 SLOAD SWAP1 PUSH2 0x100 EXP SWAP1 DIV PUSH20 0xFFFFFFFFFFFFFFFFFFFFFFFFFFFFFFFFFFFFFFFF AND DUP2 JUMP JUMPDEST PUSH1 0x2 PUSH1 0x20 MSTORE DUP1 PUSH1 0x0 MSTORE PUSH1 0x40 PUSH1 0x0 KECCAK256 PUSH1 0x0 SWAP2 POP SWAP1 POP SLOAD DUP2 JUMP JUMPDEST PUSH1 0x0 DUP1 SHL DUP2 EQ ISZERO PUSH2 0x761 JUMPI PUSH1 0x40 MLOAD PUSH32 0x8C379A000000000000000000000000000000000000000000000000000000000 DUP2 MSTORE PUSH1 0x4 ADD DUP1 DUP1 PUSH1 0x20 ADD DUP3 DUP2 SUB DUP3 MSTORE PUSH1 0x1E DUP2 MSTORE PUSH1 0x20 ADD DUP1 PUSH32 0x526566657272616C53746F726167653A20696E76616C6964205F636F64650000 DUP2 MSTORE POP PUSH1 0x20 ADD SWAP2 POP POP PUSH1 0x40 MLOAD DUP1 SWAP2 SUB SWAP1 REVERT JUMPDEST PUSH1 0x0 PUSH20 0xFFFFFFFFFFFFFFFFFFFFFFFFFFFFFFFFFFFFFFFF AND PUSH1 0x5 PUSH1 0x0 DUP4 DUP2 MSTORE PUSH1 0x20 ADD SWAP1 DUP2 MSTORE PUSH1 0x20 ADD PUSH1 0x0 KECCAK256 PUSH1 0x0 SWAP1 SLOAD SWAP1 PUSH2 0x100 EXP SWAP1 DIV PUSH20 0xFFFFFFFFFFFFFFFFFFFFFFFFFFFFFFFFFFFFFFFF AND PUSH20 0xFFFFFFFFFFFFFFFFFFFFFFFFFFFFFFFFFFFFFFFF AND EQ PUSH2 0x819 JUMPI PUSH1 0x40 MLOAD PUSH32 0x8C379A000000000000000000000000000000000000000000000000000000000 DUP2 MSTORE PUSH1 0x4 ADD DUP1 DUP1 PUSH1 0x20 ADD DUP3 DUP2 SUB DUP3 MSTORE PUSH1 0x24 DUP2 MSTORE PUSH1 0x20 ADD DUP1 PUSH2 0x16A5 PUSH1 0x24 SWAP2 CODECOPY PUSH1 0x40 ADD SWAP2 POP POP PUSH1 0x40 MLOAD DUP1 SWAP2 SUB SWAP1 REVERT JUMPDEST CALLER PUSH1 0x5 PUSH1 0x0 DUP4 DUP2 MSTORE PUSH1 0x20 ADD SWAP1 DUP2 MSTORE PUSH1 0x20 ADD PUSH1 0x0 KECCAK256 PUSH1 0x0 PUSH2 0x100 EXP DUP2 SLOAD DUP2 PUSH20 0xFFFFFFFFFFFFFFFFFFFFFFFFFFFFFFFFFFFFFFFF MUL NOT AND SWAP1 DUP4 PUSH20 0xFFFFFFFFFFFFFFFFFFFFFFFFFFFFFFFFFFFFFFFF AND MUL OR SWAP1 SSTORE POP PUSH32 0x4F82286A2A3B2EE5C8555DE8304DFE2EA70991613213184B73A9E408D2D8029 CALLER DUP3 PUSH1 0x40 MLOAD DUP1 DUP4 PUSH20 0xFFFFFFFFFFFFFFFFFFFFFFFFFFFFFFFFFFFFFFFF AND DUP2 MSTORE PUSH1 0x20 ADD DUP3 DUP2 MSTORE PUSH1 0x20 ADD SWAP3 POP POP POP PUSH1 0x40 MLOAD DUP1 SWAP2 SUB SWAP1 LOG1 POP JUMP JUMPDEST PUSH1 0x0 DUP1 SLOAD SWAP1 PUSH2 0x100 EXP SWAP1 DIV PUSH20 0xFFFFFFFFFFFFFFFFFFFFFFFFFFFFFFFFFFFFFFFF AND PUSH20 0xFFFFFFFFFFFFFFFFFFFFFFFFFFFFFFFFFFFFFFFF AND CALLER PUSH20 0xFFFFFFFFFFFFFFFFFFFFFFFFFFFFFFFFFFFFFFFF AND EQ PUSH2 0x984 JUMPI PUSH1 0x40 MLOAD PUSH32 0x8C379A000000000000000000000000000000000000000000000000000000000 DUP2 MSTORE PUSH1 0x4 ADD DUP1 DUP1 PUSH1 0x20 ADD DUP3 DUP2 SUB DUP3 MSTORE PUSH1 0x15 DUP2 MSTORE PUSH1 0x20 ADD DUP1 PUSH32 0x476F7665726E61626C653A20666F7262696464656E0000000000000000000000 DUP2 MSTORE POP PUSH1 0x20 ADD SWAP2 POP POP PUSH1 0x40 MLOAD DUP1 SWAP2 SUB SWAP1 REVERT JUMPDEST DUP1 PUSH1 0x2 PUSH1 0x0 DUP5 PUSH20 0xFFFFFFFFFFFFFFFFFFFFFFFFFFFFFFFFFFFFFFFF AND PUSH20 0xFFFFFFFFFFFFFFFFFFFFFFFFFFFFFFFFFFFFFFFF AND DUP2 MSTORE PUSH1 0x20 ADD SWAP1 DUP2 MSTORE PUSH1 0x20 ADD PUSH1 0x0 KECCAK256 DUP2 SWAP1 SSTORE POP PUSH32 0x7696855CDBB94BB5A44CB0A95CAFF6F29173AA1CBFBA193834B12B90827CE2BC DUP3 DUP3 PUSH1 0x40 MLOAD DUP1 DUP4 PUSH20 0xFFFFFFFFFFFFFFFFFFFFFFFFFFFFFFFFFFFFFFFF AND DUP2 MSTORE PUSH1 0x20 ADD DUP3 DUP2 MSTORE PUSH1 0x20 ADD SWAP3 POP POP POP PUSH1 0x40 MLOAD DUP1 SWAP2 SUB SWAP1 LOG1 POP POP JUMP JUMPDEST PUSH1 0x4 PUSH1 0x20 MSTORE DUP1 PUSH1 0x0 MSTORE PUSH1 0x40 PUSH1 0x0 KECCAK256 PUSH1 0x0 SWAP2 POP SLOAD SWAP1 PUSH2 0x100 EXP SWAP1 DIV PUSH1 0xFF AND DUP2 JUMP JUMPDEST PUSH1 0x0 DUP1 PUSH1 0x0 PUSH1 0x6 PUSH1 0x0 DUP6 PUSH20 0xFFFFFFFFFFFFFFFFFFFFFFFFFFFFFFFFFFFFFFFF AND PUSH20 0xFFFFFFFFFFFFFFFFFFFFFFFFFFFFFFFFFFFFFFFF AND DUP2 MSTORE PUSH1 0x20 ADD SWAP1 DUP2 MSTORE PUSH1 0x20 ADD PUSH1 0x0 KECCAK256 SLOAD SWAP1 POP PUSH1 0x0 DUP1 PUSH1 0x0 SHL DUP3 EQ PUSH2 0xACB JUMPI PUSH1 0x5 PUSH1 0x0 DUP4 DUP2 MSTORE PUSH1 0x20 ADD SWAP1 DUP2 MSTORE PUSH1 0x20 ADD PUSH1 0x0 KECCAK256 PUSH1 0x0 SWAP1 SLOAD SWAP1 PUSH2 0x100 EXP SWAP1 DIV PUSH20 0xFFFFFFFFFFFFFFFFFFFFFFFFFFFFFFFFFFFFFFFF AND SWAP1 POP JUMPDEST DUP2 DUP2 SWAP4 POP SWAP4 POP POP POP SWAP2 POP SWAP2 JUMP JUMPDEST PUSH1 0x4 PUSH1 0x0 CALLER PUSH20 0xFFFFFFFFFFFFFFFFFFFFFFFFFFFFFFFFFFFFFFFF AND PUSH20 0xFFFFFFFFFFFFFFFFFFFFFFFFFFFFFFFFFFFFFFFF AND DUP2 MSTORE PUSH1 0x20 ADD SWAP1 DUP2 MSTORE PUSH1 0x20 ADD PUSH1 0x0 KECCAK256 PUSH1 0x0 SWAP1 SLOAD SWAP1 PUSH2 0x100 EXP SWAP1 DIV PUSH1 0xFF AND PUSH2 0xB97 JUMPI PUSH1 0x40 MLOAD PUSH32 0x8C379A000000000000000000000000000000000000000000000000000000000 DUP2 MSTORE PUSH1 0x4 ADD DUP1 DUP1 PUSH1 0x20 ADD DUP3 DUP2 SUB DUP3 MSTORE PUSH1 0x1A DUP2 MSTORE PUSH1 0x20 ADD DUP1 PUSH32 0x526566657272616C53746F726167653A20666F7262696464656E000000000000 DUP2 MSTORE POP PUSH1 0x20 ADD SWAP2 POP POP PUSH1 0x40 MLOAD DUP1 SWAP2 SUB SWAP1 REVERT JUMPDEST PUSH2 0xBA1 DUP3 DUP3 PUSH2 0x15C9 JUMP JUMPDEST POP POP JUMP JUMPDEST PUSH1 0x1 PUSH1 0x20 MSTORE DUP1 PUSH1 0x0 MSTORE PUSH1 0x40 PUSH1 0x0 KECCAK256 PUSH1 0x0 SWAP2 POP SWAP1 POP SLOAD DUP2 JUMP JUMPDEST PUSH1 0x0 DUP1 SLOAD SWAP1 PUSH2 0x100 EXP SWAP1 DIV PUSH20 0xFFFFFFFFFFFFFFFFFFFFFFFFFFFFFFFFFFFFFFFF AND PUSH20 0xFFFFFFFFFFFFFFFFFFFFFFFFFFFFFFFFFFFFFFFF AND CALLER PUSH20 0xFFFFFFFFFFFFFFFFFFFFFFFFFFFFFFFFFFFFFFFF AND EQ PUSH2 0xC7E JUMPI PUSH1 0x40 MLOAD PUSH32 0x8C379A000000000000000000000000000000000000000000000000000000000 DUP2 MSTORE PUSH1 0x4 ADD DUP1 DUP1 PUSH1 0x20 ADD DUP3 DUP2 SUB DUP3 MSTORE PUSH1 0x15 DUP2 MSTORE PUSH1 0x20 ADD DUP1 PUSH32 0x476F7665726E61626C653A20666F7262696464656E0000000000000000000000 DUP2 MSTORE POP PUSH1 0x20 ADD SWAP2 POP POP PUSH1 0x40 MLOAD DUP1 SWAP2 SUB SWAP1 REVERT JUMPDEST PUSH2 0x2710 DUP3 GT ISZERO PUSH2 0xCD9 JUMPI PUSH1 0x40 MLOAD PUSH32 0x8C379A000000000000000000000000000000000000000000000000000000000 DUP2 MSTORE PUSH1 0x4 ADD DUP1 DUP1 PUSH1 0x20 ADD DUP3 DUP2 SUB DUP3 MSTORE PUSH1 0x24 DUP2 MSTORE PUSH1 0x20 ADD DUP1 PUSH2 0x1681 PUSH1 0x24 SWAP2 CODECOPY PUSH1 0x40 ADD SWAP2 POP POP PUSH1 0x40 MLOAD DUP1 SWAP2 SUB SWAP1 REVERT JUMPDEST PUSH2 0x2710 DUP2 GT ISZERO PUSH2 0xD34 JUMPI PUSH1 0x40 MLOAD PUSH32 0x8C379A000000000000000000000000000000000000000000000000000000000 DUP2 MSTORE PUSH1 0x4 ADD DUP1 DUP1 PUSH1 0x20 ADD DUP3 DUP2 SUB DUP3 MSTORE PUSH1 0x26 DUP2 MSTORE PUSH1 0x20 ADD DUP1 PUSH2 0x16C9 PUSH1 0x26 SWAP2 CODECOPY PUSH1 0x40 ADD SWAP2 POP POP PUSH1 0x40 MLOAD DUP1 SWAP2 SUB SWAP1 REVERT JUMPDEST PUSH2 0xD3C PUSH2 0x1666 JUMP JUMPDEST PUSH1 0x3 PUSH1 0x0 DUP6 DUP2 MSTORE PUSH1 0x20 ADD SWAP1 DUP2 MSTORE PUSH1 0x20 ADD PUSH1 0x0 KECCAK256 PUSH1 0x40 MLOAD DUP1 PUSH1 0x40 ADD PUSH1 0x40 MSTORE SWAP1 DUP2 PUSH1 0x0 DUP3 ADD SLOAD DUP2 MSTORE PUSH1 0x20 ADD PUSH1 0x1 DUP3 ADD SLOAD DUP2 MSTORE POP POP SWAP1 POP DUP3 DUP2 PUSH1 0x0 ADD DUP2 DUP2 MSTORE POP POP DUP2 DUP2 PUSH1 0x20 ADD DUP2 DUP2 MSTORE POP POP DUP1 PUSH1 0x3 PUSH1 0x0 DUP7 DUP2 MSTORE PUSH1 0x20 ADD SWAP1 DUP2 MSTORE PUSH1 0x20 ADD PUSH1 0x0 KECCAK256 PUSH1 0x0 DUP3 ADD MLOAD DUP2 PUSH1 0x0 ADD SSTORE PUSH1 0x20 DUP3 ADD MLOAD DUP2 PUSH1 0x1 ADD SSTORE SWAP1 POP POP PUSH32 0x4EBD23A492B2BD79586CB57CAE40D7793408265F20320F68B478B971E696F4C7 DUP5 DUP5 DUP5 PUSH1 0x40 MLOAD DUP1 DUP5 DUP2 MSTORE PUSH1 0x20 ADD DUP4 DUP2 MSTORE PUSH1 0x20 ADD DUP3 DUP2 MSTORE PUSH1 0x20 ADD SWAP4 POP POP POP POP PUSH1 0x40 MLOAD DUP1 SWAP2 SUB SWAP1 LOG1 POP POP POP POP JUMP JUMPDEST PUSH1 0x6 PUSH1 0x20 MSTORE DUP1 PUSH1 0x0 MSTORE PUSH1 0x40 PUSH1 0x0 KECCAK256 PUSH1 0x0 SWAP2 POP SWAP1 POP SLOAD DUP2 JUMP JUMPDEST PUSH2 0x2710 DUP2 GT ISZERO PUSH2 0xE6F JUMPI PUSH1 0x40 MLOAD PUSH32 0x8C379A000000000000000000000000000000000000000000000000000000000 DUP2 MSTORE PUSH1 0x4 ADD DUP1 DUP1 PUSH1 0x20 ADD DUP3 DUP2 SUB DUP3 MSTORE PUSH1 0x26 DUP2 MSTORE PUSH1 0x20 ADD DUP1 PUSH2 0x16C9 PUSH1 0x26 SWAP2 CODECOPY PUSH1 0x40 ADD SWAP2 POP POP PUSH1 0x40 MLOAD DUP1 SWAP2 SUB SWAP1 REVERT JUMPDEST DUP1 PUSH1 0x1 PUSH1 0x0 CALLER PUSH20 0xFFFFFFFFFFFFFFFFFFFFFFFFFFFFFFFFFFFFFFFF AND PUSH20 0xFFFFFFFFFFFFFFFFFFFFFFFFFFFFFFFFFFFFFFFF AND DUP2 MSTORE PUSH1 0x20 ADD SWAP1 DUP2 MSTORE PUSH1 0x20 ADD PUSH1 0x0 KECCAK256 DUP2 SWAP1 SSTORE POP PUSH32 0xBD224F3917462B0FA80805FE3EC29BE3A37F664955AAD6224E5ECE036224C429 CALLER DUP3 PUSH1 0x40 MLOAD DUP1 DUP4 PUSH20 0xFFFFFFFFFFFFFFFFFFFFFFFFFFFFFFFFFFFFFFFF AND DUP2 MSTORE PUSH1 0x20 ADD DUP3 DUP2 MSTORE PUSH1 0x20 ADD SWAP3 POP POP POP PUSH1 0x40 MLOAD DUP1 SWAP2 SUB SWAP1 LOG1 POP JUMP JUMPDEST PUSH1 0x0 DUP1 SLOAD SWAP1 PUSH2 0x100 EXP SWAP1 DIV PUSH20 0xFFFFFFFFFFFFFFFFFFFFFFFFFFFFFFFFFFFFFFFF AND PUSH20 0xFFFFFFFFFFFFFFFFFFFFFFFFFFFFFFFFFFFFFFFF AND CALLER PUSH20 0xFFFFFFFFFFFFFFFFFFFFFFFFFFFFFFFFFFFFFFFF AND EQ PUSH2 0xFCC JUMPI PUSH1 0x40 MLOAD PUSH32 0x8C379A000000000000000000000000000000000000000000000000000000000 DUP2 MSTORE PUSH1 0x4 ADD DUP1 DUP1 PUSH1 0x20 ADD DUP3 DUP2 SUB DUP3 MSTORE PUSH1 0x15 DUP2 MSTORE PUSH1 0x20 ADD DUP1 PUSH32 0x476F7665726E61626C653A20666F7262696464656E0000000000000000000000 DUP2 MSTORE POP PUSH1 0x20 ADD SWAP2 POP POP PUSH1 0x40 MLOAD DUP1 SWAP2 SUB SWAP1 REVERT JUMPDEST DUP1 PUSH1 0x4 PUSH1 0x0 DUP5 PUSH20 0xFFFFFFFFFFFFFFFFFFFFFFFFFFFFFFFFFFFFFFFF AND PUSH20 0xFFFFFFFFFFFFFFFFFFFFFFFFFFFFFFFFFFFFFFFF AND DUP2 MSTORE PUSH1 0x20 ADD SWAP1 DUP2 MSTORE PUSH1 0x20 ADD PUSH1 0x0 KECCAK256 PUSH1 0x0 PUSH2 0x100 EXP DUP2 SLOAD DUP2 PUSH1 0xFF MUL NOT AND SWAP1 DUP4 ISZERO ISZERO MUL OR SWAP1 SSTORE POP PUSH32 0xD373464A39404E5F98FDB4B152B8BA9A094561E97E5C4B4EA11EB18CD9E6695E DUP3 DUP3 PUSH1 0x40 MLOAD DUP1 DUP4 PUSH20 0xFFFFFFFFFFFFFFFFFFFFFFFFFFFFFFFFFFFFFFFF AND DUP2 MSTORE PUSH1 0x20 ADD DUP3 ISZERO ISZERO DUP2 MSTORE PUSH1 0x20 ADD SWAP3 POP POP POP PUSH1 0x40 MLOAD DUP1 SWAP2 SUB SWAP1 LOG1 POP POP JUMP JUMPDEST PUSH1 0x5 PUSH1 0x20 MSTORE DUP1 PUSH1 0x0 MSTORE PUSH1 0x40 PUSH1 0x0 KECCAK256 PUSH1 0x0 SWAP2 POP SLOAD SWAP1 PUSH2 0x100 EXP SWAP1 DIV PUSH20 0xFFFFFFFFFFFFFFFFFFFFFFFFFFFFFFFFFFFFFFFF AND DUP2 JUMP JUMPDEST PUSH1 0x0 DUP1 SLOAD SWAP1 PUSH2 0x100 EXP SWAP1 DIV PUSH20 0xFFFFFFFFFFFFFFFFFFFFFFFFFFFFFFFFFFFFFFFF AND PUSH20 0xFFFFFFFFFFFFFFFFFFFFFFFFFFFFFFFFFFFFFFFF AND CALLER PUSH20 0xFFFFFFFFFFFFFFFFFFFFFFFFFFFFFFFFFFFFFFFF AND EQ PUSH2 0x1172 JUMPI PUSH1 0x40 MLOAD PUSH32 0x8C379A000000000000000000000000000000000000000000000000000000000 DUP2 MSTORE PUSH1 0x4 ADD DUP1 DUP1 PUSH1 0x20 ADD DUP3 DUP2 SUB DUP3 MSTORE PUSH1 0x15 DUP2 MSTORE PUSH1 0x20 ADD DUP1 PUSH32 0x476F7665726E61626C653A20666F7262696464656E0000000000000000000000 DUP2 MSTORE POP PUSH1 0x20 ADD SWAP2 POP POP PUSH1 0x40 MLOAD DUP1 SWAP2 SUB SWAP1 REVERT JUMPDEST DUP1 PUSH1 0x0 DUP1 PUSH2 0x100 EXP DUP2 SLOAD DUP2 PUSH20 0xFFFFFFFFFFFFFFFFFFFFFFFFFFFFFFFFFFFFFFFF MUL NOT AND SWAP1 DUP4 PUSH20 0xFFFFFFFFFFFFFFFFFFFFFFFFFFFFFFFFFFFFFFFF AND MUL OR SWAP1 SSTORE POP POP JUMP JUMPDEST PUSH1 0x0 DUP1 SLOAD SWAP1 PUSH2 0x100 EXP SWAP1 DIV PUSH20 0xFFFFFFFFFFFFFFFFFFFFFFFFFFFFFFFFFFFFFFFF AND PUSH20 0xFFFFFFFFFFFFFFFFFFFFFFFFFFFFFFFFFFFFFFFF AND CALLER PUSH20 0xFFFFFFFFFFFFFFFFFFFFFFFFFFFFFFFFFFFFFFFF AND EQ PUSH2 0x1276 JUMPI PUSH1 0x40 MLOAD PUSH32 0x8C379A000000000000000000000000000000000000000000000000000000000 DUP2 MSTORE PUSH1 0x4 ADD DUP1 DUP1 PUSH1 0x20 ADD DUP3 DUP2 SUB DUP3 MSTORE PUSH1 0x15 DUP2 MSTORE PUSH1 0x20 ADD DUP1 PUSH32 0x476F7665726E61626C653A20666F7262696464656E0000000000000000000000 DUP2 MSTORE POP PUSH1 0x20 ADD SWAP2 POP POP PUSH1 0x40 MLOAD DUP1 SWAP2 SUB SWAP1 REVERT JUMPDEST PUSH1 0x0 DUP1 SHL DUP3 EQ ISZERO PUSH2 0x12EF JUMPI PUSH1 0x40 MLOAD PUSH32 0x8C379A000000000000000000000000000000000000000000000000000000000 DUP2 MSTORE PUSH1 0x4 ADD DUP1 DUP1 PUSH1 0x20 ADD DUP3 DUP2 SUB DUP3 MSTORE PUSH1 0x1E DUP2 MSTORE PUSH1 0x20 ADD DUP1 PUSH32 0x526566657272616C53746F726167653A20696E76616C6964205F636F64650000 DUP2 MSTORE POP PUSH1 0x20 ADD SWAP2 POP POP PUSH1 0x40 MLOAD DUP1 SWAP2 SUB SWAP1 REVERT JUMPDEST DUP1 PUSH1 0x5 PUSH1 0x0 DUP5 DUP2 MSTORE PUSH1 0x20 ADD SWAP1 DUP2 MSTORE PUSH1 0x20 ADD PUSH1 0x0 KECCAK256 PUSH1 0x0 PUSH2 0x100 EXP DUP2 SLOAD DUP2 PUSH20 0xFFFFFFFFFFFFFFFFFFFFFFFFFFFFFFFFFFFFFFFF MUL NOT AND SWAP1 DUP4 PUSH20 0xFFFFFFFFFFFFFFFFFFFFFFFFFFFFFFFFFFFFFFFF AND MUL OR SWAP1 SSTORE POP PUSH32 0x6431F88C655DD0E2B8D09B6405C007C515C66D67F2998E69C902873A8C8F3E97 DUP3 DUP3 PUSH1 0x40 MLOAD DUP1 DUP4 DUP2 MSTORE PUSH1 0x20 ADD DUP3 PUSH20 0xFFFFFFFFFFFFFFFFFFFFFFFFFFFFFFFFFFFFFFFF AND DUP2 MSTORE PUSH1 0x20 ADD SWAP3 POP POP POP PUSH1 0x40 MLOAD DUP1 SWAP2 SUB SWAP1 LOG1 POP POP JUMP JUMPDEST PUSH2 0x13A4 CALLER DUP3 PUSH2 0x15C9 JUMP JUMPDEST POP JUMP JUMPDEST PUSH2 0x2710 DUP2 JUMP JUMPDEST PUSH1 0x0 DUP1 SHL DUP3 EQ ISZERO PUSH2 0x1426 JUMPI PUSH1 0x40 MLOAD PUSH32 0x8C379A000000000000000000000000000000000000000000000000000000000 DUP2 MSTORE PUSH1 0x4 ADD DUP1 DUP1 PUSH1 0x20 ADD DUP3 DUP2 SUB DUP3 MSTORE PUSH1 0x1E DUP2 MSTORE PUSH1 0x20 ADD DUP1 PUSH32 0x526566657272616C53746F726167653A20696E76616C6964205F636F64650000 DUP2 MSTORE POP PUSH1 0x20 ADD SWAP2 POP POP PUSH1 0x40 MLOAD DUP1 SWAP2 SUB SWAP1 REVERT JUMPDEST PUSH1 0x0 PUSH1 0x5 PUSH1 0x0 DUP5 DUP2 MSTORE PUSH1 0x20 ADD SWAP1 DUP2 MSTORE PUSH1 0x20 ADD PUSH1 0x0 KECCAK256 PUSH1 0x0 SWAP1 SLOAD SWAP1 PUSH2 0x100 EXP SWAP1 DIV PUSH20 0xFFFFFFFFFFFFFFFFFFFFFFFFFFFFFFFFFFFFFFFF AND SWAP1 POP DUP1 PUSH20 0xFFFFFFFFFFFFFFFFFFFFFFFFFFFFFFFFFFFFFFFF AND CALLER PUSH20 0xFFFFFFFFFFFFFFFFFFFFFFFFFFFFFFFFFFFFFFFF AND EQ PUSH2 0x14FF JUMPI PUSH1 0x40 MLOAD PUSH32 0x8C379A000000000000000000000000000000000000000000000000000000000 DUP2 MSTORE PUSH1 0x4 ADD DUP1 DUP1 PUSH1 0x20 ADD DUP3 DUP2 SUB DUP3 MSTORE PUSH1 0x1A DUP2 MSTORE PUSH1 0x20 ADD DUP1 PUSH32 0x526566657272616C53746F726167653A20666F7262696464656E000000000000 DUP2 MSTORE POP PUSH1 0x20 ADD SWAP2 POP POP PUSH1 0x40 MLOAD DUP1 SWAP2 SUB SWAP1 REVERT JUMPDEST DUP2 PUSH1 0x5 PUSH1 0x0 DUP6 DUP2 MSTORE PUSH1 0x20 ADD SWAP1 DUP2 MSTORE PUSH1 0x20 ADD PUSH1 0x0 KECCAK256 PUSH1 0x0 PUSH2 0x100 EXP DUP2 SLOAD DUP2 PUSH20 0xFFFFFFFFFFFFFFFFFFFFFFFFFFFFFFFFFFFFFFFF MUL NOT AND SWAP1 DUP4 PUSH20 0xFFFFFFFFFFFFFFFFFFFFFFFFFFFFFFFFFFFFFFFF AND MUL OR SWAP1 SSTORE POP PUSH32 0x5640856798D41CE9CA0A109B54C20A06EB99BA9C36AB4547115DAFB8473CF397 CALLER DUP4 DUP6 PUSH1 0x40 MLOAD DUP1 DUP5 PUSH20 0xFFFFFFFFFFFFFFFFFFFFFFFFFFFFFFFFFFFFFFFF AND DUP2 MSTORE PUSH1 0x20 ADD DUP4 PUSH20 0xFFFFFFFFFFFFFFFFFFFFFFFFFFFFFFFFFFFFFFFF AND DUP2 MSTORE PUSH1 0x20 ADD DUP3 DUP2 MSTORE PUSH1 0x20 ADD SWAP4 POP POP POP POP PUSH1 0x40 MLOAD DUP1 SWAP2 SUB SWAP1 LOG1 POP POP POP JUMP JUMPDEST DUP1 PUSH1 0x6 PUSH1 0x0 DUP5 PUSH20 0xFFFFFFFFFFFFFFFFFFFFFFFFFFFFFFFFFFFFFFFF AND PUSH20 0xFFFFFFFFFFFFFFFFFFFFFFFFFFFFFFFFFFFFFFFF AND DUP2 MSTORE PUSH1 0x20 ADD SWAP1 DUP2 MSTORE PUSH1 0x20 ADD PUSH1 0x0 KECCAK256 DUP2 SWAP1 SSTORE POP PUSH32 0x43825F14567DDA057E821BE2E51A5AA79AA51F3907A647E3ED2BD486A01050F1 DUP3 DUP3 PUSH1 0x40 MLOAD DUP1 DUP4 PUSH20 0xFFFFFFFFFFFFFFFFFFFFFFFFFFFFFFFFFFFFFFFF AND DUP2 MSTORE PUSH1 0x20 ADD DUP3 DUP2 MSTORE PUSH1 0x20 ADD SWAP3 POP POP POP PUSH1 0x40 MLOAD DUP1 SWAP2 SUB SWAP1 LOG1 POP POP JUMP JUMPDEST PUSH1 0x40 MLOAD DUP1 PUSH1 0x40 ADD PUSH1 0x40 MSTORE DUP1 PUSH1 0x0 DUP2 MSTORE PUSH1 0x20 ADD PUSH1 0x0 DUP2 MSTORE POP SWAP1 JUMP INVALID MSTORE PUSH6 0x66657272616C MSTORE8 PUSH21 0x6F726167653A20696E76616C696420746F74616C52 PUSH6 0x626174655265 PUSH7 0x657272616C5374 PUSH16 0x726167653A20636F646520616C726561 PUSH5 0x7920657869 PUSH20 0x7473526566657272616C53746F726167653A2069 PUSH15 0x76616C696420646973636F756E7453 PUSH9 0x617265A26469706673 PC 0x22 SLT KECCAK256 GASPRICE 0x27 DUP8 0xE2 NUMBER 0x27 0xB3 SGT 0xC7 DUP10 PUSH31 0xE3AF3AEDB579C4157A53146B4150C11E7A1D17965E64736F6C634300060C00 CALLER "
				},
				"gasEstimates": {
					"creation": {
						"codeDepositCost": "1184800",
						"executionCost": "22100",
						"totalCost": "1206900"
					},
					"external": {
						"BASIS_POINTS()": "293",
						"codeOwners(bytes32)": "1305",
						"getTraderReferralInfo(address)": "2269",
						"gov()": "1090",
						"govSetCodeOwner(bytes32,address)": "23503",
						"isHandler(address)": "1245",
						"referrerDiscountShares(address)": "1280",
						"referrerTiers(address)": "1237",
						"registerCode(bytes32)": "infinite",
						"setCodeOwner(bytes32,address)": "23947",
						"setGov(address)": "21990",
						"setHandler(address,bool)": "23540",
						"setReferrerDiscountShare(uint256)": "infinite",
						"setReferrerTier(address,uint256)": "22609",
						"setTier(uint256,uint256,uint256)": "infinite",
						"setTraderReferralCode(address,bytes32)": "22784",
						"setTraderReferralCodeByUser(bytes32)": "21783",
						"tiers(uint256)": "2033",
						"traderReferralCodes(address)": "1214"
					},
					"internal": {
						"_setTraderReferralCode(address,bytes32)": "infinite"
					}
				},
				"methodIdentifiers": {
					"BASIS_POINTS()": "e1f1c4a7",
					"codeOwners(bytes32)": "c8b3c460",
					"getTraderReferralInfo(address)": "534ef883",
					"gov()": "12d43a51",
					"govSetCodeOwner(bytes32,address)": "dfcfa250",
					"isHandler(address)": "46ea87af",
					"referrerDiscountShares(address)": "71a6a790",
					"referrerTiers(address)": "1582a018",
					"registerCode(bytes32)": "36def2c8",
					"setCodeOwner(bytes32,address)": "ed843134",
					"setGov(address)": "cfad57a2",
					"setHandler(address,bool)": "9cb7de4b",
					"setReferrerDiscountShare(uint256)": "9c8e2de9",
					"setReferrerTier(address,uint256)": "3fb8b323",
					"setTier(uint256,uint256,uint256)": "836a0187",
					"setTraderReferralCode(address,bytes32)": "56b4b2ad",
					"setTraderReferralCodeByUser(bytes32)": "e1e01bf3",
					"tiers(uint256)": "039af9eb",
					"traderReferralCodes(address)": "85725b58"
				}
			},
			"storageLayout": {
				"storage": [
					{
						"astId": 3,
						"contract": "gist-8f725c60264b06bd3459f9205e86010e/ReferralStorage.sol:ReferralStorage",
						"label": "gov",
						"offset": 0,
						"slot": "0",
						"type": "t_address"
					},
					{
						"astId": 170,
						"contract": "gist-8f725c60264b06bd3459f9205e86010e/ReferralStorage.sol:ReferralStorage",
						"label": "referrerDiscountShares",
						"offset": 0,
						"slot": "1",
						"type": "t_mapping(t_address,t_uint256)"
					},
					{
						"astId": 175,
						"contract": "gist-8f725c60264b06bd3459f9205e86010e/ReferralStorage.sol:ReferralStorage",
						"label": "referrerTiers",
						"offset": 0,
						"slot": "2",
						"type": "t_mapping(t_address,t_uint256)"
					},
					{
						"astId": 179,
						"contract": "gist-8f725c60264b06bd3459f9205e86010e/ReferralStorage.sol:ReferralStorage",
						"label": "tiers",
						"offset": 0,
						"slot": "3",
						"type": "t_mapping(t_uint256,t_struct(Tier)162_storage)"
					},
					{
						"astId": 183,
						"contract": "gist-8f725c60264b06bd3459f9205e86010e/ReferralStorage.sol:ReferralStorage",
						"label": "isHandler",
						"offset": 0,
						"slot": "4",
						"type": "t_mapping(t_address,t_bool)"
					},
					{
						"astId": 188,
						"contract": "gist-8f725c60264b06bd3459f9205e86010e/ReferralStorage.sol:ReferralStorage",
						"label": "codeOwners",
						"offset": 0,
						"slot": "5",
						"type": "t_mapping(t_bytes32,t_address)"
					},
					{
						"astId": 193,
						"contract": "gist-8f725c60264b06bd3459f9205e86010e/ReferralStorage.sol:ReferralStorage",
						"label": "traderReferralCodes",
						"offset": 0,
						"slot": "6",
						"type": "t_mapping(t_address,t_bytes32)"
					}
				],
				"types": {
					"t_address": {
						"encoding": "inplace",
						"label": "address",
						"numberOfBytes": "20"
					},
					"t_bool": {
						"encoding": "inplace",
						"label": "bool",
						"numberOfBytes": "1"
					},
					"t_bytes32": {
						"encoding": "inplace",
						"label": "bytes32",
						"numberOfBytes": "32"
					},
					"t_mapping(t_address,t_bool)": {
						"encoding": "mapping",
						"key": "t_address",
						"label": "mapping(address => bool)",
						"numberOfBytes": "32",
						"value": "t_bool"
					},
					"t_mapping(t_address,t_bytes32)": {
						"encoding": "mapping",
						"key": "t_address",
						"label": "mapping(address => bytes32)",
						"numberOfBytes": "32",
						"value": "t_bytes32"
					},
					"t_mapping(t_address,t_uint256)": {
						"encoding": "mapping",
						"key": "t_address",
						"label": "mapping(address => uint256)",
						"numberOfBytes": "32",
						"value": "t_uint256"
					},
					"t_mapping(t_bytes32,t_address)": {
						"encoding": "mapping",
						"key": "t_bytes32",
						"label": "mapping(bytes32 => address)",
						"numberOfBytes": "32",
						"value": "t_address"
					},
					"t_mapping(t_uint256,t_struct(Tier)162_storage)": {
						"encoding": "mapping",
						"key": "t_uint256",
						"label": "mapping(uint256 => struct ReferralStorage.Tier)",
						"numberOfBytes": "32",
						"value": "t_struct(Tier)162_storage"
					},
					"t_struct(Tier)162_storage": {
						"encoding": "inplace",
						"label": "struct ReferralStorage.Tier",
						"members": [
							{
								"astId": 159,
								"contract": "gist-8f725c60264b06bd3459f9205e86010e/ReferralStorage.sol:ReferralStorage",
								"label": "totalRebate",
								"offset": 0,
								"slot": "0",
								"type": "t_uint256"
							},
							{
								"astId": 161,
								"contract": "gist-8f725c60264b06bd3459f9205e86010e/ReferralStorage.sol:ReferralStorage",
								"label": "discountShare",
								"offset": 0,
								"slot": "1",
								"type": "t_uint256"
							}
						],
						"numberOfBytes": "64"
					},
					"t_uint256": {
						"encoding": "inplace",
						"label": "uint256",
						"numberOfBytes": "32"
					}
				}
			},
			"userdoc": {
				"kind": "user",
				"methods": {},
				"version": 1
			}
		}
	}
}