{
	"gist-bbe3d2eec72b27de020fc2e5b9189a4a/Staking.sol": {
		"Staking": {
			"abi": [
				{
					"inputs": [
						{
							"internalType": "address",
							"name": "oilerToken_",
							"type": "address"
						},
						{
							"internalType": "uint256",
							"name": "stakingDurationInBlocks_",
							"type": "uint256"
						},
						{
							"internalType": "uint256",
							"name": "stakingFundAmount_",
							"type": "uint256"
						},
						{
							"internalType": "uint256",
							"name": "vestingDuration_",
							"type": "uint256"
						},
						{
							"internalType": "address",
							"name": "owner_",
							"type": "address"
						}
					],
					"stateMutability": "nonpayable",
					"type": "constructor"
				},
				{
					"anonymous": false,
					"inputs": [
						{
							"indexed": false,
							"internalType": "address",
							"name": "recipient",
							"type": "address"
						},
						{
							"indexed": false,
							"internalType": "uint256",
							"name": "amountEarned",
							"type": "uint256"
						}
					],
					"name": "RewardGranted",
					"type": "event"
				},
				{
					"anonymous": false,
					"inputs": [
						{
							"indexed": false,
							"internalType": "address",
							"name": "recipient",
							"type": "address"
						},
						{
							"indexed": false,
							"internalType": "uint256",
							"name": "tokenAmount",
							"type": "uint256"
						},
						{
							"indexed": false,
							"internalType": "uint256",
							"name": "lockingPeriodInBlocks",
							"type": "uint256"
						},
						{
							"indexed": false,
							"internalType": "uint256",
							"name": "expectedStakingRewardPoints",
							"type": "uint256"
						}
					],
					"name": "StakeLocked",
					"type": "event"
				},
				{
					"anonymous": false,
					"inputs": [
						{
							"indexed": false,
							"internalType": "address",
							"name": "recipient",
							"type": "address"
						},
						{
							"indexed": false,
							"internalType": "uint256",
							"name": "tokenAmount",
							"type": "uint256"
						},
						{
							"indexed": false,
							"internalType": "uint256",
							"name": "lockingPeriodInBlocks",
							"type": "uint256"
						},
						{
							"indexed": false,
							"internalType": "uint256",
							"name": "rewardPoints",
							"type": "uint256"
						}
					],
					"name": "StakeUnlocked",
					"type": "event"
				},
				{
					"anonymous": false,
					"inputs": [
						{
							"indexed": false,
							"internalType": "address",
							"name": "recipient",
							"type": "address"
						},
						{
							"indexed": false,
							"internalType": "uint256",
							"name": "tokenAmount",
							"type": "uint256"
						},
						{
							"indexed": false,
							"internalType": "uint256",
							"name": "lockingPeriodInBlocks",
							"type": "uint256"
						},
						{
							"indexed": false,
							"internalType": "uint256",
							"name": "actualLockingPeriodInBlocks",
							"type": "uint256"
						}
					],
					"name": "StakeUnlockedPrematurely",
					"type": "event"
				},
				{
					"anonymous": false,
					"inputs": [
						{
							"indexed": false,
							"internalType": "address",
							"name": "recipient",
							"type": "address"
						},
						{
							"indexed": false,
							"internalType": "uint256",
							"name": "amount",
							"type": "uint256"
						}
					],
					"name": "grantedTokensReleased",
					"type": "event"
				},
				{
					"inputs": [
						{
							"internalType": "uint72",
							"name": "tokenAmount_",
							"type": "uint72"
						},
						{
							"internalType": "uint24",
							"name": "lockingPeriodInBlocks_",
							"type": "uint24"
						}
					],
					"name": "calculateStakingRewardPoints",
					"outputs": [
						{
							"internalType": "uint128",
							"name": "",
							"type": "uint128"
						}
					],
					"stateMutability": "pure",
					"type": "function"
				},
				{
					"inputs": [],
					"name": "getRewards",
					"outputs": [],
					"stateMutability": "nonpayable",
					"type": "function"
				},
				{
					"inputs": [
						{
							"internalType": "address",
							"name": "",
							"type": "address"
						}
					],
					"name": "grantedTokens",
					"outputs": [
						{
							"internalType": "uint256",
							"name": "",
							"type": "uint256"
						}
					],
					"stateMutability": "view",
					"type": "function"
				},
				{
					"inputs": [
						{
							"internalType": "uint72",
							"name": "tokenAmount_",
							"type": "uint72"
						},
						{
							"internalType": "uint24",
							"name": "lockingPeriodInBlocks_",
							"type": "uint24"
						}
					],
					"name": "lockTokens",
					"outputs": [],
					"stateMutability": "nonpayable",
					"type": "function"
				},
				{
					"inputs": [],
					"name": "oilerToken",
					"outputs": [
						{
							"internalType": "contract IERC20",
							"name": "",
							"type": "address"
						}
					],
					"stateMutability": "view",
					"type": "function"
				},
				{
					"inputs": [],
					"name": "owner",
					"outputs": [
						{
							"internalType": "address",
							"name": "",
							"type": "address"
						}
					],
					"stateMutability": "view",
					"type": "function"
				},
				{
					"inputs": [],
					"name": "poolToken",
					"outputs": [
						{
							"internalType": "contract IERC20",
							"name": "",
							"type": "address"
						}
					],
					"stateMutability": "view",
					"type": "function"
				},
				{
					"inputs": [],
					"name": "release",
					"outputs": [],
					"stateMutability": "nonpayable",
					"type": "function"
				},
				{
					"inputs": [
						{
							"internalType": "address",
							"name": "",
							"type": "address"
						}
					],
					"name": "releasedTokens",
					"outputs": [
						{
							"internalType": "uint256",
							"name": "",
							"type": "uint256"
						}
					],
					"stateMutability": "view",
					"type": "function"
				},
				{
					"inputs": [
						{
							"internalType": "address",
							"name": "",
							"type": "address"
						}
					],
					"name": "rewardPointsEarned",
					"outputs": [
						{
							"internalType": "uint256",
							"name": "",
							"type": "uint256"
						}
					],
					"stateMutability": "view",
					"type": "function"
				},
				{
					"inputs": [
						{
							"internalType": "address",
							"name": "poolToken_",
							"type": "address"
						},
						{
							"internalType": "address",
							"name": "stakingFundAddress_",
							"type": "address"
						}
					],
					"name": "setPoolToken",
					"outputs": [],
					"stateMutability": "nonpayable",
					"type": "function"
				},
				{
					"inputs": [
						{
							"internalType": "address",
							"name": "",
							"type": "address"
						}
					],
					"name": "stakes",
					"outputs": [
						{
							"internalType": "uint72",
							"name": "tokenAmount",
							"type": "uint72"
						},
						{
							"internalType": "uint24",
							"name": "lockingPeriodInBlocks",
							"type": "uint24"
						},
						{
							"internalType": "uint32",
							"name": "startBlock",
							"type": "uint32"
						},
						{
							"internalType": "uint128",
							"name": "expectedStakingRewardPoints",
							"type": "uint128"
						}
					],
					"stateMutability": "view",
					"type": "function"
				},
				{
					"inputs": [],
					"name": "stakingFundAmount",
					"outputs": [
						{
							"internalType": "uint256",
							"name": "",
							"type": "uint256"
						}
					],
					"stateMutability": "view",
					"type": "function"
				},
				{
					"inputs": [],
					"name": "stakingProgramEndsBlock",
					"outputs": [
						{
							"internalType": "uint256",
							"name": "",
							"type": "uint256"
						}
					],
					"stateMutability": "view",
					"type": "function"
				},
				{
					"inputs": [],
					"name": "totalRewardPoints",
					"outputs": [
						{
							"internalType": "uint256",
							"name": "",
							"type": "uint256"
						}
					],
					"stateMutability": "view",
					"type": "function"
				},
				{
					"inputs": [],
					"name": "unlockTokens",
					"outputs": [],
					"stateMutability": "nonpayable",
					"type": "function"
				},
				{
					"inputs": [],
					"name": "vestingDuration",
					"outputs": [
						{
							"internalType": "uint256",
							"name": "",
							"type": "uint256"
						}
					],
					"stateMutability": "view",
					"type": "function"
				}
			],
			"devdoc": {
				"kind": "dev",
				"methods": {
					"calculateStakingRewardPoints(uint72,uint24)": {
						"details": "If any parameter is zero - it will fail, thus we save gas on \"requires\" by not checking in other places",
						"params": {
							"lockingPeriodInBlocks_": "- Lock duration defined in blocks.",
							"tokenAmount_": "- Amount of tokens to be stake."
						}
					},
					"constructor": {
						"details": "before deploying the stakingFundAddress must have set allowances on behalf of that contract. The address can be predicted basing on the CREATE or CREATE2 opcode.",
						"params": {
							"oilerToken_": "- address of the token in which rewards will be payed off.",
							"owner_": "- Owner of the contract (is used to initialize poolToken after it's available).",
							"stakingDurationInBlocks_": "- Number of blocks after which staking will end.",
							"stakingFundAmount_": "- Amount of tokens to be payed of as rewards.",
							"vestingDuration_": "- Number of blocks after which OIL tokens earned by staking will be released (duration of Vesting period)."
						}
					},
					"getRewards()": {
						"details": "Which means that all stakes lock periods are already over, and totalRewardPoints value isn't changing anymore - so we can now calculate the percentages of rewards"
					},
					"lockTokens(uint72,uint24)": {
						"params": {
							"lockingPeriodInBlocks_": "- locking period duration defined in blocks.",
							"tokenAmount_": "- Amount of LP tokens to be locked."
						}
					}
				},
				"stateVariables": {
					"owner": {
						"details": "Owner is used only in setPoolToken()"
					},
					"vestingDuration": {
						"details": "In blocks - should be around 100 days"
					}
				},
				"version": 1
			},
			"evm": {
				"assembly": "    /* \"gist-bbe3d2eec72b27de020fc2e5b9189a4a/Staking.sol\":2534:17749  contract Staking {... */\n  mstore(0x40, 0x0120)\n    /* \"gist-bbe3d2eec72b27de020fc2e5b9189a4a/Staking.sol\":7038:7591  constructor(address oilerToken_, uint256 stakingDurationInBlocks_, uint256 stakingFundAmount_, uint256 vestingDuration_, address owner_) {... */\n  callvalue\n  dup1\n  iszero\n  tag_1\n  jumpi\n  0x00\n  dup1\n  revert\ntag_1:\n  pop\n  mload(0x40)\n  sub(codesize, bytecodeSize)\n  dup1\n  bytecodeSize\n  dup4\n  codecopy\n  dup2\n  dup2\n  add\n  0x40\n  mstore\n  dup2\n  add\n  swap1\n  tag_2\n  swap2\n  swap1\n  tag_3\n  jump\t// in\ntag_2:\n    /* \"gist-bbe3d2eec72b27de020fc2e5b9189a4a/Staking.sol\":7211:7214  0x0 */\n  0x00\n    /* \"gist-bbe3d2eec72b27de020fc2e5b9189a4a/Staking.sol\":7193:7215  owner_ != address(0x0) */\n  0xffffffffffffffffffffffffffffffffffffffff\n  and\n    /* \"gist-bbe3d2eec72b27de020fc2e5b9189a4a/Staking.sol\":7193:7199  owner_ */\n  dup2\n    /* \"gist-bbe3d2eec72b27de020fc2e5b9189a4a/Staking.sol\":7193:7215  owner_ != address(0x0) */\n  0xffffffffffffffffffffffffffffffffffffffff\n  and\n  eq\n  iszero\n    /* \"gist-bbe3d2eec72b27de020fc2e5b9189a4a/Staking.sol\":7185:7248  require(owner_ != address(0x0), \"Owner address cannot be zero\") */\n  tag_6\n  jumpi\n  mload(0x40)\n  0x08c379a000000000000000000000000000000000000000000000000000000000\n  dup2\n  mstore\n  0x04\n  add\n  tag_7\n  swap1\n  tag_8\n  jump\t// in\ntag_7:\n  mload(0x40)\n  dup1\n  swap2\n  sub\n  swap1\n  revert\ntag_6:\n    /* \"gist-bbe3d2eec72b27de020fc2e5b9189a4a/Staking.sol\":7266:7272  owner_ */\n  dup1\n    /* \"gist-bbe3d2eec72b27de020fc2e5b9189a4a/Staking.sol\":7258:7272  owner = owner_ */\n  0xffffffffffffffffffffffffffffffffffffffff\n  and\n  0x0100\n  dup2\n  0xffffffffffffffffffffffffffffffffffffffff\n  and\n  0x60\n  shl\n  dup2\n  mstore\n  pop\n  pop\n    /* \"gist-bbe3d2eec72b27de020fc2e5b9189a4a/Staking.sol\":7314:7317  0x0 */\n  0x00\n    /* \"gist-bbe3d2eec72b27de020fc2e5b9189a4a/Staking.sol\":7291:7318  oilerToken_ != address(0x0) */\n  0xffffffffffffffffffffffffffffffffffffffff\n  and\n    /* \"gist-bbe3d2eec72b27de020fc2e5b9189a4a/Staking.sol\":7291:7302  oilerToken_ */\n  dup6\n    /* \"gist-bbe3d2eec72b27de020fc2e5b9189a4a/Staking.sol\":7291:7318  oilerToken_ != address(0x0) */\n  0xffffffffffffffffffffffffffffffffffffffff\n  and\n  eq\n  iszero\n    /* \"gist-bbe3d2eec72b27de020fc2e5b9189a4a/Staking.sol\":7283:7356  require(oilerToken_ != address(0x0), \"oilerToken address cannot be zero\") */\n  tag_9\n  jumpi\n  mload(0x40)\n  0x08c379a000000000000000000000000000000000000000000000000000000000\n  dup2\n  mstore\n  0x04\n  add\n  tag_10\n  swap1\n  tag_11\n  jump\t// in\ntag_10:\n  mload(0x40)\n  dup1\n  swap2\n  sub\n  swap1\n  revert\ntag_9:\n    /* \"gist-bbe3d2eec72b27de020fc2e5b9189a4a/Staking.sol\":7386:7397  oilerToken_ */\n  dup5\n    /* \"gist-bbe3d2eec72b27de020fc2e5b9189a4a/Staking.sol\":7366:7398  oilerToken = IERC20(oilerToken_) */\n  0xffffffffffffffffffffffffffffffffffffffff\n  and\n  0xc0\n  dup2\n  0xffffffffffffffffffffffffffffffffffffffff\n  and\n  0x60\n  shl\n  dup2\n  mstore\n  pop\n  pop\n    /* \"gist-bbe3d2eec72b27de020fc2e5b9189a4a/Staking.sol\":7458:7482  stakingDurationInBlocks_ */\n  dup4\n    /* \"gist-bbe3d2eec72b27de020fc2e5b9189a4a/Staking.sol\":7443:7455  block.number */\n  number\n    /* \"gist-bbe3d2eec72b27de020fc2e5b9189a4a/Staking.sol\":7443:7482  block.number + stakingDurationInBlocks_ */\n  tag_12\n  swap2\n  swap1\n  tag_13\n  jump\t// in\ntag_12:\n    /* \"gist-bbe3d2eec72b27de020fc2e5b9189a4a/Staking.sol\":7417:7482  stakingProgramEndsBlock = block.number + stakingDurationInBlocks_ */\n  0x80\n  dup2\n  dup2\n  mstore\n  pop\n  pop\n    /* \"gist-bbe3d2eec72b27de020fc2e5b9189a4a/Staking.sol\":7510:7526  vestingDuration_ */\n  dup2\n    /* \"gist-bbe3d2eec72b27de020fc2e5b9189a4a/Staking.sol\":7492:7526  vestingDuration = vestingDuration_ */\n  0xe0\n  dup2\n  dup2\n  mstore\n  pop\n  pop\n    /* \"gist-bbe3d2eec72b27de020fc2e5b9189a4a/Staking.sol\":7566:7584  stakingFundAmount_ */\n  dup3\n    /* \"gist-bbe3d2eec72b27de020fc2e5b9189a4a/Staking.sol\":7546:7584  stakingFundAmount = stakingFundAmount_ */\n  0xa0\n  dup2\n  dup2\n  mstore\n  pop\n  pop\n    /* \"gist-bbe3d2eec72b27de020fc2e5b9189a4a/Staking.sol\":7038:7591  constructor(address oilerToken_, uint256 stakingDurationInBlocks_, uint256 stakingFundAmount_, uint256 vestingDuration_, address owner_) {... */\n  pop\n  pop\n  pop\n  pop\n  pop\n    /* \"gist-bbe3d2eec72b27de020fc2e5b9189a4a/Staking.sol\":2534:17749  contract Staking {... */\n  jump(tag_14)\n    /* \"#utility.yul\":7:150   */\ntag_16:\n    /* \"#utility.yul\":64:69   */\n  0x00\n    /* \"#utility.yul\":95:101   */\n  dup2\n    /* \"#utility.yul\":89:102   */\n  mload\n    /* \"#utility.yul\":80:102   */\n  swap1\n  pop\n    /* \"#utility.yul\":111:144   */\n  tag_18\n    /* \"#utility.yul\":138:143   */\n  dup2\n    /* \"#utility.yul\":111:144   */\n  tag_19\n  jump\t// in\ntag_18:\n    /* \"#utility.yul\":70:150   */\n  swap3\n  swap2\n  pop\n  pop\n  jump\t// out\n    /* \"#utility.yul\":156:299   */\ntag_20:\n    /* \"#utility.yul\":213:218   */\n  0x00\n    /* \"#utility.yul\":244:250   */\n  dup2\n    /* \"#utility.yul\":238:251   */\n  mload\n    /* \"#utility.yul\":229:251   */\n  swap1\n  pop\n    /* \"#utility.yul\":260:293   */\n  tag_22\n    /* \"#utility.yul\":287:292   */\n  dup2\n    /* \"#utility.yul\":260:293   */\n  tag_23\n  jump\t// in\ntag_22:\n    /* \"#utility.yul\":219:299   */\n  swap3\n  swap2\n  pop\n  pop\n  jump\t// out\n    /* \"#utility.yul\":305:1215   */\ntag_3:\n    /* \"#utility.yul\":411:417   */\n  0x00\n    /* \"#utility.yul\":419:425   */\n  dup1\n    /* \"#utility.yul\":427:433   */\n  0x00\n    /* \"#utility.yul\":435:441   */\n  dup1\n    /* \"#utility.yul\":443:449   */\n  0x00\n    /* \"#utility.yul\":492:495   */\n  0xa0\n    /* \"#utility.yul\":480:489   */\n  dup7\n    /* \"#utility.yul\":471:478   */\n  dup9\n    /* \"#utility.yul\":467:490   */\n  sub\n    /* \"#utility.yul\":463:496   */\n  slt\n    /* \"#utility.yul\":460:462   */\n  iszero\n  tag_25\n  jumpi\n    /* \"#utility.yul\":509:510   */\n  0x00\n    /* \"#utility.yul\":506:507   */\n  dup1\n    /* \"#utility.yul\":499:511   */\n  revert\n    /* \"#utility.yul\":460:462   */\ntag_25:\n    /* \"#utility.yul\":552:553   */\n  0x00\n    /* \"#utility.yul\":577:641   */\n  tag_26\n    /* \"#utility.yul\":633:640   */\n  dup9\n    /* \"#utility.yul\":624:630   */\n  dup3\n    /* \"#utility.yul\":613:622   */\n  dup10\n    /* \"#utility.yul\":609:631   */\n  add\n    /* \"#utility.yul\":577:641   */\n  tag_16\n  jump\t// in\ntag_26:\n    /* \"#utility.yul\":567:641   */\n  swap6\n  pop\n    /* \"#utility.yul\":523:651   */\n  pop\n    /* \"#utility.yul\":690:692   */\n  0x20\n    /* \"#utility.yul\":716:780   */\n  tag_27\n    /* \"#utility.yul\":772:779   */\n  dup9\n    /* \"#utility.yul\":763:769   */\n  dup3\n    /* \"#utility.yul\":752:761   */\n  dup10\n    /* \"#utility.yul\":748:770   */\n  add\n    /* \"#utility.yul\":716:780   */\n  tag_20\n  jump\t// in\ntag_27:\n    /* \"#utility.yul\":706:780   */\n  swap5\n  pop\n    /* \"#utility.yul\":661:790   */\n  pop\n    /* \"#utility.yul\":829:831   */\n  0x40\n    /* \"#utility.yul\":855:919   */\n  tag_28\n    /* \"#utility.yul\":911:918   */\n  dup9\n    /* \"#utility.yul\":902:908   */\n  dup3\n    /* \"#utility.yul\":891:900   */\n  dup10\n    /* \"#utility.yul\":887:909   */\n  add\n    /* \"#utility.yul\":855:919   */\n  tag_20\n  jump\t// in\ntag_28:\n    /* \"#utility.yul\":845:919   */\n  swap4\n  pop\n    /* \"#utility.yul\":800:929   */\n  pop\n    /* \"#utility.yul\":968:970   */\n  0x60\n    /* \"#utility.yul\":994:1058   */\n  tag_29\n    /* \"#utility.yul\":1050:1057   */\n  dup9\n    /* \"#utility.yul\":1041:1047   */\n  dup3\n    /* \"#utility.yul\":1030:1039   */\n  dup10\n    /* \"#utility.yul\":1026:1048   */\n  add\n    /* \"#utility.yul\":994:1058   */\n  tag_20\n  jump\t// in\ntag_29:\n    /* \"#utility.yul\":984:1058   */\n  swap3\n  pop\n    /* \"#utility.yul\":939:1068   */\n  pop\n    /* \"#utility.yul\":1107:1110   */\n  0x80\n    /* \"#utility.yul\":1134:1198   */\n  tag_30\n    /* \"#utility.yul\":1190:1197   */\n  dup9\n    /* \"#utility.yul\":1181:1187   */\n  dup3\n    /* \"#utility.yul\":1170:1179   */\n  dup10\n    /* \"#utility.yul\":1166:1188   */\n  add\n    /* \"#utility.yul\":1134:1198   */\n  tag_16\n  jump\t// in\ntag_30:\n    /* \"#utility.yul\":1124:1198   */\n  swap2\n  pop\n    /* \"#utility.yul\":1078:1208   */\n  pop\n    /* \"#utility.yul\":450:1215   */\n  swap3\n  swap6\n  pop\n  swap3\n  swap6\n  swap1\n  swap4\n  pop\n  jump\t// out\n    /* \"#utility.yul\":1221:1587   */\ntag_31:\n    /* \"#utility.yul\":1363:1366   */\n  0x00\n    /* \"#utility.yul\":1384:1451   */\n  tag_33\n    /* \"#utility.yul\":1448:1450   */\n  0x1c\n    /* \"#utility.yul\":1443:1446   */\n  dup4\n    /* \"#utility.yul\":1384:1451   */\n  tag_34\n  jump\t// in\ntag_33:\n    /* \"#utility.yul\":1377:1451   */\n  swap2\n  pop\n    /* \"#utility.yul\":1460:1553   */\n  tag_35\n    /* \"#utility.yul\":1549:1552   */\n  dup3\n    /* \"#utility.yul\":1460:1553   */\n  tag_36\n  jump\t// in\ntag_35:\n    /* \"#utility.yul\":1578:1580   */\n  0x20\n    /* \"#utility.yul\":1573:1576   */\n  dup3\n    /* \"#utility.yul\":1569:1581   */\n  add\n    /* \"#utility.yul\":1562:1581   */\n  swap1\n  pop\n    /* \"#utility.yul\":1367:1587   */\n  swap2\n  swap1\n  pop\n  jump\t// out\n    /* \"#utility.yul\":1593:1959   */\ntag_37:\n    /* \"#utility.yul\":1735:1738   */\n  0x00\n    /* \"#utility.yul\":1756:1823   */\n  tag_39\n    /* \"#utility.yul\":1820:1822   */\n  0x21\n    /* \"#utility.yul\":1815:1818   */\n  dup4\n    /* \"#utility.yul\":1756:1823   */\n  tag_34\n  jump\t// in\ntag_39:\n    /* \"#utility.yul\":1749:1823   */\n  swap2\n  pop\n    /* \"#utility.yul\":1832:1925   */\n  tag_40\n    /* \"#utility.yul\":1921:1924   */\n  dup3\n    /* \"#utility.yul\":1832:1925   */\n  tag_41\n  jump\t// in\ntag_40:\n    /* \"#utility.yul\":1950:1952   */\n  0x40\n    /* \"#utility.yul\":1945:1948   */\n  dup3\n    /* \"#utility.yul\":1941:1953   */\n  add\n    /* \"#utility.yul\":1934:1953   */\n  swap1\n  pop\n    /* \"#utility.yul\":1739:1959   */\n  swap2\n  swap1\n  pop\n  jump\t// out\n    /* \"#utility.yul\":1965:2384   */\ntag_8:\n    /* \"#utility.yul\":2131:2135   */\n  0x00\n    /* \"#utility.yul\":2169:2171   */\n  0x20\n    /* \"#utility.yul\":2158:2167   */\n  dup3\n    /* \"#utility.yul\":2154:2172   */\n  add\n    /* \"#utility.yul\":2146:2172   */\n  swap1\n  pop\n    /* \"#utility.yul\":2218:2227   */\n  dup2\n    /* \"#utility.yul\":2212:2216   */\n  dup2\n    /* \"#utility.yul\":2208:2228   */\n  sub\n    /* \"#utility.yul\":2204:2205   */\n  0x00\n    /* \"#utility.yul\":2193:2202   */\n  dup4\n    /* \"#utility.yul\":2189:2206   */\n  add\n    /* \"#utility.yul\":2182:2229   */\n  mstore\n    /* \"#utility.yul\":2246:2377   */\n  tag_43\n    /* \"#utility.yul\":2372:2376   */\n  dup2\n    /* \"#utility.yul\":2246:2377   */\n  tag_31\n  jump\t// in\ntag_43:\n    /* \"#utility.yul\":2238:2377   */\n  swap1\n  pop\n    /* \"#utility.yul\":2136:2384   */\n  swap2\n  swap1\n  pop\n  jump\t// out\n    /* \"#utility.yul\":2390:2809   */\ntag_11:\n    /* \"#utility.yul\":2556:2560   */\n  0x00\n    /* \"#utility.yul\":2594:2596   */\n  0x20\n    /* \"#utility.yul\":2583:2592   */\n  dup3\n    /* \"#utility.yul\":2579:2597   */\n  add\n    /* \"#utility.yul\":2571:2597   */\n  swap1\n  pop\n    /* \"#utility.yul\":2643:2652   */\n  dup2\n    /* \"#utility.yul\":2637:2641   */\n  dup2\n    /* \"#utility.yul\":2633:2653   */\n  sub\n    /* \"#utility.yul\":2629:2630   */\n  0x00\n    /* \"#utility.yul\":2618:2627   */\n  dup4\n    /* \"#utility.yul\":2614:2631   */\n  add\n    /* \"#utility.yul\":2607:2654   */\n  mstore\n    /* \"#utility.yul\":2671:2802   */\n  tag_45\n    /* \"#utility.yul\":2797:2801   */\n  dup2\n    /* \"#utility.yul\":2671:2802   */\n  tag_37\n  jump\t// in\ntag_45:\n    /* \"#utility.yul\":2663:2802   */\n  swap1\n  pop\n    /* \"#utility.yul\":2561:2809   */\n  swap2\n  swap1\n  pop\n  jump\t// out\n    /* \"#utility.yul\":2815:2984   */\ntag_34:\n    /* \"#utility.yul\":2899:2910   */\n  0x00\n    /* \"#utility.yul\":2933:2939   */\n  dup3\n    /* \"#utility.yul\":2928:2931   */\n  dup3\n    /* \"#utility.yul\":2921:2940   */\n  mstore\n    /* \"#utility.yul\":2973:2977   */\n  0x20\n    /* \"#utility.yul\":2968:2971   */\n  dup3\n    /* \"#utility.yul\":2964:2978   */\n  add\n    /* \"#utility.yul\":2949:2978   */\n  swap1\n  pop\n    /* \"#utility.yul\":2911:2984   */\n  swap3\n  swap2\n  pop\n  pop\n  jump\t// out\n    /* \"#utility.yul\":2990:3295   */\ntag_13:\n    /* \"#utility.yul\":3030:3033   */\n  0x00\n    /* \"#utility.yul\":3049:3069   */\n  tag_48\n    /* \"#utility.yul\":3067:3068   */\n  dup3\n    /* \"#utility.yul\":3049:3069   */\n  tag_49\n  jump\t// in\ntag_48:\n    /* \"#utility.yul\":3044:3069   */\n  swap2\n  pop\n    /* \"#utility.yul\":3083:3103   */\n  tag_50\n    /* \"#utility.yul\":3101:3102   */\n  dup4\n    /* \"#utility.yul\":3083:3103   */\n  tag_49\n  jump\t// in\ntag_50:\n    /* \"#utility.yul\":3078:3103   */\n  swap3\n  pop\n    /* \"#utility.yul\":3237:3238   */\n  dup3\n    /* \"#utility.yul\":3169:3235   */\n  0xffffffffffffffffffffffffffffffffffffffffffffffffffffffffffffffff\n    /* \"#utility.yul\":3165:3239   */\n  sub\n    /* \"#utility.yul\":3162:3163   */\n  dup3\n    /* \"#utility.yul\":3159:3240   */\n  gt\n    /* \"#utility.yul\":3156:3158   */\n  iszero\n  tag_51\n  jumpi\n    /* \"#utility.yul\":3243:3261   */\n  tag_52\n  tag_53\n  jump\t// in\ntag_52:\n    /* \"#utility.yul\":3156:3158   */\ntag_51:\n    /* \"#utility.yul\":3287:3288   */\n  dup3\n    /* \"#utility.yul\":3284:3285   */\n  dup3\n    /* \"#utility.yul\":3280:3289   */\n  add\n    /* \"#utility.yul\":3273:3289   */\n  swap1\n  pop\n    /* \"#utility.yul\":3034:3295   */\n  swap3\n  swap2\n  pop\n  pop\n  jump\t// out\n    /* \"#utility.yul\":3301:3397   */\ntag_54:\n    /* \"#utility.yul\":3338:3345   */\n  0x00\n    /* \"#utility.yul\":3367:3391   */\n  tag_56\n    /* \"#utility.yul\":3385:3390   */\n  dup3\n    /* \"#utility.yul\":3367:3391   */\n  tag_57\n  jump\t// in\ntag_56:\n    /* \"#utility.yul\":3356:3391   */\n  swap1\n  pop\n    /* \"#utility.yul\":3346:3397   */\n  swap2\n  swap1\n  pop\n  jump\t// out\n    /* \"#utility.yul\":3403:3529   */\ntag_57:\n    /* \"#utility.yul\":3440:3447   */\n  0x00\n    /* \"#utility.yul\":3480:3522   */\n  0xffffffffffffffffffffffffffffffffffffffff\n    /* \"#utility.yul\":3473:3478   */\n  dup3\n    /* \"#utility.yul\":3469:3523   */\n  and\n    /* \"#utility.yul\":3458:3523   */\n  swap1\n  pop\n    /* \"#utility.yul\":3448:3529   */\n  swap2\n  swap1\n  pop\n  jump\t// out\n    /* \"#utility.yul\":3535:3612   */\ntag_49:\n    /* \"#utility.yul\":3572:3579   */\n  0x00\n    /* \"#utility.yul\":3601:3606   */\n  dup2\n    /* \"#utility.yul\":3590:3606   */\n  swap1\n  pop\n    /* \"#utility.yul\":3580:3612   */\n  swap2\n  swap1\n  pop\n  jump\t// out\n    /* \"#utility.yul\":3618:3798   */\ntag_53:\n    /* \"#utility.yul\":3666:3743   */\n  0x4e487b7100000000000000000000000000000000000000000000000000000000\n    /* \"#utility.yul\":3663:3664   */\n  0x00\n    /* \"#utility.yul\":3656:3744   */\n  mstore\n    /* \"#utility.yul\":3763:3767   */\n  0x11\n    /* \"#utility.yul\":3760:3761   */\n  0x04\n    /* \"#utility.yul\":3753:3768   */\n  mstore\n    /* \"#utility.yul\":3787:3791   */\n  0x24\n    /* \"#utility.yul\":3784:3785   */\n  0x00\n    /* \"#utility.yul\":3777:3792   */\n  revert\n    /* \"#utility.yul\":3804:3982   */\ntag_36:\n    /* \"#utility.yul\":3944:3974   */\n  0x4f776e657220616464726573732063616e6e6f74206265207a65726f00000000\n    /* \"#utility.yul\":3940:3941   */\n  0x00\n    /* \"#utility.yul\":3932:3938   */\n  dup3\n    /* \"#utility.yul\":3928:3942   */\n  add\n    /* \"#utility.yul\":3921:3975   */\n  mstore\n    /* \"#utility.yul\":3910:3982   */\n  pop\n  jump\t// out\n    /* \"#utility.yul\":3988:4208   */\ntag_41:\n    /* \"#utility.yul\":4128:4162   */\n  0x6f696c6572546f6b656e20616464726573732063616e6e6f74206265207a6572\n    /* \"#utility.yul\":4124:4125   */\n  0x00\n    /* \"#utility.yul\":4116:4122   */\n  dup3\n    /* \"#utility.yul\":4112:4126   */\n  add\n    /* \"#utility.yul\":4105:4163   */\n  mstore\n    /* \"#utility.yul\":4197:4200   */\n  0x6f00000000000000000000000000000000000000000000000000000000000000\n    /* \"#utility.yul\":4192:4194   */\n  0x20\n    /* \"#utility.yul\":4184:4190   */\n  dup3\n    /* \"#utility.yul\":4180:4195   */\n  add\n    /* \"#utility.yul\":4173:4201   */\n  mstore\n    /* \"#utility.yul\":4094:4208   */\n  pop\n  jump\t// out\n    /* \"#utility.yul\":4214:4336   */\ntag_19:\n    /* \"#utility.yul\":4287:4311   */\n  tag_64\n    /* \"#utility.yul\":4305:4310   */\n  dup2\n    /* \"#utility.yul\":4287:4311   */\n  tag_54\n  jump\t// in\ntag_64:\n    /* \"#utility.yul\":4280:4285   */\n  dup2\n    /* \"#utility.yul\":4277:4312   */\n  eq\n    /* \"#utility.yul\":4267:4269   */\n  tag_65\n  jumpi\n    /* \"#utility.yul\":4326:4327   */\n  0x00\n    /* \"#utility.yul\":4323:4324   */\n  dup1\n    /* \"#utility.yul\":4316:4328   */\n  revert\n    /* \"#utility.yul\":4267:4269   */\ntag_65:\n    /* \"#utility.yul\":4257:4336   */\n  pop\n  jump\t// out\n    /* \"#utility.yul\":4342:4464   */\ntag_23:\n    /* \"#utility.yul\":4415:4439   */\n  tag_67\n    /* \"#utility.yul\":4433:4438   */\n  dup2\n    /* \"#utility.yul\":4415:4439   */\n  tag_49\n  jump\t// in\ntag_67:\n    /* \"#utility.yul\":4408:4413   */\n  dup2\n    /* \"#utility.yul\":4405:4440   */\n  eq\n    /* \"#utility.yul\":4395:4397   */\n  tag_68\n  jumpi\n    /* \"#utility.yul\":4454:4455   */\n  0x00\n    /* \"#utility.yul\":4451:4452   */\n  dup1\n    /* \"#utility.yul\":4444:4456   */\n  revert\n    /* \"#utility.yul\":4395:4397   */\ntag_68:\n    /* \"#utility.yul\":4385:4464   */\n  pop\n  jump\t// out\n    /* \"gist-bbe3d2eec72b27de020fc2e5b9189a4a/Staking.sol\":2534:17749  contract Staking {... */\ntag_14:\n  mload(0x80)\n  mload(0xa0)\n  shr(0x60, mload(0xc0))\n  mload(0xe0)\n  shr(0x60, mload(0x0100))\n  codecopy(0x00, dataOffset(sub_0), dataSize(sub_0))\n  0x00\n  assignImmutable(\"0xc5bf1d490d2f4e87cc1d5184cd59114bcef0e857ac09f6d840a1caed5b52d973\")\n  0x00\n  assignImmutable(\"0xd772c1d26a64e4114af99655ec353dc3dba1b12ba483c0fc852e01d0432d3aa1\")\n  0x00\n  assignImmutable(\"0xc792330a4f225cb27dfcf04335b51be24e1e574b19d83989f6006ef18804cbcb\")\n  0x00\n  assignImmutable(\"0xd905fec1a56b00009651ce5a01a34d2244da02f516f67ee88b03219738dbf226\")\n  0x00\n  assignImmutable(\"0xe41a685dc3df81383d452481451b89eb3f69781b836c19936fa9714a13d1c9c2\")\n  return(0x00, dataSize(sub_0))\nstop\n\nsub_0: assembly {\n        /* \"gist-bbe3d2eec72b27de020fc2e5b9189a4a/Staking.sol\":2534:17749  contract Staking {... */\n      mstore(0x40, 0x80)\n      callvalue\n      dup1\n      iszero\n      tag_1\n      jumpi\n      0x00\n      dup1\n      revert\n    tag_1:\n      pop\n      jumpi(tag_2, lt(calldatasize, 0x04))\n      shr(0xe0, calldataload(0x00))\n      dup1\n      0x86d1a69f\n      gt\n      tag_20\n      jumpi\n      dup1\n      0xc959360b\n      gt\n      tag_21\n      jumpi\n      dup1\n      0xc959360b\n      eq\n      tag_15\n      jumpi\n      dup1\n      0xcbdf382c\n      eq\n      tag_16\n      jumpi\n      dup1\n      0xe0e4a722\n      eq\n      tag_17\n      jumpi\n      dup1\n      0xf6ffab88\n      eq\n      tag_18\n      jumpi\n      dup1\n      0xf968f493\n      eq\n      tag_19\n      jumpi\n      jump(tag_2)\n    tag_21:\n      dup1\n      0x86d1a69f\n      eq\n      tag_11\n      jumpi\n      dup1\n      0x8da5cb5b\n      eq\n      tag_12\n      jumpi\n      dup1\n      0xbc0925ae\n      eq\n      tag_13\n      jumpi\n      dup1\n      0xc2e8caf6\n      eq\n      tag_14\n      jumpi\n      jump(tag_2)\n    tag_20:\n      dup1\n      0x52946b04\n      gt\n      tag_22\n      jumpi\n      dup1\n      0x52946b04\n      eq\n      tag_7\n      jumpi\n      dup1\n      0x70ff852b\n      eq\n      tag_8\n      jumpi\n      dup1\n      0x798633b9\n      eq\n      tag_9\n      jumpi\n      dup1\n      0x81e9207d\n      eq\n      tag_10\n      jumpi\n      jump(tag_2)\n    tag_22:\n      dup1\n      0x0572b0cc\n      eq\n      tag_3\n      jumpi\n      dup1\n      0x1514617e\n      eq\n      tag_4\n      jumpi\n      dup1\n      0x16934fc4\n      eq\n      tag_5\n      jumpi\n      dup1\n      0x378592c8\n      eq\n      tag_6\n      jumpi\n    tag_2:\n      0x00\n      dup1\n      revert\n        /* \"gist-bbe3d2eec72b27de020fc2e5b9189a4a/Staking.sol\":13743:15142  function getRewards() public {... */\n    tag_3:\n      tag_23\n      tag_24\n      jump\t// in\n    tag_23:\n      stop\n        /* \"gist-bbe3d2eec72b27de020fc2e5b9189a4a/Staking.sol\":5898:5938  uint256 immutable public vestingDuration */\n    tag_4:\n      tag_25\n      tag_26\n      jump\t// in\n    tag_25:\n      mload(0x40)\n      tag_27\n      swap2\n      swap1\n      tag_28\n      jump\t// in\n    tag_27:\n      mload(0x40)\n      dup1\n      swap2\n      sub\n      swap1\n      return\n        /* \"gist-bbe3d2eec72b27de020fc2e5b9189a4a/Staking.sol\":4745:4785  mapping (address => Stake) public stakes */\n    tag_5:\n      tag_29\n      0x04\n      dup1\n      calldatasize\n      sub\n      dup2\n      add\n      swap1\n      tag_30\n      swap2\n      swap1\n      tag_31\n      jump\t// in\n    tag_30:\n      tag_32\n      jump\t// in\n    tag_29:\n      mload(0x40)\n      tag_33\n      swap5\n      swap4\n      swap3\n      swap2\n      swap1\n      tag_34\n      jump\t// in\n    tag_33:\n      mload(0x40)\n      dup1\n      swap2\n      sub\n      swap1\n      return\n        /* \"gist-bbe3d2eec72b27de020fc2e5b9189a4a/Staking.sol\":9920:11579  function lockTokens(uint72 tokenAmount_, uint24 lockingPeriodInBlocks_) public poolTokenSet {... */\n    tag_6:\n      tag_35\n      0x04\n      dup1\n      calldatasize\n      sub\n      dup2\n      add\n      swap1\n      tag_36\n      swap2\n      swap1\n      tag_37\n      jump\t// in\n    tag_36:\n      tag_38\n      jump\t// in\n    tag_35:\n      stop\n        /* \"gist-bbe3d2eec72b27de020fc2e5b9189a4a/Staking.sol\":5301:5343  uint256 immutable public stakingFundAmount */\n    tag_7:\n      tag_39\n      tag_40\n      jump\t// in\n    tag_39:\n      mload(0x40)\n      tag_41\n      swap2\n      swap1\n      tag_28\n      jump\t// in\n    tag_41:\n      mload(0x40)\n      dup1\n      swap2\n      sub\n      swap1\n      return\n        /* \"gist-bbe3d2eec72b27de020fc2e5b9189a4a/Staking.sol\":5786:5836  mapping (address => uint256) public releasedTokens */\n    tag_8:\n      tag_42\n      0x04\n      dup1\n      calldatasize\n      sub\n      dup2\n      add\n      swap1\n      tag_43\n      swap2\n      swap1\n      tag_31\n      jump\t// in\n    tag_43:\n      tag_44\n      jump\t// in\n    tag_42:\n      mload(0x40)\n      tag_45\n      swap2\n      swap1\n      tag_28\n      jump\t// in\n    tag_45:\n      mload(0x40)\n      dup1\n      swap2\n      sub\n      swap1\n      return\n        /* \"gist-bbe3d2eec72b27de020fc2e5b9189a4a/Staking.sol\":8860:9527  function calculateStakingRewardPoints(uint72 tokenAmount_, uint24 lockingPeriodInBlocks_) public pure returns (uint128) {... */\n    tag_9:\n      tag_46\n      0x04\n      dup1\n      calldatasize\n      sub\n      dup2\n      add\n      swap1\n      tag_47\n      swap2\n      swap1\n      tag_37\n      jump\t// in\n    tag_47:\n      tag_48\n      jump\t// in\n    tag_46:\n      mload(0x40)\n      tag_49\n      swap2\n      swap1\n      tag_50\n      jump\t// in\n    tag_49:\n      mload(0x40)\n      dup1\n      swap2\n      sub\n      swap1\n      return\n        /* \"gist-bbe3d2eec72b27de020fc2e5b9189a4a/Staking.sol\":5501:5535  IERC20 immutable public oilerToken */\n    tag_10:\n      tag_51\n      tag_52\n      jump\t// in\n    tag_51:\n      mload(0x40)\n      tag_53\n      swap2\n      swap1\n      tag_54\n      jump\t// in\n    tag_53:\n      mload(0x40)\n      dup1\n      swap2\n      sub\n      swap1\n      return\n        /* \"gist-bbe3d2eec72b27de020fc2e5b9189a4a/Staking.sol\":15863:16234  function release() public {... */\n    tag_11:\n      tag_55\n      tag_56\n      jump\t// in\n    tag_55:\n      stop\n        /* \"gist-bbe3d2eec72b27de020fc2e5b9189a4a/Staking.sol\":6165:6195  address immutable public owner */\n    tag_12:\n      tag_57\n      tag_58\n      jump\t// in\n    tag_57:\n      mload(0x40)\n      tag_59\n      swap2\n      swap1\n      tag_60\n      jump\t// in\n    tag_59:\n      mload(0x40)\n      dup1\n      swap2\n      sub\n      swap1\n      return\n        /* \"gist-bbe3d2eec72b27de020fc2e5b9189a4a/Staking.sol\":5120:5168  uint256 immutable public stakingProgramEndsBlock */\n    tag_13:\n      tag_61\n      tag_62\n      jump\t// in\n    tag_61:\n      mload(0x40)\n      tag_63\n      swap2\n      swap1\n      tag_28\n      jump\t// in\n    tag_63:\n      mload(0x40)\n      dup1\n      swap2\n      sub\n      swap1\n      return\n        /* \"gist-bbe3d2eec72b27de020fc2e5b9189a4a/Staking.sol\":5024:5056  uint256 public totalRewardPoints */\n    tag_14:\n      tag_64\n      tag_65\n      jump\t// in\n    tag_64:\n      mload(0x40)\n      tag_66\n      swap2\n      swap1\n      tag_28\n      jump\t// in\n    tag_66:\n      mload(0x40)\n      dup1\n      swap2\n      sub\n      swap1\n      return\n        /* \"gist-bbe3d2eec72b27de020fc2e5b9189a4a/Staking.sol\":4904:4958  mapping (address => uint256) public rewardPointsEarned */\n    tag_15:\n      tag_67\n      0x04\n      dup1\n      calldatasize\n      sub\n      dup2\n      add\n      swap1\n      tag_68\n      swap2\n      swap1\n      tag_31\n      jump\t// in\n    tag_68:\n      tag_69\n      jump\t// in\n    tag_67:\n      mload(0x40)\n      tag_70\n      swap2\n      swap1\n      tag_28\n      jump\t// in\n    tag_70:\n      mload(0x40)\n      dup1\n      swap2\n      sub\n      swap1\n      return\n        /* \"gist-bbe3d2eec72b27de020fc2e5b9189a4a/Staking.sol\":5413:5436  IERC20 public poolToken */\n    tag_16:\n      tag_71\n      tag_72\n      jump\t// in\n    tag_71:\n      mload(0x40)\n      tag_73\n      swap2\n      swap1\n      tag_54\n      jump\t// in\n    tag_73:\n      mload(0x40)\n      dup1\n      swap2\n      sub\n      swap1\n      return\n        /* \"gist-bbe3d2eec72b27de020fc2e5b9189a4a/Staking.sol\":5641:5690  mapping (address => uint256) public grantedTokens */\n    tag_17:\n      tag_74\n      0x04\n      dup1\n      calldatasize\n      sub\n      dup2\n      add\n      swap1\n      tag_75\n      swap2\n      swap1\n      tag_31\n      jump\t// in\n    tag_75:\n      tag_76\n      jump\t// in\n    tag_74:\n      mload(0x40)\n      tag_77\n      swap2\n      swap1\n      tag_28\n      jump\t// in\n    tag_77:\n      mload(0x40)\n      dup1\n      swap2\n      sub\n      swap1\n      return\n        /* \"gist-bbe3d2eec72b27de020fc2e5b9189a4a/Staking.sol\":7675:8483  function setPoolToken(address poolToken_, address stakingFundAddress_) public onlyOwner {... */\n    tag_18:\n      tag_78\n      0x04\n      dup1\n      calldatasize\n      sub\n      dup2\n      add\n      swap1\n      tag_79\n      swap2\n      swap1\n      tag_80\n      jump\t// in\n    tag_79:\n      tag_81\n      jump\t// in\n    tag_78:\n      stop\n        /* \"gist-bbe3d2eec72b27de020fc2e5b9189a4a/Staking.sol\":11737:12431  function unlockTokens() public poolTokenSet {... */\n    tag_19:\n      tag_82\n      tag_83\n      jump\t// in\n    tag_82:\n      stop\n        /* \"gist-bbe3d2eec72b27de020fc2e5b9189a4a/Staking.sol\":13743:15142  function getRewards() public {... */\n    tag_24:\n        /* \"gist-bbe3d2eec72b27de020fc2e5b9189a4a/Staking.sol\":13805:13828  stakingProgramEndsBlock */\n      immutable(\"0xe41a685dc3df81383d452481451b89eb3f69781b836c19936fa9714a13d1c9c2\")\n        /* \"gist-bbe3d2eec72b27de020fc2e5b9189a4a/Staking.sol\":13790:13802  block.number */\n      number\n        /* \"gist-bbe3d2eec72b27de020fc2e5b9189a4a/Staking.sol\":13790:13828  block.number > stakingProgramEndsBlock */\n      gt\n        /* \"gist-bbe3d2eec72b27de020fc2e5b9189a4a/Staking.sol\":13782:13884  require(block.number > stakingProgramEndsBlock, \"You can only get Rewards after Staking Program ends\") */\n      tag_85\n      jumpi\n      mload(0x40)\n      0x08c379a000000000000000000000000000000000000000000000000000000000\n      dup2\n      mstore\n      0x04\n      add\n      tag_86\n      swap1\n      tag_87\n      jump\t// in\n    tag_86:\n      mload(0x40)\n      dup1\n      swap2\n      sub\n      swap1\n      revert\n    tag_85:\n        /* \"gist-bbe3d2eec72b27de020fc2e5b9189a4a/Staking.sol\":13936:13937  0 */\n      0x00\n        /* \"gist-bbe3d2eec72b27de020fc2e5b9189a4a/Staking.sol\":13902:13908  stakes */\n      dup1\n        /* \"gist-bbe3d2eec72b27de020fc2e5b9189a4a/Staking.sol\":13902:13920  stakes[msg.sender] */\n      0x00\n        /* \"gist-bbe3d2eec72b27de020fc2e5b9189a4a/Staking.sol\":13909:13919  msg.sender */\n      caller\n        /* \"gist-bbe3d2eec72b27de020fc2e5b9189a4a/Staking.sol\":13902:13920  stakes[msg.sender] */\n      0xffffffffffffffffffffffffffffffffffffffff\n      and\n      0xffffffffffffffffffffffffffffffffffffffff\n      and\n      dup2\n      mstore\n      0x20\n      add\n      swap1\n      dup2\n      mstore\n      0x20\n      add\n      0x00\n      keccak256\n        /* \"gist-bbe3d2eec72b27de020fc2e5b9189a4a/Staking.sol\":13902:13932  stakes[msg.sender].tokenAmount */\n      0x00\n      add\n      0x00\n      swap1\n      sload\n      swap1\n      0x0100\n      exp\n      swap1\n      div\n      0xffffffffffffffffff\n      and\n        /* \"gist-bbe3d2eec72b27de020fc2e5b9189a4a/Staking.sol\":13902:13937  stakes[msg.sender].tokenAmount == 0 */\n      0xffffffffffffffffff\n      and\n      eq\n        /* \"gist-bbe3d2eec72b27de020fc2e5b9189a4a/Staking.sol\":13894:14022  require(stakes[msg.sender].tokenAmount == 0, \"You still have a stake locked - please unlock first, don't leave free money here\") */\n      tag_88\n      jumpi\n      mload(0x40)\n      0x08c379a000000000000000000000000000000000000000000000000000000000\n      dup2\n      mstore\n      0x04\n      add\n      tag_89\n      swap1\n      tag_90\n      jump\t// in\n    tag_89:\n      mload(0x40)\n      dup1\n      swap2\n      sub\n      swap1\n      revert\n    tag_88:\n        /* \"gist-bbe3d2eec72b27de020fc2e5b9189a4a/Staking.sol\":14073:14074  0 */\n      0x00\n        /* \"gist-bbe3d2eec72b27de020fc2e5b9189a4a/Staking.sol\":14040:14058  rewardPointsEarned */\n      0x01\n        /* \"gist-bbe3d2eec72b27de020fc2e5b9189a4a/Staking.sol\":14040:14070  rewardPointsEarned[msg.sender] */\n      0x00\n        /* \"gist-bbe3d2eec72b27de020fc2e5b9189a4a/Staking.sol\":14059:14069  msg.sender */\n      caller\n        /* \"gist-bbe3d2eec72b27de020fc2e5b9189a4a/Staking.sol\":14040:14070  rewardPointsEarned[msg.sender] */\n      0xffffffffffffffffffffffffffffffffffffffff\n      and\n      0xffffffffffffffffffffffffffffffffffffffff\n      and\n      dup2\n      mstore\n      0x20\n      add\n      swap1\n      dup2\n      mstore\n      0x20\n      add\n      0x00\n      keccak256\n      sload\n        /* \"gist-bbe3d2eec72b27de020fc2e5b9189a4a/Staking.sol\":14040:14074  rewardPointsEarned[msg.sender] > 0 */\n      gt\n        /* \"gist-bbe3d2eec72b27de020fc2e5b9189a4a/Staking.sol\":14032:14110  require(rewardPointsEarned[msg.sender] > 0, \"You don't have any rewardPoints\") */\n      tag_91\n      jumpi\n      mload(0x40)\n      0x08c379a000000000000000000000000000000000000000000000000000000000\n      dup2\n      mstore\n      0x04\n      add\n      tag_92\n      swap1\n      tag_93\n      jump\t// in\n    tag_92:\n      mload(0x40)\n      dup1\n      swap2\n      sub\n      swap1\n      revert\n    tag_91:\n        /* \"gist-bbe3d2eec72b27de020fc2e5b9189a4a/Staking.sol\":14786:14806  uint256 amountEarned */\n      0x00\n        /* \"gist-bbe3d2eec72b27de020fc2e5b9189a4a/Staking.sol\":14862:14879  totalRewardPoints */\n      sload(0x02)\n        /* \"gist-bbe3d2eec72b27de020fc2e5b9189a4a/Staking.sol\":14829:14847  rewardPointsEarned */\n      0x01\n        /* \"gist-bbe3d2eec72b27de020fc2e5b9189a4a/Staking.sol\":14829:14859  rewardPointsEarned[msg.sender] */\n      0x00\n        /* \"gist-bbe3d2eec72b27de020fc2e5b9189a4a/Staking.sol\":14848:14858  msg.sender */\n      caller\n        /* \"gist-bbe3d2eec72b27de020fc2e5b9189a4a/Staking.sol\":14829:14859  rewardPointsEarned[msg.sender] */\n      0xffffffffffffffffffffffffffffffffffffffff\n      and\n      0xffffffffffffffffffffffffffffffffffffffff\n      and\n      dup2\n      mstore\n      0x20\n      add\n      swap1\n      dup2\n      mstore\n      0x20\n      add\n      0x00\n      keccak256\n      sload\n        /* \"gist-bbe3d2eec72b27de020fc2e5b9189a4a/Staking.sol\":14809:14826  stakingFundAmount */\n      immutable(\"0xd905fec1a56b00009651ce5a01a34d2244da02f516f67ee88b03219738dbf226\")\n        /* \"gist-bbe3d2eec72b27de020fc2e5b9189a4a/Staking.sol\":14809:14859  stakingFundAmount * rewardPointsEarned[msg.sender] */\n      tag_94\n      swap2\n      swap1\n      tag_95\n      jump\t// in\n    tag_94:\n        /* \"gist-bbe3d2eec72b27de020fc2e5b9189a4a/Staking.sol\":14809:14879  stakingFundAmount * rewardPointsEarned[msg.sender] / totalRewardPoints */\n      tag_96\n      swap2\n      swap1\n      tag_97\n      jump\t// in\n    tag_96:\n        /* \"gist-bbe3d2eec72b27de020fc2e5b9189a4a/Staking.sol\":14786:14879  uint256 amountEarned = stakingFundAmount * rewardPointsEarned[msg.sender] / totalRewardPoints */\n      swap1\n      pop\n        /* \"gist-bbe3d2eec72b27de020fc2e5b9189a4a/Staking.sol\":14922:14923  0 */\n      0x00\n        /* \"gist-bbe3d2eec72b27de020fc2e5b9189a4a/Staking.sol\":14889:14907  rewardPointsEarned */\n      0x01\n        /* \"gist-bbe3d2eec72b27de020fc2e5b9189a4a/Staking.sol\":14889:14919  rewardPointsEarned[msg.sender] */\n      0x00\n        /* \"gist-bbe3d2eec72b27de020fc2e5b9189a4a/Staking.sol\":14908:14918  msg.sender */\n      caller\n        /* \"gist-bbe3d2eec72b27de020fc2e5b9189a4a/Staking.sol\":14889:14919  rewardPointsEarned[msg.sender] */\n      0xffffffffffffffffffffffffffffffffffffffff\n      and\n      0xffffffffffffffffffffffffffffffffffffffff\n      and\n      dup2\n      mstore\n      0x20\n      add\n      swap1\n      dup2\n      mstore\n      0x20\n      add\n      0x00\n      keccak256\n        /* \"gist-bbe3d2eec72b27de020fc2e5b9189a4a/Staking.sol\":14889:14923  rewardPointsEarned[msg.sender] = 0 */\n      dup2\n      swap1\n      sstore\n      pop\n        /* \"gist-bbe3d2eec72b27de020fc2e5b9189a4a/Staking.sol\":15017:15055  _grantTokens(msg.sender, amountEarned) */\n      tag_98\n        /* \"gist-bbe3d2eec72b27de020fc2e5b9189a4a/Staking.sol\":15030:15040  msg.sender */\n      caller\n        /* \"gist-bbe3d2eec72b27de020fc2e5b9189a4a/Staking.sol\":15042:15054  amountEarned */\n      dup3\n        /* \"gist-bbe3d2eec72b27de020fc2e5b9189a4a/Staking.sol\":15017:15029  _grantTokens */\n      tag_99\n        /* \"gist-bbe3d2eec72b27de020fc2e5b9189a4a/Staking.sol\":15017:15055  _grantTokens(msg.sender, amountEarned) */\n      jump\t// in\n    tag_98:\n        /* \"gist-bbe3d2eec72b27de020fc2e5b9189a4a/Staking.sol\":13743:15142  function getRewards() public {... */\n      pop\n      jump\t// out\n        /* \"gist-bbe3d2eec72b27de020fc2e5b9189a4a/Staking.sol\":5898:5938  uint256 immutable public vestingDuration */\n    tag_26:\n      immutable(\"0xd772c1d26a64e4114af99655ec353dc3dba1b12ba483c0fc852e01d0432d3aa1\")\n      dup2\n      jump\t// out\n        /* \"gist-bbe3d2eec72b27de020fc2e5b9189a4a/Staking.sol\":4745:4785  mapping (address => Stake) public stakes */\n    tag_32:\n      mstore(0x20, 0x00)\n      dup1\n      0x00\n      mstore\n      keccak256(0x00, 0x40)\n      0x00\n      swap2\n      pop\n      swap1\n      pop\n      dup1\n      0x00\n      add\n      0x00\n      swap1\n      sload\n      swap1\n      0x0100\n      exp\n      swap1\n      div\n      0xffffffffffffffffff\n      and\n      swap1\n      dup1\n      0x00\n      add\n      0x09\n      swap1\n      sload\n      swap1\n      0x0100\n      exp\n      swap1\n      div\n      0xffffff\n      and\n      swap1\n      dup1\n      0x00\n      add\n      0x0c\n      swap1\n      sload\n      swap1\n      0x0100\n      exp\n      swap1\n      div\n      0xffffffff\n      and\n      swap1\n      dup1\n      0x00\n      add\n      0x10\n      swap1\n      sload\n      swap1\n      0x0100\n      exp\n      swap1\n      div\n      0xffffffffffffffffffffffffffffffff\n      and\n      swap1\n      pop\n      dup5\n      jump\t// out\n        /* \"gist-bbe3d2eec72b27de020fc2e5b9189a4a/Staking.sol\":9920:11579  function lockTokens(uint72 tokenAmount_, uint24 lockingPeriodInBlocks_) public poolTokenSet {... */\n    tag_38:\n        /* \"gist-bbe3d2eec72b27de020fc2e5b9189a4a/Staking.sol\":6065:6068  0x0 */\n      0x00\n        /* \"gist-bbe3d2eec72b27de020fc2e5b9189a4a/Staking.sol\":6035:6069  address(poolToken) != address(0x0) */\n      0xffffffffffffffffffffffffffffffffffffffff\n      and\n        /* \"gist-bbe3d2eec72b27de020fc2e5b9189a4a/Staking.sol\":6043:6052  poolToken */\n      0x03\n      0x00\n      swap1\n      sload\n      swap1\n      0x0100\n      exp\n      swap1\n      div\n      0xffffffffffffffffffffffffffffffffffffffff\n      and\n        /* \"gist-bbe3d2eec72b27de020fc2e5b9189a4a/Staking.sol\":6035:6069  address(poolToken) != address(0x0) */\n      0xffffffffffffffffffffffffffffffffffffffff\n      and\n      eq\n      iszero\n        /* \"gist-bbe3d2eec72b27de020fc2e5b9189a4a/Staking.sol\":6027:6091  require(address(poolToken) != address(0x0), \"poolToken not set\") */\n      tag_101\n      jumpi\n      mload(0x40)\n      0x08c379a000000000000000000000000000000000000000000000000000000000\n      dup2\n      mstore\n      0x04\n      add\n      tag_102\n      swap1\n      tag_103\n      jump\t// in\n    tag_102:\n      mload(0x40)\n      dup1\n      swap2\n      sub\n      swap1\n      revert\n    tag_101:\n        /* \"gist-bbe3d2eec72b27de020fc2e5b9189a4a/Staking.sol\":10212:10234  lockingPeriodInBlocks_ */\n      dup1\n        /* \"gist-bbe3d2eec72b27de020fc2e5b9189a4a/Staking.sol\":10186:10234  stakingProgramEndsBlock - lockingPeriodInBlocks_ */\n      0xffffff\n      and\n        /* \"gist-bbe3d2eec72b27de020fc2e5b9189a4a/Staking.sol\":10186:10209  stakingProgramEndsBlock */\n      immutable(\"0xe41a685dc3df81383d452481451b89eb3f69781b836c19936fa9714a13d1c9c2\")\n        /* \"gist-bbe3d2eec72b27de020fc2e5b9189a4a/Staking.sol\":10186:10234  stakingProgramEndsBlock - lockingPeriodInBlocks_ */\n      tag_105\n      swap2\n      swap1\n      tag_106\n      jump\t// in\n    tag_105:\n        /* \"gist-bbe3d2eec72b27de020fc2e5b9189a4a/Staking.sol\":10170:10182  block.number */\n      number\n        /* \"gist-bbe3d2eec72b27de020fc2e5b9189a4a/Staking.sol\":10170:10234  block.number <= stakingProgramEndsBlock - lockingPeriodInBlocks_ */\n      gt\n      iszero\n        /* \"gist-bbe3d2eec72b27de020fc2e5b9189a4a/Staking.sol\":10162:10288  require(block.number <= stakingProgramEndsBlock - lockingPeriodInBlocks_, \"Your lock period exceeds Staking Program duration\") */\n      tag_107\n      jumpi\n      mload(0x40)\n      0x08c379a000000000000000000000000000000000000000000000000000000000\n      dup2\n      mstore\n      0x04\n      add\n      tag_108\n      swap1\n      tag_109\n      jump\t// in\n    tag_108:\n      mload(0x40)\n      dup1\n      swap2\n      sub\n      swap1\n      revert\n    tag_107:\n        /* \"gist-bbe3d2eec72b27de020fc2e5b9189a4a/Staking.sol\":10340:10341  0 */\n      0x00\n        /* \"gist-bbe3d2eec72b27de020fc2e5b9189a4a/Staking.sol\":10306:10312  stakes */\n      dup1\n        /* \"gist-bbe3d2eec72b27de020fc2e5b9189a4a/Staking.sol\":10306:10324  stakes[msg.sender] */\n      0x00\n        /* \"gist-bbe3d2eec72b27de020fc2e5b9189a4a/Staking.sol\":10313:10323  msg.sender */\n      caller\n        /* \"gist-bbe3d2eec72b27de020fc2e5b9189a4a/Staking.sol\":10306:10324  stakes[msg.sender] */\n      0xffffffffffffffffffffffffffffffffffffffff\n      and\n      0xffffffffffffffffffffffffffffffffffffffff\n      and\n      dup2\n      mstore\n      0x20\n      add\n      swap1\n      dup2\n      mstore\n      0x20\n      add\n      0x00\n      keccak256\n        /* \"gist-bbe3d2eec72b27de020fc2e5b9189a4a/Staking.sol\":10306:10336  stakes[msg.sender].tokenAmount */\n      0x00\n      add\n      0x00\n      swap1\n      sload\n      swap1\n      0x0100\n      exp\n      swap1\n      div\n      0xffffffffffffffffff\n      and\n        /* \"gist-bbe3d2eec72b27de020fc2e5b9189a4a/Staking.sol\":10306:10341  stakes[msg.sender].tokenAmount == 0 */\n      0xffffffffffffffffff\n      and\n      eq\n        /* \"gist-bbe3d2eec72b27de020fc2e5b9189a4a/Staking.sol\":10298:10361  require(stakes[msg.sender].tokenAmount == 0, \"Already staking\") */\n      tag_110\n      jumpi\n      mload(0x40)\n      0x08c379a000000000000000000000000000000000000000000000000000000000\n      dup2\n      mstore\n      0x04\n      add\n      tag_111\n      swap1\n      tag_112\n      jump\t// in\n    tag_111:\n      mload(0x40)\n      dup1\n      swap2\n      sub\n      swap1\n      revert\n    tag_110:\n        /* \"gist-bbe3d2eec72b27de020fc2e5b9189a4a/Staking.sol\":10492:10527  uint128 expectedStakingRewardPoints */\n      0x00\n        /* \"gist-bbe3d2eec72b27de020fc2e5b9189a4a/Staking.sol\":10530:10596  calculateStakingRewardPoints(tokenAmount_, lockingPeriodInBlocks_) */\n      tag_113\n        /* \"gist-bbe3d2eec72b27de020fc2e5b9189a4a/Staking.sol\":10559:10571  tokenAmount_ */\n      dup4\n        /* \"gist-bbe3d2eec72b27de020fc2e5b9189a4a/Staking.sol\":10573:10595  lockingPeriodInBlocks_ */\n      dup4\n        /* \"gist-bbe3d2eec72b27de020fc2e5b9189a4a/Staking.sol\":10530:10558  calculateStakingRewardPoints */\n      tag_48\n        /* \"gist-bbe3d2eec72b27de020fc2e5b9189a4a/Staking.sol\":10530:10596  calculateStakingRewardPoints(tokenAmount_, lockingPeriodInBlocks_) */\n      jump\t// in\n    tag_113:\n        /* \"gist-bbe3d2eec72b27de020fc2e5b9189a4a/Staking.sol\":10492:10596  uint128 expectedStakingRewardPoints = calculateStakingRewardPoints(tokenAmount_, lockingPeriodInBlocks_) */\n      swap1\n      pop\n        /* \"gist-bbe3d2eec72b27de020fc2e5b9189a4a/Staking.sol\":10607:10625  Stake memory stake */\n      0x00\n        /* \"gist-bbe3d2eec72b27de020fc2e5b9189a4a/Staking.sol\":10628:10722  Stake(tokenAmount_, lockingPeriodInBlocks_, uint32(block.number), expectedStakingRewardPoints) */\n      mload(0x40)\n      dup1\n      0x80\n      add\n      0x40\n      mstore\n      dup1\n        /* \"gist-bbe3d2eec72b27de020fc2e5b9189a4a/Staking.sol\":10634:10646  tokenAmount_ */\n      dup6\n        /* \"gist-bbe3d2eec72b27de020fc2e5b9189a4a/Staking.sol\":10628:10722  Stake(tokenAmount_, lockingPeriodInBlocks_, uint32(block.number), expectedStakingRewardPoints) */\n      0xffffffffffffffffff\n      and\n      dup2\n      mstore\n      0x20\n      add\n        /* \"gist-bbe3d2eec72b27de020fc2e5b9189a4a/Staking.sol\":10648:10670  lockingPeriodInBlocks_ */\n      dup5\n        /* \"gist-bbe3d2eec72b27de020fc2e5b9189a4a/Staking.sol\":10628:10722  Stake(tokenAmount_, lockingPeriodInBlocks_, uint32(block.number), expectedStakingRewardPoints) */\n      0xffffff\n      and\n      dup2\n      mstore\n      0x20\n      add\n        /* \"gist-bbe3d2eec72b27de020fc2e5b9189a4a/Staking.sol\":10679:10691  block.number */\n      number\n        /* \"gist-bbe3d2eec72b27de020fc2e5b9189a4a/Staking.sol\":10628:10722  Stake(tokenAmount_, lockingPeriodInBlocks_, uint32(block.number), expectedStakingRewardPoints) */\n      0xffffffff\n      and\n      dup2\n      mstore\n      0x20\n      add\n        /* \"gist-bbe3d2eec72b27de020fc2e5b9189a4a/Staking.sol\":10694:10721  expectedStakingRewardPoints */\n      dup4\n        /* \"gist-bbe3d2eec72b27de020fc2e5b9189a4a/Staking.sol\":10628:10722  Stake(tokenAmount_, lockingPeriodInBlocks_, uint32(block.number), expectedStakingRewardPoints) */\n      0xffffffffffffffffffffffffffffffff\n      and\n      dup2\n      mstore\n      pop\n        /* \"gist-bbe3d2eec72b27de020fc2e5b9189a4a/Staking.sol\":10607:10722  Stake memory stake = Stake(tokenAmount_, lockingPeriodInBlocks_, uint32(block.number), expectedStakingRewardPoints) */\n      swap1\n      pop\n        /* \"gist-bbe3d2eec72b27de020fc2e5b9189a4a/Staking.sol\":10753:10758  stake */\n      dup1\n        /* \"gist-bbe3d2eec72b27de020fc2e5b9189a4a/Staking.sol\":10732:10738  stakes */\n      0x00\n        /* \"gist-bbe3d2eec72b27de020fc2e5b9189a4a/Staking.sol\":10732:10750  stakes[msg.sender] */\n      dup1\n        /* \"gist-bbe3d2eec72b27de020fc2e5b9189a4a/Staking.sol\":10739:10749  msg.sender */\n      caller\n        /* \"gist-bbe3d2eec72b27de020fc2e5b9189a4a/Staking.sol\":10732:10750  stakes[msg.sender] */\n      0xffffffffffffffffffffffffffffffffffffffff\n      and\n      0xffffffffffffffffffffffffffffffffffffffff\n      and\n      dup2\n      mstore\n      0x20\n      add\n      swap1\n      dup2\n      mstore\n      0x20\n      add\n      0x00\n      keccak256\n        /* \"gist-bbe3d2eec72b27de020fc2e5b9189a4a/Staking.sol\":10732:10758  stakes[msg.sender] = stake */\n      0x00\n      dup3\n      add\n      mload\n      dup2\n      0x00\n      add\n      exp(0x0100, 0x00)\n      dup2\n      sload\n      dup2\n      0xffffffffffffffffff\n      mul\n      not\n      and\n      swap1\n      dup4\n      0xffffffffffffffffff\n      and\n      mul\n      or\n      swap1\n      sstore\n      pop\n      0x20\n      dup3\n      add\n      mload\n      dup2\n      0x00\n      add\n      exp(0x0100, 0x09)\n      dup2\n      sload\n      dup2\n      0xffffff\n      mul\n      not\n      and\n      swap1\n      dup4\n      0xffffff\n      and\n      mul\n      or\n      swap1\n      sstore\n      pop\n      0x40\n      dup3\n      add\n      mload\n      dup2\n      0x00\n      add\n      exp(0x0100, 0x0c)\n      dup2\n      sload\n      dup2\n      0xffffffff\n      mul\n      not\n      and\n      swap1\n      dup4\n      0xffffffff\n      and\n      mul\n      or\n      swap1\n      sstore\n      pop\n      0x60\n      dup3\n      add\n      mload\n      dup2\n      0x00\n      add\n      exp(0x0100, 0x10)\n      dup2\n      sload\n      dup2\n      0xffffffffffffffffffffffffffffffff\n      mul\n      not\n      and\n      swap1\n      dup4\n      0xffffffffffffffffffffffffffffffff\n      and\n      mul\n      or\n      swap1\n      sstore\n      pop\n      swap1\n      pop\n      pop\n        /* \"gist-bbe3d2eec72b27de020fc2e5b9189a4a/Staking.sol\":11039:11066  expectedStakingRewardPoints */\n      dup2\n        /* \"gist-bbe3d2eec72b27de020fc2e5b9189a4a/Staking.sol\":11018:11066  totalRewardPoints += expectedStakingRewardPoints */\n      0xffffffffffffffffffffffffffffffff\n      and\n        /* \"gist-bbe3d2eec72b27de020fc2e5b9189a4a/Staking.sol\":11018:11035  totalRewardPoints */\n      0x02\n      0x00\n        /* \"gist-bbe3d2eec72b27de020fc2e5b9189a4a/Staking.sol\":11018:11066  totalRewardPoints += expectedStakingRewardPoints */\n      dup3\n      dup3\n      sload\n      tag_114\n      swap2\n      swap1\n      tag_115\n      jump\t// in\n    tag_114:\n      swap3\n      pop\n      pop\n      dup2\n      swap1\n      sstore\n      pop\n        /* \"gist-bbe3d2eec72b27de020fc2e5b9189a4a/Staking.sol\":11110:11137  expectedStakingRewardPoints */\n      dup2\n        /* \"gist-bbe3d2eec72b27de020fc2e5b9189a4a/Staking.sol\":11076:11137  rewardPointsEarned[msg.sender] += expectedStakingRewardPoints */\n      0xffffffffffffffffffffffffffffffff\n      and\n        /* \"gist-bbe3d2eec72b27de020fc2e5b9189a4a/Staking.sol\":11076:11094  rewardPointsEarned */\n      0x01\n        /* \"gist-bbe3d2eec72b27de020fc2e5b9189a4a/Staking.sol\":11076:11106  rewardPointsEarned[msg.sender] */\n      0x00\n        /* \"gist-bbe3d2eec72b27de020fc2e5b9189a4a/Staking.sol\":11095:11105  msg.sender */\n      caller\n        /* \"gist-bbe3d2eec72b27de020fc2e5b9189a4a/Staking.sol\":11076:11106  rewardPointsEarned[msg.sender] */\n      0xffffffffffffffffffffffffffffffffffffffff\n      and\n      0xffffffffffffffffffffffffffffffffffffffff\n      and\n      dup2\n      mstore\n      0x20\n      add\n      swap1\n      dup2\n      mstore\n      0x20\n      add\n      0x00\n      keccak256\n      0x00\n        /* \"gist-bbe3d2eec72b27de020fc2e5b9189a4a/Staking.sol\":11076:11137  rewardPointsEarned[msg.sender] += expectedStakingRewardPoints */\n      dup3\n      dup3\n      sload\n      tag_116\n      swap2\n      swap1\n      tag_115\n      jump\t// in\n    tag_116:\n      swap3\n      pop\n      pop\n      dup2\n      swap1\n      sstore\n      pop\n        /* \"gist-bbe3d2eec72b27de020fc2e5b9189a4a/Staking.sol\":11365:11374  poolToken */\n      0x03\n      0x00\n      swap1\n      sload\n      swap1\n      0x0100\n      exp\n      swap1\n      div\n      0xffffffffffffffffffffffffffffffffffffffff\n      and\n        /* \"gist-bbe3d2eec72b27de020fc2e5b9189a4a/Staking.sol\":11365:11387  poolToken.transferFrom */\n      0xffffffffffffffffffffffffffffffffffffffff\n      and\n      0x23b872dd\n        /* \"gist-bbe3d2eec72b27de020fc2e5b9189a4a/Staking.sol\":11388:11398  msg.sender */\n      caller\n        /* \"gist-bbe3d2eec72b27de020fc2e5b9189a4a/Staking.sol\":11408:11412  this */\n      address\n        /* \"gist-bbe3d2eec72b27de020fc2e5b9189a4a/Staking.sol\":11415:11427  tokenAmount_ */\n      dup8\n        /* \"gist-bbe3d2eec72b27de020fc2e5b9189a4a/Staking.sol\":11365:11428  poolToken.transferFrom(msg.sender, address(this), tokenAmount_) */\n      mload(0x40)\n      dup5\n      0xffffffff\n      and\n      0xe0\n      shl\n      dup2\n      mstore\n      0x04\n      add\n      tag_117\n      swap4\n      swap3\n      swap2\n      swap1\n      tag_118\n      jump\t// in\n    tag_117:\n      0x20\n      mload(0x40)\n      dup1\n      dup4\n      sub\n      dup2\n      0x00\n      dup8\n      dup1\n      extcodesize\n      iszero\n      dup1\n      iszero\n      tag_119\n      jumpi\n      0x00\n      dup1\n      revert\n    tag_119:\n      pop\n      gas\n      call\n      iszero\n      dup1\n      iszero\n      tag_121\n      jumpi\n      returndatasize\n      0x00\n      dup1\n      returndatacopy\n      revert(0x00, returndatasize)\n    tag_121:\n      pop\n      pop\n      pop\n      pop\n      mload(0x40)\n      returndatasize\n      not(0x1f)\n      0x1f\n      dup3\n      add\n      and\n      dup3\n      add\n      dup1\n      0x40\n      mstore\n      pop\n      dup2\n      add\n      swap1\n      tag_122\n      swap2\n      swap1\n      tag_123\n      jump\t// in\n    tag_122:\n        /* \"gist-bbe3d2eec72b27de020fc2e5b9189a4a/Staking.sol\":11357:11466  require(poolToken.transferFrom(msg.sender, address(this), tokenAmount_), \"TransferFrom of poolTokens failed\") */\n      tag_124\n      jumpi\n      mload(0x40)\n      0x08c379a000000000000000000000000000000000000000000000000000000000\n      dup2\n      mstore\n      0x04\n      add\n      tag_125\n      swap1\n      tag_126\n      jump\t// in\n    tag_125:\n      mload(0x40)\n      dup1\n      swap2\n      sub\n      swap1\n      revert\n    tag_124:\n        /* \"gist-bbe3d2eec72b27de020fc2e5b9189a4a/Staking.sol\":11482:11572  StakeLocked(msg.sender, tokenAmount_, lockingPeriodInBlocks_, expectedStakingRewardPoints) */\n      0xe7dbea143058f90be7a1644e539342c25ddc5379868fe922bab596de99debf41\n        /* \"gist-bbe3d2eec72b27de020fc2e5b9189a4a/Staking.sol\":11494:11504  msg.sender */\n      caller\n        /* \"gist-bbe3d2eec72b27de020fc2e5b9189a4a/Staking.sol\":11506:11518  tokenAmount_ */\n      dup6\n        /* \"gist-bbe3d2eec72b27de020fc2e5b9189a4a/Staking.sol\":11520:11542  lockingPeriodInBlocks_ */\n      dup6\n        /* \"gist-bbe3d2eec72b27de020fc2e5b9189a4a/Staking.sol\":11544:11571  expectedStakingRewardPoints */\n      dup6\n        /* \"gist-bbe3d2eec72b27de020fc2e5b9189a4a/Staking.sol\":11482:11572  StakeLocked(msg.sender, tokenAmount_, lockingPeriodInBlocks_, expectedStakingRewardPoints) */\n      mload(0x40)\n      tag_127\n      swap5\n      swap4\n      swap3\n      swap2\n      swap1\n      tag_128\n      jump\t// in\n    tag_127:\n      mload(0x40)\n      dup1\n      swap2\n      sub\n      swap1\n      log1\n        /* \"gist-bbe3d2eec72b27de020fc2e5b9189a4a/Staking.sol\":6101:6102  _ */\n      pop\n      pop\n        /* \"gist-bbe3d2eec72b27de020fc2e5b9189a4a/Staking.sol\":9920:11579  function lockTokens(uint72 tokenAmount_, uint24 lockingPeriodInBlocks_) public poolTokenSet {... */\n      pop\n      pop\n      jump\t// out\n        /* \"gist-bbe3d2eec72b27de020fc2e5b9189a4a/Staking.sol\":5301:5343  uint256 immutable public stakingFundAmount */\n    tag_40:\n      immutable(\"0xd905fec1a56b00009651ce5a01a34d2244da02f516f67ee88b03219738dbf226\")\n      dup2\n      jump\t// out\n        /* \"gist-bbe3d2eec72b27de020fc2e5b9189a4a/Staking.sol\":5786:5836  mapping (address => uint256) public releasedTokens */\n    tag_44:\n      mstore(0x20, 0x05)\n      dup1\n      0x00\n      mstore\n      keccak256(0x00, 0x40)\n      0x00\n      swap2\n      pop\n      swap1\n      pop\n      sload\n      dup2\n      jump\t// out\n        /* \"gist-bbe3d2eec72b27de020fc2e5b9189a4a/Staking.sol\":8860:9527  function calculateStakingRewardPoints(uint72 tokenAmount_, uint24 lockingPeriodInBlocks_) public pure returns (uint128) {... */\n    tag_48:\n        /* \"gist-bbe3d2eec72b27de020fc2e5b9189a4a/Staking.sol\":8971:8978  uint128 */\n      0x00\n        /* \"gist-bbe3d2eec72b27de020fc2e5b9189a4a/Staking.sol\":9259:9286  uint256 stakingRewardPoints */\n      dup1\n        /* \"gist-bbe3d2eec72b27de020fc2e5b9189a4a/Staking.sol\":9355:9377  lockingPeriodInBlocks_ */\n      dup3\n        /* \"gist-bbe3d2eec72b27de020fc2e5b9189a4a/Staking.sol\":9347:9378  uint256(lockingPeriodInBlocks_) */\n      0xffffff\n      and\n        /* \"gist-bbe3d2eec72b27de020fc2e5b9189a4a/Staking.sol\":9321:9343  lockingPeriodInBlocks_ */\n      dup4\n        /* \"gist-bbe3d2eec72b27de020fc2e5b9189a4a/Staking.sol\":9313:9344  uint256(lockingPeriodInBlocks_) */\n      0xffffff\n      and\n        /* \"gist-bbe3d2eec72b27de020fc2e5b9189a4a/Staking.sol\":9297:9309  tokenAmount_ */\n      dup6\n        /* \"gist-bbe3d2eec72b27de020fc2e5b9189a4a/Staking.sol\":9289:9310  uint256(tokenAmount_) */\n      0xffffffffffffffffff\n      and\n        /* \"gist-bbe3d2eec72b27de020fc2e5b9189a4a/Staking.sol\":9289:9344  uint256(tokenAmount_) * uint256(lockingPeriodInBlocks_) */\n      tag_130\n      swap2\n      swap1\n      tag_95\n      jump\t// in\n    tag_130:\n        /* \"gist-bbe3d2eec72b27de020fc2e5b9189a4a/Staking.sol\":9289:9378  uint256(tokenAmount_) * uint256(lockingPeriodInBlocks_) * uint256(lockingPeriodInBlocks_) */\n      tag_131\n      swap2\n      swap1\n      tag_95\n      jump\t// in\n    tag_131:\n        /* \"gist-bbe3d2eec72b27de020fc2e5b9189a4a/Staking.sol\":9259:9378  uint256 stakingRewardPoints = uint256(tokenAmount_) * uint256(lockingPeriodInBlocks_) * uint256(lockingPeriodInBlocks_) */\n      swap1\n      pop\n        /* \"gist-bbe3d2eec72b27de020fc2e5b9189a4a/Staking.sol\":9418:9419  0 */\n      0x00\n        /* \"gist-bbe3d2eec72b27de020fc2e5b9189a4a/Staking.sol\":9396:9415  stakingRewardPoints */\n      dup2\n        /* \"gist-bbe3d2eec72b27de020fc2e5b9189a4a/Staking.sol\":9396:9419  stakingRewardPoints > 0 */\n      gt\n        /* \"gist-bbe3d2eec72b27de020fc2e5b9189a4a/Staking.sol\":9388:9475  require(stakingRewardPoints > 0, \"Neither tokenAmount nor lockingPeriod couldn't be 0\") */\n      tag_132\n      jumpi\n      mload(0x40)\n      0x08c379a000000000000000000000000000000000000000000000000000000000\n      dup2\n      mstore\n      0x04\n      add\n      tag_133\n      swap1\n      tag_134\n      jump\t// in\n    tag_133:\n      mload(0x40)\n      dup1\n      swap2\n      sub\n      swap1\n      revert\n    tag_132:\n        /* \"gist-bbe3d2eec72b27de020fc2e5b9189a4a/Staking.sol\":9500:9519  stakingRewardPoints */\n      dup1\n        /* \"gist-bbe3d2eec72b27de020fc2e5b9189a4a/Staking.sol\":9485:9520  return uint128(stakingRewardPoints) */\n      swap2\n      pop\n      pop\n        /* \"gist-bbe3d2eec72b27de020fc2e5b9189a4a/Staking.sol\":8860:9527  function calculateStakingRewardPoints(uint72 tokenAmount_, uint24 lockingPeriodInBlocks_) public pure returns (uint128) {... */\n      swap3\n      swap2\n      pop\n      pop\n      jump\t// out\n        /* \"gist-bbe3d2eec72b27de020fc2e5b9189a4a/Staking.sol\":5501:5535  IERC20 immutable public oilerToken */\n    tag_52:\n      immutable(\"0xc792330a4f225cb27dfcf04335b51be24e1e574b19d83989f6006ef18804cbcb\")\n      dup2\n      jump\t// out\n        /* \"gist-bbe3d2eec72b27de020fc2e5b9189a4a/Staking.sol\":15863:16234  function release() public {... */\n    tag_56:\n        /* \"gist-bbe3d2eec72b27de020fc2e5b9189a4a/Staking.sol\":15899:15917  uint256 releasable */\n      0x00\n        /* \"gist-bbe3d2eec72b27de020fc2e5b9189a4a/Staking.sol\":15920:15949  _releasableAmount(msg.sender) */\n      tag_136\n        /* \"gist-bbe3d2eec72b27de020fc2e5b9189a4a/Staking.sol\":15938:15948  msg.sender */\n      caller\n        /* \"gist-bbe3d2eec72b27de020fc2e5b9189a4a/Staking.sol\":15920:15937  _releasableAmount */\n      tag_137\n        /* \"gist-bbe3d2eec72b27de020fc2e5b9189a4a/Staking.sol\":15920:15949  _releasableAmount(msg.sender) */\n      jump\t// in\n    tag_136:\n        /* \"gist-bbe3d2eec72b27de020fc2e5b9189a4a/Staking.sol\":15899:15949  uint256 releasable = _releasableAmount(msg.sender) */\n      swap1\n      pop\n        /* \"gist-bbe3d2eec72b27de020fc2e5b9189a4a/Staking.sol\":15980:15981  0 */\n      0x00\n        /* \"gist-bbe3d2eec72b27de020fc2e5b9189a4a/Staking.sol\":15967:15977  releasable */\n      dup2\n        /* \"gist-bbe3d2eec72b27de020fc2e5b9189a4a/Staking.sol\":15967:15981  releasable > 0 */\n      gt\n        /* \"gist-bbe3d2eec72b27de020fc2e5b9189a4a/Staking.sol\":15959:16020  require(releasable > 0, \"Vesting release: no tokens are due\") */\n      tag_138\n      jumpi\n      mload(0x40)\n      0x08c379a000000000000000000000000000000000000000000000000000000000\n      dup2\n      mstore\n      0x04\n      add\n      tag_139\n      swap1\n      tag_140\n      jump\t// in\n    tag_139:\n      mload(0x40)\n      dup1\n      swap2\n      sub\n      swap1\n      revert\n    tag_138:\n        /* \"gist-bbe3d2eec72b27de020fc2e5b9189a4a/Staking.sol\":16061:16071  releasable */\n      dup1\n        /* \"gist-bbe3d2eec72b27de020fc2e5b9189a4a/Staking.sol\":16031:16045  releasedTokens */\n      0x05\n        /* \"gist-bbe3d2eec72b27de020fc2e5b9189a4a/Staking.sol\":16031:16057  releasedTokens[msg.sender] */\n      0x00\n        /* \"gist-bbe3d2eec72b27de020fc2e5b9189a4a/Staking.sol\":16046:16056  msg.sender */\n      caller\n        /* \"gist-bbe3d2eec72b27de020fc2e5b9189a4a/Staking.sol\":16031:16057  releasedTokens[msg.sender] */\n      0xffffffffffffffffffffffffffffffffffffffff\n      and\n      0xffffffffffffffffffffffffffffffffffffffff\n      and\n      dup2\n      mstore\n      0x20\n      add\n      swap1\n      dup2\n      mstore\n      0x20\n      add\n      0x00\n      keccak256\n      0x00\n        /* \"gist-bbe3d2eec72b27de020fc2e5b9189a4a/Staking.sol\":16031:16071  releasedTokens[msg.sender] += releasable */\n      dup3\n      dup3\n      sload\n      tag_141\n      swap2\n      swap1\n      tag_115\n      jump\t// in\n    tag_141:\n      swap3\n      pop\n      pop\n      dup2\n      swap1\n      sstore\n      pop\n        /* \"gist-bbe3d2eec72b27de020fc2e5b9189a4a/Staking.sol\":16089:16099  oilerToken */\n      immutable(\"0xc792330a4f225cb27dfcf04335b51be24e1e574b19d83989f6006ef18804cbcb\")\n        /* \"gist-bbe3d2eec72b27de020fc2e5b9189a4a/Staking.sol\":16089:16108  oilerToken.transfer */\n      0xffffffffffffffffffffffffffffffffffffffff\n      and\n      0xa9059cbb\n        /* \"gist-bbe3d2eec72b27de020fc2e5b9189a4a/Staking.sol\":16109:16119  msg.sender */\n      caller\n        /* \"gist-bbe3d2eec72b27de020fc2e5b9189a4a/Staking.sol\":16121:16131  releasable */\n      dup4\n        /* \"gist-bbe3d2eec72b27de020fc2e5b9189a4a/Staking.sol\":16089:16132  oilerToken.transfer(msg.sender, releasable) */\n      mload(0x40)\n      dup4\n      0xffffffff\n      and\n      0xe0\n      shl\n      dup2\n      mstore\n      0x04\n      add\n      tag_142\n      swap3\n      swap2\n      swap1\n      tag_143\n      jump\t// in\n    tag_142:\n      0x20\n      mload(0x40)\n      dup1\n      dup4\n      sub\n      dup2\n      0x00\n      dup8\n      dup1\n      extcodesize\n      iszero\n      dup1\n      iszero\n      tag_144\n      jumpi\n      0x00\n      dup1\n      revert\n    tag_144:\n      pop\n      gas\n      call\n      iszero\n      dup1\n      iszero\n      tag_146\n      jumpi\n      returndatasize\n      0x00\n      dup1\n      returndatacopy\n      revert(0x00, returndatasize)\n    tag_146:\n      pop\n      pop\n      pop\n      pop\n      mload(0x40)\n      returndatasize\n      not(0x1f)\n      0x1f\n      dup3\n      add\n      and\n      dup3\n      add\n      dup1\n      0x40\n      mstore\n      pop\n      dup2\n      add\n      swap1\n      tag_147\n      swap2\n      swap1\n      tag_123\n      jump\t// in\n    tag_147:\n        /* \"gist-bbe3d2eec72b27de020fc2e5b9189a4a/Staking.sol\":16081:16166  require(oilerToken.transfer(msg.sender, releasable), \"Reward oilers transfer failed\") */\n      tag_148\n      jumpi\n      mload(0x40)\n      0x08c379a000000000000000000000000000000000000000000000000000000000\n      dup2\n      mstore\n      0x04\n      add\n      tag_149\n      swap1\n      tag_150\n      jump\t// in\n    tag_149:\n      mload(0x40)\n      dup1\n      swap2\n      sub\n      swap1\n      revert\n    tag_148:\n        /* \"gist-bbe3d2eec72b27de020fc2e5b9189a4a/Staking.sol\":16182:16227  grantedTokensReleased(msg.sender, releasable) */\n      0x769d4212c4fbfaa012a896b49e0f3bb14d32dd0d60ce1a13d357ee6b69db77c2\n        /* \"gist-bbe3d2eec72b27de020fc2e5b9189a4a/Staking.sol\":16204:16214  msg.sender */\n      caller\n        /* \"gist-bbe3d2eec72b27de020fc2e5b9189a4a/Staking.sol\":16216:16226  releasable */\n      dup3\n        /* \"gist-bbe3d2eec72b27de020fc2e5b9189a4a/Staking.sol\":16182:16227  grantedTokensReleased(msg.sender, releasable) */\n      mload(0x40)\n      tag_151\n      swap3\n      swap2\n      swap1\n      tag_143\n      jump\t// in\n    tag_151:\n      mload(0x40)\n      dup1\n      swap2\n      sub\n      swap1\n      log1\n        /* \"gist-bbe3d2eec72b27de020fc2e5b9189a4a/Staking.sol\":15863:16234  function release() public {... */\n      pop\n      jump\t// out\n        /* \"gist-bbe3d2eec72b27de020fc2e5b9189a4a/Staking.sol\":6165:6195  address immutable public owner */\n    tag_58:\n      immutable(\"0xc5bf1d490d2f4e87cc1d5184cd59114bcef0e857ac09f6d840a1caed5b52d973\")\n      dup2\n      jump\t// out\n        /* \"gist-bbe3d2eec72b27de020fc2e5b9189a4a/Staking.sol\":5120:5168  uint256 immutable public stakingProgramEndsBlock */\n    tag_62:\n      immutable(\"0xe41a685dc3df81383d452481451b89eb3f69781b836c19936fa9714a13d1c9c2\")\n      dup2\n      jump\t// out\n        /* \"gist-bbe3d2eec72b27de020fc2e5b9189a4a/Staking.sol\":5024:5056  uint256 public totalRewardPoints */\n    tag_65:\n      sload(0x02)\n      dup2\n      jump\t// out\n        /* \"gist-bbe3d2eec72b27de020fc2e5b9189a4a/Staking.sol\":4904:4958  mapping (address => uint256) public rewardPointsEarned */\n    tag_69:\n      mstore(0x20, 0x01)\n      dup1\n      0x00\n      mstore\n      keccak256(0x00, 0x40)\n      0x00\n      swap2\n      pop\n      swap1\n      pop\n      sload\n      dup2\n      jump\t// out\n        /* \"gist-bbe3d2eec72b27de020fc2e5b9189a4a/Staking.sol\":5413:5436  IERC20 public poolToken */\n    tag_72:\n      0x03\n      0x00\n      swap1\n      sload\n      swap1\n      0x0100\n      exp\n      swap1\n      div\n      0xffffffffffffffffffffffffffffffffffffffff\n      and\n      dup2\n      jump\t// out\n        /* \"gist-bbe3d2eec72b27de020fc2e5b9189a4a/Staking.sol\":5641:5690  mapping (address => uint256) public grantedTokens */\n    tag_76:\n      mstore(0x20, 0x04)\n      dup1\n      0x00\n      mstore\n      keccak256(0x00, 0x40)\n      0x00\n      swap2\n      pop\n      swap1\n      pop\n      sload\n      dup2\n      jump\t// out\n        /* \"gist-bbe3d2eec72b27de020fc2e5b9189a4a/Staking.sol\":7675:8483  function setPoolToken(address poolToken_, address stakingFundAddress_) public onlyOwner {... */\n    tag_81:\n        /* \"gist-bbe3d2eec72b27de020fc2e5b9189a4a/Staking.sol\":6296:6301  owner */\n      immutable(\"0xc5bf1d490d2f4e87cc1d5184cd59114bcef0e857ac09f6d840a1caed5b52d973\")\n        /* \"gist-bbe3d2eec72b27de020fc2e5b9189a4a/Staking.sol\":6282:6301  msg.sender == owner */\n      0xffffffffffffffffffffffffffffffffffffffff\n      and\n        /* \"gist-bbe3d2eec72b27de020fc2e5b9189a4a/Staking.sol\":6282:6292  msg.sender */\n      caller\n        /* \"gist-bbe3d2eec72b27de020fc2e5b9189a4a/Staking.sol\":6282:6301  msg.sender == owner */\n      0xffffffffffffffffffffffffffffffffffffffff\n      and\n      eq\n        /* \"gist-bbe3d2eec72b27de020fc2e5b9189a4a/Staking.sol\":6274:6333  require(msg.sender == owner, \"Can only be called by owner\") */\n      tag_153\n      jumpi\n      mload(0x40)\n      0x08c379a000000000000000000000000000000000000000000000000000000000\n      dup2\n      mstore\n      0x04\n      add\n      tag_154\n      swap1\n      tag_155\n      jump\t// in\n    tag_154:\n      mload(0x40)\n      dup1\n      swap2\n      sub\n      swap1\n      revert\n    tag_153:\n        /* \"gist-bbe3d2eec72b27de020fc2e5b9189a4a/Staking.sol\":7811:7814  0x0 */\n      0x00\n        /* \"gist-bbe3d2eec72b27de020fc2e5b9189a4a/Staking.sol\":7781:7815  address(poolToken) == address(0x0) */\n      0xffffffffffffffffffffffffffffffffffffffff\n      and\n        /* \"gist-bbe3d2eec72b27de020fc2e5b9189a4a/Staking.sol\":7789:7798  poolToken */\n      0x03\n      0x00\n      swap1\n      sload\n      swap1\n      0x0100\n      exp\n      swap1\n      div\n      0xffffffffffffffffffffffffffffffffffffffff\n      and\n        /* \"gist-bbe3d2eec72b27de020fc2e5b9189a4a/Staking.sol\":7781:7815  address(poolToken) == address(0x0) */\n      0xffffffffffffffffffffffffffffffffffffffff\n      and\n      eq\n        /* \"gist-bbe3d2eec72b27de020fc2e5b9189a4a/Staking.sol\":7773:7845  require(address(poolToken) == address(0x0), \"poolToken was already set\") */\n      tag_157\n      jumpi\n      mload(0x40)\n      0x08c379a000000000000000000000000000000000000000000000000000000000\n      dup2\n      mstore\n      0x04\n      add\n      tag_158\n      swap1\n      tag_159\n      jump\t// in\n    tag_158:\n      mload(0x40)\n      dup1\n      swap2\n      sub\n      swap1\n      revert\n    tag_157:\n        /* \"gist-bbe3d2eec72b27de020fc2e5b9189a4a/Staking.sol\":7885:7888  0x0 */\n      0x00\n        /* \"gist-bbe3d2eec72b27de020fc2e5b9189a4a/Staking.sol\":7863:7889  poolToken_ != address(0x0) */\n      0xffffffffffffffffffffffffffffffffffffffff\n      and\n        /* \"gist-bbe3d2eec72b27de020fc2e5b9189a4a/Staking.sol\":7863:7873  poolToken_ */\n      dup3\n        /* \"gist-bbe3d2eec72b27de020fc2e5b9189a4a/Staking.sol\":7863:7889  poolToken_ != address(0x0) */\n      0xffffffffffffffffffffffffffffffffffffffff\n      and\n      eq\n      iszero\n        /* \"gist-bbe3d2eec72b27de020fc2e5b9189a4a/Staking.sol\":7855:7926  require(poolToken_ != address(0x0), \"poolToken address cannot be zero\") */\n      tag_160\n      jumpi\n      mload(0x40)\n      0x08c379a000000000000000000000000000000000000000000000000000000000\n      dup2\n      mstore\n      0x04\n      add\n      tag_161\n      swap1\n      tag_162\n      jump\t// in\n    tag_161:\n      mload(0x40)\n      dup1\n      swap2\n      sub\n      swap1\n      revert\n    tag_160:\n        /* \"gist-bbe3d2eec72b27de020fc2e5b9189a4a/Staking.sol\":7955:7965  poolToken_ */\n      dup2\n        /* \"gist-bbe3d2eec72b27de020fc2e5b9189a4a/Staking.sol\":7936:7945  poolToken */\n      0x03\n      0x00\n        /* \"gist-bbe3d2eec72b27de020fc2e5b9189a4a/Staking.sol\":7936:7966  poolToken = IERC20(poolToken_) */\n      0x0100\n      exp\n      dup2\n      sload\n      dup2\n      0xffffffffffffffffffffffffffffffffffffffff\n      mul\n      not\n      and\n      swap1\n      dup4\n      0xffffffffffffffffffffffffffffffffffffffff\n      and\n      mul\n      or\n      swap1\n      sstore\n      pop\n        /* \"gist-bbe3d2eec72b27de020fc2e5b9189a4a/Staking.sol\":8110:8127  stakingFundAmount */\n      immutable(\"0xd905fec1a56b00009651ce5a01a34d2244da02f516f67ee88b03219738dbf226\")\n        /* \"gist-bbe3d2eec72b27de020fc2e5b9189a4a/Staking.sol\":8064:8074  oilerToken */\n      immutable(\"0xc792330a4f225cb27dfcf04335b51be24e1e574b19d83989f6006ef18804cbcb\")\n        /* \"gist-bbe3d2eec72b27de020fc2e5b9189a4a/Staking.sol\":8057:8085  IERC20(oilerToken).balanceOf */\n      0xffffffffffffffffffffffffffffffffffffffff\n      and\n      0x70a08231\n        /* \"gist-bbe3d2eec72b27de020fc2e5b9189a4a/Staking.sol\":8086:8105  stakingFundAddress_ */\n      dup4\n        /* \"gist-bbe3d2eec72b27de020fc2e5b9189a4a/Staking.sol\":8057:8106  IERC20(oilerToken).balanceOf(stakingFundAddress_) */\n      mload(0x40)\n      dup3\n      0xffffffff\n      and\n      0xe0\n      shl\n      dup2\n      mstore\n      0x04\n      add\n      tag_163\n      swap2\n      swap1\n      tag_60\n      jump\t// in\n    tag_163:\n      0x20\n      mload(0x40)\n      dup1\n      dup4\n      sub\n      dup2\n      dup7\n      dup1\n      extcodesize\n      iszero\n      dup1\n      iszero\n      tag_164\n      jumpi\n      0x00\n      dup1\n      revert\n    tag_164:\n      pop\n      gas\n      staticcall\n      iszero\n      dup1\n      iszero\n      tag_166\n      jumpi\n      returndatasize\n      0x00\n      dup1\n      returndatacopy\n      revert(0x00, returndatasize)\n    tag_166:\n      pop\n      pop\n      pop\n      pop\n      mload(0x40)\n      returndatasize\n      not(0x1f)\n      0x1f\n      dup3\n      add\n      and\n      dup3\n      add\n      dup1\n      0x40\n      mstore\n      pop\n      dup2\n      add\n      swap1\n      tag_167\n      swap2\n      swap1\n      tag_168\n      jump\t// in\n    tag_167:\n        /* \"gist-bbe3d2eec72b27de020fc2e5b9189a4a/Staking.sol\":8057:8127  IERC20(oilerToken).balanceOf(stakingFundAddress_) >= stakingFundAmount */\n      lt\n      iszero\n        /* \"gist-bbe3d2eec72b27de020fc2e5b9189a4a/Staking.sol\":8049:8175  require(IERC20(oilerToken).balanceOf(stakingFundAddress_) >= stakingFundAmount, \"StakingFund doesn't have enough OIL balance\") */\n      tag_169\n      jumpi\n      mload(0x40)\n      0x08c379a000000000000000000000000000000000000000000000000000000000\n      dup2\n      mstore\n      0x04\n      add\n      tag_170\n      swap1\n      tag_171\n      jump\t// in\n    tag_170:\n      mload(0x40)\n      dup1\n      swap2\n      sub\n      swap1\n      revert\n    tag_169:\n        /* \"gist-bbe3d2eec72b27de020fc2e5b9189a4a/Staking.sol\":8261:8278  stakingFundAmount */\n      immutable(\"0xd905fec1a56b00009651ce5a01a34d2244da02f516f67ee88b03219738dbf226\")\n        /* \"gist-bbe3d2eec72b27de020fc2e5b9189a4a/Staking.sol\":8200:8210  oilerToken */\n      immutable(\"0xc792330a4f225cb27dfcf04335b51be24e1e574b19d83989f6006ef18804cbcb\")\n        /* \"gist-bbe3d2eec72b27de020fc2e5b9189a4a/Staking.sol\":8193:8221  IERC20(oilerToken).allowance */\n      0xffffffffffffffffffffffffffffffffffffffff\n      and\n      0xdd62ed3e\n        /* \"gist-bbe3d2eec72b27de020fc2e5b9189a4a/Staking.sol\":8222:8241  stakingFundAddress_ */\n      dup4\n        /* \"gist-bbe3d2eec72b27de020fc2e5b9189a4a/Staking.sol\":8251:8255  this */\n      address\n        /* \"gist-bbe3d2eec72b27de020fc2e5b9189a4a/Staking.sol\":8193:8257  IERC20(oilerToken).allowance(stakingFundAddress_, address(this)) */\n      mload(0x40)\n      dup4\n      0xffffffff\n      and\n      0xe0\n      shl\n      dup2\n      mstore\n      0x04\n      add\n      tag_172\n      swap3\n      swap2\n      swap1\n      tag_173\n      jump\t// in\n    tag_172:\n      0x20\n      mload(0x40)\n      dup1\n      dup4\n      sub\n      dup2\n      dup7\n      dup1\n      extcodesize\n      iszero\n      dup1\n      iszero\n      tag_174\n      jumpi\n      0x00\n      dup1\n      revert\n    tag_174:\n      pop\n      gas\n      staticcall\n      iszero\n      dup1\n      iszero\n      tag_176\n      jumpi\n      returndatasize\n      0x00\n      dup1\n      returndatacopy\n      revert(0x00, returndatasize)\n    tag_176:\n      pop\n      pop\n      pop\n      pop\n      mload(0x40)\n      returndatasize\n      not(0x1f)\n      0x1f\n      dup3\n      add\n      and\n      dup3\n      add\n      dup1\n      0x40\n      mstore\n      pop\n      dup2\n      add\n      swap1\n      tag_177\n      swap2\n      swap1\n      tag_168\n      jump\t// in\n    tag_177:\n        /* \"gist-bbe3d2eec72b27de020fc2e5b9189a4a/Staking.sol\":8193:8278  IERC20(oilerToken).allowance(stakingFundAddress_, address(this)) >= stakingFundAmount */\n      lt\n      iszero\n        /* \"gist-bbe3d2eec72b27de020fc2e5b9189a4a/Staking.sol\":8185:8324  require(IERC20(oilerToken).allowance(stakingFundAddress_, address(this)) >= stakingFundAmount, \"StakingFund doesn't have enough allowance\") */\n      tag_178\n      jumpi\n      mload(0x40)\n      0x08c379a000000000000000000000000000000000000000000000000000000000\n      dup2\n      mstore\n      0x04\n      add\n      tag_179\n      swap1\n      tag_180\n      jump\t// in\n    tag_179:\n      mload(0x40)\n      dup1\n      swap2\n      sub\n      swap1\n      revert\n    tag_178:\n        /* \"gist-bbe3d2eec72b27de020fc2e5b9189a4a/Staking.sol\":8349:8359  oilerToken */\n      immutable(\"0xc792330a4f225cb27dfcf04335b51be24e1e574b19d83989f6006ef18804cbcb\")\n        /* \"gist-bbe3d2eec72b27de020fc2e5b9189a4a/Staking.sol\":8342:8373  IERC20(oilerToken).transferFrom */\n      0xffffffffffffffffffffffffffffffffffffffff\n      and\n      0x23b872dd\n        /* \"gist-bbe3d2eec72b27de020fc2e5b9189a4a/Staking.sol\":8374:8393  stakingFundAddress_ */\n      dup3\n        /* \"gist-bbe3d2eec72b27de020fc2e5b9189a4a/Staking.sol\":8403:8407  this */\n      address\n        /* \"gist-bbe3d2eec72b27de020fc2e5b9189a4a/Staking.sol\":8410:8427  stakingFundAmount */\n      immutable(\"0xd905fec1a56b00009651ce5a01a34d2244da02f516f67ee88b03219738dbf226\")\n        /* \"gist-bbe3d2eec72b27de020fc2e5b9189a4a/Staking.sol\":8342:8428  IERC20(oilerToken).transferFrom(stakingFundAddress_, address(this), stakingFundAmount) */\n      mload(0x40)\n      dup5\n      0xffffffff\n      and\n      0xe0\n      shl\n      dup2\n      mstore\n      0x04\n      add\n      tag_181\n      swap4\n      swap3\n      swap2\n      swap1\n      tag_182\n      jump\t// in\n    tag_181:\n      0x20\n      mload(0x40)\n      dup1\n      dup4\n      sub\n      dup2\n      0x00\n      dup8\n      dup1\n      extcodesize\n      iszero\n      dup1\n      iszero\n      tag_183\n      jumpi\n      0x00\n      dup1\n      revert\n    tag_183:\n      pop\n      gas\n      call\n      iszero\n      dup1\n      iszero\n      tag_185\n      jumpi\n      returndatasize\n      0x00\n      dup1\n      returndatacopy\n      revert(0x00, returndatasize)\n    tag_185:\n      pop\n      pop\n      pop\n      pop\n      mload(0x40)\n      returndatasize\n      not(0x1f)\n      0x1f\n      dup3\n      add\n      and\n      dup3\n      add\n      dup1\n      0x40\n      mstore\n      pop\n      dup2\n      add\n      swap1\n      tag_186\n      swap2\n      swap1\n      tag_123\n      jump\t// in\n    tag_186:\n        /* \"gist-bbe3d2eec72b27de020fc2e5b9189a4a/Staking.sol\":8334:8476  require(IERC20(oilerToken).transferFrom(stakingFundAddress_, address(this), stakingFundAmount), \"TransferFrom of OIL from StakingFund failed\") */\n      tag_187\n      jumpi\n      mload(0x40)\n      0x08c379a000000000000000000000000000000000000000000000000000000000\n      dup2\n      mstore\n      0x04\n      add\n      tag_188\n      swap1\n      tag_189\n      jump\t// in\n    tag_188:\n      mload(0x40)\n      dup1\n      swap2\n      sub\n      swap1\n      revert\n    tag_187:\n        /* \"gist-bbe3d2eec72b27de020fc2e5b9189a4a/Staking.sol\":7675:8483  function setPoolToken(address poolToken_, address stakingFundAddress_) public onlyOwner {... */\n      pop\n      pop\n      jump\t// out\n        /* \"gist-bbe3d2eec72b27de020fc2e5b9189a4a/Staking.sol\":11737:12431  function unlockTokens() public poolTokenSet {... */\n    tag_83:\n        /* \"gist-bbe3d2eec72b27de020fc2e5b9189a4a/Staking.sol\":6065:6068  0x0 */\n      0x00\n        /* \"gist-bbe3d2eec72b27de020fc2e5b9189a4a/Staking.sol\":6035:6069  address(poolToken) != address(0x0) */\n      0xffffffffffffffffffffffffffffffffffffffff\n      and\n        /* \"gist-bbe3d2eec72b27de020fc2e5b9189a4a/Staking.sol\":6043:6052  poolToken */\n      0x03\n      0x00\n      swap1\n      sload\n      swap1\n      0x0100\n      exp\n      swap1\n      div\n      0xffffffffffffffffffffffffffffffffffffffff\n      and\n        /* \"gist-bbe3d2eec72b27de020fc2e5b9189a4a/Staking.sol\":6035:6069  address(poolToken) != address(0x0) */\n      0xffffffffffffffffffffffffffffffffffffffff\n      and\n      eq\n      iszero\n        /* \"gist-bbe3d2eec72b27de020fc2e5b9189a4a/Staking.sol\":6027:6091  require(address(poolToken) != address(0x0), \"poolToken not set\") */\n      tag_191\n      jumpi\n      mload(0x40)\n      0x08c379a000000000000000000000000000000000000000000000000000000000\n      dup2\n      mstore\n      0x04\n      add\n      tag_192\n      swap1\n      tag_103\n      jump\t// in\n    tag_192:\n      mload(0x40)\n      dup1\n      swap2\n      sub\n      swap1\n      revert\n    tag_191:\n        /* \"gist-bbe3d2eec72b27de020fc2e5b9189a4a/Staking.sol\":11791:11809  Stake memory stake */\n      0x00\n        /* \"gist-bbe3d2eec72b27de020fc2e5b9189a4a/Staking.sol\":11812:11818  stakes */\n      dup1\n        /* \"gist-bbe3d2eec72b27de020fc2e5b9189a4a/Staking.sol\":11812:11830  stakes[msg.sender] */\n      0x00\n        /* \"gist-bbe3d2eec72b27de020fc2e5b9189a4a/Staking.sol\":11819:11829  msg.sender */\n      caller\n        /* \"gist-bbe3d2eec72b27de020fc2e5b9189a4a/Staking.sol\":11812:11830  stakes[msg.sender] */\n      0xffffffffffffffffffffffffffffffffffffffff\n      and\n      0xffffffffffffffffffffffffffffffffffffffff\n      and\n      dup2\n      mstore\n      0x20\n      add\n      swap1\n      dup2\n      mstore\n      0x20\n      add\n      0x00\n      keccak256\n        /* \"gist-bbe3d2eec72b27de020fc2e5b9189a4a/Staking.sol\":11791:11830  Stake memory stake = stakes[msg.sender] */\n      mload(0x40)\n      dup1\n      0x80\n      add\n      0x40\n      mstore\n      swap1\n      dup2\n      0x00\n      dup3\n      add\n      0x00\n      swap1\n      sload\n      swap1\n      0x0100\n      exp\n      swap1\n      div\n      0xffffffffffffffffff\n      and\n      0xffffffffffffffffff\n      and\n      0xffffffffffffffffff\n      and\n      dup2\n      mstore\n      0x20\n      add\n      0x00\n      dup3\n      add\n      0x09\n      swap1\n      sload\n      swap1\n      0x0100\n      exp\n      swap1\n      div\n      0xffffff\n      and\n      0xffffff\n      and\n      0xffffff\n      and\n      dup2\n      mstore\n      0x20\n      add\n      0x00\n      dup3\n      add\n      0x0c\n      swap1\n      sload\n      swap1\n      0x0100\n      exp\n      swap1\n      div\n      0xffffffff\n      and\n      0xffffffff\n      and\n      0xffffffff\n      and\n      dup2\n      mstore\n      0x20\n      add\n      0x00\n      dup3\n      add\n      0x10\n      swap1\n      sload\n      swap1\n      0x0100\n      exp\n      swap1\n      div\n      0xffffffffffffffffffffffffffffffff\n      and\n      0xffffffffffffffffffffffffffffffff\n      and\n      0xffffffffffffffffffffffffffffffff\n      and\n      dup2\n      mstore\n      pop\n      pop\n      swap1\n      pop\n        /* \"gist-bbe3d2eec72b27de020fc2e5b9189a4a/Staking.sol\":11841:11860  uint256 stakeAmount */\n      0x00\n        /* \"gist-bbe3d2eec72b27de020fc2e5b9189a4a/Staking.sol\":11863:11868  stake */\n      dup2\n        /* \"gist-bbe3d2eec72b27de020fc2e5b9189a4a/Staking.sol\":11863:11880  stake.tokenAmount */\n      0x00\n      add\n      mload\n        /* \"gist-bbe3d2eec72b27de020fc2e5b9189a4a/Staking.sol\":11841:11880  uint256 stakeAmount = stake.tokenAmount */\n      0xffffffffffffffffff\n      and\n      swap1\n      pop\n        /* \"gist-bbe3d2eec72b27de020fc2e5b9189a4a/Staking.sol\":11914:11915  0 */\n      0x00\n        /* \"gist-bbe3d2eec72b27de020fc2e5b9189a4a/Staking.sol\":11899:11910  stakeAmount */\n      dup2\n        /* \"gist-bbe3d2eec72b27de020fc2e5b9189a4a/Staking.sol\":11899:11915  stakeAmount != 0 */\n      eq\n      iszero\n        /* \"gist-bbe3d2eec72b27de020fc2e5b9189a4a/Staking.sol\":11891:11952  require(stakeAmount != 0, \"You don't have a stake to unlock\") */\n      tag_194\n      jumpi\n      mload(0x40)\n      0x08c379a000000000000000000000000000000000000000000000000000000000\n      dup2\n      mstore\n      0x04\n      add\n      tag_195\n      swap1\n      tag_196\n      jump\t// in\n    tag_195:\n      mload(0x40)\n      dup1\n      swap2\n      sub\n      swap1\n      revert\n    tag_194:\n        /* \"gist-bbe3d2eec72b27de020fc2e5b9189a4a/Staking.sol\":11986:11991  stake */\n      dup2\n        /* \"gist-bbe3d2eec72b27de020fc2e5b9189a4a/Staking.sol\":11986:12002  stake.startBlock */\n      0x40\n      add\n      mload\n        /* \"gist-bbe3d2eec72b27de020fc2e5b9189a4a/Staking.sol\":11971:12002  block.number > stake.startBlock */\n      0xffffffff\n      and\n        /* \"gist-bbe3d2eec72b27de020fc2e5b9189a4a/Staking.sol\":11971:11983  block.number */\n      number\n        /* \"gist-bbe3d2eec72b27de020fc2e5b9189a4a/Staking.sol\":11971:12002  block.number > stake.startBlock */\n      gt\n        /* \"gist-bbe3d2eec72b27de020fc2e5b9189a4a/Staking.sol\":11963:12067  require(block.number > stake.startBlock, \"You can't withdraw the stake in the same block it was locked\") */\n      tag_197\n      jumpi\n      mload(0x40)\n      0x08c379a000000000000000000000000000000000000000000000000000000000\n      dup2\n      mstore\n      0x04\n      add\n      tag_198\n      swap1\n      tag_199\n      jump\t// in\n    tag_198:\n      mload(0x40)\n      dup1\n      swap2\n      sub\n      swap1\n      revert\n    tag_197:\n        /* \"gist-bbe3d2eec72b27de020fc2e5b9189a4a/Staking.sol\":12175:12204  _punishEarlyWithdrawal(stake) */\n      tag_200\n        /* \"gist-bbe3d2eec72b27de020fc2e5b9189a4a/Staking.sol\":12198:12203  stake */\n      dup3\n        /* \"gist-bbe3d2eec72b27de020fc2e5b9189a4a/Staking.sol\":12175:12197  _punishEarlyWithdrawal */\n      tag_201\n        /* \"gist-bbe3d2eec72b27de020fc2e5b9189a4a/Staking.sol\":12175:12204  _punishEarlyWithdrawal(stake) */\n      jump\t// in\n    tag_200:\n        /* \"gist-bbe3d2eec72b27de020fc2e5b9189a4a/Staking.sol\":12313:12319  stakes */\n      0x00\n        /* \"gist-bbe3d2eec72b27de020fc2e5b9189a4a/Staking.sol\":12313:12331  stakes[msg.sender] */\n      dup1\n        /* \"gist-bbe3d2eec72b27de020fc2e5b9189a4a/Staking.sol\":12320:12330  msg.sender */\n      caller\n        /* \"gist-bbe3d2eec72b27de020fc2e5b9189a4a/Staking.sol\":12313:12331  stakes[msg.sender] */\n      0xffffffffffffffffffffffffffffffffffffffff\n      and\n      0xffffffffffffffffffffffffffffffffffffffff\n      and\n      dup2\n      mstore\n      0x20\n      add\n      swap1\n      dup2\n      mstore\n      0x20\n      add\n      0x00\n      keccak256\n      0x00\n        /* \"gist-bbe3d2eec72b27de020fc2e5b9189a4a/Staking.sol\":12306:12331  delete stakes[msg.sender] */\n      dup1\n      dup3\n      add\n      exp(0x0100, 0x00)\n      dup2\n      sload\n      swap1\n      0xffffffffffffffffff\n      mul\n      not\n      and\n      swap1\n      sstore\n      0x00\n      dup3\n      add\n      exp(0x0100, 0x09)\n      dup2\n      sload\n      swap1\n      0xffffff\n      mul\n      not\n      and\n      swap1\n      sstore\n      0x00\n      dup3\n      add\n      exp(0x0100, 0x0c)\n      dup2\n      sload\n      swap1\n      0xffffffff\n      mul\n      not\n      and\n      swap1\n      sstore\n      0x00\n      dup3\n      add\n      exp(0x0100, 0x10)\n      dup2\n      sload\n      swap1\n      0xffffffffffffffffffffffffffffffff\n      mul\n      not\n      and\n      swap1\n      sstore\n      pop\n      pop\n        /* \"gist-bbe3d2eec72b27de020fc2e5b9189a4a/Staking.sol\":12350:12359  poolToken */\n      0x03\n      0x00\n      swap1\n      sload\n      swap1\n      0x0100\n      exp\n      swap1\n      div\n      0xffffffffffffffffffffffffffffffffffffffff\n      and\n        /* \"gist-bbe3d2eec72b27de020fc2e5b9189a4a/Staking.sol\":12350:12368  poolToken.transfer */\n      0xffffffffffffffffffffffffffffffffffffffff\n      and\n      0xa9059cbb\n        /* \"gist-bbe3d2eec72b27de020fc2e5b9189a4a/Staking.sol\":12369:12379  msg.sender */\n      caller\n        /* \"gist-bbe3d2eec72b27de020fc2e5b9189a4a/Staking.sol\":12381:12392  stakeAmount */\n      dup4\n        /* \"gist-bbe3d2eec72b27de020fc2e5b9189a4a/Staking.sol\":12350:12393  poolToken.transfer(msg.sender, stakeAmount) */\n      mload(0x40)\n      dup4\n      0xffffffff\n      and\n      0xe0\n      shl\n      dup2\n      mstore\n      0x04\n      add\n      tag_202\n      swap3\n      swap2\n      swap1\n      tag_143\n      jump\t// in\n    tag_202:\n      0x20\n      mload(0x40)\n      dup1\n      dup4\n      sub\n      dup2\n      0x00\n      dup8\n      dup1\n      extcodesize\n      iszero\n      dup1\n      iszero\n      tag_203\n      jumpi\n      0x00\n      dup1\n      revert\n    tag_203:\n      pop\n      gas\n      call\n      iszero\n      dup1\n      iszero\n      tag_205\n      jumpi\n      returndatasize\n      0x00\n      dup1\n      returndatacopy\n      revert(0x00, returndatasize)\n    tag_205:\n      pop\n      pop\n      pop\n      pop\n      mload(0x40)\n      returndatasize\n      not(0x1f)\n      0x1f\n      dup3\n      add\n      and\n      dup3\n      add\n      dup1\n      0x40\n      mstore\n      pop\n      dup2\n      add\n      swap1\n      tag_206\n      swap2\n      swap1\n      tag_123\n      jump\t// in\n    tag_206:\n        /* \"gist-bbe3d2eec72b27de020fc2e5b9189a4a/Staking.sol\":12342:12424  require(poolToken.transfer(msg.sender, stakeAmount), \"Pool token transfer failed\") */\n      tag_207\n      jumpi\n      mload(0x40)\n      0x08c379a000000000000000000000000000000000000000000000000000000000\n      dup2\n      mstore\n      0x04\n      add\n      tag_208\n      swap1\n      tag_209\n      jump\t// in\n    tag_208:\n      mload(0x40)\n      dup1\n      swap2\n      sub\n      swap1\n      revert\n    tag_207:\n        /* \"gist-bbe3d2eec72b27de020fc2e5b9189a4a/Staking.sol\":6101:6102  _ */\n      pop\n      pop\n        /* \"gist-bbe3d2eec72b27de020fc2e5b9189a4a/Staking.sol\":11737:12431  function unlockTokens() public poolTokenSet {... */\n      jump\t// out\n        /* \"gist-bbe3d2eec72b27de020fc2e5b9189a4a/Staking.sol\":15453:15813  function _grantTokens(address recipient_, uint256 amountEarned_) internal {... */\n    tag_99:\n        /* \"gist-bbe3d2eec72b27de020fc2e5b9189a4a/Staking.sol\":15561:15562  0 */\n      0x00\n        /* \"gist-bbe3d2eec72b27de020fc2e5b9189a4a/Staking.sol\":15545:15558  amountEarned_ */\n      dup2\n        /* \"gist-bbe3d2eec72b27de020fc2e5b9189a4a/Staking.sol\":15545:15562  amountEarned_ > 0 */\n      gt\n        /* \"gist-bbe3d2eec72b27de020fc2e5b9189a4a/Staking.sol\":15537:15608  require(amountEarned_ > 0, \"You didn't earn any integer amount of wei\") */\n      tag_211\n      jumpi\n      mload(0x40)\n      0x08c379a000000000000000000000000000000000000000000000000000000000\n      dup2\n      mstore\n      0x04\n      add\n      tag_212\n      swap1\n      tag_213\n      jump\t// in\n    tag_212:\n      mload(0x40)\n      dup1\n      swap2\n      sub\n      swap1\n      revert\n    tag_211:\n        /* \"gist-bbe3d2eec72b27de020fc2e5b9189a4a/Staking.sol\":15648:15649  0 */\n      0x00\n        /* \"gist-bbe3d2eec72b27de020fc2e5b9189a4a/Staking.sol\":15626:15650  recipient_ != address(0) */\n      0xffffffffffffffffffffffffffffffffffffffff\n      and\n        /* \"gist-bbe3d2eec72b27de020fc2e5b9189a4a/Staking.sol\":15626:15636  recipient_ */\n      dup3\n        /* \"gist-bbe3d2eec72b27de020fc2e5b9189a4a/Staking.sol\":15626:15650  recipient_ != address(0) */\n      0xffffffffffffffffffffffffffffffffffffffff\n      and\n      eq\n      iszero\n        /* \"gist-bbe3d2eec72b27de020fc2e5b9189a4a/Staking.sol\":15618:15700  require(recipient_ != address(0), \"TokenVesting: beneficiary is the zero address\") */\n      tag_214\n      jumpi\n      mload(0x40)\n      0x08c379a000000000000000000000000000000000000000000000000000000000\n      dup2\n      mstore\n      0x04\n      add\n      tag_215\n      swap1\n      tag_216\n      jump\t// in\n    tag_215:\n      mload(0x40)\n      dup1\n      swap2\n      sub\n      swap1\n      revert\n    tag_214:\n        /* \"gist-bbe3d2eec72b27de020fc2e5b9189a4a/Staking.sol\":15738:15751  amountEarned_ */\n      dup1\n        /* \"gist-bbe3d2eec72b27de020fc2e5b9189a4a/Staking.sol\":15710:15723  grantedTokens */\n      0x04\n        /* \"gist-bbe3d2eec72b27de020fc2e5b9189a4a/Staking.sol\":15710:15735  grantedTokens[recipient_] */\n      0x00\n        /* \"gist-bbe3d2eec72b27de020fc2e5b9189a4a/Staking.sol\":15724:15734  recipient_ */\n      dup5\n        /* \"gist-bbe3d2eec72b27de020fc2e5b9189a4a/Staking.sol\":15710:15735  grantedTokens[recipient_] */\n      0xffffffffffffffffffffffffffffffffffffffff\n      and\n      0xffffffffffffffffffffffffffffffffffffffff\n      and\n      dup2\n      mstore\n      0x20\n      add\n      swap1\n      dup2\n      mstore\n      0x20\n      add\n      0x00\n      keccak256\n        /* \"gist-bbe3d2eec72b27de020fc2e5b9189a4a/Staking.sol\":15710:15751  grantedTokens[recipient_] = amountEarned_ */\n      dup2\n      swap1\n      sstore\n      pop\n        /* \"gist-bbe3d2eec72b27de020fc2e5b9189a4a/Staking.sol\":15766:15806  RewardGranted(recipient_, amountEarned_) */\n      0x6e1afd29522b0aaf986597bcc53f5fb4daae2af7cfd41d00c384ab1bdf912b23\n        /* \"gist-bbe3d2eec72b27de020fc2e5b9189a4a/Staking.sol\":15780:15790  recipient_ */\n      dup3\n        /* \"gist-bbe3d2eec72b27de020fc2e5b9189a4a/Staking.sol\":15792:15805  amountEarned_ */\n      dup3\n        /* \"gist-bbe3d2eec72b27de020fc2e5b9189a4a/Staking.sol\":15766:15806  RewardGranted(recipient_, amountEarned_) */\n      mload(0x40)\n      tag_217\n      swap3\n      swap2\n      swap1\n      tag_143\n      jump\t// in\n    tag_217:\n      mload(0x40)\n      dup1\n      swap2\n      sub\n      swap1\n      log1\n        /* \"gist-bbe3d2eec72b27de020fc2e5b9189a4a/Staking.sol\":15453:15813  function _grantTokens(address recipient_, uint256 amountEarned_) internal {... */\n      pop\n      pop\n      jump\t// out\n        /* \"gist-bbe3d2eec72b27de020fc2e5b9189a4a/Staking.sol\":16348:16505  function _releasableAmount(address recipient_) internal view returns (uint256) {... */\n    tag_137:\n        /* \"gist-bbe3d2eec72b27de020fc2e5b9189a4a/Staking.sol\":16418:16425  uint256 */\n      0x00\n        /* \"gist-bbe3d2eec72b27de020fc2e5b9189a4a/Staking.sol\":16472:16486  releasedTokens */\n      0x05\n        /* \"gist-bbe3d2eec72b27de020fc2e5b9189a4a/Staking.sol\":16472:16498  releasedTokens[recipient_] */\n      0x00\n        /* \"gist-bbe3d2eec72b27de020fc2e5b9189a4a/Staking.sol\":16487:16497  recipient_ */\n      dup4\n        /* \"gist-bbe3d2eec72b27de020fc2e5b9189a4a/Staking.sol\":16472:16498  releasedTokens[recipient_] */\n      0xffffffffffffffffffffffffffffffffffffffff\n      and\n      0xffffffffffffffffffffffffffffffffffffffff\n      and\n      dup2\n      mstore\n      0x20\n      add\n      swap1\n      dup2\n      mstore\n      0x20\n      add\n      0x00\n      keccak256\n      sload\n        /* \"gist-bbe3d2eec72b27de020fc2e5b9189a4a/Staking.sol\":16444:16469  _vestedAmount(recipient_) */\n      tag_219\n        /* \"gist-bbe3d2eec72b27de020fc2e5b9189a4a/Staking.sol\":16458:16468  recipient_ */\n      dup4\n        /* \"gist-bbe3d2eec72b27de020fc2e5b9189a4a/Staking.sol\":16444:16457  _vestedAmount */\n      tag_220\n        /* \"gist-bbe3d2eec72b27de020fc2e5b9189a4a/Staking.sol\":16444:16469  _vestedAmount(recipient_) */\n      jump\t// in\n    tag_219:\n        /* \"gist-bbe3d2eec72b27de020fc2e5b9189a4a/Staking.sol\":16444:16498  _vestedAmount(recipient_) - releasedTokens[recipient_] */\n      tag_221\n      swap2\n      swap1\n      tag_106\n      jump\t// in\n    tag_221:\n        /* \"gist-bbe3d2eec72b27de020fc2e5b9189a4a/Staking.sol\":16437:16498  return _vestedAmount(recipient_) - releasedTokens[recipient_] */\n      swap1\n      pop\n        /* \"gist-bbe3d2eec72b27de020fc2e5b9189a4a/Staking.sol\":16348:16505  function _releasableAmount(address recipient_) internal view returns (uint256) {... */\n      swap2\n      swap1\n      pop\n      jump\t// out\n        /* \"gist-bbe3d2eec72b27de020fc2e5b9189a4a/Staking.sol\":12532:13470  function _punishEarlyWithdrawal(Stake memory stake_) internal {... */\n    tag_201:\n        /* \"gist-bbe3d2eec72b27de020fc2e5b9189a4a/Staking.sol\":12913:12919  stake_ */\n      dup1\n        /* \"gist-bbe3d2eec72b27de020fc2e5b9189a4a/Staking.sol\":12913:12941  stake_.lockingPeriodInBlocks */\n      0x20\n      add\n      mload\n        /* \"gist-bbe3d2eec72b27de020fc2e5b9189a4a/Staking.sol\":12893:12941  stake_.startBlock + stake_.lockingPeriodInBlocks */\n      0xffffff\n      and\n        /* \"gist-bbe3d2eec72b27de020fc2e5b9189a4a/Staking.sol\":12893:12899  stake_ */\n      dup2\n        /* \"gist-bbe3d2eec72b27de020fc2e5b9189a4a/Staking.sol\":12893:12910  stake_.startBlock */\n      0x40\n      add\n      mload\n        /* \"gist-bbe3d2eec72b27de020fc2e5b9189a4a/Staking.sol\":12893:12941  stake_.startBlock + stake_.lockingPeriodInBlocks */\n      tag_223\n      swap2\n      swap1\n      tag_224\n      jump\t// in\n    tag_223:\n        /* \"gist-bbe3d2eec72b27de020fc2e5b9189a4a/Staking.sol\":12877:12942  block.number < (stake_.startBlock + stake_.lockingPeriodInBlocks) */\n      0xffffffff\n      and\n        /* \"gist-bbe3d2eec72b27de020fc2e5b9189a4a/Staking.sol\":12877:12889  block.number */\n      number\n        /* \"gist-bbe3d2eec72b27de020fc2e5b9189a4a/Staking.sol\":12877:12942  block.number < (stake_.startBlock + stake_.lockingPeriodInBlocks) */\n      lt\n        /* \"gist-bbe3d2eec72b27de020fc2e5b9189a4a/Staking.sol\":12873:13464  if (block.number < (stake_.startBlock + stake_.lockingPeriodInBlocks)) { // lt - cause you can only withdraw at or after startBlock + lockPeriod... */\n      iszero\n      tag_225\n      jumpi\n        /* \"gist-bbe3d2eec72b27de020fc2e5b9189a4a/Staking.sol\":13064:13070  stake_ */\n      dup1\n        /* \"gist-bbe3d2eec72b27de020fc2e5b9189a4a/Staking.sol\":13064:13098  stake_.expectedStakingRewardPoints */\n      0x60\n      add\n      mload\n        /* \"gist-bbe3d2eec72b27de020fc2e5b9189a4a/Staking.sol\":13030:13098  rewardPointsEarned[msg.sender] -= stake_.expectedStakingRewardPoints */\n      0xffffffffffffffffffffffffffffffff\n      and\n        /* \"gist-bbe3d2eec72b27de020fc2e5b9189a4a/Staking.sol\":13030:13048  rewardPointsEarned */\n      0x01\n        /* \"gist-bbe3d2eec72b27de020fc2e5b9189a4a/Staking.sol\":13030:13060  rewardPointsEarned[msg.sender] */\n      0x00\n        /* \"gist-bbe3d2eec72b27de020fc2e5b9189a4a/Staking.sol\":13049:13059  msg.sender */\n      caller\n        /* \"gist-bbe3d2eec72b27de020fc2e5b9189a4a/Staking.sol\":13030:13060  rewardPointsEarned[msg.sender] */\n      0xffffffffffffffffffffffffffffffffffffffff\n      and\n      0xffffffffffffffffffffffffffffffffffffffff\n      and\n      dup2\n      mstore\n      0x20\n      add\n      swap1\n      dup2\n      mstore\n      0x20\n      add\n      0x00\n      keccak256\n      0x00\n        /* \"gist-bbe3d2eec72b27de020fc2e5b9189a4a/Staking.sol\":13030:13098  rewardPointsEarned[msg.sender] -= stake_.expectedStakingRewardPoints */\n      dup3\n      dup3\n      sload\n      tag_226\n      swap2\n      swap1\n      tag_106\n      jump\t// in\n    tag_226:\n      swap3\n      pop\n      pop\n      dup2\n      swap1\n      sstore\n      pop\n        /* \"gist-bbe3d2eec72b27de020fc2e5b9189a4a/Staking.sol\":13133:13139  stake_ */\n      dup1\n        /* \"gist-bbe3d2eec72b27de020fc2e5b9189a4a/Staking.sol\":13133:13167  stake_.expectedStakingRewardPoints */\n      0x60\n      add\n      mload\n        /* \"gist-bbe3d2eec72b27de020fc2e5b9189a4a/Staking.sol\":13112:13167  totalRewardPoints -= stake_.expectedStakingRewardPoints */\n      0xffffffffffffffffffffffffffffffff\n      and\n        /* \"gist-bbe3d2eec72b27de020fc2e5b9189a4a/Staking.sol\":13112:13129  totalRewardPoints */\n      0x02\n      0x00\n        /* \"gist-bbe3d2eec72b27de020fc2e5b9189a4a/Staking.sol\":13112:13167  totalRewardPoints -= stake_.expectedStakingRewardPoints */\n      dup3\n      dup3\n      sload\n      tag_227\n      swap2\n      swap1\n      tag_106\n      jump\t// in\n    tag_227:\n      swap3\n      pop\n      pop\n      dup2\n      swap1\n      sstore\n      pop\n        /* \"gist-bbe3d2eec72b27de020fc2e5b9189a4a/Staking.sol\":13186:13306  StakeUnlockedPrematurely(msg.sender, stake_.tokenAmount, stake_.lockingPeriodInBlocks, block.number - stake_.startBlock) */\n      0x6c6f3c7d8c87976393011cc962da12841024bc1d62d2de21716a6306ab314ef3\n        /* \"gist-bbe3d2eec72b27de020fc2e5b9189a4a/Staking.sol\":13211:13221  msg.sender */\n      caller\n        /* \"gist-bbe3d2eec72b27de020fc2e5b9189a4a/Staking.sol\":13223:13229  stake_ */\n      dup3\n        /* \"gist-bbe3d2eec72b27de020fc2e5b9189a4a/Staking.sol\":13223:13241  stake_.tokenAmount */\n      0x00\n      add\n      mload\n        /* \"gist-bbe3d2eec72b27de020fc2e5b9189a4a/Staking.sol\":13243:13249  stake_ */\n      dup4\n        /* \"gist-bbe3d2eec72b27de020fc2e5b9189a4a/Staking.sol\":13243:13271  stake_.lockingPeriodInBlocks */\n      0x20\n      add\n      mload\n        /* \"gist-bbe3d2eec72b27de020fc2e5b9189a4a/Staking.sol\":13288:13294  stake_ */\n      dup5\n        /* \"gist-bbe3d2eec72b27de020fc2e5b9189a4a/Staking.sol\":13288:13305  stake_.startBlock */\n      0x40\n      add\n      mload\n        /* \"gist-bbe3d2eec72b27de020fc2e5b9189a4a/Staking.sol\":13273:13305  block.number - stake_.startBlock */\n      0xffffffff\n      and\n        /* \"gist-bbe3d2eec72b27de020fc2e5b9189a4a/Staking.sol\":13273:13285  block.number */\n      number\n        /* \"gist-bbe3d2eec72b27de020fc2e5b9189a4a/Staking.sol\":13273:13305  block.number - stake_.startBlock */\n      tag_228\n      swap2\n      swap1\n      tag_106\n      jump\t// in\n    tag_228:\n        /* \"gist-bbe3d2eec72b27de020fc2e5b9189a4a/Staking.sol\":13186:13306  StakeUnlockedPrematurely(msg.sender, stake_.tokenAmount, stake_.lockingPeriodInBlocks, block.number - stake_.startBlock) */\n      mload(0x40)\n      tag_229\n      swap5\n      swap4\n      swap3\n      swap2\n      swap1\n      tag_230\n      jump\t// in\n    tag_229:\n      mload(0x40)\n      dup1\n      swap2\n      sub\n      swap1\n      log1\n        /* \"gist-bbe3d2eec72b27de020fc2e5b9189a4a/Staking.sol\":12873:13464  if (block.number < (stake_.startBlock + stake_.lockingPeriodInBlocks)) { // lt - cause you can only withdraw at or after startBlock + lockPeriod... */\n      jump(tag_231)\n    tag_225:\n        /* \"gist-bbe3d2eec72b27de020fc2e5b9189a4a/Staking.sol\":13342:13453  StakeUnlocked(msg.sender, stake_.tokenAmount, stake_.lockingPeriodInBlocks, stake_.expectedStakingRewardPoints) */\n      0x391930ab48e95a9040c849cc86e1b2f63c711a1f59d6e324ce775dc9a0051056\n        /* \"gist-bbe3d2eec72b27de020fc2e5b9189a4a/Staking.sol\":13356:13366  msg.sender */\n      caller\n        /* \"gist-bbe3d2eec72b27de020fc2e5b9189a4a/Staking.sol\":13368:13374  stake_ */\n      dup3\n        /* \"gist-bbe3d2eec72b27de020fc2e5b9189a4a/Staking.sol\":13368:13386  stake_.tokenAmount */\n      0x00\n      add\n      mload\n        /* \"gist-bbe3d2eec72b27de020fc2e5b9189a4a/Staking.sol\":13388:13394  stake_ */\n      dup4\n        /* \"gist-bbe3d2eec72b27de020fc2e5b9189a4a/Staking.sol\":13388:13416  stake_.lockingPeriodInBlocks */\n      0x20\n      add\n      mload\n        /* \"gist-bbe3d2eec72b27de020fc2e5b9189a4a/Staking.sol\":13418:13424  stake_ */\n      dup5\n        /* \"gist-bbe3d2eec72b27de020fc2e5b9189a4a/Staking.sol\":13418:13452  stake_.expectedStakingRewardPoints */\n      0x60\n      add\n      mload\n        /* \"gist-bbe3d2eec72b27de020fc2e5b9189a4a/Staking.sol\":13342:13453  StakeUnlocked(msg.sender, stake_.tokenAmount, stake_.lockingPeriodInBlocks, stake_.expectedStakingRewardPoints) */\n      mload(0x40)\n      tag_232\n      swap5\n      swap4\n      swap3\n      swap2\n      swap1\n      tag_128\n      jump\t// in\n    tag_232:\n      mload(0x40)\n      dup1\n      swap2\n      sub\n      swap1\n      log1\n        /* \"gist-bbe3d2eec72b27de020fc2e5b9189a4a/Staking.sol\":12873:13464  if (block.number < (stake_.startBlock + stake_.lockingPeriodInBlocks)) { // lt - cause you can only withdraw at or after startBlock + lockPeriod... */\n    tag_231:\n        /* \"gist-bbe3d2eec72b27de020fc2e5b9189a4a/Staking.sol\":12532:13470  function _punishEarlyWithdrawal(Stake memory stake_) internal {... */\n      pop\n      jump\t// out\n        /* \"gist-bbe3d2eec72b27de020fc2e5b9189a4a/Staking.sol\":16729:17215  function _vestedAmount(address recipient_) internal view returns (uint256) {... */\n    tag_220:\n        /* \"gist-bbe3d2eec72b27de020fc2e5b9189a4a/Staking.sol\":16795:16802  uint256 */\n      0x00\n        /* \"gist-bbe3d2eec72b27de020fc2e5b9189a4a/Staking.sol\":16860:16875  vestingDuration */\n      immutable(\"0xd772c1d26a64e4114af99655ec353dc3dba1b12ba483c0fc852e01d0432d3aa1\")\n        /* \"gist-bbe3d2eec72b27de020fc2e5b9189a4a/Staking.sol\":16834:16857  stakingProgramEndsBlock */\n      immutable(\"0xe41a685dc3df81383d452481451b89eb3f69781b836c19936fa9714a13d1c9c2\")\n        /* \"gist-bbe3d2eec72b27de020fc2e5b9189a4a/Staking.sol\":16834:16875  stakingProgramEndsBlock + vestingDuration */\n      tag_234\n      swap2\n      swap1\n      tag_115\n      jump\t// in\n    tag_234:\n        /* \"gist-bbe3d2eec72b27de020fc2e5b9189a4a/Staking.sol\":16818:16830  block.number */\n      number\n        /* \"gist-bbe3d2eec72b27de020fc2e5b9189a4a/Staking.sol\":16818:16875  block.number >= stakingProgramEndsBlock + vestingDuration */\n      lt\n        /* \"gist-bbe3d2eec72b27de020fc2e5b9189a4a/Staking.sol\":16814:17209  if (block.number >= stakingProgramEndsBlock + vestingDuration) {... */\n      tag_235\n      jumpi\n        /* \"gist-bbe3d2eec72b27de020fc2e5b9189a4a/Staking.sol\":16970:16983  grantedTokens */\n      0x04\n        /* \"gist-bbe3d2eec72b27de020fc2e5b9189a4a/Staking.sol\":16970:16995  grantedTokens[recipient_] */\n      0x00\n        /* \"gist-bbe3d2eec72b27de020fc2e5b9189a4a/Staking.sol\":16984:16994  recipient_ */\n      dup4\n        /* \"gist-bbe3d2eec72b27de020fc2e5b9189a4a/Staking.sol\":16970:16995  grantedTokens[recipient_] */\n      0xffffffffffffffffffffffffffffffffffffffff\n      and\n      0xffffffffffffffffffffffffffffffffffffffff\n      and\n      dup2\n      mstore\n      0x20\n      add\n      swap1\n      dup2\n      mstore\n      0x20\n      add\n      0x00\n      keccak256\n      sload\n        /* \"gist-bbe3d2eec72b27de020fc2e5b9189a4a/Staking.sol\":16963:16995  return grantedTokens[recipient_] */\n      swap1\n      pop\n      jump(tag_233)\n        /* \"gist-bbe3d2eec72b27de020fc2e5b9189a4a/Staking.sol\":16814:17209  if (block.number >= stakingProgramEndsBlock + vestingDuration) {... */\n    tag_235:\n        /* \"gist-bbe3d2eec72b27de020fc2e5b9189a4a/Staking.sol\":17183:17198  vestingDuration */\n      immutable(\"0xd772c1d26a64e4114af99655ec353dc3dba1b12ba483c0fc852e01d0432d3aa1\")\n        /* \"gist-bbe3d2eec72b27de020fc2e5b9189a4a/Staking.sol\":17156:17179  stakingProgramEndsBlock */\n      immutable(\"0xe41a685dc3df81383d452481451b89eb3f69781b836c19936fa9714a13d1c9c2\")\n        /* \"gist-bbe3d2eec72b27de020fc2e5b9189a4a/Staking.sol\":17141:17153  block.number */\n      number\n        /* \"gist-bbe3d2eec72b27de020fc2e5b9189a4a/Staking.sol\":17141:17179  block.number - stakingProgramEndsBlock */\n      tag_237\n      swap2\n      swap1\n      tag_106\n      jump\t// in\n    tag_237:\n        /* \"gist-bbe3d2eec72b27de020fc2e5b9189a4a/Staking.sol\":17112:17125  grantedTokens */\n      0x04\n        /* \"gist-bbe3d2eec72b27de020fc2e5b9189a4a/Staking.sol\":17112:17137  grantedTokens[recipient_] */\n      0x00\n        /* \"gist-bbe3d2eec72b27de020fc2e5b9189a4a/Staking.sol\":17126:17136  recipient_ */\n      dup6\n        /* \"gist-bbe3d2eec72b27de020fc2e5b9189a4a/Staking.sol\":17112:17137  grantedTokens[recipient_] */\n      0xffffffffffffffffffffffffffffffffffffffff\n      and\n      0xffffffffffffffffffffffffffffffffffffffff\n      and\n      dup2\n      mstore\n      0x20\n      add\n      swap1\n      dup2\n      mstore\n      0x20\n      add\n      0x00\n      keccak256\n      sload\n        /* \"gist-bbe3d2eec72b27de020fc2e5b9189a4a/Staking.sol\":17112:17180  grantedTokens[recipient_] * (block.number - stakingProgramEndsBlock) */\n      tag_238\n      swap2\n      swap1\n      tag_95\n      jump\t// in\n    tag_238:\n        /* \"gist-bbe3d2eec72b27de020fc2e5b9189a4a/Staking.sol\":17112:17198  grantedTokens[recipient_] * (block.number - stakingProgramEndsBlock) / vestingDuration */\n      tag_239\n      swap2\n      swap1\n      tag_97\n      jump\t// in\n    tag_239:\n        /* \"gist-bbe3d2eec72b27de020fc2e5b9189a4a/Staking.sol\":17105:17198  return grantedTokens[recipient_] * (block.number - stakingProgramEndsBlock) / vestingDuration */\n      swap1\n      pop\n        /* \"gist-bbe3d2eec72b27de020fc2e5b9189a4a/Staking.sol\":16729:17215  function _vestedAmount(address recipient_) internal view returns (uint256) {... */\n    tag_233:\n      swap2\n      swap1\n      pop\n      jump\t// out\n        /* \"#utility.yul\":7:146   */\n    tag_241:\n        /* \"#utility.yul\":53:58   */\n      0x00\n        /* \"#utility.yul\":91:97   */\n      dup2\n        /* \"#utility.yul\":78:98   */\n      calldataload\n        /* \"#utility.yul\":69:98   */\n      swap1\n      pop\n        /* \"#utility.yul\":107:140   */\n      tag_243\n        /* \"#utility.yul\":134:139   */\n      dup2\n        /* \"#utility.yul\":107:140   */\n      tag_244\n      jump\t// in\n    tag_243:\n        /* \"#utility.yul\":59:146   */\n      swap3\n      swap2\n      pop\n      pop\n      jump\t// out\n        /* \"#utility.yul\":152:289   */\n    tag_245:\n        /* \"#utility.yul\":206:211   */\n      0x00\n        /* \"#utility.yul\":237:243   */\n      dup2\n        /* \"#utility.yul\":231:244   */\n      mload\n        /* \"#utility.yul\":222:244   */\n      swap1\n      pop\n        /* \"#utility.yul\":253:283   */\n      tag_247\n        /* \"#utility.yul\":277:282   */\n      dup2\n        /* \"#utility.yul\":253:283   */\n      tag_248\n      jump\t// in\n    tag_247:\n        /* \"#utility.yul\":212:289   */\n      swap3\n      swap2\n      pop\n      pop\n      jump\t// out\n        /* \"#utility.yul\":295:432   */\n    tag_249:\n        /* \"#utility.yul\":340:345   */\n      0x00\n        /* \"#utility.yul\":378:384   */\n      dup2\n        /* \"#utility.yul\":365:385   */\n      calldataload\n        /* \"#utility.yul\":356:385   */\n      swap1\n      pop\n        /* \"#utility.yul\":394:426   */\n      tag_251\n        /* \"#utility.yul\":420:425   */\n      dup2\n        /* \"#utility.yul\":394:426   */\n      tag_252\n      jump\t// in\n    tag_251:\n        /* \"#utility.yul\":346:432   */\n      swap3\n      swap2\n      pop\n      pop\n      jump\t// out\n        /* \"#utility.yul\":438:581   */\n    tag_253:\n        /* \"#utility.yul\":495:500   */\n      0x00\n        /* \"#utility.yul\":526:532   */\n      dup2\n        /* \"#utility.yul\":520:533   */\n      mload\n        /* \"#utility.yul\":511:533   */\n      swap1\n      pop\n        /* \"#utility.yul\":542:575   */\n      tag_255\n        /* \"#utility.yul\":569:574   */\n      dup2\n        /* \"#utility.yul\":542:575   */\n      tag_256\n      jump\t// in\n    tag_255:\n        /* \"#utility.yul\":501:581   */\n      swap3\n      swap2\n      pop\n      pop\n      jump\t// out\n        /* \"#utility.yul\":587:724   */\n    tag_257:\n        /* \"#utility.yul\":632:637   */\n      0x00\n        /* \"#utility.yul\":670:676   */\n      dup2\n        /* \"#utility.yul\":657:677   */\n      calldataload\n        /* \"#utility.yul\":648:677   */\n      swap1\n      pop\n        /* \"#utility.yul\":686:718   */\n      tag_259\n        /* \"#utility.yul\":712:717   */\n      dup2\n        /* \"#utility.yul\":686:718   */\n      tag_260\n      jump\t// in\n    tag_259:\n        /* \"#utility.yul\":638:724   */\n      swap3\n      swap2\n      pop\n      pop\n      jump\t// out\n        /* \"#utility.yul\":730:992   */\n    tag_31:\n        /* \"#utility.yul\":789:795   */\n      0x00\n        /* \"#utility.yul\":838:840   */\n      0x20\n        /* \"#utility.yul\":826:835   */\n      dup3\n        /* \"#utility.yul\":817:824   */\n      dup5\n        /* \"#utility.yul\":813:836   */\n      sub\n        /* \"#utility.yul\":809:841   */\n      slt\n        /* \"#utility.yul\":806:808   */\n      iszero\n      tag_262\n      jumpi\n        /* \"#utility.yul\":854:855   */\n      0x00\n        /* \"#utility.yul\":851:852   */\n      dup1\n        /* \"#utility.yul\":844:856   */\n      revert\n        /* \"#utility.yul\":806:808   */\n    tag_262:\n        /* \"#utility.yul\":897:898   */\n      0x00\n        /* \"#utility.yul\":922:975   */\n      tag_263\n        /* \"#utility.yul\":967:974   */\n      dup5\n        /* \"#utility.yul\":958:964   */\n      dup3\n        /* \"#utility.yul\":947:956   */\n      dup6\n        /* \"#utility.yul\":943:965   */\n      add\n        /* \"#utility.yul\":922:975   */\n      tag_241\n      jump\t// in\n    tag_263:\n        /* \"#utility.yul\":912:975   */\n      swap2\n      pop\n        /* \"#utility.yul\":868:985   */\n      pop\n        /* \"#utility.yul\":796:992   */\n      swap3\n      swap2\n      pop\n      pop\n      jump\t// out\n        /* \"#utility.yul\":998:1405   */\n    tag_80:\n        /* \"#utility.yul\":1066:1072   */\n      0x00\n        /* \"#utility.yul\":1074:1080   */\n      dup1\n        /* \"#utility.yul\":1123:1125   */\n      0x40\n        /* \"#utility.yul\":1111:1120   */\n      dup4\n        /* \"#utility.yul\":1102:1109   */\n      dup6\n        /* \"#utility.yul\":1098:1121   */\n      sub\n        /* \"#utility.yul\":1094:1126   */\n      slt\n        /* \"#utility.yul\":1091:1093   */\n      iszero\n      tag_265\n      jumpi\n        /* \"#utility.yul\":1139:1140   */\n      0x00\n        /* \"#utility.yul\":1136:1137   */\n      dup1\n        /* \"#utility.yul\":1129:1141   */\n      revert\n        /* \"#utility.yul\":1091:1093   */\n    tag_265:\n        /* \"#utility.yul\":1182:1183   */\n      0x00\n        /* \"#utility.yul\":1207:1260   */\n      tag_266\n        /* \"#utility.yul\":1252:1259   */\n      dup6\n        /* \"#utility.yul\":1243:1249   */\n      dup3\n        /* \"#utility.yul\":1232:1241   */\n      dup7\n        /* \"#utility.yul\":1228:1250   */\n      add\n        /* \"#utility.yul\":1207:1260   */\n      tag_241\n      jump\t// in\n    tag_266:\n        /* \"#utility.yul\":1197:1260   */\n      swap3\n      pop\n        /* \"#utility.yul\":1153:1270   */\n      pop\n        /* \"#utility.yul\":1309:1311   */\n      0x20\n        /* \"#utility.yul\":1335:1388   */\n      tag_267\n        /* \"#utility.yul\":1380:1387   */\n      dup6\n        /* \"#utility.yul\":1371:1377   */\n      dup3\n        /* \"#utility.yul\":1360:1369   */\n      dup7\n        /* \"#utility.yul\":1356:1378   */\n      add\n        /* \"#utility.yul\":1335:1388   */\n      tag_241\n      jump\t// in\n    tag_267:\n        /* \"#utility.yul\":1325:1388   */\n      swap2\n      pop\n        /* \"#utility.yul\":1280:1398   */\n      pop\n        /* \"#utility.yul\":1081:1405   */\n      swap3\n      pop\n      swap3\n      swap1\n      pop\n      jump\t// out\n        /* \"#utility.yul\":1411:1689   */\n    tag_123:\n        /* \"#utility.yul\":1478:1484   */\n      0x00\n        /* \"#utility.yul\":1527:1529   */\n      0x20\n        /* \"#utility.yul\":1515:1524   */\n      dup3\n        /* \"#utility.yul\":1506:1513   */\n      dup5\n        /* \"#utility.yul\":1502:1525   */\n      sub\n        /* \"#utility.yul\":1498:1530   */\n      slt\n        /* \"#utility.yul\":1495:1497   */\n      iszero\n      tag_269\n      jumpi\n        /* \"#utility.yul\":1543:1544   */\n      0x00\n        /* \"#utility.yul\":1540:1541   */\n      dup1\n        /* \"#utility.yul\":1533:1545   */\n      revert\n        /* \"#utility.yul\":1495:1497   */\n    tag_269:\n        /* \"#utility.yul\":1586:1587   */\n      0x00\n        /* \"#utility.yul\":1611:1672   */\n      tag_270\n        /* \"#utility.yul\":1664:1671   */\n      dup5\n        /* \"#utility.yul\":1655:1661   */\n      dup3\n        /* \"#utility.yul\":1644:1653   */\n      dup6\n        /* \"#utility.yul\":1640:1662   */\n      add\n        /* \"#utility.yul\":1611:1672   */\n      tag_245\n      jump\t// in\n    tag_270:\n        /* \"#utility.yul\":1601:1672   */\n      swap2\n      pop\n        /* \"#utility.yul\":1557:1682   */\n      pop\n        /* \"#utility.yul\":1485:1689   */\n      swap3\n      swap2\n      pop\n      pop\n      jump\t// out\n        /* \"#utility.yul\":1695:1979   */\n    tag_168:\n        /* \"#utility.yul\":1765:1771   */\n      0x00\n        /* \"#utility.yul\":1814:1816   */\n      0x20\n        /* \"#utility.yul\":1802:1811   */\n      dup3\n        /* \"#utility.yul\":1793:1800   */\n      dup5\n        /* \"#utility.yul\":1789:1812   */\n      sub\n        /* \"#utility.yul\":1785:1817   */\n      slt\n        /* \"#utility.yul\":1782:1784   */\n      iszero\n      tag_272\n      jumpi\n        /* \"#utility.yul\":1830:1831   */\n      0x00\n        /* \"#utility.yul\":1827:1828   */\n      dup1\n        /* \"#utility.yul\":1820:1832   */\n      revert\n        /* \"#utility.yul\":1782:1784   */\n    tag_272:\n        /* \"#utility.yul\":1873:1874   */\n      0x00\n        /* \"#utility.yul\":1898:1962   */\n      tag_273\n        /* \"#utility.yul\":1954:1961   */\n      dup5\n        /* \"#utility.yul\":1945:1951   */\n      dup3\n        /* \"#utility.yul\":1934:1943   */\n      dup6\n        /* \"#utility.yul\":1930:1952   */\n      add\n        /* \"#utility.yul\":1898:1962   */\n      tag_253\n      jump\t// in\n    tag_273:\n        /* \"#utility.yul\":1888:1962   */\n      swap2\n      pop\n        /* \"#utility.yul\":1844:1972   */\n      pop\n        /* \"#utility.yul\":1772:1979   */\n      swap3\n      swap2\n      pop\n      pop\n      jump\t// out\n        /* \"#utility.yul\":1985:2388   */\n    tag_37:\n        /* \"#utility.yul\":2051:2057   */\n      0x00\n        /* \"#utility.yul\":2059:2065   */\n      dup1\n        /* \"#utility.yul\":2108:2110   */\n      0x40\n        /* \"#utility.yul\":2096:2105   */\n      dup4\n        /* \"#utility.yul\":2087:2094   */\n      dup6\n        /* \"#utility.yul\":2083:2106   */\n      sub\n        /* \"#utility.yul\":2079:2111   */\n      slt\n        /* \"#utility.yul\":2076:2078   */\n      iszero\n      tag_275\n      jumpi\n        /* \"#utility.yul\":2124:2125   */\n      0x00\n        /* \"#utility.yul\":2121:2122   */\n      dup1\n        /* \"#utility.yul\":2114:2126   */\n      revert\n        /* \"#utility.yul\":2076:2078   */\n    tag_275:\n        /* \"#utility.yul\":2167:2168   */\n      0x00\n        /* \"#utility.yul\":2192:2244   */\n      tag_276\n        /* \"#utility.yul\":2236:2243   */\n      dup6\n        /* \"#utility.yul\":2227:2233   */\n      dup3\n        /* \"#utility.yul\":2216:2225   */\n      dup7\n        /* \"#utility.yul\":2212:2234   */\n      add\n        /* \"#utility.yul\":2192:2244   */\n      tag_257\n      jump\t// in\n    tag_276:\n        /* \"#utility.yul\":2182:2244   */\n      swap3\n      pop\n        /* \"#utility.yul\":2138:2254   */\n      pop\n        /* \"#utility.yul\":2293:2295   */\n      0x20\n        /* \"#utility.yul\":2319:2371   */\n      tag_277\n        /* \"#utility.yul\":2363:2370   */\n      dup6\n        /* \"#utility.yul\":2354:2360   */\n      dup3\n        /* \"#utility.yul\":2343:2352   */\n      dup7\n        /* \"#utility.yul\":2339:2361   */\n      add\n        /* \"#utility.yul\":2319:2371   */\n      tag_249\n      jump\t// in\n    tag_277:\n        /* \"#utility.yul\":2309:2371   */\n      swap2\n      pop\n        /* \"#utility.yul\":2264:2381   */\n      pop\n        /* \"#utility.yul\":2066:2388   */\n      swap3\n      pop\n      swap3\n      swap1\n      pop\n      jump\t// out\n        /* \"#utility.yul\":2394:2512   */\n    tag_278:\n        /* \"#utility.yul\":2481:2505   */\n      tag_280\n        /* \"#utility.yul\":2499:2504   */\n      dup2\n        /* \"#utility.yul\":2481:2505   */\n      tag_281\n      jump\t// in\n    tag_280:\n        /* \"#utility.yul\":2476:2479   */\n      dup3\n        /* \"#utility.yul\":2469:2506   */\n      mstore\n        /* \"#utility.yul\":2459:2512   */\n      pop\n      pop\n      jump\t// out\n        /* \"#utility.yul\":2518:2675   */\n    tag_282:\n        /* \"#utility.yul\":2618:2668   */\n      tag_284\n        /* \"#utility.yul\":2662:2667   */\n      dup2\n        /* \"#utility.yul\":2618:2668   */\n      tag_285\n      jump\t// in\n    tag_284:\n        /* \"#utility.yul\":2613:2616   */\n      dup3\n        /* \"#utility.yul\":2606:2669   */\n      mstore\n        /* \"#utility.yul\":2596:2675   */\n      pop\n      pop\n      jump\t// out\n        /* \"#utility.yul\":2681:3047   */\n    tag_286:\n        /* \"#utility.yul\":2823:2826   */\n      0x00\n        /* \"#utility.yul\":2844:2911   */\n      tag_288\n        /* \"#utility.yul\":2908:2910   */\n      0x1d\n        /* \"#utility.yul\":2903:2906   */\n      dup4\n        /* \"#utility.yul\":2844:2911   */\n      tag_289\n      jump\t// in\n    tag_288:\n        /* \"#utility.yul\":2837:2911   */\n      swap2\n      pop\n        /* \"#utility.yul\":2920:3013   */\n      tag_290\n        /* \"#utility.yul\":3009:3012   */\n      dup3\n        /* \"#utility.yul\":2920:3013   */\n      tag_291\n      jump\t// in\n    tag_290:\n        /* \"#utility.yul\":3038:3040   */\n      0x20\n        /* \"#utility.yul\":3033:3036   */\n      dup3\n        /* \"#utility.yul\":3029:3041   */\n      add\n        /* \"#utility.yul\":3022:3041   */\n      swap1\n      pop\n        /* \"#utility.yul\":2827:3047   */\n      swap2\n      swap1\n      pop\n      jump\t// out\n        /* \"#utility.yul\":3053:3419   */\n    tag_292:\n        /* \"#utility.yul\":3195:3198   */\n      0x00\n        /* \"#utility.yul\":3216:3283   */\n      tag_294\n        /* \"#utility.yul\":3280:3282   */\n      0x22\n        /* \"#utility.yul\":3275:3278   */\n      dup4\n        /* \"#utility.yul\":3216:3283   */\n      tag_289\n      jump\t// in\n    tag_294:\n        /* \"#utility.yul\":3209:3283   */\n      swap2\n      pop\n        /* \"#utility.yul\":3292:3385   */\n      tag_295\n        /* \"#utility.yul\":3381:3384   */\n      dup3\n        /* \"#utility.yul\":3292:3385   */\n      tag_296\n      jump\t// in\n    tag_295:\n        /* \"#utility.yul\":3410:3412   */\n      0x40\n        /* \"#utility.yul\":3405:3408   */\n      dup3\n        /* \"#utility.yul\":3401:3413   */\n      add\n        /* \"#utility.yul\":3394:3413   */\n      swap1\n      pop\n        /* \"#utility.yul\":3199:3419   */\n      swap2\n      swap1\n      pop\n      jump\t// out\n        /* \"#utility.yul\":3425:3791   */\n    tag_297:\n        /* \"#utility.yul\":3567:3570   */\n      0x00\n        /* \"#utility.yul\":3588:3655   */\n      tag_299\n        /* \"#utility.yul\":3652:3654   */\n      0x2d\n        /* \"#utility.yul\":3647:3650   */\n      dup4\n        /* \"#utility.yul\":3588:3655   */\n      tag_289\n      jump\t// in\n    tag_299:\n        /* \"#utility.yul\":3581:3655   */\n      swap2\n      pop\n        /* \"#utility.yul\":3664:3757   */\n      tag_300\n        /* \"#utility.yul\":3753:3756   */\n      dup3\n        /* \"#utility.yul\":3664:3757   */\n      tag_301\n      jump\t// in\n    tag_300:\n        /* \"#utility.yul\":3782:3784   */\n      0x40\n        /* \"#utility.yul\":3777:3780   */\n      dup3\n        /* \"#utility.yul\":3773:3785   */\n      add\n        /* \"#utility.yul\":3766:3785   */\n      swap1\n      pop\n        /* \"#utility.yul\":3571:3791   */\n      swap2\n      swap1\n      pop\n      jump\t// out\n        /* \"#utility.yul\":3797:4163   */\n    tag_302:\n        /* \"#utility.yul\":3939:3942   */\n      0x00\n        /* \"#utility.yul\":3960:4027   */\n      tag_304\n        /* \"#utility.yul\":4024:4026   */\n      0x1a\n        /* \"#utility.yul\":4019:4022   */\n      dup4\n        /* \"#utility.yul\":3960:4027   */\n      tag_289\n      jump\t// in\n    tag_304:\n        /* \"#utility.yul\":3953:4027   */\n      swap2\n      pop\n        /* \"#utility.yul\":4036:4129   */\n      tag_305\n        /* \"#utility.yul\":4125:4128   */\n      dup3\n        /* \"#utility.yul\":4036:4129   */\n      tag_306\n      jump\t// in\n    tag_305:\n        /* \"#utility.yul\":4154:4156   */\n      0x20\n        /* \"#utility.yul\":4149:4152   */\n      dup3\n        /* \"#utility.yul\":4145:4157   */\n      add\n        /* \"#utility.yul\":4138:4157   */\n      swap1\n      pop\n        /* \"#utility.yul\":3943:4163   */\n      swap2\n      swap1\n      pop\n      jump\t// out\n        /* \"#utility.yul\":4169:4535   */\n    tag_307:\n        /* \"#utility.yul\":4311:4314   */\n      0x00\n        /* \"#utility.yul\":4332:4399   */\n      tag_309\n        /* \"#utility.yul\":4396:4398   */\n      0x50\n        /* \"#utility.yul\":4391:4394   */\n      dup4\n        /* \"#utility.yul\":4332:4399   */\n      tag_289\n      jump\t// in\n    tag_309:\n        /* \"#utility.yul\":4325:4399   */\n      swap2\n      pop\n        /* \"#utility.yul\":4408:4501   */\n      tag_310\n        /* \"#utility.yul\":4497:4500   */\n      dup3\n        /* \"#utility.yul\":4408:4501   */\n      tag_311\n      jump\t// in\n    tag_310:\n        /* \"#utility.yul\":4526:4528   */\n      0x60\n        /* \"#utility.yul\":4521:4524   */\n      dup3\n        /* \"#utility.yul\":4517:4529   */\n      add\n        /* \"#utility.yul\":4510:4529   */\n      swap1\n      pop\n        /* \"#utility.yul\":4315:4535   */\n      swap2\n      swap1\n      pop\n      jump\t// out\n        /* \"#utility.yul\":4541:4907   */\n    tag_312:\n        /* \"#utility.yul\":4683:4686   */\n      0x00\n        /* \"#utility.yul\":4704:4771   */\n      tag_314\n        /* \"#utility.yul\":4768:4770   */\n      0x20\n        /* \"#utility.yul\":4763:4766   */\n      dup4\n        /* \"#utility.yul\":4704:4771   */\n      tag_289\n      jump\t// in\n    tag_314:\n        /* \"#utility.yul\":4697:4771   */\n      swap2\n      pop\n        /* \"#utility.yul\":4780:4873   */\n      tag_315\n        /* \"#utility.yul\":4869:4872   */\n      dup3\n        /* \"#utility.yul\":4780:4873   */\n      tag_316\n      jump\t// in\n    tag_315:\n        /* \"#utility.yul\":4898:4900   */\n      0x20\n        /* \"#utility.yul\":4893:4896   */\n      dup3\n        /* \"#utility.yul\":4889:4901   */\n      add\n        /* \"#utility.yul\":4882:4901   */\n      swap1\n      pop\n        /* \"#utility.yul\":4687:4907   */\n      swap2\n      swap1\n      pop\n      jump\t// out\n        /* \"#utility.yul\":4913:5279   */\n    tag_317:\n        /* \"#utility.yul\":5055:5058   */\n      0x00\n        /* \"#utility.yul\":5076:5143   */\n      tag_319\n        /* \"#utility.yul\":5140:5142   */\n      0x31\n        /* \"#utility.yul\":5135:5138   */\n      dup4\n        /* \"#utility.yul\":5076:5143   */\n      tag_289\n      jump\t// in\n    tag_319:\n        /* \"#utility.yul\":5069:5143   */\n      swap2\n      pop\n        /* \"#utility.yul\":5152:5245   */\n      tag_320\n        /* \"#utility.yul\":5241:5244   */\n      dup3\n        /* \"#utility.yul\":5152:5245   */\n      tag_321\n      jump\t// in\n    tag_320:\n        /* \"#utility.yul\":5270:5272   */\n      0x40\n        /* \"#utility.yul\":5265:5268   */\n      dup3\n        /* \"#utility.yul\":5261:5273   */\n      add\n        /* \"#utility.yul\":5254:5273   */\n      swap1\n      pop\n        /* \"#utility.yul\":5059:5279   */\n      swap2\n      swap1\n      pop\n      jump\t// out\n        /* \"#utility.yul\":5285:5651   */\n    tag_322:\n        /* \"#utility.yul\":5427:5430   */\n      0x00\n        /* \"#utility.yul\":5448:5515   */\n      tag_324\n        /* \"#utility.yul\":5512:5514   */\n      0x0f\n        /* \"#utility.yul\":5507:5510   */\n      dup4\n        /* \"#utility.yul\":5448:5515   */\n      tag_289\n      jump\t// in\n    tag_324:\n        /* \"#utility.yul\":5441:5515   */\n      swap2\n      pop\n        /* \"#utility.yul\":5524:5617   */\n      tag_325\n        /* \"#utility.yul\":5613:5616   */\n      dup3\n        /* \"#utility.yul\":5524:5617   */\n      tag_326\n      jump\t// in\n    tag_325:\n        /* \"#utility.yul\":5642:5644   */\n      0x20\n        /* \"#utility.yul\":5637:5640   */\n      dup3\n        /* \"#utility.yul\":5633:5645   */\n      add\n        /* \"#utility.yul\":5626:5645   */\n      swap1\n      pop\n        /* \"#utility.yul\":5431:5651   */\n      swap2\n      swap1\n      pop\n      jump\t// out\n        /* \"#utility.yul\":5657:6023   */\n    tag_327:\n        /* \"#utility.yul\":5799:5802   */\n      0x00\n        /* \"#utility.yul\":5820:5887   */\n      tag_329\n        /* \"#utility.yul\":5884:5886   */\n      0x29\n        /* \"#utility.yul\":5879:5882   */\n      dup4\n        /* \"#utility.yul\":5820:5887   */\n      tag_289\n      jump\t// in\n    tag_329:\n        /* \"#utility.yul\":5813:5887   */\n      swap2\n      pop\n        /* \"#utility.yul\":5896:5989   */\n      tag_330\n        /* \"#utility.yul\":5985:5988   */\n      dup3\n        /* \"#utility.yul\":5896:5989   */\n      tag_331\n      jump\t// in\n    tag_330:\n        /* \"#utility.yul\":6014:6016   */\n      0x40\n        /* \"#utility.yul\":6009:6012   */\n      dup3\n        /* \"#utility.yul\":6005:6017   */\n      add\n        /* \"#utility.yul\":5998:6017   */\n      swap1\n      pop\n        /* \"#utility.yul\":5803:6023   */\n      swap2\n      swap1\n      pop\n      jump\t// out\n        /* \"#utility.yul\":6029:6395   */\n    tag_332:\n        /* \"#utility.yul\":6171:6174   */\n      0x00\n        /* \"#utility.yul\":6192:6259   */\n      tag_334\n        /* \"#utility.yul\":6256:6258   */\n      0x33\n        /* \"#utility.yul\":6251:6254   */\n      dup4\n        /* \"#utility.yul\":6192:6259   */\n      tag_289\n      jump\t// in\n    tag_334:\n        /* \"#utility.yul\":6185:6259   */\n      swap2\n      pop\n        /* \"#utility.yul\":6268:6361   */\n      tag_335\n        /* \"#utility.yul\":6357:6360   */\n      dup3\n        /* \"#utility.yul\":6268:6361   */\n      tag_336\n      jump\t// in\n    tag_335:\n        /* \"#utility.yul\":6386:6388   */\n      0x40\n        /* \"#utility.yul\":6381:6384   */\n      dup3\n        /* \"#utility.yul\":6377:6389   */\n      add\n        /* \"#utility.yul\":6370:6389   */\n      swap1\n      pop\n        /* \"#utility.yul\":6175:6395   */\n      swap2\n      swap1\n      pop\n      jump\t// out\n        /* \"#utility.yul\":6401:6767   */\n    tag_337:\n        /* \"#utility.yul\":6543:6546   */\n      0x00\n        /* \"#utility.yul\":6564:6631   */\n      tag_339\n        /* \"#utility.yul\":6628:6630   */\n      0x3c\n        /* \"#utility.yul\":6623:6626   */\n      dup4\n        /* \"#utility.yul\":6564:6631   */\n      tag_289\n      jump\t// in\n    tag_339:\n        /* \"#utility.yul\":6557:6631   */\n      swap2\n      pop\n        /* \"#utility.yul\":6640:6733   */\n      tag_340\n        /* \"#utility.yul\":6729:6732   */\n      dup3\n        /* \"#utility.yul\":6640:6733   */\n      tag_341\n      jump\t// in\n    tag_340:\n        /* \"#utility.yul\":6758:6760   */\n      0x40\n        /* \"#utility.yul\":6753:6756   */\n      dup3\n        /* \"#utility.yul\":6749:6761   */\n      add\n        /* \"#utility.yul\":6742:6761   */\n      swap1\n      pop\n        /* \"#utility.yul\":6547:6767   */\n      swap2\n      swap1\n      pop\n      jump\t// out\n        /* \"#utility.yul\":6773:7139   */\n    tag_342:\n        /* \"#utility.yul\":6915:6918   */\n      0x00\n        /* \"#utility.yul\":6936:7003   */\n      tag_344\n        /* \"#utility.yul\":7000:7002   */\n      0x29\n        /* \"#utility.yul\":6995:6998   */\n      dup4\n        /* \"#utility.yul\":6936:7003   */\n      tag_289\n      jump\t// in\n    tag_344:\n        /* \"#utility.yul\":6929:7003   */\n      swap2\n      pop\n        /* \"#utility.yul\":7012:7105   */\n      tag_345\n        /* \"#utility.yul\":7101:7104   */\n      dup3\n        /* \"#utility.yul\":7012:7105   */\n      tag_346\n      jump\t// in\n    tag_345:\n        /* \"#utility.yul\":7130:7132   */\n      0x40\n        /* \"#utility.yul\":7125:7128   */\n      dup3\n        /* \"#utility.yul\":7121:7133   */\n      add\n        /* \"#utility.yul\":7114:7133   */\n      swap1\n      pop\n        /* \"#utility.yul\":6919:7139   */\n      swap2\n      swap1\n      pop\n      jump\t// out\n        /* \"#utility.yul\":7145:7511   */\n    tag_347:\n        /* \"#utility.yul\":7287:7290   */\n      0x00\n        /* \"#utility.yul\":7308:7375   */\n      tag_349\n        /* \"#utility.yul\":7372:7374   */\n      0x20\n        /* \"#utility.yul\":7367:7370   */\n      dup4\n        /* \"#utility.yul\":7308:7375   */\n      tag_289\n      jump\t// in\n    tag_349:\n        /* \"#utility.yul\":7301:7375   */\n      swap2\n      pop\n        /* \"#utility.yul\":7384:7477   */\n      tag_350\n        /* \"#utility.yul\":7473:7476   */\n      dup3\n        /* \"#utility.yul\":7384:7477   */\n      tag_351\n      jump\t// in\n    tag_350:\n        /* \"#utility.yul\":7502:7504   */\n      0x20\n        /* \"#utility.yul\":7497:7500   */\n      dup3\n        /* \"#utility.yul\":7493:7505   */\n      add\n        /* \"#utility.yul\":7486:7505   */\n      swap1\n      pop\n        /* \"#utility.yul\":7291:7511   */\n      swap2\n      swap1\n      pop\n      jump\t// out\n        /* \"#utility.yul\":7517:7883   */\n    tag_352:\n        /* \"#utility.yul\":7659:7662   */\n      0x00\n        /* \"#utility.yul\":7680:7747   */\n      tag_354\n        /* \"#utility.yul\":7744:7746   */\n      0x2b\n        /* \"#utility.yul\":7739:7742   */\n      dup4\n        /* \"#utility.yul\":7680:7747   */\n      tag_289\n      jump\t// in\n    tag_354:\n        /* \"#utility.yul\":7673:7747   */\n      swap2\n      pop\n        /* \"#utility.yul\":7756:7849   */\n      tag_355\n        /* \"#utility.yul\":7845:7848   */\n      dup3\n        /* \"#utility.yul\":7756:7849   */\n      tag_356\n      jump\t// in\n    tag_355:\n        /* \"#utility.yul\":7874:7876   */\n      0x40\n        /* \"#utility.yul\":7869:7872   */\n      dup3\n        /* \"#utility.yul\":7865:7877   */\n      add\n        /* \"#utility.yul\":7858:7877   */\n      swap1\n      pop\n        /* \"#utility.yul\":7663:7883   */\n      swap2\n      swap1\n      pop\n      jump\t// out\n        /* \"#utility.yul\":7889:8255   */\n    tag_357:\n        /* \"#utility.yul\":8031:8034   */\n      0x00\n        /* \"#utility.yul\":8052:8119   */\n      tag_359\n        /* \"#utility.yul\":8116:8118   */\n      0x11\n        /* \"#utility.yul\":8111:8114   */\n      dup4\n        /* \"#utility.yul\":8052:8119   */\n      tag_289\n      jump\t// in\n    tag_359:\n        /* \"#utility.yul\":8045:8119   */\n      swap2\n      pop\n        /* \"#utility.yul\":8128:8221   */\n      tag_360\n        /* \"#utility.yul\":8217:8220   */\n      dup3\n        /* \"#utility.yul\":8128:8221   */\n      tag_361\n      jump\t// in\n    tag_360:\n        /* \"#utility.yul\":8246:8248   */\n      0x20\n        /* \"#utility.yul\":8241:8244   */\n      dup3\n        /* \"#utility.yul\":8237:8249   */\n      add\n        /* \"#utility.yul\":8230:8249   */\n      swap1\n      pop\n        /* \"#utility.yul\":8035:8255   */\n      swap2\n      swap1\n      pop\n      jump\t// out\n        /* \"#utility.yul\":8261:8627   */\n    tag_362:\n        /* \"#utility.yul\":8403:8406   */\n      0x00\n        /* \"#utility.yul\":8424:8491   */\n      tag_364\n        /* \"#utility.yul\":8488:8490   */\n      0x21\n        /* \"#utility.yul\":8483:8486   */\n      dup4\n        /* \"#utility.yul\":8424:8491   */\n      tag_289\n      jump\t// in\n    tag_364:\n        /* \"#utility.yul\":8417:8491   */\n      swap2\n      pop\n        /* \"#utility.yul\":8500:8593   */\n      tag_365\n        /* \"#utility.yul\":8589:8592   */\n      dup3\n        /* \"#utility.yul\":8500:8593   */\n      tag_366\n      jump\t// in\n    tag_365:\n        /* \"#utility.yul\":8618:8620   */\n      0x40\n        /* \"#utility.yul\":8613:8616   */\n      dup3\n        /* \"#utility.yul\":8609:8621   */\n      add\n        /* \"#utility.yul\":8602:8621   */\n      swap1\n      pop\n        /* \"#utility.yul\":8407:8627   */\n      swap2\n      swap1\n      pop\n      jump\t// out\n        /* \"#utility.yul\":8633:8999   */\n    tag_367:\n        /* \"#utility.yul\":8775:8778   */\n      0x00\n        /* \"#utility.yul\":8796:8863   */\n      tag_369\n        /* \"#utility.yul\":8860:8862   */\n      0x1b\n        /* \"#utility.yul\":8855:8858   */\n      dup4\n        /* \"#utility.yul\":8796:8863   */\n      tag_289\n      jump\t// in\n    tag_369:\n        /* \"#utility.yul\":8789:8863   */\n      swap2\n      pop\n        /* \"#utility.yul\":8872:8965   */\n      tag_370\n        /* \"#utility.yul\":8961:8964   */\n      dup3\n        /* \"#utility.yul\":8872:8965   */\n      tag_371\n      jump\t// in\n    tag_370:\n        /* \"#utility.yul\":8990:8992   */\n      0x20\n        /* \"#utility.yul\":8985:8988   */\n      dup3\n        /* \"#utility.yul\":8981:8993   */\n      add\n        /* \"#utility.yul\":8974:8993   */\n      swap1\n      pop\n        /* \"#utility.yul\":8779:8999   */\n      swap2\n      swap1\n      pop\n      jump\t// out\n        /* \"#utility.yul\":9005:9371   */\n    tag_372:\n        /* \"#utility.yul\":9147:9150   */\n      0x00\n        /* \"#utility.yul\":9168:9235   */\n      tag_374\n        /* \"#utility.yul\":9232:9234   */\n      0x33\n        /* \"#utility.yul\":9227:9230   */\n      dup4\n        /* \"#utility.yul\":9168:9235   */\n      tag_289\n      jump\t// in\n    tag_374:\n        /* \"#utility.yul\":9161:9235   */\n      swap2\n      pop\n        /* \"#utility.yul\":9244:9337   */\n      tag_375\n        /* \"#utility.yul\":9333:9336   */\n      dup3\n        /* \"#utility.yul\":9244:9337   */\n      tag_376\n      jump\t// in\n    tag_375:\n        /* \"#utility.yul\":9362:9364   */\n      0x40\n        /* \"#utility.yul\":9357:9360   */\n      dup3\n        /* \"#utility.yul\":9353:9365   */\n      add\n        /* \"#utility.yul\":9346:9365   */\n      swap1\n      pop\n        /* \"#utility.yul\":9151:9371   */\n      swap2\n      swap1\n      pop\n      jump\t// out\n        /* \"#utility.yul\":9377:9743   */\n    tag_377:\n        /* \"#utility.yul\":9519:9522   */\n      0x00\n        /* \"#utility.yul\":9540:9607   */\n      tag_379\n        /* \"#utility.yul\":9604:9606   */\n      0x2b\n        /* \"#utility.yul\":9599:9602   */\n      dup4\n        /* \"#utility.yul\":9540:9607   */\n      tag_289\n      jump\t// in\n    tag_379:\n        /* \"#utility.yul\":9533:9607   */\n      swap2\n      pop\n        /* \"#utility.yul\":9616:9709   */\n      tag_380\n        /* \"#utility.yul\":9705:9708   */\n      dup3\n        /* \"#utility.yul\":9616:9709   */\n      tag_381\n      jump\t// in\n    tag_380:\n        /* \"#utility.yul\":9734:9736   */\n      0x40\n        /* \"#utility.yul\":9729:9732   */\n      dup3\n        /* \"#utility.yul\":9725:9737   */\n      add\n        /* \"#utility.yul\":9718:9737   */\n      swap1\n      pop\n        /* \"#utility.yul\":9523:9743   */\n      swap2\n      swap1\n      pop\n      jump\t// out\n        /* \"#utility.yul\":9749:10115   */\n    tag_382:\n        /* \"#utility.yul\":9891:9894   */\n      0x00\n        /* \"#utility.yul\":9912:9979   */\n      tag_384\n        /* \"#utility.yul\":9976:9978   */\n      0x1f\n        /* \"#utility.yul\":9971:9974   */\n      dup4\n        /* \"#utility.yul\":9912:9979   */\n      tag_289\n      jump\t// in\n    tag_384:\n        /* \"#utility.yul\":9905:9979   */\n      swap2\n      pop\n        /* \"#utility.yul\":9988:10081   */\n      tag_385\n        /* \"#utility.yul\":10077:10080   */\n      dup3\n        /* \"#utility.yul\":9988:10081   */\n      tag_386\n      jump\t// in\n    tag_385:\n        /* \"#utility.yul\":10106:10108   */\n      0x20\n        /* \"#utility.yul\":10101:10104   */\n      dup3\n        /* \"#utility.yul\":10097:10109   */\n      add\n        /* \"#utility.yul\":10090:10109   */\n      swap1\n      pop\n        /* \"#utility.yul\":9895:10115   */\n      swap2\n      swap1\n      pop\n      jump\t// out\n        /* \"#utility.yul\":10121:10487   */\n    tag_387:\n        /* \"#utility.yul\":10263:10266   */\n      0x00\n        /* \"#utility.yul\":10284:10351   */\n      tag_389\n        /* \"#utility.yul\":10348:10350   */\n      0x19\n        /* \"#utility.yul\":10343:10346   */\n      dup4\n        /* \"#utility.yul\":10284:10351   */\n      tag_289\n      jump\t// in\n    tag_389:\n        /* \"#utility.yul\":10277:10351   */\n      swap2\n      pop\n        /* \"#utility.yul\":10360:10453   */\n      tag_390\n        /* \"#utility.yul\":10449:10452   */\n      dup3\n        /* \"#utility.yul\":10360:10453   */\n      tag_391\n      jump\t// in\n    tag_390:\n        /* \"#utility.yul\":10478:10480   */\n      0x20\n        /* \"#utility.yul\":10473:10476   */\n      dup3\n        /* \"#utility.yul\":10469:10481   */\n      add\n        /* \"#utility.yul\":10462:10481   */\n      swap1\n      pop\n        /* \"#utility.yul\":10267:10487   */\n      swap2\n      swap1\n      pop\n      jump\t// out\n        /* \"#utility.yul\":10493:10611   */\n    tag_392:\n        /* \"#utility.yul\":10580:10604   */\n      tag_394\n        /* \"#utility.yul\":10598:10603   */\n      dup2\n        /* \"#utility.yul\":10580:10604   */\n      tag_395\n      jump\t// in\n    tag_394:\n        /* \"#utility.yul\":10575:10578   */\n      dup3\n        /* \"#utility.yul\":10568:10605   */\n      mstore\n        /* \"#utility.yul\":10558:10611   */\n      pop\n      pop\n      jump\t// out\n        /* \"#utility.yul\":10617:10748   */\n    tag_396:\n        /* \"#utility.yul\":10704:10741   */\n      tag_398\n        /* \"#utility.yul\":10735:10740   */\n      dup2\n        /* \"#utility.yul\":10704:10741   */\n      tag_399\n      jump\t// in\n    tag_398:\n        /* \"#utility.yul\":10699:10702   */\n      dup3\n        /* \"#utility.yul\":10692:10742   */\n      mstore\n        /* \"#utility.yul\":10682:10748   */\n      pop\n      pop\n      jump\t// out\n        /* \"#utility.yul\":10754:10869   */\n    tag_400:\n        /* \"#utility.yul\":10839:10862   */\n      tag_402\n        /* \"#utility.yul\":10856:10861   */\n      dup2\n        /* \"#utility.yul\":10839:10862   */\n      tag_403\n      jump\t// in\n    tag_402:\n        /* \"#utility.yul\":10834:10837   */\n      dup3\n        /* \"#utility.yul\":10827:10863   */\n      mstore\n        /* \"#utility.yul\":10817:10869   */\n      pop\n      pop\n      jump\t// out\n        /* \"#utility.yul\":10875:11004   */\n    tag_404:\n        /* \"#utility.yul\":10961:10997   */\n      tag_406\n        /* \"#utility.yul\":10991:10996   */\n      dup2\n        /* \"#utility.yul\":10961:10997   */\n      tag_407\n      jump\t// in\n    tag_406:\n        /* \"#utility.yul\":10956:10959   */\n      dup3\n        /* \"#utility.yul\":10949:10998   */\n      mstore\n        /* \"#utility.yul\":10939:11004   */\n      pop\n      pop\n      jump\t// out\n        /* \"#utility.yul\":11010:11128   */\n    tag_408:\n        /* \"#utility.yul\":11097:11121   */\n      tag_410\n        /* \"#utility.yul\":11115:11120   */\n      dup2\n        /* \"#utility.yul\":11097:11121   */\n      tag_411\n      jump\t// in\n    tag_410:\n        /* \"#utility.yul\":11092:11095   */\n      dup3\n        /* \"#utility.yul\":11085:11122   */\n      mstore\n        /* \"#utility.yul\":11075:11128   */\n      pop\n      pop\n      jump\t// out\n        /* \"#utility.yul\":11134:11249   */\n    tag_412:\n        /* \"#utility.yul\":11219:11242   */\n      tag_414\n        /* \"#utility.yul\":11236:11241   */\n      dup2\n        /* \"#utility.yul\":11219:11242   */\n      tag_415\n      jump\t// in\n    tag_414:\n        /* \"#utility.yul\":11214:11217   */\n      dup3\n        /* \"#utility.yul\":11207:11243   */\n      mstore\n        /* \"#utility.yul\":11197:11249   */\n      pop\n      pop\n      jump\t// out\n        /* \"#utility.yul\":11255:11384   */\n    tag_416:\n        /* \"#utility.yul\":11341:11377   */\n      tag_418\n        /* \"#utility.yul\":11371:11376   */\n      dup2\n        /* \"#utility.yul\":11341:11377   */\n      tag_419\n      jump\t// in\n    tag_418:\n        /* \"#utility.yul\":11336:11339   */\n      dup3\n        /* \"#utility.yul\":11329:11378   */\n      mstore\n        /* \"#utility.yul\":11319:11384   */\n      pop\n      pop\n      jump\t// out\n        /* \"#utility.yul\":11390:11505   */\n    tag_420:\n        /* \"#utility.yul\":11475:11498   */\n      tag_422\n        /* \"#utility.yul\":11492:11497   */\n      dup2\n        /* \"#utility.yul\":11475:11498   */\n      tag_423\n      jump\t// in\n    tag_422:\n        /* \"#utility.yul\":11470:11473   */\n      dup3\n        /* \"#utility.yul\":11463:11499   */\n      mstore\n        /* \"#utility.yul\":11453:11505   */\n      pop\n      pop\n      jump\t// out\n        /* \"#utility.yul\":11511:11733   */\n    tag_60:\n        /* \"#utility.yul\":11604:11608   */\n      0x00\n        /* \"#utility.yul\":11642:11644   */\n      0x20\n        /* \"#utility.yul\":11631:11640   */\n      dup3\n        /* \"#utility.yul\":11627:11645   */\n      add\n        /* \"#utility.yul\":11619:11645   */\n      swap1\n      pop\n        /* \"#utility.yul\":11655:11726   */\n      tag_425\n        /* \"#utility.yul\":11723:11724   */\n      0x00\n        /* \"#utility.yul\":11712:11721   */\n      dup4\n        /* \"#utility.yul\":11708:11725   */\n      add\n        /* \"#utility.yul\":11699:11705   */\n      dup5\n        /* \"#utility.yul\":11655:11726   */\n      tag_278\n      jump\t// in\n    tag_425:\n        /* \"#utility.yul\":11609:11733   */\n      swap3\n      swap2\n      pop\n      pop\n      jump\t// out\n        /* \"#utility.yul\":11739:12071   */\n    tag_173:\n        /* \"#utility.yul\":11860:11864   */\n      0x00\n        /* \"#utility.yul\":11898:11900   */\n      0x40\n        /* \"#utility.yul\":11887:11896   */\n      dup3\n        /* \"#utility.yul\":11883:11901   */\n      add\n        /* \"#utility.yul\":11875:11901   */\n      swap1\n      pop\n        /* \"#utility.yul\":11911:11982   */\n      tag_427\n        /* \"#utility.yul\":11979:11980   */\n      0x00\n        /* \"#utility.yul\":11968:11977   */\n      dup4\n        /* \"#utility.yul\":11964:11981   */\n      add\n        /* \"#utility.yul\":11955:11961   */\n      dup6\n        /* \"#utility.yul\":11911:11982   */\n      tag_278\n      jump\t// in\n    tag_427:\n        /* \"#utility.yul\":11992:12064   */\n      tag_428\n        /* \"#utility.yul\":12060:12062   */\n      0x20\n        /* \"#utility.yul\":12049:12058   */\n      dup4\n        /* \"#utility.yul\":12045:12063   */\n      add\n        /* \"#utility.yul\":12036:12042   */\n      dup5\n        /* \"#utility.yul\":11992:12064   */\n      tag_278\n      jump\t// in\n    tag_428:\n        /* \"#utility.yul\":11865:12071   */\n      swap4\n      swap3\n      pop\n      pop\n      pop\n      jump\t// out\n        /* \"#utility.yul\":12077:12519   */\n    tag_182:\n        /* \"#utility.yul\":12226:12230   */\n      0x00\n        /* \"#utility.yul\":12264:12266   */\n      0x60\n        /* \"#utility.yul\":12253:12262   */\n      dup3\n        /* \"#utility.yul\":12249:12267   */\n      add\n        /* \"#utility.yul\":12241:12267   */\n      swap1\n      pop\n        /* \"#utility.yul\":12277:12348   */\n      tag_430\n        /* \"#utility.yul\":12345:12346   */\n      0x00\n        /* \"#utility.yul\":12334:12343   */\n      dup4\n        /* \"#utility.yul\":12330:12347   */\n      add\n        /* \"#utility.yul\":12321:12327   */\n      dup7\n        /* \"#utility.yul\":12277:12348   */\n      tag_278\n      jump\t// in\n    tag_430:\n        /* \"#utility.yul\":12358:12430   */\n      tag_431\n        /* \"#utility.yul\":12426:12428   */\n      0x20\n        /* \"#utility.yul\":12415:12424   */\n      dup4\n        /* \"#utility.yul\":12411:12429   */\n      add\n        /* \"#utility.yul\":12402:12408   */\n      dup6\n        /* \"#utility.yul\":12358:12430   */\n      tag_278\n      jump\t// in\n    tag_431:\n        /* \"#utility.yul\":12440:12512   */\n      tag_432\n        /* \"#utility.yul\":12508:12510   */\n      0x40\n        /* \"#utility.yul\":12497:12506   */\n      dup4\n        /* \"#utility.yul\":12493:12511   */\n      add\n        /* \"#utility.yul\":12484:12490   */\n      dup5\n        /* \"#utility.yul\":12440:12512   */\n      tag_408\n      jump\t// in\n    tag_432:\n        /* \"#utility.yul\":12231:12519   */\n      swap5\n      swap4\n      pop\n      pop\n      pop\n      pop\n      jump\t// out\n        /* \"#utility.yul\":12525:12965   */\n    tag_118:\n        /* \"#utility.yul\":12673:12677   */\n      0x00\n        /* \"#utility.yul\":12711:12713   */\n      0x60\n        /* \"#utility.yul\":12700:12709   */\n      dup3\n        /* \"#utility.yul\":12696:12714   */\n      add\n        /* \"#utility.yul\":12688:12714   */\n      swap1\n      pop\n        /* \"#utility.yul\":12724:12795   */\n      tag_434\n        /* \"#utility.yul\":12792:12793   */\n      0x00\n        /* \"#utility.yul\":12781:12790   */\n      dup4\n        /* \"#utility.yul\":12777:12794   */\n      add\n        /* \"#utility.yul\":12768:12774   */\n      dup7\n        /* \"#utility.yul\":12724:12795   */\n      tag_278\n      jump\t// in\n    tag_434:\n        /* \"#utility.yul\":12805:12877   */\n      tag_435\n        /* \"#utility.yul\":12873:12875   */\n      0x20\n        /* \"#utility.yul\":12862:12871   */\n      dup4\n        /* \"#utility.yul\":12858:12876   */\n      add\n        /* \"#utility.yul\":12849:12855   */\n      dup6\n        /* \"#utility.yul\":12805:12877   */\n      tag_278\n      jump\t// in\n    tag_435:\n        /* \"#utility.yul\":12887:12958   */\n      tag_436\n        /* \"#utility.yul\":12954:12956   */\n      0x40\n        /* \"#utility.yul\":12943:12952   */\n      dup4\n        /* \"#utility.yul\":12939:12957   */\n      add\n        /* \"#utility.yul\":12930:12936   */\n      dup5\n        /* \"#utility.yul\":12887:12958   */\n      tag_416\n      jump\t// in\n    tag_436:\n        /* \"#utility.yul\":12678:12965   */\n      swap5\n      swap4\n      pop\n      pop\n      pop\n      pop\n      jump\t// out\n        /* \"#utility.yul\":12971:13303   */\n    tag_143:\n        /* \"#utility.yul\":13092:13096   */\n      0x00\n        /* \"#utility.yul\":13130:13132   */\n      0x40\n        /* \"#utility.yul\":13119:13128   */\n      dup3\n        /* \"#utility.yul\":13115:13133   */\n      add\n        /* \"#utility.yul\":13107:13133   */\n      swap1\n      pop\n        /* \"#utility.yul\":13143:13214   */\n      tag_438\n        /* \"#utility.yul\":13211:13212   */\n      0x00\n        /* \"#utility.yul\":13200:13209   */\n      dup4\n        /* \"#utility.yul\":13196:13213   */\n      add\n        /* \"#utility.yul\":13187:13193   */\n      dup6\n        /* \"#utility.yul\":13143:13214   */\n      tag_278\n      jump\t// in\n    tag_438:\n        /* \"#utility.yul\":13224:13296   */\n      tag_439\n        /* \"#utility.yul\":13292:13294   */\n      0x20\n        /* \"#utility.yul\":13281:13290   */\n      dup4\n        /* \"#utility.yul\":13277:13295   */\n      add\n        /* \"#utility.yul\":13268:13274   */\n      dup5\n        /* \"#utility.yul\":13224:13296   */\n      tag_408\n      jump\t// in\n    tag_439:\n        /* \"#utility.yul\":13097:13303   */\n      swap4\n      swap3\n      pop\n      pop\n      pop\n      jump\t// out\n        /* \"#utility.yul\":13309:13858   */\n    tag_128:\n        /* \"#utility.yul\":13484:13488   */\n      0x00\n        /* \"#utility.yul\":13522:13525   */\n      0x80\n        /* \"#utility.yul\":13511:13520   */\n      dup3\n        /* \"#utility.yul\":13507:13526   */\n      add\n        /* \"#utility.yul\":13499:13526   */\n      swap1\n      pop\n        /* \"#utility.yul\":13536:13607   */\n      tag_441\n        /* \"#utility.yul\":13604:13605   */\n      0x00\n        /* \"#utility.yul\":13593:13602   */\n      dup4\n        /* \"#utility.yul\":13589:13606   */\n      add\n        /* \"#utility.yul\":13580:13586   */\n      dup8\n        /* \"#utility.yul\":13536:13607   */\n      tag_278\n      jump\t// in\n    tag_441:\n        /* \"#utility.yul\":13617:13688   */\n      tag_442\n        /* \"#utility.yul\":13684:13686   */\n      0x20\n        /* \"#utility.yul\":13673:13682   */\n      dup4\n        /* \"#utility.yul\":13669:13687   */\n      add\n        /* \"#utility.yul\":13660:13666   */\n      dup7\n        /* \"#utility.yul\":13617:13688   */\n      tag_416\n      jump\t// in\n    tag_442:\n        /* \"#utility.yul\":13698:13769   */\n      tag_443\n        /* \"#utility.yul\":13765:13767   */\n      0x40\n        /* \"#utility.yul\":13754:13763   */\n      dup4\n        /* \"#utility.yul\":13750:13768   */\n      add\n        /* \"#utility.yul\":13741:13747   */\n      dup6\n        /* \"#utility.yul\":13698:13769   */\n      tag_404\n      jump\t// in\n    tag_443:\n        /* \"#utility.yul\":13779:13851   */\n      tag_444\n        /* \"#utility.yul\":13847:13849   */\n      0x60\n        /* \"#utility.yul\":13836:13845   */\n      dup4\n        /* \"#utility.yul\":13832:13850   */\n      add\n        /* \"#utility.yul\":13823:13829   */\n      dup5\n        /* \"#utility.yul\":13779:13851   */\n      tag_396\n      jump\t// in\n    tag_444:\n        /* \"#utility.yul\":13489:13858   */\n      swap6\n      swap5\n      pop\n      pop\n      pop\n      pop\n      pop\n      jump\t// out\n        /* \"#utility.yul\":13864:14413   */\n    tag_230:\n        /* \"#utility.yul\":14039:14043   */\n      0x00\n        /* \"#utility.yul\":14077:14080   */\n      0x80\n        /* \"#utility.yul\":14066:14075   */\n      dup3\n        /* \"#utility.yul\":14062:14081   */\n      add\n        /* \"#utility.yul\":14054:14081   */\n      swap1\n      pop\n        /* \"#utility.yul\":14091:14162   */\n      tag_446\n        /* \"#utility.yul\":14159:14160   */\n      0x00\n        /* \"#utility.yul\":14148:14157   */\n      dup4\n        /* \"#utility.yul\":14144:14161   */\n      add\n        /* \"#utility.yul\":14135:14141   */\n      dup8\n        /* \"#utility.yul\":14091:14162   */\n      tag_278\n      jump\t// in\n    tag_446:\n        /* \"#utility.yul\":14172:14243   */\n      tag_447\n        /* \"#utility.yul\":14239:14241   */\n      0x20\n        /* \"#utility.yul\":14228:14237   */\n      dup4\n        /* \"#utility.yul\":14224:14242   */\n      add\n        /* \"#utility.yul\":14215:14221   */\n      dup7\n        /* \"#utility.yul\":14172:14243   */\n      tag_416\n      jump\t// in\n    tag_447:\n        /* \"#utility.yul\":14253:14324   */\n      tag_448\n        /* \"#utility.yul\":14320:14322   */\n      0x40\n        /* \"#utility.yul\":14309:14318   */\n      dup4\n        /* \"#utility.yul\":14305:14323   */\n      add\n        /* \"#utility.yul\":14296:14302   */\n      dup6\n        /* \"#utility.yul\":14253:14324   */\n      tag_404\n      jump\t// in\n    tag_448:\n        /* \"#utility.yul\":14334:14406   */\n      tag_449\n        /* \"#utility.yul\":14402:14404   */\n      0x60\n        /* \"#utility.yul\":14391:14400   */\n      dup4\n        /* \"#utility.yul\":14387:14405   */\n      add\n        /* \"#utility.yul\":14378:14384   */\n      dup5\n        /* \"#utility.yul\":14334:14406   */\n      tag_408\n      jump\t// in\n    tag_449:\n        /* \"#utility.yul\":14044:14413   */\n      swap6\n      swap5\n      pop\n      pop\n      pop\n      pop\n      pop\n      jump\t// out\n        /* \"#utility.yul\":14419:14667   */\n    tag_54:\n        /* \"#utility.yul\":14525:14529   */\n      0x00\n        /* \"#utility.yul\":14563:14565   */\n      0x20\n        /* \"#utility.yul\":14552:14561   */\n      dup3\n        /* \"#utility.yul\":14548:14566   */\n      add\n        /* \"#utility.yul\":14540:14566   */\n      swap1\n      pop\n        /* \"#utility.yul\":14576:14660   */\n      tag_451\n        /* \"#utility.yul\":14657:14658   */\n      0x00\n        /* \"#utility.yul\":14646:14655   */\n      dup4\n        /* \"#utility.yul\":14642:14659   */\n      add\n        /* \"#utility.yul\":14633:14639   */\n      dup5\n        /* \"#utility.yul\":14576:14660   */\n      tag_282\n      jump\t// in\n    tag_451:\n        /* \"#utility.yul\":14530:14667   */\n      swap3\n      swap2\n      pop\n      pop\n      jump\t// out\n        /* \"#utility.yul\":14673:15092   */\n    tag_150:\n        /* \"#utility.yul\":14839:14843   */\n      0x00\n        /* \"#utility.yul\":14877:14879   */\n      0x20\n        /* \"#utility.yul\":14866:14875   */\n      dup3\n        /* \"#utility.yul\":14862:14880   */\n      add\n        /* \"#utility.yul\":14854:14880   */\n      swap1\n      pop\n        /* \"#utility.yul\":14926:14935   */\n      dup2\n        /* \"#utility.yul\":14920:14924   */\n      dup2\n        /* \"#utility.yul\":14916:14936   */\n      sub\n        /* \"#utility.yul\":14912:14913   */\n      0x00\n        /* \"#utility.yul\":14901:14910   */\n      dup4\n        /* \"#utility.yul\":14897:14914   */\n      add\n        /* \"#utility.yul\":14890:14937   */\n      mstore\n        /* \"#utility.yul\":14954:15085   */\n      tag_453\n        /* \"#utility.yul\":15080:15084   */\n      dup2\n        /* \"#utility.yul\":14954:15085   */\n      tag_286\n      jump\t// in\n    tag_453:\n        /* \"#utility.yul\":14946:15085   */\n      swap1\n      pop\n        /* \"#utility.yul\":14844:15092   */\n      swap2\n      swap1\n      pop\n      jump\t// out\n        /* \"#utility.yul\":15098:15517   */\n    tag_140:\n        /* \"#utility.yul\":15264:15268   */\n      0x00\n        /* \"#utility.yul\":15302:15304   */\n      0x20\n        /* \"#utility.yul\":15291:15300   */\n      dup3\n        /* \"#utility.yul\":15287:15305   */\n      add\n        /* \"#utility.yul\":15279:15305   */\n      swap1\n      pop\n        /* \"#utility.yul\":15351:15360   */\n      dup2\n        /* \"#utility.yul\":15345:15349   */\n      dup2\n        /* \"#utility.yul\":15341:15361   */\n      sub\n        /* \"#utility.yul\":15337:15338   */\n      0x00\n        /* \"#utility.yul\":15326:15335   */\n      dup4\n        /* \"#utility.yul\":15322:15339   */\n      add\n        /* \"#utility.yul\":15315:15362   */\n      mstore\n        /* \"#utility.yul\":15379:15510   */\n      tag_455\n        /* \"#utility.yul\":15505:15509   */\n      dup2\n        /* \"#utility.yul\":15379:15510   */\n      tag_292\n      jump\t// in\n    tag_455:\n        /* \"#utility.yul\":15371:15510   */\n      swap1\n      pop\n        /* \"#utility.yul\":15269:15517   */\n      swap2\n      swap1\n      pop\n      jump\t// out\n        /* \"#utility.yul\":15523:15942   */\n    tag_216:\n        /* \"#utility.yul\":15689:15693   */\n      0x00\n        /* \"#utility.yul\":15727:15729   */\n      0x20\n        /* \"#utility.yul\":15716:15725   */\n      dup3\n        /* \"#utility.yul\":15712:15730   */\n      add\n        /* \"#utility.yul\":15704:15730   */\n      swap1\n      pop\n        /* \"#utility.yul\":15776:15785   */\n      dup2\n        /* \"#utility.yul\":15770:15774   */\n      dup2\n        /* \"#utility.yul\":15766:15786   */\n      sub\n        /* \"#utility.yul\":15762:15763   */\n      0x00\n        /* \"#utility.yul\":15751:15760   */\n      dup4\n        /* \"#utility.yul\":15747:15764   */\n      add\n        /* \"#utility.yul\":15740:15787   */\n      mstore\n        /* \"#utility.yul\":15804:15935   */\n      tag_457\n        /* \"#utility.yul\":15930:15934   */\n      dup2\n        /* \"#utility.yul\":15804:15935   */\n      tag_297\n      jump\t// in\n    tag_457:\n        /* \"#utility.yul\":15796:15935   */\n      swap1\n      pop\n        /* \"#utility.yul\":15694:15942   */\n      swap2\n      swap1\n      pop\n      jump\t// out\n        /* \"#utility.yul\":15948:16367   */\n    tag_209:\n        /* \"#utility.yul\":16114:16118   */\n      0x00\n        /* \"#utility.yul\":16152:16154   */\n      0x20\n        /* \"#utility.yul\":16141:16150   */\n      dup3\n        /* \"#utility.yul\":16137:16155   */\n      add\n        /* \"#utility.yul\":16129:16155   */\n      swap1\n      pop\n        /* \"#utility.yul\":16201:16210   */\n      dup2\n        /* \"#utility.yul\":16195:16199   */\n      dup2\n        /* \"#utility.yul\":16191:16211   */\n      sub\n        /* \"#utility.yul\":16187:16188   */\n      0x00\n        /* \"#utility.yul\":16176:16185   */\n      dup4\n        /* \"#utility.yul\":16172:16189   */\n      add\n        /* \"#utility.yul\":16165:16212   */\n      mstore\n        /* \"#utility.yul\":16229:16360   */\n      tag_459\n        /* \"#utility.yul\":16355:16359   */\n      dup2\n        /* \"#utility.yul\":16229:16360   */\n      tag_302\n      jump\t// in\n    tag_459:\n        /* \"#utility.yul\":16221:16360   */\n      swap1\n      pop\n        /* \"#utility.yul\":16119:16367   */\n      swap2\n      swap1\n      pop\n      jump\t// out\n        /* \"#utility.yul\":16373:16792   */\n    tag_90:\n        /* \"#utility.yul\":16539:16543   */\n      0x00\n        /* \"#utility.yul\":16577:16579   */\n      0x20\n        /* \"#utility.yul\":16566:16575   */\n      dup3\n        /* \"#utility.yul\":16562:16580   */\n      add\n        /* \"#utility.yul\":16554:16580   */\n      swap1\n      pop\n        /* \"#utility.yul\":16626:16635   */\n      dup2\n        /* \"#utility.yul\":16620:16624   */\n      dup2\n        /* \"#utility.yul\":16616:16636   */\n      sub\n        /* \"#utility.yul\":16612:16613   */\n      0x00\n        /* \"#utility.yul\":16601:16610   */\n      dup4\n        /* \"#utility.yul\":16597:16614   */\n      add\n        /* \"#utility.yul\":16590:16637   */\n      mstore\n        /* \"#utility.yul\":16654:16785   */\n      tag_461\n        /* \"#utility.yul\":16780:16784   */\n      dup2\n        /* \"#utility.yul\":16654:16785   */\n      tag_307\n      jump\t// in\n    tag_461:\n        /* \"#utility.yul\":16646:16785   */\n      swap1\n      pop\n        /* \"#utility.yul\":16544:16792   */\n      swap2\n      swap1\n      pop\n      jump\t// out\n        /* \"#utility.yul\":16798:17217   */\n    tag_196:\n        /* \"#utility.yul\":16964:16968   */\n      0x00\n        /* \"#utility.yul\":17002:17004   */\n      0x20\n        /* \"#utility.yul\":16991:17000   */\n      dup3\n        /* \"#utility.yul\":16987:17005   */\n      add\n        /* \"#utility.yul\":16979:17005   */\n      swap1\n      pop\n        /* \"#utility.yul\":17051:17060   */\n      dup2\n        /* \"#utility.yul\":17045:17049   */\n      dup2\n        /* \"#utility.yul\":17041:17061   */\n      sub\n        /* \"#utility.yul\":17037:17038   */\n      0x00\n        /* \"#utility.yul\":17026:17035   */\n      dup4\n        /* \"#utility.yul\":17022:17039   */\n      add\n        /* \"#utility.yul\":17015:17062   */\n      mstore\n        /* \"#utility.yul\":17079:17210   */\n      tag_463\n        /* \"#utility.yul\":17205:17209   */\n      dup2\n        /* \"#utility.yul\":17079:17210   */\n      tag_312\n      jump\t// in\n    tag_463:\n        /* \"#utility.yul\":17071:17210   */\n      swap1\n      pop\n        /* \"#utility.yul\":16969:17217   */\n      swap2\n      swap1\n      pop\n      jump\t// out\n        /* \"#utility.yul\":17223:17642   */\n    tag_109:\n        /* \"#utility.yul\":17389:17393   */\n      0x00\n        /* \"#utility.yul\":17427:17429   */\n      0x20\n        /* \"#utility.yul\":17416:17425   */\n      dup3\n        /* \"#utility.yul\":17412:17430   */\n      add\n        /* \"#utility.yul\":17404:17430   */\n      swap1\n      pop\n        /* \"#utility.yul\":17476:17485   */\n      dup2\n        /* \"#utility.yul\":17470:17474   */\n      dup2\n        /* \"#utility.yul\":17466:17486   */\n      sub\n        /* \"#utility.yul\":17462:17463   */\n      0x00\n        /* \"#utility.yul\":17451:17460   */\n      dup4\n        /* \"#utility.yul\":17447:17464   */\n      add\n        /* \"#utility.yul\":17440:17487   */\n      mstore\n        /* \"#utility.yul\":17504:17635   */\n      tag_465\n        /* \"#utility.yul\":17630:17634   */\n      dup2\n        /* \"#utility.yul\":17504:17635   */\n      tag_317\n      jump\t// in\n    tag_465:\n        /* \"#utility.yul\":17496:17635   */\n      swap1\n      pop\n        /* \"#utility.yul\":17394:17642   */\n      swap2\n      swap1\n      pop\n      jump\t// out\n        /* \"#utility.yul\":17648:18067   */\n    tag_112:\n        /* \"#utility.yul\":17814:17818   */\n      0x00\n        /* \"#utility.yul\":17852:17854   */\n      0x20\n        /* \"#utility.yul\":17841:17850   */\n      dup3\n        /* \"#utility.yul\":17837:17855   */\n      add\n        /* \"#utility.yul\":17829:17855   */\n      swap1\n      pop\n        /* \"#utility.yul\":17901:17910   */\n      dup2\n        /* \"#utility.yul\":17895:17899   */\n      dup2\n        /* \"#utility.yul\":17891:17911   */\n      sub\n        /* \"#utility.yul\":17887:17888   */\n      0x00\n        /* \"#utility.yul\":17876:17885   */\n      dup4\n        /* \"#utility.yul\":17872:17889   */\n      add\n        /* \"#utility.yul\":17865:17912   */\n      mstore\n        /* \"#utility.yul\":17929:18060   */\n      tag_467\n        /* \"#utility.yul\":18055:18059   */\n      dup2\n        /* \"#utility.yul\":17929:18060   */\n      tag_322\n      jump\t// in\n    tag_467:\n        /* \"#utility.yul\":17921:18060   */\n      swap1\n      pop\n        /* \"#utility.yul\":17819:18067   */\n      swap2\n      swap1\n      pop\n      jump\t// out\n        /* \"#utility.yul\":18073:18492   */\n    tag_213:\n        /* \"#utility.yul\":18239:18243   */\n      0x00\n        /* \"#utility.yul\":18277:18279   */\n      0x20\n        /* \"#utility.yul\":18266:18275   */\n      dup3\n        /* \"#utility.yul\":18262:18280   */\n      add\n        /* \"#utility.yul\":18254:18280   */\n      swap1\n      pop\n        /* \"#utility.yul\":18326:18335   */\n      dup2\n        /* \"#utility.yul\":18320:18324   */\n      dup2\n        /* \"#utility.yul\":18316:18336   */\n      sub\n        /* \"#utility.yul\":18312:18313   */\n      0x00\n        /* \"#utility.yul\":18301:18310   */\n      dup4\n        /* \"#utility.yul\":18297:18314   */\n      add\n        /* \"#utility.yul\":18290:18337   */\n      mstore\n        /* \"#utility.yul\":18354:18485   */\n      tag_469\n        /* \"#utility.yul\":18480:18484   */\n      dup2\n        /* \"#utility.yul\":18354:18485   */\n      tag_327\n      jump\t// in\n    tag_469:\n        /* \"#utility.yul\":18346:18485   */\n      swap1\n      pop\n        /* \"#utility.yul\":18244:18492   */\n      swap2\n      swap1\n      pop\n      jump\t// out\n        /* \"#utility.yul\":18498:18917   */\n    tag_134:\n        /* \"#utility.yul\":18664:18668   */\n      0x00\n        /* \"#utility.yul\":18702:18704   */\n      0x20\n        /* \"#utility.yul\":18691:18700   */\n      dup3\n        /* \"#utility.yul\":18687:18705   */\n      add\n        /* \"#utility.yul\":18679:18705   */\n      swap1\n      pop\n        /* \"#utility.yul\":18751:18760   */\n      dup2\n        /* \"#utility.yul\":18745:18749   */\n      dup2\n        /* \"#utility.yul\":18741:18761   */\n      sub\n        /* \"#utility.yul\":18737:18738   */\n      0x00\n        /* \"#utility.yul\":18726:18735   */\n      dup4\n        /* \"#utility.yul\":18722:18739   */\n      add\n        /* \"#utility.yul\":18715:18762   */\n      mstore\n        /* \"#utility.yul\":18779:18910   */\n      tag_471\n        /* \"#utility.yul\":18905:18909   */\n      dup2\n        /* \"#utility.yul\":18779:18910   */\n      tag_332\n      jump\t// in\n    tag_471:\n        /* \"#utility.yul\":18771:18910   */\n      swap1\n      pop\n        /* \"#utility.yul\":18669:18917   */\n      swap2\n      swap1\n      pop\n      jump\t// out\n        /* \"#utility.yul\":18923:19342   */\n    tag_199:\n        /* \"#utility.yul\":19089:19093   */\n      0x00\n        /* \"#utility.yul\":19127:19129   */\n      0x20\n        /* \"#utility.yul\":19116:19125   */\n      dup3\n        /* \"#utility.yul\":19112:19130   */\n      add\n        /* \"#utility.yul\":19104:19130   */\n      swap1\n      pop\n        /* \"#utility.yul\":19176:19185   */\n      dup2\n        /* \"#utility.yul\":19170:19174   */\n      dup2\n        /* \"#utility.yul\":19166:19186   */\n      sub\n        /* \"#utility.yul\":19162:19163   */\n      0x00\n        /* \"#utility.yul\":19151:19160   */\n      dup4\n        /* \"#utility.yul\":19147:19164   */\n      add\n        /* \"#utility.yul\":19140:19187   */\n      mstore\n        /* \"#utility.yul\":19204:19335   */\n      tag_473\n        /* \"#utility.yul\":19330:19334   */\n      dup2\n        /* \"#utility.yul\":19204:19335   */\n      tag_337\n      jump\t// in\n    tag_473:\n        /* \"#utility.yul\":19196:19335   */\n      swap1\n      pop\n        /* \"#utility.yul\":19094:19342   */\n      swap2\n      swap1\n      pop\n      jump\t// out\n        /* \"#utility.yul\":19348:19767   */\n    tag_180:\n        /* \"#utility.yul\":19514:19518   */\n      0x00\n        /* \"#utility.yul\":19552:19554   */\n      0x20\n        /* \"#utility.yul\":19541:19550   */\n      dup3\n        /* \"#utility.yul\":19537:19555   */\n      add\n        /* \"#utility.yul\":19529:19555   */\n      swap1\n      pop\n        /* \"#utility.yul\":19601:19610   */\n      dup2\n        /* \"#utility.yul\":19595:19599   */\n      dup2\n        /* \"#utility.yul\":19591:19611   */\n      sub\n        /* \"#utility.yul\":19587:19588   */\n      0x00\n        /* \"#utility.yul\":19576:19585   */\n      dup4\n        /* \"#utility.yul\":19572:19589   */\n      add\n        /* \"#utility.yul\":19565:19612   */\n      mstore\n        /* \"#utility.yul\":19629:19760   */\n      tag_475\n        /* \"#utility.yul\":19755:19759   */\n      dup2\n        /* \"#utility.yul\":19629:19760   */\n      tag_342\n      jump\t// in\n    tag_475:\n        /* \"#utility.yul\":19621:19760   */\n      swap1\n      pop\n        /* \"#utility.yul\":19519:19767   */\n      swap2\n      swap1\n      pop\n      jump\t// out\n        /* \"#utility.yul\":19773:20192   */\n    tag_162:\n        /* \"#utility.yul\":19939:19943   */\n      0x00\n        /* \"#utility.yul\":19977:19979   */\n      0x20\n        /* \"#utility.yul\":19966:19975   */\n      dup3\n        /* \"#utility.yul\":19962:19980   */\n      add\n        /* \"#utility.yul\":19954:19980   */\n      swap1\n      pop\n        /* \"#utility.yul\":20026:20035   */\n      dup2\n        /* \"#utility.yul\":20020:20024   */\n      dup2\n        /* \"#utility.yul\":20016:20036   */\n      sub\n        /* \"#utility.yul\":20012:20013   */\n      0x00\n        /* \"#utility.yul\":20001:20010   */\n      dup4\n        /* \"#utility.yul\":19997:20014   */\n      add\n        /* \"#utility.yul\":19990:20037   */\n      mstore\n        /* \"#utility.yul\":20054:20185   */\n      tag_477\n        /* \"#utility.yul\":20180:20184   */\n      dup2\n        /* \"#utility.yul\":20054:20185   */\n      tag_347\n      jump\t// in\n    tag_477:\n        /* \"#utility.yul\":20046:20185   */\n      swap1\n      pop\n        /* \"#utility.yul\":19944:20192   */\n      swap2\n      swap1\n      pop\n      jump\t// out\n        /* \"#utility.yul\":20198:20617   */\n    tag_171:\n        /* \"#utility.yul\":20364:20368   */\n      0x00\n        /* \"#utility.yul\":20402:20404   */\n      0x20\n        /* \"#utility.yul\":20391:20400   */\n      dup3\n        /* \"#utility.yul\":20387:20405   */\n      add\n        /* \"#utility.yul\":20379:20405   */\n      swap1\n      pop\n        /* \"#utility.yul\":20451:20460   */\n      dup2\n        /* \"#utility.yul\":20445:20449   */\n      dup2\n        /* \"#utility.yul\":20441:20461   */\n      sub\n        /* \"#utility.yul\":20437:20438   */\n      0x00\n        /* \"#utility.yul\":20426:20435   */\n      dup4\n        /* \"#utility.yul\":20422:20439   */\n      add\n        /* \"#utility.yul\":20415:20462   */\n      mstore\n        /* \"#utility.yul\":20479:20610   */\n      tag_479\n        /* \"#utility.yul\":20605:20609   */\n      dup2\n        /* \"#utility.yul\":20479:20610   */\n      tag_352\n      jump\t// in\n    tag_479:\n        /* \"#utility.yul\":20471:20610   */\n      swap1\n      pop\n        /* \"#utility.yul\":20369:20617   */\n      swap2\n      swap1\n      pop\n      jump\t// out\n        /* \"#utility.yul\":20623:21042   */\n    tag_103:\n        /* \"#utility.yul\":20789:20793   */\n      0x00\n        /* \"#utility.yul\":20827:20829   */\n      0x20\n        /* \"#utility.yul\":20816:20825   */\n      dup3\n        /* \"#utility.yul\":20812:20830   */\n      add\n        /* \"#utility.yul\":20804:20830   */\n      swap1\n      pop\n        /* \"#utility.yul\":20876:20885   */\n      dup2\n        /* \"#utility.yul\":20870:20874   */\n      dup2\n        /* \"#utility.yul\":20866:20886   */\n      sub\n        /* \"#utility.yul\":20862:20863   */\n      0x00\n        /* \"#utility.yul\":20851:20860   */\n      dup4\n        /* \"#utility.yul\":20847:20864   */\n      add\n        /* \"#utility.yul\":20840:20887   */\n      mstore\n        /* \"#utility.yul\":20904:21035   */\n      tag_481\n        /* \"#utility.yul\":21030:21034   */\n      dup2\n        /* \"#utility.yul\":20904:21035   */\n      tag_357\n      jump\t// in\n    tag_481:\n        /* \"#utility.yul\":20896:21035   */\n      swap1\n      pop\n        /* \"#utility.yul\":20794:21042   */\n      swap2\n      swap1\n      pop\n      jump\t// out\n        /* \"#utility.yul\":21048:21467   */\n    tag_126:\n        /* \"#utility.yul\":21214:21218   */\n      0x00\n        /* \"#utility.yul\":21252:21254   */\n      0x20\n        /* \"#utility.yul\":21241:21250   */\n      dup3\n        /* \"#utility.yul\":21237:21255   */\n      add\n        /* \"#utility.yul\":21229:21255   */\n      swap1\n      pop\n        /* \"#utility.yul\":21301:21310   */\n      dup2\n        /* \"#utility.yul\":21295:21299   */\n      dup2\n        /* \"#utility.yul\":21291:21311   */\n      sub\n        /* \"#utility.yul\":21287:21288   */\n      0x00\n        /* \"#utility.yul\":21276:21285   */\n      dup4\n        /* \"#utility.yul\":21272:21289   */\n      add\n        /* \"#utility.yul\":21265:21312   */\n      mstore\n        /* \"#utility.yul\":21329:21460   */\n      tag_483\n        /* \"#utility.yul\":21455:21459   */\n      dup2\n        /* \"#utility.yul\":21329:21460   */\n      tag_362\n      jump\t// in\n    tag_483:\n        /* \"#utility.yul\":21321:21460   */\n      swap1\n      pop\n        /* \"#utility.yul\":21219:21467   */\n      swap2\n      swap1\n      pop\n      jump\t// out\n        /* \"#utility.yul\":21473:21892   */\n    tag_155:\n        /* \"#utility.yul\":21639:21643   */\n      0x00\n        /* \"#utility.yul\":21677:21679   */\n      0x20\n        /* \"#utility.yul\":21666:21675   */\n      dup3\n        /* \"#utility.yul\":21662:21680   */\n      add\n        /* \"#utility.yul\":21654:21680   */\n      swap1\n      pop\n        /* \"#utility.yul\":21726:21735   */\n      dup2\n        /* \"#utility.yul\":21720:21724   */\n      dup2\n        /* \"#utility.yul\":21716:21736   */\n      sub\n        /* \"#utility.yul\":21712:21713   */\n      0x00\n        /* \"#utility.yul\":21701:21710   */\n      dup4\n        /* \"#utility.yul\":21697:21714   */\n      add\n        /* \"#utility.yul\":21690:21737   */\n      mstore\n        /* \"#utility.yul\":21754:21885   */\n      tag_485\n        /* \"#utility.yul\":21880:21884   */\n      dup2\n        /* \"#utility.yul\":21754:21885   */\n      tag_367\n      jump\t// in\n    tag_485:\n        /* \"#utility.yul\":21746:21885   */\n      swap1\n      pop\n        /* \"#utility.yul\":21644:21892   */\n      swap2\n      swap1\n      pop\n      jump\t// out\n        /* \"#utility.yul\":21898:22317   */\n    tag_87:\n        /* \"#utility.yul\":22064:22068   */\n      0x00\n        /* \"#utility.yul\":22102:22104   */\n      0x20\n        /* \"#utility.yul\":22091:22100   */\n      dup3\n        /* \"#utility.yul\":22087:22105   */\n      add\n        /* \"#utility.yul\":22079:22105   */\n      swap1\n      pop\n        /* \"#utility.yul\":22151:22160   */\n      dup2\n        /* \"#utility.yul\":22145:22149   */\n      dup2\n        /* \"#utility.yul\":22141:22161   */\n      sub\n        /* \"#utility.yul\":22137:22138   */\n      0x00\n        /* \"#utility.yul\":22126:22135   */\n      dup4\n        /* \"#utility.yul\":22122:22139   */\n      add\n        /* \"#utility.yul\":22115:22162   */\n      mstore\n        /* \"#utility.yul\":22179:22310   */\n      tag_487\n        /* \"#utility.yul\":22305:22309   */\n      dup2\n        /* \"#utility.yul\":22179:22310   */\n      tag_372\n      jump\t// in\n    tag_487:\n        /* \"#utility.yul\":22171:22310   */\n      swap1\n      pop\n        /* \"#utility.yul\":22069:22317   */\n      swap2\n      swap1\n      pop\n      jump\t// out\n        /* \"#utility.yul\":22323:22742   */\n    tag_189:\n        /* \"#utility.yul\":22489:22493   */\n      0x00\n        /* \"#utility.yul\":22527:22529   */\n      0x20\n        /* \"#utility.yul\":22516:22525   */\n      dup3\n        /* \"#utility.yul\":22512:22530   */\n      add\n        /* \"#utility.yul\":22504:22530   */\n      swap1\n      pop\n        /* \"#utility.yul\":22576:22585   */\n      dup2\n        /* \"#utility.yul\":22570:22574   */\n      dup2\n        /* \"#utility.yul\":22566:22586   */\n      sub\n        /* \"#utility.yul\":22562:22563   */\n      0x00\n        /* \"#utility.yul\":22551:22560   */\n      dup4\n        /* \"#utility.yul\":22547:22564   */\n      add\n        /* \"#utility.yul\":22540:22587   */\n      mstore\n        /* \"#utility.yul\":22604:22735   */\n      tag_489\n        /* \"#utility.yul\":22730:22734   */\n      dup2\n        /* \"#utility.yul\":22604:22735   */\n      tag_377\n      jump\t// in\n    tag_489:\n        /* \"#utility.yul\":22596:22735   */\n      swap1\n      pop\n        /* \"#utility.yul\":22494:22742   */\n      swap2\n      swap1\n      pop\n      jump\t// out\n        /* \"#utility.yul\":22748:23167   */\n    tag_93:\n        /* \"#utility.yul\":22914:22918   */\n      0x00\n        /* \"#utility.yul\":22952:22954   */\n      0x20\n        /* \"#utility.yul\":22941:22950   */\n      dup3\n        /* \"#utility.yul\":22937:22955   */\n      add\n        /* \"#utility.yul\":22929:22955   */\n      swap1\n      pop\n        /* \"#utility.yul\":23001:23010   */\n      dup2\n        /* \"#utility.yul\":22995:22999   */\n      dup2\n        /* \"#utility.yul\":22991:23011   */\n      sub\n        /* \"#utility.yul\":22987:22988   */\n      0x00\n        /* \"#utility.yul\":22976:22985   */\n      dup4\n        /* \"#utility.yul\":22972:22989   */\n      add\n        /* \"#utility.yul\":22965:23012   */\n      mstore\n        /* \"#utility.yul\":23029:23160   */\n      tag_491\n        /* \"#utility.yul\":23155:23159   */\n      dup2\n        /* \"#utility.yul\":23029:23160   */\n      tag_382\n      jump\t// in\n    tag_491:\n        /* \"#utility.yul\":23021:23160   */\n      swap1\n      pop\n        /* \"#utility.yul\":22919:23167   */\n      swap2\n      swap1\n      pop\n      jump\t// out\n        /* \"#utility.yul\":23173:23592   */\n    tag_159:\n        /* \"#utility.yul\":23339:23343   */\n      0x00\n        /* \"#utility.yul\":23377:23379   */\n      0x20\n        /* \"#utility.yul\":23366:23375   */\n      dup3\n        /* \"#utility.yul\":23362:23380   */\n      add\n        /* \"#utility.yul\":23354:23380   */\n      swap1\n      pop\n        /* \"#utility.yul\":23426:23435   */\n      dup2\n        /* \"#utility.yul\":23420:23424   */\n      dup2\n        /* \"#utility.yul\":23416:23436   */\n      sub\n        /* \"#utility.yul\":23412:23413   */\n      0x00\n        /* \"#utility.yul\":23401:23410   */\n      dup4\n        /* \"#utility.yul\":23397:23414   */\n      add\n        /* \"#utility.yul\":23390:23437   */\n      mstore\n        /* \"#utility.yul\":23454:23585   */\n      tag_493\n        /* \"#utility.yul\":23580:23584   */\n      dup2\n        /* \"#utility.yul\":23454:23585   */\n      tag_387\n      jump\t// in\n    tag_493:\n        /* \"#utility.yul\":23446:23585   */\n      swap1\n      pop\n        /* \"#utility.yul\":23344:23592   */\n      swap2\n      swap1\n      pop\n      jump\t// out\n        /* \"#utility.yul\":23598:23820   */\n    tag_50:\n        /* \"#utility.yul\":23691:23695   */\n      0x00\n        /* \"#utility.yul\":23729:23731   */\n      0x20\n        /* \"#utility.yul\":23718:23727   */\n      dup3\n        /* \"#utility.yul\":23714:23732   */\n      add\n        /* \"#utility.yul\":23706:23732   */\n      swap1\n      pop\n        /* \"#utility.yul\":23742:23813   */\n      tag_495\n        /* \"#utility.yul\":23810:23811   */\n      0x00\n        /* \"#utility.yul\":23799:23808   */\n      dup4\n        /* \"#utility.yul\":23795:23812   */\n      add\n        /* \"#utility.yul\":23786:23792   */\n      dup5\n        /* \"#utility.yul\":23742:23813   */\n      tag_392\n      jump\t// in\n    tag_495:\n        /* \"#utility.yul\":23696:23820   */\n      swap3\n      swap2\n      pop\n      pop\n      jump\t// out\n        /* \"#utility.yul\":23826:24048   */\n    tag_28:\n        /* \"#utility.yul\":23919:23923   */\n      0x00\n        /* \"#utility.yul\":23957:23959   */\n      0x20\n        /* \"#utility.yul\":23946:23955   */\n      dup3\n        /* \"#utility.yul\":23942:23960   */\n      add\n        /* \"#utility.yul\":23934:23960   */\n      swap1\n      pop\n        /* \"#utility.yul\":23970:24041   */\n      tag_497\n        /* \"#utility.yul\":24038:24039   */\n      0x00\n        /* \"#utility.yul\":24027:24036   */\n      dup4\n        /* \"#utility.yul\":24023:24040   */\n      add\n        /* \"#utility.yul\":24014:24020   */\n      dup5\n        /* \"#utility.yul\":23970:24041   */\n      tag_408\n      jump\t// in\n    tag_497:\n        /* \"#utility.yul\":23924:24048   */\n      swap3\n      swap2\n      pop\n      pop\n      jump\t// out\n        /* \"#utility.yul\":24054:24595   */\n    tag_34:\n        /* \"#utility.yul\":24225:24229   */\n      0x00\n        /* \"#utility.yul\":24263:24266   */\n      0x80\n        /* \"#utility.yul\":24252:24261   */\n      dup3\n        /* \"#utility.yul\":24248:24267   */\n      add\n        /* \"#utility.yul\":24240:24267   */\n      swap1\n      pop\n        /* \"#utility.yul\":24277:24346   */\n      tag_499\n        /* \"#utility.yul\":24343:24344   */\n      0x00\n        /* \"#utility.yul\":24332:24341   */\n      dup4\n        /* \"#utility.yul\":24328:24345   */\n      add\n        /* \"#utility.yul\":24319:24325   */\n      dup8\n        /* \"#utility.yul\":24277:24346   */\n      tag_420\n      jump\t// in\n    tag_499:\n        /* \"#utility.yul\":24356:24426   */\n      tag_500\n        /* \"#utility.yul\":24422:24424   */\n      0x20\n        /* \"#utility.yul\":24411:24420   */\n      dup4\n        /* \"#utility.yul\":24407:24425   */\n      add\n        /* \"#utility.yul\":24398:24404   */\n      dup7\n        /* \"#utility.yul\":24356:24426   */\n      tag_400\n      jump\t// in\n    tag_500:\n        /* \"#utility.yul\":24436:24506   */\n      tag_501\n        /* \"#utility.yul\":24502:24504   */\n      0x40\n        /* \"#utility.yul\":24491:24500   */\n      dup4\n        /* \"#utility.yul\":24487:24505   */\n      add\n        /* \"#utility.yul\":24478:24484   */\n      dup6\n        /* \"#utility.yul\":24436:24506   */\n      tag_412\n      jump\t// in\n    tag_501:\n        /* \"#utility.yul\":24516:24588   */\n      tag_502\n        /* \"#utility.yul\":24584:24586   */\n      0x60\n        /* \"#utility.yul\":24573:24582   */\n      dup4\n        /* \"#utility.yul\":24569:24587   */\n      add\n        /* \"#utility.yul\":24560:24566   */\n      dup5\n        /* \"#utility.yul\":24516:24588   */\n      tag_392\n      jump\t// in\n    tag_502:\n        /* \"#utility.yul\":24230:24595   */\n      swap6\n      swap5\n      pop\n      pop\n      pop\n      pop\n      pop\n      jump\t// out\n        /* \"#utility.yul\":24601:24770   */\n    tag_289:\n        /* \"#utility.yul\":24685:24696   */\n      0x00\n        /* \"#utility.yul\":24719:24725   */\n      dup3\n        /* \"#utility.yul\":24714:24717   */\n      dup3\n        /* \"#utility.yul\":24707:24726   */\n      mstore\n        /* \"#utility.yul\":24759:24763   */\n      0x20\n        /* \"#utility.yul\":24754:24757   */\n      dup3\n        /* \"#utility.yul\":24750:24764   */\n      add\n        /* \"#utility.yul\":24735:24764   */\n      swap1\n      pop\n        /* \"#utility.yul\":24697:24770   */\n      swap3\n      swap2\n      pop\n      pop\n      jump\t// out\n        /* \"#utility.yul\":24776:25081   */\n    tag_115:\n        /* \"#utility.yul\":24816:24819   */\n      0x00\n        /* \"#utility.yul\":24835:24855   */\n      tag_505\n        /* \"#utility.yul\":24853:24854   */\n      dup3\n        /* \"#utility.yul\":24835:24855   */\n      tag_411\n      jump\t// in\n    tag_505:\n        /* \"#utility.yul\":24830:24855   */\n      swap2\n      pop\n        /* \"#utility.yul\":24869:24889   */\n      tag_506\n        /* \"#utility.yul\":24887:24888   */\n      dup4\n        /* \"#utility.yul\":24869:24889   */\n      tag_411\n      jump\t// in\n    tag_506:\n        /* \"#utility.yul\":24864:24889   */\n      swap3\n      pop\n        /* \"#utility.yul\":25023:25024   */\n      dup3\n        /* \"#utility.yul\":24955:25021   */\n      0xffffffffffffffffffffffffffffffffffffffffffffffffffffffffffffffff\n        /* \"#utility.yul\":24951:25025   */\n      sub\n        /* \"#utility.yul\":24948:24949   */\n      dup3\n        /* \"#utility.yul\":24945:25026   */\n      gt\n        /* \"#utility.yul\":24942:24944   */\n      iszero\n      tag_507\n      jumpi\n        /* \"#utility.yul\":25029:25047   */\n      tag_508\n      tag_509\n      jump\t// in\n    tag_508:\n        /* \"#utility.yul\":24942:24944   */\n    tag_507:\n        /* \"#utility.yul\":25073:25074   */\n      dup3\n        /* \"#utility.yul\":25070:25071   */\n      dup3\n        /* \"#utility.yul\":25066:25075   */\n      add\n        /* \"#utility.yul\":25059:25075   */\n      swap1\n      pop\n        /* \"#utility.yul\":24820:25081   */\n      swap3\n      swap2\n      pop\n      pop\n      jump\t// out\n        /* \"#utility.yul\":25087:25333   */\n    tag_224:\n        /* \"#utility.yul\":25126:25129   */\n      0x00\n        /* \"#utility.yul\":25145:25164   */\n      tag_511\n        /* \"#utility.yul\":25162:25163   */\n      dup3\n        /* \"#utility.yul\":25145:25164   */\n      tag_415\n      jump\t// in\n    tag_511:\n        /* \"#utility.yul\":25140:25164   */\n      swap2\n      pop\n        /* \"#utility.yul\":25178:25197   */\n      tag_512\n        /* \"#utility.yul\":25195:25196   */\n      dup4\n        /* \"#utility.yul\":25178:25197   */\n      tag_415\n      jump\t// in\n    tag_512:\n        /* \"#utility.yul\":25173:25197   */\n      swap3\n      pop\n        /* \"#utility.yul\":25275:25276   */\n      dup3\n        /* \"#utility.yul\":25263:25273   */\n      0xffffffff\n        /* \"#utility.yul\":25259:25277   */\n      sub\n        /* \"#utility.yul\":25256:25257   */\n      dup3\n        /* \"#utility.yul\":25253:25278   */\n      gt\n        /* \"#utility.yul\":25250:25252   */\n      iszero\n      tag_513\n      jumpi\n        /* \"#utility.yul\":25281:25299   */\n      tag_514\n      tag_509\n      jump\t// in\n    tag_514:\n        /* \"#utility.yul\":25250:25252   */\n    tag_513:\n        /* \"#utility.yul\":25325:25326   */\n      dup3\n        /* \"#utility.yul\":25322:25323   */\n      dup3\n        /* \"#utility.yul\":25318:25327   */\n      add\n        /* \"#utility.yul\":25311:25327   */\n      swap1\n      pop\n        /* \"#utility.yul\":25130:25333   */\n      swap3\n      swap2\n      pop\n      pop\n      jump\t// out\n        /* \"#utility.yul\":25339:25524   */\n    tag_97:\n        /* \"#utility.yul\":25379:25380   */\n      0x00\n        /* \"#utility.yul\":25396:25416   */\n      tag_516\n        /* \"#utility.yul\":25414:25415   */\n      dup3\n        /* \"#utility.yul\":25396:25416   */\n      tag_411\n      jump\t// in\n    tag_516:\n        /* \"#utility.yul\":25391:25416   */\n      swap2\n      pop\n        /* \"#utility.yul\":25430:25450   */\n      tag_517\n        /* \"#utility.yul\":25448:25449   */\n      dup4\n        /* \"#utility.yul\":25430:25450   */\n      tag_411\n      jump\t// in\n    tag_517:\n        /* \"#utility.yul\":25425:25450   */\n      swap3\n      pop\n        /* \"#utility.yul\":25469:25470   */\n      dup3\n        /* \"#utility.yul\":25459:25461   */\n      tag_518\n      jumpi\n        /* \"#utility.yul\":25474:25492   */\n      tag_519\n      tag_520\n      jump\t// in\n    tag_519:\n        /* \"#utility.yul\":25459:25461   */\n    tag_518:\n        /* \"#utility.yul\":25516:25517   */\n      dup3\n        /* \"#utility.yul\":25513:25514   */\n      dup3\n        /* \"#utility.yul\":25509:25518   */\n      div\n        /* \"#utility.yul\":25504:25518   */\n      swap1\n      pop\n        /* \"#utility.yul\":25381:25524   */\n      swap3\n      swap2\n      pop\n      pop\n      jump\t// out\n        /* \"#utility.yul\":25530:25878   */\n    tag_95:\n        /* \"#utility.yul\":25570:25577   */\n      0x00\n        /* \"#utility.yul\":25593:25613   */\n      tag_522\n        /* \"#utility.yul\":25611:25612   */\n      dup3\n        /* \"#utility.yul\":25593:25613   */\n      tag_411\n      jump\t// in\n    tag_522:\n        /* \"#utility.yul\":25588:25613   */\n      swap2\n      pop\n        /* \"#utility.yul\":25627:25647   */\n      tag_523\n        /* \"#utility.yul\":25645:25646   */\n      dup4\n        /* \"#utility.yul\":25627:25647   */\n      tag_411\n      jump\t// in\n    tag_523:\n        /* \"#utility.yul\":25622:25647   */\n      swap3\n      pop\n        /* \"#utility.yul\":25815:25816   */\n      dup2\n        /* \"#utility.yul\":25747:25813   */\n      0xffffffffffffffffffffffffffffffffffffffffffffffffffffffffffffffff\n        /* \"#utility.yul\":25743:25817   */\n      div\n        /* \"#utility.yul\":25740:25741   */\n      dup4\n        /* \"#utility.yul\":25737:25818   */\n      gt\n        /* \"#utility.yul\":25732:25733   */\n      dup3\n        /* \"#utility.yul\":25725:25734   */\n      iszero\n        /* \"#utility.yul\":25718:25735   */\n      iszero\n        /* \"#utility.yul\":25714:25819   */\n      and\n        /* \"#utility.yul\":25711:25713   */\n      iszero\n      tag_524\n      jumpi\n        /* \"#utility.yul\":25822:25840   */\n      tag_525\n      tag_509\n      jump\t// in\n    tag_525:\n        /* \"#utility.yul\":25711:25713   */\n    tag_524:\n        /* \"#utility.yul\":25870:25871   */\n      dup3\n        /* \"#utility.yul\":25867:25868   */\n      dup3\n        /* \"#utility.yul\":25863:25872   */\n      mul\n        /* \"#utility.yul\":25852:25872   */\n      swap1\n      pop\n        /* \"#utility.yul\":25578:25878   */\n      swap3\n      swap2\n      pop\n      pop\n      jump\t// out\n        /* \"#utility.yul\":25884:26075   */\n    tag_106:\n        /* \"#utility.yul\":25924:25928   */\n      0x00\n        /* \"#utility.yul\":25944:25964   */\n      tag_527\n        /* \"#utility.yul\":25962:25963   */\n      dup3\n        /* \"#utility.yul\":25944:25964   */\n      tag_411\n      jump\t// in\n    tag_527:\n        /* \"#utility.yul\":25939:25964   */\n      swap2\n      pop\n        /* \"#utility.yul\":25978:25998   */\n      tag_528\n        /* \"#utility.yul\":25996:25997   */\n      dup4\n        /* \"#utility.yul\":25978:25998   */\n      tag_411\n      jump\t// in\n    tag_528:\n        /* \"#utility.yul\":25973:25998   */\n      swap3\n      pop\n        /* \"#utility.yul\":26017:26018   */\n      dup3\n        /* \"#utility.yul\":26014:26015   */\n      dup3\n        /* \"#utility.yul\":26011:26019   */\n      lt\n        /* \"#utility.yul\":26008:26010   */\n      iszero\n      tag_529\n      jumpi\n        /* \"#utility.yul\":26022:26040   */\n      tag_530\n      tag_509\n      jump\t// in\n    tag_530:\n        /* \"#utility.yul\":26008:26010   */\n    tag_529:\n        /* \"#utility.yul\":26067:26068   */\n      dup3\n        /* \"#utility.yul\":26064:26065   */\n      dup3\n        /* \"#utility.yul\":26060:26069   */\n      sub\n        /* \"#utility.yul\":26052:26069   */\n      swap1\n      pop\n        /* \"#utility.yul\":25929:26075   */\n      swap3\n      swap2\n      pop\n      pop\n      jump\t// out\n        /* \"#utility.yul\":26081:26177   */\n    tag_281:\n        /* \"#utility.yul\":26118:26125   */\n      0x00\n        /* \"#utility.yul\":26147:26171   */\n      tag_532\n        /* \"#utility.yul\":26165:26170   */\n      dup3\n        /* \"#utility.yul\":26147:26171   */\n      tag_533\n      jump\t// in\n    tag_532:\n        /* \"#utility.yul\":26136:26171   */\n      swap1\n      pop\n        /* \"#utility.yul\":26126:26177   */\n      swap2\n      swap1\n      pop\n      jump\t// out\n        /* \"#utility.yul\":26183:26273   */\n    tag_534:\n        /* \"#utility.yul\":26217:26224   */\n      0x00\n        /* \"#utility.yul\":26260:26265   */\n      dup2\n        /* \"#utility.yul\":26253:26266   */\n      iszero\n        /* \"#utility.yul\":26246:26267   */\n      iszero\n        /* \"#utility.yul\":26235:26267   */\n      swap1\n      pop\n        /* \"#utility.yul\":26225:26273   */\n      swap2\n      swap1\n      pop\n      jump\t// out\n        /* \"#utility.yul\":26279:26397   */\n    tag_395:\n        /* \"#utility.yul\":26316:26323   */\n      0x00\n        /* \"#utility.yul\":26356:26390   */\n      0xffffffffffffffffffffffffffffffff\n        /* \"#utility.yul\":26349:26354   */\n      dup3\n        /* \"#utility.yul\":26345:26391   */\n      and\n        /* \"#utility.yul\":26334:26391   */\n      swap1\n      pop\n        /* \"#utility.yul\":26324:26397   */\n      swap2\n      swap1\n      pop\n      jump\t// out\n        /* \"#utility.yul\":26403:26529   */\n    tag_533:\n        /* \"#utility.yul\":26440:26447   */\n      0x00\n        /* \"#utility.yul\":26480:26522   */\n      0xffffffffffffffffffffffffffffffffffffffff\n        /* \"#utility.yul\":26473:26478   */\n      dup3\n        /* \"#utility.yul\":26469:26523   */\n      and\n        /* \"#utility.yul\":26458:26523   */\n      swap1\n      pop\n        /* \"#utility.yul\":26448:26529   */\n      swap2\n      swap1\n      pop\n      jump\t// out\n        /* \"#utility.yul\":26535:26626   */\n    tag_403:\n        /* \"#utility.yul\":26571:26578   */\n      0x00\n        /* \"#utility.yul\":26611:26619   */\n      0xffffff\n        /* \"#utility.yul\":26604:26609   */\n      dup3\n        /* \"#utility.yul\":26600:26620   */\n      and\n        /* \"#utility.yul\":26589:26620   */\n      swap1\n      pop\n        /* \"#utility.yul\":26579:26626   */\n      swap2\n      swap1\n      pop\n      jump\t// out\n        /* \"#utility.yul\":26632:26709   */\n    tag_411:\n        /* \"#utility.yul\":26669:26676   */\n      0x00\n        /* \"#utility.yul\":26698:26703   */\n      dup2\n        /* \"#utility.yul\":26687:26703   */\n      swap1\n      pop\n        /* \"#utility.yul\":26677:26709   */\n      swap2\n      swap1\n      pop\n      jump\t// out\n        /* \"#utility.yul\":26715:26808   */\n    tag_415:\n        /* \"#utility.yul\":26751:26758   */\n      0x00\n        /* \"#utility.yul\":26791:26801   */\n      0xffffffff\n        /* \"#utility.yul\":26784:26789   */\n      dup3\n        /* \"#utility.yul\":26780:26802   */\n      and\n        /* \"#utility.yul\":26769:26802   */\n      swap1\n      pop\n        /* \"#utility.yul\":26759:26808   */\n      swap2\n      swap1\n      pop\n      jump\t// out\n        /* \"#utility.yul\":26814:26917   */\n    tag_423:\n        /* \"#utility.yul\":26850:26857   */\n      0x00\n        /* \"#utility.yul\":26890:26910   */\n      0xffffffffffffffffff\n        /* \"#utility.yul\":26883:26888   */\n      dup3\n        /* \"#utility.yul\":26879:26911   */\n      and\n        /* \"#utility.yul\":26868:26911   */\n      swap1\n      pop\n        /* \"#utility.yul\":26858:26917   */\n      swap2\n      swap1\n      pop\n      jump\t// out\n        /* \"#utility.yul\":26923:27075   */\n    tag_285:\n        /* \"#utility.yul\":26986:26995   */\n      0x00\n        /* \"#utility.yul\":27019:27069   */\n      tag_543\n        /* \"#utility.yul\":27063:27068   */\n      dup3\n        /* \"#utility.yul\":27019:27069   */\n      tag_544\n      jump\t// in\n    tag_543:\n        /* \"#utility.yul\":27006:27069   */\n      swap1\n      pop\n        /* \"#utility.yul\":26996:27075   */\n      swap2\n      swap1\n      pop\n      jump\t// out\n        /* \"#utility.yul\":27081:27207   */\n    tag_544:\n        /* \"#utility.yul\":27144:27153   */\n      0x00\n        /* \"#utility.yul\":27177:27201   */\n      tag_546\n        /* \"#utility.yul\":27195:27200   */\n      dup3\n        /* \"#utility.yul\":27177:27201   */\n      tag_533\n      jump\t// in\n    tag_546:\n        /* \"#utility.yul\":27164:27201   */\n      swap1\n      pop\n        /* \"#utility.yul\":27154:27207   */\n      swap2\n      swap1\n      pop\n      jump\t// out\n        /* \"#utility.yul\":27213:27326   */\n    tag_399:\n        /* \"#utility.yul\":27263:27272   */\n      0x00\n        /* \"#utility.yul\":27296:27320   */\n      tag_548\n        /* \"#utility.yul\":27314:27319   */\n      dup3\n        /* \"#utility.yul\":27296:27320   */\n      tag_395\n      jump\t// in\n    tag_548:\n        /* \"#utility.yul\":27283:27320   */\n      swap1\n      pop\n        /* \"#utility.yul\":27273:27326   */\n      swap2\n      swap1\n      pop\n      jump\t// out\n        /* \"#utility.yul\":27332:27443   */\n    tag_407:\n        /* \"#utility.yul\":27381:27390   */\n      0x00\n        /* \"#utility.yul\":27414:27437   */\n      tag_550\n        /* \"#utility.yul\":27431:27436   */\n      dup3\n        /* \"#utility.yul\":27414:27437   */\n      tag_403\n      jump\t// in\n    tag_550:\n        /* \"#utility.yul\":27401:27437   */\n      swap1\n      pop\n        /* \"#utility.yul\":27391:27443   */\n      swap2\n      swap1\n      pop\n      jump\t// out\n        /* \"#utility.yul\":27449:27560   */\n    tag_419:\n        /* \"#utility.yul\":27498:27507   */\n      0x00\n        /* \"#utility.yul\":27531:27554   */\n      tag_552\n        /* \"#utility.yul\":27548:27553   */\n      dup3\n        /* \"#utility.yul\":27531:27554   */\n      tag_423\n      jump\t// in\n    tag_552:\n        /* \"#utility.yul\":27518:27554   */\n      swap1\n      pop\n        /* \"#utility.yul\":27508:27560   */\n      swap2\n      swap1\n      pop\n      jump\t// out\n        /* \"#utility.yul\":27566:27746   */\n    tag_509:\n        /* \"#utility.yul\":27614:27691   */\n      0x4e487b7100000000000000000000000000000000000000000000000000000000\n        /* \"#utility.yul\":27611:27612   */\n      0x00\n        /* \"#utility.yul\":27604:27692   */\n      mstore\n        /* \"#utility.yul\":27711:27715   */\n      0x11\n        /* \"#utility.yul\":27708:27709   */\n      0x04\n        /* \"#utility.yul\":27701:27716   */\n      mstore\n        /* \"#utility.yul\":27735:27739   */\n      0x24\n        /* \"#utility.yul\":27732:27733   */\n      0x00\n        /* \"#utility.yul\":27725:27740   */\n      revert\n        /* \"#utility.yul\":27752:27932   */\n    tag_520:\n        /* \"#utility.yul\":27800:27877   */\n      0x4e487b7100000000000000000000000000000000000000000000000000000000\n        /* \"#utility.yul\":27797:27798   */\n      0x00\n        /* \"#utility.yul\":27790:27878   */\n      mstore\n        /* \"#utility.yul\":27897:27901   */\n      0x12\n        /* \"#utility.yul\":27894:27895   */\n      0x04\n        /* \"#utility.yul\":27887:27902   */\n      mstore\n        /* \"#utility.yul\":27921:27925   */\n      0x24\n        /* \"#utility.yul\":27918:27919   */\n      0x00\n        /* \"#utility.yul\":27911:27926   */\n      revert\n        /* \"#utility.yul\":27938:28117   */\n    tag_291:\n        /* \"#utility.yul\":28078:28109   */\n      0x526577617264206f696c657273207472616e73666572206661696c6564000000\n        /* \"#utility.yul\":28074:28075   */\n      0x00\n        /* \"#utility.yul\":28066:28072   */\n      dup3\n        /* \"#utility.yul\":28062:28076   */\n      add\n        /* \"#utility.yul\":28055:28110   */\n      mstore\n        /* \"#utility.yul\":28044:28117   */\n      pop\n      jump\t// out\n        /* \"#utility.yul\":28123:28344   */\n    tag_296:\n        /* \"#utility.yul\":28263:28297   */\n      0x56657374696e672072656c656173653a206e6f20746f6b656e73206172652064\n        /* \"#utility.yul\":28259:28260   */\n      0x00\n        /* \"#utility.yul\":28251:28257   */\n      dup3\n        /* \"#utility.yul\":28247:28261   */\n      add\n        /* \"#utility.yul\":28240:28298   */\n      mstore\n        /* \"#utility.yul\":28332:28336   */\n      0x7565000000000000000000000000000000000000000000000000000000000000\n        /* \"#utility.yul\":28327:28329   */\n      0x20\n        /* \"#utility.yul\":28319:28325   */\n      dup3\n        /* \"#utility.yul\":28315:28330   */\n      add\n        /* \"#utility.yul\":28308:28337   */\n      mstore\n        /* \"#utility.yul\":28229:28344   */\n      pop\n      jump\t// out\n        /* \"#utility.yul\":28350:28582   */\n    tag_301:\n        /* \"#utility.yul\":28490:28524   */\n      0x546f6b656e56657374696e673a2062656e656669636961727920697320746865\n        /* \"#utility.yul\":28486:28487   */\n      0x00\n        /* \"#utility.yul\":28478:28484   */\n      dup3\n        /* \"#utility.yul\":28474:28488   */\n      add\n        /* \"#utility.yul\":28467:28525   */\n      mstore\n        /* \"#utility.yul\":28559:28574   */\n      0x207a65726f206164647265737300000000000000000000000000000000000000\n        /* \"#utility.yul\":28554:28556   */\n      0x20\n        /* \"#utility.yul\":28546:28552   */\n      dup3\n        /* \"#utility.yul\":28542:28557   */\n      add\n        /* \"#utility.yul\":28535:28575   */\n      mstore\n        /* \"#utility.yul\":28456:28582   */\n      pop\n      jump\t// out\n        /* \"#utility.yul\":28588:28764   */\n    tag_306:\n        /* \"#utility.yul\":28728:28756   */\n      0x506f6f6c20746f6b656e207472616e73666572206661696c6564000000000000\n        /* \"#utility.yul\":28724:28725   */\n      0x00\n        /* \"#utility.yul\":28716:28722   */\n      dup3\n        /* \"#utility.yul\":28712:28726   */\n      add\n        /* \"#utility.yul\":28705:28757   */\n      mstore\n        /* \"#utility.yul\":28694:28764   */\n      pop\n      jump\t// out\n        /* \"#utility.yul\":28770:29074   */\n    tag_311:\n        /* \"#utility.yul\":28910:28944   */\n      0x596f75207374696c6c20686176652061207374616b65206c6f636b6564202d20\n        /* \"#utility.yul\":28906:28907   */\n      0x00\n        /* \"#utility.yul\":28898:28904   */\n      dup3\n        /* \"#utility.yul\":28894:28908   */\n      add\n        /* \"#utility.yul\":28887:28945   */\n      mstore\n        /* \"#utility.yul\":28979:29013   */\n      0x706c6561736520756e6c6f636b2066697273742c20646f6e2774206c65617665\n        /* \"#utility.yul\":28974:28976   */\n      0x20\n        /* \"#utility.yul\":28966:28972   */\n      dup3\n        /* \"#utility.yul\":28962:28977   */\n      add\n        /* \"#utility.yul\":28955:29014   */\n      mstore\n        /* \"#utility.yul\":29048:29066   */\n      0x2066726565206d6f6e6579206865726500000000000000000000000000000000\n        /* \"#utility.yul\":29043:29045   */\n      0x40\n        /* \"#utility.yul\":29035:29041   */\n      dup3\n        /* \"#utility.yul\":29031:29046   */\n      add\n        /* \"#utility.yul\":29024:29067   */\n      mstore\n        /* \"#utility.yul\":28876:29074   */\n      pop\n      jump\t// out\n        /* \"#utility.yul\":29080:29262   */\n    tag_316:\n        /* \"#utility.yul\":29220:29254   */\n      0x596f7520646f6e277420686176652061207374616b6520746f20756e6c6f636b\n        /* \"#utility.yul\":29216:29217   */\n      0x00\n        /* \"#utility.yul\":29208:29214   */\n      dup3\n        /* \"#utility.yul\":29204:29218   */\n      add\n        /* \"#utility.yul\":29197:29255   */\n      mstore\n        /* \"#utility.yul\":29186:29262   */\n      pop\n      jump\t// out\n        /* \"#utility.yul\":29268:29504   */\n    tag_321:\n        /* \"#utility.yul\":29408:29442   */\n      0x596f7572206c6f636b20706572696f642065786365656473205374616b696e67\n        /* \"#utility.yul\":29404:29405   */\n      0x00\n        /* \"#utility.yul\":29396:29402   */\n      dup3\n        /* \"#utility.yul\":29392:29406   */\n      add\n        /* \"#utility.yul\":29385:29443   */\n      mstore\n        /* \"#utility.yul\":29477:29496   */\n      0x2050726f6772616d206475726174696f6e000000000000000000000000000000\n        /* \"#utility.yul\":29472:29474   */\n      0x20\n        /* \"#utility.yul\":29464:29470   */\n      dup3\n        /* \"#utility.yul\":29460:29475   */\n      add\n        /* \"#utility.yul\":29453:29497   */\n      mstore\n        /* \"#utility.yul\":29374:29504   */\n      pop\n      jump\t// out\n        /* \"#utility.yul\":29510:29675   */\n    tag_326:\n        /* \"#utility.yul\":29650:29667   */\n      0x416c7265616479207374616b696e670000000000000000000000000000000000\n        /* \"#utility.yul\":29646:29647   */\n      0x00\n        /* \"#utility.yul\":29638:29644   */\n      dup3\n        /* \"#utility.yul\":29634:29648   */\n      add\n        /* \"#utility.yul\":29627:29668   */\n      mstore\n        /* \"#utility.yul\":29616:29675   */\n      pop\n      jump\t// out\n        /* \"#utility.yul\":29681:29909   */\n    tag_331:\n        /* \"#utility.yul\":29821:29855   */\n      0x596f75206469646e2774206561726e20616e7920696e746567657220616d6f75\n        /* \"#utility.yul\":29817:29818   */\n      0x00\n        /* \"#utility.yul\":29809:29815   */\n      dup3\n        /* \"#utility.yul\":29805:29819   */\n      add\n        /* \"#utility.yul\":29798:29856   */\n      mstore\n        /* \"#utility.yul\":29890:29901   */\n      0x6e74206f66207765690000000000000000000000000000000000000000000000\n        /* \"#utility.yul\":29885:29887   */\n      0x20\n        /* \"#utility.yul\":29877:29883   */\n      dup3\n        /* \"#utility.yul\":29873:29888   */\n      add\n        /* \"#utility.yul\":29866:29902   */\n      mstore\n        /* \"#utility.yul\":29787:29909   */\n      pop\n      jump\t// out\n        /* \"#utility.yul\":29915:30153   */\n    tag_336:\n        /* \"#utility.yul\":30055:30089   */\n      0x4e65697468657220746f6b656e416d6f756e74206e6f72206c6f636b696e6750\n        /* \"#utility.yul\":30051:30052   */\n      0x00\n        /* \"#utility.yul\":30043:30049   */\n      dup3\n        /* \"#utility.yul\":30039:30053   */\n      add\n        /* \"#utility.yul\":30032:30090   */\n      mstore\n        /* \"#utility.yul\":30124:30145   */\n      0x6572696f6420636f756c646e2774206265203000000000000000000000000000\n        /* \"#utility.yul\":30119:30121   */\n      0x20\n        /* \"#utility.yul\":30111:30117   */\n      dup3\n        /* \"#utility.yul\":30107:30122   */\n      add\n        /* \"#utility.yul\":30100:30146   */\n      mstore\n        /* \"#utility.yul\":30021:30153   */\n      pop\n      jump\t// out\n        /* \"#utility.yul\":30159:30406   */\n    tag_341:\n        /* \"#utility.yul\":30299:30333   */\n      0x596f752063616e277420776974686472617720746865207374616b6520696e20\n        /* \"#utility.yul\":30295:30296   */\n      0x00\n        /* \"#utility.yul\":30287:30293   */\n      dup3\n        /* \"#utility.yul\":30283:30297   */\n      add\n        /* \"#utility.yul\":30276:30334   */\n      mstore\n        /* \"#utility.yul\":30368:30398   */\n      0x7468652073616d6520626c6f636b20697420776173206c6f636b656400000000\n        /* \"#utility.yul\":30363:30365   */\n      0x20\n        /* \"#utility.yul\":30355:30361   */\n      dup3\n        /* \"#utility.yul\":30351:30366   */\n      add\n        /* \"#utility.yul\":30344:30399   */\n      mstore\n        /* \"#utility.yul\":30265:30406   */\n      pop\n      jump\t// out\n        /* \"#utility.yul\":30412:30640   */\n    tag_346:\n        /* \"#utility.yul\":30552:30586   */\n      0x5374616b696e6746756e6420646f65736e2774206861766520656e6f75676820\n        /* \"#utility.yul\":30548:30549   */\n      0x00\n        /* \"#utility.yul\":30540:30546   */\n      dup3\n        /* \"#utility.yul\":30536:30550   */\n      add\n        /* \"#utility.yul\":30529:30587   */\n      mstore\n        /* \"#utility.yul\":30621:30632   */\n      0x616c6c6f77616e63650000000000000000000000000000000000000000000000\n        /* \"#utility.yul\":30616:30618   */\n      0x20\n        /* \"#utility.yul\":30608:30614   */\n      dup3\n        /* \"#utility.yul\":30604:30619   */\n      add\n        /* \"#utility.yul\":30597:30633   */\n      mstore\n        /* \"#utility.yul\":30518:30640   */\n      pop\n      jump\t// out\n        /* \"#utility.yul\":30646:30828   */\n    tag_351:\n        /* \"#utility.yul\":30786:30820   */\n      0x706f6f6c546f6b656e20616464726573732063616e6e6f74206265207a65726f\n        /* \"#utility.yul\":30782:30783   */\n      0x00\n        /* \"#utility.yul\":30774:30780   */\n      dup3\n        /* \"#utility.yul\":30770:30784   */\n      add\n        /* \"#utility.yul\":30763:30821   */\n      mstore\n        /* \"#utility.yul\":30752:30828   */\n      pop\n      jump\t// out\n        /* \"#utility.yul\":30834:31064   */\n    tag_356:\n        /* \"#utility.yul\":30974:31008   */\n      0x5374616b696e6746756e6420646f65736e2774206861766520656e6f75676820\n        /* \"#utility.yul\":30970:30971   */\n      0x00\n        /* \"#utility.yul\":30962:30968   */\n      dup3\n        /* \"#utility.yul\":30958:30972   */\n      add\n        /* \"#utility.yul\":30951:31009   */\n      mstore\n        /* \"#utility.yul\":31043:31056   */\n      0x4f494c2062616c616e6365000000000000000000000000000000000000000000\n        /* \"#utility.yul\":31038:31040   */\n      0x20\n        /* \"#utility.yul\":31030:31036   */\n      dup3\n        /* \"#utility.yul\":31026:31041   */\n      add\n        /* \"#utility.yul\":31019:31057   */\n      mstore\n        /* \"#utility.yul\":30940:31064   */\n      pop\n      jump\t// out\n        /* \"#utility.yul\":31070:31237   */\n    tag_361:\n        /* \"#utility.yul\":31210:31229   */\n      0x706f6f6c546f6b656e206e6f7420736574000000000000000000000000000000\n        /* \"#utility.yul\":31206:31207   */\n      0x00\n        /* \"#utility.yul\":31198:31204   */\n      dup3\n        /* \"#utility.yul\":31194:31208   */\n      add\n        /* \"#utility.yul\":31187:31230   */\n      mstore\n        /* \"#utility.yul\":31176:31237   */\n      pop\n      jump\t// out\n        /* \"#utility.yul\":31243:31463   */\n    tag_366:\n        /* \"#utility.yul\":31383:31417   */\n      0x5472616e7366657246726f6d206f6620706f6f6c546f6b656e73206661696c65\n        /* \"#utility.yul\":31379:31380   */\n      0x00\n        /* \"#utility.yul\":31371:31377   */\n      dup3\n        /* \"#utility.yul\":31367:31381   */\n      add\n        /* \"#utility.yul\":31360:31418   */\n      mstore\n        /* \"#utility.yul\":31452:31455   */\n      0x6400000000000000000000000000000000000000000000000000000000000000\n        /* \"#utility.yul\":31447:31449   */\n      0x20\n        /* \"#utility.yul\":31439:31445   */\n      dup3\n        /* \"#utility.yul\":31435:31450   */\n      add\n        /* \"#utility.yul\":31428:31456   */\n      mstore\n        /* \"#utility.yul\":31349:31463   */\n      pop\n      jump\t// out\n        /* \"#utility.yul\":31469:31646   */\n    tag_371:\n        /* \"#utility.yul\":31609:31638   */\n      0x43616e206f6e6c792062652063616c6c6564206279206f776e65720000000000\n        /* \"#utility.yul\":31605:31606   */\n      0x00\n        /* \"#utility.yul\":31597:31603   */\n      dup3\n        /* \"#utility.yul\":31593:31607   */\n      add\n        /* \"#utility.yul\":31586:31639   */\n      mstore\n        /* \"#utility.yul\":31575:31646   */\n      pop\n      jump\t// out\n        /* \"#utility.yul\":31652:31890   */\n    tag_376:\n        /* \"#utility.yul\":31792:31826   */\n      0x596f752063616e206f6e6c792067657420526577617264732061667465722053\n        /* \"#utility.yul\":31788:31789   */\n      0x00\n        /* \"#utility.yul\":31780:31786   */\n      dup3\n        /* \"#utility.yul\":31776:31790   */\n      add\n        /* \"#utility.yul\":31769:31827   */\n      mstore\n        /* \"#utility.yul\":31861:31882   */\n      0x74616b696e672050726f6772616d20656e647300000000000000000000000000\n        /* \"#utility.yul\":31856:31858   */\n      0x20\n        /* \"#utility.yul\":31848:31854   */\n      dup3\n        /* \"#utility.yul\":31844:31859   */\n      add\n        /* \"#utility.yul\":31837:31883   */\n      mstore\n        /* \"#utility.yul\":31758:31890   */\n      pop\n      jump\t// out\n        /* \"#utility.yul\":31896:32126   */\n    tag_381:\n        /* \"#utility.yul\":32036:32070   */\n      0x5472616e7366657246726f6d206f66204f494c2066726f6d205374616b696e67\n        /* \"#utility.yul\":32032:32033   */\n      0x00\n        /* \"#utility.yul\":32024:32030   */\n      dup3\n        /* \"#utility.yul\":32020:32034   */\n      add\n        /* \"#utility.yul\":32013:32071   */\n      mstore\n        /* \"#utility.yul\":32105:32118   */\n      0x46756e64206661696c6564000000000000000000000000000000000000000000\n        /* \"#utility.yul\":32100:32102   */\n      0x20\n        /* \"#utility.yul\":32092:32098   */\n      dup3\n        /* \"#utility.yul\":32088:32103   */\n      add\n        /* \"#utility.yul\":32081:32119   */\n      mstore\n        /* \"#utility.yul\":32002:32126   */\n      pop\n      jump\t// out\n        /* \"#utility.yul\":32132:32313   */\n    tag_386:\n        /* \"#utility.yul\":32272:32305   */\n      0x596f7520646f6e2774206861766520616e7920726577617264506f696e747300\n        /* \"#utility.yul\":32268:32269   */\n      0x00\n        /* \"#utility.yul\":32260:32266   */\n      dup3\n        /* \"#utility.yul\":32256:32270   */\n      add\n        /* \"#utility.yul\":32249:32306   */\n      mstore\n        /* \"#utility.yul\":32238:32313   */\n      pop\n      jump\t// out\n        /* \"#utility.yul\":32319:32494   */\n    tag_391:\n        /* \"#utility.yul\":32459:32486   */\n      0x706f6f6c546f6b656e2077617320616c72656164792073657400000000000000\n        /* \"#utility.yul\":32455:32456   */\n      0x00\n        /* \"#utility.yul\":32447:32453   */\n      dup3\n        /* \"#utility.yul\":32443:32457   */\n      add\n        /* \"#utility.yul\":32436:32487   */\n      mstore\n        /* \"#utility.yul\":32425:32494   */\n      pop\n      jump\t// out\n        /* \"#utility.yul\":32500:32622   */\n    tag_244:\n        /* \"#utility.yul\":32573:32597   */\n      tag_577\n        /* \"#utility.yul\":32591:32596   */\n      dup2\n        /* \"#utility.yul\":32573:32597   */\n      tag_281\n      jump\t// in\n    tag_577:\n        /* \"#utility.yul\":32566:32571   */\n      dup2\n        /* \"#utility.yul\":32563:32598   */\n      eq\n        /* \"#utility.yul\":32553:32555   */\n      tag_578\n      jumpi\n        /* \"#utility.yul\":32612:32613   */\n      0x00\n        /* \"#utility.yul\":32609:32610   */\n      dup1\n        /* \"#utility.yul\":32602:32614   */\n      revert\n        /* \"#utility.yul\":32553:32555   */\n    tag_578:\n        /* \"#utility.yul\":32543:32622   */\n      pop\n      jump\t// out\n        /* \"#utility.yul\":32628:32744   */\n    tag_248:\n        /* \"#utility.yul\":32698:32719   */\n      tag_580\n        /* \"#utility.yul\":32713:32718   */\n      dup2\n        /* \"#utility.yul\":32698:32719   */\n      tag_534\n      jump\t// in\n    tag_580:\n        /* \"#utility.yul\":32691:32696   */\n      dup2\n        /* \"#utility.yul\":32688:32720   */\n      eq\n        /* \"#utility.yul\":32678:32680   */\n      tag_581\n      jumpi\n        /* \"#utility.yul\":32734:32735   */\n      0x00\n        /* \"#utility.yul\":32731:32732   */\n      dup1\n        /* \"#utility.yul\":32724:32736   */\n      revert\n        /* \"#utility.yul\":32678:32680   */\n    tag_581:\n        /* \"#utility.yul\":32668:32744   */\n      pop\n      jump\t// out\n        /* \"#utility.yul\":32750:32870   */\n    tag_252:\n        /* \"#utility.yul\":32822:32845   */\n      tag_583\n        /* \"#utility.yul\":32839:32844   */\n      dup2\n        /* \"#utility.yul\":32822:32845   */\n      tag_403\n      jump\t// in\n    tag_583:\n        /* \"#utility.yul\":32815:32820   */\n      dup2\n        /* \"#utility.yul\":32812:32846   */\n      eq\n        /* \"#utility.yul\":32802:32804   */\n      tag_584\n      jumpi\n        /* \"#utility.yul\":32860:32861   */\n      0x00\n        /* \"#utility.yul\":32857:32858   */\n      dup1\n        /* \"#utility.yul\":32850:32862   */\n      revert\n        /* \"#utility.yul\":32802:32804   */\n    tag_584:\n        /* \"#utility.yul\":32792:32870   */\n      pop\n      jump\t// out\n        /* \"#utility.yul\":32876:32998   */\n    tag_256:\n        /* \"#utility.yul\":32949:32973   */\n      tag_586\n        /* \"#utility.yul\":32967:32972   */\n      dup2\n        /* \"#utility.yul\":32949:32973   */\n      tag_411\n      jump\t// in\n    tag_586:\n        /* \"#utility.yul\":32942:32947   */\n      dup2\n        /* \"#utility.yul\":32939:32974   */\n      eq\n        /* \"#utility.yul\":32929:32931   */\n      tag_587\n      jumpi\n        /* \"#utility.yul\":32988:32989   */\n      0x00\n        /* \"#utility.yul\":32985:32986   */\n      dup1\n        /* \"#utility.yul\":32978:32990   */\n      revert\n        /* \"#utility.yul\":32929:32931   */\n    tag_587:\n        /* \"#utility.yul\":32919:32998   */\n      pop\n      jump\t// out\n        /* \"#utility.yul\":33004:33124   */\n    tag_260:\n        /* \"#utility.yul\":33076:33099   */\n      tag_589\n        /* \"#utility.yul\":33093:33098   */\n      dup2\n        /* \"#utility.yul\":33076:33099   */\n      tag_423\n      jump\t// in\n    tag_589:\n        /* \"#utility.yul\":33069:33074   */\n      dup2\n        /* \"#utility.yul\":33066:33100   */\n      eq\n        /* \"#utility.yul\":33056:33058   */\n      tag_590\n      jumpi\n        /* \"#utility.yul\":33114:33115   */\n      0x00\n        /* \"#utility.yul\":33111:33112   */\n      dup1\n        /* \"#utility.yul\":33104:33116   */\n      revert\n        /* \"#utility.yul\":33056:33058   */\n    tag_590:\n        /* \"#utility.yul\":33046:33124   */\n      pop\n      jump\t// out\n\n    auxdata: 0xa2646970667358221220a25e1dc47c074fc7ad67e2dde24199b988b0169d8b0a16a9b9ee94339805a8fe64736f6c63430008040033\n}\n",
				"bytecode": {
					"linkReferences": {},
					"object": "6101206040523480156200001257600080fd5b50604051620032b5380380620032b58339818101604052810190620000389190620001eb565b600073ffffffffffffffffffffffffffffffffffffffff168173ffffffffffffffffffffffffffffffffffffffff161415620000ab576040517f08c379a0000000000000000000000000000000000000000000000000000000008152600401620000a290620002bb565b60405180910390fd5b8073ffffffffffffffffffffffffffffffffffffffff166101008173ffffffffffffffffffffffffffffffffffffffff1660601b81525050600073ffffffffffffffffffffffffffffffffffffffff168573ffffffffffffffffffffffffffffffffffffffff16141562000156576040517f08c379a00000000000000000000000000000000000000000000000000000000081526004016200014d90620002dd565b60405180910390fd5b8473ffffffffffffffffffffffffffffffffffffffff1660c08173ffffffffffffffffffffffffffffffffffffffff1660601b8152505083436200019b919062000310565b608081815250508160e081815250508260a08181525050505050505062000486565b600081519050620001ce8162000452565b92915050565b600081519050620001e5816200046c565b92915050565b600080600080600060a086880312156200020457600080fd5b60006200021488828901620001bd565b95505060206200022788828901620001d4565b94505060406200023a88828901620001d4565b93505060606200024d88828901620001d4565b92505060806200026088828901620001bd565b9150509295509295909350565b60006200027c601c83620002ff565b91506200028982620003da565b602082019050919050565b6000620002a3602183620002ff565b9150620002b08262000403565b604082019050919050565b60006020820190508181036000830152620002d6816200026d565b9050919050565b60006020820190508181036000830152620002f88162000294565b9050919050565b600082825260208201905092915050565b60006200031d82620003a1565b91506200032a83620003a1565b9250827fffffffffffffffffffffffffffffffffffffffffffffffffffffffffffffffff03821115620003625762000361620003ab565b5b828201905092915050565b60006200037a8262000381565b9050919050565b600073ffffffffffffffffffffffffffffffffffffffff82169050919050565b6000819050919050565b7f4e487b7100000000000000000000000000000000000000000000000000000000600052601160045260246000fd5b7f4f776e657220616464726573732063616e6e6f74206265207a65726f00000000600082015250565b7f6f696c6572546f6b656e20616464726573732063616e6e6f74206265207a657260008201527f6f00000000000000000000000000000000000000000000000000000000000000602082015250565b6200045d816200036d565b81146200046957600080fd5b50565b6200047781620003a1565b81146200048357600080fd5b50565b60805160a05160c05160601c60e0516101005160601c612d7b6200053a60003960008181610d9b0152610e3f01526000818161058301528181611a2b0152611ac4015260008181610ba901528181610c73015281816110300152818161113b01526112270152600081816104fa01528181610aef0152818161100f0152818161111a015261126501526000818161032d015281816106bf01528181610dbf01528181611a4c0152611ae50152612d7b6000f3fe608060405234801561001057600080fd5b506004361061010b5760003560e01c806386d1a69f116100a2578063c959360b11610071578063c959360b14610287578063cbdf382c146102b7578063e0e4a722146102d5578063f6ffab8814610305578063f968f493146103215761010b565b806386d1a69f146102235780638da5cb5b1461022d578063bc0925ae1461024b578063c2e8caf6146102695761010b565b806352946b04116100de57806352946b041461018757806370ff852b146101a5578063798633b9146101d557806381e9207d146102055761010b565b80630572b0cc146101105780631514617e1461011a57806316934fc414610138578063378592c81461016b575b600080fd5b61011861032b565b005b610122610581565b60405161012f9190612477565b60405180910390f35b610152600480360381019061014d9190611bd4565b6105a5565b6040516101629493929190612492565b60405180910390f35b61018560048036038101906101809190611c8b565b610625565b005b61018f610aed565b60405161019c9190612477565b60405180910390f35b6101bf60048036038101906101ba9190611bd4565b610b11565b6040516101cc9190612477565b60405180910390f35b6101ef60048036038101906101ea9190611c8b565b610b29565b6040516101fc919061245c565b60405180910390f35b61020d610ba7565b60405161021a91906121a1565b60405180910390f35b61022b610bcb565b005b610235610d99565b604051610242919061203c565b60405180910390f35b610253610dbd565b6040516102609190612477565b60405180910390f35b610271610de1565b60405161027e9190612477565b60405180910390f35b6102a1600480360381019061029c9190611bd4565b610de7565b6040516102ae9190612477565b60405180910390f35b6102bf610dff565b6040516102cc91906121a1565b60405180910390f35b6102ef60048036038101906102ea9190611bd4565b610e25565b6040516102fc9190612477565b60405180910390f35b61031f600480360381019061031a9190611bfd565b610e3d565b005b610329611337565b005b7f0000000000000000000000000000000000000000000000000000000000000000431161038d576040517f08c379a0000000000000000000000000000000000000000000000000000000008152600401610384906123dc565b60405180910390fd5b60008060003373ffffffffffffffffffffffffffffffffffffffff1673ffffffffffffffffffffffffffffffffffffffff16815260200190815260200160002060000160009054906101000a900468ffffffffffffffffff1668ffffffffffffffffff1614610431576040517f08c379a00000000000000000000000000000000000000000000000000000000081526004016104289061223c565b60405180910390fd5b6000600160003373ffffffffffffffffffffffffffffffffffffffff1673ffffffffffffffffffffffffffffffffffffffff16815260200190815260200160002054116104b3576040517f08c379a00000000000000000000000000000000000000000000000000000000081526004016104aa9061241c565b60405180910390fd5b6000600254600160003373ffffffffffffffffffffffffffffffffffffffff1673ffffffffffffffffffffffffffffffffffffffff168152602001908152602001600020547f000000000000000000000000000000000000000000000000000000000000000061052391906125a9565b61052d9190612578565b90506000600160003373ffffffffffffffffffffffffffffffffffffffff1673ffffffffffffffffffffffffffffffffffffffff1681526020019081526020016000208190555061057e338261172a565b50565b7f000000000000000000000000000000000000000000000000000000000000000081565b60006020528060005260406000206000915090508060000160009054906101000a900468ffffffffffffffffff16908060000160099054906101000a900462ffffff169080600001600c9054906101000a900463ffffffff16908060000160109054906101000a90046fffffffffffffffffffffffffffffffff16905084565b600073ffffffffffffffffffffffffffffffffffffffff16600360009054906101000a900473ffffffffffffffffffffffffffffffffffffffff1673ffffffffffffffffffffffffffffffffffffffff1614156106b7576040517f08c379a00000000000000000000000000000000000000000000000000000000081526004016106ae9061237c565b60405180910390fd5b8062ffffff167f00000000000000000000000000000000000000000000000000000000000000006106e89190612603565b43111561072a576040517f08c379a00000000000000000000000000000000000000000000000000000000081526004016107219061227c565b60405180910390fd5b60008060003373ffffffffffffffffffffffffffffffffffffffff1673ffffffffffffffffffffffffffffffffffffffff16815260200190815260200160002060000160009054906101000a900468ffffffffffffffffff1668ffffffffffffffffff16146107ce576040517f08c379a00000000000000000000000000000000000000000000000000000000081526004016107c59061229c565b60405180910390fd5b60006107da8383610b29565b9050600060405180608001604052808568ffffffffffffffffff1681526020018462ffffff1681526020014363ffffffff168152602001836fffffffffffffffffffffffffffffffff168152509050806000803373ffffffffffffffffffffffffffffffffffffffff1673ffffffffffffffffffffffffffffffffffffffff16815260200190815260200160002060008201518160000160006101000a81548168ffffffffffffffffff021916908368ffffffffffffffffff16021790555060208201518160000160096101000a81548162ffffff021916908362ffffff160217905550604082015181600001600c6101000a81548163ffffffff021916908363ffffffff16021790555060608201518160000160106101000a8154816fffffffffffffffffffffffffffffffff02191690836fffffffffffffffffffffffffffffffff160217905550905050816fffffffffffffffffffffffffffffffff166002600082825461094b91906124e8565b92505081905550816fffffffffffffffffffffffffffffffff16600160003373ffffffffffffffffffffffffffffffffffffffff1673ffffffffffffffffffffffffffffffffffffffff16815260200190815260200160002060008282546109b391906124e8565b92505081905550600360009054906101000a900473ffffffffffffffffffffffffffffffffffffffff1673ffffffffffffffffffffffffffffffffffffffff166323b872dd3330876040518463ffffffff1660e01b8152600401610a19939291906120b7565b602060405180830381600087803b158015610a3357600080fd5b505af1158015610a47573d6000803e3d6000fd5b505050506040513d601f19601f82011682018060405250810190610a6b9190611c39565b610aaa576040517f08c379a0000000000000000000000000000000000000000000000000000000008152600401610aa19061239c565b60405180910390fd5b7fe7dbea143058f90be7a1644e539342c25ddc5379868fe922bab596de99debf4133858585604051610adf9493929190612117565b60405180910390a150505050565b7f000000000000000000000000000000000000000000000000000000000000000081565b60056020528060005260406000206000915090505481565b6000808262ffffff168362ffffff168568ffffffffffffffffff16610b4e91906125a9565b610b5891906125a9565b905060008111610b9d576040517f08c379a0000000000000000000000000000000000000000000000000000000008152600401610b94906122dc565b60405180910390fd5b8091505092915050565b7f000000000000000000000000000000000000000000000000000000000000000081565b6000610bd63361185e565b905060008111610c1b576040517f08c379a0000000000000000000000000000000000000000000000000000000008152600401610c12906121dc565b60405180910390fd5b80600560003373ffffffffffffffffffffffffffffffffffffffff1673ffffffffffffffffffffffffffffffffffffffff1681526020019081526020016000206000828254610c6a91906124e8565b925050819055507f000000000000000000000000000000000000000000000000000000000000000073ffffffffffffffffffffffffffffffffffffffff1663a9059cbb33836040518363ffffffff1660e01b8152600401610ccc9291906120ee565b602060405180830381600087803b158015610ce657600080fd5b505af1158015610cfa573d6000803e3d6000fd5b505050506040513d601f19601f82011682018060405250810190610d1e9190611c39565b610d5d576040517f08c379a0000000000000000000000000000000000000000000000000000000008152600401610d54906121bc565b60405180910390fd5b7f769d4212c4fbfaa012a896b49e0f3bb14d32dd0d60ce1a13d357ee6b69db77c23382604051610d8e9291906120ee565b60405180910390a150565b7f000000000000000000000000000000000000000000000000000000000000000081565b7f000000000000000000000000000000000000000000000000000000000000000081565b60025481565b60016020528060005260406000206000915090505481565b600360009054906101000a900473ffffffffffffffffffffffffffffffffffffffff1681565b60046020528060005260406000206000915090505481565b7f000000000000000000000000000000000000000000000000000000000000000073ffffffffffffffffffffffffffffffffffffffff163373ffffffffffffffffffffffffffffffffffffffff1614610ecb576040517f08c379a0000000000000000000000000000000000000000000000000000000008152600401610ec2906123bc565b60405180910390fd5b600073ffffffffffffffffffffffffffffffffffffffff16600360009054906101000a900473ffffffffffffffffffffffffffffffffffffffff1673ffffffffffffffffffffffffffffffffffffffff1614610f5c576040517f08c379a0000000000000000000000000000000000000000000000000000000008152600401610f539061243c565b60405180910390fd5b600073ffffffffffffffffffffffffffffffffffffffff168273ffffffffffffffffffffffffffffffffffffffff161415610fcc576040517f08c379a0000000000000000000000000000000000000000000000000000000008152600401610fc39061233c565b60405180910390fd5b81600360006101000a81548173ffffffffffffffffffffffffffffffffffffffff021916908373ffffffffffffffffffffffffffffffffffffffff1602179055507f00000000000000000000000000000000000000000000000000000000000000007f000000000000000000000000000000000000000000000000000000000000000073ffffffffffffffffffffffffffffffffffffffff166370a08231836040518263ffffffff1660e01b8152600401611087919061203c565b60206040518083038186803b15801561109f57600080fd5b505afa1580156110b3573d6000803e3d6000fd5b505050506040513d601f19601f820116820180604052508101906110d79190611c62565b1015611118576040517f08c379a000000000000000000000000000000000000000000000000000000000815260040161110f9061235c565b60405180910390fd5b7f00000000000000000000000000000000000000000000000000000000000000007f000000000000000000000000000000000000000000000000000000000000000073ffffffffffffffffffffffffffffffffffffffff1663dd62ed3e83306040518363ffffffff1660e01b8152600401611194929190612057565b60206040518083038186803b1580156111ac57600080fd5b505afa1580156111c0573d6000803e3d6000fd5b505050506040513d601f19601f820116820180604052508101906111e49190611c62565b1015611225576040517f08c379a000000000000000000000000000000000000000000000000000000000815260040161121c9061231c565b60405180910390fd5b7f000000000000000000000000000000000000000000000000000000000000000073ffffffffffffffffffffffffffffffffffffffff166323b872dd82307f00000000000000000000000000000000000000000000000000000000000000006040518463ffffffff1660e01b81526004016112a293929190612080565b602060405180830381600087803b1580156112bc57600080fd5b505af11580156112d0573d6000803e3d6000fd5b505050506040513d601f19601f820116820180604052508101906112f49190611c39565b611333576040517f08c379a000000000000000000000000000000000000000000000000000000000815260040161132a906123fc565b60405180910390fd5b5050565b600073ffffffffffffffffffffffffffffffffffffffff16600360009054906101000a900473ffffffffffffffffffffffffffffffffffffffff1673ffffffffffffffffffffffffffffffffffffffff1614156113c9576040517f08c379a00000000000000000000000000000000000000000000000000000000081526004016113c09061237c565b60405180910390fd5b60008060003373ffffffffffffffffffffffffffffffffffffffff1673ffffffffffffffffffffffffffffffffffffffff1681526020019081526020016000206040518060800160405290816000820160009054906101000a900468ffffffffffffffffff1668ffffffffffffffffff1668ffffffffffffffffff1681526020016000820160099054906101000a900462ffffff1662ffffff1662ffffff16815260200160008201600c9054906101000a900463ffffffff1663ffffffff1663ffffffff1681526020016000820160109054906101000a90046fffffffffffffffffffffffffffffffff166fffffffffffffffffffffffffffffffff166fffffffffffffffffffffffffffffffff168152505090506000816000015168ffffffffffffffffff1690506000811415611536576040517f08c379a000000000000000000000000000000000000000000000000000000000815260040161152d9061225c565b60405180910390fd5b816040015163ffffffff164311611582576040517f08c379a0000000000000000000000000000000000000000000000000000000008152600401611579906122fc565b60405180910390fd5b61158b826118ba565b6000803373ffffffffffffffffffffffffffffffffffffffff1673ffffffffffffffffffffffffffffffffffffffff168152602001908152602001600020600080820160006101000a81549068ffffffffffffffffff02191690556000820160096101000a81549062ffffff021916905560008201600c6101000a81549063ffffffff02191690556000820160106101000a8154906fffffffffffffffffffffffffffffffff02191690555050600360009054906101000a900473ffffffffffffffffffffffffffffffffffffffff1673ffffffffffffffffffffffffffffffffffffffff1663a9059cbb33836040518363ffffffff1660e01b81526004016116959291906120ee565b602060405180830381600087803b1580156116af57600080fd5b505af11580156116c3573d6000803e3d6000fd5b505050506040513d601f19601f820116820180604052508101906116e79190611c39565b611726576040517f08c379a000000000000000000000000000000000000000000000000000000000815260040161171d9061221c565b60405180910390fd5b5050565b6000811161176d576040517f08c379a0000000000000000000000000000000000000000000000000000000008152600401611764906122bc565b60405180910390fd5b600073ffffffffffffffffffffffffffffffffffffffff168273ffffffffffffffffffffffffffffffffffffffff1614156117dd576040517f08c379a00000000000000000000000000000000000000000000000000000000081526004016117d4906121fc565b60405180910390fd5b80600460008473ffffffffffffffffffffffffffffffffffffffff1673ffffffffffffffffffffffffffffffffffffffff168152602001908152602001600020819055507f6e1afd29522b0aaf986597bcc53f5fb4daae2af7cfd41d00c384ab1bdf912b2382826040516118529291906120ee565b60405180910390a15050565b6000600560008373ffffffffffffffffffffffffffffffffffffffff1673ffffffffffffffffffffffffffffffffffffffff168152602001908152602001600020546118a983611a27565b6118b39190612603565b9050919050565b806020015162ffffff1681604001516118d3919061253e565b63ffffffff164310156119da5780606001516fffffffffffffffffffffffffffffffff16600160003373ffffffffffffffffffffffffffffffffffffffff1673ffffffffffffffffffffffffffffffffffffffff16815260200190815260200160002060008282546119459190612603565b9250508190555080606001516fffffffffffffffffffffffffffffffff16600260008282546119749190612603565b925050819055507f6c6f3c7d8c87976393011cc962da12841024bc1d62d2de21716a6306ab314ef33382600001518360200151846040015163ffffffff16436119bd9190612603565b6040516119cd949392919061215c565b60405180910390a1611a24565b7f391930ab48e95a9040c849cc86e1b2f63c711a1f59d6e324ce775dc9a005105633826000015183602001518460600151604051611a1b9493929190612117565b60405180910390a15b50565b60007f00000000000000000000000000000000000000000000000000000000000000007f0000000000000000000000000000000000000000000000000000000000000000611a7591906124e8565b4310611ac257600460008373ffffffffffffffffffffffffffffffffffffffff1673ffffffffffffffffffffffffffffffffffffffff168152602001908152602001600020549050611b66565b7f00000000000000000000000000000000000000000000000000000000000000007f000000000000000000000000000000000000000000000000000000000000000043611b0f9190612603565b600460008573ffffffffffffffffffffffffffffffffffffffff1673ffffffffffffffffffffffffffffffffffffffff16815260200190815260200160002054611b5991906125a9565b611b639190612578565b90505b919050565b600081359050611b7a81612cd2565b92915050565b600081519050611b8f81612ce9565b92915050565b600081359050611ba481612d00565b92915050565b600081519050611bb981612d17565b92915050565b600081359050611bce81612d2e565b92915050565b600060208284031215611be657600080fd5b6000611bf484828501611b6b565b91505092915050565b60008060408385031215611c1057600080fd5b6000611c1e85828601611b6b565b9250506020611c2f85828601611b6b565b9150509250929050565b600060208284031215611c4b57600080fd5b6000611c5984828501611b80565b91505092915050565b600060208284031215611c7457600080fd5b6000611c8284828501611baa565b91505092915050565b60008060408385031215611c9e57600080fd5b6000611cac85828601611bbf565b9250506020611cbd85828601611b95565b9150509250929050565b611cd081612637565b82525050565b611cdf816126cf565b82525050565b6000611cf2601d836124d7565b9150611cfd82612787565b602082019050919050565b6000611d156022836124d7565b9150611d20826127b0565b604082019050919050565b6000611d38602d836124d7565b9150611d43826127ff565b604082019050919050565b6000611d5b601a836124d7565b9150611d668261284e565b602082019050919050565b6000611d7e6050836124d7565b9150611d8982612877565b606082019050919050565b6000611da16020836124d7565b9150611dac826128ec565b602082019050919050565b6000611dc46031836124d7565b9150611dcf82612915565b604082019050919050565b6000611de7600f836124d7565b9150611df282612964565b602082019050919050565b6000611e0a6029836124d7565b9150611e158261298d565b604082019050919050565b6000611e2d6033836124d7565b9150611e38826129dc565b604082019050919050565b6000611e50603c836124d7565b9150611e5b82612a2b565b604082019050919050565b6000611e736029836124d7565b9150611e7e82612a7a565b604082019050919050565b6000611e966020836124d7565b9150611ea182612ac9565b602082019050919050565b6000611eb9602b836124d7565b9150611ec482612af2565b604082019050919050565b6000611edc6011836124d7565b9150611ee782612b41565b602082019050919050565b6000611eff6021836124d7565b9150611f0a82612b6a565b604082019050919050565b6000611f22601b836124d7565b9150611f2d82612bb9565b602082019050919050565b6000611f456033836124d7565b9150611f5082612be2565b604082019050919050565b6000611f68602b836124d7565b9150611f7382612c31565b604082019050919050565b6000611f8b601f836124d7565b9150611f9682612c80565b602082019050919050565b6000611fae6019836124d7565b9150611fb982612ca9565b602082019050919050565b611fcd81612655565b82525050565b611fdc816126f3565b82525050565b611feb81612691565b82525050565b611ffa81612705565b82525050565b612009816126a0565b82525050565b612018816126aa565b82525050565b61202781612717565b82525050565b612036816126ba565b82525050565b60006020820190506120516000830184611cc7565b92915050565b600060408201905061206c6000830185611cc7565b6120796020830184611cc7565b9392505050565b60006060820190506120956000830186611cc7565b6120a26020830185611cc7565b6120af6040830184612000565b949350505050565b60006060820190506120cc6000830186611cc7565b6120d96020830185611cc7565b6120e6604083018461201e565b949350505050565b60006040820190506121036000830185611cc7565b6121106020830184612000565b9392505050565b600060808201905061212c6000830187611cc7565b612139602083018661201e565b6121466040830185611ff1565b6121536060830184611fd3565b95945050505050565b60006080820190506121716000830187611cc7565b61217e602083018661201e565b61218b6040830185611ff1565b6121986060830184612000565b95945050505050565b60006020820190506121b66000830184611cd6565b92915050565b600060208201905081810360008301526121d581611ce5565b9050919050565b600060208201905081810360008301526121f581611d08565b9050919050565b6000602082019050818103600083015261221581611d2b565b9050919050565b6000602082019050818103600083015261223581611d4e565b9050919050565b6000602082019050818103600083015261225581611d71565b9050919050565b6000602082019050818103600083015261227581611d94565b9050919050565b6000602082019050818103600083015261229581611db7565b9050919050565b600060208201905081810360008301526122b581611dda565b9050919050565b600060208201905081810360008301526122d581611dfd565b9050919050565b600060208201905081810360008301526122f581611e20565b9050919050565b6000602082019050818103600083015261231581611e43565b9050919050565b6000602082019050818103600083015261233581611e66565b9050919050565b6000602082019050818103600083015261235581611e89565b9050919050565b6000602082019050818103600083015261237581611eac565b9050919050565b6000602082019050818103600083015261239581611ecf565b9050919050565b600060208201905081810360008301526123b581611ef2565b9050919050565b600060208201905081810360008301526123d581611f15565b9050919050565b600060208201905081810360008301526123f581611f38565b9050919050565b6000602082019050818103600083015261241581611f5b565b9050919050565b6000602082019050818103600083015261243581611f7e565b9050919050565b6000602082019050818103600083015261245581611fa1565b9050919050565b60006020820190506124716000830184611fc4565b92915050565b600060208201905061248c6000830184612000565b92915050565b60006080820190506124a7600083018761202d565b6124b46020830186611fe2565b6124c1604083018561200f565b6124ce6060830184611fc4565b95945050505050565b600082825260208201905092915050565b60006124f3826126a0565b91506124fe836126a0565b9250827fffffffffffffffffffffffffffffffffffffffffffffffffffffffffffffffff0382111561253357612532612729565b5b828201905092915050565b6000612549826126aa565b9150612554836126aa565b92508263ffffffff0382111561256d5761256c612729565b5b828201905092915050565b6000612583826126a0565b915061258e836126a0565b92508261259e5761259d612758565b5b828204905092915050565b60006125b4826126a0565b91506125bf836126a0565b9250817fffffffffffffffffffffffffffffffffffffffffffffffffffffffffffffffff04831182151516156125f8576125f7612729565b5b828202905092915050565b600061260e826126a0565b9150612619836126a0565b92508282101561262c5761262b612729565b5b828203905092915050565b600061264282612671565b9050919050565b60008115159050919050565b60006fffffffffffffffffffffffffffffffff82169050919050565b600073ffffffffffffffffffffffffffffffffffffffff82169050919050565b600062ffffff82169050919050565b6000819050919050565b600063ffffffff82169050919050565b600068ffffffffffffffffff82169050919050565b60006126da826126e1565b9050919050565b60006126ec82612671565b9050919050565b60006126fe82612655565b9050919050565b600061271082612691565b9050919050565b6000612722826126ba565b9050919050565b7f4e487b7100000000000000000000000000000000000000000000000000000000600052601160045260246000fd5b7f4e487b7100000000000000000000000000000000000000000000000000000000600052601260045260246000fd5b7f526577617264206f696c657273207472616e73666572206661696c6564000000600082015250565b7f56657374696e672072656c656173653a206e6f20746f6b656e7320617265206460008201527f7565000000000000000000000000000000000000000000000000000000000000602082015250565b7f546f6b656e56657374696e673a2062656e65666963696172792069732074686560008201527f207a65726f206164647265737300000000000000000000000000000000000000602082015250565b7f506f6f6c20746f6b656e207472616e73666572206661696c6564000000000000600082015250565b7f596f75207374696c6c20686176652061207374616b65206c6f636b6564202d2060008201527f706c6561736520756e6c6f636b2066697273742c20646f6e2774206c6561766560208201527f2066726565206d6f6e6579206865726500000000000000000000000000000000604082015250565b7f596f7520646f6e277420686176652061207374616b6520746f20756e6c6f636b600082015250565b7f596f7572206c6f636b20706572696f642065786365656473205374616b696e6760008201527f2050726f6772616d206475726174696f6e000000000000000000000000000000602082015250565b7f416c7265616479207374616b696e670000000000000000000000000000000000600082015250565b7f596f75206469646e2774206561726e20616e7920696e746567657220616d6f7560008201527f6e74206f66207765690000000000000000000000000000000000000000000000602082015250565b7f4e65697468657220746f6b656e416d6f756e74206e6f72206c6f636b696e675060008201527f6572696f6420636f756c646e2774206265203000000000000000000000000000602082015250565b7f596f752063616e277420776974686472617720746865207374616b6520696e2060008201527f7468652073616d6520626c6f636b20697420776173206c6f636b656400000000602082015250565b7f5374616b696e6746756e6420646f65736e2774206861766520656e6f7567682060008201527f616c6c6f77616e63650000000000000000000000000000000000000000000000602082015250565b7f706f6f6c546f6b656e20616464726573732063616e6e6f74206265207a65726f600082015250565b7f5374616b696e6746756e6420646f65736e2774206861766520656e6f7567682060008201527f4f494c2062616c616e6365000000000000000000000000000000000000000000602082015250565b7f706f6f6c546f6b656e206e6f7420736574000000000000000000000000000000600082015250565b7f5472616e7366657246726f6d206f6620706f6f6c546f6b656e73206661696c6560008201527f6400000000000000000000000000000000000000000000000000000000000000602082015250565b7f43616e206f6e6c792062652063616c6c6564206279206f776e65720000000000600082015250565b7f596f752063616e206f6e6c79206765742052657761726473206166746572205360008201527f74616b696e672050726f6772616d20656e647300000000000000000000000000602082015250565b7f5472616e7366657246726f6d206f66204f494c2066726f6d205374616b696e6760008201527f46756e64206661696c6564000000000000000000000000000000000000000000602082015250565b7f596f7520646f6e2774206861766520616e7920726577617264506f696e747300600082015250565b7f706f6f6c546f6b656e2077617320616c72656164792073657400000000000000600082015250565b612cdb81612637565b8114612ce657600080fd5b50565b612cf281612649565b8114612cfd57600080fd5b50565b612d0981612691565b8114612d1457600080fd5b50565b612d20816126a0565b8114612d2b57600080fd5b50565b612d37816126ba565b8114612d4257600080fd5b5056fea2646970667358221220a25e1dc47c074fc7ad67e2dde24199b988b0169d8b0a16a9b9ee94339805a8fe64736f6c63430008040033",
					"opcodes": "PUSH2 0x120 PUSH1 0x40 MSTORE CALLVALUE DUP1 ISZERO PUSH3 0x12 JUMPI PUSH1 0x0 DUP1 REVERT JUMPDEST POP PUSH1 0x40 MLOAD PUSH3 0x32B5 CODESIZE SUB DUP1 PUSH3 0x32B5 DUP4 CODECOPY DUP2 DUP2 ADD PUSH1 0x40 MSTORE DUP2 ADD SWAP1 PUSH3 0x38 SWAP2 SWAP1 PUSH3 0x1EB JUMP JUMPDEST PUSH1 0x0 PUSH20 0xFFFFFFFFFFFFFFFFFFFFFFFFFFFFFFFFFFFFFFFF AND DUP2 PUSH20 0xFFFFFFFFFFFFFFFFFFFFFFFFFFFFFFFFFFFFFFFF AND EQ ISZERO PUSH3 0xAB JUMPI PUSH1 0x40 MLOAD PUSH32 0x8C379A000000000000000000000000000000000000000000000000000000000 DUP2 MSTORE PUSH1 0x4 ADD PUSH3 0xA2 SWAP1 PUSH3 0x2BB JUMP JUMPDEST PUSH1 0x40 MLOAD DUP1 SWAP2 SUB SWAP1 REVERT JUMPDEST DUP1 PUSH20 0xFFFFFFFFFFFFFFFFFFFFFFFFFFFFFFFFFFFFFFFF AND PUSH2 0x100 DUP2 PUSH20 0xFFFFFFFFFFFFFFFFFFFFFFFFFFFFFFFFFFFFFFFF AND PUSH1 0x60 SHL DUP2 MSTORE POP POP PUSH1 0x0 PUSH20 0xFFFFFFFFFFFFFFFFFFFFFFFFFFFFFFFFFFFFFFFF AND DUP6 PUSH20 0xFFFFFFFFFFFFFFFFFFFFFFFFFFFFFFFFFFFFFFFF AND EQ ISZERO PUSH3 0x156 JUMPI PUSH1 0x40 MLOAD PUSH32 0x8C379A000000000000000000000000000000000000000000000000000000000 DUP2 MSTORE PUSH1 0x4 ADD PUSH3 0x14D SWAP1 PUSH3 0x2DD JUMP JUMPDEST PUSH1 0x40 MLOAD DUP1 SWAP2 SUB SWAP1 REVERT JUMPDEST DUP5 PUSH20 0xFFFFFFFFFFFFFFFFFFFFFFFFFFFFFFFFFFFFFFFF AND PUSH1 0xC0 DUP2 PUSH20 0xFFFFFFFFFFFFFFFFFFFFFFFFFFFFFFFFFFFFFFFF AND PUSH1 0x60 SHL DUP2 MSTORE POP POP DUP4 NUMBER PUSH3 0x19B SWAP2 SWAP1 PUSH3 0x310 JUMP JUMPDEST PUSH1 0x80 DUP2 DUP2 MSTORE POP POP DUP2 PUSH1 0xE0 DUP2 DUP2 MSTORE POP POP DUP3 PUSH1 0xA0 DUP2 DUP2 MSTORE POP POP POP POP POP POP POP PUSH3 0x486 JUMP JUMPDEST PUSH1 0x0 DUP2 MLOAD SWAP1 POP PUSH3 0x1CE DUP2 PUSH3 0x452 JUMP JUMPDEST SWAP3 SWAP2 POP POP JUMP JUMPDEST PUSH1 0x0 DUP2 MLOAD SWAP1 POP PUSH3 0x1E5 DUP2 PUSH3 0x46C JUMP JUMPDEST SWAP3 SWAP2 POP POP JUMP JUMPDEST PUSH1 0x0 DUP1 PUSH1 0x0 DUP1 PUSH1 0x0 PUSH1 0xA0 DUP7 DUP9 SUB SLT ISZERO PUSH3 0x204 JUMPI PUSH1 0x0 DUP1 REVERT JUMPDEST PUSH1 0x0 PUSH3 0x214 DUP9 DUP3 DUP10 ADD PUSH3 0x1BD JUMP JUMPDEST SWAP6 POP POP PUSH1 0x20 PUSH3 0x227 DUP9 DUP3 DUP10 ADD PUSH3 0x1D4 JUMP JUMPDEST SWAP5 POP POP PUSH1 0x40 PUSH3 0x23A DUP9 DUP3 DUP10 ADD PUSH3 0x1D4 JUMP JUMPDEST SWAP4 POP POP PUSH1 0x60 PUSH3 0x24D DUP9 DUP3 DUP10 ADD PUSH3 0x1D4 JUMP JUMPDEST SWAP3 POP POP PUSH1 0x80 PUSH3 0x260 DUP9 DUP3 DUP10 ADD PUSH3 0x1BD JUMP JUMPDEST SWAP2 POP POP SWAP3 SWAP6 POP SWAP3 SWAP6 SWAP1 SWAP4 POP JUMP JUMPDEST PUSH1 0x0 PUSH3 0x27C PUSH1 0x1C DUP4 PUSH3 0x2FF JUMP JUMPDEST SWAP2 POP PUSH3 0x289 DUP3 PUSH3 0x3DA JUMP JUMPDEST PUSH1 0x20 DUP3 ADD SWAP1 POP SWAP2 SWAP1 POP JUMP JUMPDEST PUSH1 0x0 PUSH3 0x2A3 PUSH1 0x21 DUP4 PUSH3 0x2FF JUMP JUMPDEST SWAP2 POP PUSH3 0x2B0 DUP3 PUSH3 0x403 JUMP JUMPDEST PUSH1 0x40 DUP3 ADD SWAP1 POP SWAP2 SWAP1 POP JUMP JUMPDEST PUSH1 0x0 PUSH1 0x20 DUP3 ADD SWAP1 POP DUP2 DUP2 SUB PUSH1 0x0 DUP4 ADD MSTORE PUSH3 0x2D6 DUP2 PUSH3 0x26D JUMP JUMPDEST SWAP1 POP SWAP2 SWAP1 POP JUMP JUMPDEST PUSH1 0x0 PUSH1 0x20 DUP3 ADD SWAP1 POP DUP2 DUP2 SUB PUSH1 0x0 DUP4 ADD MSTORE PUSH3 0x2F8 DUP2 PUSH3 0x294 JUMP JUMPDEST SWAP1 POP SWAP2 SWAP1 POP JUMP JUMPDEST PUSH1 0x0 DUP3 DUP3 MSTORE PUSH1 0x20 DUP3 ADD SWAP1 POP SWAP3 SWAP2 POP POP JUMP JUMPDEST PUSH1 0x0 PUSH3 0x31D DUP3 PUSH3 0x3A1 JUMP JUMPDEST SWAP2 POP PUSH3 0x32A DUP4 PUSH3 0x3A1 JUMP JUMPDEST SWAP3 POP DUP3 PUSH32 0xFFFFFFFFFFFFFFFFFFFFFFFFFFFFFFFFFFFFFFFFFFFFFFFFFFFFFFFFFFFFFFFF SUB DUP3 GT ISZERO PUSH3 0x362 JUMPI PUSH3 0x361 PUSH3 0x3AB JUMP JUMPDEST JUMPDEST DUP3 DUP3 ADD SWAP1 POP SWAP3 SWAP2 POP POP JUMP JUMPDEST PUSH1 0x0 PUSH3 0x37A DUP3 PUSH3 0x381 JUMP JUMPDEST SWAP1 POP SWAP2 SWAP1 POP JUMP JUMPDEST PUSH1 0x0 PUSH20 0xFFFFFFFFFFFFFFFFFFFFFFFFFFFFFFFFFFFFFFFF DUP3 AND SWAP1 POP SWAP2 SWAP1 POP JUMP JUMPDEST PUSH1 0x0 DUP2 SWAP1 POP SWAP2 SWAP1 POP JUMP JUMPDEST PUSH32 0x4E487B7100000000000000000000000000000000000000000000000000000000 PUSH1 0x0 MSTORE PUSH1 0x11 PUSH1 0x4 MSTORE PUSH1 0x24 PUSH1 0x0 REVERT JUMPDEST PUSH32 0x4F776E657220616464726573732063616E6E6F74206265207A65726F00000000 PUSH1 0x0 DUP3 ADD MSTORE POP JUMP JUMPDEST PUSH32 0x6F696C6572546F6B656E20616464726573732063616E6E6F74206265207A6572 PUSH1 0x0 DUP3 ADD MSTORE PUSH32 0x6F00000000000000000000000000000000000000000000000000000000000000 PUSH1 0x20 DUP3 ADD MSTORE POP JUMP JUMPDEST PUSH3 0x45D DUP2 PUSH3 0x36D JUMP JUMPDEST DUP2 EQ PUSH3 0x469 JUMPI PUSH1 0x0 DUP1 REVERT JUMPDEST POP JUMP JUMPDEST PUSH3 0x477 DUP2 PUSH3 0x3A1 JUMP JUMPDEST DUP2 EQ PUSH3 0x483 JUMPI PUSH1 0x0 DUP1 REVERT JUMPDEST POP JUMP JUMPDEST PUSH1 0x80 MLOAD PUSH1 0xA0 MLOAD PUSH1 0xC0 MLOAD PUSH1 0x60 SHR PUSH1 0xE0 MLOAD PUSH2 0x100 MLOAD PUSH1 0x60 SHR PUSH2 0x2D7B PUSH3 0x53A PUSH1 0x0 CODECOPY PUSH1 0x0 DUP2 DUP2 PUSH2 0xD9B ADD MSTORE PUSH2 0xE3F ADD MSTORE PUSH1 0x0 DUP2 DUP2 PUSH2 0x583 ADD MSTORE DUP2 DUP2 PUSH2 0x1A2B ADD MSTORE PUSH2 0x1AC4 ADD MSTORE PUSH1 0x0 DUP2 DUP2 PUSH2 0xBA9 ADD MSTORE DUP2 DUP2 PUSH2 0xC73 ADD MSTORE DUP2 DUP2 PUSH2 0x1030 ADD MSTORE DUP2 DUP2 PUSH2 0x113B ADD MSTORE PUSH2 0x1227 ADD MSTORE PUSH1 0x0 DUP2 DUP2 PUSH2 0x4FA ADD MSTORE DUP2 DUP2 PUSH2 0xAEF ADD MSTORE DUP2 DUP2 PUSH2 0x100F ADD MSTORE DUP2 DUP2 PUSH2 0x111A ADD MSTORE PUSH2 0x1265 ADD MSTORE PUSH1 0x0 DUP2 DUP2 PUSH2 0x32D ADD MSTORE DUP2 DUP2 PUSH2 0x6BF ADD MSTORE DUP2 DUP2 PUSH2 0xDBF ADD MSTORE DUP2 DUP2 PUSH2 0x1A4C ADD MSTORE PUSH2 0x1AE5 ADD MSTORE PUSH2 0x2D7B PUSH1 0x0 RETURN INVALID PUSH1 0x80 PUSH1 0x40 MSTORE CALLVALUE DUP1 ISZERO PUSH2 0x10 JUMPI PUSH1 0x0 DUP1 REVERT JUMPDEST POP PUSH1 0x4 CALLDATASIZE LT PUSH2 0x10B JUMPI PUSH1 0x0 CALLDATALOAD PUSH1 0xE0 SHR DUP1 PUSH4 0x86D1A69F GT PUSH2 0xA2 JUMPI DUP1 PUSH4 0xC959360B GT PUSH2 0x71 JUMPI DUP1 PUSH4 0xC959360B EQ PUSH2 0x287 JUMPI DUP1 PUSH4 0xCBDF382C EQ PUSH2 0x2B7 JUMPI DUP1 PUSH4 0xE0E4A722 EQ PUSH2 0x2D5 JUMPI DUP1 PUSH4 0xF6FFAB88 EQ PUSH2 0x305 JUMPI DUP1 PUSH4 0xF968F493 EQ PUSH2 0x321 JUMPI PUSH2 0x10B JUMP JUMPDEST DUP1 PUSH4 0x86D1A69F EQ PUSH2 0x223 JUMPI DUP1 PUSH4 0x8DA5CB5B EQ PUSH2 0x22D JUMPI DUP1 PUSH4 0xBC0925AE EQ PUSH2 0x24B JUMPI DUP1 PUSH4 0xC2E8CAF6 EQ PUSH2 0x269 JUMPI PUSH2 0x10B JUMP JUMPDEST DUP1 PUSH4 0x52946B04 GT PUSH2 0xDE JUMPI DUP1 PUSH4 0x52946B04 EQ PUSH2 0x187 JUMPI DUP1 PUSH4 0x70FF852B EQ PUSH2 0x1A5 JUMPI DUP1 PUSH4 0x798633B9 EQ PUSH2 0x1D5 JUMPI DUP1 PUSH4 0x81E9207D EQ PUSH2 0x205 JUMPI PUSH2 0x10B JUMP JUMPDEST DUP1 PUSH4 0x572B0CC EQ PUSH2 0x110 JUMPI DUP1 PUSH4 0x1514617E EQ PUSH2 0x11A JUMPI DUP1 PUSH4 0x16934FC4 EQ PUSH2 0x138 JUMPI DUP1 PUSH4 0x378592C8 EQ PUSH2 0x16B JUMPI JUMPDEST PUSH1 0x0 DUP1 REVERT JUMPDEST PUSH2 0x118 PUSH2 0x32B JUMP JUMPDEST STOP JUMPDEST PUSH2 0x122 PUSH2 0x581 JUMP JUMPDEST PUSH1 0x40 MLOAD PUSH2 0x12F SWAP2 SWAP1 PUSH2 0x2477 JUMP JUMPDEST PUSH1 0x40 MLOAD DUP1 SWAP2 SUB SWAP1 RETURN JUMPDEST PUSH2 0x152 PUSH1 0x4 DUP1 CALLDATASIZE SUB DUP2 ADD SWAP1 PUSH2 0x14D SWAP2 SWAP1 PUSH2 0x1BD4 JUMP JUMPDEST PUSH2 0x5A5 JUMP JUMPDEST PUSH1 0x40 MLOAD PUSH2 0x162 SWAP5 SWAP4 SWAP3 SWAP2 SWAP1 PUSH2 0x2492 JUMP JUMPDEST PUSH1 0x40 MLOAD DUP1 SWAP2 SUB SWAP1 RETURN JUMPDEST PUSH2 0x185 PUSH1 0x4 DUP1 CALLDATASIZE SUB DUP2 ADD SWAP1 PUSH2 0x180 SWAP2 SWAP1 PUSH2 0x1C8B JUMP JUMPDEST PUSH2 0x625 JUMP JUMPDEST STOP JUMPDEST PUSH2 0x18F PUSH2 0xAED JUMP JUMPDEST PUSH1 0x40 MLOAD PUSH2 0x19C SWAP2 SWAP1 PUSH2 0x2477 JUMP JUMPDEST PUSH1 0x40 MLOAD DUP1 SWAP2 SUB SWAP1 RETURN JUMPDEST PUSH2 0x1BF PUSH1 0x4 DUP1 CALLDATASIZE SUB DUP2 ADD SWAP1 PUSH2 0x1BA SWAP2 SWAP1 PUSH2 0x1BD4 JUMP JUMPDEST PUSH2 0xB11 JUMP JUMPDEST PUSH1 0x40 MLOAD PUSH2 0x1CC SWAP2 SWAP1 PUSH2 0x2477 JUMP JUMPDEST PUSH1 0x40 MLOAD DUP1 SWAP2 SUB SWAP1 RETURN JUMPDEST PUSH2 0x1EF PUSH1 0x4 DUP1 CALLDATASIZE SUB DUP2 ADD SWAP1 PUSH2 0x1EA SWAP2 SWAP1 PUSH2 0x1C8B JUMP JUMPDEST PUSH2 0xB29 JUMP JUMPDEST PUSH1 0x40 MLOAD PUSH2 0x1FC SWAP2 SWAP1 PUSH2 0x245C JUMP JUMPDEST PUSH1 0x40 MLOAD DUP1 SWAP2 SUB SWAP1 RETURN JUMPDEST PUSH2 0x20D PUSH2 0xBA7 JUMP JUMPDEST PUSH1 0x40 MLOAD PUSH2 0x21A SWAP2 SWAP1 PUSH2 0x21A1 JUMP JUMPDEST PUSH1 0x40 MLOAD DUP1 SWAP2 SUB SWAP1 RETURN JUMPDEST PUSH2 0x22B PUSH2 0xBCB JUMP JUMPDEST STOP JUMPDEST PUSH2 0x235 PUSH2 0xD99 JUMP JUMPDEST PUSH1 0x40 MLOAD PUSH2 0x242 SWAP2 SWAP1 PUSH2 0x203C JUMP JUMPDEST PUSH1 0x40 MLOAD DUP1 SWAP2 SUB SWAP1 RETURN JUMPDEST PUSH2 0x253 PUSH2 0xDBD JUMP JUMPDEST PUSH1 0x40 MLOAD PUSH2 0x260 SWAP2 SWAP1 PUSH2 0x2477 JUMP JUMPDEST PUSH1 0x40 MLOAD DUP1 SWAP2 SUB SWAP1 RETURN JUMPDEST PUSH2 0x271 PUSH2 0xDE1 JUMP JUMPDEST PUSH1 0x40 MLOAD PUSH2 0x27E SWAP2 SWAP1 PUSH2 0x2477 JUMP JUMPDEST PUSH1 0x40 MLOAD DUP1 SWAP2 SUB SWAP1 RETURN JUMPDEST PUSH2 0x2A1 PUSH1 0x4 DUP1 CALLDATASIZE SUB DUP2 ADD SWAP1 PUSH2 0x29C SWAP2 SWAP1 PUSH2 0x1BD4 JUMP JUMPDEST PUSH2 0xDE7 JUMP JUMPDEST PUSH1 0x40 MLOAD PUSH2 0x2AE SWAP2 SWAP1 PUSH2 0x2477 JUMP JUMPDEST PUSH1 0x40 MLOAD DUP1 SWAP2 SUB SWAP1 RETURN JUMPDEST PUSH2 0x2BF PUSH2 0xDFF JUMP JUMPDEST PUSH1 0x40 MLOAD PUSH2 0x2CC SWAP2 SWAP1 PUSH2 0x21A1 JUMP JUMPDEST PUSH1 0x40 MLOAD DUP1 SWAP2 SUB SWAP1 RETURN JUMPDEST PUSH2 0x2EF PUSH1 0x4 DUP1 CALLDATASIZE SUB DUP2 ADD SWAP1 PUSH2 0x2EA SWAP2 SWAP1 PUSH2 0x1BD4 JUMP JUMPDEST PUSH2 0xE25 JUMP JUMPDEST PUSH1 0x40 MLOAD PUSH2 0x2FC SWAP2 SWAP1 PUSH2 0x2477 JUMP JUMPDEST PUSH1 0x40 MLOAD DUP1 SWAP2 SUB SWAP1 RETURN JUMPDEST PUSH2 0x31F PUSH1 0x4 DUP1 CALLDATASIZE SUB DUP2 ADD SWAP1 PUSH2 0x31A SWAP2 SWAP1 PUSH2 0x1BFD JUMP JUMPDEST PUSH2 0xE3D JUMP JUMPDEST STOP JUMPDEST PUSH2 0x329 PUSH2 0x1337 JUMP JUMPDEST STOP JUMPDEST PUSH32 0x0 NUMBER GT PUSH2 0x38D JUMPI PUSH1 0x40 MLOAD PUSH32 0x8C379A000000000000000000000000000000000000000000000000000000000 DUP2 MSTORE PUSH1 0x4 ADD PUSH2 0x384 SWAP1 PUSH2 0x23DC JUMP JUMPDEST PUSH1 0x40 MLOAD DUP1 SWAP2 SUB SWAP1 REVERT JUMPDEST PUSH1 0x0 DUP1 PUSH1 0x0 CALLER PUSH20 0xFFFFFFFFFFFFFFFFFFFFFFFFFFFFFFFFFFFFFFFF AND PUSH20 0xFFFFFFFFFFFFFFFFFFFFFFFFFFFFFFFFFFFFFFFF AND DUP2 MSTORE PUSH1 0x20 ADD SWAP1 DUP2 MSTORE PUSH1 0x20 ADD PUSH1 0x0 KECCAK256 PUSH1 0x0 ADD PUSH1 0x0 SWAP1 SLOAD SWAP1 PUSH2 0x100 EXP SWAP1 DIV PUSH9 0xFFFFFFFFFFFFFFFFFF AND PUSH9 0xFFFFFFFFFFFFFFFFFF AND EQ PUSH2 0x431 JUMPI PUSH1 0x40 MLOAD PUSH32 0x8C379A000000000000000000000000000000000000000000000000000000000 DUP2 MSTORE PUSH1 0x4 ADD PUSH2 0x428 SWAP1 PUSH2 0x223C JUMP JUMPDEST PUSH1 0x40 MLOAD DUP1 SWAP2 SUB SWAP1 REVERT JUMPDEST PUSH1 0x0 PUSH1 0x1 PUSH1 0x0 CALLER PUSH20 0xFFFFFFFFFFFFFFFFFFFFFFFFFFFFFFFFFFFFFFFF AND PUSH20 0xFFFFFFFFFFFFFFFFFFFFFFFFFFFFFFFFFFFFFFFF AND DUP2 MSTORE PUSH1 0x20 ADD SWAP1 DUP2 MSTORE PUSH1 0x20 ADD PUSH1 0x0 KECCAK256 SLOAD GT PUSH2 0x4B3 JUMPI PUSH1 0x40 MLOAD PUSH32 0x8C379A000000000000000000000000000000000000000000000000000000000 DUP2 MSTORE PUSH1 0x4 ADD PUSH2 0x4AA SWAP1 PUSH2 0x241C JUMP JUMPDEST PUSH1 0x40 MLOAD DUP1 SWAP2 SUB SWAP1 REVERT JUMPDEST PUSH1 0x0 PUSH1 0x2 SLOAD PUSH1 0x1 PUSH1 0x0 CALLER PUSH20 0xFFFFFFFFFFFFFFFFFFFFFFFFFFFFFFFFFFFFFFFF AND PUSH20 0xFFFFFFFFFFFFFFFFFFFFFFFFFFFFFFFFFFFFFFFF AND DUP2 MSTORE PUSH1 0x20 ADD SWAP1 DUP2 MSTORE PUSH1 0x20 ADD PUSH1 0x0 KECCAK256 SLOAD PUSH32 0x0 PUSH2 0x523 SWAP2 SWAP1 PUSH2 0x25A9 JUMP JUMPDEST PUSH2 0x52D SWAP2 SWAP1 PUSH2 0x2578 JUMP JUMPDEST SWAP1 POP PUSH1 0x0 PUSH1 0x1 PUSH1 0x0 CALLER PUSH20 0xFFFFFFFFFFFFFFFFFFFFFFFFFFFFFFFFFFFFFFFF AND PUSH20 0xFFFFFFFFFFFFFFFFFFFFFFFFFFFFFFFFFFFFFFFF AND DUP2 MSTORE PUSH1 0x20 ADD SWAP1 DUP2 MSTORE PUSH1 0x20 ADD PUSH1 0x0 KECCAK256 DUP2 SWAP1 SSTORE POP PUSH2 0x57E CALLER DUP3 PUSH2 0x172A JUMP JUMPDEST POP JUMP JUMPDEST PUSH32 0x0 DUP2 JUMP JUMPDEST PUSH1 0x0 PUSH1 0x20 MSTORE DUP1 PUSH1 0x0 MSTORE PUSH1 0x40 PUSH1 0x0 KECCAK256 PUSH1 0x0 SWAP2 POP SWAP1 POP DUP1 PUSH1 0x0 ADD PUSH1 0x0 SWAP1 SLOAD SWAP1 PUSH2 0x100 EXP SWAP1 DIV PUSH9 0xFFFFFFFFFFFFFFFFFF AND SWAP1 DUP1 PUSH1 0x0 ADD PUSH1 0x9 SWAP1 SLOAD SWAP1 PUSH2 0x100 EXP SWAP1 DIV PUSH3 0xFFFFFF AND SWAP1 DUP1 PUSH1 0x0 ADD PUSH1 0xC SWAP1 SLOAD SWAP1 PUSH2 0x100 EXP SWAP1 DIV PUSH4 0xFFFFFFFF AND SWAP1 DUP1 PUSH1 0x0 ADD PUSH1 0x10 SWAP1 SLOAD SWAP1 PUSH2 0x100 EXP SWAP1 DIV PUSH16 0xFFFFFFFFFFFFFFFFFFFFFFFFFFFFFFFF AND SWAP1 POP DUP5 JUMP JUMPDEST PUSH1 0x0 PUSH20 0xFFFFFFFFFFFFFFFFFFFFFFFFFFFFFFFFFFFFFFFF AND PUSH1 0x3 PUSH1 0x0 SWAP1 SLOAD SWAP1 PUSH2 0x100 EXP SWAP1 DIV PUSH20 0xFFFFFFFFFFFFFFFFFFFFFFFFFFFFFFFFFFFFFFFF AND PUSH20 0xFFFFFFFFFFFFFFFFFFFFFFFFFFFFFFFFFFFFFFFF AND EQ ISZERO PUSH2 0x6B7 JUMPI PUSH1 0x40 MLOAD PUSH32 0x8C379A000000000000000000000000000000000000000000000000000000000 DUP2 MSTORE PUSH1 0x4 ADD PUSH2 0x6AE SWAP1 PUSH2 0x237C JUMP JUMPDEST PUSH1 0x40 MLOAD DUP1 SWAP2 SUB SWAP1 REVERT JUMPDEST DUP1 PUSH3 0xFFFFFF AND PUSH32 0x0 PUSH2 0x6E8 SWAP2 SWAP1 PUSH2 0x2603 JUMP JUMPDEST NUMBER GT ISZERO PUSH2 0x72A JUMPI PUSH1 0x40 MLOAD PUSH32 0x8C379A000000000000000000000000000000000000000000000000000000000 DUP2 MSTORE PUSH1 0x4 ADD PUSH2 0x721 SWAP1 PUSH2 0x227C JUMP JUMPDEST PUSH1 0x40 MLOAD DUP1 SWAP2 SUB SWAP1 REVERT JUMPDEST PUSH1 0x0 DUP1 PUSH1 0x0 CALLER PUSH20 0xFFFFFFFFFFFFFFFFFFFFFFFFFFFFFFFFFFFFFFFF AND PUSH20 0xFFFFFFFFFFFFFFFFFFFFFFFFFFFFFFFFFFFFFFFF AND DUP2 MSTORE PUSH1 0x20 ADD SWAP1 DUP2 MSTORE PUSH1 0x20 ADD PUSH1 0x0 KECCAK256 PUSH1 0x0 ADD PUSH1 0x0 SWAP1 SLOAD SWAP1 PUSH2 0x100 EXP SWAP1 DIV PUSH9 0xFFFFFFFFFFFFFFFFFF AND PUSH9 0xFFFFFFFFFFFFFFFFFF AND EQ PUSH2 0x7CE JUMPI PUSH1 0x40 MLOAD PUSH32 0x8C379A000000000000000000000000000000000000000000000000000000000 DUP2 MSTORE PUSH1 0x4 ADD PUSH2 0x7C5 SWAP1 PUSH2 0x229C JUMP JUMPDEST PUSH1 0x40 MLOAD DUP1 SWAP2 SUB SWAP1 REVERT JUMPDEST PUSH1 0x0 PUSH2 0x7DA DUP4 DUP4 PUSH2 0xB29 JUMP JUMPDEST SWAP1 POP PUSH1 0x0 PUSH1 0x40 MLOAD DUP1 PUSH1 0x80 ADD PUSH1 0x40 MSTORE DUP1 DUP6 PUSH9 0xFFFFFFFFFFFFFFFFFF AND DUP2 MSTORE PUSH1 0x20 ADD DUP5 PUSH3 0xFFFFFF AND DUP2 MSTORE PUSH1 0x20 ADD NUMBER PUSH4 0xFFFFFFFF AND DUP2 MSTORE PUSH1 0x20 ADD DUP4 PUSH16 0xFFFFFFFFFFFFFFFFFFFFFFFFFFFFFFFF AND DUP2 MSTORE POP SWAP1 POP DUP1 PUSH1 0x0 DUP1 CALLER PUSH20 0xFFFFFFFFFFFFFFFFFFFFFFFFFFFFFFFFFFFFFFFF AND PUSH20 0xFFFFFFFFFFFFFFFFFFFFFFFFFFFFFFFFFFFFFFFF AND DUP2 MSTORE PUSH1 0x20 ADD SWAP1 DUP2 MSTORE PUSH1 0x20 ADD PUSH1 0x0 KECCAK256 PUSH1 0x0 DUP3 ADD MLOAD DUP2 PUSH1 0x0 ADD PUSH1 0x0 PUSH2 0x100 EXP DUP2 SLOAD DUP2 PUSH9 0xFFFFFFFFFFFFFFFFFF MUL NOT AND SWAP1 DUP4 PUSH9 0xFFFFFFFFFFFFFFFFFF AND MUL OR SWAP1 SSTORE POP PUSH1 0x20 DUP3 ADD MLOAD DUP2 PUSH1 0x0 ADD PUSH1 0x9 PUSH2 0x100 EXP DUP2 SLOAD DUP2 PUSH3 0xFFFFFF MUL NOT AND SWAP1 DUP4 PUSH3 0xFFFFFF AND MUL OR SWAP1 SSTORE POP PUSH1 0x40 DUP3 ADD MLOAD DUP2 PUSH1 0x0 ADD PUSH1 0xC PUSH2 0x100 EXP DUP2 SLOAD DUP2 PUSH4 0xFFFFFFFF MUL NOT AND SWAP1 DUP4 PUSH4 0xFFFFFFFF AND MUL OR SWAP1 SSTORE POP PUSH1 0x60 DUP3 ADD MLOAD DUP2 PUSH1 0x0 ADD PUSH1 0x10 PUSH2 0x100 EXP DUP2 SLOAD DUP2 PUSH16 0xFFFFFFFFFFFFFFFFFFFFFFFFFFFFFFFF MUL NOT AND SWAP1 DUP4 PUSH16 0xFFFFFFFFFFFFFFFFFFFFFFFFFFFFFFFF AND MUL OR SWAP1 SSTORE POP SWAP1 POP POP DUP2 PUSH16 0xFFFFFFFFFFFFFFFFFFFFFFFFFFFFFFFF AND PUSH1 0x2 PUSH1 0x0 DUP3 DUP3 SLOAD PUSH2 0x94B SWAP2 SWAP1 PUSH2 0x24E8 JUMP JUMPDEST SWAP3 POP POP DUP2 SWAP1 SSTORE POP DUP2 PUSH16 0xFFFFFFFFFFFFFFFFFFFFFFFFFFFFFFFF AND PUSH1 0x1 PUSH1 0x0 CALLER PUSH20 0xFFFFFFFFFFFFFFFFFFFFFFFFFFFFFFFFFFFFFFFF AND PUSH20 0xFFFFFFFFFFFFFFFFFFFFFFFFFFFFFFFFFFFFFFFF AND DUP2 MSTORE PUSH1 0x20 ADD SWAP1 DUP2 MSTORE PUSH1 0x20 ADD PUSH1 0x0 KECCAK256 PUSH1 0x0 DUP3 DUP3 SLOAD PUSH2 0x9B3 SWAP2 SWAP1 PUSH2 0x24E8 JUMP JUMPDEST SWAP3 POP POP DUP2 SWAP1 SSTORE POP PUSH1 0x3 PUSH1 0x0 SWAP1 SLOAD SWAP1 PUSH2 0x100 EXP SWAP1 DIV PUSH20 0xFFFFFFFFFFFFFFFFFFFFFFFFFFFFFFFFFFFFFFFF AND PUSH20 0xFFFFFFFFFFFFFFFFFFFFFFFFFFFFFFFFFFFFFFFF AND PUSH4 0x23B872DD CALLER ADDRESS DUP8 PUSH1 0x40 MLOAD DUP5 PUSH4 0xFFFFFFFF AND PUSH1 0xE0 SHL DUP2 MSTORE PUSH1 0x4 ADD PUSH2 0xA19 SWAP4 SWAP3 SWAP2 SWAP1 PUSH2 0x20B7 JUMP JUMPDEST PUSH1 0x20 PUSH1 0x40 MLOAD DUP1 DUP4 SUB DUP2 PUSH1 0x0 DUP8 DUP1 EXTCODESIZE ISZERO DUP1 ISZERO PUSH2 0xA33 JUMPI PUSH1 0x0 DUP1 REVERT JUMPDEST POP GAS CALL ISZERO DUP1 ISZERO PUSH2 0xA47 JUMPI RETURNDATASIZE PUSH1 0x0 DUP1 RETURNDATACOPY RETURNDATASIZE PUSH1 0x0 REVERT JUMPDEST POP POP POP POP PUSH1 0x40 MLOAD RETURNDATASIZE PUSH1 0x1F NOT PUSH1 0x1F DUP3 ADD AND DUP3 ADD DUP1 PUSH1 0x40 MSTORE POP DUP2 ADD SWAP1 PUSH2 0xA6B SWAP2 SWAP1 PUSH2 0x1C39 JUMP JUMPDEST PUSH2 0xAAA JUMPI PUSH1 0x40 MLOAD PUSH32 0x8C379A000000000000000000000000000000000000000000000000000000000 DUP2 MSTORE PUSH1 0x4 ADD PUSH2 0xAA1 SWAP1 PUSH2 0x239C JUMP JUMPDEST PUSH1 0x40 MLOAD DUP1 SWAP2 SUB SWAP1 REVERT JUMPDEST PUSH32 0xE7DBEA143058F90BE7A1644E539342C25DDC5379868FE922BAB596DE99DEBF41 CALLER DUP6 DUP6 DUP6 PUSH1 0x40 MLOAD PUSH2 0xADF SWAP5 SWAP4 SWAP3 SWAP2 SWAP1 PUSH2 0x2117 JUMP JUMPDEST PUSH1 0x40 MLOAD DUP1 SWAP2 SUB SWAP1 LOG1 POP POP POP POP JUMP JUMPDEST PUSH32 0x0 DUP2 JUMP JUMPDEST PUSH1 0x5 PUSH1 0x20 MSTORE DUP1 PUSH1 0x0 MSTORE PUSH1 0x40 PUSH1 0x0 KECCAK256 PUSH1 0x0 SWAP2 POP SWAP1 POP SLOAD DUP2 JUMP JUMPDEST PUSH1 0x0 DUP1 DUP3 PUSH3 0xFFFFFF AND DUP4 PUSH3 0xFFFFFF AND DUP6 PUSH9 0xFFFFFFFFFFFFFFFFFF AND PUSH2 0xB4E SWAP2 SWAP1 PUSH2 0x25A9 JUMP JUMPDEST PUSH2 0xB58 SWAP2 SWAP1 PUSH2 0x25A9 JUMP JUMPDEST SWAP1 POP PUSH1 0x0 DUP2 GT PUSH2 0xB9D JUMPI PUSH1 0x40 MLOAD PUSH32 0x8C379A000000000000000000000000000000000000000000000000000000000 DUP2 MSTORE PUSH1 0x4 ADD PUSH2 0xB94 SWAP1 PUSH2 0x22DC JUMP JUMPDEST PUSH1 0x40 MLOAD DUP1 SWAP2 SUB SWAP1 REVERT JUMPDEST DUP1 SWAP2 POP POP SWAP3 SWAP2 POP POP JUMP JUMPDEST PUSH32 0x0 DUP2 JUMP JUMPDEST PUSH1 0x0 PUSH2 0xBD6 CALLER PUSH2 0x185E JUMP JUMPDEST SWAP1 POP PUSH1 0x0 DUP2 GT PUSH2 0xC1B JUMPI PUSH1 0x40 MLOAD PUSH32 0x8C379A000000000000000000000000000000000000000000000000000000000 DUP2 MSTORE PUSH1 0x4 ADD PUSH2 0xC12 SWAP1 PUSH2 0x21DC JUMP JUMPDEST PUSH1 0x40 MLOAD DUP1 SWAP2 SUB SWAP1 REVERT JUMPDEST DUP1 PUSH1 0x5 PUSH1 0x0 CALLER PUSH20 0xFFFFFFFFFFFFFFFFFFFFFFFFFFFFFFFFFFFFFFFF AND PUSH20 0xFFFFFFFFFFFFFFFFFFFFFFFFFFFFFFFFFFFFFFFF AND DUP2 MSTORE PUSH1 0x20 ADD SWAP1 DUP2 MSTORE PUSH1 0x20 ADD PUSH1 0x0 KECCAK256 PUSH1 0x0 DUP3 DUP3 SLOAD PUSH2 0xC6A SWAP2 SWAP1 PUSH2 0x24E8 JUMP JUMPDEST SWAP3 POP POP DUP2 SWAP1 SSTORE POP PUSH32 0x0 PUSH20 0xFFFFFFFFFFFFFFFFFFFFFFFFFFFFFFFFFFFFFFFF AND PUSH4 0xA9059CBB CALLER DUP4 PUSH1 0x40 MLOAD DUP4 PUSH4 0xFFFFFFFF AND PUSH1 0xE0 SHL DUP2 MSTORE PUSH1 0x4 ADD PUSH2 0xCCC SWAP3 SWAP2 SWAP1 PUSH2 0x20EE JUMP JUMPDEST PUSH1 0x20 PUSH1 0x40 MLOAD DUP1 DUP4 SUB DUP2 PUSH1 0x0 DUP8 DUP1 EXTCODESIZE ISZERO DUP1 ISZERO PUSH2 0xCE6 JUMPI PUSH1 0x0 DUP1 REVERT JUMPDEST POP GAS CALL ISZERO DUP1 ISZERO PUSH2 0xCFA JUMPI RETURNDATASIZE PUSH1 0x0 DUP1 RETURNDATACOPY RETURNDATASIZE PUSH1 0x0 REVERT JUMPDEST POP POP POP POP PUSH1 0x40 MLOAD RETURNDATASIZE PUSH1 0x1F NOT PUSH1 0x1F DUP3 ADD AND DUP3 ADD DUP1 PUSH1 0x40 MSTORE POP DUP2 ADD SWAP1 PUSH2 0xD1E SWAP2 SWAP1 PUSH2 0x1C39 JUMP JUMPDEST PUSH2 0xD5D JUMPI PUSH1 0x40 MLOAD PUSH32 0x8C379A000000000000000000000000000000000000000000000000000000000 DUP2 MSTORE PUSH1 0x4 ADD PUSH2 0xD54 SWAP1 PUSH2 0x21BC JUMP JUMPDEST PUSH1 0x40 MLOAD DUP1 SWAP2 SUB SWAP1 REVERT JUMPDEST PUSH32 0x769D4212C4FBFAA012A896B49E0F3BB14D32DD0D60CE1A13D357EE6B69DB77C2 CALLER DUP3 PUSH1 0x40 MLOAD PUSH2 0xD8E SWAP3 SWAP2 SWAP1 PUSH2 0x20EE JUMP JUMPDEST PUSH1 0x40 MLOAD DUP1 SWAP2 SUB SWAP1 LOG1 POP JUMP JUMPDEST PUSH32 0x0 DUP2 JUMP JUMPDEST PUSH32 0x0 DUP2 JUMP JUMPDEST PUSH1 0x2 SLOAD DUP2 JUMP JUMPDEST PUSH1 0x1 PUSH1 0x20 MSTORE DUP1 PUSH1 0x0 MSTORE PUSH1 0x40 PUSH1 0x0 KECCAK256 PUSH1 0x0 SWAP2 POP SWAP1 POP SLOAD DUP2 JUMP JUMPDEST PUSH1 0x3 PUSH1 0x0 SWAP1 SLOAD SWAP1 PUSH2 0x100 EXP SWAP1 DIV PUSH20 0xFFFFFFFFFFFFFFFFFFFFFFFFFFFFFFFFFFFFFFFF AND DUP2 JUMP JUMPDEST PUSH1 0x4 PUSH1 0x20 MSTORE DUP1 PUSH1 0x0 MSTORE PUSH1 0x40 PUSH1 0x0 KECCAK256 PUSH1 0x0 SWAP2 POP SWAP1 POP SLOAD DUP2 JUMP JUMPDEST PUSH32 0x0 PUSH20 0xFFFFFFFFFFFFFFFFFFFFFFFFFFFFFFFFFFFFFFFF AND CALLER PUSH20 0xFFFFFFFFFFFFFFFFFFFFFFFFFFFFFFFFFFFFFFFF AND EQ PUSH2 0xECB JUMPI PUSH1 0x40 MLOAD PUSH32 0x8C379A000000000000000000000000000000000000000000000000000000000 DUP2 MSTORE PUSH1 0x4 ADD PUSH2 0xEC2 SWAP1 PUSH2 0x23BC JUMP JUMPDEST PUSH1 0x40 MLOAD DUP1 SWAP2 SUB SWAP1 REVERT JUMPDEST PUSH1 0x0 PUSH20 0xFFFFFFFFFFFFFFFFFFFFFFFFFFFFFFFFFFFFFFFF AND PUSH1 0x3 PUSH1 0x0 SWAP1 SLOAD SWAP1 PUSH2 0x100 EXP SWAP1 DIV PUSH20 0xFFFFFFFFFFFFFFFFFFFFFFFFFFFFFFFFFFFFFFFF AND PUSH20 0xFFFFFFFFFFFFFFFFFFFFFFFFFFFFFFFFFFFFFFFF AND EQ PUSH2 0xF5C JUMPI PUSH1 0x40 MLOAD PUSH32 0x8C379A000000000000000000000000000000000000000000000000000000000 DUP2 MSTORE PUSH1 0x4 ADD PUSH2 0xF53 SWAP1 PUSH2 0x243C JUMP JUMPDEST PUSH1 0x40 MLOAD DUP1 SWAP2 SUB SWAP1 REVERT JUMPDEST PUSH1 0x0 PUSH20 0xFFFFFFFFFFFFFFFFFFFFFFFFFFFFFFFFFFFFFFFF AND DUP3 PUSH20 0xFFFFFFFFFFFFFFFFFFFFFFFFFFFFFFFFFFFFFFFF AND EQ ISZERO PUSH2 0xFCC JUMPI PUSH1 0x40 MLOAD PUSH32 0x8C379A000000000000000000000000000000000000000000000000000000000 DUP2 MSTORE PUSH1 0x4 ADD PUSH2 0xFC3 SWAP1 PUSH2 0x233C JUMP JUMPDEST PUSH1 0x40 MLOAD DUP1 SWAP2 SUB SWAP1 REVERT JUMPDEST DUP2 PUSH1 0x3 PUSH1 0x0 PUSH2 0x100 EXP DUP2 SLOAD DUP2 PUSH20 0xFFFFFFFFFFFFFFFFFFFFFFFFFFFFFFFFFFFFFFFF MUL NOT AND SWAP1 DUP4 PUSH20 0xFFFFFFFFFFFFFFFFFFFFFFFFFFFFFFFFFFFFFFFF AND MUL OR SWAP1 SSTORE POP PUSH32 0x0 PUSH32 0x0 PUSH20 0xFFFFFFFFFFFFFFFFFFFFFFFFFFFFFFFFFFFFFFFF AND PUSH4 0x70A08231 DUP4 PUSH1 0x40 MLOAD DUP3 PUSH4 0xFFFFFFFF AND PUSH1 0xE0 SHL DUP2 MSTORE PUSH1 0x4 ADD PUSH2 0x1087 SWAP2 SWAP1 PUSH2 0x203C JUMP JUMPDEST PUSH1 0x20 PUSH1 0x40 MLOAD DUP1 DUP4 SUB DUP2 DUP7 DUP1 EXTCODESIZE ISZERO DUP1 ISZERO PUSH2 0x109F JUMPI PUSH1 0x0 DUP1 REVERT JUMPDEST POP GAS STATICCALL ISZERO DUP1 ISZERO PUSH2 0x10B3 JUMPI RETURNDATASIZE PUSH1 0x0 DUP1 RETURNDATACOPY RETURNDATASIZE PUSH1 0x0 REVERT JUMPDEST POP POP POP POP PUSH1 0x40 MLOAD RETURNDATASIZE PUSH1 0x1F NOT PUSH1 0x1F DUP3 ADD AND DUP3 ADD DUP1 PUSH1 0x40 MSTORE POP DUP2 ADD SWAP1 PUSH2 0x10D7 SWAP2 SWAP1 PUSH2 0x1C62 JUMP JUMPDEST LT ISZERO PUSH2 0x1118 JUMPI PUSH1 0x40 MLOAD PUSH32 0x8C379A000000000000000000000000000000000000000000000000000000000 DUP2 MSTORE PUSH1 0x4 ADD PUSH2 0x110F SWAP1 PUSH2 0x235C JUMP JUMPDEST PUSH1 0x40 MLOAD DUP1 SWAP2 SUB SWAP1 REVERT JUMPDEST PUSH32 0x0 PUSH32 0x0 PUSH20 0xFFFFFFFFFFFFFFFFFFFFFFFFFFFFFFFFFFFFFFFF AND PUSH4 0xDD62ED3E DUP4 ADDRESS PUSH1 0x40 MLOAD DUP4 PUSH4 0xFFFFFFFF AND PUSH1 0xE0 SHL DUP2 MSTORE PUSH1 0x4 ADD PUSH2 0x1194 SWAP3 SWAP2 SWAP1 PUSH2 0x2057 JUMP JUMPDEST PUSH1 0x20 PUSH1 0x40 MLOAD DUP1 DUP4 SUB DUP2 DUP7 DUP1 EXTCODESIZE ISZERO DUP1 ISZERO PUSH2 0x11AC JUMPI PUSH1 0x0 DUP1 REVERT JUMPDEST POP GAS STATICCALL ISZERO DUP1 ISZERO PUSH2 0x11C0 JUMPI RETURNDATASIZE PUSH1 0x0 DUP1 RETURNDATACOPY RETURNDATASIZE PUSH1 0x0 REVERT JUMPDEST POP POP POP POP PUSH1 0x40 MLOAD RETURNDATASIZE PUSH1 0x1F NOT PUSH1 0x1F DUP3 ADD AND DUP3 ADD DUP1 PUSH1 0x40 MSTORE POP DUP2 ADD SWAP1 PUSH2 0x11E4 SWAP2 SWAP1 PUSH2 0x1C62 JUMP JUMPDEST LT ISZERO PUSH2 0x1225 JUMPI PUSH1 0x40 MLOAD PUSH32 0x8C379A000000000000000000000000000000000000000000000000000000000 DUP2 MSTORE PUSH1 0x4 ADD PUSH2 0x121C SWAP1 PUSH2 0x231C JUMP JUMPDEST PUSH1 0x40 MLOAD DUP1 SWAP2 SUB SWAP1 REVERT JUMPDEST PUSH32 0x0 PUSH20 0xFFFFFFFFFFFFFFFFFFFFFFFFFFFFFFFFFFFFFFFF AND PUSH4 0x23B872DD DUP3 ADDRESS PUSH32 0x0 PUSH1 0x40 MLOAD DUP5 PUSH4 0xFFFFFFFF AND PUSH1 0xE0 SHL DUP2 MSTORE PUSH1 0x4 ADD PUSH2 0x12A2 SWAP4 SWAP3 SWAP2 SWAP1 PUSH2 0x2080 JUMP JUMPDEST PUSH1 0x20 PUSH1 0x40 MLOAD DUP1 DUP4 SUB DUP2 PUSH1 0x0 DUP8 DUP1 EXTCODESIZE ISZERO DUP1 ISZERO PUSH2 0x12BC JUMPI PUSH1 0x0 DUP1 REVERT JUMPDEST POP GAS CALL ISZERO DUP1 ISZERO PUSH2 0x12D0 JUMPI RETURNDATASIZE PUSH1 0x0 DUP1 RETURNDATACOPY RETURNDATASIZE PUSH1 0x0 REVERT JUMPDEST POP POP POP POP PUSH1 0x40 MLOAD RETURNDATASIZE PUSH1 0x1F NOT PUSH1 0x1F DUP3 ADD AND DUP3 ADD DUP1 PUSH1 0x40 MSTORE POP DUP2 ADD SWAP1 PUSH2 0x12F4 SWAP2 SWAP1 PUSH2 0x1C39 JUMP JUMPDEST PUSH2 0x1333 JUMPI PUSH1 0x40 MLOAD PUSH32 0x8C379A000000000000000000000000000000000000000000000000000000000 DUP2 MSTORE PUSH1 0x4 ADD PUSH2 0x132A SWAP1 PUSH2 0x23FC JUMP JUMPDEST PUSH1 0x40 MLOAD DUP1 SWAP2 SUB SWAP1 REVERT JUMPDEST POP POP JUMP JUMPDEST PUSH1 0x0 PUSH20 0xFFFFFFFFFFFFFFFFFFFFFFFFFFFFFFFFFFFFFFFF AND PUSH1 0x3 PUSH1 0x0 SWAP1 SLOAD SWAP1 PUSH2 0x100 EXP SWAP1 DIV PUSH20 0xFFFFFFFFFFFFFFFFFFFFFFFFFFFFFFFFFFFFFFFF AND PUSH20 0xFFFFFFFFFFFFFFFFFFFFFFFFFFFFFFFFFFFFFFFF AND EQ ISZERO PUSH2 0x13C9 JUMPI PUSH1 0x40 MLOAD PUSH32 0x8C379A000000000000000000000000000000000000000000000000000000000 DUP2 MSTORE PUSH1 0x4 ADD PUSH2 0x13C0 SWAP1 PUSH2 0x237C JUMP JUMPDEST PUSH1 0x40 MLOAD DUP1 SWAP2 SUB SWAP1 REVERT JUMPDEST PUSH1 0x0 DUP1 PUSH1 0x0 CALLER PUSH20 0xFFFFFFFFFFFFFFFFFFFFFFFFFFFFFFFFFFFFFFFF AND PUSH20 0xFFFFFFFFFFFFFFFFFFFFFFFFFFFFFFFFFFFFFFFF AND DUP2 MSTORE PUSH1 0x20 ADD SWAP1 DUP2 MSTORE PUSH1 0x20 ADD PUSH1 0x0 KECCAK256 PUSH1 0x40 MLOAD DUP1 PUSH1 0x80 ADD PUSH1 0x40 MSTORE SWAP1 DUP2 PUSH1 0x0 DUP3 ADD PUSH1 0x0 SWAP1 SLOAD SWAP1 PUSH2 0x100 EXP SWAP1 DIV PUSH9 0xFFFFFFFFFFFFFFFFFF AND PUSH9 0xFFFFFFFFFFFFFFFFFF AND PUSH9 0xFFFFFFFFFFFFFFFFFF AND DUP2 MSTORE PUSH1 0x20 ADD PUSH1 0x0 DUP3 ADD PUSH1 0x9 SWAP1 SLOAD SWAP1 PUSH2 0x100 EXP SWAP1 DIV PUSH3 0xFFFFFF AND PUSH3 0xFFFFFF AND PUSH3 0xFFFFFF AND DUP2 MSTORE PUSH1 0x20 ADD PUSH1 0x0 DUP3 ADD PUSH1 0xC SWAP1 SLOAD SWAP1 PUSH2 0x100 EXP SWAP1 DIV PUSH4 0xFFFFFFFF AND PUSH4 0xFFFFFFFF AND PUSH4 0xFFFFFFFF AND DUP2 MSTORE PUSH1 0x20 ADD PUSH1 0x0 DUP3 ADD PUSH1 0x10 SWAP1 SLOAD SWAP1 PUSH2 0x100 EXP SWAP1 DIV PUSH16 0xFFFFFFFFFFFFFFFFFFFFFFFFFFFFFFFF AND PUSH16 0xFFFFFFFFFFFFFFFFFFFFFFFFFFFFFFFF AND PUSH16 0xFFFFFFFFFFFFFFFFFFFFFFFFFFFFFFFF AND DUP2 MSTORE POP POP SWAP1 POP PUSH1 0x0 DUP2 PUSH1 0x0 ADD MLOAD PUSH9 0xFFFFFFFFFFFFFFFFFF AND SWAP1 POP PUSH1 0x0 DUP2 EQ ISZERO PUSH2 0x1536 JUMPI PUSH1 0x40 MLOAD PUSH32 0x8C379A000000000000000000000000000000000000000000000000000000000 DUP2 MSTORE PUSH1 0x4 ADD PUSH2 0x152D SWAP1 PUSH2 0x225C JUMP JUMPDEST PUSH1 0x40 MLOAD DUP1 SWAP2 SUB SWAP1 REVERT JUMPDEST DUP2 PUSH1 0x40 ADD MLOAD PUSH4 0xFFFFFFFF AND NUMBER GT PUSH2 0x1582 JUMPI PUSH1 0x40 MLOAD PUSH32 0x8C379A000000000000000000000000000000000000000000000000000000000 DUP2 MSTORE PUSH1 0x4 ADD PUSH2 0x1579 SWAP1 PUSH2 0x22FC JUMP JUMPDEST PUSH1 0x40 MLOAD DUP1 SWAP2 SUB SWAP1 REVERT JUMPDEST PUSH2 0x158B DUP3 PUSH2 0x18BA JUMP JUMPDEST PUSH1 0x0 DUP1 CALLER PUSH20 0xFFFFFFFFFFFFFFFFFFFFFFFFFFFFFFFFFFFFFFFF AND PUSH20 0xFFFFFFFFFFFFFFFFFFFFFFFFFFFFFFFFFFFFFFFF AND DUP2 MSTORE PUSH1 0x20 ADD SWAP1 DUP2 MSTORE PUSH1 0x20 ADD PUSH1 0x0 KECCAK256 PUSH1 0x0 DUP1 DUP3 ADD PUSH1 0x0 PUSH2 0x100 EXP DUP2 SLOAD SWAP1 PUSH9 0xFFFFFFFFFFFFFFFFFF MUL NOT AND SWAP1 SSTORE PUSH1 0x0 DUP3 ADD PUSH1 0x9 PUSH2 0x100 EXP DUP2 SLOAD SWAP1 PUSH3 0xFFFFFF MUL NOT AND SWAP1 SSTORE PUSH1 0x0 DUP3 ADD PUSH1 0xC PUSH2 0x100 EXP DUP2 SLOAD SWAP1 PUSH4 0xFFFFFFFF MUL NOT AND SWAP1 SSTORE PUSH1 0x0 DUP3 ADD PUSH1 0x10 PUSH2 0x100 EXP DUP2 SLOAD SWAP1 PUSH16 0xFFFFFFFFFFFFFFFFFFFFFFFFFFFFFFFF MUL NOT AND SWAP1 SSTORE POP POP PUSH1 0x3 PUSH1 0x0 SWAP1 SLOAD SWAP1 PUSH2 0x100 EXP SWAP1 DIV PUSH20 0xFFFFFFFFFFFFFFFFFFFFFFFFFFFFFFFFFFFFFFFF AND PUSH20 0xFFFFFFFFFFFFFFFFFFFFFFFFFFFFFFFFFFFFFFFF AND PUSH4 0xA9059CBB CALLER DUP4 PUSH1 0x40 MLOAD DUP4 PUSH4 0xFFFFFFFF AND PUSH1 0xE0 SHL DUP2 MSTORE PUSH1 0x4 ADD PUSH2 0x1695 SWAP3 SWAP2 SWAP1 PUSH2 0x20EE JUMP JUMPDEST PUSH1 0x20 PUSH1 0x40 MLOAD DUP1 DUP4 SUB DUP2 PUSH1 0x0 DUP8 DUP1 EXTCODESIZE ISZERO DUP1 ISZERO PUSH2 0x16AF JUMPI PUSH1 0x0 DUP1 REVERT JUMPDEST POP GAS CALL ISZERO DUP1 ISZERO PUSH2 0x16C3 JUMPI RETURNDATASIZE PUSH1 0x0 DUP1 RETURNDATACOPY RETURNDATASIZE PUSH1 0x0 REVERT JUMPDEST POP POP POP POP PUSH1 0x40 MLOAD RETURNDATASIZE PUSH1 0x1F NOT PUSH1 0x1F DUP3 ADD AND DUP3 ADD DUP1 PUSH1 0x40 MSTORE POP DUP2 ADD SWAP1 PUSH2 0x16E7 SWAP2 SWAP1 PUSH2 0x1C39 JUMP JUMPDEST PUSH2 0x1726 JUMPI PUSH1 0x40 MLOAD PUSH32 0x8C379A000000000000000000000000000000000000000000000000000000000 DUP2 MSTORE PUSH1 0x4 ADD PUSH2 0x171D SWAP1 PUSH2 0x221C JUMP JUMPDEST PUSH1 0x40 MLOAD DUP1 SWAP2 SUB SWAP1 REVERT JUMPDEST POP POP JUMP JUMPDEST PUSH1 0x0 DUP2 GT PUSH2 0x176D JUMPI PUSH1 0x40 MLOAD PUSH32 0x8C379A000000000000000000000000000000000000000000000000000000000 DUP2 MSTORE PUSH1 0x4 ADD PUSH2 0x1764 SWAP1 PUSH2 0x22BC JUMP JUMPDEST PUSH1 0x40 MLOAD DUP1 SWAP2 SUB SWAP1 REVERT JUMPDEST PUSH1 0x0 PUSH20 0xFFFFFFFFFFFFFFFFFFFFFFFFFFFFFFFFFFFFFFFF AND DUP3 PUSH20 0xFFFFFFFFFFFFFFFFFFFFFFFFFFFFFFFFFFFFFFFF AND EQ ISZERO PUSH2 0x17DD JUMPI PUSH1 0x40 MLOAD PUSH32 0x8C379A000000000000000000000000000000000000000000000000000000000 DUP2 MSTORE PUSH1 0x4 ADD PUSH2 0x17D4 SWAP1 PUSH2 0x21FC JUMP JUMPDEST PUSH1 0x40 MLOAD DUP1 SWAP2 SUB SWAP1 REVERT JUMPDEST DUP1 PUSH1 0x4 PUSH1 0x0 DUP5 PUSH20 0xFFFFFFFFFFFFFFFFFFFFFFFFFFFFFFFFFFFFFFFF AND PUSH20 0xFFFFFFFFFFFFFFFFFFFFFFFFFFFFFFFFFFFFFFFF AND DUP2 MSTORE PUSH1 0x20 ADD SWAP1 DUP2 MSTORE PUSH1 0x20 ADD PUSH1 0x0 KECCAK256 DUP2 SWAP1 SSTORE POP PUSH32 0x6E1AFD29522B0AAF986597BCC53F5FB4DAAE2AF7CFD41D00C384AB1BDF912B23 DUP3 DUP3 PUSH1 0x40 MLOAD PUSH2 0x1852 SWAP3 SWAP2 SWAP1 PUSH2 0x20EE JUMP JUMPDEST PUSH1 0x40 MLOAD DUP1 SWAP2 SUB SWAP1 LOG1 POP POP JUMP JUMPDEST PUSH1 0x0 PUSH1 0x5 PUSH1 0x0 DUP4 PUSH20 0xFFFFFFFFFFFFFFFFFFFFFFFFFFFFFFFFFFFFFFFF AND PUSH20 0xFFFFFFFFFFFFFFFFFFFFFFFFFFFFFFFFFFFFFFFF AND DUP2 MSTORE PUSH1 0x20 ADD SWAP1 DUP2 MSTORE PUSH1 0x20 ADD PUSH1 0x0 KECCAK256 SLOAD PUSH2 0x18A9 DUP4 PUSH2 0x1A27 JUMP JUMPDEST PUSH2 0x18B3 SWAP2 SWAP1 PUSH2 0x2603 JUMP JUMPDEST SWAP1 POP SWAP2 SWAP1 POP JUMP JUMPDEST DUP1 PUSH1 0x20 ADD MLOAD PUSH3 0xFFFFFF AND DUP2 PUSH1 0x40 ADD MLOAD PUSH2 0x18D3 SWAP2 SWAP1 PUSH2 0x253E JUMP JUMPDEST PUSH4 0xFFFFFFFF AND NUMBER LT ISZERO PUSH2 0x19DA JUMPI DUP1 PUSH1 0x60 ADD MLOAD PUSH16 0xFFFFFFFFFFFFFFFFFFFFFFFFFFFFFFFF AND PUSH1 0x1 PUSH1 0x0 CALLER PUSH20 0xFFFFFFFFFFFFFFFFFFFFFFFFFFFFFFFFFFFFFFFF AND PUSH20 0xFFFFFFFFFFFFFFFFFFFFFFFFFFFFFFFFFFFFFFFF AND DUP2 MSTORE PUSH1 0x20 ADD SWAP1 DUP2 MSTORE PUSH1 0x20 ADD PUSH1 0x0 KECCAK256 PUSH1 0x0 DUP3 DUP3 SLOAD PUSH2 0x1945 SWAP2 SWAP1 PUSH2 0x2603 JUMP JUMPDEST SWAP3 POP POP DUP2 SWAP1 SSTORE POP DUP1 PUSH1 0x60 ADD MLOAD PUSH16 0xFFFFFFFFFFFFFFFFFFFFFFFFFFFFFFFF AND PUSH1 0x2 PUSH1 0x0 DUP3 DUP3 SLOAD PUSH2 0x1974 SWAP2 SWAP1 PUSH2 0x2603 JUMP JUMPDEST SWAP3 POP POP DUP2 SWAP1 SSTORE POP PUSH32 0x6C6F3C7D8C87976393011CC962DA12841024BC1D62D2DE21716A6306AB314EF3 CALLER DUP3 PUSH1 0x0 ADD MLOAD DUP4 PUSH1 0x20 ADD MLOAD DUP5 PUSH1 0x40 ADD MLOAD PUSH4 0xFFFFFFFF AND NUMBER PUSH2 0x19BD SWAP2 SWAP1 PUSH2 0x2603 JUMP JUMPDEST PUSH1 0x40 MLOAD PUSH2 0x19CD SWAP5 SWAP4 SWAP3 SWAP2 SWAP1 PUSH2 0x215C JUMP JUMPDEST PUSH1 0x40 MLOAD DUP1 SWAP2 SUB SWAP1 LOG1 PUSH2 0x1A24 JUMP JUMPDEST PUSH32 0x391930AB48E95A9040C849CC86E1B2F63C711A1F59D6E324CE775DC9A0051056 CALLER DUP3 PUSH1 0x0 ADD MLOAD DUP4 PUSH1 0x20 ADD MLOAD DUP5 PUSH1 0x60 ADD MLOAD PUSH1 0x40 MLOAD PUSH2 0x1A1B SWAP5 SWAP4 SWAP3 SWAP2 SWAP1 PUSH2 0x2117 JUMP JUMPDEST PUSH1 0x40 MLOAD DUP1 SWAP2 SUB SWAP1 LOG1 JUMPDEST POP JUMP JUMPDEST PUSH1 0x0 PUSH32 0x0 PUSH32 0x0 PUSH2 0x1A75 SWAP2 SWAP1 PUSH2 0x24E8 JUMP JUMPDEST NUMBER LT PUSH2 0x1AC2 JUMPI PUSH1 0x4 PUSH1 0x0 DUP4 PUSH20 0xFFFFFFFFFFFFFFFFFFFFFFFFFFFFFFFFFFFFFFFF AND PUSH20 0xFFFFFFFFFFFFFFFFFFFFFFFFFFFFFFFFFFFFFFFF AND DUP2 MSTORE PUSH1 0x20 ADD SWAP1 DUP2 MSTORE PUSH1 0x20 ADD PUSH1 0x0 KECCAK256 SLOAD SWAP1 POP PUSH2 0x1B66 JUMP JUMPDEST PUSH32 0x0 PUSH32 0x0 NUMBER PUSH2 0x1B0F SWAP2 SWAP1 PUSH2 0x2603 JUMP JUMPDEST PUSH1 0x4 PUSH1 0x0 DUP6 PUSH20 0xFFFFFFFFFFFFFFFFFFFFFFFFFFFFFFFFFFFFFFFF AND PUSH20 0xFFFFFFFFFFFFFFFFFFFFFFFFFFFFFFFFFFFFFFFF AND DUP2 MSTORE PUSH1 0x20 ADD SWAP1 DUP2 MSTORE PUSH1 0x20 ADD PUSH1 0x0 KECCAK256 SLOAD PUSH2 0x1B59 SWAP2 SWAP1 PUSH2 0x25A9 JUMP JUMPDEST PUSH2 0x1B63 SWAP2 SWAP1 PUSH2 0x2578 JUMP JUMPDEST SWAP1 POP JUMPDEST SWAP2 SWAP1 POP JUMP JUMPDEST PUSH1 0x0 DUP2 CALLDATALOAD SWAP1 POP PUSH2 0x1B7A DUP2 PUSH2 0x2CD2 JUMP JUMPDEST SWAP3 SWAP2 POP POP JUMP JUMPDEST PUSH1 0x0 DUP2 MLOAD SWAP1 POP PUSH2 0x1B8F DUP2 PUSH2 0x2CE9 JUMP JUMPDEST SWAP3 SWAP2 POP POP JUMP JUMPDEST PUSH1 0x0 DUP2 CALLDATALOAD SWAP1 POP PUSH2 0x1BA4 DUP2 PUSH2 0x2D00 JUMP JUMPDEST SWAP3 SWAP2 POP POP JUMP JUMPDEST PUSH1 0x0 DUP2 MLOAD SWAP1 POP PUSH2 0x1BB9 DUP2 PUSH2 0x2D17 JUMP JUMPDEST SWAP3 SWAP2 POP POP JUMP JUMPDEST PUSH1 0x0 DUP2 CALLDATALOAD SWAP1 POP PUSH2 0x1BCE DUP2 PUSH2 0x2D2E JUMP JUMPDEST SWAP3 SWAP2 POP POP JUMP JUMPDEST PUSH1 0x0 PUSH1 0x20 DUP3 DUP5 SUB SLT ISZERO PUSH2 0x1BE6 JUMPI PUSH1 0x0 DUP1 REVERT JUMPDEST PUSH1 0x0 PUSH2 0x1BF4 DUP5 DUP3 DUP6 ADD PUSH2 0x1B6B JUMP JUMPDEST SWAP2 POP POP SWAP3 SWAP2 POP POP JUMP JUMPDEST PUSH1 0x0 DUP1 PUSH1 0x40 DUP4 DUP6 SUB SLT ISZERO PUSH2 0x1C10 JUMPI PUSH1 0x0 DUP1 REVERT JUMPDEST PUSH1 0x0 PUSH2 0x1C1E DUP6 DUP3 DUP7 ADD PUSH2 0x1B6B JUMP JUMPDEST SWAP3 POP POP PUSH1 0x20 PUSH2 0x1C2F DUP6 DUP3 DUP7 ADD PUSH2 0x1B6B JUMP JUMPDEST SWAP2 POP POP SWAP3 POP SWAP3 SWAP1 POP JUMP JUMPDEST PUSH1 0x0 PUSH1 0x20 DUP3 DUP5 SUB SLT ISZERO PUSH2 0x1C4B JUMPI PUSH1 0x0 DUP1 REVERT JUMPDEST PUSH1 0x0 PUSH2 0x1C59 DUP5 DUP3 DUP6 ADD PUSH2 0x1B80 JUMP JUMPDEST SWAP2 POP POP SWAP3 SWAP2 POP POP JUMP JUMPDEST PUSH1 0x0 PUSH1 0x20 DUP3 DUP5 SUB SLT ISZERO PUSH2 0x1C74 JUMPI PUSH1 0x0 DUP1 REVERT JUMPDEST PUSH1 0x0 PUSH2 0x1C82 DUP5 DUP3 DUP6 ADD PUSH2 0x1BAA JUMP JUMPDEST SWAP2 POP POP SWAP3 SWAP2 POP POP JUMP JUMPDEST PUSH1 0x0 DUP1 PUSH1 0x40 DUP4 DUP6 SUB SLT ISZERO PUSH2 0x1C9E JUMPI PUSH1 0x0 DUP1 REVERT JUMPDEST PUSH1 0x0 PUSH2 0x1CAC DUP6 DUP3 DUP7 ADD PUSH2 0x1BBF JUMP JUMPDEST SWAP3 POP POP PUSH1 0x20 PUSH2 0x1CBD DUP6 DUP3 DUP7 ADD PUSH2 0x1B95 JUMP JUMPDEST SWAP2 POP POP SWAP3 POP SWAP3 SWAP1 POP JUMP JUMPDEST PUSH2 0x1CD0 DUP2 PUSH2 0x2637 JUMP JUMPDEST DUP3 MSTORE POP POP JUMP JUMPDEST PUSH2 0x1CDF DUP2 PUSH2 0x26CF JUMP JUMPDEST DUP3 MSTORE POP POP JUMP JUMPDEST PUSH1 0x0 PUSH2 0x1CF2 PUSH1 0x1D DUP4 PUSH2 0x24D7 JUMP JUMPDEST SWAP2 POP PUSH2 0x1CFD DUP3 PUSH2 0x2787 JUMP JUMPDEST PUSH1 0x20 DUP3 ADD SWAP1 POP SWAP2 SWAP1 POP JUMP JUMPDEST PUSH1 0x0 PUSH2 0x1D15 PUSH1 0x22 DUP4 PUSH2 0x24D7 JUMP JUMPDEST SWAP2 POP PUSH2 0x1D20 DUP3 PUSH2 0x27B0 JUMP JUMPDEST PUSH1 0x40 DUP3 ADD SWAP1 POP SWAP2 SWAP1 POP JUMP JUMPDEST PUSH1 0x0 PUSH2 0x1D38 PUSH1 0x2D DUP4 PUSH2 0x24D7 JUMP JUMPDEST SWAP2 POP PUSH2 0x1D43 DUP3 PUSH2 0x27FF JUMP JUMPDEST PUSH1 0x40 DUP3 ADD SWAP1 POP SWAP2 SWAP1 POP JUMP JUMPDEST PUSH1 0x0 PUSH2 0x1D5B PUSH1 0x1A DUP4 PUSH2 0x24D7 JUMP JUMPDEST SWAP2 POP PUSH2 0x1D66 DUP3 PUSH2 0x284E JUMP JUMPDEST PUSH1 0x20 DUP3 ADD SWAP1 POP SWAP2 SWAP1 POP JUMP JUMPDEST PUSH1 0x0 PUSH2 0x1D7E PUSH1 0x50 DUP4 PUSH2 0x24D7 JUMP JUMPDEST SWAP2 POP PUSH2 0x1D89 DUP3 PUSH2 0x2877 JUMP JUMPDEST PUSH1 0x60 DUP3 ADD SWAP1 POP SWAP2 SWAP1 POP JUMP JUMPDEST PUSH1 0x0 PUSH2 0x1DA1 PUSH1 0x20 DUP4 PUSH2 0x24D7 JUMP JUMPDEST SWAP2 POP PUSH2 0x1DAC DUP3 PUSH2 0x28EC JUMP JUMPDEST PUSH1 0x20 DUP3 ADD SWAP1 POP SWAP2 SWAP1 POP JUMP JUMPDEST PUSH1 0x0 PUSH2 0x1DC4 PUSH1 0x31 DUP4 PUSH2 0x24D7 JUMP JUMPDEST SWAP2 POP PUSH2 0x1DCF DUP3 PUSH2 0x2915 JUMP JUMPDEST PUSH1 0x40 DUP3 ADD SWAP1 POP SWAP2 SWAP1 POP JUMP JUMPDEST PUSH1 0x0 PUSH2 0x1DE7 PUSH1 0xF DUP4 PUSH2 0x24D7 JUMP JUMPDEST SWAP2 POP PUSH2 0x1DF2 DUP3 PUSH2 0x2964 JUMP JUMPDEST PUSH1 0x20 DUP3 ADD SWAP1 POP SWAP2 SWAP1 POP JUMP JUMPDEST PUSH1 0x0 PUSH2 0x1E0A PUSH1 0x29 DUP4 PUSH2 0x24D7 JUMP JUMPDEST SWAP2 POP PUSH2 0x1E15 DUP3 PUSH2 0x298D JUMP JUMPDEST PUSH1 0x40 DUP3 ADD SWAP1 POP SWAP2 SWAP1 POP JUMP JUMPDEST PUSH1 0x0 PUSH2 0x1E2D PUSH1 0x33 DUP4 PUSH2 0x24D7 JUMP JUMPDEST SWAP2 POP PUSH2 0x1E38 DUP3 PUSH2 0x29DC JUMP JUMPDEST PUSH1 0x40 DUP3 ADD SWAP1 POP SWAP2 SWAP1 POP JUMP JUMPDEST PUSH1 0x0 PUSH2 0x1E50 PUSH1 0x3C DUP4 PUSH2 0x24D7 JUMP JUMPDEST SWAP2 POP PUSH2 0x1E5B DUP3 PUSH2 0x2A2B JUMP JUMPDEST PUSH1 0x40 DUP3 ADD SWAP1 POP SWAP2 SWAP1 POP JUMP JUMPDEST PUSH1 0x0 PUSH2 0x1E73 PUSH1 0x29 DUP4 PUSH2 0x24D7 JUMP JUMPDEST SWAP2 POP PUSH2 0x1E7E DUP3 PUSH2 0x2A7A JUMP JUMPDEST PUSH1 0x40 DUP3 ADD SWAP1 POP SWAP2 SWAP1 POP JUMP JUMPDEST PUSH1 0x0 PUSH2 0x1E96 PUSH1 0x20 DUP4 PUSH2 0x24D7 JUMP JUMPDEST SWAP2 POP PUSH2 0x1EA1 DUP3 PUSH2 0x2AC9 JUMP JUMPDEST PUSH1 0x20 DUP3 ADD SWAP1 POP SWAP2 SWAP1 POP JUMP JUMPDEST PUSH1 0x0 PUSH2 0x1EB9 PUSH1 0x2B DUP4 PUSH2 0x24D7 JUMP JUMPDEST SWAP2 POP PUSH2 0x1EC4 DUP3 PUSH2 0x2AF2 JUMP JUMPDEST PUSH1 0x40 DUP3 ADD SWAP1 POP SWAP2 SWAP1 POP JUMP JUMPDEST PUSH1 0x0 PUSH2 0x1EDC PUSH1 0x11 DUP4 PUSH2 0x24D7 JUMP JUMPDEST SWAP2 POP PUSH2 0x1EE7 DUP3 PUSH2 0x2B41 JUMP JUMPDEST PUSH1 0x20 DUP3 ADD SWAP1 POP SWAP2 SWAP1 POP JUMP JUMPDEST PUSH1 0x0 PUSH2 0x1EFF PUSH1 0x21 DUP4 PUSH2 0x24D7 JUMP JUMPDEST SWAP2 POP PUSH2 0x1F0A DUP3 PUSH2 0x2B6A JUMP JUMPDEST PUSH1 0x40 DUP3 ADD SWAP1 POP SWAP2 SWAP1 POP JUMP JUMPDEST PUSH1 0x0 PUSH2 0x1F22 PUSH1 0x1B DUP4 PUSH2 0x24D7 JUMP JUMPDEST SWAP2 POP PUSH2 0x1F2D DUP3 PUSH2 0x2BB9 JUMP JUMPDEST PUSH1 0x20 DUP3 ADD SWAP1 POP SWAP2 SWAP1 POP JUMP JUMPDEST PUSH1 0x0 PUSH2 0x1F45 PUSH1 0x33 DUP4 PUSH2 0x24D7 JUMP JUMPDEST SWAP2 POP PUSH2 0x1F50 DUP3 PUSH2 0x2BE2 JUMP JUMPDEST PUSH1 0x40 DUP3 ADD SWAP1 POP SWAP2 SWAP1 POP JUMP JUMPDEST PUSH1 0x0 PUSH2 0x1F68 PUSH1 0x2B DUP4 PUSH2 0x24D7 JUMP JUMPDEST SWAP2 POP PUSH2 0x1F73 DUP3 PUSH2 0x2C31 JUMP JUMPDEST PUSH1 0x40 DUP3 ADD SWAP1 POP SWAP2 SWAP1 POP JUMP JUMPDEST PUSH1 0x0 PUSH2 0x1F8B PUSH1 0x1F DUP4 PUSH2 0x24D7 JUMP JUMPDEST SWAP2 POP PUSH2 0x1F96 DUP3 PUSH2 0x2C80 JUMP JUMPDEST PUSH1 0x20 DUP3 ADD SWAP1 POP SWAP2 SWAP1 POP JUMP JUMPDEST PUSH1 0x0 PUSH2 0x1FAE PUSH1 0x19 DUP4 PUSH2 0x24D7 JUMP JUMPDEST SWAP2 POP PUSH2 0x1FB9 DUP3 PUSH2 0x2CA9 JUMP JUMPDEST PUSH1 0x20 DUP3 ADD SWAP1 POP SWAP2 SWAP1 POP JUMP JUMPDEST PUSH2 0x1FCD DUP2 PUSH2 0x2655 JUMP JUMPDEST DUP3 MSTORE POP POP JUMP JUMPDEST PUSH2 0x1FDC DUP2 PUSH2 0x26F3 JUMP JUMPDEST DUP3 MSTORE POP POP JUMP JUMPDEST PUSH2 0x1FEB DUP2 PUSH2 0x2691 JUMP JUMPDEST DUP3 MSTORE POP POP JUMP JUMPDEST PUSH2 0x1FFA DUP2 PUSH2 0x2705 JUMP JUMPDEST DUP3 MSTORE POP POP JUMP JUMPDEST PUSH2 0x2009 DUP2 PUSH2 0x26A0 JUMP JUMPDEST DUP3 MSTORE POP POP JUMP JUMPDEST PUSH2 0x2018 DUP2 PUSH2 0x26AA JUMP JUMPDEST DUP3 MSTORE POP POP JUMP JUMPDEST PUSH2 0x2027 DUP2 PUSH2 0x2717 JUMP JUMPDEST DUP3 MSTORE POP POP JUMP JUMPDEST PUSH2 0x2036 DUP2 PUSH2 0x26BA JUMP JUMPDEST DUP3 MSTORE POP POP JUMP JUMPDEST PUSH1 0x0 PUSH1 0x20 DUP3 ADD SWAP1 POP PUSH2 0x2051 PUSH1 0x0 DUP4 ADD DUP5 PUSH2 0x1CC7 JUMP JUMPDEST SWAP3 SWAP2 POP POP JUMP JUMPDEST PUSH1 0x0 PUSH1 0x40 DUP3 ADD SWAP1 POP PUSH2 0x206C PUSH1 0x0 DUP4 ADD DUP6 PUSH2 0x1CC7 JUMP JUMPDEST PUSH2 0x2079 PUSH1 0x20 DUP4 ADD DUP5 PUSH2 0x1CC7 JUMP JUMPDEST SWAP4 SWAP3 POP POP POP JUMP JUMPDEST PUSH1 0x0 PUSH1 0x60 DUP3 ADD SWAP1 POP PUSH2 0x2095 PUSH1 0x0 DUP4 ADD DUP7 PUSH2 0x1CC7 JUMP JUMPDEST PUSH2 0x20A2 PUSH1 0x20 DUP4 ADD DUP6 PUSH2 0x1CC7 JUMP JUMPDEST PUSH2 0x20AF PUSH1 0x40 DUP4 ADD DUP5 PUSH2 0x2000 JUMP JUMPDEST SWAP5 SWAP4 POP POP POP POP JUMP JUMPDEST PUSH1 0x0 PUSH1 0x60 DUP3 ADD SWAP1 POP PUSH2 0x20CC PUSH1 0x0 DUP4 ADD DUP7 PUSH2 0x1CC7 JUMP JUMPDEST PUSH2 0x20D9 PUSH1 0x20 DUP4 ADD DUP6 PUSH2 0x1CC7 JUMP JUMPDEST PUSH2 0x20E6 PUSH1 0x40 DUP4 ADD DUP5 PUSH2 0x201E JUMP JUMPDEST SWAP5 SWAP4 POP POP POP POP JUMP JUMPDEST PUSH1 0x0 PUSH1 0x40 DUP3 ADD SWAP1 POP PUSH2 0x2103 PUSH1 0x0 DUP4 ADD DUP6 PUSH2 0x1CC7 JUMP JUMPDEST PUSH2 0x2110 PUSH1 0x20 DUP4 ADD DUP5 PUSH2 0x2000 JUMP JUMPDEST SWAP4 SWAP3 POP POP POP JUMP JUMPDEST PUSH1 0x0 PUSH1 0x80 DUP3 ADD SWAP1 POP PUSH2 0x212C PUSH1 0x0 DUP4 ADD DUP8 PUSH2 0x1CC7 JUMP JUMPDEST PUSH2 0x2139 PUSH1 0x20 DUP4 ADD DUP7 PUSH2 0x201E JUMP JUMPDEST PUSH2 0x2146 PUSH1 0x40 DUP4 ADD DUP6 PUSH2 0x1FF1 JUMP JUMPDEST PUSH2 0x2153 PUSH1 0x60 DUP4 ADD DUP5 PUSH2 0x1FD3 JUMP JUMPDEST SWAP6 SWAP5 POP POP POP POP POP JUMP JUMPDEST PUSH1 0x0 PUSH1 0x80 DUP3 ADD SWAP1 POP PUSH2 0x2171 PUSH1 0x0 DUP4 ADD DUP8 PUSH2 0x1CC7 JUMP JUMPDEST PUSH2 0x217E PUSH1 0x20 DUP4 ADD DUP7 PUSH2 0x201E JUMP JUMPDEST PUSH2 0x218B PUSH1 0x40 DUP4 ADD DUP6 PUSH2 0x1FF1 JUMP JUMPDEST PUSH2 0x2198 PUSH1 0x60 DUP4 ADD DUP5 PUSH2 0x2000 JUMP JUMPDEST SWAP6 SWAP5 POP POP POP POP POP JUMP JUMPDEST PUSH1 0x0 PUSH1 0x20 DUP3 ADD SWAP1 POP PUSH2 0x21B6 PUSH1 0x0 DUP4 ADD DUP5 PUSH2 0x1CD6 JUMP JUMPDEST SWAP3 SWAP2 POP POP JUMP JUMPDEST PUSH1 0x0 PUSH1 0x20 DUP3 ADD SWAP1 POP DUP2 DUP2 SUB PUSH1 0x0 DUP4 ADD MSTORE PUSH2 0x21D5 DUP2 PUSH2 0x1CE5 JUMP JUMPDEST SWAP1 POP SWAP2 SWAP1 POP JUMP JUMPDEST PUSH1 0x0 PUSH1 0x20 DUP3 ADD SWAP1 POP DUP2 DUP2 SUB PUSH1 0x0 DUP4 ADD MSTORE PUSH2 0x21F5 DUP2 PUSH2 0x1D08 JUMP JUMPDEST SWAP1 POP SWAP2 SWAP1 POP JUMP JUMPDEST PUSH1 0x0 PUSH1 0x20 DUP3 ADD SWAP1 POP DUP2 DUP2 SUB PUSH1 0x0 DUP4 ADD MSTORE PUSH2 0x2215 DUP2 PUSH2 0x1D2B JUMP JUMPDEST SWAP1 POP SWAP2 SWAP1 POP JUMP JUMPDEST PUSH1 0x0 PUSH1 0x20 DUP3 ADD SWAP1 POP DUP2 DUP2 SUB PUSH1 0x0 DUP4 ADD MSTORE PUSH2 0x2235 DUP2 PUSH2 0x1D4E JUMP JUMPDEST SWAP1 POP SWAP2 SWAP1 POP JUMP JUMPDEST PUSH1 0x0 PUSH1 0x20 DUP3 ADD SWAP1 POP DUP2 DUP2 SUB PUSH1 0x0 DUP4 ADD MSTORE PUSH2 0x2255 DUP2 PUSH2 0x1D71 JUMP JUMPDEST SWAP1 POP SWAP2 SWAP1 POP JUMP JUMPDEST PUSH1 0x0 PUSH1 0x20 DUP3 ADD SWAP1 POP DUP2 DUP2 SUB PUSH1 0x0 DUP4 ADD MSTORE PUSH2 0x2275 DUP2 PUSH2 0x1D94 JUMP JUMPDEST SWAP1 POP SWAP2 SWAP1 POP JUMP JUMPDEST PUSH1 0x0 PUSH1 0x20 DUP3 ADD SWAP1 POP DUP2 DUP2 SUB PUSH1 0x0 DUP4 ADD MSTORE PUSH2 0x2295 DUP2 PUSH2 0x1DB7 JUMP JUMPDEST SWAP1 POP SWAP2 SWAP1 POP JUMP JUMPDEST PUSH1 0x0 PUSH1 0x20 DUP3 ADD SWAP1 POP DUP2 DUP2 SUB PUSH1 0x0 DUP4 ADD MSTORE PUSH2 0x22B5 DUP2 PUSH2 0x1DDA JUMP JUMPDEST SWAP1 POP SWAP2 SWAP1 POP JUMP JUMPDEST PUSH1 0x0 PUSH1 0x20 DUP3 ADD SWAP1 POP DUP2 DUP2 SUB PUSH1 0x0 DUP4 ADD MSTORE PUSH2 0x22D5 DUP2 PUSH2 0x1DFD JUMP JUMPDEST SWAP1 POP SWAP2 SWAP1 POP JUMP JUMPDEST PUSH1 0x0 PUSH1 0x20 DUP3 ADD SWAP1 POP DUP2 DUP2 SUB PUSH1 0x0 DUP4 ADD MSTORE PUSH2 0x22F5 DUP2 PUSH2 0x1E20 JUMP JUMPDEST SWAP1 POP SWAP2 SWAP1 POP JUMP JUMPDEST PUSH1 0x0 PUSH1 0x20 DUP3 ADD SWAP1 POP DUP2 DUP2 SUB PUSH1 0x0 DUP4 ADD MSTORE PUSH2 0x2315 DUP2 PUSH2 0x1E43 JUMP JUMPDEST SWAP1 POP SWAP2 SWAP1 POP JUMP JUMPDEST PUSH1 0x0 PUSH1 0x20 DUP3 ADD SWAP1 POP DUP2 DUP2 SUB PUSH1 0x0 DUP4 ADD MSTORE PUSH2 0x2335 DUP2 PUSH2 0x1E66 JUMP JUMPDEST SWAP1 POP SWAP2 SWAP1 POP JUMP JUMPDEST PUSH1 0x0 PUSH1 0x20 DUP3 ADD SWAP1 POP DUP2 DUP2 SUB PUSH1 0x0 DUP4 ADD MSTORE PUSH2 0x2355 DUP2 PUSH2 0x1E89 JUMP JUMPDEST SWAP1 POP SWAP2 SWAP1 POP JUMP JUMPDEST PUSH1 0x0 PUSH1 0x20 DUP3 ADD SWAP1 POP DUP2 DUP2 SUB PUSH1 0x0 DUP4 ADD MSTORE PUSH2 0x2375 DUP2 PUSH2 0x1EAC JUMP JUMPDEST SWAP1 POP SWAP2 SWAP1 POP JUMP JUMPDEST PUSH1 0x0 PUSH1 0x20 DUP3 ADD SWAP1 POP DUP2 DUP2 SUB PUSH1 0x0 DUP4 ADD MSTORE PUSH2 0x2395 DUP2 PUSH2 0x1ECF JUMP JUMPDEST SWAP1 POP SWAP2 SWAP1 POP JUMP JUMPDEST PUSH1 0x0 PUSH1 0x20 DUP3 ADD SWAP1 POP DUP2 DUP2 SUB PUSH1 0x0 DUP4 ADD MSTORE PUSH2 0x23B5 DUP2 PUSH2 0x1EF2 JUMP JUMPDEST SWAP1 POP SWAP2 SWAP1 POP JUMP JUMPDEST PUSH1 0x0 PUSH1 0x20 DUP3 ADD SWAP1 POP DUP2 DUP2 SUB PUSH1 0x0 DUP4 ADD MSTORE PUSH2 0x23D5 DUP2 PUSH2 0x1F15 JUMP JUMPDEST SWAP1 POP SWAP2 SWAP1 POP JUMP JUMPDEST PUSH1 0x0 PUSH1 0x20 DUP3 ADD SWAP1 POP DUP2 DUP2 SUB PUSH1 0x0 DUP4 ADD MSTORE PUSH2 0x23F5 DUP2 PUSH2 0x1F38 JUMP JUMPDEST SWAP1 POP SWAP2 SWAP1 POP JUMP JUMPDEST PUSH1 0x0 PUSH1 0x20 DUP3 ADD SWAP1 POP DUP2 DUP2 SUB PUSH1 0x0 DUP4 ADD MSTORE PUSH2 0x2415 DUP2 PUSH2 0x1F5B JUMP JUMPDEST SWAP1 POP SWAP2 SWAP1 POP JUMP JUMPDEST PUSH1 0x0 PUSH1 0x20 DUP3 ADD SWAP1 POP DUP2 DUP2 SUB PUSH1 0x0 DUP4 ADD MSTORE PUSH2 0x2435 DUP2 PUSH2 0x1F7E JUMP JUMPDEST SWAP1 POP SWAP2 SWAP1 POP JUMP JUMPDEST PUSH1 0x0 PUSH1 0x20 DUP3 ADD SWAP1 POP DUP2 DUP2 SUB PUSH1 0x0 DUP4 ADD MSTORE PUSH2 0x2455 DUP2 PUSH2 0x1FA1 JUMP JUMPDEST SWAP1 POP SWAP2 SWAP1 POP JUMP JUMPDEST PUSH1 0x0 PUSH1 0x20 DUP3 ADD SWAP1 POP PUSH2 0x2471 PUSH1 0x0 DUP4 ADD DUP5 PUSH2 0x1FC4 JUMP JUMPDEST SWAP3 SWAP2 POP POP JUMP JUMPDEST PUSH1 0x0 PUSH1 0x20 DUP3 ADD SWAP1 POP PUSH2 0x248C PUSH1 0x0 DUP4 ADD DUP5 PUSH2 0x2000 JUMP JUMPDEST SWAP3 SWAP2 POP POP JUMP JUMPDEST PUSH1 0x0 PUSH1 0x80 DUP3 ADD SWAP1 POP PUSH2 0x24A7 PUSH1 0x0 DUP4 ADD DUP8 PUSH2 0x202D JUMP JUMPDEST PUSH2 0x24B4 PUSH1 0x20 DUP4 ADD DUP7 PUSH2 0x1FE2 JUMP JUMPDEST PUSH2 0x24C1 PUSH1 0x40 DUP4 ADD DUP6 PUSH2 0x200F JUMP JUMPDEST PUSH2 0x24CE PUSH1 0x60 DUP4 ADD DUP5 PUSH2 0x1FC4 JUMP JUMPDEST SWAP6 SWAP5 POP POP POP POP POP JUMP JUMPDEST PUSH1 0x0 DUP3 DUP3 MSTORE PUSH1 0x20 DUP3 ADD SWAP1 POP SWAP3 SWAP2 POP POP JUMP JUMPDEST PUSH1 0x0 PUSH2 0x24F3 DUP3 PUSH2 0x26A0 JUMP JUMPDEST SWAP2 POP PUSH2 0x24FE DUP4 PUSH2 0x26A0 JUMP JUMPDEST SWAP3 POP DUP3 PUSH32 0xFFFFFFFFFFFFFFFFFFFFFFFFFFFFFFFFFFFFFFFFFFFFFFFFFFFFFFFFFFFFFFFF SUB DUP3 GT ISZERO PUSH2 0x2533 JUMPI PUSH2 0x2532 PUSH2 0x2729 JUMP JUMPDEST JUMPDEST DUP3 DUP3 ADD SWAP1 POP SWAP3 SWAP2 POP POP JUMP JUMPDEST PUSH1 0x0 PUSH2 0x2549 DUP3 PUSH2 0x26AA JUMP JUMPDEST SWAP2 POP PUSH2 0x2554 DUP4 PUSH2 0x26AA JUMP JUMPDEST SWAP3 POP DUP3 PUSH4 0xFFFFFFFF SUB DUP3 GT ISZERO PUSH2 0x256D JUMPI PUSH2 0x256C PUSH2 0x2729 JUMP JUMPDEST JUMPDEST DUP3 DUP3 ADD SWAP1 POP SWAP3 SWAP2 POP POP JUMP JUMPDEST PUSH1 0x0 PUSH2 0x2583 DUP3 PUSH2 0x26A0 JUMP JUMPDEST SWAP2 POP PUSH2 0x258E DUP4 PUSH2 0x26A0 JUMP JUMPDEST SWAP3 POP DUP3 PUSH2 0x259E JUMPI PUSH2 0x259D PUSH2 0x2758 JUMP JUMPDEST JUMPDEST DUP3 DUP3 DIV SWAP1 POP SWAP3 SWAP2 POP POP JUMP JUMPDEST PUSH1 0x0 PUSH2 0x25B4 DUP3 PUSH2 0x26A0 JUMP JUMPDEST SWAP2 POP PUSH2 0x25BF DUP4 PUSH2 0x26A0 JUMP JUMPDEST SWAP3 POP DUP2 PUSH32 0xFFFFFFFFFFFFFFFFFFFFFFFFFFFFFFFFFFFFFFFFFFFFFFFFFFFFFFFFFFFFFFFF DIV DUP4 GT DUP3 ISZERO ISZERO AND ISZERO PUSH2 0x25F8 JUMPI PUSH2 0x25F7 PUSH2 0x2729 JUMP JUMPDEST JUMPDEST DUP3 DUP3 MUL SWAP1 POP SWAP3 SWAP2 POP POP JUMP JUMPDEST PUSH1 0x0 PUSH2 0x260E DUP3 PUSH2 0x26A0 JUMP JUMPDEST SWAP2 POP PUSH2 0x2619 DUP4 PUSH2 0x26A0 JUMP JUMPDEST SWAP3 POP DUP3 DUP3 LT ISZERO PUSH2 0x262C JUMPI PUSH2 0x262B PUSH2 0x2729 JUMP JUMPDEST JUMPDEST DUP3 DUP3 SUB SWAP1 POP SWAP3 SWAP2 POP POP JUMP JUMPDEST PUSH1 0x0 PUSH2 0x2642 DUP3 PUSH2 0x2671 JUMP JUMPDEST SWAP1 POP SWAP2 SWAP1 POP JUMP JUMPDEST PUSH1 0x0 DUP2 ISZERO ISZERO SWAP1 POP SWAP2 SWAP1 POP JUMP JUMPDEST PUSH1 0x0 PUSH16 0xFFFFFFFFFFFFFFFFFFFFFFFFFFFFFFFF DUP3 AND SWAP1 POP SWAP2 SWAP1 POP JUMP JUMPDEST PUSH1 0x0 PUSH20 0xFFFFFFFFFFFFFFFFFFFFFFFFFFFFFFFFFFFFFFFF DUP3 AND SWAP1 POP SWAP2 SWAP1 POP JUMP JUMPDEST PUSH1 0x0 PUSH3 0xFFFFFF DUP3 AND SWAP1 POP SWAP2 SWAP1 POP JUMP JUMPDEST PUSH1 0x0 DUP2 SWAP1 POP SWAP2 SWAP1 POP JUMP JUMPDEST PUSH1 0x0 PUSH4 0xFFFFFFFF DUP3 AND SWAP1 POP SWAP2 SWAP1 POP JUMP JUMPDEST PUSH1 0x0 PUSH9 0xFFFFFFFFFFFFFFFFFF DUP3 AND SWAP1 POP SWAP2 SWAP1 POP JUMP JUMPDEST PUSH1 0x0 PUSH2 0x26DA DUP3 PUSH2 0x26E1 JUMP JUMPDEST SWAP1 POP SWAP2 SWAP1 POP JUMP JUMPDEST PUSH1 0x0 PUSH2 0x26EC DUP3 PUSH2 0x2671 JUMP JUMPDEST SWAP1 POP SWAP2 SWAP1 POP JUMP JUMPDEST PUSH1 0x0 PUSH2 0x26FE DUP3 PUSH2 0x2655 JUMP JUMPDEST SWAP1 POP SWAP2 SWAP1 POP JUMP JUMPDEST PUSH1 0x0 PUSH2 0x2710 DUP3 PUSH2 0x2691 JUMP JUMPDEST SWAP1 POP SWAP2 SWAP1 POP JUMP JUMPDEST PUSH1 0x0 PUSH2 0x2722 DUP3 PUSH2 0x26BA JUMP JUMPDEST SWAP1 POP SWAP2 SWAP1 POP JUMP JUMPDEST PUSH32 0x4E487B7100000000000000000000000000000000000000000000000000000000 PUSH1 0x0 MSTORE PUSH1 0x11 PUSH1 0x4 MSTORE PUSH1 0x24 PUSH1 0x0 REVERT JUMPDEST PUSH32 0x4E487B7100000000000000000000000000000000000000000000000000000000 PUSH1 0x0 MSTORE PUSH1 0x12 PUSH1 0x4 MSTORE PUSH1 0x24 PUSH1 0x0 REVERT JUMPDEST PUSH32 0x526577617264206F696C657273207472616E73666572206661696C6564000000 PUSH1 0x0 DUP3 ADD MSTORE POP JUMP JUMPDEST PUSH32 0x56657374696E672072656C656173653A206E6F20746F6B656E73206172652064 PUSH1 0x0 DUP3 ADD MSTORE PUSH32 0x7565000000000000000000000000000000000000000000000000000000000000 PUSH1 0x20 DUP3 ADD MSTORE POP JUMP JUMPDEST PUSH32 0x546F6B656E56657374696E673A2062656E656669636961727920697320746865 PUSH1 0x0 DUP3 ADD MSTORE PUSH32 0x207A65726F206164647265737300000000000000000000000000000000000000 PUSH1 0x20 DUP3 ADD MSTORE POP JUMP JUMPDEST PUSH32 0x506F6F6C20746F6B656E207472616E73666572206661696C6564000000000000 PUSH1 0x0 DUP3 ADD MSTORE POP JUMP JUMPDEST PUSH32 0x596F75207374696C6C20686176652061207374616B65206C6F636B6564202D20 PUSH1 0x0 DUP3 ADD MSTORE PUSH32 0x706C6561736520756E6C6F636B2066697273742C20646F6E2774206C65617665 PUSH1 0x20 DUP3 ADD MSTORE PUSH32 0x2066726565206D6F6E6579206865726500000000000000000000000000000000 PUSH1 0x40 DUP3 ADD MSTORE POP JUMP JUMPDEST PUSH32 0x596F7520646F6E277420686176652061207374616B6520746F20756E6C6F636B PUSH1 0x0 DUP3 ADD MSTORE POP JUMP JUMPDEST PUSH32 0x596F7572206C6F636B20706572696F642065786365656473205374616B696E67 PUSH1 0x0 DUP3 ADD MSTORE PUSH32 0x2050726F6772616D206475726174696F6E000000000000000000000000000000 PUSH1 0x20 DUP3 ADD MSTORE POP JUMP JUMPDEST PUSH32 0x416C7265616479207374616B696E670000000000000000000000000000000000 PUSH1 0x0 DUP3 ADD MSTORE POP JUMP JUMPDEST PUSH32 0x596F75206469646E2774206561726E20616E7920696E746567657220616D6F75 PUSH1 0x0 DUP3 ADD MSTORE PUSH32 0x6E74206F66207765690000000000000000000000000000000000000000000000 PUSH1 0x20 DUP3 ADD MSTORE POP JUMP JUMPDEST PUSH32 0x4E65697468657220746F6B656E416D6F756E74206E6F72206C6F636B696E6750 PUSH1 0x0 DUP3 ADD MSTORE PUSH32 0x6572696F6420636F756C646E2774206265203000000000000000000000000000 PUSH1 0x20 DUP3 ADD MSTORE POP JUMP JUMPDEST PUSH32 0x596F752063616E277420776974686472617720746865207374616B6520696E20 PUSH1 0x0 DUP3 ADD MSTORE PUSH32 0x7468652073616D6520626C6F636B20697420776173206C6F636B656400000000 PUSH1 0x20 DUP3 ADD MSTORE POP JUMP JUMPDEST PUSH32 0x5374616B696E6746756E6420646F65736E2774206861766520656E6F75676820 PUSH1 0x0 DUP3 ADD MSTORE PUSH32 0x616C6C6F77616E63650000000000000000000000000000000000000000000000 PUSH1 0x20 DUP3 ADD MSTORE POP JUMP JUMPDEST PUSH32 0x706F6F6C546F6B656E20616464726573732063616E6E6F74206265207A65726F PUSH1 0x0 DUP3 ADD MSTORE POP JUMP JUMPDEST PUSH32 0x5374616B696E6746756E6420646F65736E2774206861766520656E6F75676820 PUSH1 0x0 DUP3 ADD MSTORE PUSH32 0x4F494C2062616C616E6365000000000000000000000000000000000000000000 PUSH1 0x20 DUP3 ADD MSTORE POP JUMP JUMPDEST PUSH32 0x706F6F6C546F6B656E206E6F7420736574000000000000000000000000000000 PUSH1 0x0 DUP3 ADD MSTORE POP JUMP JUMPDEST PUSH32 0x5472616E7366657246726F6D206F6620706F6F6C546F6B656E73206661696C65 PUSH1 0x0 DUP3 ADD MSTORE PUSH32 0x6400000000000000000000000000000000000000000000000000000000000000 PUSH1 0x20 DUP3 ADD MSTORE POP JUMP JUMPDEST PUSH32 0x43616E206F6E6C792062652063616C6C6564206279206F776E65720000000000 PUSH1 0x0 DUP3 ADD MSTORE POP JUMP JUMPDEST PUSH32 0x596F752063616E206F6E6C792067657420526577617264732061667465722053 PUSH1 0x0 DUP3 ADD MSTORE PUSH32 0x74616B696E672050726F6772616D20656E647300000000000000000000000000 PUSH1 0x20 DUP3 ADD MSTORE POP JUMP JUMPDEST PUSH32 0x5472616E7366657246726F6D206F66204F494C2066726F6D205374616B696E67 PUSH1 0x0 DUP3 ADD MSTORE PUSH32 0x46756E64206661696C6564000000000000000000000000000000000000000000 PUSH1 0x20 DUP3 ADD MSTORE POP JUMP JUMPDEST PUSH32 0x596F7520646F6E2774206861766520616E7920726577617264506F696E747300 PUSH1 0x0 DUP3 ADD MSTORE POP JUMP JUMPDEST PUSH32 0x706F6F6C546F6B656E2077617320616C72656164792073657400000000000000 PUSH1 0x0 DUP3 ADD MSTORE POP JUMP JUMPDEST PUSH2 0x2CDB DUP2 PUSH2 0x2637 JUMP JUMPDEST DUP2 EQ PUSH2 0x2CE6 JUMPI PUSH1 0x0 DUP1 REVERT JUMPDEST POP JUMP JUMPDEST PUSH2 0x2CF2 DUP2 PUSH2 0x2649 JUMP JUMPDEST DUP2 EQ PUSH2 0x2CFD JUMPI PUSH1 0x0 DUP1 REVERT JUMPDEST POP JUMP JUMPDEST PUSH2 0x2D09 DUP2 PUSH2 0x2691 JUMP JUMPDEST DUP2 EQ PUSH2 0x2D14 JUMPI PUSH1 0x0 DUP1 REVERT JUMPDEST POP JUMP JUMPDEST PUSH2 0x2D20 DUP2 PUSH2 0x26A0 JUMP JUMPDEST DUP2 EQ PUSH2 0x2D2B JUMPI PUSH1 0x0 DUP1 REVERT JUMPDEST POP JUMP JUMPDEST PUSH2 0x2D37 DUP2 PUSH2 0x26BA JUMP JUMPDEST DUP2 EQ PUSH2 0x2D42 JUMPI PUSH1 0x0 DUP1 REVERT JUMPDEST POP JUMP INVALID LOG2 PUSH5 0x6970667358 0x22 SLT KECCAK256 LOG2 0x5E SAR 0xC4 PUSH29 0x74FC7AD67E2DDE24199B988B0169D8B0A16A9B9EE94339805A8FE6473 PUSH16 0x6C634300080400330000000000000000 "
				},
				"gasEstimates": {
					"creation": {
						"codeDepositCost": "2328600",
						"executionCost": "infinite",
						"totalCost": "infinite"
					},
					"external": {
						"calculateStakingRewardPoints(uint72,uint24)": "infinite",
						"getRewards()": "infinite",
						"grantedTokens(address)": "1580",
						"lockTokens(uint72,uint24)": "infinite",
						"oilerToken()": "infinite",
						"owner()": "infinite",
						"poolToken()": "1301",
						"release()": "infinite",
						"releasedTokens(address)": "1559",
						"rewardPointsEarned(address)": "1536",
						"setPoolToken(address,address)": "infinite",
						"stakes(address)": "4650",
						"stakingFundAmount()": "infinite",
						"stakingProgramEndsBlock()": "infinite",
						"totalRewardPoints()": "1218",
						"unlockTokens()": "infinite",
						"vestingDuration()": "infinite"
					},
					"internal": {
						"_grantTokens(address,uint256)": "infinite",
						"_punishEarlyWithdrawal(struct Staking.Stake memory)": "infinite",
						"_releasableAmount(address)": "infinite",
						"_vestedAmount(address)": "infinite"
					}
				},
				"methodIdentifiers": {
					"calculateStakingRewardPoints(uint72,uint24)": "798633b9",
					"getRewards()": "0572b0cc",
					"grantedTokens(address)": "e0e4a722",
					"lockTokens(uint72,uint24)": "378592c8",
					"oilerToken()": "81e9207d",
					"owner()": "8da5cb5b",
					"poolToken()": "cbdf382c",
					"release()": "86d1a69f",
					"releasedTokens(address)": "70ff852b",
					"rewardPointsEarned(address)": "c959360b",
					"setPoolToken(address,address)": "f6ffab88",
					"stakes(address)": "16934fc4",
					"stakingFundAmount()": "52946b04",
					"stakingProgramEndsBlock()": "bc0925ae",
					"totalRewardPoints()": "c2e8caf6",
					"unlockTokens()": "f968f493",
					"vestingDuration()": "1514617e"
				}
			},
			"storageLayout": {
				"storage": [
					{
						"astId": 96,
						"contract": "gist-bbe3d2eec72b27de020fc2e5b9189a4a/Staking.sol:Staking",
						"label": "stakes",
						"offset": 0,
						"slot": "0",
						"type": "t_mapping(t_address,t_struct(Stake)90_storage)"
					},
					{
						"astId": 101,
						"contract": "gist-bbe3d2eec72b27de020fc2e5b9189a4a/Staking.sol:Staking",
						"label": "rewardPointsEarned",
						"offset": 0,
						"slot": "1",
						"type": "t_mapping(t_address,t_uint256)"
					},
					{
						"astId": 104,
						"contract": "gist-bbe3d2eec72b27de020fc2e5b9189a4a/Staking.sol:Staking",
						"label": "totalRewardPoints",
						"offset": 0,
						"slot": "2",
						"type": "t_uint256"
					},
					{
						"astId": 114,
						"contract": "gist-bbe3d2eec72b27de020fc2e5b9189a4a/Staking.sol:Staking",
						"label": "poolToken",
						"offset": 0,
						"slot": "3",
						"type": "t_contract(IERC20)77"
					},
					{
						"astId": 123,
						"contract": "gist-bbe3d2eec72b27de020fc2e5b9189a4a/Staking.sol:Staking",
						"label": "grantedTokens",
						"offset": 0,
						"slot": "4",
						"type": "t_mapping(t_address,t_uint256)"
					},
					{
						"astId": 128,
						"contract": "gist-bbe3d2eec72b27de020fc2e5b9189a4a/Staking.sol:Staking",
						"label": "releasedTokens",
						"offset": 0,
						"slot": "5",
						"type": "t_mapping(t_address,t_uint256)"
					}
				],
				"types": {
					"t_address": {
						"encoding": "inplace",
						"label": "address",
						"numberOfBytes": "20"
					},
					"t_contract(IERC20)77": {
						"encoding": "inplace",
						"label": "contract IERC20",
						"numberOfBytes": "20"
					},
					"t_mapping(t_address,t_struct(Stake)90_storage)": {
						"encoding": "mapping",
						"key": "t_address",
						"label": "mapping(address => struct Staking.Stake)",
						"numberOfBytes": "32",
						"value": "t_struct(Stake)90_storage"
					},
					"t_mapping(t_address,t_uint256)": {
						"encoding": "mapping",
						"key": "t_address",
						"label": "mapping(address => uint256)",
						"numberOfBytes": "32",
						"value": "t_uint256"
					},
					"t_struct(Stake)90_storage": {
						"encoding": "inplace",
						"label": "struct Staking.Stake",
						"members": [
							{
								"astId": 83,
								"contract": "gist-bbe3d2eec72b27de020fc2e5b9189a4a/Staking.sol:Staking",
								"label": "tokenAmount",
								"offset": 0,
								"slot": "0",
								"type": "t_uint72"
							},
							{
								"astId": 85,
								"contract": "gist-bbe3d2eec72b27de020fc2e5b9189a4a/Staking.sol:Staking",
								"label": "lockingPeriodInBlocks",
								"offset": 9,
								"slot": "0",
								"type": "t_uint24"
							},
							{
								"astId": 87,
								"contract": "gist-bbe3d2eec72b27de020fc2e5b9189a4a/Staking.sol:Staking",
								"label": "startBlock",
								"offset": 12,
								"slot": "0",
								"type": "t_uint32"
							},
							{
								"astId": 89,
								"contract": "gist-bbe3d2eec72b27de020fc2e5b9189a4a/Staking.sol:Staking",
								"label": "expectedStakingRewardPoints",
								"offset": 16,
								"slot": "0",
								"type": "t_uint128"
							}
						],
						"numberOfBytes": "32"
					},
					"t_uint128": {
						"encoding": "inplace",
						"label": "uint128",
						"numberOfBytes": "16"
					},
					"t_uint24": {
						"encoding": "inplace",
						"label": "uint24",
						"numberOfBytes": "3"
					},
					"t_uint256": {
						"encoding": "inplace",
						"label": "uint256",
						"numberOfBytes": "32"
					},
					"t_uint32": {
						"encoding": "inplace",
						"label": "uint32",
						"numberOfBytes": "4"
					},
					"t_uint72": {
						"encoding": "inplace",
						"label": "uint72",
						"numberOfBytes": "9"
					}
				}
			},
			"userdoc": {
				"kind": "user",
				"methods": {
					"calculateStakingRewardPoints(uint72,uint24)": {
						"notice": "Calculates the RewardPoints user will earn for a given tokenAmount locked for a given period"
					},
					"getRewards()": {
						"notice": "This can only be called after the Staking Program ended"
					},
					"grantedTokens(address)": {
						"notice": "The amount of OIL tokens earned, granted to be released during vesting period "
					},
					"lockTokens(uint72,uint24)": {
						"notice": "Lock the LP tokens for a specified period of Blocks.Can only be called before Staking Program ends.And the locking period can't last longer than the end of Staking Program block."
					},
					"oilerToken()": {
						"notice": "Oiler token that will be given as a reward"
					},
					"poolToken()": {
						"notice": "Uniswap pool that we accept LP tokens from"
					},
					"release()": {
						"notice": "Releases granted tokens"
					},
					"releasedTokens(address)": {
						"notice": "The amount of OIL tokens that were already released during vesting period"
					},
					"rewardPointsEarned(address)": {
						"notice": "\"Reward points\" each user earned (would be relative to totalRewardPoints to get the percentage)"
					},
					"setPoolToken(address,address)": {
						"notice": "Initialize poolToken when OIL<>USDC Uniswap pool is available"
					},
					"stakes(address)": {
						"notice": "Active stakes for each user"
					},
					"stakingFundAmount()": {
						"notice": "Amount of Staking Bonus Fund (500 000 OIL), Oiler funds must be here, approved and ready to be transferredFrom"
					},
					"stakingProgramEndsBlock()": {
						"notice": "Block when Staking Program ends          "
					},
					"totalRewardPoints()": {
						"notice": "Total \"reward points\" all users earned"
					},
					"unlockTokens()": {
						"notice": "Unlock the tokens and get the rewardThis can be called at any time, even after Staking Program end block"
					}
				},
				"notice": "Staking contract assumes there is a Staking Program going on until a specified Staking Program End Date. And there is an amount of Oiler tokens that is gonna be given away to incentivise participation in the Staking Program (called StakingFund).  During this Program - users commit to lock tokens for some period of time, earning RewardPoints (if they don't unlock prematurely). RewardPoints multiplier grows linearly with the locking period length (see the formula in calculateStakingRewardPoints() function)  After the end of the Staking Program - the amount of RewardPoints earned by each user is relatively compared to the total RewardPoints earned by all staking participants - and the OIL tokens from StakingFund are divided among them accordingly, by their RewardPoints proportions.",
				"version": 1
			}
		}
	}
}