{
	"src/QVEstaking.sol": {
		"QVEstaking": {
			"abi": [
				{
					"inputs": [
						{
							"internalType": "contract QVEtoken",
							"name": "_qveToken",
							"type": "address"
						}
					],
					"stateMutability": "nonpayable",
					"type": "constructor"
				},
				{
					"anonymous": false,
					"inputs": [
						{
							"indexed": false,
							"internalType": "address",
							"name": "stakerAddress",
							"type": "address"
						},
						{
							"indexed": false,
							"internalType": "uint256",
							"name": "stakeAmount",
							"type": "uint256"
						}
					],
					"name": "StakeEvent",
					"type": "event"
				},
				{
					"anonymous": false,
					"inputs": [
						{
							"indexed": false,
							"internalType": "address",
							"name": "stakerAddress",
							"type": "address"
						},
						{
							"indexed": false,
							"internalType": "uint256",
							"name": "unstakeAmount",
							"type": "uint256"
						}
					],
					"name": "UnStakeEvent",
					"type": "event"
				},
				{
					"inputs": [],
					"name": "getTotalStakeNum",
					"outputs": [
						{
							"internalType": "uint256",
							"name": "",
							"type": "uint256"
						}
					],
					"stateMutability": "view",
					"type": "function"
				},
				{
					"inputs": [],
					"name": "getTotalStaked",
					"outputs": [
						{
							"internalType": "uint256",
							"name": "",
							"type": "uint256"
						}
					],
					"stateMutability": "view",
					"type": "function"
				},
				{
					"inputs": [],
					"name": "qveToken",
					"outputs": [
						{
							"internalType": "contract QVEtoken",
							"name": "",
							"type": "address"
						}
					],
					"stateMutability": "view",
					"type": "function"
				},
				{
					"inputs": [
						{
							"internalType": "address",
							"name": "staker",
							"type": "address"
						},
						{
							"internalType": "uint256",
							"name": "stakeAmount",
							"type": "uint256"
						}
					],
					"name": "stake",
					"outputs": [
						{
							"internalType": "bool",
							"name": "",
							"type": "bool"
						}
					],
					"stateMutability": "nonpayable",
					"type": "function"
				},
				{
					"inputs": [
						{
							"internalType": "address",
							"name": "staker",
							"type": "address"
						},
						{
							"internalType": "uint256",
							"name": "unstakeAmount",
							"type": "uint256"
						}
					],
					"name": "unStake",
					"outputs": [
						{
							"internalType": "bool",
							"name": "",
							"type": "bool"
						}
					],
					"stateMutability": "nonpayable",
					"type": "function"
				}
			],
			"devdoc": {
				"kind": "dev",
				"methods": {},
				"version": 1
			},
			"evm": {
				"assembly": "    /* \"src/QVEstaking.sol\":232:2725  contract QVEstaking is Security {... */\n  mstore(0x40, 0x80)\n    /* \"src/QVEstaking.sol\":363:369  1 days */\n  0x015180\n    /* \"src/QVEstaking.sol\":332:369  uint24 private REWARD_PERIOD = 1 days */\n  0x00\n  exp(0x0100, 0x15)\n  dup2\n  sload\n  dup2\n  0xffffff\n  mul\n  not\n  and\n  swap1\n  dup4\n  0xffffff\n  and\n  mul\n  or\n  swap1\n  sstore\n  pop\n    /* \"src/QVEstaking.sol\":1369:1438  constructor(QVEtoken _qveToken) {... */\n  callvalue\n  dup1\n  iszero\n  tag_1\n  jumpi\n  0x00\n  dup1\n  revert\ntag_1:\n  pop\n  mload(0x40)\n  sub(codesize, bytecodeSize)\n  dup1\n  bytecodeSize\n  dup4\n  codecopy\n  dup2\n  dup2\n  add\n  0x40\n  mstore\n  dup2\n  add\n  swap1\n  tag_2\n  swap2\n  swap1\n  tag_3\n  jump\t// in\ntag_2:\n    /* \"src/QVEstaking.sol\":1422:1431  _qveToken */\n  dup1\n    /* \"src/QVEstaking.sol\":1411:1419  qveToken */\n  0x00\n  0x01\n    /* \"src/QVEstaking.sol\":1411:1431  qveToken = _qveToken */\n  0x0100\n  exp\n  dup2\n  sload\n  dup2\n  0xffffffffffffffffffffffffffffffffffffffff\n  mul\n  not\n  and\n  swap1\n  dup4\n  0xffffffffffffffffffffffffffffffffffffffff\n  and\n  mul\n  or\n  swap1\n  sstore\n  pop\n    /* \"src/QVEstaking.sol\":1369:1438  constructor(QVEtoken _qveToken) {... */\n  pop\n    /* \"src/QVEstaking.sol\":232:2725  contract QVEstaking is Security {... */\n  jump(tag_6)\n    /* \"#utility.yul\":88:205   */\ntag_8:\n    /* \"#utility.yul\":197:198   */\n  0x00\n    /* \"#utility.yul\":194:195   */\n  dup1\n    /* \"#utility.yul\":187:199   */\n  revert\n    /* \"#utility.yul\":334:460   */\ntag_10:\n    /* \"#utility.yul\":371:378   */\n  0x00\n    /* \"#utility.yul\":411:453   */\n  0xffffffffffffffffffffffffffffffffffffffff\n    /* \"#utility.yul\":404:409   */\n  dup3\n    /* \"#utility.yul\":400:454   */\n  and\n    /* \"#utility.yul\":389:454   */\n  swap1\n  pop\n    /* \"#utility.yul\":334:460   */\n  swap2\n  swap1\n  pop\n  jump\t// out\n    /* \"#utility.yul\":466:562   */\ntag_11:\n    /* \"#utility.yul\":503:510   */\n  0x00\n    /* \"#utility.yul\":532:556   */\n  tag_21\n    /* \"#utility.yul\":550:555   */\n  dup3\n    /* \"#utility.yul\":532:556   */\n  tag_10\n  jump\t// in\ntag_21:\n    /* \"#utility.yul\":521:556   */\n  swap1\n  pop\n    /* \"#utility.yul\":466:562   */\n  swap2\n  swap1\n  pop\n  jump\t// out\n    /* \"#utility.yul\":568:681   */\ntag_12:\n    /* \"#utility.yul\":622:629   */\n  0x00\n    /* \"#utility.yul\":651:675   */\n  tag_23\n    /* \"#utility.yul\":669:674   */\n  dup3\n    /* \"#utility.yul\":651:675   */\n  tag_11\n  jump\t// in\ntag_23:\n    /* \"#utility.yul\":640:675   */\n  swap1\n  pop\n    /* \"#utility.yul\":568:681   */\n  swap2\n  swap1\n  pop\n  jump\t// out\n    /* \"#utility.yul\":687:843   */\ntag_13:\n    /* \"#utility.yul\":777:818   */\n  tag_25\n    /* \"#utility.yul\":812:817   */\n  dup2\n    /* \"#utility.yul\":777:818   */\n  tag_12\n  jump\t// in\ntag_25:\n    /* \"#utility.yul\":770:775   */\n  dup2\n    /* \"#utility.yul\":767:819   */\n  eq\n    /* \"#utility.yul\":757:837   */\n  tag_26\n  jumpi\n    /* \"#utility.yul\":833:834   */\n  0x00\n    /* \"#utility.yul\":830:831   */\n  dup1\n    /* \"#utility.yul\":823:835   */\n  revert\n    /* \"#utility.yul\":757:837   */\ntag_26:\n    /* \"#utility.yul\":687:843   */\n  pop\n  jump\t// out\n    /* \"#utility.yul\":849:1026   */\ntag_14:\n    /* \"#utility.yul\":923:928   */\n  0x00\n    /* \"#utility.yul\":954:960   */\n  dup2\n    /* \"#utility.yul\":948:961   */\n  mload\n    /* \"#utility.yul\":939:961   */\n  swap1\n  pop\n    /* \"#utility.yul\":970:1020   */\n  tag_28\n    /* \"#utility.yul\":1014:1019   */\n  dup2\n    /* \"#utility.yul\":970:1020   */\n  tag_13\n  jump\t// in\ntag_28:\n    /* \"#utility.yul\":849:1026   */\n  swap3\n  swap2\n  pop\n  pop\n  jump\t// out\n    /* \"#utility.yul\":1032:1417   */\ntag_3:\n    /* \"#utility.yul\":1119:1125   */\n  0x00\n    /* \"#utility.yul\":1168:1170   */\n  0x20\n    /* \"#utility.yul\":1156:1165   */\n  dup3\n    /* \"#utility.yul\":1147:1154   */\n  dup5\n    /* \"#utility.yul\":1143:1166   */\n  sub\n    /* \"#utility.yul\":1139:1171   */\n  slt\n    /* \"#utility.yul\":1136:1255   */\n  iszero\n  tag_30\n  jumpi\n    /* \"#utility.yul\":1174:1253   */\n  tag_31\n  tag_8\n  jump\t// in\ntag_31:\n    /* \"#utility.yul\":1136:1255   */\ntag_30:\n    /* \"#utility.yul\":1294:1295   */\n  0x00\n    /* \"#utility.yul\":1319:1400   */\n  tag_32\n    /* \"#utility.yul\":1392:1399   */\n  dup5\n    /* \"#utility.yul\":1383:1389   */\n  dup3\n    /* \"#utility.yul\":1372:1381   */\n  dup6\n    /* \"#utility.yul\":1368:1390   */\n  add\n    /* \"#utility.yul\":1319:1400   */\n  tag_14\n  jump\t// in\ntag_32:\n    /* \"#utility.yul\":1309:1400   */\n  swap2\n  pop\n    /* \"#utility.yul\":1265:1410   */\n  pop\n    /* \"#utility.yul\":1032:1417   */\n  swap3\n  swap2\n  pop\n  pop\n  jump\t// out\n    /* \"src/QVEstaking.sol\":232:2725  contract QVEstaking is Security {... */\ntag_6:\n  dataSize(sub_0)\n  dup1\n  dataOffset(sub_0)\n  0x00\n  codecopy\n  0x00\n  return\nstop\n\nsub_0: assembly {\n        /* \"src/QVEstaking.sol\":232:2725  contract QVEstaking is Security {... */\n      mstore(0x40, 0x80)\n      callvalue\n      dup1\n      iszero\n      tag_1\n      jumpi\n      0x00\n      dup1\n      revert\n    tag_1:\n      pop\n      jumpi(tag_2, lt(calldatasize, 0x04))\n      shr(0xe0, calldataload(0x00))\n      dup1\n      0x05335410\n      eq\n      tag_3\n      jumpi\n      dup1\n      0x0917e776\n      eq\n      tag_4\n      jumpi\n      dup1\n      0x8e5d763f\n      eq\n      tag_5\n      jumpi\n      dup1\n      0xadc9772e\n      eq\n      tag_6\n      jumpi\n      dup1\n      0xd9393814\n      eq\n      tag_7\n      jumpi\n    tag_2:\n      0x00\n      dup1\n      revert\n        /* \"src/QVEstaking.sol\":302:326  QVEtoken public qveToken */\n    tag_3:\n      tag_8\n      tag_9\n      jump\t// in\n    tag_8:\n      mload(0x40)\n      tag_10\n      swap2\n      swap1\n      tag_11\n      jump\t// in\n    tag_10:\n      mload(0x40)\n      dup1\n      swap2\n      sub\n      swap1\n      return\n        /* \"src/QVEstaking.sol\":1478:1569  function getTotalStaked() external view returns(uint256){... */\n    tag_4:\n      tag_12\n      tag_13\n      jump\t// in\n    tag_12:\n      mload(0x40)\n      tag_14\n      swap2\n      swap1\n      tag_15\n      jump\t// in\n    tag_14:\n      mload(0x40)\n      dup1\n      swap2\n      sub\n      swap1\n      return\n        /* \"src/QVEstaking.sol\":1575:1677  function getTotalStakeNum() external view returns(uint256){... */\n    tag_5:\n      tag_16\n      tag_17\n      jump\t// in\n    tag_16:\n      mload(0x40)\n      tag_18\n      swap2\n      swap1\n      tag_15\n      jump\t// in\n    tag_18:\n      mload(0x40)\n      dup1\n      swap2\n      sub\n      swap1\n      return\n        /* \"src/QVEstaking.sol\":1719:2305  function stake(address staker, uint256 stakeAmount) external NoReEntrancy returns(bool){... */\n    tag_6:\n      tag_19\n      0x04\n      dup1\n      calldatasize\n      sub\n      dup2\n      add\n      swap1\n      tag_20\n      swap2\n      swap1\n      tag_21\n      jump\t// in\n    tag_20:\n      tag_22\n      jump\t// in\n    tag_19:\n      mload(0x40)\n      tag_23\n      swap2\n      swap1\n      tag_24\n      jump\t// in\n    tag_23:\n      mload(0x40)\n      dup1\n      swap2\n      sub\n      swap1\n      return\n        /* \"src/QVEstaking.sol\":2311:2481  function unStake(address staker, uint256 unstakeAmount) external NoReEntrancy returns(bool){... */\n    tag_7:\n      tag_25\n      0x04\n      dup1\n      calldatasize\n      sub\n      dup2\n      add\n      swap1\n      tag_26\n      swap2\n      swap1\n      tag_21\n      jump\t// in\n    tag_26:\n      tag_27\n      jump\t// in\n    tag_25:\n      mload(0x40)\n      tag_28\n      swap2\n      swap1\n      tag_24\n      jump\t// in\n    tag_28:\n      mload(0x40)\n      dup1\n      swap2\n      sub\n      swap1\n      return\n        /* \"src/QVEstaking.sol\":302:326  QVEtoken public qveToken */\n    tag_9:\n      0x00\n      0x01\n      swap1\n      sload\n      swap1\n      0x0100\n      exp\n      swap1\n      div\n      0xffffffffffffffffffffffffffffffffffffffff\n      and\n      dup2\n      jump\t// out\n        /* \"src/QVEstaking.sol\":1478:1569  function getTotalStaked() external view returns(uint256){... */\n    tag_13:\n        /* \"src/QVEstaking.sol\":1526:1533  uint256 */\n      0x00\n        /* \"src/QVEstaking.sol\":1551:1562  totalStaked */\n      sload(0x02)\n        /* \"src/QVEstaking.sol\":1544:1562  return totalStaked */\n      swap1\n      pop\n        /* \"src/QVEstaking.sol\":1478:1569  function getTotalStaked() external view returns(uint256){... */\n      swap1\n      jump\t// out\n        /* \"src/QVEstaking.sol\":1575:1677  function getTotalStakeNum() external view returns(uint256){... */\n    tag_17:\n        /* \"src/QVEstaking.sol\":1625:1632  uint256 */\n      0x00\n        /* \"src/QVEstaking.sol\":1650:1670  StakeCount.current() */\n      tag_31\n        /* \"src/QVEstaking.sol\":1650:1660  StakeCount */\n      0x01\n        /* \"src/QVEstaking.sol\":1650:1668  StakeCount.current */\n      tag_32\n        /* \"src/QVEstaking.sol\":1650:1670  StakeCount.current() */\n      jump\t// in\n    tag_31:\n        /* \"src/QVEstaking.sol\":1643:1670  return StakeCount.current() */\n      swap1\n      pop\n        /* \"src/QVEstaking.sol\":1575:1677  function getTotalStakeNum() external view returns(uint256){... */\n      swap1\n      jump\t// out\n        /* \"src/QVEstaking.sol\":1719:2305  function stake(address staker, uint256 stakeAmount) external NoReEntrancy returns(bool){... */\n    tag_22:\n        /* \"src/QVEstaking.sol\":1801:1805  bool */\n      0x00\n        /* \"src/util/Security.sol\":149:155  locked */\n      dup1\n      0x00\n      swap1\n      sload\n      swap1\n      0x0100\n      exp\n      swap1\n      div\n      0xff\n      and\n        /* \"src/util/Security.sol\":148:155  !locked */\n      iszero\n        /* \"src/util/Security.sol\":140:173  require(!locked, \"No ReEntrancy\") */\n      tag_34\n      jumpi\n      mload(0x40)\n      0x08c379a000000000000000000000000000000000000000000000000000000000\n      dup2\n      mstore\n      0x04\n      add\n      tag_35\n      swap1\n      tag_36\n      jump\t// in\n    tag_35:\n      mload(0x40)\n      dup1\n      swap2\n      sub\n      swap1\n      revert\n    tag_34:\n        /* \"src/util/Security.sol\":192:196  true */\n      0x01\n        /* \"src/util/Security.sol\":183:189  locked */\n      0x00\n      dup1\n        /* \"src/util/Security.sol\":183:196  locked = true */\n      0x0100\n      exp\n      dup2\n      sload\n      dup2\n      0xff\n      mul\n      not\n      and\n      swap1\n      dup4\n      iszero\n      iszero\n      mul\n      or\n      swap1\n      sstore\n      pop\n        /* \"src/QVEstaking.sol\":1824:1832  qveToken */\n      0x00\n      0x01\n      swap1\n      sload\n      swap1\n      0x0100\n      exp\n      swap1\n      div\n      0xffffffffffffffffffffffffffffffffffffffff\n      and\n        /* \"src/QVEstaking.sol\":1824:1848  qveToken.normal_transfer */\n      0xffffffffffffffffffffffffffffffffffffffff\n      and\n      0x469895c8\n        /* \"src/QVEstaking.sol\":1849:1855  staker */\n      dup5\n        /* \"src/QVEstaking.sol\":1865:1869  this */\n      address\n        /* \"src/QVEstaking.sol\":1872:1893  stakeAmount.mul(1e18) */\n      tag_38\n        /* \"src/QVEstaking.sol\":1888:1892  1e18 */\n      0x0de0b6b3a7640000\n        /* \"src/QVEstaking.sol\":1872:1883  stakeAmount */\n      dup8\n        /* \"src/QVEstaking.sol\":1872:1887  stakeAmount.mul */\n      tag_39\n      swap1\n        /* \"src/QVEstaking.sol\":1872:1893  stakeAmount.mul(1e18) */\n      swap2\n      swap1\n      0xffffffff\n      and\n      jump\t// in\n    tag_38:\n        /* \"src/QVEstaking.sol\":1824:1894  qveToken.normal_transfer(staker, address(this), stakeAmount.mul(1e18)) */\n      mload(0x40)\n      dup5\n      0xffffffff\n      and\n      0xe0\n      shl\n      dup2\n      mstore\n      0x04\n      add\n      tag_40\n      swap4\n      swap3\n      swap2\n      swap1\n      tag_41\n      jump\t// in\n    tag_40:\n      0x20\n      mload(0x40)\n      dup1\n      dup4\n      sub\n      dup2\n      0x00\n      dup8\n      gas\n      call\n      iszero\n      dup1\n      iszero\n      tag_43\n      jumpi\n      returndatasize\n      0x00\n      dup1\n      returndatacopy\n      revert(0x00, returndatasize)\n    tag_43:\n      pop\n      pop\n      pop\n      pop\n      mload(0x40)\n      returndatasize\n      not(0x1f)\n      0x1f\n      dup3\n      add\n      and\n      dup3\n      add\n      dup1\n      0x40\n      mstore\n      pop\n      dup2\n      add\n      swap1\n      tag_44\n      swap2\n      swap1\n      tag_45\n      jump\t// in\n    tag_44:\n        /* \"src/QVEstaking.sol\":1896:1909  WARN_TRANSFER */\n      mload(0x40)\n      dup1\n      0x40\n      add\n      0x40\n      mstore\n      dup1\n      0x0e\n      dup2\n      mstore\n      0x20\n      add\n      0x5472616e73666572204572726f72000000000000000000000000000000000000\n      dup2\n      mstore\n      pop\n        /* \"src/QVEstaking.sol\":1816:1910  require(qveToken.normal_transfer(staker, address(this), stakeAmount.mul(1e18)), WARN_TRANSFER) */\n      swap1\n      tag_46\n      jumpi\n      mload(0x40)\n      0x08c379a000000000000000000000000000000000000000000000000000000000\n      dup2\n      mstore\n      0x04\n      add\n      tag_47\n      swap2\n      swap1\n      tag_48\n      jump\t// in\n    tag_47:\n      mload(0x40)\n      dup1\n      swap2\n      sub\n      swap1\n      revert\n    tag_46:\n      pop\n        /* \"src/QVEstaking.sol\":1943:1981  totalStaked.add(stakeAmount.mul(1e18)) */\n      tag_49\n        /* \"src/QVEstaking.sol\":1959:1980  stakeAmount.mul(1e18) */\n      tag_50\n        /* \"src/QVEstaking.sol\":1975:1979  1e18 */\n      0x0de0b6b3a7640000\n        /* \"src/QVEstaking.sol\":1959:1970  stakeAmount */\n      dup5\n        /* \"src/QVEstaking.sol\":1959:1974  stakeAmount.mul */\n      tag_39\n      swap1\n        /* \"src/QVEstaking.sol\":1959:1980  stakeAmount.mul(1e18) */\n      swap2\n      swap1\n      0xffffffff\n      and\n      jump\t// in\n    tag_50:\n        /* \"src/QVEstaking.sol\":1943:1954  totalStaked */\n      sload(0x02)\n        /* \"src/QVEstaking.sol\":1943:1958  totalStaked.add */\n      tag_51\n      swap1\n        /* \"src/QVEstaking.sol\":1943:1981  totalStaked.add(stakeAmount.mul(1e18)) */\n      swap2\n      swap1\n      0xffffffff\n      and\n      jump\t// in\n    tag_49:\n        /* \"src/QVEstaking.sol\":1929:1940  totalStaked */\n      0x02\n        /* \"src/QVEstaking.sol\":1929:1981  totalStaked = totalStaked.add(stakeAmount.mul(1e18)) */\n      dup2\n      swap1\n      sstore\n      pop\n        /* \"src/QVEstaking.sol\":2026:2132  StakeDetail({ tokenAmount : stakeAmount , startBlock : block.timestamp, stakeNum : StakeCount.current() }) */\n      mload(0x40)\n      dup1\n      0x60\n      add\n      0x40\n      mstore\n      dup1\n        /* \"src/QVEstaking.sol\":2109:2129  StakeCount.current() */\n      tag_52\n        /* \"src/QVEstaking.sol\":2109:2119  StakeCount */\n      0x01\n        /* \"src/QVEstaking.sol\":2109:2127  StakeCount.current */\n      tag_32\n        /* \"src/QVEstaking.sol\":2109:2129  StakeCount.current() */\n      jump\t// in\n    tag_52:\n        /* \"src/QVEstaking.sol\":2026:2132  StakeDetail({ tokenAmount : stakeAmount , startBlock : block.timestamp, stakeNum : StakeCount.current() }) */\n      dup2\n      mstore\n      0x20\n      add\n        /* \"src/QVEstaking.sol\":2054:2065  stakeAmount */\n      dup4\n        /* \"src/QVEstaking.sol\":2026:2132  StakeDetail({ tokenAmount : stakeAmount , startBlock : block.timestamp, stakeNum : StakeCount.current() }) */\n      dup2\n      mstore\n      0x20\n      add\n        /* \"src/QVEstaking.sol\":2081:2096  block.timestamp */\n      timestamp\n        /* \"src/QVEstaking.sol\":2026:2132  StakeDetail({ tokenAmount : stakeAmount , startBlock : block.timestamp, stakeNum : StakeCount.current() }) */\n      dup2\n      mstore\n      pop\n        /* \"src/QVEstaking.sol\":1991:2001  stakeVault */\n      0x04\n        /* \"src/QVEstaking.sol\":1991:2023  stakeVault[StakeCount.current()] */\n      0x00\n        /* \"src/QVEstaking.sol\":2002:2022  StakeCount.current() */\n      tag_53\n        /* \"src/QVEstaking.sol\":2002:2012  StakeCount */\n      0x01\n        /* \"src/QVEstaking.sol\":2002:2020  StakeCount.current */\n      tag_32\n        /* \"src/QVEstaking.sol\":2002:2022  StakeCount.current() */\n      jump\t// in\n    tag_53:\n        /* \"src/QVEstaking.sol\":1991:2023  stakeVault[StakeCount.current()] */\n      dup2\n      mstore\n      0x20\n      add\n      swap1\n      dup2\n      mstore\n      0x20\n      add\n      0x00\n      keccak256\n        /* \"src/QVEstaking.sol\":1991:2132  stakeVault[StakeCount.current()] = StakeDetail({ tokenAmount : stakeAmount , startBlock : block.timestamp, stakeNum : StakeCount.current() }) */\n      0x00\n      dup3\n      add\n      mload\n      dup2\n      0x00\n      add\n      sstore\n      0x20\n      dup3\n      add\n      mload\n      dup2\n      0x01\n      add\n      sstore\n      0x40\n      dup3\n      add\n      mload\n      dup2\n      0x02\n      add\n      sstore\n      swap1\n      pop\n      pop\n        /* \"src/QVEstaking.sol\":2142:2152  ownedStake */\n      0x03\n        /* \"src/QVEstaking.sol\":2142:2160  ownedStake[staker] */\n      0x00\n        /* \"src/QVEstaking.sol\":2153:2159  staker */\n      dup5\n        /* \"src/QVEstaking.sol\":2142:2160  ownedStake[staker] */\n      0xffffffffffffffffffffffffffffffffffffffff\n      and\n      0xffffffffffffffffffffffffffffffffffffffff\n      and\n      dup2\n      mstore\n      0x20\n      add\n      swap1\n      dup2\n      mstore\n      0x20\n      add\n      0x00\n      keccak256\n        /* \"src/QVEstaking.sol\":2167:2187  StakeCount.current() */\n      tag_54\n        /* \"src/QVEstaking.sol\":2167:2177  StakeCount */\n      0x01\n        /* \"src/QVEstaking.sol\":2167:2185  StakeCount.current */\n      tag_32\n        /* \"src/QVEstaking.sol\":2167:2187  StakeCount.current() */\n      jump\t// in\n    tag_54:\n        /* \"src/QVEstaking.sol\":2142:2188  ownedStake[staker].push( StakeCount.current()) */\n      swap1\n      dup1\n      0x01\n      dup2\n      sload\n      add\n      dup1\n      dup3\n      sstore\n      dup1\n      swap2\n      pop\n      pop\n      0x01\n      swap1\n      sub\n      swap1\n      0x00\n      mstore\n      keccak256(0x00, 0x20)\n      add\n      0x00\n      swap1\n      swap2\n      swap1\n      swap2\n      swap1\n      swap2\n      pop\n      sstore\n        /* \"src/QVEstaking.sol\":2199:2221  StakeCount.increment() */\n      tag_56\n        /* \"src/QVEstaking.sol\":2199:2209  StakeCount */\n      0x01\n        /* \"src/QVEstaking.sol\":2199:2219  StakeCount.increment */\n      tag_57\n        /* \"src/QVEstaking.sol\":2199:2221  StakeCount.increment() */\n      jump\t// in\n    tag_56:\n        /* \"src/QVEstaking.sol\":2237:2268  StakeEvent(staker, stakeAmount) */\n      0xb58845b0a64f92dd8d1ba04f905319d6be2021b57783b3d10155e7e36a84e128\n        /* \"src/QVEstaking.sol\":2248:2254  staker */\n      dup4\n        /* \"src/QVEstaking.sol\":2256:2267  stakeAmount */\n      dup4\n        /* \"src/QVEstaking.sol\":2237:2268  StakeEvent(staker, stakeAmount) */\n      mload(0x40)\n      tag_58\n      swap3\n      swap2\n      swap1\n      tag_59\n      jump\t// in\n    tag_58:\n      mload(0x40)\n      dup1\n      swap2\n      sub\n      swap1\n      log1\n        /* \"src/QVEstaking.sol\":2294:2298  true */\n      0x01\n        /* \"src/QVEstaking.sol\":2287:2298  return true */\n      swap1\n      pop\n        /* \"src/util/Security.sol\":226:231  false */\n      0x00\n        /* \"src/util/Security.sol\":217:223  locked */\n      dup1\n      0x00\n        /* \"src/util/Security.sol\":217:231  locked = false */\n      0x0100\n      exp\n      dup2\n      sload\n      dup2\n      0xff\n      mul\n      not\n      and\n      swap1\n      dup4\n      iszero\n      iszero\n      mul\n      or\n      swap1\n      sstore\n      pop\n        /* \"src/QVEstaking.sol\":1719:2305  function stake(address staker, uint256 stakeAmount) external NoReEntrancy returns(bool){... */\n      swap3\n      swap2\n      pop\n      pop\n      jump\t// out\n        /* \"src/QVEstaking.sol\":2311:2481  function unStake(address staker, uint256 unstakeAmount) external NoReEntrancy returns(bool){... */\n    tag_27:\n        /* \"src/QVEstaking.sol\":2397:2401  bool */\n      0x00\n        /* \"src/util/Security.sol\":149:155  locked */\n      dup1\n      0x00\n      swap1\n      sload\n      swap1\n      0x0100\n      exp\n      swap1\n      div\n      0xff\n      and\n        /* \"src/util/Security.sol\":148:155  !locked */\n      iszero\n        /* \"src/util/Security.sol\":140:173  require(!locked, \"No ReEntrancy\") */\n      tag_61\n      jumpi\n      mload(0x40)\n      0x08c379a000000000000000000000000000000000000000000000000000000000\n      dup2\n      mstore\n      0x04\n      add\n      tag_62\n      swap1\n      tag_36\n      jump\t// in\n    tag_62:\n      mload(0x40)\n      dup1\n      swap2\n      sub\n      swap1\n      revert\n    tag_61:\n        /* \"src/util/Security.sol\":192:196  true */\n      0x01\n        /* \"src/util/Security.sol\":183:189  locked */\n      0x00\n      dup1\n        /* \"src/util/Security.sol\":183:196  locked = true */\n      0x0100\n      exp\n      dup2\n      sload\n      dup2\n      0xff\n      mul\n      not\n      and\n      swap1\n      dup4\n      iszero\n      iszero\n      mul\n      or\n      swap1\n      sstore\n      pop\n        /* \"src/QVEstaking.sol\":2418:2453  UnStakeEvent(staker, unstakeAmount) */\n      0x42567a6e9928273e7f8f57d3773e19cb04312e8abf5b2ea20dfd7e741f4c3e3b\n        /* \"src/QVEstaking.sol\":2431:2437  staker */\n      dup4\n        /* \"src/QVEstaking.sol\":2439:2452  unstakeAmount */\n      dup4\n        /* \"src/QVEstaking.sol\":2418:2453  UnStakeEvent(staker, unstakeAmount) */\n      mload(0x40)\n      tag_64\n      swap3\n      swap2\n      swap1\n      tag_59\n      jump\t// in\n    tag_64:\n      mload(0x40)\n      dup1\n      swap2\n      sub\n      swap1\n      log1\n        /* \"src/QVEstaking.sol\":2470:2474  true */\n      0x01\n        /* \"src/QVEstaking.sol\":2463:2474  return true */\n      swap1\n      pop\n        /* \"src/util/Security.sol\":226:231  false */\n      0x00\n        /* \"src/util/Security.sol\":217:223  locked */\n      dup1\n      0x00\n        /* \"src/util/Security.sol\":217:231  locked = false */\n      0x0100\n      exp\n      dup2\n      sload\n      dup2\n      0xff\n      mul\n      not\n      and\n      swap1\n      dup4\n      iszero\n      iszero\n      mul\n      or\n      swap1\n      sstore\n      pop\n        /* \"src/QVEstaking.sol\":2311:2481  function unStake(address staker, uint256 unstakeAmount) external NoReEntrancy returns(bool){... */\n      swap3\n      swap2\n      pop\n      pop\n      jump\t// out\n        /* \"@openzeppelin/contracts/utils/Counters.sol\":827:939  function current(Counter storage counter) internal view returns (uint256) {... */\n    tag_32:\n        /* \"@openzeppelin/contracts/utils/Counters.sol\":892:899  uint256 */\n      0x00\n        /* \"@openzeppelin/contracts/utils/Counters.sol\":918:925  counter */\n      dup2\n        /* \"@openzeppelin/contracts/utils/Counters.sol\":918:932  counter._value */\n      0x00\n      add\n      sload\n        /* \"@openzeppelin/contracts/utils/Counters.sol\":911:932  return counter._value */\n      swap1\n      pop\n        /* \"@openzeppelin/contracts/utils/Counters.sol\":827:939  function current(Counter storage counter) internal view returns (uint256) {... */\n      swap2\n      swap1\n      pop\n      jump\t// out\n        /* \"@openzeppelin/contracts/utils/math/SafeMath.sol\":3465:3561  function mul(uint256 a, uint256 b) internal pure returns (uint256) {... */\n    tag_39:\n        /* \"@openzeppelin/contracts/utils/math/SafeMath.sol\":3523:3530  uint256 */\n      0x00\n        /* \"@openzeppelin/contracts/utils/math/SafeMath.sol\":3553:3554  b */\n      dup2\n        /* \"@openzeppelin/contracts/utils/math/SafeMath.sol\":3549:3550  a */\n      dup4\n        /* \"@openzeppelin/contracts/utils/math/SafeMath.sol\":3549:3554  a * b */\n      tag_67\n      swap2\n      swap1\n      tag_68\n      jump\t// in\n    tag_67:\n        /* \"@openzeppelin/contracts/utils/math/SafeMath.sol\":3542:3554  return a * b */\n      swap1\n      pop\n        /* \"@openzeppelin/contracts/utils/math/SafeMath.sol\":3465:3561  function mul(uint256 a, uint256 b) internal pure returns (uint256) {... */\n      swap3\n      swap2\n      pop\n      pop\n      jump\t// out\n        /* \"@openzeppelin/contracts/utils/math/SafeMath.sol\":2755:2851  function add(uint256 a, uint256 b) internal pure returns (uint256) {... */\n    tag_51:\n        /* \"@openzeppelin/contracts/utils/math/SafeMath.sol\":2813:2820  uint256 */\n      0x00\n        /* \"@openzeppelin/contracts/utils/math/SafeMath.sol\":2843:2844  b */\n      dup2\n        /* \"@openzeppelin/contracts/utils/math/SafeMath.sol\":2839:2840  a */\n      dup4\n        /* \"@openzeppelin/contracts/utils/math/SafeMath.sol\":2839:2844  a + b */\n      tag_70\n      swap2\n      swap1\n      tag_71\n      jump\t// in\n    tag_70:\n        /* \"@openzeppelin/contracts/utils/math/SafeMath.sol\":2832:2844  return a + b */\n      swap1\n      pop\n        /* \"@openzeppelin/contracts/utils/math/SafeMath.sol\":2755:2851  function add(uint256 a, uint256 b) internal pure returns (uint256) {... */\n      swap3\n      swap2\n      pop\n      pop\n      jump\t// out\n        /* \"@openzeppelin/contracts/utils/Counters.sol\":945:1068  function increment(Counter storage counter) internal {... */\n    tag_57:\n        /* \"@openzeppelin/contracts/utils/Counters.sol\":1050:1051  1 */\n      0x01\n        /* \"@openzeppelin/contracts/utils/Counters.sol\":1032:1039  counter */\n      dup2\n        /* \"@openzeppelin/contracts/utils/Counters.sol\":1032:1046  counter._value */\n      0x00\n      add\n      0x00\n        /* \"@openzeppelin/contracts/utils/Counters.sol\":1032:1051  counter._value += 1 */\n      dup3\n      dup3\n      sload\n      add\n      swap3\n      pop\n      pop\n      dup2\n      swap1\n      sstore\n      pop\n        /* \"@openzeppelin/contracts/utils/Counters.sol\":945:1068  function increment(Counter storage counter) internal {... */\n      pop\n      jump\t// out\n        /* \"#utility.yul\":7:133   */\n    tag_73:\n        /* \"#utility.yul\":44:51   */\n      0x00\n        /* \"#utility.yul\":84:126   */\n      0xffffffffffffffffffffffffffffffffffffffff\n        /* \"#utility.yul\":77:82   */\n      dup3\n        /* \"#utility.yul\":73:127   */\n      and\n        /* \"#utility.yul\":62:127   */\n      swap1\n      pop\n        /* \"#utility.yul\":7:133   */\n      swap2\n      swap1\n      pop\n      jump\t// out\n        /* \"#utility.yul\":139:199   */\n    tag_74:\n        /* \"#utility.yul\":167:170   */\n      0x00\n        /* \"#utility.yul\":188:193   */\n      dup2\n        /* \"#utility.yul\":181:193   */\n      swap1\n      pop\n        /* \"#utility.yul\":139:199   */\n      swap2\n      swap1\n      pop\n      jump\t// out\n        /* \"#utility.yul\":205:347   */\n    tag_75:\n        /* \"#utility.yul\":255:264   */\n      0x00\n        /* \"#utility.yul\":288:341   */\n      tag_106\n        /* \"#utility.yul\":306:340   */\n      tag_107\n        /* \"#utility.yul\":315:339   */\n      tag_108\n        /* \"#utility.yul\":333:338   */\n      dup5\n        /* \"#utility.yul\":315:339   */\n      tag_73\n      jump\t// in\n    tag_108:\n        /* \"#utility.yul\":306:340   */\n      tag_74\n      jump\t// in\n    tag_107:\n        /* \"#utility.yul\":288:341   */\n      tag_73\n      jump\t// in\n    tag_106:\n        /* \"#utility.yul\":275:341   */\n      swap1\n      pop\n        /* \"#utility.yul\":205:347   */\n      swap2\n      swap1\n      pop\n      jump\t// out\n        /* \"#utility.yul\":353:479   */\n    tag_76:\n        /* \"#utility.yul\":403:412   */\n      0x00\n        /* \"#utility.yul\":436:473   */\n      tag_110\n        /* \"#utility.yul\":467:472   */\n      dup3\n        /* \"#utility.yul\":436:473   */\n      tag_75\n      jump\t// in\n    tag_110:\n        /* \"#utility.yul\":423:473   */\n      swap1\n      pop\n        /* \"#utility.yul\":353:479   */\n      swap2\n      swap1\n      pop\n      jump\t// out\n        /* \"#utility.yul\":485:628   */\n    tag_77:\n        /* \"#utility.yul\":552:561   */\n      0x00\n        /* \"#utility.yul\":585:622   */\n      tag_112\n        /* \"#utility.yul\":616:621   */\n      dup3\n        /* \"#utility.yul\":585:622   */\n      tag_76\n      jump\t// in\n    tag_112:\n        /* \"#utility.yul\":572:622   */\n      swap1\n      pop\n        /* \"#utility.yul\":485:628   */\n      swap2\n      swap1\n      pop\n      jump\t// out\n        /* \"#utility.yul\":634:799   */\n    tag_78:\n        /* \"#utility.yul\":738:792   */\n      tag_114\n        /* \"#utility.yul\":786:791   */\n      dup2\n        /* \"#utility.yul\":738:792   */\n      tag_77\n      jump\t// in\n    tag_114:\n        /* \"#utility.yul\":733:736   */\n      dup3\n        /* \"#utility.yul\":726:793   */\n      mstore\n        /* \"#utility.yul\":634:799   */\n      pop\n      pop\n      jump\t// out\n        /* \"#utility.yul\":805:1061   */\n    tag_11:\n        /* \"#utility.yul\":915:919   */\n      0x00\n        /* \"#utility.yul\":953:955   */\n      0x20\n        /* \"#utility.yul\":942:951   */\n      dup3\n        /* \"#utility.yul\":938:956   */\n      add\n        /* \"#utility.yul\":930:956   */\n      swap1\n      pop\n        /* \"#utility.yul\":966:1054   */\n      tag_116\n        /* \"#utility.yul\":1051:1052   */\n      0x00\n        /* \"#utility.yul\":1040:1049   */\n      dup4\n        /* \"#utility.yul\":1036:1053   */\n      add\n        /* \"#utility.yul\":1027:1033   */\n      dup5\n        /* \"#utility.yul\":966:1054   */\n      tag_78\n      jump\t// in\n    tag_116:\n        /* \"#utility.yul\":805:1061   */\n      swap3\n      swap2\n      pop\n      pop\n      jump\t// out\n        /* \"#utility.yul\":1067:1144   */\n    tag_79:\n        /* \"#utility.yul\":1104:1111   */\n      0x00\n        /* \"#utility.yul\":1133:1138   */\n      dup2\n        /* \"#utility.yul\":1122:1138   */\n      swap1\n      pop\n        /* \"#utility.yul\":1067:1144   */\n      swap2\n      swap1\n      pop\n      jump\t// out\n        /* \"#utility.yul\":1150:1268   */\n    tag_80:\n        /* \"#utility.yul\":1237:1261   */\n      tag_119\n        /* \"#utility.yul\":1255:1260   */\n      dup2\n        /* \"#utility.yul\":1237:1261   */\n      tag_79\n      jump\t// in\n    tag_119:\n        /* \"#utility.yul\":1232:1235   */\n      dup3\n        /* \"#utility.yul\":1225:1262   */\n      mstore\n        /* \"#utility.yul\":1150:1268   */\n      pop\n      pop\n      jump\t// out\n        /* \"#utility.yul\":1274:1496   */\n    tag_15:\n        /* \"#utility.yul\":1367:1371   */\n      0x00\n        /* \"#utility.yul\":1405:1407   */\n      0x20\n        /* \"#utility.yul\":1394:1403   */\n      dup3\n        /* \"#utility.yul\":1390:1408   */\n      add\n        /* \"#utility.yul\":1382:1408   */\n      swap1\n      pop\n        /* \"#utility.yul\":1418:1489   */\n      tag_121\n        /* \"#utility.yul\":1486:1487   */\n      0x00\n        /* \"#utility.yul\":1475:1484   */\n      dup4\n        /* \"#utility.yul\":1471:1488   */\n      add\n        /* \"#utility.yul\":1462:1468   */\n      dup5\n        /* \"#utility.yul\":1418:1489   */\n      tag_80\n      jump\t// in\n    tag_121:\n        /* \"#utility.yul\":1274:1496   */\n      swap3\n      swap2\n      pop\n      pop\n      jump\t// out\n        /* \"#utility.yul\":1583:1700   */\n    tag_82:\n        /* \"#utility.yul\":1692:1693   */\n      0x00\n        /* \"#utility.yul\":1689:1690   */\n      dup1\n        /* \"#utility.yul\":1682:1694   */\n      revert\n        /* \"#utility.yul\":1829:1925   */\n    tag_84:\n        /* \"#utility.yul\":1866:1873   */\n      0x00\n        /* \"#utility.yul\":1895:1919   */\n      tag_126\n        /* \"#utility.yul\":1913:1918   */\n      dup3\n        /* \"#utility.yul\":1895:1919   */\n      tag_73\n      jump\t// in\n    tag_126:\n        /* \"#utility.yul\":1884:1919   */\n      swap1\n      pop\n        /* \"#utility.yul\":1829:1925   */\n      swap2\n      swap1\n      pop\n      jump\t// out\n        /* \"#utility.yul\":1931:2053   */\n    tag_85:\n        /* \"#utility.yul\":2004:2028   */\n      tag_128\n        /* \"#utility.yul\":2022:2027   */\n      dup2\n        /* \"#utility.yul\":2004:2028   */\n      tag_84\n      jump\t// in\n    tag_128:\n        /* \"#utility.yul\":1997:2002   */\n      dup2\n        /* \"#utility.yul\":1994:2029   */\n      eq\n        /* \"#utility.yul\":1984:2047   */\n      tag_129\n      jumpi\n        /* \"#utility.yul\":2043:2044   */\n      0x00\n        /* \"#utility.yul\":2040:2041   */\n      dup1\n        /* \"#utility.yul\":2033:2045   */\n      revert\n        /* \"#utility.yul\":1984:2047   */\n    tag_129:\n        /* \"#utility.yul\":1931:2053   */\n      pop\n      jump\t// out\n        /* \"#utility.yul\":2059:2198   */\n    tag_86:\n        /* \"#utility.yul\":2105:2110   */\n      0x00\n        /* \"#utility.yul\":2143:2149   */\n      dup2\n        /* \"#utility.yul\":2130:2150   */\n      calldataload\n        /* \"#utility.yul\":2121:2150   */\n      swap1\n      pop\n        /* \"#utility.yul\":2159:2192   */\n      tag_131\n        /* \"#utility.yul\":2186:2191   */\n      dup2\n        /* \"#utility.yul\":2159:2192   */\n      tag_85\n      jump\t// in\n    tag_131:\n        /* \"#utility.yul\":2059:2198   */\n      swap3\n      swap2\n      pop\n      pop\n      jump\t// out\n        /* \"#utility.yul\":2204:2326   */\n    tag_87:\n        /* \"#utility.yul\":2277:2301   */\n      tag_133\n        /* \"#utility.yul\":2295:2300   */\n      dup2\n        /* \"#utility.yul\":2277:2301   */\n      tag_79\n      jump\t// in\n    tag_133:\n        /* \"#utility.yul\":2270:2275   */\n      dup2\n        /* \"#utility.yul\":2267:2302   */\n      eq\n        /* \"#utility.yul\":2257:2320   */\n      tag_134\n      jumpi\n        /* \"#utility.yul\":2316:2317   */\n      0x00\n        /* \"#utility.yul\":2313:2314   */\n      dup1\n        /* \"#utility.yul\":2306:2318   */\n      revert\n        /* \"#utility.yul\":2257:2320   */\n    tag_134:\n        /* \"#utility.yul\":2204:2326   */\n      pop\n      jump\t// out\n        /* \"#utility.yul\":2332:2471   */\n    tag_88:\n        /* \"#utility.yul\":2378:2383   */\n      0x00\n        /* \"#utility.yul\":2416:2422   */\n      dup2\n        /* \"#utility.yul\":2403:2423   */\n      calldataload\n        /* \"#utility.yul\":2394:2423   */\n      swap1\n      pop\n        /* \"#utility.yul\":2432:2465   */\n      tag_136\n        /* \"#utility.yul\":2459:2464   */\n      dup2\n        /* \"#utility.yul\":2432:2465   */\n      tag_87\n      jump\t// in\n    tag_136:\n        /* \"#utility.yul\":2332:2471   */\n      swap3\n      swap2\n      pop\n      pop\n      jump\t// out\n        /* \"#utility.yul\":2477:2951   */\n    tag_21:\n        /* \"#utility.yul\":2545:2551   */\n      0x00\n        /* \"#utility.yul\":2553:2559   */\n      dup1\n        /* \"#utility.yul\":2602:2604   */\n      0x40\n        /* \"#utility.yul\":2590:2599   */\n      dup4\n        /* \"#utility.yul\":2581:2588   */\n      dup6\n        /* \"#utility.yul\":2577:2600   */\n      sub\n        /* \"#utility.yul\":2573:2605   */\n      slt\n        /* \"#utility.yul\":2570:2689   */\n      iszero\n      tag_138\n      jumpi\n        /* \"#utility.yul\":2608:2687   */\n      tag_139\n      tag_82\n      jump\t// in\n    tag_139:\n        /* \"#utility.yul\":2570:2689   */\n    tag_138:\n        /* \"#utility.yul\":2728:2729   */\n      0x00\n        /* \"#utility.yul\":2753:2806   */\n      tag_140\n        /* \"#utility.yul\":2798:2805   */\n      dup6\n        /* \"#utility.yul\":2789:2795   */\n      dup3\n        /* \"#utility.yul\":2778:2787   */\n      dup7\n        /* \"#utility.yul\":2774:2796   */\n      add\n        /* \"#utility.yul\":2753:2806   */\n      tag_86\n      jump\t// in\n    tag_140:\n        /* \"#utility.yul\":2743:2806   */\n      swap3\n      pop\n        /* \"#utility.yul\":2699:2816   */\n      pop\n        /* \"#utility.yul\":2855:2857   */\n      0x20\n        /* \"#utility.yul\":2881:2934   */\n      tag_141\n        /* \"#utility.yul\":2926:2933   */\n      dup6\n        /* \"#utility.yul\":2917:2923   */\n      dup3\n        /* \"#utility.yul\":2906:2915   */\n      dup7\n        /* \"#utility.yul\":2902:2924   */\n      add\n        /* \"#utility.yul\":2881:2934   */\n      tag_88\n      jump\t// in\n    tag_141:\n        /* \"#utility.yul\":2871:2934   */\n      swap2\n      pop\n        /* \"#utility.yul\":2826:2944   */\n      pop\n        /* \"#utility.yul\":2477:2951   */\n      swap3\n      pop\n      swap3\n      swap1\n      pop\n      jump\t// out\n        /* \"#utility.yul\":2957:3047   */\n    tag_89:\n        /* \"#utility.yul\":2991:2998   */\n      0x00\n        /* \"#utility.yul\":3034:3039   */\n      dup2\n        /* \"#utility.yul\":3027:3040   */\n      iszero\n        /* \"#utility.yul\":3020:3041   */\n      iszero\n        /* \"#utility.yul\":3009:3041   */\n      swap1\n      pop\n        /* \"#utility.yul\":2957:3047   */\n      swap2\n      swap1\n      pop\n      jump\t// out\n        /* \"#utility.yul\":3053:3162   */\n    tag_90:\n        /* \"#utility.yul\":3134:3155   */\n      tag_144\n        /* \"#utility.yul\":3149:3154   */\n      dup2\n        /* \"#utility.yul\":3134:3155   */\n      tag_89\n      jump\t// in\n    tag_144:\n        /* \"#utility.yul\":3129:3132   */\n      dup3\n        /* \"#utility.yul\":3122:3156   */\n      mstore\n        /* \"#utility.yul\":3053:3162   */\n      pop\n      pop\n      jump\t// out\n        /* \"#utility.yul\":3168:3378   */\n    tag_24:\n        /* \"#utility.yul\":3255:3259   */\n      0x00\n        /* \"#utility.yul\":3293:3295   */\n      0x20\n        /* \"#utility.yul\":3282:3291   */\n      dup3\n        /* \"#utility.yul\":3278:3296   */\n      add\n        /* \"#utility.yul\":3270:3296   */\n      swap1\n      pop\n        /* \"#utility.yul\":3306:3371   */\n      tag_146\n        /* \"#utility.yul\":3368:3369   */\n      0x00\n        /* \"#utility.yul\":3357:3366   */\n      dup4\n        /* \"#utility.yul\":3353:3370   */\n      add\n        /* \"#utility.yul\":3344:3350   */\n      dup5\n        /* \"#utility.yul\":3306:3371   */\n      tag_90\n      jump\t// in\n    tag_146:\n        /* \"#utility.yul\":3168:3378   */\n      swap3\n      swap2\n      pop\n      pop\n      jump\t// out\n        /* \"#utility.yul\":3384:3553   */\n    tag_91:\n        /* \"#utility.yul\":3468:3479   */\n      0x00\n        /* \"#utility.yul\":3502:3508   */\n      dup3\n        /* \"#utility.yul\":3497:3500   */\n      dup3\n        /* \"#utility.yul\":3490:3509   */\n      mstore\n        /* \"#utility.yul\":3542:3546   */\n      0x20\n        /* \"#utility.yul\":3537:3540   */\n      dup3\n        /* \"#utility.yul\":3533:3547   */\n      add\n        /* \"#utility.yul\":3518:3547   */\n      swap1\n      pop\n        /* \"#utility.yul\":3384:3553   */\n      swap3\n      swap2\n      pop\n      pop\n      jump\t// out\n        /* \"#utility.yul\":3559:3722   */\n    tag_92:\n        /* \"#utility.yul\":3699:3714   */\n      0x4e6f205265456e7472616e637900000000000000000000000000000000000000\n        /* \"#utility.yul\":3695:3696   */\n      0x00\n        /* \"#utility.yul\":3687:3693   */\n      dup3\n        /* \"#utility.yul\":3683:3697   */\n      add\n        /* \"#utility.yul\":3676:3715   */\n      mstore\n        /* \"#utility.yul\":3559:3722   */\n      pop\n      jump\t// out\n        /* \"#utility.yul\":3728:4094   */\n    tag_93:\n        /* \"#utility.yul\":3870:3873   */\n      0x00\n        /* \"#utility.yul\":3891:3958   */\n      tag_150\n        /* \"#utility.yul\":3955:3957   */\n      0x0d\n        /* \"#utility.yul\":3950:3953   */\n      dup4\n        /* \"#utility.yul\":3891:3958   */\n      tag_91\n      jump\t// in\n    tag_150:\n        /* \"#utility.yul\":3884:3958   */\n      swap2\n      pop\n        /* \"#utility.yul\":3967:4060   */\n      tag_151\n        /* \"#utility.yul\":4056:4059   */\n      dup3\n        /* \"#utility.yul\":3967:4060   */\n      tag_92\n      jump\t// in\n    tag_151:\n        /* \"#utility.yul\":4085:4087   */\n      0x20\n        /* \"#utility.yul\":4080:4083   */\n      dup3\n        /* \"#utility.yul\":4076:4088   */\n      add\n        /* \"#utility.yul\":4069:4088   */\n      swap1\n      pop\n        /* \"#utility.yul\":3728:4094   */\n      swap2\n      swap1\n      pop\n      jump\t// out\n        /* \"#utility.yul\":4100:4519   */\n    tag_36:\n        /* \"#utility.yul\":4266:4270   */\n      0x00\n        /* \"#utility.yul\":4304:4306   */\n      0x20\n        /* \"#utility.yul\":4293:4302   */\n      dup3\n        /* \"#utility.yul\":4289:4307   */\n      add\n        /* \"#utility.yul\":4281:4307   */\n      swap1\n      pop\n        /* \"#utility.yul\":4353:4362   */\n      dup2\n        /* \"#utility.yul\":4347:4351   */\n      dup2\n        /* \"#utility.yul\":4343:4363   */\n      sub\n        /* \"#utility.yul\":4339:4340   */\n      0x00\n        /* \"#utility.yul\":4328:4337   */\n      dup4\n        /* \"#utility.yul\":4324:4341   */\n      add\n        /* \"#utility.yul\":4317:4364   */\n      mstore\n        /* \"#utility.yul\":4381:4512   */\n      tag_153\n        /* \"#utility.yul\":4507:4511   */\n      dup2\n        /* \"#utility.yul\":4381:4512   */\n      tag_93\n      jump\t// in\n    tag_153:\n        /* \"#utility.yul\":4373:4512   */\n      swap1\n      pop\n        /* \"#utility.yul\":4100:4519   */\n      swap2\n      swap1\n      pop\n      jump\t// out\n        /* \"#utility.yul\":4525:4643   */\n    tag_94:\n        /* \"#utility.yul\":4612:4636   */\n      tag_155\n        /* \"#utility.yul\":4630:4635   */\n      dup2\n        /* \"#utility.yul\":4612:4636   */\n      tag_84\n      jump\t// in\n    tag_155:\n        /* \"#utility.yul\":4607:4610   */\n      dup3\n        /* \"#utility.yul\":4600:4637   */\n      mstore\n        /* \"#utility.yul\":4525:4643   */\n      pop\n      pop\n      jump\t// out\n        /* \"#utility.yul\":4649:5091   */\n    tag_41:\n        /* \"#utility.yul\":4798:4802   */\n      0x00\n        /* \"#utility.yul\":4836:4838   */\n      0x60\n        /* \"#utility.yul\":4825:4834   */\n      dup3\n        /* \"#utility.yul\":4821:4839   */\n      add\n        /* \"#utility.yul\":4813:4839   */\n      swap1\n      pop\n        /* \"#utility.yul\":4849:4920   */\n      tag_157\n        /* \"#utility.yul\":4917:4918   */\n      0x00\n        /* \"#utility.yul\":4906:4915   */\n      dup4\n        /* \"#utility.yul\":4902:4919   */\n      add\n        /* \"#utility.yul\":4893:4899   */\n      dup7\n        /* \"#utility.yul\":4849:4920   */\n      tag_94\n      jump\t// in\n    tag_157:\n        /* \"#utility.yul\":4930:5002   */\n      tag_158\n        /* \"#utility.yul\":4998:5000   */\n      0x20\n        /* \"#utility.yul\":4987:4996   */\n      dup4\n        /* \"#utility.yul\":4983:5001   */\n      add\n        /* \"#utility.yul\":4974:4980   */\n      dup6\n        /* \"#utility.yul\":4930:5002   */\n      tag_94\n      jump\t// in\n    tag_158:\n        /* \"#utility.yul\":5012:5084   */\n      tag_159\n        /* \"#utility.yul\":5080:5082   */\n      0x40\n        /* \"#utility.yul\":5069:5078   */\n      dup4\n        /* \"#utility.yul\":5065:5083   */\n      add\n        /* \"#utility.yul\":5056:5062   */\n      dup5\n        /* \"#utility.yul\":5012:5084   */\n      tag_80\n      jump\t// in\n    tag_159:\n        /* \"#utility.yul\":4649:5091   */\n      swap5\n      swap4\n      pop\n      pop\n      pop\n      pop\n      jump\t// out\n        /* \"#utility.yul\":5097:5213   */\n    tag_95:\n        /* \"#utility.yul\":5167:5188   */\n      tag_161\n        /* \"#utility.yul\":5182:5187   */\n      dup2\n        /* \"#utility.yul\":5167:5188   */\n      tag_89\n      jump\t// in\n    tag_161:\n        /* \"#utility.yul\":5160:5165   */\n      dup2\n        /* \"#utility.yul\":5157:5189   */\n      eq\n        /* \"#utility.yul\":5147:5207   */\n      tag_162\n      jumpi\n        /* \"#utility.yul\":5203:5204   */\n      0x00\n        /* \"#utility.yul\":5200:5201   */\n      dup1\n        /* \"#utility.yul\":5193:5205   */\n      revert\n        /* \"#utility.yul\":5147:5207   */\n    tag_162:\n        /* \"#utility.yul\":5097:5213   */\n      pop\n      jump\t// out\n        /* \"#utility.yul\":5219:5356   */\n    tag_96:\n        /* \"#utility.yul\":5273:5278   */\n      0x00\n        /* \"#utility.yul\":5304:5310   */\n      dup2\n        /* \"#utility.yul\":5298:5311   */\n      mload\n        /* \"#utility.yul\":5289:5311   */\n      swap1\n      pop\n        /* \"#utility.yul\":5320:5350   */\n      tag_164\n        /* \"#utility.yul\":5344:5349   */\n      dup2\n        /* \"#utility.yul\":5320:5350   */\n      tag_95\n      jump\t// in\n    tag_164:\n        /* \"#utility.yul\":5219:5356   */\n      swap3\n      swap2\n      pop\n      pop\n      jump\t// out\n        /* \"#utility.yul\":5362:5707   */\n    tag_45:\n        /* \"#utility.yul\":5429:5435   */\n      0x00\n        /* \"#utility.yul\":5478:5480   */\n      0x20\n        /* \"#utility.yul\":5466:5475   */\n      dup3\n        /* \"#utility.yul\":5457:5464   */\n      dup5\n        /* \"#utility.yul\":5453:5476   */\n      sub\n        /* \"#utility.yul\":5449:5481   */\n      slt\n        /* \"#utility.yul\":5446:5565   */\n      iszero\n      tag_166\n      jumpi\n        /* \"#utility.yul\":5484:5563   */\n      tag_167\n      tag_82\n      jump\t// in\n    tag_167:\n        /* \"#utility.yul\":5446:5565   */\n    tag_166:\n        /* \"#utility.yul\":5604:5605   */\n      0x00\n        /* \"#utility.yul\":5629:5690   */\n      tag_168\n        /* \"#utility.yul\":5682:5689   */\n      dup5\n        /* \"#utility.yul\":5673:5679   */\n      dup3\n        /* \"#utility.yul\":5662:5671   */\n      dup6\n        /* \"#utility.yul\":5658:5680   */\n      add\n        /* \"#utility.yul\":5629:5690   */\n      tag_96\n      jump\t// in\n    tag_168:\n        /* \"#utility.yul\":5619:5690   */\n      swap2\n      pop\n        /* \"#utility.yul\":5575:5700   */\n      pop\n        /* \"#utility.yul\":5362:5707   */\n      swap3\n      swap2\n      pop\n      pop\n      jump\t// out\n        /* \"#utility.yul\":5713:5812   */\n    tag_97:\n        /* \"#utility.yul\":5765:5771   */\n      0x00\n        /* \"#utility.yul\":5799:5804   */\n      dup2\n        /* \"#utility.yul\":5793:5805   */\n      mload\n        /* \"#utility.yul\":5783:5805   */\n      swap1\n      pop\n        /* \"#utility.yul\":5713:5812   */\n      swap2\n      swap1\n      pop\n      jump\t// out\n        /* \"#utility.yul\":5818:6064   */\n    tag_98:\n        /* \"#utility.yul\":5899:5900   */\n      0x00\n        /* \"#utility.yul\":5909:6022   */\n    tag_171:\n        /* \"#utility.yul\":5923:5929   */\n      dup4\n        /* \"#utility.yul\":5920:5921   */\n      dup2\n        /* \"#utility.yul\":5917:5930   */\n      lt\n        /* \"#utility.yul\":5909:6022   */\n      iszero\n      tag_173\n      jumpi\n        /* \"#utility.yul\":6008:6009   */\n      dup1\n        /* \"#utility.yul\":6003:6006   */\n      dup3\n        /* \"#utility.yul\":5999:6010   */\n      add\n        /* \"#utility.yul\":5993:6011   */\n      mload\n        /* \"#utility.yul\":5989:5990   */\n      dup2\n        /* \"#utility.yul\":5984:5987   */\n      dup5\n        /* \"#utility.yul\":5980:5991   */\n      add\n        /* \"#utility.yul\":5973:6012   */\n      mstore\n        /* \"#utility.yul\":5945:5947   */\n      0x20\n        /* \"#utility.yul\":5942:5943   */\n      dup2\n        /* \"#utility.yul\":5938:5948   */\n      add\n        /* \"#utility.yul\":5933:5948   */\n      swap1\n      pop\n        /* \"#utility.yul\":5909:6022   */\n      jump(tag_171)\n    tag_173:\n        /* \"#utility.yul\":6056:6057   */\n      0x00\n        /* \"#utility.yul\":6047:6053   */\n      dup5\n        /* \"#utility.yul\":6042:6045   */\n      dup5\n        /* \"#utility.yul\":6038:6054   */\n      add\n        /* \"#utility.yul\":6031:6058   */\n      mstore\n        /* \"#utility.yul\":5880:6064   */\n      pop\n        /* \"#utility.yul\":5818:6064   */\n      pop\n      pop\n      pop\n      jump\t// out\n        /* \"#utility.yul\":6070:6172   */\n    tag_99:\n        /* \"#utility.yul\":6111:6117   */\n      0x00\n        /* \"#utility.yul\":6162:6164   */\n      0x1f\n        /* \"#utility.yul\":6158:6165   */\n      not\n        /* \"#utility.yul\":6153:6155   */\n      0x1f\n        /* \"#utility.yul\":6146:6151   */\n      dup4\n        /* \"#utility.yul\":6142:6156   */\n      add\n        /* \"#utility.yul\":6138:6166   */\n      and\n        /* \"#utility.yul\":6128:6166   */\n      swap1\n      pop\n        /* \"#utility.yul\":6070:6172   */\n      swap2\n      swap1\n      pop\n      jump\t// out\n        /* \"#utility.yul\":6178:6555   */\n    tag_100:\n        /* \"#utility.yul\":6266:6269   */\n      0x00\n        /* \"#utility.yul\":6294:6333   */\n      tag_176\n        /* \"#utility.yul\":6327:6332   */\n      dup3\n        /* \"#utility.yul\":6294:6333   */\n      tag_97\n      jump\t// in\n    tag_176:\n        /* \"#utility.yul\":6349:6420   */\n      tag_177\n        /* \"#utility.yul\":6413:6419   */\n      dup2\n        /* \"#utility.yul\":6408:6411   */\n      dup6\n        /* \"#utility.yul\":6349:6420   */\n      tag_91\n      jump\t// in\n    tag_177:\n        /* \"#utility.yul\":6342:6420   */\n      swap4\n      pop\n        /* \"#utility.yul\":6429:6494   */\n      tag_178\n        /* \"#utility.yul\":6487:6493   */\n      dup2\n        /* \"#utility.yul\":6482:6485   */\n      dup6\n        /* \"#utility.yul\":6475:6479   */\n      0x20\n        /* \"#utility.yul\":6468:6473   */\n      dup7\n        /* \"#utility.yul\":6464:6480   */\n      add\n        /* \"#utility.yul\":6429:6494   */\n      tag_98\n      jump\t// in\n    tag_178:\n        /* \"#utility.yul\":6519:6548   */\n      tag_179\n        /* \"#utility.yul\":6541:6547   */\n      dup2\n        /* \"#utility.yul\":6519:6548   */\n      tag_99\n      jump\t// in\n    tag_179:\n        /* \"#utility.yul\":6514:6517   */\n      dup5\n        /* \"#utility.yul\":6510:6549   */\n      add\n        /* \"#utility.yul\":6503:6549   */\n      swap2\n      pop\n        /* \"#utility.yul\":6270:6555   */\n      pop\n        /* \"#utility.yul\":6178:6555   */\n      swap3\n      swap2\n      pop\n      pop\n      jump\t// out\n        /* \"#utility.yul\":6561:6874   */\n    tag_48:\n        /* \"#utility.yul\":6674:6678   */\n      0x00\n        /* \"#utility.yul\":6712:6714   */\n      0x20\n        /* \"#utility.yul\":6701:6710   */\n      dup3\n        /* \"#utility.yul\":6697:6715   */\n      add\n        /* \"#utility.yul\":6689:6715   */\n      swap1\n      pop\n        /* \"#utility.yul\":6761:6770   */\n      dup2\n        /* \"#utility.yul\":6755:6759   */\n      dup2\n        /* \"#utility.yul\":6751:6771   */\n      sub\n        /* \"#utility.yul\":6747:6748   */\n      0x00\n        /* \"#utility.yul\":6736:6745   */\n      dup4\n        /* \"#utility.yul\":6732:6749   */\n      add\n        /* \"#utility.yul\":6725:6772   */\n      mstore\n        /* \"#utility.yul\":6789:6867   */\n      tag_181\n        /* \"#utility.yul\":6862:6866   */\n      dup2\n        /* \"#utility.yul\":6853:6859   */\n      dup5\n        /* \"#utility.yul\":6789:6867   */\n      tag_100\n      jump\t// in\n    tag_181:\n        /* \"#utility.yul\":6781:6867   */\n      swap1\n      pop\n        /* \"#utility.yul\":6561:6874   */\n      swap3\n      swap2\n      pop\n      pop\n      jump\t// out\n        /* \"#utility.yul\":6880:7212   */\n    tag_59:\n        /* \"#utility.yul\":7001:7005   */\n      0x00\n        /* \"#utility.yul\":7039:7041   */\n      0x40\n        /* \"#utility.yul\":7028:7037   */\n      dup3\n        /* \"#utility.yul\":7024:7042   */\n      add\n        /* \"#utility.yul\":7016:7042   */\n      swap1\n      pop\n        /* \"#utility.yul\":7052:7123   */\n      tag_183\n        /* \"#utility.yul\":7120:7121   */\n      0x00\n        /* \"#utility.yul\":7109:7118   */\n      dup4\n        /* \"#utility.yul\":7105:7122   */\n      add\n        /* \"#utility.yul\":7096:7102   */\n      dup6\n        /* \"#utility.yul\":7052:7123   */\n      tag_94\n      jump\t// in\n    tag_183:\n        /* \"#utility.yul\":7133:7205   */\n      tag_184\n        /* \"#utility.yul\":7201:7203   */\n      0x20\n        /* \"#utility.yul\":7190:7199   */\n      dup4\n        /* \"#utility.yul\":7186:7204   */\n      add\n        /* \"#utility.yul\":7177:7183   */\n      dup5\n        /* \"#utility.yul\":7133:7205   */\n      tag_80\n      jump\t// in\n    tag_184:\n        /* \"#utility.yul\":6880:7212   */\n      swap4\n      swap3\n      pop\n      pop\n      pop\n      jump\t// out\n        /* \"#utility.yul\":7218:7398   */\n    tag_101:\n        /* \"#utility.yul\":7266:7343   */\n      0x4e487b7100000000000000000000000000000000000000000000000000000000\n        /* \"#utility.yul\":7263:7264   */\n      0x00\n        /* \"#utility.yul\":7256:7344   */\n      mstore\n        /* \"#utility.yul\":7363:7367   */\n      0x11\n        /* \"#utility.yul\":7360:7361   */\n      0x04\n        /* \"#utility.yul\":7353:7368   */\n      mstore\n        /* \"#utility.yul\":7387:7391   */\n      0x24\n        /* \"#utility.yul\":7384:7385   */\n      0x00\n        /* \"#utility.yul\":7377:7392   */\n      revert\n        /* \"#utility.yul\":7404:7814   */\n    tag_68:\n        /* \"#utility.yul\":7444:7451   */\n      0x00\n        /* \"#utility.yul\":7467:7487   */\n      tag_187\n        /* \"#utility.yul\":7485:7486   */\n      dup3\n        /* \"#utility.yul\":7467:7487   */\n      tag_79\n      jump\t// in\n    tag_187:\n        /* \"#utility.yul\":7462:7487   */\n      swap2\n      pop\n        /* \"#utility.yul\":7501:7521   */\n      tag_188\n        /* \"#utility.yul\":7519:7520   */\n      dup4\n        /* \"#utility.yul\":7501:7521   */\n      tag_79\n      jump\t// in\n    tag_188:\n        /* \"#utility.yul\":7496:7521   */\n      swap3\n      pop\n        /* \"#utility.yul\":7556:7557   */\n      dup3\n        /* \"#utility.yul\":7553:7554   */\n      dup3\n        /* \"#utility.yul\":7549:7558   */\n      mul\n        /* \"#utility.yul\":7578:7608   */\n      tag_189\n        /* \"#utility.yul\":7596:7607   */\n      dup2\n        /* \"#utility.yul\":7578:7608   */\n      tag_79\n      jump\t// in\n    tag_189:\n        /* \"#utility.yul\":7567:7608   */\n      swap2\n      pop\n        /* \"#utility.yul\":7757:7758   */\n      dup3\n        /* \"#utility.yul\":7748:7755   */\n      dup3\n        /* \"#utility.yul\":7744:7759   */\n      div\n        /* \"#utility.yul\":7741:7742   */\n      dup5\n        /* \"#utility.yul\":7738:7760   */\n      eq\n        /* \"#utility.yul\":7718:7719   */\n      dup4\n        /* \"#utility.yul\":7711:7720   */\n      iszero\n        /* \"#utility.yul\":7691:7774   */\n      or\n        /* \"#utility.yul\":7668:7807   */\n      tag_190\n      jumpi\n        /* \"#utility.yul\":7787:7805   */\n      tag_191\n      tag_101\n      jump\t// in\n    tag_191:\n        /* \"#utility.yul\":7668:7807   */\n    tag_190:\n        /* \"#utility.yul\":7452:7814   */\n      pop\n        /* \"#utility.yul\":7404:7814   */\n      swap3\n      swap2\n      pop\n      pop\n      jump\t// out\n        /* \"#utility.yul\":7820:8011   */\n    tag_71:\n        /* \"#utility.yul\":7860:7863   */\n      0x00\n        /* \"#utility.yul\":7879:7899   */\n      tag_193\n        /* \"#utility.yul\":7897:7898   */\n      dup3\n        /* \"#utility.yul\":7879:7899   */\n      tag_79\n      jump\t// in\n    tag_193:\n        /* \"#utility.yul\":7874:7899   */\n      swap2\n      pop\n        /* \"#utility.yul\":7913:7933   */\n      tag_194\n        /* \"#utility.yul\":7931:7932   */\n      dup4\n        /* \"#utility.yul\":7913:7933   */\n      tag_79\n      jump\t// in\n    tag_194:\n        /* \"#utility.yul\":7908:7933   */\n      swap3\n      pop\n        /* \"#utility.yul\":7956:7957   */\n      dup3\n        /* \"#utility.yul\":7953:7954   */\n      dup3\n        /* \"#utility.yul\":7949:7958   */\n      add\n        /* \"#utility.yul\":7942:7958   */\n      swap1\n      pop\n        /* \"#utility.yul\":7977:7980   */\n      dup1\n        /* \"#utility.yul\":7974:7975   */\n      dup3\n        /* \"#utility.yul\":7971:7981   */\n      gt\n        /* \"#utility.yul\":7968:8004   */\n      iszero\n      tag_195\n      jumpi\n        /* \"#utility.yul\":7984:8002   */\n      tag_196\n      tag_101\n      jump\t// in\n    tag_196:\n        /* \"#utility.yul\":7968:8004   */\n    tag_195:\n        /* \"#utility.yul\":7820:8011   */\n      swap3\n      swap2\n      pop\n      pop\n      jump\t// out\n\n    auxdata: 0xa2646970667358221220e5159c7878dc2cb593eeb89a0d1d023e29bf9c71dda8ec11eef2c95eac4d9a9864736f6c63430008150033\n}\n",
				"bytecode": {
					"linkReferences": {},
					"object": "6080604052620151805f60156101000a81548162ffffff021916908362ffffff160217905550348015610030575f80fd5b50604051610add380380610add83398181016040528101906100529190610107565b805f60016101000a81548173ffffffffffffffffffffffffffffffffffffffff021916908373ffffffffffffffffffffffffffffffffffffffff16021790555050610132565b5f80fd5b5f73ffffffffffffffffffffffffffffffffffffffff82169050919050565b5f6100c58261009c565b9050919050565b5f6100d6826100bb565b9050919050565b6100e6816100cc565b81146100f0575f80fd5b50565b5f81519050610101816100dd565b92915050565b5f6020828403121561011c5761011b610098565b5b5f610129848285016100f3565b91505092915050565b61099e8061013f5f395ff3fe608060405234801561000f575f80fd5b5060043610610055575f3560e01c806305335410146100595780630917e776146100775780638e5d763f14610095578063adc9772e146100b3578063d9393814146100e3575b5f80fd5b610061610113565b60405161006e91906105d1565b60405180910390f35b61007f610138565b60405161008c9190610602565b60405180910390f35b61009d610141565b6040516100aa9190610602565b60405180910390f35b6100cd60048036038101906100c89190610684565b610151565b6040516100da91906106dc565b60405180910390f35b6100fd60048036038101906100f89190610684565b61044a565b60405161010a91906106dc565b60405180910390f35b5f60019054906101000a900473ffffffffffffffffffffffffffffffffffffffff1681565b5f600254905090565b5f61014c600161050d565b905090565b5f805f9054906101000a900460ff16156101a0576040517f08c379a00000000000000000000000000000000000000000000000000000000081526004016101979061074f565b60405180910390fd5b60015f806101000a81548160ff0219169083151502179055505f60019054906101000a900473ffffffffffffffffffffffffffffffffffffffff1673ffffffffffffffffffffffffffffffffffffffff1663469895c88430610213670de0b6b3a76400008761051990919063ffffffff16565b6040518463ffffffff1660e01b81526004016102319392919061077c565b6020604051808303815f875af115801561024d573d5f803e3d5ffd5b505050506040513d601f19601f8201168201806040525081019061027191906107db565b6040518060400160405280600e81526020017f5472616e73666572204572726f72000000000000000000000000000000000000815250906102e8576040517f08c379a00000000000000000000000000000000000000000000000000000000081526004016102df9190610880565b60405180910390fd5b50610318610307670de0b6b3a76400008461051990919063ffffffff16565b60025461052e90919063ffffffff16565b6002819055506040518060600160405280610333600161050d565b81526020018381526020014281525060045f61034f600161050d565b81526020019081526020015f205f820151815f0155602082015181600101556040820151816002015590505060035f8473ffffffffffffffffffffffffffffffffffffffff1673ffffffffffffffffffffffffffffffffffffffff1681526020019081526020015f206103c2600161050d565b908060018154018082558091505060019003905f5260205f20015f90919091909150556103ef6001610543565b7fb58845b0a64f92dd8d1ba04f905319d6be2021b57783b3d10155e7e36a84e12883836040516104209291906108a0565b60405180910390a1600190505f805f6101000a81548160ff02191690831515021790555092915050565b5f805f9054906101000a900460ff1615610499576040517f08c379a00000000000000000000000000000000000000000000000000000000081526004016104909061074f565b60405180910390fd5b60015f806101000a81548160ff0219169083151502179055507f42567a6e9928273e7f8f57d3773e19cb04312e8abf5b2ea20dfd7e741f4c3e3b83836040516104e39291906108a0565b60405180910390a1600190505f805f6101000a81548160ff02191690831515021790555092915050565b5f815f01549050919050565b5f818361052691906108f4565b905092915050565b5f818361053b9190610935565b905092915050565b6001815f015f828254019250508190555050565b5f73ffffffffffffffffffffffffffffffffffffffff82169050919050565b5f819050919050565b5f61059961059461058f84610557565b610576565b610557565b9050919050565b5f6105aa8261057f565b9050919050565b5f6105bb826105a0565b9050919050565b6105cb816105b1565b82525050565b5f6020820190506105e45f8301846105c2565b92915050565b5f819050919050565b6105fc816105ea565b82525050565b5f6020820190506106155f8301846105f3565b92915050565b5f80fd5b5f61062982610557565b9050919050565b6106398161061f565b8114610643575f80fd5b50565b5f8135905061065481610630565b92915050565b610663816105ea565b811461066d575f80fd5b50565b5f8135905061067e8161065a565b92915050565b5f806040838503121561069a5761069961061b565b5b5f6106a785828601610646565b92505060206106b885828601610670565b9150509250929050565b5f8115159050919050565b6106d6816106c2565b82525050565b5f6020820190506106ef5f8301846106cd565b92915050565b5f82825260208201905092915050565b7f4e6f205265456e7472616e6379000000000000000000000000000000000000005f82015250565b5f610739600d836106f5565b915061074482610705565b602082019050919050565b5f6020820190508181035f8301526107668161072d565b9050919050565b6107768161061f565b82525050565b5f60608201905061078f5f83018661076d565b61079c602083018561076d565b6107a960408301846105f3565b949350505050565b6107ba816106c2565b81146107c4575f80fd5b50565b5f815190506107d5816107b1565b92915050565b5f602082840312156107f0576107ef61061b565b5b5f6107fd848285016107c7565b91505092915050565b5f81519050919050565b5f5b8381101561082d578082015181840152602081019050610812565b5f8484015250505050565b5f601f19601f8301169050919050565b5f61085282610806565b61085c81856106f5565b935061086c818560208601610810565b61087581610838565b840191505092915050565b5f6020820190508181035f8301526108988184610848565b905092915050565b5f6040820190506108b35f83018561076d565b6108c060208301846105f3565b9392505050565b7f4e487b71000000000000000000000000000000000000000000000000000000005f52601160045260245ffd5b5f6108fe826105ea565b9150610909836105ea565b9250828202610917816105ea565b9150828204841483151761092e5761092d6108c7565b5b5092915050565b5f61093f826105ea565b915061094a836105ea565b9250828201905080821115610962576109616108c7565b5b9291505056fea2646970667358221220e5159c7878dc2cb593eeb89a0d1d023e29bf9c71dda8ec11eef2c95eac4d9a9864736f6c63430008150033",
					"opcodes": "PUSH1 0x80 PUSH1 0x40 MSTORE PUSH3 0x15180 PUSH0 PUSH1 0x15 PUSH2 0x100 EXP DUP2 SLOAD DUP2 PUSH3 0xFFFFFF MUL NOT AND SWAP1 DUP4 PUSH3 0xFFFFFF AND MUL OR SWAP1 SSTORE POP CALLVALUE DUP1 ISZERO PUSH2 0x30 JUMPI PUSH0 DUP1 REVERT JUMPDEST POP PUSH1 0x40 MLOAD PUSH2 0xADD CODESIZE SUB DUP1 PUSH2 0xADD DUP4 CODECOPY DUP2 DUP2 ADD PUSH1 0x40 MSTORE DUP2 ADD SWAP1 PUSH2 0x52 SWAP2 SWAP1 PUSH2 0x107 JUMP JUMPDEST DUP1 PUSH0 PUSH1 0x1 PUSH2 0x100 EXP DUP2 SLOAD DUP2 PUSH20 0xFFFFFFFFFFFFFFFFFFFFFFFFFFFFFFFFFFFFFFFF MUL NOT AND SWAP1 DUP4 PUSH20 0xFFFFFFFFFFFFFFFFFFFFFFFFFFFFFFFFFFFFFFFF AND MUL OR SWAP1 SSTORE POP POP PUSH2 0x132 JUMP JUMPDEST PUSH0 DUP1 REVERT JUMPDEST PUSH0 PUSH20 0xFFFFFFFFFFFFFFFFFFFFFFFFFFFFFFFFFFFFFFFF DUP3 AND SWAP1 POP SWAP2 SWAP1 POP JUMP JUMPDEST PUSH0 PUSH2 0xC5 DUP3 PUSH2 0x9C JUMP JUMPDEST SWAP1 POP SWAP2 SWAP1 POP JUMP JUMPDEST PUSH0 PUSH2 0xD6 DUP3 PUSH2 0xBB JUMP JUMPDEST SWAP1 POP SWAP2 SWAP1 POP JUMP JUMPDEST PUSH2 0xE6 DUP2 PUSH2 0xCC JUMP JUMPDEST DUP2 EQ PUSH2 0xF0 JUMPI PUSH0 DUP1 REVERT JUMPDEST POP JUMP JUMPDEST PUSH0 DUP2 MLOAD SWAP1 POP PUSH2 0x101 DUP2 PUSH2 0xDD JUMP JUMPDEST SWAP3 SWAP2 POP POP JUMP JUMPDEST PUSH0 PUSH1 0x20 DUP3 DUP5 SUB SLT ISZERO PUSH2 0x11C JUMPI PUSH2 0x11B PUSH2 0x98 JUMP JUMPDEST JUMPDEST PUSH0 PUSH2 0x129 DUP5 DUP3 DUP6 ADD PUSH2 0xF3 JUMP JUMPDEST SWAP2 POP POP SWAP3 SWAP2 POP POP JUMP JUMPDEST PUSH2 0x99E DUP1 PUSH2 0x13F PUSH0 CODECOPY PUSH0 RETURN INVALID PUSH1 0x80 PUSH1 0x40 MSTORE CALLVALUE DUP1 ISZERO PUSH2 0xF JUMPI PUSH0 DUP1 REVERT JUMPDEST POP PUSH1 0x4 CALLDATASIZE LT PUSH2 0x55 JUMPI PUSH0 CALLDATALOAD PUSH1 0xE0 SHR DUP1 PUSH4 0x5335410 EQ PUSH2 0x59 JUMPI DUP1 PUSH4 0x917E776 EQ PUSH2 0x77 JUMPI DUP1 PUSH4 0x8E5D763F EQ PUSH2 0x95 JUMPI DUP1 PUSH4 0xADC9772E EQ PUSH2 0xB3 JUMPI DUP1 PUSH4 0xD9393814 EQ PUSH2 0xE3 JUMPI JUMPDEST PUSH0 DUP1 REVERT JUMPDEST PUSH2 0x61 PUSH2 0x113 JUMP JUMPDEST PUSH1 0x40 MLOAD PUSH2 0x6E SWAP2 SWAP1 PUSH2 0x5D1 JUMP JUMPDEST PUSH1 0x40 MLOAD DUP1 SWAP2 SUB SWAP1 RETURN JUMPDEST PUSH2 0x7F PUSH2 0x138 JUMP JUMPDEST PUSH1 0x40 MLOAD PUSH2 0x8C SWAP2 SWAP1 PUSH2 0x602 JUMP JUMPDEST PUSH1 0x40 MLOAD DUP1 SWAP2 SUB SWAP1 RETURN JUMPDEST PUSH2 0x9D PUSH2 0x141 JUMP JUMPDEST PUSH1 0x40 MLOAD PUSH2 0xAA SWAP2 SWAP1 PUSH2 0x602 JUMP JUMPDEST PUSH1 0x40 MLOAD DUP1 SWAP2 SUB SWAP1 RETURN JUMPDEST PUSH2 0xCD PUSH1 0x4 DUP1 CALLDATASIZE SUB DUP2 ADD SWAP1 PUSH2 0xC8 SWAP2 SWAP1 PUSH2 0x684 JUMP JUMPDEST PUSH2 0x151 JUMP JUMPDEST PUSH1 0x40 MLOAD PUSH2 0xDA SWAP2 SWAP1 PUSH2 0x6DC JUMP JUMPDEST PUSH1 0x40 MLOAD DUP1 SWAP2 SUB SWAP1 RETURN JUMPDEST PUSH2 0xFD PUSH1 0x4 DUP1 CALLDATASIZE SUB DUP2 ADD SWAP1 PUSH2 0xF8 SWAP2 SWAP1 PUSH2 0x684 JUMP JUMPDEST PUSH2 0x44A JUMP JUMPDEST PUSH1 0x40 MLOAD PUSH2 0x10A SWAP2 SWAP1 PUSH2 0x6DC JUMP JUMPDEST PUSH1 0x40 MLOAD DUP1 SWAP2 SUB SWAP1 RETURN JUMPDEST PUSH0 PUSH1 0x1 SWAP1 SLOAD SWAP1 PUSH2 0x100 EXP SWAP1 DIV PUSH20 0xFFFFFFFFFFFFFFFFFFFFFFFFFFFFFFFFFFFFFFFF AND DUP2 JUMP JUMPDEST PUSH0 PUSH1 0x2 SLOAD SWAP1 POP SWAP1 JUMP JUMPDEST PUSH0 PUSH2 0x14C PUSH1 0x1 PUSH2 0x50D JUMP JUMPDEST SWAP1 POP SWAP1 JUMP JUMPDEST PUSH0 DUP1 PUSH0 SWAP1 SLOAD SWAP1 PUSH2 0x100 EXP SWAP1 DIV PUSH1 0xFF AND ISZERO PUSH2 0x1A0 JUMPI PUSH1 0x40 MLOAD PUSH32 0x8C379A000000000000000000000000000000000000000000000000000000000 DUP2 MSTORE PUSH1 0x4 ADD PUSH2 0x197 SWAP1 PUSH2 0x74F JUMP JUMPDEST PUSH1 0x40 MLOAD DUP1 SWAP2 SUB SWAP1 REVERT JUMPDEST PUSH1 0x1 PUSH0 DUP1 PUSH2 0x100 EXP DUP2 SLOAD DUP2 PUSH1 0xFF MUL NOT AND SWAP1 DUP4 ISZERO ISZERO MUL OR SWAP1 SSTORE POP PUSH0 PUSH1 0x1 SWAP1 SLOAD SWAP1 PUSH2 0x100 EXP SWAP1 DIV PUSH20 0xFFFFFFFFFFFFFFFFFFFFFFFFFFFFFFFFFFFFFFFF AND PUSH20 0xFFFFFFFFFFFFFFFFFFFFFFFFFFFFFFFFFFFFFFFF AND PUSH4 0x469895C8 DUP5 ADDRESS PUSH2 0x213 PUSH8 0xDE0B6B3A7640000 DUP8 PUSH2 0x519 SWAP1 SWAP2 SWAP1 PUSH4 0xFFFFFFFF AND JUMP JUMPDEST PUSH1 0x40 MLOAD DUP5 PUSH4 0xFFFFFFFF AND PUSH1 0xE0 SHL DUP2 MSTORE PUSH1 0x4 ADD PUSH2 0x231 SWAP4 SWAP3 SWAP2 SWAP1 PUSH2 0x77C JUMP JUMPDEST PUSH1 0x20 PUSH1 0x40 MLOAD DUP1 DUP4 SUB DUP2 PUSH0 DUP8 GAS CALL ISZERO DUP1 ISZERO PUSH2 0x24D JUMPI RETURNDATASIZE PUSH0 DUP1 RETURNDATACOPY RETURNDATASIZE PUSH0 REVERT JUMPDEST POP POP POP POP PUSH1 0x40 MLOAD RETURNDATASIZE PUSH1 0x1F NOT PUSH1 0x1F DUP3 ADD AND DUP3 ADD DUP1 PUSH1 0x40 MSTORE POP DUP2 ADD SWAP1 PUSH2 0x271 SWAP2 SWAP1 PUSH2 0x7DB JUMP JUMPDEST PUSH1 0x40 MLOAD DUP1 PUSH1 0x40 ADD PUSH1 0x40 MSTORE DUP1 PUSH1 0xE DUP2 MSTORE PUSH1 0x20 ADD PUSH32 0x5472616E73666572204572726F72000000000000000000000000000000000000 DUP2 MSTORE POP SWAP1 PUSH2 0x2E8 JUMPI PUSH1 0x40 MLOAD PUSH32 0x8C379A000000000000000000000000000000000000000000000000000000000 DUP2 MSTORE PUSH1 0x4 ADD PUSH2 0x2DF SWAP2 SWAP1 PUSH2 0x880 JUMP JUMPDEST PUSH1 0x40 MLOAD DUP1 SWAP2 SUB SWAP1 REVERT JUMPDEST POP PUSH2 0x318 PUSH2 0x307 PUSH8 0xDE0B6B3A7640000 DUP5 PUSH2 0x519 SWAP1 SWAP2 SWAP1 PUSH4 0xFFFFFFFF AND JUMP JUMPDEST PUSH1 0x2 SLOAD PUSH2 0x52E SWAP1 SWAP2 SWAP1 PUSH4 0xFFFFFFFF AND JUMP JUMPDEST PUSH1 0x2 DUP2 SWAP1 SSTORE POP PUSH1 0x40 MLOAD DUP1 PUSH1 0x60 ADD PUSH1 0x40 MSTORE DUP1 PUSH2 0x333 PUSH1 0x1 PUSH2 0x50D JUMP JUMPDEST DUP2 MSTORE PUSH1 0x20 ADD DUP4 DUP2 MSTORE PUSH1 0x20 ADD TIMESTAMP DUP2 MSTORE POP PUSH1 0x4 PUSH0 PUSH2 0x34F PUSH1 0x1 PUSH2 0x50D JUMP JUMPDEST DUP2 MSTORE PUSH1 0x20 ADD SWAP1 DUP2 MSTORE PUSH1 0x20 ADD PUSH0 KECCAK256 PUSH0 DUP3 ADD MLOAD DUP2 PUSH0 ADD SSTORE PUSH1 0x20 DUP3 ADD MLOAD DUP2 PUSH1 0x1 ADD SSTORE PUSH1 0x40 DUP3 ADD MLOAD DUP2 PUSH1 0x2 ADD SSTORE SWAP1 POP POP PUSH1 0x3 PUSH0 DUP5 PUSH20 0xFFFFFFFFFFFFFFFFFFFFFFFFFFFFFFFFFFFFFFFF AND PUSH20 0xFFFFFFFFFFFFFFFFFFFFFFFFFFFFFFFFFFFFFFFF AND DUP2 MSTORE PUSH1 0x20 ADD SWAP1 DUP2 MSTORE PUSH1 0x20 ADD PUSH0 KECCAK256 PUSH2 0x3C2 PUSH1 0x1 PUSH2 0x50D JUMP JUMPDEST SWAP1 DUP1 PUSH1 0x1 DUP2 SLOAD ADD DUP1 DUP3 SSTORE DUP1 SWAP2 POP POP PUSH1 0x1 SWAP1 SUB SWAP1 PUSH0 MSTORE PUSH1 0x20 PUSH0 KECCAK256 ADD PUSH0 SWAP1 SWAP2 SWAP1 SWAP2 SWAP1 SWAP2 POP SSTORE PUSH2 0x3EF PUSH1 0x1 PUSH2 0x543 JUMP JUMPDEST PUSH32 0xB58845B0A64F92DD8D1BA04F905319D6BE2021B57783B3D10155E7E36A84E128 DUP4 DUP4 PUSH1 0x40 MLOAD PUSH2 0x420 SWAP3 SWAP2 SWAP1 PUSH2 0x8A0 JUMP JUMPDEST PUSH1 0x40 MLOAD DUP1 SWAP2 SUB SWAP1 LOG1 PUSH1 0x1 SWAP1 POP PUSH0 DUP1 PUSH0 PUSH2 0x100 EXP DUP2 SLOAD DUP2 PUSH1 0xFF MUL NOT AND SWAP1 DUP4 ISZERO ISZERO MUL OR SWAP1 SSTORE POP SWAP3 SWAP2 POP POP JUMP JUMPDEST PUSH0 DUP1 PUSH0 SWAP1 SLOAD SWAP1 PUSH2 0x100 EXP SWAP1 DIV PUSH1 0xFF AND ISZERO PUSH2 0x499 JUMPI PUSH1 0x40 MLOAD PUSH32 0x8C379A000000000000000000000000000000000000000000000000000000000 DUP2 MSTORE PUSH1 0x4 ADD PUSH2 0x490 SWAP1 PUSH2 0x74F JUMP JUMPDEST PUSH1 0x40 MLOAD DUP1 SWAP2 SUB SWAP1 REVERT JUMPDEST PUSH1 0x1 PUSH0 DUP1 PUSH2 0x100 EXP DUP2 SLOAD DUP2 PUSH1 0xFF MUL NOT AND SWAP1 DUP4 ISZERO ISZERO MUL OR SWAP1 SSTORE POP PUSH32 0x42567A6E9928273E7F8F57D3773E19CB04312E8ABF5B2EA20DFD7E741F4C3E3B DUP4 DUP4 PUSH1 0x40 MLOAD PUSH2 0x4E3 SWAP3 SWAP2 SWAP1 PUSH2 0x8A0 JUMP JUMPDEST PUSH1 0x40 MLOAD DUP1 SWAP2 SUB SWAP1 LOG1 PUSH1 0x1 SWAP1 POP PUSH0 DUP1 PUSH0 PUSH2 0x100 EXP DUP2 SLOAD DUP2 PUSH1 0xFF MUL NOT AND SWAP1 DUP4 ISZERO ISZERO MUL OR SWAP1 SSTORE POP SWAP3 SWAP2 POP POP JUMP JUMPDEST PUSH0 DUP2 PUSH0 ADD SLOAD SWAP1 POP SWAP2 SWAP1 POP JUMP JUMPDEST PUSH0 DUP2 DUP4 PUSH2 0x526 SWAP2 SWAP1 PUSH2 0x8F4 JUMP JUMPDEST SWAP1 POP SWAP3 SWAP2 POP POP JUMP JUMPDEST PUSH0 DUP2 DUP4 PUSH2 0x53B SWAP2 SWAP1 PUSH2 0x935 JUMP JUMPDEST SWAP1 POP SWAP3 SWAP2 POP POP JUMP JUMPDEST PUSH1 0x1 DUP2 PUSH0 ADD PUSH0 DUP3 DUP3 SLOAD ADD SWAP3 POP POP DUP2 SWAP1 SSTORE POP POP JUMP JUMPDEST PUSH0 PUSH20 0xFFFFFFFFFFFFFFFFFFFFFFFFFFFFFFFFFFFFFFFF DUP3 AND SWAP1 POP SWAP2 SWAP1 POP JUMP JUMPDEST PUSH0 DUP2 SWAP1 POP SWAP2 SWAP1 POP JUMP JUMPDEST PUSH0 PUSH2 0x599 PUSH2 0x594 PUSH2 0x58F DUP5 PUSH2 0x557 JUMP JUMPDEST PUSH2 0x576 JUMP JUMPDEST PUSH2 0x557 JUMP JUMPDEST SWAP1 POP SWAP2 SWAP1 POP JUMP JUMPDEST PUSH0 PUSH2 0x5AA DUP3 PUSH2 0x57F JUMP JUMPDEST SWAP1 POP SWAP2 SWAP1 POP JUMP JUMPDEST PUSH0 PUSH2 0x5BB DUP3 PUSH2 0x5A0 JUMP JUMPDEST SWAP1 POP SWAP2 SWAP1 POP JUMP JUMPDEST PUSH2 0x5CB DUP2 PUSH2 0x5B1 JUMP JUMPDEST DUP3 MSTORE POP POP JUMP JUMPDEST PUSH0 PUSH1 0x20 DUP3 ADD SWAP1 POP PUSH2 0x5E4 PUSH0 DUP4 ADD DUP5 PUSH2 0x5C2 JUMP JUMPDEST SWAP3 SWAP2 POP POP JUMP JUMPDEST PUSH0 DUP2 SWAP1 POP SWAP2 SWAP1 POP JUMP JUMPDEST PUSH2 0x5FC DUP2 PUSH2 0x5EA JUMP JUMPDEST DUP3 MSTORE POP POP JUMP JUMPDEST PUSH0 PUSH1 0x20 DUP3 ADD SWAP1 POP PUSH2 0x615 PUSH0 DUP4 ADD DUP5 PUSH2 0x5F3 JUMP JUMPDEST SWAP3 SWAP2 POP POP JUMP JUMPDEST PUSH0 DUP1 REVERT JUMPDEST PUSH0 PUSH2 0x629 DUP3 PUSH2 0x557 JUMP JUMPDEST SWAP1 POP SWAP2 SWAP1 POP JUMP JUMPDEST PUSH2 0x639 DUP2 PUSH2 0x61F JUMP JUMPDEST DUP2 EQ PUSH2 0x643 JUMPI PUSH0 DUP1 REVERT JUMPDEST POP JUMP JUMPDEST PUSH0 DUP2 CALLDATALOAD SWAP1 POP PUSH2 0x654 DUP2 PUSH2 0x630 JUMP JUMPDEST SWAP3 SWAP2 POP POP JUMP JUMPDEST PUSH2 0x663 DUP2 PUSH2 0x5EA JUMP JUMPDEST DUP2 EQ PUSH2 0x66D JUMPI PUSH0 DUP1 REVERT JUMPDEST POP JUMP JUMPDEST PUSH0 DUP2 CALLDATALOAD SWAP1 POP PUSH2 0x67E DUP2 PUSH2 0x65A JUMP JUMPDEST SWAP3 SWAP2 POP POP JUMP JUMPDEST PUSH0 DUP1 PUSH1 0x40 DUP4 DUP6 SUB SLT ISZERO PUSH2 0x69A JUMPI PUSH2 0x699 PUSH2 0x61B JUMP JUMPDEST JUMPDEST PUSH0 PUSH2 0x6A7 DUP6 DUP3 DUP7 ADD PUSH2 0x646 JUMP JUMPDEST SWAP3 POP POP PUSH1 0x20 PUSH2 0x6B8 DUP6 DUP3 DUP7 ADD PUSH2 0x670 JUMP JUMPDEST SWAP2 POP POP SWAP3 POP SWAP3 SWAP1 POP JUMP JUMPDEST PUSH0 DUP2 ISZERO ISZERO SWAP1 POP SWAP2 SWAP1 POP JUMP JUMPDEST PUSH2 0x6D6 DUP2 PUSH2 0x6C2 JUMP JUMPDEST DUP3 MSTORE POP POP JUMP JUMPDEST PUSH0 PUSH1 0x20 DUP3 ADD SWAP1 POP PUSH2 0x6EF PUSH0 DUP4 ADD DUP5 PUSH2 0x6CD JUMP JUMPDEST SWAP3 SWAP2 POP POP JUMP JUMPDEST PUSH0 DUP3 DUP3 MSTORE PUSH1 0x20 DUP3 ADD SWAP1 POP SWAP3 SWAP2 POP POP JUMP JUMPDEST PUSH32 0x4E6F205265456E7472616E637900000000000000000000000000000000000000 PUSH0 DUP3 ADD MSTORE POP JUMP JUMPDEST PUSH0 PUSH2 0x739 PUSH1 0xD DUP4 PUSH2 0x6F5 JUMP JUMPDEST SWAP2 POP PUSH2 0x744 DUP3 PUSH2 0x705 JUMP JUMPDEST PUSH1 0x20 DUP3 ADD SWAP1 POP SWAP2 SWAP1 POP JUMP JUMPDEST PUSH0 PUSH1 0x20 DUP3 ADD SWAP1 POP DUP2 DUP2 SUB PUSH0 DUP4 ADD MSTORE PUSH2 0x766 DUP2 PUSH2 0x72D JUMP JUMPDEST SWAP1 POP SWAP2 SWAP1 POP JUMP JUMPDEST PUSH2 0x776 DUP2 PUSH2 0x61F JUMP JUMPDEST DUP3 MSTORE POP POP JUMP JUMPDEST PUSH0 PUSH1 0x60 DUP3 ADD SWAP1 POP PUSH2 0x78F PUSH0 DUP4 ADD DUP7 PUSH2 0x76D JUMP JUMPDEST PUSH2 0x79C PUSH1 0x20 DUP4 ADD DUP6 PUSH2 0x76D JUMP JUMPDEST PUSH2 0x7A9 PUSH1 0x40 DUP4 ADD DUP5 PUSH2 0x5F3 JUMP JUMPDEST SWAP5 SWAP4 POP POP POP POP JUMP JUMPDEST PUSH2 0x7BA DUP2 PUSH2 0x6C2 JUMP JUMPDEST DUP2 EQ PUSH2 0x7C4 JUMPI PUSH0 DUP1 REVERT JUMPDEST POP JUMP JUMPDEST PUSH0 DUP2 MLOAD SWAP1 POP PUSH2 0x7D5 DUP2 PUSH2 0x7B1 JUMP JUMPDEST SWAP3 SWAP2 POP POP JUMP JUMPDEST PUSH0 PUSH1 0x20 DUP3 DUP5 SUB SLT ISZERO PUSH2 0x7F0 JUMPI PUSH2 0x7EF PUSH2 0x61B JUMP JUMPDEST JUMPDEST PUSH0 PUSH2 0x7FD DUP5 DUP3 DUP6 ADD PUSH2 0x7C7 JUMP JUMPDEST SWAP2 POP POP SWAP3 SWAP2 POP POP JUMP JUMPDEST PUSH0 DUP2 MLOAD SWAP1 POP SWAP2 SWAP1 POP JUMP JUMPDEST PUSH0 JUMPDEST DUP4 DUP2 LT ISZERO PUSH2 0x82D JUMPI DUP1 DUP3 ADD MLOAD DUP2 DUP5 ADD MSTORE PUSH1 0x20 DUP2 ADD SWAP1 POP PUSH2 0x812 JUMP JUMPDEST PUSH0 DUP5 DUP5 ADD MSTORE POP POP POP POP JUMP JUMPDEST PUSH0 PUSH1 0x1F NOT PUSH1 0x1F DUP4 ADD AND SWAP1 POP SWAP2 SWAP1 POP JUMP JUMPDEST PUSH0 PUSH2 0x852 DUP3 PUSH2 0x806 JUMP JUMPDEST PUSH2 0x85C DUP2 DUP6 PUSH2 0x6F5 JUMP JUMPDEST SWAP4 POP PUSH2 0x86C DUP2 DUP6 PUSH1 0x20 DUP7 ADD PUSH2 0x810 JUMP JUMPDEST PUSH2 0x875 DUP2 PUSH2 0x838 JUMP JUMPDEST DUP5 ADD SWAP2 POP POP SWAP3 SWAP2 POP POP JUMP JUMPDEST PUSH0 PUSH1 0x20 DUP3 ADD SWAP1 POP DUP2 DUP2 SUB PUSH0 DUP4 ADD MSTORE PUSH2 0x898 DUP2 DUP5 PUSH2 0x848 JUMP JUMPDEST SWAP1 POP SWAP3 SWAP2 POP POP JUMP JUMPDEST PUSH0 PUSH1 0x40 DUP3 ADD SWAP1 POP PUSH2 0x8B3 PUSH0 DUP4 ADD DUP6 PUSH2 0x76D JUMP JUMPDEST PUSH2 0x8C0 PUSH1 0x20 DUP4 ADD DUP5 PUSH2 0x5F3 JUMP JUMPDEST SWAP4 SWAP3 POP POP POP JUMP JUMPDEST PUSH32 0x4E487B7100000000000000000000000000000000000000000000000000000000 PUSH0 MSTORE PUSH1 0x11 PUSH1 0x4 MSTORE PUSH1 0x24 PUSH0 REVERT JUMPDEST PUSH0 PUSH2 0x8FE DUP3 PUSH2 0x5EA JUMP JUMPDEST SWAP2 POP PUSH2 0x909 DUP4 PUSH2 0x5EA JUMP JUMPDEST SWAP3 POP DUP3 DUP3 MUL PUSH2 0x917 DUP2 PUSH2 0x5EA JUMP JUMPDEST SWAP2 POP DUP3 DUP3 DIV DUP5 EQ DUP4 ISZERO OR PUSH2 0x92E JUMPI PUSH2 0x92D PUSH2 0x8C7 JUMP JUMPDEST JUMPDEST POP SWAP3 SWAP2 POP POP JUMP JUMPDEST PUSH0 PUSH2 0x93F DUP3 PUSH2 0x5EA JUMP JUMPDEST SWAP2 POP PUSH2 0x94A DUP4 PUSH2 0x5EA JUMP JUMPDEST SWAP3 POP DUP3 DUP3 ADD SWAP1 POP DUP1 DUP3 GT ISZERO PUSH2 0x962 JUMPI PUSH2 0x961 PUSH2 0x8C7 JUMP JUMPDEST JUMPDEST SWAP3 SWAP2 POP POP JUMP INVALID LOG2 PUSH5 0x6970667358 0x22 SLT KECCAK256 0xE5 ISZERO SWAP13 PUSH25 0x78DC2CB593EEB89A0D1D023E29BF9C71DDA8EC11EEF2C95EAC 0x4D SWAP11 SWAP9 PUSH5 0x736F6C6343 STOP ADDMOD ISZERO STOP CALLER "
				},
				"gasEstimates": {
					"creation": {
						"codeDepositCost": "492400",
						"executionCost": "infinite",
						"totalCost": "infinite"
					},
					"external": {
						"getTotalStakeNum()": "2501",
						"getTotalStaked()": "2432",
						"qveToken()": "infinite",
						"stake(address,uint256)": "infinite",
						"unStake(address,uint256)": "infinite"
					},
					"internal": {
						"claimStakeReward(uint256)": "infinite"
					}
				},
				"methodIdentifiers": {
					"getTotalStakeNum()": "8e5d763f",
					"getTotalStaked()": "0917e776",
					"qveToken()": "05335410",
					"stake(address,uint256)": "adc9772e",
					"unStake(address,uint256)": "d9393814"
				}
			},
			"storageLayout": {
				"storage": [
					{
						"astId": 1555,
						"contract": "src/QVEstaking.sol:QVEstaking",
						"label": "locked",
						"offset": 0,
						"slot": "0",
						"type": "t_bool"
					},
					{
						"astId": 1268,
						"contract": "src/QVEstaking.sol:QVEstaking",
						"label": "qveToken",
						"offset": 1,
						"slot": "0",
						"type": "t_contract(QVEtoken)1551"
					},
					{
						"astId": 1271,
						"contract": "src/QVEstaking.sol:QVEstaking",
						"label": "REWARD_PERIOD",
						"offset": 21,
						"slot": "0",
						"type": "t_uint24"
					},
					{
						"astId": 1278,
						"contract": "src/QVEstaking.sol:QVEstaking",
						"label": "StakeCount",
						"offset": 0,
						"slot": "1",
						"type": "t_struct(Counter)874_storage"
					},
					{
						"astId": 1302,
						"contract": "src/QVEstaking.sol:QVEstaking",
						"label": "totalStaked",
						"offset": 0,
						"slot": "2",
						"type": "t_uint256"
					},
					{
						"astId": 1307,
						"contract": "src/QVEstaking.sol:QVEstaking",
						"label": "ownedStake",
						"offset": 0,
						"slot": "3",
						"type": "t_mapping(t_address,t_array(t_uint256)dyn_storage)"
					},
					{
						"astId": 1312,
						"contract": "src/QVEstaking.sol:QVEstaking",
						"label": "stakeVault",
						"offset": 0,
						"slot": "4",
						"type": "t_mapping(t_uint256,t_struct(StakeDetail)1300_storage)"
					}
				],
				"types": {
					"t_address": {
						"encoding": "inplace",
						"label": "address",
						"numberOfBytes": "20"
					},
					"t_array(t_uint256)dyn_storage": {
						"base": "t_uint256",
						"encoding": "dynamic_array",
						"label": "uint256[]",
						"numberOfBytes": "32"
					},
					"t_bool": {
						"encoding": "inplace",
						"label": "bool",
						"numberOfBytes": "1"
					},
					"t_contract(QVEtoken)1551": {
						"encoding": "inplace",
						"label": "contract QVEtoken",
						"numberOfBytes": "20"
					},
					"t_mapping(t_address,t_array(t_uint256)dyn_storage)": {
						"encoding": "mapping",
						"key": "t_address",
						"label": "mapping(address => uint256[])",
						"numberOfBytes": "32",
						"value": "t_array(t_uint256)dyn_storage"
					},
					"t_mapping(t_uint256,t_struct(StakeDetail)1300_storage)": {
						"encoding": "mapping",
						"key": "t_uint256",
						"label": "mapping(uint256 => struct QVEstaking.StakeDetail)",
						"numberOfBytes": "32",
						"value": "t_struct(StakeDetail)1300_storage"
					},
					"t_struct(Counter)874_storage": {
						"encoding": "inplace",
						"label": "struct Counters.Counter",
						"members": [
							{
								"astId": 873,
								"contract": "src/QVEstaking.sol:QVEstaking",
								"label": "_value",
								"offset": 0,
								"slot": "0",
								"type": "t_uint256"
							}
						],
						"numberOfBytes": "32"
					},
					"t_struct(StakeDetail)1300_storage": {
						"encoding": "inplace",
						"label": "struct QVEstaking.StakeDetail",
						"members": [
							{
								"astId": 1295,
								"contract": "src/QVEstaking.sol:QVEstaking",
								"label": "stakeNum",
								"offset": 0,
								"slot": "0",
								"type": "t_uint256"
							},
							{
								"astId": 1297,
								"contract": "src/QVEstaking.sol:QVEstaking",
								"label": "tokenAmount",
								"offset": 0,
								"slot": "1",
								"type": "t_uint256"
							},
							{
								"astId": 1299,
								"contract": "src/QVEstaking.sol:QVEstaking",
								"label": "startBlock",
								"offset": 0,
								"slot": "2",
								"type": "t_uint256"
							}
						],
						"numberOfBytes": "96"
					},
					"t_uint24": {
						"encoding": "inplace",
						"label": "uint24",
						"numberOfBytes": "3"
					},
					"t_uint256": {
						"encoding": "inplace",
						"label": "uint256",
						"numberOfBytes": "32"
					}
				}
			},
			"userdoc": {
				"kind": "user",
				"methods": {},
				"version": 1
			}
		}
	}
}