{
	"data": {
		"bytecode": {
			"linkReferences": {},
			"object": "608060405262093a8060035534801561001757600080fd5b506040516109ff3803806109ff83398181016040528101906100399190610186565b816000806101000a81548173ffffffffffffffffffffffffffffffffffffffff021916908373ffffffffffffffffffffffffffffffffffffffff16021790555080600160006101000a81548173ffffffffffffffffffffffffffffffffffffffff021916908373ffffffffffffffffffffffffffffffffffffffff16021790555050506101c6565b600080fd5b600073ffffffffffffffffffffffffffffffffffffffff82169050919050565b60006100f1826100c6565b9050919050565b6000610103826100e6565b9050919050565b610113816100f8565b811461011e57600080fd5b50565b6000815190506101308161010a565b92915050565b6000610141826100c6565b9050919050565b600061015382610136565b9050919050565b61016381610148565b811461016e57600080fd5b50565b6000815190506101808161015a565b92915050565b6000806040838503121561019d5761019c6100c1565b5b60006101ab85828601610121565b92505060206101bc85828601610171565b9150509250929050565b61082a806101d56000396000f3fe6080604052600436106100345760003560e01c80630b2525f21461003957806314b87ced14610064578063616f5c6f14610094575b600080fd5b34801561004557600080fd5b5061004e6100bf565b60405161005b9190610451565b60405180910390f35b61007e60048036038101906100799190610505565b610177565b60405161008b9190610451565b60405180910390f35b3480156100a057600080fd5b506100a96102f6565b6040516100b69190610567565b60405180910390f35b60008060009054906101000a900473ffffffffffffffffffffffffffffffffffffffff1673ffffffffffffffffffffffffffffffffffffffff166336aac4536004546004546040518363ffffffff1660e01b81526004016101209190610567565b60206040518083038185885af115801561013e573d6000803e3d6000fd5b50505050506040513d601f19601f8201168201806040525081019061016391906105ae565b5061016f600454610302565b506001905090565b6000600160009054906101000a900473ffffffffffffffffffffffffffffffffffffffff1673ffffffffffffffffffffffffffffffffffffffff1663a51de246836040518263ffffffff1660e01b81526004016101d49190610567565b602060405180830381865afa1580156101f1573d6000803e3d6000fd5b505050506040513d601f19601f8201168201806040525081019061021591906105f0565b73ffffffffffffffffffffffffffffffffffffffff163373ffffffffffffffffffffffffffffffffffffffff1614610282576040517f08c379a00000000000000000000000000000000000000000000000000000000081526004016102799061067a565b60405180910390fd5b3484146040518060600160405280602281526020016107d360229139906102df576040517f08c379a00000000000000000000000000000000000000000000000000000000081526004016102d69190610719565b60405180910390fd5b506102ea3484610328565b50600190509392505050565b60028060000154905081565b6000610319826004546103f490919063ffffffff16565b60048190555060019050919050565b600061037f83600560008573ffffffffffffffffffffffffffffffffffffffff1673ffffffffffffffffffffffffffffffffffffffff1681526020019081526020016000206000015461040a90919063ffffffff16565b600560008473ffffffffffffffffffffffffffffffffffffffff1673ffffffffffffffffffffffffffffffffffffffff168152602001908152602001600020600001819055506103cf6002610420565b6103e48360045461040a90919063ffffffff16565b6004819055506001905092915050565b60008183610402919061076a565b905092915050565b60008183610418919061079e565b905092915050565b6001816000016000828254019250508190555050565b60008115159050919050565b61044b81610436565b82525050565b60006020820190506104666000830184610442565b92915050565b600080fd5b6000819050919050565b61048481610471565b811461048f57600080fd5b50565b6000813590506104a18161047b565b92915050565b600073ffffffffffffffffffffffffffffffffffffffff82169050919050565b60006104d2826104a7565b9050919050565b6104e2816104c7565b81146104ed57600080fd5b50565b6000813590506104ff816104d9565b92915050565b60008060006060848603121561051e5761051d61046c565b5b600061052c86828701610492565b935050602061053d868287016104f0565b925050604061054e86828701610492565b9150509250925092565b61056181610471565b82525050565b600060208201905061057c6000830184610558565b92915050565b61058b81610436565b811461059657600080fd5b50565b6000815190506105a881610582565b92915050565b6000602082840312156105c4576105c361046c565b5b60006105d284828501610599565b91505092915050565b6000815190506105ea816104d9565b92915050565b6000602082840312156106065761060561046c565b5b6000610614848285016105db565b91505092915050565b600082825260208201905092915050565b7f5761726e203a20696e76616c6964207374726174656779204164647265737300600082015250565b6000610664601f8361061d565b915061066f8261062e565b602082019050919050565b6000602082019050818103600083015261069381610657565b9050919050565b600081519050919050565b60005b838110156106c35780820151818401526020810190506106a8565b60008484015250505050565b6000601f19601f8301169050919050565b60006106eb8261069a565b6106f5818561061d565b93506107058185602086016106a5565b61070e816106cf565b840191505092915050565b6000602082019050818103600083015261073381846106e0565b905092915050565b7f4e487b7100000000000000000000000000000000000000000000000000000000600052601160045260246000fd5b600061077582610471565b915061078083610471565b92508282039050818111156107985761079761073b565b5b92915050565b60006107a982610471565b91506107b483610471565b92508282019050808211156107cc576107cb61073b565b5b9291505056fe5761726e203a20536574746c652046726f6d2053747261746567792077616c6c6574a26469706673582212202958be54af415b36e0aadfb84cc26faff05a8c9d2bf6488134b9f31c336b3f7c64736f6c63430008120033",
			"opcodes": "PUSH1 0x80 PUSH1 0x40 MSTORE PUSH3 0x93A80 PUSH1 0x3 SSTORE CALLVALUE DUP1 ISZERO PUSH2 0x17 JUMPI PUSH1 0x0 DUP1 REVERT JUMPDEST POP PUSH1 0x40 MLOAD PUSH2 0x9FF CODESIZE SUB DUP1 PUSH2 0x9FF DUP4 CODECOPY DUP2 DUP2 ADD PUSH1 0x40 MSTORE DUP2 ADD SWAP1 PUSH2 0x39 SWAP2 SWAP1 PUSH2 0x186 JUMP JUMPDEST DUP2 PUSH1 0x0 DUP1 PUSH2 0x100 EXP DUP2 SLOAD DUP2 PUSH20 0xFFFFFFFFFFFFFFFFFFFFFFFFFFFFFFFFFFFFFFFF MUL NOT AND SWAP1 DUP4 PUSH20 0xFFFFFFFFFFFFFFFFFFFFFFFFFFFFFFFFFFFFFFFF AND MUL OR SWAP1 SSTORE POP DUP1 PUSH1 0x1 PUSH1 0x0 PUSH2 0x100 EXP DUP2 SLOAD DUP2 PUSH20 0xFFFFFFFFFFFFFFFFFFFFFFFFFFFFFFFFFFFFFFFF MUL NOT AND SWAP1 DUP4 PUSH20 0xFFFFFFFFFFFFFFFFFFFFFFFFFFFFFFFFFFFFFFFF AND MUL OR SWAP1 SSTORE POP POP POP PUSH2 0x1C6 JUMP JUMPDEST PUSH1 0x0 DUP1 REVERT JUMPDEST PUSH1 0x0 PUSH20 0xFFFFFFFFFFFFFFFFFFFFFFFFFFFFFFFFFFFFFFFF DUP3 AND SWAP1 POP SWAP2 SWAP1 POP JUMP JUMPDEST PUSH1 0x0 PUSH2 0xF1 DUP3 PUSH2 0xC6 JUMP JUMPDEST SWAP1 POP SWAP2 SWAP1 POP JUMP JUMPDEST PUSH1 0x0 PUSH2 0x103 DUP3 PUSH2 0xE6 JUMP JUMPDEST SWAP1 POP SWAP2 SWAP1 POP JUMP JUMPDEST PUSH2 0x113 DUP2 PUSH2 0xF8 JUMP JUMPDEST DUP2 EQ PUSH2 0x11E JUMPI PUSH1 0x0 DUP1 REVERT JUMPDEST POP JUMP JUMPDEST PUSH1 0x0 DUP2 MLOAD SWAP1 POP PUSH2 0x130 DUP2 PUSH2 0x10A JUMP JUMPDEST SWAP3 SWAP2 POP POP JUMP JUMPDEST PUSH1 0x0 PUSH2 0x141 DUP3 PUSH2 0xC6 JUMP JUMPDEST SWAP1 POP SWAP2 SWAP1 POP JUMP JUMPDEST PUSH1 0x0 PUSH2 0x153 DUP3 PUSH2 0x136 JUMP JUMPDEST SWAP1 POP SWAP2 SWAP1 POP JUMP JUMPDEST PUSH2 0x163 DUP2 PUSH2 0x148 JUMP JUMPDEST DUP2 EQ PUSH2 0x16E JUMPI PUSH1 0x0 DUP1 REVERT JUMPDEST POP JUMP JUMPDEST PUSH1 0x0 DUP2 MLOAD SWAP1 POP PUSH2 0x180 DUP2 PUSH2 0x15A JUMP JUMPDEST SWAP3 SWAP2 POP POP JUMP JUMPDEST PUSH1 0x0 DUP1 PUSH1 0x40 DUP4 DUP6 SUB SLT ISZERO PUSH2 0x19D JUMPI PUSH2 0x19C PUSH2 0xC1 JUMP JUMPDEST JUMPDEST PUSH1 0x0 PUSH2 0x1AB DUP6 DUP3 DUP7 ADD PUSH2 0x121 JUMP JUMPDEST SWAP3 POP POP PUSH1 0x20 PUSH2 0x1BC DUP6 DUP3 DUP7 ADD PUSH2 0x171 JUMP JUMPDEST SWAP2 POP POP SWAP3 POP SWAP3 SWAP1 POP JUMP JUMPDEST PUSH2 0x82A DUP1 PUSH2 0x1D5 PUSH1 0x0 CODECOPY PUSH1 0x0 RETURN INVALID PUSH1 0x80 PUSH1 0x40 MSTORE PUSH1 0x4 CALLDATASIZE LT PUSH2 0x34 JUMPI PUSH1 0x0 CALLDATALOAD PUSH1 0xE0 SHR DUP1 PUSH4 0xB2525F2 EQ PUSH2 0x39 JUMPI DUP1 PUSH4 0x14B87CED EQ PUSH2 0x64 JUMPI DUP1 PUSH4 0x616F5C6F EQ PUSH2 0x94 JUMPI JUMPDEST PUSH1 0x0 DUP1 REVERT JUMPDEST CALLVALUE DUP1 ISZERO PUSH2 0x45 JUMPI PUSH1 0x0 DUP1 REVERT JUMPDEST POP PUSH2 0x4E PUSH2 0xBF JUMP JUMPDEST PUSH1 0x40 MLOAD PUSH2 0x5B SWAP2 SWAP1 PUSH2 0x451 JUMP JUMPDEST PUSH1 0x40 MLOAD DUP1 SWAP2 SUB SWAP1 RETURN JUMPDEST PUSH2 0x7E PUSH1 0x4 DUP1 CALLDATASIZE SUB DUP2 ADD SWAP1 PUSH2 0x79 SWAP2 SWAP1 PUSH2 0x505 JUMP JUMPDEST PUSH2 0x177 JUMP JUMPDEST PUSH1 0x40 MLOAD PUSH2 0x8B SWAP2 SWAP1 PUSH2 0x451 JUMP JUMPDEST PUSH1 0x40 MLOAD DUP1 SWAP2 SUB SWAP1 RETURN JUMPDEST CALLVALUE DUP1 ISZERO PUSH2 0xA0 JUMPI PUSH1 0x0 DUP1 REVERT JUMPDEST POP PUSH2 0xA9 PUSH2 0x2F6 JUMP JUMPDEST PUSH1 0x40 MLOAD PUSH2 0xB6 SWAP2 SWAP1 PUSH2 0x567 JUMP JUMPDEST PUSH1 0x40 MLOAD DUP1 SWAP2 SUB SWAP1 RETURN JUMPDEST PUSH1 0x0 DUP1 PUSH1 0x0 SWAP1 SLOAD SWAP1 PUSH2 0x100 EXP SWAP1 DIV PUSH20 0xFFFFFFFFFFFFFFFFFFFFFFFFFFFFFFFFFFFFFFFF AND PUSH20 0xFFFFFFFFFFFFFFFFFFFFFFFFFFFFFFFFFFFFFFFF AND PUSH4 0x36AAC453 PUSH1 0x4 SLOAD PUSH1 0x4 SLOAD PUSH1 0x40 MLOAD DUP4 PUSH4 0xFFFFFFFF AND PUSH1 0xE0 SHL DUP2 MSTORE PUSH1 0x4 ADD PUSH2 0x120 SWAP2 SWAP1 PUSH2 0x567 JUMP JUMPDEST PUSH1 0x20 PUSH1 0x40 MLOAD DUP1 DUP4 SUB DUP2 DUP6 DUP9 GAS CALL ISZERO DUP1 ISZERO PUSH2 0x13E JUMPI RETURNDATASIZE PUSH1 0x0 DUP1 RETURNDATACOPY RETURNDATASIZE PUSH1 0x0 REVERT JUMPDEST POP POP POP POP POP PUSH1 0x40 MLOAD RETURNDATASIZE PUSH1 0x1F NOT PUSH1 0x1F DUP3 ADD AND DUP3 ADD DUP1 PUSH1 0x40 MSTORE POP DUP2 ADD SWAP1 PUSH2 0x163 SWAP2 SWAP1 PUSH2 0x5AE JUMP JUMPDEST POP PUSH2 0x16F PUSH1 0x4 SLOAD PUSH2 0x302 JUMP JUMPDEST POP PUSH1 0x1 SWAP1 POP SWAP1 JUMP JUMPDEST PUSH1 0x0 PUSH1 0x1 PUSH1 0x0 SWAP1 SLOAD SWAP1 PUSH2 0x100 EXP SWAP1 DIV PUSH20 0xFFFFFFFFFFFFFFFFFFFFFFFFFFFFFFFFFFFFFFFF AND PUSH20 0xFFFFFFFFFFFFFFFFFFFFFFFFFFFFFFFFFFFFFFFF AND PUSH4 0xA51DE246 DUP4 PUSH1 0x40 MLOAD DUP3 PUSH4 0xFFFFFFFF AND PUSH1 0xE0 SHL DUP2 MSTORE PUSH1 0x4 ADD PUSH2 0x1D4 SWAP2 SWAP1 PUSH2 0x567 JUMP JUMPDEST PUSH1 0x20 PUSH1 0x40 MLOAD DUP1 DUP4 SUB DUP2 DUP7 GAS STATICCALL ISZERO DUP1 ISZERO PUSH2 0x1F1 JUMPI RETURNDATASIZE PUSH1 0x0 DUP1 RETURNDATACOPY RETURNDATASIZE PUSH1 0x0 REVERT JUMPDEST POP POP POP POP PUSH1 0x40 MLOAD RETURNDATASIZE PUSH1 0x1F NOT PUSH1 0x1F DUP3 ADD AND DUP3 ADD DUP1 PUSH1 0x40 MSTORE POP DUP2 ADD SWAP1 PUSH2 0x215 SWAP2 SWAP1 PUSH2 0x5F0 JUMP JUMPDEST PUSH20 0xFFFFFFFFFFFFFFFFFFFFFFFFFFFFFFFFFFFFFFFF AND CALLER PUSH20 0xFFFFFFFFFFFFFFFFFFFFFFFFFFFFFFFFFFFFFFFF AND EQ PUSH2 0x282 JUMPI PUSH1 0x40 MLOAD PUSH32 0x8C379A000000000000000000000000000000000000000000000000000000000 DUP2 MSTORE PUSH1 0x4 ADD PUSH2 0x279 SWAP1 PUSH2 0x67A JUMP JUMPDEST PUSH1 0x40 MLOAD DUP1 SWAP2 SUB SWAP1 REVERT JUMPDEST CALLVALUE DUP5 EQ PUSH1 0x40 MLOAD DUP1 PUSH1 0x60 ADD PUSH1 0x40 MSTORE DUP1 PUSH1 0x22 DUP2 MSTORE PUSH1 0x20 ADD PUSH2 0x7D3 PUSH1 0x22 SWAP2 CODECOPY SWAP1 PUSH2 0x2DF JUMPI PUSH1 0x40 MLOAD PUSH32 0x8C379A000000000000000000000000000000000000000000000000000000000 DUP2 MSTORE PUSH1 0x4 ADD PUSH2 0x2D6 SWAP2 SWAP1 PUSH2 0x719 JUMP JUMPDEST PUSH1 0x40 MLOAD DUP1 SWAP2 SUB SWAP1 REVERT JUMPDEST POP PUSH2 0x2EA CALLVALUE DUP5 PUSH2 0x328 JUMP JUMPDEST POP PUSH1 0x1 SWAP1 POP SWAP4 SWAP3 POP POP POP JUMP JUMPDEST PUSH1 0x2 DUP1 PUSH1 0x0 ADD SLOAD SWAP1 POP DUP2 JUMP JUMPDEST PUSH1 0x0 PUSH2 0x319 DUP3 PUSH1 0x4 SLOAD PUSH2 0x3F4 SWAP1 SWAP2 SWAP1 PUSH4 0xFFFFFFFF AND JUMP JUMPDEST PUSH1 0x4 DUP2 SWAP1 SSTORE POP PUSH1 0x1 SWAP1 POP SWAP2 SWAP1 POP JUMP JUMPDEST PUSH1 0x0 PUSH2 0x37F DUP4 PUSH1 0x5 PUSH1 0x0 DUP6 PUSH20 0xFFFFFFFFFFFFFFFFFFFFFFFFFFFFFFFFFFFFFFFF AND PUSH20 0xFFFFFFFFFFFFFFFFFFFFFFFFFFFFFFFFFFFFFFFF AND DUP2 MSTORE PUSH1 0x20 ADD SWAP1 DUP2 MSTORE PUSH1 0x20 ADD PUSH1 0x0 KECCAK256 PUSH1 0x0 ADD SLOAD PUSH2 0x40A SWAP1 SWAP2 SWAP1 PUSH4 0xFFFFFFFF AND JUMP JUMPDEST PUSH1 0x5 PUSH1 0x0 DUP5 PUSH20 0xFFFFFFFFFFFFFFFFFFFFFFFFFFFFFFFFFFFFFFFF AND PUSH20 0xFFFFFFFFFFFFFFFFFFFFFFFFFFFFFFFFFFFFFFFF AND DUP2 MSTORE PUSH1 0x20 ADD SWAP1 DUP2 MSTORE PUSH1 0x20 ADD PUSH1 0x0 KECCAK256 PUSH1 0x0 ADD DUP2 SWAP1 SSTORE POP PUSH2 0x3CF PUSH1 0x2 PUSH2 0x420 JUMP JUMPDEST PUSH2 0x3E4 DUP4 PUSH1 0x4 SLOAD PUSH2 0x40A SWAP1 SWAP2 SWAP1 PUSH4 0xFFFFFFFF AND JUMP JUMPDEST PUSH1 0x4 DUP2 SWAP1 SSTORE POP PUSH1 0x1 SWAP1 POP SWAP3 SWAP2 POP POP JUMP JUMPDEST PUSH1 0x0 DUP2 DUP4 PUSH2 0x402 SWAP2 SWAP1 PUSH2 0x76A JUMP JUMPDEST SWAP1 POP SWAP3 SWAP2 POP POP JUMP JUMPDEST PUSH1 0x0 DUP2 DUP4 PUSH2 0x418 SWAP2 SWAP1 PUSH2 0x79E JUMP JUMPDEST SWAP1 POP SWAP3 SWAP2 POP POP JUMP JUMPDEST PUSH1 0x1 DUP2 PUSH1 0x0 ADD PUSH1 0x0 DUP3 DUP3 SLOAD ADD SWAP3 POP POP DUP2 SWAP1 SSTORE POP POP JUMP JUMPDEST PUSH1 0x0 DUP2 ISZERO ISZERO SWAP1 POP SWAP2 SWAP1 POP JUMP JUMPDEST PUSH2 0x44B DUP2 PUSH2 0x436 JUMP JUMPDEST DUP3 MSTORE POP POP JUMP JUMPDEST PUSH1 0x0 PUSH1 0x20 DUP3 ADD SWAP1 POP PUSH2 0x466 PUSH1 0x0 DUP4 ADD DUP5 PUSH2 0x442 JUMP JUMPDEST SWAP3 SWAP2 POP POP JUMP JUMPDEST PUSH1 0x0 DUP1 REVERT JUMPDEST PUSH1 0x0 DUP2 SWAP1 POP SWAP2 SWAP1 POP JUMP JUMPDEST PUSH2 0x484 DUP2 PUSH2 0x471 JUMP JUMPDEST DUP2 EQ PUSH2 0x48F JUMPI PUSH1 0x0 DUP1 REVERT JUMPDEST POP JUMP JUMPDEST PUSH1 0x0 DUP2 CALLDATALOAD SWAP1 POP PUSH2 0x4A1 DUP2 PUSH2 0x47B JUMP JUMPDEST SWAP3 SWAP2 POP POP JUMP JUMPDEST PUSH1 0x0 PUSH20 0xFFFFFFFFFFFFFFFFFFFFFFFFFFFFFFFFFFFFFFFF DUP3 AND SWAP1 POP SWAP2 SWAP1 POP JUMP JUMPDEST PUSH1 0x0 PUSH2 0x4D2 DUP3 PUSH2 0x4A7 JUMP JUMPDEST SWAP1 POP SWAP2 SWAP1 POP JUMP JUMPDEST PUSH2 0x4E2 DUP2 PUSH2 0x4C7 JUMP JUMPDEST DUP2 EQ PUSH2 0x4ED JUMPI PUSH1 0x0 DUP1 REVERT JUMPDEST POP JUMP JUMPDEST PUSH1 0x0 DUP2 CALLDATALOAD SWAP1 POP PUSH2 0x4FF DUP2 PUSH2 0x4D9 JUMP JUMPDEST SWAP3 SWAP2 POP POP JUMP JUMPDEST PUSH1 0x0 DUP1 PUSH1 0x0 PUSH1 0x60 DUP5 DUP7 SUB SLT ISZERO PUSH2 0x51E JUMPI PUSH2 0x51D PUSH2 0x46C JUMP JUMPDEST JUMPDEST PUSH1 0x0 PUSH2 0x52C DUP7 DUP3 DUP8 ADD PUSH2 0x492 JUMP JUMPDEST SWAP4 POP POP PUSH1 0x20 PUSH2 0x53D DUP7 DUP3 DUP8 ADD PUSH2 0x4F0 JUMP JUMPDEST SWAP3 POP POP PUSH1 0x40 PUSH2 0x54E DUP7 DUP3 DUP8 ADD PUSH2 0x492 JUMP JUMPDEST SWAP2 POP POP SWAP3 POP SWAP3 POP SWAP3 JUMP JUMPDEST PUSH2 0x561 DUP2 PUSH2 0x471 JUMP JUMPDEST DUP3 MSTORE POP POP JUMP JUMPDEST PUSH1 0x0 PUSH1 0x20 DUP3 ADD SWAP1 POP PUSH2 0x57C PUSH1 0x0 DUP4 ADD DUP5 PUSH2 0x558 JUMP JUMPDEST SWAP3 SWAP2 POP POP JUMP JUMPDEST PUSH2 0x58B DUP2 PUSH2 0x436 JUMP JUMPDEST DUP2 EQ PUSH2 0x596 JUMPI PUSH1 0x0 DUP1 REVERT JUMPDEST POP JUMP JUMPDEST PUSH1 0x0 DUP2 MLOAD SWAP1 POP PUSH2 0x5A8 DUP2 PUSH2 0x582 JUMP JUMPDEST SWAP3 SWAP2 POP POP JUMP JUMPDEST PUSH1 0x0 PUSH1 0x20 DUP3 DUP5 SUB SLT ISZERO PUSH2 0x5C4 JUMPI PUSH2 0x5C3 PUSH2 0x46C JUMP JUMPDEST JUMPDEST PUSH1 0x0 PUSH2 0x5D2 DUP5 DUP3 DUP6 ADD PUSH2 0x599 JUMP JUMPDEST SWAP2 POP POP SWAP3 SWAP2 POP POP JUMP JUMPDEST PUSH1 0x0 DUP2 MLOAD SWAP1 POP PUSH2 0x5EA DUP2 PUSH2 0x4D9 JUMP JUMPDEST SWAP3 SWAP2 POP POP JUMP JUMPDEST PUSH1 0x0 PUSH1 0x20 DUP3 DUP5 SUB SLT ISZERO PUSH2 0x606 JUMPI PUSH2 0x605 PUSH2 0x46C JUMP JUMPDEST JUMPDEST PUSH1 0x0 PUSH2 0x614 DUP5 DUP3 DUP6 ADD PUSH2 0x5DB JUMP JUMPDEST SWAP2 POP POP SWAP3 SWAP2 POP POP JUMP JUMPDEST PUSH1 0x0 DUP3 DUP3 MSTORE PUSH1 0x20 DUP3 ADD SWAP1 POP SWAP3 SWAP2 POP POP JUMP JUMPDEST PUSH32 0x5761726E203A20696E76616C6964207374726174656779204164647265737300 PUSH1 0x0 DUP3 ADD MSTORE POP JUMP JUMPDEST PUSH1 0x0 PUSH2 0x664 PUSH1 0x1F DUP4 PUSH2 0x61D JUMP JUMPDEST SWAP2 POP PUSH2 0x66F DUP3 PUSH2 0x62E JUMP JUMPDEST PUSH1 0x20 DUP3 ADD SWAP1 POP SWAP2 SWAP1 POP JUMP JUMPDEST PUSH1 0x0 PUSH1 0x20 DUP3 ADD SWAP1 POP DUP2 DUP2 SUB PUSH1 0x0 DUP4 ADD MSTORE PUSH2 0x693 DUP2 PUSH2 0x657 JUMP JUMPDEST SWAP1 POP SWAP2 SWAP1 POP JUMP JUMPDEST PUSH1 0x0 DUP2 MLOAD SWAP1 POP SWAP2 SWAP1 POP JUMP JUMPDEST PUSH1 0x0 JUMPDEST DUP4 DUP2 LT ISZERO PUSH2 0x6C3 JUMPI DUP1 DUP3 ADD MLOAD DUP2 DUP5 ADD MSTORE PUSH1 0x20 DUP2 ADD SWAP1 POP PUSH2 0x6A8 JUMP JUMPDEST PUSH1 0x0 DUP5 DUP5 ADD MSTORE POP POP POP POP JUMP JUMPDEST PUSH1 0x0 PUSH1 0x1F NOT PUSH1 0x1F DUP4 ADD AND SWAP1 POP SWAP2 SWAP1 POP JUMP JUMPDEST PUSH1 0x0 PUSH2 0x6EB DUP3 PUSH2 0x69A JUMP JUMPDEST PUSH2 0x6F5 DUP2 DUP6 PUSH2 0x61D JUMP JUMPDEST SWAP4 POP PUSH2 0x705 DUP2 DUP6 PUSH1 0x20 DUP7 ADD PUSH2 0x6A5 JUMP JUMPDEST PUSH2 0x70E DUP2 PUSH2 0x6CF JUMP JUMPDEST DUP5 ADD SWAP2 POP POP SWAP3 SWAP2 POP POP JUMP JUMPDEST PUSH1 0x0 PUSH1 0x20 DUP3 ADD SWAP1 POP DUP2 DUP2 SUB PUSH1 0x0 DUP4 ADD MSTORE PUSH2 0x733 DUP2 DUP5 PUSH2 0x6E0 JUMP JUMPDEST SWAP1 POP SWAP3 SWAP2 POP POP JUMP JUMPDEST PUSH32 0x4E487B7100000000000000000000000000000000000000000000000000000000 PUSH1 0x0 MSTORE PUSH1 0x11 PUSH1 0x4 MSTORE PUSH1 0x24 PUSH1 0x0 REVERT JUMPDEST PUSH1 0x0 PUSH2 0x775 DUP3 PUSH2 0x471 JUMP JUMPDEST SWAP2 POP PUSH2 0x780 DUP4 PUSH2 0x471 JUMP JUMPDEST SWAP3 POP DUP3 DUP3 SUB SWAP1 POP DUP2 DUP2 GT ISZERO PUSH2 0x798 JUMPI PUSH2 0x797 PUSH2 0x73B JUMP JUMPDEST JUMPDEST SWAP3 SWAP2 POP POP JUMP JUMPDEST PUSH1 0x0 PUSH2 0x7A9 DUP3 PUSH2 0x471 JUMP JUMPDEST SWAP2 POP PUSH2 0x7B4 DUP4 PUSH2 0x471 JUMP JUMPDEST SWAP3 POP DUP3 DUP3 ADD SWAP1 POP DUP1 DUP3 GT ISZERO PUSH2 0x7CC JUMPI PUSH2 0x7CB PUSH2 0x73B JUMP JUMPDEST JUMPDEST SWAP3 SWAP2 POP POP JUMP INVALID JUMPI PUSH2 0x726E KECCAK256 GASPRICE KECCAK256 MSTORE8 PUSH6 0x74746C652046 PUSH19 0x6F6D2053747261746567792077616C6C6574A2 PUSH5 0x6970667358 0x22 SLT KECCAK256 0x29 PC 0xBE SLOAD 0xAF COINBASE JUMPDEST CALLDATASIZE 0xE0 0xAA 0xDF 0xB8 0x4C 0xC2 PUSH16 0xAFF05A8C9D2BF6488134B9F31C336B3F PUSH29 0x64736F6C63430008120033000000000000000000000000000000000000 "
		},
		"gasEstimates": {
			"creation": {
				"codeDepositCost": "418000",
				"executionCost": "infinite",
				"totalCost": "infinite"
			},
			"external": {
				"SendToUnstakeAccount_()": "infinite",
				"SettleFromStrategy_(uint256,address,uint256)": "infinite",
				"totalSettle()": "2465"
			},
			"internal": {
				"_SettleAfter(uint256,address)": "infinite",
				"_unstakeAfter(uint256)": "infinite"
			}
		},
		"methodIdentifiers": {
			"SendToUnstakeAccount_()": "0b2525f2",
			"SettleFromStrategy_(uint256,address,uint256)": "14b87ced",
			"totalSettle()": "616f5c6f"
		}
	},
	"abi": [
		{
			"inputs": [
				{
					"internalType": "contract QVEstaking",
					"name": "_qveStaking",
					"type": "address"
				},
				{
					"internalType": "contract QVEcore",
					"name": "_qveCore",
					"type": "address"
				}
			],
			"stateMutability": "nonpayable",
			"type": "constructor"
		},
		{
			"inputs": [],
			"name": "SendToUnstakeAccount_",
			"outputs": [
				{
					"internalType": "bool",
					"name": "",
					"type": "bool"
				}
			],
			"stateMutability": "nonpayable",
			"type": "function"
		},
		{
			"inputs": [
				{
					"internalType": "uint256",
					"name": "amount",
					"type": "uint256"
				},
				{
					"internalType": "address",
					"name": "sender",
					"type": "address"
				},
				{
					"internalType": "uint256",
					"name": "strategy",
					"type": "uint256"
				}
			],
			"name": "SettleFromStrategy_",
			"outputs": [
				{
					"internalType": "bool",
					"name": "",
					"type": "bool"
				}
			],
			"stateMutability": "payable",
			"type": "function"
		},
		{
			"inputs": [],
			"name": "totalSettle",
			"outputs": [
				{
					"internalType": "uint256",
					"name": "_value",
					"type": "uint256"
				}
			],
			"stateMutability": "view",
			"type": "function"
		}
	]
}