{
	"data": {
		"bytecode": {
			"linkReferences": {},
			"object": "60806040523480156200001157600080fd5b5060405162004d9438038062004d9483398181016040528101906200003791906200037f565b620000576200004b6200016560201b60201c565b6200016d60201b60201c565b83600360006101000a81548173ffffffffffffffffffffffffffffffffffffffff021916908373ffffffffffffffffffffffffffffffffffffffff16021790555082600460006101000a81548173ffffffffffffffffffffffffffffffffffffffff021916908373ffffffffffffffffffffffffffffffffffffffff16021790555081600560006101000a81548173ffffffffffffffffffffffffffffffffffffffff021916908373ffffffffffffffffffffffffffffffffffffffff16021790555080600660006101000a81548173ffffffffffffffffffffffffffffffffffffffff021916908373ffffffffffffffffffffffffffffffffffffffff16021790555050505050620003f1565b600033905090565b60008060019054906101000a900473ffffffffffffffffffffffffffffffffffffffff16905081600060016101000a81548173ffffffffffffffffffffffffffffffffffffffff021916908373ffffffffffffffffffffffffffffffffffffffff1602179055508173ffffffffffffffffffffffffffffffffffffffff168173ffffffffffffffffffffffffffffffffffffffff167f8be0079c531659141344cd1fd0a4f28419497f9722a3daafe3b4186f6b6457e060405160405180910390a35050565b600080fd5b600073ffffffffffffffffffffffffffffffffffffffff82169050919050565b6000620002648262000237565b9050919050565b6000620002788262000257565b9050919050565b6200028a816200026b565b81146200029657600080fd5b50565b600081519050620002aa816200027f565b92915050565b6000620002bd8262000257565b9050919050565b620002cf81620002b0565b8114620002db57600080fd5b50565b600081519050620002ef81620002c4565b92915050565b6000620003028262000257565b9050919050565b6200031481620002f5565b81146200032057600080fd5b50565b600081519050620003348162000309565b92915050565b6000620003478262000257565b9050919050565b62000359816200033a565b81146200036557600080fd5b50565b60008151905062000379816200034e565b92915050565b600080600080608085870312156200039c576200039b62000232565b5b6000620003ac8782880162000299565b9450506020620003bf87828801620002de565b9350506040620003d28782880162000323565b9250506060620003e58782880162000368565b91505092959194509250565b61499380620004016000396000f3fe6080604052600436106102135760003560e01c80636d95381e11610118578063bc338ae9116100a0578063dbe30d451161006f578063dbe30d45146108b6578063ef071bcd146108f3578063ef8969651461091e578063f2fde38b1461095b578063faac43251461098457610268565b8063bc338ae9146107d4578063c37601d614610811578063d574ea3d1461084e578063d68fbd661461088d57610268565b80638866b937116100e75780638866b937146106d95780638da5cb5b146107045780639f62e7961461072f578063a51de2461461075a578063b6ae980e1461079757610268565b80636d95381e1461060b578063715018a6146106485780637a378e051461065f57806383ce61471461069c57610268565b80634ede96661161019b5780635948be3b1161016a5780635948be3b146105065780635ac6699314610545578063617ef8501461057057806369394135146105b05780636c7b77fc146105db57610268565b80634ede96661461043e57806350cea7661461046e578063510b7f981461049e57806356289c29146104c957610268565b80631f6ce039116101e25780631f6ce0391461033e5780632adcbebd1461037b5780632b1c4158146103a65780633ee5191d146103d15780634d2301cc1461040157610268565b80630e301d241461026d578063150b7a02146102995780631552e770146102d65780631eb5c7ae1461030157610268565b36610268573373ffffffffffffffffffffffffffffffffffffffff167f88a5966d370b9919b20f3e2c13ff65706f196a4e32cc2c12bf57088f885258743460405161025e9190613253565b60405180910390a2005b600080fd5b34801561027957600080fd5b506102826109ad565b60405161029092919061326e565b60405180910390f35b3480156102a557600080fd5b506102c060048036038101906102bb9190613390565b6109bf565b6040516102cd9190613453565b60405180910390f35b3480156102e257600080fd5b506102eb610a63565b6040516102f89190613253565b60405180910390f35b34801561030d57600080fd5b506103286004803603810190610323919061346e565b610a70565b6040516103359190613253565b60405180910390f35b34801561034a57600080fd5b506103656004803603810190610360919061346e565b610a8d565b60405161037291906134aa565b60405180910390f35b34801561038757600080fd5b50610390610aca565b60405161039d9190613524565b60405180910390f35b3480156103b257600080fd5b506103bb610af0565b6040516103c89190613560565b60405180910390f35b6103eb60048036038101906103e6919061346e565b610b16565b6040516103f89190613596565b60405180910390f35b34801561040d57600080fd5b50610428600480360381019061042391906135b1565b610baa565b6040516104359190613253565b60405180910390f35b6104586004803603810190610453919061346e565b610bcb565b6040516104659190613596565b60405180910390f35b610488600480360381019061048391906135de565b610c66565b6040516104959190613596565b60405180910390f35b3480156104aa57600080fd5b506104b3610d2a565b6040516104c0919061363f565b60405180910390f35b3480156104d557600080fd5b506104f060048036038101906104eb919061346e565b610d50565b6040516104fd9190613596565b60405180910390f35b34801561051257600080fd5b5061052d6004803603810190610528919061365a565b610ebd565b60405161053c9392919061369a565b60405180910390f35b34801561055157600080fd5b5061055a610f04565b60405161056791906137be565b60405180910390f35b34801561057c57600080fd5b506105976004803603810190610592919061346e565b610fb7565b6040516105a794939291906137e0565b60405180910390f35b3480156105bc57600080fd5b506105c5611000565b6040516105d29190613846565b60405180910390f35b6105f560048036038101906105f0919061388d565b611026565b6040516106029190613596565b60405180910390f35b34801561061757600080fd5b50610632600480360381019061062d91906138e0565b6112a8565b60405161063f9190613253565b60405180910390f35b34801561065457600080fd5b5061065d61138f565b005b34801561066b57600080fd5b506106866004803603810190610681919061346e565b6113a3565b6040516106939190613596565b60405180910390f35b3480156106a857600080fd5b506106c360048036038101906106be91906135de565b611717565b6040516106d09190613596565b60405180910390f35b3480156106e557600080fd5b506106ee61180e565b6040516106fb9190613253565b60405180910390f35b34801561071057600080fd5b5061071961181f565b60405161072691906134aa565b60405180910390f35b34801561073b57600080fd5b50610744611848565b6040516107519190613253565b60405180910390f35b34801561076657600080fd5b50610781600480360381019061077c919061346e565b6118eb565b60405161078e91906134aa565b60405180910390f35b3480156107a357600080fd5b506107be60048036038101906107b9919061346e565b61192b565b6040516107cb9190613253565b60405180910390f35b3480156107e057600080fd5b506107fb60048036038101906107f6919061346e565b6119c5565b6040516108089190613596565b60405180910390f35b34801561081d57600080fd5b506108386004803603810190610833919061346e565b611a5f565b6040516108459190613253565b60405180910390f35b34801561085a57600080fd5b506108756004803603810190610870919061346e565b611a77565b60405161088493929190613954565b60405180910390f35b34801561089957600080fd5b506108b460048036038101906108af91906135de565b611ac1565b005b3480156108c257600080fd5b506108dd60048036038101906108d8919061346e565b611bc7565b6040516108ea9190613253565b60405180910390f35b3480156108ff57600080fd5b50610908611bdf565b6040516109159190613b6f565b60405180910390f35b34801561092a57600080fd5b5061094560048036038101906109409190613b91565b611d0b565b6040516109529190613596565b60405180910390f35b34801561096757600080fd5b50610982600480360381019061097d91906135b1565b611da8565b005b34801561099057600080fd5b506109ab60048036038101906109a69190613bfd565b611e2b565b005b600b8060000154908060010154905082565b600060405180604001604052806008600087815260200190815260200160002054815260200142815250600a600086815260200190815260200160002060008773ffffffffffffffffffffffffffffffffffffffff1673ffffffffffffffffffffffffffffffffffffffff168152602001908152602001600020600082015181600001556020820151816001015590505063150b7a0260e01b905095945050505050565b6000600b60000154905090565b600060086000838152602001908152602001600020549050919050565b60006009600083815260200190815260200160002060009054906101000a900473ffffffffffffffffffffffffffffffffffffffff169050919050565b600560009054906101000a900473ffffffffffffffffffffffffffffffffffffffff1681565b600360009054906101000a900473ffffffffffffffffffffffffffffffffffffffff1681565b6000610b21826118eb565b73ffffffffffffffffffffffffffffffffffffffff163373ffffffffffffffffffffffffffffffffffffffff1614610b8e576040517f08c379a0000000000000000000000000000000000000000000000000000000008152600401610b8590613cc0565b60405180910390fd5b610b9734611f4a565b50610ba133611f9c565b60019050919050565b60008173ffffffffffffffffffffffffffffffffffffffff16319050919050565b6000600660009054906101000a900473ffffffffffffffffffffffffffffffffffffffff1673ffffffffffffffffffffffffffffffffffffffff1663c663a1073484336040518463ffffffff1660e01b8152600401610c2b929190613ce0565b6000604051808303818588803b158015610c4457600080fd5b505af1158015610c58573d6000803e3d6000fd5b505050505060019050919050565b6000823414610caa576040517f08c379a0000000000000000000000000000000000000000000000000000000008152600401610ca190613d7b565b60405180910390fd5b610cb3826118eb565b73ffffffffffffffffffffffffffffffffffffffff163373ffffffffffffffffffffffffffffffffffffffff1614610d20576040517f08c379a0000000000000000000000000000000000000000000000000000000008152600401610d1790613cc0565b60405180910390fd5b6001905092915050565b600460009054906101000a900473ffffffffffffffffffffffffffffffffffffffff1681565b60008060009054906101000a900460ff1615610da1576040517f08c379a0000000000000000000000000000000000000000000000000000000008152600401610d9890613de7565b60405180910390fd5b60016000806101000a81548160ff021916908315150217905550600560009054906101000a900473ffffffffffffffffffffffffffffffffffffffff1673ffffffffffffffffffffffffffffffffffffffff1663adc9772e33846040518363ffffffff1660e01b8152600401610e18929190613e07565b6020604051808303816000875af1158015610e37573d6000803e3d6000fd5b505050506040513d601f19601f82011682018060405250810190610e5b9190613e45565b610e9a576040517f08c379a0000000000000000000000000000000000000000000000000000000008152600401610e9190613ebe565b60405180910390fd5b6001905060008060006101000a81548160ff021916908315150217905550919050565b60106020528160005260406000208181548110610ed957600080fd5b9060005260206000209060030201600091509150508060000154908060010154908060020154905083565b6060600760003373ffffffffffffffffffffffffffffffffffffffff1673ffffffffffffffffffffffffffffffffffffffff168152602001908152602001600020600001805480602002602001604051908101604052809291908181526020016000905b82821015610fae57838290600052602060002090600202016040518060400160405290816000820154815260200160018201548152505081526020019060010190610f68565b50505050905090565b600080600080600e600086815260200190815260200160002054905033935060086000868152602001908152602001600020549250610ff73386836112a8565b91509193509193565b600660009054906101000a900473ffffffffffffffffffffffffffffffffffffffff1681565b600082341461106a576040517f08c379a000000000000000000000000000000000000000000000000000000000815260040161106190613f2a565b60405180910390fd5b6000600d600084815260200190815260200160002060010154036110a45734600d6000848152602001908152602001600020600101819055505b34600d600084815260200190815260200160002060020160008282546110ca9190613f79565b9250508190555060006040518060600160405280348152602001600d6000868152602001908152602001600020600201548152602001428152509050601060003373ffffffffffffffffffffffffffffffffffffffff1673ffffffffffffffffffffffffffffffffffffffff16815260200190815260200160002081908060018154018082558091505060019003906000526020600020906003020160009091909190915060008201518160000155602082015181600101556040820151816002015550506111998334612158565b5034600f600085815260200190815260200160002060008282546111bd9190613f79565b9250508190555060006111cf346122c8565b6040516020016111df91906140dc565b6040516020818303038152906040529050600460009054906101000a900473ffffffffffffffffffffffffffffffffffffffff1673ffffffffffffffffffffffffffffffffffffffff16630890d80c826040518263ffffffff1660e01b815260040161124b9190614237565b6020604051808303816000875af115801561126a573d6000803e3d6000fd5b505050506040513d601f19601f8201168201806040525081019061128e9190613e45565b5061129a348786612396565b506001925050509392505050565b600080601060008673ffffffffffffffffffffffffffffffffffffffff1673ffffffffffffffffffffffffffffffffffffffff16815260200190815260200160002084815481106112fc576112fb61427f565b5b9060005260206000209060030201604051806060016040529081600082015481526020016001820154815260200160028201548152505090506000600d6000858152602001908152602001600020600201549050600082602001518261136291906142ae565b9050826020015181846000015161137991906142e2565b6113839190614353565b93505050509392505050565b61139761241e565b6113a1600061249c565b565b60003373ffffffffffffffffffffffffffffffffffffffff166009600084815260200190815260200160002060009054906101000a900473ffffffffffffffffffffffffffffffffffffffff1673ffffffffffffffffffffffffffffffffffffffff1614611446576040517f08c379a000000000000000000000000000000000000000000000000000000000815260040161143d906143d0565b60405180910390fd5b3373ffffffffffffffffffffffffffffffffffffffff16600460009054906101000a900473ffffffffffffffffffffffffffffffffffffffff1673ffffffffffffffffffffffffffffffffffffffff16636352211e846040518263ffffffff1660e01b81526004016114b89190613253565b602060405180830381865afa1580156114d5573d6000803e3d6000fd5b505050506040513d601f19601f820116820180604052508101906114f99190614405565b73ffffffffffffffffffffffffffffffffffffffff161461154f576040517f08c379a0000000000000000000000000000000000000000000000000000000008152600401611546906143d0565b60405180910390fd5b600460009054906101000a900473ffffffffffffffffffffffffffffffffffffffff1673ffffffffffffffffffffffffffffffffffffffff16632890e0d7836040518263ffffffff1660e01b81526004016115aa9190613253565b6020604051808303816000875af11580156115c9573d6000803e3d6000fd5b505050506040513d601f19601f820116820180604052508101906115ed9190613e45565b50600360009054906101000a900473ffffffffffffffffffffffffffffffffffffffff1673ffffffffffffffffffffffffffffffffffffffff16635f367b033361165b670de0b6b3a7640000600860008881526020019081526020016000205461256190919063ffffffff16565b6040518363ffffffff1660e01b8152600401611678929190613e07565b6020604051808303816000875af1158015611697573d6000803e3d6000fd5b505050506040513d601f19601f820116820180604052508101906116bb9190613e45565b6116fa576040517f08c379a00000000000000000000000000000000000000000000000000000000081526004016116f19061447e565b60405180910390fd5b6117043383612577565b61170e82336126ed565b60019050919050565b6000600460009054906101000a900473ffffffffffffffffffffffffffffffffffffffff1673ffffffffffffffffffffffffffffffffffffffff1663b2c3a7178430856040518463ffffffff1660e01b81526004016117789392919061449e565b6020604051808303816000875af1158015611797573d6000803e3d6000fd5b505050506040513d601f19601f820116820180604052508101906117bb9190613e45565b6117fa576040517f08c379a00000000000000000000000000000000000000000000000000000000081526004016117f190614521565b60405180910390fd5b61180383612c5b565b506001905092915050565b600061181a6001612c8c565b905090565b60008060019054906101000a900473ffffffffffffffffffffffffffffffffffffffff16905090565b6000600460009054906101000a900473ffffffffffffffffffffffffffffffffffffffff1673ffffffffffffffffffffffffffffffffffffffff166370a08231336040518263ffffffff1660e01b81526004016118a591906134aa565b602060405180830381865afa1580156118c2573d6000803e3d6000fd5b505050506040513d601f19601f820116820180604052508101906118e69190614556565b905090565b6000600d600083815260200190815260200160002060000160009054906101000a900473ffffffffffffffffffffffffffffffffffffffff169050919050565b60008061196a600f600085815260200190815260200160002054600d600086815260200190815260200160002060020154612c9a90919063ffffffff16565b90506000600f600085815260200190815260200160002054036119915760009150506119c0565b600f6000848152602001908152602001600020546064826119b291906142e2565b6119bc9190614353565b9150505b919050565b6000600660009054906101000a900473ffffffffffffffffffffffffffffffffffffffff1673ffffffffffffffffffffffffffffffffffffffff16636527b55d83336040518363ffffffff1660e01b8152600401611a24929190613ce0565b600060405180830381600087803b158015611a3e57600080fd5b505af1158015611a52573d6000803e3d6000fd5b5050505060019050919050565b600f6020528060005260406000206000915090505481565b600d6020528060005260406000206000915090508060000160009054906101000a900473ffffffffffffffffffffffffffffffffffffffff16908060010154908060020154905083565b611ac961241e565b600073ffffffffffffffffffffffffffffffffffffffff16600d600084815260200190815260200160002060000160009054906101000a900473ffffffffffffffffffffffffffffffffffffffff1673ffffffffffffffffffffffffffffffffffffffff1603611b6e576040517f08c379a0000000000000000000000000000000000000000000000000000000008152600401611b65906145cf565b60405180910390fd5b6000600d60008481526020019081526020016000206001015403611ba85780600d6000848152602001908152602001600020600101819055505b80600d6000848152602001908152602001600020600201819055505050565b600e6020528060005260406000206000915090505481565b611be7613182565b601160003373ffffffffffffffffffffffffffffffffffffffff1673ffffffffffffffffffffffffffffffffffffffff16815260200190815260200160002060405180604001604052908160008201805480602002602001604051908101604052809291908181526020016000905b82821015611ca65783829060005260206000209060030201604051806060016040529081600082015481526020016001820154815260200160028201548152505081526020019060010190611c56565b50505050815260200160018201805480602002602001604051908101604052809291908181526020018280548015611cfd57602002820191906000526020600020905b815481526020019060010190808311611ce9575b505050505081525050905090565b6000600460009054906101000a900473ffffffffffffffffffffffffffffffffffffffff1673ffffffffffffffffffffffffffffffffffffffff166323b872dd8330866040518463ffffffff1660e01b8152600401611d6c939291906145ef565b600060405180830381600087803b158015611d8657600080fd5b505af1158015611d9a573d6000803e3d6000fd5b505050506001905092915050565b611db061241e565b600073ffffffffffffffffffffffffffffffffffffffff168173ffffffffffffffffffffffffffffffffffffffff1603611e1f576040517f08c379a0000000000000000000000000000000000000000000000000000000008152600401611e1690614698565b60405180910390fd5b611e288161249c565b50565b611e3361241e565b600073ffffffffffffffffffffffffffffffffffffffff168173ffffffffffffffffffffffffffffffffffffffff1603611ea2576040517f08c379a0000000000000000000000000000000000000000000000000000000008152600401611e9990614704565b60405180910390fd5b60405180606001604052808273ffffffffffffffffffffffffffffffffffffffff168152602001600081526020016000815250600d600084815260200190815260200160002060008201518160000160006101000a81548173ffffffffffffffffffffffffffffffffffffffff021916908373ffffffffffffffffffffffffffffffffffffffff16021790555060208201518160010155604082015181600201559050505050565b60003373ffffffffffffffffffffffffffffffffffffffff166108fc839081150290604051600060405180830381858888f19350505050158015611f92573d6000803e3d6000fd5b5060019050919050565b601060008273ffffffffffffffffffffffffffffffffffffffff1673ffffffffffffffffffffffffffffffffffffffff1681526020019081526020016000206000611fe7919061319c565b60005b600760008373ffffffffffffffffffffffffffffffffffffffff1673ffffffffffffffffffffffffffffffffffffffff16815260200190815260200160002060000180549050811015612102576000600760008473ffffffffffffffffffffffffffffffffffffffff1673ffffffffffffffffffffffffffffffffffffffff168152602001908152602001600020600001828154811061208d5761208c61427f565b5b90600052602060002090600202016000015490506009600082815260200190815260200160002060006101000a81549073ffffffffffffffffffffffffffffffffffffffff021916905560086000828152602001908152602001600020600090555080806120fa90614724565b915050611fea565b50600760008273ffffffffffffffffffffffffffffffffffffffff1673ffffffffffffffffffffffffffffffffffffffff1681526020019081526020016000206000808201600061215391906131c0565b505050565b60008073ffffffffffffffffffffffffffffffffffffffff16600d600085815260200190815260200160002060000160009054906101000a900473ffffffffffffffffffffffffffffffffffffffff1673ffffffffffffffffffffffffffffffffffffffff16036121fe576040517f08c379a00000000000000000000000000000000000000000000000000000000081526004016121f590614704565b60405180910390fd5b81471015612241576040517f08c379a0000000000000000000000000000000000000000000000000000000008152600401612238906147de565b60405180910390fd5b600d600084815260200190815260200160002060000160009054906101000a900473ffffffffffffffffffffffffffffffffffffffff1673ffffffffffffffffffffffffffffffffffffffff166108fc839081150290604051600060405180830381858888f193505050501580156122bd573d6000803e3d6000fd5b506001905092915050565b6060600060016122d784612cb0565b01905060008167ffffffffffffffff8111156122f6576122f56147fe565b5b6040519080825280601f01601f1916602001820160405280156123285781602001600182028036833780820191505090505b509050600082602001820190505b60011561238b578080600190039150507f3031323334353637383961626364656600000000000000000000000000000000600a86061a8153600a858161237f5761237e614324565b5b04945060008503612336575b819350505050919050565b6000806123a4338686612e03565b905082600e6000838152602001908152602001600020819055506123c933868361302b565b612408576040517f08c379a00000000000000000000000000000000000000000000000000000000081526004016123ff90614879565b60405180910390fd5b6124126001613164565b60019150509392505050565b61242661317a565b73ffffffffffffffffffffffffffffffffffffffff1661244461181f565b73ffffffffffffffffffffffffffffffffffffffff161461249a576040517f08c379a0000000000000000000000000000000000000000000000000000000008152600401612491906148e5565b60405180910390fd5b565b60008060019054906101000a900473ffffffffffffffffffffffffffffffffffffffff16905081600060016101000a81548173ffffffffffffffffffffffffffffffffffffffff021916908373ffffffffffffffffffffffffffffffffffffffff1602179055508173ffffffffffffffffffffffffffffffffffffffff168173ffffffffffffffffffffffffffffffffffffffff167f8be0079c531659141344cd1fd0a4f28419497f9722a3daafe3b4186f6b6457e060405160405180910390a35050565b6000818361256f91906142e2565b905092915050565b6000601060008473ffffffffffffffffffffffffffffffffffffffff1673ffffffffffffffffffffffffffffffffffffffff168152602001908152602001600020905060008060005b83805490508110156126295760086000868152602001908152602001600020548482815481106125f3576125f261427f565b5b906000526020600020906003020160000154036126165780925060019150612629565b808061262190614724565b9150506125c0565b5080156126e657826001848054905061264291906142ae565b815481106126535761265261427f565b5b90600052602060002090600302018383815481106126745761267361427f565b5b9060005260206000209060030201600082015481600001556001820154816001015560028201548160020155905050828054806126b4576126b3614905565b5b600190038181906000526020600020906003020160008082016000905560018201600090556002820160009055505090555b5050505050565b60008060005b601160008573ffffffffffffffffffffffffffffffffffffffff1673ffffffffffffffffffffffffffffffffffffffff168152602001908152602001600020600001805490508110156127cb5784601160008673ffffffffffffffffffffffffffffffffffffffff1673ffffffffffffffffffffffffffffffffffffffff16815260200190815260200160002060000182815481106127955761279461427f565b5b906000526020600020906003020160020154036127b857809250600191506127cb565b80806127c390614724565b9150506126f3565b50801561298c57601160008473ffffffffffffffffffffffffffffffffffffffff1673ffffffffffffffffffffffffffffffffffffffff1681526020019081526020016000206000016001601160008673ffffffffffffffffffffffffffffffffffffffff1673ffffffffffffffffffffffffffffffffffffffff1681526020019081526020016000206000018054905061286691906142ae565b815481106128775761287661427f565b5b9060005260206000209060030201601160008573ffffffffffffffffffffffffffffffffffffffff1673ffffffffffffffffffffffffffffffffffffffff16815260200190815260200160002060000183815481106128d9576128d861427f565b5b9060005260206000209060030201600082015481600001556001820154816001015560028201548160020155905050601160008473ffffffffffffffffffffffffffffffffffffffff1673ffffffffffffffffffffffffffffffffffffffff16815260200190815260200160002060000180548061295a57612959614905565b5b600190038181906000526020600020906003020160008082016000905560018201600090556002820160009055505090555b60005b600760008573ffffffffffffffffffffffffffffffffffffffff1673ffffffffffffffffffffffffffffffffffffffff16815260200190815260200160002060000180549050811015612c075784600760008673ffffffffffffffffffffffffffffffffffffffff1673ffffffffffffffffffffffffffffffffffffffff1681526020019081526020016000206000018281548110612a3157612a3061427f565b5b90600052602060002090600202016000015403612bf457600760008573ffffffffffffffffffffffffffffffffffffffff1673ffffffffffffffffffffffffffffffffffffffff1681526020019081526020016000206000016001600760008773ffffffffffffffffffffffffffffffffffffffff1673ffffffffffffffffffffffffffffffffffffffff16815260200190815260200160002060000180549050612adc91906142ae565b81548110612aed57612aec61427f565b5b9060005260206000209060020201600760008673ffffffffffffffffffffffffffffffffffffffff1673ffffffffffffffffffffffffffffffffffffffff1681526020019081526020016000206000018281548110612b4f57612b4e61427f565b5b90600052602060002090600202016000820154816000015560018201548160010155905050600760008573ffffffffffffffffffffffffffffffffffffffff1673ffffffffffffffffffffffffffffffffffffffff168152602001908152602001600020600001805480612bc657612bc5614905565b5b6001900381819060005260206000209060020201600080820160009055600182016000905550509055612c07565b8080612bff90614724565b91505061298f565b5060086000858152602001908152602001600020600090556009600085815260200190815260200160002060006101000a81549073ffffffffffffffffffffffffffffffffffffffff021916905550505050565b600081600b6000016000828254612c729190613f79565b9250508190555042600b6001018190555060019050919050565b600081600001549050919050565b60008183612ca891906142ae565b905092915050565b600080600090507a184f03e93ff9f4daa797ed6e38ed64bf6a1f0100000000000000008310612d0e577a184f03e93ff9f4daa797ed6e38ed64bf6a1f0100000000000000008381612d0457612d03614324565b5b0492506040810190505b6d04ee2d6d415b85acef81000000008310612d4b576d04ee2d6d415b85acef81000000008381612d4157612d40614324565b5b0492506020810190505b662386f26fc100008310612d7a57662386f26fc100008381612d7057612d6f614324565b5b0492506010810190505b6305f5e1008310612da3576305f5e1008381612d9957612d98614324565b5b0492506008810190505b6127108310612dc8576127108381612dbe57612dbd614324565b5b0492506004810190505b60648310612deb5760648381612de157612de0614324565b5b0492506002810190505b600a8310612dfa576001810190505b80915050919050565b60008060009054906101000a900460ff1615612e54576040517f08c379a0000000000000000000000000000000000000000000000000000000008152600401612e4b90613de7565b60405180910390fd5b60016000806101000a81548160ff0219169083151502179055506000600460009054906101000a900473ffffffffffffffffffffffffffffffffffffffff1673ffffffffffffffffffffffffffffffffffffffff1663f42c69d686856040518363ffffffff1660e01b8152600401612ecd929190614934565b6020604051808303816000875af1158015612eec573d6000803e3d6000fd5b505050506040513d601f19601f82011682018060405250810190612f109190614556565b9050600760008673ffffffffffffffffffffffffffffffffffffffff1673ffffffffffffffffffffffffffffffffffffffff168152602001908152602001600020600001604051806040016040528083815260200142815250908060018154018082558091505060019003906000526020600020906002020160009091909190915060008201518160000155602082015181600101555050612fb333858361302b565b50846009600083815260200190815260200160002060006101000a81548173ffffffffffffffffffffffffffffffffffffffff021916908373ffffffffffffffffffffffffffffffffffffffff1602179055508091505060008060006101000a81548160ff0219169083151502179055509392505050565b600080601160008673ffffffffffffffffffffffffffffffffffffffff1673ffffffffffffffffffffffffffffffffffffffff16815260200190815260200160002060000190508060405180606001604052808681526020014281526020018581525090806001815401808255809150506001900390600052602060002090600302016000909190919091506000820151816000015560208201518160010155604082015181600201555050601160008673ffffffffffffffffffffffffffffffffffffffff1673ffffffffffffffffffffffffffffffffffffffff16815260200190815260200160002060010183908060018154018082558091505060019003906000526020600020016000909190919091505583600860008581526020019081526020016000208190555060019150509392505050565b6001816000016000828254019250508190555050565b600033905090565b604051806040016040528060608152602001606081525090565b50805460008255600302906000526020600020908101906131bd91906131e4565b50565b50805460008255600202906000526020600020908101906131e19190613213565b50565b5b8082111561320f5760008082016000905560018201600090556002820160009055506003016131e5565b5090565b5b8082111561323657600080820160009055600182016000905550600201613214565b5090565b6000819050919050565b61324d8161323a565b82525050565b60006020820190506132686000830184613244565b92915050565b60006040820190506132836000830185613244565b6132906020830184613244565b9392505050565b600080fd5b600080fd5b600073ffffffffffffffffffffffffffffffffffffffff82169050919050565b60006132cc826132a1565b9050919050565b6132dc816132c1565b81146132e757600080fd5b50565b6000813590506132f9816132d3565b92915050565b6133088161323a565b811461331357600080fd5b50565b600081359050613325816132ff565b92915050565b600080fd5b600080fd5b600080fd5b60008083601f8401126133505761334f61332b565b5b8235905067ffffffffffffffff81111561336d5761336c613330565b5b60208301915083600182028301111561338957613388613335565b5b9250929050565b6000806000806000608086880312156133ac576133ab613297565b5b60006133ba888289016132ea565b95505060206133cb888289016132ea565b94505060406133dc88828901613316565b935050606086013567ffffffffffffffff8111156133fd576133fc61329c565b5b6134098882890161333a565b92509250509295509295909350565b60007fffffffff0000000000000000000000000000000000000000000000000000000082169050919050565b61344d81613418565b82525050565b60006020820190506134686000830184613444565b92915050565b60006020828403121561348457613483613297565b5b600061349284828501613316565b91505092915050565b6134a4816132c1565b82525050565b60006020820190506134bf600083018461349b565b92915050565b6000819050919050565b60006134ea6134e56134e0846132a1565b6134c5565b6132a1565b9050919050565b60006134fc826134cf565b9050919050565b600061350e826134f1565b9050919050565b61351e81613503565b82525050565b60006020820190506135396000830184613515565b92915050565b600061354a826134f1565b9050919050565b61355a8161353f565b82525050565b60006020820190506135756000830184613551565b92915050565b60008115159050919050565b6135908161357b565b82525050565b60006020820190506135ab6000830184613587565b92915050565b6000602082840312156135c7576135c6613297565b5b60006135d5848285016132ea565b91505092915050565b600080604083850312156135f5576135f4613297565b5b600061360385828601613316565b925050602061361485828601613316565b9150509250929050565b6000613629826134f1565b9050919050565b6136398161361e565b82525050565b60006020820190506136546000830184613630565b92915050565b6000806040838503121561367157613670613297565b5b600061367f858286016132ea565b925050602061369085828601613316565b9150509250929050565b60006060820190506136af6000830186613244565b6136bc6020830185613244565b6136c96040830184613244565b949350505050565b600081519050919050565b600082825260208201905092915050565b6000819050602082019050919050565b6137068161323a565b82525050565b60408201600082015161372260008501826136fd565b50602082015161373560208501826136fd565b50505050565b6000613747838361370c565b60408301905092915050565b6000602082019050919050565b600061376b826136d1565b61377581856136dc565b9350613780836136ed565b8060005b838110156137b1578151613798888261373b565b97506137a383613753565b925050600181019050613784565b5085935050505092915050565b600060208201905081810360008301526137d88184613760565b905092915050565b60006080820190506137f5600083018761349b565b6138026020830186613244565b61380f6040830185613244565b61381c6060830184613244565b95945050505050565b6000613830826134f1565b9050919050565b61384081613825565b82525050565b600060208201905061385b6000830184613837565b92915050565b61386a8161357b565b811461387557600080fd5b50565b60008135905061388781613861565b92915050565b6000806000606084860312156138a6576138a5613297565b5b60006138b486828701613878565b93505060206138c586828701613316565b92505060406138d686828701613316565b9150509250925092565b6000806000606084860312156138f9576138f8613297565b5b6000613907868287016132ea565b935050602061391886828701613316565b925050604061392986828701613316565b9150509250925092565b600061393e826132a1565b9050919050565b61394e81613933565b82525050565b60006060820190506139696000830186613945565b6139766020830185613244565b6139836040830184613244565b949350505050565b600081519050919050565b600082825260208201905092915050565b6000819050602082019050919050565b6060820160008201516139cd60008501826136fd565b5060208201516139e060208501826136fd565b5060408201516139f360408501826136fd565b50505050565b6000613a0583836139b7565b60608301905092915050565b6000602082019050919050565b6000613a298261398b565b613a338185613996565b9350613a3e836139a7565b8060005b83811015613a6f578151613a5688826139f9565b9750613a6183613a11565b925050600181019050613a42565b5085935050505092915050565b600081519050919050565b600082825260208201905092915050565b6000819050602082019050919050565b6000613ab483836136fd565b60208301905092915050565b6000602082019050919050565b6000613ad882613a7c565b613ae28185613a87565b9350613aed83613a98565b8060005b83811015613b1e578151613b058882613aa8565b9750613b1083613ac0565b925050600181019050613af1565b5085935050505092915050565b60006040830160008301518482036000860152613b488282613a1e565b91505060208301518482036020860152613b628282613acd565b9150508091505092915050565b60006020820190508181036000830152613b898184613b2b565b905092915050565b60008060408385031215613ba857613ba7613297565b5b6000613bb685828601613316565b9250506020613bc7858286016132ea565b9150509250929050565b613bda81613933565b8114613be557600080fd5b50565b600081359050613bf781613bd1565b92915050565b60008060408385031215613c1457613c13613297565b5b6000613c2285828601613316565b9250506020613c3385828601613be8565b9150509250929050565b600082825260208201905092915050565b7f5761726e203a2053656e6420747279696e672061646472657373206973206e6f60008201527f7420746865207374726174656779204164647265737300000000000000000000602082015250565b6000613caa603683613c3d565b9150613cb582613c4e565b604082019050919050565b60006020820190508181036000830152613cd981613c9d565b9050919050565b6000604082019050613cf56000830185613244565b613d02602083018461349b565b9392505050565b7f5761726e203a2053656e6420616d6f756e7420697320646966666572656e742060008201527f77697468206d73672e76616c7565000000000000000000000000000000000000602082015250565b6000613d65602e83613c3d565b9150613d7082613d09565b604082019050919050565b60006020820190508181036000830152613d9481613d58565b9050919050565b7f4e6f205265456e7472616e637900000000000000000000000000000000000000600082015250565b6000613dd1600d83613c3d565b9150613ddc82613d9b565b602082019050919050565b60006020820190508181036000830152613e0081613dc4565b9050919050565b6000604082019050613e1c600083018561349b565b613e296020830184613244565b9392505050565b600081519050613e3f81613861565b92915050565b600060208284031215613e5b57613e5a613297565b5b6000613e6984828501613e30565b91505092915050565b7f5761726e203a20515645207374616b696e67206661696c656400000000000000600082015250565b6000613ea8601983613c3d565b9150613eb382613e72565b602082019050919050565b60006020820190508181036000830152613ed781613e9b565b9050919050565b7f5761726e203a204d69736d6174636865642073656e7420616d6f756e74000000600082015250565b6000613f14601d83613c3d565b9150613f1f82613ede565b602082019050919050565b60006020820190508181036000830152613f4381613f07565b9050919050565b7f4e487b7100000000000000000000000000000000000000000000000000000000600052601160045260246000fd5b6000613f848261323a565b9150613f8f8361323a565b9250828201905080821115613fa757613fa6613f4a565b5b92915050565b600081905092915050565b7f5b47756172616e7465656420496e766573746d656e74204d617267696e5d2d2d60008201527f3a00000000000000000000000000000000000000000000000000000000000000602082015250565b6000614014602183613fad565b915061401f82613fb8565b602182019050919050565b600081519050919050565b60005b83811015614053578082015181840152602081019050614038565b60008484015250505050565b600061406a8261402a565b6140748185613fad565b9350614084818560208601614035565b80840191505092915050565b7f5745490000000000000000000000000000000000000000000000000000000000600082015250565b60006140c6600383613fad565b91506140d182614090565b600382019050919050565b60006140e782614007565b91506140f3828461405f565b91506140fe826140b9565b915081905092915050565b7f5374616b696e672047756172616e746565204361726400000000000000000000600082015250565b600061413f601683613c3d565b915061414a82614109565b602082019050919050565b6000601f19601f8301169050919050565b60006141718261402a565b61417b8185613c3d565b935061418b818560208601614035565b61419481614155565b840191505092915050565b7f68747470733a2f2f697066732e696f2f697066732f516d5155756d713869596360008201527f41395838756f61664d325955384c6579794d4b7a554e32484635464770364e7060208201527f5845563f66696c656e616d653d47726f7570253230343538342e6a7067000000604082015250565b6000614221605d83613c3d565b915061422c8261419f565b606082019050919050565b6000606082019050818103600083015261425081614132565b905081810360208301526142648184614166565b9050818103604083015261427781614214565b905092915050565b7f4e487b7100000000000000000000000000000000000000000000000000000000600052603260045260246000fd5b60006142b98261323a565b91506142c48361323a565b92508282039050818111156142dc576142db613f4a565b5b92915050565b60006142ed8261323a565b91506142f88361323a565b92508282026143068161323a565b9150828204841483151761431d5761431c613f4a565b5b5092915050565b7f4e487b7100000000000000000000000000000000000000000000000000000000600052601260045260246000fd5b600061435e8261323a565b91506143698361323a565b92508261437957614378614324565b5b828204905092915050565b7f5761726e203a20596f7520617265206e6f7420746865204e4654206f776e6572600082015250565b60006143ba602083613c3d565b91506143c582614384565b602082019050919050565b600060208201905081810360008301526143e9816143ad565b9050919050565b6000815190506143ff816132d3565b92915050565b60006020828403121561441b5761441a613297565b5b6000614429848285016143f0565b91505092915050565b7f5761726e203a205472616e73666572206661696c656400000000000000000000600082015250565b6000614468601683613c3d565b915061447382614432565b602082019050919050565b600060208201905081810360008301526144978161445b565b9050919050565b60006060820190506144b36000830186613244565b6144c0602083018561349b565b6144cd6040830184613244565b949350505050565b7f5761726e203a204c6f636b75702073686f7274656e206661696c656400000000600082015250565b600061450b601c83613c3d565b9150614516826144d5565b602082019050919050565b6000602082019050818103600083015261453a816144fe565b9050919050565b600081519050614550816132ff565b92915050565b60006020828403121561456c5761456b613297565b5b600061457a84828501614541565b91505092915050565b7f5761726e203a20537472617465677920646f6573206e6f742065786973740000600082015250565b60006145b9601e83613c3d565b91506145c482614583565b602082019050919050565b600060208201905081810360008301526145e8816145ac565b9050919050565b6000606082019050614604600083018661349b565b614611602083018561349b565b61461e6040830184613244565b949350505050565b7f4f776e61626c653a206e6577206f776e657220697320746865207a65726f206160008201527f6464726573730000000000000000000000000000000000000000000000000000602082015250565b6000614682602683613c3d565b915061468d82614626565b604082019050919050565b600060208201905081810360008301526146b181614675565b9050919050565b7f5761726e203a20496e76616c696420626f742061646472657373000000000000600082015250565b60006146ee601a83613c3d565b91506146f9826146b8565b602082019050919050565b6000602082019050818103600083015261471d816146e1565b9050919050565b600061472f8261323a565b91507fffffffffffffffffffffffffffffffffffffffffffffffffffffffffffffffff820361476157614760613f4a565b5b600182019050919050565b7f5761726e203a20496e73756666696369656e742062616c616e636520696e206360008201527f6f6e747261637400000000000000000000000000000000000000000000000000602082015250565b60006147c8602783613c3d565b91506147d38261476c565b604082019050919050565b600060208201905081810360008301526147f7816147bb565b9050919050565b7f4e487b7100000000000000000000000000000000000000000000000000000000600052604160045260246000fd5b7f5761726e203a205661756c7420757064617465206661696c6564000000000000600082015250565b6000614863601a83613c3d565b915061486e8261482d565b602082019050919050565b6000602082019050818103600083015261489281614856565b9050919050565b7f4f776e61626c653a2063616c6c6572206973206e6f7420746865206f776e6572600082015250565b60006148cf602083613c3d565b91506148da82614899565b602082019050919050565b600060208201905081810360008301526148fe816148c2565b9050919050565b7f4e487b7100000000000000000000000000000000000000000000000000000000600052603160045260246000fd5b6000604082019050614949600083018561349b565b6149566020830184613587565b939250505056fea264697066735822122035d8e4e4183cdf0167b35d580a7c726eeb192fdf9424ee5ff379f214c491450864736f6c63430008120033",
			"opcodes": "PUSH1 0x80 PUSH1 0x40 MSTORE CALLVALUE DUP1 ISZERO PUSH3 0x11 JUMPI PUSH1 0x0 DUP1 REVERT JUMPDEST POP PUSH1 0x40 MLOAD PUSH3 0x4D94 CODESIZE SUB DUP1 PUSH3 0x4D94 DUP4 CODECOPY DUP2 DUP2 ADD PUSH1 0x40 MSTORE DUP2 ADD SWAP1 PUSH3 0x37 SWAP2 SWAP1 PUSH3 0x37F JUMP JUMPDEST PUSH3 0x57 PUSH3 0x4B PUSH3 0x165 PUSH1 0x20 SHL PUSH1 0x20 SHR JUMP JUMPDEST PUSH3 0x16D PUSH1 0x20 SHL PUSH1 0x20 SHR JUMP JUMPDEST DUP4 PUSH1 0x3 PUSH1 0x0 PUSH2 0x100 EXP DUP2 SLOAD DUP2 PUSH20 0xFFFFFFFFFFFFFFFFFFFFFFFFFFFFFFFFFFFFFFFF MUL NOT AND SWAP1 DUP4 PUSH20 0xFFFFFFFFFFFFFFFFFFFFFFFFFFFFFFFFFFFFFFFF AND MUL OR SWAP1 SSTORE POP DUP3 PUSH1 0x4 PUSH1 0x0 PUSH2 0x100 EXP DUP2 SLOAD DUP2 PUSH20 0xFFFFFFFFFFFFFFFFFFFFFFFFFFFFFFFFFFFFFFFF MUL NOT AND SWAP1 DUP4 PUSH20 0xFFFFFFFFFFFFFFFFFFFFFFFFFFFFFFFFFFFFFFFF AND MUL OR SWAP1 SSTORE POP DUP2 PUSH1 0x5 PUSH1 0x0 PUSH2 0x100 EXP DUP2 SLOAD DUP2 PUSH20 0xFFFFFFFFFFFFFFFFFFFFFFFFFFFFFFFFFFFFFFFF MUL NOT AND SWAP1 DUP4 PUSH20 0xFFFFFFFFFFFFFFFFFFFFFFFFFFFFFFFFFFFFFFFF AND MUL OR SWAP1 SSTORE POP DUP1 PUSH1 0x6 PUSH1 0x0 PUSH2 0x100 EXP DUP2 SLOAD DUP2 PUSH20 0xFFFFFFFFFFFFFFFFFFFFFFFFFFFFFFFFFFFFFFFF MUL NOT AND SWAP1 DUP4 PUSH20 0xFFFFFFFFFFFFFFFFFFFFFFFFFFFFFFFFFFFFFFFF AND MUL OR SWAP1 SSTORE POP POP POP POP POP PUSH3 0x3F1 JUMP JUMPDEST PUSH1 0x0 CALLER SWAP1 POP SWAP1 JUMP JUMPDEST PUSH1 0x0 DUP1 PUSH1 0x1 SWAP1 SLOAD SWAP1 PUSH2 0x100 EXP SWAP1 DIV PUSH20 0xFFFFFFFFFFFFFFFFFFFFFFFFFFFFFFFFFFFFFFFF AND SWAP1 POP DUP2 PUSH1 0x0 PUSH1 0x1 PUSH2 0x100 EXP DUP2 SLOAD DUP2 PUSH20 0xFFFFFFFFFFFFFFFFFFFFFFFFFFFFFFFFFFFFFFFF MUL NOT AND SWAP1 DUP4 PUSH20 0xFFFFFFFFFFFFFFFFFFFFFFFFFFFFFFFFFFFFFFFF AND MUL OR SWAP1 SSTORE POP DUP2 PUSH20 0xFFFFFFFFFFFFFFFFFFFFFFFFFFFFFFFFFFFFFFFF AND DUP2 PUSH20 0xFFFFFFFFFFFFFFFFFFFFFFFFFFFFFFFFFFFFFFFF AND PUSH32 0x8BE0079C531659141344CD1FD0A4F28419497F9722A3DAAFE3B4186F6B6457E0 PUSH1 0x40 MLOAD PUSH1 0x40 MLOAD DUP1 SWAP2 SUB SWAP1 LOG3 POP POP JUMP JUMPDEST PUSH1 0x0 DUP1 REVERT JUMPDEST PUSH1 0x0 PUSH20 0xFFFFFFFFFFFFFFFFFFFFFFFFFFFFFFFFFFFFFFFF DUP3 AND SWAP1 POP SWAP2 SWAP1 POP JUMP JUMPDEST PUSH1 0x0 PUSH3 0x264 DUP3 PUSH3 0x237 JUMP JUMPDEST SWAP1 POP SWAP2 SWAP1 POP JUMP JUMPDEST PUSH1 0x0 PUSH3 0x278 DUP3 PUSH3 0x257 JUMP JUMPDEST SWAP1 POP SWAP2 SWAP1 POP JUMP JUMPDEST PUSH3 0x28A DUP2 PUSH3 0x26B JUMP JUMPDEST DUP2 EQ PUSH3 0x296 JUMPI PUSH1 0x0 DUP1 REVERT JUMPDEST POP JUMP JUMPDEST PUSH1 0x0 DUP2 MLOAD SWAP1 POP PUSH3 0x2AA DUP2 PUSH3 0x27F JUMP JUMPDEST SWAP3 SWAP2 POP POP JUMP JUMPDEST PUSH1 0x0 PUSH3 0x2BD DUP3 PUSH3 0x257 JUMP JUMPDEST SWAP1 POP SWAP2 SWAP1 POP JUMP JUMPDEST PUSH3 0x2CF DUP2 PUSH3 0x2B0 JUMP JUMPDEST DUP2 EQ PUSH3 0x2DB JUMPI PUSH1 0x0 DUP1 REVERT JUMPDEST POP JUMP JUMPDEST PUSH1 0x0 DUP2 MLOAD SWAP1 POP PUSH3 0x2EF DUP2 PUSH3 0x2C4 JUMP JUMPDEST SWAP3 SWAP2 POP POP JUMP JUMPDEST PUSH1 0x0 PUSH3 0x302 DUP3 PUSH3 0x257 JUMP JUMPDEST SWAP1 POP SWAP2 SWAP1 POP JUMP JUMPDEST PUSH3 0x314 DUP2 PUSH3 0x2F5 JUMP JUMPDEST DUP2 EQ PUSH3 0x320 JUMPI PUSH1 0x0 DUP1 REVERT JUMPDEST POP JUMP JUMPDEST PUSH1 0x0 DUP2 MLOAD SWAP1 POP PUSH3 0x334 DUP2 PUSH3 0x309 JUMP JUMPDEST SWAP3 SWAP2 POP POP JUMP JUMPDEST PUSH1 0x0 PUSH3 0x347 DUP3 PUSH3 0x257 JUMP JUMPDEST SWAP1 POP SWAP2 SWAP1 POP JUMP JUMPDEST PUSH3 0x359 DUP2 PUSH3 0x33A JUMP JUMPDEST DUP2 EQ PUSH3 0x365 JUMPI PUSH1 0x0 DUP1 REVERT JUMPDEST POP JUMP JUMPDEST PUSH1 0x0 DUP2 MLOAD SWAP1 POP PUSH3 0x379 DUP2 PUSH3 0x34E JUMP JUMPDEST SWAP3 SWAP2 POP POP JUMP JUMPDEST PUSH1 0x0 DUP1 PUSH1 0x0 DUP1 PUSH1 0x80 DUP6 DUP8 SUB SLT ISZERO PUSH3 0x39C JUMPI PUSH3 0x39B PUSH3 0x232 JUMP JUMPDEST JUMPDEST PUSH1 0x0 PUSH3 0x3AC DUP8 DUP3 DUP9 ADD PUSH3 0x299 JUMP JUMPDEST SWAP5 POP POP PUSH1 0x20 PUSH3 0x3BF DUP8 DUP3 DUP9 ADD PUSH3 0x2DE JUMP JUMPDEST SWAP4 POP POP PUSH1 0x40 PUSH3 0x3D2 DUP8 DUP3 DUP9 ADD PUSH3 0x323 JUMP JUMPDEST SWAP3 POP POP PUSH1 0x60 PUSH3 0x3E5 DUP8 DUP3 DUP9 ADD PUSH3 0x368 JUMP JUMPDEST SWAP2 POP POP SWAP3 SWAP6 SWAP2 SWAP5 POP SWAP3 POP JUMP JUMPDEST PUSH2 0x4993 DUP1 PUSH3 0x401 PUSH1 0x0 CODECOPY PUSH1 0x0 RETURN INVALID PUSH1 0x80 PUSH1 0x40 MSTORE PUSH1 0x4 CALLDATASIZE LT PUSH2 0x213 JUMPI PUSH1 0x0 CALLDATALOAD PUSH1 0xE0 SHR DUP1 PUSH4 0x6D95381E GT PUSH2 0x118 JUMPI DUP1 PUSH4 0xBC338AE9 GT PUSH2 0xA0 JUMPI DUP1 PUSH4 0xDBE30D45 GT PUSH2 0x6F JUMPI DUP1 PUSH4 0xDBE30D45 EQ PUSH2 0x8B6 JUMPI DUP1 PUSH4 0xEF071BCD EQ PUSH2 0x8F3 JUMPI DUP1 PUSH4 0xEF896965 EQ PUSH2 0x91E JUMPI DUP1 PUSH4 0xF2FDE38B EQ PUSH2 0x95B JUMPI DUP1 PUSH4 0xFAAC4325 EQ PUSH2 0x984 JUMPI PUSH2 0x268 JUMP JUMPDEST DUP1 PUSH4 0xBC338AE9 EQ PUSH2 0x7D4 JUMPI DUP1 PUSH4 0xC37601D6 EQ PUSH2 0x811 JUMPI DUP1 PUSH4 0xD574EA3D EQ PUSH2 0x84E JUMPI DUP1 PUSH4 0xD68FBD66 EQ PUSH2 0x88D JUMPI PUSH2 0x268 JUMP JUMPDEST DUP1 PUSH4 0x8866B937 GT PUSH2 0xE7 JUMPI DUP1 PUSH4 0x8866B937 EQ PUSH2 0x6D9 JUMPI DUP1 PUSH4 0x8DA5CB5B EQ PUSH2 0x704 JUMPI DUP1 PUSH4 0x9F62E796 EQ PUSH2 0x72F JUMPI DUP1 PUSH4 0xA51DE246 EQ PUSH2 0x75A JUMPI DUP1 PUSH4 0xB6AE980E EQ PUSH2 0x797 JUMPI PUSH2 0x268 JUMP JUMPDEST DUP1 PUSH4 0x6D95381E EQ PUSH2 0x60B JUMPI DUP1 PUSH4 0x715018A6 EQ PUSH2 0x648 JUMPI DUP1 PUSH4 0x7A378E05 EQ PUSH2 0x65F JUMPI DUP1 PUSH4 0x83CE6147 EQ PUSH2 0x69C JUMPI PUSH2 0x268 JUMP JUMPDEST DUP1 PUSH4 0x4EDE9666 GT PUSH2 0x19B JUMPI DUP1 PUSH4 0x5948BE3B GT PUSH2 0x16A JUMPI DUP1 PUSH4 0x5948BE3B EQ PUSH2 0x506 JUMPI DUP1 PUSH4 0x5AC66993 EQ PUSH2 0x545 JUMPI DUP1 PUSH4 0x617EF850 EQ PUSH2 0x570 JUMPI DUP1 PUSH4 0x69394135 EQ PUSH2 0x5B0 JUMPI DUP1 PUSH4 0x6C7B77FC EQ PUSH2 0x5DB JUMPI PUSH2 0x268 JUMP JUMPDEST DUP1 PUSH4 0x4EDE9666 EQ PUSH2 0x43E JUMPI DUP1 PUSH4 0x50CEA766 EQ PUSH2 0x46E JUMPI DUP1 PUSH4 0x510B7F98 EQ PUSH2 0x49E JUMPI DUP1 PUSH4 0x56289C29 EQ PUSH2 0x4C9 JUMPI PUSH2 0x268 JUMP JUMPDEST DUP1 PUSH4 0x1F6CE039 GT PUSH2 0x1E2 JUMPI DUP1 PUSH4 0x1F6CE039 EQ PUSH2 0x33E JUMPI DUP1 PUSH4 0x2ADCBEBD EQ PUSH2 0x37B JUMPI DUP1 PUSH4 0x2B1C4158 EQ PUSH2 0x3A6 JUMPI DUP1 PUSH4 0x3EE5191D EQ PUSH2 0x3D1 JUMPI DUP1 PUSH4 0x4D2301CC EQ PUSH2 0x401 JUMPI PUSH2 0x268 JUMP JUMPDEST DUP1 PUSH4 0xE301D24 EQ PUSH2 0x26D JUMPI DUP1 PUSH4 0x150B7A02 EQ PUSH2 0x299 JUMPI DUP1 PUSH4 0x1552E770 EQ PUSH2 0x2D6 JUMPI DUP1 PUSH4 0x1EB5C7AE EQ PUSH2 0x301 JUMPI PUSH2 0x268 JUMP JUMPDEST CALLDATASIZE PUSH2 0x268 JUMPI CALLER PUSH20 0xFFFFFFFFFFFFFFFFFFFFFFFFFFFFFFFFFFFFFFFF AND PUSH32 0x88A5966D370B9919B20F3E2C13FF65706F196A4E32CC2C12BF57088F88525874 CALLVALUE PUSH1 0x40 MLOAD PUSH2 0x25E SWAP2 SWAP1 PUSH2 0x3253 JUMP JUMPDEST PUSH1 0x40 MLOAD DUP1 SWAP2 SUB SWAP1 LOG2 STOP JUMPDEST PUSH1 0x0 DUP1 REVERT JUMPDEST CALLVALUE DUP1 ISZERO PUSH2 0x279 JUMPI PUSH1 0x0 DUP1 REVERT JUMPDEST POP PUSH2 0x282 PUSH2 0x9AD JUMP JUMPDEST PUSH1 0x40 MLOAD PUSH2 0x290 SWAP3 SWAP2 SWAP1 PUSH2 0x326E JUMP JUMPDEST PUSH1 0x40 MLOAD DUP1 SWAP2 SUB SWAP1 RETURN JUMPDEST CALLVALUE DUP1 ISZERO PUSH2 0x2A5 JUMPI PUSH1 0x0 DUP1 REVERT JUMPDEST POP PUSH2 0x2C0 PUSH1 0x4 DUP1 CALLDATASIZE SUB DUP2 ADD SWAP1 PUSH2 0x2BB SWAP2 SWAP1 PUSH2 0x3390 JUMP JUMPDEST PUSH2 0x9BF JUMP JUMPDEST PUSH1 0x40 MLOAD PUSH2 0x2CD SWAP2 SWAP1 PUSH2 0x3453 JUMP JUMPDEST PUSH1 0x40 MLOAD DUP1 SWAP2 SUB SWAP1 RETURN JUMPDEST CALLVALUE DUP1 ISZERO PUSH2 0x2E2 JUMPI PUSH1 0x0 DUP1 REVERT JUMPDEST POP PUSH2 0x2EB PUSH2 0xA63 JUMP JUMPDEST PUSH1 0x40 MLOAD PUSH2 0x2F8 SWAP2 SWAP1 PUSH2 0x3253 JUMP JUMPDEST PUSH1 0x40 MLOAD DUP1 SWAP2 SUB SWAP1 RETURN JUMPDEST CALLVALUE DUP1 ISZERO PUSH2 0x30D JUMPI PUSH1 0x0 DUP1 REVERT JUMPDEST POP PUSH2 0x328 PUSH1 0x4 DUP1 CALLDATASIZE SUB DUP2 ADD SWAP1 PUSH2 0x323 SWAP2 SWAP1 PUSH2 0x346E JUMP JUMPDEST PUSH2 0xA70 JUMP JUMPDEST PUSH1 0x40 MLOAD PUSH2 0x335 SWAP2 SWAP1 PUSH2 0x3253 JUMP JUMPDEST PUSH1 0x40 MLOAD DUP1 SWAP2 SUB SWAP1 RETURN JUMPDEST CALLVALUE DUP1 ISZERO PUSH2 0x34A JUMPI PUSH1 0x0 DUP1 REVERT JUMPDEST POP PUSH2 0x365 PUSH1 0x4 DUP1 CALLDATASIZE SUB DUP2 ADD SWAP1 PUSH2 0x360 SWAP2 SWAP1 PUSH2 0x346E JUMP JUMPDEST PUSH2 0xA8D JUMP JUMPDEST PUSH1 0x40 MLOAD PUSH2 0x372 SWAP2 SWAP1 PUSH2 0x34AA JUMP JUMPDEST PUSH1 0x40 MLOAD DUP1 SWAP2 SUB SWAP1 RETURN JUMPDEST CALLVALUE DUP1 ISZERO PUSH2 0x387 JUMPI PUSH1 0x0 DUP1 REVERT JUMPDEST POP PUSH2 0x390 PUSH2 0xACA JUMP JUMPDEST PUSH1 0x40 MLOAD PUSH2 0x39D SWAP2 SWAP1 PUSH2 0x3524 JUMP JUMPDEST PUSH1 0x40 MLOAD DUP1 SWAP2 SUB SWAP1 RETURN JUMPDEST CALLVALUE DUP1 ISZERO PUSH2 0x3B2 JUMPI PUSH1 0x0 DUP1 REVERT JUMPDEST POP PUSH2 0x3BB PUSH2 0xAF0 JUMP JUMPDEST PUSH1 0x40 MLOAD PUSH2 0x3C8 SWAP2 SWAP1 PUSH2 0x3560 JUMP JUMPDEST PUSH1 0x40 MLOAD DUP1 SWAP2 SUB SWAP1 RETURN JUMPDEST PUSH2 0x3EB PUSH1 0x4 DUP1 CALLDATASIZE SUB DUP2 ADD SWAP1 PUSH2 0x3E6 SWAP2 SWAP1 PUSH2 0x346E JUMP JUMPDEST PUSH2 0xB16 JUMP JUMPDEST PUSH1 0x40 MLOAD PUSH2 0x3F8 SWAP2 SWAP1 PUSH2 0x3596 JUMP JUMPDEST PUSH1 0x40 MLOAD DUP1 SWAP2 SUB SWAP1 RETURN JUMPDEST CALLVALUE DUP1 ISZERO PUSH2 0x40D JUMPI PUSH1 0x0 DUP1 REVERT JUMPDEST POP PUSH2 0x428 PUSH1 0x4 DUP1 CALLDATASIZE SUB DUP2 ADD SWAP1 PUSH2 0x423 SWAP2 SWAP1 PUSH2 0x35B1 JUMP JUMPDEST PUSH2 0xBAA JUMP JUMPDEST PUSH1 0x40 MLOAD PUSH2 0x435 SWAP2 SWAP1 PUSH2 0x3253 JUMP JUMPDEST PUSH1 0x40 MLOAD DUP1 SWAP2 SUB SWAP1 RETURN JUMPDEST PUSH2 0x458 PUSH1 0x4 DUP1 CALLDATASIZE SUB DUP2 ADD SWAP1 PUSH2 0x453 SWAP2 SWAP1 PUSH2 0x346E JUMP JUMPDEST PUSH2 0xBCB JUMP JUMPDEST PUSH1 0x40 MLOAD PUSH2 0x465 SWAP2 SWAP1 PUSH2 0x3596 JUMP JUMPDEST PUSH1 0x40 MLOAD DUP1 SWAP2 SUB SWAP1 RETURN JUMPDEST PUSH2 0x488 PUSH1 0x4 DUP1 CALLDATASIZE SUB DUP2 ADD SWAP1 PUSH2 0x483 SWAP2 SWAP1 PUSH2 0x35DE JUMP JUMPDEST PUSH2 0xC66 JUMP JUMPDEST PUSH1 0x40 MLOAD PUSH2 0x495 SWAP2 SWAP1 PUSH2 0x3596 JUMP JUMPDEST PUSH1 0x40 MLOAD DUP1 SWAP2 SUB SWAP1 RETURN JUMPDEST CALLVALUE DUP1 ISZERO PUSH2 0x4AA JUMPI PUSH1 0x0 DUP1 REVERT JUMPDEST POP PUSH2 0x4B3 PUSH2 0xD2A JUMP JUMPDEST PUSH1 0x40 MLOAD PUSH2 0x4C0 SWAP2 SWAP1 PUSH2 0x363F JUMP JUMPDEST PUSH1 0x40 MLOAD DUP1 SWAP2 SUB SWAP1 RETURN JUMPDEST CALLVALUE DUP1 ISZERO PUSH2 0x4D5 JUMPI PUSH1 0x0 DUP1 REVERT JUMPDEST POP PUSH2 0x4F0 PUSH1 0x4 DUP1 CALLDATASIZE SUB DUP2 ADD SWAP1 PUSH2 0x4EB SWAP2 SWAP1 PUSH2 0x346E JUMP JUMPDEST PUSH2 0xD50 JUMP JUMPDEST PUSH1 0x40 MLOAD PUSH2 0x4FD SWAP2 SWAP1 PUSH2 0x3596 JUMP JUMPDEST PUSH1 0x40 MLOAD DUP1 SWAP2 SUB SWAP1 RETURN JUMPDEST CALLVALUE DUP1 ISZERO PUSH2 0x512 JUMPI PUSH1 0x0 DUP1 REVERT JUMPDEST POP PUSH2 0x52D PUSH1 0x4 DUP1 CALLDATASIZE SUB DUP2 ADD SWAP1 PUSH2 0x528 SWAP2 SWAP1 PUSH2 0x365A JUMP JUMPDEST PUSH2 0xEBD JUMP JUMPDEST PUSH1 0x40 MLOAD PUSH2 0x53C SWAP4 SWAP3 SWAP2 SWAP1 PUSH2 0x369A JUMP JUMPDEST PUSH1 0x40 MLOAD DUP1 SWAP2 SUB SWAP1 RETURN JUMPDEST CALLVALUE DUP1 ISZERO PUSH2 0x551 JUMPI PUSH1 0x0 DUP1 REVERT JUMPDEST POP PUSH2 0x55A PUSH2 0xF04 JUMP JUMPDEST PUSH1 0x40 MLOAD PUSH2 0x567 SWAP2 SWAP1 PUSH2 0x37BE JUMP JUMPDEST PUSH1 0x40 MLOAD DUP1 SWAP2 SUB SWAP1 RETURN JUMPDEST CALLVALUE DUP1 ISZERO PUSH2 0x57C JUMPI PUSH1 0x0 DUP1 REVERT JUMPDEST POP PUSH2 0x597 PUSH1 0x4 DUP1 CALLDATASIZE SUB DUP2 ADD SWAP1 PUSH2 0x592 SWAP2 SWAP1 PUSH2 0x346E JUMP JUMPDEST PUSH2 0xFB7 JUMP JUMPDEST PUSH1 0x40 MLOAD PUSH2 0x5A7 SWAP5 SWAP4 SWAP3 SWAP2 SWAP1 PUSH2 0x37E0 JUMP JUMPDEST PUSH1 0x40 MLOAD DUP1 SWAP2 SUB SWAP1 RETURN JUMPDEST CALLVALUE DUP1 ISZERO PUSH2 0x5BC JUMPI PUSH1 0x0 DUP1 REVERT JUMPDEST POP PUSH2 0x5C5 PUSH2 0x1000 JUMP JUMPDEST PUSH1 0x40 MLOAD PUSH2 0x5D2 SWAP2 SWAP1 PUSH2 0x3846 JUMP JUMPDEST PUSH1 0x40 MLOAD DUP1 SWAP2 SUB SWAP1 RETURN JUMPDEST PUSH2 0x5F5 PUSH1 0x4 DUP1 CALLDATASIZE SUB DUP2 ADD SWAP1 PUSH2 0x5F0 SWAP2 SWAP1 PUSH2 0x388D JUMP JUMPDEST PUSH2 0x1026 JUMP JUMPDEST PUSH1 0x40 MLOAD PUSH2 0x602 SWAP2 SWAP1 PUSH2 0x3596 JUMP JUMPDEST PUSH1 0x40 MLOAD DUP1 SWAP2 SUB SWAP1 RETURN JUMPDEST CALLVALUE DUP1 ISZERO PUSH2 0x617 JUMPI PUSH1 0x0 DUP1 REVERT JUMPDEST POP PUSH2 0x632 PUSH1 0x4 DUP1 CALLDATASIZE SUB DUP2 ADD SWAP1 PUSH2 0x62D SWAP2 SWAP1 PUSH2 0x38E0 JUMP JUMPDEST PUSH2 0x12A8 JUMP JUMPDEST PUSH1 0x40 MLOAD PUSH2 0x63F SWAP2 SWAP1 PUSH2 0x3253 JUMP JUMPDEST PUSH1 0x40 MLOAD DUP1 SWAP2 SUB SWAP1 RETURN JUMPDEST CALLVALUE DUP1 ISZERO PUSH2 0x654 JUMPI PUSH1 0x0 DUP1 REVERT JUMPDEST POP PUSH2 0x65D PUSH2 0x138F JUMP JUMPDEST STOP JUMPDEST CALLVALUE DUP1 ISZERO PUSH2 0x66B JUMPI PUSH1 0x0 DUP1 REVERT JUMPDEST POP PUSH2 0x686 PUSH1 0x4 DUP1 CALLDATASIZE SUB DUP2 ADD SWAP1 PUSH2 0x681 SWAP2 SWAP1 PUSH2 0x346E JUMP JUMPDEST PUSH2 0x13A3 JUMP JUMPDEST PUSH1 0x40 MLOAD PUSH2 0x693 SWAP2 SWAP1 PUSH2 0x3596 JUMP JUMPDEST PUSH1 0x40 MLOAD DUP1 SWAP2 SUB SWAP1 RETURN JUMPDEST CALLVALUE DUP1 ISZERO PUSH2 0x6A8 JUMPI PUSH1 0x0 DUP1 REVERT JUMPDEST POP PUSH2 0x6C3 PUSH1 0x4 DUP1 CALLDATASIZE SUB DUP2 ADD SWAP1 PUSH2 0x6BE SWAP2 SWAP1 PUSH2 0x35DE JUMP JUMPDEST PUSH2 0x1717 JUMP JUMPDEST PUSH1 0x40 MLOAD PUSH2 0x6D0 SWAP2 SWAP1 PUSH2 0x3596 JUMP JUMPDEST PUSH1 0x40 MLOAD DUP1 SWAP2 SUB SWAP1 RETURN JUMPDEST CALLVALUE DUP1 ISZERO PUSH2 0x6E5 JUMPI PUSH1 0x0 DUP1 REVERT JUMPDEST POP PUSH2 0x6EE PUSH2 0x180E JUMP JUMPDEST PUSH1 0x40 MLOAD PUSH2 0x6FB SWAP2 SWAP1 PUSH2 0x3253 JUMP JUMPDEST PUSH1 0x40 MLOAD DUP1 SWAP2 SUB SWAP1 RETURN JUMPDEST CALLVALUE DUP1 ISZERO PUSH2 0x710 JUMPI PUSH1 0x0 DUP1 REVERT JUMPDEST POP PUSH2 0x719 PUSH2 0x181F JUMP JUMPDEST PUSH1 0x40 MLOAD PUSH2 0x726 SWAP2 SWAP1 PUSH2 0x34AA JUMP JUMPDEST PUSH1 0x40 MLOAD DUP1 SWAP2 SUB SWAP1 RETURN JUMPDEST CALLVALUE DUP1 ISZERO PUSH2 0x73B JUMPI PUSH1 0x0 DUP1 REVERT JUMPDEST POP PUSH2 0x744 PUSH2 0x1848 JUMP JUMPDEST PUSH1 0x40 MLOAD PUSH2 0x751 SWAP2 SWAP1 PUSH2 0x3253 JUMP JUMPDEST PUSH1 0x40 MLOAD DUP1 SWAP2 SUB SWAP1 RETURN JUMPDEST CALLVALUE DUP1 ISZERO PUSH2 0x766 JUMPI PUSH1 0x0 DUP1 REVERT JUMPDEST POP PUSH2 0x781 PUSH1 0x4 DUP1 CALLDATASIZE SUB DUP2 ADD SWAP1 PUSH2 0x77C SWAP2 SWAP1 PUSH2 0x346E JUMP JUMPDEST PUSH2 0x18EB JUMP JUMPDEST PUSH1 0x40 MLOAD PUSH2 0x78E SWAP2 SWAP1 PUSH2 0x34AA JUMP JUMPDEST PUSH1 0x40 MLOAD DUP1 SWAP2 SUB SWAP1 RETURN JUMPDEST CALLVALUE DUP1 ISZERO PUSH2 0x7A3 JUMPI PUSH1 0x0 DUP1 REVERT JUMPDEST POP PUSH2 0x7BE PUSH1 0x4 DUP1 CALLDATASIZE SUB DUP2 ADD SWAP1 PUSH2 0x7B9 SWAP2 SWAP1 PUSH2 0x346E JUMP JUMPDEST PUSH2 0x192B JUMP JUMPDEST PUSH1 0x40 MLOAD PUSH2 0x7CB SWAP2 SWAP1 PUSH2 0x3253 JUMP JUMPDEST PUSH1 0x40 MLOAD DUP1 SWAP2 SUB SWAP1 RETURN JUMPDEST CALLVALUE DUP1 ISZERO PUSH2 0x7E0 JUMPI PUSH1 0x0 DUP1 REVERT JUMPDEST POP PUSH2 0x7FB PUSH1 0x4 DUP1 CALLDATASIZE SUB DUP2 ADD SWAP1 PUSH2 0x7F6 SWAP2 SWAP1 PUSH2 0x346E JUMP JUMPDEST PUSH2 0x19C5 JUMP JUMPDEST PUSH1 0x40 MLOAD PUSH2 0x808 SWAP2 SWAP1 PUSH2 0x3596 JUMP JUMPDEST PUSH1 0x40 MLOAD DUP1 SWAP2 SUB SWAP1 RETURN JUMPDEST CALLVALUE DUP1 ISZERO PUSH2 0x81D JUMPI PUSH1 0x0 DUP1 REVERT JUMPDEST POP PUSH2 0x838 PUSH1 0x4 DUP1 CALLDATASIZE SUB DUP2 ADD SWAP1 PUSH2 0x833 SWAP2 SWAP1 PUSH2 0x346E JUMP JUMPDEST PUSH2 0x1A5F JUMP JUMPDEST PUSH1 0x40 MLOAD PUSH2 0x845 SWAP2 SWAP1 PUSH2 0x3253 JUMP JUMPDEST PUSH1 0x40 MLOAD DUP1 SWAP2 SUB SWAP1 RETURN JUMPDEST CALLVALUE DUP1 ISZERO PUSH2 0x85A JUMPI PUSH1 0x0 DUP1 REVERT JUMPDEST POP PUSH2 0x875 PUSH1 0x4 DUP1 CALLDATASIZE SUB DUP2 ADD SWAP1 PUSH2 0x870 SWAP2 SWAP1 PUSH2 0x346E JUMP JUMPDEST PUSH2 0x1A77 JUMP JUMPDEST PUSH1 0x40 MLOAD PUSH2 0x884 SWAP4 SWAP3 SWAP2 SWAP1 PUSH2 0x3954 JUMP JUMPDEST PUSH1 0x40 MLOAD DUP1 SWAP2 SUB SWAP1 RETURN JUMPDEST CALLVALUE DUP1 ISZERO PUSH2 0x899 JUMPI PUSH1 0x0 DUP1 REVERT JUMPDEST POP PUSH2 0x8B4 PUSH1 0x4 DUP1 CALLDATASIZE SUB DUP2 ADD SWAP1 PUSH2 0x8AF SWAP2 SWAP1 PUSH2 0x35DE JUMP JUMPDEST PUSH2 0x1AC1 JUMP JUMPDEST STOP JUMPDEST CALLVALUE DUP1 ISZERO PUSH2 0x8C2 JUMPI PUSH1 0x0 DUP1 REVERT JUMPDEST POP PUSH2 0x8DD PUSH1 0x4 DUP1 CALLDATASIZE SUB DUP2 ADD SWAP1 PUSH2 0x8D8 SWAP2 SWAP1 PUSH2 0x346E JUMP JUMPDEST PUSH2 0x1BC7 JUMP JUMPDEST PUSH1 0x40 MLOAD PUSH2 0x8EA SWAP2 SWAP1 PUSH2 0x3253 JUMP JUMPDEST PUSH1 0x40 MLOAD DUP1 SWAP2 SUB SWAP1 RETURN JUMPDEST CALLVALUE DUP1 ISZERO PUSH2 0x8FF JUMPI PUSH1 0x0 DUP1 REVERT JUMPDEST POP PUSH2 0x908 PUSH2 0x1BDF JUMP JUMPDEST PUSH1 0x40 MLOAD PUSH2 0x915 SWAP2 SWAP1 PUSH2 0x3B6F JUMP JUMPDEST PUSH1 0x40 MLOAD DUP1 SWAP2 SUB SWAP1 RETURN JUMPDEST CALLVALUE DUP1 ISZERO PUSH2 0x92A JUMPI PUSH1 0x0 DUP1 REVERT JUMPDEST POP PUSH2 0x945 PUSH1 0x4 DUP1 CALLDATASIZE SUB DUP2 ADD SWAP1 PUSH2 0x940 SWAP2 SWAP1 PUSH2 0x3B91 JUMP JUMPDEST PUSH2 0x1D0B JUMP JUMPDEST PUSH1 0x40 MLOAD PUSH2 0x952 SWAP2 SWAP1 PUSH2 0x3596 JUMP JUMPDEST PUSH1 0x40 MLOAD DUP1 SWAP2 SUB SWAP1 RETURN JUMPDEST CALLVALUE DUP1 ISZERO PUSH2 0x967 JUMPI PUSH1 0x0 DUP1 REVERT JUMPDEST POP PUSH2 0x982 PUSH1 0x4 DUP1 CALLDATASIZE SUB DUP2 ADD SWAP1 PUSH2 0x97D SWAP2 SWAP1 PUSH2 0x35B1 JUMP JUMPDEST PUSH2 0x1DA8 JUMP JUMPDEST STOP JUMPDEST CALLVALUE DUP1 ISZERO PUSH2 0x990 JUMPI PUSH1 0x0 DUP1 REVERT JUMPDEST POP PUSH2 0x9AB PUSH1 0x4 DUP1 CALLDATASIZE SUB DUP2 ADD SWAP1 PUSH2 0x9A6 SWAP2 SWAP1 PUSH2 0x3BFD JUMP JUMPDEST PUSH2 0x1E2B JUMP JUMPDEST STOP JUMPDEST PUSH1 0xB DUP1 PUSH1 0x0 ADD SLOAD SWAP1 DUP1 PUSH1 0x1 ADD SLOAD SWAP1 POP DUP3 JUMP JUMPDEST PUSH1 0x0 PUSH1 0x40 MLOAD DUP1 PUSH1 0x40 ADD PUSH1 0x40 MSTORE DUP1 PUSH1 0x8 PUSH1 0x0 DUP8 DUP2 MSTORE PUSH1 0x20 ADD SWAP1 DUP2 MSTORE PUSH1 0x20 ADD PUSH1 0x0 KECCAK256 SLOAD DUP2 MSTORE PUSH1 0x20 ADD TIMESTAMP DUP2 MSTORE POP PUSH1 0xA PUSH1 0x0 DUP7 DUP2 MSTORE PUSH1 0x20 ADD SWAP1 DUP2 MSTORE PUSH1 0x20 ADD PUSH1 0x0 KECCAK256 PUSH1 0x0 DUP8 PUSH20 0xFFFFFFFFFFFFFFFFFFFFFFFFFFFFFFFFFFFFFFFF AND PUSH20 0xFFFFFFFFFFFFFFFFFFFFFFFFFFFFFFFFFFFFFFFF AND DUP2 MSTORE PUSH1 0x20 ADD SWAP1 DUP2 MSTORE PUSH1 0x20 ADD PUSH1 0x0 KECCAK256 PUSH1 0x0 DUP3 ADD MLOAD DUP2 PUSH1 0x0 ADD SSTORE PUSH1 0x20 DUP3 ADD MLOAD DUP2 PUSH1 0x1 ADD SSTORE SWAP1 POP POP PUSH4 0x150B7A02 PUSH1 0xE0 SHL SWAP1 POP SWAP6 SWAP5 POP POP POP POP POP JUMP JUMPDEST PUSH1 0x0 PUSH1 0xB PUSH1 0x0 ADD SLOAD SWAP1 POP SWAP1 JUMP JUMPDEST PUSH1 0x0 PUSH1 0x8 PUSH1 0x0 DUP4 DUP2 MSTORE PUSH1 0x20 ADD SWAP1 DUP2 MSTORE PUSH1 0x20 ADD PUSH1 0x0 KECCAK256 SLOAD SWAP1 POP SWAP2 SWAP1 POP JUMP JUMPDEST PUSH1 0x0 PUSH1 0x9 PUSH1 0x0 DUP4 DUP2 MSTORE PUSH1 0x20 ADD SWAP1 DUP2 MSTORE PUSH1 0x20 ADD PUSH1 0x0 KECCAK256 PUSH1 0x0 SWAP1 SLOAD SWAP1 PUSH2 0x100 EXP SWAP1 DIV PUSH20 0xFFFFFFFFFFFFFFFFFFFFFFFFFFFFFFFFFFFFFFFF AND SWAP1 POP SWAP2 SWAP1 POP JUMP JUMPDEST PUSH1 0x5 PUSH1 0x0 SWAP1 SLOAD SWAP1 PUSH2 0x100 EXP SWAP1 DIV PUSH20 0xFFFFFFFFFFFFFFFFFFFFFFFFFFFFFFFFFFFFFFFF AND DUP2 JUMP JUMPDEST PUSH1 0x3 PUSH1 0x0 SWAP1 SLOAD SWAP1 PUSH2 0x100 EXP SWAP1 DIV PUSH20 0xFFFFFFFFFFFFFFFFFFFFFFFFFFFFFFFFFFFFFFFF AND DUP2 JUMP JUMPDEST PUSH1 0x0 PUSH2 0xB21 DUP3 PUSH2 0x18EB JUMP JUMPDEST PUSH20 0xFFFFFFFFFFFFFFFFFFFFFFFFFFFFFFFFFFFFFFFF AND CALLER PUSH20 0xFFFFFFFFFFFFFFFFFFFFFFFFFFFFFFFFFFFFFFFF AND EQ PUSH2 0xB8E JUMPI PUSH1 0x40 MLOAD PUSH32 0x8C379A000000000000000000000000000000000000000000000000000000000 DUP2 MSTORE PUSH1 0x4 ADD PUSH2 0xB85 SWAP1 PUSH2 0x3CC0 JUMP JUMPDEST PUSH1 0x40 MLOAD DUP1 SWAP2 SUB SWAP1 REVERT JUMPDEST PUSH2 0xB97 CALLVALUE PUSH2 0x1F4A JUMP JUMPDEST POP PUSH2 0xBA1 CALLER PUSH2 0x1F9C JUMP JUMPDEST PUSH1 0x1 SWAP1 POP SWAP2 SWAP1 POP JUMP JUMPDEST PUSH1 0x0 DUP2 PUSH20 0xFFFFFFFFFFFFFFFFFFFFFFFFFFFFFFFFFFFFFFFF AND BALANCE SWAP1 POP SWAP2 SWAP1 POP JUMP JUMPDEST PUSH1 0x0 PUSH1 0x6 PUSH1 0x0 SWAP1 SLOAD SWAP1 PUSH2 0x100 EXP SWAP1 DIV PUSH20 0xFFFFFFFFFFFFFFFFFFFFFFFFFFFFFFFFFFFFFFFF AND PUSH20 0xFFFFFFFFFFFFFFFFFFFFFFFFFFFFFFFFFFFFFFFF AND PUSH4 0xC663A107 CALLVALUE DUP5 CALLER PUSH1 0x40 MLOAD DUP5 PUSH4 0xFFFFFFFF AND PUSH1 0xE0 SHL DUP2 MSTORE PUSH1 0x4 ADD PUSH2 0xC2B SWAP3 SWAP2 SWAP1 PUSH2 0x3CE0 JUMP JUMPDEST PUSH1 0x0 PUSH1 0x40 MLOAD DUP1 DUP4 SUB DUP2 DUP6 DUP9 DUP1 EXTCODESIZE ISZERO DUP1 ISZERO PUSH2 0xC44 JUMPI PUSH1 0x0 DUP1 REVERT JUMPDEST POP GAS CALL ISZERO DUP1 ISZERO PUSH2 0xC58 JUMPI RETURNDATASIZE PUSH1 0x0 DUP1 RETURNDATACOPY RETURNDATASIZE PUSH1 0x0 REVERT JUMPDEST POP POP POP POP POP PUSH1 0x1 SWAP1 POP SWAP2 SWAP1 POP JUMP JUMPDEST PUSH1 0x0 DUP3 CALLVALUE EQ PUSH2 0xCAA JUMPI PUSH1 0x40 MLOAD PUSH32 0x8C379A000000000000000000000000000000000000000000000000000000000 DUP2 MSTORE PUSH1 0x4 ADD PUSH2 0xCA1 SWAP1 PUSH2 0x3D7B JUMP JUMPDEST PUSH1 0x40 MLOAD DUP1 SWAP2 SUB SWAP1 REVERT JUMPDEST PUSH2 0xCB3 DUP3 PUSH2 0x18EB JUMP JUMPDEST PUSH20 0xFFFFFFFFFFFFFFFFFFFFFFFFFFFFFFFFFFFFFFFF AND CALLER PUSH20 0xFFFFFFFFFFFFFFFFFFFFFFFFFFFFFFFFFFFFFFFF AND EQ PUSH2 0xD20 JUMPI PUSH1 0x40 MLOAD PUSH32 0x8C379A000000000000000000000000000000000000000000000000000000000 DUP2 MSTORE PUSH1 0x4 ADD PUSH2 0xD17 SWAP1 PUSH2 0x3CC0 JUMP JUMPDEST PUSH1 0x40 MLOAD DUP1 SWAP2 SUB SWAP1 REVERT JUMPDEST PUSH1 0x1 SWAP1 POP SWAP3 SWAP2 POP POP JUMP JUMPDEST PUSH1 0x4 PUSH1 0x0 SWAP1 SLOAD SWAP1 PUSH2 0x100 EXP SWAP1 DIV PUSH20 0xFFFFFFFFFFFFFFFFFFFFFFFFFFFFFFFFFFFFFFFF AND DUP2 JUMP JUMPDEST PUSH1 0x0 DUP1 PUSH1 0x0 SWAP1 SLOAD SWAP1 PUSH2 0x100 EXP SWAP1 DIV PUSH1 0xFF AND ISZERO PUSH2 0xDA1 JUMPI PUSH1 0x40 MLOAD PUSH32 0x8C379A000000000000000000000000000000000000000000000000000000000 DUP2 MSTORE PUSH1 0x4 ADD PUSH2 0xD98 SWAP1 PUSH2 0x3DE7 JUMP JUMPDEST PUSH1 0x40 MLOAD DUP1 SWAP2 SUB SWAP1 REVERT JUMPDEST PUSH1 0x1 PUSH1 0x0 DUP1 PUSH2 0x100 EXP DUP2 SLOAD DUP2 PUSH1 0xFF MUL NOT AND SWAP1 DUP4 ISZERO ISZERO MUL OR SWAP1 SSTORE POP PUSH1 0x5 PUSH1 0x0 SWAP1 SLOAD SWAP1 PUSH2 0x100 EXP SWAP1 DIV PUSH20 0xFFFFFFFFFFFFFFFFFFFFFFFFFFFFFFFFFFFFFFFF AND PUSH20 0xFFFFFFFFFFFFFFFFFFFFFFFFFFFFFFFFFFFFFFFF AND PUSH4 0xADC9772E CALLER DUP5 PUSH1 0x40 MLOAD DUP4 PUSH4 0xFFFFFFFF AND PUSH1 0xE0 SHL DUP2 MSTORE PUSH1 0x4 ADD PUSH2 0xE18 SWAP3 SWAP2 SWAP1 PUSH2 0x3E07 JUMP JUMPDEST PUSH1 0x20 PUSH1 0x40 MLOAD DUP1 DUP4 SUB DUP2 PUSH1 0x0 DUP8 GAS CALL ISZERO DUP1 ISZERO PUSH2 0xE37 JUMPI RETURNDATASIZE PUSH1 0x0 DUP1 RETURNDATACOPY RETURNDATASIZE PUSH1 0x0 REVERT JUMPDEST POP POP POP POP PUSH1 0x40 MLOAD RETURNDATASIZE PUSH1 0x1F NOT PUSH1 0x1F DUP3 ADD AND DUP3 ADD DUP1 PUSH1 0x40 MSTORE POP DUP2 ADD SWAP1 PUSH2 0xE5B SWAP2 SWAP1 PUSH2 0x3E45 JUMP JUMPDEST PUSH2 0xE9A JUMPI PUSH1 0x40 MLOAD PUSH32 0x8C379A000000000000000000000000000000000000000000000000000000000 DUP2 MSTORE PUSH1 0x4 ADD PUSH2 0xE91 SWAP1 PUSH2 0x3EBE JUMP JUMPDEST PUSH1 0x40 MLOAD DUP1 SWAP2 SUB SWAP1 REVERT JUMPDEST PUSH1 0x1 SWAP1 POP PUSH1 0x0 DUP1 PUSH1 0x0 PUSH2 0x100 EXP DUP2 SLOAD DUP2 PUSH1 0xFF MUL NOT AND SWAP1 DUP4 ISZERO ISZERO MUL OR SWAP1 SSTORE POP SWAP2 SWAP1 POP JUMP JUMPDEST PUSH1 0x10 PUSH1 0x20 MSTORE DUP2 PUSH1 0x0 MSTORE PUSH1 0x40 PUSH1 0x0 KECCAK256 DUP2 DUP2 SLOAD DUP2 LT PUSH2 0xED9 JUMPI PUSH1 0x0 DUP1 REVERT JUMPDEST SWAP1 PUSH1 0x0 MSTORE PUSH1 0x20 PUSH1 0x0 KECCAK256 SWAP1 PUSH1 0x3 MUL ADD PUSH1 0x0 SWAP2 POP SWAP2 POP POP DUP1 PUSH1 0x0 ADD SLOAD SWAP1 DUP1 PUSH1 0x1 ADD SLOAD SWAP1 DUP1 PUSH1 0x2 ADD SLOAD SWAP1 POP DUP4 JUMP JUMPDEST PUSH1 0x60 PUSH1 0x7 PUSH1 0x0 CALLER PUSH20 0xFFFFFFFFFFFFFFFFFFFFFFFFFFFFFFFFFFFFFFFF AND PUSH20 0xFFFFFFFFFFFFFFFFFFFFFFFFFFFFFFFFFFFFFFFF AND DUP2 MSTORE PUSH1 0x20 ADD SWAP1 DUP2 MSTORE PUSH1 0x20 ADD PUSH1 0x0 KECCAK256 PUSH1 0x0 ADD DUP1 SLOAD DUP1 PUSH1 0x20 MUL PUSH1 0x20 ADD PUSH1 0x40 MLOAD SWAP1 DUP2 ADD PUSH1 0x40 MSTORE DUP1 SWAP3 SWAP2 SWAP1 DUP2 DUP2 MSTORE PUSH1 0x20 ADD PUSH1 0x0 SWAP1 JUMPDEST DUP3 DUP3 LT ISZERO PUSH2 0xFAE JUMPI DUP4 DUP3 SWAP1 PUSH1 0x0 MSTORE PUSH1 0x20 PUSH1 0x0 KECCAK256 SWAP1 PUSH1 0x2 MUL ADD PUSH1 0x40 MLOAD DUP1 PUSH1 0x40 ADD PUSH1 0x40 MSTORE SWAP1 DUP2 PUSH1 0x0 DUP3 ADD SLOAD DUP2 MSTORE PUSH1 0x20 ADD PUSH1 0x1 DUP3 ADD SLOAD DUP2 MSTORE POP POP DUP2 MSTORE PUSH1 0x20 ADD SWAP1 PUSH1 0x1 ADD SWAP1 PUSH2 0xF68 JUMP JUMPDEST POP POP POP POP SWAP1 POP SWAP1 JUMP JUMPDEST PUSH1 0x0 DUP1 PUSH1 0x0 DUP1 PUSH1 0xE PUSH1 0x0 DUP7 DUP2 MSTORE PUSH1 0x20 ADD SWAP1 DUP2 MSTORE PUSH1 0x20 ADD PUSH1 0x0 KECCAK256 SLOAD SWAP1 POP CALLER SWAP4 POP PUSH1 0x8 PUSH1 0x0 DUP7 DUP2 MSTORE PUSH1 0x20 ADD SWAP1 DUP2 MSTORE PUSH1 0x20 ADD PUSH1 0x0 KECCAK256 SLOAD SWAP3 POP PUSH2 0xFF7 CALLER DUP7 DUP4 PUSH2 0x12A8 JUMP JUMPDEST SWAP2 POP SWAP2 SWAP4 POP SWAP2 SWAP4 JUMP JUMPDEST PUSH1 0x6 PUSH1 0x0 SWAP1 SLOAD SWAP1 PUSH2 0x100 EXP SWAP1 DIV PUSH20 0xFFFFFFFFFFFFFFFFFFFFFFFFFFFFFFFFFFFFFFFF AND DUP2 JUMP JUMPDEST PUSH1 0x0 DUP3 CALLVALUE EQ PUSH2 0x106A JUMPI PUSH1 0x40 MLOAD PUSH32 0x8C379A000000000000000000000000000000000000000000000000000000000 DUP2 MSTORE PUSH1 0x4 ADD PUSH2 0x1061 SWAP1 PUSH2 0x3F2A JUMP JUMPDEST PUSH1 0x40 MLOAD DUP1 SWAP2 SUB SWAP1 REVERT JUMPDEST PUSH1 0x0 PUSH1 0xD PUSH1 0x0 DUP5 DUP2 MSTORE PUSH1 0x20 ADD SWAP1 DUP2 MSTORE PUSH1 0x20 ADD PUSH1 0x0 KECCAK256 PUSH1 0x1 ADD SLOAD SUB PUSH2 0x10A4 JUMPI CALLVALUE PUSH1 0xD PUSH1 0x0 DUP5 DUP2 MSTORE PUSH1 0x20 ADD SWAP1 DUP2 MSTORE PUSH1 0x20 ADD PUSH1 0x0 KECCAK256 PUSH1 0x1 ADD DUP2 SWAP1 SSTORE POP JUMPDEST CALLVALUE PUSH1 0xD PUSH1 0x0 DUP5 DUP2 MSTORE PUSH1 0x20 ADD SWAP1 DUP2 MSTORE PUSH1 0x20 ADD PUSH1 0x0 KECCAK256 PUSH1 0x2 ADD PUSH1 0x0 DUP3 DUP3 SLOAD PUSH2 0x10CA SWAP2 SWAP1 PUSH2 0x3F79 JUMP JUMPDEST SWAP3 POP POP DUP2 SWAP1 SSTORE POP PUSH1 0x0 PUSH1 0x40 MLOAD DUP1 PUSH1 0x60 ADD PUSH1 0x40 MSTORE DUP1 CALLVALUE DUP2 MSTORE PUSH1 0x20 ADD PUSH1 0xD PUSH1 0x0 DUP7 DUP2 MSTORE PUSH1 0x20 ADD SWAP1 DUP2 MSTORE PUSH1 0x20 ADD PUSH1 0x0 KECCAK256 PUSH1 0x2 ADD SLOAD DUP2 MSTORE PUSH1 0x20 ADD TIMESTAMP DUP2 MSTORE POP SWAP1 POP PUSH1 0x10 PUSH1 0x0 CALLER PUSH20 0xFFFFFFFFFFFFFFFFFFFFFFFFFFFFFFFFFFFFFFFF AND PUSH20 0xFFFFFFFFFFFFFFFFFFFFFFFFFFFFFFFFFFFFFFFF AND DUP2 MSTORE PUSH1 0x20 ADD SWAP1 DUP2 MSTORE PUSH1 0x20 ADD PUSH1 0x0 KECCAK256 DUP2 SWAP1 DUP1 PUSH1 0x1 DUP2 SLOAD ADD DUP1 DUP3 SSTORE DUP1 SWAP2 POP POP PUSH1 0x1 SWAP1 SUB SWAP1 PUSH1 0x0 MSTORE PUSH1 0x20 PUSH1 0x0 KECCAK256 SWAP1 PUSH1 0x3 MUL ADD PUSH1 0x0 SWAP1 SWAP2 SWAP1 SWAP2 SWAP1 SWAP2 POP PUSH1 0x0 DUP3 ADD MLOAD DUP2 PUSH1 0x0 ADD SSTORE PUSH1 0x20 DUP3 ADD MLOAD DUP2 PUSH1 0x1 ADD SSTORE PUSH1 0x40 DUP3 ADD MLOAD DUP2 PUSH1 0x2 ADD SSTORE POP POP PUSH2 0x1199 DUP4 CALLVALUE PUSH2 0x2158 JUMP JUMPDEST POP CALLVALUE PUSH1 0xF PUSH1 0x0 DUP6 DUP2 MSTORE PUSH1 0x20 ADD SWAP1 DUP2 MSTORE PUSH1 0x20 ADD PUSH1 0x0 KECCAK256 PUSH1 0x0 DUP3 DUP3 SLOAD PUSH2 0x11BD SWAP2 SWAP1 PUSH2 0x3F79 JUMP JUMPDEST SWAP3 POP POP DUP2 SWAP1 SSTORE POP PUSH1 0x0 PUSH2 0x11CF CALLVALUE PUSH2 0x22C8 JUMP JUMPDEST PUSH1 0x40 MLOAD PUSH1 0x20 ADD PUSH2 0x11DF SWAP2 SWAP1 PUSH2 0x40DC JUMP JUMPDEST PUSH1 0x40 MLOAD PUSH1 0x20 DUP2 DUP4 SUB SUB DUP2 MSTORE SWAP1 PUSH1 0x40 MSTORE SWAP1 POP PUSH1 0x4 PUSH1 0x0 SWAP1 SLOAD SWAP1 PUSH2 0x100 EXP SWAP1 DIV PUSH20 0xFFFFFFFFFFFFFFFFFFFFFFFFFFFFFFFFFFFFFFFF AND PUSH20 0xFFFFFFFFFFFFFFFFFFFFFFFFFFFFFFFFFFFFFFFF AND PUSH4 0x890D80C DUP3 PUSH1 0x40 MLOAD DUP3 PUSH4 0xFFFFFFFF AND PUSH1 0xE0 SHL DUP2 MSTORE PUSH1 0x4 ADD PUSH2 0x124B SWAP2 SWAP1 PUSH2 0x4237 JUMP JUMPDEST PUSH1 0x20 PUSH1 0x40 MLOAD DUP1 DUP4 SUB DUP2 PUSH1 0x0 DUP8 GAS CALL ISZERO DUP1 ISZERO PUSH2 0x126A JUMPI RETURNDATASIZE PUSH1 0x0 DUP1 RETURNDATACOPY RETURNDATASIZE PUSH1 0x0 REVERT JUMPDEST POP POP POP POP PUSH1 0x40 MLOAD RETURNDATASIZE PUSH1 0x1F NOT PUSH1 0x1F DUP3 ADD AND DUP3 ADD DUP1 PUSH1 0x40 MSTORE POP DUP2 ADD SWAP1 PUSH2 0x128E SWAP2 SWAP1 PUSH2 0x3E45 JUMP JUMPDEST POP PUSH2 0x129A CALLVALUE DUP8 DUP7 PUSH2 0x2396 JUMP JUMPDEST POP PUSH1 0x1 SWAP3 POP POP POP SWAP4 SWAP3 POP POP POP JUMP JUMPDEST PUSH1 0x0 DUP1 PUSH1 0x10 PUSH1 0x0 DUP7 PUSH20 0xFFFFFFFFFFFFFFFFFFFFFFFFFFFFFFFFFFFFFFFF AND PUSH20 0xFFFFFFFFFFFFFFFFFFFFFFFFFFFFFFFFFFFFFFFF AND DUP2 MSTORE PUSH1 0x20 ADD SWAP1 DUP2 MSTORE PUSH1 0x20 ADD PUSH1 0x0 KECCAK256 DUP5 DUP2 SLOAD DUP2 LT PUSH2 0x12FC JUMPI PUSH2 0x12FB PUSH2 0x427F JUMP JUMPDEST JUMPDEST SWAP1 PUSH1 0x0 MSTORE PUSH1 0x20 PUSH1 0x0 KECCAK256 SWAP1 PUSH1 0x3 MUL ADD PUSH1 0x40 MLOAD DUP1 PUSH1 0x60 ADD PUSH1 0x40 MSTORE SWAP1 DUP2 PUSH1 0x0 DUP3 ADD SLOAD DUP2 MSTORE PUSH1 0x20 ADD PUSH1 0x1 DUP3 ADD SLOAD DUP2 MSTORE PUSH1 0x20 ADD PUSH1 0x2 DUP3 ADD SLOAD DUP2 MSTORE POP POP SWAP1 POP PUSH1 0x0 PUSH1 0xD PUSH1 0x0 DUP6 DUP2 MSTORE PUSH1 0x20 ADD SWAP1 DUP2 MSTORE PUSH1 0x20 ADD PUSH1 0x0 KECCAK256 PUSH1 0x2 ADD SLOAD SWAP1 POP PUSH1 0x0 DUP3 PUSH1 0x20 ADD MLOAD DUP3 PUSH2 0x1362 SWAP2 SWAP1 PUSH2 0x42AE JUMP JUMPDEST SWAP1 POP DUP3 PUSH1 0x20 ADD MLOAD DUP2 DUP5 PUSH1 0x0 ADD MLOAD PUSH2 0x1379 SWAP2 SWAP1 PUSH2 0x42E2 JUMP JUMPDEST PUSH2 0x1383 SWAP2 SWAP1 PUSH2 0x4353 JUMP JUMPDEST SWAP4 POP POP POP POP SWAP4 SWAP3 POP POP POP JUMP JUMPDEST PUSH2 0x1397 PUSH2 0x241E JUMP JUMPDEST PUSH2 0x13A1 PUSH1 0x0 PUSH2 0x249C JUMP JUMPDEST JUMP JUMPDEST PUSH1 0x0 CALLER PUSH20 0xFFFFFFFFFFFFFFFFFFFFFFFFFFFFFFFFFFFFFFFF AND PUSH1 0x9 PUSH1 0x0 DUP5 DUP2 MSTORE PUSH1 0x20 ADD SWAP1 DUP2 MSTORE PUSH1 0x20 ADD PUSH1 0x0 KECCAK256 PUSH1 0x0 SWAP1 SLOAD SWAP1 PUSH2 0x100 EXP SWAP1 DIV PUSH20 0xFFFFFFFFFFFFFFFFFFFFFFFFFFFFFFFFFFFFFFFF AND PUSH20 0xFFFFFFFFFFFFFFFFFFFFFFFFFFFFFFFFFFFFFFFF AND EQ PUSH2 0x1446 JUMPI PUSH1 0x40 MLOAD PUSH32 0x8C379A000000000000000000000000000000000000000000000000000000000 DUP2 MSTORE PUSH1 0x4 ADD PUSH2 0x143D SWAP1 PUSH2 0x43D0 JUMP JUMPDEST PUSH1 0x40 MLOAD DUP1 SWAP2 SUB SWAP1 REVERT JUMPDEST CALLER PUSH20 0xFFFFFFFFFFFFFFFFFFFFFFFFFFFFFFFFFFFFFFFF AND PUSH1 0x4 PUSH1 0x0 SWAP1 SLOAD SWAP1 PUSH2 0x100 EXP SWAP1 DIV PUSH20 0xFFFFFFFFFFFFFFFFFFFFFFFFFFFFFFFFFFFFFFFF AND PUSH20 0xFFFFFFFFFFFFFFFFFFFFFFFFFFFFFFFFFFFFFFFF AND PUSH4 0x6352211E DUP5 PUSH1 0x40 MLOAD DUP3 PUSH4 0xFFFFFFFF AND PUSH1 0xE0 SHL DUP2 MSTORE PUSH1 0x4 ADD PUSH2 0x14B8 SWAP2 SWAP1 PUSH2 0x3253 JUMP JUMPDEST PUSH1 0x20 PUSH1 0x40 MLOAD DUP1 DUP4 SUB DUP2 DUP7 GAS STATICCALL ISZERO DUP1 ISZERO PUSH2 0x14D5 JUMPI RETURNDATASIZE PUSH1 0x0 DUP1 RETURNDATACOPY RETURNDATASIZE PUSH1 0x0 REVERT JUMPDEST POP POP POP POP PUSH1 0x40 MLOAD RETURNDATASIZE PUSH1 0x1F NOT PUSH1 0x1F DUP3 ADD AND DUP3 ADD DUP1 PUSH1 0x40 MSTORE POP DUP2 ADD SWAP1 PUSH2 0x14F9 SWAP2 SWAP1 PUSH2 0x4405 JUMP JUMPDEST PUSH20 0xFFFFFFFFFFFFFFFFFFFFFFFFFFFFFFFFFFFFFFFF AND EQ PUSH2 0x154F JUMPI PUSH1 0x40 MLOAD PUSH32 0x8C379A000000000000000000000000000000000000000000000000000000000 DUP2 MSTORE PUSH1 0x4 ADD PUSH2 0x1546 SWAP1 PUSH2 0x43D0 JUMP JUMPDEST PUSH1 0x40 MLOAD DUP1 SWAP2 SUB SWAP1 REVERT JUMPDEST PUSH1 0x4 PUSH1 0x0 SWAP1 SLOAD SWAP1 PUSH2 0x100 EXP SWAP1 DIV PUSH20 0xFFFFFFFFFFFFFFFFFFFFFFFFFFFFFFFFFFFFFFFF AND PUSH20 0xFFFFFFFFFFFFFFFFFFFFFFFFFFFFFFFFFFFFFFFF AND PUSH4 0x2890E0D7 DUP4 PUSH1 0x40 MLOAD DUP3 PUSH4 0xFFFFFFFF AND PUSH1 0xE0 SHL DUP2 MSTORE PUSH1 0x4 ADD PUSH2 0x15AA SWAP2 SWAP1 PUSH2 0x3253 JUMP JUMPDEST PUSH1 0x20 PUSH1 0x40 MLOAD DUP1 DUP4 SUB DUP2 PUSH1 0x0 DUP8 GAS CALL ISZERO DUP1 ISZERO PUSH2 0x15C9 JUMPI RETURNDATASIZE PUSH1 0x0 DUP1 RETURNDATACOPY RETURNDATASIZE PUSH1 0x0 REVERT JUMPDEST POP POP POP POP PUSH1 0x40 MLOAD RETURNDATASIZE PUSH1 0x1F NOT PUSH1 0x1F DUP3 ADD AND DUP3 ADD DUP1 PUSH1 0x40 MSTORE POP DUP2 ADD SWAP1 PUSH2 0x15ED SWAP2 SWAP1 PUSH2 0x3E45 JUMP JUMPDEST POP PUSH1 0x3 PUSH1 0x0 SWAP1 SLOAD SWAP1 PUSH2 0x100 EXP SWAP1 DIV PUSH20 0xFFFFFFFFFFFFFFFFFFFFFFFFFFFFFFFFFFFFFFFF AND PUSH20 0xFFFFFFFFFFFFFFFFFFFFFFFFFFFFFFFFFFFFFFFF AND PUSH4 0x5F367B03 CALLER PUSH2 0x165B PUSH8 0xDE0B6B3A7640000 PUSH1 0x8 PUSH1 0x0 DUP9 DUP2 MSTORE PUSH1 0x20 ADD SWAP1 DUP2 MSTORE PUSH1 0x20 ADD PUSH1 0x0 KECCAK256 SLOAD PUSH2 0x2561 SWAP1 SWAP2 SWAP1 PUSH4 0xFFFFFFFF AND JUMP JUMPDEST PUSH1 0x40 MLOAD DUP4 PUSH4 0xFFFFFFFF AND PUSH1 0xE0 SHL DUP2 MSTORE PUSH1 0x4 ADD PUSH2 0x1678 SWAP3 SWAP2 SWAP1 PUSH2 0x3E07 JUMP JUMPDEST PUSH1 0x20 PUSH1 0x40 MLOAD DUP1 DUP4 SUB DUP2 PUSH1 0x0 DUP8 GAS CALL ISZERO DUP1 ISZERO PUSH2 0x1697 JUMPI RETURNDATASIZE PUSH1 0x0 DUP1 RETURNDATACOPY RETURNDATASIZE PUSH1 0x0 REVERT JUMPDEST POP POP POP POP PUSH1 0x40 MLOAD RETURNDATASIZE PUSH1 0x1F NOT PUSH1 0x1F DUP3 ADD AND DUP3 ADD DUP1 PUSH1 0x40 MSTORE POP DUP2 ADD SWAP1 PUSH2 0x16BB SWAP2 SWAP1 PUSH2 0x3E45 JUMP JUMPDEST PUSH2 0x16FA JUMPI PUSH1 0x40 MLOAD PUSH32 0x8C379A000000000000000000000000000000000000000000000000000000000 DUP2 MSTORE PUSH1 0x4 ADD PUSH2 0x16F1 SWAP1 PUSH2 0x447E JUMP JUMPDEST PUSH1 0x40 MLOAD DUP1 SWAP2 SUB SWAP1 REVERT JUMPDEST PUSH2 0x1704 CALLER DUP4 PUSH2 0x2577 JUMP JUMPDEST PUSH2 0x170E DUP3 CALLER PUSH2 0x26ED JUMP JUMPDEST PUSH1 0x1 SWAP1 POP SWAP2 SWAP1 POP JUMP JUMPDEST PUSH1 0x0 PUSH1 0x4 PUSH1 0x0 SWAP1 SLOAD SWAP1 PUSH2 0x100 EXP SWAP1 DIV PUSH20 0xFFFFFFFFFFFFFFFFFFFFFFFFFFFFFFFFFFFFFFFF AND PUSH20 0xFFFFFFFFFFFFFFFFFFFFFFFFFFFFFFFFFFFFFFFF AND PUSH4 0xB2C3A717 DUP5 ADDRESS DUP6 PUSH1 0x40 MLOAD DUP5 PUSH4 0xFFFFFFFF AND PUSH1 0xE0 SHL DUP2 MSTORE PUSH1 0x4 ADD PUSH2 0x1778 SWAP4 SWAP3 SWAP2 SWAP1 PUSH2 0x449E JUMP JUMPDEST PUSH1 0x20 PUSH1 0x40 MLOAD DUP1 DUP4 SUB DUP2 PUSH1 0x0 DUP8 GAS CALL ISZERO DUP1 ISZERO PUSH2 0x1797 JUMPI RETURNDATASIZE PUSH1 0x0 DUP1 RETURNDATACOPY RETURNDATASIZE PUSH1 0x0 REVERT JUMPDEST POP POP POP POP PUSH1 0x40 MLOAD RETURNDATASIZE PUSH1 0x1F NOT PUSH1 0x1F DUP3 ADD AND DUP3 ADD DUP1 PUSH1 0x40 MSTORE POP DUP2 ADD SWAP1 PUSH2 0x17BB SWAP2 SWAP1 PUSH2 0x3E45 JUMP JUMPDEST PUSH2 0x17FA JUMPI PUSH1 0x40 MLOAD PUSH32 0x8C379A000000000000000000000000000000000000000000000000000000000 DUP2 MSTORE PUSH1 0x4 ADD PUSH2 0x17F1 SWAP1 PUSH2 0x4521 JUMP JUMPDEST PUSH1 0x40 MLOAD DUP1 SWAP2 SUB SWAP1 REVERT JUMPDEST PUSH2 0x1803 DUP4 PUSH2 0x2C5B JUMP JUMPDEST POP PUSH1 0x1 SWAP1 POP SWAP3 SWAP2 POP POP JUMP JUMPDEST PUSH1 0x0 PUSH2 0x181A PUSH1 0x1 PUSH2 0x2C8C JUMP JUMPDEST SWAP1 POP SWAP1 JUMP JUMPDEST PUSH1 0x0 DUP1 PUSH1 0x1 SWAP1 SLOAD SWAP1 PUSH2 0x100 EXP SWAP1 DIV PUSH20 0xFFFFFFFFFFFFFFFFFFFFFFFFFFFFFFFFFFFFFFFF AND SWAP1 POP SWAP1 JUMP JUMPDEST PUSH1 0x0 PUSH1 0x4 PUSH1 0x0 SWAP1 SLOAD SWAP1 PUSH2 0x100 EXP SWAP1 DIV PUSH20 0xFFFFFFFFFFFFFFFFFFFFFFFFFFFFFFFFFFFFFFFF AND PUSH20 0xFFFFFFFFFFFFFFFFFFFFFFFFFFFFFFFFFFFFFFFF AND PUSH4 0x70A08231 CALLER PUSH1 0x40 MLOAD DUP3 PUSH4 0xFFFFFFFF AND PUSH1 0xE0 SHL DUP2 MSTORE PUSH1 0x4 ADD PUSH2 0x18A5 SWAP2 SWAP1 PUSH2 0x34AA JUMP JUMPDEST PUSH1 0x20 PUSH1 0x40 MLOAD DUP1 DUP4 SUB DUP2 DUP7 GAS STATICCALL ISZERO DUP1 ISZERO PUSH2 0x18C2 JUMPI RETURNDATASIZE PUSH1 0x0 DUP1 RETURNDATACOPY RETURNDATASIZE PUSH1 0x0 REVERT JUMPDEST POP POP POP POP PUSH1 0x40 MLOAD RETURNDATASIZE PUSH1 0x1F NOT PUSH1 0x1F DUP3 ADD AND DUP3 ADD DUP1 PUSH1 0x40 MSTORE POP DUP2 ADD SWAP1 PUSH2 0x18E6 SWAP2 SWAP1 PUSH2 0x4556 JUMP JUMPDEST SWAP1 POP SWAP1 JUMP JUMPDEST PUSH1 0x0 PUSH1 0xD PUSH1 0x0 DUP4 DUP2 MSTORE PUSH1 0x20 ADD SWAP1 DUP2 MSTORE PUSH1 0x20 ADD PUSH1 0x0 KECCAK256 PUSH1 0x0 ADD PUSH1 0x0 SWAP1 SLOAD SWAP1 PUSH2 0x100 EXP SWAP1 DIV PUSH20 0xFFFFFFFFFFFFFFFFFFFFFFFFFFFFFFFFFFFFFFFF AND SWAP1 POP SWAP2 SWAP1 POP JUMP JUMPDEST PUSH1 0x0 DUP1 PUSH2 0x196A PUSH1 0xF PUSH1 0x0 DUP6 DUP2 MSTORE PUSH1 0x20 ADD SWAP1 DUP2 MSTORE PUSH1 0x20 ADD PUSH1 0x0 KECCAK256 SLOAD PUSH1 0xD PUSH1 0x0 DUP7 DUP2 MSTORE PUSH1 0x20 ADD SWAP1 DUP2 MSTORE PUSH1 0x20 ADD PUSH1 0x0 KECCAK256 PUSH1 0x2 ADD SLOAD PUSH2 0x2C9A SWAP1 SWAP2 SWAP1 PUSH4 0xFFFFFFFF AND JUMP JUMPDEST SWAP1 POP PUSH1 0x0 PUSH1 0xF PUSH1 0x0 DUP6 DUP2 MSTORE PUSH1 0x20 ADD SWAP1 DUP2 MSTORE PUSH1 0x20 ADD PUSH1 0x0 KECCAK256 SLOAD SUB PUSH2 0x1991 JUMPI PUSH1 0x0 SWAP2 POP POP PUSH2 0x19C0 JUMP JUMPDEST PUSH1 0xF PUSH1 0x0 DUP5 DUP2 MSTORE PUSH1 0x20 ADD SWAP1 DUP2 MSTORE PUSH1 0x20 ADD PUSH1 0x0 KECCAK256 SLOAD PUSH1 0x64 DUP3 PUSH2 0x19B2 SWAP2 SWAP1 PUSH2 0x42E2 JUMP JUMPDEST PUSH2 0x19BC SWAP2 SWAP1 PUSH2 0x4353 JUMP JUMPDEST SWAP2 POP POP JUMPDEST SWAP2 SWAP1 POP JUMP JUMPDEST PUSH1 0x0 PUSH1 0x6 PUSH1 0x0 SWAP1 SLOAD SWAP1 PUSH2 0x100 EXP SWAP1 DIV PUSH20 0xFFFFFFFFFFFFFFFFFFFFFFFFFFFFFFFFFFFFFFFF AND PUSH20 0xFFFFFFFFFFFFFFFFFFFFFFFFFFFFFFFFFFFFFFFF AND PUSH4 0x6527B55D DUP4 CALLER PUSH1 0x40 MLOAD DUP4 PUSH4 0xFFFFFFFF AND PUSH1 0xE0 SHL DUP2 MSTORE PUSH1 0x4 ADD PUSH2 0x1A24 SWAP3 SWAP2 SWAP1 PUSH2 0x3CE0 JUMP JUMPDEST PUSH1 0x0 PUSH1 0x40 MLOAD DUP1 DUP4 SUB DUP2 PUSH1 0x0 DUP8 DUP1 EXTCODESIZE ISZERO DUP1 ISZERO PUSH2 0x1A3E JUMPI PUSH1 0x0 DUP1 REVERT JUMPDEST POP GAS CALL ISZERO DUP1 ISZERO PUSH2 0x1A52 JUMPI RETURNDATASIZE PUSH1 0x0 DUP1 RETURNDATACOPY RETURNDATASIZE PUSH1 0x0 REVERT JUMPDEST POP POP POP POP PUSH1 0x1 SWAP1 POP SWAP2 SWAP1 POP JUMP JUMPDEST PUSH1 0xF PUSH1 0x20 MSTORE DUP1 PUSH1 0x0 MSTORE PUSH1 0x40 PUSH1 0x0 KECCAK256 PUSH1 0x0 SWAP2 POP SWAP1 POP SLOAD DUP2 JUMP JUMPDEST PUSH1 0xD PUSH1 0x20 MSTORE DUP1 PUSH1 0x0 MSTORE PUSH1 0x40 PUSH1 0x0 KECCAK256 PUSH1 0x0 SWAP2 POP SWAP1 POP DUP1 PUSH1 0x0 ADD PUSH1 0x0 SWAP1 SLOAD SWAP1 PUSH2 0x100 EXP SWAP1 DIV PUSH20 0xFFFFFFFFFFFFFFFFFFFFFFFFFFFFFFFFFFFFFFFF AND SWAP1 DUP1 PUSH1 0x1 ADD SLOAD SWAP1 DUP1 PUSH1 0x2 ADD SLOAD SWAP1 POP DUP4 JUMP JUMPDEST PUSH2 0x1AC9 PUSH2 0x241E JUMP JUMPDEST PUSH1 0x0 PUSH20 0xFFFFFFFFFFFFFFFFFFFFFFFFFFFFFFFFFFFFFFFF AND PUSH1 0xD PUSH1 0x0 DUP5 DUP2 MSTORE PUSH1 0x20 ADD SWAP1 DUP2 MSTORE PUSH1 0x20 ADD PUSH1 0x0 KECCAK256 PUSH1 0x0 ADD PUSH1 0x0 SWAP1 SLOAD SWAP1 PUSH2 0x100 EXP SWAP1 DIV PUSH20 0xFFFFFFFFFFFFFFFFFFFFFFFFFFFFFFFFFFFFFFFF AND PUSH20 0xFFFFFFFFFFFFFFFFFFFFFFFFFFFFFFFFFFFFFFFF AND SUB PUSH2 0x1B6E JUMPI PUSH1 0x40 MLOAD PUSH32 0x8C379A000000000000000000000000000000000000000000000000000000000 DUP2 MSTORE PUSH1 0x4 ADD PUSH2 0x1B65 SWAP1 PUSH2 0x45CF JUMP JUMPDEST PUSH1 0x40 MLOAD DUP1 SWAP2 SUB SWAP1 REVERT JUMPDEST PUSH1 0x0 PUSH1 0xD PUSH1 0x0 DUP5 DUP2 MSTORE PUSH1 0x20 ADD SWAP1 DUP2 MSTORE PUSH1 0x20 ADD PUSH1 0x0 KECCAK256 PUSH1 0x1 ADD SLOAD SUB PUSH2 0x1BA8 JUMPI DUP1 PUSH1 0xD PUSH1 0x0 DUP5 DUP2 MSTORE PUSH1 0x20 ADD SWAP1 DUP2 MSTORE PUSH1 0x20 ADD PUSH1 0x0 KECCAK256 PUSH1 0x1 ADD DUP2 SWAP1 SSTORE POP JUMPDEST DUP1 PUSH1 0xD PUSH1 0x0 DUP5 DUP2 MSTORE PUSH1 0x20 ADD SWAP1 DUP2 MSTORE PUSH1 0x20 ADD PUSH1 0x0 KECCAK256 PUSH1 0x2 ADD DUP2 SWAP1 SSTORE POP POP POP JUMP JUMPDEST PUSH1 0xE PUSH1 0x20 MSTORE DUP1 PUSH1 0x0 MSTORE PUSH1 0x40 PUSH1 0x0 KECCAK256 PUSH1 0x0 SWAP2 POP SWAP1 POP SLOAD DUP2 JUMP JUMPDEST PUSH2 0x1BE7 PUSH2 0x3182 JUMP JUMPDEST PUSH1 0x11 PUSH1 0x0 CALLER PUSH20 0xFFFFFFFFFFFFFFFFFFFFFFFFFFFFFFFFFFFFFFFF AND PUSH20 0xFFFFFFFFFFFFFFFFFFFFFFFFFFFFFFFFFFFFFFFF AND DUP2 MSTORE PUSH1 0x20 ADD SWAP1 DUP2 MSTORE PUSH1 0x20 ADD PUSH1 0x0 KECCAK256 PUSH1 0x40 MLOAD DUP1 PUSH1 0x40 ADD PUSH1 0x40 MSTORE SWAP1 DUP2 PUSH1 0x0 DUP3 ADD DUP1 SLOAD DUP1 PUSH1 0x20 MUL PUSH1 0x20 ADD PUSH1 0x40 MLOAD SWAP1 DUP2 ADD PUSH1 0x40 MSTORE DUP1 SWAP3 SWAP2 SWAP1 DUP2 DUP2 MSTORE PUSH1 0x20 ADD PUSH1 0x0 SWAP1 JUMPDEST DUP3 DUP3 LT ISZERO PUSH2 0x1CA6 JUMPI DUP4 DUP3 SWAP1 PUSH1 0x0 MSTORE PUSH1 0x20 PUSH1 0x0 KECCAK256 SWAP1 PUSH1 0x3 MUL ADD PUSH1 0x40 MLOAD DUP1 PUSH1 0x60 ADD PUSH1 0x40 MSTORE SWAP1 DUP2 PUSH1 0x0 DUP3 ADD SLOAD DUP2 MSTORE PUSH1 0x20 ADD PUSH1 0x1 DUP3 ADD SLOAD DUP2 MSTORE PUSH1 0x20 ADD PUSH1 0x2 DUP3 ADD SLOAD DUP2 MSTORE POP POP DUP2 MSTORE PUSH1 0x20 ADD SWAP1 PUSH1 0x1 ADD SWAP1 PUSH2 0x1C56 JUMP JUMPDEST POP POP POP POP DUP2 MSTORE PUSH1 0x20 ADD PUSH1 0x1 DUP3 ADD DUP1 SLOAD DUP1 PUSH1 0x20 MUL PUSH1 0x20 ADD PUSH1 0x40 MLOAD SWAP1 DUP2 ADD PUSH1 0x40 MSTORE DUP1 SWAP3 SWAP2 SWAP1 DUP2 DUP2 MSTORE PUSH1 0x20 ADD DUP3 DUP1 SLOAD DUP1 ISZERO PUSH2 0x1CFD JUMPI PUSH1 0x20 MUL DUP3 ADD SWAP2 SWAP1 PUSH1 0x0 MSTORE PUSH1 0x20 PUSH1 0x0 KECCAK256 SWAP1 JUMPDEST DUP2 SLOAD DUP2 MSTORE PUSH1 0x20 ADD SWAP1 PUSH1 0x1 ADD SWAP1 DUP1 DUP4 GT PUSH2 0x1CE9 JUMPI JUMPDEST POP POP POP POP POP DUP2 MSTORE POP POP SWAP1 POP SWAP1 JUMP JUMPDEST PUSH1 0x0 PUSH1 0x4 PUSH1 0x0 SWAP1 SLOAD SWAP1 PUSH2 0x100 EXP SWAP1 DIV PUSH20 0xFFFFFFFFFFFFFFFFFFFFFFFFFFFFFFFFFFFFFFFF AND PUSH20 0xFFFFFFFFFFFFFFFFFFFFFFFFFFFFFFFFFFFFFFFF AND PUSH4 0x23B872DD DUP4 ADDRESS DUP7 PUSH1 0x40 MLOAD DUP5 PUSH4 0xFFFFFFFF AND PUSH1 0xE0 SHL DUP2 MSTORE PUSH1 0x4 ADD PUSH2 0x1D6C SWAP4 SWAP3 SWAP2 SWAP1 PUSH2 0x45EF JUMP JUMPDEST PUSH1 0x0 PUSH1 0x40 MLOAD DUP1 DUP4 SUB DUP2 PUSH1 0x0 DUP8 DUP1 EXTCODESIZE ISZERO DUP1 ISZERO PUSH2 0x1D86 JUMPI PUSH1 0x0 DUP1 REVERT JUMPDEST POP GAS CALL ISZERO DUP1 ISZERO PUSH2 0x1D9A JUMPI RETURNDATASIZE PUSH1 0x0 DUP1 RETURNDATACOPY RETURNDATASIZE PUSH1 0x0 REVERT JUMPDEST POP POP POP POP PUSH1 0x1 SWAP1 POP SWAP3 SWAP2 POP POP JUMP JUMPDEST PUSH2 0x1DB0 PUSH2 0x241E JUMP JUMPDEST PUSH1 0x0 PUSH20 0xFFFFFFFFFFFFFFFFFFFFFFFFFFFFFFFFFFFFFFFF AND DUP2 PUSH20 0xFFFFFFFFFFFFFFFFFFFFFFFFFFFFFFFFFFFFFFFF AND SUB PUSH2 0x1E1F JUMPI PUSH1 0x40 MLOAD PUSH32 0x8C379A000000000000000000000000000000000000000000000000000000000 DUP2 MSTORE PUSH1 0x4 ADD PUSH2 0x1E16 SWAP1 PUSH2 0x4698 JUMP JUMPDEST PUSH1 0x40 MLOAD DUP1 SWAP2 SUB SWAP1 REVERT JUMPDEST PUSH2 0x1E28 DUP2 PUSH2 0x249C JUMP JUMPDEST POP JUMP JUMPDEST PUSH2 0x1E33 PUSH2 0x241E JUMP JUMPDEST PUSH1 0x0 PUSH20 0xFFFFFFFFFFFFFFFFFFFFFFFFFFFFFFFFFFFFFFFF AND DUP2 PUSH20 0xFFFFFFFFFFFFFFFFFFFFFFFFFFFFFFFFFFFFFFFF AND SUB PUSH2 0x1EA2 JUMPI PUSH1 0x40 MLOAD PUSH32 0x8C379A000000000000000000000000000000000000000000000000000000000 DUP2 MSTORE PUSH1 0x4 ADD PUSH2 0x1E99 SWAP1 PUSH2 0x4704 JUMP JUMPDEST PUSH1 0x40 MLOAD DUP1 SWAP2 SUB SWAP1 REVERT JUMPDEST PUSH1 0x40 MLOAD DUP1 PUSH1 0x60 ADD PUSH1 0x40 MSTORE DUP1 DUP3 PUSH20 0xFFFFFFFFFFFFFFFFFFFFFFFFFFFFFFFFFFFFFFFF AND DUP2 MSTORE PUSH1 0x20 ADD PUSH1 0x0 DUP2 MSTORE PUSH1 0x20 ADD PUSH1 0x0 DUP2 MSTORE POP PUSH1 0xD PUSH1 0x0 DUP5 DUP2 MSTORE PUSH1 0x20 ADD SWAP1 DUP2 MSTORE PUSH1 0x20 ADD PUSH1 0x0 KECCAK256 PUSH1 0x0 DUP3 ADD MLOAD DUP2 PUSH1 0x0 ADD PUSH1 0x0 PUSH2 0x100 EXP DUP2 SLOAD DUP2 PUSH20 0xFFFFFFFFFFFFFFFFFFFFFFFFFFFFFFFFFFFFFFFF MUL NOT AND SWAP1 DUP4 PUSH20 0xFFFFFFFFFFFFFFFFFFFFFFFFFFFFFFFFFFFFFFFF AND MUL OR SWAP1 SSTORE POP PUSH1 0x20 DUP3 ADD MLOAD DUP2 PUSH1 0x1 ADD SSTORE PUSH1 0x40 DUP3 ADD MLOAD DUP2 PUSH1 0x2 ADD SSTORE SWAP1 POP POP POP POP JUMP JUMPDEST PUSH1 0x0 CALLER PUSH20 0xFFFFFFFFFFFFFFFFFFFFFFFFFFFFFFFFFFFFFFFF AND PUSH2 0x8FC DUP4 SWAP1 DUP2 ISZERO MUL SWAP1 PUSH1 0x40 MLOAD PUSH1 0x0 PUSH1 0x40 MLOAD DUP1 DUP4 SUB DUP2 DUP6 DUP9 DUP9 CALL SWAP4 POP POP POP POP ISZERO DUP1 ISZERO PUSH2 0x1F92 JUMPI RETURNDATASIZE PUSH1 0x0 DUP1 RETURNDATACOPY RETURNDATASIZE PUSH1 0x0 REVERT JUMPDEST POP PUSH1 0x1 SWAP1 POP SWAP2 SWAP1 POP JUMP JUMPDEST PUSH1 0x10 PUSH1 0x0 DUP3 PUSH20 0xFFFFFFFFFFFFFFFFFFFFFFFFFFFFFFFFFFFFFFFF AND PUSH20 0xFFFFFFFFFFFFFFFFFFFFFFFFFFFFFFFFFFFFFFFF AND DUP2 MSTORE PUSH1 0x20 ADD SWAP1 DUP2 MSTORE PUSH1 0x20 ADD PUSH1 0x0 KECCAK256 PUSH1 0x0 PUSH2 0x1FE7 SWAP2 SWAP1 PUSH2 0x319C JUMP JUMPDEST PUSH1 0x0 JUMPDEST PUSH1 0x7 PUSH1 0x0 DUP4 PUSH20 0xFFFFFFFFFFFFFFFFFFFFFFFFFFFFFFFFFFFFFFFF AND PUSH20 0xFFFFFFFFFFFFFFFFFFFFFFFFFFFFFFFFFFFFFFFF AND DUP2 MSTORE PUSH1 0x20 ADD SWAP1 DUP2 MSTORE PUSH1 0x20 ADD PUSH1 0x0 KECCAK256 PUSH1 0x0 ADD DUP1 SLOAD SWAP1 POP DUP2 LT ISZERO PUSH2 0x2102 JUMPI PUSH1 0x0 PUSH1 0x7 PUSH1 0x0 DUP5 PUSH20 0xFFFFFFFFFFFFFFFFFFFFFFFFFFFFFFFFFFFFFFFF AND PUSH20 0xFFFFFFFFFFFFFFFFFFFFFFFFFFFFFFFFFFFFFFFF AND DUP2 MSTORE PUSH1 0x20 ADD SWAP1 DUP2 MSTORE PUSH1 0x20 ADD PUSH1 0x0 KECCAK256 PUSH1 0x0 ADD DUP3 DUP2 SLOAD DUP2 LT PUSH2 0x208D JUMPI PUSH2 0x208C PUSH2 0x427F JUMP JUMPDEST JUMPDEST SWAP1 PUSH1 0x0 MSTORE PUSH1 0x20 PUSH1 0x0 KECCAK256 SWAP1 PUSH1 0x2 MUL ADD PUSH1 0x0 ADD SLOAD SWAP1 POP PUSH1 0x9 PUSH1 0x0 DUP3 DUP2 MSTORE PUSH1 0x20 ADD SWAP1 DUP2 MSTORE PUSH1 0x20 ADD PUSH1 0x0 KECCAK256 PUSH1 0x0 PUSH2 0x100 EXP DUP2 SLOAD SWAP1 PUSH20 0xFFFFFFFFFFFFFFFFFFFFFFFFFFFFFFFFFFFFFFFF MUL NOT AND SWAP1 SSTORE PUSH1 0x8 PUSH1 0x0 DUP3 DUP2 MSTORE PUSH1 0x20 ADD SWAP1 DUP2 MSTORE PUSH1 0x20 ADD PUSH1 0x0 KECCAK256 PUSH1 0x0 SWAP1 SSTORE POP DUP1 DUP1 PUSH2 0x20FA SWAP1 PUSH2 0x4724 JUMP JUMPDEST SWAP2 POP POP PUSH2 0x1FEA JUMP JUMPDEST POP PUSH1 0x7 PUSH1 0x0 DUP3 PUSH20 0xFFFFFFFFFFFFFFFFFFFFFFFFFFFFFFFFFFFFFFFF AND PUSH20 0xFFFFFFFFFFFFFFFFFFFFFFFFFFFFFFFFFFFFFFFF AND DUP2 MSTORE PUSH1 0x20 ADD SWAP1 DUP2 MSTORE PUSH1 0x20 ADD PUSH1 0x0 KECCAK256 PUSH1 0x0 DUP1 DUP3 ADD PUSH1 0x0 PUSH2 0x2153 SWAP2 SWAP1 PUSH2 0x31C0 JUMP JUMPDEST POP POP POP JUMP JUMPDEST PUSH1 0x0 DUP1 PUSH20 0xFFFFFFFFFFFFFFFFFFFFFFFFFFFFFFFFFFFFFFFF AND PUSH1 0xD PUSH1 0x0 DUP6 DUP2 MSTORE PUSH1 0x20 ADD SWAP1 DUP2 MSTORE PUSH1 0x20 ADD PUSH1 0x0 KECCAK256 PUSH1 0x0 ADD PUSH1 0x0 SWAP1 SLOAD SWAP1 PUSH2 0x100 EXP SWAP1 DIV PUSH20 0xFFFFFFFFFFFFFFFFFFFFFFFFFFFFFFFFFFFFFFFF AND PUSH20 0xFFFFFFFFFFFFFFFFFFFFFFFFFFFFFFFFFFFFFFFF AND SUB PUSH2 0x21FE JUMPI PUSH1 0x40 MLOAD PUSH32 0x8C379A000000000000000000000000000000000000000000000000000000000 DUP2 MSTORE PUSH1 0x4 ADD PUSH2 0x21F5 SWAP1 PUSH2 0x4704 JUMP JUMPDEST PUSH1 0x40 MLOAD DUP1 SWAP2 SUB SWAP1 REVERT JUMPDEST DUP2 SELFBALANCE LT ISZERO PUSH2 0x2241 JUMPI PUSH1 0x40 MLOAD PUSH32 0x8C379A000000000000000000000000000000000000000000000000000000000 DUP2 MSTORE PUSH1 0x4 ADD PUSH2 0x2238 SWAP1 PUSH2 0x47DE JUMP JUMPDEST PUSH1 0x40 MLOAD DUP1 SWAP2 SUB SWAP1 REVERT JUMPDEST PUSH1 0xD PUSH1 0x0 DUP5 DUP2 MSTORE PUSH1 0x20 ADD SWAP1 DUP2 MSTORE PUSH1 0x20 ADD PUSH1 0x0 KECCAK256 PUSH1 0x0 ADD PUSH1 0x0 SWAP1 SLOAD SWAP1 PUSH2 0x100 EXP SWAP1 DIV PUSH20 0xFFFFFFFFFFFFFFFFFFFFFFFFFFFFFFFFFFFFFFFF AND PUSH20 0xFFFFFFFFFFFFFFFFFFFFFFFFFFFFFFFFFFFFFFFF AND PUSH2 0x8FC DUP4 SWAP1 DUP2 ISZERO MUL SWAP1 PUSH1 0x40 MLOAD PUSH1 0x0 PUSH1 0x40 MLOAD DUP1 DUP4 SUB DUP2 DUP6 DUP9 DUP9 CALL SWAP4 POP POP POP POP ISZERO DUP1 ISZERO PUSH2 0x22BD JUMPI RETURNDATASIZE PUSH1 0x0 DUP1 RETURNDATACOPY RETURNDATASIZE PUSH1 0x0 REVERT JUMPDEST POP PUSH1 0x1 SWAP1 POP SWAP3 SWAP2 POP POP JUMP JUMPDEST PUSH1 0x60 PUSH1 0x0 PUSH1 0x1 PUSH2 0x22D7 DUP5 PUSH2 0x2CB0 JUMP JUMPDEST ADD SWAP1 POP PUSH1 0x0 DUP2 PUSH8 0xFFFFFFFFFFFFFFFF DUP2 GT ISZERO PUSH2 0x22F6 JUMPI PUSH2 0x22F5 PUSH2 0x47FE JUMP JUMPDEST JUMPDEST PUSH1 0x40 MLOAD SWAP1 DUP1 DUP3 MSTORE DUP1 PUSH1 0x1F ADD PUSH1 0x1F NOT AND PUSH1 0x20 ADD DUP3 ADD PUSH1 0x40 MSTORE DUP1 ISZERO PUSH2 0x2328 JUMPI DUP2 PUSH1 0x20 ADD PUSH1 0x1 DUP3 MUL DUP1 CALLDATASIZE DUP4 CALLDATACOPY DUP1 DUP3 ADD SWAP2 POP POP SWAP1 POP JUMPDEST POP SWAP1 POP PUSH1 0x0 DUP3 PUSH1 0x20 ADD DUP3 ADD SWAP1 POP JUMPDEST PUSH1 0x1 ISZERO PUSH2 0x238B JUMPI DUP1 DUP1 PUSH1 0x1 SWAP1 SUB SWAP2 POP POP PUSH32 0x3031323334353637383961626364656600000000000000000000000000000000 PUSH1 0xA DUP7 MOD BYTE DUP2 MSTORE8 PUSH1 0xA DUP6 DUP2 PUSH2 0x237F JUMPI PUSH2 0x237E PUSH2 0x4324 JUMP JUMPDEST JUMPDEST DIV SWAP5 POP PUSH1 0x0 DUP6 SUB PUSH2 0x2336 JUMPI JUMPDEST DUP2 SWAP4 POP POP POP POP SWAP2 SWAP1 POP JUMP JUMPDEST PUSH1 0x0 DUP1 PUSH2 0x23A4 CALLER DUP7 DUP7 PUSH2 0x2E03 JUMP JUMPDEST SWAP1 POP DUP3 PUSH1 0xE PUSH1 0x0 DUP4 DUP2 MSTORE PUSH1 0x20 ADD SWAP1 DUP2 MSTORE PUSH1 0x20 ADD PUSH1 0x0 KECCAK256 DUP2 SWAP1 SSTORE POP PUSH2 0x23C9 CALLER DUP7 DUP4 PUSH2 0x302B JUMP JUMPDEST PUSH2 0x2408 JUMPI PUSH1 0x40 MLOAD PUSH32 0x8C379A000000000000000000000000000000000000000000000000000000000 DUP2 MSTORE PUSH1 0x4 ADD PUSH2 0x23FF SWAP1 PUSH2 0x4879 JUMP JUMPDEST PUSH1 0x40 MLOAD DUP1 SWAP2 SUB SWAP1 REVERT JUMPDEST PUSH2 0x2412 PUSH1 0x1 PUSH2 0x3164 JUMP JUMPDEST PUSH1 0x1 SWAP2 POP POP SWAP4 SWAP3 POP POP POP JUMP JUMPDEST PUSH2 0x2426 PUSH2 0x317A JUMP JUMPDEST PUSH20 0xFFFFFFFFFFFFFFFFFFFFFFFFFFFFFFFFFFFFFFFF AND PUSH2 0x2444 PUSH2 0x181F JUMP JUMPDEST PUSH20 0xFFFFFFFFFFFFFFFFFFFFFFFFFFFFFFFFFFFFFFFF AND EQ PUSH2 0x249A JUMPI PUSH1 0x40 MLOAD PUSH32 0x8C379A000000000000000000000000000000000000000000000000000000000 DUP2 MSTORE PUSH1 0x4 ADD PUSH2 0x2491 SWAP1 PUSH2 0x48E5 JUMP JUMPDEST PUSH1 0x40 MLOAD DUP1 SWAP2 SUB SWAP1 REVERT JUMPDEST JUMP JUMPDEST PUSH1 0x0 DUP1 PUSH1 0x1 SWAP1 SLOAD SWAP1 PUSH2 0x100 EXP SWAP1 DIV PUSH20 0xFFFFFFFFFFFFFFFFFFFFFFFFFFFFFFFFFFFFFFFF AND SWAP1 POP DUP2 PUSH1 0x0 PUSH1 0x1 PUSH2 0x100 EXP DUP2 SLOAD DUP2 PUSH20 0xFFFFFFFFFFFFFFFFFFFFFFFFFFFFFFFFFFFFFFFF MUL NOT AND SWAP1 DUP4 PUSH20 0xFFFFFFFFFFFFFFFFFFFFFFFFFFFFFFFFFFFFFFFF AND MUL OR SWAP1 SSTORE POP DUP2 PUSH20 0xFFFFFFFFFFFFFFFFFFFFFFFFFFFFFFFFFFFFFFFF AND DUP2 PUSH20 0xFFFFFFFFFFFFFFFFFFFFFFFFFFFFFFFFFFFFFFFF AND PUSH32 0x8BE0079C531659141344CD1FD0A4F28419497F9722A3DAAFE3B4186F6B6457E0 PUSH1 0x40 MLOAD PUSH1 0x40 MLOAD DUP1 SWAP2 SUB SWAP1 LOG3 POP POP JUMP JUMPDEST PUSH1 0x0 DUP2 DUP4 PUSH2 0x256F SWAP2 SWAP1 PUSH2 0x42E2 JUMP JUMPDEST SWAP1 POP SWAP3 SWAP2 POP POP JUMP JUMPDEST PUSH1 0x0 PUSH1 0x10 PUSH1 0x0 DUP5 PUSH20 0xFFFFFFFFFFFFFFFFFFFFFFFFFFFFFFFFFFFFFFFF AND PUSH20 0xFFFFFFFFFFFFFFFFFFFFFFFFFFFFFFFFFFFFFFFF AND DUP2 MSTORE PUSH1 0x20 ADD SWAP1 DUP2 MSTORE PUSH1 0x20 ADD PUSH1 0x0 KECCAK256 SWAP1 POP PUSH1 0x0 DUP1 PUSH1 0x0 JUMPDEST DUP4 DUP1 SLOAD SWAP1 POP DUP2 LT ISZERO PUSH2 0x2629 JUMPI PUSH1 0x8 PUSH1 0x0 DUP7 DUP2 MSTORE PUSH1 0x20 ADD SWAP1 DUP2 MSTORE PUSH1 0x20 ADD PUSH1 0x0 KECCAK256 SLOAD DUP5 DUP3 DUP2 SLOAD DUP2 LT PUSH2 0x25F3 JUMPI PUSH2 0x25F2 PUSH2 0x427F JUMP JUMPDEST JUMPDEST SWAP1 PUSH1 0x0 MSTORE PUSH1 0x20 PUSH1 0x0 KECCAK256 SWAP1 PUSH1 0x3 MUL ADD PUSH1 0x0 ADD SLOAD SUB PUSH2 0x2616 JUMPI DUP1 SWAP3 POP PUSH1 0x1 SWAP2 POP PUSH2 0x2629 JUMP JUMPDEST DUP1 DUP1 PUSH2 0x2621 SWAP1 PUSH2 0x4724 JUMP JUMPDEST SWAP2 POP POP PUSH2 0x25C0 JUMP JUMPDEST POP DUP1 ISZERO PUSH2 0x26E6 JUMPI DUP3 PUSH1 0x1 DUP5 DUP1 SLOAD SWAP1 POP PUSH2 0x2642 SWAP2 SWAP1 PUSH2 0x42AE JUMP JUMPDEST DUP2 SLOAD DUP2 LT PUSH2 0x2653 JUMPI PUSH2 0x2652 PUSH2 0x427F JUMP JUMPDEST JUMPDEST SWAP1 PUSH1 0x0 MSTORE PUSH1 0x20 PUSH1 0x0 KECCAK256 SWAP1 PUSH1 0x3 MUL ADD DUP4 DUP4 DUP2 SLOAD DUP2 LT PUSH2 0x2674 JUMPI PUSH2 0x2673 PUSH2 0x427F JUMP JUMPDEST JUMPDEST SWAP1 PUSH1 0x0 MSTORE PUSH1 0x20 PUSH1 0x0 KECCAK256 SWAP1 PUSH1 0x3 MUL ADD PUSH1 0x0 DUP3 ADD SLOAD DUP2 PUSH1 0x0 ADD SSTORE PUSH1 0x1 DUP3 ADD SLOAD DUP2 PUSH1 0x1 ADD SSTORE PUSH1 0x2 DUP3 ADD SLOAD DUP2 PUSH1 0x2 ADD SSTORE SWAP1 POP POP DUP3 DUP1 SLOAD DUP1 PUSH2 0x26B4 JUMPI PUSH2 0x26B3 PUSH2 0x4905 JUMP JUMPDEST JUMPDEST PUSH1 0x1 SWAP1 SUB DUP2 DUP2 SWAP1 PUSH1 0x0 MSTORE PUSH1 0x20 PUSH1 0x0 KECCAK256 SWAP1 PUSH1 0x3 MUL ADD PUSH1 0x0 DUP1 DUP3 ADD PUSH1 0x0 SWAP1 SSTORE PUSH1 0x1 DUP3 ADD PUSH1 0x0 SWAP1 SSTORE PUSH1 0x2 DUP3 ADD PUSH1 0x0 SWAP1 SSTORE POP POP SWAP1 SSTORE JUMPDEST POP POP POP POP POP JUMP JUMPDEST PUSH1 0x0 DUP1 PUSH1 0x0 JUMPDEST PUSH1 0x11 PUSH1 0x0 DUP6 PUSH20 0xFFFFFFFFFFFFFFFFFFFFFFFFFFFFFFFFFFFFFFFF AND PUSH20 0xFFFFFFFFFFFFFFFFFFFFFFFFFFFFFFFFFFFFFFFF AND DUP2 MSTORE PUSH1 0x20 ADD SWAP1 DUP2 MSTORE PUSH1 0x20 ADD PUSH1 0x0 KECCAK256 PUSH1 0x0 ADD DUP1 SLOAD SWAP1 POP DUP2 LT ISZERO PUSH2 0x27CB JUMPI DUP5 PUSH1 0x11 PUSH1 0x0 DUP7 PUSH20 0xFFFFFFFFFFFFFFFFFFFFFFFFFFFFFFFFFFFFFFFF AND PUSH20 0xFFFFFFFFFFFFFFFFFFFFFFFFFFFFFFFFFFFFFFFF AND DUP2 MSTORE PUSH1 0x20 ADD SWAP1 DUP2 MSTORE PUSH1 0x20 ADD PUSH1 0x0 KECCAK256 PUSH1 0x0 ADD DUP3 DUP2 SLOAD DUP2 LT PUSH2 0x2795 JUMPI PUSH2 0x2794 PUSH2 0x427F JUMP JUMPDEST JUMPDEST SWAP1 PUSH1 0x0 MSTORE PUSH1 0x20 PUSH1 0x0 KECCAK256 SWAP1 PUSH1 0x3 MUL ADD PUSH1 0x2 ADD SLOAD SUB PUSH2 0x27B8 JUMPI DUP1 SWAP3 POP PUSH1 0x1 SWAP2 POP PUSH2 0x27CB JUMP JUMPDEST DUP1 DUP1 PUSH2 0x27C3 SWAP1 PUSH2 0x4724 JUMP JUMPDEST SWAP2 POP POP PUSH2 0x26F3 JUMP JUMPDEST POP DUP1 ISZERO PUSH2 0x298C JUMPI PUSH1 0x11 PUSH1 0x0 DUP5 PUSH20 0xFFFFFFFFFFFFFFFFFFFFFFFFFFFFFFFFFFFFFFFF AND PUSH20 0xFFFFFFFFFFFFFFFFFFFFFFFFFFFFFFFFFFFFFFFF AND DUP2 MSTORE PUSH1 0x20 ADD SWAP1 DUP2 MSTORE PUSH1 0x20 ADD PUSH1 0x0 KECCAK256 PUSH1 0x0 ADD PUSH1 0x1 PUSH1 0x11 PUSH1 0x0 DUP7 PUSH20 0xFFFFFFFFFFFFFFFFFFFFFFFFFFFFFFFFFFFFFFFF AND PUSH20 0xFFFFFFFFFFFFFFFFFFFFFFFFFFFFFFFFFFFFFFFF AND DUP2 MSTORE PUSH1 0x20 ADD SWAP1 DUP2 MSTORE PUSH1 0x20 ADD PUSH1 0x0 KECCAK256 PUSH1 0x0 ADD DUP1 SLOAD SWAP1 POP PUSH2 0x2866 SWAP2 SWAP1 PUSH2 0x42AE JUMP JUMPDEST DUP2 SLOAD DUP2 LT PUSH2 0x2877 JUMPI PUSH2 0x2876 PUSH2 0x427F JUMP JUMPDEST JUMPDEST SWAP1 PUSH1 0x0 MSTORE PUSH1 0x20 PUSH1 0x0 KECCAK256 SWAP1 PUSH1 0x3 MUL ADD PUSH1 0x11 PUSH1 0x0 DUP6 PUSH20 0xFFFFFFFFFFFFFFFFFFFFFFFFFFFFFFFFFFFFFFFF AND PUSH20 0xFFFFFFFFFFFFFFFFFFFFFFFFFFFFFFFFFFFFFFFF AND DUP2 MSTORE PUSH1 0x20 ADD SWAP1 DUP2 MSTORE PUSH1 0x20 ADD PUSH1 0x0 KECCAK256 PUSH1 0x0 ADD DUP4 DUP2 SLOAD DUP2 LT PUSH2 0x28D9 JUMPI PUSH2 0x28D8 PUSH2 0x427F JUMP JUMPDEST JUMPDEST SWAP1 PUSH1 0x0 MSTORE PUSH1 0x20 PUSH1 0x0 KECCAK256 SWAP1 PUSH1 0x3 MUL ADD PUSH1 0x0 DUP3 ADD SLOAD DUP2 PUSH1 0x0 ADD SSTORE PUSH1 0x1 DUP3 ADD SLOAD DUP2 PUSH1 0x1 ADD SSTORE PUSH1 0x2 DUP3 ADD SLOAD DUP2 PUSH1 0x2 ADD SSTORE SWAP1 POP POP PUSH1 0x11 PUSH1 0x0 DUP5 PUSH20 0xFFFFFFFFFFFFFFFFFFFFFFFFFFFFFFFFFFFFFFFF AND PUSH20 0xFFFFFFFFFFFFFFFFFFFFFFFFFFFFFFFFFFFFFFFF AND DUP2 MSTORE PUSH1 0x20 ADD SWAP1 DUP2 MSTORE PUSH1 0x20 ADD PUSH1 0x0 KECCAK256 PUSH1 0x0 ADD DUP1 SLOAD DUP1 PUSH2 0x295A JUMPI PUSH2 0x2959 PUSH2 0x4905 JUMP JUMPDEST JUMPDEST PUSH1 0x1 SWAP1 SUB DUP2 DUP2 SWAP1 PUSH1 0x0 MSTORE PUSH1 0x20 PUSH1 0x0 KECCAK256 SWAP1 PUSH1 0x3 MUL ADD PUSH1 0x0 DUP1 DUP3 ADD PUSH1 0x0 SWAP1 SSTORE PUSH1 0x1 DUP3 ADD PUSH1 0x0 SWAP1 SSTORE PUSH1 0x2 DUP3 ADD PUSH1 0x0 SWAP1 SSTORE POP POP SWAP1 SSTORE JUMPDEST PUSH1 0x0 JUMPDEST PUSH1 0x7 PUSH1 0x0 DUP6 PUSH20 0xFFFFFFFFFFFFFFFFFFFFFFFFFFFFFFFFFFFFFFFF AND PUSH20 0xFFFFFFFFFFFFFFFFFFFFFFFFFFFFFFFFFFFFFFFF AND DUP2 MSTORE PUSH1 0x20 ADD SWAP1 DUP2 MSTORE PUSH1 0x20 ADD PUSH1 0x0 KECCAK256 PUSH1 0x0 ADD DUP1 SLOAD SWAP1 POP DUP2 LT ISZERO PUSH2 0x2C07 JUMPI DUP5 PUSH1 0x7 PUSH1 0x0 DUP7 PUSH20 0xFFFFFFFFFFFFFFFFFFFFFFFFFFFFFFFFFFFFFFFF AND PUSH20 0xFFFFFFFFFFFFFFFFFFFFFFFFFFFFFFFFFFFFFFFF AND DUP2 MSTORE PUSH1 0x20 ADD SWAP1 DUP2 MSTORE PUSH1 0x20 ADD PUSH1 0x0 KECCAK256 PUSH1 0x0 ADD DUP3 DUP2 SLOAD DUP2 LT PUSH2 0x2A31 JUMPI PUSH2 0x2A30 PUSH2 0x427F JUMP JUMPDEST JUMPDEST SWAP1 PUSH1 0x0 MSTORE PUSH1 0x20 PUSH1 0x0 KECCAK256 SWAP1 PUSH1 0x2 MUL ADD PUSH1 0x0 ADD SLOAD SUB PUSH2 0x2BF4 JUMPI PUSH1 0x7 PUSH1 0x0 DUP6 PUSH20 0xFFFFFFFFFFFFFFFFFFFFFFFFFFFFFFFFFFFFFFFF AND PUSH20 0xFFFFFFFFFFFFFFFFFFFFFFFFFFFFFFFFFFFFFFFF AND DUP2 MSTORE PUSH1 0x20 ADD SWAP1 DUP2 MSTORE PUSH1 0x20 ADD PUSH1 0x0 KECCAK256 PUSH1 0x0 ADD PUSH1 0x1 PUSH1 0x7 PUSH1 0x0 DUP8 PUSH20 0xFFFFFFFFFFFFFFFFFFFFFFFFFFFFFFFFFFFFFFFF AND PUSH20 0xFFFFFFFFFFFFFFFFFFFFFFFFFFFFFFFFFFFFFFFF AND DUP2 MSTORE PUSH1 0x20 ADD SWAP1 DUP2 MSTORE PUSH1 0x20 ADD PUSH1 0x0 KECCAK256 PUSH1 0x0 ADD DUP1 SLOAD SWAP1 POP PUSH2 0x2ADC SWAP2 SWAP1 PUSH2 0x42AE JUMP JUMPDEST DUP2 SLOAD DUP2 LT PUSH2 0x2AED JUMPI PUSH2 0x2AEC PUSH2 0x427F JUMP JUMPDEST JUMPDEST SWAP1 PUSH1 0x0 MSTORE PUSH1 0x20 PUSH1 0x0 KECCAK256 SWAP1 PUSH1 0x2 MUL ADD PUSH1 0x7 PUSH1 0x0 DUP7 PUSH20 0xFFFFFFFFFFFFFFFFFFFFFFFFFFFFFFFFFFFFFFFF AND PUSH20 0xFFFFFFFFFFFFFFFFFFFFFFFFFFFFFFFFFFFFFFFF AND DUP2 MSTORE PUSH1 0x20 ADD SWAP1 DUP2 MSTORE PUSH1 0x20 ADD PUSH1 0x0 KECCAK256 PUSH1 0x0 ADD DUP3 DUP2 SLOAD DUP2 LT PUSH2 0x2B4F JUMPI PUSH2 0x2B4E PUSH2 0x427F JUMP JUMPDEST JUMPDEST SWAP1 PUSH1 0x0 MSTORE PUSH1 0x20 PUSH1 0x0 KECCAK256 SWAP1 PUSH1 0x2 MUL ADD PUSH1 0x0 DUP3 ADD SLOAD DUP2 PUSH1 0x0 ADD SSTORE PUSH1 0x1 DUP3 ADD SLOAD DUP2 PUSH1 0x1 ADD SSTORE SWAP1 POP POP PUSH1 0x7 PUSH1 0x0 DUP6 PUSH20 0xFFFFFFFFFFFFFFFFFFFFFFFFFFFFFFFFFFFFFFFF AND PUSH20 0xFFFFFFFFFFFFFFFFFFFFFFFFFFFFFFFFFFFFFFFF AND DUP2 MSTORE PUSH1 0x20 ADD SWAP1 DUP2 MSTORE PUSH1 0x20 ADD PUSH1 0x0 KECCAK256 PUSH1 0x0 ADD DUP1 SLOAD DUP1 PUSH2 0x2BC6 JUMPI PUSH2 0x2BC5 PUSH2 0x4905 JUMP JUMPDEST JUMPDEST PUSH1 0x1 SWAP1 SUB DUP2 DUP2 SWAP1 PUSH1 0x0 MSTORE PUSH1 0x20 PUSH1 0x0 KECCAK256 SWAP1 PUSH1 0x2 MUL ADD PUSH1 0x0 DUP1 DUP3 ADD PUSH1 0x0 SWAP1 SSTORE PUSH1 0x1 DUP3 ADD PUSH1 0x0 SWAP1 SSTORE POP POP SWAP1 SSTORE PUSH2 0x2C07 JUMP JUMPDEST DUP1 DUP1 PUSH2 0x2BFF SWAP1 PUSH2 0x4724 JUMP JUMPDEST SWAP2 POP POP PUSH2 0x298F JUMP JUMPDEST POP PUSH1 0x8 PUSH1 0x0 DUP6 DUP2 MSTORE PUSH1 0x20 ADD SWAP1 DUP2 MSTORE PUSH1 0x20 ADD PUSH1 0x0 KECCAK256 PUSH1 0x0 SWAP1 SSTORE PUSH1 0x9 PUSH1 0x0 DUP6 DUP2 MSTORE PUSH1 0x20 ADD SWAP1 DUP2 MSTORE PUSH1 0x20 ADD PUSH1 0x0 KECCAK256 PUSH1 0x0 PUSH2 0x100 EXP DUP2 SLOAD SWAP1 PUSH20 0xFFFFFFFFFFFFFFFFFFFFFFFFFFFFFFFFFFFFFFFF MUL NOT AND SWAP1 SSTORE POP POP POP POP JUMP JUMPDEST PUSH1 0x0 DUP2 PUSH1 0xB PUSH1 0x0 ADD PUSH1 0x0 DUP3 DUP3 SLOAD PUSH2 0x2C72 SWAP2 SWAP1 PUSH2 0x3F79 JUMP JUMPDEST SWAP3 POP POP DUP2 SWAP1 SSTORE POP TIMESTAMP PUSH1 0xB PUSH1 0x1 ADD DUP2 SWAP1 SSTORE POP PUSH1 0x1 SWAP1 POP SWAP2 SWAP1 POP JUMP JUMPDEST PUSH1 0x0 DUP2 PUSH1 0x0 ADD SLOAD SWAP1 POP SWAP2 SWAP1 POP JUMP JUMPDEST PUSH1 0x0 DUP2 DUP4 PUSH2 0x2CA8 SWAP2 SWAP1 PUSH2 0x42AE JUMP JUMPDEST SWAP1 POP SWAP3 SWAP2 POP POP JUMP JUMPDEST PUSH1 0x0 DUP1 PUSH1 0x0 SWAP1 POP PUSH27 0x184F03E93FF9F4DAA797ED6E38ED64BF6A1F010000000000000000 DUP4 LT PUSH2 0x2D0E JUMPI PUSH27 0x184F03E93FF9F4DAA797ED6E38ED64BF6A1F010000000000000000 DUP4 DUP2 PUSH2 0x2D04 JUMPI PUSH2 0x2D03 PUSH2 0x4324 JUMP JUMPDEST JUMPDEST DIV SWAP3 POP PUSH1 0x40 DUP2 ADD SWAP1 POP JUMPDEST PUSH14 0x4EE2D6D415B85ACEF8100000000 DUP4 LT PUSH2 0x2D4B JUMPI PUSH14 0x4EE2D6D415B85ACEF8100000000 DUP4 DUP2 PUSH2 0x2D41 JUMPI PUSH2 0x2D40 PUSH2 0x4324 JUMP JUMPDEST JUMPDEST DIV SWAP3 POP PUSH1 0x20 DUP2 ADD SWAP1 POP JUMPDEST PUSH7 0x2386F26FC10000 DUP4 LT PUSH2 0x2D7A JUMPI PUSH7 0x2386F26FC10000 DUP4 DUP2 PUSH2 0x2D70 JUMPI PUSH2 0x2D6F PUSH2 0x4324 JUMP JUMPDEST JUMPDEST DIV SWAP3 POP PUSH1 0x10 DUP2 ADD SWAP1 POP JUMPDEST PUSH4 0x5F5E100 DUP4 LT PUSH2 0x2DA3 JUMPI PUSH4 0x5F5E100 DUP4 DUP2 PUSH2 0x2D99 JUMPI PUSH2 0x2D98 PUSH2 0x4324 JUMP JUMPDEST JUMPDEST DIV SWAP3 POP PUSH1 0x8 DUP2 ADD SWAP1 POP JUMPDEST PUSH2 0x2710 DUP4 LT PUSH2 0x2DC8 JUMPI PUSH2 0x2710 DUP4 DUP2 PUSH2 0x2DBE JUMPI PUSH2 0x2DBD PUSH2 0x4324 JUMP JUMPDEST JUMPDEST DIV SWAP3 POP PUSH1 0x4 DUP2 ADD SWAP1 POP JUMPDEST PUSH1 0x64 DUP4 LT PUSH2 0x2DEB JUMPI PUSH1 0x64 DUP4 DUP2 PUSH2 0x2DE1 JUMPI PUSH2 0x2DE0 PUSH2 0x4324 JUMP JUMPDEST JUMPDEST DIV SWAP3 POP PUSH1 0x2 DUP2 ADD SWAP1 POP JUMPDEST PUSH1 0xA DUP4 LT PUSH2 0x2DFA JUMPI PUSH1 0x1 DUP2 ADD SWAP1 POP JUMPDEST DUP1 SWAP2 POP POP SWAP2 SWAP1 POP JUMP JUMPDEST PUSH1 0x0 DUP1 PUSH1 0x0 SWAP1 SLOAD SWAP1 PUSH2 0x100 EXP SWAP1 DIV PUSH1 0xFF AND ISZERO PUSH2 0x2E54 JUMPI PUSH1 0x40 MLOAD PUSH32 0x8C379A000000000000000000000000000000000000000000000000000000000 DUP2 MSTORE PUSH1 0x4 ADD PUSH2 0x2E4B SWAP1 PUSH2 0x3DE7 JUMP JUMPDEST PUSH1 0x40 MLOAD DUP1 SWAP2 SUB SWAP1 REVERT JUMPDEST PUSH1 0x1 PUSH1 0x0 DUP1 PUSH2 0x100 EXP DUP2 SLOAD DUP2 PUSH1 0xFF MUL NOT AND SWAP1 DUP4 ISZERO ISZERO MUL OR SWAP1 SSTORE POP PUSH1 0x0 PUSH1 0x4 PUSH1 0x0 SWAP1 SLOAD SWAP1 PUSH2 0x100 EXP SWAP1 DIV PUSH20 0xFFFFFFFFFFFFFFFFFFFFFFFFFFFFFFFFFFFFFFFF AND PUSH20 0xFFFFFFFFFFFFFFFFFFFFFFFFFFFFFFFFFFFFFFFF AND PUSH4 0xF42C69D6 DUP7 DUP6 PUSH1 0x40 MLOAD DUP4 PUSH4 0xFFFFFFFF AND PUSH1 0xE0 SHL DUP2 MSTORE PUSH1 0x4 ADD PUSH2 0x2ECD SWAP3 SWAP2 SWAP1 PUSH2 0x4934 JUMP JUMPDEST PUSH1 0x20 PUSH1 0x40 MLOAD DUP1 DUP4 SUB DUP2 PUSH1 0x0 DUP8 GAS CALL ISZERO DUP1 ISZERO PUSH2 0x2EEC JUMPI RETURNDATASIZE PUSH1 0x0 DUP1 RETURNDATACOPY RETURNDATASIZE PUSH1 0x0 REVERT JUMPDEST POP POP POP POP PUSH1 0x40 MLOAD RETURNDATASIZE PUSH1 0x1F NOT PUSH1 0x1F DUP3 ADD AND DUP3 ADD DUP1 PUSH1 0x40 MSTORE POP DUP2 ADD SWAP1 PUSH2 0x2F10 SWAP2 SWAP1 PUSH2 0x4556 JUMP JUMPDEST SWAP1 POP PUSH1 0x7 PUSH1 0x0 DUP7 PUSH20 0xFFFFFFFFFFFFFFFFFFFFFFFFFFFFFFFFFFFFFFFF AND PUSH20 0xFFFFFFFFFFFFFFFFFFFFFFFFFFFFFFFFFFFFFFFF AND DUP2 MSTORE PUSH1 0x20 ADD SWAP1 DUP2 MSTORE PUSH1 0x20 ADD PUSH1 0x0 KECCAK256 PUSH1 0x0 ADD PUSH1 0x40 MLOAD DUP1 PUSH1 0x40 ADD PUSH1 0x40 MSTORE DUP1 DUP4 DUP2 MSTORE PUSH1 0x20 ADD TIMESTAMP DUP2 MSTORE POP SWAP1 DUP1 PUSH1 0x1 DUP2 SLOAD ADD DUP1 DUP3 SSTORE DUP1 SWAP2 POP POP PUSH1 0x1 SWAP1 SUB SWAP1 PUSH1 0x0 MSTORE PUSH1 0x20 PUSH1 0x0 KECCAK256 SWAP1 PUSH1 0x2 MUL ADD PUSH1 0x0 SWAP1 SWAP2 SWAP1 SWAP2 SWAP1 SWAP2 POP PUSH1 0x0 DUP3 ADD MLOAD DUP2 PUSH1 0x0 ADD SSTORE PUSH1 0x20 DUP3 ADD MLOAD DUP2 PUSH1 0x1 ADD SSTORE POP POP PUSH2 0x2FB3 CALLER DUP6 DUP4 PUSH2 0x302B JUMP JUMPDEST POP DUP5 PUSH1 0x9 PUSH1 0x0 DUP4 DUP2 MSTORE PUSH1 0x20 ADD SWAP1 DUP2 MSTORE PUSH1 0x20 ADD PUSH1 0x0 KECCAK256 PUSH1 0x0 PUSH2 0x100 EXP DUP2 SLOAD DUP2 PUSH20 0xFFFFFFFFFFFFFFFFFFFFFFFFFFFFFFFFFFFFFFFF MUL NOT AND SWAP1 DUP4 PUSH20 0xFFFFFFFFFFFFFFFFFFFFFFFFFFFFFFFFFFFFFFFF AND MUL OR SWAP1 SSTORE POP DUP1 SWAP2 POP POP PUSH1 0x0 DUP1 PUSH1 0x0 PUSH2 0x100 EXP DUP2 SLOAD DUP2 PUSH1 0xFF MUL NOT AND SWAP1 DUP4 ISZERO ISZERO MUL OR SWAP1 SSTORE POP SWAP4 SWAP3 POP POP POP JUMP JUMPDEST PUSH1 0x0 DUP1 PUSH1 0x11 PUSH1 0x0 DUP7 PUSH20 0xFFFFFFFFFFFFFFFFFFFFFFFFFFFFFFFFFFFFFFFF AND PUSH20 0xFFFFFFFFFFFFFFFFFFFFFFFFFFFFFFFFFFFFFFFF AND DUP2 MSTORE PUSH1 0x20 ADD SWAP1 DUP2 MSTORE PUSH1 0x20 ADD PUSH1 0x0 KECCAK256 PUSH1 0x0 ADD SWAP1 POP DUP1 PUSH1 0x40 MLOAD DUP1 PUSH1 0x60 ADD PUSH1 0x40 MSTORE DUP1 DUP7 DUP2 MSTORE PUSH1 0x20 ADD TIMESTAMP DUP2 MSTORE PUSH1 0x20 ADD DUP6 DUP2 MSTORE POP SWAP1 DUP1 PUSH1 0x1 DUP2 SLOAD ADD DUP1 DUP3 SSTORE DUP1 SWAP2 POP POP PUSH1 0x1 SWAP1 SUB SWAP1 PUSH1 0x0 MSTORE PUSH1 0x20 PUSH1 0x0 KECCAK256 SWAP1 PUSH1 0x3 MUL ADD PUSH1 0x0 SWAP1 SWAP2 SWAP1 SWAP2 SWAP1 SWAP2 POP PUSH1 0x0 DUP3 ADD MLOAD DUP2 PUSH1 0x0 ADD SSTORE PUSH1 0x20 DUP3 ADD MLOAD DUP2 PUSH1 0x1 ADD SSTORE PUSH1 0x40 DUP3 ADD MLOAD DUP2 PUSH1 0x2 ADD SSTORE POP POP PUSH1 0x11 PUSH1 0x0 DUP7 PUSH20 0xFFFFFFFFFFFFFFFFFFFFFFFFFFFFFFFFFFFFFFFF AND PUSH20 0xFFFFFFFFFFFFFFFFFFFFFFFFFFFFFFFFFFFFFFFF AND DUP2 MSTORE PUSH1 0x20 ADD SWAP1 DUP2 MSTORE PUSH1 0x20 ADD PUSH1 0x0 KECCAK256 PUSH1 0x1 ADD DUP4 SWAP1 DUP1 PUSH1 0x1 DUP2 SLOAD ADD DUP1 DUP3 SSTORE DUP1 SWAP2 POP POP PUSH1 0x1 SWAP1 SUB SWAP1 PUSH1 0x0 MSTORE PUSH1 0x20 PUSH1 0x0 KECCAK256 ADD PUSH1 0x0 SWAP1 SWAP2 SWAP1 SWAP2 SWAP1 SWAP2 POP SSTORE DUP4 PUSH1 0x8 PUSH1 0x0 DUP6 DUP2 MSTORE PUSH1 0x20 ADD SWAP1 DUP2 MSTORE PUSH1 0x20 ADD PUSH1 0x0 KECCAK256 DUP2 SWAP1 SSTORE POP PUSH1 0x1 SWAP2 POP POP SWAP4 SWAP3 POP POP POP JUMP JUMPDEST PUSH1 0x1 DUP2 PUSH1 0x0 ADD PUSH1 0x0 DUP3 DUP3 SLOAD ADD SWAP3 POP POP DUP2 SWAP1 SSTORE POP POP JUMP JUMPDEST PUSH1 0x0 CALLER SWAP1 POP SWAP1 JUMP JUMPDEST PUSH1 0x40 MLOAD DUP1 PUSH1 0x40 ADD PUSH1 0x40 MSTORE DUP1 PUSH1 0x60 DUP2 MSTORE PUSH1 0x20 ADD PUSH1 0x60 DUP2 MSTORE POP SWAP1 JUMP JUMPDEST POP DUP1 SLOAD PUSH1 0x0 DUP3 SSTORE PUSH1 0x3 MUL SWAP1 PUSH1 0x0 MSTORE PUSH1 0x20 PUSH1 0x0 KECCAK256 SWAP1 DUP2 ADD SWAP1 PUSH2 0x31BD SWAP2 SWAP1 PUSH2 0x31E4 JUMP JUMPDEST POP JUMP JUMPDEST POP DUP1 SLOAD PUSH1 0x0 DUP3 SSTORE PUSH1 0x2 MUL SWAP1 PUSH1 0x0 MSTORE PUSH1 0x20 PUSH1 0x0 KECCAK256 SWAP1 DUP2 ADD SWAP1 PUSH2 0x31E1 SWAP2 SWAP1 PUSH2 0x3213 JUMP JUMPDEST POP JUMP JUMPDEST JUMPDEST DUP1 DUP3 GT ISZERO PUSH2 0x320F JUMPI PUSH1 0x0 DUP1 DUP3 ADD PUSH1 0x0 SWAP1 SSTORE PUSH1 0x1 DUP3 ADD PUSH1 0x0 SWAP1 SSTORE PUSH1 0x2 DUP3 ADD PUSH1 0x0 SWAP1 SSTORE POP PUSH1 0x3 ADD PUSH2 0x31E5 JUMP JUMPDEST POP SWAP1 JUMP JUMPDEST JUMPDEST DUP1 DUP3 GT ISZERO PUSH2 0x3236 JUMPI PUSH1 0x0 DUP1 DUP3 ADD PUSH1 0x0 SWAP1 SSTORE PUSH1 0x1 DUP3 ADD PUSH1 0x0 SWAP1 SSTORE POP PUSH1 0x2 ADD PUSH2 0x3214 JUMP JUMPDEST POP SWAP1 JUMP JUMPDEST PUSH1 0x0 DUP2 SWAP1 POP SWAP2 SWAP1 POP JUMP JUMPDEST PUSH2 0x324D DUP2 PUSH2 0x323A JUMP JUMPDEST DUP3 MSTORE POP POP JUMP JUMPDEST PUSH1 0x0 PUSH1 0x20 DUP3 ADD SWAP1 POP PUSH2 0x3268 PUSH1 0x0 DUP4 ADD DUP5 PUSH2 0x3244 JUMP JUMPDEST SWAP3 SWAP2 POP POP JUMP JUMPDEST PUSH1 0x0 PUSH1 0x40 DUP3 ADD SWAP1 POP PUSH2 0x3283 PUSH1 0x0 DUP4 ADD DUP6 PUSH2 0x3244 JUMP JUMPDEST PUSH2 0x3290 PUSH1 0x20 DUP4 ADD DUP5 PUSH2 0x3244 JUMP JUMPDEST SWAP4 SWAP3 POP POP POP JUMP JUMPDEST PUSH1 0x0 DUP1 REVERT JUMPDEST PUSH1 0x0 DUP1 REVERT JUMPDEST PUSH1 0x0 PUSH20 0xFFFFFFFFFFFFFFFFFFFFFFFFFFFFFFFFFFFFFFFF DUP3 AND SWAP1 POP SWAP2 SWAP1 POP JUMP JUMPDEST PUSH1 0x0 PUSH2 0x32CC DUP3 PUSH2 0x32A1 JUMP JUMPDEST SWAP1 POP SWAP2 SWAP1 POP JUMP JUMPDEST PUSH2 0x32DC DUP2 PUSH2 0x32C1 JUMP JUMPDEST DUP2 EQ PUSH2 0x32E7 JUMPI PUSH1 0x0 DUP1 REVERT JUMPDEST POP JUMP JUMPDEST PUSH1 0x0 DUP2 CALLDATALOAD SWAP1 POP PUSH2 0x32F9 DUP2 PUSH2 0x32D3 JUMP JUMPDEST SWAP3 SWAP2 POP POP JUMP JUMPDEST PUSH2 0x3308 DUP2 PUSH2 0x323A JUMP JUMPDEST DUP2 EQ PUSH2 0x3313 JUMPI PUSH1 0x0 DUP1 REVERT JUMPDEST POP JUMP JUMPDEST PUSH1 0x0 DUP2 CALLDATALOAD SWAP1 POP PUSH2 0x3325 DUP2 PUSH2 0x32FF JUMP JUMPDEST SWAP3 SWAP2 POP POP JUMP JUMPDEST PUSH1 0x0 DUP1 REVERT JUMPDEST PUSH1 0x0 DUP1 REVERT JUMPDEST PUSH1 0x0 DUP1 REVERT JUMPDEST PUSH1 0x0 DUP1 DUP4 PUSH1 0x1F DUP5 ADD SLT PUSH2 0x3350 JUMPI PUSH2 0x334F PUSH2 0x332B JUMP JUMPDEST JUMPDEST DUP3 CALLDATALOAD SWAP1 POP PUSH8 0xFFFFFFFFFFFFFFFF DUP2 GT ISZERO PUSH2 0x336D JUMPI PUSH2 0x336C PUSH2 0x3330 JUMP JUMPDEST JUMPDEST PUSH1 0x20 DUP4 ADD SWAP2 POP DUP4 PUSH1 0x1 DUP3 MUL DUP4 ADD GT ISZERO PUSH2 0x3389 JUMPI PUSH2 0x3388 PUSH2 0x3335 JUMP JUMPDEST JUMPDEST SWAP3 POP SWAP3 SWAP1 POP JUMP JUMPDEST PUSH1 0x0 DUP1 PUSH1 0x0 DUP1 PUSH1 0x0 PUSH1 0x80 DUP7 DUP9 SUB SLT ISZERO PUSH2 0x33AC JUMPI PUSH2 0x33AB PUSH2 0x3297 JUMP JUMPDEST JUMPDEST PUSH1 0x0 PUSH2 0x33BA DUP9 DUP3 DUP10 ADD PUSH2 0x32EA JUMP JUMPDEST SWAP6 POP POP PUSH1 0x20 PUSH2 0x33CB DUP9 DUP3 DUP10 ADD PUSH2 0x32EA JUMP JUMPDEST SWAP5 POP POP PUSH1 0x40 PUSH2 0x33DC DUP9 DUP3 DUP10 ADD PUSH2 0x3316 JUMP JUMPDEST SWAP4 POP POP PUSH1 0x60 DUP7 ADD CALLDATALOAD PUSH8 0xFFFFFFFFFFFFFFFF DUP2 GT ISZERO PUSH2 0x33FD JUMPI PUSH2 0x33FC PUSH2 0x329C JUMP JUMPDEST JUMPDEST PUSH2 0x3409 DUP9 DUP3 DUP10 ADD PUSH2 0x333A JUMP JUMPDEST SWAP3 POP SWAP3 POP POP SWAP3 SWAP6 POP SWAP3 SWAP6 SWAP1 SWAP4 POP JUMP JUMPDEST PUSH1 0x0 PUSH32 0xFFFFFFFF00000000000000000000000000000000000000000000000000000000 DUP3 AND SWAP1 POP SWAP2 SWAP1 POP JUMP JUMPDEST PUSH2 0x344D DUP2 PUSH2 0x3418 JUMP JUMPDEST DUP3 MSTORE POP POP JUMP JUMPDEST PUSH1 0x0 PUSH1 0x20 DUP3 ADD SWAP1 POP PUSH2 0x3468 PUSH1 0x0 DUP4 ADD DUP5 PUSH2 0x3444 JUMP JUMPDEST SWAP3 SWAP2 POP POP JUMP JUMPDEST PUSH1 0x0 PUSH1 0x20 DUP3 DUP5 SUB SLT ISZERO PUSH2 0x3484 JUMPI PUSH2 0x3483 PUSH2 0x3297 JUMP JUMPDEST JUMPDEST PUSH1 0x0 PUSH2 0x3492 DUP5 DUP3 DUP6 ADD PUSH2 0x3316 JUMP JUMPDEST SWAP2 POP POP SWAP3 SWAP2 POP POP JUMP JUMPDEST PUSH2 0x34A4 DUP2 PUSH2 0x32C1 JUMP JUMPDEST DUP3 MSTORE POP POP JUMP JUMPDEST PUSH1 0x0 PUSH1 0x20 DUP3 ADD SWAP1 POP PUSH2 0x34BF PUSH1 0x0 DUP4 ADD DUP5 PUSH2 0x349B JUMP JUMPDEST SWAP3 SWAP2 POP POP JUMP JUMPDEST PUSH1 0x0 DUP2 SWAP1 POP SWAP2 SWAP1 POP JUMP JUMPDEST PUSH1 0x0 PUSH2 0x34EA PUSH2 0x34E5 PUSH2 0x34E0 DUP5 PUSH2 0x32A1 JUMP JUMPDEST PUSH2 0x34C5 JUMP JUMPDEST PUSH2 0x32A1 JUMP JUMPDEST SWAP1 POP SWAP2 SWAP1 POP JUMP JUMPDEST PUSH1 0x0 PUSH2 0x34FC DUP3 PUSH2 0x34CF JUMP JUMPDEST SWAP1 POP SWAP2 SWAP1 POP JUMP JUMPDEST PUSH1 0x0 PUSH2 0x350E DUP3 PUSH2 0x34F1 JUMP JUMPDEST SWAP1 POP SWAP2 SWAP1 POP JUMP JUMPDEST PUSH2 0x351E DUP2 PUSH2 0x3503 JUMP JUMPDEST DUP3 MSTORE POP POP JUMP JUMPDEST PUSH1 0x0 PUSH1 0x20 DUP3 ADD SWAP1 POP PUSH2 0x3539 PUSH1 0x0 DUP4 ADD DUP5 PUSH2 0x3515 JUMP JUMPDEST SWAP3 SWAP2 POP POP JUMP JUMPDEST PUSH1 0x0 PUSH2 0x354A DUP3 PUSH2 0x34F1 JUMP JUMPDEST SWAP1 POP SWAP2 SWAP1 POP JUMP JUMPDEST PUSH2 0x355A DUP2 PUSH2 0x353F JUMP JUMPDEST DUP3 MSTORE POP POP JUMP JUMPDEST PUSH1 0x0 PUSH1 0x20 DUP3 ADD SWAP1 POP PUSH2 0x3575 PUSH1 0x0 DUP4 ADD DUP5 PUSH2 0x3551 JUMP JUMPDEST SWAP3 SWAP2 POP POP JUMP JUMPDEST PUSH1 0x0 DUP2 ISZERO ISZERO SWAP1 POP SWAP2 SWAP1 POP JUMP JUMPDEST PUSH2 0x3590 DUP2 PUSH2 0x357B JUMP JUMPDEST DUP3 MSTORE POP POP JUMP JUMPDEST PUSH1 0x0 PUSH1 0x20 DUP3 ADD SWAP1 POP PUSH2 0x35AB PUSH1 0x0 DUP4 ADD DUP5 PUSH2 0x3587 JUMP JUMPDEST SWAP3 SWAP2 POP POP JUMP JUMPDEST PUSH1 0x0 PUSH1 0x20 DUP3 DUP5 SUB SLT ISZERO PUSH2 0x35C7 JUMPI PUSH2 0x35C6 PUSH2 0x3297 JUMP JUMPDEST JUMPDEST PUSH1 0x0 PUSH2 0x35D5 DUP5 DUP3 DUP6 ADD PUSH2 0x32EA JUMP JUMPDEST SWAP2 POP POP SWAP3 SWAP2 POP POP JUMP JUMPDEST PUSH1 0x0 DUP1 PUSH1 0x40 DUP4 DUP6 SUB SLT ISZERO PUSH2 0x35F5 JUMPI PUSH2 0x35F4 PUSH2 0x3297 JUMP JUMPDEST JUMPDEST PUSH1 0x0 PUSH2 0x3603 DUP6 DUP3 DUP7 ADD PUSH2 0x3316 JUMP JUMPDEST SWAP3 POP POP PUSH1 0x20 PUSH2 0x3614 DUP6 DUP3 DUP7 ADD PUSH2 0x3316 JUMP JUMPDEST SWAP2 POP POP SWAP3 POP SWAP3 SWAP1 POP JUMP JUMPDEST PUSH1 0x0 PUSH2 0x3629 DUP3 PUSH2 0x34F1 JUMP JUMPDEST SWAP1 POP SWAP2 SWAP1 POP JUMP JUMPDEST PUSH2 0x3639 DUP2 PUSH2 0x361E JUMP JUMPDEST DUP3 MSTORE POP POP JUMP JUMPDEST PUSH1 0x0 PUSH1 0x20 DUP3 ADD SWAP1 POP PUSH2 0x3654 PUSH1 0x0 DUP4 ADD DUP5 PUSH2 0x3630 JUMP JUMPDEST SWAP3 SWAP2 POP POP JUMP JUMPDEST PUSH1 0x0 DUP1 PUSH1 0x40 DUP4 DUP6 SUB SLT ISZERO PUSH2 0x3671 JUMPI PUSH2 0x3670 PUSH2 0x3297 JUMP JUMPDEST JUMPDEST PUSH1 0x0 PUSH2 0x367F DUP6 DUP3 DUP7 ADD PUSH2 0x32EA JUMP JUMPDEST SWAP3 POP POP PUSH1 0x20 PUSH2 0x3690 DUP6 DUP3 DUP7 ADD PUSH2 0x3316 JUMP JUMPDEST SWAP2 POP POP SWAP3 POP SWAP3 SWAP1 POP JUMP JUMPDEST PUSH1 0x0 PUSH1 0x60 DUP3 ADD SWAP1 POP PUSH2 0x36AF PUSH1 0x0 DUP4 ADD DUP7 PUSH2 0x3244 JUMP JUMPDEST PUSH2 0x36BC PUSH1 0x20 DUP4 ADD DUP6 PUSH2 0x3244 JUMP JUMPDEST PUSH2 0x36C9 PUSH1 0x40 DUP4 ADD DUP5 PUSH2 0x3244 JUMP JUMPDEST SWAP5 SWAP4 POP POP POP POP JUMP JUMPDEST PUSH1 0x0 DUP2 MLOAD SWAP1 POP SWAP2 SWAP1 POP JUMP JUMPDEST PUSH1 0x0 DUP3 DUP3 MSTORE PUSH1 0x20 DUP3 ADD SWAP1 POP SWAP3 SWAP2 POP POP JUMP JUMPDEST PUSH1 0x0 DUP2 SWAP1 POP PUSH1 0x20 DUP3 ADD SWAP1 POP SWAP2 SWAP1 POP JUMP JUMPDEST PUSH2 0x3706 DUP2 PUSH2 0x323A JUMP JUMPDEST DUP3 MSTORE POP POP JUMP JUMPDEST PUSH1 0x40 DUP3 ADD PUSH1 0x0 DUP3 ADD MLOAD PUSH2 0x3722 PUSH1 0x0 DUP6 ADD DUP3 PUSH2 0x36FD JUMP JUMPDEST POP PUSH1 0x20 DUP3 ADD MLOAD PUSH2 0x3735 PUSH1 0x20 DUP6 ADD DUP3 PUSH2 0x36FD JUMP JUMPDEST POP POP POP POP JUMP JUMPDEST PUSH1 0x0 PUSH2 0x3747 DUP4 DUP4 PUSH2 0x370C JUMP JUMPDEST PUSH1 0x40 DUP4 ADD SWAP1 POP SWAP3 SWAP2 POP POP JUMP JUMPDEST PUSH1 0x0 PUSH1 0x20 DUP3 ADD SWAP1 POP SWAP2 SWAP1 POP JUMP JUMPDEST PUSH1 0x0 PUSH2 0x376B DUP3 PUSH2 0x36D1 JUMP JUMPDEST PUSH2 0x3775 DUP2 DUP6 PUSH2 0x36DC JUMP JUMPDEST SWAP4 POP PUSH2 0x3780 DUP4 PUSH2 0x36ED JUMP JUMPDEST DUP1 PUSH1 0x0 JUMPDEST DUP4 DUP2 LT ISZERO PUSH2 0x37B1 JUMPI DUP2 MLOAD PUSH2 0x3798 DUP9 DUP3 PUSH2 0x373B JUMP JUMPDEST SWAP8 POP PUSH2 0x37A3 DUP4 PUSH2 0x3753 JUMP JUMPDEST SWAP3 POP POP PUSH1 0x1 DUP2 ADD SWAP1 POP PUSH2 0x3784 JUMP JUMPDEST POP DUP6 SWAP4 POP POP POP POP SWAP3 SWAP2 POP POP JUMP JUMPDEST PUSH1 0x0 PUSH1 0x20 DUP3 ADD SWAP1 POP DUP2 DUP2 SUB PUSH1 0x0 DUP4 ADD MSTORE PUSH2 0x37D8 DUP2 DUP5 PUSH2 0x3760 JUMP JUMPDEST SWAP1 POP SWAP3 SWAP2 POP POP JUMP JUMPDEST PUSH1 0x0 PUSH1 0x80 DUP3 ADD SWAP1 POP PUSH2 0x37F5 PUSH1 0x0 DUP4 ADD DUP8 PUSH2 0x349B JUMP JUMPDEST PUSH2 0x3802 PUSH1 0x20 DUP4 ADD DUP7 PUSH2 0x3244 JUMP JUMPDEST PUSH2 0x380F PUSH1 0x40 DUP4 ADD DUP6 PUSH2 0x3244 JUMP JUMPDEST PUSH2 0x381C PUSH1 0x60 DUP4 ADD DUP5 PUSH2 0x3244 JUMP JUMPDEST SWAP6 SWAP5 POP POP POP POP POP JUMP JUMPDEST PUSH1 0x0 PUSH2 0x3830 DUP3 PUSH2 0x34F1 JUMP JUMPDEST SWAP1 POP SWAP2 SWAP1 POP JUMP JUMPDEST PUSH2 0x3840 DUP2 PUSH2 0x3825 JUMP JUMPDEST DUP3 MSTORE POP POP JUMP JUMPDEST PUSH1 0x0 PUSH1 0x20 DUP3 ADD SWAP1 POP PUSH2 0x385B PUSH1 0x0 DUP4 ADD DUP5 PUSH2 0x3837 JUMP JUMPDEST SWAP3 SWAP2 POP POP JUMP JUMPDEST PUSH2 0x386A DUP2 PUSH2 0x357B JUMP JUMPDEST DUP2 EQ PUSH2 0x3875 JUMPI PUSH1 0x0 DUP1 REVERT JUMPDEST POP JUMP JUMPDEST PUSH1 0x0 DUP2 CALLDATALOAD SWAP1 POP PUSH2 0x3887 DUP2 PUSH2 0x3861 JUMP JUMPDEST SWAP3 SWAP2 POP POP JUMP JUMPDEST PUSH1 0x0 DUP1 PUSH1 0x0 PUSH1 0x60 DUP5 DUP7 SUB SLT ISZERO PUSH2 0x38A6 JUMPI PUSH2 0x38A5 PUSH2 0x3297 JUMP JUMPDEST JUMPDEST PUSH1 0x0 PUSH2 0x38B4 DUP7 DUP3 DUP8 ADD PUSH2 0x3878 JUMP JUMPDEST SWAP4 POP POP PUSH1 0x20 PUSH2 0x38C5 DUP7 DUP3 DUP8 ADD PUSH2 0x3316 JUMP JUMPDEST SWAP3 POP POP PUSH1 0x40 PUSH2 0x38D6 DUP7 DUP3 DUP8 ADD PUSH2 0x3316 JUMP JUMPDEST SWAP2 POP POP SWAP3 POP SWAP3 POP SWAP3 JUMP JUMPDEST PUSH1 0x0 DUP1 PUSH1 0x0 PUSH1 0x60 DUP5 DUP7 SUB SLT ISZERO PUSH2 0x38F9 JUMPI PUSH2 0x38F8 PUSH2 0x3297 JUMP JUMPDEST JUMPDEST PUSH1 0x0 PUSH2 0x3907 DUP7 DUP3 DUP8 ADD PUSH2 0x32EA JUMP JUMPDEST SWAP4 POP POP PUSH1 0x20 PUSH2 0x3918 DUP7 DUP3 DUP8 ADD PUSH2 0x3316 JUMP JUMPDEST SWAP3 POP POP PUSH1 0x40 PUSH2 0x3929 DUP7 DUP3 DUP8 ADD PUSH2 0x3316 JUMP JUMPDEST SWAP2 POP POP SWAP3 POP SWAP3 POP SWAP3 JUMP JUMPDEST PUSH1 0x0 PUSH2 0x393E DUP3 PUSH2 0x32A1 JUMP JUMPDEST SWAP1 POP SWAP2 SWAP1 POP JUMP JUMPDEST PUSH2 0x394E DUP2 PUSH2 0x3933 JUMP JUMPDEST DUP3 MSTORE POP POP JUMP JUMPDEST PUSH1 0x0 PUSH1 0x60 DUP3 ADD SWAP1 POP PUSH2 0x3969 PUSH1 0x0 DUP4 ADD DUP7 PUSH2 0x3945 JUMP JUMPDEST PUSH2 0x3976 PUSH1 0x20 DUP4 ADD DUP6 PUSH2 0x3244 JUMP JUMPDEST PUSH2 0x3983 PUSH1 0x40 DUP4 ADD DUP5 PUSH2 0x3244 JUMP JUMPDEST SWAP5 SWAP4 POP POP POP POP JUMP JUMPDEST PUSH1 0x0 DUP2 MLOAD SWAP1 POP SWAP2 SWAP1 POP JUMP JUMPDEST PUSH1 0x0 DUP3 DUP3 MSTORE PUSH1 0x20 DUP3 ADD SWAP1 POP SWAP3 SWAP2 POP POP JUMP JUMPDEST PUSH1 0x0 DUP2 SWAP1 POP PUSH1 0x20 DUP3 ADD SWAP1 POP SWAP2 SWAP1 POP JUMP JUMPDEST PUSH1 0x60 DUP3 ADD PUSH1 0x0 DUP3 ADD MLOAD PUSH2 0x39CD PUSH1 0x0 DUP6 ADD DUP3 PUSH2 0x36FD JUMP JUMPDEST POP PUSH1 0x20 DUP3 ADD MLOAD PUSH2 0x39E0 PUSH1 0x20 DUP6 ADD DUP3 PUSH2 0x36FD JUMP JUMPDEST POP PUSH1 0x40 DUP3 ADD MLOAD PUSH2 0x39F3 PUSH1 0x40 DUP6 ADD DUP3 PUSH2 0x36FD JUMP JUMPDEST POP POP POP POP JUMP JUMPDEST PUSH1 0x0 PUSH2 0x3A05 DUP4 DUP4 PUSH2 0x39B7 JUMP JUMPDEST PUSH1 0x60 DUP4 ADD SWAP1 POP SWAP3 SWAP2 POP POP JUMP JUMPDEST PUSH1 0x0 PUSH1 0x20 DUP3 ADD SWAP1 POP SWAP2 SWAP1 POP JUMP JUMPDEST PUSH1 0x0 PUSH2 0x3A29 DUP3 PUSH2 0x398B JUMP JUMPDEST PUSH2 0x3A33 DUP2 DUP6 PUSH2 0x3996 JUMP JUMPDEST SWAP4 POP PUSH2 0x3A3E DUP4 PUSH2 0x39A7 JUMP JUMPDEST DUP1 PUSH1 0x0 JUMPDEST DUP4 DUP2 LT ISZERO PUSH2 0x3A6F JUMPI DUP2 MLOAD PUSH2 0x3A56 DUP9 DUP3 PUSH2 0x39F9 JUMP JUMPDEST SWAP8 POP PUSH2 0x3A61 DUP4 PUSH2 0x3A11 JUMP JUMPDEST SWAP3 POP POP PUSH1 0x1 DUP2 ADD SWAP1 POP PUSH2 0x3A42 JUMP JUMPDEST POP DUP6 SWAP4 POP POP POP POP SWAP3 SWAP2 POP POP JUMP JUMPDEST PUSH1 0x0 DUP2 MLOAD SWAP1 POP SWAP2 SWAP1 POP JUMP JUMPDEST PUSH1 0x0 DUP3 DUP3 MSTORE PUSH1 0x20 DUP3 ADD SWAP1 POP SWAP3 SWAP2 POP POP JUMP JUMPDEST PUSH1 0x0 DUP2 SWAP1 POP PUSH1 0x20 DUP3 ADD SWAP1 POP SWAP2 SWAP1 POP JUMP JUMPDEST PUSH1 0x0 PUSH2 0x3AB4 DUP4 DUP4 PUSH2 0x36FD JUMP JUMPDEST PUSH1 0x20 DUP4 ADD SWAP1 POP SWAP3 SWAP2 POP POP JUMP JUMPDEST PUSH1 0x0 PUSH1 0x20 DUP3 ADD SWAP1 POP SWAP2 SWAP1 POP JUMP JUMPDEST PUSH1 0x0 PUSH2 0x3AD8 DUP3 PUSH2 0x3A7C JUMP JUMPDEST PUSH2 0x3AE2 DUP2 DUP6 PUSH2 0x3A87 JUMP JUMPDEST SWAP4 POP PUSH2 0x3AED DUP4 PUSH2 0x3A98 JUMP JUMPDEST DUP1 PUSH1 0x0 JUMPDEST DUP4 DUP2 LT ISZERO PUSH2 0x3B1E JUMPI DUP2 MLOAD PUSH2 0x3B05 DUP9 DUP3 PUSH2 0x3AA8 JUMP JUMPDEST SWAP8 POP PUSH2 0x3B10 DUP4 PUSH2 0x3AC0 JUMP JUMPDEST SWAP3 POP POP PUSH1 0x1 DUP2 ADD SWAP1 POP PUSH2 0x3AF1 JUMP JUMPDEST POP DUP6 SWAP4 POP POP POP POP SWAP3 SWAP2 POP POP JUMP JUMPDEST PUSH1 0x0 PUSH1 0x40 DUP4 ADD PUSH1 0x0 DUP4 ADD MLOAD DUP5 DUP3 SUB PUSH1 0x0 DUP7 ADD MSTORE PUSH2 0x3B48 DUP3 DUP3 PUSH2 0x3A1E JUMP JUMPDEST SWAP2 POP POP PUSH1 0x20 DUP4 ADD MLOAD DUP5 DUP3 SUB PUSH1 0x20 DUP7 ADD MSTORE PUSH2 0x3B62 DUP3 DUP3 PUSH2 0x3ACD JUMP JUMPDEST SWAP2 POP POP DUP1 SWAP2 POP POP SWAP3 SWAP2 POP POP JUMP JUMPDEST PUSH1 0x0 PUSH1 0x20 DUP3 ADD SWAP1 POP DUP2 DUP2 SUB PUSH1 0x0 DUP4 ADD MSTORE PUSH2 0x3B89 DUP2 DUP5 PUSH2 0x3B2B JUMP JUMPDEST SWAP1 POP SWAP3 SWAP2 POP POP JUMP JUMPDEST PUSH1 0x0 DUP1 PUSH1 0x40 DUP4 DUP6 SUB SLT ISZERO PUSH2 0x3BA8 JUMPI PUSH2 0x3BA7 PUSH2 0x3297 JUMP JUMPDEST JUMPDEST PUSH1 0x0 PUSH2 0x3BB6 DUP6 DUP3 DUP7 ADD PUSH2 0x3316 JUMP JUMPDEST SWAP3 POP POP PUSH1 0x20 PUSH2 0x3BC7 DUP6 DUP3 DUP7 ADD PUSH2 0x32EA JUMP JUMPDEST SWAP2 POP POP SWAP3 POP SWAP3 SWAP1 POP JUMP JUMPDEST PUSH2 0x3BDA DUP2 PUSH2 0x3933 JUMP JUMPDEST DUP2 EQ PUSH2 0x3BE5 JUMPI PUSH1 0x0 DUP1 REVERT JUMPDEST POP JUMP JUMPDEST PUSH1 0x0 DUP2 CALLDATALOAD SWAP1 POP PUSH2 0x3BF7 DUP2 PUSH2 0x3BD1 JUMP JUMPDEST SWAP3 SWAP2 POP POP JUMP JUMPDEST PUSH1 0x0 DUP1 PUSH1 0x40 DUP4 DUP6 SUB SLT ISZERO PUSH2 0x3C14 JUMPI PUSH2 0x3C13 PUSH2 0x3297 JUMP JUMPDEST JUMPDEST PUSH1 0x0 PUSH2 0x3C22 DUP6 DUP3 DUP7 ADD PUSH2 0x3316 JUMP JUMPDEST SWAP3 POP POP PUSH1 0x20 PUSH2 0x3C33 DUP6 DUP3 DUP7 ADD PUSH2 0x3BE8 JUMP JUMPDEST SWAP2 POP POP SWAP3 POP SWAP3 SWAP1 POP JUMP JUMPDEST PUSH1 0x0 DUP3 DUP3 MSTORE PUSH1 0x20 DUP3 ADD SWAP1 POP SWAP3 SWAP2 POP POP JUMP JUMPDEST PUSH32 0x5761726E203A2053656E6420747279696E672061646472657373206973206E6F PUSH1 0x0 DUP3 ADD MSTORE PUSH32 0x7420746865207374726174656779204164647265737300000000000000000000 PUSH1 0x20 DUP3 ADD MSTORE POP JUMP JUMPDEST PUSH1 0x0 PUSH2 0x3CAA PUSH1 0x36 DUP4 PUSH2 0x3C3D JUMP JUMPDEST SWAP2 POP PUSH2 0x3CB5 DUP3 PUSH2 0x3C4E JUMP JUMPDEST PUSH1 0x40 DUP3 ADD SWAP1 POP SWAP2 SWAP1 POP JUMP JUMPDEST PUSH1 0x0 PUSH1 0x20 DUP3 ADD SWAP1 POP DUP2 DUP2 SUB PUSH1 0x0 DUP4 ADD MSTORE PUSH2 0x3CD9 DUP2 PUSH2 0x3C9D JUMP JUMPDEST SWAP1 POP SWAP2 SWAP1 POP JUMP JUMPDEST PUSH1 0x0 PUSH1 0x40 DUP3 ADD SWAP1 POP PUSH2 0x3CF5 PUSH1 0x0 DUP4 ADD DUP6 PUSH2 0x3244 JUMP JUMPDEST PUSH2 0x3D02 PUSH1 0x20 DUP4 ADD DUP5 PUSH2 0x349B JUMP JUMPDEST SWAP4 SWAP3 POP POP POP JUMP JUMPDEST PUSH32 0x5761726E203A2053656E6420616D6F756E7420697320646966666572656E7420 PUSH1 0x0 DUP3 ADD MSTORE PUSH32 0x77697468206D73672E76616C7565000000000000000000000000000000000000 PUSH1 0x20 DUP3 ADD MSTORE POP JUMP JUMPDEST PUSH1 0x0 PUSH2 0x3D65 PUSH1 0x2E DUP4 PUSH2 0x3C3D JUMP JUMPDEST SWAP2 POP PUSH2 0x3D70 DUP3 PUSH2 0x3D09 JUMP JUMPDEST PUSH1 0x40 DUP3 ADD SWAP1 POP SWAP2 SWAP1 POP JUMP JUMPDEST PUSH1 0x0 PUSH1 0x20 DUP3 ADD SWAP1 POP DUP2 DUP2 SUB PUSH1 0x0 DUP4 ADD MSTORE PUSH2 0x3D94 DUP2 PUSH2 0x3D58 JUMP JUMPDEST SWAP1 POP SWAP2 SWAP1 POP JUMP JUMPDEST PUSH32 0x4E6F205265456E7472616E637900000000000000000000000000000000000000 PUSH1 0x0 DUP3 ADD MSTORE POP JUMP JUMPDEST PUSH1 0x0 PUSH2 0x3DD1 PUSH1 0xD DUP4 PUSH2 0x3C3D JUMP JUMPDEST SWAP2 POP PUSH2 0x3DDC DUP3 PUSH2 0x3D9B JUMP JUMPDEST PUSH1 0x20 DUP3 ADD SWAP1 POP SWAP2 SWAP1 POP JUMP JUMPDEST PUSH1 0x0 PUSH1 0x20 DUP3 ADD SWAP1 POP DUP2 DUP2 SUB PUSH1 0x0 DUP4 ADD MSTORE PUSH2 0x3E00 DUP2 PUSH2 0x3DC4 JUMP JUMPDEST SWAP1 POP SWAP2 SWAP1 POP JUMP JUMPDEST PUSH1 0x0 PUSH1 0x40 DUP3 ADD SWAP1 POP PUSH2 0x3E1C PUSH1 0x0 DUP4 ADD DUP6 PUSH2 0x349B JUMP JUMPDEST PUSH2 0x3E29 PUSH1 0x20 DUP4 ADD DUP5 PUSH2 0x3244 JUMP JUMPDEST SWAP4 SWAP3 POP POP POP JUMP JUMPDEST PUSH1 0x0 DUP2 MLOAD SWAP1 POP PUSH2 0x3E3F DUP2 PUSH2 0x3861 JUMP JUMPDEST SWAP3 SWAP2 POP POP JUMP JUMPDEST PUSH1 0x0 PUSH1 0x20 DUP3 DUP5 SUB SLT ISZERO PUSH2 0x3E5B JUMPI PUSH2 0x3E5A PUSH2 0x3297 JUMP JUMPDEST JUMPDEST PUSH1 0x0 PUSH2 0x3E69 DUP5 DUP3 DUP6 ADD PUSH2 0x3E30 JUMP JUMPDEST SWAP2 POP POP SWAP3 SWAP2 POP POP JUMP JUMPDEST PUSH32 0x5761726E203A20515645207374616B696E67206661696C656400000000000000 PUSH1 0x0 DUP3 ADD MSTORE POP JUMP JUMPDEST PUSH1 0x0 PUSH2 0x3EA8 PUSH1 0x19 DUP4 PUSH2 0x3C3D JUMP JUMPDEST SWAP2 POP PUSH2 0x3EB3 DUP3 PUSH2 0x3E72 JUMP JUMPDEST PUSH1 0x20 DUP3 ADD SWAP1 POP SWAP2 SWAP1 POP JUMP JUMPDEST PUSH1 0x0 PUSH1 0x20 DUP3 ADD SWAP1 POP DUP2 DUP2 SUB PUSH1 0x0 DUP4 ADD MSTORE PUSH2 0x3ED7 DUP2 PUSH2 0x3E9B JUMP JUMPDEST SWAP1 POP SWAP2 SWAP1 POP JUMP JUMPDEST PUSH32 0x5761726E203A204D69736D6174636865642073656E7420616D6F756E74000000 PUSH1 0x0 DUP3 ADD MSTORE POP JUMP JUMPDEST PUSH1 0x0 PUSH2 0x3F14 PUSH1 0x1D DUP4 PUSH2 0x3C3D JUMP JUMPDEST SWAP2 POP PUSH2 0x3F1F DUP3 PUSH2 0x3EDE JUMP JUMPDEST PUSH1 0x20 DUP3 ADD SWAP1 POP SWAP2 SWAP1 POP JUMP JUMPDEST PUSH1 0x0 PUSH1 0x20 DUP3 ADD SWAP1 POP DUP2 DUP2 SUB PUSH1 0x0 DUP4 ADD MSTORE PUSH2 0x3F43 DUP2 PUSH2 0x3F07 JUMP JUMPDEST SWAP1 POP SWAP2 SWAP1 POP JUMP JUMPDEST PUSH32 0x4E487B7100000000000000000000000000000000000000000000000000000000 PUSH1 0x0 MSTORE PUSH1 0x11 PUSH1 0x4 MSTORE PUSH1 0x24 PUSH1 0x0 REVERT JUMPDEST PUSH1 0x0 PUSH2 0x3F84 DUP3 PUSH2 0x323A JUMP JUMPDEST SWAP2 POP PUSH2 0x3F8F DUP4 PUSH2 0x323A JUMP JUMPDEST SWAP3 POP DUP3 DUP3 ADD SWAP1 POP DUP1 DUP3 GT ISZERO PUSH2 0x3FA7 JUMPI PUSH2 0x3FA6 PUSH2 0x3F4A JUMP JUMPDEST JUMPDEST SWAP3 SWAP2 POP POP JUMP JUMPDEST PUSH1 0x0 DUP2 SWAP1 POP SWAP3 SWAP2 POP POP JUMP JUMPDEST PUSH32 0x5B47756172616E7465656420496E766573746D656E74204D617267696E5D2D2D PUSH1 0x0 DUP3 ADD MSTORE PUSH32 0x3A00000000000000000000000000000000000000000000000000000000000000 PUSH1 0x20 DUP3 ADD MSTORE POP JUMP JUMPDEST PUSH1 0x0 PUSH2 0x4014 PUSH1 0x21 DUP4 PUSH2 0x3FAD JUMP JUMPDEST SWAP2 POP PUSH2 0x401F DUP3 PUSH2 0x3FB8 JUMP JUMPDEST PUSH1 0x21 DUP3 ADD SWAP1 POP SWAP2 SWAP1 POP JUMP JUMPDEST PUSH1 0x0 DUP2 MLOAD SWAP1 POP SWAP2 SWAP1 POP JUMP JUMPDEST PUSH1 0x0 JUMPDEST DUP4 DUP2 LT ISZERO PUSH2 0x4053 JUMPI DUP1 DUP3 ADD MLOAD DUP2 DUP5 ADD MSTORE PUSH1 0x20 DUP2 ADD SWAP1 POP PUSH2 0x4038 JUMP JUMPDEST PUSH1 0x0 DUP5 DUP5 ADD MSTORE POP POP POP POP JUMP JUMPDEST PUSH1 0x0 PUSH2 0x406A DUP3 PUSH2 0x402A JUMP JUMPDEST PUSH2 0x4074 DUP2 DUP6 PUSH2 0x3FAD JUMP JUMPDEST SWAP4 POP PUSH2 0x4084 DUP2 DUP6 PUSH1 0x20 DUP7 ADD PUSH2 0x4035 JUMP JUMPDEST DUP1 DUP5 ADD SWAP2 POP POP SWAP3 SWAP2 POP POP JUMP JUMPDEST PUSH32 0x5745490000000000000000000000000000000000000000000000000000000000 PUSH1 0x0 DUP3 ADD MSTORE POP JUMP JUMPDEST PUSH1 0x0 PUSH2 0x40C6 PUSH1 0x3 DUP4 PUSH2 0x3FAD JUMP JUMPDEST SWAP2 POP PUSH2 0x40D1 DUP3 PUSH2 0x4090 JUMP JUMPDEST PUSH1 0x3 DUP3 ADD SWAP1 POP SWAP2 SWAP1 POP JUMP JUMPDEST PUSH1 0x0 PUSH2 0x40E7 DUP3 PUSH2 0x4007 JUMP JUMPDEST SWAP2 POP PUSH2 0x40F3 DUP3 DUP5 PUSH2 0x405F JUMP JUMPDEST SWAP2 POP PUSH2 0x40FE DUP3 PUSH2 0x40B9 JUMP JUMPDEST SWAP2 POP DUP2 SWAP1 POP SWAP3 SWAP2 POP POP JUMP JUMPDEST PUSH32 0x5374616B696E672047756172616E746565204361726400000000000000000000 PUSH1 0x0 DUP3 ADD MSTORE POP JUMP JUMPDEST PUSH1 0x0 PUSH2 0x413F PUSH1 0x16 DUP4 PUSH2 0x3C3D JUMP JUMPDEST SWAP2 POP PUSH2 0x414A DUP3 PUSH2 0x4109 JUMP JUMPDEST PUSH1 0x20 DUP3 ADD SWAP1 POP SWAP2 SWAP1 POP JUMP JUMPDEST PUSH1 0x0 PUSH1 0x1F NOT PUSH1 0x1F DUP4 ADD AND SWAP1 POP SWAP2 SWAP1 POP JUMP JUMPDEST PUSH1 0x0 PUSH2 0x4171 DUP3 PUSH2 0x402A JUMP JUMPDEST PUSH2 0x417B DUP2 DUP6 PUSH2 0x3C3D JUMP JUMPDEST SWAP4 POP PUSH2 0x418B DUP2 DUP6 PUSH1 0x20 DUP7 ADD PUSH2 0x4035 JUMP JUMPDEST PUSH2 0x4194 DUP2 PUSH2 0x4155 JUMP JUMPDEST DUP5 ADD SWAP2 POP POP SWAP3 SWAP2 POP POP JUMP JUMPDEST PUSH32 0x68747470733A2F2F697066732E696F2F697066732F516D5155756D7138695963 PUSH1 0x0 DUP3 ADD MSTORE PUSH32 0x41395838756F61664D325955384C6579794D4B7A554E32484635464770364E70 PUSH1 0x20 DUP3 ADD MSTORE PUSH32 0x5845563F66696C656E616D653D47726F7570253230343538342E6A7067000000 PUSH1 0x40 DUP3 ADD MSTORE POP JUMP JUMPDEST PUSH1 0x0 PUSH2 0x4221 PUSH1 0x5D DUP4 PUSH2 0x3C3D JUMP JUMPDEST SWAP2 POP PUSH2 0x422C DUP3 PUSH2 0x419F JUMP JUMPDEST PUSH1 0x60 DUP3 ADD SWAP1 POP SWAP2 SWAP1 POP JUMP JUMPDEST PUSH1 0x0 PUSH1 0x60 DUP3 ADD SWAP1 POP DUP2 DUP2 SUB PUSH1 0x0 DUP4 ADD MSTORE PUSH2 0x4250 DUP2 PUSH2 0x4132 JUMP JUMPDEST SWAP1 POP DUP2 DUP2 SUB PUSH1 0x20 DUP4 ADD MSTORE PUSH2 0x4264 DUP2 DUP5 PUSH2 0x4166 JUMP JUMPDEST SWAP1 POP DUP2 DUP2 SUB PUSH1 0x40 DUP4 ADD MSTORE PUSH2 0x4277 DUP2 PUSH2 0x4214 JUMP JUMPDEST SWAP1 POP SWAP3 SWAP2 POP POP JUMP JUMPDEST PUSH32 0x4E487B7100000000000000000000000000000000000000000000000000000000 PUSH1 0x0 MSTORE PUSH1 0x32 PUSH1 0x4 MSTORE PUSH1 0x24 PUSH1 0x0 REVERT JUMPDEST PUSH1 0x0 PUSH2 0x42B9 DUP3 PUSH2 0x323A JUMP JUMPDEST SWAP2 POP PUSH2 0x42C4 DUP4 PUSH2 0x323A JUMP JUMPDEST SWAP3 POP DUP3 DUP3 SUB SWAP1 POP DUP2 DUP2 GT ISZERO PUSH2 0x42DC JUMPI PUSH2 0x42DB PUSH2 0x3F4A JUMP JUMPDEST JUMPDEST SWAP3 SWAP2 POP POP JUMP JUMPDEST PUSH1 0x0 PUSH2 0x42ED DUP3 PUSH2 0x323A JUMP JUMPDEST SWAP2 POP PUSH2 0x42F8 DUP4 PUSH2 0x323A JUMP JUMPDEST SWAP3 POP DUP3 DUP3 MUL PUSH2 0x4306 DUP2 PUSH2 0x323A JUMP JUMPDEST SWAP2 POP DUP3 DUP3 DIV DUP5 EQ DUP4 ISZERO OR PUSH2 0x431D JUMPI PUSH2 0x431C PUSH2 0x3F4A JUMP JUMPDEST JUMPDEST POP SWAP3 SWAP2 POP POP JUMP JUMPDEST PUSH32 0x4E487B7100000000000000000000000000000000000000000000000000000000 PUSH1 0x0 MSTORE PUSH1 0x12 PUSH1 0x4 MSTORE PUSH1 0x24 PUSH1 0x0 REVERT JUMPDEST PUSH1 0x0 PUSH2 0x435E DUP3 PUSH2 0x323A JUMP JUMPDEST SWAP2 POP PUSH2 0x4369 DUP4 PUSH2 0x323A JUMP JUMPDEST SWAP3 POP DUP3 PUSH2 0x4379 JUMPI PUSH2 0x4378 PUSH2 0x4324 JUMP JUMPDEST JUMPDEST DUP3 DUP3 DIV SWAP1 POP SWAP3 SWAP2 POP POP JUMP JUMPDEST PUSH32 0x5761726E203A20596F7520617265206E6F7420746865204E4654206F776E6572 PUSH1 0x0 DUP3 ADD MSTORE POP JUMP JUMPDEST PUSH1 0x0 PUSH2 0x43BA PUSH1 0x20 DUP4 PUSH2 0x3C3D JUMP JUMPDEST SWAP2 POP PUSH2 0x43C5 DUP3 PUSH2 0x4384 JUMP JUMPDEST PUSH1 0x20 DUP3 ADD SWAP1 POP SWAP2 SWAP1 POP JUMP JUMPDEST PUSH1 0x0 PUSH1 0x20 DUP3 ADD SWAP1 POP DUP2 DUP2 SUB PUSH1 0x0 DUP4 ADD MSTORE PUSH2 0x43E9 DUP2 PUSH2 0x43AD JUMP JUMPDEST SWAP1 POP SWAP2 SWAP1 POP JUMP JUMPDEST PUSH1 0x0 DUP2 MLOAD SWAP1 POP PUSH2 0x43FF DUP2 PUSH2 0x32D3 JUMP JUMPDEST SWAP3 SWAP2 POP POP JUMP JUMPDEST PUSH1 0x0 PUSH1 0x20 DUP3 DUP5 SUB SLT ISZERO PUSH2 0x441B JUMPI PUSH2 0x441A PUSH2 0x3297 JUMP JUMPDEST JUMPDEST PUSH1 0x0 PUSH2 0x4429 DUP5 DUP3 DUP6 ADD PUSH2 0x43F0 JUMP JUMPDEST SWAP2 POP POP SWAP3 SWAP2 POP POP JUMP JUMPDEST PUSH32 0x5761726E203A205472616E73666572206661696C656400000000000000000000 PUSH1 0x0 DUP3 ADD MSTORE POP JUMP JUMPDEST PUSH1 0x0 PUSH2 0x4468 PUSH1 0x16 DUP4 PUSH2 0x3C3D JUMP JUMPDEST SWAP2 POP PUSH2 0x4473 DUP3 PUSH2 0x4432 JUMP JUMPDEST PUSH1 0x20 DUP3 ADD SWAP1 POP SWAP2 SWAP1 POP JUMP JUMPDEST PUSH1 0x0 PUSH1 0x20 DUP3 ADD SWAP1 POP DUP2 DUP2 SUB PUSH1 0x0 DUP4 ADD MSTORE PUSH2 0x4497 DUP2 PUSH2 0x445B JUMP JUMPDEST SWAP1 POP SWAP2 SWAP1 POP JUMP JUMPDEST PUSH1 0x0 PUSH1 0x60 DUP3 ADD SWAP1 POP PUSH2 0x44B3 PUSH1 0x0 DUP4 ADD DUP7 PUSH2 0x3244 JUMP JUMPDEST PUSH2 0x44C0 PUSH1 0x20 DUP4 ADD DUP6 PUSH2 0x349B JUMP JUMPDEST PUSH2 0x44CD PUSH1 0x40 DUP4 ADD DUP5 PUSH2 0x3244 JUMP JUMPDEST SWAP5 SWAP4 POP POP POP POP JUMP JUMPDEST PUSH32 0x5761726E203A204C6F636B75702073686F7274656E206661696C656400000000 PUSH1 0x0 DUP3 ADD MSTORE POP JUMP JUMPDEST PUSH1 0x0 PUSH2 0x450B PUSH1 0x1C DUP4 PUSH2 0x3C3D JUMP JUMPDEST SWAP2 POP PUSH2 0x4516 DUP3 PUSH2 0x44D5 JUMP JUMPDEST PUSH1 0x20 DUP3 ADD SWAP1 POP SWAP2 SWAP1 POP JUMP JUMPDEST PUSH1 0x0 PUSH1 0x20 DUP3 ADD SWAP1 POP DUP2 DUP2 SUB PUSH1 0x0 DUP4 ADD MSTORE PUSH2 0x453A DUP2 PUSH2 0x44FE JUMP JUMPDEST SWAP1 POP SWAP2 SWAP1 POP JUMP JUMPDEST PUSH1 0x0 DUP2 MLOAD SWAP1 POP PUSH2 0x4550 DUP2 PUSH2 0x32FF JUMP JUMPDEST SWAP3 SWAP2 POP POP JUMP JUMPDEST PUSH1 0x0 PUSH1 0x20 DUP3 DUP5 SUB SLT ISZERO PUSH2 0x456C JUMPI PUSH2 0x456B PUSH2 0x3297 JUMP JUMPDEST JUMPDEST PUSH1 0x0 PUSH2 0x457A DUP5 DUP3 DUP6 ADD PUSH2 0x4541 JUMP JUMPDEST SWAP2 POP POP SWAP3 SWAP2 POP POP JUMP JUMPDEST PUSH32 0x5761726E203A20537472617465677920646F6573206E6F742065786973740000 PUSH1 0x0 DUP3 ADD MSTORE POP JUMP JUMPDEST PUSH1 0x0 PUSH2 0x45B9 PUSH1 0x1E DUP4 PUSH2 0x3C3D JUMP JUMPDEST SWAP2 POP PUSH2 0x45C4 DUP3 PUSH2 0x4583 JUMP JUMPDEST PUSH1 0x20 DUP3 ADD SWAP1 POP SWAP2 SWAP1 POP JUMP JUMPDEST PUSH1 0x0 PUSH1 0x20 DUP3 ADD SWAP1 POP DUP2 DUP2 SUB PUSH1 0x0 DUP4 ADD MSTORE PUSH2 0x45E8 DUP2 PUSH2 0x45AC JUMP JUMPDEST SWAP1 POP SWAP2 SWAP1 POP JUMP JUMPDEST PUSH1 0x0 PUSH1 0x60 DUP3 ADD SWAP1 POP PUSH2 0x4604 PUSH1 0x0 DUP4 ADD DUP7 PUSH2 0x349B JUMP JUMPDEST PUSH2 0x4611 PUSH1 0x20 DUP4 ADD DUP6 PUSH2 0x349B JUMP JUMPDEST PUSH2 0x461E PUSH1 0x40 DUP4 ADD DUP5 PUSH2 0x3244 JUMP JUMPDEST SWAP5 SWAP4 POP POP POP POP JUMP JUMPDEST PUSH32 0x4F776E61626C653A206E6577206F776E657220697320746865207A65726F2061 PUSH1 0x0 DUP3 ADD MSTORE PUSH32 0x6464726573730000000000000000000000000000000000000000000000000000 PUSH1 0x20 DUP3 ADD MSTORE POP JUMP JUMPDEST PUSH1 0x0 PUSH2 0x4682 PUSH1 0x26 DUP4 PUSH2 0x3C3D JUMP JUMPDEST SWAP2 POP PUSH2 0x468D DUP3 PUSH2 0x4626 JUMP JUMPDEST PUSH1 0x40 DUP3 ADD SWAP1 POP SWAP2 SWAP1 POP JUMP JUMPDEST PUSH1 0x0 PUSH1 0x20 DUP3 ADD SWAP1 POP DUP2 DUP2 SUB PUSH1 0x0 DUP4 ADD MSTORE PUSH2 0x46B1 DUP2 PUSH2 0x4675 JUMP JUMPDEST SWAP1 POP SWAP2 SWAP1 POP JUMP JUMPDEST PUSH32 0x5761726E203A20496E76616C696420626F742061646472657373000000000000 PUSH1 0x0 DUP3 ADD MSTORE POP JUMP JUMPDEST PUSH1 0x0 PUSH2 0x46EE PUSH1 0x1A DUP4 PUSH2 0x3C3D JUMP JUMPDEST SWAP2 POP PUSH2 0x46F9 DUP3 PUSH2 0x46B8 JUMP JUMPDEST PUSH1 0x20 DUP3 ADD SWAP1 POP SWAP2 SWAP1 POP JUMP JUMPDEST PUSH1 0x0 PUSH1 0x20 DUP3 ADD SWAP1 POP DUP2 DUP2 SUB PUSH1 0x0 DUP4 ADD MSTORE PUSH2 0x471D DUP2 PUSH2 0x46E1 JUMP JUMPDEST SWAP1 POP SWAP2 SWAP1 POP JUMP JUMPDEST PUSH1 0x0 PUSH2 0x472F DUP3 PUSH2 0x323A JUMP JUMPDEST SWAP2 POP PUSH32 0xFFFFFFFFFFFFFFFFFFFFFFFFFFFFFFFFFFFFFFFFFFFFFFFFFFFFFFFFFFFFFFFF DUP3 SUB PUSH2 0x4761 JUMPI PUSH2 0x4760 PUSH2 0x3F4A JUMP JUMPDEST JUMPDEST PUSH1 0x1 DUP3 ADD SWAP1 POP SWAP2 SWAP1 POP JUMP JUMPDEST PUSH32 0x5761726E203A20496E73756666696369656E742062616C616E636520696E2063 PUSH1 0x0 DUP3 ADD MSTORE PUSH32 0x6F6E747261637400000000000000000000000000000000000000000000000000 PUSH1 0x20 DUP3 ADD MSTORE POP JUMP JUMPDEST PUSH1 0x0 PUSH2 0x47C8 PUSH1 0x27 DUP4 PUSH2 0x3C3D JUMP JUMPDEST SWAP2 POP PUSH2 0x47D3 DUP3 PUSH2 0x476C JUMP JUMPDEST PUSH1 0x40 DUP3 ADD SWAP1 POP SWAP2 SWAP1 POP JUMP JUMPDEST PUSH1 0x0 PUSH1 0x20 DUP3 ADD SWAP1 POP DUP2 DUP2 SUB PUSH1 0x0 DUP4 ADD MSTORE PUSH2 0x47F7 DUP2 PUSH2 0x47BB JUMP JUMPDEST SWAP1 POP SWAP2 SWAP1 POP JUMP JUMPDEST PUSH32 0x4E487B7100000000000000000000000000000000000000000000000000000000 PUSH1 0x0 MSTORE PUSH1 0x41 PUSH1 0x4 MSTORE PUSH1 0x24 PUSH1 0x0 REVERT JUMPDEST PUSH32 0x5761726E203A205661756C7420757064617465206661696C6564000000000000 PUSH1 0x0 DUP3 ADD MSTORE POP JUMP JUMPDEST PUSH1 0x0 PUSH2 0x4863 PUSH1 0x1A DUP4 PUSH2 0x3C3D JUMP JUMPDEST SWAP2 POP PUSH2 0x486E DUP3 PUSH2 0x482D JUMP JUMPDEST PUSH1 0x20 DUP3 ADD SWAP1 POP SWAP2 SWAP1 POP JUMP JUMPDEST PUSH1 0x0 PUSH1 0x20 DUP3 ADD SWAP1 POP DUP2 DUP2 SUB PUSH1 0x0 DUP4 ADD MSTORE PUSH2 0x4892 DUP2 PUSH2 0x4856 JUMP JUMPDEST SWAP1 POP SWAP2 SWAP1 POP JUMP JUMPDEST PUSH32 0x4F776E61626C653A2063616C6C6572206973206E6F7420746865206F776E6572 PUSH1 0x0 DUP3 ADD MSTORE POP JUMP JUMPDEST PUSH1 0x0 PUSH2 0x48CF PUSH1 0x20 DUP4 PUSH2 0x3C3D JUMP JUMPDEST SWAP2 POP PUSH2 0x48DA DUP3 PUSH2 0x4899 JUMP JUMPDEST PUSH1 0x20 DUP3 ADD SWAP1 POP SWAP2 SWAP1 POP JUMP JUMPDEST PUSH1 0x0 PUSH1 0x20 DUP3 ADD SWAP1 POP DUP2 DUP2 SUB PUSH1 0x0 DUP4 ADD MSTORE PUSH2 0x48FE DUP2 PUSH2 0x48C2 JUMP JUMPDEST SWAP1 POP SWAP2 SWAP1 POP JUMP JUMPDEST PUSH32 0x4E487B7100000000000000000000000000000000000000000000000000000000 PUSH1 0x0 MSTORE PUSH1 0x31 PUSH1 0x4 MSTORE PUSH1 0x24 PUSH1 0x0 REVERT JUMPDEST PUSH1 0x0 PUSH1 0x40 DUP3 ADD SWAP1 POP PUSH2 0x4949 PUSH1 0x0 DUP4 ADD DUP6 PUSH2 0x349B JUMP JUMPDEST PUSH2 0x4956 PUSH1 0x20 DUP4 ADD DUP5 PUSH2 0x3587 JUMP JUMPDEST SWAP4 SWAP3 POP POP POP JUMP INVALID LOG2 PUSH5 0x6970667358 0x22 SLT KECCAK256 CALLDATALOAD 0xD8 0xE4 0xE4 XOR EXTCODECOPY 0xDF ADD PUSH8 0xB35D580A7C726EEB NOT 0x2F 0xDF SWAP5 0x24 0xEE 0x5F RETURN PUSH26 0xF214C491450864736F6C63430008120033000000000000000000 "
		},
		"gasEstimates": {
			"creation": {
				"codeDepositCost": "3767000",
				"executionCost": "infinite",
				"totalCost": "infinite"
			},
			"external": {
				"QVEliquidityPool()": "infinite",
				"burnInvestmentGuarantee(uint256)": "infinite",
				"doQVEStake(uint256)": "infinite",
				"getAmountHavetobePayed_(uint256)": "infinite",
				"getEthBalance(address)": "3391",
				"getEthMarginVault_()": "infinite",
				"getIndividualProfit(address,uint256,uint256)": "infinite",
				"getInputedMarginCount()": "2531",
				"getNFTbalance_()": "infinite",
				"getNfts_()": "infinite",
				"getQVELiquidityAmount_()": "2534",
				"getStrategyProfitPercentage(uint256)": "infinite",
				"getTokenOwner_(uint256)": "2911",
				"getmarginForNFT_(uint256)": "infinite",
				"getstrategyAddress(uint256)": "2982",
				"individualInvestments(address,uint256)": "infinite",
				"onERC721Received(address,address,uint256,bytes)": "infinite",
				"owner()": "2639",
				"qveStaking()": "infinite",
				"qveSwap()": "infinite",
				"qvenft()": "infinite",
				"qvetoken()": "infinite",
				"receiveAsset(bool,uint256,uint256)": "infinite",
				"receiveFromAPI(uint256)": "infinite",
				"renounceOwnership()": "30616",
				"sendFromBotToContract(uint256,uint256)": "infinite",
				"sendIntoContract(uint256,address)": "infinite",
				"setStrategy(uint256,address)": "37604",
				"shortenLockup(uint256,uint256)": "infinite",
				"strategies(uint256)": "infinite",
				"swapETHtoQVE_(uint256)": "infinite",
				"swapQVEtoETH_(uint256)": "infinite",
				"tokenIdToStrategyId(uint256)": "infinite",
				"totalInvestedAmount(uint256)": "infinite",
				"transferOwnership(address)": "31004",
				"updateStrategyBalance(uint256,uint256)": "infinite"
			},
			"internal": {
				"_addLiquidity(uint256)": "infinite",
				"_addUserMarginVault(address,uint256,uint256)": "infinite",
				"_botAddress()": "infinite",
				"_issueGuaranteeNFT(address,uint256,bool)": "infinite",
				"_removeIndividualInvestmentRecord(address,uint256)": "infinite",
				"_removeMarginData(uint256,address)": "infinite",
				"_sendQVEFromLiquidity(address,uint256)": "infinite",
				"_subLiquidity(uint256)": "infinite",
				"_updateInvestmentInfo(address)": "infinite",
				"investmentEth(uint256,bool,uint256)": "infinite",
				"sendContractToInvestor(uint256)": "infinite",
				"sendToBotAddress_(uint256,uint256)": "infinite"
			}
		},
		"methodIdentifiers": {
			"QVEliquidityPool()": "0e301d24",
			"burnInvestmentGuarantee(uint256)": "7a378e05",
			"doQVEStake(uint256)": "56289c29",
			"getAmountHavetobePayed_(uint256)": "617ef850",
			"getEthBalance(address)": "4d2301cc",
			"getEthMarginVault_()": "ef071bcd",
			"getIndividualProfit(address,uint256,uint256)": "6d95381e",
			"getInputedMarginCount()": "8866b937",
			"getNFTbalance_()": "9f62e796",
			"getNfts_()": "5ac66993",
			"getQVELiquidityAmount_()": "1552e770",
			"getStrategyProfitPercentage(uint256)": "b6ae980e",
			"getTokenOwner_(uint256)": "1f6ce039",
			"getmarginForNFT_(uint256)": "1eb5c7ae",
			"getstrategyAddress(uint256)": "a51de246",
			"individualInvestments(address,uint256)": "5948be3b",
			"onERC721Received(address,address,uint256,bytes)": "150b7a02",
			"owner()": "8da5cb5b",
			"qveStaking()": "2adcbebd",
			"qveSwap()": "69394135",
			"qvenft()": "510b7f98",
			"qvetoken()": "2b1c4158",
			"receiveAsset(bool,uint256,uint256)": "6c7b77fc",
			"receiveFromAPI(uint256)": "3ee5191d",
			"renounceOwnership()": "715018a6",
			"sendFromBotToContract(uint256,uint256)": "50cea766",
			"sendIntoContract(uint256,address)": "ef896965",
			"setStrategy(uint256,address)": "faac4325",
			"shortenLockup(uint256,uint256)": "83ce6147",
			"strategies(uint256)": "d574ea3d",
			"swapETHtoQVE_(uint256)": "4ede9666",
			"swapQVEtoETH_(uint256)": "bc338ae9",
			"tokenIdToStrategyId(uint256)": "dbe30d45",
			"totalInvestedAmount(uint256)": "c37601d6",
			"transferOwnership(address)": "f2fde38b",
			"updateStrategyBalance(uint256,uint256)": "d68fbd66"
		}
	},
	"abi": [
		{
			"inputs": [
				{
					"internalType": "contract QVEtoken",
					"name": "_qveTokenAddress",
					"type": "address"
				},
				{
					"internalType": "contract QVEnft",
					"name": "_qvenft",
					"type": "address"
				},
				{
					"internalType": "contract QVEstaking",
					"name": "_qveStaking",
					"type": "address"
				},
				{
					"internalType": "contract QVEswap",
					"name": "_qveSwap",
					"type": "address"
				}
			],
			"stateMutability": "nonpayable",
			"type": "constructor"
		},
		{
			"anonymous": false,
			"inputs": [
				{
					"indexed": true,
					"internalType": "address",
					"name": "sender",
					"type": "address"
				},
				{
					"indexed": false,
					"internalType": "uint256",
					"name": "tokenId",
					"type": "uint256"
				}
			],
			"name": "NFTDeposited",
			"type": "event"
		},
		{
			"anonymous": false,
			"inputs": [
				{
					"indexed": true,
					"internalType": "address",
					"name": "receiver",
					"type": "address"
				},
				{
					"indexed": false,
					"internalType": "uint256",
					"name": "tokenId",
					"type": "uint256"
				}
			],
			"name": "NFTWithdrawn",
			"type": "event"
		},
		{
			"anonymous": false,
			"inputs": [
				{
					"indexed": true,
					"internalType": "address",
					"name": "previousOwner",
					"type": "address"
				},
				{
					"indexed": true,
					"internalType": "address",
					"name": "newOwner",
					"type": "address"
				}
			],
			"name": "OwnershipTransferred",
			"type": "event"
		},
		{
			"anonymous": false,
			"inputs": [
				{
					"indexed": true,
					"internalType": "address",
					"name": "sender",
					"type": "address"
				},
				{
					"indexed": false,
					"internalType": "uint256",
					"name": "amount",
					"type": "uint256"
				}
			],
			"name": "Received",
			"type": "event"
		},
		{
			"inputs": [],
			"name": "QVEliquidityPool",
			"outputs": [
				{
					"internalType": "uint256",
					"name": "balance",
					"type": "uint256"
				},
				{
					"internalType": "uint256",
					"name": "at",
					"type": "uint256"
				}
			],
			"stateMutability": "view",
			"type": "function"
		},
		{
			"inputs": [
				{
					"internalType": "uint256",
					"name": "tokenId",
					"type": "uint256"
				}
			],
			"name": "burnInvestmentGuarantee",
			"outputs": [
				{
					"internalType": "bool",
					"name": "",
					"type": "bool"
				}
			],
			"stateMutability": "nonpayable",
			"type": "function"
		},
		{
			"inputs": [
				{
					"internalType": "uint256",
					"name": "qveStakeAmount",
					"type": "uint256"
				}
			],
			"name": "doQVEStake",
			"outputs": [
				{
					"internalType": "bool",
					"name": "",
					"type": "bool"
				}
			],
			"stateMutability": "nonpayable",
			"type": "function"
		},
		{
			"inputs": [
				{
					"internalType": "uint256",
					"name": "tokenId",
					"type": "uint256"
				}
			],
			"name": "getAmountHavetobePayed_",
			"outputs": [
				{
					"internalType": "address",
					"name": "investor",
					"type": "address"
				},
				{
					"internalType": "uint256",
					"name": "investedAmount",
					"type": "uint256"
				},
				{
					"internalType": "uint256",
					"name": "profit",
					"type": "uint256"
				},
				{
					"internalType": "uint256",
					"name": "strategyId",
					"type": "uint256"
				}
			],
			"stateMutability": "view",
			"type": "function"
		},
		{
			"inputs": [
				{
					"internalType": "address",
					"name": "_address",
					"type": "address"
				}
			],
			"name": "getEthBalance",
			"outputs": [
				{
					"internalType": "uint256",
					"name": "",
					"type": "uint256"
				}
			],
			"stateMutability": "view",
			"type": "function"
		},
		{
			"inputs": [],
			"name": "getEthMarginVault_",
			"outputs": [
				{
					"components": [
						{
							"components": [
								{
									"internalType": "uint256",
									"name": "marginAmount",
									"type": "uint256"
								},
								{
									"internalType": "uint256",
									"name": "at",
									"type": "uint256"
								},
								{
									"internalType": "uint256",
									"name": "tokenId",
									"type": "uint256"
								}
							],
							"internalType": "struct QVEcore.marginDetail[]",
							"name": "marginDetails",
							"type": "tuple[]"
						},
						{
							"internalType": "uint256[]",
							"name": "holdNFT",
							"type": "uint256[]"
						}
					],
					"internalType": "struct QVEcore.userMarginData",
					"name": "",
					"type": "tuple"
				}
			],
			"stateMutability": "view",
			"type": "function"
		},
		{
			"inputs": [
				{
					"internalType": "address",
					"name": "investor",
					"type": "address"
				},
				{
					"internalType": "uint256",
					"name": "investmentIndex",
					"type": "uint256"
				},
				{
					"internalType": "uint256",
					"name": "strategyId",
					"type": "uint256"
				}
			],
			"name": "getIndividualProfit",
			"outputs": [
				{
					"internalType": "uint256",
					"name": "",
					"type": "uint256"
				}
			],
			"stateMutability": "view",
			"type": "function"
		},
		{
			"inputs": [],
			"name": "getInputedMarginCount",
			"outputs": [
				{
					"internalType": "uint256",
					"name": "",
					"type": "uint256"
				}
			],
			"stateMutability": "view",
			"type": "function"
		},
		{
			"inputs": [],
			"name": "getNFTbalance_",
			"outputs": [
				{
					"internalType": "uint256",
					"name": "",
					"type": "uint256"
				}
			],
			"stateMutability": "view",
			"type": "function"
		},
		{
			"inputs": [],
			"name": "getNfts_",
			"outputs": [
				{
					"components": [
						{
							"internalType": "uint256",
							"name": "tokenId",
							"type": "uint256"
						},
						{
							"internalType": "uint256",
							"name": "at",
							"type": "uint256"
						}
					],
					"internalType": "struct QVEcore.NFTFragment[]",
					"name": "",
					"type": "tuple[]"
				}
			],
			"stateMutability": "view",
			"type": "function"
		},
		{
			"inputs": [],
			"name": "getQVELiquidityAmount_",
			"outputs": [
				{
					"internalType": "uint256",
					"name": "",
					"type": "uint256"
				}
			],
			"stateMutability": "view",
			"type": "function"
		},
		{
			"inputs": [
				{
					"internalType": "uint256",
					"name": "strategyId",
					"type": "uint256"
				}
			],
			"name": "getStrategyProfitPercentage",
			"outputs": [
				{
					"internalType": "uint256",
					"name": "",
					"type": "uint256"
				}
			],
			"stateMutability": "view",
			"type": "function"
		},
		{
			"inputs": [
				{
					"internalType": "uint256",
					"name": "tokenId",
					"type": "uint256"
				}
			],
			"name": "getTokenOwner_",
			"outputs": [
				{
					"internalType": "address",
					"name": "",
					"type": "address"
				}
			],
			"stateMutability": "view",
			"type": "function"
		},
		{
			"inputs": [
				{
					"internalType": "uint256",
					"name": "tokenId",
					"type": "uint256"
				}
			],
			"name": "getmarginForNFT_",
			"outputs": [
				{
					"internalType": "uint256",
					"name": "",
					"type": "uint256"
				}
			],
			"stateMutability": "view",
			"type": "function"
		},
		{
			"inputs": [
				{
					"internalType": "uint256",
					"name": "strategy",
					"type": "uint256"
				}
			],
			"name": "getstrategyAddress",
			"outputs": [
				{
					"internalType": "address",
					"name": "",
					"type": "address"
				}
			],
			"stateMutability": "view",
			"type": "function"
		},
		{
			"inputs": [
				{
					"internalType": "address",
					"name": "",
					"type": "address"
				},
				{
					"internalType": "uint256",
					"name": "",
					"type": "uint256"
				}
			],
			"name": "individualInvestments",
			"outputs": [
				{
					"internalType": "uint256",
					"name": "investedAmount",
					"type": "uint256"
				},
				{
					"internalType": "uint256",
					"name": "strategyInitialBalance",
					"type": "uint256"
				},
				{
					"internalType": "uint256",
					"name": "at",
					"type": "uint256"
				}
			],
			"stateMutability": "view",
			"type": "function"
		},
		{
			"inputs": [
				{
					"internalType": "address",
					"name": "",
					"type": "address"
				},
				{
					"internalType": "address",
					"name": "nftOwner",
					"type": "address"
				},
				{
					"internalType": "uint256",
					"name": "tokenId",
					"type": "uint256"
				},
				{
					"internalType": "bytes",
					"name": "",
					"type": "bytes"
				}
			],
			"name": "onERC721Received",
			"outputs": [
				{
					"internalType": "bytes4",
					"name": "",
					"type": "bytes4"
				}
			],
			"stateMutability": "nonpayable",
			"type": "function"
		},
		{
			"inputs": [],
			"name": "owner",
			"outputs": [
				{
					"internalType": "address",
					"name": "",
					"type": "address"
				}
			],
			"stateMutability": "view",
			"type": "function"
		},
		{
			"inputs": [],
			"name": "qveStaking",
			"outputs": [
				{
					"internalType": "contract QVEstaking",
					"name": "",
					"type": "address"
				}
			],
			"stateMutability": "view",
			"type": "function"
		},
		{
			"inputs": [],
			"name": "qveSwap",
			"outputs": [
				{
					"internalType": "contract QVEswap",
					"name": "",
					"type": "address"
				}
			],
			"stateMutability": "view",
			"type": "function"
		},
		{
			"inputs": [],
			"name": "qvenft",
			"outputs": [
				{
					"internalType": "contract QVEnft",
					"name": "",
					"type": "address"
				}
			],
			"stateMutability": "view",
			"type": "function"
		},
		{
			"inputs": [],
			"name": "qvetoken",
			"outputs": [
				{
					"internalType": "contract QVEtoken",
					"name": "",
					"type": "address"
				}
			],
			"stateMutability": "view",
			"type": "function"
		},
		{
			"inputs": [
				{
					"internalType": "bool",
					"name": "lockup",
					"type": "bool"
				},
				{
					"internalType": "uint256",
					"name": "sendAmount",
					"type": "uint256"
				},
				{
					"internalType": "uint256",
					"name": "strategyId",
					"type": "uint256"
				}
			],
			"name": "receiveAsset",
			"outputs": [
				{
					"internalType": "bool",
					"name": "",
					"type": "bool"
				}
			],
			"stateMutability": "payable",
			"type": "function"
		},
		{
			"inputs": [
				{
					"internalType": "uint256",
					"name": "strategyId",
					"type": "uint256"
				}
			],
			"name": "receiveFromAPI",
			"outputs": [
				{
					"internalType": "bool",
					"name": "",
					"type": "bool"
				}
			],
			"stateMutability": "payable",
			"type": "function"
		},
		{
			"inputs": [],
			"name": "renounceOwnership",
			"outputs": [],
			"stateMutability": "nonpayable",
			"type": "function"
		},
		{
			"inputs": [
				{
					"internalType": "uint256",
					"name": "sendAmount",
					"type": "uint256"
				},
				{
					"internalType": "uint256",
					"name": "strategyId",
					"type": "uint256"
				}
			],
			"name": "sendFromBotToContract",
			"outputs": [
				{
					"internalType": "bool",
					"name": "",
					"type": "bool"
				}
			],
			"stateMutability": "payable",
			"type": "function"
		},
		{
			"inputs": [
				{
					"internalType": "uint256",
					"name": "tokenId",
					"type": "uint256"
				},
				{
					"internalType": "address",
					"name": "from",
					"type": "address"
				}
			],
			"name": "sendIntoContract",
			"outputs": [
				{
					"internalType": "bool",
					"name": "",
					"type": "bool"
				}
			],
			"stateMutability": "nonpayable",
			"type": "function"
		},
		{
			"inputs": [
				{
					"internalType": "uint256",
					"name": "strategyId",
					"type": "uint256"
				},
				{
					"internalType": "address payable",
					"name": "botAddress",
					"type": "address"
				}
			],
			"name": "setStrategy",
			"outputs": [],
			"stateMutability": "nonpayable",
			"type": "function"
		},
		{
			"inputs": [
				{
					"internalType": "uint256",
					"name": "qveAmount",
					"type": "uint256"
				},
				{
					"internalType": "uint256",
					"name": "tokenId",
					"type": "uint256"
				}
			],
			"name": "shortenLockup",
			"outputs": [
				{
					"internalType": "bool",
					"name": "",
					"type": "bool"
				}
			],
			"stateMutability": "nonpayable",
			"type": "function"
		},
		{
			"inputs": [
				{
					"internalType": "uint256",
					"name": "",
					"type": "uint256"
				}
			],
			"name": "strategies",
			"outputs": [
				{
					"internalType": "address payable",
					"name": "botAddress",
					"type": "address"
				},
				{
					"internalType": "uint256",
					"name": "initialBalance",
					"type": "uint256"
				},
				{
					"internalType": "uint256",
					"name": "currentBalance",
					"type": "uint256"
				}
			],
			"stateMutability": "view",
			"type": "function"
		},
		{
			"inputs": [
				{
					"internalType": "uint256",
					"name": "tokenAmount",
					"type": "uint256"
				}
			],
			"name": "swapETHtoQVE_",
			"outputs": [
				{
					"internalType": "bool",
					"name": "",
					"type": "bool"
				}
			],
			"stateMutability": "payable",
			"type": "function"
		},
		{
			"inputs": [
				{
					"internalType": "uint256",
					"name": "tokenAmount",
					"type": "uint256"
				}
			],
			"name": "swapQVEtoETH_",
			"outputs": [
				{
					"internalType": "bool",
					"name": "",
					"type": "bool"
				}
			],
			"stateMutability": "nonpayable",
			"type": "function"
		},
		{
			"inputs": [
				{
					"internalType": "uint256",
					"name": "",
					"type": "uint256"
				}
			],
			"name": "tokenIdToStrategyId",
			"outputs": [
				{
					"internalType": "uint256",
					"name": "",
					"type": "uint256"
				}
			],
			"stateMutability": "view",
			"type": "function"
		},
		{
			"inputs": [
				{
					"internalType": "uint256",
					"name": "",
					"type": "uint256"
				}
			],
			"name": "totalInvestedAmount",
			"outputs": [
				{
					"internalType": "uint256",
					"name": "",
					"type": "uint256"
				}
			],
			"stateMutability": "view",
			"type": "function"
		},
		{
			"inputs": [
				{
					"internalType": "address",
					"name": "newOwner",
					"type": "address"
				}
			],
			"name": "transferOwnership",
			"outputs": [],
			"stateMutability": "nonpayable",
			"type": "function"
		},
		{
			"inputs": [
				{
					"internalType": "uint256",
					"name": "strategyId",
					"type": "uint256"
				},
				{
					"internalType": "uint256",
					"name": "newBalance",
					"type": "uint256"
				}
			],
			"name": "updateStrategyBalance",
			"outputs": [],
			"stateMutability": "nonpayable",
			"type": "function"
		},
		{
			"stateMutability": "payable",
			"type": "receive"
		}
	]
}