{
	"data": {
		"bytecode": {
			"linkReferences": {},
			"object": "60806040523480156200001157600080fd5b50604051620042d6380380620042d683398181016040528101906200003791906200037f565b620000576200004b6200016560201b60201c565b6200016d60201b60201c565b83600260006101000a81548173ffffffffffffffffffffffffffffffffffffffff021916908373ffffffffffffffffffffffffffffffffffffffff16021790555082600360006101000a81548173ffffffffffffffffffffffffffffffffffffffff021916908373ffffffffffffffffffffffffffffffffffffffff16021790555081600460006101000a81548173ffffffffffffffffffffffffffffffffffffffff021916908373ffffffffffffffffffffffffffffffffffffffff16021790555080600560006101000a81548173ffffffffffffffffffffffffffffffffffffffff021916908373ffffffffffffffffffffffffffffffffffffffff16021790555050505050620003f1565b600033905090565b60008060019054906101000a900473ffffffffffffffffffffffffffffffffffffffff16905081600060016101000a81548173ffffffffffffffffffffffffffffffffffffffff021916908373ffffffffffffffffffffffffffffffffffffffff1602179055508173ffffffffffffffffffffffffffffffffffffffff168173ffffffffffffffffffffffffffffffffffffffff167f8be0079c531659141344cd1fd0a4f28419497f9722a3daafe3b4186f6b6457e060405160405180910390a35050565b600080fd5b600073ffffffffffffffffffffffffffffffffffffffff82169050919050565b6000620002648262000237565b9050919050565b6000620002788262000257565b9050919050565b6200028a816200026b565b81146200029657600080fd5b50565b600081519050620002aa816200027f565b92915050565b6000620002bd8262000257565b9050919050565b620002cf81620002b0565b8114620002db57600080fd5b50565b600081519050620002ef81620002c4565b92915050565b6000620003028262000257565b9050919050565b6200031481620002f5565b81146200032057600080fd5b50565b600081519050620003348162000309565b92915050565b6000620003478262000257565b9050919050565b62000359816200033a565b81146200036557600080fd5b50565b60008151905062000379816200034e565b92915050565b600080600080608085870312156200039c576200039b62000232565b5b6000620003ac8782880162000299565b9450506020620003bf87828801620002de565b9350506040620003d28782880162000323565b9250506060620003e58782880162000368565b91505092959194509250565b613ed580620004016000396000f3fe6080604052600436106101bb5760003560e01c806369394135116100ec5780639f62e7961161008a578063d08b8d6a11610064578063d08b8d6a14610696578063d167b6d8146106d3578063ef071bcd14610703578063f2fde38b1461072e57610210565b80639f62e79614610612578063bc338ae91461063d578063bde2ddf21461067a57610210565b806380720481116100c6578063807204811461054257806383ce61471461057f5780638866b937146105bc5780638da5cb5b146105e757610210565b806369394135146104c3578063715018a6146104ee5780637a378e051461050557610210565b80632f3f173011610159578063510b7f9811610133578063510b7f981461040557806356289c29146104305780635ac669931461046d57806368a820ea1461049857610210565b80632f3f1730146103685780634d2301cc146103985780634ede9666146103d557610210565b80631552e770116101955780631552e770146102aa5780631eb5c7ae146102d55780632adcbebd146103125780632b1c41581461033d57610210565b80630691badf146102155780630e301d2414610241578063150b7a021461026d57610210565b36610210573373ffffffffffffffffffffffffffffffffffffffff167f88a5966d370b9919b20f3e2c13ff65706f196a4e32cc2c12bf57088f88525874346040516102069190612b54565b60405180910390a2005b600080fd5b34801561022157600080fd5b5061022a610757565b604051610238929190612b6f565b60405180910390f35b34801561024d57600080fd5b50610256610769565b604051610264929190612b6f565b60405180910390f35b34801561027957600080fd5b50610294600480360381019061028f9190612c91565b61077b565b6040516102a19190612d54565b60405180910390f35b3480156102b657600080fd5b506102bf610848565b6040516102cc9190612b54565b60405180910390f35b3480156102e157600080fd5b506102fc60048036038101906102f79190612d6f565b610855565b6040516103099190612b54565b60405180910390f35b34801561031e57600080fd5b50610327610872565b6040516103349190612dfb565b60405180910390f35b34801561034957600080fd5b50610352610898565b60405161035f9190612e37565b60405180910390f35b610382600480360381019061037d9190612e8a565b6108be565b60405161038f9190612ed9565b60405180910390f35b3480156103a457600080fd5b506103bf60048036038101906103ba9190612ef4565b6109ff565b6040516103cc9190612b54565b60405180910390f35b6103ef60048036038101906103ea9190612d6f565b610a20565b6040516103fc9190612ed9565b60405180910390f35b34801561041157600080fd5b5061041a610abb565b6040516104279190612f42565b60405180910390f35b34801561043c57600080fd5b5061045760048036038101906104529190612d6f565b610ae1565b6040516104649190612ed9565b60405180910390f35b34801561047957600080fd5b50610482610c4e565b60405161048f919061304a565b60405180910390f35b3480156104a457600080fd5b506104ad610d01565b6040516104ba9190612b54565b60405180910390f35b3480156104cf57600080fd5b506104d8610da4565b6040516104e5919061308d565b60405180910390f35b3480156104fa57600080fd5b50610503610dca565b005b34801561051157600080fd5b5061052c60048036038101906105279190612d6f565b610dde565b6040516105399190612ed9565b60405180910390f35b34801561054e57600080fd5b5061056960048036038101906105649190612d6f565b6111f3565b6040516105769190612ed9565b60405180910390f35b34801561058b57600080fd5b506105a660048036038101906105a191906130a8565b6115cc565b6040516105b39190612ed9565b60405180910390f35b3480156105c857600080fd5b506105d16116fc565b6040516105de9190612b54565b60405180910390f35b3480156105f357600080fd5b506105fc61170d565b60405161060991906130f7565b60405180910390f35b34801561061e57600080fd5b50610627611736565b6040516106349190612b54565b60405180910390f35b34801561064957600080fd5b50610664600480360381019061065f9190612d6f565b6117d9565b6040516106719190612ed9565b60405180910390f35b610694600480360381019061068f9190613150565b611873565b005b3480156106a257600080fd5b506106bd60048036038101906106b8919061317d565b611900565b6040516106ca9190612ed9565b60405180910390f35b6106ed60048036038101906106e891906131bd565b611a66565b6040516106fa9190612ed9565b60405180910390f35b34801561070f57600080fd5b50610718611b6a565b60405161072591906133e1565b60405180910390f35b34801561073a57600080fd5b5061075560048036038101906107509190612ef4565b611c96565b005b600c8060000154908060010154905082565b600a8060000154908060010154905082565b600061078684610855565b6009600086815260200190815260200160002060008773ffffffffffffffffffffffffffffffffffffffff1673ffffffffffffffffffffffffffffffffffffffff16815260200190815260200160002060000181905550426009600086815260200190815260200160002060008773ffffffffffffffffffffffffffffffffffffffff1673ffffffffffffffffffffffffffffffffffffffff1681526020019081526020016000206001018190555063150b7a0260e01b905095945050505050565b6000600a60000154905090565b600060076000838152602001908152602001600020549050919050565b600460009054906101000a900473ffffffffffffffffffffffffffffffffffffffff1681565b600260009054906101000a900473ffffffffffffffffffffffffffffffffffffffff1681565b6000813414604051806060016040528060398152602001613e67603991399061091d576040517f08c379a00000000000000000000000000000000000000000000000000000000081526004016109149190613493565b60405180910390fd5b50600061092934611d19565b60405160200161093991906135af565b6040516020818303038152906040529050600360009054906101000a900473ffffffffffffffffffffffffffffffffffffffff1673ffffffffffffffffffffffffffffffffffffffff16630890d80c826040518263ffffffff1660e01b81526004016109a591906136c0565b6020604051808303816000875af11580156109c4573d6000803e3d6000fd5b505050506040513d601f19601f820116820180604052508101906109e8919061371d565b506109f33485611de7565b50600191505092915050565b60008173ffffffffffffffffffffffffffffffffffffffff16319050919050565b6000600560009054906101000a900473ffffffffffffffffffffffffffffffffffffffff1673ffffffffffffffffffffffffffffffffffffffff1663c663a1073484336040518463ffffffff1660e01b8152600401610a8092919061374a565b6000604051808303818588803b158015610a9957600080fd5b505af1158015610aad573d6000803e3d6000fd5b505050505060019050919050565b600360009054906101000a900473ffffffffffffffffffffffffffffffffffffffff1681565b60008060009054906101000a900460ff1615610b32576040517f08c379a0000000000000000000000000000000000000000000000000000000008152600401610b29906137bf565b60405180910390fd5b60016000806101000a81548160ff021916908315150217905550600460009054906101000a900473ffffffffffffffffffffffffffffffffffffffff1673ffffffffffffffffffffffffffffffffffffffff1663adc9772e33846040518363ffffffff1660e01b8152600401610ba99291906137df565b6020604051808303816000875af1158015610bc8573d6000803e3d6000fd5b505050506040513d601f19601f82011682018060405250810190610bec919061371d565b610c2b576040517f08c379a0000000000000000000000000000000000000000000000000000000008152600401610c2290613854565b60405180910390fd5b6001905060008060006101000a81548160ff021916908315150217905550919050565b6060600660003373ffffffffffffffffffffffffffffffffffffffff1673ffffffffffffffffffffffffffffffffffffffff168152602001908152602001600020600001805480602002602001604051908101604052809291908181526020016000905b82821015610cf857838290600052602060002090600202016040518060400160405290816000820154815260200160018201548152505081526020019060010190610cb2565b50505050905090565b6000600260009054906101000a900473ffffffffffffffffffffffffffffffffffffffff1673ffffffffffffffffffffffffffffffffffffffff166370a08231336040518263ffffffff1660e01b8152600401610d5e91906130f7565b602060405180830381865afa158015610d7b573d6000803e3d6000fd5b505050506040513d601f19601f82011682018060405250810190610d9f9190613889565b905090565b600560009054906101000a900473ffffffffffffffffffffffffffffffffffffffff1681565b610dd2611e8f565b610ddc6000611f0d565b565b60003373ffffffffffffffffffffffffffffffffffffffff166008600084815260200190815260200160002060009054906101000a900473ffffffffffffffffffffffffffffffffffffffff1673ffffffffffffffffffffffffffffffffffffffff16146040518060400160405280601f81526020017f5761726e696e67203a20596f7520617265206e6f74204e4654206f776e65720081525090610eb9576040517f08c379a0000000000000000000000000000000000000000000000000000000008152600401610eb09190613493565b60405180910390fd5b503373ffffffffffffffffffffffffffffffffffffffff16600360009054906101000a900473ffffffffffffffffffffffffffffffffffffffff1673ffffffffffffffffffffffffffffffffffffffff16636352211e846040518263ffffffff1660e01b8152600401610f2c9190612b54565b602060405180830381865afa158015610f49573d6000803e3d6000fd5b505050506040513d601f19601f82011682018060405250810190610f6d91906138cb565b73ffffffffffffffffffffffffffffffffffffffff16146040518060400160405280601f81526020017f5761726e696e67203a20596f7520617265206e6f74204e4654206f776e65720081525090610ffb576040517f08c379a0000000000000000000000000000000000000000000000000000000008152600401610ff29190613493565b60405180910390fd5b50600360009054906101000a900473ffffffffffffffffffffffffffffffffffffffff1673ffffffffffffffffffffffffffffffffffffffff16632890e0d7836040518263ffffffff1660e01b81526004016110579190612b54565b6020604051808303816000875af1158015611076573d6000803e3d6000fd5b505050506040513d601f19601f8201168201806040525081019061109a919061371d565b50600260009054906101000a900473ffffffffffffffffffffffffffffffffffffffff1673ffffffffffffffffffffffffffffffffffffffff16635f367b0333611108670de0b6b3a76400006007600088815260200190815260200160002054611fd290919063ffffffff16565b6040518363ffffffff1660e01b81526004016111259291906137df565b6020604051808303816000875af1158015611144573d6000803e3d6000fd5b505050506040513d601f19601f82011682018060405250810190611168919061371d565b6040518060400160405280601981526020017f5761726e696e67203a205472616e73666572206661696c656400000000000000815250906111df576040517f08c379a00000000000000000000000000000000000000000000000000000000081526004016111d69190613493565b60405180910390fd5b506111ea8233611fe8565b60019050919050565b6000611299600360009054906101000a900473ffffffffffffffffffffffffffffffffffffffff1673ffffffffffffffffffffffffffffffffffffffff1663081812fc846040518263ffffffff1660e01b81526004016112539190612b54565b602060405180830381865afa158015611270573d6000803e3d6000fd5b505050506040513d601f19601f8201168201806040525081019061129491906138cb565b612556565b3373ffffffffffffffffffffffffffffffffffffffff16600360009054906101000a900473ffffffffffffffffffffffffffffffffffffffff1673ffffffffffffffffffffffffffffffffffffffff16636352211e846040518263ffffffff1660e01b815260040161130b9190612b54565b602060405180830381865afa158015611328573d6000803e3d6000fd5b505050506040513d601f19601f8201168201806040525081019061134c91906138cb565b73ffffffffffffffffffffffffffffffffffffffff16146040518060400160405280601f81526020017f5761726e696e67203a20596f7520617265206e6f74204e4654206f776e657200815250906113da576040517f08c379a00000000000000000000000000000000000000000000000000000000081526004016113d19190613493565b60405180910390fd5b503073ffffffffffffffffffffffffffffffffffffffff16600360009054906101000a900473ffffffffffffffffffffffffffffffffffffffff1673ffffffffffffffffffffffffffffffffffffffff1663081812fc846040518263ffffffff1660e01b815260040161144d9190612b54565b602060405180830381865afa15801561146a573d6000803e3d6000fd5b505050506040513d601f19601f8201168201806040525081019061148e91906138cb565b73ffffffffffffffffffffffffffffffffffffffff16146114e4576040517f08c379a00000000000000000000000000000000000000000000000000000000081526004016114db9061396a565b60405180910390fd5b600360009054906101000a900473ffffffffffffffffffffffffffffffffffffffff1673ffffffffffffffffffffffffffffffffffffffff166342842e0e3330856040518463ffffffff1660e01b81526004016115439392919061398a565b600060405180830381600087803b15801561155d57600080fd5b505af1158015611571573d6000803e3d6000fd5b505050503373ffffffffffffffffffffffffffffffffffffffff167f1c4b8380f61aea3d5d98cbadaf2e6b2e4f3d8ca8c0fce1290b26ac267158745f836040516115bb9190612b54565b60405180910390a260019050919050565b6000600360009054906101000a900473ffffffffffffffffffffffffffffffffffffffff1673ffffffffffffffffffffffffffffffffffffffff1663b2c3a7178430856040518463ffffffff1660e01b815260040161162d939291906139c1565b6020604051808303816000875af115801561164c573d6000803e3d6000fd5b505050506040513d601f19601f82011682018060405250810190611670919061371d565b6040518060400160405280601881526020017f5761726e696e67203a204c6f636b75702053686f7274656e0000000000000000815250906116e7576040517f08c379a00000000000000000000000000000000000000000000000000000000081526004016116de9190613493565b60405180910390fd5b506116f1836125ef565b506001905092915050565b60006117086001612620565b905090565b60008060019054906101000a900473ffffffffffffffffffffffffffffffffffffffff16905090565b6000600360009054906101000a900473ffffffffffffffffffffffffffffffffffffffff1673ffffffffffffffffffffffffffffffffffffffff166370a08231336040518263ffffffff1660e01b815260040161179391906130f7565b602060405180830381865afa1580156117b0573d6000803e3d6000fd5b505050506040513d601f19601f820116820180604052508101906117d49190613889565b905090565b6000600560009054906101000a900473ffffffffffffffffffffffffffffffffffffffff1673ffffffffffffffffffffffffffffffffffffffff16636527b55d83336040518363ffffffff1660e01b815260040161183892919061374a565b600060405180830381600087803b15801561185257600080fd5b505af1158015611866573d6000803e3d6000fd5b5050505060019050919050565b600034116118b6576040517f08c379a00000000000000000000000000000000000000000000000000000000081526004016118ad90613a44565b60405180910390fd5b8073ffffffffffffffffffffffffffffffffffffffff166108fc349081150290604051600060405180830381858888f193505050501580156118fc573d6000803e3d6000fd5b5050565b6000600260009054906101000a900473ffffffffffffffffffffffffffffffffffffffff1673ffffffffffffffffffffffffffffffffffffffff1663469895c8308561195d670de0b6b3a764000087611fd290919063ffffffff16565b6040518463ffffffff1660e01b815260040161197b9392919061398a565b6020604051808303816000875af115801561199a573d6000803e3d6000fd5b505050506040513d601f19601f820116820180604052508101906119be919061371d565b6040518060400160405280601981526020017f5761726e696e67203a205472616e73666572206661696c65640000000000000081525090611a35576040517f08c379a0000000000000000000000000000000000000000000000000000000008152600401611a2c9190613493565b60405180910390fd5b5081600a6000016000828254611a4b9190613a93565b9250508190555042600a600101819055506001905092915050565b60008073ffffffffffffffffffffffffffffffffffffffff168373ffffffffffffffffffffffffffffffffffffffff1603611ad6576040517f08c379a0000000000000000000000000000000000000000000000000000000008152600401611acd90613b13565b60405180910390fd5b81471015611b19576040517f08c379a0000000000000000000000000000000000000000000000000000000008152600401611b1090613ba5565b60405180910390fd5b8273ffffffffffffffffffffffffffffffffffffffff166108fc839081150290604051600060405180830381858888f19350505050158015611b5f573d6000803e3d6000fd5b506001905092915050565b611b72612b21565b600e60003373ffffffffffffffffffffffffffffffffffffffff1673ffffffffffffffffffffffffffffffffffffffff16815260200190815260200160002060405180604001604052908160008201805480602002602001604051908101604052809291908181526020016000905b82821015611c315783829060005260206000209060030201604051806060016040529081600082015481526020016001820154815260200160028201548152505081526020019060010190611be1565b50505050815260200160018201805480602002602001604051908101604052809291908181526020018280548015611c8857602002820191906000526020600020905b815481526020019060010190808311611c74575b505050505081525050905090565b611c9e611e8f565b600073ffffffffffffffffffffffffffffffffffffffff168173ffffffffffffffffffffffffffffffffffffffff1603611d0d576040517f08c379a0000000000000000000000000000000000000000000000000000000008152600401611d0490613c37565b60405180910390fd5b611d1681611f0d565b50565b606060006001611d288461262e565b01905060008167ffffffffffffffff811115611d4757611d46613c57565b5b6040519080825280601f01601f191660200182016040528015611d795781602001600182028036833780820191505090505b509050600082602001820190505b600115611ddc578080600190039150507f3031323334353637383961626364656600000000000000000000000000000000600a86061a8153600a8581611dd057611dcf613c86565b5b04945060008503611d87575b819350505050919050565b600080611df5338585612781565b9050611e023385836129a9565b6040518060400160405280600f81526020017f5761726e696e67203a205661756c74000000000000000000000000000000000081525090611e79576040517f08c379a0000000000000000000000000000000000000000000000000000000008152600401611e709190613493565b60405180910390fd5b50611e846001612ae2565b600191505092915050565b611e97612af8565b73ffffffffffffffffffffffffffffffffffffffff16611eb561170d565b73ffffffffffffffffffffffffffffffffffffffff1614611f0b576040517f08c379a0000000000000000000000000000000000000000000000000000000008152600401611f0290613d01565b60405180910390fd5b565b60008060019054906101000a900473ffffffffffffffffffffffffffffffffffffffff16905081600060016101000a81548173ffffffffffffffffffffffffffffffffffffffff021916908373ffffffffffffffffffffffffffffffffffffffff1602179055508173ffffffffffffffffffffffffffffffffffffffff168173ffffffffffffffffffffffffffffffffffffffff167f8be0079c531659141344cd1fd0a4f28419497f9722a3daafe3b4186f6b6457e060405160405180910390a35050565b60008183611fe09190613d21565b905092915050565b60008060005b600e60008573ffffffffffffffffffffffffffffffffffffffff1673ffffffffffffffffffffffffffffffffffffffff168152602001908152602001600020600001805490508110156120c65784600e60008673ffffffffffffffffffffffffffffffffffffffff1673ffffffffffffffffffffffffffffffffffffffff16815260200190815260200160002060000182815481106120905761208f613d63565b5b906000526020600020906003020160020154036120b357809250600191506120c6565b80806120be90613d92565b915050611fee565b50801561228757600e60008473ffffffffffffffffffffffffffffffffffffffff1673ffffffffffffffffffffffffffffffffffffffff1681526020019081526020016000206000016001600e60008673ffffffffffffffffffffffffffffffffffffffff1673ffffffffffffffffffffffffffffffffffffffff168152602001908152602001600020600001805490506121619190613a93565b8154811061217257612171613d63565b5b9060005260206000209060030201600e60008573ffffffffffffffffffffffffffffffffffffffff1673ffffffffffffffffffffffffffffffffffffffff16815260200190815260200160002060000183815481106121d4576121d3613d63565b5b9060005260206000209060030201600082015481600001556001820154816001015560028201548160020155905050600e60008473ffffffffffffffffffffffffffffffffffffffff1673ffffffffffffffffffffffffffffffffffffffff16815260200190815260200160002060000180548061225557612254613dda565b5b600190038181906000526020600020906003020160008082016000905560018201600090556002820160009055505090555b60005b600660008573ffffffffffffffffffffffffffffffffffffffff1673ffffffffffffffffffffffffffffffffffffffff168152602001908152602001600020600001805490508110156125025784600660008673ffffffffffffffffffffffffffffffffffffffff1673ffffffffffffffffffffffffffffffffffffffff168152602001908152602001600020600001828154811061232c5761232b613d63565b5b906000526020600020906002020160000154036124ef57600660008573ffffffffffffffffffffffffffffffffffffffff1673ffffffffffffffffffffffffffffffffffffffff1681526020019081526020016000206000016001600660008773ffffffffffffffffffffffffffffffffffffffff1673ffffffffffffffffffffffffffffffffffffffff168152602001908152602001600020600001805490506123d79190613a93565b815481106123e8576123e7613d63565b5b9060005260206000209060020201600660008673ffffffffffffffffffffffffffffffffffffffff1673ffffffffffffffffffffffffffffffffffffffff168152602001908152602001600020600001828154811061244a57612449613d63565b5b90600052602060002090600202016000820154816000015560018201548160010155905050600660008573ffffffffffffffffffffffffffffffffffffffff1673ffffffffffffffffffffffffffffffffffffffff1681526020019081526020016000206000018054806124c1576124c0613dda565b5b6001900381819060005260206000209060020201600080820160009055600182016000905550509055612502565b80806124fa90613d92565b91505061228a565b5060076000858152602001908152602001600020600090556008600085815260200190815260200160002060006101000a81549073ffffffffffffffffffffffffffffffffffffffff021916905550505050565b6125ec8160405160240161256a91906130f7565b6040516020818303038152906040527f2c2ecbc2000000000000000000000000000000000000000000000000000000007bffffffffffffffffffffffffffffffffffffffffffffffffffffffff19166020820180517bffffffffffffffffffffffffffffffffffffffffffffffffffffffff8381831617835250505050612b00565b50565b600081600a60000160008282546126069190613e09565b9250508190555042600a6001018190555060019050919050565b600081600001549050919050565b600080600090507a184f03e93ff9f4daa797ed6e38ed64bf6a1f010000000000000000831061268c577a184f03e93ff9f4daa797ed6e38ed64bf6a1f010000000000000000838161268257612681613c86565b5b0492506040810190505b6d04ee2d6d415b85acef810000000083106126c9576d04ee2d6d415b85acef810000000083816126bf576126be613c86565b5b0492506020810190505b662386f26fc1000083106126f857662386f26fc1000083816126ee576126ed613c86565b5b0492506010810190505b6305f5e1008310612721576305f5e100838161271757612716613c86565b5b0492506008810190505b612710831061274657612710838161273c5761273b613c86565b5b0492506004810190505b60648310612769576064838161275f5761275e613c86565b5b0492506002810190505b600a8310612778576001810190505b80915050919050565b60008060009054906101000a900460ff16156127d2576040517f08c379a00000000000000000000000000000000000000000000000000000000081526004016127c9906137bf565b60405180910390fd5b60016000806101000a81548160ff0219169083151502179055506000600360009054906101000a900473ffffffffffffffffffffffffffffffffffffffff1673ffffffffffffffffffffffffffffffffffffffff1663f42c69d686856040518363ffffffff1660e01b815260040161284b929190613e3d565b6020604051808303816000875af115801561286a573d6000803e3d6000fd5b505050506040513d601f19601f8201168201806040525081019061288e9190613889565b9050600660008673ffffffffffffffffffffffffffffffffffffffff1673ffffffffffffffffffffffffffffffffffffffff1681526020019081526020016000206000016040518060400160405280838152602001428152509080600181540180825580915050600190039060005260206000209060020201600090919091909150600082015181600001556020820151816001015550506129313385836129a9565b50846008600083815260200190815260200160002060006101000a81548173ffffffffffffffffffffffffffffffffffffffff021916908373ffffffffffffffffffffffffffffffffffffffff1602179055508091505060008060006101000a81548160ff0219169083151502179055509392505050565b600080600e60008673ffffffffffffffffffffffffffffffffffffffff1673ffffffffffffffffffffffffffffffffffffffff16815260200190815260200160002060000190508060405180606001604052808681526020014281526020018581525090806001815401808255809150506001900390600052602060002090600302016000909190919091506000820151816000015560208201518160010155604082015181600201555050600e60008673ffffffffffffffffffffffffffffffffffffffff1673ffffffffffffffffffffffffffffffffffffffff16815260200190815260200160002060010183908060018154018082558091505060019003906000526020600020016000909190919091505583600760008581526020019081526020016000208190555060019150509392505050565b6001816000016000828254019250508190555050565b600033905090565b60006a636f6e736f6c652e6c6f679050600080835160208501845afa505050565b604051806040016040528060608152602001606081525090565b6000819050919050565b612b4e81612b3b565b82525050565b6000602082019050612b696000830184612b45565b92915050565b6000604082019050612b846000830185612b45565b612b916020830184612b45565b9392505050565b600080fd5b600080fd5b600073ffffffffffffffffffffffffffffffffffffffff82169050919050565b6000612bcd82612ba2565b9050919050565b612bdd81612bc2565b8114612be857600080fd5b50565b600081359050612bfa81612bd4565b92915050565b612c0981612b3b565b8114612c1457600080fd5b50565b600081359050612c2681612c00565b92915050565b600080fd5b600080fd5b600080fd5b60008083601f840112612c5157612c50612c2c565b5b8235905067ffffffffffffffff811115612c6e57612c6d612c31565b5b602083019150836001820283011115612c8a57612c89612c36565b5b9250929050565b600080600080600060808688031215612cad57612cac612b98565b5b6000612cbb88828901612beb565b9550506020612ccc88828901612beb565b9450506040612cdd88828901612c17565b935050606086013567ffffffffffffffff811115612cfe57612cfd612b9d565b5b612d0a88828901612c3b565b92509250509295509295909350565b60007fffffffff0000000000000000000000000000000000000000000000000000000082169050919050565b612d4e81612d19565b82525050565b6000602082019050612d696000830184612d45565b92915050565b600060208284031215612d8557612d84612b98565b5b6000612d9384828501612c17565b91505092915050565b6000819050919050565b6000612dc1612dbc612db784612ba2565b612d9c565b612ba2565b9050919050565b6000612dd382612da6565b9050919050565b6000612de582612dc8565b9050919050565b612df581612dda565b82525050565b6000602082019050612e106000830184612dec565b92915050565b6000612e2182612dc8565b9050919050565b612e3181612e16565b82525050565b6000602082019050612e4c6000830184612e28565b92915050565b60008115159050919050565b612e6781612e52565b8114612e7257600080fd5b50565b600081359050612e8481612e5e565b92915050565b60008060408385031215612ea157612ea0612b98565b5b6000612eaf85828601612e75565b9250506020612ec085828601612c17565b9150509250929050565b612ed381612e52565b82525050565b6000602082019050612eee6000830184612eca565b92915050565b600060208284031215612f0a57612f09612b98565b5b6000612f1884828501612beb565b91505092915050565b6000612f2c82612dc8565b9050919050565b612f3c81612f21565b82525050565b6000602082019050612f576000830184612f33565b92915050565b600081519050919050565b600082825260208201905092915050565b6000819050602082019050919050565b612f9281612b3b565b82525050565b604082016000820151612fae6000850182612f89565b506020820151612fc16020850182612f89565b50505050565b6000612fd38383612f98565b60408301905092915050565b6000602082019050919050565b6000612ff782612f5d565b6130018185612f68565b935061300c83612f79565b8060005b8381101561303d5781516130248882612fc7565b975061302f83612fdf565b925050600181019050613010565b5085935050505092915050565b600060208201905081810360008301526130648184612fec565b905092915050565b600061307782612dc8565b9050919050565b6130878161306c565b82525050565b60006020820190506130a2600083018461307e565b92915050565b600080604083850312156130bf576130be612b98565b5b60006130cd85828601612c17565b92505060206130de85828601612c17565b9150509250929050565b6130f181612bc2565b82525050565b600060208201905061310c60008301846130e8565b92915050565b600061311d82612ba2565b9050919050565b61312d81613112565b811461313857600080fd5b50565b60008135905061314a81613124565b92915050565b60006020828403121561316657613165612b98565b5b60006131748482850161313b565b91505092915050565b6000806040838503121561319457613193612b98565b5b60006131a285828601612beb565b92505060206131b385828601612c17565b9150509250929050565b600080604083850312156131d4576131d3612b98565b5b60006131e28582860161313b565b92505060206131f385828601612c17565b9150509250929050565b600081519050919050565b600082825260208201905092915050565b6000819050602082019050919050565b60608201600082015161323f6000850182612f89565b5060208201516132526020850182612f89565b5060408201516132656040850182612f89565b50505050565b60006132778383613229565b60608301905092915050565b6000602082019050919050565b600061329b826131fd565b6132a58185613208565b93506132b083613219565b8060005b838110156132e15781516132c8888261326b565b97506132d383613283565b9250506001810190506132b4565b5085935050505092915050565b600081519050919050565b600082825260208201905092915050565b6000819050602082019050919050565b60006133268383612f89565b60208301905092915050565b6000602082019050919050565b600061334a826132ee565b61335481856132f9565b935061335f8361330a565b8060005b83811015613390578151613377888261331a565b975061338283613332565b925050600181019050613363565b5085935050505092915050565b600060408301600083015184820360008601526133ba8282613290565b915050602083015184820360208601526133d4828261333f565b9150508091505092915050565b600060208201905081810360008301526133fb818461339d565b905092915050565b600081519050919050565b600082825260208201905092915050565b60005b8381101561343d578082015181840152602081019050613422565b60008484015250505050565b6000601f19601f8301169050919050565b600061346582613403565b61346f818561340e565b935061347f81856020860161341f565b61348881613449565b840191505092915050565b600060208201905081810360008301526134ad818461345a565b905092915050565b600081905092915050565b7f5b47756172616e7465656420496e766573746d656e74204d617267696e5d2d2d60008201527f3a00000000000000000000000000000000000000000000000000000000000000602082015250565b600061351c6021836134b5565b9150613527826134c0565b602182019050919050565b600061353d82613403565b61354781856134b5565b935061355781856020860161341f565b80840191505092915050565b7f5745490000000000000000000000000000000000000000000000000000000000600082015250565b60006135996003836134b5565b91506135a482613563565b600382019050919050565b60006135ba8261350f565b91506135c68284613532565b91506135d18261358c565b915081905092915050565b7f5374616b696e672047756172616e746565204361726400000000000000000000600082015250565b600061361260168361340e565b915061361d826135dc565b602082019050919050565b7f68747470733a2f2f697066732e696f2f697066732f516d5155756d713869596360008201527f41395838756f61664d325955384c6579794d4b7a554e32484635464770364e7060208201527f5845563f66696c656e616d653d47726f7570253230343538342e6a7067000000604082015250565b60006136aa605d8361340e565b91506136b582613628565b606082019050919050565b600060608201905081810360008301526136d981613605565b905081810360208301526136ed818461345a565b905081810360408301526137008161369d565b905092915050565b60008151905061371781612e5e565b92915050565b60006020828403121561373357613732612b98565b5b600061374184828501613708565b91505092915050565b600060408201905061375f6000830185612b45565b61376c60208301846130e8565b9392505050565b7f4e6f205265456e7472616e637900000000000000000000000000000000000000600082015250565b60006137a9600d8361340e565b91506137b482613773565b602082019050919050565b600060208201905081810360008301526137d88161379c565b9050919050565b60006040820190506137f460008301856130e8565b6138016020830184612b45565b9392505050565b7f4572726f7220696e20515645207374616b696e67000000000000000000000000600082015250565b600061383e60148361340e565b915061384982613808565b602082019050919050565b6000602082019050818103600083015261386d81613831565b9050919050565b60008151905061388381612c00565b92915050565b60006020828403121561389f5761389e612b98565b5b60006138ad84828501613874565b91505092915050565b6000815190506138c581612bd4565b92915050565b6000602082840312156138e1576138e0612b98565b5b60006138ef848285016138b6565b91505092915050565b7f5761726e203a206e65656420617070726f76616c20666f72207468697320746f60008201527f6b656e0000000000000000000000000000000000000000000000000000000000602082015250565b600061395460238361340e565b915061395f826138f8565b604082019050919050565b6000602082019050818103600083015261398381613947565b9050919050565b600060608201905061399f60008301866130e8565b6139ac60208301856130e8565b6139b96040830184612b45565b949350505050565b60006060820190506139d66000830186612b45565b6139e360208301856130e8565b6139f06040830184612b45565b949350505050565b7f4e6f2066756e64732073656e7400000000000000000000000000000000000000600082015250565b6000613a2e600d8361340e565b9150613a39826139f8565b602082019050919050565b60006020820190508181036000830152613a5d81613a21565b9050919050565b7f4e487b7100000000000000000000000000000000000000000000000000000000600052601160045260246000fd5b6000613a9e82612b3b565b9150613aa983612b3b565b9250828203905081811115613ac157613ac0613a64565b5b92915050565b7f5761726e203a20626f7420416464726573732069732061646472657373203000600082015250565b6000613afd601f8361340e565b9150613b0882613ac7565b602082019050919050565b60006020820190508181036000830152613b2c81613af0565b9050919050565b7f5761726e203a20496e73756666696369656e642062616c616e636520696e206360008201527f6f6e747261637400000000000000000000000000000000000000000000000000602082015250565b6000613b8f60278361340e565b9150613b9a82613b33565b604082019050919050565b60006020820190508181036000830152613bbe81613b82565b9050919050565b7f4f776e61626c653a206e6577206f776e657220697320746865207a65726f206160008201527f6464726573730000000000000000000000000000000000000000000000000000602082015250565b6000613c2160268361340e565b9150613c2c82613bc5565b604082019050919050565b60006020820190508181036000830152613c5081613c14565b9050919050565b7f4e487b7100000000000000000000000000000000000000000000000000000000600052604160045260246000fd5b7f4e487b7100000000000000000000000000000000000000000000000000000000600052601260045260246000fd5b7f4f776e61626c653a2063616c6c6572206973206e6f7420746865206f776e6572600082015250565b6000613ceb60208361340e565b9150613cf682613cb5565b602082019050919050565b60006020820190508181036000830152613d1a81613cde565b9050919050565b6000613d2c82612b3b565b9150613d3783612b3b565b9250828202613d4581612b3b565b91508282048414831517613d5c57613d5b613a64565b5b5092915050565b7f4e487b7100000000000000000000000000000000000000000000000000000000600052603260045260246000fd5b6000613d9d82612b3b565b91507fffffffffffffffffffffffffffffffffffffffffffffffffffffffffffffffff8203613dcf57613dce613a64565b5b600182019050919050565b7f4e487b7100000000000000000000000000000000000000000000000000000000600052603160045260246000fd5b6000613e1482612b3b565b9150613e1f83612b3b565b9250828201905080821115613e3757613e36613a64565b5b92915050565b6000604082019050613e5260008301856130e8565b613e5f6020830184612eca565b939250505056fe5761726e696e67203a2053656e742045746820416d6f756e7420616e642057616e74656420416d6f756e742061726520646966666572656e74a264697066735822122067ba3f780e3f3b7961702b143c66ef2a69c0daa21c6fa56e257c22a6743e308364736f6c63430008120033",
			"opcodes": "PUSH1 0x80 PUSH1 0x40 MSTORE CALLVALUE DUP1 ISZERO PUSH3 0x11 JUMPI PUSH1 0x0 DUP1 REVERT JUMPDEST POP PUSH1 0x40 MLOAD PUSH3 0x42D6 CODESIZE SUB DUP1 PUSH3 0x42D6 DUP4 CODECOPY DUP2 DUP2 ADD PUSH1 0x40 MSTORE DUP2 ADD SWAP1 PUSH3 0x37 SWAP2 SWAP1 PUSH3 0x37F JUMP JUMPDEST PUSH3 0x57 PUSH3 0x4B PUSH3 0x165 PUSH1 0x20 SHL PUSH1 0x20 SHR JUMP JUMPDEST PUSH3 0x16D PUSH1 0x20 SHL PUSH1 0x20 SHR JUMP JUMPDEST DUP4 PUSH1 0x2 PUSH1 0x0 PUSH2 0x100 EXP DUP2 SLOAD DUP2 PUSH20 0xFFFFFFFFFFFFFFFFFFFFFFFFFFFFFFFFFFFFFFFF MUL NOT AND SWAP1 DUP4 PUSH20 0xFFFFFFFFFFFFFFFFFFFFFFFFFFFFFFFFFFFFFFFF AND MUL OR SWAP1 SSTORE POP DUP3 PUSH1 0x3 PUSH1 0x0 PUSH2 0x100 EXP DUP2 SLOAD DUP2 PUSH20 0xFFFFFFFFFFFFFFFFFFFFFFFFFFFFFFFFFFFFFFFF MUL NOT AND SWAP1 DUP4 PUSH20 0xFFFFFFFFFFFFFFFFFFFFFFFFFFFFFFFFFFFFFFFF AND MUL OR SWAP1 SSTORE POP DUP2 PUSH1 0x4 PUSH1 0x0 PUSH2 0x100 EXP DUP2 SLOAD DUP2 PUSH20 0xFFFFFFFFFFFFFFFFFFFFFFFFFFFFFFFFFFFFFFFF MUL NOT AND SWAP1 DUP4 PUSH20 0xFFFFFFFFFFFFFFFFFFFFFFFFFFFFFFFFFFFFFFFF AND MUL OR SWAP1 SSTORE POP DUP1 PUSH1 0x5 PUSH1 0x0 PUSH2 0x100 EXP DUP2 SLOAD DUP2 PUSH20 0xFFFFFFFFFFFFFFFFFFFFFFFFFFFFFFFFFFFFFFFF MUL NOT AND SWAP1 DUP4 PUSH20 0xFFFFFFFFFFFFFFFFFFFFFFFFFFFFFFFFFFFFFFFF AND MUL OR SWAP1 SSTORE POP POP POP POP POP PUSH3 0x3F1 JUMP JUMPDEST PUSH1 0x0 CALLER SWAP1 POP SWAP1 JUMP JUMPDEST PUSH1 0x0 DUP1 PUSH1 0x1 SWAP1 SLOAD SWAP1 PUSH2 0x100 EXP SWAP1 DIV PUSH20 0xFFFFFFFFFFFFFFFFFFFFFFFFFFFFFFFFFFFFFFFF AND SWAP1 POP DUP2 PUSH1 0x0 PUSH1 0x1 PUSH2 0x100 EXP DUP2 SLOAD DUP2 PUSH20 0xFFFFFFFFFFFFFFFFFFFFFFFFFFFFFFFFFFFFFFFF MUL NOT AND SWAP1 DUP4 PUSH20 0xFFFFFFFFFFFFFFFFFFFFFFFFFFFFFFFFFFFFFFFF AND MUL OR SWAP1 SSTORE POP DUP2 PUSH20 0xFFFFFFFFFFFFFFFFFFFFFFFFFFFFFFFFFFFFFFFF AND DUP2 PUSH20 0xFFFFFFFFFFFFFFFFFFFFFFFFFFFFFFFFFFFFFFFF AND PUSH32 0x8BE0079C531659141344CD1FD0A4F28419497F9722A3DAAFE3B4186F6B6457E0 PUSH1 0x40 MLOAD PUSH1 0x40 MLOAD DUP1 SWAP2 SUB SWAP1 LOG3 POP POP JUMP JUMPDEST PUSH1 0x0 DUP1 REVERT JUMPDEST PUSH1 0x0 PUSH20 0xFFFFFFFFFFFFFFFFFFFFFFFFFFFFFFFFFFFFFFFF DUP3 AND SWAP1 POP SWAP2 SWAP1 POP JUMP JUMPDEST PUSH1 0x0 PUSH3 0x264 DUP3 PUSH3 0x237 JUMP JUMPDEST SWAP1 POP SWAP2 SWAP1 POP JUMP JUMPDEST PUSH1 0x0 PUSH3 0x278 DUP3 PUSH3 0x257 JUMP JUMPDEST SWAP1 POP SWAP2 SWAP1 POP JUMP JUMPDEST PUSH3 0x28A DUP2 PUSH3 0x26B JUMP JUMPDEST DUP2 EQ PUSH3 0x296 JUMPI PUSH1 0x0 DUP1 REVERT JUMPDEST POP JUMP JUMPDEST PUSH1 0x0 DUP2 MLOAD SWAP1 POP PUSH3 0x2AA DUP2 PUSH3 0x27F JUMP JUMPDEST SWAP3 SWAP2 POP POP JUMP JUMPDEST PUSH1 0x0 PUSH3 0x2BD DUP3 PUSH3 0x257 JUMP JUMPDEST SWAP1 POP SWAP2 SWAP1 POP JUMP JUMPDEST PUSH3 0x2CF DUP2 PUSH3 0x2B0 JUMP JUMPDEST DUP2 EQ PUSH3 0x2DB JUMPI PUSH1 0x0 DUP1 REVERT JUMPDEST POP JUMP JUMPDEST PUSH1 0x0 DUP2 MLOAD SWAP1 POP PUSH3 0x2EF DUP2 PUSH3 0x2C4 JUMP JUMPDEST SWAP3 SWAP2 POP POP JUMP JUMPDEST PUSH1 0x0 PUSH3 0x302 DUP3 PUSH3 0x257 JUMP JUMPDEST SWAP1 POP SWAP2 SWAP1 POP JUMP JUMPDEST PUSH3 0x314 DUP2 PUSH3 0x2F5 JUMP JUMPDEST DUP2 EQ PUSH3 0x320 JUMPI PUSH1 0x0 DUP1 REVERT JUMPDEST POP JUMP JUMPDEST PUSH1 0x0 DUP2 MLOAD SWAP1 POP PUSH3 0x334 DUP2 PUSH3 0x309 JUMP JUMPDEST SWAP3 SWAP2 POP POP JUMP JUMPDEST PUSH1 0x0 PUSH3 0x347 DUP3 PUSH3 0x257 JUMP JUMPDEST SWAP1 POP SWAP2 SWAP1 POP JUMP JUMPDEST PUSH3 0x359 DUP2 PUSH3 0x33A JUMP JUMPDEST DUP2 EQ PUSH3 0x365 JUMPI PUSH1 0x0 DUP1 REVERT JUMPDEST POP JUMP JUMPDEST PUSH1 0x0 DUP2 MLOAD SWAP1 POP PUSH3 0x379 DUP2 PUSH3 0x34E JUMP JUMPDEST SWAP3 SWAP2 POP POP JUMP JUMPDEST PUSH1 0x0 DUP1 PUSH1 0x0 DUP1 PUSH1 0x80 DUP6 DUP8 SUB SLT ISZERO PUSH3 0x39C JUMPI PUSH3 0x39B PUSH3 0x232 JUMP JUMPDEST JUMPDEST PUSH1 0x0 PUSH3 0x3AC DUP8 DUP3 DUP9 ADD PUSH3 0x299 JUMP JUMPDEST SWAP5 POP POP PUSH1 0x20 PUSH3 0x3BF DUP8 DUP3 DUP9 ADD PUSH3 0x2DE JUMP JUMPDEST SWAP4 POP POP PUSH1 0x40 PUSH3 0x3D2 DUP8 DUP3 DUP9 ADD PUSH3 0x323 JUMP JUMPDEST SWAP3 POP POP PUSH1 0x60 PUSH3 0x3E5 DUP8 DUP3 DUP9 ADD PUSH3 0x368 JUMP JUMPDEST SWAP2 POP POP SWAP3 SWAP6 SWAP2 SWAP5 POP SWAP3 POP JUMP JUMPDEST PUSH2 0x3ED5 DUP1 PUSH3 0x401 PUSH1 0x0 CODECOPY PUSH1 0x0 RETURN INVALID PUSH1 0x80 PUSH1 0x40 MSTORE PUSH1 0x4 CALLDATASIZE LT PUSH2 0x1BB JUMPI PUSH1 0x0 CALLDATALOAD PUSH1 0xE0 SHR DUP1 PUSH4 0x69394135 GT PUSH2 0xEC JUMPI DUP1 PUSH4 0x9F62E796 GT PUSH2 0x8A JUMPI DUP1 PUSH4 0xD08B8D6A GT PUSH2 0x64 JUMPI DUP1 PUSH4 0xD08B8D6A EQ PUSH2 0x696 JUMPI DUP1 PUSH4 0xD167B6D8 EQ PUSH2 0x6D3 JUMPI DUP1 PUSH4 0xEF071BCD EQ PUSH2 0x703 JUMPI DUP1 PUSH4 0xF2FDE38B EQ PUSH2 0x72E JUMPI PUSH2 0x210 JUMP JUMPDEST DUP1 PUSH4 0x9F62E796 EQ PUSH2 0x612 JUMPI DUP1 PUSH4 0xBC338AE9 EQ PUSH2 0x63D JUMPI DUP1 PUSH4 0xBDE2DDF2 EQ PUSH2 0x67A JUMPI PUSH2 0x210 JUMP JUMPDEST DUP1 PUSH4 0x80720481 GT PUSH2 0xC6 JUMPI DUP1 PUSH4 0x80720481 EQ PUSH2 0x542 JUMPI DUP1 PUSH4 0x83CE6147 EQ PUSH2 0x57F JUMPI DUP1 PUSH4 0x8866B937 EQ PUSH2 0x5BC JUMPI DUP1 PUSH4 0x8DA5CB5B EQ PUSH2 0x5E7 JUMPI PUSH2 0x210 JUMP JUMPDEST DUP1 PUSH4 0x69394135 EQ PUSH2 0x4C3 JUMPI DUP1 PUSH4 0x715018A6 EQ PUSH2 0x4EE JUMPI DUP1 PUSH4 0x7A378E05 EQ PUSH2 0x505 JUMPI PUSH2 0x210 JUMP JUMPDEST DUP1 PUSH4 0x2F3F1730 GT PUSH2 0x159 JUMPI DUP1 PUSH4 0x510B7F98 GT PUSH2 0x133 JUMPI DUP1 PUSH4 0x510B7F98 EQ PUSH2 0x405 JUMPI DUP1 PUSH4 0x56289C29 EQ PUSH2 0x430 JUMPI DUP1 PUSH4 0x5AC66993 EQ PUSH2 0x46D JUMPI DUP1 PUSH4 0x68A820EA EQ PUSH2 0x498 JUMPI PUSH2 0x210 JUMP JUMPDEST DUP1 PUSH4 0x2F3F1730 EQ PUSH2 0x368 JUMPI DUP1 PUSH4 0x4D2301CC EQ PUSH2 0x398 JUMPI DUP1 PUSH4 0x4EDE9666 EQ PUSH2 0x3D5 JUMPI PUSH2 0x210 JUMP JUMPDEST DUP1 PUSH4 0x1552E770 GT PUSH2 0x195 JUMPI DUP1 PUSH4 0x1552E770 EQ PUSH2 0x2AA JUMPI DUP1 PUSH4 0x1EB5C7AE EQ PUSH2 0x2D5 JUMPI DUP1 PUSH4 0x2ADCBEBD EQ PUSH2 0x312 JUMPI DUP1 PUSH4 0x2B1C4158 EQ PUSH2 0x33D JUMPI PUSH2 0x210 JUMP JUMPDEST DUP1 PUSH4 0x691BADF EQ PUSH2 0x215 JUMPI DUP1 PUSH4 0xE301D24 EQ PUSH2 0x241 JUMPI DUP1 PUSH4 0x150B7A02 EQ PUSH2 0x26D JUMPI PUSH2 0x210 JUMP JUMPDEST CALLDATASIZE PUSH2 0x210 JUMPI CALLER PUSH20 0xFFFFFFFFFFFFFFFFFFFFFFFFFFFFFFFFFFFFFFFF AND PUSH32 0x88A5966D370B9919B20F3E2C13FF65706F196A4E32CC2C12BF57088F88525874 CALLVALUE PUSH1 0x40 MLOAD PUSH2 0x206 SWAP2 SWAP1 PUSH2 0x2B54 JUMP JUMPDEST PUSH1 0x40 MLOAD DUP1 SWAP2 SUB SWAP1 LOG2 STOP JUMPDEST PUSH1 0x0 DUP1 REVERT JUMPDEST CALLVALUE DUP1 ISZERO PUSH2 0x221 JUMPI PUSH1 0x0 DUP1 REVERT JUMPDEST POP PUSH2 0x22A PUSH2 0x757 JUMP JUMPDEST PUSH1 0x40 MLOAD PUSH2 0x238 SWAP3 SWAP2 SWAP1 PUSH2 0x2B6F JUMP JUMPDEST PUSH1 0x40 MLOAD DUP1 SWAP2 SUB SWAP1 RETURN JUMPDEST CALLVALUE DUP1 ISZERO PUSH2 0x24D JUMPI PUSH1 0x0 DUP1 REVERT JUMPDEST POP PUSH2 0x256 PUSH2 0x769 JUMP JUMPDEST PUSH1 0x40 MLOAD PUSH2 0x264 SWAP3 SWAP2 SWAP1 PUSH2 0x2B6F JUMP JUMPDEST PUSH1 0x40 MLOAD DUP1 SWAP2 SUB SWAP1 RETURN JUMPDEST CALLVALUE DUP1 ISZERO PUSH2 0x279 JUMPI PUSH1 0x0 DUP1 REVERT JUMPDEST POP PUSH2 0x294 PUSH1 0x4 DUP1 CALLDATASIZE SUB DUP2 ADD SWAP1 PUSH2 0x28F SWAP2 SWAP1 PUSH2 0x2C91 JUMP JUMPDEST PUSH2 0x77B JUMP JUMPDEST PUSH1 0x40 MLOAD PUSH2 0x2A1 SWAP2 SWAP1 PUSH2 0x2D54 JUMP JUMPDEST PUSH1 0x40 MLOAD DUP1 SWAP2 SUB SWAP1 RETURN JUMPDEST CALLVALUE DUP1 ISZERO PUSH2 0x2B6 JUMPI PUSH1 0x0 DUP1 REVERT JUMPDEST POP PUSH2 0x2BF PUSH2 0x848 JUMP JUMPDEST PUSH1 0x40 MLOAD PUSH2 0x2CC SWAP2 SWAP1 PUSH2 0x2B54 JUMP JUMPDEST PUSH1 0x40 MLOAD DUP1 SWAP2 SUB SWAP1 RETURN JUMPDEST CALLVALUE DUP1 ISZERO PUSH2 0x2E1 JUMPI PUSH1 0x0 DUP1 REVERT JUMPDEST POP PUSH2 0x2FC PUSH1 0x4 DUP1 CALLDATASIZE SUB DUP2 ADD SWAP1 PUSH2 0x2F7 SWAP2 SWAP1 PUSH2 0x2D6F JUMP JUMPDEST PUSH2 0x855 JUMP JUMPDEST PUSH1 0x40 MLOAD PUSH2 0x309 SWAP2 SWAP1 PUSH2 0x2B54 JUMP JUMPDEST PUSH1 0x40 MLOAD DUP1 SWAP2 SUB SWAP1 RETURN JUMPDEST CALLVALUE DUP1 ISZERO PUSH2 0x31E JUMPI PUSH1 0x0 DUP1 REVERT JUMPDEST POP PUSH2 0x327 PUSH2 0x872 JUMP JUMPDEST PUSH1 0x40 MLOAD PUSH2 0x334 SWAP2 SWAP1 PUSH2 0x2DFB JUMP JUMPDEST PUSH1 0x40 MLOAD DUP1 SWAP2 SUB SWAP1 RETURN JUMPDEST CALLVALUE DUP1 ISZERO PUSH2 0x349 JUMPI PUSH1 0x0 DUP1 REVERT JUMPDEST POP PUSH2 0x352 PUSH2 0x898 JUMP JUMPDEST PUSH1 0x40 MLOAD PUSH2 0x35F SWAP2 SWAP1 PUSH2 0x2E37 JUMP JUMPDEST PUSH1 0x40 MLOAD DUP1 SWAP2 SUB SWAP1 RETURN JUMPDEST PUSH2 0x382 PUSH1 0x4 DUP1 CALLDATASIZE SUB DUP2 ADD SWAP1 PUSH2 0x37D SWAP2 SWAP1 PUSH2 0x2E8A JUMP JUMPDEST PUSH2 0x8BE JUMP JUMPDEST PUSH1 0x40 MLOAD PUSH2 0x38F SWAP2 SWAP1 PUSH2 0x2ED9 JUMP JUMPDEST PUSH1 0x40 MLOAD DUP1 SWAP2 SUB SWAP1 RETURN JUMPDEST CALLVALUE DUP1 ISZERO PUSH2 0x3A4 JUMPI PUSH1 0x0 DUP1 REVERT JUMPDEST POP PUSH2 0x3BF PUSH1 0x4 DUP1 CALLDATASIZE SUB DUP2 ADD SWAP1 PUSH2 0x3BA SWAP2 SWAP1 PUSH2 0x2EF4 JUMP JUMPDEST PUSH2 0x9FF JUMP JUMPDEST PUSH1 0x40 MLOAD PUSH2 0x3CC SWAP2 SWAP1 PUSH2 0x2B54 JUMP JUMPDEST PUSH1 0x40 MLOAD DUP1 SWAP2 SUB SWAP1 RETURN JUMPDEST PUSH2 0x3EF PUSH1 0x4 DUP1 CALLDATASIZE SUB DUP2 ADD SWAP1 PUSH2 0x3EA SWAP2 SWAP1 PUSH2 0x2D6F JUMP JUMPDEST PUSH2 0xA20 JUMP JUMPDEST PUSH1 0x40 MLOAD PUSH2 0x3FC SWAP2 SWAP1 PUSH2 0x2ED9 JUMP JUMPDEST PUSH1 0x40 MLOAD DUP1 SWAP2 SUB SWAP1 RETURN JUMPDEST CALLVALUE DUP1 ISZERO PUSH2 0x411 JUMPI PUSH1 0x0 DUP1 REVERT JUMPDEST POP PUSH2 0x41A PUSH2 0xABB JUMP JUMPDEST PUSH1 0x40 MLOAD PUSH2 0x427 SWAP2 SWAP1 PUSH2 0x2F42 JUMP JUMPDEST PUSH1 0x40 MLOAD DUP1 SWAP2 SUB SWAP1 RETURN JUMPDEST CALLVALUE DUP1 ISZERO PUSH2 0x43C JUMPI PUSH1 0x0 DUP1 REVERT JUMPDEST POP PUSH2 0x457 PUSH1 0x4 DUP1 CALLDATASIZE SUB DUP2 ADD SWAP1 PUSH2 0x452 SWAP2 SWAP1 PUSH2 0x2D6F JUMP JUMPDEST PUSH2 0xAE1 JUMP JUMPDEST PUSH1 0x40 MLOAD PUSH2 0x464 SWAP2 SWAP1 PUSH2 0x2ED9 JUMP JUMPDEST PUSH1 0x40 MLOAD DUP1 SWAP2 SUB SWAP1 RETURN JUMPDEST CALLVALUE DUP1 ISZERO PUSH2 0x479 JUMPI PUSH1 0x0 DUP1 REVERT JUMPDEST POP PUSH2 0x482 PUSH2 0xC4E JUMP JUMPDEST PUSH1 0x40 MLOAD PUSH2 0x48F SWAP2 SWAP1 PUSH2 0x304A JUMP JUMPDEST PUSH1 0x40 MLOAD DUP1 SWAP2 SUB SWAP1 RETURN JUMPDEST CALLVALUE DUP1 ISZERO PUSH2 0x4A4 JUMPI PUSH1 0x0 DUP1 REVERT JUMPDEST POP PUSH2 0x4AD PUSH2 0xD01 JUMP JUMPDEST PUSH1 0x40 MLOAD PUSH2 0x4BA SWAP2 SWAP1 PUSH2 0x2B54 JUMP JUMPDEST PUSH1 0x40 MLOAD DUP1 SWAP2 SUB SWAP1 RETURN JUMPDEST CALLVALUE DUP1 ISZERO PUSH2 0x4CF JUMPI PUSH1 0x0 DUP1 REVERT JUMPDEST POP PUSH2 0x4D8 PUSH2 0xDA4 JUMP JUMPDEST PUSH1 0x40 MLOAD PUSH2 0x4E5 SWAP2 SWAP1 PUSH2 0x308D JUMP JUMPDEST PUSH1 0x40 MLOAD DUP1 SWAP2 SUB SWAP1 RETURN JUMPDEST CALLVALUE DUP1 ISZERO PUSH2 0x4FA JUMPI PUSH1 0x0 DUP1 REVERT JUMPDEST POP PUSH2 0x503 PUSH2 0xDCA JUMP JUMPDEST STOP JUMPDEST CALLVALUE DUP1 ISZERO PUSH2 0x511 JUMPI PUSH1 0x0 DUP1 REVERT JUMPDEST POP PUSH2 0x52C PUSH1 0x4 DUP1 CALLDATASIZE SUB DUP2 ADD SWAP1 PUSH2 0x527 SWAP2 SWAP1 PUSH2 0x2D6F JUMP JUMPDEST PUSH2 0xDDE JUMP JUMPDEST PUSH1 0x40 MLOAD PUSH2 0x539 SWAP2 SWAP1 PUSH2 0x2ED9 JUMP JUMPDEST PUSH1 0x40 MLOAD DUP1 SWAP2 SUB SWAP1 RETURN JUMPDEST CALLVALUE DUP1 ISZERO PUSH2 0x54E JUMPI PUSH1 0x0 DUP1 REVERT JUMPDEST POP PUSH2 0x569 PUSH1 0x4 DUP1 CALLDATASIZE SUB DUP2 ADD SWAP1 PUSH2 0x564 SWAP2 SWAP1 PUSH2 0x2D6F JUMP JUMPDEST PUSH2 0x11F3 JUMP JUMPDEST PUSH1 0x40 MLOAD PUSH2 0x576 SWAP2 SWAP1 PUSH2 0x2ED9 JUMP JUMPDEST PUSH1 0x40 MLOAD DUP1 SWAP2 SUB SWAP1 RETURN JUMPDEST CALLVALUE DUP1 ISZERO PUSH2 0x58B JUMPI PUSH1 0x0 DUP1 REVERT JUMPDEST POP PUSH2 0x5A6 PUSH1 0x4 DUP1 CALLDATASIZE SUB DUP2 ADD SWAP1 PUSH2 0x5A1 SWAP2 SWAP1 PUSH2 0x30A8 JUMP JUMPDEST PUSH2 0x15CC JUMP JUMPDEST PUSH1 0x40 MLOAD PUSH2 0x5B3 SWAP2 SWAP1 PUSH2 0x2ED9 JUMP JUMPDEST PUSH1 0x40 MLOAD DUP1 SWAP2 SUB SWAP1 RETURN JUMPDEST CALLVALUE DUP1 ISZERO PUSH2 0x5C8 JUMPI PUSH1 0x0 DUP1 REVERT JUMPDEST POP PUSH2 0x5D1 PUSH2 0x16FC JUMP JUMPDEST PUSH1 0x40 MLOAD PUSH2 0x5DE SWAP2 SWAP1 PUSH2 0x2B54 JUMP JUMPDEST PUSH1 0x40 MLOAD DUP1 SWAP2 SUB SWAP1 RETURN JUMPDEST CALLVALUE DUP1 ISZERO PUSH2 0x5F3 JUMPI PUSH1 0x0 DUP1 REVERT JUMPDEST POP PUSH2 0x5FC PUSH2 0x170D JUMP JUMPDEST PUSH1 0x40 MLOAD PUSH2 0x609 SWAP2 SWAP1 PUSH2 0x30F7 JUMP JUMPDEST PUSH1 0x40 MLOAD DUP1 SWAP2 SUB SWAP1 RETURN JUMPDEST CALLVALUE DUP1 ISZERO PUSH2 0x61E JUMPI PUSH1 0x0 DUP1 REVERT JUMPDEST POP PUSH2 0x627 PUSH2 0x1736 JUMP JUMPDEST PUSH1 0x40 MLOAD PUSH2 0x634 SWAP2 SWAP1 PUSH2 0x2B54 JUMP JUMPDEST PUSH1 0x40 MLOAD DUP1 SWAP2 SUB SWAP1 RETURN JUMPDEST CALLVALUE DUP1 ISZERO PUSH2 0x649 JUMPI PUSH1 0x0 DUP1 REVERT JUMPDEST POP PUSH2 0x664 PUSH1 0x4 DUP1 CALLDATASIZE SUB DUP2 ADD SWAP1 PUSH2 0x65F SWAP2 SWAP1 PUSH2 0x2D6F JUMP JUMPDEST PUSH2 0x17D9 JUMP JUMPDEST PUSH1 0x40 MLOAD PUSH2 0x671 SWAP2 SWAP1 PUSH2 0x2ED9 JUMP JUMPDEST PUSH1 0x40 MLOAD DUP1 SWAP2 SUB SWAP1 RETURN JUMPDEST PUSH2 0x694 PUSH1 0x4 DUP1 CALLDATASIZE SUB DUP2 ADD SWAP1 PUSH2 0x68F SWAP2 SWAP1 PUSH2 0x3150 JUMP JUMPDEST PUSH2 0x1873 JUMP JUMPDEST STOP JUMPDEST CALLVALUE DUP1 ISZERO PUSH2 0x6A2 JUMPI PUSH1 0x0 DUP1 REVERT JUMPDEST POP PUSH2 0x6BD PUSH1 0x4 DUP1 CALLDATASIZE SUB DUP2 ADD SWAP1 PUSH2 0x6B8 SWAP2 SWAP1 PUSH2 0x317D JUMP JUMPDEST PUSH2 0x1900 JUMP JUMPDEST PUSH1 0x40 MLOAD PUSH2 0x6CA SWAP2 SWAP1 PUSH2 0x2ED9 JUMP JUMPDEST PUSH1 0x40 MLOAD DUP1 SWAP2 SUB SWAP1 RETURN JUMPDEST PUSH2 0x6ED PUSH1 0x4 DUP1 CALLDATASIZE SUB DUP2 ADD SWAP1 PUSH2 0x6E8 SWAP2 SWAP1 PUSH2 0x31BD JUMP JUMPDEST PUSH2 0x1A66 JUMP JUMPDEST PUSH1 0x40 MLOAD PUSH2 0x6FA SWAP2 SWAP1 PUSH2 0x2ED9 JUMP JUMPDEST PUSH1 0x40 MLOAD DUP1 SWAP2 SUB SWAP1 RETURN JUMPDEST CALLVALUE DUP1 ISZERO PUSH2 0x70F JUMPI PUSH1 0x0 DUP1 REVERT JUMPDEST POP PUSH2 0x718 PUSH2 0x1B6A JUMP JUMPDEST PUSH1 0x40 MLOAD PUSH2 0x725 SWAP2 SWAP1 PUSH2 0x33E1 JUMP JUMPDEST PUSH1 0x40 MLOAD DUP1 SWAP2 SUB SWAP1 RETURN JUMPDEST CALLVALUE DUP1 ISZERO PUSH2 0x73A JUMPI PUSH1 0x0 DUP1 REVERT JUMPDEST POP PUSH2 0x755 PUSH1 0x4 DUP1 CALLDATASIZE SUB DUP2 ADD SWAP1 PUSH2 0x750 SWAP2 SWAP1 PUSH2 0x2EF4 JUMP JUMPDEST PUSH2 0x1C96 JUMP JUMPDEST STOP JUMPDEST PUSH1 0xC DUP1 PUSH1 0x0 ADD SLOAD SWAP1 DUP1 PUSH1 0x1 ADD SLOAD SWAP1 POP DUP3 JUMP JUMPDEST PUSH1 0xA DUP1 PUSH1 0x0 ADD SLOAD SWAP1 DUP1 PUSH1 0x1 ADD SLOAD SWAP1 POP DUP3 JUMP JUMPDEST PUSH1 0x0 PUSH2 0x786 DUP5 PUSH2 0x855 JUMP JUMPDEST PUSH1 0x9 PUSH1 0x0 DUP7 DUP2 MSTORE PUSH1 0x20 ADD SWAP1 DUP2 MSTORE PUSH1 0x20 ADD PUSH1 0x0 KECCAK256 PUSH1 0x0 DUP8 PUSH20 0xFFFFFFFFFFFFFFFFFFFFFFFFFFFFFFFFFFFFFFFF AND PUSH20 0xFFFFFFFFFFFFFFFFFFFFFFFFFFFFFFFFFFFFFFFF AND DUP2 MSTORE PUSH1 0x20 ADD SWAP1 DUP2 MSTORE PUSH1 0x20 ADD PUSH1 0x0 KECCAK256 PUSH1 0x0 ADD DUP2 SWAP1 SSTORE POP TIMESTAMP PUSH1 0x9 PUSH1 0x0 DUP7 DUP2 MSTORE PUSH1 0x20 ADD SWAP1 DUP2 MSTORE PUSH1 0x20 ADD PUSH1 0x0 KECCAK256 PUSH1 0x0 DUP8 PUSH20 0xFFFFFFFFFFFFFFFFFFFFFFFFFFFFFFFFFFFFFFFF AND PUSH20 0xFFFFFFFFFFFFFFFFFFFFFFFFFFFFFFFFFFFFFFFF AND DUP2 MSTORE PUSH1 0x20 ADD SWAP1 DUP2 MSTORE PUSH1 0x20 ADD PUSH1 0x0 KECCAK256 PUSH1 0x1 ADD DUP2 SWAP1 SSTORE POP PUSH4 0x150B7A02 PUSH1 0xE0 SHL SWAP1 POP SWAP6 SWAP5 POP POP POP POP POP JUMP JUMPDEST PUSH1 0x0 PUSH1 0xA PUSH1 0x0 ADD SLOAD SWAP1 POP SWAP1 JUMP JUMPDEST PUSH1 0x0 PUSH1 0x7 PUSH1 0x0 DUP4 DUP2 MSTORE PUSH1 0x20 ADD SWAP1 DUP2 MSTORE PUSH1 0x20 ADD PUSH1 0x0 KECCAK256 SLOAD SWAP1 POP SWAP2 SWAP1 POP JUMP JUMPDEST PUSH1 0x4 PUSH1 0x0 SWAP1 SLOAD SWAP1 PUSH2 0x100 EXP SWAP1 DIV PUSH20 0xFFFFFFFFFFFFFFFFFFFFFFFFFFFFFFFFFFFFFFFF AND DUP2 JUMP JUMPDEST PUSH1 0x2 PUSH1 0x0 SWAP1 SLOAD SWAP1 PUSH2 0x100 EXP SWAP1 DIV PUSH20 0xFFFFFFFFFFFFFFFFFFFFFFFFFFFFFFFFFFFFFFFF AND DUP2 JUMP JUMPDEST PUSH1 0x0 DUP2 CALLVALUE EQ PUSH1 0x40 MLOAD DUP1 PUSH1 0x60 ADD PUSH1 0x40 MSTORE DUP1 PUSH1 0x39 DUP2 MSTORE PUSH1 0x20 ADD PUSH2 0x3E67 PUSH1 0x39 SWAP2 CODECOPY SWAP1 PUSH2 0x91D JUMPI PUSH1 0x40 MLOAD PUSH32 0x8C379A000000000000000000000000000000000000000000000000000000000 DUP2 MSTORE PUSH1 0x4 ADD PUSH2 0x914 SWAP2 SWAP1 PUSH2 0x3493 JUMP JUMPDEST PUSH1 0x40 MLOAD DUP1 SWAP2 SUB SWAP1 REVERT JUMPDEST POP PUSH1 0x0 PUSH2 0x929 CALLVALUE PUSH2 0x1D19 JUMP JUMPDEST PUSH1 0x40 MLOAD PUSH1 0x20 ADD PUSH2 0x939 SWAP2 SWAP1 PUSH2 0x35AF JUMP JUMPDEST PUSH1 0x40 MLOAD PUSH1 0x20 DUP2 DUP4 SUB SUB DUP2 MSTORE SWAP1 PUSH1 0x40 MSTORE SWAP1 POP PUSH1 0x3 PUSH1 0x0 SWAP1 SLOAD SWAP1 PUSH2 0x100 EXP SWAP1 DIV PUSH20 0xFFFFFFFFFFFFFFFFFFFFFFFFFFFFFFFFFFFFFFFF AND PUSH20 0xFFFFFFFFFFFFFFFFFFFFFFFFFFFFFFFFFFFFFFFF AND PUSH4 0x890D80C DUP3 PUSH1 0x40 MLOAD DUP3 PUSH4 0xFFFFFFFF AND PUSH1 0xE0 SHL DUP2 MSTORE PUSH1 0x4 ADD PUSH2 0x9A5 SWAP2 SWAP1 PUSH2 0x36C0 JUMP JUMPDEST PUSH1 0x20 PUSH1 0x40 MLOAD DUP1 DUP4 SUB DUP2 PUSH1 0x0 DUP8 GAS CALL ISZERO DUP1 ISZERO PUSH2 0x9C4 JUMPI RETURNDATASIZE PUSH1 0x0 DUP1 RETURNDATACOPY RETURNDATASIZE PUSH1 0x0 REVERT JUMPDEST POP POP POP POP PUSH1 0x40 MLOAD RETURNDATASIZE PUSH1 0x1F NOT PUSH1 0x1F DUP3 ADD AND DUP3 ADD DUP1 PUSH1 0x40 MSTORE POP DUP2 ADD SWAP1 PUSH2 0x9E8 SWAP2 SWAP1 PUSH2 0x371D JUMP JUMPDEST POP PUSH2 0x9F3 CALLVALUE DUP6 PUSH2 0x1DE7 JUMP JUMPDEST POP PUSH1 0x1 SWAP2 POP POP SWAP3 SWAP2 POP POP JUMP JUMPDEST PUSH1 0x0 DUP2 PUSH20 0xFFFFFFFFFFFFFFFFFFFFFFFFFFFFFFFFFFFFFFFF AND BALANCE SWAP1 POP SWAP2 SWAP1 POP JUMP JUMPDEST PUSH1 0x0 PUSH1 0x5 PUSH1 0x0 SWAP1 SLOAD SWAP1 PUSH2 0x100 EXP SWAP1 DIV PUSH20 0xFFFFFFFFFFFFFFFFFFFFFFFFFFFFFFFFFFFFFFFF AND PUSH20 0xFFFFFFFFFFFFFFFFFFFFFFFFFFFFFFFFFFFFFFFF AND PUSH4 0xC663A107 CALLVALUE DUP5 CALLER PUSH1 0x40 MLOAD DUP5 PUSH4 0xFFFFFFFF AND PUSH1 0xE0 SHL DUP2 MSTORE PUSH1 0x4 ADD PUSH2 0xA80 SWAP3 SWAP2 SWAP1 PUSH2 0x374A JUMP JUMPDEST PUSH1 0x0 PUSH1 0x40 MLOAD DUP1 DUP4 SUB DUP2 DUP6 DUP9 DUP1 EXTCODESIZE ISZERO DUP1 ISZERO PUSH2 0xA99 JUMPI PUSH1 0x0 DUP1 REVERT JUMPDEST POP GAS CALL ISZERO DUP1 ISZERO PUSH2 0xAAD JUMPI RETURNDATASIZE PUSH1 0x0 DUP1 RETURNDATACOPY RETURNDATASIZE PUSH1 0x0 REVERT JUMPDEST POP POP POP POP POP PUSH1 0x1 SWAP1 POP SWAP2 SWAP1 POP JUMP JUMPDEST PUSH1 0x3 PUSH1 0x0 SWAP1 SLOAD SWAP1 PUSH2 0x100 EXP SWAP1 DIV PUSH20 0xFFFFFFFFFFFFFFFFFFFFFFFFFFFFFFFFFFFFFFFF AND DUP2 JUMP JUMPDEST PUSH1 0x0 DUP1 PUSH1 0x0 SWAP1 SLOAD SWAP1 PUSH2 0x100 EXP SWAP1 DIV PUSH1 0xFF AND ISZERO PUSH2 0xB32 JUMPI PUSH1 0x40 MLOAD PUSH32 0x8C379A000000000000000000000000000000000000000000000000000000000 DUP2 MSTORE PUSH1 0x4 ADD PUSH2 0xB29 SWAP1 PUSH2 0x37BF JUMP JUMPDEST PUSH1 0x40 MLOAD DUP1 SWAP2 SUB SWAP1 REVERT JUMPDEST PUSH1 0x1 PUSH1 0x0 DUP1 PUSH2 0x100 EXP DUP2 SLOAD DUP2 PUSH1 0xFF MUL NOT AND SWAP1 DUP4 ISZERO ISZERO MUL OR SWAP1 SSTORE POP PUSH1 0x4 PUSH1 0x0 SWAP1 SLOAD SWAP1 PUSH2 0x100 EXP SWAP1 DIV PUSH20 0xFFFFFFFFFFFFFFFFFFFFFFFFFFFFFFFFFFFFFFFF AND PUSH20 0xFFFFFFFFFFFFFFFFFFFFFFFFFFFFFFFFFFFFFFFF AND PUSH4 0xADC9772E CALLER DUP5 PUSH1 0x40 MLOAD DUP4 PUSH4 0xFFFFFFFF AND PUSH1 0xE0 SHL DUP2 MSTORE PUSH1 0x4 ADD PUSH2 0xBA9 SWAP3 SWAP2 SWAP1 PUSH2 0x37DF JUMP JUMPDEST PUSH1 0x20 PUSH1 0x40 MLOAD DUP1 DUP4 SUB DUP2 PUSH1 0x0 DUP8 GAS CALL ISZERO DUP1 ISZERO PUSH2 0xBC8 JUMPI RETURNDATASIZE PUSH1 0x0 DUP1 RETURNDATACOPY RETURNDATASIZE PUSH1 0x0 REVERT JUMPDEST POP POP POP POP PUSH1 0x40 MLOAD RETURNDATASIZE PUSH1 0x1F NOT PUSH1 0x1F DUP3 ADD AND DUP3 ADD DUP1 PUSH1 0x40 MSTORE POP DUP2 ADD SWAP1 PUSH2 0xBEC SWAP2 SWAP1 PUSH2 0x371D JUMP JUMPDEST PUSH2 0xC2B JUMPI PUSH1 0x40 MLOAD PUSH32 0x8C379A000000000000000000000000000000000000000000000000000000000 DUP2 MSTORE PUSH1 0x4 ADD PUSH2 0xC22 SWAP1 PUSH2 0x3854 JUMP JUMPDEST PUSH1 0x40 MLOAD DUP1 SWAP2 SUB SWAP1 REVERT JUMPDEST PUSH1 0x1 SWAP1 POP PUSH1 0x0 DUP1 PUSH1 0x0 PUSH2 0x100 EXP DUP2 SLOAD DUP2 PUSH1 0xFF MUL NOT AND SWAP1 DUP4 ISZERO ISZERO MUL OR SWAP1 SSTORE POP SWAP2 SWAP1 POP JUMP JUMPDEST PUSH1 0x60 PUSH1 0x6 PUSH1 0x0 CALLER PUSH20 0xFFFFFFFFFFFFFFFFFFFFFFFFFFFFFFFFFFFFFFFF AND PUSH20 0xFFFFFFFFFFFFFFFFFFFFFFFFFFFFFFFFFFFFFFFF AND DUP2 MSTORE PUSH1 0x20 ADD SWAP1 DUP2 MSTORE PUSH1 0x20 ADD PUSH1 0x0 KECCAK256 PUSH1 0x0 ADD DUP1 SLOAD DUP1 PUSH1 0x20 MUL PUSH1 0x20 ADD PUSH1 0x40 MLOAD SWAP1 DUP2 ADD PUSH1 0x40 MSTORE DUP1 SWAP3 SWAP2 SWAP1 DUP2 DUP2 MSTORE PUSH1 0x20 ADD PUSH1 0x0 SWAP1 JUMPDEST DUP3 DUP3 LT ISZERO PUSH2 0xCF8 JUMPI DUP4 DUP3 SWAP1 PUSH1 0x0 MSTORE PUSH1 0x20 PUSH1 0x0 KECCAK256 SWAP1 PUSH1 0x2 MUL ADD PUSH1 0x40 MLOAD DUP1 PUSH1 0x40 ADD PUSH1 0x40 MSTORE SWAP1 DUP2 PUSH1 0x0 DUP3 ADD SLOAD DUP2 MSTORE PUSH1 0x20 ADD PUSH1 0x1 DUP3 ADD SLOAD DUP2 MSTORE POP POP DUP2 MSTORE PUSH1 0x20 ADD SWAP1 PUSH1 0x1 ADD SWAP1 PUSH2 0xCB2 JUMP JUMPDEST POP POP POP POP SWAP1 POP SWAP1 JUMP JUMPDEST PUSH1 0x0 PUSH1 0x2 PUSH1 0x0 SWAP1 SLOAD SWAP1 PUSH2 0x100 EXP SWAP1 DIV PUSH20 0xFFFFFFFFFFFFFFFFFFFFFFFFFFFFFFFFFFFFFFFF AND PUSH20 0xFFFFFFFFFFFFFFFFFFFFFFFFFFFFFFFFFFFFFFFF AND PUSH4 0x70A08231 CALLER PUSH1 0x40 MLOAD DUP3 PUSH4 0xFFFFFFFF AND PUSH1 0xE0 SHL DUP2 MSTORE PUSH1 0x4 ADD PUSH2 0xD5E SWAP2 SWAP1 PUSH2 0x30F7 JUMP JUMPDEST PUSH1 0x20 PUSH1 0x40 MLOAD DUP1 DUP4 SUB DUP2 DUP7 GAS STATICCALL ISZERO DUP1 ISZERO PUSH2 0xD7B JUMPI RETURNDATASIZE PUSH1 0x0 DUP1 RETURNDATACOPY RETURNDATASIZE PUSH1 0x0 REVERT JUMPDEST POP POP POP POP PUSH1 0x40 MLOAD RETURNDATASIZE PUSH1 0x1F NOT PUSH1 0x1F DUP3 ADD AND DUP3 ADD DUP1 PUSH1 0x40 MSTORE POP DUP2 ADD SWAP1 PUSH2 0xD9F SWAP2 SWAP1 PUSH2 0x3889 JUMP JUMPDEST SWAP1 POP SWAP1 JUMP JUMPDEST PUSH1 0x5 PUSH1 0x0 SWAP1 SLOAD SWAP1 PUSH2 0x100 EXP SWAP1 DIV PUSH20 0xFFFFFFFFFFFFFFFFFFFFFFFFFFFFFFFFFFFFFFFF AND DUP2 JUMP JUMPDEST PUSH2 0xDD2 PUSH2 0x1E8F JUMP JUMPDEST PUSH2 0xDDC PUSH1 0x0 PUSH2 0x1F0D JUMP JUMPDEST JUMP JUMPDEST PUSH1 0x0 CALLER PUSH20 0xFFFFFFFFFFFFFFFFFFFFFFFFFFFFFFFFFFFFFFFF AND PUSH1 0x8 PUSH1 0x0 DUP5 DUP2 MSTORE PUSH1 0x20 ADD SWAP1 DUP2 MSTORE PUSH1 0x20 ADD PUSH1 0x0 KECCAK256 PUSH1 0x0 SWAP1 SLOAD SWAP1 PUSH2 0x100 EXP SWAP1 DIV PUSH20 0xFFFFFFFFFFFFFFFFFFFFFFFFFFFFFFFFFFFFFFFF AND PUSH20 0xFFFFFFFFFFFFFFFFFFFFFFFFFFFFFFFFFFFFFFFF AND EQ PUSH1 0x40 MLOAD DUP1 PUSH1 0x40 ADD PUSH1 0x40 MSTORE DUP1 PUSH1 0x1F DUP2 MSTORE PUSH1 0x20 ADD PUSH32 0x5761726E696E67203A20596F7520617265206E6F74204E4654206F776E657200 DUP2 MSTORE POP SWAP1 PUSH2 0xEB9 JUMPI PUSH1 0x40 MLOAD PUSH32 0x8C379A000000000000000000000000000000000000000000000000000000000 DUP2 MSTORE PUSH1 0x4 ADD PUSH2 0xEB0 SWAP2 SWAP1 PUSH2 0x3493 JUMP JUMPDEST PUSH1 0x40 MLOAD DUP1 SWAP2 SUB SWAP1 REVERT JUMPDEST POP CALLER PUSH20 0xFFFFFFFFFFFFFFFFFFFFFFFFFFFFFFFFFFFFFFFF AND PUSH1 0x3 PUSH1 0x0 SWAP1 SLOAD SWAP1 PUSH2 0x100 EXP SWAP1 DIV PUSH20 0xFFFFFFFFFFFFFFFFFFFFFFFFFFFFFFFFFFFFFFFF AND PUSH20 0xFFFFFFFFFFFFFFFFFFFFFFFFFFFFFFFFFFFFFFFF AND PUSH4 0x6352211E DUP5 PUSH1 0x40 MLOAD DUP3 PUSH4 0xFFFFFFFF AND PUSH1 0xE0 SHL DUP2 MSTORE PUSH1 0x4 ADD PUSH2 0xF2C SWAP2 SWAP1 PUSH2 0x2B54 JUMP JUMPDEST PUSH1 0x20 PUSH1 0x40 MLOAD DUP1 DUP4 SUB DUP2 DUP7 GAS STATICCALL ISZERO DUP1 ISZERO PUSH2 0xF49 JUMPI RETURNDATASIZE PUSH1 0x0 DUP1 RETURNDATACOPY RETURNDATASIZE PUSH1 0x0 REVERT JUMPDEST POP POP POP POP PUSH1 0x40 MLOAD RETURNDATASIZE PUSH1 0x1F NOT PUSH1 0x1F DUP3 ADD AND DUP3 ADD DUP1 PUSH1 0x40 MSTORE POP DUP2 ADD SWAP1 PUSH2 0xF6D SWAP2 SWAP1 PUSH2 0x38CB JUMP JUMPDEST PUSH20 0xFFFFFFFFFFFFFFFFFFFFFFFFFFFFFFFFFFFFFFFF AND EQ PUSH1 0x40 MLOAD DUP1 PUSH1 0x40 ADD PUSH1 0x40 MSTORE DUP1 PUSH1 0x1F DUP2 MSTORE PUSH1 0x20 ADD PUSH32 0x5761726E696E67203A20596F7520617265206E6F74204E4654206F776E657200 DUP2 MSTORE POP SWAP1 PUSH2 0xFFB JUMPI PUSH1 0x40 MLOAD PUSH32 0x8C379A000000000000000000000000000000000000000000000000000000000 DUP2 MSTORE PUSH1 0x4 ADD PUSH2 0xFF2 SWAP2 SWAP1 PUSH2 0x3493 JUMP JUMPDEST PUSH1 0x40 MLOAD DUP1 SWAP2 SUB SWAP1 REVERT JUMPDEST POP PUSH1 0x3 PUSH1 0x0 SWAP1 SLOAD SWAP1 PUSH2 0x100 EXP SWAP1 DIV PUSH20 0xFFFFFFFFFFFFFFFFFFFFFFFFFFFFFFFFFFFFFFFF AND PUSH20 0xFFFFFFFFFFFFFFFFFFFFFFFFFFFFFFFFFFFFFFFF AND PUSH4 0x2890E0D7 DUP4 PUSH1 0x40 MLOAD DUP3 PUSH4 0xFFFFFFFF AND PUSH1 0xE0 SHL DUP2 MSTORE PUSH1 0x4 ADD PUSH2 0x1057 SWAP2 SWAP1 PUSH2 0x2B54 JUMP JUMPDEST PUSH1 0x20 PUSH1 0x40 MLOAD DUP1 DUP4 SUB DUP2 PUSH1 0x0 DUP8 GAS CALL ISZERO DUP1 ISZERO PUSH2 0x1076 JUMPI RETURNDATASIZE PUSH1 0x0 DUP1 RETURNDATACOPY RETURNDATASIZE PUSH1 0x0 REVERT JUMPDEST POP POP POP POP PUSH1 0x40 MLOAD RETURNDATASIZE PUSH1 0x1F NOT PUSH1 0x1F DUP3 ADD AND DUP3 ADD DUP1 PUSH1 0x40 MSTORE POP DUP2 ADD SWAP1 PUSH2 0x109A SWAP2 SWAP1 PUSH2 0x371D JUMP JUMPDEST POP PUSH1 0x2 PUSH1 0x0 SWAP1 SLOAD SWAP1 PUSH2 0x100 EXP SWAP1 DIV PUSH20 0xFFFFFFFFFFFFFFFFFFFFFFFFFFFFFFFFFFFFFFFF AND PUSH20 0xFFFFFFFFFFFFFFFFFFFFFFFFFFFFFFFFFFFFFFFF AND PUSH4 0x5F367B03 CALLER PUSH2 0x1108 PUSH8 0xDE0B6B3A7640000 PUSH1 0x7 PUSH1 0x0 DUP9 DUP2 MSTORE PUSH1 0x20 ADD SWAP1 DUP2 MSTORE PUSH1 0x20 ADD PUSH1 0x0 KECCAK256 SLOAD PUSH2 0x1FD2 SWAP1 SWAP2 SWAP1 PUSH4 0xFFFFFFFF AND JUMP JUMPDEST PUSH1 0x40 MLOAD DUP4 PUSH4 0xFFFFFFFF AND PUSH1 0xE0 SHL DUP2 MSTORE PUSH1 0x4 ADD PUSH2 0x1125 SWAP3 SWAP2 SWAP1 PUSH2 0x37DF JUMP JUMPDEST PUSH1 0x20 PUSH1 0x40 MLOAD DUP1 DUP4 SUB DUP2 PUSH1 0x0 DUP8 GAS CALL ISZERO DUP1 ISZERO PUSH2 0x1144 JUMPI RETURNDATASIZE PUSH1 0x0 DUP1 RETURNDATACOPY RETURNDATASIZE PUSH1 0x0 REVERT JUMPDEST POP POP POP POP PUSH1 0x40 MLOAD RETURNDATASIZE PUSH1 0x1F NOT PUSH1 0x1F DUP3 ADD AND DUP3 ADD DUP1 PUSH1 0x40 MSTORE POP DUP2 ADD SWAP1 PUSH2 0x1168 SWAP2 SWAP1 PUSH2 0x371D JUMP JUMPDEST PUSH1 0x40 MLOAD DUP1 PUSH1 0x40 ADD PUSH1 0x40 MSTORE DUP1 PUSH1 0x19 DUP2 MSTORE PUSH1 0x20 ADD PUSH32 0x5761726E696E67203A205472616E73666572206661696C656400000000000000 DUP2 MSTORE POP SWAP1 PUSH2 0x11DF JUMPI PUSH1 0x40 MLOAD PUSH32 0x8C379A000000000000000000000000000000000000000000000000000000000 DUP2 MSTORE PUSH1 0x4 ADD PUSH2 0x11D6 SWAP2 SWAP1 PUSH2 0x3493 JUMP JUMPDEST PUSH1 0x40 MLOAD DUP1 SWAP2 SUB SWAP1 REVERT JUMPDEST POP PUSH2 0x11EA DUP3 CALLER PUSH2 0x1FE8 JUMP JUMPDEST PUSH1 0x1 SWAP1 POP SWAP2 SWAP1 POP JUMP JUMPDEST PUSH1 0x0 PUSH2 0x1299 PUSH1 0x3 PUSH1 0x0 SWAP1 SLOAD SWAP1 PUSH2 0x100 EXP SWAP1 DIV PUSH20 0xFFFFFFFFFFFFFFFFFFFFFFFFFFFFFFFFFFFFFFFF AND PUSH20 0xFFFFFFFFFFFFFFFFFFFFFFFFFFFFFFFFFFFFFFFF AND PUSH4 0x81812FC DUP5 PUSH1 0x40 MLOAD DUP3 PUSH4 0xFFFFFFFF AND PUSH1 0xE0 SHL DUP2 MSTORE PUSH1 0x4 ADD PUSH2 0x1253 SWAP2 SWAP1 PUSH2 0x2B54 JUMP JUMPDEST PUSH1 0x20 PUSH1 0x40 MLOAD DUP1 DUP4 SUB DUP2 DUP7 GAS STATICCALL ISZERO DUP1 ISZERO PUSH2 0x1270 JUMPI RETURNDATASIZE PUSH1 0x0 DUP1 RETURNDATACOPY RETURNDATASIZE PUSH1 0x0 REVERT JUMPDEST POP POP POP POP PUSH1 0x40 MLOAD RETURNDATASIZE PUSH1 0x1F NOT PUSH1 0x1F DUP3 ADD AND DUP3 ADD DUP1 PUSH1 0x40 MSTORE POP DUP2 ADD SWAP1 PUSH2 0x1294 SWAP2 SWAP1 PUSH2 0x38CB JUMP JUMPDEST PUSH2 0x2556 JUMP JUMPDEST CALLER PUSH20 0xFFFFFFFFFFFFFFFFFFFFFFFFFFFFFFFFFFFFFFFF AND PUSH1 0x3 PUSH1 0x0 SWAP1 SLOAD SWAP1 PUSH2 0x100 EXP SWAP1 DIV PUSH20 0xFFFFFFFFFFFFFFFFFFFFFFFFFFFFFFFFFFFFFFFF AND PUSH20 0xFFFFFFFFFFFFFFFFFFFFFFFFFFFFFFFFFFFFFFFF AND PUSH4 0x6352211E DUP5 PUSH1 0x40 MLOAD DUP3 PUSH4 0xFFFFFFFF AND PUSH1 0xE0 SHL DUP2 MSTORE PUSH1 0x4 ADD PUSH2 0x130B SWAP2 SWAP1 PUSH2 0x2B54 JUMP JUMPDEST PUSH1 0x20 PUSH1 0x40 MLOAD DUP1 DUP4 SUB DUP2 DUP7 GAS STATICCALL ISZERO DUP1 ISZERO PUSH2 0x1328 JUMPI RETURNDATASIZE PUSH1 0x0 DUP1 RETURNDATACOPY RETURNDATASIZE PUSH1 0x0 REVERT JUMPDEST POP POP POP POP PUSH1 0x40 MLOAD RETURNDATASIZE PUSH1 0x1F NOT PUSH1 0x1F DUP3 ADD AND DUP3 ADD DUP1 PUSH1 0x40 MSTORE POP DUP2 ADD SWAP1 PUSH2 0x134C SWAP2 SWAP1 PUSH2 0x38CB JUMP JUMPDEST PUSH20 0xFFFFFFFFFFFFFFFFFFFFFFFFFFFFFFFFFFFFFFFF AND EQ PUSH1 0x40 MLOAD DUP1 PUSH1 0x40 ADD PUSH1 0x40 MSTORE DUP1 PUSH1 0x1F DUP2 MSTORE PUSH1 0x20 ADD PUSH32 0x5761726E696E67203A20596F7520617265206E6F74204E4654206F776E657200 DUP2 MSTORE POP SWAP1 PUSH2 0x13DA JUMPI PUSH1 0x40 MLOAD PUSH32 0x8C379A000000000000000000000000000000000000000000000000000000000 DUP2 MSTORE PUSH1 0x4 ADD PUSH2 0x13D1 SWAP2 SWAP1 PUSH2 0x3493 JUMP JUMPDEST PUSH1 0x40 MLOAD DUP1 SWAP2 SUB SWAP1 REVERT JUMPDEST POP ADDRESS PUSH20 0xFFFFFFFFFFFFFFFFFFFFFFFFFFFFFFFFFFFFFFFF AND PUSH1 0x3 PUSH1 0x0 SWAP1 SLOAD SWAP1 PUSH2 0x100 EXP SWAP1 DIV PUSH20 0xFFFFFFFFFFFFFFFFFFFFFFFFFFFFFFFFFFFFFFFF AND PUSH20 0xFFFFFFFFFFFFFFFFFFFFFFFFFFFFFFFFFFFFFFFF AND PUSH4 0x81812FC DUP5 PUSH1 0x40 MLOAD DUP3 PUSH4 0xFFFFFFFF AND PUSH1 0xE0 SHL DUP2 MSTORE PUSH1 0x4 ADD PUSH2 0x144D SWAP2 SWAP1 PUSH2 0x2B54 JUMP JUMPDEST PUSH1 0x20 PUSH1 0x40 MLOAD DUP1 DUP4 SUB DUP2 DUP7 GAS STATICCALL ISZERO DUP1 ISZERO PUSH2 0x146A JUMPI RETURNDATASIZE PUSH1 0x0 DUP1 RETURNDATACOPY RETURNDATASIZE PUSH1 0x0 REVERT JUMPDEST POP POP POP POP PUSH1 0x40 MLOAD RETURNDATASIZE PUSH1 0x1F NOT PUSH1 0x1F DUP3 ADD AND DUP3 ADD DUP1 PUSH1 0x40 MSTORE POP DUP2 ADD SWAP1 PUSH2 0x148E SWAP2 SWAP1 PUSH2 0x38CB JUMP JUMPDEST PUSH20 0xFFFFFFFFFFFFFFFFFFFFFFFFFFFFFFFFFFFFFFFF AND EQ PUSH2 0x14E4 JUMPI PUSH1 0x40 MLOAD PUSH32 0x8C379A000000000000000000000000000000000000000000000000000000000 DUP2 MSTORE PUSH1 0x4 ADD PUSH2 0x14DB SWAP1 PUSH2 0x396A JUMP JUMPDEST PUSH1 0x40 MLOAD DUP1 SWAP2 SUB SWAP1 REVERT JUMPDEST PUSH1 0x3 PUSH1 0x0 SWAP1 SLOAD SWAP1 PUSH2 0x100 EXP SWAP1 DIV PUSH20 0xFFFFFFFFFFFFFFFFFFFFFFFFFFFFFFFFFFFFFFFF AND PUSH20 0xFFFFFFFFFFFFFFFFFFFFFFFFFFFFFFFFFFFFFFFF AND PUSH4 0x42842E0E CALLER ADDRESS DUP6 PUSH1 0x40 MLOAD DUP5 PUSH4 0xFFFFFFFF AND PUSH1 0xE0 SHL DUP2 MSTORE PUSH1 0x4 ADD PUSH2 0x1543 SWAP4 SWAP3 SWAP2 SWAP1 PUSH2 0x398A JUMP JUMPDEST PUSH1 0x0 PUSH1 0x40 MLOAD DUP1 DUP4 SUB DUP2 PUSH1 0x0 DUP8 DUP1 EXTCODESIZE ISZERO DUP1 ISZERO PUSH2 0x155D JUMPI PUSH1 0x0 DUP1 REVERT JUMPDEST POP GAS CALL ISZERO DUP1 ISZERO PUSH2 0x1571 JUMPI RETURNDATASIZE PUSH1 0x0 DUP1 RETURNDATACOPY RETURNDATASIZE PUSH1 0x0 REVERT JUMPDEST POP POP POP POP CALLER PUSH20 0xFFFFFFFFFFFFFFFFFFFFFFFFFFFFFFFFFFFFFFFF AND PUSH32 0x1C4B8380F61AEA3D5D98CBADAF2E6B2E4F3D8CA8C0FCE1290B26AC267158745F DUP4 PUSH1 0x40 MLOAD PUSH2 0x15BB SWAP2 SWAP1 PUSH2 0x2B54 JUMP JUMPDEST PUSH1 0x40 MLOAD DUP1 SWAP2 SUB SWAP1 LOG2 PUSH1 0x1 SWAP1 POP SWAP2 SWAP1 POP JUMP JUMPDEST PUSH1 0x0 PUSH1 0x3 PUSH1 0x0 SWAP1 SLOAD SWAP1 PUSH2 0x100 EXP SWAP1 DIV PUSH20 0xFFFFFFFFFFFFFFFFFFFFFFFFFFFFFFFFFFFFFFFF AND PUSH20 0xFFFFFFFFFFFFFFFFFFFFFFFFFFFFFFFFFFFFFFFF AND PUSH4 0xB2C3A717 DUP5 ADDRESS DUP6 PUSH1 0x40 MLOAD DUP5 PUSH4 0xFFFFFFFF AND PUSH1 0xE0 SHL DUP2 MSTORE PUSH1 0x4 ADD PUSH2 0x162D SWAP4 SWAP3 SWAP2 SWAP1 PUSH2 0x39C1 JUMP JUMPDEST PUSH1 0x20 PUSH1 0x40 MLOAD DUP1 DUP4 SUB DUP2 PUSH1 0x0 DUP8 GAS CALL ISZERO DUP1 ISZERO PUSH2 0x164C JUMPI RETURNDATASIZE PUSH1 0x0 DUP1 RETURNDATACOPY RETURNDATASIZE PUSH1 0x0 REVERT JUMPDEST POP POP POP POP PUSH1 0x40 MLOAD RETURNDATASIZE PUSH1 0x1F NOT PUSH1 0x1F DUP3 ADD AND DUP3 ADD DUP1 PUSH1 0x40 MSTORE POP DUP2 ADD SWAP1 PUSH2 0x1670 SWAP2 SWAP1 PUSH2 0x371D JUMP JUMPDEST PUSH1 0x40 MLOAD DUP1 PUSH1 0x40 ADD PUSH1 0x40 MSTORE DUP1 PUSH1 0x18 DUP2 MSTORE PUSH1 0x20 ADD PUSH32 0x5761726E696E67203A204C6F636B75702053686F7274656E0000000000000000 DUP2 MSTORE POP SWAP1 PUSH2 0x16E7 JUMPI PUSH1 0x40 MLOAD PUSH32 0x8C379A000000000000000000000000000000000000000000000000000000000 DUP2 MSTORE PUSH1 0x4 ADD PUSH2 0x16DE SWAP2 SWAP1 PUSH2 0x3493 JUMP JUMPDEST PUSH1 0x40 MLOAD DUP1 SWAP2 SUB SWAP1 REVERT JUMPDEST POP PUSH2 0x16F1 DUP4 PUSH2 0x25EF JUMP JUMPDEST POP PUSH1 0x1 SWAP1 POP SWAP3 SWAP2 POP POP JUMP JUMPDEST PUSH1 0x0 PUSH2 0x1708 PUSH1 0x1 PUSH2 0x2620 JUMP JUMPDEST SWAP1 POP SWAP1 JUMP JUMPDEST PUSH1 0x0 DUP1 PUSH1 0x1 SWAP1 SLOAD SWAP1 PUSH2 0x100 EXP SWAP1 DIV PUSH20 0xFFFFFFFFFFFFFFFFFFFFFFFFFFFFFFFFFFFFFFFF AND SWAP1 POP SWAP1 JUMP JUMPDEST PUSH1 0x0 PUSH1 0x3 PUSH1 0x0 SWAP1 SLOAD SWAP1 PUSH2 0x100 EXP SWAP1 DIV PUSH20 0xFFFFFFFFFFFFFFFFFFFFFFFFFFFFFFFFFFFFFFFF AND PUSH20 0xFFFFFFFFFFFFFFFFFFFFFFFFFFFFFFFFFFFFFFFF AND PUSH4 0x70A08231 CALLER PUSH1 0x40 MLOAD DUP3 PUSH4 0xFFFFFFFF AND PUSH1 0xE0 SHL DUP2 MSTORE PUSH1 0x4 ADD PUSH2 0x1793 SWAP2 SWAP1 PUSH2 0x30F7 JUMP JUMPDEST PUSH1 0x20 PUSH1 0x40 MLOAD DUP1 DUP4 SUB DUP2 DUP7 GAS STATICCALL ISZERO DUP1 ISZERO PUSH2 0x17B0 JUMPI RETURNDATASIZE PUSH1 0x0 DUP1 RETURNDATACOPY RETURNDATASIZE PUSH1 0x0 REVERT JUMPDEST POP POP POP POP PUSH1 0x40 MLOAD RETURNDATASIZE PUSH1 0x1F NOT PUSH1 0x1F DUP3 ADD AND DUP3 ADD DUP1 PUSH1 0x40 MSTORE POP DUP2 ADD SWAP1 PUSH2 0x17D4 SWAP2 SWAP1 PUSH2 0x3889 JUMP JUMPDEST SWAP1 POP SWAP1 JUMP JUMPDEST PUSH1 0x0 PUSH1 0x5 PUSH1 0x0 SWAP1 SLOAD SWAP1 PUSH2 0x100 EXP SWAP1 DIV PUSH20 0xFFFFFFFFFFFFFFFFFFFFFFFFFFFFFFFFFFFFFFFF AND PUSH20 0xFFFFFFFFFFFFFFFFFFFFFFFFFFFFFFFFFFFFFFFF AND PUSH4 0x6527B55D DUP4 CALLER PUSH1 0x40 MLOAD DUP4 PUSH4 0xFFFFFFFF AND PUSH1 0xE0 SHL DUP2 MSTORE PUSH1 0x4 ADD PUSH2 0x1838 SWAP3 SWAP2 SWAP1 PUSH2 0x374A JUMP JUMPDEST PUSH1 0x0 PUSH1 0x40 MLOAD DUP1 DUP4 SUB DUP2 PUSH1 0x0 DUP8 DUP1 EXTCODESIZE ISZERO DUP1 ISZERO PUSH2 0x1852 JUMPI PUSH1 0x0 DUP1 REVERT JUMPDEST POP GAS CALL ISZERO DUP1 ISZERO PUSH2 0x1866 JUMPI RETURNDATASIZE PUSH1 0x0 DUP1 RETURNDATACOPY RETURNDATASIZE PUSH1 0x0 REVERT JUMPDEST POP POP POP POP PUSH1 0x1 SWAP1 POP SWAP2 SWAP1 POP JUMP JUMPDEST PUSH1 0x0 CALLVALUE GT PUSH2 0x18B6 JUMPI PUSH1 0x40 MLOAD PUSH32 0x8C379A000000000000000000000000000000000000000000000000000000000 DUP2 MSTORE PUSH1 0x4 ADD PUSH2 0x18AD SWAP1 PUSH2 0x3A44 JUMP JUMPDEST PUSH1 0x40 MLOAD DUP1 SWAP2 SUB SWAP1 REVERT JUMPDEST DUP1 PUSH20 0xFFFFFFFFFFFFFFFFFFFFFFFFFFFFFFFFFFFFFFFF AND PUSH2 0x8FC CALLVALUE SWAP1 DUP2 ISZERO MUL SWAP1 PUSH1 0x40 MLOAD PUSH1 0x0 PUSH1 0x40 MLOAD DUP1 DUP4 SUB DUP2 DUP6 DUP9 DUP9 CALL SWAP4 POP POP POP POP ISZERO DUP1 ISZERO PUSH2 0x18FC JUMPI RETURNDATASIZE PUSH1 0x0 DUP1 RETURNDATACOPY RETURNDATASIZE PUSH1 0x0 REVERT JUMPDEST POP POP JUMP JUMPDEST PUSH1 0x0 PUSH1 0x2 PUSH1 0x0 SWAP1 SLOAD SWAP1 PUSH2 0x100 EXP SWAP1 DIV PUSH20 0xFFFFFFFFFFFFFFFFFFFFFFFFFFFFFFFFFFFFFFFF AND PUSH20 0xFFFFFFFFFFFFFFFFFFFFFFFFFFFFFFFFFFFFFFFF AND PUSH4 0x469895C8 ADDRESS DUP6 PUSH2 0x195D PUSH8 0xDE0B6B3A7640000 DUP8 PUSH2 0x1FD2 SWAP1 SWAP2 SWAP1 PUSH4 0xFFFFFFFF AND JUMP JUMPDEST PUSH1 0x40 MLOAD DUP5 PUSH4 0xFFFFFFFF AND PUSH1 0xE0 SHL DUP2 MSTORE PUSH1 0x4 ADD PUSH2 0x197B SWAP4 SWAP3 SWAP2 SWAP1 PUSH2 0x398A JUMP JUMPDEST PUSH1 0x20 PUSH1 0x40 MLOAD DUP1 DUP4 SUB DUP2 PUSH1 0x0 DUP8 GAS CALL ISZERO DUP1 ISZERO PUSH2 0x199A JUMPI RETURNDATASIZE PUSH1 0x0 DUP1 RETURNDATACOPY RETURNDATASIZE PUSH1 0x0 REVERT JUMPDEST POP POP POP POP PUSH1 0x40 MLOAD RETURNDATASIZE PUSH1 0x1F NOT PUSH1 0x1F DUP3 ADD AND DUP3 ADD DUP1 PUSH1 0x40 MSTORE POP DUP2 ADD SWAP1 PUSH2 0x19BE SWAP2 SWAP1 PUSH2 0x371D JUMP JUMPDEST PUSH1 0x40 MLOAD DUP1 PUSH1 0x40 ADD PUSH1 0x40 MSTORE DUP1 PUSH1 0x19 DUP2 MSTORE PUSH1 0x20 ADD PUSH32 0x5761726E696E67203A205472616E73666572206661696C656400000000000000 DUP2 MSTORE POP SWAP1 PUSH2 0x1A35 JUMPI PUSH1 0x40 MLOAD PUSH32 0x8C379A000000000000000000000000000000000000000000000000000000000 DUP2 MSTORE PUSH1 0x4 ADD PUSH2 0x1A2C SWAP2 SWAP1 PUSH2 0x3493 JUMP JUMPDEST PUSH1 0x40 MLOAD DUP1 SWAP2 SUB SWAP1 REVERT JUMPDEST POP DUP2 PUSH1 0xA PUSH1 0x0 ADD PUSH1 0x0 DUP3 DUP3 SLOAD PUSH2 0x1A4B SWAP2 SWAP1 PUSH2 0x3A93 JUMP JUMPDEST SWAP3 POP POP DUP2 SWAP1 SSTORE POP TIMESTAMP PUSH1 0xA PUSH1 0x1 ADD DUP2 SWAP1 SSTORE POP PUSH1 0x1 SWAP1 POP SWAP3 SWAP2 POP POP JUMP JUMPDEST PUSH1 0x0 DUP1 PUSH20 0xFFFFFFFFFFFFFFFFFFFFFFFFFFFFFFFFFFFFFFFF AND DUP4 PUSH20 0xFFFFFFFFFFFFFFFFFFFFFFFFFFFFFFFFFFFFFFFF AND SUB PUSH2 0x1AD6 JUMPI PUSH1 0x40 MLOAD PUSH32 0x8C379A000000000000000000000000000000000000000000000000000000000 DUP2 MSTORE PUSH1 0x4 ADD PUSH2 0x1ACD SWAP1 PUSH2 0x3B13 JUMP JUMPDEST PUSH1 0x40 MLOAD DUP1 SWAP2 SUB SWAP1 REVERT JUMPDEST DUP2 SELFBALANCE LT ISZERO PUSH2 0x1B19 JUMPI PUSH1 0x40 MLOAD PUSH32 0x8C379A000000000000000000000000000000000000000000000000000000000 DUP2 MSTORE PUSH1 0x4 ADD PUSH2 0x1B10 SWAP1 PUSH2 0x3BA5 JUMP JUMPDEST PUSH1 0x40 MLOAD DUP1 SWAP2 SUB SWAP1 REVERT JUMPDEST DUP3 PUSH20 0xFFFFFFFFFFFFFFFFFFFFFFFFFFFFFFFFFFFFFFFF AND PUSH2 0x8FC DUP4 SWAP1 DUP2 ISZERO MUL SWAP1 PUSH1 0x40 MLOAD PUSH1 0x0 PUSH1 0x40 MLOAD DUP1 DUP4 SUB DUP2 DUP6 DUP9 DUP9 CALL SWAP4 POP POP POP POP ISZERO DUP1 ISZERO PUSH2 0x1B5F JUMPI RETURNDATASIZE PUSH1 0x0 DUP1 RETURNDATACOPY RETURNDATASIZE PUSH1 0x0 REVERT JUMPDEST POP PUSH1 0x1 SWAP1 POP SWAP3 SWAP2 POP POP JUMP JUMPDEST PUSH2 0x1B72 PUSH2 0x2B21 JUMP JUMPDEST PUSH1 0xE PUSH1 0x0 CALLER PUSH20 0xFFFFFFFFFFFFFFFFFFFFFFFFFFFFFFFFFFFFFFFF AND PUSH20 0xFFFFFFFFFFFFFFFFFFFFFFFFFFFFFFFFFFFFFFFF AND DUP2 MSTORE PUSH1 0x20 ADD SWAP1 DUP2 MSTORE PUSH1 0x20 ADD PUSH1 0x0 KECCAK256 PUSH1 0x40 MLOAD DUP1 PUSH1 0x40 ADD PUSH1 0x40 MSTORE SWAP1 DUP2 PUSH1 0x0 DUP3 ADD DUP1 SLOAD DUP1 PUSH1 0x20 MUL PUSH1 0x20 ADD PUSH1 0x40 MLOAD SWAP1 DUP2 ADD PUSH1 0x40 MSTORE DUP1 SWAP3 SWAP2 SWAP1 DUP2 DUP2 MSTORE PUSH1 0x20 ADD PUSH1 0x0 SWAP1 JUMPDEST DUP3 DUP3 LT ISZERO PUSH2 0x1C31 JUMPI DUP4 DUP3 SWAP1 PUSH1 0x0 MSTORE PUSH1 0x20 PUSH1 0x0 KECCAK256 SWAP1 PUSH1 0x3 MUL ADD PUSH1 0x40 MLOAD DUP1 PUSH1 0x60 ADD PUSH1 0x40 MSTORE SWAP1 DUP2 PUSH1 0x0 DUP3 ADD SLOAD DUP2 MSTORE PUSH1 0x20 ADD PUSH1 0x1 DUP3 ADD SLOAD DUP2 MSTORE PUSH1 0x20 ADD PUSH1 0x2 DUP3 ADD SLOAD DUP2 MSTORE POP POP DUP2 MSTORE PUSH1 0x20 ADD SWAP1 PUSH1 0x1 ADD SWAP1 PUSH2 0x1BE1 JUMP JUMPDEST POP POP POP POP DUP2 MSTORE PUSH1 0x20 ADD PUSH1 0x1 DUP3 ADD DUP1 SLOAD DUP1 PUSH1 0x20 MUL PUSH1 0x20 ADD PUSH1 0x40 MLOAD SWAP1 DUP2 ADD PUSH1 0x40 MSTORE DUP1 SWAP3 SWAP2 SWAP1 DUP2 DUP2 MSTORE PUSH1 0x20 ADD DUP3 DUP1 SLOAD DUP1 ISZERO PUSH2 0x1C88 JUMPI PUSH1 0x20 MUL DUP3 ADD SWAP2 SWAP1 PUSH1 0x0 MSTORE PUSH1 0x20 PUSH1 0x0 KECCAK256 SWAP1 JUMPDEST DUP2 SLOAD DUP2 MSTORE PUSH1 0x20 ADD SWAP1 PUSH1 0x1 ADD SWAP1 DUP1 DUP4 GT PUSH2 0x1C74 JUMPI JUMPDEST POP POP POP POP POP DUP2 MSTORE POP POP SWAP1 POP SWAP1 JUMP JUMPDEST PUSH2 0x1C9E PUSH2 0x1E8F JUMP JUMPDEST PUSH1 0x0 PUSH20 0xFFFFFFFFFFFFFFFFFFFFFFFFFFFFFFFFFFFFFFFF AND DUP2 PUSH20 0xFFFFFFFFFFFFFFFFFFFFFFFFFFFFFFFFFFFFFFFF AND SUB PUSH2 0x1D0D JUMPI PUSH1 0x40 MLOAD PUSH32 0x8C379A000000000000000000000000000000000000000000000000000000000 DUP2 MSTORE PUSH1 0x4 ADD PUSH2 0x1D04 SWAP1 PUSH2 0x3C37 JUMP JUMPDEST PUSH1 0x40 MLOAD DUP1 SWAP2 SUB SWAP1 REVERT JUMPDEST PUSH2 0x1D16 DUP2 PUSH2 0x1F0D JUMP JUMPDEST POP JUMP JUMPDEST PUSH1 0x60 PUSH1 0x0 PUSH1 0x1 PUSH2 0x1D28 DUP5 PUSH2 0x262E JUMP JUMPDEST ADD SWAP1 POP PUSH1 0x0 DUP2 PUSH8 0xFFFFFFFFFFFFFFFF DUP2 GT ISZERO PUSH2 0x1D47 JUMPI PUSH2 0x1D46 PUSH2 0x3C57 JUMP JUMPDEST JUMPDEST PUSH1 0x40 MLOAD SWAP1 DUP1 DUP3 MSTORE DUP1 PUSH1 0x1F ADD PUSH1 0x1F NOT AND PUSH1 0x20 ADD DUP3 ADD PUSH1 0x40 MSTORE DUP1 ISZERO PUSH2 0x1D79 JUMPI DUP2 PUSH1 0x20 ADD PUSH1 0x1 DUP3 MUL DUP1 CALLDATASIZE DUP4 CALLDATACOPY DUP1 DUP3 ADD SWAP2 POP POP SWAP1 POP JUMPDEST POP SWAP1 POP PUSH1 0x0 DUP3 PUSH1 0x20 ADD DUP3 ADD SWAP1 POP JUMPDEST PUSH1 0x1 ISZERO PUSH2 0x1DDC JUMPI DUP1 DUP1 PUSH1 0x1 SWAP1 SUB SWAP2 POP POP PUSH32 0x3031323334353637383961626364656600000000000000000000000000000000 PUSH1 0xA DUP7 MOD BYTE DUP2 MSTORE8 PUSH1 0xA DUP6 DUP2 PUSH2 0x1DD0 JUMPI PUSH2 0x1DCF PUSH2 0x3C86 JUMP JUMPDEST JUMPDEST DIV SWAP5 POP PUSH1 0x0 DUP6 SUB PUSH2 0x1D87 JUMPI JUMPDEST DUP2 SWAP4 POP POP POP POP SWAP2 SWAP1 POP JUMP JUMPDEST PUSH1 0x0 DUP1 PUSH2 0x1DF5 CALLER DUP6 DUP6 PUSH2 0x2781 JUMP JUMPDEST SWAP1 POP PUSH2 0x1E02 CALLER DUP6 DUP4 PUSH2 0x29A9 JUMP JUMPDEST PUSH1 0x40 MLOAD DUP1 PUSH1 0x40 ADD PUSH1 0x40 MSTORE DUP1 PUSH1 0xF DUP2 MSTORE PUSH1 0x20 ADD PUSH32 0x5761726E696E67203A205661756C740000000000000000000000000000000000 DUP2 MSTORE POP SWAP1 PUSH2 0x1E79 JUMPI PUSH1 0x40 MLOAD PUSH32 0x8C379A000000000000000000000000000000000000000000000000000000000 DUP2 MSTORE PUSH1 0x4 ADD PUSH2 0x1E70 SWAP2 SWAP1 PUSH2 0x3493 JUMP JUMPDEST PUSH1 0x40 MLOAD DUP1 SWAP2 SUB SWAP1 REVERT JUMPDEST POP PUSH2 0x1E84 PUSH1 0x1 PUSH2 0x2AE2 JUMP JUMPDEST PUSH1 0x1 SWAP2 POP POP SWAP3 SWAP2 POP POP JUMP JUMPDEST PUSH2 0x1E97 PUSH2 0x2AF8 JUMP JUMPDEST PUSH20 0xFFFFFFFFFFFFFFFFFFFFFFFFFFFFFFFFFFFFFFFF AND PUSH2 0x1EB5 PUSH2 0x170D JUMP JUMPDEST PUSH20 0xFFFFFFFFFFFFFFFFFFFFFFFFFFFFFFFFFFFFFFFF AND EQ PUSH2 0x1F0B JUMPI PUSH1 0x40 MLOAD PUSH32 0x8C379A000000000000000000000000000000000000000000000000000000000 DUP2 MSTORE PUSH1 0x4 ADD PUSH2 0x1F02 SWAP1 PUSH2 0x3D01 JUMP JUMPDEST PUSH1 0x40 MLOAD DUP1 SWAP2 SUB SWAP1 REVERT JUMPDEST JUMP JUMPDEST PUSH1 0x0 DUP1 PUSH1 0x1 SWAP1 SLOAD SWAP1 PUSH2 0x100 EXP SWAP1 DIV PUSH20 0xFFFFFFFFFFFFFFFFFFFFFFFFFFFFFFFFFFFFFFFF AND SWAP1 POP DUP2 PUSH1 0x0 PUSH1 0x1 PUSH2 0x100 EXP DUP2 SLOAD DUP2 PUSH20 0xFFFFFFFFFFFFFFFFFFFFFFFFFFFFFFFFFFFFFFFF MUL NOT AND SWAP1 DUP4 PUSH20 0xFFFFFFFFFFFFFFFFFFFFFFFFFFFFFFFFFFFFFFFF AND MUL OR SWAP1 SSTORE POP DUP2 PUSH20 0xFFFFFFFFFFFFFFFFFFFFFFFFFFFFFFFFFFFFFFFF AND DUP2 PUSH20 0xFFFFFFFFFFFFFFFFFFFFFFFFFFFFFFFFFFFFFFFF AND PUSH32 0x8BE0079C531659141344CD1FD0A4F28419497F9722A3DAAFE3B4186F6B6457E0 PUSH1 0x40 MLOAD PUSH1 0x40 MLOAD DUP1 SWAP2 SUB SWAP1 LOG3 POP POP JUMP JUMPDEST PUSH1 0x0 DUP2 DUP4 PUSH2 0x1FE0 SWAP2 SWAP1 PUSH2 0x3D21 JUMP JUMPDEST SWAP1 POP SWAP3 SWAP2 POP POP JUMP JUMPDEST PUSH1 0x0 DUP1 PUSH1 0x0 JUMPDEST PUSH1 0xE PUSH1 0x0 DUP6 PUSH20 0xFFFFFFFFFFFFFFFFFFFFFFFFFFFFFFFFFFFFFFFF AND PUSH20 0xFFFFFFFFFFFFFFFFFFFFFFFFFFFFFFFFFFFFFFFF AND DUP2 MSTORE PUSH1 0x20 ADD SWAP1 DUP2 MSTORE PUSH1 0x20 ADD PUSH1 0x0 KECCAK256 PUSH1 0x0 ADD DUP1 SLOAD SWAP1 POP DUP2 LT ISZERO PUSH2 0x20C6 JUMPI DUP5 PUSH1 0xE PUSH1 0x0 DUP7 PUSH20 0xFFFFFFFFFFFFFFFFFFFFFFFFFFFFFFFFFFFFFFFF AND PUSH20 0xFFFFFFFFFFFFFFFFFFFFFFFFFFFFFFFFFFFFFFFF AND DUP2 MSTORE PUSH1 0x20 ADD SWAP1 DUP2 MSTORE PUSH1 0x20 ADD PUSH1 0x0 KECCAK256 PUSH1 0x0 ADD DUP3 DUP2 SLOAD DUP2 LT PUSH2 0x2090 JUMPI PUSH2 0x208F PUSH2 0x3D63 JUMP JUMPDEST JUMPDEST SWAP1 PUSH1 0x0 MSTORE PUSH1 0x20 PUSH1 0x0 KECCAK256 SWAP1 PUSH1 0x3 MUL ADD PUSH1 0x2 ADD SLOAD SUB PUSH2 0x20B3 JUMPI DUP1 SWAP3 POP PUSH1 0x1 SWAP2 POP PUSH2 0x20C6 JUMP JUMPDEST DUP1 DUP1 PUSH2 0x20BE SWAP1 PUSH2 0x3D92 JUMP JUMPDEST SWAP2 POP POP PUSH2 0x1FEE JUMP JUMPDEST POP DUP1 ISZERO PUSH2 0x2287 JUMPI PUSH1 0xE PUSH1 0x0 DUP5 PUSH20 0xFFFFFFFFFFFFFFFFFFFFFFFFFFFFFFFFFFFFFFFF AND PUSH20 0xFFFFFFFFFFFFFFFFFFFFFFFFFFFFFFFFFFFFFFFF AND DUP2 MSTORE PUSH1 0x20 ADD SWAP1 DUP2 MSTORE PUSH1 0x20 ADD PUSH1 0x0 KECCAK256 PUSH1 0x0 ADD PUSH1 0x1 PUSH1 0xE PUSH1 0x0 DUP7 PUSH20 0xFFFFFFFFFFFFFFFFFFFFFFFFFFFFFFFFFFFFFFFF AND PUSH20 0xFFFFFFFFFFFFFFFFFFFFFFFFFFFFFFFFFFFFFFFF AND DUP2 MSTORE PUSH1 0x20 ADD SWAP1 DUP2 MSTORE PUSH1 0x20 ADD PUSH1 0x0 KECCAK256 PUSH1 0x0 ADD DUP1 SLOAD SWAP1 POP PUSH2 0x2161 SWAP2 SWAP1 PUSH2 0x3A93 JUMP JUMPDEST DUP2 SLOAD DUP2 LT PUSH2 0x2172 JUMPI PUSH2 0x2171 PUSH2 0x3D63 JUMP JUMPDEST JUMPDEST SWAP1 PUSH1 0x0 MSTORE PUSH1 0x20 PUSH1 0x0 KECCAK256 SWAP1 PUSH1 0x3 MUL ADD PUSH1 0xE PUSH1 0x0 DUP6 PUSH20 0xFFFFFFFFFFFFFFFFFFFFFFFFFFFFFFFFFFFFFFFF AND PUSH20 0xFFFFFFFFFFFFFFFFFFFFFFFFFFFFFFFFFFFFFFFF AND DUP2 MSTORE PUSH1 0x20 ADD SWAP1 DUP2 MSTORE PUSH1 0x20 ADD PUSH1 0x0 KECCAK256 PUSH1 0x0 ADD DUP4 DUP2 SLOAD DUP2 LT PUSH2 0x21D4 JUMPI PUSH2 0x21D3 PUSH2 0x3D63 JUMP JUMPDEST JUMPDEST SWAP1 PUSH1 0x0 MSTORE PUSH1 0x20 PUSH1 0x0 KECCAK256 SWAP1 PUSH1 0x3 MUL ADD PUSH1 0x0 DUP3 ADD SLOAD DUP2 PUSH1 0x0 ADD SSTORE PUSH1 0x1 DUP3 ADD SLOAD DUP2 PUSH1 0x1 ADD SSTORE PUSH1 0x2 DUP3 ADD SLOAD DUP2 PUSH1 0x2 ADD SSTORE SWAP1 POP POP PUSH1 0xE PUSH1 0x0 DUP5 PUSH20 0xFFFFFFFFFFFFFFFFFFFFFFFFFFFFFFFFFFFFFFFF AND PUSH20 0xFFFFFFFFFFFFFFFFFFFFFFFFFFFFFFFFFFFFFFFF AND DUP2 MSTORE PUSH1 0x20 ADD SWAP1 DUP2 MSTORE PUSH1 0x20 ADD PUSH1 0x0 KECCAK256 PUSH1 0x0 ADD DUP1 SLOAD DUP1 PUSH2 0x2255 JUMPI PUSH2 0x2254 PUSH2 0x3DDA JUMP JUMPDEST JUMPDEST PUSH1 0x1 SWAP1 SUB DUP2 DUP2 SWAP1 PUSH1 0x0 MSTORE PUSH1 0x20 PUSH1 0x0 KECCAK256 SWAP1 PUSH1 0x3 MUL ADD PUSH1 0x0 DUP1 DUP3 ADD PUSH1 0x0 SWAP1 SSTORE PUSH1 0x1 DUP3 ADD PUSH1 0x0 SWAP1 SSTORE PUSH1 0x2 DUP3 ADD PUSH1 0x0 SWAP1 SSTORE POP POP SWAP1 SSTORE JUMPDEST PUSH1 0x0 JUMPDEST PUSH1 0x6 PUSH1 0x0 DUP6 PUSH20 0xFFFFFFFFFFFFFFFFFFFFFFFFFFFFFFFFFFFFFFFF AND PUSH20 0xFFFFFFFFFFFFFFFFFFFFFFFFFFFFFFFFFFFFFFFF AND DUP2 MSTORE PUSH1 0x20 ADD SWAP1 DUP2 MSTORE PUSH1 0x20 ADD PUSH1 0x0 KECCAK256 PUSH1 0x0 ADD DUP1 SLOAD SWAP1 POP DUP2 LT ISZERO PUSH2 0x2502 JUMPI DUP5 PUSH1 0x6 PUSH1 0x0 DUP7 PUSH20 0xFFFFFFFFFFFFFFFFFFFFFFFFFFFFFFFFFFFFFFFF AND PUSH20 0xFFFFFFFFFFFFFFFFFFFFFFFFFFFFFFFFFFFFFFFF AND DUP2 MSTORE PUSH1 0x20 ADD SWAP1 DUP2 MSTORE PUSH1 0x20 ADD PUSH1 0x0 KECCAK256 PUSH1 0x0 ADD DUP3 DUP2 SLOAD DUP2 LT PUSH2 0x232C JUMPI PUSH2 0x232B PUSH2 0x3D63 JUMP JUMPDEST JUMPDEST SWAP1 PUSH1 0x0 MSTORE PUSH1 0x20 PUSH1 0x0 KECCAK256 SWAP1 PUSH1 0x2 MUL ADD PUSH1 0x0 ADD SLOAD SUB PUSH2 0x24EF JUMPI PUSH1 0x6 PUSH1 0x0 DUP6 PUSH20 0xFFFFFFFFFFFFFFFFFFFFFFFFFFFFFFFFFFFFFFFF AND PUSH20 0xFFFFFFFFFFFFFFFFFFFFFFFFFFFFFFFFFFFFFFFF AND DUP2 MSTORE PUSH1 0x20 ADD SWAP1 DUP2 MSTORE PUSH1 0x20 ADD PUSH1 0x0 KECCAK256 PUSH1 0x0 ADD PUSH1 0x1 PUSH1 0x6 PUSH1 0x0 DUP8 PUSH20 0xFFFFFFFFFFFFFFFFFFFFFFFFFFFFFFFFFFFFFFFF AND PUSH20 0xFFFFFFFFFFFFFFFFFFFFFFFFFFFFFFFFFFFFFFFF AND DUP2 MSTORE PUSH1 0x20 ADD SWAP1 DUP2 MSTORE PUSH1 0x20 ADD PUSH1 0x0 KECCAK256 PUSH1 0x0 ADD DUP1 SLOAD SWAP1 POP PUSH2 0x23D7 SWAP2 SWAP1 PUSH2 0x3A93 JUMP JUMPDEST DUP2 SLOAD DUP2 LT PUSH2 0x23E8 JUMPI PUSH2 0x23E7 PUSH2 0x3D63 JUMP JUMPDEST JUMPDEST SWAP1 PUSH1 0x0 MSTORE PUSH1 0x20 PUSH1 0x0 KECCAK256 SWAP1 PUSH1 0x2 MUL ADD PUSH1 0x6 PUSH1 0x0 DUP7 PUSH20 0xFFFFFFFFFFFFFFFFFFFFFFFFFFFFFFFFFFFFFFFF AND PUSH20 0xFFFFFFFFFFFFFFFFFFFFFFFFFFFFFFFFFFFFFFFF AND DUP2 MSTORE PUSH1 0x20 ADD SWAP1 DUP2 MSTORE PUSH1 0x20 ADD PUSH1 0x0 KECCAK256 PUSH1 0x0 ADD DUP3 DUP2 SLOAD DUP2 LT PUSH2 0x244A JUMPI PUSH2 0x2449 PUSH2 0x3D63 JUMP JUMPDEST JUMPDEST SWAP1 PUSH1 0x0 MSTORE PUSH1 0x20 PUSH1 0x0 KECCAK256 SWAP1 PUSH1 0x2 MUL ADD PUSH1 0x0 DUP3 ADD SLOAD DUP2 PUSH1 0x0 ADD SSTORE PUSH1 0x1 DUP3 ADD SLOAD DUP2 PUSH1 0x1 ADD SSTORE SWAP1 POP POP PUSH1 0x6 PUSH1 0x0 DUP6 PUSH20 0xFFFFFFFFFFFFFFFFFFFFFFFFFFFFFFFFFFFFFFFF AND PUSH20 0xFFFFFFFFFFFFFFFFFFFFFFFFFFFFFFFFFFFFFFFF AND DUP2 MSTORE PUSH1 0x20 ADD SWAP1 DUP2 MSTORE PUSH1 0x20 ADD PUSH1 0x0 KECCAK256 PUSH1 0x0 ADD DUP1 SLOAD DUP1 PUSH2 0x24C1 JUMPI PUSH2 0x24C0 PUSH2 0x3DDA JUMP JUMPDEST JUMPDEST PUSH1 0x1 SWAP1 SUB DUP2 DUP2 SWAP1 PUSH1 0x0 MSTORE PUSH1 0x20 PUSH1 0x0 KECCAK256 SWAP1 PUSH1 0x2 MUL ADD PUSH1 0x0 DUP1 DUP3 ADD PUSH1 0x0 SWAP1 SSTORE PUSH1 0x1 DUP3 ADD PUSH1 0x0 SWAP1 SSTORE POP POP SWAP1 SSTORE PUSH2 0x2502 JUMP JUMPDEST DUP1 DUP1 PUSH2 0x24FA SWAP1 PUSH2 0x3D92 JUMP JUMPDEST SWAP2 POP POP PUSH2 0x228A JUMP JUMPDEST POP PUSH1 0x7 PUSH1 0x0 DUP6 DUP2 MSTORE PUSH1 0x20 ADD SWAP1 DUP2 MSTORE PUSH1 0x20 ADD PUSH1 0x0 KECCAK256 PUSH1 0x0 SWAP1 SSTORE PUSH1 0x8 PUSH1 0x0 DUP6 DUP2 MSTORE PUSH1 0x20 ADD SWAP1 DUP2 MSTORE PUSH1 0x20 ADD PUSH1 0x0 KECCAK256 PUSH1 0x0 PUSH2 0x100 EXP DUP2 SLOAD SWAP1 PUSH20 0xFFFFFFFFFFFFFFFFFFFFFFFFFFFFFFFFFFFFFFFF MUL NOT AND SWAP1 SSTORE POP POP POP POP JUMP JUMPDEST PUSH2 0x25EC DUP2 PUSH1 0x40 MLOAD PUSH1 0x24 ADD PUSH2 0x256A SWAP2 SWAP1 PUSH2 0x30F7 JUMP JUMPDEST PUSH1 0x40 MLOAD PUSH1 0x20 DUP2 DUP4 SUB SUB DUP2 MSTORE SWAP1 PUSH1 0x40 MSTORE PUSH32 0x2C2ECBC200000000000000000000000000000000000000000000000000000000 PUSH28 0xFFFFFFFFFFFFFFFFFFFFFFFFFFFFFFFFFFFFFFFFFFFFFFFFFFFFFFFF NOT AND PUSH1 0x20 DUP3 ADD DUP1 MLOAD PUSH28 0xFFFFFFFFFFFFFFFFFFFFFFFFFFFFFFFFFFFFFFFFFFFFFFFFFFFFFFFF DUP4 DUP2 DUP4 AND OR DUP4 MSTORE POP POP POP POP PUSH2 0x2B00 JUMP JUMPDEST POP JUMP JUMPDEST PUSH1 0x0 DUP2 PUSH1 0xA PUSH1 0x0 ADD PUSH1 0x0 DUP3 DUP3 SLOAD PUSH2 0x2606 SWAP2 SWAP1 PUSH2 0x3E09 JUMP JUMPDEST SWAP3 POP POP DUP2 SWAP1 SSTORE POP TIMESTAMP PUSH1 0xA PUSH1 0x1 ADD DUP2 SWAP1 SSTORE POP PUSH1 0x1 SWAP1 POP SWAP2 SWAP1 POP JUMP JUMPDEST PUSH1 0x0 DUP2 PUSH1 0x0 ADD SLOAD SWAP1 POP SWAP2 SWAP1 POP JUMP JUMPDEST PUSH1 0x0 DUP1 PUSH1 0x0 SWAP1 POP PUSH27 0x184F03E93FF9F4DAA797ED6E38ED64BF6A1F010000000000000000 DUP4 LT PUSH2 0x268C JUMPI PUSH27 0x184F03E93FF9F4DAA797ED6E38ED64BF6A1F010000000000000000 DUP4 DUP2 PUSH2 0x2682 JUMPI PUSH2 0x2681 PUSH2 0x3C86 JUMP JUMPDEST JUMPDEST DIV SWAP3 POP PUSH1 0x40 DUP2 ADD SWAP1 POP JUMPDEST PUSH14 0x4EE2D6D415B85ACEF8100000000 DUP4 LT PUSH2 0x26C9 JUMPI PUSH14 0x4EE2D6D415B85ACEF8100000000 DUP4 DUP2 PUSH2 0x26BF JUMPI PUSH2 0x26BE PUSH2 0x3C86 JUMP JUMPDEST JUMPDEST DIV SWAP3 POP PUSH1 0x20 DUP2 ADD SWAP1 POP JUMPDEST PUSH7 0x2386F26FC10000 DUP4 LT PUSH2 0x26F8 JUMPI PUSH7 0x2386F26FC10000 DUP4 DUP2 PUSH2 0x26EE JUMPI PUSH2 0x26ED PUSH2 0x3C86 JUMP JUMPDEST JUMPDEST DIV SWAP3 POP PUSH1 0x10 DUP2 ADD SWAP1 POP JUMPDEST PUSH4 0x5F5E100 DUP4 LT PUSH2 0x2721 JUMPI PUSH4 0x5F5E100 DUP4 DUP2 PUSH2 0x2717 JUMPI PUSH2 0x2716 PUSH2 0x3C86 JUMP JUMPDEST JUMPDEST DIV SWAP3 POP PUSH1 0x8 DUP2 ADD SWAP1 POP JUMPDEST PUSH2 0x2710 DUP4 LT PUSH2 0x2746 JUMPI PUSH2 0x2710 DUP4 DUP2 PUSH2 0x273C JUMPI PUSH2 0x273B PUSH2 0x3C86 JUMP JUMPDEST JUMPDEST DIV SWAP3 POP PUSH1 0x4 DUP2 ADD SWAP1 POP JUMPDEST PUSH1 0x64 DUP4 LT PUSH2 0x2769 JUMPI PUSH1 0x64 DUP4 DUP2 PUSH2 0x275F JUMPI PUSH2 0x275E PUSH2 0x3C86 JUMP JUMPDEST JUMPDEST DIV SWAP3 POP PUSH1 0x2 DUP2 ADD SWAP1 POP JUMPDEST PUSH1 0xA DUP4 LT PUSH2 0x2778 JUMPI PUSH1 0x1 DUP2 ADD SWAP1 POP JUMPDEST DUP1 SWAP2 POP POP SWAP2 SWAP1 POP JUMP JUMPDEST PUSH1 0x0 DUP1 PUSH1 0x0 SWAP1 SLOAD SWAP1 PUSH2 0x100 EXP SWAP1 DIV PUSH1 0xFF AND ISZERO PUSH2 0x27D2 JUMPI PUSH1 0x40 MLOAD PUSH32 0x8C379A000000000000000000000000000000000000000000000000000000000 DUP2 MSTORE PUSH1 0x4 ADD PUSH2 0x27C9 SWAP1 PUSH2 0x37BF JUMP JUMPDEST PUSH1 0x40 MLOAD DUP1 SWAP2 SUB SWAP1 REVERT JUMPDEST PUSH1 0x1 PUSH1 0x0 DUP1 PUSH2 0x100 EXP DUP2 SLOAD DUP2 PUSH1 0xFF MUL NOT AND SWAP1 DUP4 ISZERO ISZERO MUL OR SWAP1 SSTORE POP PUSH1 0x0 PUSH1 0x3 PUSH1 0x0 SWAP1 SLOAD SWAP1 PUSH2 0x100 EXP SWAP1 DIV PUSH20 0xFFFFFFFFFFFFFFFFFFFFFFFFFFFFFFFFFFFFFFFF AND PUSH20 0xFFFFFFFFFFFFFFFFFFFFFFFFFFFFFFFFFFFFFFFF AND PUSH4 0xF42C69D6 DUP7 DUP6 PUSH1 0x40 MLOAD DUP4 PUSH4 0xFFFFFFFF AND PUSH1 0xE0 SHL DUP2 MSTORE PUSH1 0x4 ADD PUSH2 0x284B SWAP3 SWAP2 SWAP1 PUSH2 0x3E3D JUMP JUMPDEST PUSH1 0x20 PUSH1 0x40 MLOAD DUP1 DUP4 SUB DUP2 PUSH1 0x0 DUP8 GAS CALL ISZERO DUP1 ISZERO PUSH2 0x286A JUMPI RETURNDATASIZE PUSH1 0x0 DUP1 RETURNDATACOPY RETURNDATASIZE PUSH1 0x0 REVERT JUMPDEST POP POP POP POP PUSH1 0x40 MLOAD RETURNDATASIZE PUSH1 0x1F NOT PUSH1 0x1F DUP3 ADD AND DUP3 ADD DUP1 PUSH1 0x40 MSTORE POP DUP2 ADD SWAP1 PUSH2 0x288E SWAP2 SWAP1 PUSH2 0x3889 JUMP JUMPDEST SWAP1 POP PUSH1 0x6 PUSH1 0x0 DUP7 PUSH20 0xFFFFFFFFFFFFFFFFFFFFFFFFFFFFFFFFFFFFFFFF AND PUSH20 0xFFFFFFFFFFFFFFFFFFFFFFFFFFFFFFFFFFFFFFFF AND DUP2 MSTORE PUSH1 0x20 ADD SWAP1 DUP2 MSTORE PUSH1 0x20 ADD PUSH1 0x0 KECCAK256 PUSH1 0x0 ADD PUSH1 0x40 MLOAD DUP1 PUSH1 0x40 ADD PUSH1 0x40 MSTORE DUP1 DUP4 DUP2 MSTORE PUSH1 0x20 ADD TIMESTAMP DUP2 MSTORE POP SWAP1 DUP1 PUSH1 0x1 DUP2 SLOAD ADD DUP1 DUP3 SSTORE DUP1 SWAP2 POP POP PUSH1 0x1 SWAP1 SUB SWAP1 PUSH1 0x0 MSTORE PUSH1 0x20 PUSH1 0x0 KECCAK256 SWAP1 PUSH1 0x2 MUL ADD PUSH1 0x0 SWAP1 SWAP2 SWAP1 SWAP2 SWAP1 SWAP2 POP PUSH1 0x0 DUP3 ADD MLOAD DUP2 PUSH1 0x0 ADD SSTORE PUSH1 0x20 DUP3 ADD MLOAD DUP2 PUSH1 0x1 ADD SSTORE POP POP PUSH2 0x2931 CALLER DUP6 DUP4 PUSH2 0x29A9 JUMP JUMPDEST POP DUP5 PUSH1 0x8 PUSH1 0x0 DUP4 DUP2 MSTORE PUSH1 0x20 ADD SWAP1 DUP2 MSTORE PUSH1 0x20 ADD PUSH1 0x0 KECCAK256 PUSH1 0x0 PUSH2 0x100 EXP DUP2 SLOAD DUP2 PUSH20 0xFFFFFFFFFFFFFFFFFFFFFFFFFFFFFFFFFFFFFFFF MUL NOT AND SWAP1 DUP4 PUSH20 0xFFFFFFFFFFFFFFFFFFFFFFFFFFFFFFFFFFFFFFFF AND MUL OR SWAP1 SSTORE POP DUP1 SWAP2 POP POP PUSH1 0x0 DUP1 PUSH1 0x0 PUSH2 0x100 EXP DUP2 SLOAD DUP2 PUSH1 0xFF MUL NOT AND SWAP1 DUP4 ISZERO ISZERO MUL OR SWAP1 SSTORE POP SWAP4 SWAP3 POP POP POP JUMP JUMPDEST PUSH1 0x0 DUP1 PUSH1 0xE PUSH1 0x0 DUP7 PUSH20 0xFFFFFFFFFFFFFFFFFFFFFFFFFFFFFFFFFFFFFFFF AND PUSH20 0xFFFFFFFFFFFFFFFFFFFFFFFFFFFFFFFFFFFFFFFF AND DUP2 MSTORE PUSH1 0x20 ADD SWAP1 DUP2 MSTORE PUSH1 0x20 ADD PUSH1 0x0 KECCAK256 PUSH1 0x0 ADD SWAP1 POP DUP1 PUSH1 0x40 MLOAD DUP1 PUSH1 0x60 ADD PUSH1 0x40 MSTORE DUP1 DUP7 DUP2 MSTORE PUSH1 0x20 ADD TIMESTAMP DUP2 MSTORE PUSH1 0x20 ADD DUP6 DUP2 MSTORE POP SWAP1 DUP1 PUSH1 0x1 DUP2 SLOAD ADD DUP1 DUP3 SSTORE DUP1 SWAP2 POP POP PUSH1 0x1 SWAP1 SUB SWAP1 PUSH1 0x0 MSTORE PUSH1 0x20 PUSH1 0x0 KECCAK256 SWAP1 PUSH1 0x3 MUL ADD PUSH1 0x0 SWAP1 SWAP2 SWAP1 SWAP2 SWAP1 SWAP2 POP PUSH1 0x0 DUP3 ADD MLOAD DUP2 PUSH1 0x0 ADD SSTORE PUSH1 0x20 DUP3 ADD MLOAD DUP2 PUSH1 0x1 ADD SSTORE PUSH1 0x40 DUP3 ADD MLOAD DUP2 PUSH1 0x2 ADD SSTORE POP POP PUSH1 0xE PUSH1 0x0 DUP7 PUSH20 0xFFFFFFFFFFFFFFFFFFFFFFFFFFFFFFFFFFFFFFFF AND PUSH20 0xFFFFFFFFFFFFFFFFFFFFFFFFFFFFFFFFFFFFFFFF AND DUP2 MSTORE PUSH1 0x20 ADD SWAP1 DUP2 MSTORE PUSH1 0x20 ADD PUSH1 0x0 KECCAK256 PUSH1 0x1 ADD DUP4 SWAP1 DUP1 PUSH1 0x1 DUP2 SLOAD ADD DUP1 DUP3 SSTORE DUP1 SWAP2 POP POP PUSH1 0x1 SWAP1 SUB SWAP1 PUSH1 0x0 MSTORE PUSH1 0x20 PUSH1 0x0 KECCAK256 ADD PUSH1 0x0 SWAP1 SWAP2 SWAP1 SWAP2 SWAP1 SWAP2 POP SSTORE DUP4 PUSH1 0x7 PUSH1 0x0 DUP6 DUP2 MSTORE PUSH1 0x20 ADD SWAP1 DUP2 MSTORE PUSH1 0x20 ADD PUSH1 0x0 KECCAK256 DUP2 SWAP1 SSTORE POP PUSH1 0x1 SWAP2 POP POP SWAP4 SWAP3 POP POP POP JUMP JUMPDEST PUSH1 0x1 DUP2 PUSH1 0x0 ADD PUSH1 0x0 DUP3 DUP3 SLOAD ADD SWAP3 POP POP DUP2 SWAP1 SSTORE POP POP JUMP JUMPDEST PUSH1 0x0 CALLER SWAP1 POP SWAP1 JUMP JUMPDEST PUSH1 0x0 PUSH11 0x636F6E736F6C652E6C6F67 SWAP1 POP PUSH1 0x0 DUP1 DUP4 MLOAD PUSH1 0x20 DUP6 ADD DUP5 GAS STATICCALL POP POP POP JUMP JUMPDEST PUSH1 0x40 MLOAD DUP1 PUSH1 0x40 ADD PUSH1 0x40 MSTORE DUP1 PUSH1 0x60 DUP2 MSTORE PUSH1 0x20 ADD PUSH1 0x60 DUP2 MSTORE POP SWAP1 JUMP JUMPDEST PUSH1 0x0 DUP2 SWAP1 POP SWAP2 SWAP1 POP JUMP JUMPDEST PUSH2 0x2B4E DUP2 PUSH2 0x2B3B JUMP JUMPDEST DUP3 MSTORE POP POP JUMP JUMPDEST PUSH1 0x0 PUSH1 0x20 DUP3 ADD SWAP1 POP PUSH2 0x2B69 PUSH1 0x0 DUP4 ADD DUP5 PUSH2 0x2B45 JUMP JUMPDEST SWAP3 SWAP2 POP POP JUMP JUMPDEST PUSH1 0x0 PUSH1 0x40 DUP3 ADD SWAP1 POP PUSH2 0x2B84 PUSH1 0x0 DUP4 ADD DUP6 PUSH2 0x2B45 JUMP JUMPDEST PUSH2 0x2B91 PUSH1 0x20 DUP4 ADD DUP5 PUSH2 0x2B45 JUMP JUMPDEST SWAP4 SWAP3 POP POP POP JUMP JUMPDEST PUSH1 0x0 DUP1 REVERT JUMPDEST PUSH1 0x0 DUP1 REVERT JUMPDEST PUSH1 0x0 PUSH20 0xFFFFFFFFFFFFFFFFFFFFFFFFFFFFFFFFFFFFFFFF DUP3 AND SWAP1 POP SWAP2 SWAP1 POP JUMP JUMPDEST PUSH1 0x0 PUSH2 0x2BCD DUP3 PUSH2 0x2BA2 JUMP JUMPDEST SWAP1 POP SWAP2 SWAP1 POP JUMP JUMPDEST PUSH2 0x2BDD DUP2 PUSH2 0x2BC2 JUMP JUMPDEST DUP2 EQ PUSH2 0x2BE8 JUMPI PUSH1 0x0 DUP1 REVERT JUMPDEST POP JUMP JUMPDEST PUSH1 0x0 DUP2 CALLDATALOAD SWAP1 POP PUSH2 0x2BFA DUP2 PUSH2 0x2BD4 JUMP JUMPDEST SWAP3 SWAP2 POP POP JUMP JUMPDEST PUSH2 0x2C09 DUP2 PUSH2 0x2B3B JUMP JUMPDEST DUP2 EQ PUSH2 0x2C14 JUMPI PUSH1 0x0 DUP1 REVERT JUMPDEST POP JUMP JUMPDEST PUSH1 0x0 DUP2 CALLDATALOAD SWAP1 POP PUSH2 0x2C26 DUP2 PUSH2 0x2C00 JUMP JUMPDEST SWAP3 SWAP2 POP POP JUMP JUMPDEST PUSH1 0x0 DUP1 REVERT JUMPDEST PUSH1 0x0 DUP1 REVERT JUMPDEST PUSH1 0x0 DUP1 REVERT JUMPDEST PUSH1 0x0 DUP1 DUP4 PUSH1 0x1F DUP5 ADD SLT PUSH2 0x2C51 JUMPI PUSH2 0x2C50 PUSH2 0x2C2C JUMP JUMPDEST JUMPDEST DUP3 CALLDATALOAD SWAP1 POP PUSH8 0xFFFFFFFFFFFFFFFF DUP2 GT ISZERO PUSH2 0x2C6E JUMPI PUSH2 0x2C6D PUSH2 0x2C31 JUMP JUMPDEST JUMPDEST PUSH1 0x20 DUP4 ADD SWAP2 POP DUP4 PUSH1 0x1 DUP3 MUL DUP4 ADD GT ISZERO PUSH2 0x2C8A JUMPI PUSH2 0x2C89 PUSH2 0x2C36 JUMP JUMPDEST JUMPDEST SWAP3 POP SWAP3 SWAP1 POP JUMP JUMPDEST PUSH1 0x0 DUP1 PUSH1 0x0 DUP1 PUSH1 0x0 PUSH1 0x80 DUP7 DUP9 SUB SLT ISZERO PUSH2 0x2CAD JUMPI PUSH2 0x2CAC PUSH2 0x2B98 JUMP JUMPDEST JUMPDEST PUSH1 0x0 PUSH2 0x2CBB DUP9 DUP3 DUP10 ADD PUSH2 0x2BEB JUMP JUMPDEST SWAP6 POP POP PUSH1 0x20 PUSH2 0x2CCC DUP9 DUP3 DUP10 ADD PUSH2 0x2BEB JUMP JUMPDEST SWAP5 POP POP PUSH1 0x40 PUSH2 0x2CDD DUP9 DUP3 DUP10 ADD PUSH2 0x2C17 JUMP JUMPDEST SWAP4 POP POP PUSH1 0x60 DUP7 ADD CALLDATALOAD PUSH8 0xFFFFFFFFFFFFFFFF DUP2 GT ISZERO PUSH2 0x2CFE JUMPI PUSH2 0x2CFD PUSH2 0x2B9D JUMP JUMPDEST JUMPDEST PUSH2 0x2D0A DUP9 DUP3 DUP10 ADD PUSH2 0x2C3B JUMP JUMPDEST SWAP3 POP SWAP3 POP POP SWAP3 SWAP6 POP SWAP3 SWAP6 SWAP1 SWAP4 POP JUMP JUMPDEST PUSH1 0x0 PUSH32 0xFFFFFFFF00000000000000000000000000000000000000000000000000000000 DUP3 AND SWAP1 POP SWAP2 SWAP1 POP JUMP JUMPDEST PUSH2 0x2D4E DUP2 PUSH2 0x2D19 JUMP JUMPDEST DUP3 MSTORE POP POP JUMP JUMPDEST PUSH1 0x0 PUSH1 0x20 DUP3 ADD SWAP1 POP PUSH2 0x2D69 PUSH1 0x0 DUP4 ADD DUP5 PUSH2 0x2D45 JUMP JUMPDEST SWAP3 SWAP2 POP POP JUMP JUMPDEST PUSH1 0x0 PUSH1 0x20 DUP3 DUP5 SUB SLT ISZERO PUSH2 0x2D85 JUMPI PUSH2 0x2D84 PUSH2 0x2B98 JUMP JUMPDEST JUMPDEST PUSH1 0x0 PUSH2 0x2D93 DUP5 DUP3 DUP6 ADD PUSH2 0x2C17 JUMP JUMPDEST SWAP2 POP POP SWAP3 SWAP2 POP POP JUMP JUMPDEST PUSH1 0x0 DUP2 SWAP1 POP SWAP2 SWAP1 POP JUMP JUMPDEST PUSH1 0x0 PUSH2 0x2DC1 PUSH2 0x2DBC PUSH2 0x2DB7 DUP5 PUSH2 0x2BA2 JUMP JUMPDEST PUSH2 0x2D9C JUMP JUMPDEST PUSH2 0x2BA2 JUMP JUMPDEST SWAP1 POP SWAP2 SWAP1 POP JUMP JUMPDEST PUSH1 0x0 PUSH2 0x2DD3 DUP3 PUSH2 0x2DA6 JUMP JUMPDEST SWAP1 POP SWAP2 SWAP1 POP JUMP JUMPDEST PUSH1 0x0 PUSH2 0x2DE5 DUP3 PUSH2 0x2DC8 JUMP JUMPDEST SWAP1 POP SWAP2 SWAP1 POP JUMP JUMPDEST PUSH2 0x2DF5 DUP2 PUSH2 0x2DDA JUMP JUMPDEST DUP3 MSTORE POP POP JUMP JUMPDEST PUSH1 0x0 PUSH1 0x20 DUP3 ADD SWAP1 POP PUSH2 0x2E10 PUSH1 0x0 DUP4 ADD DUP5 PUSH2 0x2DEC JUMP JUMPDEST SWAP3 SWAP2 POP POP JUMP JUMPDEST PUSH1 0x0 PUSH2 0x2E21 DUP3 PUSH2 0x2DC8 JUMP JUMPDEST SWAP1 POP SWAP2 SWAP1 POP JUMP JUMPDEST PUSH2 0x2E31 DUP2 PUSH2 0x2E16 JUMP JUMPDEST DUP3 MSTORE POP POP JUMP JUMPDEST PUSH1 0x0 PUSH1 0x20 DUP3 ADD SWAP1 POP PUSH2 0x2E4C PUSH1 0x0 DUP4 ADD DUP5 PUSH2 0x2E28 JUMP JUMPDEST SWAP3 SWAP2 POP POP JUMP JUMPDEST PUSH1 0x0 DUP2 ISZERO ISZERO SWAP1 POP SWAP2 SWAP1 POP JUMP JUMPDEST PUSH2 0x2E67 DUP2 PUSH2 0x2E52 JUMP JUMPDEST DUP2 EQ PUSH2 0x2E72 JUMPI PUSH1 0x0 DUP1 REVERT JUMPDEST POP JUMP JUMPDEST PUSH1 0x0 DUP2 CALLDATALOAD SWAP1 POP PUSH2 0x2E84 DUP2 PUSH2 0x2E5E JUMP JUMPDEST SWAP3 SWAP2 POP POP JUMP JUMPDEST PUSH1 0x0 DUP1 PUSH1 0x40 DUP4 DUP6 SUB SLT ISZERO PUSH2 0x2EA1 JUMPI PUSH2 0x2EA0 PUSH2 0x2B98 JUMP JUMPDEST JUMPDEST PUSH1 0x0 PUSH2 0x2EAF DUP6 DUP3 DUP7 ADD PUSH2 0x2E75 JUMP JUMPDEST SWAP3 POP POP PUSH1 0x20 PUSH2 0x2EC0 DUP6 DUP3 DUP7 ADD PUSH2 0x2C17 JUMP JUMPDEST SWAP2 POP POP SWAP3 POP SWAP3 SWAP1 POP JUMP JUMPDEST PUSH2 0x2ED3 DUP2 PUSH2 0x2E52 JUMP JUMPDEST DUP3 MSTORE POP POP JUMP JUMPDEST PUSH1 0x0 PUSH1 0x20 DUP3 ADD SWAP1 POP PUSH2 0x2EEE PUSH1 0x0 DUP4 ADD DUP5 PUSH2 0x2ECA JUMP JUMPDEST SWAP3 SWAP2 POP POP JUMP JUMPDEST PUSH1 0x0 PUSH1 0x20 DUP3 DUP5 SUB SLT ISZERO PUSH2 0x2F0A JUMPI PUSH2 0x2F09 PUSH2 0x2B98 JUMP JUMPDEST JUMPDEST PUSH1 0x0 PUSH2 0x2F18 DUP5 DUP3 DUP6 ADD PUSH2 0x2BEB JUMP JUMPDEST SWAP2 POP POP SWAP3 SWAP2 POP POP JUMP JUMPDEST PUSH1 0x0 PUSH2 0x2F2C DUP3 PUSH2 0x2DC8 JUMP JUMPDEST SWAP1 POP SWAP2 SWAP1 POP JUMP JUMPDEST PUSH2 0x2F3C DUP2 PUSH2 0x2F21 JUMP JUMPDEST DUP3 MSTORE POP POP JUMP JUMPDEST PUSH1 0x0 PUSH1 0x20 DUP3 ADD SWAP1 POP PUSH2 0x2F57 PUSH1 0x0 DUP4 ADD DUP5 PUSH2 0x2F33 JUMP JUMPDEST SWAP3 SWAP2 POP POP JUMP JUMPDEST PUSH1 0x0 DUP2 MLOAD SWAP1 POP SWAP2 SWAP1 POP JUMP JUMPDEST PUSH1 0x0 DUP3 DUP3 MSTORE PUSH1 0x20 DUP3 ADD SWAP1 POP SWAP3 SWAP2 POP POP JUMP JUMPDEST PUSH1 0x0 DUP2 SWAP1 POP PUSH1 0x20 DUP3 ADD SWAP1 POP SWAP2 SWAP1 POP JUMP JUMPDEST PUSH2 0x2F92 DUP2 PUSH2 0x2B3B JUMP JUMPDEST DUP3 MSTORE POP POP JUMP JUMPDEST PUSH1 0x40 DUP3 ADD PUSH1 0x0 DUP3 ADD MLOAD PUSH2 0x2FAE PUSH1 0x0 DUP6 ADD DUP3 PUSH2 0x2F89 JUMP JUMPDEST POP PUSH1 0x20 DUP3 ADD MLOAD PUSH2 0x2FC1 PUSH1 0x20 DUP6 ADD DUP3 PUSH2 0x2F89 JUMP JUMPDEST POP POP POP POP JUMP JUMPDEST PUSH1 0x0 PUSH2 0x2FD3 DUP4 DUP4 PUSH2 0x2F98 JUMP JUMPDEST PUSH1 0x40 DUP4 ADD SWAP1 POP SWAP3 SWAP2 POP POP JUMP JUMPDEST PUSH1 0x0 PUSH1 0x20 DUP3 ADD SWAP1 POP SWAP2 SWAP1 POP JUMP JUMPDEST PUSH1 0x0 PUSH2 0x2FF7 DUP3 PUSH2 0x2F5D JUMP JUMPDEST PUSH2 0x3001 DUP2 DUP6 PUSH2 0x2F68 JUMP JUMPDEST SWAP4 POP PUSH2 0x300C DUP4 PUSH2 0x2F79 JUMP JUMPDEST DUP1 PUSH1 0x0 JUMPDEST DUP4 DUP2 LT ISZERO PUSH2 0x303D JUMPI DUP2 MLOAD PUSH2 0x3024 DUP9 DUP3 PUSH2 0x2FC7 JUMP JUMPDEST SWAP8 POP PUSH2 0x302F DUP4 PUSH2 0x2FDF JUMP JUMPDEST SWAP3 POP POP PUSH1 0x1 DUP2 ADD SWAP1 POP PUSH2 0x3010 JUMP JUMPDEST POP DUP6 SWAP4 POP POP POP POP SWAP3 SWAP2 POP POP JUMP JUMPDEST PUSH1 0x0 PUSH1 0x20 DUP3 ADD SWAP1 POP DUP2 DUP2 SUB PUSH1 0x0 DUP4 ADD MSTORE PUSH2 0x3064 DUP2 DUP5 PUSH2 0x2FEC JUMP JUMPDEST SWAP1 POP SWAP3 SWAP2 POP POP JUMP JUMPDEST PUSH1 0x0 PUSH2 0x3077 DUP3 PUSH2 0x2DC8 JUMP JUMPDEST SWAP1 POP SWAP2 SWAP1 POP JUMP JUMPDEST PUSH2 0x3087 DUP2 PUSH2 0x306C JUMP JUMPDEST DUP3 MSTORE POP POP JUMP JUMPDEST PUSH1 0x0 PUSH1 0x20 DUP3 ADD SWAP1 POP PUSH2 0x30A2 PUSH1 0x0 DUP4 ADD DUP5 PUSH2 0x307E JUMP JUMPDEST SWAP3 SWAP2 POP POP JUMP JUMPDEST PUSH1 0x0 DUP1 PUSH1 0x40 DUP4 DUP6 SUB SLT ISZERO PUSH2 0x30BF JUMPI PUSH2 0x30BE PUSH2 0x2B98 JUMP JUMPDEST JUMPDEST PUSH1 0x0 PUSH2 0x30CD DUP6 DUP3 DUP7 ADD PUSH2 0x2C17 JUMP JUMPDEST SWAP3 POP POP PUSH1 0x20 PUSH2 0x30DE DUP6 DUP3 DUP7 ADD PUSH2 0x2C17 JUMP JUMPDEST SWAP2 POP POP SWAP3 POP SWAP3 SWAP1 POP JUMP JUMPDEST PUSH2 0x30F1 DUP2 PUSH2 0x2BC2 JUMP JUMPDEST DUP3 MSTORE POP POP JUMP JUMPDEST PUSH1 0x0 PUSH1 0x20 DUP3 ADD SWAP1 POP PUSH2 0x310C PUSH1 0x0 DUP4 ADD DUP5 PUSH2 0x30E8 JUMP JUMPDEST SWAP3 SWAP2 POP POP JUMP JUMPDEST PUSH1 0x0 PUSH2 0x311D DUP3 PUSH2 0x2BA2 JUMP JUMPDEST SWAP1 POP SWAP2 SWAP1 POP JUMP JUMPDEST PUSH2 0x312D DUP2 PUSH2 0x3112 JUMP JUMPDEST DUP2 EQ PUSH2 0x3138 JUMPI PUSH1 0x0 DUP1 REVERT JUMPDEST POP JUMP JUMPDEST PUSH1 0x0 DUP2 CALLDATALOAD SWAP1 POP PUSH2 0x314A DUP2 PUSH2 0x3124 JUMP JUMPDEST SWAP3 SWAP2 POP POP JUMP JUMPDEST PUSH1 0x0 PUSH1 0x20 DUP3 DUP5 SUB SLT ISZERO PUSH2 0x3166 JUMPI PUSH2 0x3165 PUSH2 0x2B98 JUMP JUMPDEST JUMPDEST PUSH1 0x0 PUSH2 0x3174 DUP5 DUP3 DUP6 ADD PUSH2 0x313B JUMP JUMPDEST SWAP2 POP POP SWAP3 SWAP2 POP POP JUMP JUMPDEST PUSH1 0x0 DUP1 PUSH1 0x40 DUP4 DUP6 SUB SLT ISZERO PUSH2 0x3194 JUMPI PUSH2 0x3193 PUSH2 0x2B98 JUMP JUMPDEST JUMPDEST PUSH1 0x0 PUSH2 0x31A2 DUP6 DUP3 DUP7 ADD PUSH2 0x2BEB JUMP JUMPDEST SWAP3 POP POP PUSH1 0x20 PUSH2 0x31B3 DUP6 DUP3 DUP7 ADD PUSH2 0x2C17 JUMP JUMPDEST SWAP2 POP POP SWAP3 POP SWAP3 SWAP1 POP JUMP JUMPDEST PUSH1 0x0 DUP1 PUSH1 0x40 DUP4 DUP6 SUB SLT ISZERO PUSH2 0x31D4 JUMPI PUSH2 0x31D3 PUSH2 0x2B98 JUMP JUMPDEST JUMPDEST PUSH1 0x0 PUSH2 0x31E2 DUP6 DUP3 DUP7 ADD PUSH2 0x313B JUMP JUMPDEST SWAP3 POP POP PUSH1 0x20 PUSH2 0x31F3 DUP6 DUP3 DUP7 ADD PUSH2 0x2C17 JUMP JUMPDEST SWAP2 POP POP SWAP3 POP SWAP3 SWAP1 POP JUMP JUMPDEST PUSH1 0x0 DUP2 MLOAD SWAP1 POP SWAP2 SWAP1 POP JUMP JUMPDEST PUSH1 0x0 DUP3 DUP3 MSTORE PUSH1 0x20 DUP3 ADD SWAP1 POP SWAP3 SWAP2 POP POP JUMP JUMPDEST PUSH1 0x0 DUP2 SWAP1 POP PUSH1 0x20 DUP3 ADD SWAP1 POP SWAP2 SWAP1 POP JUMP JUMPDEST PUSH1 0x60 DUP3 ADD PUSH1 0x0 DUP3 ADD MLOAD PUSH2 0x323F PUSH1 0x0 DUP6 ADD DUP3 PUSH2 0x2F89 JUMP JUMPDEST POP PUSH1 0x20 DUP3 ADD MLOAD PUSH2 0x3252 PUSH1 0x20 DUP6 ADD DUP3 PUSH2 0x2F89 JUMP JUMPDEST POP PUSH1 0x40 DUP3 ADD MLOAD PUSH2 0x3265 PUSH1 0x40 DUP6 ADD DUP3 PUSH2 0x2F89 JUMP JUMPDEST POP POP POP POP JUMP JUMPDEST PUSH1 0x0 PUSH2 0x3277 DUP4 DUP4 PUSH2 0x3229 JUMP JUMPDEST PUSH1 0x60 DUP4 ADD SWAP1 POP SWAP3 SWAP2 POP POP JUMP JUMPDEST PUSH1 0x0 PUSH1 0x20 DUP3 ADD SWAP1 POP SWAP2 SWAP1 POP JUMP JUMPDEST PUSH1 0x0 PUSH2 0x329B DUP3 PUSH2 0x31FD JUMP JUMPDEST PUSH2 0x32A5 DUP2 DUP6 PUSH2 0x3208 JUMP JUMPDEST SWAP4 POP PUSH2 0x32B0 DUP4 PUSH2 0x3219 JUMP JUMPDEST DUP1 PUSH1 0x0 JUMPDEST DUP4 DUP2 LT ISZERO PUSH2 0x32E1 JUMPI DUP2 MLOAD PUSH2 0x32C8 DUP9 DUP3 PUSH2 0x326B JUMP JUMPDEST SWAP8 POP PUSH2 0x32D3 DUP4 PUSH2 0x3283 JUMP JUMPDEST SWAP3 POP POP PUSH1 0x1 DUP2 ADD SWAP1 POP PUSH2 0x32B4 JUMP JUMPDEST POP DUP6 SWAP4 POP POP POP POP SWAP3 SWAP2 POP POP JUMP JUMPDEST PUSH1 0x0 DUP2 MLOAD SWAP1 POP SWAP2 SWAP1 POP JUMP JUMPDEST PUSH1 0x0 DUP3 DUP3 MSTORE PUSH1 0x20 DUP3 ADD SWAP1 POP SWAP3 SWAP2 POP POP JUMP JUMPDEST PUSH1 0x0 DUP2 SWAP1 POP PUSH1 0x20 DUP3 ADD SWAP1 POP SWAP2 SWAP1 POP JUMP JUMPDEST PUSH1 0x0 PUSH2 0x3326 DUP4 DUP4 PUSH2 0x2F89 JUMP JUMPDEST PUSH1 0x20 DUP4 ADD SWAP1 POP SWAP3 SWAP2 POP POP JUMP JUMPDEST PUSH1 0x0 PUSH1 0x20 DUP3 ADD SWAP1 POP SWAP2 SWAP1 POP JUMP JUMPDEST PUSH1 0x0 PUSH2 0x334A DUP3 PUSH2 0x32EE JUMP JUMPDEST PUSH2 0x3354 DUP2 DUP6 PUSH2 0x32F9 JUMP JUMPDEST SWAP4 POP PUSH2 0x335F DUP4 PUSH2 0x330A JUMP JUMPDEST DUP1 PUSH1 0x0 JUMPDEST DUP4 DUP2 LT ISZERO PUSH2 0x3390 JUMPI DUP2 MLOAD PUSH2 0x3377 DUP9 DUP3 PUSH2 0x331A JUMP JUMPDEST SWAP8 POP PUSH2 0x3382 DUP4 PUSH2 0x3332 JUMP JUMPDEST SWAP3 POP POP PUSH1 0x1 DUP2 ADD SWAP1 POP PUSH2 0x3363 JUMP JUMPDEST POP DUP6 SWAP4 POP POP POP POP SWAP3 SWAP2 POP POP JUMP JUMPDEST PUSH1 0x0 PUSH1 0x40 DUP4 ADD PUSH1 0x0 DUP4 ADD MLOAD DUP5 DUP3 SUB PUSH1 0x0 DUP7 ADD MSTORE PUSH2 0x33BA DUP3 DUP3 PUSH2 0x3290 JUMP JUMPDEST SWAP2 POP POP PUSH1 0x20 DUP4 ADD MLOAD DUP5 DUP3 SUB PUSH1 0x20 DUP7 ADD MSTORE PUSH2 0x33D4 DUP3 DUP3 PUSH2 0x333F JUMP JUMPDEST SWAP2 POP POP DUP1 SWAP2 POP POP SWAP3 SWAP2 POP POP JUMP JUMPDEST PUSH1 0x0 PUSH1 0x20 DUP3 ADD SWAP1 POP DUP2 DUP2 SUB PUSH1 0x0 DUP4 ADD MSTORE PUSH2 0x33FB DUP2 DUP5 PUSH2 0x339D JUMP JUMPDEST SWAP1 POP SWAP3 SWAP2 POP POP JUMP JUMPDEST PUSH1 0x0 DUP2 MLOAD SWAP1 POP SWAP2 SWAP1 POP JUMP JUMPDEST PUSH1 0x0 DUP3 DUP3 MSTORE PUSH1 0x20 DUP3 ADD SWAP1 POP SWAP3 SWAP2 POP POP JUMP JUMPDEST PUSH1 0x0 JUMPDEST DUP4 DUP2 LT ISZERO PUSH2 0x343D JUMPI DUP1 DUP3 ADD MLOAD DUP2 DUP5 ADD MSTORE PUSH1 0x20 DUP2 ADD SWAP1 POP PUSH2 0x3422 JUMP JUMPDEST PUSH1 0x0 DUP5 DUP5 ADD MSTORE POP POP POP POP JUMP JUMPDEST PUSH1 0x0 PUSH1 0x1F NOT PUSH1 0x1F DUP4 ADD AND SWAP1 POP SWAP2 SWAP1 POP JUMP JUMPDEST PUSH1 0x0 PUSH2 0x3465 DUP3 PUSH2 0x3403 JUMP JUMPDEST PUSH2 0x346F DUP2 DUP6 PUSH2 0x340E JUMP JUMPDEST SWAP4 POP PUSH2 0x347F DUP2 DUP6 PUSH1 0x20 DUP7 ADD PUSH2 0x341F JUMP JUMPDEST PUSH2 0x3488 DUP2 PUSH2 0x3449 JUMP JUMPDEST DUP5 ADD SWAP2 POP POP SWAP3 SWAP2 POP POP JUMP JUMPDEST PUSH1 0x0 PUSH1 0x20 DUP3 ADD SWAP1 POP DUP2 DUP2 SUB PUSH1 0x0 DUP4 ADD MSTORE PUSH2 0x34AD DUP2 DUP5 PUSH2 0x345A JUMP JUMPDEST SWAP1 POP SWAP3 SWAP2 POP POP JUMP JUMPDEST PUSH1 0x0 DUP2 SWAP1 POP SWAP3 SWAP2 POP POP JUMP JUMPDEST PUSH32 0x5B47756172616E7465656420496E766573746D656E74204D617267696E5D2D2D PUSH1 0x0 DUP3 ADD MSTORE PUSH32 0x3A00000000000000000000000000000000000000000000000000000000000000 PUSH1 0x20 DUP3 ADD MSTORE POP JUMP JUMPDEST PUSH1 0x0 PUSH2 0x351C PUSH1 0x21 DUP4 PUSH2 0x34B5 JUMP JUMPDEST SWAP2 POP PUSH2 0x3527 DUP3 PUSH2 0x34C0 JUMP JUMPDEST PUSH1 0x21 DUP3 ADD SWAP1 POP SWAP2 SWAP1 POP JUMP JUMPDEST PUSH1 0x0 PUSH2 0x353D DUP3 PUSH2 0x3403 JUMP JUMPDEST PUSH2 0x3547 DUP2 DUP6 PUSH2 0x34B5 JUMP JUMPDEST SWAP4 POP PUSH2 0x3557 DUP2 DUP6 PUSH1 0x20 DUP7 ADD PUSH2 0x341F JUMP JUMPDEST DUP1 DUP5 ADD SWAP2 POP POP SWAP3 SWAP2 POP POP JUMP JUMPDEST PUSH32 0x5745490000000000000000000000000000000000000000000000000000000000 PUSH1 0x0 DUP3 ADD MSTORE POP JUMP JUMPDEST PUSH1 0x0 PUSH2 0x3599 PUSH1 0x3 DUP4 PUSH2 0x34B5 JUMP JUMPDEST SWAP2 POP PUSH2 0x35A4 DUP3 PUSH2 0x3563 JUMP JUMPDEST PUSH1 0x3 DUP3 ADD SWAP1 POP SWAP2 SWAP1 POP JUMP JUMPDEST PUSH1 0x0 PUSH2 0x35BA DUP3 PUSH2 0x350F JUMP JUMPDEST SWAP2 POP PUSH2 0x35C6 DUP3 DUP5 PUSH2 0x3532 JUMP JUMPDEST SWAP2 POP PUSH2 0x35D1 DUP3 PUSH2 0x358C JUMP JUMPDEST SWAP2 POP DUP2 SWAP1 POP SWAP3 SWAP2 POP POP JUMP JUMPDEST PUSH32 0x5374616B696E672047756172616E746565204361726400000000000000000000 PUSH1 0x0 DUP3 ADD MSTORE POP JUMP JUMPDEST PUSH1 0x0 PUSH2 0x3612 PUSH1 0x16 DUP4 PUSH2 0x340E JUMP JUMPDEST SWAP2 POP PUSH2 0x361D DUP3 PUSH2 0x35DC JUMP JUMPDEST PUSH1 0x20 DUP3 ADD SWAP1 POP SWAP2 SWAP1 POP JUMP JUMPDEST PUSH32 0x68747470733A2F2F697066732E696F2F697066732F516D5155756D7138695963 PUSH1 0x0 DUP3 ADD MSTORE PUSH32 0x41395838756F61664D325955384C6579794D4B7A554E32484635464770364E70 PUSH1 0x20 DUP3 ADD MSTORE PUSH32 0x5845563F66696C656E616D653D47726F7570253230343538342E6A7067000000 PUSH1 0x40 DUP3 ADD MSTORE POP JUMP JUMPDEST PUSH1 0x0 PUSH2 0x36AA PUSH1 0x5D DUP4 PUSH2 0x340E JUMP JUMPDEST SWAP2 POP PUSH2 0x36B5 DUP3 PUSH2 0x3628 JUMP JUMPDEST PUSH1 0x60 DUP3 ADD SWAP1 POP SWAP2 SWAP1 POP JUMP JUMPDEST PUSH1 0x0 PUSH1 0x60 DUP3 ADD SWAP1 POP DUP2 DUP2 SUB PUSH1 0x0 DUP4 ADD MSTORE PUSH2 0x36D9 DUP2 PUSH2 0x3605 JUMP JUMPDEST SWAP1 POP DUP2 DUP2 SUB PUSH1 0x20 DUP4 ADD MSTORE PUSH2 0x36ED DUP2 DUP5 PUSH2 0x345A JUMP JUMPDEST SWAP1 POP DUP2 DUP2 SUB PUSH1 0x40 DUP4 ADD MSTORE PUSH2 0x3700 DUP2 PUSH2 0x369D JUMP JUMPDEST SWAP1 POP SWAP3 SWAP2 POP POP JUMP JUMPDEST PUSH1 0x0 DUP2 MLOAD SWAP1 POP PUSH2 0x3717 DUP2 PUSH2 0x2E5E JUMP JUMPDEST SWAP3 SWAP2 POP POP JUMP JUMPDEST PUSH1 0x0 PUSH1 0x20 DUP3 DUP5 SUB SLT ISZERO PUSH2 0x3733 JUMPI PUSH2 0x3732 PUSH2 0x2B98 JUMP JUMPDEST JUMPDEST PUSH1 0x0 PUSH2 0x3741 DUP5 DUP3 DUP6 ADD PUSH2 0x3708 JUMP JUMPDEST SWAP2 POP POP SWAP3 SWAP2 POP POP JUMP JUMPDEST PUSH1 0x0 PUSH1 0x40 DUP3 ADD SWAP1 POP PUSH2 0x375F PUSH1 0x0 DUP4 ADD DUP6 PUSH2 0x2B45 JUMP JUMPDEST PUSH2 0x376C PUSH1 0x20 DUP4 ADD DUP5 PUSH2 0x30E8 JUMP JUMPDEST SWAP4 SWAP3 POP POP POP JUMP JUMPDEST PUSH32 0x4E6F205265456E7472616E637900000000000000000000000000000000000000 PUSH1 0x0 DUP3 ADD MSTORE POP JUMP JUMPDEST PUSH1 0x0 PUSH2 0x37A9 PUSH1 0xD DUP4 PUSH2 0x340E JUMP JUMPDEST SWAP2 POP PUSH2 0x37B4 DUP3 PUSH2 0x3773 JUMP JUMPDEST PUSH1 0x20 DUP3 ADD SWAP1 POP SWAP2 SWAP1 POP JUMP JUMPDEST PUSH1 0x0 PUSH1 0x20 DUP3 ADD SWAP1 POP DUP2 DUP2 SUB PUSH1 0x0 DUP4 ADD MSTORE PUSH2 0x37D8 DUP2 PUSH2 0x379C JUMP JUMPDEST SWAP1 POP SWAP2 SWAP1 POP JUMP JUMPDEST PUSH1 0x0 PUSH1 0x40 DUP3 ADD SWAP1 POP PUSH2 0x37F4 PUSH1 0x0 DUP4 ADD DUP6 PUSH2 0x30E8 JUMP JUMPDEST PUSH2 0x3801 PUSH1 0x20 DUP4 ADD DUP5 PUSH2 0x2B45 JUMP JUMPDEST SWAP4 SWAP3 POP POP POP JUMP JUMPDEST PUSH32 0x4572726F7220696E20515645207374616B696E67000000000000000000000000 PUSH1 0x0 DUP3 ADD MSTORE POP JUMP JUMPDEST PUSH1 0x0 PUSH2 0x383E PUSH1 0x14 DUP4 PUSH2 0x340E JUMP JUMPDEST SWAP2 POP PUSH2 0x3849 DUP3 PUSH2 0x3808 JUMP JUMPDEST PUSH1 0x20 DUP3 ADD SWAP1 POP SWAP2 SWAP1 POP JUMP JUMPDEST PUSH1 0x0 PUSH1 0x20 DUP3 ADD SWAP1 POP DUP2 DUP2 SUB PUSH1 0x0 DUP4 ADD MSTORE PUSH2 0x386D DUP2 PUSH2 0x3831 JUMP JUMPDEST SWAP1 POP SWAP2 SWAP1 POP JUMP JUMPDEST PUSH1 0x0 DUP2 MLOAD SWAP1 POP PUSH2 0x3883 DUP2 PUSH2 0x2C00 JUMP JUMPDEST SWAP3 SWAP2 POP POP JUMP JUMPDEST PUSH1 0x0 PUSH1 0x20 DUP3 DUP5 SUB SLT ISZERO PUSH2 0x389F JUMPI PUSH2 0x389E PUSH2 0x2B98 JUMP JUMPDEST JUMPDEST PUSH1 0x0 PUSH2 0x38AD DUP5 DUP3 DUP6 ADD PUSH2 0x3874 JUMP JUMPDEST SWAP2 POP POP SWAP3 SWAP2 POP POP JUMP JUMPDEST PUSH1 0x0 DUP2 MLOAD SWAP1 POP PUSH2 0x38C5 DUP2 PUSH2 0x2BD4 JUMP JUMPDEST SWAP3 SWAP2 POP POP JUMP JUMPDEST PUSH1 0x0 PUSH1 0x20 DUP3 DUP5 SUB SLT ISZERO PUSH2 0x38E1 JUMPI PUSH2 0x38E0 PUSH2 0x2B98 JUMP JUMPDEST JUMPDEST PUSH1 0x0 PUSH2 0x38EF DUP5 DUP3 DUP6 ADD PUSH2 0x38B6 JUMP JUMPDEST SWAP2 POP POP SWAP3 SWAP2 POP POP JUMP JUMPDEST PUSH32 0x5761726E203A206E65656420617070726F76616C20666F72207468697320746F PUSH1 0x0 DUP3 ADD MSTORE PUSH32 0x6B656E0000000000000000000000000000000000000000000000000000000000 PUSH1 0x20 DUP3 ADD MSTORE POP JUMP JUMPDEST PUSH1 0x0 PUSH2 0x3954 PUSH1 0x23 DUP4 PUSH2 0x340E JUMP JUMPDEST SWAP2 POP PUSH2 0x395F DUP3 PUSH2 0x38F8 JUMP JUMPDEST PUSH1 0x40 DUP3 ADD SWAP1 POP SWAP2 SWAP1 POP JUMP JUMPDEST PUSH1 0x0 PUSH1 0x20 DUP3 ADD SWAP1 POP DUP2 DUP2 SUB PUSH1 0x0 DUP4 ADD MSTORE PUSH2 0x3983 DUP2 PUSH2 0x3947 JUMP JUMPDEST SWAP1 POP SWAP2 SWAP1 POP JUMP JUMPDEST PUSH1 0x0 PUSH1 0x60 DUP3 ADD SWAP1 POP PUSH2 0x399F PUSH1 0x0 DUP4 ADD DUP7 PUSH2 0x30E8 JUMP JUMPDEST PUSH2 0x39AC PUSH1 0x20 DUP4 ADD DUP6 PUSH2 0x30E8 JUMP JUMPDEST PUSH2 0x39B9 PUSH1 0x40 DUP4 ADD DUP5 PUSH2 0x2B45 JUMP JUMPDEST SWAP5 SWAP4 POP POP POP POP JUMP JUMPDEST PUSH1 0x0 PUSH1 0x60 DUP3 ADD SWAP1 POP PUSH2 0x39D6 PUSH1 0x0 DUP4 ADD DUP7 PUSH2 0x2B45 JUMP JUMPDEST PUSH2 0x39E3 PUSH1 0x20 DUP4 ADD DUP6 PUSH2 0x30E8 JUMP JUMPDEST PUSH2 0x39F0 PUSH1 0x40 DUP4 ADD DUP5 PUSH2 0x2B45 JUMP JUMPDEST SWAP5 SWAP4 POP POP POP POP JUMP JUMPDEST PUSH32 0x4E6F2066756E64732073656E7400000000000000000000000000000000000000 PUSH1 0x0 DUP3 ADD MSTORE POP JUMP JUMPDEST PUSH1 0x0 PUSH2 0x3A2E PUSH1 0xD DUP4 PUSH2 0x340E JUMP JUMPDEST SWAP2 POP PUSH2 0x3A39 DUP3 PUSH2 0x39F8 JUMP JUMPDEST PUSH1 0x20 DUP3 ADD SWAP1 POP SWAP2 SWAP1 POP JUMP JUMPDEST PUSH1 0x0 PUSH1 0x20 DUP3 ADD SWAP1 POP DUP2 DUP2 SUB PUSH1 0x0 DUP4 ADD MSTORE PUSH2 0x3A5D DUP2 PUSH2 0x3A21 JUMP JUMPDEST SWAP1 POP SWAP2 SWAP1 POP JUMP JUMPDEST PUSH32 0x4E487B7100000000000000000000000000000000000000000000000000000000 PUSH1 0x0 MSTORE PUSH1 0x11 PUSH1 0x4 MSTORE PUSH1 0x24 PUSH1 0x0 REVERT JUMPDEST PUSH1 0x0 PUSH2 0x3A9E DUP3 PUSH2 0x2B3B JUMP JUMPDEST SWAP2 POP PUSH2 0x3AA9 DUP4 PUSH2 0x2B3B JUMP JUMPDEST SWAP3 POP DUP3 DUP3 SUB SWAP1 POP DUP2 DUP2 GT ISZERO PUSH2 0x3AC1 JUMPI PUSH2 0x3AC0 PUSH2 0x3A64 JUMP JUMPDEST JUMPDEST SWAP3 SWAP2 POP POP JUMP JUMPDEST PUSH32 0x5761726E203A20626F7420416464726573732069732061646472657373203000 PUSH1 0x0 DUP3 ADD MSTORE POP JUMP JUMPDEST PUSH1 0x0 PUSH2 0x3AFD PUSH1 0x1F DUP4 PUSH2 0x340E JUMP JUMPDEST SWAP2 POP PUSH2 0x3B08 DUP3 PUSH2 0x3AC7 JUMP JUMPDEST PUSH1 0x20 DUP3 ADD SWAP1 POP SWAP2 SWAP1 POP JUMP JUMPDEST PUSH1 0x0 PUSH1 0x20 DUP3 ADD SWAP1 POP DUP2 DUP2 SUB PUSH1 0x0 DUP4 ADD MSTORE PUSH2 0x3B2C DUP2 PUSH2 0x3AF0 JUMP JUMPDEST SWAP1 POP SWAP2 SWAP1 POP JUMP JUMPDEST PUSH32 0x5761726E203A20496E73756666696369656E642062616C616E636520696E2063 PUSH1 0x0 DUP3 ADD MSTORE PUSH32 0x6F6E747261637400000000000000000000000000000000000000000000000000 PUSH1 0x20 DUP3 ADD MSTORE POP JUMP JUMPDEST PUSH1 0x0 PUSH2 0x3B8F PUSH1 0x27 DUP4 PUSH2 0x340E JUMP JUMPDEST SWAP2 POP PUSH2 0x3B9A DUP3 PUSH2 0x3B33 JUMP JUMPDEST PUSH1 0x40 DUP3 ADD SWAP1 POP SWAP2 SWAP1 POP JUMP JUMPDEST PUSH1 0x0 PUSH1 0x20 DUP3 ADD SWAP1 POP DUP2 DUP2 SUB PUSH1 0x0 DUP4 ADD MSTORE PUSH2 0x3BBE DUP2 PUSH2 0x3B82 JUMP JUMPDEST SWAP1 POP SWAP2 SWAP1 POP JUMP JUMPDEST PUSH32 0x4F776E61626C653A206E6577206F776E657220697320746865207A65726F2061 PUSH1 0x0 DUP3 ADD MSTORE PUSH32 0x6464726573730000000000000000000000000000000000000000000000000000 PUSH1 0x20 DUP3 ADD MSTORE POP JUMP JUMPDEST PUSH1 0x0 PUSH2 0x3C21 PUSH1 0x26 DUP4 PUSH2 0x340E JUMP JUMPDEST SWAP2 POP PUSH2 0x3C2C DUP3 PUSH2 0x3BC5 JUMP JUMPDEST PUSH1 0x40 DUP3 ADD SWAP1 POP SWAP2 SWAP1 POP JUMP JUMPDEST PUSH1 0x0 PUSH1 0x20 DUP3 ADD SWAP1 POP DUP2 DUP2 SUB PUSH1 0x0 DUP4 ADD MSTORE PUSH2 0x3C50 DUP2 PUSH2 0x3C14 JUMP JUMPDEST SWAP1 POP SWAP2 SWAP1 POP JUMP JUMPDEST PUSH32 0x4E487B7100000000000000000000000000000000000000000000000000000000 PUSH1 0x0 MSTORE PUSH1 0x41 PUSH1 0x4 MSTORE PUSH1 0x24 PUSH1 0x0 REVERT JUMPDEST PUSH32 0x4E487B7100000000000000000000000000000000000000000000000000000000 PUSH1 0x0 MSTORE PUSH1 0x12 PUSH1 0x4 MSTORE PUSH1 0x24 PUSH1 0x0 REVERT JUMPDEST PUSH32 0x4F776E61626C653A2063616C6C6572206973206E6F7420746865206F776E6572 PUSH1 0x0 DUP3 ADD MSTORE POP JUMP JUMPDEST PUSH1 0x0 PUSH2 0x3CEB PUSH1 0x20 DUP4 PUSH2 0x340E JUMP JUMPDEST SWAP2 POP PUSH2 0x3CF6 DUP3 PUSH2 0x3CB5 JUMP JUMPDEST PUSH1 0x20 DUP3 ADD SWAP1 POP SWAP2 SWAP1 POP JUMP JUMPDEST PUSH1 0x0 PUSH1 0x20 DUP3 ADD SWAP1 POP DUP2 DUP2 SUB PUSH1 0x0 DUP4 ADD MSTORE PUSH2 0x3D1A DUP2 PUSH2 0x3CDE JUMP JUMPDEST SWAP1 POP SWAP2 SWAP1 POP JUMP JUMPDEST PUSH1 0x0 PUSH2 0x3D2C DUP3 PUSH2 0x2B3B JUMP JUMPDEST SWAP2 POP PUSH2 0x3D37 DUP4 PUSH2 0x2B3B JUMP JUMPDEST SWAP3 POP DUP3 DUP3 MUL PUSH2 0x3D45 DUP2 PUSH2 0x2B3B JUMP JUMPDEST SWAP2 POP DUP3 DUP3 DIV DUP5 EQ DUP4 ISZERO OR PUSH2 0x3D5C JUMPI PUSH2 0x3D5B PUSH2 0x3A64 JUMP JUMPDEST JUMPDEST POP SWAP3 SWAP2 POP POP JUMP JUMPDEST PUSH32 0x4E487B7100000000000000000000000000000000000000000000000000000000 PUSH1 0x0 MSTORE PUSH1 0x32 PUSH1 0x4 MSTORE PUSH1 0x24 PUSH1 0x0 REVERT JUMPDEST PUSH1 0x0 PUSH2 0x3D9D DUP3 PUSH2 0x2B3B JUMP JUMPDEST SWAP2 POP PUSH32 0xFFFFFFFFFFFFFFFFFFFFFFFFFFFFFFFFFFFFFFFFFFFFFFFFFFFFFFFFFFFFFFFF DUP3 SUB PUSH2 0x3DCF JUMPI PUSH2 0x3DCE PUSH2 0x3A64 JUMP JUMPDEST JUMPDEST PUSH1 0x1 DUP3 ADD SWAP1 POP SWAP2 SWAP1 POP JUMP JUMPDEST PUSH32 0x4E487B7100000000000000000000000000000000000000000000000000000000 PUSH1 0x0 MSTORE PUSH1 0x31 PUSH1 0x4 MSTORE PUSH1 0x24 PUSH1 0x0 REVERT JUMPDEST PUSH1 0x0 PUSH2 0x3E14 DUP3 PUSH2 0x2B3B JUMP JUMPDEST SWAP2 POP PUSH2 0x3E1F DUP4 PUSH2 0x2B3B JUMP JUMPDEST SWAP3 POP DUP3 DUP3 ADD SWAP1 POP DUP1 DUP3 GT ISZERO PUSH2 0x3E37 JUMPI PUSH2 0x3E36 PUSH2 0x3A64 JUMP JUMPDEST JUMPDEST SWAP3 SWAP2 POP POP JUMP JUMPDEST PUSH1 0x0 PUSH1 0x40 DUP3 ADD SWAP1 POP PUSH2 0x3E52 PUSH1 0x0 DUP4 ADD DUP6 PUSH2 0x30E8 JUMP JUMPDEST PUSH2 0x3E5F PUSH1 0x20 DUP4 ADD DUP5 PUSH2 0x2ECA JUMP JUMPDEST SWAP4 SWAP3 POP POP POP JUMP INVALID JUMPI PUSH2 0x726E PUSH10 0x6E67203A2053656E7420 GASLIMIT PUSH21 0x6820416D6F756E7420616E642057616E7465642041 PUSH14 0x6F756E7420617265206469666665 PUSH19 0x656E74A264697066735822122067BA3F780E3F EXTCODESIZE PUSH26 0x61702B143C66EF2A69C0DAA21C6FA56E257C22A6743E30836473 PUSH16 0x6C634300081200330000000000000000 "
		},
		"gasEstimates": {
			"creation": {
				"codeDepositCost": "3217000",
				"executionCost": "infinite",
				"totalCost": "infinite"
			},
			"external": {
				"QVEliquidityPool()": "infinite",
				"_forwardFunds(address)": "infinite",
				"_sendQVEFromLiquidity(address,uint256)": "infinite",
				"burnInvestmentGuarantee(uint256)": "infinite",
				"doQVEStake(uint256)": "infinite",
				"esQVEliquidityPool()": "infinite",
				"getEthBalance(address)": "3325",
				"getEthMarginVault_()": "infinite",
				"getInputedMarginCount()": "2575",
				"getNFTbalance_()": "infinite",
				"getNfts_()": "infinite",
				"getQVELiquidityAmount_()": "2489",
				"getQVEbalance()": "infinite",
				"getmarginForNFT_(uint256)": "infinite",
				"onERC721Received(address,address,uint256,bytes)": "infinite",
				"owner()": "2683",
				"qveStaking()": "infinite",
				"qveSwap()": "infinite",
				"qvenft()": "infinite",
				"qvetoken()": "infinite",
				"receiveAsset(bool,uint256)": "infinite",
				"renounceOwnership()": "30616",
				"sendIntoContract_(uint256)": "infinite",
				"sendToBotAddress_(address,uint256)": "infinite",
				"shortenLockup(uint256,uint256)": "infinite",
				"swapETHtoQVE_(uint256)": "infinite",
				"swapQVEtoETH_(uint256)": "infinite",
				"transferOwnership(address)": "31004"
			},
			"internal": {
				"_addLiquidity(uint256)": "infinite",
				"_addUserMarginVault(address,uint256,uint256)": "infinite",
				"_botAddress()": "infinite",
				"_issueGuaranteeNFT(address,uint256,bool)": "infinite",
				"_removeMarginData(uint256,address)": "infinite",
				"_subLiquidity(uint256)": "infinite",
				"investmentEth(uint256,bool)": "infinite"
			}
		},
		"methodIdentifiers": {
			"QVEliquidityPool()": "0e301d24",
			"_forwardFunds(address)": "bde2ddf2",
			"_sendQVEFromLiquidity(address,uint256)": "d08b8d6a",
			"burnInvestmentGuarantee(uint256)": "7a378e05",
			"doQVEStake(uint256)": "56289c29",
			"esQVEliquidityPool()": "0691badf",
			"getEthBalance(address)": "4d2301cc",
			"getEthMarginVault_()": "ef071bcd",
			"getInputedMarginCount()": "8866b937",
			"getNFTbalance_()": "9f62e796",
			"getNfts_()": "5ac66993",
			"getQVELiquidityAmount_()": "1552e770",
			"getQVEbalance()": "68a820ea",
			"getmarginForNFT_(uint256)": "1eb5c7ae",
			"onERC721Received(address,address,uint256,bytes)": "150b7a02",
			"owner()": "8da5cb5b",
			"qveStaking()": "2adcbebd",
			"qveSwap()": "69394135",
			"qvenft()": "510b7f98",
			"qvetoken()": "2b1c4158",
			"receiveAsset(bool,uint256)": "2f3f1730",
			"renounceOwnership()": "715018a6",
			"sendIntoContract_(uint256)": "80720481",
			"sendToBotAddress_(address,uint256)": "d167b6d8",
			"shortenLockup(uint256,uint256)": "83ce6147",
			"swapETHtoQVE_(uint256)": "4ede9666",
			"swapQVEtoETH_(uint256)": "bc338ae9",
			"transferOwnership(address)": "f2fde38b"
		}
	},
	"abi": [
		{
			"inputs": [
				{
					"internalType": "contract QVEtoken",
					"name": "_qveTokenAddress",
					"type": "address"
				},
				{
					"internalType": "contract QVEnft",
					"name": "_qvenft",
					"type": "address"
				},
				{
					"internalType": "contract QVEstaking",
					"name": "_qveStaking",
					"type": "address"
				},
				{
					"internalType": "contract QVEswap",
					"name": "_qveSwap",
					"type": "address"
				}
			],
			"stateMutability": "nonpayable",
			"type": "constructor"
		},
		{
			"anonymous": false,
			"inputs": [
				{
					"indexed": true,
					"internalType": "address",
					"name": "sender",
					"type": "address"
				},
				{
					"indexed": false,
					"internalType": "uint256",
					"name": "tokenId",
					"type": "uint256"
				}
			],
			"name": "NFTDeposited",
			"type": "event"
		},
		{
			"anonymous": false,
			"inputs": [
				{
					"indexed": true,
					"internalType": "address",
					"name": "receiver",
					"type": "address"
				},
				{
					"indexed": false,
					"internalType": "uint256",
					"name": "tokenId",
					"type": "uint256"
				}
			],
			"name": "NFTWithdrawn",
			"type": "event"
		},
		{
			"anonymous": false,
			"inputs": [
				{
					"indexed": true,
					"internalType": "address",
					"name": "previousOwner",
					"type": "address"
				},
				{
					"indexed": true,
					"internalType": "address",
					"name": "newOwner",
					"type": "address"
				}
			],
			"name": "OwnershipTransferred",
			"type": "event"
		},
		{
			"anonymous": false,
			"inputs": [
				{
					"indexed": true,
					"internalType": "address",
					"name": "sender",
					"type": "address"
				},
				{
					"indexed": false,
					"internalType": "uint256",
					"name": "amount",
					"type": "uint256"
				}
			],
			"name": "Received",
			"type": "event"
		},
		{
			"inputs": [],
			"name": "QVEliquidityPool",
			"outputs": [
				{
					"internalType": "uint256",
					"name": "balance",
					"type": "uint256"
				},
				{
					"internalType": "uint256",
					"name": "at",
					"type": "uint256"
				}
			],
			"stateMutability": "view",
			"type": "function"
		},
		{
			"inputs": [
				{
					"internalType": "address payable",
					"name": "destination",
					"type": "address"
				}
			],
			"name": "_forwardFunds",
			"outputs": [],
			"stateMutability": "payable",
			"type": "function"
		},
		{
			"inputs": [
				{
					"internalType": "address",
					"name": "_to",
					"type": "address"
				},
				{
					"internalType": "uint256",
					"name": "sendAmount",
					"type": "uint256"
				}
			],
			"name": "_sendQVEFromLiquidity",
			"outputs": [
				{
					"internalType": "bool",
					"name": "",
					"type": "bool"
				}
			],
			"stateMutability": "nonpayable",
			"type": "function"
		},
		{
			"inputs": [
				{
					"internalType": "uint256",
					"name": "tokenId",
					"type": "uint256"
				}
			],
			"name": "burnInvestmentGuarantee",
			"outputs": [
				{
					"internalType": "bool",
					"name": "",
					"type": "bool"
				}
			],
			"stateMutability": "nonpayable",
			"type": "function"
		},
		{
			"inputs": [
				{
					"internalType": "uint256",
					"name": "qveStakeAmount",
					"type": "uint256"
				}
			],
			"name": "doQVEStake",
			"outputs": [
				{
					"internalType": "bool",
					"name": "",
					"type": "bool"
				}
			],
			"stateMutability": "nonpayable",
			"type": "function"
		},
		{
			"inputs": [],
			"name": "esQVEliquidityPool",
			"outputs": [
				{
					"internalType": "uint256",
					"name": "balance",
					"type": "uint256"
				},
				{
					"internalType": "uint256",
					"name": "at",
					"type": "uint256"
				}
			],
			"stateMutability": "view",
			"type": "function"
		},
		{
			"inputs": [
				{
					"internalType": "address",
					"name": "_address",
					"type": "address"
				}
			],
			"name": "getEthBalance",
			"outputs": [
				{
					"internalType": "uint256",
					"name": "",
					"type": "uint256"
				}
			],
			"stateMutability": "view",
			"type": "function"
		},
		{
			"inputs": [],
			"name": "getEthMarginVault_",
			"outputs": [
				{
					"components": [
						{
							"components": [
								{
									"internalType": "uint256",
									"name": "marginAmount",
									"type": "uint256"
								},
								{
									"internalType": "uint256",
									"name": "at",
									"type": "uint256"
								},
								{
									"internalType": "uint256",
									"name": "tokenId",
									"type": "uint256"
								}
							],
							"internalType": "struct QVEcore.marginDetail[]",
							"name": "marginDetails",
							"type": "tuple[]"
						},
						{
							"internalType": "uint256[]",
							"name": "holdNFT",
							"type": "uint256[]"
						}
					],
					"internalType": "struct QVEcore.userMarginData",
					"name": "",
					"type": "tuple"
				}
			],
			"stateMutability": "view",
			"type": "function"
		},
		{
			"inputs": [],
			"name": "getInputedMarginCount",
			"outputs": [
				{
					"internalType": "uint256",
					"name": "",
					"type": "uint256"
				}
			],
			"stateMutability": "view",
			"type": "function"
		},
		{
			"inputs": [],
			"name": "getNFTbalance_",
			"outputs": [
				{
					"internalType": "uint256",
					"name": "",
					"type": "uint256"
				}
			],
			"stateMutability": "view",
			"type": "function"
		},
		{
			"inputs": [],
			"name": "getNfts_",
			"outputs": [
				{
					"components": [
						{
							"internalType": "uint256",
							"name": "tokenId",
							"type": "uint256"
						},
						{
							"internalType": "uint256",
							"name": "at",
							"type": "uint256"
						}
					],
					"internalType": "struct QVEcore.NFTFragment[]",
					"name": "",
					"type": "tuple[]"
				}
			],
			"stateMutability": "view",
			"type": "function"
		},
		{
			"inputs": [],
			"name": "getQVELiquidityAmount_",
			"outputs": [
				{
					"internalType": "uint256",
					"name": "",
					"type": "uint256"
				}
			],
			"stateMutability": "view",
			"type": "function"
		},
		{
			"inputs": [],
			"name": "getQVEbalance",
			"outputs": [
				{
					"internalType": "uint256",
					"name": "",
					"type": "uint256"
				}
			],
			"stateMutability": "view",
			"type": "function"
		},
		{
			"inputs": [
				{
					"internalType": "uint256",
					"name": "tokenId",
					"type": "uint256"
				}
			],
			"name": "getmarginForNFT_",
			"outputs": [
				{
					"internalType": "uint256",
					"name": "",
					"type": "uint256"
				}
			],
			"stateMutability": "view",
			"type": "function"
		},
		{
			"inputs": [
				{
					"internalType": "address",
					"name": "",
					"type": "address"
				},
				{
					"internalType": "address",
					"name": "nftOwner",
					"type": "address"
				},
				{
					"internalType": "uint256",
					"name": "tokenId",
					"type": "uint256"
				},
				{
					"internalType": "bytes",
					"name": "",
					"type": "bytes"
				}
			],
			"name": "onERC721Received",
			"outputs": [
				{
					"internalType": "bytes4",
					"name": "",
					"type": "bytes4"
				}
			],
			"stateMutability": "nonpayable",
			"type": "function"
		},
		{
			"inputs": [],
			"name": "owner",
			"outputs": [
				{
					"internalType": "address",
					"name": "",
					"type": "address"
				}
			],
			"stateMutability": "view",
			"type": "function"
		},
		{
			"inputs": [],
			"name": "qveStaking",
			"outputs": [
				{
					"internalType": "contract QVEstaking",
					"name": "",
					"type": "address"
				}
			],
			"stateMutability": "view",
			"type": "function"
		},
		{
			"inputs": [],
			"name": "qveSwap",
			"outputs": [
				{
					"internalType": "contract QVEswap",
					"name": "",
					"type": "address"
				}
			],
			"stateMutability": "view",
			"type": "function"
		},
		{
			"inputs": [],
			"name": "qvenft",
			"outputs": [
				{
					"internalType": "contract QVEnft",
					"name": "",
					"type": "address"
				}
			],
			"stateMutability": "view",
			"type": "function"
		},
		{
			"inputs": [],
			"name": "qvetoken",
			"outputs": [
				{
					"internalType": "contract QVEtoken",
					"name": "",
					"type": "address"
				}
			],
			"stateMutability": "view",
			"type": "function"
		},
		{
			"inputs": [
				{
					"internalType": "bool",
					"name": "lockup",
					"type": "bool"
				},
				{
					"internalType": "uint256",
					"name": "sendAmount",
					"type": "uint256"
				}
			],
			"name": "receiveAsset",
			"outputs": [
				{
					"internalType": "bool",
					"name": "",
					"type": "bool"
				}
			],
			"stateMutability": "payable",
			"type": "function"
		},
		{
			"inputs": [],
			"name": "renounceOwnership",
			"outputs": [],
			"stateMutability": "nonpayable",
			"type": "function"
		},
		{
			"inputs": [
				{
					"internalType": "uint256",
					"name": "tokenId",
					"type": "uint256"
				}
			],
			"name": "sendIntoContract_",
			"outputs": [
				{
					"internalType": "bool",
					"name": "",
					"type": "bool"
				}
			],
			"stateMutability": "nonpayable",
			"type": "function"
		},
		{
			"inputs": [
				{
					"internalType": "address payable",
					"name": "botAddress",
					"type": "address"
				},
				{
					"internalType": "uint256",
					"name": "sendAmount",
					"type": "uint256"
				}
			],
			"name": "sendToBotAddress_",
			"outputs": [
				{
					"internalType": "bool",
					"name": "",
					"type": "bool"
				}
			],
			"stateMutability": "payable",
			"type": "function"
		},
		{
			"inputs": [
				{
					"internalType": "uint256",
					"name": "qveAmount",
					"type": "uint256"
				},
				{
					"internalType": "uint256",
					"name": "tokenId",
					"type": "uint256"
				}
			],
			"name": "shortenLockup",
			"outputs": [
				{
					"internalType": "bool",
					"name": "",
					"type": "bool"
				}
			],
			"stateMutability": "nonpayable",
			"type": "function"
		},
		{
			"inputs": [
				{
					"internalType": "uint256",
					"name": "tokenAmount",
					"type": "uint256"
				}
			],
			"name": "swapETHtoQVE_",
			"outputs": [
				{
					"internalType": "bool",
					"name": "",
					"type": "bool"
				}
			],
			"stateMutability": "payable",
			"type": "function"
		},
		{
			"inputs": [
				{
					"internalType": "uint256",
					"name": "tokenAmount",
					"type": "uint256"
				}
			],
			"name": "swapQVEtoETH_",
			"outputs": [
				{
					"internalType": "bool",
					"name": "",
					"type": "bool"
				}
			],
			"stateMutability": "nonpayable",
			"type": "function"
		},
		{
			"inputs": [
				{
					"internalType": "address",
					"name": "newOwner",
					"type": "address"
				}
			],
			"name": "transferOwnership",
			"outputs": [],
			"stateMutability": "nonpayable",
			"type": "function"
		},
		{
			"stateMutability": "payable",
			"type": "receive"
		}
	]
}