{
	"data": {
		"bytecode": {
			"linkReferences": {},
			"object": "608060405234801562000010575f80fd5b50604051620029e7380380620029e7833981810160405281019062000036919062000578565b620000566200004a6200037060201b60201c565b6200037760201b60201c565b8360025f6101000a81548173ffffffffffffffffffffffffffffffffffffffff021916908373ffffffffffffffffffffffffffffffffffffffff1602179055508260035f6101000a81548173ffffffffffffffffffffffffffffffffffffffff021916908373ffffffffffffffffffffffffffffffffffffffff1602179055508160045f6101000a81548173ffffffffffffffffffffffffffffffffffffffff021916908373ffffffffffffffffffffffffffffffffffffffff1602179055508060055f6101000a81548173ffffffffffffffffffffffffffffffffffffffff021916908373ffffffffffffffffffffffffffffffffffffffff16021790555060025f9054906101000a900473ffffffffffffffffffffffffffffffffffffffff1673ffffffffffffffffffffffffffffffffffffffff1663469895c83330600460025f9054906101000a900473ffffffffffffffffffffffffffffffffffffffff1673ffffffffffffffffffffffffffffffffffffffff166318160ddd6040518163ffffffff1660e01b8152600401602060405180830381865afa15801562000202573d5f803e3d5ffd5b505050506040513d601f19601f820116820180604052508101906200022891906200061f565b620002349190620006a9565b6040518463ffffffff1660e01b8152600401620002549392919062000702565b6020604051808303815f875af115801562000271573d5f803e3d5ffd5b505050506040513d601f19601f8201168201806040525081019062000297919062000777565b50670de0b6b3a764000060025f9054906101000a900473ffffffffffffffffffffffffffffffffffffffff1673ffffffffffffffffffffffffffffffffffffffff166370a08231306040518263ffffffff1660e01b8152600401620002fd9190620007a7565b602060405180830381865afa15801562000319573d5f803e3d5ffd5b505050506040513d601f19601f820116820180604052508101906200033f91906200061f565b6200034b9190620006a9565b60075f015f8282546200035f9190620007c2565b9250508190555050505050620007fc565b5f33905090565b5f8060019054906101000a900473ffffffffffffffffffffffffffffffffffffffff169050815f60016101000a81548173ffffffffffffffffffffffffffffffffffffffff021916908373ffffffffffffffffffffffffffffffffffffffff1602179055508173ffffffffffffffffffffffffffffffffffffffff168173ffffffffffffffffffffffffffffffffffffffff167f8be0079c531659141344cd1fd0a4f28419497f9722a3daafe3b4186f6b6457e060405160405180910390a35050565b5f80fd5b5f73ffffffffffffffffffffffffffffffffffffffff82169050919050565b5f62000469826200043e565b9050919050565b5f6200047c826200045d565b9050919050565b6200048e8162000470565b811462000499575f80fd5b50565b5f81519050620004ac8162000483565b92915050565b5f620004be826200045d565b9050919050565b620004d081620004b2565b8114620004db575f80fd5b50565b5f81519050620004ee81620004c5565b92915050565b5f62000500826200045d565b9050919050565b6200051281620004f4565b81146200051d575f80fd5b50565b5f81519050620005308162000507565b92915050565b5f62000542826200045d565b9050919050565b620005548162000536565b81146200055f575f80fd5b50565b5f81519050620005728162000549565b92915050565b5f805f80608085870312156200059357620005926200043a565b5b5f620005a2878288016200049c565b9450506020620005b587828801620004de565b9350506040620005c88782880162000520565b9250506060620005db8782880162000562565b91505092959194509250565b5f819050919050565b620005fb81620005e7565b811462000606575f80fd5b50565b5f815190506200061981620005f0565b92915050565b5f602082840312156200063757620006366200043a565b5b5f620006468482850162000609565b91505092915050565b7f4e487b71000000000000000000000000000000000000000000000000000000005f52601260045260245ffd5b7f4e487b71000000000000000000000000000000000000000000000000000000005f52601160045260245ffd5b5f620006b582620005e7565b9150620006c283620005e7565b925082620006d557620006d46200064f565b5b828204905092915050565b620006eb816200045d565b82525050565b620006fc81620005e7565b82525050565b5f606082019050620007175f830186620006e0565b620007266020830185620006e0565b620007356040830184620006f1565b949350505050565b5f8115159050919050565b62000753816200073d565b81146200075e575f80fd5b50565b5f81519050620007718162000748565b92915050565b5f602082840312156200078f576200078e6200043a565b5b5f6200079e8482850162000761565b91505092915050565b5f602082019050620007bc5f830184620006e0565b92915050565b5f620007ce82620005e7565b9150620007db83620005e7565b9250828201905080821115620007f657620007f56200067c565b5b92915050565b6121dd806200080a5f395ff3fe6080604052600436106100e7575f3560e01c80638866b93711610089578063f366b27e11610058578063f366b27e146102b7578063f968217b146102f3578063fdcdbae21461031d578063fe35fb5014610347576100e7565b80638866b937146102115780638da5cb5b1461023b5780639f62e79614610265578063f2fde38b1461028f576100e7565b8063510b7f98116100c5578063510b7f981461016b5780635ac6699314610195578063715018a6146101bf57806383ce6147146101d5576100e7565b80630691badf146100eb5780630e301d24146101165780632b1c415814610141575b5f80fd5b3480156100f6575f80fd5b506100ff610377565b60405161010d92919061161a565b60405180910390f35b348015610121575f80fd5b5061012a610388565b60405161013892919061161a565b60405180910390f35b34801561014c575f80fd5b50610155610399565b60405161016291906116bb565b60405180910390f35b348015610176575f80fd5b5061017f6103be565b60405161018c91906116f4565b60405180910390f35b3480156101a0575f80fd5b506101a96103e3565b6040516101b691906117f1565b60405180910390f35b3480156101ca575f80fd5b506101d361048f565b005b3480156101e0575f80fd5b506101fb60048036038101906101f6919061183f565b6104a2565b6040516102089190611897565b60405180910390f35b34801561021c575f80fd5b506102256105cd565b60405161023291906118b0565b60405180910390f35b348015610246575f80fd5b5061024f6105dd565b60405161025c91906118e9565b60405180910390f35b348015610270575f80fd5b50610279610605565b60405161028691906118b0565b60405180910390f35b34801561029a575f80fd5b506102b560048036038101906102b0919061192c565b6106a4565b005b3480156102c2575f80fd5b506102dd60048036038101906102d89190611957565b610726565b6040516102ea9190611897565b60405180910390f35b3480156102fe575f80fd5b506103076108c1565b60405161031491906119a2565b60405180910390f35b348015610328575f80fd5b506103316108e6565b60405161033e91906119db565b60405180910390f35b610361600480360381019061035c9190611a1e565b61090b565b60405161036e9190611897565b60405180910390f35b6009805f0154908060010154905082565b6007805f0154908060010154905082565b60025f9054906101000a900473ffffffffffffffffffffffffffffffffffffffff1681565b60035f9054906101000a900473ffffffffffffffffffffffffffffffffffffffff1681565b606060065f3373ffffffffffffffffffffffffffffffffffffffff1673ffffffffffffffffffffffffffffffffffffffff1681526020019081526020015f205f01805480602002602001604051908101604052809291908181526020015f905b82821015610486578382905f5260205f2090600202016040518060400160405290815f820154815260200160018201548152505081526020019060010190610443565b50505050905090565b6104976109e8565b6104a05f610a66565b565b5f60035f9054906101000a900473ffffffffffffffffffffffffffffffffffffffff1673ffffffffffffffffffffffffffffffffffffffff1663b2c3a7178430856040518463ffffffff1660e01b815260040161050193929190611a5c565b6020604051808303815f875af115801561051d573d5f803e3d5ffd5b505050506040513d601f19601f820116820180604052508101906105419190611aa5565b6040518060400160405280601a81526020017f5761726e696e6720466f72204c6f636b75702053686f7274656e000000000000815250906105b8576040517f08c379a00000000000000000000000000000000000000000000000000000000081526004016105af9190611b5a565b60405180910390fd5b506105c283610b29565b506001905092915050565b5f6105d86001610b57565b905090565b5f8060019054906101000a900473ffffffffffffffffffffffffffffffffffffffff16905090565b5f60035f9054906101000a900473ffffffffffffffffffffffffffffffffffffffff1673ffffffffffffffffffffffffffffffffffffffff166370a08231336040518263ffffffff1660e01b815260040161066091906118e9565b602060405180830381865afa15801561067b573d5f803e3d5ffd5b505050506040513d601f19601f8201168201806040525081019061069f9190611b8e565b905090565b6106ac6109e8565b5f73ffffffffffffffffffffffffffffffffffffffff168173ffffffffffffffffffffffffffffffffffffffff160361071a576040517f08c379a000000000000000000000000000000000000000000000000000000000815260040161071190611c29565b60405180910390fd5b61072381610a66565b50565b5f60035f9054906101000a900473ffffffffffffffffffffffffffffffffffffffff1673ffffffffffffffffffffffffffffffffffffffff16632890e0d7836040518263ffffffff1660e01b815260040161078191906118b0565b6020604051808303815f875af115801561079d573d5f803e3d5ffd5b505050506040513d601f19601f820116820180604052508101906107c19190611aa5565b506107f033670de0b6b3a7640000600b5f8681526020019081526020015f20546107eb9190611ca1565b610b63565b6040518060400160405280601481526020017f5761726e696e6720466f72205472616e7366657200000000000000000000000081525090610867576040517f08c379a000000000000000000000000000000000000000000000000000000000815260040161085e9190611b5a565b60405180910390fd5b506108b0670de0b6b3a76400006064600a60ff16600b5f8781526020019081526020015f20546108979190611cd1565b6108a19190611ca1565b6108ab9190611cd1565b610cbb565b6108b8575f80fd5b60019050919050565b60055f9054906101000a900473ffffffffffffffffffffffffffffffffffffffff1681565b60045f9054906101000a900473ffffffffffffffffffffffffffffffffffffffff1681565b5f6109168383610de1565b505f61092184610e91565b6040516020016109319190611de0565b604051602081830303815290604052905060035f9054906101000a900473ffffffffffffffffffffffffffffffffffffffff1673ffffffffffffffffffffffffffffffffffffffff16630890d80c826040518263ffffffff1660e01b815260040161099c9190611eec565b6020604051808303815f875af11580156109b8573d5f803e3d5ffd5b505050506040513d601f19601f820116820180604052508101906109dc9190611aa5565b50600191505092915050565b6109f0610f5b565b73ffffffffffffffffffffffffffffffffffffffff16610a0e6105dd565b73ffffffffffffffffffffffffffffffffffffffff1614610a64576040517f08c379a0000000000000000000000000000000000000000000000000000000008152600401610a5b90611f7c565b60405180910390fd5b565b5f8060019054906101000a900473ffffffffffffffffffffffffffffffffffffffff169050815f60016101000a81548173ffffffffffffffffffffffffffffffffffffffff021916908373ffffffffffffffffffffffffffffffffffffffff1602179055508173ffffffffffffffffffffffffffffffffffffffff168173ffffffffffffffffffffffffffffffffffffffff167f8be0079c531659141344cd1fd0a4f28419497f9722a3daafe3b4186f6b6457e060405160405180910390a35050565b5f8160075f015f828254610b3d9190611f9a565b925050819055504260076001018190555060019050919050565b5f815f01549050919050565b5f60025f9054906101000a900473ffffffffffffffffffffffffffffffffffffffff1673ffffffffffffffffffffffffffffffffffffffff1663469895c83085670de0b6b3a764000086610bb79190611cd1565b6040518463ffffffff1660e01b8152600401610bd593929190611fcd565b6020604051808303815f875af1158015610bf1573d5f803e3d5ffd5b505050506040513d601f19601f82011682018060405250810190610c159190611aa5565b6040518060400160405280601481526020017f5761726e696e6720466f72205472616e7366657200000000000000000000000081525090610c8c576040517f08c379a0000000000000000000000000000000000000000000000000000000008152600401610c839190611b5a565b60405180910390fd5b508160075f015f828254610ca09190612002565b92505081905550426007600101819055506001905092915050565b5f805f9054906101000a900460ff1615610d0a576040517f08c379a0000000000000000000000000000000000000000000000000000000008152600401610d019061207f565b60405180910390fd5b60015f806101000a81548160ff02191690831515021790555060045f9054906101000a900473ffffffffffffffffffffffffffffffffffffffff1673ffffffffffffffffffffffffffffffffffffffff166344570b3f33846040518363ffffffff1660e01b8152600401610d7f92919061209d565b6020604051808303815f875af1158015610d9b573d5f803e3d5ffd5b505050506040513d601f19601f82011682018060405250810190610dbf9190611aa5565b50600190505f805f6101000a81548160ff021916908315150217905550919050565b5f80610dee338585610f62565b9050610df9816112bc565b610e04338583611355565b6040518060400160405280601181526020017f5761726e696e6720466f72205661756c7400000000000000000000000000000081525090610e7b576040517f08c379a0000000000000000000000000000000000000000000000000000000008152600401610e729190611b5a565b60405180910390fd5b50610e86600161147e565b600191505092915050565b60605f6001610e9f84611492565b0190505f8167ffffffffffffffff811115610ebd57610ebc6120c4565b5b6040519080825280601f01601f191660200182016040528015610eef5781602001600182028036833780820191505090505b5090505f82602001820190505b600115610f50578080600190039150507f3031323334353637383961626364656600000000000000000000000000000000600a86061a8153600a8581610f4557610f44611c47565b5b0494505f8503610efc575b819350505050919050565b5f33905090565b5f805f9054906101000a900460ff1615610fb1576040517f08c379a0000000000000000000000000000000000000000000000000000000008152600401610fa89061207f565b60405180910390fd5b60015f806101000a81548160ff0219169083151502179055505f60035f9054906101000a900473ffffffffffffffffffffffffffffffffffffffff1673ffffffffffffffffffffffffffffffffffffffff1663f42c69d686856040518363ffffffff1660e01b81526004016110279291906120f1565b6020604051808303815f875af1158015611043573d5f803e3d5ffd5b505050506040513d601f19601f820116820180604052508101906110679190611b8e565b905060065f8673ffffffffffffffffffffffffffffffffffffffff1673ffffffffffffffffffffffffffffffffffffffff1681526020019081526020015f205f01604051806040016040528083815260200142815250908060018154018082558091505060019003905f5260205f2090600202015f909190919091505f820151815f0155602082015181600101555050611102338583611355565b5082156112995760045f9054906101000a900473ffffffffffffffffffffffffffffffffffffffff1673ffffffffffffffffffffffffffffffffffffffff1663340fc3e433670de0b6b3a764000060648861115d9190611cd1565b6111679190611cd1565b6040518363ffffffff1660e01b815260040161118492919061209d565b6020604051808303815f875af11580156111a0573d5f803e3d5ffd5b505050506040513d601f19601f820116820180604052508101906111c49190611aa5565b611203576040517f08c379a00000000000000000000000000000000000000000000000000000000081526004016111fa90612162565b60405180910390fd5b60055f9054906101000a900473ffffffffffffffffffffffffffffffffffffffff1673ffffffffffffffffffffffffffffffffffffffff1663cdb51cdf60648661124d9190611cd1565b336040518363ffffffff1660e01b815260040161126b929190612180565b5f604051808303815f87803b158015611282575f80fd5b505af1158015611294573d5f803e3d5ffd5b505050505b809150505f805f6101000a81548160ff0219169083151502179055509392505050565b611352816040516024016112d091906118b0565b6040516020818303038152906040527ff82c50f1000000000000000000000000000000000000000000000000000000007bffffffffffffffffffffffffffffffffffffffffffffffffffffffff19166020820180517bffffffffffffffffffffffffffffffffffffffffffffffffffffffff83818316178352505050506115e3565b50565b5f80600c5f8673ffffffffffffffffffffffffffffffffffffffff1673ffffffffffffffffffffffffffffffffffffffff1681526020019081526020015f205f01905080604051806060016040528086815260200142815260200185815250908060018154018082558091505060019003905f5260205f2090600302015f909190919091505f820151815f015560208201518160010155604082015181600201555050600c5f8673ffffffffffffffffffffffffffffffffffffffff1673ffffffffffffffffffffffffffffffffffffffff1681526020019081526020015f2060010183908060018154018082558091505060019003905f5260205f20015f909190919091505583600b5f8581526020019081526020015f208190555060019150509392505050565b6001815f015f828254019250508190555050565b5f805f90507a184f03e93ff9f4daa797ed6e38ed64bf6a1f01000000000000000083106114ee577a184f03e93ff9f4daa797ed6e38ed64bf6a1f01000000000000000083816114e4576114e3611c47565b5b0492506040810190505b6d04ee2d6d415b85acef8100000000831061152b576d04ee2d6d415b85acef8100000000838161152157611520611c47565b5b0492506020810190505b662386f26fc10000831061155a57662386f26fc1000083816115505761154f611c47565b5b0492506010810190505b6305f5e1008310611583576305f5e100838161157957611578611c47565b5b0492506008810190505b61271083106115a857612710838161159e5761159d611c47565b5b0492506004810190505b606483106115cb57606483816115c1576115c0611c47565b5b0492506002810190505b600a83106115da576001810190505b80915050919050565b5f6a636f6e736f6c652e6c6f6790505f80835160208501845afa505050565b5f819050919050565b61161481611602565b82525050565b5f60408201905061162d5f83018561160b565b61163a602083018461160b565b9392505050565b5f73ffffffffffffffffffffffffffffffffffffffff82169050919050565b5f819050919050565b5f61168361167e61167984611641565b611660565b611641565b9050919050565b5f61169482611669565b9050919050565b5f6116a58261168a565b9050919050565b6116b58161169b565b82525050565b5f6020820190506116ce5f8301846116ac565b92915050565b5f6116de8261168a565b9050919050565b6116ee816116d4565b82525050565b5f6020820190506117075f8301846116e5565b92915050565b5f81519050919050565b5f82825260208201905092915050565b5f819050602082019050919050565b61173f81611602565b82525050565b604082015f8201516117595f850182611736565b50602082015161176c6020850182611736565b50505050565b5f61177d8383611745565b60408301905092915050565b5f602082019050919050565b5f61179f8261170d565b6117a98185611717565b93506117b483611727565b805f5b838110156117e45781516117cb8882611772565b97506117d683611789565b9250506001810190506117b7565b5085935050505092915050565b5f6020820190508181035f8301526118098184611795565b905092915050565b5f80fd5b61181e81611602565b8114611828575f80fd5b50565b5f8135905061183981611815565b92915050565b5f806040838503121561185557611854611811565b5b5f6118628582860161182b565b92505060206118738582860161182b565b9150509250929050565b5f8115159050919050565b6118918161187d565b82525050565b5f6020820190506118aa5f830184611888565b92915050565b5f6020820190506118c35f83018461160b565b92915050565b5f6118d382611641565b9050919050565b6118e3816118c9565b82525050565b5f6020820190506118fc5f8301846118da565b92915050565b61190b816118c9565b8114611915575f80fd5b50565b5f8135905061192681611902565b92915050565b5f6020828403121561194157611940611811565b5b5f61194e84828501611918565b91505092915050565b5f6020828403121561196c5761196b611811565b5b5f6119798482850161182b565b91505092915050565b5f61198c8261168a565b9050919050565b61199c81611982565b82525050565b5f6020820190506119b55f830184611993565b92915050565b5f6119c58261168a565b9050919050565b6119d5816119bb565b82525050565b5f6020820190506119ee5f8301846119cc565b92915050565b6119fd8161187d565b8114611a07575f80fd5b50565b5f81359050611a18816119f4565b92915050565b5f8060408385031215611a3457611a33611811565b5b5f611a418582860161182b565b9250506020611a5285828601611a0a565b9150509250929050565b5f606082019050611a6f5f83018661160b565b611a7c60208301856118da565b611a89604083018461160b565b949350505050565b5f81519050611a9f816119f4565b92915050565b5f60208284031215611aba57611ab9611811565b5b5f611ac784828501611a91565b91505092915050565b5f81519050919050565b5f82825260208201905092915050565b5f5b83811015611b07578082015181840152602081019050611aec565b5f8484015250505050565b5f601f19601f8301169050919050565b5f611b2c82611ad0565b611b368185611ada565b9350611b46818560208601611aea565b611b4f81611b12565b840191505092915050565b5f6020820190508181035f830152611b728184611b22565b905092915050565b5f81519050611b8881611815565b92915050565b5f60208284031215611ba357611ba2611811565b5b5f611bb084828501611b7a565b91505092915050565b7f4f776e61626c653a206e6577206f776e657220697320746865207a65726f20615f8201527f6464726573730000000000000000000000000000000000000000000000000000602082015250565b5f611c13602683611ada565b9150611c1e82611bb9565b604082019050919050565b5f6020820190508181035f830152611c4081611c07565b9050919050565b7f4e487b71000000000000000000000000000000000000000000000000000000005f52601260045260245ffd5b7f4e487b71000000000000000000000000000000000000000000000000000000005f52601160045260245ffd5b5f611cab82611602565b9150611cb683611602565b925082611cc657611cc5611c47565b5b828204905092915050565b5f611cdb82611602565b9150611ce683611602565b9250828202611cf481611602565b91508282048414831517611d0b57611d0a611c74565b5b5092915050565b5f81905092915050565b7f4d617267696e203a2000000000000000000000000000000000000000000000005f82015250565b5f611d50600983611d12565b9150611d5b82611d1c565b600982019050919050565b5f611d7082611ad0565b611d7a8185611d12565b9350611d8a818560208601611aea565b80840191505092915050565b7f45544800000000000000000000000000000000000000000000000000000000005f82015250565b5f611dca600383611d12565b9150611dd582611d96565b600382019050919050565b5f611dea82611d44565b9150611df68284611d66565b9150611e0182611dbe565b915081905092915050565b7f5374616b696e672047756172616e7465652043617264000000000000000000005f82015250565b5f611e40601683611ada565b9150611e4b82611e0c565b602082019050919050565b7f68747470733a2f2f697066732e696f2f697066732f516d57456751736b4263745f8201527f514a55617245796376366378506e4d3357723461487a3672476f7132516d547660208201527f7755633f66696c656e616d653d51564577617272616e74792e706e6700000000604082015250565b5f611ed6605c83611ada565b9150611ee182611e56565b606082019050919050565b5f6060820190508181035f830152611f0381611e34565b90508181036020830152611f178184611b22565b90508181036040830152611f2a81611eca565b905092915050565b7f4f776e61626c653a2063616c6c6572206973206e6f7420746865206f776e65725f82015250565b5f611f66602083611ada565b9150611f7182611f32565b602082019050919050565b5f6020820190508181035f830152611f9381611f5a565b9050919050565b5f611fa482611602565b9150611faf83611602565b9250828201905080821115611fc757611fc6611c74565b5b92915050565b5f606082019050611fe05f8301866118da565b611fed60208301856118da565b611ffa604083018461160b565b949350505050565b5f61200c82611602565b915061201783611602565b925082820390508181111561202f5761202e611c74565b5b92915050565b7f4e6f205265456e7472616e6379000000000000000000000000000000000000005f82015250565b5f612069600d83611ada565b915061207482612035565b602082019050919050565b5f6020820190508181035f8301526120968161205d565b9050919050565b5f6040820190506120b05f8301856118da565b6120bd602083018461160b565b9392505050565b7f4e487b71000000000000000000000000000000000000000000000000000000005f52604160045260245ffd5b5f6040820190506121045f8301856118da565b6121116020830184611888565b9392505050565b7f4d696e74546f457363726f77206572726f7200000000000000000000000000005f82015250565b5f61214c601283611ada565b915061215782612118565b602082019050919050565b5f6020820190508181035f83015261217981612140565b9050919050565b5f6040820190506121935f83018561160b565b6121a060208301846118da565b939250505056fea2646970667358221220de10e65fc5d5d7ceb1aea3641b4f11350f1f055e2ea972596a2bf31e702dbcb164736f6c63430008150033",
			"opcodes": "PUSH1 0x80 PUSH1 0x40 MSTORE CALLVALUE DUP1 ISZERO PUSH3 0x10 JUMPI PUSH0 DUP1 REVERT JUMPDEST POP PUSH1 0x40 MLOAD PUSH3 0x29E7 CODESIZE SUB DUP1 PUSH3 0x29E7 DUP4 CODECOPY DUP2 DUP2 ADD PUSH1 0x40 MSTORE DUP2 ADD SWAP1 PUSH3 0x36 SWAP2 SWAP1 PUSH3 0x578 JUMP JUMPDEST PUSH3 0x56 PUSH3 0x4A PUSH3 0x370 PUSH1 0x20 SHL PUSH1 0x20 SHR JUMP JUMPDEST PUSH3 0x377 PUSH1 0x20 SHL PUSH1 0x20 SHR JUMP JUMPDEST DUP4 PUSH1 0x2 PUSH0 PUSH2 0x100 EXP DUP2 SLOAD DUP2 PUSH20 0xFFFFFFFFFFFFFFFFFFFFFFFFFFFFFFFFFFFFFFFF MUL NOT AND SWAP1 DUP4 PUSH20 0xFFFFFFFFFFFFFFFFFFFFFFFFFFFFFFFFFFFFFFFF AND MUL OR SWAP1 SSTORE POP DUP3 PUSH1 0x3 PUSH0 PUSH2 0x100 EXP DUP2 SLOAD DUP2 PUSH20 0xFFFFFFFFFFFFFFFFFFFFFFFFFFFFFFFFFFFFFFFF MUL NOT AND SWAP1 DUP4 PUSH20 0xFFFFFFFFFFFFFFFFFFFFFFFFFFFFFFFFFFFFFFFF AND MUL OR SWAP1 SSTORE POP DUP2 PUSH1 0x4 PUSH0 PUSH2 0x100 EXP DUP2 SLOAD DUP2 PUSH20 0xFFFFFFFFFFFFFFFFFFFFFFFFFFFFFFFFFFFFFFFF MUL NOT AND SWAP1 DUP4 PUSH20 0xFFFFFFFFFFFFFFFFFFFFFFFFFFFFFFFFFFFFFFFF AND MUL OR SWAP1 SSTORE POP DUP1 PUSH1 0x5 PUSH0 PUSH2 0x100 EXP DUP2 SLOAD DUP2 PUSH20 0xFFFFFFFFFFFFFFFFFFFFFFFFFFFFFFFFFFFFFFFF MUL NOT AND SWAP1 DUP4 PUSH20 0xFFFFFFFFFFFFFFFFFFFFFFFFFFFFFFFFFFFFFFFF AND MUL OR SWAP1 SSTORE POP PUSH1 0x2 PUSH0 SWAP1 SLOAD SWAP1 PUSH2 0x100 EXP SWAP1 DIV PUSH20 0xFFFFFFFFFFFFFFFFFFFFFFFFFFFFFFFFFFFFFFFF AND PUSH20 0xFFFFFFFFFFFFFFFFFFFFFFFFFFFFFFFFFFFFFFFF AND PUSH4 0x469895C8 CALLER ADDRESS PUSH1 0x4 PUSH1 0x2 PUSH0 SWAP1 SLOAD SWAP1 PUSH2 0x100 EXP SWAP1 DIV PUSH20 0xFFFFFFFFFFFFFFFFFFFFFFFFFFFFFFFFFFFFFFFF AND PUSH20 0xFFFFFFFFFFFFFFFFFFFFFFFFFFFFFFFFFFFFFFFF AND PUSH4 0x18160DDD PUSH1 0x40 MLOAD DUP2 PUSH4 0xFFFFFFFF AND PUSH1 0xE0 SHL DUP2 MSTORE PUSH1 0x4 ADD PUSH1 0x20 PUSH1 0x40 MLOAD DUP1 DUP4 SUB DUP2 DUP7 GAS STATICCALL ISZERO DUP1 ISZERO PUSH3 0x202 JUMPI RETURNDATASIZE PUSH0 DUP1 RETURNDATACOPY RETURNDATASIZE PUSH0 REVERT JUMPDEST POP POP POP POP PUSH1 0x40 MLOAD RETURNDATASIZE PUSH1 0x1F NOT PUSH1 0x1F DUP3 ADD AND DUP3 ADD DUP1 PUSH1 0x40 MSTORE POP DUP2 ADD SWAP1 PUSH3 0x228 SWAP2 SWAP1 PUSH3 0x61F JUMP JUMPDEST PUSH3 0x234 SWAP2 SWAP1 PUSH3 0x6A9 JUMP JUMPDEST PUSH1 0x40 MLOAD DUP5 PUSH4 0xFFFFFFFF AND PUSH1 0xE0 SHL DUP2 MSTORE PUSH1 0x4 ADD PUSH3 0x254 SWAP4 SWAP3 SWAP2 SWAP1 PUSH3 0x702 JUMP JUMPDEST PUSH1 0x20 PUSH1 0x40 MLOAD DUP1 DUP4 SUB DUP2 PUSH0 DUP8 GAS CALL ISZERO DUP1 ISZERO PUSH3 0x271 JUMPI RETURNDATASIZE PUSH0 DUP1 RETURNDATACOPY RETURNDATASIZE PUSH0 REVERT JUMPDEST POP POP POP POP PUSH1 0x40 MLOAD RETURNDATASIZE PUSH1 0x1F NOT PUSH1 0x1F DUP3 ADD AND DUP3 ADD DUP1 PUSH1 0x40 MSTORE POP DUP2 ADD SWAP1 PUSH3 0x297 SWAP2 SWAP1 PUSH3 0x777 JUMP JUMPDEST POP PUSH8 0xDE0B6B3A7640000 PUSH1 0x2 PUSH0 SWAP1 SLOAD SWAP1 PUSH2 0x100 EXP SWAP1 DIV PUSH20 0xFFFFFFFFFFFFFFFFFFFFFFFFFFFFFFFFFFFFFFFF AND PUSH20 0xFFFFFFFFFFFFFFFFFFFFFFFFFFFFFFFFFFFFFFFF AND PUSH4 0x70A08231 ADDRESS PUSH1 0x40 MLOAD DUP3 PUSH4 0xFFFFFFFF AND PUSH1 0xE0 SHL DUP2 MSTORE PUSH1 0x4 ADD PUSH3 0x2FD SWAP2 SWAP1 PUSH3 0x7A7 JUMP JUMPDEST PUSH1 0x20 PUSH1 0x40 MLOAD DUP1 DUP4 SUB DUP2 DUP7 GAS STATICCALL ISZERO DUP1 ISZERO PUSH3 0x319 JUMPI RETURNDATASIZE PUSH0 DUP1 RETURNDATACOPY RETURNDATASIZE PUSH0 REVERT JUMPDEST POP POP POP POP PUSH1 0x40 MLOAD RETURNDATASIZE PUSH1 0x1F NOT PUSH1 0x1F DUP3 ADD AND DUP3 ADD DUP1 PUSH1 0x40 MSTORE POP DUP2 ADD SWAP1 PUSH3 0x33F SWAP2 SWAP1 PUSH3 0x61F JUMP JUMPDEST PUSH3 0x34B SWAP2 SWAP1 PUSH3 0x6A9 JUMP JUMPDEST PUSH1 0x7 PUSH0 ADD PUSH0 DUP3 DUP3 SLOAD PUSH3 0x35F SWAP2 SWAP1 PUSH3 0x7C2 JUMP JUMPDEST SWAP3 POP POP DUP2 SWAP1 SSTORE POP POP POP POP POP PUSH3 0x7FC JUMP JUMPDEST PUSH0 CALLER SWAP1 POP SWAP1 JUMP JUMPDEST PUSH0 DUP1 PUSH1 0x1 SWAP1 SLOAD SWAP1 PUSH2 0x100 EXP SWAP1 DIV PUSH20 0xFFFFFFFFFFFFFFFFFFFFFFFFFFFFFFFFFFFFFFFF AND SWAP1 POP DUP2 PUSH0 PUSH1 0x1 PUSH2 0x100 EXP DUP2 SLOAD DUP2 PUSH20 0xFFFFFFFFFFFFFFFFFFFFFFFFFFFFFFFFFFFFFFFF MUL NOT AND SWAP1 DUP4 PUSH20 0xFFFFFFFFFFFFFFFFFFFFFFFFFFFFFFFFFFFFFFFF AND MUL OR SWAP1 SSTORE POP DUP2 PUSH20 0xFFFFFFFFFFFFFFFFFFFFFFFFFFFFFFFFFFFFFFFF AND DUP2 PUSH20 0xFFFFFFFFFFFFFFFFFFFFFFFFFFFFFFFFFFFFFFFF AND PUSH32 0x8BE0079C531659141344CD1FD0A4F28419497F9722A3DAAFE3B4186F6B6457E0 PUSH1 0x40 MLOAD PUSH1 0x40 MLOAD DUP1 SWAP2 SUB SWAP1 LOG3 POP POP JUMP JUMPDEST PUSH0 DUP1 REVERT JUMPDEST PUSH0 PUSH20 0xFFFFFFFFFFFFFFFFFFFFFFFFFFFFFFFFFFFFFFFF DUP3 AND SWAP1 POP SWAP2 SWAP1 POP JUMP JUMPDEST PUSH0 PUSH3 0x469 DUP3 PUSH3 0x43E JUMP JUMPDEST SWAP1 POP SWAP2 SWAP1 POP JUMP JUMPDEST PUSH0 PUSH3 0x47C DUP3 PUSH3 0x45D JUMP JUMPDEST SWAP1 POP SWAP2 SWAP1 POP JUMP JUMPDEST PUSH3 0x48E DUP2 PUSH3 0x470 JUMP JUMPDEST DUP2 EQ PUSH3 0x499 JUMPI PUSH0 DUP1 REVERT JUMPDEST POP JUMP JUMPDEST PUSH0 DUP2 MLOAD SWAP1 POP PUSH3 0x4AC DUP2 PUSH3 0x483 JUMP JUMPDEST SWAP3 SWAP2 POP POP JUMP JUMPDEST PUSH0 PUSH3 0x4BE DUP3 PUSH3 0x45D JUMP JUMPDEST SWAP1 POP SWAP2 SWAP1 POP JUMP JUMPDEST PUSH3 0x4D0 DUP2 PUSH3 0x4B2 JUMP JUMPDEST DUP2 EQ PUSH3 0x4DB JUMPI PUSH0 DUP1 REVERT JUMPDEST POP JUMP JUMPDEST PUSH0 DUP2 MLOAD SWAP1 POP PUSH3 0x4EE DUP2 PUSH3 0x4C5 JUMP JUMPDEST SWAP3 SWAP2 POP POP JUMP JUMPDEST PUSH0 PUSH3 0x500 DUP3 PUSH3 0x45D JUMP JUMPDEST SWAP1 POP SWAP2 SWAP1 POP JUMP JUMPDEST PUSH3 0x512 DUP2 PUSH3 0x4F4 JUMP JUMPDEST DUP2 EQ PUSH3 0x51D JUMPI PUSH0 DUP1 REVERT JUMPDEST POP JUMP JUMPDEST PUSH0 DUP2 MLOAD SWAP1 POP PUSH3 0x530 DUP2 PUSH3 0x507 JUMP JUMPDEST SWAP3 SWAP2 POP POP JUMP JUMPDEST PUSH0 PUSH3 0x542 DUP3 PUSH3 0x45D JUMP JUMPDEST SWAP1 POP SWAP2 SWAP1 POP JUMP JUMPDEST PUSH3 0x554 DUP2 PUSH3 0x536 JUMP JUMPDEST DUP2 EQ PUSH3 0x55F JUMPI PUSH0 DUP1 REVERT JUMPDEST POP JUMP JUMPDEST PUSH0 DUP2 MLOAD SWAP1 POP PUSH3 0x572 DUP2 PUSH3 0x549 JUMP JUMPDEST SWAP3 SWAP2 POP POP JUMP JUMPDEST PUSH0 DUP1 PUSH0 DUP1 PUSH1 0x80 DUP6 DUP8 SUB SLT ISZERO PUSH3 0x593 JUMPI PUSH3 0x592 PUSH3 0x43A JUMP JUMPDEST JUMPDEST PUSH0 PUSH3 0x5A2 DUP8 DUP3 DUP9 ADD PUSH3 0x49C JUMP JUMPDEST SWAP5 POP POP PUSH1 0x20 PUSH3 0x5B5 DUP8 DUP3 DUP9 ADD PUSH3 0x4DE JUMP JUMPDEST SWAP4 POP POP PUSH1 0x40 PUSH3 0x5C8 DUP8 DUP3 DUP9 ADD PUSH3 0x520 JUMP JUMPDEST SWAP3 POP POP PUSH1 0x60 PUSH3 0x5DB DUP8 DUP3 DUP9 ADD PUSH3 0x562 JUMP JUMPDEST SWAP2 POP POP SWAP3 SWAP6 SWAP2 SWAP5 POP SWAP3 POP JUMP JUMPDEST PUSH0 DUP2 SWAP1 POP SWAP2 SWAP1 POP JUMP JUMPDEST PUSH3 0x5FB DUP2 PUSH3 0x5E7 JUMP JUMPDEST DUP2 EQ PUSH3 0x606 JUMPI PUSH0 DUP1 REVERT JUMPDEST POP JUMP JUMPDEST PUSH0 DUP2 MLOAD SWAP1 POP PUSH3 0x619 DUP2 PUSH3 0x5F0 JUMP JUMPDEST SWAP3 SWAP2 POP POP JUMP JUMPDEST PUSH0 PUSH1 0x20 DUP3 DUP5 SUB SLT ISZERO PUSH3 0x637 JUMPI PUSH3 0x636 PUSH3 0x43A JUMP JUMPDEST JUMPDEST PUSH0 PUSH3 0x646 DUP5 DUP3 DUP6 ADD PUSH3 0x609 JUMP JUMPDEST SWAP2 POP POP SWAP3 SWAP2 POP POP JUMP JUMPDEST PUSH32 0x4E487B7100000000000000000000000000000000000000000000000000000000 PUSH0 MSTORE PUSH1 0x12 PUSH1 0x4 MSTORE PUSH1 0x24 PUSH0 REVERT JUMPDEST PUSH32 0x4E487B7100000000000000000000000000000000000000000000000000000000 PUSH0 MSTORE PUSH1 0x11 PUSH1 0x4 MSTORE PUSH1 0x24 PUSH0 REVERT JUMPDEST PUSH0 PUSH3 0x6B5 DUP3 PUSH3 0x5E7 JUMP JUMPDEST SWAP2 POP PUSH3 0x6C2 DUP4 PUSH3 0x5E7 JUMP JUMPDEST SWAP3 POP DUP3 PUSH3 0x6D5 JUMPI PUSH3 0x6D4 PUSH3 0x64F JUMP JUMPDEST JUMPDEST DUP3 DUP3 DIV SWAP1 POP SWAP3 SWAP2 POP POP JUMP JUMPDEST PUSH3 0x6EB DUP2 PUSH3 0x45D JUMP JUMPDEST DUP3 MSTORE POP POP JUMP JUMPDEST PUSH3 0x6FC DUP2 PUSH3 0x5E7 JUMP JUMPDEST DUP3 MSTORE POP POP JUMP JUMPDEST PUSH0 PUSH1 0x60 DUP3 ADD SWAP1 POP PUSH3 0x717 PUSH0 DUP4 ADD DUP7 PUSH3 0x6E0 JUMP JUMPDEST PUSH3 0x726 PUSH1 0x20 DUP4 ADD DUP6 PUSH3 0x6E0 JUMP JUMPDEST PUSH3 0x735 PUSH1 0x40 DUP4 ADD DUP5 PUSH3 0x6F1 JUMP JUMPDEST SWAP5 SWAP4 POP POP POP POP JUMP JUMPDEST PUSH0 DUP2 ISZERO ISZERO SWAP1 POP SWAP2 SWAP1 POP JUMP JUMPDEST PUSH3 0x753 DUP2 PUSH3 0x73D JUMP JUMPDEST DUP2 EQ PUSH3 0x75E JUMPI PUSH0 DUP1 REVERT JUMPDEST POP JUMP JUMPDEST PUSH0 DUP2 MLOAD SWAP1 POP PUSH3 0x771 DUP2 PUSH3 0x748 JUMP JUMPDEST SWAP3 SWAP2 POP POP JUMP JUMPDEST PUSH0 PUSH1 0x20 DUP3 DUP5 SUB SLT ISZERO PUSH3 0x78F JUMPI PUSH3 0x78E PUSH3 0x43A JUMP JUMPDEST JUMPDEST PUSH0 PUSH3 0x79E DUP5 DUP3 DUP6 ADD PUSH3 0x761 JUMP JUMPDEST SWAP2 POP POP SWAP3 SWAP2 POP POP JUMP JUMPDEST PUSH0 PUSH1 0x20 DUP3 ADD SWAP1 POP PUSH3 0x7BC PUSH0 DUP4 ADD DUP5 PUSH3 0x6E0 JUMP JUMPDEST SWAP3 SWAP2 POP POP JUMP JUMPDEST PUSH0 PUSH3 0x7CE DUP3 PUSH3 0x5E7 JUMP JUMPDEST SWAP2 POP PUSH3 0x7DB DUP4 PUSH3 0x5E7 JUMP JUMPDEST SWAP3 POP DUP3 DUP3 ADD SWAP1 POP DUP1 DUP3 GT ISZERO PUSH3 0x7F6 JUMPI PUSH3 0x7F5 PUSH3 0x67C JUMP JUMPDEST JUMPDEST SWAP3 SWAP2 POP POP JUMP JUMPDEST PUSH2 0x21DD DUP1 PUSH3 0x80A PUSH0 CODECOPY PUSH0 RETURN INVALID PUSH1 0x80 PUSH1 0x40 MSTORE PUSH1 0x4 CALLDATASIZE LT PUSH2 0xE7 JUMPI PUSH0 CALLDATALOAD PUSH1 0xE0 SHR DUP1 PUSH4 0x8866B937 GT PUSH2 0x89 JUMPI DUP1 PUSH4 0xF366B27E GT PUSH2 0x58 JUMPI DUP1 PUSH4 0xF366B27E EQ PUSH2 0x2B7 JUMPI DUP1 PUSH4 0xF968217B EQ PUSH2 0x2F3 JUMPI DUP1 PUSH4 0xFDCDBAE2 EQ PUSH2 0x31D JUMPI DUP1 PUSH4 0xFE35FB50 EQ PUSH2 0x347 JUMPI PUSH2 0xE7 JUMP JUMPDEST DUP1 PUSH4 0x8866B937 EQ PUSH2 0x211 JUMPI DUP1 PUSH4 0x8DA5CB5B EQ PUSH2 0x23B JUMPI DUP1 PUSH4 0x9F62E796 EQ PUSH2 0x265 JUMPI DUP1 PUSH4 0xF2FDE38B EQ PUSH2 0x28F JUMPI PUSH2 0xE7 JUMP JUMPDEST DUP1 PUSH4 0x510B7F98 GT PUSH2 0xC5 JUMPI DUP1 PUSH4 0x510B7F98 EQ PUSH2 0x16B JUMPI DUP1 PUSH4 0x5AC66993 EQ PUSH2 0x195 JUMPI DUP1 PUSH4 0x715018A6 EQ PUSH2 0x1BF JUMPI DUP1 PUSH4 0x83CE6147 EQ PUSH2 0x1D5 JUMPI PUSH2 0xE7 JUMP JUMPDEST DUP1 PUSH4 0x691BADF EQ PUSH2 0xEB JUMPI DUP1 PUSH4 0xE301D24 EQ PUSH2 0x116 JUMPI DUP1 PUSH4 0x2B1C4158 EQ PUSH2 0x141 JUMPI JUMPDEST PUSH0 DUP1 REVERT JUMPDEST CALLVALUE DUP1 ISZERO PUSH2 0xF6 JUMPI PUSH0 DUP1 REVERT JUMPDEST POP PUSH2 0xFF PUSH2 0x377 JUMP JUMPDEST PUSH1 0x40 MLOAD PUSH2 0x10D SWAP3 SWAP2 SWAP1 PUSH2 0x161A JUMP JUMPDEST PUSH1 0x40 MLOAD DUP1 SWAP2 SUB SWAP1 RETURN JUMPDEST CALLVALUE DUP1 ISZERO PUSH2 0x121 JUMPI PUSH0 DUP1 REVERT JUMPDEST POP PUSH2 0x12A PUSH2 0x388 JUMP JUMPDEST PUSH1 0x40 MLOAD PUSH2 0x138 SWAP3 SWAP2 SWAP1 PUSH2 0x161A JUMP JUMPDEST PUSH1 0x40 MLOAD DUP1 SWAP2 SUB SWAP1 RETURN JUMPDEST CALLVALUE DUP1 ISZERO PUSH2 0x14C JUMPI PUSH0 DUP1 REVERT JUMPDEST POP PUSH2 0x155 PUSH2 0x399 JUMP JUMPDEST PUSH1 0x40 MLOAD PUSH2 0x162 SWAP2 SWAP1 PUSH2 0x16BB JUMP JUMPDEST PUSH1 0x40 MLOAD DUP1 SWAP2 SUB SWAP1 RETURN JUMPDEST CALLVALUE DUP1 ISZERO PUSH2 0x176 JUMPI PUSH0 DUP1 REVERT JUMPDEST POP PUSH2 0x17F PUSH2 0x3BE JUMP JUMPDEST PUSH1 0x40 MLOAD PUSH2 0x18C SWAP2 SWAP1 PUSH2 0x16F4 JUMP JUMPDEST PUSH1 0x40 MLOAD DUP1 SWAP2 SUB SWAP1 RETURN JUMPDEST CALLVALUE DUP1 ISZERO PUSH2 0x1A0 JUMPI PUSH0 DUP1 REVERT JUMPDEST POP PUSH2 0x1A9 PUSH2 0x3E3 JUMP JUMPDEST PUSH1 0x40 MLOAD PUSH2 0x1B6 SWAP2 SWAP1 PUSH2 0x17F1 JUMP JUMPDEST PUSH1 0x40 MLOAD DUP1 SWAP2 SUB SWAP1 RETURN JUMPDEST CALLVALUE DUP1 ISZERO PUSH2 0x1CA JUMPI PUSH0 DUP1 REVERT JUMPDEST POP PUSH2 0x1D3 PUSH2 0x48F JUMP JUMPDEST STOP JUMPDEST CALLVALUE DUP1 ISZERO PUSH2 0x1E0 JUMPI PUSH0 DUP1 REVERT JUMPDEST POP PUSH2 0x1FB PUSH1 0x4 DUP1 CALLDATASIZE SUB DUP2 ADD SWAP1 PUSH2 0x1F6 SWAP2 SWAP1 PUSH2 0x183F JUMP JUMPDEST PUSH2 0x4A2 JUMP JUMPDEST PUSH1 0x40 MLOAD PUSH2 0x208 SWAP2 SWAP1 PUSH2 0x1897 JUMP JUMPDEST PUSH1 0x40 MLOAD DUP1 SWAP2 SUB SWAP1 RETURN JUMPDEST CALLVALUE DUP1 ISZERO PUSH2 0x21C JUMPI PUSH0 DUP1 REVERT JUMPDEST POP PUSH2 0x225 PUSH2 0x5CD JUMP JUMPDEST PUSH1 0x40 MLOAD PUSH2 0x232 SWAP2 SWAP1 PUSH2 0x18B0 JUMP JUMPDEST PUSH1 0x40 MLOAD DUP1 SWAP2 SUB SWAP1 RETURN JUMPDEST CALLVALUE DUP1 ISZERO PUSH2 0x246 JUMPI PUSH0 DUP1 REVERT JUMPDEST POP PUSH2 0x24F PUSH2 0x5DD JUMP JUMPDEST PUSH1 0x40 MLOAD PUSH2 0x25C SWAP2 SWAP1 PUSH2 0x18E9 JUMP JUMPDEST PUSH1 0x40 MLOAD DUP1 SWAP2 SUB SWAP1 RETURN JUMPDEST CALLVALUE DUP1 ISZERO PUSH2 0x270 JUMPI PUSH0 DUP1 REVERT JUMPDEST POP PUSH2 0x279 PUSH2 0x605 JUMP JUMPDEST PUSH1 0x40 MLOAD PUSH2 0x286 SWAP2 SWAP1 PUSH2 0x18B0 JUMP JUMPDEST PUSH1 0x40 MLOAD DUP1 SWAP2 SUB SWAP1 RETURN JUMPDEST CALLVALUE DUP1 ISZERO PUSH2 0x29A JUMPI PUSH0 DUP1 REVERT JUMPDEST POP PUSH2 0x2B5 PUSH1 0x4 DUP1 CALLDATASIZE SUB DUP2 ADD SWAP1 PUSH2 0x2B0 SWAP2 SWAP1 PUSH2 0x192C JUMP JUMPDEST PUSH2 0x6A4 JUMP JUMPDEST STOP JUMPDEST CALLVALUE DUP1 ISZERO PUSH2 0x2C2 JUMPI PUSH0 DUP1 REVERT JUMPDEST POP PUSH2 0x2DD PUSH1 0x4 DUP1 CALLDATASIZE SUB DUP2 ADD SWAP1 PUSH2 0x2D8 SWAP2 SWAP1 PUSH2 0x1957 JUMP JUMPDEST PUSH2 0x726 JUMP JUMPDEST PUSH1 0x40 MLOAD PUSH2 0x2EA SWAP2 SWAP1 PUSH2 0x1897 JUMP JUMPDEST PUSH1 0x40 MLOAD DUP1 SWAP2 SUB SWAP1 RETURN JUMPDEST CALLVALUE DUP1 ISZERO PUSH2 0x2FE JUMPI PUSH0 DUP1 REVERT JUMPDEST POP PUSH2 0x307 PUSH2 0x8C1 JUMP JUMPDEST PUSH1 0x40 MLOAD PUSH2 0x314 SWAP2 SWAP1 PUSH2 0x19A2 JUMP JUMPDEST PUSH1 0x40 MLOAD DUP1 SWAP2 SUB SWAP1 RETURN JUMPDEST CALLVALUE DUP1 ISZERO PUSH2 0x328 JUMPI PUSH0 DUP1 REVERT JUMPDEST POP PUSH2 0x331 PUSH2 0x8E6 JUMP JUMPDEST PUSH1 0x40 MLOAD PUSH2 0x33E SWAP2 SWAP1 PUSH2 0x19DB JUMP JUMPDEST PUSH1 0x40 MLOAD DUP1 SWAP2 SUB SWAP1 RETURN JUMPDEST PUSH2 0x361 PUSH1 0x4 DUP1 CALLDATASIZE SUB DUP2 ADD SWAP1 PUSH2 0x35C SWAP2 SWAP1 PUSH2 0x1A1E JUMP JUMPDEST PUSH2 0x90B JUMP JUMPDEST PUSH1 0x40 MLOAD PUSH2 0x36E SWAP2 SWAP1 PUSH2 0x1897 JUMP JUMPDEST PUSH1 0x40 MLOAD DUP1 SWAP2 SUB SWAP1 RETURN JUMPDEST PUSH1 0x9 DUP1 PUSH0 ADD SLOAD SWAP1 DUP1 PUSH1 0x1 ADD SLOAD SWAP1 POP DUP3 JUMP JUMPDEST PUSH1 0x7 DUP1 PUSH0 ADD SLOAD SWAP1 DUP1 PUSH1 0x1 ADD SLOAD SWAP1 POP DUP3 JUMP JUMPDEST PUSH1 0x2 PUSH0 SWAP1 SLOAD SWAP1 PUSH2 0x100 EXP SWAP1 DIV PUSH20 0xFFFFFFFFFFFFFFFFFFFFFFFFFFFFFFFFFFFFFFFF AND DUP2 JUMP JUMPDEST PUSH1 0x3 PUSH0 SWAP1 SLOAD SWAP1 PUSH2 0x100 EXP SWAP1 DIV PUSH20 0xFFFFFFFFFFFFFFFFFFFFFFFFFFFFFFFFFFFFFFFF AND DUP2 JUMP JUMPDEST PUSH1 0x60 PUSH1 0x6 PUSH0 CALLER PUSH20 0xFFFFFFFFFFFFFFFFFFFFFFFFFFFFFFFFFFFFFFFF AND PUSH20 0xFFFFFFFFFFFFFFFFFFFFFFFFFFFFFFFFFFFFFFFF AND DUP2 MSTORE PUSH1 0x20 ADD SWAP1 DUP2 MSTORE PUSH1 0x20 ADD PUSH0 KECCAK256 PUSH0 ADD DUP1 SLOAD DUP1 PUSH1 0x20 MUL PUSH1 0x20 ADD PUSH1 0x40 MLOAD SWAP1 DUP2 ADD PUSH1 0x40 MSTORE DUP1 SWAP3 SWAP2 SWAP1 DUP2 DUP2 MSTORE PUSH1 0x20 ADD PUSH0 SWAP1 JUMPDEST DUP3 DUP3 LT ISZERO PUSH2 0x486 JUMPI DUP4 DUP3 SWAP1 PUSH0 MSTORE PUSH1 0x20 PUSH0 KECCAK256 SWAP1 PUSH1 0x2 MUL ADD PUSH1 0x40 MLOAD DUP1 PUSH1 0x40 ADD PUSH1 0x40 MSTORE SWAP1 DUP2 PUSH0 DUP3 ADD SLOAD DUP2 MSTORE PUSH1 0x20 ADD PUSH1 0x1 DUP3 ADD SLOAD DUP2 MSTORE POP POP DUP2 MSTORE PUSH1 0x20 ADD SWAP1 PUSH1 0x1 ADD SWAP1 PUSH2 0x443 JUMP JUMPDEST POP POP POP POP SWAP1 POP SWAP1 JUMP JUMPDEST PUSH2 0x497 PUSH2 0x9E8 JUMP JUMPDEST PUSH2 0x4A0 PUSH0 PUSH2 0xA66 JUMP JUMPDEST JUMP JUMPDEST PUSH0 PUSH1 0x3 PUSH0 SWAP1 SLOAD SWAP1 PUSH2 0x100 EXP SWAP1 DIV PUSH20 0xFFFFFFFFFFFFFFFFFFFFFFFFFFFFFFFFFFFFFFFF AND PUSH20 0xFFFFFFFFFFFFFFFFFFFFFFFFFFFFFFFFFFFFFFFF AND PUSH4 0xB2C3A717 DUP5 ADDRESS DUP6 PUSH1 0x40 MLOAD DUP5 PUSH4 0xFFFFFFFF AND PUSH1 0xE0 SHL DUP2 MSTORE PUSH1 0x4 ADD PUSH2 0x501 SWAP4 SWAP3 SWAP2 SWAP1 PUSH2 0x1A5C JUMP JUMPDEST PUSH1 0x20 PUSH1 0x40 MLOAD DUP1 DUP4 SUB DUP2 PUSH0 DUP8 GAS CALL ISZERO DUP1 ISZERO PUSH2 0x51D JUMPI RETURNDATASIZE PUSH0 DUP1 RETURNDATACOPY RETURNDATASIZE PUSH0 REVERT JUMPDEST POP POP POP POP PUSH1 0x40 MLOAD RETURNDATASIZE PUSH1 0x1F NOT PUSH1 0x1F DUP3 ADD AND DUP3 ADD DUP1 PUSH1 0x40 MSTORE POP DUP2 ADD SWAP1 PUSH2 0x541 SWAP2 SWAP1 PUSH2 0x1AA5 JUMP JUMPDEST PUSH1 0x40 MLOAD DUP1 PUSH1 0x40 ADD PUSH1 0x40 MSTORE DUP1 PUSH1 0x1A DUP2 MSTORE PUSH1 0x20 ADD PUSH32 0x5761726E696E6720466F72204C6F636B75702053686F7274656E000000000000 DUP2 MSTORE POP SWAP1 PUSH2 0x5B8 JUMPI PUSH1 0x40 MLOAD PUSH32 0x8C379A000000000000000000000000000000000000000000000000000000000 DUP2 MSTORE PUSH1 0x4 ADD PUSH2 0x5AF SWAP2 SWAP1 PUSH2 0x1B5A JUMP JUMPDEST PUSH1 0x40 MLOAD DUP1 SWAP2 SUB SWAP1 REVERT JUMPDEST POP PUSH2 0x5C2 DUP4 PUSH2 0xB29 JUMP JUMPDEST POP PUSH1 0x1 SWAP1 POP SWAP3 SWAP2 POP POP JUMP JUMPDEST PUSH0 PUSH2 0x5D8 PUSH1 0x1 PUSH2 0xB57 JUMP JUMPDEST SWAP1 POP SWAP1 JUMP JUMPDEST PUSH0 DUP1 PUSH1 0x1 SWAP1 SLOAD SWAP1 PUSH2 0x100 EXP SWAP1 DIV PUSH20 0xFFFFFFFFFFFFFFFFFFFFFFFFFFFFFFFFFFFFFFFF AND SWAP1 POP SWAP1 JUMP JUMPDEST PUSH0 PUSH1 0x3 PUSH0 SWAP1 SLOAD SWAP1 PUSH2 0x100 EXP SWAP1 DIV PUSH20 0xFFFFFFFFFFFFFFFFFFFFFFFFFFFFFFFFFFFFFFFF AND PUSH20 0xFFFFFFFFFFFFFFFFFFFFFFFFFFFFFFFFFFFFFFFF AND PUSH4 0x70A08231 CALLER PUSH1 0x40 MLOAD DUP3 PUSH4 0xFFFFFFFF AND PUSH1 0xE0 SHL DUP2 MSTORE PUSH1 0x4 ADD PUSH2 0x660 SWAP2 SWAP1 PUSH2 0x18E9 JUMP JUMPDEST PUSH1 0x20 PUSH1 0x40 MLOAD DUP1 DUP4 SUB DUP2 DUP7 GAS STATICCALL ISZERO DUP1 ISZERO PUSH2 0x67B JUMPI RETURNDATASIZE PUSH0 DUP1 RETURNDATACOPY RETURNDATASIZE PUSH0 REVERT JUMPDEST POP POP POP POP PUSH1 0x40 MLOAD RETURNDATASIZE PUSH1 0x1F NOT PUSH1 0x1F DUP3 ADD AND DUP3 ADD DUP1 PUSH1 0x40 MSTORE POP DUP2 ADD SWAP1 PUSH2 0x69F SWAP2 SWAP1 PUSH2 0x1B8E JUMP JUMPDEST SWAP1 POP SWAP1 JUMP JUMPDEST PUSH2 0x6AC PUSH2 0x9E8 JUMP JUMPDEST PUSH0 PUSH20 0xFFFFFFFFFFFFFFFFFFFFFFFFFFFFFFFFFFFFFFFF AND DUP2 PUSH20 0xFFFFFFFFFFFFFFFFFFFFFFFFFFFFFFFFFFFFFFFF AND SUB PUSH2 0x71A JUMPI PUSH1 0x40 MLOAD PUSH32 0x8C379A000000000000000000000000000000000000000000000000000000000 DUP2 MSTORE PUSH1 0x4 ADD PUSH2 0x711 SWAP1 PUSH2 0x1C29 JUMP JUMPDEST PUSH1 0x40 MLOAD DUP1 SWAP2 SUB SWAP1 REVERT JUMPDEST PUSH2 0x723 DUP2 PUSH2 0xA66 JUMP JUMPDEST POP JUMP JUMPDEST PUSH0 PUSH1 0x3 PUSH0 SWAP1 SLOAD SWAP1 PUSH2 0x100 EXP SWAP1 DIV PUSH20 0xFFFFFFFFFFFFFFFFFFFFFFFFFFFFFFFFFFFFFFFF AND PUSH20 0xFFFFFFFFFFFFFFFFFFFFFFFFFFFFFFFFFFFFFFFF AND PUSH4 0x2890E0D7 DUP4 PUSH1 0x40 MLOAD DUP3 PUSH4 0xFFFFFFFF AND PUSH1 0xE0 SHL DUP2 MSTORE PUSH1 0x4 ADD PUSH2 0x781 SWAP2 SWAP1 PUSH2 0x18B0 JUMP JUMPDEST PUSH1 0x20 PUSH1 0x40 MLOAD DUP1 DUP4 SUB DUP2 PUSH0 DUP8 GAS CALL ISZERO DUP1 ISZERO PUSH2 0x79D JUMPI RETURNDATASIZE PUSH0 DUP1 RETURNDATACOPY RETURNDATASIZE PUSH0 REVERT JUMPDEST POP POP POP POP PUSH1 0x40 MLOAD RETURNDATASIZE PUSH1 0x1F NOT PUSH1 0x1F DUP3 ADD AND DUP3 ADD DUP1 PUSH1 0x40 MSTORE POP DUP2 ADD SWAP1 PUSH2 0x7C1 SWAP2 SWAP1 PUSH2 0x1AA5 JUMP JUMPDEST POP PUSH2 0x7F0 CALLER PUSH8 0xDE0B6B3A7640000 PUSH1 0xB PUSH0 DUP7 DUP2 MSTORE PUSH1 0x20 ADD SWAP1 DUP2 MSTORE PUSH1 0x20 ADD PUSH0 KECCAK256 SLOAD PUSH2 0x7EB SWAP2 SWAP1 PUSH2 0x1CA1 JUMP JUMPDEST PUSH2 0xB63 JUMP JUMPDEST PUSH1 0x40 MLOAD DUP1 PUSH1 0x40 ADD PUSH1 0x40 MSTORE DUP1 PUSH1 0x14 DUP2 MSTORE PUSH1 0x20 ADD PUSH32 0x5761726E696E6720466F72205472616E73666572000000000000000000000000 DUP2 MSTORE POP SWAP1 PUSH2 0x867 JUMPI PUSH1 0x40 MLOAD PUSH32 0x8C379A000000000000000000000000000000000000000000000000000000000 DUP2 MSTORE PUSH1 0x4 ADD PUSH2 0x85E SWAP2 SWAP1 PUSH2 0x1B5A JUMP JUMPDEST PUSH1 0x40 MLOAD DUP1 SWAP2 SUB SWAP1 REVERT JUMPDEST POP PUSH2 0x8B0 PUSH8 0xDE0B6B3A7640000 PUSH1 0x64 PUSH1 0xA PUSH1 0xFF AND PUSH1 0xB PUSH0 DUP8 DUP2 MSTORE PUSH1 0x20 ADD SWAP1 DUP2 MSTORE PUSH1 0x20 ADD PUSH0 KECCAK256 SLOAD PUSH2 0x897 SWAP2 SWAP1 PUSH2 0x1CD1 JUMP JUMPDEST PUSH2 0x8A1 SWAP2 SWAP1 PUSH2 0x1CA1 JUMP JUMPDEST PUSH2 0x8AB SWAP2 SWAP1 PUSH2 0x1CD1 JUMP JUMPDEST PUSH2 0xCBB JUMP JUMPDEST PUSH2 0x8B8 JUMPI PUSH0 DUP1 REVERT JUMPDEST PUSH1 0x1 SWAP1 POP SWAP2 SWAP1 POP JUMP JUMPDEST PUSH1 0x5 PUSH0 SWAP1 SLOAD SWAP1 PUSH2 0x100 EXP SWAP1 DIV PUSH20 0xFFFFFFFFFFFFFFFFFFFFFFFFFFFFFFFFFFFFFFFF AND DUP2 JUMP JUMPDEST PUSH1 0x4 PUSH0 SWAP1 SLOAD SWAP1 PUSH2 0x100 EXP SWAP1 DIV PUSH20 0xFFFFFFFFFFFFFFFFFFFFFFFFFFFFFFFFFFFFFFFF AND DUP2 JUMP JUMPDEST PUSH0 PUSH2 0x916 DUP4 DUP4 PUSH2 0xDE1 JUMP JUMPDEST POP PUSH0 PUSH2 0x921 DUP5 PUSH2 0xE91 JUMP JUMPDEST PUSH1 0x40 MLOAD PUSH1 0x20 ADD PUSH2 0x931 SWAP2 SWAP1 PUSH2 0x1DE0 JUMP JUMPDEST PUSH1 0x40 MLOAD PUSH1 0x20 DUP2 DUP4 SUB SUB DUP2 MSTORE SWAP1 PUSH1 0x40 MSTORE SWAP1 POP PUSH1 0x3 PUSH0 SWAP1 SLOAD SWAP1 PUSH2 0x100 EXP SWAP1 DIV PUSH20 0xFFFFFFFFFFFFFFFFFFFFFFFFFFFFFFFFFFFFFFFF AND PUSH20 0xFFFFFFFFFFFFFFFFFFFFFFFFFFFFFFFFFFFFFFFF AND PUSH4 0x890D80C DUP3 PUSH1 0x40 MLOAD DUP3 PUSH4 0xFFFFFFFF AND PUSH1 0xE0 SHL DUP2 MSTORE PUSH1 0x4 ADD PUSH2 0x99C SWAP2 SWAP1 PUSH2 0x1EEC JUMP JUMPDEST PUSH1 0x20 PUSH1 0x40 MLOAD DUP1 DUP4 SUB DUP2 PUSH0 DUP8 GAS CALL ISZERO DUP1 ISZERO PUSH2 0x9B8 JUMPI RETURNDATASIZE PUSH0 DUP1 RETURNDATACOPY RETURNDATASIZE PUSH0 REVERT JUMPDEST POP POP POP POP PUSH1 0x40 MLOAD RETURNDATASIZE PUSH1 0x1F NOT PUSH1 0x1F DUP3 ADD AND DUP3 ADD DUP1 PUSH1 0x40 MSTORE POP DUP2 ADD SWAP1 PUSH2 0x9DC SWAP2 SWAP1 PUSH2 0x1AA5 JUMP JUMPDEST POP PUSH1 0x1 SWAP2 POP POP SWAP3 SWAP2 POP POP JUMP JUMPDEST PUSH2 0x9F0 PUSH2 0xF5B JUMP JUMPDEST PUSH20 0xFFFFFFFFFFFFFFFFFFFFFFFFFFFFFFFFFFFFFFFF AND PUSH2 0xA0E PUSH2 0x5DD JUMP JUMPDEST PUSH20 0xFFFFFFFFFFFFFFFFFFFFFFFFFFFFFFFFFFFFFFFF AND EQ PUSH2 0xA64 JUMPI PUSH1 0x40 MLOAD PUSH32 0x8C379A000000000000000000000000000000000000000000000000000000000 DUP2 MSTORE PUSH1 0x4 ADD PUSH2 0xA5B SWAP1 PUSH2 0x1F7C JUMP JUMPDEST PUSH1 0x40 MLOAD DUP1 SWAP2 SUB SWAP1 REVERT JUMPDEST JUMP JUMPDEST PUSH0 DUP1 PUSH1 0x1 SWAP1 SLOAD SWAP1 PUSH2 0x100 EXP SWAP1 DIV PUSH20 0xFFFFFFFFFFFFFFFFFFFFFFFFFFFFFFFFFFFFFFFF AND SWAP1 POP DUP2 PUSH0 PUSH1 0x1 PUSH2 0x100 EXP DUP2 SLOAD DUP2 PUSH20 0xFFFFFFFFFFFFFFFFFFFFFFFFFFFFFFFFFFFFFFFF MUL NOT AND SWAP1 DUP4 PUSH20 0xFFFFFFFFFFFFFFFFFFFFFFFFFFFFFFFFFFFFFFFF AND MUL OR SWAP1 SSTORE POP DUP2 PUSH20 0xFFFFFFFFFFFFFFFFFFFFFFFFFFFFFFFFFFFFFFFF AND DUP2 PUSH20 0xFFFFFFFFFFFFFFFFFFFFFFFFFFFFFFFFFFFFFFFF AND PUSH32 0x8BE0079C531659141344CD1FD0A4F28419497F9722A3DAAFE3B4186F6B6457E0 PUSH1 0x40 MLOAD PUSH1 0x40 MLOAD DUP1 SWAP2 SUB SWAP1 LOG3 POP POP JUMP JUMPDEST PUSH0 DUP2 PUSH1 0x7 PUSH0 ADD PUSH0 DUP3 DUP3 SLOAD PUSH2 0xB3D SWAP2 SWAP1 PUSH2 0x1F9A JUMP JUMPDEST SWAP3 POP POP DUP2 SWAP1 SSTORE POP TIMESTAMP PUSH1 0x7 PUSH1 0x1 ADD DUP2 SWAP1 SSTORE POP PUSH1 0x1 SWAP1 POP SWAP2 SWAP1 POP JUMP JUMPDEST PUSH0 DUP2 PUSH0 ADD SLOAD SWAP1 POP SWAP2 SWAP1 POP JUMP JUMPDEST PUSH0 PUSH1 0x2 PUSH0 SWAP1 SLOAD SWAP1 PUSH2 0x100 EXP SWAP1 DIV PUSH20 0xFFFFFFFFFFFFFFFFFFFFFFFFFFFFFFFFFFFFFFFF AND PUSH20 0xFFFFFFFFFFFFFFFFFFFFFFFFFFFFFFFFFFFFFFFF AND PUSH4 0x469895C8 ADDRESS DUP6 PUSH8 0xDE0B6B3A7640000 DUP7 PUSH2 0xBB7 SWAP2 SWAP1 PUSH2 0x1CD1 JUMP JUMPDEST PUSH1 0x40 MLOAD DUP5 PUSH4 0xFFFFFFFF AND PUSH1 0xE0 SHL DUP2 MSTORE PUSH1 0x4 ADD PUSH2 0xBD5 SWAP4 SWAP3 SWAP2 SWAP1 PUSH2 0x1FCD JUMP JUMPDEST PUSH1 0x20 PUSH1 0x40 MLOAD DUP1 DUP4 SUB DUP2 PUSH0 DUP8 GAS CALL ISZERO DUP1 ISZERO PUSH2 0xBF1 JUMPI RETURNDATASIZE PUSH0 DUP1 RETURNDATACOPY RETURNDATASIZE PUSH0 REVERT JUMPDEST POP POP POP POP PUSH1 0x40 MLOAD RETURNDATASIZE PUSH1 0x1F NOT PUSH1 0x1F DUP3 ADD AND DUP3 ADD DUP1 PUSH1 0x40 MSTORE POP DUP2 ADD SWAP1 PUSH2 0xC15 SWAP2 SWAP1 PUSH2 0x1AA5 JUMP JUMPDEST PUSH1 0x40 MLOAD DUP1 PUSH1 0x40 ADD PUSH1 0x40 MSTORE DUP1 PUSH1 0x14 DUP2 MSTORE PUSH1 0x20 ADD PUSH32 0x5761726E696E6720466F72205472616E73666572000000000000000000000000 DUP2 MSTORE POP SWAP1 PUSH2 0xC8C JUMPI PUSH1 0x40 MLOAD PUSH32 0x8C379A000000000000000000000000000000000000000000000000000000000 DUP2 MSTORE PUSH1 0x4 ADD PUSH2 0xC83 SWAP2 SWAP1 PUSH2 0x1B5A JUMP JUMPDEST PUSH1 0x40 MLOAD DUP1 SWAP2 SUB SWAP1 REVERT JUMPDEST POP DUP2 PUSH1 0x7 PUSH0 ADD PUSH0 DUP3 DUP3 SLOAD PUSH2 0xCA0 SWAP2 SWAP1 PUSH2 0x2002 JUMP JUMPDEST SWAP3 POP POP DUP2 SWAP1 SSTORE POP TIMESTAMP PUSH1 0x7 PUSH1 0x1 ADD DUP2 SWAP1 SSTORE POP PUSH1 0x1 SWAP1 POP SWAP3 SWAP2 POP POP JUMP JUMPDEST PUSH0 DUP1 PUSH0 SWAP1 SLOAD SWAP1 PUSH2 0x100 EXP SWAP1 DIV PUSH1 0xFF AND ISZERO PUSH2 0xD0A JUMPI PUSH1 0x40 MLOAD PUSH32 0x8C379A000000000000000000000000000000000000000000000000000000000 DUP2 MSTORE PUSH1 0x4 ADD PUSH2 0xD01 SWAP1 PUSH2 0x207F JUMP JUMPDEST PUSH1 0x40 MLOAD DUP1 SWAP2 SUB SWAP1 REVERT JUMPDEST PUSH1 0x1 PUSH0 DUP1 PUSH2 0x100 EXP DUP2 SLOAD DUP2 PUSH1 0xFF MUL NOT AND SWAP1 DUP4 ISZERO ISZERO MUL OR SWAP1 SSTORE POP PUSH1 0x4 PUSH0 SWAP1 SLOAD SWAP1 PUSH2 0x100 EXP SWAP1 DIV PUSH20 0xFFFFFFFFFFFFFFFFFFFFFFFFFFFFFFFFFFFFFFFF AND PUSH20 0xFFFFFFFFFFFFFFFFFFFFFFFFFFFFFFFFFFFFFFFF AND PUSH4 0x44570B3F CALLER DUP5 PUSH1 0x40 MLOAD DUP4 PUSH4 0xFFFFFFFF AND PUSH1 0xE0 SHL DUP2 MSTORE PUSH1 0x4 ADD PUSH2 0xD7F SWAP3 SWAP2 SWAP1 PUSH2 0x209D JUMP JUMPDEST PUSH1 0x20 PUSH1 0x40 MLOAD DUP1 DUP4 SUB DUP2 PUSH0 DUP8 GAS CALL ISZERO DUP1 ISZERO PUSH2 0xD9B JUMPI RETURNDATASIZE PUSH0 DUP1 RETURNDATACOPY RETURNDATASIZE PUSH0 REVERT JUMPDEST POP POP POP POP PUSH1 0x40 MLOAD RETURNDATASIZE PUSH1 0x1F NOT PUSH1 0x1F DUP3 ADD AND DUP3 ADD DUP1 PUSH1 0x40 MSTORE POP DUP2 ADD SWAP1 PUSH2 0xDBF SWAP2 SWAP1 PUSH2 0x1AA5 JUMP JUMPDEST POP PUSH1 0x1 SWAP1 POP PUSH0 DUP1 PUSH0 PUSH2 0x100 EXP DUP2 SLOAD DUP2 PUSH1 0xFF MUL NOT AND SWAP1 DUP4 ISZERO ISZERO MUL OR SWAP1 SSTORE POP SWAP2 SWAP1 POP JUMP JUMPDEST PUSH0 DUP1 PUSH2 0xDEE CALLER DUP6 DUP6 PUSH2 0xF62 JUMP JUMPDEST SWAP1 POP PUSH2 0xDF9 DUP2 PUSH2 0x12BC JUMP JUMPDEST PUSH2 0xE04 CALLER DUP6 DUP4 PUSH2 0x1355 JUMP JUMPDEST PUSH1 0x40 MLOAD DUP1 PUSH1 0x40 ADD PUSH1 0x40 MSTORE DUP1 PUSH1 0x11 DUP2 MSTORE PUSH1 0x20 ADD PUSH32 0x5761726E696E6720466F72205661756C74000000000000000000000000000000 DUP2 MSTORE POP SWAP1 PUSH2 0xE7B JUMPI PUSH1 0x40 MLOAD PUSH32 0x8C379A000000000000000000000000000000000000000000000000000000000 DUP2 MSTORE PUSH1 0x4 ADD PUSH2 0xE72 SWAP2 SWAP1 PUSH2 0x1B5A JUMP JUMPDEST PUSH1 0x40 MLOAD DUP1 SWAP2 SUB SWAP1 REVERT JUMPDEST POP PUSH2 0xE86 PUSH1 0x1 PUSH2 0x147E JUMP JUMPDEST PUSH1 0x1 SWAP2 POP POP SWAP3 SWAP2 POP POP JUMP JUMPDEST PUSH1 0x60 PUSH0 PUSH1 0x1 PUSH2 0xE9F DUP5 PUSH2 0x1492 JUMP JUMPDEST ADD SWAP1 POP PUSH0 DUP2 PUSH8 0xFFFFFFFFFFFFFFFF DUP2 GT ISZERO PUSH2 0xEBD JUMPI PUSH2 0xEBC PUSH2 0x20C4 JUMP JUMPDEST JUMPDEST PUSH1 0x40 MLOAD SWAP1 DUP1 DUP3 MSTORE DUP1 PUSH1 0x1F ADD PUSH1 0x1F NOT AND PUSH1 0x20 ADD DUP3 ADD PUSH1 0x40 MSTORE DUP1 ISZERO PUSH2 0xEEF JUMPI DUP2 PUSH1 0x20 ADD PUSH1 0x1 DUP3 MUL DUP1 CALLDATASIZE DUP4 CALLDATACOPY DUP1 DUP3 ADD SWAP2 POP POP SWAP1 POP JUMPDEST POP SWAP1 POP PUSH0 DUP3 PUSH1 0x20 ADD DUP3 ADD SWAP1 POP JUMPDEST PUSH1 0x1 ISZERO PUSH2 0xF50 JUMPI DUP1 DUP1 PUSH1 0x1 SWAP1 SUB SWAP2 POP POP PUSH32 0x3031323334353637383961626364656600000000000000000000000000000000 PUSH1 0xA DUP7 MOD BYTE DUP2 MSTORE8 PUSH1 0xA DUP6 DUP2 PUSH2 0xF45 JUMPI PUSH2 0xF44 PUSH2 0x1C47 JUMP JUMPDEST JUMPDEST DIV SWAP5 POP PUSH0 DUP6 SUB PUSH2 0xEFC JUMPI JUMPDEST DUP2 SWAP4 POP POP POP POP SWAP2 SWAP1 POP JUMP JUMPDEST PUSH0 CALLER SWAP1 POP SWAP1 JUMP JUMPDEST PUSH0 DUP1 PUSH0 SWAP1 SLOAD SWAP1 PUSH2 0x100 EXP SWAP1 DIV PUSH1 0xFF AND ISZERO PUSH2 0xFB1 JUMPI PUSH1 0x40 MLOAD PUSH32 0x8C379A000000000000000000000000000000000000000000000000000000000 DUP2 MSTORE PUSH1 0x4 ADD PUSH2 0xFA8 SWAP1 PUSH2 0x207F JUMP JUMPDEST PUSH1 0x40 MLOAD DUP1 SWAP2 SUB SWAP1 REVERT JUMPDEST PUSH1 0x1 PUSH0 DUP1 PUSH2 0x100 EXP DUP2 SLOAD DUP2 PUSH1 0xFF MUL NOT AND SWAP1 DUP4 ISZERO ISZERO MUL OR SWAP1 SSTORE POP PUSH0 PUSH1 0x3 PUSH0 SWAP1 SLOAD SWAP1 PUSH2 0x100 EXP SWAP1 DIV PUSH20 0xFFFFFFFFFFFFFFFFFFFFFFFFFFFFFFFFFFFFFFFF AND PUSH20 0xFFFFFFFFFFFFFFFFFFFFFFFFFFFFFFFFFFFFFFFF AND PUSH4 0xF42C69D6 DUP7 DUP6 PUSH1 0x40 MLOAD DUP4 PUSH4 0xFFFFFFFF AND PUSH1 0xE0 SHL DUP2 MSTORE PUSH1 0x4 ADD PUSH2 0x1027 SWAP3 SWAP2 SWAP1 PUSH2 0x20F1 JUMP JUMPDEST PUSH1 0x20 PUSH1 0x40 MLOAD DUP1 DUP4 SUB DUP2 PUSH0 DUP8 GAS CALL ISZERO DUP1 ISZERO PUSH2 0x1043 JUMPI RETURNDATASIZE PUSH0 DUP1 RETURNDATACOPY RETURNDATASIZE PUSH0 REVERT JUMPDEST POP POP POP POP PUSH1 0x40 MLOAD RETURNDATASIZE PUSH1 0x1F NOT PUSH1 0x1F DUP3 ADD AND DUP3 ADD DUP1 PUSH1 0x40 MSTORE POP DUP2 ADD SWAP1 PUSH2 0x1067 SWAP2 SWAP1 PUSH2 0x1B8E JUMP JUMPDEST SWAP1 POP PUSH1 0x6 PUSH0 DUP7 PUSH20 0xFFFFFFFFFFFFFFFFFFFFFFFFFFFFFFFFFFFFFFFF AND PUSH20 0xFFFFFFFFFFFFFFFFFFFFFFFFFFFFFFFFFFFFFFFF AND DUP2 MSTORE PUSH1 0x20 ADD SWAP1 DUP2 MSTORE PUSH1 0x20 ADD PUSH0 KECCAK256 PUSH0 ADD PUSH1 0x40 MLOAD DUP1 PUSH1 0x40 ADD PUSH1 0x40 MSTORE DUP1 DUP4 DUP2 MSTORE PUSH1 0x20 ADD TIMESTAMP DUP2 MSTORE POP SWAP1 DUP1 PUSH1 0x1 DUP2 SLOAD ADD DUP1 DUP3 SSTORE DUP1 SWAP2 POP POP PUSH1 0x1 SWAP1 SUB SWAP1 PUSH0 MSTORE PUSH1 0x20 PUSH0 KECCAK256 SWAP1 PUSH1 0x2 MUL ADD PUSH0 SWAP1 SWAP2 SWAP1 SWAP2 SWAP1 SWAP2 POP PUSH0 DUP3 ADD MLOAD DUP2 PUSH0 ADD SSTORE PUSH1 0x20 DUP3 ADD MLOAD DUP2 PUSH1 0x1 ADD SSTORE POP POP PUSH2 0x1102 CALLER DUP6 DUP4 PUSH2 0x1355 JUMP JUMPDEST POP DUP3 ISZERO PUSH2 0x1299 JUMPI PUSH1 0x4 PUSH0 SWAP1 SLOAD SWAP1 PUSH2 0x100 EXP SWAP1 DIV PUSH20 0xFFFFFFFFFFFFFFFFFFFFFFFFFFFFFFFFFFFFFFFF AND PUSH20 0xFFFFFFFFFFFFFFFFFFFFFFFFFFFFFFFFFFFFFFFF AND PUSH4 0x340FC3E4 CALLER PUSH8 0xDE0B6B3A7640000 PUSH1 0x64 DUP9 PUSH2 0x115D SWAP2 SWAP1 PUSH2 0x1CD1 JUMP JUMPDEST PUSH2 0x1167 SWAP2 SWAP1 PUSH2 0x1CD1 JUMP JUMPDEST PUSH1 0x40 MLOAD DUP4 PUSH4 0xFFFFFFFF AND PUSH1 0xE0 SHL DUP2 MSTORE PUSH1 0x4 ADD PUSH2 0x1184 SWAP3 SWAP2 SWAP1 PUSH2 0x209D JUMP JUMPDEST PUSH1 0x20 PUSH1 0x40 MLOAD DUP1 DUP4 SUB DUP2 PUSH0 DUP8 GAS CALL ISZERO DUP1 ISZERO PUSH2 0x11A0 JUMPI RETURNDATASIZE PUSH0 DUP1 RETURNDATACOPY RETURNDATASIZE PUSH0 REVERT JUMPDEST POP POP POP POP PUSH1 0x40 MLOAD RETURNDATASIZE PUSH1 0x1F NOT PUSH1 0x1F DUP3 ADD AND DUP3 ADD DUP1 PUSH1 0x40 MSTORE POP DUP2 ADD SWAP1 PUSH2 0x11C4 SWAP2 SWAP1 PUSH2 0x1AA5 JUMP JUMPDEST PUSH2 0x1203 JUMPI PUSH1 0x40 MLOAD PUSH32 0x8C379A000000000000000000000000000000000000000000000000000000000 DUP2 MSTORE PUSH1 0x4 ADD PUSH2 0x11FA SWAP1 PUSH2 0x2162 JUMP JUMPDEST PUSH1 0x40 MLOAD DUP1 SWAP2 SUB SWAP1 REVERT JUMPDEST PUSH1 0x5 PUSH0 SWAP1 SLOAD SWAP1 PUSH2 0x100 EXP SWAP1 DIV PUSH20 0xFFFFFFFFFFFFFFFFFFFFFFFFFFFFFFFFFFFFFFFF AND PUSH20 0xFFFFFFFFFFFFFFFFFFFFFFFFFFFFFFFFFFFFFFFF AND PUSH4 0xCDB51CDF PUSH1 0x64 DUP7 PUSH2 0x124D SWAP2 SWAP1 PUSH2 0x1CD1 JUMP JUMPDEST CALLER PUSH1 0x40 MLOAD DUP4 PUSH4 0xFFFFFFFF AND PUSH1 0xE0 SHL DUP2 MSTORE PUSH1 0x4 ADD PUSH2 0x126B SWAP3 SWAP2 SWAP1 PUSH2 0x2180 JUMP JUMPDEST PUSH0 PUSH1 0x40 MLOAD DUP1 DUP4 SUB DUP2 PUSH0 DUP8 DUP1 EXTCODESIZE ISZERO DUP1 ISZERO PUSH2 0x1282 JUMPI PUSH0 DUP1 REVERT JUMPDEST POP GAS CALL ISZERO DUP1 ISZERO PUSH2 0x1294 JUMPI RETURNDATASIZE PUSH0 DUP1 RETURNDATACOPY RETURNDATASIZE PUSH0 REVERT JUMPDEST POP POP POP POP JUMPDEST DUP1 SWAP2 POP POP PUSH0 DUP1 PUSH0 PUSH2 0x100 EXP DUP2 SLOAD DUP2 PUSH1 0xFF MUL NOT AND SWAP1 DUP4 ISZERO ISZERO MUL OR SWAP1 SSTORE POP SWAP4 SWAP3 POP POP POP JUMP JUMPDEST PUSH2 0x1352 DUP2 PUSH1 0x40 MLOAD PUSH1 0x24 ADD PUSH2 0x12D0 SWAP2 SWAP1 PUSH2 0x18B0 JUMP JUMPDEST PUSH1 0x40 MLOAD PUSH1 0x20 DUP2 DUP4 SUB SUB DUP2 MSTORE SWAP1 PUSH1 0x40 MSTORE PUSH32 0xF82C50F100000000000000000000000000000000000000000000000000000000 PUSH28 0xFFFFFFFFFFFFFFFFFFFFFFFFFFFFFFFFFFFFFFFFFFFFFFFFFFFFFFFF NOT AND PUSH1 0x20 DUP3 ADD DUP1 MLOAD PUSH28 0xFFFFFFFFFFFFFFFFFFFFFFFFFFFFFFFFFFFFFFFFFFFFFFFFFFFFFFFF DUP4 DUP2 DUP4 AND OR DUP4 MSTORE POP POP POP POP PUSH2 0x15E3 JUMP JUMPDEST POP JUMP JUMPDEST PUSH0 DUP1 PUSH1 0xC PUSH0 DUP7 PUSH20 0xFFFFFFFFFFFFFFFFFFFFFFFFFFFFFFFFFFFFFFFF AND PUSH20 0xFFFFFFFFFFFFFFFFFFFFFFFFFFFFFFFFFFFFFFFF AND DUP2 MSTORE PUSH1 0x20 ADD SWAP1 DUP2 MSTORE PUSH1 0x20 ADD PUSH0 KECCAK256 PUSH0 ADD SWAP1 POP DUP1 PUSH1 0x40 MLOAD DUP1 PUSH1 0x60 ADD PUSH1 0x40 MSTORE DUP1 DUP7 DUP2 MSTORE PUSH1 0x20 ADD TIMESTAMP DUP2 MSTORE PUSH1 0x20 ADD DUP6 DUP2 MSTORE POP SWAP1 DUP1 PUSH1 0x1 DUP2 SLOAD ADD DUP1 DUP3 SSTORE DUP1 SWAP2 POP POP PUSH1 0x1 SWAP1 SUB SWAP1 PUSH0 MSTORE PUSH1 0x20 PUSH0 KECCAK256 SWAP1 PUSH1 0x3 MUL ADD PUSH0 SWAP1 SWAP2 SWAP1 SWAP2 SWAP1 SWAP2 POP PUSH0 DUP3 ADD MLOAD DUP2 PUSH0 ADD SSTORE PUSH1 0x20 DUP3 ADD MLOAD DUP2 PUSH1 0x1 ADD SSTORE PUSH1 0x40 DUP3 ADD MLOAD DUP2 PUSH1 0x2 ADD SSTORE POP POP PUSH1 0xC PUSH0 DUP7 PUSH20 0xFFFFFFFFFFFFFFFFFFFFFFFFFFFFFFFFFFFFFFFF AND PUSH20 0xFFFFFFFFFFFFFFFFFFFFFFFFFFFFFFFFFFFFFFFF AND DUP2 MSTORE PUSH1 0x20 ADD SWAP1 DUP2 MSTORE PUSH1 0x20 ADD PUSH0 KECCAK256 PUSH1 0x1 ADD DUP4 SWAP1 DUP1 PUSH1 0x1 DUP2 SLOAD ADD DUP1 DUP3 SSTORE DUP1 SWAP2 POP POP PUSH1 0x1 SWAP1 SUB SWAP1 PUSH0 MSTORE PUSH1 0x20 PUSH0 KECCAK256 ADD PUSH0 SWAP1 SWAP2 SWAP1 SWAP2 SWAP1 SWAP2 POP SSTORE DUP4 PUSH1 0xB PUSH0 DUP6 DUP2 MSTORE PUSH1 0x20 ADD SWAP1 DUP2 MSTORE PUSH1 0x20 ADD PUSH0 KECCAK256 DUP2 SWAP1 SSTORE POP PUSH1 0x1 SWAP2 POP POP SWAP4 SWAP3 POP POP POP JUMP JUMPDEST PUSH1 0x1 DUP2 PUSH0 ADD PUSH0 DUP3 DUP3 SLOAD ADD SWAP3 POP POP DUP2 SWAP1 SSTORE POP POP JUMP JUMPDEST PUSH0 DUP1 PUSH0 SWAP1 POP PUSH27 0x184F03E93FF9F4DAA797ED6E38ED64BF6A1F010000000000000000 DUP4 LT PUSH2 0x14EE JUMPI PUSH27 0x184F03E93FF9F4DAA797ED6E38ED64BF6A1F010000000000000000 DUP4 DUP2 PUSH2 0x14E4 JUMPI PUSH2 0x14E3 PUSH2 0x1C47 JUMP JUMPDEST JUMPDEST DIV SWAP3 POP PUSH1 0x40 DUP2 ADD SWAP1 POP JUMPDEST PUSH14 0x4EE2D6D415B85ACEF8100000000 DUP4 LT PUSH2 0x152B JUMPI PUSH14 0x4EE2D6D415B85ACEF8100000000 DUP4 DUP2 PUSH2 0x1521 JUMPI PUSH2 0x1520 PUSH2 0x1C47 JUMP JUMPDEST JUMPDEST DIV SWAP3 POP PUSH1 0x20 DUP2 ADD SWAP1 POP JUMPDEST PUSH7 0x2386F26FC10000 DUP4 LT PUSH2 0x155A JUMPI PUSH7 0x2386F26FC10000 DUP4 DUP2 PUSH2 0x1550 JUMPI PUSH2 0x154F PUSH2 0x1C47 JUMP JUMPDEST JUMPDEST DIV SWAP3 POP PUSH1 0x10 DUP2 ADD SWAP1 POP JUMPDEST PUSH4 0x5F5E100 DUP4 LT PUSH2 0x1583 JUMPI PUSH4 0x5F5E100 DUP4 DUP2 PUSH2 0x1579 JUMPI PUSH2 0x1578 PUSH2 0x1C47 JUMP JUMPDEST JUMPDEST DIV SWAP3 POP PUSH1 0x8 DUP2 ADD SWAP1 POP JUMPDEST PUSH2 0x2710 DUP4 LT PUSH2 0x15A8 JUMPI PUSH2 0x2710 DUP4 DUP2 PUSH2 0x159E JUMPI PUSH2 0x159D PUSH2 0x1C47 JUMP JUMPDEST JUMPDEST DIV SWAP3 POP PUSH1 0x4 DUP2 ADD SWAP1 POP JUMPDEST PUSH1 0x64 DUP4 LT PUSH2 0x15CB JUMPI PUSH1 0x64 DUP4 DUP2 PUSH2 0x15C1 JUMPI PUSH2 0x15C0 PUSH2 0x1C47 JUMP JUMPDEST JUMPDEST DIV SWAP3 POP PUSH1 0x2 DUP2 ADD SWAP1 POP JUMPDEST PUSH1 0xA DUP4 LT PUSH2 0x15DA JUMPI PUSH1 0x1 DUP2 ADD SWAP1 POP JUMPDEST DUP1 SWAP2 POP POP SWAP2 SWAP1 POP JUMP JUMPDEST PUSH0 PUSH11 0x636F6E736F6C652E6C6F67 SWAP1 POP PUSH0 DUP1 DUP4 MLOAD PUSH1 0x20 DUP6 ADD DUP5 GAS STATICCALL POP POP POP JUMP JUMPDEST PUSH0 DUP2 SWAP1 POP SWAP2 SWAP1 POP JUMP JUMPDEST PUSH2 0x1614 DUP2 PUSH2 0x1602 JUMP JUMPDEST DUP3 MSTORE POP POP JUMP JUMPDEST PUSH0 PUSH1 0x40 DUP3 ADD SWAP1 POP PUSH2 0x162D PUSH0 DUP4 ADD DUP6 PUSH2 0x160B JUMP JUMPDEST PUSH2 0x163A PUSH1 0x20 DUP4 ADD DUP5 PUSH2 0x160B JUMP JUMPDEST SWAP4 SWAP3 POP POP POP JUMP JUMPDEST PUSH0 PUSH20 0xFFFFFFFFFFFFFFFFFFFFFFFFFFFFFFFFFFFFFFFF DUP3 AND SWAP1 POP SWAP2 SWAP1 POP JUMP JUMPDEST PUSH0 DUP2 SWAP1 POP SWAP2 SWAP1 POP JUMP JUMPDEST PUSH0 PUSH2 0x1683 PUSH2 0x167E PUSH2 0x1679 DUP5 PUSH2 0x1641 JUMP JUMPDEST PUSH2 0x1660 JUMP JUMPDEST PUSH2 0x1641 JUMP JUMPDEST SWAP1 POP SWAP2 SWAP1 POP JUMP JUMPDEST PUSH0 PUSH2 0x1694 DUP3 PUSH2 0x1669 JUMP JUMPDEST SWAP1 POP SWAP2 SWAP1 POP JUMP JUMPDEST PUSH0 PUSH2 0x16A5 DUP3 PUSH2 0x168A JUMP JUMPDEST SWAP1 POP SWAP2 SWAP1 POP JUMP JUMPDEST PUSH2 0x16B5 DUP2 PUSH2 0x169B JUMP JUMPDEST DUP3 MSTORE POP POP JUMP JUMPDEST PUSH0 PUSH1 0x20 DUP3 ADD SWAP1 POP PUSH2 0x16CE PUSH0 DUP4 ADD DUP5 PUSH2 0x16AC JUMP JUMPDEST SWAP3 SWAP2 POP POP JUMP JUMPDEST PUSH0 PUSH2 0x16DE DUP3 PUSH2 0x168A JUMP JUMPDEST SWAP1 POP SWAP2 SWAP1 POP JUMP JUMPDEST PUSH2 0x16EE DUP2 PUSH2 0x16D4 JUMP JUMPDEST DUP3 MSTORE POP POP JUMP JUMPDEST PUSH0 PUSH1 0x20 DUP3 ADD SWAP1 POP PUSH2 0x1707 PUSH0 DUP4 ADD DUP5 PUSH2 0x16E5 JUMP JUMPDEST SWAP3 SWAP2 POP POP JUMP JUMPDEST PUSH0 DUP2 MLOAD SWAP1 POP SWAP2 SWAP1 POP JUMP JUMPDEST PUSH0 DUP3 DUP3 MSTORE PUSH1 0x20 DUP3 ADD SWAP1 POP SWAP3 SWAP2 POP POP JUMP JUMPDEST PUSH0 DUP2 SWAP1 POP PUSH1 0x20 DUP3 ADD SWAP1 POP SWAP2 SWAP1 POP JUMP JUMPDEST PUSH2 0x173F DUP2 PUSH2 0x1602 JUMP JUMPDEST DUP3 MSTORE POP POP JUMP JUMPDEST PUSH1 0x40 DUP3 ADD PUSH0 DUP3 ADD MLOAD PUSH2 0x1759 PUSH0 DUP6 ADD DUP3 PUSH2 0x1736 JUMP JUMPDEST POP PUSH1 0x20 DUP3 ADD MLOAD PUSH2 0x176C PUSH1 0x20 DUP6 ADD DUP3 PUSH2 0x1736 JUMP JUMPDEST POP POP POP POP JUMP JUMPDEST PUSH0 PUSH2 0x177D DUP4 DUP4 PUSH2 0x1745 JUMP JUMPDEST PUSH1 0x40 DUP4 ADD SWAP1 POP SWAP3 SWAP2 POP POP JUMP JUMPDEST PUSH0 PUSH1 0x20 DUP3 ADD SWAP1 POP SWAP2 SWAP1 POP JUMP JUMPDEST PUSH0 PUSH2 0x179F DUP3 PUSH2 0x170D JUMP JUMPDEST PUSH2 0x17A9 DUP2 DUP6 PUSH2 0x1717 JUMP JUMPDEST SWAP4 POP PUSH2 0x17B4 DUP4 PUSH2 0x1727 JUMP JUMPDEST DUP1 PUSH0 JUMPDEST DUP4 DUP2 LT ISZERO PUSH2 0x17E4 JUMPI DUP2 MLOAD PUSH2 0x17CB DUP9 DUP3 PUSH2 0x1772 JUMP JUMPDEST SWAP8 POP PUSH2 0x17D6 DUP4 PUSH2 0x1789 JUMP JUMPDEST SWAP3 POP POP PUSH1 0x1 DUP2 ADD SWAP1 POP PUSH2 0x17B7 JUMP JUMPDEST POP DUP6 SWAP4 POP POP POP POP SWAP3 SWAP2 POP POP JUMP JUMPDEST PUSH0 PUSH1 0x20 DUP3 ADD SWAP1 POP DUP2 DUP2 SUB PUSH0 DUP4 ADD MSTORE PUSH2 0x1809 DUP2 DUP5 PUSH2 0x1795 JUMP JUMPDEST SWAP1 POP SWAP3 SWAP2 POP POP JUMP JUMPDEST PUSH0 DUP1 REVERT JUMPDEST PUSH2 0x181E DUP2 PUSH2 0x1602 JUMP JUMPDEST DUP2 EQ PUSH2 0x1828 JUMPI PUSH0 DUP1 REVERT JUMPDEST POP JUMP JUMPDEST PUSH0 DUP2 CALLDATALOAD SWAP1 POP PUSH2 0x1839 DUP2 PUSH2 0x1815 JUMP JUMPDEST SWAP3 SWAP2 POP POP JUMP JUMPDEST PUSH0 DUP1 PUSH1 0x40 DUP4 DUP6 SUB SLT ISZERO PUSH2 0x1855 JUMPI PUSH2 0x1854 PUSH2 0x1811 JUMP JUMPDEST JUMPDEST PUSH0 PUSH2 0x1862 DUP6 DUP3 DUP7 ADD PUSH2 0x182B JUMP JUMPDEST SWAP3 POP POP PUSH1 0x20 PUSH2 0x1873 DUP6 DUP3 DUP7 ADD PUSH2 0x182B JUMP JUMPDEST SWAP2 POP POP SWAP3 POP SWAP3 SWAP1 POP JUMP JUMPDEST PUSH0 DUP2 ISZERO ISZERO SWAP1 POP SWAP2 SWAP1 POP JUMP JUMPDEST PUSH2 0x1891 DUP2 PUSH2 0x187D JUMP JUMPDEST DUP3 MSTORE POP POP JUMP JUMPDEST PUSH0 PUSH1 0x20 DUP3 ADD SWAP1 POP PUSH2 0x18AA PUSH0 DUP4 ADD DUP5 PUSH2 0x1888 JUMP JUMPDEST SWAP3 SWAP2 POP POP JUMP JUMPDEST PUSH0 PUSH1 0x20 DUP3 ADD SWAP1 POP PUSH2 0x18C3 PUSH0 DUP4 ADD DUP5 PUSH2 0x160B JUMP JUMPDEST SWAP3 SWAP2 POP POP JUMP JUMPDEST PUSH0 PUSH2 0x18D3 DUP3 PUSH2 0x1641 JUMP JUMPDEST SWAP1 POP SWAP2 SWAP1 POP JUMP JUMPDEST PUSH2 0x18E3 DUP2 PUSH2 0x18C9 JUMP JUMPDEST DUP3 MSTORE POP POP JUMP JUMPDEST PUSH0 PUSH1 0x20 DUP3 ADD SWAP1 POP PUSH2 0x18FC PUSH0 DUP4 ADD DUP5 PUSH2 0x18DA JUMP JUMPDEST SWAP3 SWAP2 POP POP JUMP JUMPDEST PUSH2 0x190B DUP2 PUSH2 0x18C9 JUMP JUMPDEST DUP2 EQ PUSH2 0x1915 JUMPI PUSH0 DUP1 REVERT JUMPDEST POP JUMP JUMPDEST PUSH0 DUP2 CALLDATALOAD SWAP1 POP PUSH2 0x1926 DUP2 PUSH2 0x1902 JUMP JUMPDEST SWAP3 SWAP2 POP POP JUMP JUMPDEST PUSH0 PUSH1 0x20 DUP3 DUP5 SUB SLT ISZERO PUSH2 0x1941 JUMPI PUSH2 0x1940 PUSH2 0x1811 JUMP JUMPDEST JUMPDEST PUSH0 PUSH2 0x194E DUP5 DUP3 DUP6 ADD PUSH2 0x1918 JUMP JUMPDEST SWAP2 POP POP SWAP3 SWAP2 POP POP JUMP JUMPDEST PUSH0 PUSH1 0x20 DUP3 DUP5 SUB SLT ISZERO PUSH2 0x196C JUMPI PUSH2 0x196B PUSH2 0x1811 JUMP JUMPDEST JUMPDEST PUSH0 PUSH2 0x1979 DUP5 DUP3 DUP6 ADD PUSH2 0x182B JUMP JUMPDEST SWAP2 POP POP SWAP3 SWAP2 POP POP JUMP JUMPDEST PUSH0 PUSH2 0x198C DUP3 PUSH2 0x168A JUMP JUMPDEST SWAP1 POP SWAP2 SWAP1 POP JUMP JUMPDEST PUSH2 0x199C DUP2 PUSH2 0x1982 JUMP JUMPDEST DUP3 MSTORE POP POP JUMP JUMPDEST PUSH0 PUSH1 0x20 DUP3 ADD SWAP1 POP PUSH2 0x19B5 PUSH0 DUP4 ADD DUP5 PUSH2 0x1993 JUMP JUMPDEST SWAP3 SWAP2 POP POP JUMP JUMPDEST PUSH0 PUSH2 0x19C5 DUP3 PUSH2 0x168A JUMP JUMPDEST SWAP1 POP SWAP2 SWAP1 POP JUMP JUMPDEST PUSH2 0x19D5 DUP2 PUSH2 0x19BB JUMP JUMPDEST DUP3 MSTORE POP POP JUMP JUMPDEST PUSH0 PUSH1 0x20 DUP3 ADD SWAP1 POP PUSH2 0x19EE PUSH0 DUP4 ADD DUP5 PUSH2 0x19CC JUMP JUMPDEST SWAP3 SWAP2 POP POP JUMP JUMPDEST PUSH2 0x19FD DUP2 PUSH2 0x187D JUMP JUMPDEST DUP2 EQ PUSH2 0x1A07 JUMPI PUSH0 DUP1 REVERT JUMPDEST POP JUMP JUMPDEST PUSH0 DUP2 CALLDATALOAD SWAP1 POP PUSH2 0x1A18 DUP2 PUSH2 0x19F4 JUMP JUMPDEST SWAP3 SWAP2 POP POP JUMP JUMPDEST PUSH0 DUP1 PUSH1 0x40 DUP4 DUP6 SUB SLT ISZERO PUSH2 0x1A34 JUMPI PUSH2 0x1A33 PUSH2 0x1811 JUMP JUMPDEST JUMPDEST PUSH0 PUSH2 0x1A41 DUP6 DUP3 DUP7 ADD PUSH2 0x182B JUMP JUMPDEST SWAP3 POP POP PUSH1 0x20 PUSH2 0x1A52 DUP6 DUP3 DUP7 ADD PUSH2 0x1A0A JUMP JUMPDEST SWAP2 POP POP SWAP3 POP SWAP3 SWAP1 POP JUMP JUMPDEST PUSH0 PUSH1 0x60 DUP3 ADD SWAP1 POP PUSH2 0x1A6F PUSH0 DUP4 ADD DUP7 PUSH2 0x160B JUMP JUMPDEST PUSH2 0x1A7C PUSH1 0x20 DUP4 ADD DUP6 PUSH2 0x18DA JUMP JUMPDEST PUSH2 0x1A89 PUSH1 0x40 DUP4 ADD DUP5 PUSH2 0x160B JUMP JUMPDEST SWAP5 SWAP4 POP POP POP POP JUMP JUMPDEST PUSH0 DUP2 MLOAD SWAP1 POP PUSH2 0x1A9F DUP2 PUSH2 0x19F4 JUMP JUMPDEST SWAP3 SWAP2 POP POP JUMP JUMPDEST PUSH0 PUSH1 0x20 DUP3 DUP5 SUB SLT ISZERO PUSH2 0x1ABA JUMPI PUSH2 0x1AB9 PUSH2 0x1811 JUMP JUMPDEST JUMPDEST PUSH0 PUSH2 0x1AC7 DUP5 DUP3 DUP6 ADD PUSH2 0x1A91 JUMP JUMPDEST SWAP2 POP POP SWAP3 SWAP2 POP POP JUMP JUMPDEST PUSH0 DUP2 MLOAD SWAP1 POP SWAP2 SWAP1 POP JUMP JUMPDEST PUSH0 DUP3 DUP3 MSTORE PUSH1 0x20 DUP3 ADD SWAP1 POP SWAP3 SWAP2 POP POP JUMP JUMPDEST PUSH0 JUMPDEST DUP4 DUP2 LT ISZERO PUSH2 0x1B07 JUMPI DUP1 DUP3 ADD MLOAD DUP2 DUP5 ADD MSTORE PUSH1 0x20 DUP2 ADD SWAP1 POP PUSH2 0x1AEC JUMP JUMPDEST PUSH0 DUP5 DUP5 ADD MSTORE POP POP POP POP JUMP JUMPDEST PUSH0 PUSH1 0x1F NOT PUSH1 0x1F DUP4 ADD AND SWAP1 POP SWAP2 SWAP1 POP JUMP JUMPDEST PUSH0 PUSH2 0x1B2C DUP3 PUSH2 0x1AD0 JUMP JUMPDEST PUSH2 0x1B36 DUP2 DUP6 PUSH2 0x1ADA JUMP JUMPDEST SWAP4 POP PUSH2 0x1B46 DUP2 DUP6 PUSH1 0x20 DUP7 ADD PUSH2 0x1AEA JUMP JUMPDEST PUSH2 0x1B4F DUP2 PUSH2 0x1B12 JUMP JUMPDEST DUP5 ADD SWAP2 POP POP SWAP3 SWAP2 POP POP JUMP JUMPDEST PUSH0 PUSH1 0x20 DUP3 ADD SWAP1 POP DUP2 DUP2 SUB PUSH0 DUP4 ADD MSTORE PUSH2 0x1B72 DUP2 DUP5 PUSH2 0x1B22 JUMP JUMPDEST SWAP1 POP SWAP3 SWAP2 POP POP JUMP JUMPDEST PUSH0 DUP2 MLOAD SWAP1 POP PUSH2 0x1B88 DUP2 PUSH2 0x1815 JUMP JUMPDEST SWAP3 SWAP2 POP POP JUMP JUMPDEST PUSH0 PUSH1 0x20 DUP3 DUP5 SUB SLT ISZERO PUSH2 0x1BA3 JUMPI PUSH2 0x1BA2 PUSH2 0x1811 JUMP JUMPDEST JUMPDEST PUSH0 PUSH2 0x1BB0 DUP5 DUP3 DUP6 ADD PUSH2 0x1B7A JUMP JUMPDEST SWAP2 POP POP SWAP3 SWAP2 POP POP JUMP JUMPDEST PUSH32 0x4F776E61626C653A206E6577206F776E657220697320746865207A65726F2061 PUSH0 DUP3 ADD MSTORE PUSH32 0x6464726573730000000000000000000000000000000000000000000000000000 PUSH1 0x20 DUP3 ADD MSTORE POP JUMP JUMPDEST PUSH0 PUSH2 0x1C13 PUSH1 0x26 DUP4 PUSH2 0x1ADA JUMP JUMPDEST SWAP2 POP PUSH2 0x1C1E DUP3 PUSH2 0x1BB9 JUMP JUMPDEST PUSH1 0x40 DUP3 ADD SWAP1 POP SWAP2 SWAP1 POP JUMP JUMPDEST PUSH0 PUSH1 0x20 DUP3 ADD SWAP1 POP DUP2 DUP2 SUB PUSH0 DUP4 ADD MSTORE PUSH2 0x1C40 DUP2 PUSH2 0x1C07 JUMP JUMPDEST SWAP1 POP SWAP2 SWAP1 POP JUMP JUMPDEST PUSH32 0x4E487B7100000000000000000000000000000000000000000000000000000000 PUSH0 MSTORE PUSH1 0x12 PUSH1 0x4 MSTORE PUSH1 0x24 PUSH0 REVERT JUMPDEST PUSH32 0x4E487B7100000000000000000000000000000000000000000000000000000000 PUSH0 MSTORE PUSH1 0x11 PUSH1 0x4 MSTORE PUSH1 0x24 PUSH0 REVERT JUMPDEST PUSH0 PUSH2 0x1CAB DUP3 PUSH2 0x1602 JUMP JUMPDEST SWAP2 POP PUSH2 0x1CB6 DUP4 PUSH2 0x1602 JUMP JUMPDEST SWAP3 POP DUP3 PUSH2 0x1CC6 JUMPI PUSH2 0x1CC5 PUSH2 0x1C47 JUMP JUMPDEST JUMPDEST DUP3 DUP3 DIV SWAP1 POP SWAP3 SWAP2 POP POP JUMP JUMPDEST PUSH0 PUSH2 0x1CDB DUP3 PUSH2 0x1602 JUMP JUMPDEST SWAP2 POP PUSH2 0x1CE6 DUP4 PUSH2 0x1602 JUMP JUMPDEST SWAP3 POP DUP3 DUP3 MUL PUSH2 0x1CF4 DUP2 PUSH2 0x1602 JUMP JUMPDEST SWAP2 POP DUP3 DUP3 DIV DUP5 EQ DUP4 ISZERO OR PUSH2 0x1D0B JUMPI PUSH2 0x1D0A PUSH2 0x1C74 JUMP JUMPDEST JUMPDEST POP SWAP3 SWAP2 POP POP JUMP JUMPDEST PUSH0 DUP2 SWAP1 POP SWAP3 SWAP2 POP POP JUMP JUMPDEST PUSH32 0x4D617267696E203A200000000000000000000000000000000000000000000000 PUSH0 DUP3 ADD MSTORE POP JUMP JUMPDEST PUSH0 PUSH2 0x1D50 PUSH1 0x9 DUP4 PUSH2 0x1D12 JUMP JUMPDEST SWAP2 POP PUSH2 0x1D5B DUP3 PUSH2 0x1D1C JUMP JUMPDEST PUSH1 0x9 DUP3 ADD SWAP1 POP SWAP2 SWAP1 POP JUMP JUMPDEST PUSH0 PUSH2 0x1D70 DUP3 PUSH2 0x1AD0 JUMP JUMPDEST PUSH2 0x1D7A DUP2 DUP6 PUSH2 0x1D12 JUMP JUMPDEST SWAP4 POP PUSH2 0x1D8A DUP2 DUP6 PUSH1 0x20 DUP7 ADD PUSH2 0x1AEA JUMP JUMPDEST DUP1 DUP5 ADD SWAP2 POP POP SWAP3 SWAP2 POP POP JUMP JUMPDEST PUSH32 0x4554480000000000000000000000000000000000000000000000000000000000 PUSH0 DUP3 ADD MSTORE POP JUMP JUMPDEST PUSH0 PUSH2 0x1DCA PUSH1 0x3 DUP4 PUSH2 0x1D12 JUMP JUMPDEST SWAP2 POP PUSH2 0x1DD5 DUP3 PUSH2 0x1D96 JUMP JUMPDEST PUSH1 0x3 DUP3 ADD SWAP1 POP SWAP2 SWAP1 POP JUMP JUMPDEST PUSH0 PUSH2 0x1DEA DUP3 PUSH2 0x1D44 JUMP JUMPDEST SWAP2 POP PUSH2 0x1DF6 DUP3 DUP5 PUSH2 0x1D66 JUMP JUMPDEST SWAP2 POP PUSH2 0x1E01 DUP3 PUSH2 0x1DBE JUMP JUMPDEST SWAP2 POP DUP2 SWAP1 POP SWAP3 SWAP2 POP POP JUMP JUMPDEST PUSH32 0x5374616B696E672047756172616E746565204361726400000000000000000000 PUSH0 DUP3 ADD MSTORE POP JUMP JUMPDEST PUSH0 PUSH2 0x1E40 PUSH1 0x16 DUP4 PUSH2 0x1ADA JUMP JUMPDEST SWAP2 POP PUSH2 0x1E4B DUP3 PUSH2 0x1E0C JUMP JUMPDEST PUSH1 0x20 DUP3 ADD SWAP1 POP SWAP2 SWAP1 POP JUMP JUMPDEST PUSH32 0x68747470733A2F2F697066732E696F2F697066732F516D57456751736B426374 PUSH0 DUP3 ADD MSTORE PUSH32 0x514A55617245796376366378506E4D3357723461487A3672476F7132516D5476 PUSH1 0x20 DUP3 ADD MSTORE PUSH32 0x7755633F66696C656E616D653D51564577617272616E74792E706E6700000000 PUSH1 0x40 DUP3 ADD MSTORE POP JUMP JUMPDEST PUSH0 PUSH2 0x1ED6 PUSH1 0x5C DUP4 PUSH2 0x1ADA JUMP JUMPDEST SWAP2 POP PUSH2 0x1EE1 DUP3 PUSH2 0x1E56 JUMP JUMPDEST PUSH1 0x60 DUP3 ADD SWAP1 POP SWAP2 SWAP1 POP JUMP JUMPDEST PUSH0 PUSH1 0x60 DUP3 ADD SWAP1 POP DUP2 DUP2 SUB PUSH0 DUP4 ADD MSTORE PUSH2 0x1F03 DUP2 PUSH2 0x1E34 JUMP JUMPDEST SWAP1 POP DUP2 DUP2 SUB PUSH1 0x20 DUP4 ADD MSTORE PUSH2 0x1F17 DUP2 DUP5 PUSH2 0x1B22 JUMP JUMPDEST SWAP1 POP DUP2 DUP2 SUB PUSH1 0x40 DUP4 ADD MSTORE PUSH2 0x1F2A DUP2 PUSH2 0x1ECA JUMP JUMPDEST SWAP1 POP SWAP3 SWAP2 POP POP JUMP JUMPDEST PUSH32 0x4F776E61626C653A2063616C6C6572206973206E6F7420746865206F776E6572 PUSH0 DUP3 ADD MSTORE POP JUMP JUMPDEST PUSH0 PUSH2 0x1F66 PUSH1 0x20 DUP4 PUSH2 0x1ADA JUMP JUMPDEST SWAP2 POP PUSH2 0x1F71 DUP3 PUSH2 0x1F32 JUMP JUMPDEST PUSH1 0x20 DUP3 ADD SWAP1 POP SWAP2 SWAP1 POP JUMP JUMPDEST PUSH0 PUSH1 0x20 DUP3 ADD SWAP1 POP DUP2 DUP2 SUB PUSH0 DUP4 ADD MSTORE PUSH2 0x1F93 DUP2 PUSH2 0x1F5A JUMP JUMPDEST SWAP1 POP SWAP2 SWAP1 POP JUMP JUMPDEST PUSH0 PUSH2 0x1FA4 DUP3 PUSH2 0x1602 JUMP JUMPDEST SWAP2 POP PUSH2 0x1FAF DUP4 PUSH2 0x1602 JUMP JUMPDEST SWAP3 POP DUP3 DUP3 ADD SWAP1 POP DUP1 DUP3 GT ISZERO PUSH2 0x1FC7 JUMPI PUSH2 0x1FC6 PUSH2 0x1C74 JUMP JUMPDEST JUMPDEST SWAP3 SWAP2 POP POP JUMP JUMPDEST PUSH0 PUSH1 0x60 DUP3 ADD SWAP1 POP PUSH2 0x1FE0 PUSH0 DUP4 ADD DUP7 PUSH2 0x18DA JUMP JUMPDEST PUSH2 0x1FED PUSH1 0x20 DUP4 ADD DUP6 PUSH2 0x18DA JUMP JUMPDEST PUSH2 0x1FFA PUSH1 0x40 DUP4 ADD DUP5 PUSH2 0x160B JUMP JUMPDEST SWAP5 SWAP4 POP POP POP POP JUMP JUMPDEST PUSH0 PUSH2 0x200C DUP3 PUSH2 0x1602 JUMP JUMPDEST SWAP2 POP PUSH2 0x2017 DUP4 PUSH2 0x1602 JUMP JUMPDEST SWAP3 POP DUP3 DUP3 SUB SWAP1 POP DUP2 DUP2 GT ISZERO PUSH2 0x202F JUMPI PUSH2 0x202E PUSH2 0x1C74 JUMP JUMPDEST JUMPDEST SWAP3 SWAP2 POP POP JUMP JUMPDEST PUSH32 0x4E6F205265456E7472616E637900000000000000000000000000000000000000 PUSH0 DUP3 ADD MSTORE POP JUMP JUMPDEST PUSH0 PUSH2 0x2069 PUSH1 0xD DUP4 PUSH2 0x1ADA JUMP JUMPDEST SWAP2 POP PUSH2 0x2074 DUP3 PUSH2 0x2035 JUMP JUMPDEST PUSH1 0x20 DUP3 ADD SWAP1 POP SWAP2 SWAP1 POP JUMP JUMPDEST PUSH0 PUSH1 0x20 DUP3 ADD SWAP1 POP DUP2 DUP2 SUB PUSH0 DUP4 ADD MSTORE PUSH2 0x2096 DUP2 PUSH2 0x205D JUMP JUMPDEST SWAP1 POP SWAP2 SWAP1 POP JUMP JUMPDEST PUSH0 PUSH1 0x40 DUP3 ADD SWAP1 POP PUSH2 0x20B0 PUSH0 DUP4 ADD DUP6 PUSH2 0x18DA JUMP JUMPDEST PUSH2 0x20BD PUSH1 0x20 DUP4 ADD DUP5 PUSH2 0x160B JUMP JUMPDEST SWAP4 SWAP3 POP POP POP JUMP JUMPDEST PUSH32 0x4E487B7100000000000000000000000000000000000000000000000000000000 PUSH0 MSTORE PUSH1 0x41 PUSH1 0x4 MSTORE PUSH1 0x24 PUSH0 REVERT JUMPDEST PUSH0 PUSH1 0x40 DUP3 ADD SWAP1 POP PUSH2 0x2104 PUSH0 DUP4 ADD DUP6 PUSH2 0x18DA JUMP JUMPDEST PUSH2 0x2111 PUSH1 0x20 DUP4 ADD DUP5 PUSH2 0x1888 JUMP JUMPDEST SWAP4 SWAP3 POP POP POP JUMP JUMPDEST PUSH32 0x4D696E74546F457363726F77206572726F720000000000000000000000000000 PUSH0 DUP3 ADD MSTORE POP JUMP JUMPDEST PUSH0 PUSH2 0x214C PUSH1 0x12 DUP4 PUSH2 0x1ADA JUMP JUMPDEST SWAP2 POP PUSH2 0x2157 DUP3 PUSH2 0x2118 JUMP JUMPDEST PUSH1 0x20 DUP3 ADD SWAP1 POP SWAP2 SWAP1 POP JUMP JUMPDEST PUSH0 PUSH1 0x20 DUP3 ADD SWAP1 POP DUP2 DUP2 SUB PUSH0 DUP4 ADD MSTORE PUSH2 0x2179 DUP2 PUSH2 0x2140 JUMP JUMPDEST SWAP1 POP SWAP2 SWAP1 POP JUMP JUMPDEST PUSH0 PUSH1 0x40 DUP3 ADD SWAP1 POP PUSH2 0x2193 PUSH0 DUP4 ADD DUP6 PUSH2 0x160B JUMP JUMPDEST PUSH2 0x21A0 PUSH1 0x20 DUP4 ADD DUP5 PUSH2 0x18DA JUMP JUMPDEST SWAP4 SWAP3 POP POP POP JUMP INVALID LOG2 PUSH5 0x6970667358 0x22 SLT KECCAK256 0xDE LT 0xE6 PUSH0 0xC5 0xD5 0xD7 0xCE 0xB1 0xAE LOG3 PUSH5 0x1B4F11350F 0x1F SDIV 0x5E 0x2E 0xA9 PUSH19 0x596A2BF31E702DBCB164736F6C634300081500 CALLER "
		},
		"gasEstimates": {
			"creation": {
				"codeDepositCost": "1733800",
				"executionCost": "infinite",
				"totalCost": "infinite"
			},
			"external": {
				"QVEliquidityPool()": "infinite",
				"burnStakingGuarantee(uint256)": "infinite",
				"esQVEliquidityPool()": "infinite",
				"getInputedMarginCount()": "2502",
				"getNFTbalance_()": "infinite",
				"getNfts_()": "infinite",
				"owner()": "2611",
				"qveEscrow()": "infinite",
				"qveVesting()": "infinite",
				"qvenft()": "infinite",
				"qvetoken()": "infinite",
				"receiveAsset(uint256,bool)": "infinite",
				"renounceOwnership()": "30609",
				"shortenLockup(uint256,uint256)": "infinite",
				"transferOwnership(address)": "30972"
			},
			"internal": {
				"_addLiquidity(uint256)": "infinite",
				"_addUserMarginVault(address,uint256,uint256)": "infinite",
				"_botAddress()": "infinite",
				"_escrowQVE(uint256)": "infinite",
				"_issueGuaranteeNFT(address,uint256,bool)": "infinite",
				"_sendQVEFromLiquidity(address,uint256)": "infinite",
				"_subLiquidity(uint256)": "infinite",
				"stakeEth(uint256,bool)": "infinite"
			}
		},
		"methodIdentifiers": {
			"QVEliquidityPool()": "0e301d24",
			"burnStakingGuarantee(uint256)": "f366b27e",
			"esQVEliquidityPool()": "0691badf",
			"getInputedMarginCount()": "8866b937",
			"getNFTbalance_()": "9f62e796",
			"getNfts_()": "5ac66993",
			"owner()": "8da5cb5b",
			"qveEscrow()": "fdcdbae2",
			"qveVesting()": "f968217b",
			"qvenft()": "510b7f98",
			"qvetoken()": "2b1c4158",
			"receiveAsset(uint256,bool)": "fe35fb50",
			"renounceOwnership()": "715018a6",
			"shortenLockup(uint256,uint256)": "83ce6147",
			"transferOwnership(address)": "f2fde38b"
		}
	},
	"abi": [
		{
			"inputs": [
				{
					"internalType": "contract QVEtoken",
					"name": "_qveTokenAddress",
					"type": "address"
				},
				{
					"internalType": "contract QVEnft",
					"name": "_qvenft",
					"type": "address"
				},
				{
					"internalType": "contract QVEescrow",
					"name": "_qveEscrow",
					"type": "address"
				},
				{
					"internalType": "contract QVEvesting",
					"name": "_qveVesting",
					"type": "address"
				}
			],
			"stateMutability": "nonpayable",
			"type": "constructor"
		},
		{
			"anonymous": false,
			"inputs": [
				{
					"indexed": true,
					"internalType": "address",
					"name": "previousOwner",
					"type": "address"
				},
				{
					"indexed": true,
					"internalType": "address",
					"name": "newOwner",
					"type": "address"
				}
			],
			"name": "OwnershipTransferred",
			"type": "event"
		},
		{
			"inputs": [],
			"name": "QVEliquidityPool",
			"outputs": [
				{
					"internalType": "uint256",
					"name": "balance",
					"type": "uint256"
				},
				{
					"internalType": "uint256",
					"name": "at",
					"type": "uint256"
				}
			],
			"stateMutability": "view",
			"type": "function"
		},
		{
			"inputs": [
				{
					"internalType": "uint256",
					"name": "tokenId",
					"type": "uint256"
				}
			],
			"name": "burnStakingGuarantee",
			"outputs": [
				{
					"internalType": "bool",
					"name": "",
					"type": "bool"
				}
			],
			"stateMutability": "nonpayable",
			"type": "function"
		},
		{
			"inputs": [],
			"name": "esQVEliquidityPool",
			"outputs": [
				{
					"internalType": "uint256",
					"name": "balance",
					"type": "uint256"
				},
				{
					"internalType": "uint256",
					"name": "at",
					"type": "uint256"
				}
			],
			"stateMutability": "view",
			"type": "function"
		},
		{
			"inputs": [],
			"name": "getInputedMarginCount",
			"outputs": [
				{
					"internalType": "uint256",
					"name": "",
					"type": "uint256"
				}
			],
			"stateMutability": "view",
			"type": "function"
		},
		{
			"inputs": [],
			"name": "getNFTbalance_",
			"outputs": [
				{
					"internalType": "uint256",
					"name": "",
					"type": "uint256"
				}
			],
			"stateMutability": "view",
			"type": "function"
		},
		{
			"inputs": [],
			"name": "getNfts_",
			"outputs": [
				{
					"components": [
						{
							"internalType": "uint256",
							"name": "tokenId",
							"type": "uint256"
						},
						{
							"internalType": "uint256",
							"name": "at",
							"type": "uint256"
						}
					],
					"internalType": "struct QVECore.NFTFragment[]",
					"name": "",
					"type": "tuple[]"
				}
			],
			"stateMutability": "view",
			"type": "function"
		},
		{
			"inputs": [],
			"name": "owner",
			"outputs": [
				{
					"internalType": "address",
					"name": "",
					"type": "address"
				}
			],
			"stateMutability": "view",
			"type": "function"
		},
		{
			"inputs": [],
			"name": "qveEscrow",
			"outputs": [
				{
					"internalType": "contract QVEescrow",
					"name": "",
					"type": "address"
				}
			],
			"stateMutability": "view",
			"type": "function"
		},
		{
			"inputs": [],
			"name": "qveVesting",
			"outputs": [
				{
					"internalType": "contract QVEvesting",
					"name": "",
					"type": "address"
				}
			],
			"stateMutability": "view",
			"type": "function"
		},
		{
			"inputs": [],
			"name": "qvenft",
			"outputs": [
				{
					"internalType": "contract QVEnft",
					"name": "",
					"type": "address"
				}
			],
			"stateMutability": "view",
			"type": "function"
		},
		{
			"inputs": [],
			"name": "qvetoken",
			"outputs": [
				{
					"internalType": "contract QVEtoken",
					"name": "",
					"type": "address"
				}
			],
			"stateMutability": "view",
			"type": "function"
		},
		{
			"inputs": [
				{
					"internalType": "uint256",
					"name": "assetAmount",
					"type": "uint256"
				},
				{
					"internalType": "bool",
					"name": "lockup",
					"type": "bool"
				}
			],
			"name": "receiveAsset",
			"outputs": [
				{
					"internalType": "bool",
					"name": "",
					"type": "bool"
				}
			],
			"stateMutability": "payable",
			"type": "function"
		},
		{
			"inputs": [],
			"name": "renounceOwnership",
			"outputs": [],
			"stateMutability": "nonpayable",
			"type": "function"
		},
		{
			"inputs": [
				{
					"internalType": "uint256",
					"name": "qveAmount",
					"type": "uint256"
				},
				{
					"internalType": "uint256",
					"name": "tokenId",
					"type": "uint256"
				}
			],
			"name": "shortenLockup",
			"outputs": [
				{
					"internalType": "bool",
					"name": "",
					"type": "bool"
				}
			],
			"stateMutability": "nonpayable",
			"type": "function"
		},
		{
			"inputs": [
				{
					"internalType": "address",
					"name": "newOwner",
					"type": "address"
				}
			],
			"name": "transferOwnership",
			"outputs": [],
			"stateMutability": "nonpayable",
			"type": "function"
		}
	]
}