{
	"data": {
		"bytecode": {
			"linkReferences": {},
			"object": "608060405234801562000010575f80fd5b5060405162003056380380620030568339818101604052810190620000369190620005fb565b620000566200004a620003b160201b60201c565b620003b860201b60201c565b8460025f6101000a81548173ffffffffffffffffffffffffffffffffffffffff021916908373ffffffffffffffffffffffffffffffffffffffff1602179055508360035f6101000a81548173ffffffffffffffffffffffffffffffffffffffff021916908373ffffffffffffffffffffffffffffffffffffffff1602179055508260045f6101000a81548173ffffffffffffffffffffffffffffffffffffffff021916908373ffffffffffffffffffffffffffffffffffffffff1602179055508160055f6101000a81548173ffffffffffffffffffffffffffffffffffffffff021916908373ffffffffffffffffffffffffffffffffffffffff1602179055508060065f6101000a81548173ffffffffffffffffffffffffffffffffffffffff021916908373ffffffffffffffffffffffffffffffffffffffff16021790555060025f9054906101000a900473ffffffffffffffffffffffffffffffffffffffff1673ffffffffffffffffffffffffffffffffffffffff1663469895c83330600460025f9054906101000a900473ffffffffffffffffffffffffffffffffffffffff1673ffffffffffffffffffffffffffffffffffffffff166318160ddd6040518163ffffffff1660e01b8152600401602060405180830381865afa15801562000242573d5f803e3d5ffd5b505050506040513d601f19601f82011682018060405250810190620002689190620006b7565b62000274919062000741565b6040518463ffffffff1660e01b815260040162000294939291906200079a565b6020604051808303815f875af1158015620002b1573d5f803e3d5ffd5b505050506040513d601f19601f82011682018060405250810190620002d791906200080f565b50670de0b6b3a764000060025f9054906101000a900473ffffffffffffffffffffffffffffffffffffffff1673ffffffffffffffffffffffffffffffffffffffff166370a08231306040518263ffffffff1660e01b81526004016200033d91906200083f565b602060405180830381865afa15801562000359573d5f803e3d5ffd5b505050506040513d601f19601f820116820180604052508101906200037f9190620006b7565b6200038b919062000741565b60085f015f8282546200039f91906200085a565b92505081905550505050505062000894565b5f33905090565b5f8060019054906101000a900473ffffffffffffffffffffffffffffffffffffffff169050815f60016101000a81548173ffffffffffffffffffffffffffffffffffffffff021916908373ffffffffffffffffffffffffffffffffffffffff1602179055508173ffffffffffffffffffffffffffffffffffffffff168173ffffffffffffffffffffffffffffffffffffffff167f8be0079c531659141344cd1fd0a4f28419497f9722a3daafe3b4186f6b6457e060405160405180910390a35050565b5f80fd5b5f73ffffffffffffffffffffffffffffffffffffffff82169050919050565b5f620004aa826200047f565b9050919050565b5f620004bd826200049e565b9050919050565b620004cf81620004b1565b8114620004da575f80fd5b50565b5f81519050620004ed81620004c4565b92915050565b5f620004ff826200049e565b9050919050565b6200051181620004f3565b81146200051c575f80fd5b50565b5f815190506200052f8162000506565b92915050565b5f62000541826200049e565b9050919050565b620005538162000535565b81146200055e575f80fd5b50565b5f81519050620005718162000548565b92915050565b5f62000583826200049e565b9050919050565b620005958162000577565b8114620005a0575f80fd5b50565b5f81519050620005b3816200058a565b92915050565b5f620005c5826200049e565b9050919050565b620005d781620005b9565b8114620005e2575f80fd5b50565b5f81519050620005f581620005cc565b92915050565b5f805f805f60a086880312156200061757620006166200047b565b5b5f6200062688828901620004dd565b955050602062000639888289016200051f565b94505060406200064c8882890162000561565b93505060606200065f88828901620005a3565b92505060806200067288828901620005e5565b9150509295509295909350565b5f819050919050565b62000693816200067f565b81146200069e575f80fd5b50565b5f81519050620006b18162000688565b92915050565b5f60208284031215620006cf57620006ce6200047b565b5b5f620006de84828501620006a1565b91505092915050565b7f4e487b71000000000000000000000000000000000000000000000000000000005f52601260045260245ffd5b7f4e487b71000000000000000000000000000000000000000000000000000000005f52601160045260245ffd5b5f6200074d826200067f565b91506200075a836200067f565b9250826200076d576200076c620006e7565b5b828204905092915050565b62000783816200049e565b82525050565b62000794816200067f565b82525050565b5f606082019050620007af5f83018662000778565b620007be602083018562000778565b620007cd604083018462000789565b949350505050565b5f8115159050919050565b620007eb81620007d5565b8114620007f6575f80fd5b50565b5f815190506200080981620007e0565b92915050565b5f602082840312156200082757620008266200047b565b5b5f6200083684828501620007f9565b91505092915050565b5f602082019050620008545f83018462000778565b92915050565b5f62000866826200067f565b915062000873836200067f565b92508282019050808211156200088e576200088d62000714565b5b92915050565b6127b480620008a25f395ff3fe608060405260043610610108575f3560e01c806383ce614711610094578063f2fde38b11610063578063f2fde38b14610340578063f366b27e14610368578063f968217b146103a4578063fdcdbae2146103ce578063fe35fb50146103f857610108565b806383ce6147146102865780638866b937146102c25780638da5cb5b146102ec5780639f62e7961461031657610108565b80632b1c4158116100db5780632b1c4158146101b6578063510b7f98146101e057806356289c291461020a5780635ac6699314610246578063715018a61461027057610108565b80630691badf1461010c5780630e301d24146101375780631552e770146101625780632adcbebd1461018c575b5f80fd5b348015610117575f80fd5b50610120610428565b60405161012e929190611a82565b60405180910390f35b348015610142575f80fd5b5061014b610439565b604051610159929190611a82565b60405180910390f35b34801561016d575f80fd5b5061017661044a565b6040516101839190611aa9565b60405180910390f35b348015610197575f80fd5b506101a0610455565b6040516101ad9190611b3c565b60405180910390f35b3480156101c1575f80fd5b506101ca61047a565b6040516101d79190611b75565b60405180910390f35b3480156101eb575f80fd5b506101f461049f565b6040516102019190611bae565b60405180910390f35b348015610215575f80fd5b50610230600480360381019061022b9190611bf5565b6104c4565b60405161023d9190611c3a565b60405180910390f35b348015610251575f80fd5b5061025a6106e9565b6040516102679190611d37565b60405180910390f35b34801561027b575f80fd5b50610284610795565b005b348015610291575f80fd5b506102ac60048036038101906102a79190611d57565b6107a8565b6040516102b99190611c3a565b60405180910390f35b3480156102cd575f80fd5b506102d66108d3565b6040516102e39190611aa9565b60405180910390f35b3480156102f7575f80fd5b506103006108e3565b60405161030d9190611db5565b60405180910390f35b348015610321575f80fd5b5061032a61090b565b6040516103379190611aa9565b60405180910390f35b34801561034b575f80fd5b5061036660048036038101906103619190611df8565b6109aa565b005b348015610373575f80fd5b5061038e60048036038101906103899190611bf5565b610a2c565b60405161039b9190611c3a565b60405180910390f35b3480156103af575f80fd5b506103b8610bc7565b6040516103c59190611e43565b60405180910390f35b3480156103d9575f80fd5b506103e2610bec565b6040516103ef9190611e7c565b60405180910390f35b610412600480360381019061040d9190611ebf565b610c11565b60405161041f9190611c3a565b60405180910390f35b600a805f0154908060010154905082565b6008805f0154908060010154905082565b5f60085f0154905090565b60065f9054906101000a900473ffffffffffffffffffffffffffffffffffffffff1681565b60025f9054906101000a900473ffffffffffffffffffffffffffffffffffffffff1681565b60035f9054906101000a900473ffffffffffffffffffffffffffffffffffffffff1681565b5f805f9054906101000a900460ff1615610513576040517f08c379a000000000000000000000000000000000000000000000000000000000815260040161050a90611f57565b60405180910390fd5b60015f806101000a81548160ff021916908315150217905550610579336105746064610566600a60ff16610558670de0b6b3a764000089610cee90919063ffffffff16565b610cee90919063ffffffff16565b610d0390919063ffffffff16565b610d18565b6105b8576040517f08c379a00000000000000000000000000000000000000000000000000000000081526004016105af90611fe5565b60405180910390fd5b60065f9054906101000a900473ffffffffffffffffffffffffffffffffffffffff1673ffffffffffffffffffffffffffffffffffffffff1663adc9772e3361062c606461061e600a606461060c919061203c565b60ff1688610cee90919063ffffffff16565b610d0390919063ffffffff16565b6040518363ffffffff1660e01b8152600401610649929190612070565b6020604051808303815f875af1158015610665573d5f803e3d5ffd5b505050506040513d601f19601f8201168201806040525081019061068991906120ab565b6106c8576040517f08c379a00000000000000000000000000000000000000000000000000000000081526004016106bf90612120565b60405180910390fd5b600190505f805f6101000a81548160ff021916908315150217905550919050565b606060075f3373ffffffffffffffffffffffffffffffffffffffff1673ffffffffffffffffffffffffffffffffffffffff1681526020019081526020015f205f01805480602002602001604051908101604052809291908181526020015f905b8282101561078c578382905f5260205f2090600202016040518060400160405290815f820154815260200160018201548152505081526020019060010190610749565b50505050905090565b61079d610e49565b6107a65f610ec7565b565b5f60035f9054906101000a900473ffffffffffffffffffffffffffffffffffffffff1673ffffffffffffffffffffffffffffffffffffffff1663b2c3a7178430856040518463ffffffff1660e01b81526004016108079392919061213e565b6020604051808303815f875af1158015610823573d5f803e3d5ffd5b505050506040513d601f19601f8201168201806040525081019061084791906120ab565b6040518060400160405280601a81526020017f5761726e696e6720466f72204c6f636b75702053686f7274656e000000000000815250906108be576040517f08c379a00000000000000000000000000000000000000000000000000000000081526004016108b591906121ed565b60405180910390fd5b506108c883610f8a565b506001905092915050565b5f6108de6001610fb8565b905090565b5f8060019054906101000a900473ffffffffffffffffffffffffffffffffffffffff16905090565b5f60035f9054906101000a900473ffffffffffffffffffffffffffffffffffffffff1673ffffffffffffffffffffffffffffffffffffffff166370a08231336040518263ffffffff1660e01b81526004016109669190611db5565b602060405180830381865afa158015610981573d5f803e3d5ffd5b505050506040513d601f19601f820116820180604052508101906109a59190612221565b905090565b6109b2610e49565b5f73ffffffffffffffffffffffffffffffffffffffff168173ffffffffffffffffffffffffffffffffffffffff1603610a20576040517f08c379a0000000000000000000000000000000000000000000000000000000008152600401610a17906122bc565b60405180910390fd5b610a2981610ec7565b50565b5f60035f9054906101000a900473ffffffffffffffffffffffffffffffffffffffff1673ffffffffffffffffffffffffffffffffffffffff16632890e0d7836040518263ffffffff1660e01b8152600401610a879190611aa9565b6020604051808303815f875af1158015610aa3573d5f803e3d5ffd5b505050506040513d601f19601f82011682018060405250810190610ac791906120ab565b50610af633670de0b6b3a7640000600c5f8681526020019081526020015f2054610af19190612307565b610fc4565b6040518060400160405280601481526020017f5761726e696e6720466f72205472616e7366657200000000000000000000000081525090610b6d576040517f08c379a0000000000000000000000000000000000000000000000000000000008152600401610b6491906121ed565b60405180910390fd5b50610bb6670de0b6b3a76400006064600a60ff16600c5f8781526020019081526020015f2054610b9d9190612337565b610ba79190612307565b610bb19190612337565b611123565b610bbe575f80fd5b60019050919050565b60055f9054906101000a900473ffffffffffffffffffffffffffffffffffffffff1681565b60045f9054906101000a900473ffffffffffffffffffffffffffffffffffffffff1681565b5f610c1c8383611249565b505f610c27846112f9565b604051602001610c379190612446565b604051602081830303815290604052905060035f9054906101000a900473ffffffffffffffffffffffffffffffffffffffff1673ffffffffffffffffffffffffffffffffffffffff16630890d80c826040518263ffffffff1660e01b8152600401610ca29190612552565b6020604051808303815f875af1158015610cbe573d5f803e3d5ffd5b505050506040513d601f19601f82011682018060405250810190610ce291906120ab565b50600191505092915050565b5f8183610cfb9190612337565b905092915050565b5f8183610d109190612307565b905092915050565b5f60045f9054906101000a900473ffffffffffffffffffffffffffffffffffffffff1673ffffffffffffffffffffffffffffffffffffffff166344570b3f84846040518363ffffffff1660e01b8152600401610d75929190612070565b6020604051808303815f875af1158015610d91573d5f803e3d5ffd5b505050506040513d601f19601f82011682018060405250810190610db591906120ab565b5060055f9054906101000a900473ffffffffffffffffffffffffffffffffffffffff1673ffffffffffffffffffffffffffffffffffffffff1663cdb51cdf83856040518363ffffffff1660e01b8152600401610e12929190612598565b5f604051808303815f87803b158015610e29575f80fd5b505af1158015610e3b573d5f803e3d5ffd5b505050506001905092915050565b610e516113c3565b73ffffffffffffffffffffffffffffffffffffffff16610e6f6108e3565b73ffffffffffffffffffffffffffffffffffffffff1614610ec5576040517f08c379a0000000000000000000000000000000000000000000000000000000008152600401610ebc90612609565b60405180910390fd5b565b5f8060019054906101000a900473ffffffffffffffffffffffffffffffffffffffff169050815f60016101000a81548173ffffffffffffffffffffffffffffffffffffffff021916908373ffffffffffffffffffffffffffffffffffffffff1602179055508173ffffffffffffffffffffffffffffffffffffffff168173ffffffffffffffffffffffffffffffffffffffff167f8be0079c531659141344cd1fd0a4f28419497f9722a3daafe3b4186f6b6457e060405160405180910390a35050565b5f8160085f015f828254610f9e9190612627565b925050819055504260086001018190555060019050919050565b5f815f01549050919050565b5f60025f9054906101000a900473ffffffffffffffffffffffffffffffffffffffff1673ffffffffffffffffffffffffffffffffffffffff1663469895c8308561101f670de0b6b3a764000087610cee90919063ffffffff16565b6040518463ffffffff1660e01b815260040161103d9392919061265a565b6020604051808303815f875af1158015611059573d5f803e3d5ffd5b505050506040513d601f19601f8201168201806040525081019061107d91906120ab565b6040518060400160405280601481526020017f5761726e696e6720466f72205472616e73666572000000000000000000000000815250906110f4576040517f08c379a00000000000000000000000000000000000000000000000000000000081526004016110eb91906121ed565b60405180910390fd5b508160085f015f828254611108919061268f565b92505081905550426008600101819055506001905092915050565b5f805f9054906101000a900460ff1615611172576040517f08c379a000000000000000000000000000000000000000000000000000000000815260040161116990611f57565b60405180910390fd5b60015f806101000a81548160ff02191690831515021790555060045f9054906101000a900473ffffffffffffffffffffffffffffffffffffffff1673ffffffffffffffffffffffffffffffffffffffff166344570b3f33846040518363ffffffff1660e01b81526004016111e7929190612070565b6020604051808303815f875af1158015611203573d5f803e3d5ffd5b505050506040513d601f19601f8201168201806040525081019061122791906120ab565b50600190505f805f6101000a81548160ff021916908315150217905550919050565b5f806112563385856113ca565b905061126181611724565b61126c3385836117bd565b6040518060400160405280601181526020017f5761726e696e6720466f72205661756c74000000000000000000000000000000815250906112e3576040517f08c379a00000000000000000000000000000000000000000000000000000000081526004016112da91906121ed565b60405180910390fd5b506112ee60016118e6565b600191505092915050565b60605f6001611307846118fa565b0190505f8167ffffffffffffffff811115611325576113246126c2565b5b6040519080825280601f01601f1916602001820160405280156113575781602001600182028036833780820191505090505b5090505f82602001820190505b6001156113b8578080600190039150507f3031323334353637383961626364656600000000000000000000000000000000600a86061a8153600a85816113ad576113ac6122da565b5b0494505f8503611364575b819350505050919050565b5f33905090565b5f805f9054906101000a900460ff1615611419576040517f08c379a000000000000000000000000000000000000000000000000000000000815260040161141090611f57565b60405180910390fd5b60015f806101000a81548160ff0219169083151502179055505f60035f9054906101000a900473ffffffffffffffffffffffffffffffffffffffff1673ffffffffffffffffffffffffffffffffffffffff1663f42c69d686856040518363ffffffff1660e01b815260040161148f9291906126ef565b6020604051808303815f875af11580156114ab573d5f803e3d5ffd5b505050506040513d601f19601f820116820180604052508101906114cf9190612221565b905060075f8673ffffffffffffffffffffffffffffffffffffffff1673ffffffffffffffffffffffffffffffffffffffff1681526020019081526020015f205f01604051806040016040528083815260200142815250908060018154018082558091505060019003905f5260205f2090600202015f909190919091505f820151815f015560208201518160010155505061156a3385836117bd565b5082156117015760045f9054906101000a900473ffffffffffffffffffffffffffffffffffffffff1673ffffffffffffffffffffffffffffffffffffffff1663340fc3e433670de0b6b3a76400006064886115c59190612337565b6115cf9190612337565b6040518363ffffffff1660e01b81526004016115ec929190612070565b6020604051808303815f875af1158015611608573d5f803e3d5ffd5b505050506040513d601f19601f8201168201806040525081019061162c91906120ab565b61166b576040517f08c379a000000000000000000000000000000000000000000000000000000000815260040161166290612760565b60405180910390fd5b60055f9054906101000a900473ffffffffffffffffffffffffffffffffffffffff1673ffffffffffffffffffffffffffffffffffffffff1663cdb51cdf6064866116b59190612337565b336040518363ffffffff1660e01b81526004016116d3929190612598565b5f604051808303815f87803b1580156116ea575f80fd5b505af11580156116fc573d5f803e3d5ffd5b505050505b809150505f805f6101000a81548160ff0219169083151502179055509392505050565b6117ba816040516024016117389190611aa9565b6040516020818303038152906040527ff82c50f1000000000000000000000000000000000000000000000000000000007bffffffffffffffffffffffffffffffffffffffffffffffffffffffff19166020820180517bffffffffffffffffffffffffffffffffffffffffffffffffffffffff8381831617835250505050611a4b565b50565b5f80600d5f8673ffffffffffffffffffffffffffffffffffffffff1673ffffffffffffffffffffffffffffffffffffffff1681526020019081526020015f205f01905080604051806060016040528086815260200142815260200185815250908060018154018082558091505060019003905f5260205f2090600302015f909190919091505f820151815f015560208201518160010155604082015181600201555050600d5f8673ffffffffffffffffffffffffffffffffffffffff1673ffffffffffffffffffffffffffffffffffffffff1681526020019081526020015f2060010183908060018154018082558091505060019003905f5260205f20015f909190919091505583600c5f8581526020019081526020015f208190555060019150509392505050565b6001815f015f828254019250508190555050565b5f805f90507a184f03e93ff9f4daa797ed6e38ed64bf6a1f0100000000000000008310611956577a184f03e93ff9f4daa797ed6e38ed64bf6a1f010000000000000000838161194c5761194b6122da565b5b0492506040810190505b6d04ee2d6d415b85acef81000000008310611993576d04ee2d6d415b85acef81000000008381611989576119886122da565b5b0492506020810190505b662386f26fc1000083106119c257662386f26fc1000083816119b8576119b76122da565b5b0492506010810190505b6305f5e10083106119eb576305f5e10083816119e1576119e06122da565b5b0492506008810190505b6127108310611a10576127108381611a0657611a056122da565b5b0492506004810190505b60648310611a335760648381611a2957611a286122da565b5b0492506002810190505b600a8310611a42576001810190505b80915050919050565b5f6a636f6e736f6c652e6c6f6790505f80835160208501845afa505050565b5f819050919050565b611a7c81611a6a565b82525050565b5f604082019050611a955f830185611a73565b611aa26020830184611a73565b9392505050565b5f602082019050611abc5f830184611a73565b92915050565b5f73ffffffffffffffffffffffffffffffffffffffff82169050919050565b5f819050919050565b5f611b04611aff611afa84611ac2565b611ae1565b611ac2565b9050919050565b5f611b1582611aea565b9050919050565b5f611b2682611b0b565b9050919050565b611b3681611b1c565b82525050565b5f602082019050611b4f5f830184611b2d565b92915050565b5f611b5f82611b0b565b9050919050565b611b6f81611b55565b82525050565b5f602082019050611b885f830184611b66565b92915050565b5f611b9882611b0b565b9050919050565b611ba881611b8e565b82525050565b5f602082019050611bc15f830184611b9f565b92915050565b5f80fd5b611bd481611a6a565b8114611bde575f80fd5b50565b5f81359050611bef81611bcb565b92915050565b5f60208284031215611c0a57611c09611bc7565b5b5f611c1784828501611be1565b91505092915050565b5f8115159050919050565b611c3481611c20565b82525050565b5f602082019050611c4d5f830184611c2b565b92915050565b5f81519050919050565b5f82825260208201905092915050565b5f819050602082019050919050565b611c8581611a6a565b82525050565b604082015f820151611c9f5f850182611c7c565b506020820151611cb26020850182611c7c565b50505050565b5f611cc38383611c8b565b60408301905092915050565b5f602082019050919050565b5f611ce582611c53565b611cef8185611c5d565b9350611cfa83611c6d565b805f5b83811015611d2a578151611d118882611cb8565b9750611d1c83611ccf565b925050600181019050611cfd565b5085935050505092915050565b5f6020820190508181035f830152611d4f8184611cdb565b905092915050565b5f8060408385031215611d6d57611d6c611bc7565b5b5f611d7a85828601611be1565b9250506020611d8b85828601611be1565b9150509250929050565b5f611d9f82611ac2565b9050919050565b611daf81611d95565b82525050565b5f602082019050611dc85f830184611da6565b92915050565b611dd781611d95565b8114611de1575f80fd5b50565b5f81359050611df281611dce565b92915050565b5f60208284031215611e0d57611e0c611bc7565b5b5f611e1a84828501611de4565b91505092915050565b5f611e2d82611b0b565b9050919050565b611e3d81611e23565b82525050565b5f602082019050611e565f830184611e34565b92915050565b5f611e6682611b0b565b9050919050565b611e7681611e5c565b82525050565b5f602082019050611e8f5f830184611e6d565b92915050565b611e9e81611c20565b8114611ea8575f80fd5b50565b5f81359050611eb981611e95565b92915050565b5f8060408385031215611ed557611ed4611bc7565b5b5f611ee285828601611be1565b9250506020611ef385828601611eab565b9150509250929050565b5f82825260208201905092915050565b7f4e6f205265456e7472616e6379000000000000000000000000000000000000005f82015250565b5f611f41600d83611efd565b9150611f4c82611f0d565b602082019050919050565b5f6020820190508181035f830152611f6e81611f35565b9050919050565b7f4572726f7220696e204d616b652051564520657363726f77656420616e6420565f8201527f657374696e670000000000000000000000000000000000000000000000000000602082015250565b5f611fcf602683611efd565b9150611fda82611f75565b604082019050919050565b5f6020820190508181035f830152611ffc81611fc3565b9050919050565b5f60ff82169050919050565b7f4e487b71000000000000000000000000000000000000000000000000000000005f52601160045260245ffd5b5f61204682612003565b915061205183612003565b9250828203905060ff81111561206a5761206961200f565b5b92915050565b5f6040820190506120835f830185611da6565b6120906020830184611a73565b9392505050565b5f815190506120a581611e95565b92915050565b5f602082840312156120c0576120bf611bc7565b5b5f6120cd84828501612097565b91505092915050565b7f4572726f7220696e20515645207374616b696e670000000000000000000000005f82015250565b5f61210a601483611efd565b9150612115826120d6565b602082019050919050565b5f6020820190508181035f830152612137816120fe565b9050919050565b5f6060820190506121515f830186611a73565b61215e6020830185611da6565b61216b6040830184611a73565b949350505050565b5f81519050919050565b5f5b8381101561219a57808201518184015260208101905061217f565b5f8484015250505050565b5f601f19601f8301169050919050565b5f6121bf82612173565b6121c98185611efd565b93506121d981856020860161217d565b6121e2816121a5565b840191505092915050565b5f6020820190508181035f83015261220581846121b5565b905092915050565b5f8151905061221b81611bcb565b92915050565b5f6020828403121561223657612235611bc7565b5b5f6122438482850161220d565b91505092915050565b7f4f776e61626c653a206e6577206f776e657220697320746865207a65726f20615f8201527f6464726573730000000000000000000000000000000000000000000000000000602082015250565b5f6122a6602683611efd565b91506122b18261224c565b604082019050919050565b5f6020820190508181035f8301526122d38161229a565b9050919050565b7f4e487b71000000000000000000000000000000000000000000000000000000005f52601260045260245ffd5b5f61231182611a6a565b915061231c83611a6a565b92508261232c5761232b6122da565b5b828204905092915050565b5f61234182611a6a565b915061234c83611a6a565b925082820261235a81611a6a565b915082820484148315176123715761237061200f565b5b5092915050565b5f81905092915050565b7f4d617267696e203a2000000000000000000000000000000000000000000000005f82015250565b5f6123b6600983612378565b91506123c182612382565b600982019050919050565b5f6123d682612173565b6123e08185612378565b93506123f081856020860161217d565b80840191505092915050565b7f45544800000000000000000000000000000000000000000000000000000000005f82015250565b5f612430600383612378565b915061243b826123fc565b600382019050919050565b5f612450826123aa565b915061245c82846123cc565b915061246782612424565b915081905092915050565b7f5374616b696e672047756172616e7465652043617264000000000000000000005f82015250565b5f6124a6601683611efd565b91506124b182612472565b602082019050919050565b7f68747470733a2f2f697066732e696f2f697066732f516d57456751736b4263745f8201527f514a55617245796376366378506e4d3357723461487a3672476f7132516d547660208201527f7755633f66696c656e616d653d51564577617272616e74792e706e6700000000604082015250565b5f61253c605c83611efd565b9150612547826124bc565b606082019050919050565b5f6060820190508181035f8301526125698161249a565b9050818103602083015261257d81846121b5565b9050818103604083015261259081612530565b905092915050565b5f6040820190506125ab5f830185611a73565b6125b86020830184611da6565b9392505050565b7f4f776e61626c653a2063616c6c6572206973206e6f7420746865206f776e65725f82015250565b5f6125f3602083611efd565b91506125fe826125bf565b602082019050919050565b5f6020820190508181035f830152612620816125e7565b9050919050565b5f61263182611a6a565b915061263c83611a6a565b92508282019050808211156126545761265361200f565b5b92915050565b5f60608201905061266d5f830186611da6565b61267a6020830185611da6565b6126876040830184611a73565b949350505050565b5f61269982611a6a565b91506126a483611a6a565b92508282039050818111156126bc576126bb61200f565b5b92915050565b7f4e487b71000000000000000000000000000000000000000000000000000000005f52604160045260245ffd5b5f6040820190506127025f830185611da6565b61270f6020830184611c2b565b9392505050565b7f4d696e74546f457363726f77206572726f7200000000000000000000000000005f82015250565b5f61274a601283611efd565b915061275582612716565b602082019050919050565b5f6020820190508181035f8301526127778161273e565b905091905056fea264697066735822122012ae510a513c5e4cb95c2846a5a7ab79b13485bb89c324e7e1e7200f263c0bb664736f6c63430008150033",
			"opcodes": "PUSH1 0x80 PUSH1 0x40 MSTORE CALLVALUE DUP1 ISZERO PUSH3 0x10 JUMPI PUSH0 DUP1 REVERT JUMPDEST POP PUSH1 0x40 MLOAD PUSH3 0x3056 CODESIZE SUB DUP1 PUSH3 0x3056 DUP4 CODECOPY DUP2 DUP2 ADD PUSH1 0x40 MSTORE DUP2 ADD SWAP1 PUSH3 0x36 SWAP2 SWAP1 PUSH3 0x5FB JUMP JUMPDEST PUSH3 0x56 PUSH3 0x4A PUSH3 0x3B1 PUSH1 0x20 SHL PUSH1 0x20 SHR JUMP JUMPDEST PUSH3 0x3B8 PUSH1 0x20 SHL PUSH1 0x20 SHR JUMP JUMPDEST DUP5 PUSH1 0x2 PUSH0 PUSH2 0x100 EXP DUP2 SLOAD DUP2 PUSH20 0xFFFFFFFFFFFFFFFFFFFFFFFFFFFFFFFFFFFFFFFF MUL NOT AND SWAP1 DUP4 PUSH20 0xFFFFFFFFFFFFFFFFFFFFFFFFFFFFFFFFFFFFFFFF AND MUL OR SWAP1 SSTORE POP DUP4 PUSH1 0x3 PUSH0 PUSH2 0x100 EXP DUP2 SLOAD DUP2 PUSH20 0xFFFFFFFFFFFFFFFFFFFFFFFFFFFFFFFFFFFFFFFF MUL NOT AND SWAP1 DUP4 PUSH20 0xFFFFFFFFFFFFFFFFFFFFFFFFFFFFFFFFFFFFFFFF AND MUL OR SWAP1 SSTORE POP DUP3 PUSH1 0x4 PUSH0 PUSH2 0x100 EXP DUP2 SLOAD DUP2 PUSH20 0xFFFFFFFFFFFFFFFFFFFFFFFFFFFFFFFFFFFFFFFF MUL NOT AND SWAP1 DUP4 PUSH20 0xFFFFFFFFFFFFFFFFFFFFFFFFFFFFFFFFFFFFFFFF AND MUL OR SWAP1 SSTORE POP DUP2 PUSH1 0x5 PUSH0 PUSH2 0x100 EXP DUP2 SLOAD DUP2 PUSH20 0xFFFFFFFFFFFFFFFFFFFFFFFFFFFFFFFFFFFFFFFF MUL NOT AND SWAP1 DUP4 PUSH20 0xFFFFFFFFFFFFFFFFFFFFFFFFFFFFFFFFFFFFFFFF AND MUL OR SWAP1 SSTORE POP DUP1 PUSH1 0x6 PUSH0 PUSH2 0x100 EXP DUP2 SLOAD DUP2 PUSH20 0xFFFFFFFFFFFFFFFFFFFFFFFFFFFFFFFFFFFFFFFF MUL NOT AND SWAP1 DUP4 PUSH20 0xFFFFFFFFFFFFFFFFFFFFFFFFFFFFFFFFFFFFFFFF AND MUL OR SWAP1 SSTORE POP PUSH1 0x2 PUSH0 SWAP1 SLOAD SWAP1 PUSH2 0x100 EXP SWAP1 DIV PUSH20 0xFFFFFFFFFFFFFFFFFFFFFFFFFFFFFFFFFFFFFFFF AND PUSH20 0xFFFFFFFFFFFFFFFFFFFFFFFFFFFFFFFFFFFFFFFF AND PUSH4 0x469895C8 CALLER ADDRESS PUSH1 0x4 PUSH1 0x2 PUSH0 SWAP1 SLOAD SWAP1 PUSH2 0x100 EXP SWAP1 DIV PUSH20 0xFFFFFFFFFFFFFFFFFFFFFFFFFFFFFFFFFFFFFFFF AND PUSH20 0xFFFFFFFFFFFFFFFFFFFFFFFFFFFFFFFFFFFFFFFF AND PUSH4 0x18160DDD PUSH1 0x40 MLOAD DUP2 PUSH4 0xFFFFFFFF AND PUSH1 0xE0 SHL DUP2 MSTORE PUSH1 0x4 ADD PUSH1 0x20 PUSH1 0x40 MLOAD DUP1 DUP4 SUB DUP2 DUP7 GAS STATICCALL ISZERO DUP1 ISZERO PUSH3 0x242 JUMPI RETURNDATASIZE PUSH0 DUP1 RETURNDATACOPY RETURNDATASIZE PUSH0 REVERT JUMPDEST POP POP POP POP PUSH1 0x40 MLOAD RETURNDATASIZE PUSH1 0x1F NOT PUSH1 0x1F DUP3 ADD AND DUP3 ADD DUP1 PUSH1 0x40 MSTORE POP DUP2 ADD SWAP1 PUSH3 0x268 SWAP2 SWAP1 PUSH3 0x6B7 JUMP JUMPDEST PUSH3 0x274 SWAP2 SWAP1 PUSH3 0x741 JUMP JUMPDEST PUSH1 0x40 MLOAD DUP5 PUSH4 0xFFFFFFFF AND PUSH1 0xE0 SHL DUP2 MSTORE PUSH1 0x4 ADD PUSH3 0x294 SWAP4 SWAP3 SWAP2 SWAP1 PUSH3 0x79A JUMP JUMPDEST PUSH1 0x20 PUSH1 0x40 MLOAD DUP1 DUP4 SUB DUP2 PUSH0 DUP8 GAS CALL ISZERO DUP1 ISZERO PUSH3 0x2B1 JUMPI RETURNDATASIZE PUSH0 DUP1 RETURNDATACOPY RETURNDATASIZE PUSH0 REVERT JUMPDEST POP POP POP POP PUSH1 0x40 MLOAD RETURNDATASIZE PUSH1 0x1F NOT PUSH1 0x1F DUP3 ADD AND DUP3 ADD DUP1 PUSH1 0x40 MSTORE POP DUP2 ADD SWAP1 PUSH3 0x2D7 SWAP2 SWAP1 PUSH3 0x80F JUMP JUMPDEST POP PUSH8 0xDE0B6B3A7640000 PUSH1 0x2 PUSH0 SWAP1 SLOAD SWAP1 PUSH2 0x100 EXP SWAP1 DIV PUSH20 0xFFFFFFFFFFFFFFFFFFFFFFFFFFFFFFFFFFFFFFFF AND PUSH20 0xFFFFFFFFFFFFFFFFFFFFFFFFFFFFFFFFFFFFFFFF AND PUSH4 0x70A08231 ADDRESS PUSH1 0x40 MLOAD DUP3 PUSH4 0xFFFFFFFF AND PUSH1 0xE0 SHL DUP2 MSTORE PUSH1 0x4 ADD PUSH3 0x33D SWAP2 SWAP1 PUSH3 0x83F JUMP JUMPDEST PUSH1 0x20 PUSH1 0x40 MLOAD DUP1 DUP4 SUB DUP2 DUP7 GAS STATICCALL ISZERO DUP1 ISZERO PUSH3 0x359 JUMPI RETURNDATASIZE PUSH0 DUP1 RETURNDATACOPY RETURNDATASIZE PUSH0 REVERT JUMPDEST POP POP POP POP PUSH1 0x40 MLOAD RETURNDATASIZE PUSH1 0x1F NOT PUSH1 0x1F DUP3 ADD AND DUP3 ADD DUP1 PUSH1 0x40 MSTORE POP DUP2 ADD SWAP1 PUSH3 0x37F SWAP2 SWAP1 PUSH3 0x6B7 JUMP JUMPDEST PUSH3 0x38B SWAP2 SWAP1 PUSH3 0x741 JUMP JUMPDEST PUSH1 0x8 PUSH0 ADD PUSH0 DUP3 DUP3 SLOAD PUSH3 0x39F SWAP2 SWAP1 PUSH3 0x85A JUMP JUMPDEST SWAP3 POP POP DUP2 SWAP1 SSTORE POP POP POP POP POP POP PUSH3 0x894 JUMP JUMPDEST PUSH0 CALLER SWAP1 POP SWAP1 JUMP JUMPDEST PUSH0 DUP1 PUSH1 0x1 SWAP1 SLOAD SWAP1 PUSH2 0x100 EXP SWAP1 DIV PUSH20 0xFFFFFFFFFFFFFFFFFFFFFFFFFFFFFFFFFFFFFFFF AND SWAP1 POP DUP2 PUSH0 PUSH1 0x1 PUSH2 0x100 EXP DUP2 SLOAD DUP2 PUSH20 0xFFFFFFFFFFFFFFFFFFFFFFFFFFFFFFFFFFFFFFFF MUL NOT AND SWAP1 DUP4 PUSH20 0xFFFFFFFFFFFFFFFFFFFFFFFFFFFFFFFFFFFFFFFF AND MUL OR SWAP1 SSTORE POP DUP2 PUSH20 0xFFFFFFFFFFFFFFFFFFFFFFFFFFFFFFFFFFFFFFFF AND DUP2 PUSH20 0xFFFFFFFFFFFFFFFFFFFFFFFFFFFFFFFFFFFFFFFF AND PUSH32 0x8BE0079C531659141344CD1FD0A4F28419497F9722A3DAAFE3B4186F6B6457E0 PUSH1 0x40 MLOAD PUSH1 0x40 MLOAD DUP1 SWAP2 SUB SWAP1 LOG3 POP POP JUMP JUMPDEST PUSH0 DUP1 REVERT JUMPDEST PUSH0 PUSH20 0xFFFFFFFFFFFFFFFFFFFFFFFFFFFFFFFFFFFFFFFF DUP3 AND SWAP1 POP SWAP2 SWAP1 POP JUMP JUMPDEST PUSH0 PUSH3 0x4AA DUP3 PUSH3 0x47F JUMP JUMPDEST SWAP1 POP SWAP2 SWAP1 POP JUMP JUMPDEST PUSH0 PUSH3 0x4BD DUP3 PUSH3 0x49E JUMP JUMPDEST SWAP1 POP SWAP2 SWAP1 POP JUMP JUMPDEST PUSH3 0x4CF DUP2 PUSH3 0x4B1 JUMP JUMPDEST DUP2 EQ PUSH3 0x4DA JUMPI PUSH0 DUP1 REVERT JUMPDEST POP JUMP JUMPDEST PUSH0 DUP2 MLOAD SWAP1 POP PUSH3 0x4ED DUP2 PUSH3 0x4C4 JUMP JUMPDEST SWAP3 SWAP2 POP POP JUMP JUMPDEST PUSH0 PUSH3 0x4FF DUP3 PUSH3 0x49E JUMP JUMPDEST SWAP1 POP SWAP2 SWAP1 POP JUMP JUMPDEST PUSH3 0x511 DUP2 PUSH3 0x4F3 JUMP JUMPDEST DUP2 EQ PUSH3 0x51C JUMPI PUSH0 DUP1 REVERT JUMPDEST POP JUMP JUMPDEST PUSH0 DUP2 MLOAD SWAP1 POP PUSH3 0x52F DUP2 PUSH3 0x506 JUMP JUMPDEST SWAP3 SWAP2 POP POP JUMP JUMPDEST PUSH0 PUSH3 0x541 DUP3 PUSH3 0x49E JUMP JUMPDEST SWAP1 POP SWAP2 SWAP1 POP JUMP JUMPDEST PUSH3 0x553 DUP2 PUSH3 0x535 JUMP JUMPDEST DUP2 EQ PUSH3 0x55E JUMPI PUSH0 DUP1 REVERT JUMPDEST POP JUMP JUMPDEST PUSH0 DUP2 MLOAD SWAP1 POP PUSH3 0x571 DUP2 PUSH3 0x548 JUMP JUMPDEST SWAP3 SWAP2 POP POP JUMP JUMPDEST PUSH0 PUSH3 0x583 DUP3 PUSH3 0x49E JUMP JUMPDEST SWAP1 POP SWAP2 SWAP1 POP JUMP JUMPDEST PUSH3 0x595 DUP2 PUSH3 0x577 JUMP JUMPDEST DUP2 EQ PUSH3 0x5A0 JUMPI PUSH0 DUP1 REVERT JUMPDEST POP JUMP JUMPDEST PUSH0 DUP2 MLOAD SWAP1 POP PUSH3 0x5B3 DUP2 PUSH3 0x58A JUMP JUMPDEST SWAP3 SWAP2 POP POP JUMP JUMPDEST PUSH0 PUSH3 0x5C5 DUP3 PUSH3 0x49E JUMP JUMPDEST SWAP1 POP SWAP2 SWAP1 POP JUMP JUMPDEST PUSH3 0x5D7 DUP2 PUSH3 0x5B9 JUMP JUMPDEST DUP2 EQ PUSH3 0x5E2 JUMPI PUSH0 DUP1 REVERT JUMPDEST POP JUMP JUMPDEST PUSH0 DUP2 MLOAD SWAP1 POP PUSH3 0x5F5 DUP2 PUSH3 0x5CC JUMP JUMPDEST SWAP3 SWAP2 POP POP JUMP JUMPDEST PUSH0 DUP1 PUSH0 DUP1 PUSH0 PUSH1 0xA0 DUP7 DUP9 SUB SLT ISZERO PUSH3 0x617 JUMPI PUSH3 0x616 PUSH3 0x47B JUMP JUMPDEST JUMPDEST PUSH0 PUSH3 0x626 DUP9 DUP3 DUP10 ADD PUSH3 0x4DD JUMP JUMPDEST SWAP6 POP POP PUSH1 0x20 PUSH3 0x639 DUP9 DUP3 DUP10 ADD PUSH3 0x51F JUMP JUMPDEST SWAP5 POP POP PUSH1 0x40 PUSH3 0x64C DUP9 DUP3 DUP10 ADD PUSH3 0x561 JUMP JUMPDEST SWAP4 POP POP PUSH1 0x60 PUSH3 0x65F DUP9 DUP3 DUP10 ADD PUSH3 0x5A3 JUMP JUMPDEST SWAP3 POP POP PUSH1 0x80 PUSH3 0x672 DUP9 DUP3 DUP10 ADD PUSH3 0x5E5 JUMP JUMPDEST SWAP2 POP POP SWAP3 SWAP6 POP SWAP3 SWAP6 SWAP1 SWAP4 POP JUMP JUMPDEST PUSH0 DUP2 SWAP1 POP SWAP2 SWAP1 POP JUMP JUMPDEST PUSH3 0x693 DUP2 PUSH3 0x67F JUMP JUMPDEST DUP2 EQ PUSH3 0x69E JUMPI PUSH0 DUP1 REVERT JUMPDEST POP JUMP JUMPDEST PUSH0 DUP2 MLOAD SWAP1 POP PUSH3 0x6B1 DUP2 PUSH3 0x688 JUMP JUMPDEST SWAP3 SWAP2 POP POP JUMP JUMPDEST PUSH0 PUSH1 0x20 DUP3 DUP5 SUB SLT ISZERO PUSH3 0x6CF JUMPI PUSH3 0x6CE PUSH3 0x47B JUMP JUMPDEST JUMPDEST PUSH0 PUSH3 0x6DE DUP5 DUP3 DUP6 ADD PUSH3 0x6A1 JUMP JUMPDEST SWAP2 POP POP SWAP3 SWAP2 POP POP JUMP JUMPDEST PUSH32 0x4E487B7100000000000000000000000000000000000000000000000000000000 PUSH0 MSTORE PUSH1 0x12 PUSH1 0x4 MSTORE PUSH1 0x24 PUSH0 REVERT JUMPDEST PUSH32 0x4E487B7100000000000000000000000000000000000000000000000000000000 PUSH0 MSTORE PUSH1 0x11 PUSH1 0x4 MSTORE PUSH1 0x24 PUSH0 REVERT JUMPDEST PUSH0 PUSH3 0x74D DUP3 PUSH3 0x67F JUMP JUMPDEST SWAP2 POP PUSH3 0x75A DUP4 PUSH3 0x67F JUMP JUMPDEST SWAP3 POP DUP3 PUSH3 0x76D JUMPI PUSH3 0x76C PUSH3 0x6E7 JUMP JUMPDEST JUMPDEST DUP3 DUP3 DIV SWAP1 POP SWAP3 SWAP2 POP POP JUMP JUMPDEST PUSH3 0x783 DUP2 PUSH3 0x49E JUMP JUMPDEST DUP3 MSTORE POP POP JUMP JUMPDEST PUSH3 0x794 DUP2 PUSH3 0x67F JUMP JUMPDEST DUP3 MSTORE POP POP JUMP JUMPDEST PUSH0 PUSH1 0x60 DUP3 ADD SWAP1 POP PUSH3 0x7AF PUSH0 DUP4 ADD DUP7 PUSH3 0x778 JUMP JUMPDEST PUSH3 0x7BE PUSH1 0x20 DUP4 ADD DUP6 PUSH3 0x778 JUMP JUMPDEST PUSH3 0x7CD PUSH1 0x40 DUP4 ADD DUP5 PUSH3 0x789 JUMP JUMPDEST SWAP5 SWAP4 POP POP POP POP JUMP JUMPDEST PUSH0 DUP2 ISZERO ISZERO SWAP1 POP SWAP2 SWAP1 POP JUMP JUMPDEST PUSH3 0x7EB DUP2 PUSH3 0x7D5 JUMP JUMPDEST DUP2 EQ PUSH3 0x7F6 JUMPI PUSH0 DUP1 REVERT JUMPDEST POP JUMP JUMPDEST PUSH0 DUP2 MLOAD SWAP1 POP PUSH3 0x809 DUP2 PUSH3 0x7E0 JUMP JUMPDEST SWAP3 SWAP2 POP POP JUMP JUMPDEST PUSH0 PUSH1 0x20 DUP3 DUP5 SUB SLT ISZERO PUSH3 0x827 JUMPI PUSH3 0x826 PUSH3 0x47B JUMP JUMPDEST JUMPDEST PUSH0 PUSH3 0x836 DUP5 DUP3 DUP6 ADD PUSH3 0x7F9 JUMP JUMPDEST SWAP2 POP POP SWAP3 SWAP2 POP POP JUMP JUMPDEST PUSH0 PUSH1 0x20 DUP3 ADD SWAP1 POP PUSH3 0x854 PUSH0 DUP4 ADD DUP5 PUSH3 0x778 JUMP JUMPDEST SWAP3 SWAP2 POP POP JUMP JUMPDEST PUSH0 PUSH3 0x866 DUP3 PUSH3 0x67F JUMP JUMPDEST SWAP2 POP PUSH3 0x873 DUP4 PUSH3 0x67F JUMP JUMPDEST SWAP3 POP DUP3 DUP3 ADD SWAP1 POP DUP1 DUP3 GT ISZERO PUSH3 0x88E JUMPI PUSH3 0x88D PUSH3 0x714 JUMP JUMPDEST JUMPDEST SWAP3 SWAP2 POP POP JUMP JUMPDEST PUSH2 0x27B4 DUP1 PUSH3 0x8A2 PUSH0 CODECOPY PUSH0 RETURN INVALID PUSH1 0x80 PUSH1 0x40 MSTORE PUSH1 0x4 CALLDATASIZE LT PUSH2 0x108 JUMPI PUSH0 CALLDATALOAD PUSH1 0xE0 SHR DUP1 PUSH4 0x83CE6147 GT PUSH2 0x94 JUMPI DUP1 PUSH4 0xF2FDE38B GT PUSH2 0x63 JUMPI DUP1 PUSH4 0xF2FDE38B EQ PUSH2 0x340 JUMPI DUP1 PUSH4 0xF366B27E EQ PUSH2 0x368 JUMPI DUP1 PUSH4 0xF968217B EQ PUSH2 0x3A4 JUMPI DUP1 PUSH4 0xFDCDBAE2 EQ PUSH2 0x3CE JUMPI DUP1 PUSH4 0xFE35FB50 EQ PUSH2 0x3F8 JUMPI PUSH2 0x108 JUMP JUMPDEST DUP1 PUSH4 0x83CE6147 EQ PUSH2 0x286 JUMPI DUP1 PUSH4 0x8866B937 EQ PUSH2 0x2C2 JUMPI DUP1 PUSH4 0x8DA5CB5B EQ PUSH2 0x2EC JUMPI DUP1 PUSH4 0x9F62E796 EQ PUSH2 0x316 JUMPI PUSH2 0x108 JUMP JUMPDEST DUP1 PUSH4 0x2B1C4158 GT PUSH2 0xDB JUMPI DUP1 PUSH4 0x2B1C4158 EQ PUSH2 0x1B6 JUMPI DUP1 PUSH4 0x510B7F98 EQ PUSH2 0x1E0 JUMPI DUP1 PUSH4 0x56289C29 EQ PUSH2 0x20A JUMPI DUP1 PUSH4 0x5AC66993 EQ PUSH2 0x246 JUMPI DUP1 PUSH4 0x715018A6 EQ PUSH2 0x270 JUMPI PUSH2 0x108 JUMP JUMPDEST DUP1 PUSH4 0x691BADF EQ PUSH2 0x10C JUMPI DUP1 PUSH4 0xE301D24 EQ PUSH2 0x137 JUMPI DUP1 PUSH4 0x1552E770 EQ PUSH2 0x162 JUMPI DUP1 PUSH4 0x2ADCBEBD EQ PUSH2 0x18C JUMPI JUMPDEST PUSH0 DUP1 REVERT JUMPDEST CALLVALUE DUP1 ISZERO PUSH2 0x117 JUMPI PUSH0 DUP1 REVERT JUMPDEST POP PUSH2 0x120 PUSH2 0x428 JUMP JUMPDEST PUSH1 0x40 MLOAD PUSH2 0x12E SWAP3 SWAP2 SWAP1 PUSH2 0x1A82 JUMP JUMPDEST PUSH1 0x40 MLOAD DUP1 SWAP2 SUB SWAP1 RETURN JUMPDEST CALLVALUE DUP1 ISZERO PUSH2 0x142 JUMPI PUSH0 DUP1 REVERT JUMPDEST POP PUSH2 0x14B PUSH2 0x439 JUMP JUMPDEST PUSH1 0x40 MLOAD PUSH2 0x159 SWAP3 SWAP2 SWAP1 PUSH2 0x1A82 JUMP JUMPDEST PUSH1 0x40 MLOAD DUP1 SWAP2 SUB SWAP1 RETURN JUMPDEST CALLVALUE DUP1 ISZERO PUSH2 0x16D JUMPI PUSH0 DUP1 REVERT JUMPDEST POP PUSH2 0x176 PUSH2 0x44A JUMP JUMPDEST PUSH1 0x40 MLOAD PUSH2 0x183 SWAP2 SWAP1 PUSH2 0x1AA9 JUMP JUMPDEST PUSH1 0x40 MLOAD DUP1 SWAP2 SUB SWAP1 RETURN JUMPDEST CALLVALUE DUP1 ISZERO PUSH2 0x197 JUMPI PUSH0 DUP1 REVERT JUMPDEST POP PUSH2 0x1A0 PUSH2 0x455 JUMP JUMPDEST PUSH1 0x40 MLOAD PUSH2 0x1AD SWAP2 SWAP1 PUSH2 0x1B3C JUMP JUMPDEST PUSH1 0x40 MLOAD DUP1 SWAP2 SUB SWAP1 RETURN JUMPDEST CALLVALUE DUP1 ISZERO PUSH2 0x1C1 JUMPI PUSH0 DUP1 REVERT JUMPDEST POP PUSH2 0x1CA PUSH2 0x47A JUMP JUMPDEST PUSH1 0x40 MLOAD PUSH2 0x1D7 SWAP2 SWAP1 PUSH2 0x1B75 JUMP JUMPDEST PUSH1 0x40 MLOAD DUP1 SWAP2 SUB SWAP1 RETURN JUMPDEST CALLVALUE DUP1 ISZERO PUSH2 0x1EB JUMPI PUSH0 DUP1 REVERT JUMPDEST POP PUSH2 0x1F4 PUSH2 0x49F JUMP JUMPDEST PUSH1 0x40 MLOAD PUSH2 0x201 SWAP2 SWAP1 PUSH2 0x1BAE JUMP JUMPDEST PUSH1 0x40 MLOAD DUP1 SWAP2 SUB SWAP1 RETURN JUMPDEST CALLVALUE DUP1 ISZERO PUSH2 0x215 JUMPI PUSH0 DUP1 REVERT JUMPDEST POP PUSH2 0x230 PUSH1 0x4 DUP1 CALLDATASIZE SUB DUP2 ADD SWAP1 PUSH2 0x22B SWAP2 SWAP1 PUSH2 0x1BF5 JUMP JUMPDEST PUSH2 0x4C4 JUMP JUMPDEST PUSH1 0x40 MLOAD PUSH2 0x23D SWAP2 SWAP1 PUSH2 0x1C3A JUMP JUMPDEST PUSH1 0x40 MLOAD DUP1 SWAP2 SUB SWAP1 RETURN JUMPDEST CALLVALUE DUP1 ISZERO PUSH2 0x251 JUMPI PUSH0 DUP1 REVERT JUMPDEST POP PUSH2 0x25A PUSH2 0x6E9 JUMP JUMPDEST PUSH1 0x40 MLOAD PUSH2 0x267 SWAP2 SWAP1 PUSH2 0x1D37 JUMP JUMPDEST PUSH1 0x40 MLOAD DUP1 SWAP2 SUB SWAP1 RETURN JUMPDEST CALLVALUE DUP1 ISZERO PUSH2 0x27B JUMPI PUSH0 DUP1 REVERT JUMPDEST POP PUSH2 0x284 PUSH2 0x795 JUMP JUMPDEST STOP JUMPDEST CALLVALUE DUP1 ISZERO PUSH2 0x291 JUMPI PUSH0 DUP1 REVERT JUMPDEST POP PUSH2 0x2AC PUSH1 0x4 DUP1 CALLDATASIZE SUB DUP2 ADD SWAP1 PUSH2 0x2A7 SWAP2 SWAP1 PUSH2 0x1D57 JUMP JUMPDEST PUSH2 0x7A8 JUMP JUMPDEST PUSH1 0x40 MLOAD PUSH2 0x2B9 SWAP2 SWAP1 PUSH2 0x1C3A JUMP JUMPDEST PUSH1 0x40 MLOAD DUP1 SWAP2 SUB SWAP1 RETURN JUMPDEST CALLVALUE DUP1 ISZERO PUSH2 0x2CD JUMPI PUSH0 DUP1 REVERT JUMPDEST POP PUSH2 0x2D6 PUSH2 0x8D3 JUMP JUMPDEST PUSH1 0x40 MLOAD PUSH2 0x2E3 SWAP2 SWAP1 PUSH2 0x1AA9 JUMP JUMPDEST PUSH1 0x40 MLOAD DUP1 SWAP2 SUB SWAP1 RETURN JUMPDEST CALLVALUE DUP1 ISZERO PUSH2 0x2F7 JUMPI PUSH0 DUP1 REVERT JUMPDEST POP PUSH2 0x300 PUSH2 0x8E3 JUMP JUMPDEST PUSH1 0x40 MLOAD PUSH2 0x30D SWAP2 SWAP1 PUSH2 0x1DB5 JUMP JUMPDEST PUSH1 0x40 MLOAD DUP1 SWAP2 SUB SWAP1 RETURN JUMPDEST CALLVALUE DUP1 ISZERO PUSH2 0x321 JUMPI PUSH0 DUP1 REVERT JUMPDEST POP PUSH2 0x32A PUSH2 0x90B JUMP JUMPDEST PUSH1 0x40 MLOAD PUSH2 0x337 SWAP2 SWAP1 PUSH2 0x1AA9 JUMP JUMPDEST PUSH1 0x40 MLOAD DUP1 SWAP2 SUB SWAP1 RETURN JUMPDEST CALLVALUE DUP1 ISZERO PUSH2 0x34B JUMPI PUSH0 DUP1 REVERT JUMPDEST POP PUSH2 0x366 PUSH1 0x4 DUP1 CALLDATASIZE SUB DUP2 ADD SWAP1 PUSH2 0x361 SWAP2 SWAP1 PUSH2 0x1DF8 JUMP JUMPDEST PUSH2 0x9AA JUMP JUMPDEST STOP JUMPDEST CALLVALUE DUP1 ISZERO PUSH2 0x373 JUMPI PUSH0 DUP1 REVERT JUMPDEST POP PUSH2 0x38E PUSH1 0x4 DUP1 CALLDATASIZE SUB DUP2 ADD SWAP1 PUSH2 0x389 SWAP2 SWAP1 PUSH2 0x1BF5 JUMP JUMPDEST PUSH2 0xA2C JUMP JUMPDEST PUSH1 0x40 MLOAD PUSH2 0x39B SWAP2 SWAP1 PUSH2 0x1C3A JUMP JUMPDEST PUSH1 0x40 MLOAD DUP1 SWAP2 SUB SWAP1 RETURN JUMPDEST CALLVALUE DUP1 ISZERO PUSH2 0x3AF JUMPI PUSH0 DUP1 REVERT JUMPDEST POP PUSH2 0x3B8 PUSH2 0xBC7 JUMP JUMPDEST PUSH1 0x40 MLOAD PUSH2 0x3C5 SWAP2 SWAP1 PUSH2 0x1E43 JUMP JUMPDEST PUSH1 0x40 MLOAD DUP1 SWAP2 SUB SWAP1 RETURN JUMPDEST CALLVALUE DUP1 ISZERO PUSH2 0x3D9 JUMPI PUSH0 DUP1 REVERT JUMPDEST POP PUSH2 0x3E2 PUSH2 0xBEC JUMP JUMPDEST PUSH1 0x40 MLOAD PUSH2 0x3EF SWAP2 SWAP1 PUSH2 0x1E7C JUMP JUMPDEST PUSH1 0x40 MLOAD DUP1 SWAP2 SUB SWAP1 RETURN JUMPDEST PUSH2 0x412 PUSH1 0x4 DUP1 CALLDATASIZE SUB DUP2 ADD SWAP1 PUSH2 0x40D SWAP2 SWAP1 PUSH2 0x1EBF JUMP JUMPDEST PUSH2 0xC11 JUMP JUMPDEST PUSH1 0x40 MLOAD PUSH2 0x41F SWAP2 SWAP1 PUSH2 0x1C3A JUMP JUMPDEST PUSH1 0x40 MLOAD DUP1 SWAP2 SUB SWAP1 RETURN JUMPDEST PUSH1 0xA DUP1 PUSH0 ADD SLOAD SWAP1 DUP1 PUSH1 0x1 ADD SLOAD SWAP1 POP DUP3 JUMP JUMPDEST PUSH1 0x8 DUP1 PUSH0 ADD SLOAD SWAP1 DUP1 PUSH1 0x1 ADD SLOAD SWAP1 POP DUP3 JUMP JUMPDEST PUSH0 PUSH1 0x8 PUSH0 ADD SLOAD SWAP1 POP SWAP1 JUMP JUMPDEST PUSH1 0x6 PUSH0 SWAP1 SLOAD SWAP1 PUSH2 0x100 EXP SWAP1 DIV PUSH20 0xFFFFFFFFFFFFFFFFFFFFFFFFFFFFFFFFFFFFFFFF AND DUP2 JUMP JUMPDEST PUSH1 0x2 PUSH0 SWAP1 SLOAD SWAP1 PUSH2 0x100 EXP SWAP1 DIV PUSH20 0xFFFFFFFFFFFFFFFFFFFFFFFFFFFFFFFFFFFFFFFF AND DUP2 JUMP JUMPDEST PUSH1 0x3 PUSH0 SWAP1 SLOAD SWAP1 PUSH2 0x100 EXP SWAP1 DIV PUSH20 0xFFFFFFFFFFFFFFFFFFFFFFFFFFFFFFFFFFFFFFFF AND DUP2 JUMP JUMPDEST PUSH0 DUP1 PUSH0 SWAP1 SLOAD SWAP1 PUSH2 0x100 EXP SWAP1 DIV PUSH1 0xFF AND ISZERO PUSH2 0x513 JUMPI PUSH1 0x40 MLOAD PUSH32 0x8C379A000000000000000000000000000000000000000000000000000000000 DUP2 MSTORE PUSH1 0x4 ADD PUSH2 0x50A SWAP1 PUSH2 0x1F57 JUMP JUMPDEST PUSH1 0x40 MLOAD DUP1 SWAP2 SUB SWAP1 REVERT JUMPDEST PUSH1 0x1 PUSH0 DUP1 PUSH2 0x100 EXP DUP2 SLOAD DUP2 PUSH1 0xFF MUL NOT AND SWAP1 DUP4 ISZERO ISZERO MUL OR SWAP1 SSTORE POP PUSH2 0x579 CALLER PUSH2 0x574 PUSH1 0x64 PUSH2 0x566 PUSH1 0xA PUSH1 0xFF AND PUSH2 0x558 PUSH8 0xDE0B6B3A7640000 DUP10 PUSH2 0xCEE SWAP1 SWAP2 SWAP1 PUSH4 0xFFFFFFFF AND JUMP JUMPDEST PUSH2 0xCEE SWAP1 SWAP2 SWAP1 PUSH4 0xFFFFFFFF AND JUMP JUMPDEST PUSH2 0xD03 SWAP1 SWAP2 SWAP1 PUSH4 0xFFFFFFFF AND JUMP JUMPDEST PUSH2 0xD18 JUMP JUMPDEST PUSH2 0x5B8 JUMPI PUSH1 0x40 MLOAD PUSH32 0x8C379A000000000000000000000000000000000000000000000000000000000 DUP2 MSTORE PUSH1 0x4 ADD PUSH2 0x5AF SWAP1 PUSH2 0x1FE5 JUMP JUMPDEST PUSH1 0x40 MLOAD DUP1 SWAP2 SUB SWAP1 REVERT JUMPDEST PUSH1 0x6 PUSH0 SWAP1 SLOAD SWAP1 PUSH2 0x100 EXP SWAP1 DIV PUSH20 0xFFFFFFFFFFFFFFFFFFFFFFFFFFFFFFFFFFFFFFFF AND PUSH20 0xFFFFFFFFFFFFFFFFFFFFFFFFFFFFFFFFFFFFFFFF AND PUSH4 0xADC9772E CALLER PUSH2 0x62C PUSH1 0x64 PUSH2 0x61E PUSH1 0xA PUSH1 0x64 PUSH2 0x60C SWAP2 SWAP1 PUSH2 0x203C JUMP JUMPDEST PUSH1 0xFF AND DUP9 PUSH2 0xCEE SWAP1 SWAP2 SWAP1 PUSH4 0xFFFFFFFF AND JUMP JUMPDEST PUSH2 0xD03 SWAP1 SWAP2 SWAP1 PUSH4 0xFFFFFFFF AND JUMP JUMPDEST PUSH1 0x40 MLOAD DUP4 PUSH4 0xFFFFFFFF AND PUSH1 0xE0 SHL DUP2 MSTORE PUSH1 0x4 ADD PUSH2 0x649 SWAP3 SWAP2 SWAP1 PUSH2 0x2070 JUMP JUMPDEST PUSH1 0x20 PUSH1 0x40 MLOAD DUP1 DUP4 SUB DUP2 PUSH0 DUP8 GAS CALL ISZERO DUP1 ISZERO PUSH2 0x665 JUMPI RETURNDATASIZE PUSH0 DUP1 RETURNDATACOPY RETURNDATASIZE PUSH0 REVERT JUMPDEST POP POP POP POP PUSH1 0x40 MLOAD RETURNDATASIZE PUSH1 0x1F NOT PUSH1 0x1F DUP3 ADD AND DUP3 ADD DUP1 PUSH1 0x40 MSTORE POP DUP2 ADD SWAP1 PUSH2 0x689 SWAP2 SWAP1 PUSH2 0x20AB JUMP JUMPDEST PUSH2 0x6C8 JUMPI PUSH1 0x40 MLOAD PUSH32 0x8C379A000000000000000000000000000000000000000000000000000000000 DUP2 MSTORE PUSH1 0x4 ADD PUSH2 0x6BF SWAP1 PUSH2 0x2120 JUMP JUMPDEST PUSH1 0x40 MLOAD DUP1 SWAP2 SUB SWAP1 REVERT JUMPDEST PUSH1 0x1 SWAP1 POP PUSH0 DUP1 PUSH0 PUSH2 0x100 EXP DUP2 SLOAD DUP2 PUSH1 0xFF MUL NOT AND SWAP1 DUP4 ISZERO ISZERO MUL OR SWAP1 SSTORE POP SWAP2 SWAP1 POP JUMP JUMPDEST PUSH1 0x60 PUSH1 0x7 PUSH0 CALLER PUSH20 0xFFFFFFFFFFFFFFFFFFFFFFFFFFFFFFFFFFFFFFFF AND PUSH20 0xFFFFFFFFFFFFFFFFFFFFFFFFFFFFFFFFFFFFFFFF AND DUP2 MSTORE PUSH1 0x20 ADD SWAP1 DUP2 MSTORE PUSH1 0x20 ADD PUSH0 KECCAK256 PUSH0 ADD DUP1 SLOAD DUP1 PUSH1 0x20 MUL PUSH1 0x20 ADD PUSH1 0x40 MLOAD SWAP1 DUP2 ADD PUSH1 0x40 MSTORE DUP1 SWAP3 SWAP2 SWAP1 DUP2 DUP2 MSTORE PUSH1 0x20 ADD PUSH0 SWAP1 JUMPDEST DUP3 DUP3 LT ISZERO PUSH2 0x78C JUMPI DUP4 DUP3 SWAP1 PUSH0 MSTORE PUSH1 0x20 PUSH0 KECCAK256 SWAP1 PUSH1 0x2 MUL ADD PUSH1 0x40 MLOAD DUP1 PUSH1 0x40 ADD PUSH1 0x40 MSTORE SWAP1 DUP2 PUSH0 DUP3 ADD SLOAD DUP2 MSTORE PUSH1 0x20 ADD PUSH1 0x1 DUP3 ADD SLOAD DUP2 MSTORE POP POP DUP2 MSTORE PUSH1 0x20 ADD SWAP1 PUSH1 0x1 ADD SWAP1 PUSH2 0x749 JUMP JUMPDEST POP POP POP POP SWAP1 POP SWAP1 JUMP JUMPDEST PUSH2 0x79D PUSH2 0xE49 JUMP JUMPDEST PUSH2 0x7A6 PUSH0 PUSH2 0xEC7 JUMP JUMPDEST JUMP JUMPDEST PUSH0 PUSH1 0x3 PUSH0 SWAP1 SLOAD SWAP1 PUSH2 0x100 EXP SWAP1 DIV PUSH20 0xFFFFFFFFFFFFFFFFFFFFFFFFFFFFFFFFFFFFFFFF AND PUSH20 0xFFFFFFFFFFFFFFFFFFFFFFFFFFFFFFFFFFFFFFFF AND PUSH4 0xB2C3A717 DUP5 ADDRESS DUP6 PUSH1 0x40 MLOAD DUP5 PUSH4 0xFFFFFFFF AND PUSH1 0xE0 SHL DUP2 MSTORE PUSH1 0x4 ADD PUSH2 0x807 SWAP4 SWAP3 SWAP2 SWAP1 PUSH2 0x213E JUMP JUMPDEST PUSH1 0x20 PUSH1 0x40 MLOAD DUP1 DUP4 SUB DUP2 PUSH0 DUP8 GAS CALL ISZERO DUP1 ISZERO PUSH2 0x823 JUMPI RETURNDATASIZE PUSH0 DUP1 RETURNDATACOPY RETURNDATASIZE PUSH0 REVERT JUMPDEST POP POP POP POP PUSH1 0x40 MLOAD RETURNDATASIZE PUSH1 0x1F NOT PUSH1 0x1F DUP3 ADD AND DUP3 ADD DUP1 PUSH1 0x40 MSTORE POP DUP2 ADD SWAP1 PUSH2 0x847 SWAP2 SWAP1 PUSH2 0x20AB JUMP JUMPDEST PUSH1 0x40 MLOAD DUP1 PUSH1 0x40 ADD PUSH1 0x40 MSTORE DUP1 PUSH1 0x1A DUP2 MSTORE PUSH1 0x20 ADD PUSH32 0x5761726E696E6720466F72204C6F636B75702053686F7274656E000000000000 DUP2 MSTORE POP SWAP1 PUSH2 0x8BE JUMPI PUSH1 0x40 MLOAD PUSH32 0x8C379A000000000000000000000000000000000000000000000000000000000 DUP2 MSTORE PUSH1 0x4 ADD PUSH2 0x8B5 SWAP2 SWAP1 PUSH2 0x21ED JUMP JUMPDEST PUSH1 0x40 MLOAD DUP1 SWAP2 SUB SWAP1 REVERT JUMPDEST POP PUSH2 0x8C8 DUP4 PUSH2 0xF8A JUMP JUMPDEST POP PUSH1 0x1 SWAP1 POP SWAP3 SWAP2 POP POP JUMP JUMPDEST PUSH0 PUSH2 0x8DE PUSH1 0x1 PUSH2 0xFB8 JUMP JUMPDEST SWAP1 POP SWAP1 JUMP JUMPDEST PUSH0 DUP1 PUSH1 0x1 SWAP1 SLOAD SWAP1 PUSH2 0x100 EXP SWAP1 DIV PUSH20 0xFFFFFFFFFFFFFFFFFFFFFFFFFFFFFFFFFFFFFFFF AND SWAP1 POP SWAP1 JUMP JUMPDEST PUSH0 PUSH1 0x3 PUSH0 SWAP1 SLOAD SWAP1 PUSH2 0x100 EXP SWAP1 DIV PUSH20 0xFFFFFFFFFFFFFFFFFFFFFFFFFFFFFFFFFFFFFFFF AND PUSH20 0xFFFFFFFFFFFFFFFFFFFFFFFFFFFFFFFFFFFFFFFF AND PUSH4 0x70A08231 CALLER PUSH1 0x40 MLOAD DUP3 PUSH4 0xFFFFFFFF AND PUSH1 0xE0 SHL DUP2 MSTORE PUSH1 0x4 ADD PUSH2 0x966 SWAP2 SWAP1 PUSH2 0x1DB5 JUMP JUMPDEST PUSH1 0x20 PUSH1 0x40 MLOAD DUP1 DUP4 SUB DUP2 DUP7 GAS STATICCALL ISZERO DUP1 ISZERO PUSH2 0x981 JUMPI RETURNDATASIZE PUSH0 DUP1 RETURNDATACOPY RETURNDATASIZE PUSH0 REVERT JUMPDEST POP POP POP POP PUSH1 0x40 MLOAD RETURNDATASIZE PUSH1 0x1F NOT PUSH1 0x1F DUP3 ADD AND DUP3 ADD DUP1 PUSH1 0x40 MSTORE POP DUP2 ADD SWAP1 PUSH2 0x9A5 SWAP2 SWAP1 PUSH2 0x2221 JUMP JUMPDEST SWAP1 POP SWAP1 JUMP JUMPDEST PUSH2 0x9B2 PUSH2 0xE49 JUMP JUMPDEST PUSH0 PUSH20 0xFFFFFFFFFFFFFFFFFFFFFFFFFFFFFFFFFFFFFFFF AND DUP2 PUSH20 0xFFFFFFFFFFFFFFFFFFFFFFFFFFFFFFFFFFFFFFFF AND SUB PUSH2 0xA20 JUMPI PUSH1 0x40 MLOAD PUSH32 0x8C379A000000000000000000000000000000000000000000000000000000000 DUP2 MSTORE PUSH1 0x4 ADD PUSH2 0xA17 SWAP1 PUSH2 0x22BC JUMP JUMPDEST PUSH1 0x40 MLOAD DUP1 SWAP2 SUB SWAP1 REVERT JUMPDEST PUSH2 0xA29 DUP2 PUSH2 0xEC7 JUMP JUMPDEST POP JUMP JUMPDEST PUSH0 PUSH1 0x3 PUSH0 SWAP1 SLOAD SWAP1 PUSH2 0x100 EXP SWAP1 DIV PUSH20 0xFFFFFFFFFFFFFFFFFFFFFFFFFFFFFFFFFFFFFFFF AND PUSH20 0xFFFFFFFFFFFFFFFFFFFFFFFFFFFFFFFFFFFFFFFF AND PUSH4 0x2890E0D7 DUP4 PUSH1 0x40 MLOAD DUP3 PUSH4 0xFFFFFFFF AND PUSH1 0xE0 SHL DUP2 MSTORE PUSH1 0x4 ADD PUSH2 0xA87 SWAP2 SWAP1 PUSH2 0x1AA9 JUMP JUMPDEST PUSH1 0x20 PUSH1 0x40 MLOAD DUP1 DUP4 SUB DUP2 PUSH0 DUP8 GAS CALL ISZERO DUP1 ISZERO PUSH2 0xAA3 JUMPI RETURNDATASIZE PUSH0 DUP1 RETURNDATACOPY RETURNDATASIZE PUSH0 REVERT JUMPDEST POP POP POP POP PUSH1 0x40 MLOAD RETURNDATASIZE PUSH1 0x1F NOT PUSH1 0x1F DUP3 ADD AND DUP3 ADD DUP1 PUSH1 0x40 MSTORE POP DUP2 ADD SWAP1 PUSH2 0xAC7 SWAP2 SWAP1 PUSH2 0x20AB JUMP JUMPDEST POP PUSH2 0xAF6 CALLER PUSH8 0xDE0B6B3A7640000 PUSH1 0xC PUSH0 DUP7 DUP2 MSTORE PUSH1 0x20 ADD SWAP1 DUP2 MSTORE PUSH1 0x20 ADD PUSH0 KECCAK256 SLOAD PUSH2 0xAF1 SWAP2 SWAP1 PUSH2 0x2307 JUMP JUMPDEST PUSH2 0xFC4 JUMP JUMPDEST PUSH1 0x40 MLOAD DUP1 PUSH1 0x40 ADD PUSH1 0x40 MSTORE DUP1 PUSH1 0x14 DUP2 MSTORE PUSH1 0x20 ADD PUSH32 0x5761726E696E6720466F72205472616E73666572000000000000000000000000 DUP2 MSTORE POP SWAP1 PUSH2 0xB6D JUMPI PUSH1 0x40 MLOAD PUSH32 0x8C379A000000000000000000000000000000000000000000000000000000000 DUP2 MSTORE PUSH1 0x4 ADD PUSH2 0xB64 SWAP2 SWAP1 PUSH2 0x21ED JUMP JUMPDEST PUSH1 0x40 MLOAD DUP1 SWAP2 SUB SWAP1 REVERT JUMPDEST POP PUSH2 0xBB6 PUSH8 0xDE0B6B3A7640000 PUSH1 0x64 PUSH1 0xA PUSH1 0xFF AND PUSH1 0xC PUSH0 DUP8 DUP2 MSTORE PUSH1 0x20 ADD SWAP1 DUP2 MSTORE PUSH1 0x20 ADD PUSH0 KECCAK256 SLOAD PUSH2 0xB9D SWAP2 SWAP1 PUSH2 0x2337 JUMP JUMPDEST PUSH2 0xBA7 SWAP2 SWAP1 PUSH2 0x2307 JUMP JUMPDEST PUSH2 0xBB1 SWAP2 SWAP1 PUSH2 0x2337 JUMP JUMPDEST PUSH2 0x1123 JUMP JUMPDEST PUSH2 0xBBE JUMPI PUSH0 DUP1 REVERT JUMPDEST PUSH1 0x1 SWAP1 POP SWAP2 SWAP1 POP JUMP JUMPDEST PUSH1 0x5 PUSH0 SWAP1 SLOAD SWAP1 PUSH2 0x100 EXP SWAP1 DIV PUSH20 0xFFFFFFFFFFFFFFFFFFFFFFFFFFFFFFFFFFFFFFFF AND DUP2 JUMP JUMPDEST PUSH1 0x4 PUSH0 SWAP1 SLOAD SWAP1 PUSH2 0x100 EXP SWAP1 DIV PUSH20 0xFFFFFFFFFFFFFFFFFFFFFFFFFFFFFFFFFFFFFFFF AND DUP2 JUMP JUMPDEST PUSH0 PUSH2 0xC1C DUP4 DUP4 PUSH2 0x1249 JUMP JUMPDEST POP PUSH0 PUSH2 0xC27 DUP5 PUSH2 0x12F9 JUMP JUMPDEST PUSH1 0x40 MLOAD PUSH1 0x20 ADD PUSH2 0xC37 SWAP2 SWAP1 PUSH2 0x2446 JUMP JUMPDEST PUSH1 0x40 MLOAD PUSH1 0x20 DUP2 DUP4 SUB SUB DUP2 MSTORE SWAP1 PUSH1 0x40 MSTORE SWAP1 POP PUSH1 0x3 PUSH0 SWAP1 SLOAD SWAP1 PUSH2 0x100 EXP SWAP1 DIV PUSH20 0xFFFFFFFFFFFFFFFFFFFFFFFFFFFFFFFFFFFFFFFF AND PUSH20 0xFFFFFFFFFFFFFFFFFFFFFFFFFFFFFFFFFFFFFFFF AND PUSH4 0x890D80C DUP3 PUSH1 0x40 MLOAD DUP3 PUSH4 0xFFFFFFFF AND PUSH1 0xE0 SHL DUP2 MSTORE PUSH1 0x4 ADD PUSH2 0xCA2 SWAP2 SWAP1 PUSH2 0x2552 JUMP JUMPDEST PUSH1 0x20 PUSH1 0x40 MLOAD DUP1 DUP4 SUB DUP2 PUSH0 DUP8 GAS CALL ISZERO DUP1 ISZERO PUSH2 0xCBE JUMPI RETURNDATASIZE PUSH0 DUP1 RETURNDATACOPY RETURNDATASIZE PUSH0 REVERT JUMPDEST POP POP POP POP PUSH1 0x40 MLOAD RETURNDATASIZE PUSH1 0x1F NOT PUSH1 0x1F DUP3 ADD AND DUP3 ADD DUP1 PUSH1 0x40 MSTORE POP DUP2 ADD SWAP1 PUSH2 0xCE2 SWAP2 SWAP1 PUSH2 0x20AB JUMP JUMPDEST POP PUSH1 0x1 SWAP2 POP POP SWAP3 SWAP2 POP POP JUMP JUMPDEST PUSH0 DUP2 DUP4 PUSH2 0xCFB SWAP2 SWAP1 PUSH2 0x2337 JUMP JUMPDEST SWAP1 POP SWAP3 SWAP2 POP POP JUMP JUMPDEST PUSH0 DUP2 DUP4 PUSH2 0xD10 SWAP2 SWAP1 PUSH2 0x2307 JUMP JUMPDEST SWAP1 POP SWAP3 SWAP2 POP POP JUMP JUMPDEST PUSH0 PUSH1 0x4 PUSH0 SWAP1 SLOAD SWAP1 PUSH2 0x100 EXP SWAP1 DIV PUSH20 0xFFFFFFFFFFFFFFFFFFFFFFFFFFFFFFFFFFFFFFFF AND PUSH20 0xFFFFFFFFFFFFFFFFFFFFFFFFFFFFFFFFFFFFFFFF AND PUSH4 0x44570B3F DUP5 DUP5 PUSH1 0x40 MLOAD DUP4 PUSH4 0xFFFFFFFF AND PUSH1 0xE0 SHL DUP2 MSTORE PUSH1 0x4 ADD PUSH2 0xD75 SWAP3 SWAP2 SWAP1 PUSH2 0x2070 JUMP JUMPDEST PUSH1 0x20 PUSH1 0x40 MLOAD DUP1 DUP4 SUB DUP2 PUSH0 DUP8 GAS CALL ISZERO DUP1 ISZERO PUSH2 0xD91 JUMPI RETURNDATASIZE PUSH0 DUP1 RETURNDATACOPY RETURNDATASIZE PUSH0 REVERT JUMPDEST POP POP POP POP PUSH1 0x40 MLOAD RETURNDATASIZE PUSH1 0x1F NOT PUSH1 0x1F DUP3 ADD AND DUP3 ADD DUP1 PUSH1 0x40 MSTORE POP DUP2 ADD SWAP1 PUSH2 0xDB5 SWAP2 SWAP1 PUSH2 0x20AB JUMP JUMPDEST POP PUSH1 0x5 PUSH0 SWAP1 SLOAD SWAP1 PUSH2 0x100 EXP SWAP1 DIV PUSH20 0xFFFFFFFFFFFFFFFFFFFFFFFFFFFFFFFFFFFFFFFF AND PUSH20 0xFFFFFFFFFFFFFFFFFFFFFFFFFFFFFFFFFFFFFFFF AND PUSH4 0xCDB51CDF DUP4 DUP6 PUSH1 0x40 MLOAD DUP4 PUSH4 0xFFFFFFFF AND PUSH1 0xE0 SHL DUP2 MSTORE PUSH1 0x4 ADD PUSH2 0xE12 SWAP3 SWAP2 SWAP1 PUSH2 0x2598 JUMP JUMPDEST PUSH0 PUSH1 0x40 MLOAD DUP1 DUP4 SUB DUP2 PUSH0 DUP8 DUP1 EXTCODESIZE ISZERO DUP1 ISZERO PUSH2 0xE29 JUMPI PUSH0 DUP1 REVERT JUMPDEST POP GAS CALL ISZERO DUP1 ISZERO PUSH2 0xE3B JUMPI RETURNDATASIZE PUSH0 DUP1 RETURNDATACOPY RETURNDATASIZE PUSH0 REVERT JUMPDEST POP POP POP POP PUSH1 0x1 SWAP1 POP SWAP3 SWAP2 POP POP JUMP JUMPDEST PUSH2 0xE51 PUSH2 0x13C3 JUMP JUMPDEST PUSH20 0xFFFFFFFFFFFFFFFFFFFFFFFFFFFFFFFFFFFFFFFF AND PUSH2 0xE6F PUSH2 0x8E3 JUMP JUMPDEST PUSH20 0xFFFFFFFFFFFFFFFFFFFFFFFFFFFFFFFFFFFFFFFF AND EQ PUSH2 0xEC5 JUMPI PUSH1 0x40 MLOAD PUSH32 0x8C379A000000000000000000000000000000000000000000000000000000000 DUP2 MSTORE PUSH1 0x4 ADD PUSH2 0xEBC SWAP1 PUSH2 0x2609 JUMP JUMPDEST PUSH1 0x40 MLOAD DUP1 SWAP2 SUB SWAP1 REVERT JUMPDEST JUMP JUMPDEST PUSH0 DUP1 PUSH1 0x1 SWAP1 SLOAD SWAP1 PUSH2 0x100 EXP SWAP1 DIV PUSH20 0xFFFFFFFFFFFFFFFFFFFFFFFFFFFFFFFFFFFFFFFF AND SWAP1 POP DUP2 PUSH0 PUSH1 0x1 PUSH2 0x100 EXP DUP2 SLOAD DUP2 PUSH20 0xFFFFFFFFFFFFFFFFFFFFFFFFFFFFFFFFFFFFFFFF MUL NOT AND SWAP1 DUP4 PUSH20 0xFFFFFFFFFFFFFFFFFFFFFFFFFFFFFFFFFFFFFFFF AND MUL OR SWAP1 SSTORE POP DUP2 PUSH20 0xFFFFFFFFFFFFFFFFFFFFFFFFFFFFFFFFFFFFFFFF AND DUP2 PUSH20 0xFFFFFFFFFFFFFFFFFFFFFFFFFFFFFFFFFFFFFFFF AND PUSH32 0x8BE0079C531659141344CD1FD0A4F28419497F9722A3DAAFE3B4186F6B6457E0 PUSH1 0x40 MLOAD PUSH1 0x40 MLOAD DUP1 SWAP2 SUB SWAP1 LOG3 POP POP JUMP JUMPDEST PUSH0 DUP2 PUSH1 0x8 PUSH0 ADD PUSH0 DUP3 DUP3 SLOAD PUSH2 0xF9E SWAP2 SWAP1 PUSH2 0x2627 JUMP JUMPDEST SWAP3 POP POP DUP2 SWAP1 SSTORE POP TIMESTAMP PUSH1 0x8 PUSH1 0x1 ADD DUP2 SWAP1 SSTORE POP PUSH1 0x1 SWAP1 POP SWAP2 SWAP1 POP JUMP JUMPDEST PUSH0 DUP2 PUSH0 ADD SLOAD SWAP1 POP SWAP2 SWAP1 POP JUMP JUMPDEST PUSH0 PUSH1 0x2 PUSH0 SWAP1 SLOAD SWAP1 PUSH2 0x100 EXP SWAP1 DIV PUSH20 0xFFFFFFFFFFFFFFFFFFFFFFFFFFFFFFFFFFFFFFFF AND PUSH20 0xFFFFFFFFFFFFFFFFFFFFFFFFFFFFFFFFFFFFFFFF AND PUSH4 0x469895C8 ADDRESS DUP6 PUSH2 0x101F PUSH8 0xDE0B6B3A7640000 DUP8 PUSH2 0xCEE SWAP1 SWAP2 SWAP1 PUSH4 0xFFFFFFFF AND JUMP JUMPDEST PUSH1 0x40 MLOAD DUP5 PUSH4 0xFFFFFFFF AND PUSH1 0xE0 SHL DUP2 MSTORE PUSH1 0x4 ADD PUSH2 0x103D SWAP4 SWAP3 SWAP2 SWAP1 PUSH2 0x265A JUMP JUMPDEST PUSH1 0x20 PUSH1 0x40 MLOAD DUP1 DUP4 SUB DUP2 PUSH0 DUP8 GAS CALL ISZERO DUP1 ISZERO PUSH2 0x1059 JUMPI RETURNDATASIZE PUSH0 DUP1 RETURNDATACOPY RETURNDATASIZE PUSH0 REVERT JUMPDEST POP POP POP POP PUSH1 0x40 MLOAD RETURNDATASIZE PUSH1 0x1F NOT PUSH1 0x1F DUP3 ADD AND DUP3 ADD DUP1 PUSH1 0x40 MSTORE POP DUP2 ADD SWAP1 PUSH2 0x107D SWAP2 SWAP1 PUSH2 0x20AB JUMP JUMPDEST PUSH1 0x40 MLOAD DUP1 PUSH1 0x40 ADD PUSH1 0x40 MSTORE DUP1 PUSH1 0x14 DUP2 MSTORE PUSH1 0x20 ADD PUSH32 0x5761726E696E6720466F72205472616E73666572000000000000000000000000 DUP2 MSTORE POP SWAP1 PUSH2 0x10F4 JUMPI PUSH1 0x40 MLOAD PUSH32 0x8C379A000000000000000000000000000000000000000000000000000000000 DUP2 MSTORE PUSH1 0x4 ADD PUSH2 0x10EB SWAP2 SWAP1 PUSH2 0x21ED JUMP JUMPDEST PUSH1 0x40 MLOAD DUP1 SWAP2 SUB SWAP1 REVERT JUMPDEST POP DUP2 PUSH1 0x8 PUSH0 ADD PUSH0 DUP3 DUP3 SLOAD PUSH2 0x1108 SWAP2 SWAP1 PUSH2 0x268F JUMP JUMPDEST SWAP3 POP POP DUP2 SWAP1 SSTORE POP TIMESTAMP PUSH1 0x8 PUSH1 0x1 ADD DUP2 SWAP1 SSTORE POP PUSH1 0x1 SWAP1 POP SWAP3 SWAP2 POP POP JUMP JUMPDEST PUSH0 DUP1 PUSH0 SWAP1 SLOAD SWAP1 PUSH2 0x100 EXP SWAP1 DIV PUSH1 0xFF AND ISZERO PUSH2 0x1172 JUMPI PUSH1 0x40 MLOAD PUSH32 0x8C379A000000000000000000000000000000000000000000000000000000000 DUP2 MSTORE PUSH1 0x4 ADD PUSH2 0x1169 SWAP1 PUSH2 0x1F57 JUMP JUMPDEST PUSH1 0x40 MLOAD DUP1 SWAP2 SUB SWAP1 REVERT JUMPDEST PUSH1 0x1 PUSH0 DUP1 PUSH2 0x100 EXP DUP2 SLOAD DUP2 PUSH1 0xFF MUL NOT AND SWAP1 DUP4 ISZERO ISZERO MUL OR SWAP1 SSTORE POP PUSH1 0x4 PUSH0 SWAP1 SLOAD SWAP1 PUSH2 0x100 EXP SWAP1 DIV PUSH20 0xFFFFFFFFFFFFFFFFFFFFFFFFFFFFFFFFFFFFFFFF AND PUSH20 0xFFFFFFFFFFFFFFFFFFFFFFFFFFFFFFFFFFFFFFFF AND PUSH4 0x44570B3F CALLER DUP5 PUSH1 0x40 MLOAD DUP4 PUSH4 0xFFFFFFFF AND PUSH1 0xE0 SHL DUP2 MSTORE PUSH1 0x4 ADD PUSH2 0x11E7 SWAP3 SWAP2 SWAP1 PUSH2 0x2070 JUMP JUMPDEST PUSH1 0x20 PUSH1 0x40 MLOAD DUP1 DUP4 SUB DUP2 PUSH0 DUP8 GAS CALL ISZERO DUP1 ISZERO PUSH2 0x1203 JUMPI RETURNDATASIZE PUSH0 DUP1 RETURNDATACOPY RETURNDATASIZE PUSH0 REVERT JUMPDEST POP POP POP POP PUSH1 0x40 MLOAD RETURNDATASIZE PUSH1 0x1F NOT PUSH1 0x1F DUP3 ADD AND DUP3 ADD DUP1 PUSH1 0x40 MSTORE POP DUP2 ADD SWAP1 PUSH2 0x1227 SWAP2 SWAP1 PUSH2 0x20AB JUMP JUMPDEST POP PUSH1 0x1 SWAP1 POP PUSH0 DUP1 PUSH0 PUSH2 0x100 EXP DUP2 SLOAD DUP2 PUSH1 0xFF MUL NOT AND SWAP1 DUP4 ISZERO ISZERO MUL OR SWAP1 SSTORE POP SWAP2 SWAP1 POP JUMP JUMPDEST PUSH0 DUP1 PUSH2 0x1256 CALLER DUP6 DUP6 PUSH2 0x13CA JUMP JUMPDEST SWAP1 POP PUSH2 0x1261 DUP2 PUSH2 0x1724 JUMP JUMPDEST PUSH2 0x126C CALLER DUP6 DUP4 PUSH2 0x17BD JUMP JUMPDEST PUSH1 0x40 MLOAD DUP1 PUSH1 0x40 ADD PUSH1 0x40 MSTORE DUP1 PUSH1 0x11 DUP2 MSTORE PUSH1 0x20 ADD PUSH32 0x5761726E696E6720466F72205661756C74000000000000000000000000000000 DUP2 MSTORE POP SWAP1 PUSH2 0x12E3 JUMPI PUSH1 0x40 MLOAD PUSH32 0x8C379A000000000000000000000000000000000000000000000000000000000 DUP2 MSTORE PUSH1 0x4 ADD PUSH2 0x12DA SWAP2 SWAP1 PUSH2 0x21ED JUMP JUMPDEST PUSH1 0x40 MLOAD DUP1 SWAP2 SUB SWAP1 REVERT JUMPDEST POP PUSH2 0x12EE PUSH1 0x1 PUSH2 0x18E6 JUMP JUMPDEST PUSH1 0x1 SWAP2 POP POP SWAP3 SWAP2 POP POP JUMP JUMPDEST PUSH1 0x60 PUSH0 PUSH1 0x1 PUSH2 0x1307 DUP5 PUSH2 0x18FA JUMP JUMPDEST ADD SWAP1 POP PUSH0 DUP2 PUSH8 0xFFFFFFFFFFFFFFFF DUP2 GT ISZERO PUSH2 0x1325 JUMPI PUSH2 0x1324 PUSH2 0x26C2 JUMP JUMPDEST JUMPDEST PUSH1 0x40 MLOAD SWAP1 DUP1 DUP3 MSTORE DUP1 PUSH1 0x1F ADD PUSH1 0x1F NOT AND PUSH1 0x20 ADD DUP3 ADD PUSH1 0x40 MSTORE DUP1 ISZERO PUSH2 0x1357 JUMPI DUP2 PUSH1 0x20 ADD PUSH1 0x1 DUP3 MUL DUP1 CALLDATASIZE DUP4 CALLDATACOPY DUP1 DUP3 ADD SWAP2 POP POP SWAP1 POP JUMPDEST POP SWAP1 POP PUSH0 DUP3 PUSH1 0x20 ADD DUP3 ADD SWAP1 POP JUMPDEST PUSH1 0x1 ISZERO PUSH2 0x13B8 JUMPI DUP1 DUP1 PUSH1 0x1 SWAP1 SUB SWAP2 POP POP PUSH32 0x3031323334353637383961626364656600000000000000000000000000000000 PUSH1 0xA DUP7 MOD BYTE DUP2 MSTORE8 PUSH1 0xA DUP6 DUP2 PUSH2 0x13AD JUMPI PUSH2 0x13AC PUSH2 0x22DA JUMP JUMPDEST JUMPDEST DIV SWAP5 POP PUSH0 DUP6 SUB PUSH2 0x1364 JUMPI JUMPDEST DUP2 SWAP4 POP POP POP POP SWAP2 SWAP1 POP JUMP JUMPDEST PUSH0 CALLER SWAP1 POP SWAP1 JUMP JUMPDEST PUSH0 DUP1 PUSH0 SWAP1 SLOAD SWAP1 PUSH2 0x100 EXP SWAP1 DIV PUSH1 0xFF AND ISZERO PUSH2 0x1419 JUMPI PUSH1 0x40 MLOAD PUSH32 0x8C379A000000000000000000000000000000000000000000000000000000000 DUP2 MSTORE PUSH1 0x4 ADD PUSH2 0x1410 SWAP1 PUSH2 0x1F57 JUMP JUMPDEST PUSH1 0x40 MLOAD DUP1 SWAP2 SUB SWAP1 REVERT JUMPDEST PUSH1 0x1 PUSH0 DUP1 PUSH2 0x100 EXP DUP2 SLOAD DUP2 PUSH1 0xFF MUL NOT AND SWAP1 DUP4 ISZERO ISZERO MUL OR SWAP1 SSTORE POP PUSH0 PUSH1 0x3 PUSH0 SWAP1 SLOAD SWAP1 PUSH2 0x100 EXP SWAP1 DIV PUSH20 0xFFFFFFFFFFFFFFFFFFFFFFFFFFFFFFFFFFFFFFFF AND PUSH20 0xFFFFFFFFFFFFFFFFFFFFFFFFFFFFFFFFFFFFFFFF AND PUSH4 0xF42C69D6 DUP7 DUP6 PUSH1 0x40 MLOAD DUP4 PUSH4 0xFFFFFFFF AND PUSH1 0xE0 SHL DUP2 MSTORE PUSH1 0x4 ADD PUSH2 0x148F SWAP3 SWAP2 SWAP1 PUSH2 0x26EF JUMP JUMPDEST PUSH1 0x20 PUSH1 0x40 MLOAD DUP1 DUP4 SUB DUP2 PUSH0 DUP8 GAS CALL ISZERO DUP1 ISZERO PUSH2 0x14AB JUMPI RETURNDATASIZE PUSH0 DUP1 RETURNDATACOPY RETURNDATASIZE PUSH0 REVERT JUMPDEST POP POP POP POP PUSH1 0x40 MLOAD RETURNDATASIZE PUSH1 0x1F NOT PUSH1 0x1F DUP3 ADD AND DUP3 ADD DUP1 PUSH1 0x40 MSTORE POP DUP2 ADD SWAP1 PUSH2 0x14CF SWAP2 SWAP1 PUSH2 0x2221 JUMP JUMPDEST SWAP1 POP PUSH1 0x7 PUSH0 DUP7 PUSH20 0xFFFFFFFFFFFFFFFFFFFFFFFFFFFFFFFFFFFFFFFF AND PUSH20 0xFFFFFFFFFFFFFFFFFFFFFFFFFFFFFFFFFFFFFFFF AND DUP2 MSTORE PUSH1 0x20 ADD SWAP1 DUP2 MSTORE PUSH1 0x20 ADD PUSH0 KECCAK256 PUSH0 ADD PUSH1 0x40 MLOAD DUP1 PUSH1 0x40 ADD PUSH1 0x40 MSTORE DUP1 DUP4 DUP2 MSTORE PUSH1 0x20 ADD TIMESTAMP DUP2 MSTORE POP SWAP1 DUP1 PUSH1 0x1 DUP2 SLOAD ADD DUP1 DUP3 SSTORE DUP1 SWAP2 POP POP PUSH1 0x1 SWAP1 SUB SWAP1 PUSH0 MSTORE PUSH1 0x20 PUSH0 KECCAK256 SWAP1 PUSH1 0x2 MUL ADD PUSH0 SWAP1 SWAP2 SWAP1 SWAP2 SWAP1 SWAP2 POP PUSH0 DUP3 ADD MLOAD DUP2 PUSH0 ADD SSTORE PUSH1 0x20 DUP3 ADD MLOAD DUP2 PUSH1 0x1 ADD SSTORE POP POP PUSH2 0x156A CALLER DUP6 DUP4 PUSH2 0x17BD JUMP JUMPDEST POP DUP3 ISZERO PUSH2 0x1701 JUMPI PUSH1 0x4 PUSH0 SWAP1 SLOAD SWAP1 PUSH2 0x100 EXP SWAP1 DIV PUSH20 0xFFFFFFFFFFFFFFFFFFFFFFFFFFFFFFFFFFFFFFFF AND PUSH20 0xFFFFFFFFFFFFFFFFFFFFFFFFFFFFFFFFFFFFFFFF AND PUSH4 0x340FC3E4 CALLER PUSH8 0xDE0B6B3A7640000 PUSH1 0x64 DUP9 PUSH2 0x15C5 SWAP2 SWAP1 PUSH2 0x2337 JUMP JUMPDEST PUSH2 0x15CF SWAP2 SWAP1 PUSH2 0x2337 JUMP JUMPDEST PUSH1 0x40 MLOAD DUP4 PUSH4 0xFFFFFFFF AND PUSH1 0xE0 SHL DUP2 MSTORE PUSH1 0x4 ADD PUSH2 0x15EC SWAP3 SWAP2 SWAP1 PUSH2 0x2070 JUMP JUMPDEST PUSH1 0x20 PUSH1 0x40 MLOAD DUP1 DUP4 SUB DUP2 PUSH0 DUP8 GAS CALL ISZERO DUP1 ISZERO PUSH2 0x1608 JUMPI RETURNDATASIZE PUSH0 DUP1 RETURNDATACOPY RETURNDATASIZE PUSH0 REVERT JUMPDEST POP POP POP POP PUSH1 0x40 MLOAD RETURNDATASIZE PUSH1 0x1F NOT PUSH1 0x1F DUP3 ADD AND DUP3 ADD DUP1 PUSH1 0x40 MSTORE POP DUP2 ADD SWAP1 PUSH2 0x162C SWAP2 SWAP1 PUSH2 0x20AB JUMP JUMPDEST PUSH2 0x166B JUMPI PUSH1 0x40 MLOAD PUSH32 0x8C379A000000000000000000000000000000000000000000000000000000000 DUP2 MSTORE PUSH1 0x4 ADD PUSH2 0x1662 SWAP1 PUSH2 0x2760 JUMP JUMPDEST PUSH1 0x40 MLOAD DUP1 SWAP2 SUB SWAP1 REVERT JUMPDEST PUSH1 0x5 PUSH0 SWAP1 SLOAD SWAP1 PUSH2 0x100 EXP SWAP1 DIV PUSH20 0xFFFFFFFFFFFFFFFFFFFFFFFFFFFFFFFFFFFFFFFF AND PUSH20 0xFFFFFFFFFFFFFFFFFFFFFFFFFFFFFFFFFFFFFFFF AND PUSH4 0xCDB51CDF PUSH1 0x64 DUP7 PUSH2 0x16B5 SWAP2 SWAP1 PUSH2 0x2337 JUMP JUMPDEST CALLER PUSH1 0x40 MLOAD DUP4 PUSH4 0xFFFFFFFF AND PUSH1 0xE0 SHL DUP2 MSTORE PUSH1 0x4 ADD PUSH2 0x16D3 SWAP3 SWAP2 SWAP1 PUSH2 0x2598 JUMP JUMPDEST PUSH0 PUSH1 0x40 MLOAD DUP1 DUP4 SUB DUP2 PUSH0 DUP8 DUP1 EXTCODESIZE ISZERO DUP1 ISZERO PUSH2 0x16EA JUMPI PUSH0 DUP1 REVERT JUMPDEST POP GAS CALL ISZERO DUP1 ISZERO PUSH2 0x16FC JUMPI RETURNDATASIZE PUSH0 DUP1 RETURNDATACOPY RETURNDATASIZE PUSH0 REVERT JUMPDEST POP POP POP POP JUMPDEST DUP1 SWAP2 POP POP PUSH0 DUP1 PUSH0 PUSH2 0x100 EXP DUP2 SLOAD DUP2 PUSH1 0xFF MUL NOT AND SWAP1 DUP4 ISZERO ISZERO MUL OR SWAP1 SSTORE POP SWAP4 SWAP3 POP POP POP JUMP JUMPDEST PUSH2 0x17BA DUP2 PUSH1 0x40 MLOAD PUSH1 0x24 ADD PUSH2 0x1738 SWAP2 SWAP1 PUSH2 0x1AA9 JUMP JUMPDEST PUSH1 0x40 MLOAD PUSH1 0x20 DUP2 DUP4 SUB SUB DUP2 MSTORE SWAP1 PUSH1 0x40 MSTORE PUSH32 0xF82C50F100000000000000000000000000000000000000000000000000000000 PUSH28 0xFFFFFFFFFFFFFFFFFFFFFFFFFFFFFFFFFFFFFFFFFFFFFFFFFFFFFFFF NOT AND PUSH1 0x20 DUP3 ADD DUP1 MLOAD PUSH28 0xFFFFFFFFFFFFFFFFFFFFFFFFFFFFFFFFFFFFFFFFFFFFFFFFFFFFFFFF DUP4 DUP2 DUP4 AND OR DUP4 MSTORE POP POP POP POP PUSH2 0x1A4B JUMP JUMPDEST POP JUMP JUMPDEST PUSH0 DUP1 PUSH1 0xD PUSH0 DUP7 PUSH20 0xFFFFFFFFFFFFFFFFFFFFFFFFFFFFFFFFFFFFFFFF AND PUSH20 0xFFFFFFFFFFFFFFFFFFFFFFFFFFFFFFFFFFFFFFFF AND DUP2 MSTORE PUSH1 0x20 ADD SWAP1 DUP2 MSTORE PUSH1 0x20 ADD PUSH0 KECCAK256 PUSH0 ADD SWAP1 POP DUP1 PUSH1 0x40 MLOAD DUP1 PUSH1 0x60 ADD PUSH1 0x40 MSTORE DUP1 DUP7 DUP2 MSTORE PUSH1 0x20 ADD TIMESTAMP DUP2 MSTORE PUSH1 0x20 ADD DUP6 DUP2 MSTORE POP SWAP1 DUP1 PUSH1 0x1 DUP2 SLOAD ADD DUP1 DUP3 SSTORE DUP1 SWAP2 POP POP PUSH1 0x1 SWAP1 SUB SWAP1 PUSH0 MSTORE PUSH1 0x20 PUSH0 KECCAK256 SWAP1 PUSH1 0x3 MUL ADD PUSH0 SWAP1 SWAP2 SWAP1 SWAP2 SWAP1 SWAP2 POP PUSH0 DUP3 ADD MLOAD DUP2 PUSH0 ADD SSTORE PUSH1 0x20 DUP3 ADD MLOAD DUP2 PUSH1 0x1 ADD SSTORE PUSH1 0x40 DUP3 ADD MLOAD DUP2 PUSH1 0x2 ADD SSTORE POP POP PUSH1 0xD PUSH0 DUP7 PUSH20 0xFFFFFFFFFFFFFFFFFFFFFFFFFFFFFFFFFFFFFFFF AND PUSH20 0xFFFFFFFFFFFFFFFFFFFFFFFFFFFFFFFFFFFFFFFF AND DUP2 MSTORE PUSH1 0x20 ADD SWAP1 DUP2 MSTORE PUSH1 0x20 ADD PUSH0 KECCAK256 PUSH1 0x1 ADD DUP4 SWAP1 DUP1 PUSH1 0x1 DUP2 SLOAD ADD DUP1 DUP3 SSTORE DUP1 SWAP2 POP POP PUSH1 0x1 SWAP1 SUB SWAP1 PUSH0 MSTORE PUSH1 0x20 PUSH0 KECCAK256 ADD PUSH0 SWAP1 SWAP2 SWAP1 SWAP2 SWAP1 SWAP2 POP SSTORE DUP4 PUSH1 0xC PUSH0 DUP6 DUP2 MSTORE PUSH1 0x20 ADD SWAP1 DUP2 MSTORE PUSH1 0x20 ADD PUSH0 KECCAK256 DUP2 SWAP1 SSTORE POP PUSH1 0x1 SWAP2 POP POP SWAP4 SWAP3 POP POP POP JUMP JUMPDEST PUSH1 0x1 DUP2 PUSH0 ADD PUSH0 DUP3 DUP3 SLOAD ADD SWAP3 POP POP DUP2 SWAP1 SSTORE POP POP JUMP JUMPDEST PUSH0 DUP1 PUSH0 SWAP1 POP PUSH27 0x184F03E93FF9F4DAA797ED6E38ED64BF6A1F010000000000000000 DUP4 LT PUSH2 0x1956 JUMPI PUSH27 0x184F03E93FF9F4DAA797ED6E38ED64BF6A1F010000000000000000 DUP4 DUP2 PUSH2 0x194C JUMPI PUSH2 0x194B PUSH2 0x22DA JUMP JUMPDEST JUMPDEST DIV SWAP3 POP PUSH1 0x40 DUP2 ADD SWAP1 POP JUMPDEST PUSH14 0x4EE2D6D415B85ACEF8100000000 DUP4 LT PUSH2 0x1993 JUMPI PUSH14 0x4EE2D6D415B85ACEF8100000000 DUP4 DUP2 PUSH2 0x1989 JUMPI PUSH2 0x1988 PUSH2 0x22DA JUMP JUMPDEST JUMPDEST DIV SWAP3 POP PUSH1 0x20 DUP2 ADD SWAP1 POP JUMPDEST PUSH7 0x2386F26FC10000 DUP4 LT PUSH2 0x19C2 JUMPI PUSH7 0x2386F26FC10000 DUP4 DUP2 PUSH2 0x19B8 JUMPI PUSH2 0x19B7 PUSH2 0x22DA JUMP JUMPDEST JUMPDEST DIV SWAP3 POP PUSH1 0x10 DUP2 ADD SWAP1 POP JUMPDEST PUSH4 0x5F5E100 DUP4 LT PUSH2 0x19EB JUMPI PUSH4 0x5F5E100 DUP4 DUP2 PUSH2 0x19E1 JUMPI PUSH2 0x19E0 PUSH2 0x22DA JUMP JUMPDEST JUMPDEST DIV SWAP3 POP PUSH1 0x8 DUP2 ADD SWAP1 POP JUMPDEST PUSH2 0x2710 DUP4 LT PUSH2 0x1A10 JUMPI PUSH2 0x2710 DUP4 DUP2 PUSH2 0x1A06 JUMPI PUSH2 0x1A05 PUSH2 0x22DA JUMP JUMPDEST JUMPDEST DIV SWAP3 POP PUSH1 0x4 DUP2 ADD SWAP1 POP JUMPDEST PUSH1 0x64 DUP4 LT PUSH2 0x1A33 JUMPI PUSH1 0x64 DUP4 DUP2 PUSH2 0x1A29 JUMPI PUSH2 0x1A28 PUSH2 0x22DA JUMP JUMPDEST JUMPDEST DIV SWAP3 POP PUSH1 0x2 DUP2 ADD SWAP1 POP JUMPDEST PUSH1 0xA DUP4 LT PUSH2 0x1A42 JUMPI PUSH1 0x1 DUP2 ADD SWAP1 POP JUMPDEST DUP1 SWAP2 POP POP SWAP2 SWAP1 POP JUMP JUMPDEST PUSH0 PUSH11 0x636F6E736F6C652E6C6F67 SWAP1 POP PUSH0 DUP1 DUP4 MLOAD PUSH1 0x20 DUP6 ADD DUP5 GAS STATICCALL POP POP POP JUMP JUMPDEST PUSH0 DUP2 SWAP1 POP SWAP2 SWAP1 POP JUMP JUMPDEST PUSH2 0x1A7C DUP2 PUSH2 0x1A6A JUMP JUMPDEST DUP3 MSTORE POP POP JUMP JUMPDEST PUSH0 PUSH1 0x40 DUP3 ADD SWAP1 POP PUSH2 0x1A95 PUSH0 DUP4 ADD DUP6 PUSH2 0x1A73 JUMP JUMPDEST PUSH2 0x1AA2 PUSH1 0x20 DUP4 ADD DUP5 PUSH2 0x1A73 JUMP JUMPDEST SWAP4 SWAP3 POP POP POP JUMP JUMPDEST PUSH0 PUSH1 0x20 DUP3 ADD SWAP1 POP PUSH2 0x1ABC PUSH0 DUP4 ADD DUP5 PUSH2 0x1A73 JUMP JUMPDEST SWAP3 SWAP2 POP POP JUMP JUMPDEST PUSH0 PUSH20 0xFFFFFFFFFFFFFFFFFFFFFFFFFFFFFFFFFFFFFFFF DUP3 AND SWAP1 POP SWAP2 SWAP1 POP JUMP JUMPDEST PUSH0 DUP2 SWAP1 POP SWAP2 SWAP1 POP JUMP JUMPDEST PUSH0 PUSH2 0x1B04 PUSH2 0x1AFF PUSH2 0x1AFA DUP5 PUSH2 0x1AC2 JUMP JUMPDEST PUSH2 0x1AE1 JUMP JUMPDEST PUSH2 0x1AC2 JUMP JUMPDEST SWAP1 POP SWAP2 SWAP1 POP JUMP JUMPDEST PUSH0 PUSH2 0x1B15 DUP3 PUSH2 0x1AEA JUMP JUMPDEST SWAP1 POP SWAP2 SWAP1 POP JUMP JUMPDEST PUSH0 PUSH2 0x1B26 DUP3 PUSH2 0x1B0B JUMP JUMPDEST SWAP1 POP SWAP2 SWAP1 POP JUMP JUMPDEST PUSH2 0x1B36 DUP2 PUSH2 0x1B1C JUMP JUMPDEST DUP3 MSTORE POP POP JUMP JUMPDEST PUSH0 PUSH1 0x20 DUP3 ADD SWAP1 POP PUSH2 0x1B4F PUSH0 DUP4 ADD DUP5 PUSH2 0x1B2D JUMP JUMPDEST SWAP3 SWAP2 POP POP JUMP JUMPDEST PUSH0 PUSH2 0x1B5F DUP3 PUSH2 0x1B0B JUMP JUMPDEST SWAP1 POP SWAP2 SWAP1 POP JUMP JUMPDEST PUSH2 0x1B6F DUP2 PUSH2 0x1B55 JUMP JUMPDEST DUP3 MSTORE POP POP JUMP JUMPDEST PUSH0 PUSH1 0x20 DUP3 ADD SWAP1 POP PUSH2 0x1B88 PUSH0 DUP4 ADD DUP5 PUSH2 0x1B66 JUMP JUMPDEST SWAP3 SWAP2 POP POP JUMP JUMPDEST PUSH0 PUSH2 0x1B98 DUP3 PUSH2 0x1B0B JUMP JUMPDEST SWAP1 POP SWAP2 SWAP1 POP JUMP JUMPDEST PUSH2 0x1BA8 DUP2 PUSH2 0x1B8E JUMP JUMPDEST DUP3 MSTORE POP POP JUMP JUMPDEST PUSH0 PUSH1 0x20 DUP3 ADD SWAP1 POP PUSH2 0x1BC1 PUSH0 DUP4 ADD DUP5 PUSH2 0x1B9F JUMP JUMPDEST SWAP3 SWAP2 POP POP JUMP JUMPDEST PUSH0 DUP1 REVERT JUMPDEST PUSH2 0x1BD4 DUP2 PUSH2 0x1A6A JUMP JUMPDEST DUP2 EQ PUSH2 0x1BDE JUMPI PUSH0 DUP1 REVERT JUMPDEST POP JUMP JUMPDEST PUSH0 DUP2 CALLDATALOAD SWAP1 POP PUSH2 0x1BEF DUP2 PUSH2 0x1BCB JUMP JUMPDEST SWAP3 SWAP2 POP POP JUMP JUMPDEST PUSH0 PUSH1 0x20 DUP3 DUP5 SUB SLT ISZERO PUSH2 0x1C0A JUMPI PUSH2 0x1C09 PUSH2 0x1BC7 JUMP JUMPDEST JUMPDEST PUSH0 PUSH2 0x1C17 DUP5 DUP3 DUP6 ADD PUSH2 0x1BE1 JUMP JUMPDEST SWAP2 POP POP SWAP3 SWAP2 POP POP JUMP JUMPDEST PUSH0 DUP2 ISZERO ISZERO SWAP1 POP SWAP2 SWAP1 POP JUMP JUMPDEST PUSH2 0x1C34 DUP2 PUSH2 0x1C20 JUMP JUMPDEST DUP3 MSTORE POP POP JUMP JUMPDEST PUSH0 PUSH1 0x20 DUP3 ADD SWAP1 POP PUSH2 0x1C4D PUSH0 DUP4 ADD DUP5 PUSH2 0x1C2B JUMP JUMPDEST SWAP3 SWAP2 POP POP JUMP JUMPDEST PUSH0 DUP2 MLOAD SWAP1 POP SWAP2 SWAP1 POP JUMP JUMPDEST PUSH0 DUP3 DUP3 MSTORE PUSH1 0x20 DUP3 ADD SWAP1 POP SWAP3 SWAP2 POP POP JUMP JUMPDEST PUSH0 DUP2 SWAP1 POP PUSH1 0x20 DUP3 ADD SWAP1 POP SWAP2 SWAP1 POP JUMP JUMPDEST PUSH2 0x1C85 DUP2 PUSH2 0x1A6A JUMP JUMPDEST DUP3 MSTORE POP POP JUMP JUMPDEST PUSH1 0x40 DUP3 ADD PUSH0 DUP3 ADD MLOAD PUSH2 0x1C9F PUSH0 DUP6 ADD DUP3 PUSH2 0x1C7C JUMP JUMPDEST POP PUSH1 0x20 DUP3 ADD MLOAD PUSH2 0x1CB2 PUSH1 0x20 DUP6 ADD DUP3 PUSH2 0x1C7C JUMP JUMPDEST POP POP POP POP JUMP JUMPDEST PUSH0 PUSH2 0x1CC3 DUP4 DUP4 PUSH2 0x1C8B JUMP JUMPDEST PUSH1 0x40 DUP4 ADD SWAP1 POP SWAP3 SWAP2 POP POP JUMP JUMPDEST PUSH0 PUSH1 0x20 DUP3 ADD SWAP1 POP SWAP2 SWAP1 POP JUMP JUMPDEST PUSH0 PUSH2 0x1CE5 DUP3 PUSH2 0x1C53 JUMP JUMPDEST PUSH2 0x1CEF DUP2 DUP6 PUSH2 0x1C5D JUMP JUMPDEST SWAP4 POP PUSH2 0x1CFA DUP4 PUSH2 0x1C6D JUMP JUMPDEST DUP1 PUSH0 JUMPDEST DUP4 DUP2 LT ISZERO PUSH2 0x1D2A JUMPI DUP2 MLOAD PUSH2 0x1D11 DUP9 DUP3 PUSH2 0x1CB8 JUMP JUMPDEST SWAP8 POP PUSH2 0x1D1C DUP4 PUSH2 0x1CCF JUMP JUMPDEST SWAP3 POP POP PUSH1 0x1 DUP2 ADD SWAP1 POP PUSH2 0x1CFD JUMP JUMPDEST POP DUP6 SWAP4 POP POP POP POP SWAP3 SWAP2 POP POP JUMP JUMPDEST PUSH0 PUSH1 0x20 DUP3 ADD SWAP1 POP DUP2 DUP2 SUB PUSH0 DUP4 ADD MSTORE PUSH2 0x1D4F DUP2 DUP5 PUSH2 0x1CDB JUMP JUMPDEST SWAP1 POP SWAP3 SWAP2 POP POP JUMP JUMPDEST PUSH0 DUP1 PUSH1 0x40 DUP4 DUP6 SUB SLT ISZERO PUSH2 0x1D6D JUMPI PUSH2 0x1D6C PUSH2 0x1BC7 JUMP JUMPDEST JUMPDEST PUSH0 PUSH2 0x1D7A DUP6 DUP3 DUP7 ADD PUSH2 0x1BE1 JUMP JUMPDEST SWAP3 POP POP PUSH1 0x20 PUSH2 0x1D8B DUP6 DUP3 DUP7 ADD PUSH2 0x1BE1 JUMP JUMPDEST SWAP2 POP POP SWAP3 POP SWAP3 SWAP1 POP JUMP JUMPDEST PUSH0 PUSH2 0x1D9F DUP3 PUSH2 0x1AC2 JUMP JUMPDEST SWAP1 POP SWAP2 SWAP1 POP JUMP JUMPDEST PUSH2 0x1DAF DUP2 PUSH2 0x1D95 JUMP JUMPDEST DUP3 MSTORE POP POP JUMP JUMPDEST PUSH0 PUSH1 0x20 DUP3 ADD SWAP1 POP PUSH2 0x1DC8 PUSH0 DUP4 ADD DUP5 PUSH2 0x1DA6 JUMP JUMPDEST SWAP3 SWAP2 POP POP JUMP JUMPDEST PUSH2 0x1DD7 DUP2 PUSH2 0x1D95 JUMP JUMPDEST DUP2 EQ PUSH2 0x1DE1 JUMPI PUSH0 DUP1 REVERT JUMPDEST POP JUMP JUMPDEST PUSH0 DUP2 CALLDATALOAD SWAP1 POP PUSH2 0x1DF2 DUP2 PUSH2 0x1DCE JUMP JUMPDEST SWAP3 SWAP2 POP POP JUMP JUMPDEST PUSH0 PUSH1 0x20 DUP3 DUP5 SUB SLT ISZERO PUSH2 0x1E0D JUMPI PUSH2 0x1E0C PUSH2 0x1BC7 JUMP JUMPDEST JUMPDEST PUSH0 PUSH2 0x1E1A DUP5 DUP3 DUP6 ADD PUSH2 0x1DE4 JUMP JUMPDEST SWAP2 POP POP SWAP3 SWAP2 POP POP JUMP JUMPDEST PUSH0 PUSH2 0x1E2D DUP3 PUSH2 0x1B0B JUMP JUMPDEST SWAP1 POP SWAP2 SWAP1 POP JUMP JUMPDEST PUSH2 0x1E3D DUP2 PUSH2 0x1E23 JUMP JUMPDEST DUP3 MSTORE POP POP JUMP JUMPDEST PUSH0 PUSH1 0x20 DUP3 ADD SWAP1 POP PUSH2 0x1E56 PUSH0 DUP4 ADD DUP5 PUSH2 0x1E34 JUMP JUMPDEST SWAP3 SWAP2 POP POP JUMP JUMPDEST PUSH0 PUSH2 0x1E66 DUP3 PUSH2 0x1B0B JUMP JUMPDEST SWAP1 POP SWAP2 SWAP1 POP JUMP JUMPDEST PUSH2 0x1E76 DUP2 PUSH2 0x1E5C JUMP JUMPDEST DUP3 MSTORE POP POP JUMP JUMPDEST PUSH0 PUSH1 0x20 DUP3 ADD SWAP1 POP PUSH2 0x1E8F PUSH0 DUP4 ADD DUP5 PUSH2 0x1E6D JUMP JUMPDEST SWAP3 SWAP2 POP POP JUMP JUMPDEST PUSH2 0x1E9E DUP2 PUSH2 0x1C20 JUMP JUMPDEST DUP2 EQ PUSH2 0x1EA8 JUMPI PUSH0 DUP1 REVERT JUMPDEST POP JUMP JUMPDEST PUSH0 DUP2 CALLDATALOAD SWAP1 POP PUSH2 0x1EB9 DUP2 PUSH2 0x1E95 JUMP JUMPDEST SWAP3 SWAP2 POP POP JUMP JUMPDEST PUSH0 DUP1 PUSH1 0x40 DUP4 DUP6 SUB SLT ISZERO PUSH2 0x1ED5 JUMPI PUSH2 0x1ED4 PUSH2 0x1BC7 JUMP JUMPDEST JUMPDEST PUSH0 PUSH2 0x1EE2 DUP6 DUP3 DUP7 ADD PUSH2 0x1BE1 JUMP JUMPDEST SWAP3 POP POP PUSH1 0x20 PUSH2 0x1EF3 DUP6 DUP3 DUP7 ADD PUSH2 0x1EAB JUMP JUMPDEST SWAP2 POP POP SWAP3 POP SWAP3 SWAP1 POP JUMP JUMPDEST PUSH0 DUP3 DUP3 MSTORE PUSH1 0x20 DUP3 ADD SWAP1 POP SWAP3 SWAP2 POP POP JUMP JUMPDEST PUSH32 0x4E6F205265456E7472616E637900000000000000000000000000000000000000 PUSH0 DUP3 ADD MSTORE POP JUMP JUMPDEST PUSH0 PUSH2 0x1F41 PUSH1 0xD DUP4 PUSH2 0x1EFD JUMP JUMPDEST SWAP2 POP PUSH2 0x1F4C DUP3 PUSH2 0x1F0D JUMP JUMPDEST PUSH1 0x20 DUP3 ADD SWAP1 POP SWAP2 SWAP1 POP JUMP JUMPDEST PUSH0 PUSH1 0x20 DUP3 ADD SWAP1 POP DUP2 DUP2 SUB PUSH0 DUP4 ADD MSTORE PUSH2 0x1F6E DUP2 PUSH2 0x1F35 JUMP JUMPDEST SWAP1 POP SWAP2 SWAP1 POP JUMP JUMPDEST PUSH32 0x4572726F7220696E204D616B652051564520657363726F77656420616E642056 PUSH0 DUP3 ADD MSTORE PUSH32 0x657374696E670000000000000000000000000000000000000000000000000000 PUSH1 0x20 DUP3 ADD MSTORE POP JUMP JUMPDEST PUSH0 PUSH2 0x1FCF PUSH1 0x26 DUP4 PUSH2 0x1EFD JUMP JUMPDEST SWAP2 POP PUSH2 0x1FDA DUP3 PUSH2 0x1F75 JUMP JUMPDEST PUSH1 0x40 DUP3 ADD SWAP1 POP SWAP2 SWAP1 POP JUMP JUMPDEST PUSH0 PUSH1 0x20 DUP3 ADD SWAP1 POP DUP2 DUP2 SUB PUSH0 DUP4 ADD MSTORE PUSH2 0x1FFC DUP2 PUSH2 0x1FC3 JUMP JUMPDEST SWAP1 POP SWAP2 SWAP1 POP JUMP JUMPDEST PUSH0 PUSH1 0xFF DUP3 AND SWAP1 POP SWAP2 SWAP1 POP JUMP JUMPDEST PUSH32 0x4E487B7100000000000000000000000000000000000000000000000000000000 PUSH0 MSTORE PUSH1 0x11 PUSH1 0x4 MSTORE PUSH1 0x24 PUSH0 REVERT JUMPDEST PUSH0 PUSH2 0x2046 DUP3 PUSH2 0x2003 JUMP JUMPDEST SWAP2 POP PUSH2 0x2051 DUP4 PUSH2 0x2003 JUMP JUMPDEST SWAP3 POP DUP3 DUP3 SUB SWAP1 POP PUSH1 0xFF DUP2 GT ISZERO PUSH2 0x206A JUMPI PUSH2 0x2069 PUSH2 0x200F JUMP JUMPDEST JUMPDEST SWAP3 SWAP2 POP POP JUMP JUMPDEST PUSH0 PUSH1 0x40 DUP3 ADD SWAP1 POP PUSH2 0x2083 PUSH0 DUP4 ADD DUP6 PUSH2 0x1DA6 JUMP JUMPDEST PUSH2 0x2090 PUSH1 0x20 DUP4 ADD DUP5 PUSH2 0x1A73 JUMP JUMPDEST SWAP4 SWAP3 POP POP POP JUMP JUMPDEST PUSH0 DUP2 MLOAD SWAP1 POP PUSH2 0x20A5 DUP2 PUSH2 0x1E95 JUMP JUMPDEST SWAP3 SWAP2 POP POP JUMP JUMPDEST PUSH0 PUSH1 0x20 DUP3 DUP5 SUB SLT ISZERO PUSH2 0x20C0 JUMPI PUSH2 0x20BF PUSH2 0x1BC7 JUMP JUMPDEST JUMPDEST PUSH0 PUSH2 0x20CD DUP5 DUP3 DUP6 ADD PUSH2 0x2097 JUMP JUMPDEST SWAP2 POP POP SWAP3 SWAP2 POP POP JUMP JUMPDEST PUSH32 0x4572726F7220696E20515645207374616B696E67000000000000000000000000 PUSH0 DUP3 ADD MSTORE POP JUMP JUMPDEST PUSH0 PUSH2 0x210A PUSH1 0x14 DUP4 PUSH2 0x1EFD JUMP JUMPDEST SWAP2 POP PUSH2 0x2115 DUP3 PUSH2 0x20D6 JUMP JUMPDEST PUSH1 0x20 DUP3 ADD SWAP1 POP SWAP2 SWAP1 POP JUMP JUMPDEST PUSH0 PUSH1 0x20 DUP3 ADD SWAP1 POP DUP2 DUP2 SUB PUSH0 DUP4 ADD MSTORE PUSH2 0x2137 DUP2 PUSH2 0x20FE JUMP JUMPDEST SWAP1 POP SWAP2 SWAP1 POP JUMP JUMPDEST PUSH0 PUSH1 0x60 DUP3 ADD SWAP1 POP PUSH2 0x2151 PUSH0 DUP4 ADD DUP7 PUSH2 0x1A73 JUMP JUMPDEST PUSH2 0x215E PUSH1 0x20 DUP4 ADD DUP6 PUSH2 0x1DA6 JUMP JUMPDEST PUSH2 0x216B PUSH1 0x40 DUP4 ADD DUP5 PUSH2 0x1A73 JUMP JUMPDEST SWAP5 SWAP4 POP POP POP POP JUMP JUMPDEST PUSH0 DUP2 MLOAD SWAP1 POP SWAP2 SWAP1 POP JUMP JUMPDEST PUSH0 JUMPDEST DUP4 DUP2 LT ISZERO PUSH2 0x219A JUMPI DUP1 DUP3 ADD MLOAD DUP2 DUP5 ADD MSTORE PUSH1 0x20 DUP2 ADD SWAP1 POP PUSH2 0x217F JUMP JUMPDEST PUSH0 DUP5 DUP5 ADD MSTORE POP POP POP POP JUMP JUMPDEST PUSH0 PUSH1 0x1F NOT PUSH1 0x1F DUP4 ADD AND SWAP1 POP SWAP2 SWAP1 POP JUMP JUMPDEST PUSH0 PUSH2 0x21BF DUP3 PUSH2 0x2173 JUMP JUMPDEST PUSH2 0x21C9 DUP2 DUP6 PUSH2 0x1EFD JUMP JUMPDEST SWAP4 POP PUSH2 0x21D9 DUP2 DUP6 PUSH1 0x20 DUP7 ADD PUSH2 0x217D JUMP JUMPDEST PUSH2 0x21E2 DUP2 PUSH2 0x21A5 JUMP JUMPDEST DUP5 ADD SWAP2 POP POP SWAP3 SWAP2 POP POP JUMP JUMPDEST PUSH0 PUSH1 0x20 DUP3 ADD SWAP1 POP DUP2 DUP2 SUB PUSH0 DUP4 ADD MSTORE PUSH2 0x2205 DUP2 DUP5 PUSH2 0x21B5 JUMP JUMPDEST SWAP1 POP SWAP3 SWAP2 POP POP JUMP JUMPDEST PUSH0 DUP2 MLOAD SWAP1 POP PUSH2 0x221B DUP2 PUSH2 0x1BCB JUMP JUMPDEST SWAP3 SWAP2 POP POP JUMP JUMPDEST PUSH0 PUSH1 0x20 DUP3 DUP5 SUB SLT ISZERO PUSH2 0x2236 JUMPI PUSH2 0x2235 PUSH2 0x1BC7 JUMP JUMPDEST JUMPDEST PUSH0 PUSH2 0x2243 DUP5 DUP3 DUP6 ADD PUSH2 0x220D JUMP JUMPDEST SWAP2 POP POP SWAP3 SWAP2 POP POP JUMP JUMPDEST PUSH32 0x4F776E61626C653A206E6577206F776E657220697320746865207A65726F2061 PUSH0 DUP3 ADD MSTORE PUSH32 0x6464726573730000000000000000000000000000000000000000000000000000 PUSH1 0x20 DUP3 ADD MSTORE POP JUMP JUMPDEST PUSH0 PUSH2 0x22A6 PUSH1 0x26 DUP4 PUSH2 0x1EFD JUMP JUMPDEST SWAP2 POP PUSH2 0x22B1 DUP3 PUSH2 0x224C JUMP JUMPDEST PUSH1 0x40 DUP3 ADD SWAP1 POP SWAP2 SWAP1 POP JUMP JUMPDEST PUSH0 PUSH1 0x20 DUP3 ADD SWAP1 POP DUP2 DUP2 SUB PUSH0 DUP4 ADD MSTORE PUSH2 0x22D3 DUP2 PUSH2 0x229A JUMP JUMPDEST SWAP1 POP SWAP2 SWAP1 POP JUMP JUMPDEST PUSH32 0x4E487B7100000000000000000000000000000000000000000000000000000000 PUSH0 MSTORE PUSH1 0x12 PUSH1 0x4 MSTORE PUSH1 0x24 PUSH0 REVERT JUMPDEST PUSH0 PUSH2 0x2311 DUP3 PUSH2 0x1A6A JUMP JUMPDEST SWAP2 POP PUSH2 0x231C DUP4 PUSH2 0x1A6A JUMP JUMPDEST SWAP3 POP DUP3 PUSH2 0x232C JUMPI PUSH2 0x232B PUSH2 0x22DA JUMP JUMPDEST JUMPDEST DUP3 DUP3 DIV SWAP1 POP SWAP3 SWAP2 POP POP JUMP JUMPDEST PUSH0 PUSH2 0x2341 DUP3 PUSH2 0x1A6A JUMP JUMPDEST SWAP2 POP PUSH2 0x234C DUP4 PUSH2 0x1A6A JUMP JUMPDEST SWAP3 POP DUP3 DUP3 MUL PUSH2 0x235A DUP2 PUSH2 0x1A6A JUMP JUMPDEST SWAP2 POP DUP3 DUP3 DIV DUP5 EQ DUP4 ISZERO OR PUSH2 0x2371 JUMPI PUSH2 0x2370 PUSH2 0x200F JUMP JUMPDEST JUMPDEST POP SWAP3 SWAP2 POP POP JUMP JUMPDEST PUSH0 DUP2 SWAP1 POP SWAP3 SWAP2 POP POP JUMP JUMPDEST PUSH32 0x4D617267696E203A200000000000000000000000000000000000000000000000 PUSH0 DUP3 ADD MSTORE POP JUMP JUMPDEST PUSH0 PUSH2 0x23B6 PUSH1 0x9 DUP4 PUSH2 0x2378 JUMP JUMPDEST SWAP2 POP PUSH2 0x23C1 DUP3 PUSH2 0x2382 JUMP JUMPDEST PUSH1 0x9 DUP3 ADD SWAP1 POP SWAP2 SWAP1 POP JUMP JUMPDEST PUSH0 PUSH2 0x23D6 DUP3 PUSH2 0x2173 JUMP JUMPDEST PUSH2 0x23E0 DUP2 DUP6 PUSH2 0x2378 JUMP JUMPDEST SWAP4 POP PUSH2 0x23F0 DUP2 DUP6 PUSH1 0x20 DUP7 ADD PUSH2 0x217D JUMP JUMPDEST DUP1 DUP5 ADD SWAP2 POP POP SWAP3 SWAP2 POP POP JUMP JUMPDEST PUSH32 0x4554480000000000000000000000000000000000000000000000000000000000 PUSH0 DUP3 ADD MSTORE POP JUMP JUMPDEST PUSH0 PUSH2 0x2430 PUSH1 0x3 DUP4 PUSH2 0x2378 JUMP JUMPDEST SWAP2 POP PUSH2 0x243B DUP3 PUSH2 0x23FC JUMP JUMPDEST PUSH1 0x3 DUP3 ADD SWAP1 POP SWAP2 SWAP1 POP JUMP JUMPDEST PUSH0 PUSH2 0x2450 DUP3 PUSH2 0x23AA JUMP JUMPDEST SWAP2 POP PUSH2 0x245C DUP3 DUP5 PUSH2 0x23CC JUMP JUMPDEST SWAP2 POP PUSH2 0x2467 DUP3 PUSH2 0x2424 JUMP JUMPDEST SWAP2 POP DUP2 SWAP1 POP SWAP3 SWAP2 POP POP JUMP JUMPDEST PUSH32 0x5374616B696E672047756172616E746565204361726400000000000000000000 PUSH0 DUP3 ADD MSTORE POP JUMP JUMPDEST PUSH0 PUSH2 0x24A6 PUSH1 0x16 DUP4 PUSH2 0x1EFD JUMP JUMPDEST SWAP2 POP PUSH2 0x24B1 DUP3 PUSH2 0x2472 JUMP JUMPDEST PUSH1 0x20 DUP3 ADD SWAP1 POP SWAP2 SWAP1 POP JUMP JUMPDEST PUSH32 0x68747470733A2F2F697066732E696F2F697066732F516D57456751736B426374 PUSH0 DUP3 ADD MSTORE PUSH32 0x514A55617245796376366378506E4D3357723461487A3672476F7132516D5476 PUSH1 0x20 DUP3 ADD MSTORE PUSH32 0x7755633F66696C656E616D653D51564577617272616E74792E706E6700000000 PUSH1 0x40 DUP3 ADD MSTORE POP JUMP JUMPDEST PUSH0 PUSH2 0x253C PUSH1 0x5C DUP4 PUSH2 0x1EFD JUMP JUMPDEST SWAP2 POP PUSH2 0x2547 DUP3 PUSH2 0x24BC JUMP JUMPDEST PUSH1 0x60 DUP3 ADD SWAP1 POP SWAP2 SWAP1 POP JUMP JUMPDEST PUSH0 PUSH1 0x60 DUP3 ADD SWAP1 POP DUP2 DUP2 SUB PUSH0 DUP4 ADD MSTORE PUSH2 0x2569 DUP2 PUSH2 0x249A JUMP JUMPDEST SWAP1 POP DUP2 DUP2 SUB PUSH1 0x20 DUP4 ADD MSTORE PUSH2 0x257D DUP2 DUP5 PUSH2 0x21B5 JUMP JUMPDEST SWAP1 POP DUP2 DUP2 SUB PUSH1 0x40 DUP4 ADD MSTORE PUSH2 0x2590 DUP2 PUSH2 0x2530 JUMP JUMPDEST SWAP1 POP SWAP3 SWAP2 POP POP JUMP JUMPDEST PUSH0 PUSH1 0x40 DUP3 ADD SWAP1 POP PUSH2 0x25AB PUSH0 DUP4 ADD DUP6 PUSH2 0x1A73 JUMP JUMPDEST PUSH2 0x25B8 PUSH1 0x20 DUP4 ADD DUP5 PUSH2 0x1DA6 JUMP JUMPDEST SWAP4 SWAP3 POP POP POP JUMP JUMPDEST PUSH32 0x4F776E61626C653A2063616C6C6572206973206E6F7420746865206F776E6572 PUSH0 DUP3 ADD MSTORE POP JUMP JUMPDEST PUSH0 PUSH2 0x25F3 PUSH1 0x20 DUP4 PUSH2 0x1EFD JUMP JUMPDEST SWAP2 POP PUSH2 0x25FE DUP3 PUSH2 0x25BF JUMP JUMPDEST PUSH1 0x20 DUP3 ADD SWAP1 POP SWAP2 SWAP1 POP JUMP JUMPDEST PUSH0 PUSH1 0x20 DUP3 ADD SWAP1 POP DUP2 DUP2 SUB PUSH0 DUP4 ADD MSTORE PUSH2 0x2620 DUP2 PUSH2 0x25E7 JUMP JUMPDEST SWAP1 POP SWAP2 SWAP1 POP JUMP JUMPDEST PUSH0 PUSH2 0x2631 DUP3 PUSH2 0x1A6A JUMP JUMPDEST SWAP2 POP PUSH2 0x263C DUP4 PUSH2 0x1A6A JUMP JUMPDEST SWAP3 POP DUP3 DUP3 ADD SWAP1 POP DUP1 DUP3 GT ISZERO PUSH2 0x2654 JUMPI PUSH2 0x2653 PUSH2 0x200F JUMP JUMPDEST JUMPDEST SWAP3 SWAP2 POP POP JUMP JUMPDEST PUSH0 PUSH1 0x60 DUP3 ADD SWAP1 POP PUSH2 0x266D PUSH0 DUP4 ADD DUP7 PUSH2 0x1DA6 JUMP JUMPDEST PUSH2 0x267A PUSH1 0x20 DUP4 ADD DUP6 PUSH2 0x1DA6 JUMP JUMPDEST PUSH2 0x2687 PUSH1 0x40 DUP4 ADD DUP5 PUSH2 0x1A73 JUMP JUMPDEST SWAP5 SWAP4 POP POP POP POP JUMP JUMPDEST PUSH0 PUSH2 0x2699 DUP3 PUSH2 0x1A6A JUMP JUMPDEST SWAP2 POP PUSH2 0x26A4 DUP4 PUSH2 0x1A6A JUMP JUMPDEST SWAP3 POP DUP3 DUP3 SUB SWAP1 POP DUP2 DUP2 GT ISZERO PUSH2 0x26BC JUMPI PUSH2 0x26BB PUSH2 0x200F JUMP JUMPDEST JUMPDEST SWAP3 SWAP2 POP POP JUMP JUMPDEST PUSH32 0x4E487B7100000000000000000000000000000000000000000000000000000000 PUSH0 MSTORE PUSH1 0x41 PUSH1 0x4 MSTORE PUSH1 0x24 PUSH0 REVERT JUMPDEST PUSH0 PUSH1 0x40 DUP3 ADD SWAP1 POP PUSH2 0x2702 PUSH0 DUP4 ADD DUP6 PUSH2 0x1DA6 JUMP JUMPDEST PUSH2 0x270F PUSH1 0x20 DUP4 ADD DUP5 PUSH2 0x1C2B JUMP JUMPDEST SWAP4 SWAP3 POP POP POP JUMP JUMPDEST PUSH32 0x4D696E74546F457363726F77206572726F720000000000000000000000000000 PUSH0 DUP3 ADD MSTORE POP JUMP JUMPDEST PUSH0 PUSH2 0x274A PUSH1 0x12 DUP4 PUSH2 0x1EFD JUMP JUMPDEST SWAP2 POP PUSH2 0x2755 DUP3 PUSH2 0x2716 JUMP JUMPDEST PUSH1 0x20 DUP3 ADD SWAP1 POP SWAP2 SWAP1 POP JUMP JUMPDEST PUSH0 PUSH1 0x20 DUP3 ADD SWAP1 POP DUP2 DUP2 SUB PUSH0 DUP4 ADD MSTORE PUSH2 0x2777 DUP2 PUSH2 0x273E JUMP JUMPDEST SWAP1 POP SWAP2 SWAP1 POP JUMP INVALID LOG2 PUSH5 0x6970667358 0x22 SLT KECCAK256 SLT 0xAE MLOAD EXP MLOAD EXTCODECOPY 0x5E 0x4C 0xB9 0x5C 0x28 CHAINID 0xA5 0xA7 0xAB PUSH26 0xB13485BB89C324E7E1E7200F263C0BB664736F6C634300081500 CALLER "
		},
		"gasEstimates": {
			"creation": {
				"codeDepositCost": "2032800",
				"executionCost": "infinite",
				"totalCost": "infinite"
			},
			"external": {
				"QVEliquidityPool()": "infinite",
				"burnStakingGuarantee(uint256)": "infinite",
				"doQVEStake(uint256)": "infinite",
				"esQVEliquidityPool()": "infinite",
				"getInputedMarginCount()": "2524",
				"getNFTbalance_()": "infinite",
				"getNfts_()": "infinite",
				"getQVELiquidityAmount_()": "2505",
				"owner()": "2633",
				"qveEscrow()": "infinite",
				"qveStaking()": "infinite",
				"qveVesting()": "infinite",
				"qvenft()": "infinite",
				"qvetoken()": "infinite",
				"receiveAsset(uint256,bool)": "infinite",
				"renounceOwnership()": "30653",
				"shortenLockup(uint256,uint256)": "infinite",
				"transferOwnership(address)": "30905"
			},
			"internal": {
				"_addLiquidity(uint256)": "infinite",
				"_addUserMarginVault(address,uint256,uint256)": "infinite",
				"_botAddress()": "infinite",
				"_escrowQVE(uint256)": "infinite",
				"_issueGuaranteeNFT(address,uint256,bool)": "infinite",
				"_sendQVEFromLiquidity(address,uint256)": "infinite",
				"_subLiquidity(uint256)": "infinite",
				"makeQVEescrowedAndVesting(address,uint256)": "infinite",
				"stakeEth(uint256,bool)": "infinite"
			}
		},
		"methodIdentifiers": {
			"QVEliquidityPool()": "0e301d24",
			"burnStakingGuarantee(uint256)": "f366b27e",
			"doQVEStake(uint256)": "56289c29",
			"esQVEliquidityPool()": "0691badf",
			"getInputedMarginCount()": "8866b937",
			"getNFTbalance_()": "9f62e796",
			"getNfts_()": "5ac66993",
			"getQVELiquidityAmount_()": "1552e770",
			"owner()": "8da5cb5b",
			"qveEscrow()": "fdcdbae2",
			"qveStaking()": "2adcbebd",
			"qveVesting()": "f968217b",
			"qvenft()": "510b7f98",
			"qvetoken()": "2b1c4158",
			"receiveAsset(uint256,bool)": "fe35fb50",
			"renounceOwnership()": "715018a6",
			"shortenLockup(uint256,uint256)": "83ce6147",
			"transferOwnership(address)": "f2fde38b"
		}
	},
	"abi": [
		{
			"inputs": [
				{
					"internalType": "contract QVEtoken",
					"name": "_qveTokenAddress",
					"type": "address"
				},
				{
					"internalType": "contract QVEnft",
					"name": "_qvenft",
					"type": "address"
				},
				{
					"internalType": "contract QVEescrow",
					"name": "_qveEscrow",
					"type": "address"
				},
				{
					"internalType": "contract QVEvesting",
					"name": "_qveVesting",
					"type": "address"
				},
				{
					"internalType": "contract QVEstaking",
					"name": "_qveStaking",
					"type": "address"
				}
			],
			"stateMutability": "nonpayable",
			"type": "constructor"
		},
		{
			"anonymous": false,
			"inputs": [
				{
					"indexed": true,
					"internalType": "address",
					"name": "previousOwner",
					"type": "address"
				},
				{
					"indexed": true,
					"internalType": "address",
					"name": "newOwner",
					"type": "address"
				}
			],
			"name": "OwnershipTransferred",
			"type": "event"
		},
		{
			"inputs": [],
			"name": "QVEliquidityPool",
			"outputs": [
				{
					"internalType": "uint256",
					"name": "balance",
					"type": "uint256"
				},
				{
					"internalType": "uint256",
					"name": "at",
					"type": "uint256"
				}
			],
			"stateMutability": "view",
			"type": "function"
		},
		{
			"inputs": [
				{
					"internalType": "uint256",
					"name": "tokenId",
					"type": "uint256"
				}
			],
			"name": "burnStakingGuarantee",
			"outputs": [
				{
					"internalType": "bool",
					"name": "",
					"type": "bool"
				}
			],
			"stateMutability": "nonpayable",
			"type": "function"
		},
		{
			"inputs": [
				{
					"internalType": "uint256",
					"name": "qveStakeAmount",
					"type": "uint256"
				}
			],
			"name": "doQVEStake",
			"outputs": [
				{
					"internalType": "bool",
					"name": "",
					"type": "bool"
				}
			],
			"stateMutability": "nonpayable",
			"type": "function"
		},
		{
			"inputs": [],
			"name": "esQVEliquidityPool",
			"outputs": [
				{
					"internalType": "uint256",
					"name": "balance",
					"type": "uint256"
				},
				{
					"internalType": "uint256",
					"name": "at",
					"type": "uint256"
				}
			],
			"stateMutability": "view",
			"type": "function"
		},
		{
			"inputs": [],
			"name": "getInputedMarginCount",
			"outputs": [
				{
					"internalType": "uint256",
					"name": "",
					"type": "uint256"
				}
			],
			"stateMutability": "view",
			"type": "function"
		},
		{
			"inputs": [],
			"name": "getNFTbalance_",
			"outputs": [
				{
					"internalType": "uint256",
					"name": "",
					"type": "uint256"
				}
			],
			"stateMutability": "view",
			"type": "function"
		},
		{
			"inputs": [],
			"name": "getNfts_",
			"outputs": [
				{
					"components": [
						{
							"internalType": "uint256",
							"name": "tokenId",
							"type": "uint256"
						},
						{
							"internalType": "uint256",
							"name": "at",
							"type": "uint256"
						}
					],
					"internalType": "struct QVEcore.NFTFragment[]",
					"name": "",
					"type": "tuple[]"
				}
			],
			"stateMutability": "view",
			"type": "function"
		},
		{
			"inputs": [],
			"name": "getQVELiquidityAmount_",
			"outputs": [
				{
					"internalType": "uint256",
					"name": "",
					"type": "uint256"
				}
			],
			"stateMutability": "view",
			"type": "function"
		},
		{
			"inputs": [],
			"name": "owner",
			"outputs": [
				{
					"internalType": "address",
					"name": "",
					"type": "address"
				}
			],
			"stateMutability": "view",
			"type": "function"
		},
		{
			"inputs": [],
			"name": "qveEscrow",
			"outputs": [
				{
					"internalType": "contract QVEescrow",
					"name": "",
					"type": "address"
				}
			],
			"stateMutability": "view",
			"type": "function"
		},
		{
			"inputs": [],
			"name": "qveStaking",
			"outputs": [
				{
					"internalType": "contract QVEstaking",
					"name": "",
					"type": "address"
				}
			],
			"stateMutability": "view",
			"type": "function"
		},
		{
			"inputs": [],
			"name": "qveVesting",
			"outputs": [
				{
					"internalType": "contract QVEvesting",
					"name": "",
					"type": "address"
				}
			],
			"stateMutability": "view",
			"type": "function"
		},
		{
			"inputs": [],
			"name": "qvenft",
			"outputs": [
				{
					"internalType": "contract QVEnft",
					"name": "",
					"type": "address"
				}
			],
			"stateMutability": "view",
			"type": "function"
		},
		{
			"inputs": [],
			"name": "qvetoken",
			"outputs": [
				{
					"internalType": "contract QVEtoken",
					"name": "",
					"type": "address"
				}
			],
			"stateMutability": "view",
			"type": "function"
		},
		{
			"inputs": [
				{
					"internalType": "uint256",
					"name": "assetAmount",
					"type": "uint256"
				},
				{
					"internalType": "bool",
					"name": "lockup",
					"type": "bool"
				}
			],
			"name": "receiveAsset",
			"outputs": [
				{
					"internalType": "bool",
					"name": "",
					"type": "bool"
				}
			],
			"stateMutability": "payable",
			"type": "function"
		},
		{
			"inputs": [],
			"name": "renounceOwnership",
			"outputs": [],
			"stateMutability": "nonpayable",
			"type": "function"
		},
		{
			"inputs": [
				{
					"internalType": "uint256",
					"name": "qveAmount",
					"type": "uint256"
				},
				{
					"internalType": "uint256",
					"name": "tokenId",
					"type": "uint256"
				}
			],
			"name": "shortenLockup",
			"outputs": [
				{
					"internalType": "bool",
					"name": "",
					"type": "bool"
				}
			],
			"stateMutability": "nonpayable",
			"type": "function"
		},
		{
			"inputs": [
				{
					"internalType": "address",
					"name": "newOwner",
					"type": "address"
				}
			],
			"name": "transferOwnership",
			"outputs": [],
			"stateMutability": "nonpayable",
			"type": "function"
		}
	]
}