{
	"data": {
		"bytecode": {
			"linkReferences": {},
			"object": "60806040523480156200001157600080fd5b50604051620036f1380380620036f183398181016040528101906200003791906200048d565b620000576200004b620001e960201b60201c565b620001f160201b60201c565b85600260006101000a81548173ffffffffffffffffffffffffffffffffffffffff021916908373ffffffffffffffffffffffffffffffffffffffff16021790555084600360006101000a81548173ffffffffffffffffffffffffffffffffffffffff021916908373ffffffffffffffffffffffffffffffffffffffff16021790555083600460006101000a81548173ffffffffffffffffffffffffffffffffffffffff021916908373ffffffffffffffffffffffffffffffffffffffff16021790555082600560006101000a81548173ffffffffffffffffffffffffffffffffffffffff021916908373ffffffffffffffffffffffffffffffffffffffff16021790555081600660006101000a81548173ffffffffffffffffffffffffffffffffffffffff021916908373ffffffffffffffffffffffffffffffffffffffff16021790555080600760006101000a81548173ffffffffffffffffffffffffffffffffffffffff021916908373ffffffffffffffffffffffffffffffffffffffff16021790555050505050505062000529565b600033905090565b60008060019054906101000a900473ffffffffffffffffffffffffffffffffffffffff16905081600060016101000a81548173ffffffffffffffffffffffffffffffffffffffff021916908373ffffffffffffffffffffffffffffffffffffffff1602179055508173ffffffffffffffffffffffffffffffffffffffff168173ffffffffffffffffffffffffffffffffffffffff167f8be0079c531659141344cd1fd0a4f28419497f9722a3daafe3b4186f6b6457e060405160405180910390a35050565b600080fd5b600073ffffffffffffffffffffffffffffffffffffffff82169050919050565b6000620002e882620002bb565b9050919050565b6000620002fc82620002db565b9050919050565b6200030e81620002ef565b81146200031a57600080fd5b50565b6000815190506200032e8162000303565b92915050565b60006200034182620002db565b9050919050565b620003538162000334565b81146200035f57600080fd5b50565b600081519050620003738162000348565b92915050565b60006200038682620002db565b9050919050565b620003988162000379565b8114620003a457600080fd5b50565b600081519050620003b8816200038d565b92915050565b6000620003cb82620002db565b9050919050565b620003dd81620003be565b8114620003e957600080fd5b50565b600081519050620003fd81620003d2565b92915050565b60006200041082620002db565b9050919050565b620004228162000403565b81146200042e57600080fd5b50565b600081519050620004428162000417565b92915050565b60006200045582620002db565b9050919050565b620004678162000448565b81146200047357600080fd5b50565b60008151905062000487816200045c565b92915050565b60008060008060008060c08789031215620004ad57620004ac620002b6565b5b6000620004bd89828a016200031d565b9650506020620004d089828a0162000362565b9550506040620004e389828a01620003a7565b9450506060620004f689828a01620003ec565b93505060806200050989828a0162000431565b92505060a06200051c89828a0162000476565b9150509295509295509295565b6131b880620005396000396000f3fe60806040526004361061016a5760003560e01c806369394135116100d15780639f62e7961161008a578063eff8c54711610064578063eff8c547146105bc578063f2fde38b146105f9578063f968217b14610622578063fdcdbae21461064d576101bf565b80639f62e79614610529578063d08b8d6a14610554578063ef071bcd14610591576101bf565b80636939413514610417578063715018a6146104425780637a378e051461045957806383ce6147146104965780638866b937146104d35780638da5cb5b146104fe576101bf565b80632e64b7d4116101235780632e64b7d4146102da5780632f3f1730146103175780634d2301cc14610347578063510b7f981461038457806356289c29146103af5780635ac66993146103ec576101bf565b80630691badf146101c45780630e301d24146101f05780631552e7701461021c5780631eb5c7ae146102475780632adcbebd146102845780632b1c4158146102af576101bf565b366101bf573373ffffffffffffffffffffffffffffffffffffffff167f88a5966d370b9919b20f3e2c13ff65706f196a4e32cc2c12bf57088f88525874346040516101b59190612191565b60405180910390a2005b600080fd5b3480156101d057600080fd5b506101d9610678565b6040516101e79291906121ac565b60405180910390f35b3480156101fc57600080fd5b5061020561068a565b6040516102139291906121ac565b60405180910390f35b34801561022857600080fd5b5061023161069c565b60405161023e9190612191565b60405180910390f35b34801561025357600080fd5b5061026e60048036038101906102699190612206565b6106a9565b60405161027b9190612191565b60405180910390f35b34801561029057600080fd5b506102996106c6565b6040516102a691906122b2565b60405180910390f35b3480156102bb57600080fd5b506102c46106ec565b6040516102d191906122ee565b60405180910390f35b3480156102e657600080fd5b5061030160048036038101906102fc9190612206565b610712565b60405161030e9190612324565b60405180910390f35b610331600480360381019061032c919061236b565b6107ac565b60405161033e9190612324565b60405180910390f35b34801561035357600080fd5b5061036e600480360381019061036991906123e9565b6108ed565b60405161037b9190612191565b60405180910390f35b34801561039057600080fd5b5061039961090e565b6040516103a69190612437565b60405180910390f35b3480156103bb57600080fd5b506103d660048036038101906103d19190612206565b610934565b6040516103e39190612324565b60405180910390f35b3480156103f857600080fd5b50610401610b62565b60405161040e919061253f565b60405180910390f35b34801561042357600080fd5b5061042c610c15565b6040516104399190612582565b60405180910390f35b34801561044e57600080fd5b50610457610c3b565b005b34801561046557600080fd5b50610480600480360381019061047b9190612206565b610c4f565b60405161048d9190612324565b60405180910390f35b3480156104a257600080fd5b506104bd60048036038101906104b8919061259d565b610f18565b6040516104ca9190612324565b60405180910390f35b3480156104df57600080fd5b506104e8611048565b6040516104f59190612191565b60405180910390f35b34801561050a57600080fd5b50610513611059565b60405161052091906125ec565b60405180910390f35b34801561053557600080fd5b5061053e611082565b60405161054b9190612191565b60405180910390f35b34801561056057600080fd5b5061057b60048036038101906105769190612607565b611125565b6040516105889190612324565b60405180910390f35b34801561059d57600080fd5b506105a661128b565b6040516105b3919061282b565b60405180910390f35b3480156105c857600080fd5b506105e360048036038101906105de9190612206565b6113b7565b6040516105f09190612324565b60405180910390f35b34801561060557600080fd5b50610620600480360381019061061b91906123e9565b611451565b005b34801561062e57600080fd5b506106376114d4565b604051610644919061286e565b60405180910390f35b34801561065957600080fd5b506106626114fa565b60405161066f91906128aa565b60405180910390f35b600d8060000154908060010154905082565b600b8060000154908060010154905082565b6000600b60000154905090565b600060096000838152602001908152602001600020549050919050565b600660009054906101000a900473ffffffffffffffffffffffffffffffffffffffff1681565b600260009054906101000a900473ffffffffffffffffffffffffffffffffffffffff1681565b6000600760009054906101000a900473ffffffffffffffffffffffffffffffffffffffff1673ffffffffffffffffffffffffffffffffffffffff16636527b55d83336040518363ffffffff1660e01b81526004016107719291906128c5565b600060405180830381600087803b15801561078b57600080fd5b505af115801561079f573d6000803e3d6000fd5b5050505060019050919050565b600081341460405180606001604052806039815260200161314a603991399061080b576040517f08c379a0000000000000000000000000000000000000000000000000000000008152600401610802919061297e565b60405180910390fd5b50600061081734611520565b6040516020016108279190612a9a565b6040516020818303038152906040529050600360009054906101000a900473ffffffffffffffffffffffffffffffffffffffff1673ffffffffffffffffffffffffffffffffffffffff16630890d80c826040518263ffffffff1660e01b81526004016108939190612bab565b6020604051808303816000875af11580156108b2573d6000803e3d6000fd5b505050506040513d601f19601f820116820180604052508101906108d69190612c08565b506108e134856115ee565b50600191505092915050565b60008173ffffffffffffffffffffffffffffffffffffffff16319050919050565b600360009054906101000a900473ffffffffffffffffffffffffffffffffffffffff1681565b60008060009054906101000a900460ff1615610985576040517f08c379a000000000000000000000000000000000000000000000000000000000815260040161097c90612c81565b60405180910390fd5b60016000806101000a81548160ff0219169083151502179055506109ec336109e760646109d9600a60ff166109cb670de0b6b3a76400008961169690919063ffffffff16565b61169690919063ffffffff16565b6116ac90919063ffffffff16565b6116c2565b610a2b576040517f08c379a0000000000000000000000000000000000000000000000000000000008152600401610a2290612d13565b60405180910390fd5b600660009054906101000a900473ffffffffffffffffffffffffffffffffffffffff1673ffffffffffffffffffffffffffffffffffffffff1663adc9772e33610aa06064610a92600a6064610a809190612d6f565b60ff168861169690919063ffffffff16565b6116ac90919063ffffffff16565b6040518363ffffffff1660e01b8152600401610abd929190612da4565b6020604051808303816000875af1158015610adc573d6000803e3d6000fd5b505050506040513d601f19601f82011682018060405250810190610b009190612c08565b610b3f576040517f08c379a0000000000000000000000000000000000000000000000000000000008152600401610b3690612e19565b60405180910390fd5b6001905060008060006101000a81548160ff021916908315150217905550919050565b6060600860003373ffffffffffffffffffffffffffffffffffffffff1673ffffffffffffffffffffffffffffffffffffffff168152602001908152602001600020600001805480602002602001604051908101604052809291908181526020016000905b82821015610c0c57838290600052602060002090600202016040518060400160405290816000820154815260200160018201548152505081526020019060010190610bc6565b50505050905090565b600760009054906101000a900473ffffffffffffffffffffffffffffffffffffffff1681565b610c43611932565b610c4d60006119b0565b565b60003373ffffffffffffffffffffffffffffffffffffffff16600a600084815260200190815260200160002060009054906101000a900473ffffffffffffffffffffffffffffffffffffffff1673ffffffffffffffffffffffffffffffffffffffff16146040518060400160405280601f81526020017f5761726e696e67203a20596f7520617265206e6f74204e4654206f776e65720081525090610d2a576040517f08c379a0000000000000000000000000000000000000000000000000000000008152600401610d21919061297e565b60405180910390fd5b50600360009054906101000a900473ffffffffffffffffffffffffffffffffffffffff1673ffffffffffffffffffffffffffffffffffffffff16632890e0d7836040518263ffffffff1660e01b8152600401610d869190612191565b6020604051808303816000875af1158015610da5573d6000803e3d6000fd5b505050506040513d601f19601f82011682018060405250810190610dc99190612c08565b50600260009054906101000a900473ffffffffffffffffffffffffffffffffffffffff1673ffffffffffffffffffffffffffffffffffffffff16635f367b0333610e37670de0b6b3a7640000600960008881526020019081526020016000205461169690919063ffffffff16565b6040518363ffffffff1660e01b8152600401610e54929190612da4565b6020604051808303816000875af1158015610e73573d6000803e3d6000fd5b505050506040513d601f19601f82011682018060405250810190610e979190612c08565b6040518060400160405280601981526020017f5761726e696e67203a205472616e73666572206661696c65640000000000000081525090610f0e576040517f08c379a0000000000000000000000000000000000000000000000000000000008152600401610f05919061297e565b60405180910390fd5b5060019050919050565b6000600360009054906101000a900473ffffffffffffffffffffffffffffffffffffffff1673ffffffffffffffffffffffffffffffffffffffff1663b2c3a7178430856040518463ffffffff1660e01b8152600401610f7993929190612e39565b6020604051808303816000875af1158015610f98573d6000803e3d6000fd5b505050506040513d601f19601f82011682018060405250810190610fbc9190612c08565b6040518060400160405280601881526020017f5761726e696e67203a204c6f636b75702053686f7274656e000000000000000081525090611033576040517f08c379a000000000000000000000000000000000000000000000000000000000815260040161102a919061297e565b60405180910390fd5b5061103d83611a75565b506001905092915050565b60006110546001611aa6565b905090565b60008060019054906101000a900473ffffffffffffffffffffffffffffffffffffffff16905090565b6000600360009054906101000a900473ffffffffffffffffffffffffffffffffffffffff1673ffffffffffffffffffffffffffffffffffffffff166370a08231336040518263ffffffff1660e01b81526004016110df91906125ec565b602060405180830381865afa1580156110fc573d6000803e3d6000fd5b505050506040513d601f19601f820116820180604052508101906111209190612e85565b905090565b6000600260009054906101000a900473ffffffffffffffffffffffffffffffffffffffff1673ffffffffffffffffffffffffffffffffffffffff1663469895c83085611182670de0b6b3a76400008761169690919063ffffffff16565b6040518463ffffffff1660e01b81526004016111a093929190612eb2565b6020604051808303816000875af11580156111bf573d6000803e3d6000fd5b505050506040513d601f19601f820116820180604052508101906111e39190612c08565b6040518060400160405280601981526020017f5761726e696e67203a205472616e73666572206661696c6564000000000000008152509061125a576040517f08c379a0000000000000000000000000000000000000000000000000000000008152600401611251919061297e565b60405180910390fd5b5081600b60000160008282546112709190612ee9565b9250508190555042600b600101819055506001905092915050565b61129361215e565b600f60003373ffffffffffffffffffffffffffffffffffffffff1673ffffffffffffffffffffffffffffffffffffffff16815260200190815260200160002060405180604001604052908160008201805480602002602001604051908101604052809291908181526020016000905b828210156113525783829060005260206000209060030201604051806060016040529081600082015481526020016001820154815260200160028201548152505081526020019060010190611302565b505050508152602001600182018054806020026020016040519081016040528092919081815260200182805480156113a957602002820191906000526020600020905b815481526020019060010190808311611395575b505050505081525050905090565b6000600760009054906101000a900473ffffffffffffffffffffffffffffffffffffffff1673ffffffffffffffffffffffffffffffffffffffff1663c663a10783336040518363ffffffff1660e01b81526004016114169291906128c5565b600060405180830381600087803b15801561143057600080fd5b505af1158015611444573d6000803e3d6000fd5b5050505060019050919050565b611459611932565b600073ffffffffffffffffffffffffffffffffffffffff168173ffffffffffffffffffffffffffffffffffffffff16036114c8576040517f08c379a00000000000000000000000000000000000000000000000000000000081526004016114bf90612f8f565b60405180910390fd5b6114d1816119b0565b50565b600560009054906101000a900473ffffffffffffffffffffffffffffffffffffffff1681565b600460009054906101000a900473ffffffffffffffffffffffffffffffffffffffff1681565b60606000600161152f84611ab4565b01905060008167ffffffffffffffff81111561154e5761154d612faf565b5b6040519080825280601f01601f1916602001820160405280156115805781602001600182028036833780820191505090505b509050600082602001820190505b6001156115e3578080600190039150507f3031323334353637383961626364656600000000000000000000000000000000600a86061a8153600a85816115d7576115d6612fde565b5b0494506000850361158e575b819350505050919050565b6000806115fc338585611c07565b9050611609338583612007565b6040518060400160405280600f81526020017f5761726e696e67203a205661756c74000000000000000000000000000000000081525090611680576040517f08c379a0000000000000000000000000000000000000000000000000000000008152600401611677919061297e565b60405180910390fd5b5061168b6001612140565b600191505092915050565b600081836116a4919061300d565b905092915050565b600081836116ba919061304f565b905092915050565b6000600460009054906101000a900473ffffffffffffffffffffffffffffffffffffffff1673ffffffffffffffffffffffffffffffffffffffff166344570b3f8461171e670de0b6b3a76400008661169690919063ffffffff16565b6040518363ffffffff1660e01b815260040161173b929190612da4565b6020604051808303816000875af115801561175a573d6000803e3d6000fd5b505050506040513d601f19601f8201168201806040525081019061177e9190612c08565b6040518060400160405280601a81526020017f5761726e696e67203a2051564520457363726f77206572726f72000000000000815250906117f5576040517f08c379a00000000000000000000000000000000000000000000000000000000081526004016117ec919061297e565b60405180910390fd5b50600560009054906101000a900473ffffffffffffffffffffffffffffffffffffffff1673ffffffffffffffffffffffffffffffffffffffff1663cdb51cdf61184f670de0b6b3a76400008561169690919063ffffffff16565b856040518363ffffffff1660e01b815260040161186d9291906128c5565b6020604051808303816000875af115801561188c573d6000803e3d6000fd5b505050506040513d601f19601f820116820180604052508101906118b09190612c08565b6040518060400160405280601581526020017f5761726e696e67203a205156452056657374696e67000000000000000000000081525090611927576040517f08c379a000000000000000000000000000000000000000000000000000000000815260040161191e919061297e565b60405180910390fd5b506001905092915050565b61193a612156565b73ffffffffffffffffffffffffffffffffffffffff16611958611059565b73ffffffffffffffffffffffffffffffffffffffff16146119ae576040517f08c379a00000000000000000000000000000000000000000000000000000000081526004016119a5906130cc565b60405180910390fd5b565b60008060019054906101000a900473ffffffffffffffffffffffffffffffffffffffff16905081600060016101000a81548173ffffffffffffffffffffffffffffffffffffffff021916908373ffffffffffffffffffffffffffffffffffffffff1602179055508173ffffffffffffffffffffffffffffffffffffffff168173ffffffffffffffffffffffffffffffffffffffff167f8be0079c531659141344cd1fd0a4f28419497f9722a3daafe3b4186f6b6457e060405160405180910390a35050565b600081600b6000016000828254611a8c91906130ec565b9250508190555042600b6001018190555060019050919050565b600081600001549050919050565b600080600090507a184f03e93ff9f4daa797ed6e38ed64bf6a1f0100000000000000008310611b12577a184f03e93ff9f4daa797ed6e38ed64bf6a1f0100000000000000008381611b0857611b07612fde565b5b0492506040810190505b6d04ee2d6d415b85acef81000000008310611b4f576d04ee2d6d415b85acef81000000008381611b4557611b44612fde565b5b0492506020810190505b662386f26fc100008310611b7e57662386f26fc100008381611b7457611b73612fde565b5b0492506010810190505b6305f5e1008310611ba7576305f5e1008381611b9d57611b9c612fde565b5b0492506008810190505b6127108310611bcc576127108381611bc257611bc1612fde565b5b0492506004810190505b60648310611bef5760648381611be557611be4612fde565b5b0492506002810190505b600a8310611bfe576001810190505b80915050919050565b60008060009054906101000a900460ff1615611c58576040517f08c379a0000000000000000000000000000000000000000000000000000000008152600401611c4f90612c81565b60405180910390fd5b60016000806101000a81548160ff0219169083151502179055506000600360009054906101000a900473ffffffffffffffffffffffffffffffffffffffff1673ffffffffffffffffffffffffffffffffffffffff1663f42c69d686856040518363ffffffff1660e01b8152600401611cd1929190613120565b6020604051808303816000875af1158015611cf0573d6000803e3d6000fd5b505050506040513d601f19601f82011682018060405250810190611d149190612e85565b9050600860008673ffffffffffffffffffffffffffffffffffffffff1673ffffffffffffffffffffffffffffffffffffffff168152602001908152602001600020600001604051806040016040528083815260200142815250908060018154018082558091505060019003906000526020600020906002020160009091909190915060008201518160000155602082015181600101555050611db7338583612007565b5084600a600083815260200190815260200160002060006101000a81548173ffffffffffffffffffffffffffffffffffffffff021916908373ffffffffffffffffffffffffffffffffffffffff1602179055508215611fe257600560009054906101000a900473ffffffffffffffffffffffffffffffffffffffff1673ffffffffffffffffffffffffffffffffffffffff1663cdb51cdf600460009054906101000a900473ffffffffffffffffffffffffffffffffffffffff1673ffffffffffffffffffffffffffffffffffffffff166308c70bb933611ea8670de0b6b3a76400008a61169690919063ffffffff16565b6040518363ffffffff1660e01b8152600401611ec5929190612da4565b6020604051808303816000875af1158015611ee4573d6000803e3d6000fd5b505050506040513d601f19601f82011682018060405250810190611f089190612e85565b336040518363ffffffff1660e01b8152600401611f269291906128c5565b6020604051808303816000875af1158015611f45573d6000803e3d6000fd5b505050506040513d601f19601f82011682018060405250810190611f699190612c08565b6040518060400160405280601581526020017f5761726e696e67203a205156452056657374696e67000000000000000000000081525090611fe0576040517f08c379a0000000000000000000000000000000000000000000000000000000008152600401611fd7919061297e565b60405180910390fd5b505b8091505060008060006101000a81548160ff0219169083151502179055509392505050565b600080600f60008673ffffffffffffffffffffffffffffffffffffffff1673ffffffffffffffffffffffffffffffffffffffff16815260200190815260200160002060000190508060405180606001604052808681526020014281526020018581525090806001815401808255809150506001900390600052602060002090600302016000909190919091506000820151816000015560208201518160010155604082015181600201555050600f60008673ffffffffffffffffffffffffffffffffffffffff1673ffffffffffffffffffffffffffffffffffffffff16815260200190815260200160002060010183908060018154018082558091505060019003906000526020600020016000909190919091505583600960008581526020019081526020016000208190555060019150509392505050565b6001816000016000828254019250508190555050565b600033905090565b604051806040016040528060608152602001606081525090565b6000819050919050565b61218b81612178565b82525050565b60006020820190506121a66000830184612182565b92915050565b60006040820190506121c16000830185612182565b6121ce6020830184612182565b9392505050565b600080fd5b6121e381612178565b81146121ee57600080fd5b50565b600081359050612200816121da565b92915050565b60006020828403121561221c5761221b6121d5565b5b600061222a848285016121f1565b91505092915050565b600073ffffffffffffffffffffffffffffffffffffffff82169050919050565b6000819050919050565b600061227861227361226e84612233565b612253565b612233565b9050919050565b600061228a8261225d565b9050919050565b600061229c8261227f565b9050919050565b6122ac81612291565b82525050565b60006020820190506122c760008301846122a3565b92915050565b60006122d88261227f565b9050919050565b6122e8816122cd565b82525050565b600060208201905061230360008301846122df565b92915050565b60008115159050919050565b61231e81612309565b82525050565b60006020820190506123396000830184612315565b92915050565b61234881612309565b811461235357600080fd5b50565b6000813590506123658161233f565b92915050565b60008060408385031215612382576123816121d5565b5b600061239085828601612356565b92505060206123a1858286016121f1565b9150509250929050565b60006123b682612233565b9050919050565b6123c6816123ab565b81146123d157600080fd5b50565b6000813590506123e3816123bd565b92915050565b6000602082840312156123ff576123fe6121d5565b5b600061240d848285016123d4565b91505092915050565b60006124218261227f565b9050919050565b61243181612416565b82525050565b600060208201905061244c6000830184612428565b92915050565b600081519050919050565b600082825260208201905092915050565b6000819050602082019050919050565b61248781612178565b82525050565b6040820160008201516124a3600085018261247e565b5060208201516124b6602085018261247e565b50505050565b60006124c8838361248d565b60408301905092915050565b6000602082019050919050565b60006124ec82612452565b6124f6818561245d565b93506125018361246e565b8060005b8381101561253257815161251988826124bc565b9750612524836124d4565b925050600181019050612505565b5085935050505092915050565b6000602082019050818103600083015261255981846124e1565b905092915050565b600061256c8261227f565b9050919050565b61257c81612561565b82525050565b60006020820190506125976000830184612573565b92915050565b600080604083850312156125b4576125b36121d5565b5b60006125c2858286016121f1565b92505060206125d3858286016121f1565b9150509250929050565b6125e6816123ab565b82525050565b600060208201905061260160008301846125dd565b92915050565b6000806040838503121561261e5761261d6121d5565b5b600061262c858286016123d4565b925050602061263d858286016121f1565b9150509250929050565b600081519050919050565b600082825260208201905092915050565b6000819050602082019050919050565b606082016000820151612689600085018261247e565b50602082015161269c602085018261247e565b5060408201516126af604085018261247e565b50505050565b60006126c18383612673565b60608301905092915050565b6000602082019050919050565b60006126e582612647565b6126ef8185612652565b93506126fa83612663565b8060005b8381101561272b57815161271288826126b5565b975061271d836126cd565b9250506001810190506126fe565b5085935050505092915050565b600081519050919050565b600082825260208201905092915050565b6000819050602082019050919050565b6000612770838361247e565b60208301905092915050565b6000602082019050919050565b600061279482612738565b61279e8185612743565b93506127a983612754565b8060005b838110156127da5781516127c18882612764565b97506127cc8361277c565b9250506001810190506127ad565b5085935050505092915050565b6000604083016000830151848203600086015261280482826126da565b9150506020830151848203602086015261281e8282612789565b9150508091505092915050565b6000602082019050818103600083015261284581846127e7565b905092915050565b60006128588261227f565b9050919050565b6128688161284d565b82525050565b6000602082019050612883600083018461285f565b92915050565b60006128948261227f565b9050919050565b6128a481612889565b82525050565b60006020820190506128bf600083018461289b565b92915050565b60006040820190506128da6000830185612182565b6128e760208301846125dd565b9392505050565b600081519050919050565b600082825260208201905092915050565b60005b8381101561292857808201518184015260208101905061290d565b60008484015250505050565b6000601f19601f8301169050919050565b6000612950826128ee565b61295a81856128f9565b935061296a81856020860161290a565b61297381612934565b840191505092915050565b600060208201905081810360008301526129988184612945565b905092915050565b600081905092915050565b7f5b47756172616e7465656420496e766573746d656e74204d617267696e5d2d2d60008201527f3a00000000000000000000000000000000000000000000000000000000000000602082015250565b6000612a076021836129a0565b9150612a12826129ab565b602182019050919050565b6000612a28826128ee565b612a3281856129a0565b9350612a4281856020860161290a565b80840191505092915050565b7f5745490000000000000000000000000000000000000000000000000000000000600082015250565b6000612a846003836129a0565b9150612a8f82612a4e565b600382019050919050565b6000612aa5826129fa565b9150612ab18284612a1d565b9150612abc82612a77565b915081905092915050565b7f5374616b696e672047756172616e746565204361726400000000000000000000600082015250565b6000612afd6016836128f9565b9150612b0882612ac7565b602082019050919050565b7f68747470733a2f2f697066732e696f2f697066732f516d5155756d713869596360008201527f41395838756f61664d325955384c6579794d4b7a554e32484635464770364e7060208201527f5845563f66696c656e616d653d47726f7570253230343538342e6a7067000000604082015250565b6000612b95605d836128f9565b9150612ba082612b13565b606082019050919050565b60006060820190508181036000830152612bc481612af0565b90508181036020830152612bd88184612945565b90508181036040830152612beb81612b88565b905092915050565b600081519050612c028161233f565b92915050565b600060208284031215612c1e57612c1d6121d5565b5b6000612c2c84828501612bf3565b91505092915050565b7f4e6f205265456e7472616e637900000000000000000000000000000000000000600082015250565b6000612c6b600d836128f9565b9150612c7682612c35565b602082019050919050565b60006020820190508181036000830152612c9a81612c5e565b9050919050565b7f4572726f7220696e204d616b652051564520657363726f77656420616e64205660008201527f657374696e670000000000000000000000000000000000000000000000000000602082015250565b6000612cfd6026836128f9565b9150612d0882612ca1565b604082019050919050565b60006020820190508181036000830152612d2c81612cf0565b9050919050565b600060ff82169050919050565b7f4e487b7100000000000000000000000000000000000000000000000000000000600052601160045260246000fd5b6000612d7a82612d33565b9150612d8583612d33565b9250828203905060ff811115612d9e57612d9d612d40565b5b92915050565b6000604082019050612db960008301856125dd565b612dc66020830184612182565b9392505050565b7f4572726f7220696e20515645207374616b696e67000000000000000000000000600082015250565b6000612e036014836128f9565b9150612e0e82612dcd565b602082019050919050565b60006020820190508181036000830152612e3281612df6565b9050919050565b6000606082019050612e4e6000830186612182565b612e5b60208301856125dd565b612e686040830184612182565b949350505050565b600081519050612e7f816121da565b92915050565b600060208284031215612e9b57612e9a6121d5565b5b6000612ea984828501612e70565b91505092915050565b6000606082019050612ec760008301866125dd565b612ed460208301856125dd565b612ee16040830184612182565b949350505050565b6000612ef482612178565b9150612eff83612178565b9250828203905081811115612f1757612f16612d40565b5b92915050565b7f4f776e61626c653a206e6577206f776e657220697320746865207a65726f206160008201527f6464726573730000000000000000000000000000000000000000000000000000602082015250565b6000612f796026836128f9565b9150612f8482612f1d565b604082019050919050565b60006020820190508181036000830152612fa881612f6c565b9050919050565b7f4e487b7100000000000000000000000000000000000000000000000000000000600052604160045260246000fd5b7f4e487b7100000000000000000000000000000000000000000000000000000000600052601260045260246000fd5b600061301882612178565b915061302383612178565b925082820261303181612178565b9150828204841483151761304857613047612d40565b5b5092915050565b600061305a82612178565b915061306583612178565b92508261307557613074612fde565b5b828204905092915050565b7f4f776e61626c653a2063616c6c6572206973206e6f7420746865206f776e6572600082015250565b60006130b66020836128f9565b91506130c182613080565b602082019050919050565b600060208201905081810360008301526130e5816130a9565b9050919050565b60006130f782612178565b915061310283612178565b925082820190508082111561311a57613119612d40565b5b92915050565b600060408201905061313560008301856125dd565b6131426020830184612315565b939250505056fe5761726e696e67203a2053656e742045746820416d6f756e7420616e642057616e74656420416d6f756e742061726520646966666572656e74a264697066735822122098e5482eb4ddbc88f21952ed157997186795f7f8f654ee39bec9d8a349a10f4064736f6c63430008120033",
			"opcodes": "PUSH1 0x80 PUSH1 0x40 MSTORE CALLVALUE DUP1 ISZERO PUSH3 0x11 JUMPI PUSH1 0x0 DUP1 REVERT JUMPDEST POP PUSH1 0x40 MLOAD PUSH3 0x36F1 CODESIZE SUB DUP1 PUSH3 0x36F1 DUP4 CODECOPY DUP2 DUP2 ADD PUSH1 0x40 MSTORE DUP2 ADD SWAP1 PUSH3 0x37 SWAP2 SWAP1 PUSH3 0x48D JUMP JUMPDEST PUSH3 0x57 PUSH3 0x4B PUSH3 0x1E9 PUSH1 0x20 SHL PUSH1 0x20 SHR JUMP JUMPDEST PUSH3 0x1F1 PUSH1 0x20 SHL PUSH1 0x20 SHR JUMP JUMPDEST DUP6 PUSH1 0x2 PUSH1 0x0 PUSH2 0x100 EXP DUP2 SLOAD DUP2 PUSH20 0xFFFFFFFFFFFFFFFFFFFFFFFFFFFFFFFFFFFFFFFF MUL NOT AND SWAP1 DUP4 PUSH20 0xFFFFFFFFFFFFFFFFFFFFFFFFFFFFFFFFFFFFFFFF AND MUL OR SWAP1 SSTORE POP DUP5 PUSH1 0x3 PUSH1 0x0 PUSH2 0x100 EXP DUP2 SLOAD DUP2 PUSH20 0xFFFFFFFFFFFFFFFFFFFFFFFFFFFFFFFFFFFFFFFF MUL NOT AND SWAP1 DUP4 PUSH20 0xFFFFFFFFFFFFFFFFFFFFFFFFFFFFFFFFFFFFFFFF AND MUL OR SWAP1 SSTORE POP DUP4 PUSH1 0x4 PUSH1 0x0 PUSH2 0x100 EXP DUP2 SLOAD DUP2 PUSH20 0xFFFFFFFFFFFFFFFFFFFFFFFFFFFFFFFFFFFFFFFF MUL NOT AND SWAP1 DUP4 PUSH20 0xFFFFFFFFFFFFFFFFFFFFFFFFFFFFFFFFFFFFFFFF AND MUL OR SWAP1 SSTORE POP DUP3 PUSH1 0x5 PUSH1 0x0 PUSH2 0x100 EXP DUP2 SLOAD DUP2 PUSH20 0xFFFFFFFFFFFFFFFFFFFFFFFFFFFFFFFFFFFFFFFF MUL NOT AND SWAP1 DUP4 PUSH20 0xFFFFFFFFFFFFFFFFFFFFFFFFFFFFFFFFFFFFFFFF AND MUL OR SWAP1 SSTORE POP DUP2 PUSH1 0x6 PUSH1 0x0 PUSH2 0x100 EXP DUP2 SLOAD DUP2 PUSH20 0xFFFFFFFFFFFFFFFFFFFFFFFFFFFFFFFFFFFFFFFF MUL NOT AND SWAP1 DUP4 PUSH20 0xFFFFFFFFFFFFFFFFFFFFFFFFFFFFFFFFFFFFFFFF AND MUL OR SWAP1 SSTORE POP DUP1 PUSH1 0x7 PUSH1 0x0 PUSH2 0x100 EXP DUP2 SLOAD DUP2 PUSH20 0xFFFFFFFFFFFFFFFFFFFFFFFFFFFFFFFFFFFFFFFF MUL NOT AND SWAP1 DUP4 PUSH20 0xFFFFFFFFFFFFFFFFFFFFFFFFFFFFFFFFFFFFFFFF AND MUL OR SWAP1 SSTORE POP POP POP POP POP POP POP PUSH3 0x529 JUMP JUMPDEST PUSH1 0x0 CALLER SWAP1 POP SWAP1 JUMP JUMPDEST PUSH1 0x0 DUP1 PUSH1 0x1 SWAP1 SLOAD SWAP1 PUSH2 0x100 EXP SWAP1 DIV PUSH20 0xFFFFFFFFFFFFFFFFFFFFFFFFFFFFFFFFFFFFFFFF AND SWAP1 POP DUP2 PUSH1 0x0 PUSH1 0x1 PUSH2 0x100 EXP DUP2 SLOAD DUP2 PUSH20 0xFFFFFFFFFFFFFFFFFFFFFFFFFFFFFFFFFFFFFFFF MUL NOT AND SWAP1 DUP4 PUSH20 0xFFFFFFFFFFFFFFFFFFFFFFFFFFFFFFFFFFFFFFFF AND MUL OR SWAP1 SSTORE POP DUP2 PUSH20 0xFFFFFFFFFFFFFFFFFFFFFFFFFFFFFFFFFFFFFFFF AND DUP2 PUSH20 0xFFFFFFFFFFFFFFFFFFFFFFFFFFFFFFFFFFFFFFFF AND PUSH32 0x8BE0079C531659141344CD1FD0A4F28419497F9722A3DAAFE3B4186F6B6457E0 PUSH1 0x40 MLOAD PUSH1 0x40 MLOAD DUP1 SWAP2 SUB SWAP1 LOG3 POP POP JUMP JUMPDEST PUSH1 0x0 DUP1 REVERT JUMPDEST PUSH1 0x0 PUSH20 0xFFFFFFFFFFFFFFFFFFFFFFFFFFFFFFFFFFFFFFFF DUP3 AND SWAP1 POP SWAP2 SWAP1 POP JUMP JUMPDEST PUSH1 0x0 PUSH3 0x2E8 DUP3 PUSH3 0x2BB JUMP JUMPDEST SWAP1 POP SWAP2 SWAP1 POP JUMP JUMPDEST PUSH1 0x0 PUSH3 0x2FC DUP3 PUSH3 0x2DB JUMP JUMPDEST SWAP1 POP SWAP2 SWAP1 POP JUMP JUMPDEST PUSH3 0x30E DUP2 PUSH3 0x2EF JUMP JUMPDEST DUP2 EQ PUSH3 0x31A JUMPI PUSH1 0x0 DUP1 REVERT JUMPDEST POP JUMP JUMPDEST PUSH1 0x0 DUP2 MLOAD SWAP1 POP PUSH3 0x32E DUP2 PUSH3 0x303 JUMP JUMPDEST SWAP3 SWAP2 POP POP JUMP JUMPDEST PUSH1 0x0 PUSH3 0x341 DUP3 PUSH3 0x2DB JUMP JUMPDEST SWAP1 POP SWAP2 SWAP1 POP JUMP JUMPDEST PUSH3 0x353 DUP2 PUSH3 0x334 JUMP JUMPDEST DUP2 EQ PUSH3 0x35F JUMPI PUSH1 0x0 DUP1 REVERT JUMPDEST POP JUMP JUMPDEST PUSH1 0x0 DUP2 MLOAD SWAP1 POP PUSH3 0x373 DUP2 PUSH3 0x348 JUMP JUMPDEST SWAP3 SWAP2 POP POP JUMP JUMPDEST PUSH1 0x0 PUSH3 0x386 DUP3 PUSH3 0x2DB JUMP JUMPDEST SWAP1 POP SWAP2 SWAP1 POP JUMP JUMPDEST PUSH3 0x398 DUP2 PUSH3 0x379 JUMP JUMPDEST DUP2 EQ PUSH3 0x3A4 JUMPI PUSH1 0x0 DUP1 REVERT JUMPDEST POP JUMP JUMPDEST PUSH1 0x0 DUP2 MLOAD SWAP1 POP PUSH3 0x3B8 DUP2 PUSH3 0x38D JUMP JUMPDEST SWAP3 SWAP2 POP POP JUMP JUMPDEST PUSH1 0x0 PUSH3 0x3CB DUP3 PUSH3 0x2DB JUMP JUMPDEST SWAP1 POP SWAP2 SWAP1 POP JUMP JUMPDEST PUSH3 0x3DD DUP2 PUSH3 0x3BE JUMP JUMPDEST DUP2 EQ PUSH3 0x3E9 JUMPI PUSH1 0x0 DUP1 REVERT JUMPDEST POP JUMP JUMPDEST PUSH1 0x0 DUP2 MLOAD SWAP1 POP PUSH3 0x3FD DUP2 PUSH3 0x3D2 JUMP JUMPDEST SWAP3 SWAP2 POP POP JUMP JUMPDEST PUSH1 0x0 PUSH3 0x410 DUP3 PUSH3 0x2DB JUMP JUMPDEST SWAP1 POP SWAP2 SWAP1 POP JUMP JUMPDEST PUSH3 0x422 DUP2 PUSH3 0x403 JUMP JUMPDEST DUP2 EQ PUSH3 0x42E JUMPI PUSH1 0x0 DUP1 REVERT JUMPDEST POP JUMP JUMPDEST PUSH1 0x0 DUP2 MLOAD SWAP1 POP PUSH3 0x442 DUP2 PUSH3 0x417 JUMP JUMPDEST SWAP3 SWAP2 POP POP JUMP JUMPDEST PUSH1 0x0 PUSH3 0x455 DUP3 PUSH3 0x2DB JUMP JUMPDEST SWAP1 POP SWAP2 SWAP1 POP JUMP JUMPDEST PUSH3 0x467 DUP2 PUSH3 0x448 JUMP JUMPDEST DUP2 EQ PUSH3 0x473 JUMPI PUSH1 0x0 DUP1 REVERT JUMPDEST POP JUMP JUMPDEST PUSH1 0x0 DUP2 MLOAD SWAP1 POP PUSH3 0x487 DUP2 PUSH3 0x45C JUMP JUMPDEST SWAP3 SWAP2 POP POP JUMP JUMPDEST PUSH1 0x0 DUP1 PUSH1 0x0 DUP1 PUSH1 0x0 DUP1 PUSH1 0xC0 DUP8 DUP10 SUB SLT ISZERO PUSH3 0x4AD JUMPI PUSH3 0x4AC PUSH3 0x2B6 JUMP JUMPDEST JUMPDEST PUSH1 0x0 PUSH3 0x4BD DUP10 DUP3 DUP11 ADD PUSH3 0x31D JUMP JUMPDEST SWAP7 POP POP PUSH1 0x20 PUSH3 0x4D0 DUP10 DUP3 DUP11 ADD PUSH3 0x362 JUMP JUMPDEST SWAP6 POP POP PUSH1 0x40 PUSH3 0x4E3 DUP10 DUP3 DUP11 ADD PUSH3 0x3A7 JUMP JUMPDEST SWAP5 POP POP PUSH1 0x60 PUSH3 0x4F6 DUP10 DUP3 DUP11 ADD PUSH3 0x3EC JUMP JUMPDEST SWAP4 POP POP PUSH1 0x80 PUSH3 0x509 DUP10 DUP3 DUP11 ADD PUSH3 0x431 JUMP JUMPDEST SWAP3 POP POP PUSH1 0xA0 PUSH3 0x51C DUP10 DUP3 DUP11 ADD PUSH3 0x476 JUMP JUMPDEST SWAP2 POP POP SWAP3 SWAP6 POP SWAP3 SWAP6 POP SWAP3 SWAP6 JUMP JUMPDEST PUSH2 0x31B8 DUP1 PUSH3 0x539 PUSH1 0x0 CODECOPY PUSH1 0x0 RETURN INVALID PUSH1 0x80 PUSH1 0x40 MSTORE PUSH1 0x4 CALLDATASIZE LT PUSH2 0x16A JUMPI PUSH1 0x0 CALLDATALOAD PUSH1 0xE0 SHR DUP1 PUSH4 0x69394135 GT PUSH2 0xD1 JUMPI DUP1 PUSH4 0x9F62E796 GT PUSH2 0x8A JUMPI DUP1 PUSH4 0xEFF8C547 GT PUSH2 0x64 JUMPI DUP1 PUSH4 0xEFF8C547 EQ PUSH2 0x5BC JUMPI DUP1 PUSH4 0xF2FDE38B EQ PUSH2 0x5F9 JUMPI DUP1 PUSH4 0xF968217B EQ PUSH2 0x622 JUMPI DUP1 PUSH4 0xFDCDBAE2 EQ PUSH2 0x64D JUMPI PUSH2 0x1BF JUMP JUMPDEST DUP1 PUSH4 0x9F62E796 EQ PUSH2 0x529 JUMPI DUP1 PUSH4 0xD08B8D6A EQ PUSH2 0x554 JUMPI DUP1 PUSH4 0xEF071BCD EQ PUSH2 0x591 JUMPI PUSH2 0x1BF JUMP JUMPDEST DUP1 PUSH4 0x69394135 EQ PUSH2 0x417 JUMPI DUP1 PUSH4 0x715018A6 EQ PUSH2 0x442 JUMPI DUP1 PUSH4 0x7A378E05 EQ PUSH2 0x459 JUMPI DUP1 PUSH4 0x83CE6147 EQ PUSH2 0x496 JUMPI DUP1 PUSH4 0x8866B937 EQ PUSH2 0x4D3 JUMPI DUP1 PUSH4 0x8DA5CB5B EQ PUSH2 0x4FE JUMPI PUSH2 0x1BF JUMP JUMPDEST DUP1 PUSH4 0x2E64B7D4 GT PUSH2 0x123 JUMPI DUP1 PUSH4 0x2E64B7D4 EQ PUSH2 0x2DA JUMPI DUP1 PUSH4 0x2F3F1730 EQ PUSH2 0x317 JUMPI DUP1 PUSH4 0x4D2301CC EQ PUSH2 0x347 JUMPI DUP1 PUSH4 0x510B7F98 EQ PUSH2 0x384 JUMPI DUP1 PUSH4 0x56289C29 EQ PUSH2 0x3AF JUMPI DUP1 PUSH4 0x5AC66993 EQ PUSH2 0x3EC JUMPI PUSH2 0x1BF JUMP JUMPDEST DUP1 PUSH4 0x691BADF EQ PUSH2 0x1C4 JUMPI DUP1 PUSH4 0xE301D24 EQ PUSH2 0x1F0 JUMPI DUP1 PUSH4 0x1552E770 EQ PUSH2 0x21C JUMPI DUP1 PUSH4 0x1EB5C7AE EQ PUSH2 0x247 JUMPI DUP1 PUSH4 0x2ADCBEBD EQ PUSH2 0x284 JUMPI DUP1 PUSH4 0x2B1C4158 EQ PUSH2 0x2AF JUMPI PUSH2 0x1BF JUMP JUMPDEST CALLDATASIZE PUSH2 0x1BF JUMPI CALLER PUSH20 0xFFFFFFFFFFFFFFFFFFFFFFFFFFFFFFFFFFFFFFFF AND PUSH32 0x88A5966D370B9919B20F3E2C13FF65706F196A4E32CC2C12BF57088F88525874 CALLVALUE PUSH1 0x40 MLOAD PUSH2 0x1B5 SWAP2 SWAP1 PUSH2 0x2191 JUMP JUMPDEST PUSH1 0x40 MLOAD DUP1 SWAP2 SUB SWAP1 LOG2 STOP JUMPDEST PUSH1 0x0 DUP1 REVERT JUMPDEST CALLVALUE DUP1 ISZERO PUSH2 0x1D0 JUMPI PUSH1 0x0 DUP1 REVERT JUMPDEST POP PUSH2 0x1D9 PUSH2 0x678 JUMP JUMPDEST PUSH1 0x40 MLOAD PUSH2 0x1E7 SWAP3 SWAP2 SWAP1 PUSH2 0x21AC JUMP JUMPDEST PUSH1 0x40 MLOAD DUP1 SWAP2 SUB SWAP1 RETURN JUMPDEST CALLVALUE DUP1 ISZERO PUSH2 0x1FC JUMPI PUSH1 0x0 DUP1 REVERT JUMPDEST POP PUSH2 0x205 PUSH2 0x68A JUMP JUMPDEST PUSH1 0x40 MLOAD PUSH2 0x213 SWAP3 SWAP2 SWAP1 PUSH2 0x21AC JUMP JUMPDEST PUSH1 0x40 MLOAD DUP1 SWAP2 SUB SWAP1 RETURN JUMPDEST CALLVALUE DUP1 ISZERO PUSH2 0x228 JUMPI PUSH1 0x0 DUP1 REVERT JUMPDEST POP PUSH2 0x231 PUSH2 0x69C JUMP JUMPDEST PUSH1 0x40 MLOAD PUSH2 0x23E SWAP2 SWAP1 PUSH2 0x2191 JUMP JUMPDEST PUSH1 0x40 MLOAD DUP1 SWAP2 SUB SWAP1 RETURN JUMPDEST CALLVALUE DUP1 ISZERO PUSH2 0x253 JUMPI PUSH1 0x0 DUP1 REVERT JUMPDEST POP PUSH2 0x26E PUSH1 0x4 DUP1 CALLDATASIZE SUB DUP2 ADD SWAP1 PUSH2 0x269 SWAP2 SWAP1 PUSH2 0x2206 JUMP JUMPDEST PUSH2 0x6A9 JUMP JUMPDEST PUSH1 0x40 MLOAD PUSH2 0x27B SWAP2 SWAP1 PUSH2 0x2191 JUMP JUMPDEST PUSH1 0x40 MLOAD DUP1 SWAP2 SUB SWAP1 RETURN JUMPDEST CALLVALUE DUP1 ISZERO PUSH2 0x290 JUMPI PUSH1 0x0 DUP1 REVERT JUMPDEST POP PUSH2 0x299 PUSH2 0x6C6 JUMP JUMPDEST PUSH1 0x40 MLOAD PUSH2 0x2A6 SWAP2 SWAP1 PUSH2 0x22B2 JUMP JUMPDEST PUSH1 0x40 MLOAD DUP1 SWAP2 SUB SWAP1 RETURN JUMPDEST CALLVALUE DUP1 ISZERO PUSH2 0x2BB JUMPI PUSH1 0x0 DUP1 REVERT JUMPDEST POP PUSH2 0x2C4 PUSH2 0x6EC JUMP JUMPDEST PUSH1 0x40 MLOAD PUSH2 0x2D1 SWAP2 SWAP1 PUSH2 0x22EE JUMP JUMPDEST PUSH1 0x40 MLOAD DUP1 SWAP2 SUB SWAP1 RETURN JUMPDEST CALLVALUE DUP1 ISZERO PUSH2 0x2E6 JUMPI PUSH1 0x0 DUP1 REVERT JUMPDEST POP PUSH2 0x301 PUSH1 0x4 DUP1 CALLDATASIZE SUB DUP2 ADD SWAP1 PUSH2 0x2FC SWAP2 SWAP1 PUSH2 0x2206 JUMP JUMPDEST PUSH2 0x712 JUMP JUMPDEST PUSH1 0x40 MLOAD PUSH2 0x30E SWAP2 SWAP1 PUSH2 0x2324 JUMP JUMPDEST PUSH1 0x40 MLOAD DUP1 SWAP2 SUB SWAP1 RETURN JUMPDEST PUSH2 0x331 PUSH1 0x4 DUP1 CALLDATASIZE SUB DUP2 ADD SWAP1 PUSH2 0x32C SWAP2 SWAP1 PUSH2 0x236B JUMP JUMPDEST PUSH2 0x7AC JUMP JUMPDEST PUSH1 0x40 MLOAD PUSH2 0x33E SWAP2 SWAP1 PUSH2 0x2324 JUMP JUMPDEST PUSH1 0x40 MLOAD DUP1 SWAP2 SUB SWAP1 RETURN JUMPDEST CALLVALUE DUP1 ISZERO PUSH2 0x353 JUMPI PUSH1 0x0 DUP1 REVERT JUMPDEST POP PUSH2 0x36E PUSH1 0x4 DUP1 CALLDATASIZE SUB DUP2 ADD SWAP1 PUSH2 0x369 SWAP2 SWAP1 PUSH2 0x23E9 JUMP JUMPDEST PUSH2 0x8ED JUMP JUMPDEST PUSH1 0x40 MLOAD PUSH2 0x37B SWAP2 SWAP1 PUSH2 0x2191 JUMP JUMPDEST PUSH1 0x40 MLOAD DUP1 SWAP2 SUB SWAP1 RETURN JUMPDEST CALLVALUE DUP1 ISZERO PUSH2 0x390 JUMPI PUSH1 0x0 DUP1 REVERT JUMPDEST POP PUSH2 0x399 PUSH2 0x90E JUMP JUMPDEST PUSH1 0x40 MLOAD PUSH2 0x3A6 SWAP2 SWAP1 PUSH2 0x2437 JUMP JUMPDEST PUSH1 0x40 MLOAD DUP1 SWAP2 SUB SWAP1 RETURN JUMPDEST CALLVALUE DUP1 ISZERO PUSH2 0x3BB JUMPI PUSH1 0x0 DUP1 REVERT JUMPDEST POP PUSH2 0x3D6 PUSH1 0x4 DUP1 CALLDATASIZE SUB DUP2 ADD SWAP1 PUSH2 0x3D1 SWAP2 SWAP1 PUSH2 0x2206 JUMP JUMPDEST PUSH2 0x934 JUMP JUMPDEST PUSH1 0x40 MLOAD PUSH2 0x3E3 SWAP2 SWAP1 PUSH2 0x2324 JUMP JUMPDEST PUSH1 0x40 MLOAD DUP1 SWAP2 SUB SWAP1 RETURN JUMPDEST CALLVALUE DUP1 ISZERO PUSH2 0x3F8 JUMPI PUSH1 0x0 DUP1 REVERT JUMPDEST POP PUSH2 0x401 PUSH2 0xB62 JUMP JUMPDEST PUSH1 0x40 MLOAD PUSH2 0x40E SWAP2 SWAP1 PUSH2 0x253F JUMP JUMPDEST PUSH1 0x40 MLOAD DUP1 SWAP2 SUB SWAP1 RETURN JUMPDEST CALLVALUE DUP1 ISZERO PUSH2 0x423 JUMPI PUSH1 0x0 DUP1 REVERT JUMPDEST POP PUSH2 0x42C PUSH2 0xC15 JUMP JUMPDEST PUSH1 0x40 MLOAD PUSH2 0x439 SWAP2 SWAP1 PUSH2 0x2582 JUMP JUMPDEST PUSH1 0x40 MLOAD DUP1 SWAP2 SUB SWAP1 RETURN JUMPDEST CALLVALUE DUP1 ISZERO PUSH2 0x44E JUMPI PUSH1 0x0 DUP1 REVERT JUMPDEST POP PUSH2 0x457 PUSH2 0xC3B JUMP JUMPDEST STOP JUMPDEST CALLVALUE DUP1 ISZERO PUSH2 0x465 JUMPI PUSH1 0x0 DUP1 REVERT JUMPDEST POP PUSH2 0x480 PUSH1 0x4 DUP1 CALLDATASIZE SUB DUP2 ADD SWAP1 PUSH2 0x47B SWAP2 SWAP1 PUSH2 0x2206 JUMP JUMPDEST PUSH2 0xC4F JUMP JUMPDEST PUSH1 0x40 MLOAD PUSH2 0x48D SWAP2 SWAP1 PUSH2 0x2324 JUMP JUMPDEST PUSH1 0x40 MLOAD DUP1 SWAP2 SUB SWAP1 RETURN JUMPDEST CALLVALUE DUP1 ISZERO PUSH2 0x4A2 JUMPI PUSH1 0x0 DUP1 REVERT JUMPDEST POP PUSH2 0x4BD PUSH1 0x4 DUP1 CALLDATASIZE SUB DUP2 ADD SWAP1 PUSH2 0x4B8 SWAP2 SWAP1 PUSH2 0x259D JUMP JUMPDEST PUSH2 0xF18 JUMP JUMPDEST PUSH1 0x40 MLOAD PUSH2 0x4CA SWAP2 SWAP1 PUSH2 0x2324 JUMP JUMPDEST PUSH1 0x40 MLOAD DUP1 SWAP2 SUB SWAP1 RETURN JUMPDEST CALLVALUE DUP1 ISZERO PUSH2 0x4DF JUMPI PUSH1 0x0 DUP1 REVERT JUMPDEST POP PUSH2 0x4E8 PUSH2 0x1048 JUMP JUMPDEST PUSH1 0x40 MLOAD PUSH2 0x4F5 SWAP2 SWAP1 PUSH2 0x2191 JUMP JUMPDEST PUSH1 0x40 MLOAD DUP1 SWAP2 SUB SWAP1 RETURN JUMPDEST CALLVALUE DUP1 ISZERO PUSH2 0x50A JUMPI PUSH1 0x0 DUP1 REVERT JUMPDEST POP PUSH2 0x513 PUSH2 0x1059 JUMP JUMPDEST PUSH1 0x40 MLOAD PUSH2 0x520 SWAP2 SWAP1 PUSH2 0x25EC JUMP JUMPDEST PUSH1 0x40 MLOAD DUP1 SWAP2 SUB SWAP1 RETURN JUMPDEST CALLVALUE DUP1 ISZERO PUSH2 0x535 JUMPI PUSH1 0x0 DUP1 REVERT JUMPDEST POP PUSH2 0x53E PUSH2 0x1082 JUMP JUMPDEST PUSH1 0x40 MLOAD PUSH2 0x54B SWAP2 SWAP1 PUSH2 0x2191 JUMP JUMPDEST PUSH1 0x40 MLOAD DUP1 SWAP2 SUB SWAP1 RETURN JUMPDEST CALLVALUE DUP1 ISZERO PUSH2 0x560 JUMPI PUSH1 0x0 DUP1 REVERT JUMPDEST POP PUSH2 0x57B PUSH1 0x4 DUP1 CALLDATASIZE SUB DUP2 ADD SWAP1 PUSH2 0x576 SWAP2 SWAP1 PUSH2 0x2607 JUMP JUMPDEST PUSH2 0x1125 JUMP JUMPDEST PUSH1 0x40 MLOAD PUSH2 0x588 SWAP2 SWAP1 PUSH2 0x2324 JUMP JUMPDEST PUSH1 0x40 MLOAD DUP1 SWAP2 SUB SWAP1 RETURN JUMPDEST CALLVALUE DUP1 ISZERO PUSH2 0x59D JUMPI PUSH1 0x0 DUP1 REVERT JUMPDEST POP PUSH2 0x5A6 PUSH2 0x128B JUMP JUMPDEST PUSH1 0x40 MLOAD PUSH2 0x5B3 SWAP2 SWAP1 PUSH2 0x282B JUMP JUMPDEST PUSH1 0x40 MLOAD DUP1 SWAP2 SUB SWAP1 RETURN JUMPDEST CALLVALUE DUP1 ISZERO PUSH2 0x5C8 JUMPI PUSH1 0x0 DUP1 REVERT JUMPDEST POP PUSH2 0x5E3 PUSH1 0x4 DUP1 CALLDATASIZE SUB DUP2 ADD SWAP1 PUSH2 0x5DE SWAP2 SWAP1 PUSH2 0x2206 JUMP JUMPDEST PUSH2 0x13B7 JUMP JUMPDEST PUSH1 0x40 MLOAD PUSH2 0x5F0 SWAP2 SWAP1 PUSH2 0x2324 JUMP JUMPDEST PUSH1 0x40 MLOAD DUP1 SWAP2 SUB SWAP1 RETURN JUMPDEST CALLVALUE DUP1 ISZERO PUSH2 0x605 JUMPI PUSH1 0x0 DUP1 REVERT JUMPDEST POP PUSH2 0x620 PUSH1 0x4 DUP1 CALLDATASIZE SUB DUP2 ADD SWAP1 PUSH2 0x61B SWAP2 SWAP1 PUSH2 0x23E9 JUMP JUMPDEST PUSH2 0x1451 JUMP JUMPDEST STOP JUMPDEST CALLVALUE DUP1 ISZERO PUSH2 0x62E JUMPI PUSH1 0x0 DUP1 REVERT JUMPDEST POP PUSH2 0x637 PUSH2 0x14D4 JUMP JUMPDEST PUSH1 0x40 MLOAD PUSH2 0x644 SWAP2 SWAP1 PUSH2 0x286E JUMP JUMPDEST PUSH1 0x40 MLOAD DUP1 SWAP2 SUB SWAP1 RETURN JUMPDEST CALLVALUE DUP1 ISZERO PUSH2 0x659 JUMPI PUSH1 0x0 DUP1 REVERT JUMPDEST POP PUSH2 0x662 PUSH2 0x14FA JUMP JUMPDEST PUSH1 0x40 MLOAD PUSH2 0x66F SWAP2 SWAP1 PUSH2 0x28AA JUMP JUMPDEST PUSH1 0x40 MLOAD DUP1 SWAP2 SUB SWAP1 RETURN JUMPDEST PUSH1 0xD DUP1 PUSH1 0x0 ADD SLOAD SWAP1 DUP1 PUSH1 0x1 ADD SLOAD SWAP1 POP DUP3 JUMP JUMPDEST PUSH1 0xB DUP1 PUSH1 0x0 ADD SLOAD SWAP1 DUP1 PUSH1 0x1 ADD SLOAD SWAP1 POP DUP3 JUMP JUMPDEST PUSH1 0x0 PUSH1 0xB PUSH1 0x0 ADD SLOAD SWAP1 POP SWAP1 JUMP JUMPDEST PUSH1 0x0 PUSH1 0x9 PUSH1 0x0 DUP4 DUP2 MSTORE PUSH1 0x20 ADD SWAP1 DUP2 MSTORE PUSH1 0x20 ADD PUSH1 0x0 KECCAK256 SLOAD SWAP1 POP SWAP2 SWAP1 POP JUMP JUMPDEST PUSH1 0x6 PUSH1 0x0 SWAP1 SLOAD SWAP1 PUSH2 0x100 EXP SWAP1 DIV PUSH20 0xFFFFFFFFFFFFFFFFFFFFFFFFFFFFFFFFFFFFFFFF AND DUP2 JUMP JUMPDEST PUSH1 0x2 PUSH1 0x0 SWAP1 SLOAD SWAP1 PUSH2 0x100 EXP SWAP1 DIV PUSH20 0xFFFFFFFFFFFFFFFFFFFFFFFFFFFFFFFFFFFFFFFF AND DUP2 JUMP JUMPDEST PUSH1 0x0 PUSH1 0x7 PUSH1 0x0 SWAP1 SLOAD SWAP1 PUSH2 0x100 EXP SWAP1 DIV PUSH20 0xFFFFFFFFFFFFFFFFFFFFFFFFFFFFFFFFFFFFFFFF AND PUSH20 0xFFFFFFFFFFFFFFFFFFFFFFFFFFFFFFFFFFFFFFFF AND PUSH4 0x6527B55D DUP4 CALLER PUSH1 0x40 MLOAD DUP4 PUSH4 0xFFFFFFFF AND PUSH1 0xE0 SHL DUP2 MSTORE PUSH1 0x4 ADD PUSH2 0x771 SWAP3 SWAP2 SWAP1 PUSH2 0x28C5 JUMP JUMPDEST PUSH1 0x0 PUSH1 0x40 MLOAD DUP1 DUP4 SUB DUP2 PUSH1 0x0 DUP8 DUP1 EXTCODESIZE ISZERO DUP1 ISZERO PUSH2 0x78B JUMPI PUSH1 0x0 DUP1 REVERT JUMPDEST POP GAS CALL ISZERO DUP1 ISZERO PUSH2 0x79F JUMPI RETURNDATASIZE PUSH1 0x0 DUP1 RETURNDATACOPY RETURNDATASIZE PUSH1 0x0 REVERT JUMPDEST POP POP POP POP PUSH1 0x1 SWAP1 POP SWAP2 SWAP1 POP JUMP JUMPDEST PUSH1 0x0 DUP2 CALLVALUE EQ PUSH1 0x40 MLOAD DUP1 PUSH1 0x60 ADD PUSH1 0x40 MSTORE DUP1 PUSH1 0x39 DUP2 MSTORE PUSH1 0x20 ADD PUSH2 0x314A PUSH1 0x39 SWAP2 CODECOPY SWAP1 PUSH2 0x80B JUMPI PUSH1 0x40 MLOAD PUSH32 0x8C379A000000000000000000000000000000000000000000000000000000000 DUP2 MSTORE PUSH1 0x4 ADD PUSH2 0x802 SWAP2 SWAP1 PUSH2 0x297E JUMP JUMPDEST PUSH1 0x40 MLOAD DUP1 SWAP2 SUB SWAP1 REVERT JUMPDEST POP PUSH1 0x0 PUSH2 0x817 CALLVALUE PUSH2 0x1520 JUMP JUMPDEST PUSH1 0x40 MLOAD PUSH1 0x20 ADD PUSH2 0x827 SWAP2 SWAP1 PUSH2 0x2A9A JUMP JUMPDEST PUSH1 0x40 MLOAD PUSH1 0x20 DUP2 DUP4 SUB SUB DUP2 MSTORE SWAP1 PUSH1 0x40 MSTORE SWAP1 POP PUSH1 0x3 PUSH1 0x0 SWAP1 SLOAD SWAP1 PUSH2 0x100 EXP SWAP1 DIV PUSH20 0xFFFFFFFFFFFFFFFFFFFFFFFFFFFFFFFFFFFFFFFF AND PUSH20 0xFFFFFFFFFFFFFFFFFFFFFFFFFFFFFFFFFFFFFFFF AND PUSH4 0x890D80C DUP3 PUSH1 0x40 MLOAD DUP3 PUSH4 0xFFFFFFFF AND PUSH1 0xE0 SHL DUP2 MSTORE PUSH1 0x4 ADD PUSH2 0x893 SWAP2 SWAP1 PUSH2 0x2BAB JUMP JUMPDEST PUSH1 0x20 PUSH1 0x40 MLOAD DUP1 DUP4 SUB DUP2 PUSH1 0x0 DUP8 GAS CALL ISZERO DUP1 ISZERO PUSH2 0x8B2 JUMPI RETURNDATASIZE PUSH1 0x0 DUP1 RETURNDATACOPY RETURNDATASIZE PUSH1 0x0 REVERT JUMPDEST POP POP POP POP PUSH1 0x40 MLOAD RETURNDATASIZE PUSH1 0x1F NOT PUSH1 0x1F DUP3 ADD AND DUP3 ADD DUP1 PUSH1 0x40 MSTORE POP DUP2 ADD SWAP1 PUSH2 0x8D6 SWAP2 SWAP1 PUSH2 0x2C08 JUMP JUMPDEST POP PUSH2 0x8E1 CALLVALUE DUP6 PUSH2 0x15EE JUMP JUMPDEST POP PUSH1 0x1 SWAP2 POP POP SWAP3 SWAP2 POP POP JUMP JUMPDEST PUSH1 0x0 DUP2 PUSH20 0xFFFFFFFFFFFFFFFFFFFFFFFFFFFFFFFFFFFFFFFF AND BALANCE SWAP1 POP SWAP2 SWAP1 POP JUMP JUMPDEST PUSH1 0x3 PUSH1 0x0 SWAP1 SLOAD SWAP1 PUSH2 0x100 EXP SWAP1 DIV PUSH20 0xFFFFFFFFFFFFFFFFFFFFFFFFFFFFFFFFFFFFFFFF AND DUP2 JUMP JUMPDEST PUSH1 0x0 DUP1 PUSH1 0x0 SWAP1 SLOAD SWAP1 PUSH2 0x100 EXP SWAP1 DIV PUSH1 0xFF AND ISZERO PUSH2 0x985 JUMPI PUSH1 0x40 MLOAD PUSH32 0x8C379A000000000000000000000000000000000000000000000000000000000 DUP2 MSTORE PUSH1 0x4 ADD PUSH2 0x97C SWAP1 PUSH2 0x2C81 JUMP JUMPDEST PUSH1 0x40 MLOAD DUP1 SWAP2 SUB SWAP1 REVERT JUMPDEST PUSH1 0x1 PUSH1 0x0 DUP1 PUSH2 0x100 EXP DUP2 SLOAD DUP2 PUSH1 0xFF MUL NOT AND SWAP1 DUP4 ISZERO ISZERO MUL OR SWAP1 SSTORE POP PUSH2 0x9EC CALLER PUSH2 0x9E7 PUSH1 0x64 PUSH2 0x9D9 PUSH1 0xA PUSH1 0xFF AND PUSH2 0x9CB PUSH8 0xDE0B6B3A7640000 DUP10 PUSH2 0x1696 SWAP1 SWAP2 SWAP1 PUSH4 0xFFFFFFFF AND JUMP JUMPDEST PUSH2 0x1696 SWAP1 SWAP2 SWAP1 PUSH4 0xFFFFFFFF AND JUMP JUMPDEST PUSH2 0x16AC SWAP1 SWAP2 SWAP1 PUSH4 0xFFFFFFFF AND JUMP JUMPDEST PUSH2 0x16C2 JUMP JUMPDEST PUSH2 0xA2B JUMPI PUSH1 0x40 MLOAD PUSH32 0x8C379A000000000000000000000000000000000000000000000000000000000 DUP2 MSTORE PUSH1 0x4 ADD PUSH2 0xA22 SWAP1 PUSH2 0x2D13 JUMP JUMPDEST PUSH1 0x40 MLOAD DUP1 SWAP2 SUB SWAP1 REVERT JUMPDEST PUSH1 0x6 PUSH1 0x0 SWAP1 SLOAD SWAP1 PUSH2 0x100 EXP SWAP1 DIV PUSH20 0xFFFFFFFFFFFFFFFFFFFFFFFFFFFFFFFFFFFFFFFF AND PUSH20 0xFFFFFFFFFFFFFFFFFFFFFFFFFFFFFFFFFFFFFFFF AND PUSH4 0xADC9772E CALLER PUSH2 0xAA0 PUSH1 0x64 PUSH2 0xA92 PUSH1 0xA PUSH1 0x64 PUSH2 0xA80 SWAP2 SWAP1 PUSH2 0x2D6F JUMP JUMPDEST PUSH1 0xFF AND DUP9 PUSH2 0x1696 SWAP1 SWAP2 SWAP1 PUSH4 0xFFFFFFFF AND JUMP JUMPDEST PUSH2 0x16AC SWAP1 SWAP2 SWAP1 PUSH4 0xFFFFFFFF AND JUMP JUMPDEST PUSH1 0x40 MLOAD DUP4 PUSH4 0xFFFFFFFF AND PUSH1 0xE0 SHL DUP2 MSTORE PUSH1 0x4 ADD PUSH2 0xABD SWAP3 SWAP2 SWAP1 PUSH2 0x2DA4 JUMP JUMPDEST PUSH1 0x20 PUSH1 0x40 MLOAD DUP1 DUP4 SUB DUP2 PUSH1 0x0 DUP8 GAS CALL ISZERO DUP1 ISZERO PUSH2 0xADC JUMPI RETURNDATASIZE PUSH1 0x0 DUP1 RETURNDATACOPY RETURNDATASIZE PUSH1 0x0 REVERT JUMPDEST POP POP POP POP PUSH1 0x40 MLOAD RETURNDATASIZE PUSH1 0x1F NOT PUSH1 0x1F DUP3 ADD AND DUP3 ADD DUP1 PUSH1 0x40 MSTORE POP DUP2 ADD SWAP1 PUSH2 0xB00 SWAP2 SWAP1 PUSH2 0x2C08 JUMP JUMPDEST PUSH2 0xB3F JUMPI PUSH1 0x40 MLOAD PUSH32 0x8C379A000000000000000000000000000000000000000000000000000000000 DUP2 MSTORE PUSH1 0x4 ADD PUSH2 0xB36 SWAP1 PUSH2 0x2E19 JUMP JUMPDEST PUSH1 0x40 MLOAD DUP1 SWAP2 SUB SWAP1 REVERT JUMPDEST PUSH1 0x1 SWAP1 POP PUSH1 0x0 DUP1 PUSH1 0x0 PUSH2 0x100 EXP DUP2 SLOAD DUP2 PUSH1 0xFF MUL NOT AND SWAP1 DUP4 ISZERO ISZERO MUL OR SWAP1 SSTORE POP SWAP2 SWAP1 POP JUMP JUMPDEST PUSH1 0x60 PUSH1 0x8 PUSH1 0x0 CALLER PUSH20 0xFFFFFFFFFFFFFFFFFFFFFFFFFFFFFFFFFFFFFFFF AND PUSH20 0xFFFFFFFFFFFFFFFFFFFFFFFFFFFFFFFFFFFFFFFF AND DUP2 MSTORE PUSH1 0x20 ADD SWAP1 DUP2 MSTORE PUSH1 0x20 ADD PUSH1 0x0 KECCAK256 PUSH1 0x0 ADD DUP1 SLOAD DUP1 PUSH1 0x20 MUL PUSH1 0x20 ADD PUSH1 0x40 MLOAD SWAP1 DUP2 ADD PUSH1 0x40 MSTORE DUP1 SWAP3 SWAP2 SWAP1 DUP2 DUP2 MSTORE PUSH1 0x20 ADD PUSH1 0x0 SWAP1 JUMPDEST DUP3 DUP3 LT ISZERO PUSH2 0xC0C JUMPI DUP4 DUP3 SWAP1 PUSH1 0x0 MSTORE PUSH1 0x20 PUSH1 0x0 KECCAK256 SWAP1 PUSH1 0x2 MUL ADD PUSH1 0x40 MLOAD DUP1 PUSH1 0x40 ADD PUSH1 0x40 MSTORE SWAP1 DUP2 PUSH1 0x0 DUP3 ADD SLOAD DUP2 MSTORE PUSH1 0x20 ADD PUSH1 0x1 DUP3 ADD SLOAD DUP2 MSTORE POP POP DUP2 MSTORE PUSH1 0x20 ADD SWAP1 PUSH1 0x1 ADD SWAP1 PUSH2 0xBC6 JUMP JUMPDEST POP POP POP POP SWAP1 POP SWAP1 JUMP JUMPDEST PUSH1 0x7 PUSH1 0x0 SWAP1 SLOAD SWAP1 PUSH2 0x100 EXP SWAP1 DIV PUSH20 0xFFFFFFFFFFFFFFFFFFFFFFFFFFFFFFFFFFFFFFFF AND DUP2 JUMP JUMPDEST PUSH2 0xC43 PUSH2 0x1932 JUMP JUMPDEST PUSH2 0xC4D PUSH1 0x0 PUSH2 0x19B0 JUMP JUMPDEST JUMP JUMPDEST PUSH1 0x0 CALLER PUSH20 0xFFFFFFFFFFFFFFFFFFFFFFFFFFFFFFFFFFFFFFFF AND PUSH1 0xA PUSH1 0x0 DUP5 DUP2 MSTORE PUSH1 0x20 ADD SWAP1 DUP2 MSTORE PUSH1 0x20 ADD PUSH1 0x0 KECCAK256 PUSH1 0x0 SWAP1 SLOAD SWAP1 PUSH2 0x100 EXP SWAP1 DIV PUSH20 0xFFFFFFFFFFFFFFFFFFFFFFFFFFFFFFFFFFFFFFFF AND PUSH20 0xFFFFFFFFFFFFFFFFFFFFFFFFFFFFFFFFFFFFFFFF AND EQ PUSH1 0x40 MLOAD DUP1 PUSH1 0x40 ADD PUSH1 0x40 MSTORE DUP1 PUSH1 0x1F DUP2 MSTORE PUSH1 0x20 ADD PUSH32 0x5761726E696E67203A20596F7520617265206E6F74204E4654206F776E657200 DUP2 MSTORE POP SWAP1 PUSH2 0xD2A JUMPI PUSH1 0x40 MLOAD PUSH32 0x8C379A000000000000000000000000000000000000000000000000000000000 DUP2 MSTORE PUSH1 0x4 ADD PUSH2 0xD21 SWAP2 SWAP1 PUSH2 0x297E JUMP JUMPDEST PUSH1 0x40 MLOAD DUP1 SWAP2 SUB SWAP1 REVERT JUMPDEST POP PUSH1 0x3 PUSH1 0x0 SWAP1 SLOAD SWAP1 PUSH2 0x100 EXP SWAP1 DIV PUSH20 0xFFFFFFFFFFFFFFFFFFFFFFFFFFFFFFFFFFFFFFFF AND PUSH20 0xFFFFFFFFFFFFFFFFFFFFFFFFFFFFFFFFFFFFFFFF AND PUSH4 0x2890E0D7 DUP4 PUSH1 0x40 MLOAD DUP3 PUSH4 0xFFFFFFFF AND PUSH1 0xE0 SHL DUP2 MSTORE PUSH1 0x4 ADD PUSH2 0xD86 SWAP2 SWAP1 PUSH2 0x2191 JUMP JUMPDEST PUSH1 0x20 PUSH1 0x40 MLOAD DUP1 DUP4 SUB DUP2 PUSH1 0x0 DUP8 GAS CALL ISZERO DUP1 ISZERO PUSH2 0xDA5 JUMPI RETURNDATASIZE PUSH1 0x0 DUP1 RETURNDATACOPY RETURNDATASIZE PUSH1 0x0 REVERT JUMPDEST POP POP POP POP PUSH1 0x40 MLOAD RETURNDATASIZE PUSH1 0x1F NOT PUSH1 0x1F DUP3 ADD AND DUP3 ADD DUP1 PUSH1 0x40 MSTORE POP DUP2 ADD SWAP1 PUSH2 0xDC9 SWAP2 SWAP1 PUSH2 0x2C08 JUMP JUMPDEST POP PUSH1 0x2 PUSH1 0x0 SWAP1 SLOAD SWAP1 PUSH2 0x100 EXP SWAP1 DIV PUSH20 0xFFFFFFFFFFFFFFFFFFFFFFFFFFFFFFFFFFFFFFFF AND PUSH20 0xFFFFFFFFFFFFFFFFFFFFFFFFFFFFFFFFFFFFFFFF AND PUSH4 0x5F367B03 CALLER PUSH2 0xE37 PUSH8 0xDE0B6B3A7640000 PUSH1 0x9 PUSH1 0x0 DUP9 DUP2 MSTORE PUSH1 0x20 ADD SWAP1 DUP2 MSTORE PUSH1 0x20 ADD PUSH1 0x0 KECCAK256 SLOAD PUSH2 0x1696 SWAP1 SWAP2 SWAP1 PUSH4 0xFFFFFFFF AND JUMP JUMPDEST PUSH1 0x40 MLOAD DUP4 PUSH4 0xFFFFFFFF AND PUSH1 0xE0 SHL DUP2 MSTORE PUSH1 0x4 ADD PUSH2 0xE54 SWAP3 SWAP2 SWAP1 PUSH2 0x2DA4 JUMP JUMPDEST PUSH1 0x20 PUSH1 0x40 MLOAD DUP1 DUP4 SUB DUP2 PUSH1 0x0 DUP8 GAS CALL ISZERO DUP1 ISZERO PUSH2 0xE73 JUMPI RETURNDATASIZE PUSH1 0x0 DUP1 RETURNDATACOPY RETURNDATASIZE PUSH1 0x0 REVERT JUMPDEST POP POP POP POP PUSH1 0x40 MLOAD RETURNDATASIZE PUSH1 0x1F NOT PUSH1 0x1F DUP3 ADD AND DUP3 ADD DUP1 PUSH1 0x40 MSTORE POP DUP2 ADD SWAP1 PUSH2 0xE97 SWAP2 SWAP1 PUSH2 0x2C08 JUMP JUMPDEST PUSH1 0x40 MLOAD DUP1 PUSH1 0x40 ADD PUSH1 0x40 MSTORE DUP1 PUSH1 0x19 DUP2 MSTORE PUSH1 0x20 ADD PUSH32 0x5761726E696E67203A205472616E73666572206661696C656400000000000000 DUP2 MSTORE POP SWAP1 PUSH2 0xF0E JUMPI PUSH1 0x40 MLOAD PUSH32 0x8C379A000000000000000000000000000000000000000000000000000000000 DUP2 MSTORE PUSH1 0x4 ADD PUSH2 0xF05 SWAP2 SWAP1 PUSH2 0x297E JUMP JUMPDEST PUSH1 0x40 MLOAD DUP1 SWAP2 SUB SWAP1 REVERT JUMPDEST POP PUSH1 0x1 SWAP1 POP SWAP2 SWAP1 POP JUMP JUMPDEST PUSH1 0x0 PUSH1 0x3 PUSH1 0x0 SWAP1 SLOAD SWAP1 PUSH2 0x100 EXP SWAP1 DIV PUSH20 0xFFFFFFFFFFFFFFFFFFFFFFFFFFFFFFFFFFFFFFFF AND PUSH20 0xFFFFFFFFFFFFFFFFFFFFFFFFFFFFFFFFFFFFFFFF AND PUSH4 0xB2C3A717 DUP5 ADDRESS DUP6 PUSH1 0x40 MLOAD DUP5 PUSH4 0xFFFFFFFF AND PUSH1 0xE0 SHL DUP2 MSTORE PUSH1 0x4 ADD PUSH2 0xF79 SWAP4 SWAP3 SWAP2 SWAP1 PUSH2 0x2E39 JUMP JUMPDEST PUSH1 0x20 PUSH1 0x40 MLOAD DUP1 DUP4 SUB DUP2 PUSH1 0x0 DUP8 GAS CALL ISZERO DUP1 ISZERO PUSH2 0xF98 JUMPI RETURNDATASIZE PUSH1 0x0 DUP1 RETURNDATACOPY RETURNDATASIZE PUSH1 0x0 REVERT JUMPDEST POP POP POP POP PUSH1 0x40 MLOAD RETURNDATASIZE PUSH1 0x1F NOT PUSH1 0x1F DUP3 ADD AND DUP3 ADD DUP1 PUSH1 0x40 MSTORE POP DUP2 ADD SWAP1 PUSH2 0xFBC SWAP2 SWAP1 PUSH2 0x2C08 JUMP JUMPDEST PUSH1 0x40 MLOAD DUP1 PUSH1 0x40 ADD PUSH1 0x40 MSTORE DUP1 PUSH1 0x18 DUP2 MSTORE PUSH1 0x20 ADD PUSH32 0x5761726E696E67203A204C6F636B75702053686F7274656E0000000000000000 DUP2 MSTORE POP SWAP1 PUSH2 0x1033 JUMPI PUSH1 0x40 MLOAD PUSH32 0x8C379A000000000000000000000000000000000000000000000000000000000 DUP2 MSTORE PUSH1 0x4 ADD PUSH2 0x102A SWAP2 SWAP1 PUSH2 0x297E JUMP JUMPDEST PUSH1 0x40 MLOAD DUP1 SWAP2 SUB SWAP1 REVERT JUMPDEST POP PUSH2 0x103D DUP4 PUSH2 0x1A75 JUMP JUMPDEST POP PUSH1 0x1 SWAP1 POP SWAP3 SWAP2 POP POP JUMP JUMPDEST PUSH1 0x0 PUSH2 0x1054 PUSH1 0x1 PUSH2 0x1AA6 JUMP JUMPDEST SWAP1 POP SWAP1 JUMP JUMPDEST PUSH1 0x0 DUP1 PUSH1 0x1 SWAP1 SLOAD SWAP1 PUSH2 0x100 EXP SWAP1 DIV PUSH20 0xFFFFFFFFFFFFFFFFFFFFFFFFFFFFFFFFFFFFFFFF AND SWAP1 POP SWAP1 JUMP JUMPDEST PUSH1 0x0 PUSH1 0x3 PUSH1 0x0 SWAP1 SLOAD SWAP1 PUSH2 0x100 EXP SWAP1 DIV PUSH20 0xFFFFFFFFFFFFFFFFFFFFFFFFFFFFFFFFFFFFFFFF AND PUSH20 0xFFFFFFFFFFFFFFFFFFFFFFFFFFFFFFFFFFFFFFFF AND PUSH4 0x70A08231 CALLER PUSH1 0x40 MLOAD DUP3 PUSH4 0xFFFFFFFF AND PUSH1 0xE0 SHL DUP2 MSTORE PUSH1 0x4 ADD PUSH2 0x10DF SWAP2 SWAP1 PUSH2 0x25EC JUMP JUMPDEST PUSH1 0x20 PUSH1 0x40 MLOAD DUP1 DUP4 SUB DUP2 DUP7 GAS STATICCALL ISZERO DUP1 ISZERO PUSH2 0x10FC JUMPI RETURNDATASIZE PUSH1 0x0 DUP1 RETURNDATACOPY RETURNDATASIZE PUSH1 0x0 REVERT JUMPDEST POP POP POP POP PUSH1 0x40 MLOAD RETURNDATASIZE PUSH1 0x1F NOT PUSH1 0x1F DUP3 ADD AND DUP3 ADD DUP1 PUSH1 0x40 MSTORE POP DUP2 ADD SWAP1 PUSH2 0x1120 SWAP2 SWAP1 PUSH2 0x2E85 JUMP JUMPDEST SWAP1 POP SWAP1 JUMP JUMPDEST PUSH1 0x0 PUSH1 0x2 PUSH1 0x0 SWAP1 SLOAD SWAP1 PUSH2 0x100 EXP SWAP1 DIV PUSH20 0xFFFFFFFFFFFFFFFFFFFFFFFFFFFFFFFFFFFFFFFF AND PUSH20 0xFFFFFFFFFFFFFFFFFFFFFFFFFFFFFFFFFFFFFFFF AND PUSH4 0x469895C8 ADDRESS DUP6 PUSH2 0x1182 PUSH8 0xDE0B6B3A7640000 DUP8 PUSH2 0x1696 SWAP1 SWAP2 SWAP1 PUSH4 0xFFFFFFFF AND JUMP JUMPDEST PUSH1 0x40 MLOAD DUP5 PUSH4 0xFFFFFFFF AND PUSH1 0xE0 SHL DUP2 MSTORE PUSH1 0x4 ADD PUSH2 0x11A0 SWAP4 SWAP3 SWAP2 SWAP1 PUSH2 0x2EB2 JUMP JUMPDEST PUSH1 0x20 PUSH1 0x40 MLOAD DUP1 DUP4 SUB DUP2 PUSH1 0x0 DUP8 GAS CALL ISZERO DUP1 ISZERO PUSH2 0x11BF JUMPI RETURNDATASIZE PUSH1 0x0 DUP1 RETURNDATACOPY RETURNDATASIZE PUSH1 0x0 REVERT JUMPDEST POP POP POP POP PUSH1 0x40 MLOAD RETURNDATASIZE PUSH1 0x1F NOT PUSH1 0x1F DUP3 ADD AND DUP3 ADD DUP1 PUSH1 0x40 MSTORE POP DUP2 ADD SWAP1 PUSH2 0x11E3 SWAP2 SWAP1 PUSH2 0x2C08 JUMP JUMPDEST PUSH1 0x40 MLOAD DUP1 PUSH1 0x40 ADD PUSH1 0x40 MSTORE DUP1 PUSH1 0x19 DUP2 MSTORE PUSH1 0x20 ADD PUSH32 0x5761726E696E67203A205472616E73666572206661696C656400000000000000 DUP2 MSTORE POP SWAP1 PUSH2 0x125A JUMPI PUSH1 0x40 MLOAD PUSH32 0x8C379A000000000000000000000000000000000000000000000000000000000 DUP2 MSTORE PUSH1 0x4 ADD PUSH2 0x1251 SWAP2 SWAP1 PUSH2 0x297E JUMP JUMPDEST PUSH1 0x40 MLOAD DUP1 SWAP2 SUB SWAP1 REVERT JUMPDEST POP DUP2 PUSH1 0xB PUSH1 0x0 ADD PUSH1 0x0 DUP3 DUP3 SLOAD PUSH2 0x1270 SWAP2 SWAP1 PUSH2 0x2EE9 JUMP JUMPDEST SWAP3 POP POP DUP2 SWAP1 SSTORE POP TIMESTAMP PUSH1 0xB PUSH1 0x1 ADD DUP2 SWAP1 SSTORE POP PUSH1 0x1 SWAP1 POP SWAP3 SWAP2 POP POP JUMP JUMPDEST PUSH2 0x1293 PUSH2 0x215E JUMP JUMPDEST PUSH1 0xF PUSH1 0x0 CALLER PUSH20 0xFFFFFFFFFFFFFFFFFFFFFFFFFFFFFFFFFFFFFFFF AND PUSH20 0xFFFFFFFFFFFFFFFFFFFFFFFFFFFFFFFFFFFFFFFF AND DUP2 MSTORE PUSH1 0x20 ADD SWAP1 DUP2 MSTORE PUSH1 0x20 ADD PUSH1 0x0 KECCAK256 PUSH1 0x40 MLOAD DUP1 PUSH1 0x40 ADD PUSH1 0x40 MSTORE SWAP1 DUP2 PUSH1 0x0 DUP3 ADD DUP1 SLOAD DUP1 PUSH1 0x20 MUL PUSH1 0x20 ADD PUSH1 0x40 MLOAD SWAP1 DUP2 ADD PUSH1 0x40 MSTORE DUP1 SWAP3 SWAP2 SWAP1 DUP2 DUP2 MSTORE PUSH1 0x20 ADD PUSH1 0x0 SWAP1 JUMPDEST DUP3 DUP3 LT ISZERO PUSH2 0x1352 JUMPI DUP4 DUP3 SWAP1 PUSH1 0x0 MSTORE PUSH1 0x20 PUSH1 0x0 KECCAK256 SWAP1 PUSH1 0x3 MUL ADD PUSH1 0x40 MLOAD DUP1 PUSH1 0x60 ADD PUSH1 0x40 MSTORE SWAP1 DUP2 PUSH1 0x0 DUP3 ADD SLOAD DUP2 MSTORE PUSH1 0x20 ADD PUSH1 0x1 DUP3 ADD SLOAD DUP2 MSTORE PUSH1 0x20 ADD PUSH1 0x2 DUP3 ADD SLOAD DUP2 MSTORE POP POP DUP2 MSTORE PUSH1 0x20 ADD SWAP1 PUSH1 0x1 ADD SWAP1 PUSH2 0x1302 JUMP JUMPDEST POP POP POP POP DUP2 MSTORE PUSH1 0x20 ADD PUSH1 0x1 DUP3 ADD DUP1 SLOAD DUP1 PUSH1 0x20 MUL PUSH1 0x20 ADD PUSH1 0x40 MLOAD SWAP1 DUP2 ADD PUSH1 0x40 MSTORE DUP1 SWAP3 SWAP2 SWAP1 DUP2 DUP2 MSTORE PUSH1 0x20 ADD DUP3 DUP1 SLOAD DUP1 ISZERO PUSH2 0x13A9 JUMPI PUSH1 0x20 MUL DUP3 ADD SWAP2 SWAP1 PUSH1 0x0 MSTORE PUSH1 0x20 PUSH1 0x0 KECCAK256 SWAP1 JUMPDEST DUP2 SLOAD DUP2 MSTORE PUSH1 0x20 ADD SWAP1 PUSH1 0x1 ADD SWAP1 DUP1 DUP4 GT PUSH2 0x1395 JUMPI JUMPDEST POP POP POP POP POP DUP2 MSTORE POP POP SWAP1 POP SWAP1 JUMP JUMPDEST PUSH1 0x0 PUSH1 0x7 PUSH1 0x0 SWAP1 SLOAD SWAP1 PUSH2 0x100 EXP SWAP1 DIV PUSH20 0xFFFFFFFFFFFFFFFFFFFFFFFFFFFFFFFFFFFFFFFF AND PUSH20 0xFFFFFFFFFFFFFFFFFFFFFFFFFFFFFFFFFFFFFFFF AND PUSH4 0xC663A107 DUP4 CALLER PUSH1 0x40 MLOAD DUP4 PUSH4 0xFFFFFFFF AND PUSH1 0xE0 SHL DUP2 MSTORE PUSH1 0x4 ADD PUSH2 0x1416 SWAP3 SWAP2 SWAP1 PUSH2 0x28C5 JUMP JUMPDEST PUSH1 0x0 PUSH1 0x40 MLOAD DUP1 DUP4 SUB DUP2 PUSH1 0x0 DUP8 DUP1 EXTCODESIZE ISZERO DUP1 ISZERO PUSH2 0x1430 JUMPI PUSH1 0x0 DUP1 REVERT JUMPDEST POP GAS CALL ISZERO DUP1 ISZERO PUSH2 0x1444 JUMPI RETURNDATASIZE PUSH1 0x0 DUP1 RETURNDATACOPY RETURNDATASIZE PUSH1 0x0 REVERT JUMPDEST POP POP POP POP PUSH1 0x1 SWAP1 POP SWAP2 SWAP1 POP JUMP JUMPDEST PUSH2 0x1459 PUSH2 0x1932 JUMP JUMPDEST PUSH1 0x0 PUSH20 0xFFFFFFFFFFFFFFFFFFFFFFFFFFFFFFFFFFFFFFFF AND DUP2 PUSH20 0xFFFFFFFFFFFFFFFFFFFFFFFFFFFFFFFFFFFFFFFF AND SUB PUSH2 0x14C8 JUMPI PUSH1 0x40 MLOAD PUSH32 0x8C379A000000000000000000000000000000000000000000000000000000000 DUP2 MSTORE PUSH1 0x4 ADD PUSH2 0x14BF SWAP1 PUSH2 0x2F8F JUMP JUMPDEST PUSH1 0x40 MLOAD DUP1 SWAP2 SUB SWAP1 REVERT JUMPDEST PUSH2 0x14D1 DUP2 PUSH2 0x19B0 JUMP JUMPDEST POP JUMP JUMPDEST PUSH1 0x5 PUSH1 0x0 SWAP1 SLOAD SWAP1 PUSH2 0x100 EXP SWAP1 DIV PUSH20 0xFFFFFFFFFFFFFFFFFFFFFFFFFFFFFFFFFFFFFFFF AND DUP2 JUMP JUMPDEST PUSH1 0x4 PUSH1 0x0 SWAP1 SLOAD SWAP1 PUSH2 0x100 EXP SWAP1 DIV PUSH20 0xFFFFFFFFFFFFFFFFFFFFFFFFFFFFFFFFFFFFFFFF AND DUP2 JUMP JUMPDEST PUSH1 0x60 PUSH1 0x0 PUSH1 0x1 PUSH2 0x152F DUP5 PUSH2 0x1AB4 JUMP JUMPDEST ADD SWAP1 POP PUSH1 0x0 DUP2 PUSH8 0xFFFFFFFFFFFFFFFF DUP2 GT ISZERO PUSH2 0x154E JUMPI PUSH2 0x154D PUSH2 0x2FAF JUMP JUMPDEST JUMPDEST PUSH1 0x40 MLOAD SWAP1 DUP1 DUP3 MSTORE DUP1 PUSH1 0x1F ADD PUSH1 0x1F NOT AND PUSH1 0x20 ADD DUP3 ADD PUSH1 0x40 MSTORE DUP1 ISZERO PUSH2 0x1580 JUMPI DUP2 PUSH1 0x20 ADD PUSH1 0x1 DUP3 MUL DUP1 CALLDATASIZE DUP4 CALLDATACOPY DUP1 DUP3 ADD SWAP2 POP POP SWAP1 POP JUMPDEST POP SWAP1 POP PUSH1 0x0 DUP3 PUSH1 0x20 ADD DUP3 ADD SWAP1 POP JUMPDEST PUSH1 0x1 ISZERO PUSH2 0x15E3 JUMPI DUP1 DUP1 PUSH1 0x1 SWAP1 SUB SWAP2 POP POP PUSH32 0x3031323334353637383961626364656600000000000000000000000000000000 PUSH1 0xA DUP7 MOD BYTE DUP2 MSTORE8 PUSH1 0xA DUP6 DUP2 PUSH2 0x15D7 JUMPI PUSH2 0x15D6 PUSH2 0x2FDE JUMP JUMPDEST JUMPDEST DIV SWAP5 POP PUSH1 0x0 DUP6 SUB PUSH2 0x158E JUMPI JUMPDEST DUP2 SWAP4 POP POP POP POP SWAP2 SWAP1 POP JUMP JUMPDEST PUSH1 0x0 DUP1 PUSH2 0x15FC CALLER DUP6 DUP6 PUSH2 0x1C07 JUMP JUMPDEST SWAP1 POP PUSH2 0x1609 CALLER DUP6 DUP4 PUSH2 0x2007 JUMP JUMPDEST PUSH1 0x40 MLOAD DUP1 PUSH1 0x40 ADD PUSH1 0x40 MSTORE DUP1 PUSH1 0xF DUP2 MSTORE PUSH1 0x20 ADD PUSH32 0x5761726E696E67203A205661756C740000000000000000000000000000000000 DUP2 MSTORE POP SWAP1 PUSH2 0x1680 JUMPI PUSH1 0x40 MLOAD PUSH32 0x8C379A000000000000000000000000000000000000000000000000000000000 DUP2 MSTORE PUSH1 0x4 ADD PUSH2 0x1677 SWAP2 SWAP1 PUSH2 0x297E JUMP JUMPDEST PUSH1 0x40 MLOAD DUP1 SWAP2 SUB SWAP1 REVERT JUMPDEST POP PUSH2 0x168B PUSH1 0x1 PUSH2 0x2140 JUMP JUMPDEST PUSH1 0x1 SWAP2 POP POP SWAP3 SWAP2 POP POP JUMP JUMPDEST PUSH1 0x0 DUP2 DUP4 PUSH2 0x16A4 SWAP2 SWAP1 PUSH2 0x300D JUMP JUMPDEST SWAP1 POP SWAP3 SWAP2 POP POP JUMP JUMPDEST PUSH1 0x0 DUP2 DUP4 PUSH2 0x16BA SWAP2 SWAP1 PUSH2 0x304F JUMP JUMPDEST SWAP1 POP SWAP3 SWAP2 POP POP JUMP JUMPDEST PUSH1 0x0 PUSH1 0x4 PUSH1 0x0 SWAP1 SLOAD SWAP1 PUSH2 0x100 EXP SWAP1 DIV PUSH20 0xFFFFFFFFFFFFFFFFFFFFFFFFFFFFFFFFFFFFFFFF AND PUSH20 0xFFFFFFFFFFFFFFFFFFFFFFFFFFFFFFFFFFFFFFFF AND PUSH4 0x44570B3F DUP5 PUSH2 0x171E PUSH8 0xDE0B6B3A7640000 DUP7 PUSH2 0x1696 SWAP1 SWAP2 SWAP1 PUSH4 0xFFFFFFFF AND JUMP JUMPDEST PUSH1 0x40 MLOAD DUP4 PUSH4 0xFFFFFFFF AND PUSH1 0xE0 SHL DUP2 MSTORE PUSH1 0x4 ADD PUSH2 0x173B SWAP3 SWAP2 SWAP1 PUSH2 0x2DA4 JUMP JUMPDEST PUSH1 0x20 PUSH1 0x40 MLOAD DUP1 DUP4 SUB DUP2 PUSH1 0x0 DUP8 GAS CALL ISZERO DUP1 ISZERO PUSH2 0x175A JUMPI RETURNDATASIZE PUSH1 0x0 DUP1 RETURNDATACOPY RETURNDATASIZE PUSH1 0x0 REVERT JUMPDEST POP POP POP POP PUSH1 0x40 MLOAD RETURNDATASIZE PUSH1 0x1F NOT PUSH1 0x1F DUP3 ADD AND DUP3 ADD DUP1 PUSH1 0x40 MSTORE POP DUP2 ADD SWAP1 PUSH2 0x177E SWAP2 SWAP1 PUSH2 0x2C08 JUMP JUMPDEST PUSH1 0x40 MLOAD DUP1 PUSH1 0x40 ADD PUSH1 0x40 MSTORE DUP1 PUSH1 0x1A DUP2 MSTORE PUSH1 0x20 ADD PUSH32 0x5761726E696E67203A2051564520457363726F77206572726F72000000000000 DUP2 MSTORE POP SWAP1 PUSH2 0x17F5 JUMPI PUSH1 0x40 MLOAD PUSH32 0x8C379A000000000000000000000000000000000000000000000000000000000 DUP2 MSTORE PUSH1 0x4 ADD PUSH2 0x17EC SWAP2 SWAP1 PUSH2 0x297E JUMP JUMPDEST PUSH1 0x40 MLOAD DUP1 SWAP2 SUB SWAP1 REVERT JUMPDEST POP PUSH1 0x5 PUSH1 0x0 SWAP1 SLOAD SWAP1 PUSH2 0x100 EXP SWAP1 DIV PUSH20 0xFFFFFFFFFFFFFFFFFFFFFFFFFFFFFFFFFFFFFFFF AND PUSH20 0xFFFFFFFFFFFFFFFFFFFFFFFFFFFFFFFFFFFFFFFF AND PUSH4 0xCDB51CDF PUSH2 0x184F PUSH8 0xDE0B6B3A7640000 DUP6 PUSH2 0x1696 SWAP1 SWAP2 SWAP1 PUSH4 0xFFFFFFFF AND JUMP JUMPDEST DUP6 PUSH1 0x40 MLOAD DUP4 PUSH4 0xFFFFFFFF AND PUSH1 0xE0 SHL DUP2 MSTORE PUSH1 0x4 ADD PUSH2 0x186D SWAP3 SWAP2 SWAP1 PUSH2 0x28C5 JUMP JUMPDEST PUSH1 0x20 PUSH1 0x40 MLOAD DUP1 DUP4 SUB DUP2 PUSH1 0x0 DUP8 GAS CALL ISZERO DUP1 ISZERO PUSH2 0x188C JUMPI RETURNDATASIZE PUSH1 0x0 DUP1 RETURNDATACOPY RETURNDATASIZE PUSH1 0x0 REVERT JUMPDEST POP POP POP POP PUSH1 0x40 MLOAD RETURNDATASIZE PUSH1 0x1F NOT PUSH1 0x1F DUP3 ADD AND DUP3 ADD DUP1 PUSH1 0x40 MSTORE POP DUP2 ADD SWAP1 PUSH2 0x18B0 SWAP2 SWAP1 PUSH2 0x2C08 JUMP JUMPDEST PUSH1 0x40 MLOAD DUP1 PUSH1 0x40 ADD PUSH1 0x40 MSTORE DUP1 PUSH1 0x15 DUP2 MSTORE PUSH1 0x20 ADD PUSH32 0x5761726E696E67203A205156452056657374696E670000000000000000000000 DUP2 MSTORE POP SWAP1 PUSH2 0x1927 JUMPI PUSH1 0x40 MLOAD PUSH32 0x8C379A000000000000000000000000000000000000000000000000000000000 DUP2 MSTORE PUSH1 0x4 ADD PUSH2 0x191E SWAP2 SWAP1 PUSH2 0x297E JUMP JUMPDEST PUSH1 0x40 MLOAD DUP1 SWAP2 SUB SWAP1 REVERT JUMPDEST POP PUSH1 0x1 SWAP1 POP SWAP3 SWAP2 POP POP JUMP JUMPDEST PUSH2 0x193A PUSH2 0x2156 JUMP JUMPDEST PUSH20 0xFFFFFFFFFFFFFFFFFFFFFFFFFFFFFFFFFFFFFFFF AND PUSH2 0x1958 PUSH2 0x1059 JUMP JUMPDEST PUSH20 0xFFFFFFFFFFFFFFFFFFFFFFFFFFFFFFFFFFFFFFFF AND EQ PUSH2 0x19AE JUMPI PUSH1 0x40 MLOAD PUSH32 0x8C379A000000000000000000000000000000000000000000000000000000000 DUP2 MSTORE PUSH1 0x4 ADD PUSH2 0x19A5 SWAP1 PUSH2 0x30CC JUMP JUMPDEST PUSH1 0x40 MLOAD DUP1 SWAP2 SUB SWAP1 REVERT JUMPDEST JUMP JUMPDEST PUSH1 0x0 DUP1 PUSH1 0x1 SWAP1 SLOAD SWAP1 PUSH2 0x100 EXP SWAP1 DIV PUSH20 0xFFFFFFFFFFFFFFFFFFFFFFFFFFFFFFFFFFFFFFFF AND SWAP1 POP DUP2 PUSH1 0x0 PUSH1 0x1 PUSH2 0x100 EXP DUP2 SLOAD DUP2 PUSH20 0xFFFFFFFFFFFFFFFFFFFFFFFFFFFFFFFFFFFFFFFF MUL NOT AND SWAP1 DUP4 PUSH20 0xFFFFFFFFFFFFFFFFFFFFFFFFFFFFFFFFFFFFFFFF AND MUL OR SWAP1 SSTORE POP DUP2 PUSH20 0xFFFFFFFFFFFFFFFFFFFFFFFFFFFFFFFFFFFFFFFF AND DUP2 PUSH20 0xFFFFFFFFFFFFFFFFFFFFFFFFFFFFFFFFFFFFFFFF AND PUSH32 0x8BE0079C531659141344CD1FD0A4F28419497F9722A3DAAFE3B4186F6B6457E0 PUSH1 0x40 MLOAD PUSH1 0x40 MLOAD DUP1 SWAP2 SUB SWAP1 LOG3 POP POP JUMP JUMPDEST PUSH1 0x0 DUP2 PUSH1 0xB PUSH1 0x0 ADD PUSH1 0x0 DUP3 DUP3 SLOAD PUSH2 0x1A8C SWAP2 SWAP1 PUSH2 0x30EC JUMP JUMPDEST SWAP3 POP POP DUP2 SWAP1 SSTORE POP TIMESTAMP PUSH1 0xB PUSH1 0x1 ADD DUP2 SWAP1 SSTORE POP PUSH1 0x1 SWAP1 POP SWAP2 SWAP1 POP JUMP JUMPDEST PUSH1 0x0 DUP2 PUSH1 0x0 ADD SLOAD SWAP1 POP SWAP2 SWAP1 POP JUMP JUMPDEST PUSH1 0x0 DUP1 PUSH1 0x0 SWAP1 POP PUSH27 0x184F03E93FF9F4DAA797ED6E38ED64BF6A1F010000000000000000 DUP4 LT PUSH2 0x1B12 JUMPI PUSH27 0x184F03E93FF9F4DAA797ED6E38ED64BF6A1F010000000000000000 DUP4 DUP2 PUSH2 0x1B08 JUMPI PUSH2 0x1B07 PUSH2 0x2FDE JUMP JUMPDEST JUMPDEST DIV SWAP3 POP PUSH1 0x40 DUP2 ADD SWAP1 POP JUMPDEST PUSH14 0x4EE2D6D415B85ACEF8100000000 DUP4 LT PUSH2 0x1B4F JUMPI PUSH14 0x4EE2D6D415B85ACEF8100000000 DUP4 DUP2 PUSH2 0x1B45 JUMPI PUSH2 0x1B44 PUSH2 0x2FDE JUMP JUMPDEST JUMPDEST DIV SWAP3 POP PUSH1 0x20 DUP2 ADD SWAP1 POP JUMPDEST PUSH7 0x2386F26FC10000 DUP4 LT PUSH2 0x1B7E JUMPI PUSH7 0x2386F26FC10000 DUP4 DUP2 PUSH2 0x1B74 JUMPI PUSH2 0x1B73 PUSH2 0x2FDE JUMP JUMPDEST JUMPDEST DIV SWAP3 POP PUSH1 0x10 DUP2 ADD SWAP1 POP JUMPDEST PUSH4 0x5F5E100 DUP4 LT PUSH2 0x1BA7 JUMPI PUSH4 0x5F5E100 DUP4 DUP2 PUSH2 0x1B9D JUMPI PUSH2 0x1B9C PUSH2 0x2FDE JUMP JUMPDEST JUMPDEST DIV SWAP3 POP PUSH1 0x8 DUP2 ADD SWAP1 POP JUMPDEST PUSH2 0x2710 DUP4 LT PUSH2 0x1BCC JUMPI PUSH2 0x2710 DUP4 DUP2 PUSH2 0x1BC2 JUMPI PUSH2 0x1BC1 PUSH2 0x2FDE JUMP JUMPDEST JUMPDEST DIV SWAP3 POP PUSH1 0x4 DUP2 ADD SWAP1 POP JUMPDEST PUSH1 0x64 DUP4 LT PUSH2 0x1BEF JUMPI PUSH1 0x64 DUP4 DUP2 PUSH2 0x1BE5 JUMPI PUSH2 0x1BE4 PUSH2 0x2FDE JUMP JUMPDEST JUMPDEST DIV SWAP3 POP PUSH1 0x2 DUP2 ADD SWAP1 POP JUMPDEST PUSH1 0xA DUP4 LT PUSH2 0x1BFE JUMPI PUSH1 0x1 DUP2 ADD SWAP1 POP JUMPDEST DUP1 SWAP2 POP POP SWAP2 SWAP1 POP JUMP JUMPDEST PUSH1 0x0 DUP1 PUSH1 0x0 SWAP1 SLOAD SWAP1 PUSH2 0x100 EXP SWAP1 DIV PUSH1 0xFF AND ISZERO PUSH2 0x1C58 JUMPI PUSH1 0x40 MLOAD PUSH32 0x8C379A000000000000000000000000000000000000000000000000000000000 DUP2 MSTORE PUSH1 0x4 ADD PUSH2 0x1C4F SWAP1 PUSH2 0x2C81 JUMP JUMPDEST PUSH1 0x40 MLOAD DUP1 SWAP2 SUB SWAP1 REVERT JUMPDEST PUSH1 0x1 PUSH1 0x0 DUP1 PUSH2 0x100 EXP DUP2 SLOAD DUP2 PUSH1 0xFF MUL NOT AND SWAP1 DUP4 ISZERO ISZERO MUL OR SWAP1 SSTORE POP PUSH1 0x0 PUSH1 0x3 PUSH1 0x0 SWAP1 SLOAD SWAP1 PUSH2 0x100 EXP SWAP1 DIV PUSH20 0xFFFFFFFFFFFFFFFFFFFFFFFFFFFFFFFFFFFFFFFF AND PUSH20 0xFFFFFFFFFFFFFFFFFFFFFFFFFFFFFFFFFFFFFFFF AND PUSH4 0xF42C69D6 DUP7 DUP6 PUSH1 0x40 MLOAD DUP4 PUSH4 0xFFFFFFFF AND PUSH1 0xE0 SHL DUP2 MSTORE PUSH1 0x4 ADD PUSH2 0x1CD1 SWAP3 SWAP2 SWAP1 PUSH2 0x3120 JUMP JUMPDEST PUSH1 0x20 PUSH1 0x40 MLOAD DUP1 DUP4 SUB DUP2 PUSH1 0x0 DUP8 GAS CALL ISZERO DUP1 ISZERO PUSH2 0x1CF0 JUMPI RETURNDATASIZE PUSH1 0x0 DUP1 RETURNDATACOPY RETURNDATASIZE PUSH1 0x0 REVERT JUMPDEST POP POP POP POP PUSH1 0x40 MLOAD RETURNDATASIZE PUSH1 0x1F NOT PUSH1 0x1F DUP3 ADD AND DUP3 ADD DUP1 PUSH1 0x40 MSTORE POP DUP2 ADD SWAP1 PUSH2 0x1D14 SWAP2 SWAP1 PUSH2 0x2E85 JUMP JUMPDEST SWAP1 POP PUSH1 0x8 PUSH1 0x0 DUP7 PUSH20 0xFFFFFFFFFFFFFFFFFFFFFFFFFFFFFFFFFFFFFFFF AND PUSH20 0xFFFFFFFFFFFFFFFFFFFFFFFFFFFFFFFFFFFFFFFF AND DUP2 MSTORE PUSH1 0x20 ADD SWAP1 DUP2 MSTORE PUSH1 0x20 ADD PUSH1 0x0 KECCAK256 PUSH1 0x0 ADD PUSH1 0x40 MLOAD DUP1 PUSH1 0x40 ADD PUSH1 0x40 MSTORE DUP1 DUP4 DUP2 MSTORE PUSH1 0x20 ADD TIMESTAMP DUP2 MSTORE POP SWAP1 DUP1 PUSH1 0x1 DUP2 SLOAD ADD DUP1 DUP3 SSTORE DUP1 SWAP2 POP POP PUSH1 0x1 SWAP1 SUB SWAP1 PUSH1 0x0 MSTORE PUSH1 0x20 PUSH1 0x0 KECCAK256 SWAP1 PUSH1 0x2 MUL ADD PUSH1 0x0 SWAP1 SWAP2 SWAP1 SWAP2 SWAP1 SWAP2 POP PUSH1 0x0 DUP3 ADD MLOAD DUP2 PUSH1 0x0 ADD SSTORE PUSH1 0x20 DUP3 ADD MLOAD DUP2 PUSH1 0x1 ADD SSTORE POP POP PUSH2 0x1DB7 CALLER DUP6 DUP4 PUSH2 0x2007 JUMP JUMPDEST POP DUP5 PUSH1 0xA PUSH1 0x0 DUP4 DUP2 MSTORE PUSH1 0x20 ADD SWAP1 DUP2 MSTORE PUSH1 0x20 ADD PUSH1 0x0 KECCAK256 PUSH1 0x0 PUSH2 0x100 EXP DUP2 SLOAD DUP2 PUSH20 0xFFFFFFFFFFFFFFFFFFFFFFFFFFFFFFFFFFFFFFFF MUL NOT AND SWAP1 DUP4 PUSH20 0xFFFFFFFFFFFFFFFFFFFFFFFFFFFFFFFFFFFFFFFF AND MUL OR SWAP1 SSTORE POP DUP3 ISZERO PUSH2 0x1FE2 JUMPI PUSH1 0x5 PUSH1 0x0 SWAP1 SLOAD SWAP1 PUSH2 0x100 EXP SWAP1 DIV PUSH20 0xFFFFFFFFFFFFFFFFFFFFFFFFFFFFFFFFFFFFFFFF AND PUSH20 0xFFFFFFFFFFFFFFFFFFFFFFFFFFFFFFFFFFFFFFFF AND PUSH4 0xCDB51CDF PUSH1 0x4 PUSH1 0x0 SWAP1 SLOAD SWAP1 PUSH2 0x100 EXP SWAP1 DIV PUSH20 0xFFFFFFFFFFFFFFFFFFFFFFFFFFFFFFFFFFFFFFFF AND PUSH20 0xFFFFFFFFFFFFFFFFFFFFFFFFFFFFFFFFFFFFFFFF AND PUSH4 0x8C70BB9 CALLER PUSH2 0x1EA8 PUSH8 0xDE0B6B3A7640000 DUP11 PUSH2 0x1696 SWAP1 SWAP2 SWAP1 PUSH4 0xFFFFFFFF AND JUMP JUMPDEST PUSH1 0x40 MLOAD DUP4 PUSH4 0xFFFFFFFF AND PUSH1 0xE0 SHL DUP2 MSTORE PUSH1 0x4 ADD PUSH2 0x1EC5 SWAP3 SWAP2 SWAP1 PUSH2 0x2DA4 JUMP JUMPDEST PUSH1 0x20 PUSH1 0x40 MLOAD DUP1 DUP4 SUB DUP2 PUSH1 0x0 DUP8 GAS CALL ISZERO DUP1 ISZERO PUSH2 0x1EE4 JUMPI RETURNDATASIZE PUSH1 0x0 DUP1 RETURNDATACOPY RETURNDATASIZE PUSH1 0x0 REVERT JUMPDEST POP POP POP POP PUSH1 0x40 MLOAD RETURNDATASIZE PUSH1 0x1F NOT PUSH1 0x1F DUP3 ADD AND DUP3 ADD DUP1 PUSH1 0x40 MSTORE POP DUP2 ADD SWAP1 PUSH2 0x1F08 SWAP2 SWAP1 PUSH2 0x2E85 JUMP JUMPDEST CALLER PUSH1 0x40 MLOAD DUP4 PUSH4 0xFFFFFFFF AND PUSH1 0xE0 SHL DUP2 MSTORE PUSH1 0x4 ADD PUSH2 0x1F26 SWAP3 SWAP2 SWAP1 PUSH2 0x28C5 JUMP JUMPDEST PUSH1 0x20 PUSH1 0x40 MLOAD DUP1 DUP4 SUB DUP2 PUSH1 0x0 DUP8 GAS CALL ISZERO DUP1 ISZERO PUSH2 0x1F45 JUMPI RETURNDATASIZE PUSH1 0x0 DUP1 RETURNDATACOPY RETURNDATASIZE PUSH1 0x0 REVERT JUMPDEST POP POP POP POP PUSH1 0x40 MLOAD RETURNDATASIZE PUSH1 0x1F NOT PUSH1 0x1F DUP3 ADD AND DUP3 ADD DUP1 PUSH1 0x40 MSTORE POP DUP2 ADD SWAP1 PUSH2 0x1F69 SWAP2 SWAP1 PUSH2 0x2C08 JUMP JUMPDEST PUSH1 0x40 MLOAD DUP1 PUSH1 0x40 ADD PUSH1 0x40 MSTORE DUP1 PUSH1 0x15 DUP2 MSTORE PUSH1 0x20 ADD PUSH32 0x5761726E696E67203A205156452056657374696E670000000000000000000000 DUP2 MSTORE POP SWAP1 PUSH2 0x1FE0 JUMPI PUSH1 0x40 MLOAD PUSH32 0x8C379A000000000000000000000000000000000000000000000000000000000 DUP2 MSTORE PUSH1 0x4 ADD PUSH2 0x1FD7 SWAP2 SWAP1 PUSH2 0x297E JUMP JUMPDEST PUSH1 0x40 MLOAD DUP1 SWAP2 SUB SWAP1 REVERT JUMPDEST POP JUMPDEST DUP1 SWAP2 POP POP PUSH1 0x0 DUP1 PUSH1 0x0 PUSH2 0x100 EXP DUP2 SLOAD DUP2 PUSH1 0xFF MUL NOT AND SWAP1 DUP4 ISZERO ISZERO MUL OR SWAP1 SSTORE POP SWAP4 SWAP3 POP POP POP JUMP JUMPDEST PUSH1 0x0 DUP1 PUSH1 0xF PUSH1 0x0 DUP7 PUSH20 0xFFFFFFFFFFFFFFFFFFFFFFFFFFFFFFFFFFFFFFFF AND PUSH20 0xFFFFFFFFFFFFFFFFFFFFFFFFFFFFFFFFFFFFFFFF AND DUP2 MSTORE PUSH1 0x20 ADD SWAP1 DUP2 MSTORE PUSH1 0x20 ADD PUSH1 0x0 KECCAK256 PUSH1 0x0 ADD SWAP1 POP DUP1 PUSH1 0x40 MLOAD DUP1 PUSH1 0x60 ADD PUSH1 0x40 MSTORE DUP1 DUP7 DUP2 MSTORE PUSH1 0x20 ADD TIMESTAMP DUP2 MSTORE PUSH1 0x20 ADD DUP6 DUP2 MSTORE POP SWAP1 DUP1 PUSH1 0x1 DUP2 SLOAD ADD DUP1 DUP3 SSTORE DUP1 SWAP2 POP POP PUSH1 0x1 SWAP1 SUB SWAP1 PUSH1 0x0 MSTORE PUSH1 0x20 PUSH1 0x0 KECCAK256 SWAP1 PUSH1 0x3 MUL ADD PUSH1 0x0 SWAP1 SWAP2 SWAP1 SWAP2 SWAP1 SWAP2 POP PUSH1 0x0 DUP3 ADD MLOAD DUP2 PUSH1 0x0 ADD SSTORE PUSH1 0x20 DUP3 ADD MLOAD DUP2 PUSH1 0x1 ADD SSTORE PUSH1 0x40 DUP3 ADD MLOAD DUP2 PUSH1 0x2 ADD SSTORE POP POP PUSH1 0xF PUSH1 0x0 DUP7 PUSH20 0xFFFFFFFFFFFFFFFFFFFFFFFFFFFFFFFFFFFFFFFF AND PUSH20 0xFFFFFFFFFFFFFFFFFFFFFFFFFFFFFFFFFFFFFFFF AND DUP2 MSTORE PUSH1 0x20 ADD SWAP1 DUP2 MSTORE PUSH1 0x20 ADD PUSH1 0x0 KECCAK256 PUSH1 0x1 ADD DUP4 SWAP1 DUP1 PUSH1 0x1 DUP2 SLOAD ADD DUP1 DUP3 SSTORE DUP1 SWAP2 POP POP PUSH1 0x1 SWAP1 SUB SWAP1 PUSH1 0x0 MSTORE PUSH1 0x20 PUSH1 0x0 KECCAK256 ADD PUSH1 0x0 SWAP1 SWAP2 SWAP1 SWAP2 SWAP1 SWAP2 POP SSTORE DUP4 PUSH1 0x9 PUSH1 0x0 DUP6 DUP2 MSTORE PUSH1 0x20 ADD SWAP1 DUP2 MSTORE PUSH1 0x20 ADD PUSH1 0x0 KECCAK256 DUP2 SWAP1 SSTORE POP PUSH1 0x1 SWAP2 POP POP SWAP4 SWAP3 POP POP POP JUMP JUMPDEST PUSH1 0x1 DUP2 PUSH1 0x0 ADD PUSH1 0x0 DUP3 DUP3 SLOAD ADD SWAP3 POP POP DUP2 SWAP1 SSTORE POP POP JUMP JUMPDEST PUSH1 0x0 CALLER SWAP1 POP SWAP1 JUMP JUMPDEST PUSH1 0x40 MLOAD DUP1 PUSH1 0x40 ADD PUSH1 0x40 MSTORE DUP1 PUSH1 0x60 DUP2 MSTORE PUSH1 0x20 ADD PUSH1 0x60 DUP2 MSTORE POP SWAP1 JUMP JUMPDEST PUSH1 0x0 DUP2 SWAP1 POP SWAP2 SWAP1 POP JUMP JUMPDEST PUSH2 0x218B DUP2 PUSH2 0x2178 JUMP JUMPDEST DUP3 MSTORE POP POP JUMP JUMPDEST PUSH1 0x0 PUSH1 0x20 DUP3 ADD SWAP1 POP PUSH2 0x21A6 PUSH1 0x0 DUP4 ADD DUP5 PUSH2 0x2182 JUMP JUMPDEST SWAP3 SWAP2 POP POP JUMP JUMPDEST PUSH1 0x0 PUSH1 0x40 DUP3 ADD SWAP1 POP PUSH2 0x21C1 PUSH1 0x0 DUP4 ADD DUP6 PUSH2 0x2182 JUMP JUMPDEST PUSH2 0x21CE PUSH1 0x20 DUP4 ADD DUP5 PUSH2 0x2182 JUMP JUMPDEST SWAP4 SWAP3 POP POP POP JUMP JUMPDEST PUSH1 0x0 DUP1 REVERT JUMPDEST PUSH2 0x21E3 DUP2 PUSH2 0x2178 JUMP JUMPDEST DUP2 EQ PUSH2 0x21EE JUMPI PUSH1 0x0 DUP1 REVERT JUMPDEST POP JUMP JUMPDEST PUSH1 0x0 DUP2 CALLDATALOAD SWAP1 POP PUSH2 0x2200 DUP2 PUSH2 0x21DA JUMP JUMPDEST SWAP3 SWAP2 POP POP JUMP JUMPDEST PUSH1 0x0 PUSH1 0x20 DUP3 DUP5 SUB SLT ISZERO PUSH2 0x221C JUMPI PUSH2 0x221B PUSH2 0x21D5 JUMP JUMPDEST JUMPDEST PUSH1 0x0 PUSH2 0x222A DUP5 DUP3 DUP6 ADD PUSH2 0x21F1 JUMP JUMPDEST SWAP2 POP POP SWAP3 SWAP2 POP POP JUMP JUMPDEST PUSH1 0x0 PUSH20 0xFFFFFFFFFFFFFFFFFFFFFFFFFFFFFFFFFFFFFFFF DUP3 AND SWAP1 POP SWAP2 SWAP1 POP JUMP JUMPDEST PUSH1 0x0 DUP2 SWAP1 POP SWAP2 SWAP1 POP JUMP JUMPDEST PUSH1 0x0 PUSH2 0x2278 PUSH2 0x2273 PUSH2 0x226E DUP5 PUSH2 0x2233 JUMP JUMPDEST PUSH2 0x2253 JUMP JUMPDEST PUSH2 0x2233 JUMP JUMPDEST SWAP1 POP SWAP2 SWAP1 POP JUMP JUMPDEST PUSH1 0x0 PUSH2 0x228A DUP3 PUSH2 0x225D JUMP JUMPDEST SWAP1 POP SWAP2 SWAP1 POP JUMP JUMPDEST PUSH1 0x0 PUSH2 0x229C DUP3 PUSH2 0x227F JUMP JUMPDEST SWAP1 POP SWAP2 SWAP1 POP JUMP JUMPDEST PUSH2 0x22AC DUP2 PUSH2 0x2291 JUMP JUMPDEST DUP3 MSTORE POP POP JUMP JUMPDEST PUSH1 0x0 PUSH1 0x20 DUP3 ADD SWAP1 POP PUSH2 0x22C7 PUSH1 0x0 DUP4 ADD DUP5 PUSH2 0x22A3 JUMP JUMPDEST SWAP3 SWAP2 POP POP JUMP JUMPDEST PUSH1 0x0 PUSH2 0x22D8 DUP3 PUSH2 0x227F JUMP JUMPDEST SWAP1 POP SWAP2 SWAP1 POP JUMP JUMPDEST PUSH2 0x22E8 DUP2 PUSH2 0x22CD JUMP JUMPDEST DUP3 MSTORE POP POP JUMP JUMPDEST PUSH1 0x0 PUSH1 0x20 DUP3 ADD SWAP1 POP PUSH2 0x2303 PUSH1 0x0 DUP4 ADD DUP5 PUSH2 0x22DF JUMP JUMPDEST SWAP3 SWAP2 POP POP JUMP JUMPDEST PUSH1 0x0 DUP2 ISZERO ISZERO SWAP1 POP SWAP2 SWAP1 POP JUMP JUMPDEST PUSH2 0x231E DUP2 PUSH2 0x2309 JUMP JUMPDEST DUP3 MSTORE POP POP JUMP JUMPDEST PUSH1 0x0 PUSH1 0x20 DUP3 ADD SWAP1 POP PUSH2 0x2339 PUSH1 0x0 DUP4 ADD DUP5 PUSH2 0x2315 JUMP JUMPDEST SWAP3 SWAP2 POP POP JUMP JUMPDEST PUSH2 0x2348 DUP2 PUSH2 0x2309 JUMP JUMPDEST DUP2 EQ PUSH2 0x2353 JUMPI PUSH1 0x0 DUP1 REVERT JUMPDEST POP JUMP JUMPDEST PUSH1 0x0 DUP2 CALLDATALOAD SWAP1 POP PUSH2 0x2365 DUP2 PUSH2 0x233F JUMP JUMPDEST SWAP3 SWAP2 POP POP JUMP JUMPDEST PUSH1 0x0 DUP1 PUSH1 0x40 DUP4 DUP6 SUB SLT ISZERO PUSH2 0x2382 JUMPI PUSH2 0x2381 PUSH2 0x21D5 JUMP JUMPDEST JUMPDEST PUSH1 0x0 PUSH2 0x2390 DUP6 DUP3 DUP7 ADD PUSH2 0x2356 JUMP JUMPDEST SWAP3 POP POP PUSH1 0x20 PUSH2 0x23A1 DUP6 DUP3 DUP7 ADD PUSH2 0x21F1 JUMP JUMPDEST SWAP2 POP POP SWAP3 POP SWAP3 SWAP1 POP JUMP JUMPDEST PUSH1 0x0 PUSH2 0x23B6 DUP3 PUSH2 0x2233 JUMP JUMPDEST SWAP1 POP SWAP2 SWAP1 POP JUMP JUMPDEST PUSH2 0x23C6 DUP2 PUSH2 0x23AB JUMP JUMPDEST DUP2 EQ PUSH2 0x23D1 JUMPI PUSH1 0x0 DUP1 REVERT JUMPDEST POP JUMP JUMPDEST PUSH1 0x0 DUP2 CALLDATALOAD SWAP1 POP PUSH2 0x23E3 DUP2 PUSH2 0x23BD JUMP JUMPDEST SWAP3 SWAP2 POP POP JUMP JUMPDEST PUSH1 0x0 PUSH1 0x20 DUP3 DUP5 SUB SLT ISZERO PUSH2 0x23FF JUMPI PUSH2 0x23FE PUSH2 0x21D5 JUMP JUMPDEST JUMPDEST PUSH1 0x0 PUSH2 0x240D DUP5 DUP3 DUP6 ADD PUSH2 0x23D4 JUMP JUMPDEST SWAP2 POP POP SWAP3 SWAP2 POP POP JUMP JUMPDEST PUSH1 0x0 PUSH2 0x2421 DUP3 PUSH2 0x227F JUMP JUMPDEST SWAP1 POP SWAP2 SWAP1 POP JUMP JUMPDEST PUSH2 0x2431 DUP2 PUSH2 0x2416 JUMP JUMPDEST DUP3 MSTORE POP POP JUMP JUMPDEST PUSH1 0x0 PUSH1 0x20 DUP3 ADD SWAP1 POP PUSH2 0x244C PUSH1 0x0 DUP4 ADD DUP5 PUSH2 0x2428 JUMP JUMPDEST SWAP3 SWAP2 POP POP JUMP JUMPDEST PUSH1 0x0 DUP2 MLOAD SWAP1 POP SWAP2 SWAP1 POP JUMP JUMPDEST PUSH1 0x0 DUP3 DUP3 MSTORE PUSH1 0x20 DUP3 ADD SWAP1 POP SWAP3 SWAP2 POP POP JUMP JUMPDEST PUSH1 0x0 DUP2 SWAP1 POP PUSH1 0x20 DUP3 ADD SWAP1 POP SWAP2 SWAP1 POP JUMP JUMPDEST PUSH2 0x2487 DUP2 PUSH2 0x2178 JUMP JUMPDEST DUP3 MSTORE POP POP JUMP JUMPDEST PUSH1 0x40 DUP3 ADD PUSH1 0x0 DUP3 ADD MLOAD PUSH2 0x24A3 PUSH1 0x0 DUP6 ADD DUP3 PUSH2 0x247E JUMP JUMPDEST POP PUSH1 0x20 DUP3 ADD MLOAD PUSH2 0x24B6 PUSH1 0x20 DUP6 ADD DUP3 PUSH2 0x247E JUMP JUMPDEST POP POP POP POP JUMP JUMPDEST PUSH1 0x0 PUSH2 0x24C8 DUP4 DUP4 PUSH2 0x248D JUMP JUMPDEST PUSH1 0x40 DUP4 ADD SWAP1 POP SWAP3 SWAP2 POP POP JUMP JUMPDEST PUSH1 0x0 PUSH1 0x20 DUP3 ADD SWAP1 POP SWAP2 SWAP1 POP JUMP JUMPDEST PUSH1 0x0 PUSH2 0x24EC DUP3 PUSH2 0x2452 JUMP JUMPDEST PUSH2 0x24F6 DUP2 DUP6 PUSH2 0x245D JUMP JUMPDEST SWAP4 POP PUSH2 0x2501 DUP4 PUSH2 0x246E JUMP JUMPDEST DUP1 PUSH1 0x0 JUMPDEST DUP4 DUP2 LT ISZERO PUSH2 0x2532 JUMPI DUP2 MLOAD PUSH2 0x2519 DUP9 DUP3 PUSH2 0x24BC JUMP JUMPDEST SWAP8 POP PUSH2 0x2524 DUP4 PUSH2 0x24D4 JUMP JUMPDEST SWAP3 POP POP PUSH1 0x1 DUP2 ADD SWAP1 POP PUSH2 0x2505 JUMP JUMPDEST POP DUP6 SWAP4 POP POP POP POP SWAP3 SWAP2 POP POP JUMP JUMPDEST PUSH1 0x0 PUSH1 0x20 DUP3 ADD SWAP1 POP DUP2 DUP2 SUB PUSH1 0x0 DUP4 ADD MSTORE PUSH2 0x2559 DUP2 DUP5 PUSH2 0x24E1 JUMP JUMPDEST SWAP1 POP SWAP3 SWAP2 POP POP JUMP JUMPDEST PUSH1 0x0 PUSH2 0x256C DUP3 PUSH2 0x227F JUMP JUMPDEST SWAP1 POP SWAP2 SWAP1 POP JUMP JUMPDEST PUSH2 0x257C DUP2 PUSH2 0x2561 JUMP JUMPDEST DUP3 MSTORE POP POP JUMP JUMPDEST PUSH1 0x0 PUSH1 0x20 DUP3 ADD SWAP1 POP PUSH2 0x2597 PUSH1 0x0 DUP4 ADD DUP5 PUSH2 0x2573 JUMP JUMPDEST SWAP3 SWAP2 POP POP JUMP JUMPDEST PUSH1 0x0 DUP1 PUSH1 0x40 DUP4 DUP6 SUB SLT ISZERO PUSH2 0x25B4 JUMPI PUSH2 0x25B3 PUSH2 0x21D5 JUMP JUMPDEST JUMPDEST PUSH1 0x0 PUSH2 0x25C2 DUP6 DUP3 DUP7 ADD PUSH2 0x21F1 JUMP JUMPDEST SWAP3 POP POP PUSH1 0x20 PUSH2 0x25D3 DUP6 DUP3 DUP7 ADD PUSH2 0x21F1 JUMP JUMPDEST SWAP2 POP POP SWAP3 POP SWAP3 SWAP1 POP JUMP JUMPDEST PUSH2 0x25E6 DUP2 PUSH2 0x23AB JUMP JUMPDEST DUP3 MSTORE POP POP JUMP JUMPDEST PUSH1 0x0 PUSH1 0x20 DUP3 ADD SWAP1 POP PUSH2 0x2601 PUSH1 0x0 DUP4 ADD DUP5 PUSH2 0x25DD JUMP JUMPDEST SWAP3 SWAP2 POP POP JUMP JUMPDEST PUSH1 0x0 DUP1 PUSH1 0x40 DUP4 DUP6 SUB SLT ISZERO PUSH2 0x261E JUMPI PUSH2 0x261D PUSH2 0x21D5 JUMP JUMPDEST JUMPDEST PUSH1 0x0 PUSH2 0x262C DUP6 DUP3 DUP7 ADD PUSH2 0x23D4 JUMP JUMPDEST SWAP3 POP POP PUSH1 0x20 PUSH2 0x263D DUP6 DUP3 DUP7 ADD PUSH2 0x21F1 JUMP JUMPDEST SWAP2 POP POP SWAP3 POP SWAP3 SWAP1 POP JUMP JUMPDEST PUSH1 0x0 DUP2 MLOAD SWAP1 POP SWAP2 SWAP1 POP JUMP JUMPDEST PUSH1 0x0 DUP3 DUP3 MSTORE PUSH1 0x20 DUP3 ADD SWAP1 POP SWAP3 SWAP2 POP POP JUMP JUMPDEST PUSH1 0x0 DUP2 SWAP1 POP PUSH1 0x20 DUP3 ADD SWAP1 POP SWAP2 SWAP1 POP JUMP JUMPDEST PUSH1 0x60 DUP3 ADD PUSH1 0x0 DUP3 ADD MLOAD PUSH2 0x2689 PUSH1 0x0 DUP6 ADD DUP3 PUSH2 0x247E JUMP JUMPDEST POP PUSH1 0x20 DUP3 ADD MLOAD PUSH2 0x269C PUSH1 0x20 DUP6 ADD DUP3 PUSH2 0x247E JUMP JUMPDEST POP PUSH1 0x40 DUP3 ADD MLOAD PUSH2 0x26AF PUSH1 0x40 DUP6 ADD DUP3 PUSH2 0x247E JUMP JUMPDEST POP POP POP POP JUMP JUMPDEST PUSH1 0x0 PUSH2 0x26C1 DUP4 DUP4 PUSH2 0x2673 JUMP JUMPDEST PUSH1 0x60 DUP4 ADD SWAP1 POP SWAP3 SWAP2 POP POP JUMP JUMPDEST PUSH1 0x0 PUSH1 0x20 DUP3 ADD SWAP1 POP SWAP2 SWAP1 POP JUMP JUMPDEST PUSH1 0x0 PUSH2 0x26E5 DUP3 PUSH2 0x2647 JUMP JUMPDEST PUSH2 0x26EF DUP2 DUP6 PUSH2 0x2652 JUMP JUMPDEST SWAP4 POP PUSH2 0x26FA DUP4 PUSH2 0x2663 JUMP JUMPDEST DUP1 PUSH1 0x0 JUMPDEST DUP4 DUP2 LT ISZERO PUSH2 0x272B JUMPI DUP2 MLOAD PUSH2 0x2712 DUP9 DUP3 PUSH2 0x26B5 JUMP JUMPDEST SWAP8 POP PUSH2 0x271D DUP4 PUSH2 0x26CD JUMP JUMPDEST SWAP3 POP POP PUSH1 0x1 DUP2 ADD SWAP1 POP PUSH2 0x26FE JUMP JUMPDEST POP DUP6 SWAP4 POP POP POP POP SWAP3 SWAP2 POP POP JUMP JUMPDEST PUSH1 0x0 DUP2 MLOAD SWAP1 POP SWAP2 SWAP1 POP JUMP JUMPDEST PUSH1 0x0 DUP3 DUP3 MSTORE PUSH1 0x20 DUP3 ADD SWAP1 POP SWAP3 SWAP2 POP POP JUMP JUMPDEST PUSH1 0x0 DUP2 SWAP1 POP PUSH1 0x20 DUP3 ADD SWAP1 POP SWAP2 SWAP1 POP JUMP JUMPDEST PUSH1 0x0 PUSH2 0x2770 DUP4 DUP4 PUSH2 0x247E JUMP JUMPDEST PUSH1 0x20 DUP4 ADD SWAP1 POP SWAP3 SWAP2 POP POP JUMP JUMPDEST PUSH1 0x0 PUSH1 0x20 DUP3 ADD SWAP1 POP SWAP2 SWAP1 POP JUMP JUMPDEST PUSH1 0x0 PUSH2 0x2794 DUP3 PUSH2 0x2738 JUMP JUMPDEST PUSH2 0x279E DUP2 DUP6 PUSH2 0x2743 JUMP JUMPDEST SWAP4 POP PUSH2 0x27A9 DUP4 PUSH2 0x2754 JUMP JUMPDEST DUP1 PUSH1 0x0 JUMPDEST DUP4 DUP2 LT ISZERO PUSH2 0x27DA JUMPI DUP2 MLOAD PUSH2 0x27C1 DUP9 DUP3 PUSH2 0x2764 JUMP JUMPDEST SWAP8 POP PUSH2 0x27CC DUP4 PUSH2 0x277C JUMP JUMPDEST SWAP3 POP POP PUSH1 0x1 DUP2 ADD SWAP1 POP PUSH2 0x27AD JUMP JUMPDEST POP DUP6 SWAP4 POP POP POP POP SWAP3 SWAP2 POP POP JUMP JUMPDEST PUSH1 0x0 PUSH1 0x40 DUP4 ADD PUSH1 0x0 DUP4 ADD MLOAD DUP5 DUP3 SUB PUSH1 0x0 DUP7 ADD MSTORE PUSH2 0x2804 DUP3 DUP3 PUSH2 0x26DA JUMP JUMPDEST SWAP2 POP POP PUSH1 0x20 DUP4 ADD MLOAD DUP5 DUP3 SUB PUSH1 0x20 DUP7 ADD MSTORE PUSH2 0x281E DUP3 DUP3 PUSH2 0x2789 JUMP JUMPDEST SWAP2 POP POP DUP1 SWAP2 POP POP SWAP3 SWAP2 POP POP JUMP JUMPDEST PUSH1 0x0 PUSH1 0x20 DUP3 ADD SWAP1 POP DUP2 DUP2 SUB PUSH1 0x0 DUP4 ADD MSTORE PUSH2 0x2845 DUP2 DUP5 PUSH2 0x27E7 JUMP JUMPDEST SWAP1 POP SWAP3 SWAP2 POP POP JUMP JUMPDEST PUSH1 0x0 PUSH2 0x2858 DUP3 PUSH2 0x227F JUMP JUMPDEST SWAP1 POP SWAP2 SWAP1 POP JUMP JUMPDEST PUSH2 0x2868 DUP2 PUSH2 0x284D JUMP JUMPDEST DUP3 MSTORE POP POP JUMP JUMPDEST PUSH1 0x0 PUSH1 0x20 DUP3 ADD SWAP1 POP PUSH2 0x2883 PUSH1 0x0 DUP4 ADD DUP5 PUSH2 0x285F JUMP JUMPDEST SWAP3 SWAP2 POP POP JUMP JUMPDEST PUSH1 0x0 PUSH2 0x2894 DUP3 PUSH2 0x227F JUMP JUMPDEST SWAP1 POP SWAP2 SWAP1 POP JUMP JUMPDEST PUSH2 0x28A4 DUP2 PUSH2 0x2889 JUMP JUMPDEST DUP3 MSTORE POP POP JUMP JUMPDEST PUSH1 0x0 PUSH1 0x20 DUP3 ADD SWAP1 POP PUSH2 0x28BF PUSH1 0x0 DUP4 ADD DUP5 PUSH2 0x289B JUMP JUMPDEST SWAP3 SWAP2 POP POP JUMP JUMPDEST PUSH1 0x0 PUSH1 0x40 DUP3 ADD SWAP1 POP PUSH2 0x28DA PUSH1 0x0 DUP4 ADD DUP6 PUSH2 0x2182 JUMP JUMPDEST PUSH2 0x28E7 PUSH1 0x20 DUP4 ADD DUP5 PUSH2 0x25DD JUMP JUMPDEST SWAP4 SWAP3 POP POP POP JUMP JUMPDEST PUSH1 0x0 DUP2 MLOAD SWAP1 POP SWAP2 SWAP1 POP JUMP JUMPDEST PUSH1 0x0 DUP3 DUP3 MSTORE PUSH1 0x20 DUP3 ADD SWAP1 POP SWAP3 SWAP2 POP POP JUMP JUMPDEST PUSH1 0x0 JUMPDEST DUP4 DUP2 LT ISZERO PUSH2 0x2928 JUMPI DUP1 DUP3 ADD MLOAD DUP2 DUP5 ADD MSTORE PUSH1 0x20 DUP2 ADD SWAP1 POP PUSH2 0x290D JUMP JUMPDEST PUSH1 0x0 DUP5 DUP5 ADD MSTORE POP POP POP POP JUMP JUMPDEST PUSH1 0x0 PUSH1 0x1F NOT PUSH1 0x1F DUP4 ADD AND SWAP1 POP SWAP2 SWAP1 POP JUMP JUMPDEST PUSH1 0x0 PUSH2 0x2950 DUP3 PUSH2 0x28EE JUMP JUMPDEST PUSH2 0x295A DUP2 DUP6 PUSH2 0x28F9 JUMP JUMPDEST SWAP4 POP PUSH2 0x296A DUP2 DUP6 PUSH1 0x20 DUP7 ADD PUSH2 0x290A JUMP JUMPDEST PUSH2 0x2973 DUP2 PUSH2 0x2934 JUMP JUMPDEST DUP5 ADD SWAP2 POP POP SWAP3 SWAP2 POP POP JUMP JUMPDEST PUSH1 0x0 PUSH1 0x20 DUP3 ADD SWAP1 POP DUP2 DUP2 SUB PUSH1 0x0 DUP4 ADD MSTORE PUSH2 0x2998 DUP2 DUP5 PUSH2 0x2945 JUMP JUMPDEST SWAP1 POP SWAP3 SWAP2 POP POP JUMP JUMPDEST PUSH1 0x0 DUP2 SWAP1 POP SWAP3 SWAP2 POP POP JUMP JUMPDEST PUSH32 0x5B47756172616E7465656420496E766573746D656E74204D617267696E5D2D2D PUSH1 0x0 DUP3 ADD MSTORE PUSH32 0x3A00000000000000000000000000000000000000000000000000000000000000 PUSH1 0x20 DUP3 ADD MSTORE POP JUMP JUMPDEST PUSH1 0x0 PUSH2 0x2A07 PUSH1 0x21 DUP4 PUSH2 0x29A0 JUMP JUMPDEST SWAP2 POP PUSH2 0x2A12 DUP3 PUSH2 0x29AB JUMP JUMPDEST PUSH1 0x21 DUP3 ADD SWAP1 POP SWAP2 SWAP1 POP JUMP JUMPDEST PUSH1 0x0 PUSH2 0x2A28 DUP3 PUSH2 0x28EE JUMP JUMPDEST PUSH2 0x2A32 DUP2 DUP6 PUSH2 0x29A0 JUMP JUMPDEST SWAP4 POP PUSH2 0x2A42 DUP2 DUP6 PUSH1 0x20 DUP7 ADD PUSH2 0x290A JUMP JUMPDEST DUP1 DUP5 ADD SWAP2 POP POP SWAP3 SWAP2 POP POP JUMP JUMPDEST PUSH32 0x5745490000000000000000000000000000000000000000000000000000000000 PUSH1 0x0 DUP3 ADD MSTORE POP JUMP JUMPDEST PUSH1 0x0 PUSH2 0x2A84 PUSH1 0x3 DUP4 PUSH2 0x29A0 JUMP JUMPDEST SWAP2 POP PUSH2 0x2A8F DUP3 PUSH2 0x2A4E JUMP JUMPDEST PUSH1 0x3 DUP3 ADD SWAP1 POP SWAP2 SWAP1 POP JUMP JUMPDEST PUSH1 0x0 PUSH2 0x2AA5 DUP3 PUSH2 0x29FA JUMP JUMPDEST SWAP2 POP PUSH2 0x2AB1 DUP3 DUP5 PUSH2 0x2A1D JUMP JUMPDEST SWAP2 POP PUSH2 0x2ABC DUP3 PUSH2 0x2A77 JUMP JUMPDEST SWAP2 POP DUP2 SWAP1 POP SWAP3 SWAP2 POP POP JUMP JUMPDEST PUSH32 0x5374616B696E672047756172616E746565204361726400000000000000000000 PUSH1 0x0 DUP3 ADD MSTORE POP JUMP JUMPDEST PUSH1 0x0 PUSH2 0x2AFD PUSH1 0x16 DUP4 PUSH2 0x28F9 JUMP JUMPDEST SWAP2 POP PUSH2 0x2B08 DUP3 PUSH2 0x2AC7 JUMP JUMPDEST PUSH1 0x20 DUP3 ADD SWAP1 POP SWAP2 SWAP1 POP JUMP JUMPDEST PUSH32 0x68747470733A2F2F697066732E696F2F697066732F516D5155756D7138695963 PUSH1 0x0 DUP3 ADD MSTORE PUSH32 0x41395838756F61664D325955384C6579794D4B7A554E32484635464770364E70 PUSH1 0x20 DUP3 ADD MSTORE PUSH32 0x5845563F66696C656E616D653D47726F7570253230343538342E6A7067000000 PUSH1 0x40 DUP3 ADD MSTORE POP JUMP JUMPDEST PUSH1 0x0 PUSH2 0x2B95 PUSH1 0x5D DUP4 PUSH2 0x28F9 JUMP JUMPDEST SWAP2 POP PUSH2 0x2BA0 DUP3 PUSH2 0x2B13 JUMP JUMPDEST PUSH1 0x60 DUP3 ADD SWAP1 POP SWAP2 SWAP1 POP JUMP JUMPDEST PUSH1 0x0 PUSH1 0x60 DUP3 ADD SWAP1 POP DUP2 DUP2 SUB PUSH1 0x0 DUP4 ADD MSTORE PUSH2 0x2BC4 DUP2 PUSH2 0x2AF0 JUMP JUMPDEST SWAP1 POP DUP2 DUP2 SUB PUSH1 0x20 DUP4 ADD MSTORE PUSH2 0x2BD8 DUP2 DUP5 PUSH2 0x2945 JUMP JUMPDEST SWAP1 POP DUP2 DUP2 SUB PUSH1 0x40 DUP4 ADD MSTORE PUSH2 0x2BEB DUP2 PUSH2 0x2B88 JUMP JUMPDEST SWAP1 POP SWAP3 SWAP2 POP POP JUMP JUMPDEST PUSH1 0x0 DUP2 MLOAD SWAP1 POP PUSH2 0x2C02 DUP2 PUSH2 0x233F JUMP JUMPDEST SWAP3 SWAP2 POP POP JUMP JUMPDEST PUSH1 0x0 PUSH1 0x20 DUP3 DUP5 SUB SLT ISZERO PUSH2 0x2C1E JUMPI PUSH2 0x2C1D PUSH2 0x21D5 JUMP JUMPDEST JUMPDEST PUSH1 0x0 PUSH2 0x2C2C DUP5 DUP3 DUP6 ADD PUSH2 0x2BF3 JUMP JUMPDEST SWAP2 POP POP SWAP3 SWAP2 POP POP JUMP JUMPDEST PUSH32 0x4E6F205265456E7472616E637900000000000000000000000000000000000000 PUSH1 0x0 DUP3 ADD MSTORE POP JUMP JUMPDEST PUSH1 0x0 PUSH2 0x2C6B PUSH1 0xD DUP4 PUSH2 0x28F9 JUMP JUMPDEST SWAP2 POP PUSH2 0x2C76 DUP3 PUSH2 0x2C35 JUMP JUMPDEST PUSH1 0x20 DUP3 ADD SWAP1 POP SWAP2 SWAP1 POP JUMP JUMPDEST PUSH1 0x0 PUSH1 0x20 DUP3 ADD SWAP1 POP DUP2 DUP2 SUB PUSH1 0x0 DUP4 ADD MSTORE PUSH2 0x2C9A DUP2 PUSH2 0x2C5E JUMP JUMPDEST SWAP1 POP SWAP2 SWAP1 POP JUMP JUMPDEST PUSH32 0x4572726F7220696E204D616B652051564520657363726F77656420616E642056 PUSH1 0x0 DUP3 ADD MSTORE PUSH32 0x657374696E670000000000000000000000000000000000000000000000000000 PUSH1 0x20 DUP3 ADD MSTORE POP JUMP JUMPDEST PUSH1 0x0 PUSH2 0x2CFD PUSH1 0x26 DUP4 PUSH2 0x28F9 JUMP JUMPDEST SWAP2 POP PUSH2 0x2D08 DUP3 PUSH2 0x2CA1 JUMP JUMPDEST PUSH1 0x40 DUP3 ADD SWAP1 POP SWAP2 SWAP1 POP JUMP JUMPDEST PUSH1 0x0 PUSH1 0x20 DUP3 ADD SWAP1 POP DUP2 DUP2 SUB PUSH1 0x0 DUP4 ADD MSTORE PUSH2 0x2D2C DUP2 PUSH2 0x2CF0 JUMP JUMPDEST SWAP1 POP SWAP2 SWAP1 POP JUMP JUMPDEST PUSH1 0x0 PUSH1 0xFF DUP3 AND SWAP1 POP SWAP2 SWAP1 POP JUMP JUMPDEST PUSH32 0x4E487B7100000000000000000000000000000000000000000000000000000000 PUSH1 0x0 MSTORE PUSH1 0x11 PUSH1 0x4 MSTORE PUSH1 0x24 PUSH1 0x0 REVERT JUMPDEST PUSH1 0x0 PUSH2 0x2D7A DUP3 PUSH2 0x2D33 JUMP JUMPDEST SWAP2 POP PUSH2 0x2D85 DUP4 PUSH2 0x2D33 JUMP JUMPDEST SWAP3 POP DUP3 DUP3 SUB SWAP1 POP PUSH1 0xFF DUP2 GT ISZERO PUSH2 0x2D9E JUMPI PUSH2 0x2D9D PUSH2 0x2D40 JUMP JUMPDEST JUMPDEST SWAP3 SWAP2 POP POP JUMP JUMPDEST PUSH1 0x0 PUSH1 0x40 DUP3 ADD SWAP1 POP PUSH2 0x2DB9 PUSH1 0x0 DUP4 ADD DUP6 PUSH2 0x25DD JUMP JUMPDEST PUSH2 0x2DC6 PUSH1 0x20 DUP4 ADD DUP5 PUSH2 0x2182 JUMP JUMPDEST SWAP4 SWAP3 POP POP POP JUMP JUMPDEST PUSH32 0x4572726F7220696E20515645207374616B696E67000000000000000000000000 PUSH1 0x0 DUP3 ADD MSTORE POP JUMP JUMPDEST PUSH1 0x0 PUSH2 0x2E03 PUSH1 0x14 DUP4 PUSH2 0x28F9 JUMP JUMPDEST SWAP2 POP PUSH2 0x2E0E DUP3 PUSH2 0x2DCD JUMP JUMPDEST PUSH1 0x20 DUP3 ADD SWAP1 POP SWAP2 SWAP1 POP JUMP JUMPDEST PUSH1 0x0 PUSH1 0x20 DUP3 ADD SWAP1 POP DUP2 DUP2 SUB PUSH1 0x0 DUP4 ADD MSTORE PUSH2 0x2E32 DUP2 PUSH2 0x2DF6 JUMP JUMPDEST SWAP1 POP SWAP2 SWAP1 POP JUMP JUMPDEST PUSH1 0x0 PUSH1 0x60 DUP3 ADD SWAP1 POP PUSH2 0x2E4E PUSH1 0x0 DUP4 ADD DUP7 PUSH2 0x2182 JUMP JUMPDEST PUSH2 0x2E5B PUSH1 0x20 DUP4 ADD DUP6 PUSH2 0x25DD JUMP JUMPDEST PUSH2 0x2E68 PUSH1 0x40 DUP4 ADD DUP5 PUSH2 0x2182 JUMP JUMPDEST SWAP5 SWAP4 POP POP POP POP JUMP JUMPDEST PUSH1 0x0 DUP2 MLOAD SWAP1 POP PUSH2 0x2E7F DUP2 PUSH2 0x21DA JUMP JUMPDEST SWAP3 SWAP2 POP POP JUMP JUMPDEST PUSH1 0x0 PUSH1 0x20 DUP3 DUP5 SUB SLT ISZERO PUSH2 0x2E9B JUMPI PUSH2 0x2E9A PUSH2 0x21D5 JUMP JUMPDEST JUMPDEST PUSH1 0x0 PUSH2 0x2EA9 DUP5 DUP3 DUP6 ADD PUSH2 0x2E70 JUMP JUMPDEST SWAP2 POP POP SWAP3 SWAP2 POP POP JUMP JUMPDEST PUSH1 0x0 PUSH1 0x60 DUP3 ADD SWAP1 POP PUSH2 0x2EC7 PUSH1 0x0 DUP4 ADD DUP7 PUSH2 0x25DD JUMP JUMPDEST PUSH2 0x2ED4 PUSH1 0x20 DUP4 ADD DUP6 PUSH2 0x25DD JUMP JUMPDEST PUSH2 0x2EE1 PUSH1 0x40 DUP4 ADD DUP5 PUSH2 0x2182 JUMP JUMPDEST SWAP5 SWAP4 POP POP POP POP JUMP JUMPDEST PUSH1 0x0 PUSH2 0x2EF4 DUP3 PUSH2 0x2178 JUMP JUMPDEST SWAP2 POP PUSH2 0x2EFF DUP4 PUSH2 0x2178 JUMP JUMPDEST SWAP3 POP DUP3 DUP3 SUB SWAP1 POP DUP2 DUP2 GT ISZERO PUSH2 0x2F17 JUMPI PUSH2 0x2F16 PUSH2 0x2D40 JUMP JUMPDEST JUMPDEST SWAP3 SWAP2 POP POP JUMP JUMPDEST PUSH32 0x4F776E61626C653A206E6577206F776E657220697320746865207A65726F2061 PUSH1 0x0 DUP3 ADD MSTORE PUSH32 0x6464726573730000000000000000000000000000000000000000000000000000 PUSH1 0x20 DUP3 ADD MSTORE POP JUMP JUMPDEST PUSH1 0x0 PUSH2 0x2F79 PUSH1 0x26 DUP4 PUSH2 0x28F9 JUMP JUMPDEST SWAP2 POP PUSH2 0x2F84 DUP3 PUSH2 0x2F1D JUMP JUMPDEST PUSH1 0x40 DUP3 ADD SWAP1 POP SWAP2 SWAP1 POP JUMP JUMPDEST PUSH1 0x0 PUSH1 0x20 DUP3 ADD SWAP1 POP DUP2 DUP2 SUB PUSH1 0x0 DUP4 ADD MSTORE PUSH2 0x2FA8 DUP2 PUSH2 0x2F6C JUMP JUMPDEST SWAP1 POP SWAP2 SWAP1 POP JUMP JUMPDEST PUSH32 0x4E487B7100000000000000000000000000000000000000000000000000000000 PUSH1 0x0 MSTORE PUSH1 0x41 PUSH1 0x4 MSTORE PUSH1 0x24 PUSH1 0x0 REVERT JUMPDEST PUSH32 0x4E487B7100000000000000000000000000000000000000000000000000000000 PUSH1 0x0 MSTORE PUSH1 0x12 PUSH1 0x4 MSTORE PUSH1 0x24 PUSH1 0x0 REVERT JUMPDEST PUSH1 0x0 PUSH2 0x3018 DUP3 PUSH2 0x2178 JUMP JUMPDEST SWAP2 POP PUSH2 0x3023 DUP4 PUSH2 0x2178 JUMP JUMPDEST SWAP3 POP DUP3 DUP3 MUL PUSH2 0x3031 DUP2 PUSH2 0x2178 JUMP JUMPDEST SWAP2 POP DUP3 DUP3 DIV DUP5 EQ DUP4 ISZERO OR PUSH2 0x3048 JUMPI PUSH2 0x3047 PUSH2 0x2D40 JUMP JUMPDEST JUMPDEST POP SWAP3 SWAP2 POP POP JUMP JUMPDEST PUSH1 0x0 PUSH2 0x305A DUP3 PUSH2 0x2178 JUMP JUMPDEST SWAP2 POP PUSH2 0x3065 DUP4 PUSH2 0x2178 JUMP JUMPDEST SWAP3 POP DUP3 PUSH2 0x3075 JUMPI PUSH2 0x3074 PUSH2 0x2FDE JUMP JUMPDEST JUMPDEST DUP3 DUP3 DIV SWAP1 POP SWAP3 SWAP2 POP POP JUMP JUMPDEST PUSH32 0x4F776E61626C653A2063616C6C6572206973206E6F7420746865206F776E6572 PUSH1 0x0 DUP3 ADD MSTORE POP JUMP JUMPDEST PUSH1 0x0 PUSH2 0x30B6 PUSH1 0x20 DUP4 PUSH2 0x28F9 JUMP JUMPDEST SWAP2 POP PUSH2 0x30C1 DUP3 PUSH2 0x3080 JUMP JUMPDEST PUSH1 0x20 DUP3 ADD SWAP1 POP SWAP2 SWAP1 POP JUMP JUMPDEST PUSH1 0x0 PUSH1 0x20 DUP3 ADD SWAP1 POP DUP2 DUP2 SUB PUSH1 0x0 DUP4 ADD MSTORE PUSH2 0x30E5 DUP2 PUSH2 0x30A9 JUMP JUMPDEST SWAP1 POP SWAP2 SWAP1 POP JUMP JUMPDEST PUSH1 0x0 PUSH2 0x30F7 DUP3 PUSH2 0x2178 JUMP JUMPDEST SWAP2 POP PUSH2 0x3102 DUP4 PUSH2 0x2178 JUMP JUMPDEST SWAP3 POP DUP3 DUP3 ADD SWAP1 POP DUP1 DUP3 GT ISZERO PUSH2 0x311A JUMPI PUSH2 0x3119 PUSH2 0x2D40 JUMP JUMPDEST JUMPDEST SWAP3 SWAP2 POP POP JUMP JUMPDEST PUSH1 0x0 PUSH1 0x40 DUP3 ADD SWAP1 POP PUSH2 0x3135 PUSH1 0x0 DUP4 ADD DUP6 PUSH2 0x25DD JUMP JUMPDEST PUSH2 0x3142 PUSH1 0x20 DUP4 ADD DUP5 PUSH2 0x2315 JUMP JUMPDEST SWAP4 SWAP3 POP POP POP JUMP INVALID JUMPI PUSH2 0x726E PUSH10 0x6E67203A2053656E7420 GASLIMIT PUSH21 0x6820416D6F756E7420616E642057616E7465642041 PUSH14 0x6F756E7420617265206469666665 PUSH19 0x656E74A264697066735822122098E5482EB4DD 0xBC DUP9 CALLCODE NOT MSTORE 0xED ISZERO PUSH26 0x97186795F7F8F654EE39BEC9D8A349A10F4064736F6C63430008 SLT STOP CALLER "
		},
		"gasEstimates": {
			"creation": {
				"codeDepositCost": "2545600",
				"executionCost": "infinite",
				"totalCost": "infinite"
			},
			"external": {
				"QVEliquidityPool()": "infinite",
				"_sendQVEFromLiquidity(address,uint256)": "infinite",
				"burnInvestmentGuarantee(uint256)": "infinite",
				"doQVEStake(uint256)": "infinite",
				"esQVEliquidityPool()": "infinite",
				"getEthBalance(address)": "3324",
				"getEthMarginVault_()": "infinite",
				"getInputedMarginCount()": "2597",
				"getNFTbalance_()": "infinite",
				"getNfts_()": "infinite",
				"getQVELiquidityAmount_()": "2511",
				"getmarginForNFT_(uint256)": "infinite",
				"owner()": "2705",
				"qveEscrow()": "infinite",
				"qveStaking()": "infinite",
				"qveSwap()": "infinite",
				"qveVesting()": "infinite",
				"qvenft()": "infinite",
				"qvetoken()": "infinite",
				"receiveAsset(bool,uint256)": "infinite",
				"renounceOwnership()": "30593",
				"shortenLockup(uint256,uint256)": "infinite",
				"swapETHtoQVE(uint256)": "infinite",
				"swapQVEtoETH(uint256)": "infinite",
				"transferOwnership(address)": "30960"
			},
			"internal": {
				"_addLiquidity(uint256)": "infinite",
				"_addUserMarginVault(address,uint256,uint256)": "infinite",
				"_botAddress()": "infinite",
				"_issueGuaranteeNFT(address,uint256,bool)": "infinite",
				"_makeQVEescrowedAndVesting(address,uint256)": "infinite",
				"_subLiquidity(uint256)": "infinite",
				"investmentEth(uint256,bool)": "infinite"
			}
		},
		"methodIdentifiers": {
			"QVEliquidityPool()": "0e301d24",
			"_sendQVEFromLiquidity(address,uint256)": "d08b8d6a",
			"burnInvestmentGuarantee(uint256)": "7a378e05",
			"doQVEStake(uint256)": "56289c29",
			"esQVEliquidityPool()": "0691badf",
			"getEthBalance(address)": "4d2301cc",
			"getEthMarginVault_()": "ef071bcd",
			"getInputedMarginCount()": "8866b937",
			"getNFTbalance_()": "9f62e796",
			"getNfts_()": "5ac66993",
			"getQVELiquidityAmount_()": "1552e770",
			"getmarginForNFT_(uint256)": "1eb5c7ae",
			"owner()": "8da5cb5b",
			"qveEscrow()": "fdcdbae2",
			"qveStaking()": "2adcbebd",
			"qveSwap()": "69394135",
			"qveVesting()": "f968217b",
			"qvenft()": "510b7f98",
			"qvetoken()": "2b1c4158",
			"receiveAsset(bool,uint256)": "2f3f1730",
			"renounceOwnership()": "715018a6",
			"shortenLockup(uint256,uint256)": "83ce6147",
			"swapETHtoQVE(uint256)": "eff8c547",
			"swapQVEtoETH(uint256)": "2e64b7d4",
			"transferOwnership(address)": "f2fde38b"
		}
	},
	"abi": [
		{
			"inputs": [
				{
					"internalType": "contract QVEtoken",
					"name": "_qveTokenAddress",
					"type": "address"
				},
				{
					"internalType": "contract QVEnft",
					"name": "_qvenft",
					"type": "address"
				},
				{
					"internalType": "contract QVEescrow",
					"name": "_qveEscrow",
					"type": "address"
				},
				{
					"internalType": "contract QVEvesting",
					"name": "_qveVesting",
					"type": "address"
				},
				{
					"internalType": "contract QVEstaking",
					"name": "_qveStaking",
					"type": "address"
				},
				{
					"internalType": "contract QVEswap",
					"name": "_qveSwap",
					"type": "address"
				}
			],
			"stateMutability": "nonpayable",
			"type": "constructor"
		},
		{
			"anonymous": false,
			"inputs": [
				{
					"indexed": true,
					"internalType": "address",
					"name": "previousOwner",
					"type": "address"
				},
				{
					"indexed": true,
					"internalType": "address",
					"name": "newOwner",
					"type": "address"
				}
			],
			"name": "OwnershipTransferred",
			"type": "event"
		},
		{
			"anonymous": false,
			"inputs": [
				{
					"indexed": true,
					"internalType": "address",
					"name": "sender",
					"type": "address"
				},
				{
					"indexed": false,
					"internalType": "uint256",
					"name": "amount",
					"type": "uint256"
				}
			],
			"name": "Received",
			"type": "event"
		},
		{
			"inputs": [],
			"name": "QVEliquidityPool",
			"outputs": [
				{
					"internalType": "uint256",
					"name": "balance",
					"type": "uint256"
				},
				{
					"internalType": "uint256",
					"name": "at",
					"type": "uint256"
				}
			],
			"stateMutability": "view",
			"type": "function"
		},
		{
			"inputs": [
				{
					"internalType": "address",
					"name": "_to",
					"type": "address"
				},
				{
					"internalType": "uint256",
					"name": "sendAmount",
					"type": "uint256"
				}
			],
			"name": "_sendQVEFromLiquidity",
			"outputs": [
				{
					"internalType": "bool",
					"name": "",
					"type": "bool"
				}
			],
			"stateMutability": "nonpayable",
			"type": "function"
		},
		{
			"inputs": [
				{
					"internalType": "uint256",
					"name": "tokenId",
					"type": "uint256"
				}
			],
			"name": "burnInvestmentGuarantee",
			"outputs": [
				{
					"internalType": "bool",
					"name": "",
					"type": "bool"
				}
			],
			"stateMutability": "nonpayable",
			"type": "function"
		},
		{
			"inputs": [
				{
					"internalType": "uint256",
					"name": "qveStakeAmount",
					"type": "uint256"
				}
			],
			"name": "doQVEStake",
			"outputs": [
				{
					"internalType": "bool",
					"name": "",
					"type": "bool"
				}
			],
			"stateMutability": "nonpayable",
			"type": "function"
		},
		{
			"inputs": [],
			"name": "esQVEliquidityPool",
			"outputs": [
				{
					"internalType": "uint256",
					"name": "balance",
					"type": "uint256"
				},
				{
					"internalType": "uint256",
					"name": "at",
					"type": "uint256"
				}
			],
			"stateMutability": "view",
			"type": "function"
		},
		{
			"inputs": [
				{
					"internalType": "address",
					"name": "_address",
					"type": "address"
				}
			],
			"name": "getEthBalance",
			"outputs": [
				{
					"internalType": "uint256",
					"name": "",
					"type": "uint256"
				}
			],
			"stateMutability": "view",
			"type": "function"
		},
		{
			"inputs": [],
			"name": "getEthMarginVault_",
			"outputs": [
				{
					"components": [
						{
							"components": [
								{
									"internalType": "uint256",
									"name": "marginAmount",
									"type": "uint256"
								},
								{
									"internalType": "uint256",
									"name": "at",
									"type": "uint256"
								},
								{
									"internalType": "uint256",
									"name": "tokenId",
									"type": "uint256"
								}
							],
							"internalType": "struct QVEcore.marginDetail[]",
							"name": "marginDetails",
							"type": "tuple[]"
						},
						{
							"internalType": "uint256[]",
							"name": "holdNFT",
							"type": "uint256[]"
						}
					],
					"internalType": "struct QVEcore.userMarginData",
					"name": "",
					"type": "tuple"
				}
			],
			"stateMutability": "view",
			"type": "function"
		},
		{
			"inputs": [],
			"name": "getInputedMarginCount",
			"outputs": [
				{
					"internalType": "uint256",
					"name": "",
					"type": "uint256"
				}
			],
			"stateMutability": "view",
			"type": "function"
		},
		{
			"inputs": [],
			"name": "getNFTbalance_",
			"outputs": [
				{
					"internalType": "uint256",
					"name": "",
					"type": "uint256"
				}
			],
			"stateMutability": "view",
			"type": "function"
		},
		{
			"inputs": [],
			"name": "getNfts_",
			"outputs": [
				{
					"components": [
						{
							"internalType": "uint256",
							"name": "tokenId",
							"type": "uint256"
						},
						{
							"internalType": "uint256",
							"name": "at",
							"type": "uint256"
						}
					],
					"internalType": "struct QVEcore.NFTFragment[]",
					"name": "",
					"type": "tuple[]"
				}
			],
			"stateMutability": "view",
			"type": "function"
		},
		{
			"inputs": [],
			"name": "getQVELiquidityAmount_",
			"outputs": [
				{
					"internalType": "uint256",
					"name": "",
					"type": "uint256"
				}
			],
			"stateMutability": "view",
			"type": "function"
		},
		{
			"inputs": [
				{
					"internalType": "uint256",
					"name": "tokenId",
					"type": "uint256"
				}
			],
			"name": "getmarginForNFT_",
			"outputs": [
				{
					"internalType": "uint256",
					"name": "",
					"type": "uint256"
				}
			],
			"stateMutability": "view",
			"type": "function"
		},
		{
			"inputs": [],
			"name": "owner",
			"outputs": [
				{
					"internalType": "address",
					"name": "",
					"type": "address"
				}
			],
			"stateMutability": "view",
			"type": "function"
		},
		{
			"inputs": [],
			"name": "qveEscrow",
			"outputs": [
				{
					"internalType": "contract QVEescrow",
					"name": "",
					"type": "address"
				}
			],
			"stateMutability": "view",
			"type": "function"
		},
		{
			"inputs": [],
			"name": "qveStaking",
			"outputs": [
				{
					"internalType": "contract QVEstaking",
					"name": "",
					"type": "address"
				}
			],
			"stateMutability": "view",
			"type": "function"
		},
		{
			"inputs": [],
			"name": "qveSwap",
			"outputs": [
				{
					"internalType": "contract QVEswap",
					"name": "",
					"type": "address"
				}
			],
			"stateMutability": "view",
			"type": "function"
		},
		{
			"inputs": [],
			"name": "qveVesting",
			"outputs": [
				{
					"internalType": "contract QVEvesting",
					"name": "",
					"type": "address"
				}
			],
			"stateMutability": "view",
			"type": "function"
		},
		{
			"inputs": [],
			"name": "qvenft",
			"outputs": [
				{
					"internalType": "contract QVEnft",
					"name": "",
					"type": "address"
				}
			],
			"stateMutability": "view",
			"type": "function"
		},
		{
			"inputs": [],
			"name": "qvetoken",
			"outputs": [
				{
					"internalType": "contract QVEtoken",
					"name": "",
					"type": "address"
				}
			],
			"stateMutability": "view",
			"type": "function"
		},
		{
			"inputs": [
				{
					"internalType": "bool",
					"name": "lockup",
					"type": "bool"
				},
				{
					"internalType": "uint256",
					"name": "sendAmount",
					"type": "uint256"
				}
			],
			"name": "receiveAsset",
			"outputs": [
				{
					"internalType": "bool",
					"name": "",
					"type": "bool"
				}
			],
			"stateMutability": "payable",
			"type": "function"
		},
		{
			"inputs": [],
			"name": "renounceOwnership",
			"outputs": [],
			"stateMutability": "nonpayable",
			"type": "function"
		},
		{
			"inputs": [
				{
					"internalType": "uint256",
					"name": "qveAmount",
					"type": "uint256"
				},
				{
					"internalType": "uint256",
					"name": "tokenId",
					"type": "uint256"
				}
			],
			"name": "shortenLockup",
			"outputs": [
				{
					"internalType": "bool",
					"name": "",
					"type": "bool"
				}
			],
			"stateMutability": "nonpayable",
			"type": "function"
		},
		{
			"inputs": [
				{
					"internalType": "uint256",
					"name": "tokenAmount",
					"type": "uint256"
				}
			],
			"name": "swapETHtoQVE",
			"outputs": [
				{
					"internalType": "bool",
					"name": "",
					"type": "bool"
				}
			],
			"stateMutability": "nonpayable",
			"type": "function"
		},
		{
			"inputs": [
				{
					"internalType": "uint256",
					"name": "tokenAmount",
					"type": "uint256"
				}
			],
			"name": "swapQVEtoETH",
			"outputs": [
				{
					"internalType": "bool",
					"name": "",
					"type": "bool"
				}
			],
			"stateMutability": "nonpayable",
			"type": "function"
		},
		{
			"inputs": [
				{
					"internalType": "address",
					"name": "newOwner",
					"type": "address"
				}
			],
			"name": "transferOwnership",
			"outputs": [],
			"stateMutability": "nonpayable",
			"type": "function"
		},
		{
			"stateMutability": "payable",
			"type": "receive"
		}
	]
}