{
	"data": {
		"bytecode": {
			"linkReferences": {},
			"object": "60806040523480156200001157600080fd5b50604051620035ac380380620035ac8339818101604052810190620000379190620006a9565b620000576200004b6200040560201b60201c565b6200040d60201b60201c565b85600260006101000a81548173ffffffffffffffffffffffffffffffffffffffff021916908373ffffffffffffffffffffffffffffffffffffffff16021790555084600360006101000a81548173ffffffffffffffffffffffffffffffffffffffff021916908373ffffffffffffffffffffffffffffffffffffffff16021790555083600460006101000a81548173ffffffffffffffffffffffffffffffffffffffff021916908373ffffffffffffffffffffffffffffffffffffffff16021790555082600560006101000a81548173ffffffffffffffffffffffffffffffffffffffff021916908373ffffffffffffffffffffffffffffffffffffffff16021790555081600660006101000a81548173ffffffffffffffffffffffffffffffffffffffff021916908373ffffffffffffffffffffffffffffffffffffffff16021790555080600760006101000a81548173ffffffffffffffffffffffffffffffffffffffff021916908373ffffffffffffffffffffffffffffffffffffffff160217905550600260009054906101000a900473ffffffffffffffffffffffffffffffffffffffff1673ffffffffffffffffffffffffffffffffffffffff1663469895c833306004600260009054906101000a900473ffffffffffffffffffffffffffffffffffffffff1673ffffffffffffffffffffffffffffffffffffffff166318160ddd6040518163ffffffff1660e01b8152600401602060405180830381865afa1580156200028d573d6000803e3d6000fd5b505050506040513d601f19601f82011682018060405250810190620002b3919062000780565b620002bf919062000810565b6040518463ffffffff1660e01b8152600401620002df939291906200086a565b6020604051808303816000875af1158015620002ff573d6000803e3d6000fd5b505050506040513d601f19601f82011682018060405250810190620003259190620008e4565b50670de0b6b3a7640000600260009054906101000a900473ffffffffffffffffffffffffffffffffffffffff1673ffffffffffffffffffffffffffffffffffffffff166370a08231306040518263ffffffff1660e01b81526004016200038c919062000916565b602060405180830381865afa158015620003aa573d6000803e3d6000fd5b505050506040513d601f19601f82011682018060405250810190620003d0919062000780565b620003dc919062000810565b60096000016000828254620003f2919062000933565b925050819055505050505050506200096e565b600033905090565b60008060019054906101000a900473ffffffffffffffffffffffffffffffffffffffff16905081600060016101000a81548173ffffffffffffffffffffffffffffffffffffffff021916908373ffffffffffffffffffffffffffffffffffffffff1602179055508173ffffffffffffffffffffffffffffffffffffffff168173ffffffffffffffffffffffffffffffffffffffff167f8be0079c531659141344cd1fd0a4f28419497f9722a3daafe3b4186f6b6457e060405160405180910390a35050565b600080fd5b600073ffffffffffffffffffffffffffffffffffffffff82169050919050565b60006200050482620004d7565b9050919050565b60006200051882620004f7565b9050919050565b6200052a816200050b565b81146200053657600080fd5b50565b6000815190506200054a816200051f565b92915050565b60006200055d82620004f7565b9050919050565b6200056f8162000550565b81146200057b57600080fd5b50565b6000815190506200058f8162000564565b92915050565b6000620005a282620004f7565b9050919050565b620005b48162000595565b8114620005c057600080fd5b50565b600081519050620005d481620005a9565b92915050565b6000620005e782620004f7565b9050919050565b620005f981620005da565b81146200060557600080fd5b50565b6000815190506200061981620005ee565b92915050565b60006200062c82620004f7565b9050919050565b6200063e816200061f565b81146200064a57600080fd5b50565b6000815190506200065e8162000633565b92915050565b60006200067182620004f7565b9050919050565b620006838162000664565b81146200068f57600080fd5b50565b600081519050620006a38162000678565b92915050565b60008060008060008060c08789031215620006c957620006c8620004d2565b5b6000620006d989828a0162000539565b9650506020620006ec89828a016200057e565b9550506040620006ff89828a01620005c3565b94505060606200071289828a0162000608565b93505060806200072589828a016200064d565b92505060a06200073889828a0162000692565b9150509295509295509295565b6000819050919050565b6200075a8162000745565b81146200076657600080fd5b50565b6000815190506200077a816200074f565b92915050565b600060208284031215620007995762000798620004d2565b5b6000620007a98482850162000769565b91505092915050565b7f4e487b7100000000000000000000000000000000000000000000000000000000600052601260045260246000fd5b7f4e487b7100000000000000000000000000000000000000000000000000000000600052601160045260246000fd5b60006200081d8262000745565b91506200082a8362000745565b9250826200083d576200083c620007b2565b5b828204905092915050565b6200085381620004f7565b82525050565b620008648162000745565b82525050565b600060608201905062000881600083018662000848565b62000890602083018562000848565b6200089f604083018462000859565b949350505050565b60008115159050919050565b620008be81620008a7565b8114620008ca57600080fd5b50565b600081519050620008de81620008b3565b92915050565b600060208284031215620008fd57620008fc620004d2565b5b60006200090d84828501620008cd565b91505092915050565b60006020820190506200092d600083018462000848565b92915050565b6000620009408262000745565b91506200094d8362000745565b9250828201905080821115620009685762000967620007e1565b5b92915050565b612c2e806200097e6000396000f3fe6080604052600436106101405760003560e01c8063715018a6116100b6578063d08b8d6a1161006f578063d08b8d6a1461045b578063eff8c54714610498578063f2fde38b146104d5578063f366b27e146104fe578063f968217b1461053b578063fdcdbae21461056657610140565b8063715018a61461035657806383ce61471461036d5780638866b937146103aa5780638da5cb5b146103d55780639f62e79614610400578063c699ab391461042b57610140565b80632e64b7d4116101085780632e64b7d41461021e5780634d2301cc1461025b578063510b7f981461029857806356289c29146102c35780635ac6699314610300578063693941351461032b57610140565b80630691badf146101455780630e301d24146101715780631552e7701461019d5780632adcbebd146101c85780632b1c4158146101f3575b600080fd5b34801561015157600080fd5b5061015a610591565b604051610168929190611e7f565b60405180910390f35b34801561017d57600080fd5b506101866105a3565b604051610194929190611e7f565b60405180910390f35b3480156101a957600080fd5b506101b26105b5565b6040516101bf9190611ea8565b60405180910390f35b3480156101d457600080fd5b506101dd6105c2565b6040516101ea9190611f42565b60405180910390f35b3480156101ff57600080fd5b506102086105e8565b6040516102159190611f7e565b60405180910390f35b34801561022a57600080fd5b5061024560048036038101906102409190611fca565b61060e565b6040516102529190612012565b60405180910390f35b34801561026757600080fd5b50610282600480360381019061027d919061206b565b6106a8565b60405161028f9190611ea8565b60405180910390f35b3480156102a457600080fd5b506102ad6106c9565b6040516102ba91906120b9565b60405180910390f35b3480156102cf57600080fd5b506102ea60048036038101906102e59190611fca565b6106ef565b6040516102f79190612012565b60405180910390f35b34801561030c57600080fd5b5061031561091d565b60405161032291906121c1565b60405180910390f35b34801561033757600080fd5b506103406109d0565b60405161034d9190612204565b60405180910390f35b34801561036257600080fd5b5061036b6109f6565b005b34801561037957600080fd5b50610394600480360381019061038f919061221f565b610a0a565b6040516103a19190612012565b60405180910390f35b3480156103b657600080fd5b506103bf610b3a565b6040516103cc9190611ea8565b60405180910390f35b3480156103e157600080fd5b506103ea610b4b565b6040516103f7919061226e565b60405180910390f35b34801561040c57600080fd5b50610415610b74565b6040516104229190611ea8565b60405180910390f35b610445600480360381019061044091906122b5565b610c17565b6040516104529190612012565b60405180910390f35b34801561046757600080fd5b50610482600480360381019061047d91906122e2565b610cf9565b60405161048f9190612012565b60405180910390f35b3480156104a457600080fd5b506104bf60048036038101906104ba9190611fca565b610e5f565b6040516104cc9190612012565b60405180910390f35b3480156104e157600080fd5b506104fc60048036038101906104f7919061206b565b610ef9565b005b34801561050a57600080fd5b5061052560048036038101906105209190611fca565b610f7c565b6040516105329190612012565b60405180910390f35b34801561054757600080fd5b5061055061116b565b60405161055d9190612343565b60405180910390f35b34801561057257600080fd5b5061057b611191565b604051610588919061237f565b60405180910390f35b600b8060000154908060010154905082565b60098060000154908060010154905082565b6000600960000154905090565b600660009054906101000a900473ffffffffffffffffffffffffffffffffffffffff1681565b600260009054906101000a900473ffffffffffffffffffffffffffffffffffffffff1681565b6000600760009054906101000a900473ffffffffffffffffffffffffffffffffffffffff1673ffffffffffffffffffffffffffffffffffffffff16636527b55d83336040518363ffffffff1660e01b815260040161066d92919061239a565b600060405180830381600087803b15801561068757600080fd5b505af115801561069b573d6000803e3d6000fd5b5050505060019050919050565b60008173ffffffffffffffffffffffffffffffffffffffff16319050919050565b600360009054906101000a900473ffffffffffffffffffffffffffffffffffffffff1681565b60008060009054906101000a900460ff1615610740576040517f08c379a000000000000000000000000000000000000000000000000000000000815260040161073790612420565b60405180910390fd5b60016000806101000a81548160ff0219169083151502179055506107a7336107a26064610794600a60ff16610786670de0b6b3a7640000896111b790919063ffffffff16565b6111b790919063ffffffff16565b6111cd90919063ffffffff16565b6111e3565b6107e6576040517f08c379a00000000000000000000000000000000000000000000000000000000081526004016107dd906124b2565b60405180910390fd5b600660009054906101000a900473ffffffffffffffffffffffffffffffffffffffff1673ffffffffffffffffffffffffffffffffffffffff1663adc9772e3361085b606461084d600a606461083b919061250e565b60ff16886111b790919063ffffffff16565b6111cd90919063ffffffff16565b6040518363ffffffff1660e01b8152600401610878929190612543565b6020604051808303816000875af1158015610897573d6000803e3d6000fd5b505050506040513d601f19601f820116820180604052508101906108bb9190612581565b6108fa576040517f08c379a00000000000000000000000000000000000000000000000000000000081526004016108f1906125fa565b60405180910390fd5b6001905060008060006101000a81548160ff021916908315150217905550919050565b6060600860003373ffffffffffffffffffffffffffffffffffffffff1673ffffffffffffffffffffffffffffffffffffffff168152602001908152602001600020600001805480602002602001604051908101604052809291908181526020016000905b828210156109c757838290600052602060002090600202016040518060400160405290816000820154815260200160018201548152505081526020019060010190610981565b50505050905090565b600760009054906101000a900473ffffffffffffffffffffffffffffffffffffffff1681565b6109fe611453565b610a0860006114d1565b565b6000600360009054906101000a900473ffffffffffffffffffffffffffffffffffffffff1673ffffffffffffffffffffffffffffffffffffffff1663b2c3a7178430856040518463ffffffff1660e01b8152600401610a6b9392919061261a565b6020604051808303816000875af1158015610a8a573d6000803e3d6000fd5b505050506040513d601f19601f82011682018060405250810190610aae9190612581565b6040518060400160405280601a81526020017f5761726e696e6720466f72204c6f636b75702053686f7274656e00000000000081525090610b25576040517f08c379a0000000000000000000000000000000000000000000000000000000008152600401610b1c91906126d0565b60405180910390fd5b50610b2f83611596565b506001905092915050565b6000610b4660016115c7565b905090565b60008060019054906101000a900473ffffffffffffffffffffffffffffffffffffffff16905090565b6000600360009054906101000a900473ffffffffffffffffffffffffffffffffffffffff1673ffffffffffffffffffffffffffffffffffffffff166370a08231336040518263ffffffff1660e01b8152600401610bd1919061226e565b602060405180830381865afa158015610bee573d6000803e3d6000fd5b505050506040513d601f19601f82011682018060405250810190610c129190612707565b905090565b6000610c2334836115d5565b506000610c2f34611686565b604051602001610c3f9190612808565b6040516020818303038152906040529050600360009054906101000a900473ffffffffffffffffffffffffffffffffffffffff1673ffffffffffffffffffffffffffffffffffffffff16630890d80c826040518263ffffffff1660e01b8152600401610cab9190612919565b6020604051808303816000875af1158015610cca573d6000803e3d6000fd5b505050506040513d601f19601f82011682018060405250810190610cee9190612581565b506001915050919050565b6000600260009054906101000a900473ffffffffffffffffffffffffffffffffffffffff1673ffffffffffffffffffffffffffffffffffffffff1663469895c83085610d56670de0b6b3a7640000876111b790919063ffffffff16565b6040518463ffffffff1660e01b8152600401610d7493929190612961565b6020604051808303816000875af1158015610d93573d6000803e3d6000fd5b505050506040513d601f19601f82011682018060405250810190610db79190612581565b6040518060400160405280601481526020017f5761726e696e6720466f72205472616e7366657200000000000000000000000081525090610e2e576040517f08c379a0000000000000000000000000000000000000000000000000000000008152600401610e2591906126d0565b60405180910390fd5b508160096000016000828254610e449190612998565b92505081905550426009600101819055506001905092915050565b6000600760009054906101000a900473ffffffffffffffffffffffffffffffffffffffff1673ffffffffffffffffffffffffffffffffffffffff1663c663a10783336040518363ffffffff1660e01b8152600401610ebe92919061239a565b600060405180830381600087803b158015610ed857600080fd5b505af1158015610eec573d6000803e3d6000fd5b5050505060019050919050565b610f01611453565b600073ffffffffffffffffffffffffffffffffffffffff168173ffffffffffffffffffffffffffffffffffffffff1603610f70576040517f08c379a0000000000000000000000000000000000000000000000000000000008152600401610f6790612a3e565b60405180910390fd5b610f79816114d1565b50565b6000600360009054906101000a900473ffffffffffffffffffffffffffffffffffffffff1673ffffffffffffffffffffffffffffffffffffffff16632890e0d7836040518263ffffffff1660e01b8152600401610fd99190611ea8565b6020604051808303816000875af1158015610ff8573d6000803e3d6000fd5b505050506040513d601f19601f8201168201806040525081019061101c9190612581565b50600260009054906101000a900473ffffffffffffffffffffffffffffffffffffffff1673ffffffffffffffffffffffffffffffffffffffff16635f367b033361108a670de0b6b3a7640000600d6000888152602001908152602001600020546111b790919063ffffffff16565b6040518363ffffffff1660e01b81526004016110a7929190612543565b6020604051808303816000875af11580156110c6573d6000803e3d6000fd5b505050506040513d601f19601f820116820180604052508101906110ea9190612581565b6040518060400160405280601481526020017f5761726e696e6720466f72205472616e7366657200000000000000000000000081525090611161576040517f08c379a000000000000000000000000000000000000000000000000000000000815260040161115891906126d0565b60405180910390fd5b5060019050919050565b600560009054906101000a900473ffffffffffffffffffffffffffffffffffffffff1681565b600460009054906101000a900473ffffffffffffffffffffffffffffffffffffffff1681565b600081836111c59190612a5e565b905092915050565b600081836111db9190612acf565b905092915050565b6000600460009054906101000a900473ffffffffffffffffffffffffffffffffffffffff1673ffffffffffffffffffffffffffffffffffffffff166344570b3f8461123f670de0b6b3a7640000866111b790919063ffffffff16565b6040518363ffffffff1660e01b815260040161125c929190612543565b6020604051808303816000875af115801561127b573d6000803e3d6000fd5b505050506040513d601f19601f8201168201806040525081019061129f9190612581565b6040518060400160405280601c81526020017f5761726e696e6720466f722051564520457363726f77206572726f720000000081525090611316576040517f08c379a000000000000000000000000000000000000000000000000000000000815260040161130d91906126d0565b60405180910390fd5b50600560009054906101000a900473ffffffffffffffffffffffffffffffffffffffff1673ffffffffffffffffffffffffffffffffffffffff1663cdb51cdf611370670de0b6b3a7640000856111b790919063ffffffff16565b856040518363ffffffff1660e01b815260040161138e92919061239a565b6020604051808303816000875af11580156113ad573d6000803e3d6000fd5b505050506040513d601f19601f820116820180604052508101906113d19190612581565b6040518060400160405280601781526020017f5761726e696e6720466f72205156452056657374696e6700000000000000000081525090611448576040517f08c379a000000000000000000000000000000000000000000000000000000000815260040161143f91906126d0565b60405180910390fd5b506001905092915050565b61145b611754565b73ffffffffffffffffffffffffffffffffffffffff16611479610b4b565b73ffffffffffffffffffffffffffffffffffffffff16146114cf576040517f08c379a00000000000000000000000000000000000000000000000000000000081526004016114c690612b4c565b60405180910390fd5b565b60008060019054906101000a900473ffffffffffffffffffffffffffffffffffffffff16905081600060016101000a81548173ffffffffffffffffffffffffffffffffffffffff021916908373ffffffffffffffffffffffffffffffffffffffff1602179055508173ffffffffffffffffffffffffffffffffffffffff168173ffffffffffffffffffffffffffffffffffffffff167f8be0079c531659141344cd1fd0a4f28419497f9722a3daafe3b4186f6b6457e060405160405180910390a35050565b600081600960000160008282546115ad9190612b6c565b925050819055504260096001018190555060019050919050565b600081600001549050919050565b6000806115e333858561175c565b90506115ee81611b0a565b6115f9338583611ba3565b6040518060400160405280601181526020017f5761726e696e6720466f72205661756c7400000000000000000000000000000081525090611670576040517f08c379a000000000000000000000000000000000000000000000000000000000815260040161166791906126d0565b60405180910390fd5b5061167b6001611cdc565b600191505092915050565b60606000600161169584611cf2565b01905060008167ffffffffffffffff8111156116b4576116b3612ba0565b5b6040519080825280601f01601f1916602001820160405280156116e65781602001600182028036833780820191505090505b509050600082602001820190505b600115611749578080600190039150507f3031323334353637383961626364656600000000000000000000000000000000600a86061a8153600a858161173d5761173c612aa0565b5b049450600085036116f4575b819350505050919050565b600033905090565b60008060009054906101000a900460ff16156117ad576040517f08c379a00000000000000000000000000000000000000000000000000000000081526004016117a490612420565b60405180910390fd5b60016000806101000a81548160ff0219169083151502179055506000600360009054906101000a900473ffffffffffffffffffffffffffffffffffffffff1673ffffffffffffffffffffffffffffffffffffffff1663f42c69d686856040518363ffffffff1660e01b8152600401611826929190612bcf565b6020604051808303816000875af1158015611845573d6000803e3d6000fd5b505050506040513d601f19601f820116820180604052508101906118699190612707565b9050600860008673ffffffffffffffffffffffffffffffffffffffff1673ffffffffffffffffffffffffffffffffffffffff16815260200190815260200160002060000160405180604001604052808381526020014281525090806001815401808255809150506001900390600052602060002090600202016000909190919091506000820151816000015560208201518160010155505061190c338583611ba3565b508215611ae557600560009054906101000a900473ffffffffffffffffffffffffffffffffffffffff1673ffffffffffffffffffffffffffffffffffffffff1663cdb51cdf600460009054906101000a900473ffffffffffffffffffffffffffffffffffffffff1673ffffffffffffffffffffffffffffffffffffffff166308c70bb9336119ab670de0b6b3a76400008a6111b790919063ffffffff16565b6040518363ffffffff1660e01b81526004016119c8929190612543565b6020604051808303816000875af11580156119e7573d6000803e3d6000fd5b505050506040513d601f19601f82011682018060405250810190611a0b9190612707565b336040518363ffffffff1660e01b8152600401611a2992919061239a565b6020604051808303816000875af1158015611a48573d6000803e3d6000fd5b505050506040513d601f19601f82011682018060405250810190611a6c9190612581565b6040518060400160405280601781526020017f5761726e696e6720466f72205156452056657374696e6700000000000000000081525090611ae3576040517f08c379a0000000000000000000000000000000000000000000000000000000008152600401611ada91906126d0565b60405180910390fd5b505b8091505060008060006101000a81548160ff0219169083151502179055509392505050565b611ba081604051602401611b1e9190611ea8565b6040516020818303038152906040527ff82c50f1000000000000000000000000000000000000000000000000000000007bffffffffffffffffffffffffffffffffffffffffffffffffffffffff19166020820180517bffffffffffffffffffffffffffffffffffffffffffffffffffffffff8381831617835250505050611e45565b50565b600080600e60008673ffffffffffffffffffffffffffffffffffffffff1673ffffffffffffffffffffffffffffffffffffffff16815260200190815260200160002060000190508060405180606001604052808681526020014281526020018581525090806001815401808255809150506001900390600052602060002090600302016000909190919091506000820151816000015560208201518160010155604082015181600201555050600e60008673ffffffffffffffffffffffffffffffffffffffff1673ffffffffffffffffffffffffffffffffffffffff16815260200190815260200160002060010183908060018154018082558091505060019003906000526020600020016000909190919091505583600d60008581526020019081526020016000208190555060019150509392505050565b6001816000016000828254019250508190555050565b600080600090507a184f03e93ff9f4daa797ed6e38ed64bf6a1f0100000000000000008310611d50577a184f03e93ff9f4daa797ed6e38ed64bf6a1f0100000000000000008381611d4657611d45612aa0565b5b0492506040810190505b6d04ee2d6d415b85acef81000000008310611d8d576d04ee2d6d415b85acef81000000008381611d8357611d82612aa0565b5b0492506020810190505b662386f26fc100008310611dbc57662386f26fc100008381611db257611db1612aa0565b5b0492506010810190505b6305f5e1008310611de5576305f5e1008381611ddb57611dda612aa0565b5b0492506008810190505b6127108310611e0a576127108381611e0057611dff612aa0565b5b0492506004810190505b60648310611e2d5760648381611e2357611e22612aa0565b5b0492506002810190505b600a8310611e3c576001810190505b80915050919050565b60006a636f6e736f6c652e6c6f679050600080835160208501845afa505050565b6000819050919050565b611e7981611e66565b82525050565b6000604082019050611e946000830185611e70565b611ea16020830184611e70565b9392505050565b6000602082019050611ebd6000830184611e70565b92915050565b600073ffffffffffffffffffffffffffffffffffffffff82169050919050565b6000819050919050565b6000611f08611f03611efe84611ec3565b611ee3565b611ec3565b9050919050565b6000611f1a82611eed565b9050919050565b6000611f2c82611f0f565b9050919050565b611f3c81611f21565b82525050565b6000602082019050611f576000830184611f33565b92915050565b6000611f6882611f0f565b9050919050565b611f7881611f5d565b82525050565b6000602082019050611f936000830184611f6f565b92915050565b600080fd5b611fa781611e66565b8114611fb257600080fd5b50565b600081359050611fc481611f9e565b92915050565b600060208284031215611fe057611fdf611f99565b5b6000611fee84828501611fb5565b91505092915050565b60008115159050919050565b61200c81611ff7565b82525050565b60006020820190506120276000830184612003565b92915050565b600061203882611ec3565b9050919050565b6120488161202d565b811461205357600080fd5b50565b6000813590506120658161203f565b92915050565b60006020828403121561208157612080611f99565b5b600061208f84828501612056565b91505092915050565b60006120a382611f0f565b9050919050565b6120b381612098565b82525050565b60006020820190506120ce60008301846120aa565b92915050565b600081519050919050565b600082825260208201905092915050565b6000819050602082019050919050565b61210981611e66565b82525050565b6040820160008201516121256000850182612100565b5060208201516121386020850182612100565b50505050565b600061214a838361210f565b60408301905092915050565b6000602082019050919050565b600061216e826120d4565b61217881856120df565b9350612183836120f0565b8060005b838110156121b457815161219b888261213e565b97506121a683612156565b925050600181019050612187565b5085935050505092915050565b600060208201905081810360008301526121db8184612163565b905092915050565b60006121ee82611f0f565b9050919050565b6121fe816121e3565b82525050565b600060208201905061221960008301846121f5565b92915050565b6000806040838503121561223657612235611f99565b5b600061224485828601611fb5565b925050602061225585828601611fb5565b9150509250929050565b6122688161202d565b82525050565b6000602082019050612283600083018461225f565b92915050565b61229281611ff7565b811461229d57600080fd5b50565b6000813590506122af81612289565b92915050565b6000602082840312156122cb576122ca611f99565b5b60006122d9848285016122a0565b91505092915050565b600080604083850312156122f9576122f8611f99565b5b600061230785828601612056565b925050602061231885828601611fb5565b9150509250929050565b600061232d82611f0f565b9050919050565b61233d81612322565b82525050565b60006020820190506123586000830184612334565b92915050565b600061236982611f0f565b9050919050565b6123798161235e565b82525050565b60006020820190506123946000830184612370565b92915050565b60006040820190506123af6000830185611e70565b6123bc602083018461225f565b9392505050565b600082825260208201905092915050565b7f4e6f205265456e7472616e637900000000000000000000000000000000000000600082015250565b600061240a600d836123c3565b9150612415826123d4565b602082019050919050565b60006020820190508181036000830152612439816123fd565b9050919050565b7f4572726f7220696e204d616b652051564520657363726f77656420616e64205660008201527f657374696e670000000000000000000000000000000000000000000000000000602082015250565b600061249c6026836123c3565b91506124a782612440565b604082019050919050565b600060208201905081810360008301526124cb8161248f565b9050919050565b600060ff82169050919050565b7f4e487b7100000000000000000000000000000000000000000000000000000000600052601160045260246000fd5b6000612519826124d2565b9150612524836124d2565b9250828203905060ff81111561253d5761253c6124df565b5b92915050565b6000604082019050612558600083018561225f565b6125656020830184611e70565b9392505050565b60008151905061257b81612289565b92915050565b60006020828403121561259757612596611f99565b5b60006125a58482850161256c565b91505092915050565b7f4572726f7220696e20515645207374616b696e67000000000000000000000000600082015250565b60006125e46014836123c3565b91506125ef826125ae565b602082019050919050565b60006020820190508181036000830152612613816125d7565b9050919050565b600060608201905061262f6000830186611e70565b61263c602083018561225f565b6126496040830184611e70565b949350505050565b600081519050919050565b60005b8381101561267a57808201518184015260208101905061265f565b60008484015250505050565b6000601f19601f8301169050919050565b60006126a282612651565b6126ac81856123c3565b93506126bc81856020860161265c565b6126c581612686565b840191505092915050565b600060208201905081810360008301526126ea8184612697565b905092915050565b60008151905061270181611f9e565b92915050565b60006020828403121561271d5761271c611f99565b5b600061272b848285016126f2565b91505092915050565b600081905092915050565b7f4d617267696e203a200000000000000000000000000000000000000000000000600082015250565b6000612775600983612734565b91506127808261273f565b600982019050919050565b600061279682612651565b6127a08185612734565b93506127b081856020860161265c565b80840191505092915050565b7f5745490000000000000000000000000000000000000000000000000000000000600082015250565b60006127f2600383612734565b91506127fd826127bc565b600382019050919050565b600061281382612768565b915061281f828461278b565b915061282a826127e5565b915081905092915050565b7f5374616b696e672047756172616e746565204361726400000000000000000000600082015250565b600061286b6016836123c3565b915061287682612835565b602082019050919050565b7f68747470733a2f2f697066732e696f2f697066732f516d5155756d713869596360008201527f41395838756f61664d325955384c6579794d4b7a554e32484635464770364e7060208201527f5845563f66696c656e616d653d47726f7570253230343538342e6a7067000000604082015250565b6000612903605d836123c3565b915061290e82612881565b606082019050919050565b600060608201905081810360008301526129328161285e565b905081810360208301526129468184612697565b90508181036040830152612959816128f6565b905092915050565b6000606082019050612976600083018661225f565b612983602083018561225f565b6129906040830184611e70565b949350505050565b60006129a382611e66565b91506129ae83611e66565b92508282039050818111156129c6576129c56124df565b5b92915050565b7f4f776e61626c653a206e6577206f776e657220697320746865207a65726f206160008201527f6464726573730000000000000000000000000000000000000000000000000000602082015250565b6000612a286026836123c3565b9150612a33826129cc565b604082019050919050565b60006020820190508181036000830152612a5781612a1b565b9050919050565b6000612a6982611e66565b9150612a7483611e66565b9250828202612a8281611e66565b91508282048414831517612a9957612a986124df565b5b5092915050565b7f4e487b7100000000000000000000000000000000000000000000000000000000600052601260045260246000fd5b6000612ada82611e66565b9150612ae583611e66565b925082612af557612af4612aa0565b5b828204905092915050565b7f4f776e61626c653a2063616c6c6572206973206e6f7420746865206f776e6572600082015250565b6000612b366020836123c3565b9150612b4182612b00565b602082019050919050565b60006020820190508181036000830152612b6581612b29565b9050919050565b6000612b7782611e66565b9150612b8283611e66565b9250828201905080821115612b9a57612b996124df565b5b92915050565b7f4e487b7100000000000000000000000000000000000000000000000000000000600052604160045260246000fd5b6000604082019050612be4600083018561225f565b612bf16020830184612003565b939250505056fea2646970667358221220e5c615dbe3570ba3910cfdccd08f84a651efca4867e86e512e885e4c099be9d664736f6c63430008120033",
			"opcodes": "PUSH1 0x80 PUSH1 0x40 MSTORE CALLVALUE DUP1 ISZERO PUSH3 0x11 JUMPI PUSH1 0x0 DUP1 REVERT JUMPDEST POP PUSH1 0x40 MLOAD PUSH3 0x35AC CODESIZE SUB DUP1 PUSH3 0x35AC DUP4 CODECOPY DUP2 DUP2 ADD PUSH1 0x40 MSTORE DUP2 ADD SWAP1 PUSH3 0x37 SWAP2 SWAP1 PUSH3 0x6A9 JUMP JUMPDEST PUSH3 0x57 PUSH3 0x4B PUSH3 0x405 PUSH1 0x20 SHL PUSH1 0x20 SHR JUMP JUMPDEST PUSH3 0x40D PUSH1 0x20 SHL PUSH1 0x20 SHR JUMP JUMPDEST DUP6 PUSH1 0x2 PUSH1 0x0 PUSH2 0x100 EXP DUP2 SLOAD DUP2 PUSH20 0xFFFFFFFFFFFFFFFFFFFFFFFFFFFFFFFFFFFFFFFF MUL NOT AND SWAP1 DUP4 PUSH20 0xFFFFFFFFFFFFFFFFFFFFFFFFFFFFFFFFFFFFFFFF AND MUL OR SWAP1 SSTORE POP DUP5 PUSH1 0x3 PUSH1 0x0 PUSH2 0x100 EXP DUP2 SLOAD DUP2 PUSH20 0xFFFFFFFFFFFFFFFFFFFFFFFFFFFFFFFFFFFFFFFF MUL NOT AND SWAP1 DUP4 PUSH20 0xFFFFFFFFFFFFFFFFFFFFFFFFFFFFFFFFFFFFFFFF AND MUL OR SWAP1 SSTORE POP DUP4 PUSH1 0x4 PUSH1 0x0 PUSH2 0x100 EXP DUP2 SLOAD DUP2 PUSH20 0xFFFFFFFFFFFFFFFFFFFFFFFFFFFFFFFFFFFFFFFF MUL NOT AND SWAP1 DUP4 PUSH20 0xFFFFFFFFFFFFFFFFFFFFFFFFFFFFFFFFFFFFFFFF AND MUL OR SWAP1 SSTORE POP DUP3 PUSH1 0x5 PUSH1 0x0 PUSH2 0x100 EXP DUP2 SLOAD DUP2 PUSH20 0xFFFFFFFFFFFFFFFFFFFFFFFFFFFFFFFFFFFFFFFF MUL NOT AND SWAP1 DUP4 PUSH20 0xFFFFFFFFFFFFFFFFFFFFFFFFFFFFFFFFFFFFFFFF AND MUL OR SWAP1 SSTORE POP DUP2 PUSH1 0x6 PUSH1 0x0 PUSH2 0x100 EXP DUP2 SLOAD DUP2 PUSH20 0xFFFFFFFFFFFFFFFFFFFFFFFFFFFFFFFFFFFFFFFF MUL NOT AND SWAP1 DUP4 PUSH20 0xFFFFFFFFFFFFFFFFFFFFFFFFFFFFFFFFFFFFFFFF AND MUL OR SWAP1 SSTORE POP DUP1 PUSH1 0x7 PUSH1 0x0 PUSH2 0x100 EXP DUP2 SLOAD DUP2 PUSH20 0xFFFFFFFFFFFFFFFFFFFFFFFFFFFFFFFFFFFFFFFF MUL NOT AND SWAP1 DUP4 PUSH20 0xFFFFFFFFFFFFFFFFFFFFFFFFFFFFFFFFFFFFFFFF AND MUL OR SWAP1 SSTORE POP PUSH1 0x2 PUSH1 0x0 SWAP1 SLOAD SWAP1 PUSH2 0x100 EXP SWAP1 DIV PUSH20 0xFFFFFFFFFFFFFFFFFFFFFFFFFFFFFFFFFFFFFFFF AND PUSH20 0xFFFFFFFFFFFFFFFFFFFFFFFFFFFFFFFFFFFFFFFF AND PUSH4 0x469895C8 CALLER ADDRESS PUSH1 0x4 PUSH1 0x2 PUSH1 0x0 SWAP1 SLOAD SWAP1 PUSH2 0x100 EXP SWAP1 DIV PUSH20 0xFFFFFFFFFFFFFFFFFFFFFFFFFFFFFFFFFFFFFFFF AND PUSH20 0xFFFFFFFFFFFFFFFFFFFFFFFFFFFFFFFFFFFFFFFF AND PUSH4 0x18160DDD PUSH1 0x40 MLOAD DUP2 PUSH4 0xFFFFFFFF AND PUSH1 0xE0 SHL DUP2 MSTORE PUSH1 0x4 ADD PUSH1 0x20 PUSH1 0x40 MLOAD DUP1 DUP4 SUB DUP2 DUP7 GAS STATICCALL ISZERO DUP1 ISZERO PUSH3 0x28D JUMPI RETURNDATASIZE PUSH1 0x0 DUP1 RETURNDATACOPY RETURNDATASIZE PUSH1 0x0 REVERT JUMPDEST POP POP POP POP PUSH1 0x40 MLOAD RETURNDATASIZE PUSH1 0x1F NOT PUSH1 0x1F DUP3 ADD AND DUP3 ADD DUP1 PUSH1 0x40 MSTORE POP DUP2 ADD SWAP1 PUSH3 0x2B3 SWAP2 SWAP1 PUSH3 0x780 JUMP JUMPDEST PUSH3 0x2BF SWAP2 SWAP1 PUSH3 0x810 JUMP JUMPDEST PUSH1 0x40 MLOAD DUP5 PUSH4 0xFFFFFFFF AND PUSH1 0xE0 SHL DUP2 MSTORE PUSH1 0x4 ADD PUSH3 0x2DF SWAP4 SWAP3 SWAP2 SWAP1 PUSH3 0x86A JUMP JUMPDEST PUSH1 0x20 PUSH1 0x40 MLOAD DUP1 DUP4 SUB DUP2 PUSH1 0x0 DUP8 GAS CALL ISZERO DUP1 ISZERO PUSH3 0x2FF JUMPI RETURNDATASIZE PUSH1 0x0 DUP1 RETURNDATACOPY RETURNDATASIZE PUSH1 0x0 REVERT JUMPDEST POP POP POP POP PUSH1 0x40 MLOAD RETURNDATASIZE PUSH1 0x1F NOT PUSH1 0x1F DUP3 ADD AND DUP3 ADD DUP1 PUSH1 0x40 MSTORE POP DUP2 ADD SWAP1 PUSH3 0x325 SWAP2 SWAP1 PUSH3 0x8E4 JUMP JUMPDEST POP PUSH8 0xDE0B6B3A7640000 PUSH1 0x2 PUSH1 0x0 SWAP1 SLOAD SWAP1 PUSH2 0x100 EXP SWAP1 DIV PUSH20 0xFFFFFFFFFFFFFFFFFFFFFFFFFFFFFFFFFFFFFFFF AND PUSH20 0xFFFFFFFFFFFFFFFFFFFFFFFFFFFFFFFFFFFFFFFF AND PUSH4 0x70A08231 ADDRESS PUSH1 0x40 MLOAD DUP3 PUSH4 0xFFFFFFFF AND PUSH1 0xE0 SHL DUP2 MSTORE PUSH1 0x4 ADD PUSH3 0x38C SWAP2 SWAP1 PUSH3 0x916 JUMP JUMPDEST PUSH1 0x20 PUSH1 0x40 MLOAD DUP1 DUP4 SUB DUP2 DUP7 GAS STATICCALL ISZERO DUP1 ISZERO PUSH3 0x3AA JUMPI RETURNDATASIZE PUSH1 0x0 DUP1 RETURNDATACOPY RETURNDATASIZE PUSH1 0x0 REVERT JUMPDEST POP POP POP POP PUSH1 0x40 MLOAD RETURNDATASIZE PUSH1 0x1F NOT PUSH1 0x1F DUP3 ADD AND DUP3 ADD DUP1 PUSH1 0x40 MSTORE POP DUP2 ADD SWAP1 PUSH3 0x3D0 SWAP2 SWAP1 PUSH3 0x780 JUMP JUMPDEST PUSH3 0x3DC SWAP2 SWAP1 PUSH3 0x810 JUMP JUMPDEST PUSH1 0x9 PUSH1 0x0 ADD PUSH1 0x0 DUP3 DUP3 SLOAD PUSH3 0x3F2 SWAP2 SWAP1 PUSH3 0x933 JUMP JUMPDEST SWAP3 POP POP DUP2 SWAP1 SSTORE POP POP POP POP POP POP POP PUSH3 0x96E JUMP JUMPDEST PUSH1 0x0 CALLER SWAP1 POP SWAP1 JUMP JUMPDEST PUSH1 0x0 DUP1 PUSH1 0x1 SWAP1 SLOAD SWAP1 PUSH2 0x100 EXP SWAP1 DIV PUSH20 0xFFFFFFFFFFFFFFFFFFFFFFFFFFFFFFFFFFFFFFFF AND SWAP1 POP DUP2 PUSH1 0x0 PUSH1 0x1 PUSH2 0x100 EXP DUP2 SLOAD DUP2 PUSH20 0xFFFFFFFFFFFFFFFFFFFFFFFFFFFFFFFFFFFFFFFF MUL NOT AND SWAP1 DUP4 PUSH20 0xFFFFFFFFFFFFFFFFFFFFFFFFFFFFFFFFFFFFFFFF AND MUL OR SWAP1 SSTORE POP DUP2 PUSH20 0xFFFFFFFFFFFFFFFFFFFFFFFFFFFFFFFFFFFFFFFF AND DUP2 PUSH20 0xFFFFFFFFFFFFFFFFFFFFFFFFFFFFFFFFFFFFFFFF AND PUSH32 0x8BE0079C531659141344CD1FD0A4F28419497F9722A3DAAFE3B4186F6B6457E0 PUSH1 0x40 MLOAD PUSH1 0x40 MLOAD DUP1 SWAP2 SUB SWAP1 LOG3 POP POP JUMP JUMPDEST PUSH1 0x0 DUP1 REVERT JUMPDEST PUSH1 0x0 PUSH20 0xFFFFFFFFFFFFFFFFFFFFFFFFFFFFFFFFFFFFFFFF DUP3 AND SWAP1 POP SWAP2 SWAP1 POP JUMP JUMPDEST PUSH1 0x0 PUSH3 0x504 DUP3 PUSH3 0x4D7 JUMP JUMPDEST SWAP1 POP SWAP2 SWAP1 POP JUMP JUMPDEST PUSH1 0x0 PUSH3 0x518 DUP3 PUSH3 0x4F7 JUMP JUMPDEST SWAP1 POP SWAP2 SWAP1 POP JUMP JUMPDEST PUSH3 0x52A DUP2 PUSH3 0x50B JUMP JUMPDEST DUP2 EQ PUSH3 0x536 JUMPI PUSH1 0x0 DUP1 REVERT JUMPDEST POP JUMP JUMPDEST PUSH1 0x0 DUP2 MLOAD SWAP1 POP PUSH3 0x54A DUP2 PUSH3 0x51F JUMP JUMPDEST SWAP3 SWAP2 POP POP JUMP JUMPDEST PUSH1 0x0 PUSH3 0x55D DUP3 PUSH3 0x4F7 JUMP JUMPDEST SWAP1 POP SWAP2 SWAP1 POP JUMP JUMPDEST PUSH3 0x56F DUP2 PUSH3 0x550 JUMP JUMPDEST DUP2 EQ PUSH3 0x57B JUMPI PUSH1 0x0 DUP1 REVERT JUMPDEST POP JUMP JUMPDEST PUSH1 0x0 DUP2 MLOAD SWAP1 POP PUSH3 0x58F DUP2 PUSH3 0x564 JUMP JUMPDEST SWAP3 SWAP2 POP POP JUMP JUMPDEST PUSH1 0x0 PUSH3 0x5A2 DUP3 PUSH3 0x4F7 JUMP JUMPDEST SWAP1 POP SWAP2 SWAP1 POP JUMP JUMPDEST PUSH3 0x5B4 DUP2 PUSH3 0x595 JUMP JUMPDEST DUP2 EQ PUSH3 0x5C0 JUMPI PUSH1 0x0 DUP1 REVERT JUMPDEST POP JUMP JUMPDEST PUSH1 0x0 DUP2 MLOAD SWAP1 POP PUSH3 0x5D4 DUP2 PUSH3 0x5A9 JUMP JUMPDEST SWAP3 SWAP2 POP POP JUMP JUMPDEST PUSH1 0x0 PUSH3 0x5E7 DUP3 PUSH3 0x4F7 JUMP JUMPDEST SWAP1 POP SWAP2 SWAP1 POP JUMP JUMPDEST PUSH3 0x5F9 DUP2 PUSH3 0x5DA JUMP JUMPDEST DUP2 EQ PUSH3 0x605 JUMPI PUSH1 0x0 DUP1 REVERT JUMPDEST POP JUMP JUMPDEST PUSH1 0x0 DUP2 MLOAD SWAP1 POP PUSH3 0x619 DUP2 PUSH3 0x5EE JUMP JUMPDEST SWAP3 SWAP2 POP POP JUMP JUMPDEST PUSH1 0x0 PUSH3 0x62C DUP3 PUSH3 0x4F7 JUMP JUMPDEST SWAP1 POP SWAP2 SWAP1 POP JUMP JUMPDEST PUSH3 0x63E DUP2 PUSH3 0x61F JUMP JUMPDEST DUP2 EQ PUSH3 0x64A JUMPI PUSH1 0x0 DUP1 REVERT JUMPDEST POP JUMP JUMPDEST PUSH1 0x0 DUP2 MLOAD SWAP1 POP PUSH3 0x65E DUP2 PUSH3 0x633 JUMP JUMPDEST SWAP3 SWAP2 POP POP JUMP JUMPDEST PUSH1 0x0 PUSH3 0x671 DUP3 PUSH3 0x4F7 JUMP JUMPDEST SWAP1 POP SWAP2 SWAP1 POP JUMP JUMPDEST PUSH3 0x683 DUP2 PUSH3 0x664 JUMP JUMPDEST DUP2 EQ PUSH3 0x68F JUMPI PUSH1 0x0 DUP1 REVERT JUMPDEST POP JUMP JUMPDEST PUSH1 0x0 DUP2 MLOAD SWAP1 POP PUSH3 0x6A3 DUP2 PUSH3 0x678 JUMP JUMPDEST SWAP3 SWAP2 POP POP JUMP JUMPDEST PUSH1 0x0 DUP1 PUSH1 0x0 DUP1 PUSH1 0x0 DUP1 PUSH1 0xC0 DUP8 DUP10 SUB SLT ISZERO PUSH3 0x6C9 JUMPI PUSH3 0x6C8 PUSH3 0x4D2 JUMP JUMPDEST JUMPDEST PUSH1 0x0 PUSH3 0x6D9 DUP10 DUP3 DUP11 ADD PUSH3 0x539 JUMP JUMPDEST SWAP7 POP POP PUSH1 0x20 PUSH3 0x6EC DUP10 DUP3 DUP11 ADD PUSH3 0x57E JUMP JUMPDEST SWAP6 POP POP PUSH1 0x40 PUSH3 0x6FF DUP10 DUP3 DUP11 ADD PUSH3 0x5C3 JUMP JUMPDEST SWAP5 POP POP PUSH1 0x60 PUSH3 0x712 DUP10 DUP3 DUP11 ADD PUSH3 0x608 JUMP JUMPDEST SWAP4 POP POP PUSH1 0x80 PUSH3 0x725 DUP10 DUP3 DUP11 ADD PUSH3 0x64D JUMP JUMPDEST SWAP3 POP POP PUSH1 0xA0 PUSH3 0x738 DUP10 DUP3 DUP11 ADD PUSH3 0x692 JUMP JUMPDEST SWAP2 POP POP SWAP3 SWAP6 POP SWAP3 SWAP6 POP SWAP3 SWAP6 JUMP JUMPDEST PUSH1 0x0 DUP2 SWAP1 POP SWAP2 SWAP1 POP JUMP JUMPDEST PUSH3 0x75A DUP2 PUSH3 0x745 JUMP JUMPDEST DUP2 EQ PUSH3 0x766 JUMPI PUSH1 0x0 DUP1 REVERT JUMPDEST POP JUMP JUMPDEST PUSH1 0x0 DUP2 MLOAD SWAP1 POP PUSH3 0x77A DUP2 PUSH3 0x74F JUMP JUMPDEST SWAP3 SWAP2 POP POP JUMP JUMPDEST PUSH1 0x0 PUSH1 0x20 DUP3 DUP5 SUB SLT ISZERO PUSH3 0x799 JUMPI PUSH3 0x798 PUSH3 0x4D2 JUMP JUMPDEST JUMPDEST PUSH1 0x0 PUSH3 0x7A9 DUP5 DUP3 DUP6 ADD PUSH3 0x769 JUMP JUMPDEST SWAP2 POP POP SWAP3 SWAP2 POP POP JUMP JUMPDEST PUSH32 0x4E487B7100000000000000000000000000000000000000000000000000000000 PUSH1 0x0 MSTORE PUSH1 0x12 PUSH1 0x4 MSTORE PUSH1 0x24 PUSH1 0x0 REVERT JUMPDEST PUSH32 0x4E487B7100000000000000000000000000000000000000000000000000000000 PUSH1 0x0 MSTORE PUSH1 0x11 PUSH1 0x4 MSTORE PUSH1 0x24 PUSH1 0x0 REVERT JUMPDEST PUSH1 0x0 PUSH3 0x81D DUP3 PUSH3 0x745 JUMP JUMPDEST SWAP2 POP PUSH3 0x82A DUP4 PUSH3 0x745 JUMP JUMPDEST SWAP3 POP DUP3 PUSH3 0x83D JUMPI PUSH3 0x83C PUSH3 0x7B2 JUMP JUMPDEST JUMPDEST DUP3 DUP3 DIV SWAP1 POP SWAP3 SWAP2 POP POP JUMP JUMPDEST PUSH3 0x853 DUP2 PUSH3 0x4F7 JUMP JUMPDEST DUP3 MSTORE POP POP JUMP JUMPDEST PUSH3 0x864 DUP2 PUSH3 0x745 JUMP JUMPDEST DUP3 MSTORE POP POP JUMP JUMPDEST PUSH1 0x0 PUSH1 0x60 DUP3 ADD SWAP1 POP PUSH3 0x881 PUSH1 0x0 DUP4 ADD DUP7 PUSH3 0x848 JUMP JUMPDEST PUSH3 0x890 PUSH1 0x20 DUP4 ADD DUP6 PUSH3 0x848 JUMP JUMPDEST PUSH3 0x89F PUSH1 0x40 DUP4 ADD DUP5 PUSH3 0x859 JUMP JUMPDEST SWAP5 SWAP4 POP POP POP POP JUMP JUMPDEST PUSH1 0x0 DUP2 ISZERO ISZERO SWAP1 POP SWAP2 SWAP1 POP JUMP JUMPDEST PUSH3 0x8BE DUP2 PUSH3 0x8A7 JUMP JUMPDEST DUP2 EQ PUSH3 0x8CA JUMPI PUSH1 0x0 DUP1 REVERT JUMPDEST POP JUMP JUMPDEST PUSH1 0x0 DUP2 MLOAD SWAP1 POP PUSH3 0x8DE DUP2 PUSH3 0x8B3 JUMP JUMPDEST SWAP3 SWAP2 POP POP JUMP JUMPDEST PUSH1 0x0 PUSH1 0x20 DUP3 DUP5 SUB SLT ISZERO PUSH3 0x8FD JUMPI PUSH3 0x8FC PUSH3 0x4D2 JUMP JUMPDEST JUMPDEST PUSH1 0x0 PUSH3 0x90D DUP5 DUP3 DUP6 ADD PUSH3 0x8CD JUMP JUMPDEST SWAP2 POP POP SWAP3 SWAP2 POP POP JUMP JUMPDEST PUSH1 0x0 PUSH1 0x20 DUP3 ADD SWAP1 POP PUSH3 0x92D PUSH1 0x0 DUP4 ADD DUP5 PUSH3 0x848 JUMP JUMPDEST SWAP3 SWAP2 POP POP JUMP JUMPDEST PUSH1 0x0 PUSH3 0x940 DUP3 PUSH3 0x745 JUMP JUMPDEST SWAP2 POP PUSH3 0x94D DUP4 PUSH3 0x745 JUMP JUMPDEST SWAP3 POP DUP3 DUP3 ADD SWAP1 POP DUP1 DUP3 GT ISZERO PUSH3 0x968 JUMPI PUSH3 0x967 PUSH3 0x7E1 JUMP JUMPDEST JUMPDEST SWAP3 SWAP2 POP POP JUMP JUMPDEST PUSH2 0x2C2E DUP1 PUSH3 0x97E PUSH1 0x0 CODECOPY PUSH1 0x0 RETURN INVALID PUSH1 0x80 PUSH1 0x40 MSTORE PUSH1 0x4 CALLDATASIZE LT PUSH2 0x140 JUMPI PUSH1 0x0 CALLDATALOAD PUSH1 0xE0 SHR DUP1 PUSH4 0x715018A6 GT PUSH2 0xB6 JUMPI DUP1 PUSH4 0xD08B8D6A GT PUSH2 0x6F JUMPI DUP1 PUSH4 0xD08B8D6A EQ PUSH2 0x45B JUMPI DUP1 PUSH4 0xEFF8C547 EQ PUSH2 0x498 JUMPI DUP1 PUSH4 0xF2FDE38B EQ PUSH2 0x4D5 JUMPI DUP1 PUSH4 0xF366B27E EQ PUSH2 0x4FE JUMPI DUP1 PUSH4 0xF968217B EQ PUSH2 0x53B JUMPI DUP1 PUSH4 0xFDCDBAE2 EQ PUSH2 0x566 JUMPI PUSH2 0x140 JUMP JUMPDEST DUP1 PUSH4 0x715018A6 EQ PUSH2 0x356 JUMPI DUP1 PUSH4 0x83CE6147 EQ PUSH2 0x36D JUMPI DUP1 PUSH4 0x8866B937 EQ PUSH2 0x3AA JUMPI DUP1 PUSH4 0x8DA5CB5B EQ PUSH2 0x3D5 JUMPI DUP1 PUSH4 0x9F62E796 EQ PUSH2 0x400 JUMPI DUP1 PUSH4 0xC699AB39 EQ PUSH2 0x42B JUMPI PUSH2 0x140 JUMP JUMPDEST DUP1 PUSH4 0x2E64B7D4 GT PUSH2 0x108 JUMPI DUP1 PUSH4 0x2E64B7D4 EQ PUSH2 0x21E JUMPI DUP1 PUSH4 0x4D2301CC EQ PUSH2 0x25B JUMPI DUP1 PUSH4 0x510B7F98 EQ PUSH2 0x298 JUMPI DUP1 PUSH4 0x56289C29 EQ PUSH2 0x2C3 JUMPI DUP1 PUSH4 0x5AC66993 EQ PUSH2 0x300 JUMPI DUP1 PUSH4 0x69394135 EQ PUSH2 0x32B JUMPI PUSH2 0x140 JUMP JUMPDEST DUP1 PUSH4 0x691BADF EQ PUSH2 0x145 JUMPI DUP1 PUSH4 0xE301D24 EQ PUSH2 0x171 JUMPI DUP1 PUSH4 0x1552E770 EQ PUSH2 0x19D JUMPI DUP1 PUSH4 0x2ADCBEBD EQ PUSH2 0x1C8 JUMPI DUP1 PUSH4 0x2B1C4158 EQ PUSH2 0x1F3 JUMPI JUMPDEST PUSH1 0x0 DUP1 REVERT JUMPDEST CALLVALUE DUP1 ISZERO PUSH2 0x151 JUMPI PUSH1 0x0 DUP1 REVERT JUMPDEST POP PUSH2 0x15A PUSH2 0x591 JUMP JUMPDEST PUSH1 0x40 MLOAD PUSH2 0x168 SWAP3 SWAP2 SWAP1 PUSH2 0x1E7F JUMP JUMPDEST PUSH1 0x40 MLOAD DUP1 SWAP2 SUB SWAP1 RETURN JUMPDEST CALLVALUE DUP1 ISZERO PUSH2 0x17D JUMPI PUSH1 0x0 DUP1 REVERT JUMPDEST POP PUSH2 0x186 PUSH2 0x5A3 JUMP JUMPDEST PUSH1 0x40 MLOAD PUSH2 0x194 SWAP3 SWAP2 SWAP1 PUSH2 0x1E7F JUMP JUMPDEST PUSH1 0x40 MLOAD DUP1 SWAP2 SUB SWAP1 RETURN JUMPDEST CALLVALUE DUP1 ISZERO PUSH2 0x1A9 JUMPI PUSH1 0x0 DUP1 REVERT JUMPDEST POP PUSH2 0x1B2 PUSH2 0x5B5 JUMP JUMPDEST PUSH1 0x40 MLOAD PUSH2 0x1BF SWAP2 SWAP1 PUSH2 0x1EA8 JUMP JUMPDEST PUSH1 0x40 MLOAD DUP1 SWAP2 SUB SWAP1 RETURN JUMPDEST CALLVALUE DUP1 ISZERO PUSH2 0x1D4 JUMPI PUSH1 0x0 DUP1 REVERT JUMPDEST POP PUSH2 0x1DD PUSH2 0x5C2 JUMP JUMPDEST PUSH1 0x40 MLOAD PUSH2 0x1EA SWAP2 SWAP1 PUSH2 0x1F42 JUMP JUMPDEST PUSH1 0x40 MLOAD DUP1 SWAP2 SUB SWAP1 RETURN JUMPDEST CALLVALUE DUP1 ISZERO PUSH2 0x1FF JUMPI PUSH1 0x0 DUP1 REVERT JUMPDEST POP PUSH2 0x208 PUSH2 0x5E8 JUMP JUMPDEST PUSH1 0x40 MLOAD PUSH2 0x215 SWAP2 SWAP1 PUSH2 0x1F7E JUMP JUMPDEST PUSH1 0x40 MLOAD DUP1 SWAP2 SUB SWAP1 RETURN JUMPDEST CALLVALUE DUP1 ISZERO PUSH2 0x22A JUMPI PUSH1 0x0 DUP1 REVERT JUMPDEST POP PUSH2 0x245 PUSH1 0x4 DUP1 CALLDATASIZE SUB DUP2 ADD SWAP1 PUSH2 0x240 SWAP2 SWAP1 PUSH2 0x1FCA JUMP JUMPDEST PUSH2 0x60E JUMP JUMPDEST PUSH1 0x40 MLOAD PUSH2 0x252 SWAP2 SWAP1 PUSH2 0x2012 JUMP JUMPDEST PUSH1 0x40 MLOAD DUP1 SWAP2 SUB SWAP1 RETURN JUMPDEST CALLVALUE DUP1 ISZERO PUSH2 0x267 JUMPI PUSH1 0x0 DUP1 REVERT JUMPDEST POP PUSH2 0x282 PUSH1 0x4 DUP1 CALLDATASIZE SUB DUP2 ADD SWAP1 PUSH2 0x27D SWAP2 SWAP1 PUSH2 0x206B JUMP JUMPDEST PUSH2 0x6A8 JUMP JUMPDEST PUSH1 0x40 MLOAD PUSH2 0x28F SWAP2 SWAP1 PUSH2 0x1EA8 JUMP JUMPDEST PUSH1 0x40 MLOAD DUP1 SWAP2 SUB SWAP1 RETURN JUMPDEST CALLVALUE DUP1 ISZERO PUSH2 0x2A4 JUMPI PUSH1 0x0 DUP1 REVERT JUMPDEST POP PUSH2 0x2AD PUSH2 0x6C9 JUMP JUMPDEST PUSH1 0x40 MLOAD PUSH2 0x2BA SWAP2 SWAP1 PUSH2 0x20B9 JUMP JUMPDEST PUSH1 0x40 MLOAD DUP1 SWAP2 SUB SWAP1 RETURN JUMPDEST CALLVALUE DUP1 ISZERO PUSH2 0x2CF JUMPI PUSH1 0x0 DUP1 REVERT JUMPDEST POP PUSH2 0x2EA PUSH1 0x4 DUP1 CALLDATASIZE SUB DUP2 ADD SWAP1 PUSH2 0x2E5 SWAP2 SWAP1 PUSH2 0x1FCA JUMP JUMPDEST PUSH2 0x6EF JUMP JUMPDEST PUSH1 0x40 MLOAD PUSH2 0x2F7 SWAP2 SWAP1 PUSH2 0x2012 JUMP JUMPDEST PUSH1 0x40 MLOAD DUP1 SWAP2 SUB SWAP1 RETURN JUMPDEST CALLVALUE DUP1 ISZERO PUSH2 0x30C JUMPI PUSH1 0x0 DUP1 REVERT JUMPDEST POP PUSH2 0x315 PUSH2 0x91D JUMP JUMPDEST PUSH1 0x40 MLOAD PUSH2 0x322 SWAP2 SWAP1 PUSH2 0x21C1 JUMP JUMPDEST PUSH1 0x40 MLOAD DUP1 SWAP2 SUB SWAP1 RETURN JUMPDEST CALLVALUE DUP1 ISZERO PUSH2 0x337 JUMPI PUSH1 0x0 DUP1 REVERT JUMPDEST POP PUSH2 0x340 PUSH2 0x9D0 JUMP JUMPDEST PUSH1 0x40 MLOAD PUSH2 0x34D SWAP2 SWAP1 PUSH2 0x2204 JUMP JUMPDEST PUSH1 0x40 MLOAD DUP1 SWAP2 SUB SWAP1 RETURN JUMPDEST CALLVALUE DUP1 ISZERO PUSH2 0x362 JUMPI PUSH1 0x0 DUP1 REVERT JUMPDEST POP PUSH2 0x36B PUSH2 0x9F6 JUMP JUMPDEST STOP JUMPDEST CALLVALUE DUP1 ISZERO PUSH2 0x379 JUMPI PUSH1 0x0 DUP1 REVERT JUMPDEST POP PUSH2 0x394 PUSH1 0x4 DUP1 CALLDATASIZE SUB DUP2 ADD SWAP1 PUSH2 0x38F SWAP2 SWAP1 PUSH2 0x221F JUMP JUMPDEST PUSH2 0xA0A JUMP JUMPDEST PUSH1 0x40 MLOAD PUSH2 0x3A1 SWAP2 SWAP1 PUSH2 0x2012 JUMP JUMPDEST PUSH1 0x40 MLOAD DUP1 SWAP2 SUB SWAP1 RETURN JUMPDEST CALLVALUE DUP1 ISZERO PUSH2 0x3B6 JUMPI PUSH1 0x0 DUP1 REVERT JUMPDEST POP PUSH2 0x3BF PUSH2 0xB3A JUMP JUMPDEST PUSH1 0x40 MLOAD PUSH2 0x3CC SWAP2 SWAP1 PUSH2 0x1EA8 JUMP JUMPDEST PUSH1 0x40 MLOAD DUP1 SWAP2 SUB SWAP1 RETURN JUMPDEST CALLVALUE DUP1 ISZERO PUSH2 0x3E1 JUMPI PUSH1 0x0 DUP1 REVERT JUMPDEST POP PUSH2 0x3EA PUSH2 0xB4B JUMP JUMPDEST PUSH1 0x40 MLOAD PUSH2 0x3F7 SWAP2 SWAP1 PUSH2 0x226E JUMP JUMPDEST PUSH1 0x40 MLOAD DUP1 SWAP2 SUB SWAP1 RETURN JUMPDEST CALLVALUE DUP1 ISZERO PUSH2 0x40C JUMPI PUSH1 0x0 DUP1 REVERT JUMPDEST POP PUSH2 0x415 PUSH2 0xB74 JUMP JUMPDEST PUSH1 0x40 MLOAD PUSH2 0x422 SWAP2 SWAP1 PUSH2 0x1EA8 JUMP JUMPDEST PUSH1 0x40 MLOAD DUP1 SWAP2 SUB SWAP1 RETURN JUMPDEST PUSH2 0x445 PUSH1 0x4 DUP1 CALLDATASIZE SUB DUP2 ADD SWAP1 PUSH2 0x440 SWAP2 SWAP1 PUSH2 0x22B5 JUMP JUMPDEST PUSH2 0xC17 JUMP JUMPDEST PUSH1 0x40 MLOAD PUSH2 0x452 SWAP2 SWAP1 PUSH2 0x2012 JUMP JUMPDEST PUSH1 0x40 MLOAD DUP1 SWAP2 SUB SWAP1 RETURN JUMPDEST CALLVALUE DUP1 ISZERO PUSH2 0x467 JUMPI PUSH1 0x0 DUP1 REVERT JUMPDEST POP PUSH2 0x482 PUSH1 0x4 DUP1 CALLDATASIZE SUB DUP2 ADD SWAP1 PUSH2 0x47D SWAP2 SWAP1 PUSH2 0x22E2 JUMP JUMPDEST PUSH2 0xCF9 JUMP JUMPDEST PUSH1 0x40 MLOAD PUSH2 0x48F SWAP2 SWAP1 PUSH2 0x2012 JUMP JUMPDEST PUSH1 0x40 MLOAD DUP1 SWAP2 SUB SWAP1 RETURN JUMPDEST CALLVALUE DUP1 ISZERO PUSH2 0x4A4 JUMPI PUSH1 0x0 DUP1 REVERT JUMPDEST POP PUSH2 0x4BF PUSH1 0x4 DUP1 CALLDATASIZE SUB DUP2 ADD SWAP1 PUSH2 0x4BA SWAP2 SWAP1 PUSH2 0x1FCA JUMP JUMPDEST PUSH2 0xE5F JUMP JUMPDEST PUSH1 0x40 MLOAD PUSH2 0x4CC SWAP2 SWAP1 PUSH2 0x2012 JUMP JUMPDEST PUSH1 0x40 MLOAD DUP1 SWAP2 SUB SWAP1 RETURN JUMPDEST CALLVALUE DUP1 ISZERO PUSH2 0x4E1 JUMPI PUSH1 0x0 DUP1 REVERT JUMPDEST POP PUSH2 0x4FC PUSH1 0x4 DUP1 CALLDATASIZE SUB DUP2 ADD SWAP1 PUSH2 0x4F7 SWAP2 SWAP1 PUSH2 0x206B JUMP JUMPDEST PUSH2 0xEF9 JUMP JUMPDEST STOP JUMPDEST CALLVALUE DUP1 ISZERO PUSH2 0x50A JUMPI PUSH1 0x0 DUP1 REVERT JUMPDEST POP PUSH2 0x525 PUSH1 0x4 DUP1 CALLDATASIZE SUB DUP2 ADD SWAP1 PUSH2 0x520 SWAP2 SWAP1 PUSH2 0x1FCA JUMP JUMPDEST PUSH2 0xF7C JUMP JUMPDEST PUSH1 0x40 MLOAD PUSH2 0x532 SWAP2 SWAP1 PUSH2 0x2012 JUMP JUMPDEST PUSH1 0x40 MLOAD DUP1 SWAP2 SUB SWAP1 RETURN JUMPDEST CALLVALUE DUP1 ISZERO PUSH2 0x547 JUMPI PUSH1 0x0 DUP1 REVERT JUMPDEST POP PUSH2 0x550 PUSH2 0x116B JUMP JUMPDEST PUSH1 0x40 MLOAD PUSH2 0x55D SWAP2 SWAP1 PUSH2 0x2343 JUMP JUMPDEST PUSH1 0x40 MLOAD DUP1 SWAP2 SUB SWAP1 RETURN JUMPDEST CALLVALUE DUP1 ISZERO PUSH2 0x572 JUMPI PUSH1 0x0 DUP1 REVERT JUMPDEST POP PUSH2 0x57B PUSH2 0x1191 JUMP JUMPDEST PUSH1 0x40 MLOAD PUSH2 0x588 SWAP2 SWAP1 PUSH2 0x237F JUMP JUMPDEST PUSH1 0x40 MLOAD DUP1 SWAP2 SUB SWAP1 RETURN JUMPDEST PUSH1 0xB DUP1 PUSH1 0x0 ADD SLOAD SWAP1 DUP1 PUSH1 0x1 ADD SLOAD SWAP1 POP DUP3 JUMP JUMPDEST PUSH1 0x9 DUP1 PUSH1 0x0 ADD SLOAD SWAP1 DUP1 PUSH1 0x1 ADD SLOAD SWAP1 POP DUP3 JUMP JUMPDEST PUSH1 0x0 PUSH1 0x9 PUSH1 0x0 ADD SLOAD SWAP1 POP SWAP1 JUMP JUMPDEST PUSH1 0x6 PUSH1 0x0 SWAP1 SLOAD SWAP1 PUSH2 0x100 EXP SWAP1 DIV PUSH20 0xFFFFFFFFFFFFFFFFFFFFFFFFFFFFFFFFFFFFFFFF AND DUP2 JUMP JUMPDEST PUSH1 0x2 PUSH1 0x0 SWAP1 SLOAD SWAP1 PUSH2 0x100 EXP SWAP1 DIV PUSH20 0xFFFFFFFFFFFFFFFFFFFFFFFFFFFFFFFFFFFFFFFF AND DUP2 JUMP JUMPDEST PUSH1 0x0 PUSH1 0x7 PUSH1 0x0 SWAP1 SLOAD SWAP1 PUSH2 0x100 EXP SWAP1 DIV PUSH20 0xFFFFFFFFFFFFFFFFFFFFFFFFFFFFFFFFFFFFFFFF AND PUSH20 0xFFFFFFFFFFFFFFFFFFFFFFFFFFFFFFFFFFFFFFFF AND PUSH4 0x6527B55D DUP4 CALLER PUSH1 0x40 MLOAD DUP4 PUSH4 0xFFFFFFFF AND PUSH1 0xE0 SHL DUP2 MSTORE PUSH1 0x4 ADD PUSH2 0x66D SWAP3 SWAP2 SWAP1 PUSH2 0x239A JUMP JUMPDEST PUSH1 0x0 PUSH1 0x40 MLOAD DUP1 DUP4 SUB DUP2 PUSH1 0x0 DUP8 DUP1 EXTCODESIZE ISZERO DUP1 ISZERO PUSH2 0x687 JUMPI PUSH1 0x0 DUP1 REVERT JUMPDEST POP GAS CALL ISZERO DUP1 ISZERO PUSH2 0x69B JUMPI RETURNDATASIZE PUSH1 0x0 DUP1 RETURNDATACOPY RETURNDATASIZE PUSH1 0x0 REVERT JUMPDEST POP POP POP POP PUSH1 0x1 SWAP1 POP SWAP2 SWAP1 POP JUMP JUMPDEST PUSH1 0x0 DUP2 PUSH20 0xFFFFFFFFFFFFFFFFFFFFFFFFFFFFFFFFFFFFFFFF AND BALANCE SWAP1 POP SWAP2 SWAP1 POP JUMP JUMPDEST PUSH1 0x3 PUSH1 0x0 SWAP1 SLOAD SWAP1 PUSH2 0x100 EXP SWAP1 DIV PUSH20 0xFFFFFFFFFFFFFFFFFFFFFFFFFFFFFFFFFFFFFFFF AND DUP2 JUMP JUMPDEST PUSH1 0x0 DUP1 PUSH1 0x0 SWAP1 SLOAD SWAP1 PUSH2 0x100 EXP SWAP1 DIV PUSH1 0xFF AND ISZERO PUSH2 0x740 JUMPI PUSH1 0x40 MLOAD PUSH32 0x8C379A000000000000000000000000000000000000000000000000000000000 DUP2 MSTORE PUSH1 0x4 ADD PUSH2 0x737 SWAP1 PUSH2 0x2420 JUMP JUMPDEST PUSH1 0x40 MLOAD DUP1 SWAP2 SUB SWAP1 REVERT JUMPDEST PUSH1 0x1 PUSH1 0x0 DUP1 PUSH2 0x100 EXP DUP2 SLOAD DUP2 PUSH1 0xFF MUL NOT AND SWAP1 DUP4 ISZERO ISZERO MUL OR SWAP1 SSTORE POP PUSH2 0x7A7 CALLER PUSH2 0x7A2 PUSH1 0x64 PUSH2 0x794 PUSH1 0xA PUSH1 0xFF AND PUSH2 0x786 PUSH8 0xDE0B6B3A7640000 DUP10 PUSH2 0x11B7 SWAP1 SWAP2 SWAP1 PUSH4 0xFFFFFFFF AND JUMP JUMPDEST PUSH2 0x11B7 SWAP1 SWAP2 SWAP1 PUSH4 0xFFFFFFFF AND JUMP JUMPDEST PUSH2 0x11CD SWAP1 SWAP2 SWAP1 PUSH4 0xFFFFFFFF AND JUMP JUMPDEST PUSH2 0x11E3 JUMP JUMPDEST PUSH2 0x7E6 JUMPI PUSH1 0x40 MLOAD PUSH32 0x8C379A000000000000000000000000000000000000000000000000000000000 DUP2 MSTORE PUSH1 0x4 ADD PUSH2 0x7DD SWAP1 PUSH2 0x24B2 JUMP JUMPDEST PUSH1 0x40 MLOAD DUP1 SWAP2 SUB SWAP1 REVERT JUMPDEST PUSH1 0x6 PUSH1 0x0 SWAP1 SLOAD SWAP1 PUSH2 0x100 EXP SWAP1 DIV PUSH20 0xFFFFFFFFFFFFFFFFFFFFFFFFFFFFFFFFFFFFFFFF AND PUSH20 0xFFFFFFFFFFFFFFFFFFFFFFFFFFFFFFFFFFFFFFFF AND PUSH4 0xADC9772E CALLER PUSH2 0x85B PUSH1 0x64 PUSH2 0x84D PUSH1 0xA PUSH1 0x64 PUSH2 0x83B SWAP2 SWAP1 PUSH2 0x250E JUMP JUMPDEST PUSH1 0xFF AND DUP9 PUSH2 0x11B7 SWAP1 SWAP2 SWAP1 PUSH4 0xFFFFFFFF AND JUMP JUMPDEST PUSH2 0x11CD SWAP1 SWAP2 SWAP1 PUSH4 0xFFFFFFFF AND JUMP JUMPDEST PUSH1 0x40 MLOAD DUP4 PUSH4 0xFFFFFFFF AND PUSH1 0xE0 SHL DUP2 MSTORE PUSH1 0x4 ADD PUSH2 0x878 SWAP3 SWAP2 SWAP1 PUSH2 0x2543 JUMP JUMPDEST PUSH1 0x20 PUSH1 0x40 MLOAD DUP1 DUP4 SUB DUP2 PUSH1 0x0 DUP8 GAS CALL ISZERO DUP1 ISZERO PUSH2 0x897 JUMPI RETURNDATASIZE PUSH1 0x0 DUP1 RETURNDATACOPY RETURNDATASIZE PUSH1 0x0 REVERT JUMPDEST POP POP POP POP PUSH1 0x40 MLOAD RETURNDATASIZE PUSH1 0x1F NOT PUSH1 0x1F DUP3 ADD AND DUP3 ADD DUP1 PUSH1 0x40 MSTORE POP DUP2 ADD SWAP1 PUSH2 0x8BB SWAP2 SWAP1 PUSH2 0x2581 JUMP JUMPDEST PUSH2 0x8FA JUMPI PUSH1 0x40 MLOAD PUSH32 0x8C379A000000000000000000000000000000000000000000000000000000000 DUP2 MSTORE PUSH1 0x4 ADD PUSH2 0x8F1 SWAP1 PUSH2 0x25FA JUMP JUMPDEST PUSH1 0x40 MLOAD DUP1 SWAP2 SUB SWAP1 REVERT JUMPDEST PUSH1 0x1 SWAP1 POP PUSH1 0x0 DUP1 PUSH1 0x0 PUSH2 0x100 EXP DUP2 SLOAD DUP2 PUSH1 0xFF MUL NOT AND SWAP1 DUP4 ISZERO ISZERO MUL OR SWAP1 SSTORE POP SWAP2 SWAP1 POP JUMP JUMPDEST PUSH1 0x60 PUSH1 0x8 PUSH1 0x0 CALLER PUSH20 0xFFFFFFFFFFFFFFFFFFFFFFFFFFFFFFFFFFFFFFFF AND PUSH20 0xFFFFFFFFFFFFFFFFFFFFFFFFFFFFFFFFFFFFFFFF AND DUP2 MSTORE PUSH1 0x20 ADD SWAP1 DUP2 MSTORE PUSH1 0x20 ADD PUSH1 0x0 KECCAK256 PUSH1 0x0 ADD DUP1 SLOAD DUP1 PUSH1 0x20 MUL PUSH1 0x20 ADD PUSH1 0x40 MLOAD SWAP1 DUP2 ADD PUSH1 0x40 MSTORE DUP1 SWAP3 SWAP2 SWAP1 DUP2 DUP2 MSTORE PUSH1 0x20 ADD PUSH1 0x0 SWAP1 JUMPDEST DUP3 DUP3 LT ISZERO PUSH2 0x9C7 JUMPI DUP4 DUP3 SWAP1 PUSH1 0x0 MSTORE PUSH1 0x20 PUSH1 0x0 KECCAK256 SWAP1 PUSH1 0x2 MUL ADD PUSH1 0x40 MLOAD DUP1 PUSH1 0x40 ADD PUSH1 0x40 MSTORE SWAP1 DUP2 PUSH1 0x0 DUP3 ADD SLOAD DUP2 MSTORE PUSH1 0x20 ADD PUSH1 0x1 DUP3 ADD SLOAD DUP2 MSTORE POP POP DUP2 MSTORE PUSH1 0x20 ADD SWAP1 PUSH1 0x1 ADD SWAP1 PUSH2 0x981 JUMP JUMPDEST POP POP POP POP SWAP1 POP SWAP1 JUMP JUMPDEST PUSH1 0x7 PUSH1 0x0 SWAP1 SLOAD SWAP1 PUSH2 0x100 EXP SWAP1 DIV PUSH20 0xFFFFFFFFFFFFFFFFFFFFFFFFFFFFFFFFFFFFFFFF AND DUP2 JUMP JUMPDEST PUSH2 0x9FE PUSH2 0x1453 JUMP JUMPDEST PUSH2 0xA08 PUSH1 0x0 PUSH2 0x14D1 JUMP JUMPDEST JUMP JUMPDEST PUSH1 0x0 PUSH1 0x3 PUSH1 0x0 SWAP1 SLOAD SWAP1 PUSH2 0x100 EXP SWAP1 DIV PUSH20 0xFFFFFFFFFFFFFFFFFFFFFFFFFFFFFFFFFFFFFFFF AND PUSH20 0xFFFFFFFFFFFFFFFFFFFFFFFFFFFFFFFFFFFFFFFF AND PUSH4 0xB2C3A717 DUP5 ADDRESS DUP6 PUSH1 0x40 MLOAD DUP5 PUSH4 0xFFFFFFFF AND PUSH1 0xE0 SHL DUP2 MSTORE PUSH1 0x4 ADD PUSH2 0xA6B SWAP4 SWAP3 SWAP2 SWAP1 PUSH2 0x261A JUMP JUMPDEST PUSH1 0x20 PUSH1 0x40 MLOAD DUP1 DUP4 SUB DUP2 PUSH1 0x0 DUP8 GAS CALL ISZERO DUP1 ISZERO PUSH2 0xA8A JUMPI RETURNDATASIZE PUSH1 0x0 DUP1 RETURNDATACOPY RETURNDATASIZE PUSH1 0x0 REVERT JUMPDEST POP POP POP POP PUSH1 0x40 MLOAD RETURNDATASIZE PUSH1 0x1F NOT PUSH1 0x1F DUP3 ADD AND DUP3 ADD DUP1 PUSH1 0x40 MSTORE POP DUP2 ADD SWAP1 PUSH2 0xAAE SWAP2 SWAP1 PUSH2 0x2581 JUMP JUMPDEST PUSH1 0x40 MLOAD DUP1 PUSH1 0x40 ADD PUSH1 0x40 MSTORE DUP1 PUSH1 0x1A DUP2 MSTORE PUSH1 0x20 ADD PUSH32 0x5761726E696E6720466F72204C6F636B75702053686F7274656E000000000000 DUP2 MSTORE POP SWAP1 PUSH2 0xB25 JUMPI PUSH1 0x40 MLOAD PUSH32 0x8C379A000000000000000000000000000000000000000000000000000000000 DUP2 MSTORE PUSH1 0x4 ADD PUSH2 0xB1C SWAP2 SWAP1 PUSH2 0x26D0 JUMP JUMPDEST PUSH1 0x40 MLOAD DUP1 SWAP2 SUB SWAP1 REVERT JUMPDEST POP PUSH2 0xB2F DUP4 PUSH2 0x1596 JUMP JUMPDEST POP PUSH1 0x1 SWAP1 POP SWAP3 SWAP2 POP POP JUMP JUMPDEST PUSH1 0x0 PUSH2 0xB46 PUSH1 0x1 PUSH2 0x15C7 JUMP JUMPDEST SWAP1 POP SWAP1 JUMP JUMPDEST PUSH1 0x0 DUP1 PUSH1 0x1 SWAP1 SLOAD SWAP1 PUSH2 0x100 EXP SWAP1 DIV PUSH20 0xFFFFFFFFFFFFFFFFFFFFFFFFFFFFFFFFFFFFFFFF AND SWAP1 POP SWAP1 JUMP JUMPDEST PUSH1 0x0 PUSH1 0x3 PUSH1 0x0 SWAP1 SLOAD SWAP1 PUSH2 0x100 EXP SWAP1 DIV PUSH20 0xFFFFFFFFFFFFFFFFFFFFFFFFFFFFFFFFFFFFFFFF AND PUSH20 0xFFFFFFFFFFFFFFFFFFFFFFFFFFFFFFFFFFFFFFFF AND PUSH4 0x70A08231 CALLER PUSH1 0x40 MLOAD DUP3 PUSH4 0xFFFFFFFF AND PUSH1 0xE0 SHL DUP2 MSTORE PUSH1 0x4 ADD PUSH2 0xBD1 SWAP2 SWAP1 PUSH2 0x226E JUMP JUMPDEST PUSH1 0x20 PUSH1 0x40 MLOAD DUP1 DUP4 SUB DUP2 DUP7 GAS STATICCALL ISZERO DUP1 ISZERO PUSH2 0xBEE JUMPI RETURNDATASIZE PUSH1 0x0 DUP1 RETURNDATACOPY RETURNDATASIZE PUSH1 0x0 REVERT JUMPDEST POP POP POP POP PUSH1 0x40 MLOAD RETURNDATASIZE PUSH1 0x1F NOT PUSH1 0x1F DUP3 ADD AND DUP3 ADD DUP1 PUSH1 0x40 MSTORE POP DUP2 ADD SWAP1 PUSH2 0xC12 SWAP2 SWAP1 PUSH2 0x2707 JUMP JUMPDEST SWAP1 POP SWAP1 JUMP JUMPDEST PUSH1 0x0 PUSH2 0xC23 CALLVALUE DUP4 PUSH2 0x15D5 JUMP JUMPDEST POP PUSH1 0x0 PUSH2 0xC2F CALLVALUE PUSH2 0x1686 JUMP JUMPDEST PUSH1 0x40 MLOAD PUSH1 0x20 ADD PUSH2 0xC3F SWAP2 SWAP1 PUSH2 0x2808 JUMP JUMPDEST PUSH1 0x40 MLOAD PUSH1 0x20 DUP2 DUP4 SUB SUB DUP2 MSTORE SWAP1 PUSH1 0x40 MSTORE SWAP1 POP PUSH1 0x3 PUSH1 0x0 SWAP1 SLOAD SWAP1 PUSH2 0x100 EXP SWAP1 DIV PUSH20 0xFFFFFFFFFFFFFFFFFFFFFFFFFFFFFFFFFFFFFFFF AND PUSH20 0xFFFFFFFFFFFFFFFFFFFFFFFFFFFFFFFFFFFFFFFF AND PUSH4 0x890D80C DUP3 PUSH1 0x40 MLOAD DUP3 PUSH4 0xFFFFFFFF AND PUSH1 0xE0 SHL DUP2 MSTORE PUSH1 0x4 ADD PUSH2 0xCAB SWAP2 SWAP1 PUSH2 0x2919 JUMP JUMPDEST PUSH1 0x20 PUSH1 0x40 MLOAD DUP1 DUP4 SUB DUP2 PUSH1 0x0 DUP8 GAS CALL ISZERO DUP1 ISZERO PUSH2 0xCCA JUMPI RETURNDATASIZE PUSH1 0x0 DUP1 RETURNDATACOPY RETURNDATASIZE PUSH1 0x0 REVERT JUMPDEST POP POP POP POP PUSH1 0x40 MLOAD RETURNDATASIZE PUSH1 0x1F NOT PUSH1 0x1F DUP3 ADD AND DUP3 ADD DUP1 PUSH1 0x40 MSTORE POP DUP2 ADD SWAP1 PUSH2 0xCEE SWAP2 SWAP1 PUSH2 0x2581 JUMP JUMPDEST POP PUSH1 0x1 SWAP2 POP POP SWAP2 SWAP1 POP JUMP JUMPDEST PUSH1 0x0 PUSH1 0x2 PUSH1 0x0 SWAP1 SLOAD SWAP1 PUSH2 0x100 EXP SWAP1 DIV PUSH20 0xFFFFFFFFFFFFFFFFFFFFFFFFFFFFFFFFFFFFFFFF AND PUSH20 0xFFFFFFFFFFFFFFFFFFFFFFFFFFFFFFFFFFFFFFFF AND PUSH4 0x469895C8 ADDRESS DUP6 PUSH2 0xD56 PUSH8 0xDE0B6B3A7640000 DUP8 PUSH2 0x11B7 SWAP1 SWAP2 SWAP1 PUSH4 0xFFFFFFFF AND JUMP JUMPDEST PUSH1 0x40 MLOAD DUP5 PUSH4 0xFFFFFFFF AND PUSH1 0xE0 SHL DUP2 MSTORE PUSH1 0x4 ADD PUSH2 0xD74 SWAP4 SWAP3 SWAP2 SWAP1 PUSH2 0x2961 JUMP JUMPDEST PUSH1 0x20 PUSH1 0x40 MLOAD DUP1 DUP4 SUB DUP2 PUSH1 0x0 DUP8 GAS CALL ISZERO DUP1 ISZERO PUSH2 0xD93 JUMPI RETURNDATASIZE PUSH1 0x0 DUP1 RETURNDATACOPY RETURNDATASIZE PUSH1 0x0 REVERT JUMPDEST POP POP POP POP PUSH1 0x40 MLOAD RETURNDATASIZE PUSH1 0x1F NOT PUSH1 0x1F DUP3 ADD AND DUP3 ADD DUP1 PUSH1 0x40 MSTORE POP DUP2 ADD SWAP1 PUSH2 0xDB7 SWAP2 SWAP1 PUSH2 0x2581 JUMP JUMPDEST PUSH1 0x40 MLOAD DUP1 PUSH1 0x40 ADD PUSH1 0x40 MSTORE DUP1 PUSH1 0x14 DUP2 MSTORE PUSH1 0x20 ADD PUSH32 0x5761726E696E6720466F72205472616E73666572000000000000000000000000 DUP2 MSTORE POP SWAP1 PUSH2 0xE2E JUMPI PUSH1 0x40 MLOAD PUSH32 0x8C379A000000000000000000000000000000000000000000000000000000000 DUP2 MSTORE PUSH1 0x4 ADD PUSH2 0xE25 SWAP2 SWAP1 PUSH2 0x26D0 JUMP JUMPDEST PUSH1 0x40 MLOAD DUP1 SWAP2 SUB SWAP1 REVERT JUMPDEST POP DUP2 PUSH1 0x9 PUSH1 0x0 ADD PUSH1 0x0 DUP3 DUP3 SLOAD PUSH2 0xE44 SWAP2 SWAP1 PUSH2 0x2998 JUMP JUMPDEST SWAP3 POP POP DUP2 SWAP1 SSTORE POP TIMESTAMP PUSH1 0x9 PUSH1 0x1 ADD DUP2 SWAP1 SSTORE POP PUSH1 0x1 SWAP1 POP SWAP3 SWAP2 POP POP JUMP JUMPDEST PUSH1 0x0 PUSH1 0x7 PUSH1 0x0 SWAP1 SLOAD SWAP1 PUSH2 0x100 EXP SWAP1 DIV PUSH20 0xFFFFFFFFFFFFFFFFFFFFFFFFFFFFFFFFFFFFFFFF AND PUSH20 0xFFFFFFFFFFFFFFFFFFFFFFFFFFFFFFFFFFFFFFFF AND PUSH4 0xC663A107 DUP4 CALLER PUSH1 0x40 MLOAD DUP4 PUSH4 0xFFFFFFFF AND PUSH1 0xE0 SHL DUP2 MSTORE PUSH1 0x4 ADD PUSH2 0xEBE SWAP3 SWAP2 SWAP1 PUSH2 0x239A JUMP JUMPDEST PUSH1 0x0 PUSH1 0x40 MLOAD DUP1 DUP4 SUB DUP2 PUSH1 0x0 DUP8 DUP1 EXTCODESIZE ISZERO DUP1 ISZERO PUSH2 0xED8 JUMPI PUSH1 0x0 DUP1 REVERT JUMPDEST POP GAS CALL ISZERO DUP1 ISZERO PUSH2 0xEEC JUMPI RETURNDATASIZE PUSH1 0x0 DUP1 RETURNDATACOPY RETURNDATASIZE PUSH1 0x0 REVERT JUMPDEST POP POP POP POP PUSH1 0x1 SWAP1 POP SWAP2 SWAP1 POP JUMP JUMPDEST PUSH2 0xF01 PUSH2 0x1453 JUMP JUMPDEST PUSH1 0x0 PUSH20 0xFFFFFFFFFFFFFFFFFFFFFFFFFFFFFFFFFFFFFFFF AND DUP2 PUSH20 0xFFFFFFFFFFFFFFFFFFFFFFFFFFFFFFFFFFFFFFFF AND SUB PUSH2 0xF70 JUMPI PUSH1 0x40 MLOAD PUSH32 0x8C379A000000000000000000000000000000000000000000000000000000000 DUP2 MSTORE PUSH1 0x4 ADD PUSH2 0xF67 SWAP1 PUSH2 0x2A3E JUMP JUMPDEST PUSH1 0x40 MLOAD DUP1 SWAP2 SUB SWAP1 REVERT JUMPDEST PUSH2 0xF79 DUP2 PUSH2 0x14D1 JUMP JUMPDEST POP JUMP JUMPDEST PUSH1 0x0 PUSH1 0x3 PUSH1 0x0 SWAP1 SLOAD SWAP1 PUSH2 0x100 EXP SWAP1 DIV PUSH20 0xFFFFFFFFFFFFFFFFFFFFFFFFFFFFFFFFFFFFFFFF AND PUSH20 0xFFFFFFFFFFFFFFFFFFFFFFFFFFFFFFFFFFFFFFFF AND PUSH4 0x2890E0D7 DUP4 PUSH1 0x40 MLOAD DUP3 PUSH4 0xFFFFFFFF AND PUSH1 0xE0 SHL DUP2 MSTORE PUSH1 0x4 ADD PUSH2 0xFD9 SWAP2 SWAP1 PUSH2 0x1EA8 JUMP JUMPDEST PUSH1 0x20 PUSH1 0x40 MLOAD DUP1 DUP4 SUB DUP2 PUSH1 0x0 DUP8 GAS CALL ISZERO DUP1 ISZERO PUSH2 0xFF8 JUMPI RETURNDATASIZE PUSH1 0x0 DUP1 RETURNDATACOPY RETURNDATASIZE PUSH1 0x0 REVERT JUMPDEST POP POP POP POP PUSH1 0x40 MLOAD RETURNDATASIZE PUSH1 0x1F NOT PUSH1 0x1F DUP3 ADD AND DUP3 ADD DUP1 PUSH1 0x40 MSTORE POP DUP2 ADD SWAP1 PUSH2 0x101C SWAP2 SWAP1 PUSH2 0x2581 JUMP JUMPDEST POP PUSH1 0x2 PUSH1 0x0 SWAP1 SLOAD SWAP1 PUSH2 0x100 EXP SWAP1 DIV PUSH20 0xFFFFFFFFFFFFFFFFFFFFFFFFFFFFFFFFFFFFFFFF AND PUSH20 0xFFFFFFFFFFFFFFFFFFFFFFFFFFFFFFFFFFFFFFFF AND PUSH4 0x5F367B03 CALLER PUSH2 0x108A PUSH8 0xDE0B6B3A7640000 PUSH1 0xD PUSH1 0x0 DUP9 DUP2 MSTORE PUSH1 0x20 ADD SWAP1 DUP2 MSTORE PUSH1 0x20 ADD PUSH1 0x0 KECCAK256 SLOAD PUSH2 0x11B7 SWAP1 SWAP2 SWAP1 PUSH4 0xFFFFFFFF AND JUMP JUMPDEST PUSH1 0x40 MLOAD DUP4 PUSH4 0xFFFFFFFF AND PUSH1 0xE0 SHL DUP2 MSTORE PUSH1 0x4 ADD PUSH2 0x10A7 SWAP3 SWAP2 SWAP1 PUSH2 0x2543 JUMP JUMPDEST PUSH1 0x20 PUSH1 0x40 MLOAD DUP1 DUP4 SUB DUP2 PUSH1 0x0 DUP8 GAS CALL ISZERO DUP1 ISZERO PUSH2 0x10C6 JUMPI RETURNDATASIZE PUSH1 0x0 DUP1 RETURNDATACOPY RETURNDATASIZE PUSH1 0x0 REVERT JUMPDEST POP POP POP POP PUSH1 0x40 MLOAD RETURNDATASIZE PUSH1 0x1F NOT PUSH1 0x1F DUP3 ADD AND DUP3 ADD DUP1 PUSH1 0x40 MSTORE POP DUP2 ADD SWAP1 PUSH2 0x10EA SWAP2 SWAP1 PUSH2 0x2581 JUMP JUMPDEST PUSH1 0x40 MLOAD DUP1 PUSH1 0x40 ADD PUSH1 0x40 MSTORE DUP1 PUSH1 0x14 DUP2 MSTORE PUSH1 0x20 ADD PUSH32 0x5761726E696E6720466F72205472616E73666572000000000000000000000000 DUP2 MSTORE POP SWAP1 PUSH2 0x1161 JUMPI PUSH1 0x40 MLOAD PUSH32 0x8C379A000000000000000000000000000000000000000000000000000000000 DUP2 MSTORE PUSH1 0x4 ADD PUSH2 0x1158 SWAP2 SWAP1 PUSH2 0x26D0 JUMP JUMPDEST PUSH1 0x40 MLOAD DUP1 SWAP2 SUB SWAP1 REVERT JUMPDEST POP PUSH1 0x1 SWAP1 POP SWAP2 SWAP1 POP JUMP JUMPDEST PUSH1 0x5 PUSH1 0x0 SWAP1 SLOAD SWAP1 PUSH2 0x100 EXP SWAP1 DIV PUSH20 0xFFFFFFFFFFFFFFFFFFFFFFFFFFFFFFFFFFFFFFFF AND DUP2 JUMP JUMPDEST PUSH1 0x4 PUSH1 0x0 SWAP1 SLOAD SWAP1 PUSH2 0x100 EXP SWAP1 DIV PUSH20 0xFFFFFFFFFFFFFFFFFFFFFFFFFFFFFFFFFFFFFFFF AND DUP2 JUMP JUMPDEST PUSH1 0x0 DUP2 DUP4 PUSH2 0x11C5 SWAP2 SWAP1 PUSH2 0x2A5E JUMP JUMPDEST SWAP1 POP SWAP3 SWAP2 POP POP JUMP JUMPDEST PUSH1 0x0 DUP2 DUP4 PUSH2 0x11DB SWAP2 SWAP1 PUSH2 0x2ACF JUMP JUMPDEST SWAP1 POP SWAP3 SWAP2 POP POP JUMP JUMPDEST PUSH1 0x0 PUSH1 0x4 PUSH1 0x0 SWAP1 SLOAD SWAP1 PUSH2 0x100 EXP SWAP1 DIV PUSH20 0xFFFFFFFFFFFFFFFFFFFFFFFFFFFFFFFFFFFFFFFF AND PUSH20 0xFFFFFFFFFFFFFFFFFFFFFFFFFFFFFFFFFFFFFFFF AND PUSH4 0x44570B3F DUP5 PUSH2 0x123F PUSH8 0xDE0B6B3A7640000 DUP7 PUSH2 0x11B7 SWAP1 SWAP2 SWAP1 PUSH4 0xFFFFFFFF AND JUMP JUMPDEST PUSH1 0x40 MLOAD DUP4 PUSH4 0xFFFFFFFF AND PUSH1 0xE0 SHL DUP2 MSTORE PUSH1 0x4 ADD PUSH2 0x125C SWAP3 SWAP2 SWAP1 PUSH2 0x2543 JUMP JUMPDEST PUSH1 0x20 PUSH1 0x40 MLOAD DUP1 DUP4 SUB DUP2 PUSH1 0x0 DUP8 GAS CALL ISZERO DUP1 ISZERO PUSH2 0x127B JUMPI RETURNDATASIZE PUSH1 0x0 DUP1 RETURNDATACOPY RETURNDATASIZE PUSH1 0x0 REVERT JUMPDEST POP POP POP POP PUSH1 0x40 MLOAD RETURNDATASIZE PUSH1 0x1F NOT PUSH1 0x1F DUP3 ADD AND DUP3 ADD DUP1 PUSH1 0x40 MSTORE POP DUP2 ADD SWAP1 PUSH2 0x129F SWAP2 SWAP1 PUSH2 0x2581 JUMP JUMPDEST PUSH1 0x40 MLOAD DUP1 PUSH1 0x40 ADD PUSH1 0x40 MSTORE DUP1 PUSH1 0x1C DUP2 MSTORE PUSH1 0x20 ADD PUSH32 0x5761726E696E6720466F722051564520457363726F77206572726F7200000000 DUP2 MSTORE POP SWAP1 PUSH2 0x1316 JUMPI PUSH1 0x40 MLOAD PUSH32 0x8C379A000000000000000000000000000000000000000000000000000000000 DUP2 MSTORE PUSH1 0x4 ADD PUSH2 0x130D SWAP2 SWAP1 PUSH2 0x26D0 JUMP JUMPDEST PUSH1 0x40 MLOAD DUP1 SWAP2 SUB SWAP1 REVERT JUMPDEST POP PUSH1 0x5 PUSH1 0x0 SWAP1 SLOAD SWAP1 PUSH2 0x100 EXP SWAP1 DIV PUSH20 0xFFFFFFFFFFFFFFFFFFFFFFFFFFFFFFFFFFFFFFFF AND PUSH20 0xFFFFFFFFFFFFFFFFFFFFFFFFFFFFFFFFFFFFFFFF AND PUSH4 0xCDB51CDF PUSH2 0x1370 PUSH8 0xDE0B6B3A7640000 DUP6 PUSH2 0x11B7 SWAP1 SWAP2 SWAP1 PUSH4 0xFFFFFFFF AND JUMP JUMPDEST DUP6 PUSH1 0x40 MLOAD DUP4 PUSH4 0xFFFFFFFF AND PUSH1 0xE0 SHL DUP2 MSTORE PUSH1 0x4 ADD PUSH2 0x138E SWAP3 SWAP2 SWAP1 PUSH2 0x239A JUMP JUMPDEST PUSH1 0x20 PUSH1 0x40 MLOAD DUP1 DUP4 SUB DUP2 PUSH1 0x0 DUP8 GAS CALL ISZERO DUP1 ISZERO PUSH2 0x13AD JUMPI RETURNDATASIZE PUSH1 0x0 DUP1 RETURNDATACOPY RETURNDATASIZE PUSH1 0x0 REVERT JUMPDEST POP POP POP POP PUSH1 0x40 MLOAD RETURNDATASIZE PUSH1 0x1F NOT PUSH1 0x1F DUP3 ADD AND DUP3 ADD DUP1 PUSH1 0x40 MSTORE POP DUP2 ADD SWAP1 PUSH2 0x13D1 SWAP2 SWAP1 PUSH2 0x2581 JUMP JUMPDEST PUSH1 0x40 MLOAD DUP1 PUSH1 0x40 ADD PUSH1 0x40 MSTORE DUP1 PUSH1 0x17 DUP2 MSTORE PUSH1 0x20 ADD PUSH32 0x5761726E696E6720466F72205156452056657374696E67000000000000000000 DUP2 MSTORE POP SWAP1 PUSH2 0x1448 JUMPI PUSH1 0x40 MLOAD PUSH32 0x8C379A000000000000000000000000000000000000000000000000000000000 DUP2 MSTORE PUSH1 0x4 ADD PUSH2 0x143F SWAP2 SWAP1 PUSH2 0x26D0 JUMP JUMPDEST PUSH1 0x40 MLOAD DUP1 SWAP2 SUB SWAP1 REVERT JUMPDEST POP PUSH1 0x1 SWAP1 POP SWAP3 SWAP2 POP POP JUMP JUMPDEST PUSH2 0x145B PUSH2 0x1754 JUMP JUMPDEST PUSH20 0xFFFFFFFFFFFFFFFFFFFFFFFFFFFFFFFFFFFFFFFF AND PUSH2 0x1479 PUSH2 0xB4B JUMP JUMPDEST PUSH20 0xFFFFFFFFFFFFFFFFFFFFFFFFFFFFFFFFFFFFFFFF AND EQ PUSH2 0x14CF JUMPI PUSH1 0x40 MLOAD PUSH32 0x8C379A000000000000000000000000000000000000000000000000000000000 DUP2 MSTORE PUSH1 0x4 ADD PUSH2 0x14C6 SWAP1 PUSH2 0x2B4C JUMP JUMPDEST PUSH1 0x40 MLOAD DUP1 SWAP2 SUB SWAP1 REVERT JUMPDEST JUMP JUMPDEST PUSH1 0x0 DUP1 PUSH1 0x1 SWAP1 SLOAD SWAP1 PUSH2 0x100 EXP SWAP1 DIV PUSH20 0xFFFFFFFFFFFFFFFFFFFFFFFFFFFFFFFFFFFFFFFF AND SWAP1 POP DUP2 PUSH1 0x0 PUSH1 0x1 PUSH2 0x100 EXP DUP2 SLOAD DUP2 PUSH20 0xFFFFFFFFFFFFFFFFFFFFFFFFFFFFFFFFFFFFFFFF MUL NOT AND SWAP1 DUP4 PUSH20 0xFFFFFFFFFFFFFFFFFFFFFFFFFFFFFFFFFFFFFFFF AND MUL OR SWAP1 SSTORE POP DUP2 PUSH20 0xFFFFFFFFFFFFFFFFFFFFFFFFFFFFFFFFFFFFFFFF AND DUP2 PUSH20 0xFFFFFFFFFFFFFFFFFFFFFFFFFFFFFFFFFFFFFFFF AND PUSH32 0x8BE0079C531659141344CD1FD0A4F28419497F9722A3DAAFE3B4186F6B6457E0 PUSH1 0x40 MLOAD PUSH1 0x40 MLOAD DUP1 SWAP2 SUB SWAP1 LOG3 POP POP JUMP JUMPDEST PUSH1 0x0 DUP2 PUSH1 0x9 PUSH1 0x0 ADD PUSH1 0x0 DUP3 DUP3 SLOAD PUSH2 0x15AD SWAP2 SWAP1 PUSH2 0x2B6C JUMP JUMPDEST SWAP3 POP POP DUP2 SWAP1 SSTORE POP TIMESTAMP PUSH1 0x9 PUSH1 0x1 ADD DUP2 SWAP1 SSTORE POP PUSH1 0x1 SWAP1 POP SWAP2 SWAP1 POP JUMP JUMPDEST PUSH1 0x0 DUP2 PUSH1 0x0 ADD SLOAD SWAP1 POP SWAP2 SWAP1 POP JUMP JUMPDEST PUSH1 0x0 DUP1 PUSH2 0x15E3 CALLER DUP6 DUP6 PUSH2 0x175C JUMP JUMPDEST SWAP1 POP PUSH2 0x15EE DUP2 PUSH2 0x1B0A JUMP JUMPDEST PUSH2 0x15F9 CALLER DUP6 DUP4 PUSH2 0x1BA3 JUMP JUMPDEST PUSH1 0x40 MLOAD DUP1 PUSH1 0x40 ADD PUSH1 0x40 MSTORE DUP1 PUSH1 0x11 DUP2 MSTORE PUSH1 0x20 ADD PUSH32 0x5761726E696E6720466F72205661756C74000000000000000000000000000000 DUP2 MSTORE POP SWAP1 PUSH2 0x1670 JUMPI PUSH1 0x40 MLOAD PUSH32 0x8C379A000000000000000000000000000000000000000000000000000000000 DUP2 MSTORE PUSH1 0x4 ADD PUSH2 0x1667 SWAP2 SWAP1 PUSH2 0x26D0 JUMP JUMPDEST PUSH1 0x40 MLOAD DUP1 SWAP2 SUB SWAP1 REVERT JUMPDEST POP PUSH2 0x167B PUSH1 0x1 PUSH2 0x1CDC JUMP JUMPDEST PUSH1 0x1 SWAP2 POP POP SWAP3 SWAP2 POP POP JUMP JUMPDEST PUSH1 0x60 PUSH1 0x0 PUSH1 0x1 PUSH2 0x1695 DUP5 PUSH2 0x1CF2 JUMP JUMPDEST ADD SWAP1 POP PUSH1 0x0 DUP2 PUSH8 0xFFFFFFFFFFFFFFFF DUP2 GT ISZERO PUSH2 0x16B4 JUMPI PUSH2 0x16B3 PUSH2 0x2BA0 JUMP JUMPDEST JUMPDEST PUSH1 0x40 MLOAD SWAP1 DUP1 DUP3 MSTORE DUP1 PUSH1 0x1F ADD PUSH1 0x1F NOT AND PUSH1 0x20 ADD DUP3 ADD PUSH1 0x40 MSTORE DUP1 ISZERO PUSH2 0x16E6 JUMPI DUP2 PUSH1 0x20 ADD PUSH1 0x1 DUP3 MUL DUP1 CALLDATASIZE DUP4 CALLDATACOPY DUP1 DUP3 ADD SWAP2 POP POP SWAP1 POP JUMPDEST POP SWAP1 POP PUSH1 0x0 DUP3 PUSH1 0x20 ADD DUP3 ADD SWAP1 POP JUMPDEST PUSH1 0x1 ISZERO PUSH2 0x1749 JUMPI DUP1 DUP1 PUSH1 0x1 SWAP1 SUB SWAP2 POP POP PUSH32 0x3031323334353637383961626364656600000000000000000000000000000000 PUSH1 0xA DUP7 MOD BYTE DUP2 MSTORE8 PUSH1 0xA DUP6 DUP2 PUSH2 0x173D JUMPI PUSH2 0x173C PUSH2 0x2AA0 JUMP JUMPDEST JUMPDEST DIV SWAP5 POP PUSH1 0x0 DUP6 SUB PUSH2 0x16F4 JUMPI JUMPDEST DUP2 SWAP4 POP POP POP POP SWAP2 SWAP1 POP JUMP JUMPDEST PUSH1 0x0 CALLER SWAP1 POP SWAP1 JUMP JUMPDEST PUSH1 0x0 DUP1 PUSH1 0x0 SWAP1 SLOAD SWAP1 PUSH2 0x100 EXP SWAP1 DIV PUSH1 0xFF AND ISZERO PUSH2 0x17AD JUMPI PUSH1 0x40 MLOAD PUSH32 0x8C379A000000000000000000000000000000000000000000000000000000000 DUP2 MSTORE PUSH1 0x4 ADD PUSH2 0x17A4 SWAP1 PUSH2 0x2420 JUMP JUMPDEST PUSH1 0x40 MLOAD DUP1 SWAP2 SUB SWAP1 REVERT JUMPDEST PUSH1 0x1 PUSH1 0x0 DUP1 PUSH2 0x100 EXP DUP2 SLOAD DUP2 PUSH1 0xFF MUL NOT AND SWAP1 DUP4 ISZERO ISZERO MUL OR SWAP1 SSTORE POP PUSH1 0x0 PUSH1 0x3 PUSH1 0x0 SWAP1 SLOAD SWAP1 PUSH2 0x100 EXP SWAP1 DIV PUSH20 0xFFFFFFFFFFFFFFFFFFFFFFFFFFFFFFFFFFFFFFFF AND PUSH20 0xFFFFFFFFFFFFFFFFFFFFFFFFFFFFFFFFFFFFFFFF AND PUSH4 0xF42C69D6 DUP7 DUP6 PUSH1 0x40 MLOAD DUP4 PUSH4 0xFFFFFFFF AND PUSH1 0xE0 SHL DUP2 MSTORE PUSH1 0x4 ADD PUSH2 0x1826 SWAP3 SWAP2 SWAP1 PUSH2 0x2BCF JUMP JUMPDEST PUSH1 0x20 PUSH1 0x40 MLOAD DUP1 DUP4 SUB DUP2 PUSH1 0x0 DUP8 GAS CALL ISZERO DUP1 ISZERO PUSH2 0x1845 JUMPI RETURNDATASIZE PUSH1 0x0 DUP1 RETURNDATACOPY RETURNDATASIZE PUSH1 0x0 REVERT JUMPDEST POP POP POP POP PUSH1 0x40 MLOAD RETURNDATASIZE PUSH1 0x1F NOT PUSH1 0x1F DUP3 ADD AND DUP3 ADD DUP1 PUSH1 0x40 MSTORE POP DUP2 ADD SWAP1 PUSH2 0x1869 SWAP2 SWAP1 PUSH2 0x2707 JUMP JUMPDEST SWAP1 POP PUSH1 0x8 PUSH1 0x0 DUP7 PUSH20 0xFFFFFFFFFFFFFFFFFFFFFFFFFFFFFFFFFFFFFFFF AND PUSH20 0xFFFFFFFFFFFFFFFFFFFFFFFFFFFFFFFFFFFFFFFF AND DUP2 MSTORE PUSH1 0x20 ADD SWAP1 DUP2 MSTORE PUSH1 0x20 ADD PUSH1 0x0 KECCAK256 PUSH1 0x0 ADD PUSH1 0x40 MLOAD DUP1 PUSH1 0x40 ADD PUSH1 0x40 MSTORE DUP1 DUP4 DUP2 MSTORE PUSH1 0x20 ADD TIMESTAMP DUP2 MSTORE POP SWAP1 DUP1 PUSH1 0x1 DUP2 SLOAD ADD DUP1 DUP3 SSTORE DUP1 SWAP2 POP POP PUSH1 0x1 SWAP1 SUB SWAP1 PUSH1 0x0 MSTORE PUSH1 0x20 PUSH1 0x0 KECCAK256 SWAP1 PUSH1 0x2 MUL ADD PUSH1 0x0 SWAP1 SWAP2 SWAP1 SWAP2 SWAP1 SWAP2 POP PUSH1 0x0 DUP3 ADD MLOAD DUP2 PUSH1 0x0 ADD SSTORE PUSH1 0x20 DUP3 ADD MLOAD DUP2 PUSH1 0x1 ADD SSTORE POP POP PUSH2 0x190C CALLER DUP6 DUP4 PUSH2 0x1BA3 JUMP JUMPDEST POP DUP3 ISZERO PUSH2 0x1AE5 JUMPI PUSH1 0x5 PUSH1 0x0 SWAP1 SLOAD SWAP1 PUSH2 0x100 EXP SWAP1 DIV PUSH20 0xFFFFFFFFFFFFFFFFFFFFFFFFFFFFFFFFFFFFFFFF AND PUSH20 0xFFFFFFFFFFFFFFFFFFFFFFFFFFFFFFFFFFFFFFFF AND PUSH4 0xCDB51CDF PUSH1 0x4 PUSH1 0x0 SWAP1 SLOAD SWAP1 PUSH2 0x100 EXP SWAP1 DIV PUSH20 0xFFFFFFFFFFFFFFFFFFFFFFFFFFFFFFFFFFFFFFFF AND PUSH20 0xFFFFFFFFFFFFFFFFFFFFFFFFFFFFFFFFFFFFFFFF AND PUSH4 0x8C70BB9 CALLER PUSH2 0x19AB PUSH8 0xDE0B6B3A7640000 DUP11 PUSH2 0x11B7 SWAP1 SWAP2 SWAP1 PUSH4 0xFFFFFFFF AND JUMP JUMPDEST PUSH1 0x40 MLOAD DUP4 PUSH4 0xFFFFFFFF AND PUSH1 0xE0 SHL DUP2 MSTORE PUSH1 0x4 ADD PUSH2 0x19C8 SWAP3 SWAP2 SWAP1 PUSH2 0x2543 JUMP JUMPDEST PUSH1 0x20 PUSH1 0x40 MLOAD DUP1 DUP4 SUB DUP2 PUSH1 0x0 DUP8 GAS CALL ISZERO DUP1 ISZERO PUSH2 0x19E7 JUMPI RETURNDATASIZE PUSH1 0x0 DUP1 RETURNDATACOPY RETURNDATASIZE PUSH1 0x0 REVERT JUMPDEST POP POP POP POP PUSH1 0x40 MLOAD RETURNDATASIZE PUSH1 0x1F NOT PUSH1 0x1F DUP3 ADD AND DUP3 ADD DUP1 PUSH1 0x40 MSTORE POP DUP2 ADD SWAP1 PUSH2 0x1A0B SWAP2 SWAP1 PUSH2 0x2707 JUMP JUMPDEST CALLER PUSH1 0x40 MLOAD DUP4 PUSH4 0xFFFFFFFF AND PUSH1 0xE0 SHL DUP2 MSTORE PUSH1 0x4 ADD PUSH2 0x1A29 SWAP3 SWAP2 SWAP1 PUSH2 0x239A JUMP JUMPDEST PUSH1 0x20 PUSH1 0x40 MLOAD DUP1 DUP4 SUB DUP2 PUSH1 0x0 DUP8 GAS CALL ISZERO DUP1 ISZERO PUSH2 0x1A48 JUMPI RETURNDATASIZE PUSH1 0x0 DUP1 RETURNDATACOPY RETURNDATASIZE PUSH1 0x0 REVERT JUMPDEST POP POP POP POP PUSH1 0x40 MLOAD RETURNDATASIZE PUSH1 0x1F NOT PUSH1 0x1F DUP3 ADD AND DUP3 ADD DUP1 PUSH1 0x40 MSTORE POP DUP2 ADD SWAP1 PUSH2 0x1A6C SWAP2 SWAP1 PUSH2 0x2581 JUMP JUMPDEST PUSH1 0x40 MLOAD DUP1 PUSH1 0x40 ADD PUSH1 0x40 MSTORE DUP1 PUSH1 0x17 DUP2 MSTORE PUSH1 0x20 ADD PUSH32 0x5761726E696E6720466F72205156452056657374696E67000000000000000000 DUP2 MSTORE POP SWAP1 PUSH2 0x1AE3 JUMPI PUSH1 0x40 MLOAD PUSH32 0x8C379A000000000000000000000000000000000000000000000000000000000 DUP2 MSTORE PUSH1 0x4 ADD PUSH2 0x1ADA SWAP2 SWAP1 PUSH2 0x26D0 JUMP JUMPDEST PUSH1 0x40 MLOAD DUP1 SWAP2 SUB SWAP1 REVERT JUMPDEST POP JUMPDEST DUP1 SWAP2 POP POP PUSH1 0x0 DUP1 PUSH1 0x0 PUSH2 0x100 EXP DUP2 SLOAD DUP2 PUSH1 0xFF MUL NOT AND SWAP1 DUP4 ISZERO ISZERO MUL OR SWAP1 SSTORE POP SWAP4 SWAP3 POP POP POP JUMP JUMPDEST PUSH2 0x1BA0 DUP2 PUSH1 0x40 MLOAD PUSH1 0x24 ADD PUSH2 0x1B1E SWAP2 SWAP1 PUSH2 0x1EA8 JUMP JUMPDEST PUSH1 0x40 MLOAD PUSH1 0x20 DUP2 DUP4 SUB SUB DUP2 MSTORE SWAP1 PUSH1 0x40 MSTORE PUSH32 0xF82C50F100000000000000000000000000000000000000000000000000000000 PUSH28 0xFFFFFFFFFFFFFFFFFFFFFFFFFFFFFFFFFFFFFFFFFFFFFFFFFFFFFFFF NOT AND PUSH1 0x20 DUP3 ADD DUP1 MLOAD PUSH28 0xFFFFFFFFFFFFFFFFFFFFFFFFFFFFFFFFFFFFFFFFFFFFFFFFFFFFFFFF DUP4 DUP2 DUP4 AND OR DUP4 MSTORE POP POP POP POP PUSH2 0x1E45 JUMP JUMPDEST POP JUMP JUMPDEST PUSH1 0x0 DUP1 PUSH1 0xE PUSH1 0x0 DUP7 PUSH20 0xFFFFFFFFFFFFFFFFFFFFFFFFFFFFFFFFFFFFFFFF AND PUSH20 0xFFFFFFFFFFFFFFFFFFFFFFFFFFFFFFFFFFFFFFFF AND DUP2 MSTORE PUSH1 0x20 ADD SWAP1 DUP2 MSTORE PUSH1 0x20 ADD PUSH1 0x0 KECCAK256 PUSH1 0x0 ADD SWAP1 POP DUP1 PUSH1 0x40 MLOAD DUP1 PUSH1 0x60 ADD PUSH1 0x40 MSTORE DUP1 DUP7 DUP2 MSTORE PUSH1 0x20 ADD TIMESTAMP DUP2 MSTORE PUSH1 0x20 ADD DUP6 DUP2 MSTORE POP SWAP1 DUP1 PUSH1 0x1 DUP2 SLOAD ADD DUP1 DUP3 SSTORE DUP1 SWAP2 POP POP PUSH1 0x1 SWAP1 SUB SWAP1 PUSH1 0x0 MSTORE PUSH1 0x20 PUSH1 0x0 KECCAK256 SWAP1 PUSH1 0x3 MUL ADD PUSH1 0x0 SWAP1 SWAP2 SWAP1 SWAP2 SWAP1 SWAP2 POP PUSH1 0x0 DUP3 ADD MLOAD DUP2 PUSH1 0x0 ADD SSTORE PUSH1 0x20 DUP3 ADD MLOAD DUP2 PUSH1 0x1 ADD SSTORE PUSH1 0x40 DUP3 ADD MLOAD DUP2 PUSH1 0x2 ADD SSTORE POP POP PUSH1 0xE PUSH1 0x0 DUP7 PUSH20 0xFFFFFFFFFFFFFFFFFFFFFFFFFFFFFFFFFFFFFFFF AND PUSH20 0xFFFFFFFFFFFFFFFFFFFFFFFFFFFFFFFFFFFFFFFF AND DUP2 MSTORE PUSH1 0x20 ADD SWAP1 DUP2 MSTORE PUSH1 0x20 ADD PUSH1 0x0 KECCAK256 PUSH1 0x1 ADD DUP4 SWAP1 DUP1 PUSH1 0x1 DUP2 SLOAD ADD DUP1 DUP3 SSTORE DUP1 SWAP2 POP POP PUSH1 0x1 SWAP1 SUB SWAP1 PUSH1 0x0 MSTORE PUSH1 0x20 PUSH1 0x0 KECCAK256 ADD PUSH1 0x0 SWAP1 SWAP2 SWAP1 SWAP2 SWAP1 SWAP2 POP SSTORE DUP4 PUSH1 0xD PUSH1 0x0 DUP6 DUP2 MSTORE PUSH1 0x20 ADD SWAP1 DUP2 MSTORE PUSH1 0x20 ADD PUSH1 0x0 KECCAK256 DUP2 SWAP1 SSTORE POP PUSH1 0x1 SWAP2 POP POP SWAP4 SWAP3 POP POP POP JUMP JUMPDEST PUSH1 0x1 DUP2 PUSH1 0x0 ADD PUSH1 0x0 DUP3 DUP3 SLOAD ADD SWAP3 POP POP DUP2 SWAP1 SSTORE POP POP JUMP JUMPDEST PUSH1 0x0 DUP1 PUSH1 0x0 SWAP1 POP PUSH27 0x184F03E93FF9F4DAA797ED6E38ED64BF6A1F010000000000000000 DUP4 LT PUSH2 0x1D50 JUMPI PUSH27 0x184F03E93FF9F4DAA797ED6E38ED64BF6A1F010000000000000000 DUP4 DUP2 PUSH2 0x1D46 JUMPI PUSH2 0x1D45 PUSH2 0x2AA0 JUMP JUMPDEST JUMPDEST DIV SWAP3 POP PUSH1 0x40 DUP2 ADD SWAP1 POP JUMPDEST PUSH14 0x4EE2D6D415B85ACEF8100000000 DUP4 LT PUSH2 0x1D8D JUMPI PUSH14 0x4EE2D6D415B85ACEF8100000000 DUP4 DUP2 PUSH2 0x1D83 JUMPI PUSH2 0x1D82 PUSH2 0x2AA0 JUMP JUMPDEST JUMPDEST DIV SWAP3 POP PUSH1 0x20 DUP2 ADD SWAP1 POP JUMPDEST PUSH7 0x2386F26FC10000 DUP4 LT PUSH2 0x1DBC JUMPI PUSH7 0x2386F26FC10000 DUP4 DUP2 PUSH2 0x1DB2 JUMPI PUSH2 0x1DB1 PUSH2 0x2AA0 JUMP JUMPDEST JUMPDEST DIV SWAP3 POP PUSH1 0x10 DUP2 ADD SWAP1 POP JUMPDEST PUSH4 0x5F5E100 DUP4 LT PUSH2 0x1DE5 JUMPI PUSH4 0x5F5E100 DUP4 DUP2 PUSH2 0x1DDB JUMPI PUSH2 0x1DDA PUSH2 0x2AA0 JUMP JUMPDEST JUMPDEST DIV SWAP3 POP PUSH1 0x8 DUP2 ADD SWAP1 POP JUMPDEST PUSH2 0x2710 DUP4 LT PUSH2 0x1E0A JUMPI PUSH2 0x2710 DUP4 DUP2 PUSH2 0x1E00 JUMPI PUSH2 0x1DFF PUSH2 0x2AA0 JUMP JUMPDEST JUMPDEST DIV SWAP3 POP PUSH1 0x4 DUP2 ADD SWAP1 POP JUMPDEST PUSH1 0x64 DUP4 LT PUSH2 0x1E2D JUMPI PUSH1 0x64 DUP4 DUP2 PUSH2 0x1E23 JUMPI PUSH2 0x1E22 PUSH2 0x2AA0 JUMP JUMPDEST JUMPDEST DIV SWAP3 POP PUSH1 0x2 DUP2 ADD SWAP1 POP JUMPDEST PUSH1 0xA DUP4 LT PUSH2 0x1E3C JUMPI PUSH1 0x1 DUP2 ADD SWAP1 POP JUMPDEST DUP1 SWAP2 POP POP SWAP2 SWAP1 POP JUMP JUMPDEST PUSH1 0x0 PUSH11 0x636F6E736F6C652E6C6F67 SWAP1 POP PUSH1 0x0 DUP1 DUP4 MLOAD PUSH1 0x20 DUP6 ADD DUP5 GAS STATICCALL POP POP POP JUMP JUMPDEST PUSH1 0x0 DUP2 SWAP1 POP SWAP2 SWAP1 POP JUMP JUMPDEST PUSH2 0x1E79 DUP2 PUSH2 0x1E66 JUMP JUMPDEST DUP3 MSTORE POP POP JUMP JUMPDEST PUSH1 0x0 PUSH1 0x40 DUP3 ADD SWAP1 POP PUSH2 0x1E94 PUSH1 0x0 DUP4 ADD DUP6 PUSH2 0x1E70 JUMP JUMPDEST PUSH2 0x1EA1 PUSH1 0x20 DUP4 ADD DUP5 PUSH2 0x1E70 JUMP JUMPDEST SWAP4 SWAP3 POP POP POP JUMP JUMPDEST PUSH1 0x0 PUSH1 0x20 DUP3 ADD SWAP1 POP PUSH2 0x1EBD PUSH1 0x0 DUP4 ADD DUP5 PUSH2 0x1E70 JUMP JUMPDEST SWAP3 SWAP2 POP POP JUMP JUMPDEST PUSH1 0x0 PUSH20 0xFFFFFFFFFFFFFFFFFFFFFFFFFFFFFFFFFFFFFFFF DUP3 AND SWAP1 POP SWAP2 SWAP1 POP JUMP JUMPDEST PUSH1 0x0 DUP2 SWAP1 POP SWAP2 SWAP1 POP JUMP JUMPDEST PUSH1 0x0 PUSH2 0x1F08 PUSH2 0x1F03 PUSH2 0x1EFE DUP5 PUSH2 0x1EC3 JUMP JUMPDEST PUSH2 0x1EE3 JUMP JUMPDEST PUSH2 0x1EC3 JUMP JUMPDEST SWAP1 POP SWAP2 SWAP1 POP JUMP JUMPDEST PUSH1 0x0 PUSH2 0x1F1A DUP3 PUSH2 0x1EED JUMP JUMPDEST SWAP1 POP SWAP2 SWAP1 POP JUMP JUMPDEST PUSH1 0x0 PUSH2 0x1F2C DUP3 PUSH2 0x1F0F JUMP JUMPDEST SWAP1 POP SWAP2 SWAP1 POP JUMP JUMPDEST PUSH2 0x1F3C DUP2 PUSH2 0x1F21 JUMP JUMPDEST DUP3 MSTORE POP POP JUMP JUMPDEST PUSH1 0x0 PUSH1 0x20 DUP3 ADD SWAP1 POP PUSH2 0x1F57 PUSH1 0x0 DUP4 ADD DUP5 PUSH2 0x1F33 JUMP JUMPDEST SWAP3 SWAP2 POP POP JUMP JUMPDEST PUSH1 0x0 PUSH2 0x1F68 DUP3 PUSH2 0x1F0F JUMP JUMPDEST SWAP1 POP SWAP2 SWAP1 POP JUMP JUMPDEST PUSH2 0x1F78 DUP2 PUSH2 0x1F5D JUMP JUMPDEST DUP3 MSTORE POP POP JUMP JUMPDEST PUSH1 0x0 PUSH1 0x20 DUP3 ADD SWAP1 POP PUSH2 0x1F93 PUSH1 0x0 DUP4 ADD DUP5 PUSH2 0x1F6F JUMP JUMPDEST SWAP3 SWAP2 POP POP JUMP JUMPDEST PUSH1 0x0 DUP1 REVERT JUMPDEST PUSH2 0x1FA7 DUP2 PUSH2 0x1E66 JUMP JUMPDEST DUP2 EQ PUSH2 0x1FB2 JUMPI PUSH1 0x0 DUP1 REVERT JUMPDEST POP JUMP JUMPDEST PUSH1 0x0 DUP2 CALLDATALOAD SWAP1 POP PUSH2 0x1FC4 DUP2 PUSH2 0x1F9E JUMP JUMPDEST SWAP3 SWAP2 POP POP JUMP JUMPDEST PUSH1 0x0 PUSH1 0x20 DUP3 DUP5 SUB SLT ISZERO PUSH2 0x1FE0 JUMPI PUSH2 0x1FDF PUSH2 0x1F99 JUMP JUMPDEST JUMPDEST PUSH1 0x0 PUSH2 0x1FEE DUP5 DUP3 DUP6 ADD PUSH2 0x1FB5 JUMP JUMPDEST SWAP2 POP POP SWAP3 SWAP2 POP POP JUMP JUMPDEST PUSH1 0x0 DUP2 ISZERO ISZERO SWAP1 POP SWAP2 SWAP1 POP JUMP JUMPDEST PUSH2 0x200C DUP2 PUSH2 0x1FF7 JUMP JUMPDEST DUP3 MSTORE POP POP JUMP JUMPDEST PUSH1 0x0 PUSH1 0x20 DUP3 ADD SWAP1 POP PUSH2 0x2027 PUSH1 0x0 DUP4 ADD DUP5 PUSH2 0x2003 JUMP JUMPDEST SWAP3 SWAP2 POP POP JUMP JUMPDEST PUSH1 0x0 PUSH2 0x2038 DUP3 PUSH2 0x1EC3 JUMP JUMPDEST SWAP1 POP SWAP2 SWAP1 POP JUMP JUMPDEST PUSH2 0x2048 DUP2 PUSH2 0x202D JUMP JUMPDEST DUP2 EQ PUSH2 0x2053 JUMPI PUSH1 0x0 DUP1 REVERT JUMPDEST POP JUMP JUMPDEST PUSH1 0x0 DUP2 CALLDATALOAD SWAP1 POP PUSH2 0x2065 DUP2 PUSH2 0x203F JUMP JUMPDEST SWAP3 SWAP2 POP POP JUMP JUMPDEST PUSH1 0x0 PUSH1 0x20 DUP3 DUP5 SUB SLT ISZERO PUSH2 0x2081 JUMPI PUSH2 0x2080 PUSH2 0x1F99 JUMP JUMPDEST JUMPDEST PUSH1 0x0 PUSH2 0x208F DUP5 DUP3 DUP6 ADD PUSH2 0x2056 JUMP JUMPDEST SWAP2 POP POP SWAP3 SWAP2 POP POP JUMP JUMPDEST PUSH1 0x0 PUSH2 0x20A3 DUP3 PUSH2 0x1F0F JUMP JUMPDEST SWAP1 POP SWAP2 SWAP1 POP JUMP JUMPDEST PUSH2 0x20B3 DUP2 PUSH2 0x2098 JUMP JUMPDEST DUP3 MSTORE POP POP JUMP JUMPDEST PUSH1 0x0 PUSH1 0x20 DUP3 ADD SWAP1 POP PUSH2 0x20CE PUSH1 0x0 DUP4 ADD DUP5 PUSH2 0x20AA JUMP JUMPDEST SWAP3 SWAP2 POP POP JUMP JUMPDEST PUSH1 0x0 DUP2 MLOAD SWAP1 POP SWAP2 SWAP1 POP JUMP JUMPDEST PUSH1 0x0 DUP3 DUP3 MSTORE PUSH1 0x20 DUP3 ADD SWAP1 POP SWAP3 SWAP2 POP POP JUMP JUMPDEST PUSH1 0x0 DUP2 SWAP1 POP PUSH1 0x20 DUP3 ADD SWAP1 POP SWAP2 SWAP1 POP JUMP JUMPDEST PUSH2 0x2109 DUP2 PUSH2 0x1E66 JUMP JUMPDEST DUP3 MSTORE POP POP JUMP JUMPDEST PUSH1 0x40 DUP3 ADD PUSH1 0x0 DUP3 ADD MLOAD PUSH2 0x2125 PUSH1 0x0 DUP6 ADD DUP3 PUSH2 0x2100 JUMP JUMPDEST POP PUSH1 0x20 DUP3 ADD MLOAD PUSH2 0x2138 PUSH1 0x20 DUP6 ADD DUP3 PUSH2 0x2100 JUMP JUMPDEST POP POP POP POP JUMP JUMPDEST PUSH1 0x0 PUSH2 0x214A DUP4 DUP4 PUSH2 0x210F JUMP JUMPDEST PUSH1 0x40 DUP4 ADD SWAP1 POP SWAP3 SWAP2 POP POP JUMP JUMPDEST PUSH1 0x0 PUSH1 0x20 DUP3 ADD SWAP1 POP SWAP2 SWAP1 POP JUMP JUMPDEST PUSH1 0x0 PUSH2 0x216E DUP3 PUSH2 0x20D4 JUMP JUMPDEST PUSH2 0x2178 DUP2 DUP6 PUSH2 0x20DF JUMP JUMPDEST SWAP4 POP PUSH2 0x2183 DUP4 PUSH2 0x20F0 JUMP JUMPDEST DUP1 PUSH1 0x0 JUMPDEST DUP4 DUP2 LT ISZERO PUSH2 0x21B4 JUMPI DUP2 MLOAD PUSH2 0x219B DUP9 DUP3 PUSH2 0x213E JUMP JUMPDEST SWAP8 POP PUSH2 0x21A6 DUP4 PUSH2 0x2156 JUMP JUMPDEST SWAP3 POP POP PUSH1 0x1 DUP2 ADD SWAP1 POP PUSH2 0x2187 JUMP JUMPDEST POP DUP6 SWAP4 POP POP POP POP SWAP3 SWAP2 POP POP JUMP JUMPDEST PUSH1 0x0 PUSH1 0x20 DUP3 ADD SWAP1 POP DUP2 DUP2 SUB PUSH1 0x0 DUP4 ADD MSTORE PUSH2 0x21DB DUP2 DUP5 PUSH2 0x2163 JUMP JUMPDEST SWAP1 POP SWAP3 SWAP2 POP POP JUMP JUMPDEST PUSH1 0x0 PUSH2 0x21EE DUP3 PUSH2 0x1F0F JUMP JUMPDEST SWAP1 POP SWAP2 SWAP1 POP JUMP JUMPDEST PUSH2 0x21FE DUP2 PUSH2 0x21E3 JUMP JUMPDEST DUP3 MSTORE POP POP JUMP JUMPDEST PUSH1 0x0 PUSH1 0x20 DUP3 ADD SWAP1 POP PUSH2 0x2219 PUSH1 0x0 DUP4 ADD DUP5 PUSH2 0x21F5 JUMP JUMPDEST SWAP3 SWAP2 POP POP JUMP JUMPDEST PUSH1 0x0 DUP1 PUSH1 0x40 DUP4 DUP6 SUB SLT ISZERO PUSH2 0x2236 JUMPI PUSH2 0x2235 PUSH2 0x1F99 JUMP JUMPDEST JUMPDEST PUSH1 0x0 PUSH2 0x2244 DUP6 DUP3 DUP7 ADD PUSH2 0x1FB5 JUMP JUMPDEST SWAP3 POP POP PUSH1 0x20 PUSH2 0x2255 DUP6 DUP3 DUP7 ADD PUSH2 0x1FB5 JUMP JUMPDEST SWAP2 POP POP SWAP3 POP SWAP3 SWAP1 POP JUMP JUMPDEST PUSH2 0x2268 DUP2 PUSH2 0x202D JUMP JUMPDEST DUP3 MSTORE POP POP JUMP JUMPDEST PUSH1 0x0 PUSH1 0x20 DUP3 ADD SWAP1 POP PUSH2 0x2283 PUSH1 0x0 DUP4 ADD DUP5 PUSH2 0x225F JUMP JUMPDEST SWAP3 SWAP2 POP POP JUMP JUMPDEST PUSH2 0x2292 DUP2 PUSH2 0x1FF7 JUMP JUMPDEST DUP2 EQ PUSH2 0x229D JUMPI PUSH1 0x0 DUP1 REVERT JUMPDEST POP JUMP JUMPDEST PUSH1 0x0 DUP2 CALLDATALOAD SWAP1 POP PUSH2 0x22AF DUP2 PUSH2 0x2289 JUMP JUMPDEST SWAP3 SWAP2 POP POP JUMP JUMPDEST PUSH1 0x0 PUSH1 0x20 DUP3 DUP5 SUB SLT ISZERO PUSH2 0x22CB JUMPI PUSH2 0x22CA PUSH2 0x1F99 JUMP JUMPDEST JUMPDEST PUSH1 0x0 PUSH2 0x22D9 DUP5 DUP3 DUP6 ADD PUSH2 0x22A0 JUMP JUMPDEST SWAP2 POP POP SWAP3 SWAP2 POP POP JUMP JUMPDEST PUSH1 0x0 DUP1 PUSH1 0x40 DUP4 DUP6 SUB SLT ISZERO PUSH2 0x22F9 JUMPI PUSH2 0x22F8 PUSH2 0x1F99 JUMP JUMPDEST JUMPDEST PUSH1 0x0 PUSH2 0x2307 DUP6 DUP3 DUP7 ADD PUSH2 0x2056 JUMP JUMPDEST SWAP3 POP POP PUSH1 0x20 PUSH2 0x2318 DUP6 DUP3 DUP7 ADD PUSH2 0x1FB5 JUMP JUMPDEST SWAP2 POP POP SWAP3 POP SWAP3 SWAP1 POP JUMP JUMPDEST PUSH1 0x0 PUSH2 0x232D DUP3 PUSH2 0x1F0F JUMP JUMPDEST SWAP1 POP SWAP2 SWAP1 POP JUMP JUMPDEST PUSH2 0x233D DUP2 PUSH2 0x2322 JUMP JUMPDEST DUP3 MSTORE POP POP JUMP JUMPDEST PUSH1 0x0 PUSH1 0x20 DUP3 ADD SWAP1 POP PUSH2 0x2358 PUSH1 0x0 DUP4 ADD DUP5 PUSH2 0x2334 JUMP JUMPDEST SWAP3 SWAP2 POP POP JUMP JUMPDEST PUSH1 0x0 PUSH2 0x2369 DUP3 PUSH2 0x1F0F JUMP JUMPDEST SWAP1 POP SWAP2 SWAP1 POP JUMP JUMPDEST PUSH2 0x2379 DUP2 PUSH2 0x235E JUMP JUMPDEST DUP3 MSTORE POP POP JUMP JUMPDEST PUSH1 0x0 PUSH1 0x20 DUP3 ADD SWAP1 POP PUSH2 0x2394 PUSH1 0x0 DUP4 ADD DUP5 PUSH2 0x2370 JUMP JUMPDEST SWAP3 SWAP2 POP POP JUMP JUMPDEST PUSH1 0x0 PUSH1 0x40 DUP3 ADD SWAP1 POP PUSH2 0x23AF PUSH1 0x0 DUP4 ADD DUP6 PUSH2 0x1E70 JUMP JUMPDEST PUSH2 0x23BC PUSH1 0x20 DUP4 ADD DUP5 PUSH2 0x225F JUMP JUMPDEST SWAP4 SWAP3 POP POP POP JUMP JUMPDEST PUSH1 0x0 DUP3 DUP3 MSTORE PUSH1 0x20 DUP3 ADD SWAP1 POP SWAP3 SWAP2 POP POP JUMP JUMPDEST PUSH32 0x4E6F205265456E7472616E637900000000000000000000000000000000000000 PUSH1 0x0 DUP3 ADD MSTORE POP JUMP JUMPDEST PUSH1 0x0 PUSH2 0x240A PUSH1 0xD DUP4 PUSH2 0x23C3 JUMP JUMPDEST SWAP2 POP PUSH2 0x2415 DUP3 PUSH2 0x23D4 JUMP JUMPDEST PUSH1 0x20 DUP3 ADD SWAP1 POP SWAP2 SWAP1 POP JUMP JUMPDEST PUSH1 0x0 PUSH1 0x20 DUP3 ADD SWAP1 POP DUP2 DUP2 SUB PUSH1 0x0 DUP4 ADD MSTORE PUSH2 0x2439 DUP2 PUSH2 0x23FD JUMP JUMPDEST SWAP1 POP SWAP2 SWAP1 POP JUMP JUMPDEST PUSH32 0x4572726F7220696E204D616B652051564520657363726F77656420616E642056 PUSH1 0x0 DUP3 ADD MSTORE PUSH32 0x657374696E670000000000000000000000000000000000000000000000000000 PUSH1 0x20 DUP3 ADD MSTORE POP JUMP JUMPDEST PUSH1 0x0 PUSH2 0x249C PUSH1 0x26 DUP4 PUSH2 0x23C3 JUMP JUMPDEST SWAP2 POP PUSH2 0x24A7 DUP3 PUSH2 0x2440 JUMP JUMPDEST PUSH1 0x40 DUP3 ADD SWAP1 POP SWAP2 SWAP1 POP JUMP JUMPDEST PUSH1 0x0 PUSH1 0x20 DUP3 ADD SWAP1 POP DUP2 DUP2 SUB PUSH1 0x0 DUP4 ADD MSTORE PUSH2 0x24CB DUP2 PUSH2 0x248F JUMP JUMPDEST SWAP1 POP SWAP2 SWAP1 POP JUMP JUMPDEST PUSH1 0x0 PUSH1 0xFF DUP3 AND SWAP1 POP SWAP2 SWAP1 POP JUMP JUMPDEST PUSH32 0x4E487B7100000000000000000000000000000000000000000000000000000000 PUSH1 0x0 MSTORE PUSH1 0x11 PUSH1 0x4 MSTORE PUSH1 0x24 PUSH1 0x0 REVERT JUMPDEST PUSH1 0x0 PUSH2 0x2519 DUP3 PUSH2 0x24D2 JUMP JUMPDEST SWAP2 POP PUSH2 0x2524 DUP4 PUSH2 0x24D2 JUMP JUMPDEST SWAP3 POP DUP3 DUP3 SUB SWAP1 POP PUSH1 0xFF DUP2 GT ISZERO PUSH2 0x253D JUMPI PUSH2 0x253C PUSH2 0x24DF JUMP JUMPDEST JUMPDEST SWAP3 SWAP2 POP POP JUMP JUMPDEST PUSH1 0x0 PUSH1 0x40 DUP3 ADD SWAP1 POP PUSH2 0x2558 PUSH1 0x0 DUP4 ADD DUP6 PUSH2 0x225F JUMP JUMPDEST PUSH2 0x2565 PUSH1 0x20 DUP4 ADD DUP5 PUSH2 0x1E70 JUMP JUMPDEST SWAP4 SWAP3 POP POP POP JUMP JUMPDEST PUSH1 0x0 DUP2 MLOAD SWAP1 POP PUSH2 0x257B DUP2 PUSH2 0x2289 JUMP JUMPDEST SWAP3 SWAP2 POP POP JUMP JUMPDEST PUSH1 0x0 PUSH1 0x20 DUP3 DUP5 SUB SLT ISZERO PUSH2 0x2597 JUMPI PUSH2 0x2596 PUSH2 0x1F99 JUMP JUMPDEST JUMPDEST PUSH1 0x0 PUSH2 0x25A5 DUP5 DUP3 DUP6 ADD PUSH2 0x256C JUMP JUMPDEST SWAP2 POP POP SWAP3 SWAP2 POP POP JUMP JUMPDEST PUSH32 0x4572726F7220696E20515645207374616B696E67000000000000000000000000 PUSH1 0x0 DUP3 ADD MSTORE POP JUMP JUMPDEST PUSH1 0x0 PUSH2 0x25E4 PUSH1 0x14 DUP4 PUSH2 0x23C3 JUMP JUMPDEST SWAP2 POP PUSH2 0x25EF DUP3 PUSH2 0x25AE JUMP JUMPDEST PUSH1 0x20 DUP3 ADD SWAP1 POP SWAP2 SWAP1 POP JUMP JUMPDEST PUSH1 0x0 PUSH1 0x20 DUP3 ADD SWAP1 POP DUP2 DUP2 SUB PUSH1 0x0 DUP4 ADD MSTORE PUSH2 0x2613 DUP2 PUSH2 0x25D7 JUMP JUMPDEST SWAP1 POP SWAP2 SWAP1 POP JUMP JUMPDEST PUSH1 0x0 PUSH1 0x60 DUP3 ADD SWAP1 POP PUSH2 0x262F PUSH1 0x0 DUP4 ADD DUP7 PUSH2 0x1E70 JUMP JUMPDEST PUSH2 0x263C PUSH1 0x20 DUP4 ADD DUP6 PUSH2 0x225F JUMP JUMPDEST PUSH2 0x2649 PUSH1 0x40 DUP4 ADD DUP5 PUSH2 0x1E70 JUMP JUMPDEST SWAP5 SWAP4 POP POP POP POP JUMP JUMPDEST PUSH1 0x0 DUP2 MLOAD SWAP1 POP SWAP2 SWAP1 POP JUMP JUMPDEST PUSH1 0x0 JUMPDEST DUP4 DUP2 LT ISZERO PUSH2 0x267A JUMPI DUP1 DUP3 ADD MLOAD DUP2 DUP5 ADD MSTORE PUSH1 0x20 DUP2 ADD SWAP1 POP PUSH2 0x265F JUMP JUMPDEST PUSH1 0x0 DUP5 DUP5 ADD MSTORE POP POP POP POP JUMP JUMPDEST PUSH1 0x0 PUSH1 0x1F NOT PUSH1 0x1F DUP4 ADD AND SWAP1 POP SWAP2 SWAP1 POP JUMP JUMPDEST PUSH1 0x0 PUSH2 0x26A2 DUP3 PUSH2 0x2651 JUMP JUMPDEST PUSH2 0x26AC DUP2 DUP6 PUSH2 0x23C3 JUMP JUMPDEST SWAP4 POP PUSH2 0x26BC DUP2 DUP6 PUSH1 0x20 DUP7 ADD PUSH2 0x265C JUMP JUMPDEST PUSH2 0x26C5 DUP2 PUSH2 0x2686 JUMP JUMPDEST DUP5 ADD SWAP2 POP POP SWAP3 SWAP2 POP POP JUMP JUMPDEST PUSH1 0x0 PUSH1 0x20 DUP3 ADD SWAP1 POP DUP2 DUP2 SUB PUSH1 0x0 DUP4 ADD MSTORE PUSH2 0x26EA DUP2 DUP5 PUSH2 0x2697 JUMP JUMPDEST SWAP1 POP SWAP3 SWAP2 POP POP JUMP JUMPDEST PUSH1 0x0 DUP2 MLOAD SWAP1 POP PUSH2 0x2701 DUP2 PUSH2 0x1F9E JUMP JUMPDEST SWAP3 SWAP2 POP POP JUMP JUMPDEST PUSH1 0x0 PUSH1 0x20 DUP3 DUP5 SUB SLT ISZERO PUSH2 0x271D JUMPI PUSH2 0x271C PUSH2 0x1F99 JUMP JUMPDEST JUMPDEST PUSH1 0x0 PUSH2 0x272B DUP5 DUP3 DUP6 ADD PUSH2 0x26F2 JUMP JUMPDEST SWAP2 POP POP SWAP3 SWAP2 POP POP JUMP JUMPDEST PUSH1 0x0 DUP2 SWAP1 POP SWAP3 SWAP2 POP POP JUMP JUMPDEST PUSH32 0x4D617267696E203A200000000000000000000000000000000000000000000000 PUSH1 0x0 DUP3 ADD MSTORE POP JUMP JUMPDEST PUSH1 0x0 PUSH2 0x2775 PUSH1 0x9 DUP4 PUSH2 0x2734 JUMP JUMPDEST SWAP2 POP PUSH2 0x2780 DUP3 PUSH2 0x273F JUMP JUMPDEST PUSH1 0x9 DUP3 ADD SWAP1 POP SWAP2 SWAP1 POP JUMP JUMPDEST PUSH1 0x0 PUSH2 0x2796 DUP3 PUSH2 0x2651 JUMP JUMPDEST PUSH2 0x27A0 DUP2 DUP6 PUSH2 0x2734 JUMP JUMPDEST SWAP4 POP PUSH2 0x27B0 DUP2 DUP6 PUSH1 0x20 DUP7 ADD PUSH2 0x265C JUMP JUMPDEST DUP1 DUP5 ADD SWAP2 POP POP SWAP3 SWAP2 POP POP JUMP JUMPDEST PUSH32 0x5745490000000000000000000000000000000000000000000000000000000000 PUSH1 0x0 DUP3 ADD MSTORE POP JUMP JUMPDEST PUSH1 0x0 PUSH2 0x27F2 PUSH1 0x3 DUP4 PUSH2 0x2734 JUMP JUMPDEST SWAP2 POP PUSH2 0x27FD DUP3 PUSH2 0x27BC JUMP JUMPDEST PUSH1 0x3 DUP3 ADD SWAP1 POP SWAP2 SWAP1 POP JUMP JUMPDEST PUSH1 0x0 PUSH2 0x2813 DUP3 PUSH2 0x2768 JUMP JUMPDEST SWAP2 POP PUSH2 0x281F DUP3 DUP5 PUSH2 0x278B JUMP JUMPDEST SWAP2 POP PUSH2 0x282A DUP3 PUSH2 0x27E5 JUMP JUMPDEST SWAP2 POP DUP2 SWAP1 POP SWAP3 SWAP2 POP POP JUMP JUMPDEST PUSH32 0x5374616B696E672047756172616E746565204361726400000000000000000000 PUSH1 0x0 DUP3 ADD MSTORE POP JUMP JUMPDEST PUSH1 0x0 PUSH2 0x286B PUSH1 0x16 DUP4 PUSH2 0x23C3 JUMP JUMPDEST SWAP2 POP PUSH2 0x2876 DUP3 PUSH2 0x2835 JUMP JUMPDEST PUSH1 0x20 DUP3 ADD SWAP1 POP SWAP2 SWAP1 POP JUMP JUMPDEST PUSH32 0x68747470733A2F2F697066732E696F2F697066732F516D5155756D7138695963 PUSH1 0x0 DUP3 ADD MSTORE PUSH32 0x41395838756F61664D325955384C6579794D4B7A554E32484635464770364E70 PUSH1 0x20 DUP3 ADD MSTORE PUSH32 0x5845563F66696C656E616D653D47726F7570253230343538342E6A7067000000 PUSH1 0x40 DUP3 ADD MSTORE POP JUMP JUMPDEST PUSH1 0x0 PUSH2 0x2903 PUSH1 0x5D DUP4 PUSH2 0x23C3 JUMP JUMPDEST SWAP2 POP PUSH2 0x290E DUP3 PUSH2 0x2881 JUMP JUMPDEST PUSH1 0x60 DUP3 ADD SWAP1 POP SWAP2 SWAP1 POP JUMP JUMPDEST PUSH1 0x0 PUSH1 0x60 DUP3 ADD SWAP1 POP DUP2 DUP2 SUB PUSH1 0x0 DUP4 ADD MSTORE PUSH2 0x2932 DUP2 PUSH2 0x285E JUMP JUMPDEST SWAP1 POP DUP2 DUP2 SUB PUSH1 0x20 DUP4 ADD MSTORE PUSH2 0x2946 DUP2 DUP5 PUSH2 0x2697 JUMP JUMPDEST SWAP1 POP DUP2 DUP2 SUB PUSH1 0x40 DUP4 ADD MSTORE PUSH2 0x2959 DUP2 PUSH2 0x28F6 JUMP JUMPDEST SWAP1 POP SWAP3 SWAP2 POP POP JUMP JUMPDEST PUSH1 0x0 PUSH1 0x60 DUP3 ADD SWAP1 POP PUSH2 0x2976 PUSH1 0x0 DUP4 ADD DUP7 PUSH2 0x225F JUMP JUMPDEST PUSH2 0x2983 PUSH1 0x20 DUP4 ADD DUP6 PUSH2 0x225F JUMP JUMPDEST PUSH2 0x2990 PUSH1 0x40 DUP4 ADD DUP5 PUSH2 0x1E70 JUMP JUMPDEST SWAP5 SWAP4 POP POP POP POP JUMP JUMPDEST PUSH1 0x0 PUSH2 0x29A3 DUP3 PUSH2 0x1E66 JUMP JUMPDEST SWAP2 POP PUSH2 0x29AE DUP4 PUSH2 0x1E66 JUMP JUMPDEST SWAP3 POP DUP3 DUP3 SUB SWAP1 POP DUP2 DUP2 GT ISZERO PUSH2 0x29C6 JUMPI PUSH2 0x29C5 PUSH2 0x24DF JUMP JUMPDEST JUMPDEST SWAP3 SWAP2 POP POP JUMP JUMPDEST PUSH32 0x4F776E61626C653A206E6577206F776E657220697320746865207A65726F2061 PUSH1 0x0 DUP3 ADD MSTORE PUSH32 0x6464726573730000000000000000000000000000000000000000000000000000 PUSH1 0x20 DUP3 ADD MSTORE POP JUMP JUMPDEST PUSH1 0x0 PUSH2 0x2A28 PUSH1 0x26 DUP4 PUSH2 0x23C3 JUMP JUMPDEST SWAP2 POP PUSH2 0x2A33 DUP3 PUSH2 0x29CC JUMP JUMPDEST PUSH1 0x40 DUP3 ADD SWAP1 POP SWAP2 SWAP1 POP JUMP JUMPDEST PUSH1 0x0 PUSH1 0x20 DUP3 ADD SWAP1 POP DUP2 DUP2 SUB PUSH1 0x0 DUP4 ADD MSTORE PUSH2 0x2A57 DUP2 PUSH2 0x2A1B JUMP JUMPDEST SWAP1 POP SWAP2 SWAP1 POP JUMP JUMPDEST PUSH1 0x0 PUSH2 0x2A69 DUP3 PUSH2 0x1E66 JUMP JUMPDEST SWAP2 POP PUSH2 0x2A74 DUP4 PUSH2 0x1E66 JUMP JUMPDEST SWAP3 POP DUP3 DUP3 MUL PUSH2 0x2A82 DUP2 PUSH2 0x1E66 JUMP JUMPDEST SWAP2 POP DUP3 DUP3 DIV DUP5 EQ DUP4 ISZERO OR PUSH2 0x2A99 JUMPI PUSH2 0x2A98 PUSH2 0x24DF JUMP JUMPDEST JUMPDEST POP SWAP3 SWAP2 POP POP JUMP JUMPDEST PUSH32 0x4E487B7100000000000000000000000000000000000000000000000000000000 PUSH1 0x0 MSTORE PUSH1 0x12 PUSH1 0x4 MSTORE PUSH1 0x24 PUSH1 0x0 REVERT JUMPDEST PUSH1 0x0 PUSH2 0x2ADA DUP3 PUSH2 0x1E66 JUMP JUMPDEST SWAP2 POP PUSH2 0x2AE5 DUP4 PUSH2 0x1E66 JUMP JUMPDEST SWAP3 POP DUP3 PUSH2 0x2AF5 JUMPI PUSH2 0x2AF4 PUSH2 0x2AA0 JUMP JUMPDEST JUMPDEST DUP3 DUP3 DIV SWAP1 POP SWAP3 SWAP2 POP POP JUMP JUMPDEST PUSH32 0x4F776E61626C653A2063616C6C6572206973206E6F7420746865206F776E6572 PUSH1 0x0 DUP3 ADD MSTORE POP JUMP JUMPDEST PUSH1 0x0 PUSH2 0x2B36 PUSH1 0x20 DUP4 PUSH2 0x23C3 JUMP JUMPDEST SWAP2 POP PUSH2 0x2B41 DUP3 PUSH2 0x2B00 JUMP JUMPDEST PUSH1 0x20 DUP3 ADD SWAP1 POP SWAP2 SWAP1 POP JUMP JUMPDEST PUSH1 0x0 PUSH1 0x20 DUP3 ADD SWAP1 POP DUP2 DUP2 SUB PUSH1 0x0 DUP4 ADD MSTORE PUSH2 0x2B65 DUP2 PUSH2 0x2B29 JUMP JUMPDEST SWAP1 POP SWAP2 SWAP1 POP JUMP JUMPDEST PUSH1 0x0 PUSH2 0x2B77 DUP3 PUSH2 0x1E66 JUMP JUMPDEST SWAP2 POP PUSH2 0x2B82 DUP4 PUSH2 0x1E66 JUMP JUMPDEST SWAP3 POP DUP3 DUP3 ADD SWAP1 POP DUP1 DUP3 GT ISZERO PUSH2 0x2B9A JUMPI PUSH2 0x2B99 PUSH2 0x24DF JUMP JUMPDEST JUMPDEST SWAP3 SWAP2 POP POP JUMP JUMPDEST PUSH32 0x4E487B7100000000000000000000000000000000000000000000000000000000 PUSH1 0x0 MSTORE PUSH1 0x41 PUSH1 0x4 MSTORE PUSH1 0x24 PUSH1 0x0 REVERT JUMPDEST PUSH1 0x0 PUSH1 0x40 DUP3 ADD SWAP1 POP PUSH2 0x2BE4 PUSH1 0x0 DUP4 ADD DUP6 PUSH2 0x225F JUMP JUMPDEST PUSH2 0x2BF1 PUSH1 0x20 DUP4 ADD DUP5 PUSH2 0x2003 JUMP JUMPDEST SWAP4 SWAP3 POP POP POP JUMP INVALID LOG2 PUSH5 0x6970667358 0x22 SLT KECCAK256 0xE5 0xC6 ISZERO 0xDB 0xE3 JUMPI SIGNEXTEND LOG3 SWAP2 0xC REVERT 0xCC 0xD0 DUP16 DUP5 0xA6 MLOAD 0xEF 0xCA BASEFEE PUSH8 0xE86E512E885E4C09 SWAP12 0xE9 0xD6 PUSH5 0x736F6C6343 STOP ADDMOD SLT STOP CALLER "
		},
		"gasEstimates": {
			"creation": {
				"codeDepositCost": "2262000",
				"executionCost": "infinite",
				"totalCost": "infinite"
			},
			"external": {
				"QVEliquidityPool()": "infinite",
				"_sendQVEFromLiquidity(address,uint256)": "infinite",
				"burnStakingGuarantee(uint256)": "infinite",
				"doQVEStake(uint256)": "infinite",
				"esQVEliquidityPool()": "infinite",
				"getEthBalance(address)": "3302",
				"getInputedMarginCount()": "2553",
				"getNFTbalance_()": "infinite",
				"getNfts_()": "infinite",
				"getQVELiquidityAmount_()": "2511",
				"owner()": "2661",
				"qveEscrow()": "infinite",
				"qveStaking()": "infinite",
				"qveSwap()": "infinite",
				"qveVesting()": "infinite",
				"qvenft()": "infinite",
				"qvetoken()": "infinite",
				"receiveAsset(bool)": "infinite",
				"renounceOwnership()": "30571",
				"shortenLockup(uint256,uint256)": "infinite",
				"swapETHtoQVE(uint256)": "infinite",
				"swapQVEtoETH(uint256)": "infinite",
				"transferOwnership(address)": "30960"
			},
			"internal": {
				"_addLiquidity(uint256)": "infinite",
				"_addUserMarginVault(address,uint256,uint256)": "infinite",
				"_botAddress()": "infinite",
				"_issueGuaranteeNFT(address,uint256,bool)": "infinite",
				"_makeQVEescrowedAndVesting(address,uint256)": "infinite",
				"_subLiquidity(uint256)": "infinite",
				"investmentEth(uint256,bool)": "infinite"
			}
		},
		"methodIdentifiers": {
			"QVEliquidityPool()": "0e301d24",
			"_sendQVEFromLiquidity(address,uint256)": "d08b8d6a",
			"burnStakingGuarantee(uint256)": "f366b27e",
			"doQVEStake(uint256)": "56289c29",
			"esQVEliquidityPool()": "0691badf",
			"getEthBalance(address)": "4d2301cc",
			"getInputedMarginCount()": "8866b937",
			"getNFTbalance_()": "9f62e796",
			"getNfts_()": "5ac66993",
			"getQVELiquidityAmount_()": "1552e770",
			"owner()": "8da5cb5b",
			"qveEscrow()": "fdcdbae2",
			"qveStaking()": "2adcbebd",
			"qveSwap()": "69394135",
			"qveVesting()": "f968217b",
			"qvenft()": "510b7f98",
			"qvetoken()": "2b1c4158",
			"receiveAsset(bool)": "c699ab39",
			"renounceOwnership()": "715018a6",
			"shortenLockup(uint256,uint256)": "83ce6147",
			"swapETHtoQVE(uint256)": "eff8c547",
			"swapQVEtoETH(uint256)": "2e64b7d4",
			"transferOwnership(address)": "f2fde38b"
		}
	},
	"abi": [
		{
			"inputs": [
				{
					"internalType": "contract QVEtoken",
					"name": "_qveTokenAddress",
					"type": "address"
				},
				{
					"internalType": "contract QVEnft",
					"name": "_qvenft",
					"type": "address"
				},
				{
					"internalType": "contract QVEescrow",
					"name": "_qveEscrow",
					"type": "address"
				},
				{
					"internalType": "contract QVEvesting",
					"name": "_qveVesting",
					"type": "address"
				},
				{
					"internalType": "contract QVEstaking",
					"name": "_qveStaking",
					"type": "address"
				},
				{
					"internalType": "contract QVEswap",
					"name": "_qveSwap",
					"type": "address"
				}
			],
			"stateMutability": "nonpayable",
			"type": "constructor"
		},
		{
			"anonymous": false,
			"inputs": [
				{
					"indexed": true,
					"internalType": "address",
					"name": "previousOwner",
					"type": "address"
				},
				{
					"indexed": true,
					"internalType": "address",
					"name": "newOwner",
					"type": "address"
				}
			],
			"name": "OwnershipTransferred",
			"type": "event"
		},
		{
			"inputs": [],
			"name": "QVEliquidityPool",
			"outputs": [
				{
					"internalType": "uint256",
					"name": "balance",
					"type": "uint256"
				},
				{
					"internalType": "uint256",
					"name": "at",
					"type": "uint256"
				}
			],
			"stateMutability": "view",
			"type": "function"
		},
		{
			"inputs": [
				{
					"internalType": "address",
					"name": "_to",
					"type": "address"
				},
				{
					"internalType": "uint256",
					"name": "sendAmount",
					"type": "uint256"
				}
			],
			"name": "_sendQVEFromLiquidity",
			"outputs": [
				{
					"internalType": "bool",
					"name": "",
					"type": "bool"
				}
			],
			"stateMutability": "nonpayable",
			"type": "function"
		},
		{
			"inputs": [
				{
					"internalType": "uint256",
					"name": "tokenId",
					"type": "uint256"
				}
			],
			"name": "burnStakingGuarantee",
			"outputs": [
				{
					"internalType": "bool",
					"name": "",
					"type": "bool"
				}
			],
			"stateMutability": "nonpayable",
			"type": "function"
		},
		{
			"inputs": [
				{
					"internalType": "uint256",
					"name": "qveStakeAmount",
					"type": "uint256"
				}
			],
			"name": "doQVEStake",
			"outputs": [
				{
					"internalType": "bool",
					"name": "",
					"type": "bool"
				}
			],
			"stateMutability": "nonpayable",
			"type": "function"
		},
		{
			"inputs": [],
			"name": "esQVEliquidityPool",
			"outputs": [
				{
					"internalType": "uint256",
					"name": "balance",
					"type": "uint256"
				},
				{
					"internalType": "uint256",
					"name": "at",
					"type": "uint256"
				}
			],
			"stateMutability": "view",
			"type": "function"
		},
		{
			"inputs": [
				{
					"internalType": "address",
					"name": "_address",
					"type": "address"
				}
			],
			"name": "getEthBalance",
			"outputs": [
				{
					"internalType": "uint256",
					"name": "",
					"type": "uint256"
				}
			],
			"stateMutability": "view",
			"type": "function"
		},
		{
			"inputs": [],
			"name": "getInputedMarginCount",
			"outputs": [
				{
					"internalType": "uint256",
					"name": "",
					"type": "uint256"
				}
			],
			"stateMutability": "view",
			"type": "function"
		},
		{
			"inputs": [],
			"name": "getNFTbalance_",
			"outputs": [
				{
					"internalType": "uint256",
					"name": "",
					"type": "uint256"
				}
			],
			"stateMutability": "view",
			"type": "function"
		},
		{
			"inputs": [],
			"name": "getNfts_",
			"outputs": [
				{
					"components": [
						{
							"internalType": "uint256",
							"name": "tokenId",
							"type": "uint256"
						},
						{
							"internalType": "uint256",
							"name": "at",
							"type": "uint256"
						}
					],
					"internalType": "struct QVEcore.NFTFragment[]",
					"name": "",
					"type": "tuple[]"
				}
			],
			"stateMutability": "view",
			"type": "function"
		},
		{
			"inputs": [],
			"name": "getQVELiquidityAmount_",
			"outputs": [
				{
					"internalType": "uint256",
					"name": "",
					"type": "uint256"
				}
			],
			"stateMutability": "view",
			"type": "function"
		},
		{
			"inputs": [],
			"name": "owner",
			"outputs": [
				{
					"internalType": "address",
					"name": "",
					"type": "address"
				}
			],
			"stateMutability": "view",
			"type": "function"
		},
		{
			"inputs": [],
			"name": "qveEscrow",
			"outputs": [
				{
					"internalType": "contract QVEescrow",
					"name": "",
					"type": "address"
				}
			],
			"stateMutability": "view",
			"type": "function"
		},
		{
			"inputs": [],
			"name": "qveStaking",
			"outputs": [
				{
					"internalType": "contract QVEstaking",
					"name": "",
					"type": "address"
				}
			],
			"stateMutability": "view",
			"type": "function"
		},
		{
			"inputs": [],
			"name": "qveSwap",
			"outputs": [
				{
					"internalType": "contract QVEswap",
					"name": "",
					"type": "address"
				}
			],
			"stateMutability": "view",
			"type": "function"
		},
		{
			"inputs": [],
			"name": "qveVesting",
			"outputs": [
				{
					"internalType": "contract QVEvesting",
					"name": "",
					"type": "address"
				}
			],
			"stateMutability": "view",
			"type": "function"
		},
		{
			"inputs": [],
			"name": "qvenft",
			"outputs": [
				{
					"internalType": "contract QVEnft",
					"name": "",
					"type": "address"
				}
			],
			"stateMutability": "view",
			"type": "function"
		},
		{
			"inputs": [],
			"name": "qvetoken",
			"outputs": [
				{
					"internalType": "contract QVEtoken",
					"name": "",
					"type": "address"
				}
			],
			"stateMutability": "view",
			"type": "function"
		},
		{
			"inputs": [
				{
					"internalType": "bool",
					"name": "lockup",
					"type": "bool"
				}
			],
			"name": "receiveAsset",
			"outputs": [
				{
					"internalType": "bool",
					"name": "",
					"type": "bool"
				}
			],
			"stateMutability": "payable",
			"type": "function"
		},
		{
			"inputs": [],
			"name": "renounceOwnership",
			"outputs": [],
			"stateMutability": "nonpayable",
			"type": "function"
		},
		{
			"inputs": [
				{
					"internalType": "uint256",
					"name": "qveAmount",
					"type": "uint256"
				},
				{
					"internalType": "uint256",
					"name": "tokenId",
					"type": "uint256"
				}
			],
			"name": "shortenLockup",
			"outputs": [
				{
					"internalType": "bool",
					"name": "",
					"type": "bool"
				}
			],
			"stateMutability": "nonpayable",
			"type": "function"
		},
		{
			"inputs": [
				{
					"internalType": "uint256",
					"name": "tokenAmount",
					"type": "uint256"
				}
			],
			"name": "swapETHtoQVE",
			"outputs": [
				{
					"internalType": "bool",
					"name": "",
					"type": "bool"
				}
			],
			"stateMutability": "nonpayable",
			"type": "function"
		},
		{
			"inputs": [
				{
					"internalType": "uint256",
					"name": "tokenAmount",
					"type": "uint256"
				}
			],
			"name": "swapQVEtoETH",
			"outputs": [
				{
					"internalType": "bool",
					"name": "",
					"type": "bool"
				}
			],
			"stateMutability": "nonpayable",
			"type": "function"
		},
		{
			"inputs": [
				{
					"internalType": "address",
					"name": "newOwner",
					"type": "address"
				}
			],
			"name": "transferOwnership",
			"outputs": [],
			"stateMutability": "nonpayable",
			"type": "function"
		}
	]
}