{
	"data": {
		"bytecode": {
			"linkReferences": {},
			"object": "608060405234801562000010575f80fd5b50604051620016223803806200162283398181016040528101906200003691906200046f565b620000566200004a620002ed60201b60201c565b620002f460201b60201c565b8160025f6101000a81548173ffffffffffffffffffffffffffffffffffffffff021916908373ffffffffffffffffffffffffffffffffffffffff1602179055508060035f6101000a81548173ffffffffffffffffffffffffffffffffffffffff021916908373ffffffffffffffffffffffffffffffffffffffff16021790555060025f9054906101000a900473ffffffffffffffffffffffffffffffffffffffff1673ffffffffffffffffffffffffffffffffffffffff1663469895c833306002805f9054906101000a900473ffffffffffffffffffffffffffffffffffffffff1673ffffffffffffffffffffffffffffffffffffffff166318160ddd6040518163ffffffff1660e01b8152600401602060405180830381865afa15801562000181573d5f803e3d5ffd5b505050506040513d601f19601f82011682018060405250810190620001a79190620004ec565b620001b3919062000576565b6040518463ffffffff1660e01b8152600401620001d393929190620005cf565b6020604051808303815f875af1158015620001f0573d5f803e3d5ffd5b505050506040513d601f19601f8201168201806040525081019062000216919062000644565b50670de0b6b3a764000060025f9054906101000a900473ffffffffffffffffffffffffffffffffffffffff1673ffffffffffffffffffffffffffffffffffffffff166370a08231306040518263ffffffff1660e01b81526004016200027c919062000674565b602060405180830381865afa15801562000298573d5f803e3d5ffd5b505050506040513d601f19601f82011682018060405250810190620002be9190620004ec565b620002ca919062000576565b60045f015f828254620002de91906200068f565b925050819055505050620006c9565b5f33905090565b5f805f9054906101000a900473ffffffffffffffffffffffffffffffffffffffff169050815f806101000a81548173ffffffffffffffffffffffffffffffffffffffff021916908373ffffffffffffffffffffffffffffffffffffffff1602179055508173ffffffffffffffffffffffffffffffffffffffff168173ffffffffffffffffffffffffffffffffffffffff167f8be0079c531659141344cd1fd0a4f28419497f9722a3daafe3b4186f6b6457e060405160405180910390a35050565b5f80fd5b5f73ffffffffffffffffffffffffffffffffffffffff82169050919050565b5f620003e482620003b9565b9050919050565b5f620003f782620003d8565b9050919050565b6200040981620003eb565b811462000414575f80fd5b50565b5f815190506200042781620003fe565b92915050565b5f6200043982620003d8565b9050919050565b6200044b816200042d565b811462000456575f80fd5b50565b5f81519050620004698162000440565b92915050565b5f8060408385031215620004885762000487620003b5565b5b5f620004978582860162000417565b9250506020620004aa8582860162000459565b9150509250929050565b5f819050919050565b620004c881620004b4565b8114620004d3575f80fd5b50565b5f81519050620004e681620004bd565b92915050565b5f60208284031215620005045762000503620003b5565b5b5f6200051384828501620004d6565b91505092915050565b7f4e487b71000000000000000000000000000000000000000000000000000000005f52601260045260245ffd5b7f4e487b71000000000000000000000000000000000000000000000000000000005f52601160045260245ffd5b5f6200058282620004b4565b91506200058f83620004b4565b925082620005a257620005a16200051c565b5b828204905092915050565b620005b881620003d8565b82525050565b620005c981620004b4565b82525050565b5f606082019050620005e45f830186620005ad565b620005f36020830185620005ad565b620006026040830184620005be565b949350505050565b5f8115159050919050565b62000620816200060a565b81146200062b575f80fd5b50565b5f815190506200063e8162000615565b92915050565b5f602082840312156200065c576200065b620003b5565b5b5f6200066b848285016200062e565b91505092915050565b5f602082019050620006895f830184620005ad565b92915050565b5f6200069b82620004b4565b9150620006a883620004b4565b9250828201905080821115620006c357620006c262000549565b5b92915050565b610f4b80620006d75f395ff3fe608060405260043610610090575f3560e01c8063510b7f9811610058578063510b7f9814610179578063715018a6146101a35780638da5cb5b146101b9578063ccc8ad12146101e3578063f2fde38b1461021357610090565b80630e301d241461009457806312782b56146100bf57806314b46527146100fb5780632b1c4158146101255780632e4ab48a1461014f575b5f80fd5b34801561009f575f80fd5b506100a861023b565b6040516100b69291906108ed565b60405180910390f35b3480156100ca575f80fd5b506100e560048036038101906100e09190610942565b61024c565b6040516100f29190610987565b60405180910390f35b348015610106575f80fd5b5061010f61033b565b60405161011c9190610987565b60405180910390f35b348015610130575f80fd5b506101396103cb565b6040516101469190610a1a565b60405180910390f35b34801561015a575f80fd5b506101636103f0565b6040516101709190610a33565b60405180910390f35b348015610184575f80fd5b5061018d610400565b60405161019a9190610a6c565b60405180910390f35b3480156101ae575f80fd5b506101b7610425565b005b3480156101c4575f80fd5b506101cd610438565b6040516101da9190610aa5565b60405180910390f35b6101fd60048036038101906101f89190610942565b61045f565b60405161020a9190610987565b60405180910390f35b34801561021e575f80fd5b5061023960048036038101906102349190610ae8565b610473565b005b6004805f0154908060010154905082565b5f60035f9054906101000a900473ffffffffffffffffffffffffffffffffffffffff1673ffffffffffffffffffffffffffffffffffffffff1663fdb06a3183306040518363ffffffff1660e01b81526004016102a9929190610b13565b6020604051808303815f875af11580156102c5573d5f803e3d5ffd5b505050506040513d601f19601f820116820180604052508101906102e99190610b64565b610328576040517f08c379a000000000000000000000000000000000000000000000000000000000815260040161031f90610be9565b60405180910390fd5b610331826104f5565b5060019050919050565b5f6103853360065f3373ffffffffffffffffffffffffffffffffffffffff1673ffffffffffffffffffffffffffffffffffffffff1681526020019081526020015f205f0154610523565b6103c4576040517f08c379a00000000000000000000000000000000000000000000000000000000081526004016103bb90610c51565b60405180910390fd5b6001905090565b60025f9054906101000a900473ffffffffffffffffffffffffffffffffffffffff1681565b5f6103fb6001610642565b905090565b60035f9054906101000a900473ffffffffffffffffffffffffffffffffffffffff1681565b61042d61064e565b6104365f6106cc565b565b5f805f9054906101000a900473ffffffffffffffffffffffffffffffffffffffff16905090565b5f6104698261078d565b5060019050919050565b61047b61064e565b5f73ffffffffffffffffffffffffffffffffffffffff168173ffffffffffffffffffffffffffffffffffffffff16036104e9576040517f08c379a00000000000000000000000000000000000000000000000000000000081526004016104e090610cdf565b60405180910390fd5b6104f2816106cc565b50565b5f8160045f015f8282546105099190610d2a565b925050819055504260046001018190555060019050919050565b5f60025f9054906101000a900473ffffffffffffffffffffffffffffffffffffffff1673ffffffffffffffffffffffffffffffffffffffff1663469895c83085670de0b6b3a7640000866105779190610d5d565b6040518463ffffffff1660e01b815260040161059593929190610d9e565b6020604051808303815f875af11580156105b1573d5f803e3d5ffd5b505050506040513d601f19601f820116820180604052508101906105d59190610b64565b610614576040517f08c379a000000000000000000000000000000000000000000000000000000000815260040161060b90610e1d565b60405180910390fd5b8160045f015f8282546106279190610e3b565b92505081905550426004600101819055506001905092915050565b5f815f01549050919050565b610656610847565b73ffffffffffffffffffffffffffffffffffffffff16610674610438565b73ffffffffffffffffffffffffffffffffffffffff16146106ca576040517f08c379a00000000000000000000000000000000000000000000000000000000081526004016106c190610eb8565b60405180910390fd5b565b5f805f9054906101000a900473ffffffffffffffffffffffffffffffffffffffff169050815f806101000a81548173ffffffffffffffffffffffffffffffffffffffff021916908373ffffffffffffffffffffffffffffffffffffffff1602179055508173ffffffffffffffffffffffffffffffffffffffff168173ffffffffffffffffffffffffffffffffffffffff167f8be0079c531659141344cd1fd0a4f28419497f9722a3daafe3b4186f6b6457e060405160405180910390a35050565b5f60035f9054906101000a900473ffffffffffffffffffffffffffffffffffffffff1673ffffffffffffffffffffffffffffffffffffffff1663906f09e0336040518263ffffffff1660e01b81526004016107e89190610aa5565b6020604051808303815f875af1158015610804573d5f803e3d5ffd5b505050506040513d601f19601f820116820180604052508101906108289190610eea565b50610833338361084e565b5061083e60016108c1565b60019050919050565b5f33905090565b5f670de0b6b3a7640000826108639190610d5d565b60065f8573ffffffffffffffffffffffffffffffffffffffff1673ffffffffffffffffffffffffffffffffffffffff1681526020019081526020015f205f015f8282546108b09190610d2a565b925050819055506001905092915050565b6001815f015f828254019250508190555050565b5f819050919050565b6108e7816108d5565b82525050565b5f6040820190506109005f8301856108de565b61090d60208301846108de565b9392505050565b5f80fd5b610921816108d5565b811461092b575f80fd5b50565b5f8135905061093c81610918565b92915050565b5f6020828403121561095757610956610914565b5b5f6109648482850161092e565b91505092915050565b5f8115159050919050565b6109818161096d565b82525050565b5f60208201905061099a5f830184610978565b92915050565b5f73ffffffffffffffffffffffffffffffffffffffff82169050919050565b5f819050919050565b5f6109e26109dd6109d8846109a0565b6109bf565b6109a0565b9050919050565b5f6109f3826109c8565b9050919050565b5f610a04826109e9565b9050919050565b610a14816109fa565b82525050565b5f602082019050610a2d5f830184610a0b565b92915050565b5f602082019050610a465f8301846108de565b92915050565b5f610a56826109e9565b9050919050565b610a6681610a4c565b82525050565b5f602082019050610a7f5f830184610a5d565b92915050565b5f610a8f826109a0565b9050919050565b610a9f81610a85565b82525050565b5f602082019050610ab85f830184610a96565b92915050565b610ac781610a85565b8114610ad1575f80fd5b50565b5f81359050610ae281610abe565b92915050565b5f60208284031215610afd57610afc610914565b5b5f610b0a84828501610ad4565b91505092915050565b5f604082019050610b265f8301856108de565b610b336020830184610a96565b9392505050565b610b438161096d565b8114610b4d575f80fd5b50565b5f81519050610b5e81610b3a565b92915050565b5f60208284031215610b7957610b78610914565b5b5f610b8684828501610b50565b91505092915050565b5f82825260208201905092915050565b7f73686f7274656e206572726f72000000000000000000000000000000000000005f82015250565b5f610bd3600d83610b8f565b9150610bde82610b9f565b602082019050919050565b5f6020820190508181035f830152610c0081610bc7565b9050919050565b7f4275726e20515645207472616e73666572206572726f720000000000000000005f82015250565b5f610c3b601783610b8f565b9150610c4682610c07565b602082019050919050565b5f6020820190508181035f830152610c6881610c2f565b9050919050565b7f4f776e61626c653a206e6577206f776e657220697320746865207a65726f20615f8201527f6464726573730000000000000000000000000000000000000000000000000000602082015250565b5f610cc9602683610b8f565b9150610cd482610c6f565b604082019050919050565b5f6020820190508181035f830152610cf681610cbd565b9050919050565b7f4e487b71000000000000000000000000000000000000000000000000000000005f52601160045260245ffd5b5f610d34826108d5565b9150610d3f836108d5565b9250828201905080821115610d5757610d56610cfd565b5b92915050565b5f610d67826108d5565b9150610d72836108d5565b9250828202610d80816108d5565b91508282048414831517610d9757610d96610cfd565b5b5092915050565b5f606082019050610db15f830186610a96565b610dbe6020830185610a96565b610dcb60408301846108de565b949350505050565b7f515645207472616e73666572206572726f7200000000000000000000000000005f82015250565b5f610e07601283610b8f565b9150610e1282610dd3565b602082019050919050565b5f6020820190508181035f830152610e3481610dfb565b9050919050565b5f610e45826108d5565b9150610e50836108d5565b9250828203905081811115610e6857610e67610cfd565b5b92915050565b7f4f776e61626c653a2063616c6c6572206973206e6f7420746865206f776e65725f82015250565b5f610ea2602083610b8f565b9150610ead82610e6e565b602082019050919050565b5f6020820190508181035f830152610ecf81610e96565b9050919050565b5f81519050610ee481610918565b92915050565b5f60208284031215610eff57610efe610914565b5b5f610f0c84828501610ed6565b9150509291505056fea2646970667358221220f34d70bd87bf548e4b8b093ce158a0557114ddb230eea9a9b5d886d653b0d60e64736f6c63430008140033",
			"opcodes": "PUSH1 0x80 PUSH1 0x40 MSTORE CALLVALUE DUP1 ISZERO PUSH3 0x10 JUMPI PUSH0 DUP1 REVERT JUMPDEST POP PUSH1 0x40 MLOAD PUSH3 0x1622 CODESIZE SUB DUP1 PUSH3 0x1622 DUP4 CODECOPY DUP2 DUP2 ADD PUSH1 0x40 MSTORE DUP2 ADD SWAP1 PUSH3 0x36 SWAP2 SWAP1 PUSH3 0x46F JUMP JUMPDEST PUSH3 0x56 PUSH3 0x4A PUSH3 0x2ED PUSH1 0x20 SHL PUSH1 0x20 SHR JUMP JUMPDEST PUSH3 0x2F4 PUSH1 0x20 SHL PUSH1 0x20 SHR JUMP JUMPDEST DUP2 PUSH1 0x2 PUSH0 PUSH2 0x100 EXP DUP2 SLOAD DUP2 PUSH20 0xFFFFFFFFFFFFFFFFFFFFFFFFFFFFFFFFFFFFFFFF MUL NOT AND SWAP1 DUP4 PUSH20 0xFFFFFFFFFFFFFFFFFFFFFFFFFFFFFFFFFFFFFFFF AND MUL OR SWAP1 SSTORE POP DUP1 PUSH1 0x3 PUSH0 PUSH2 0x100 EXP DUP2 SLOAD DUP2 PUSH20 0xFFFFFFFFFFFFFFFFFFFFFFFFFFFFFFFFFFFFFFFF MUL NOT AND SWAP1 DUP4 PUSH20 0xFFFFFFFFFFFFFFFFFFFFFFFFFFFFFFFFFFFFFFFF AND MUL OR SWAP1 SSTORE POP PUSH1 0x2 PUSH0 SWAP1 SLOAD SWAP1 PUSH2 0x100 EXP SWAP1 DIV PUSH20 0xFFFFFFFFFFFFFFFFFFFFFFFFFFFFFFFFFFFFFFFF AND PUSH20 0xFFFFFFFFFFFFFFFFFFFFFFFFFFFFFFFFFFFFFFFF AND PUSH4 0x469895C8 CALLER ADDRESS PUSH1 0x2 DUP1 PUSH0 SWAP1 SLOAD SWAP1 PUSH2 0x100 EXP SWAP1 DIV PUSH20 0xFFFFFFFFFFFFFFFFFFFFFFFFFFFFFFFFFFFFFFFF AND PUSH20 0xFFFFFFFFFFFFFFFFFFFFFFFFFFFFFFFFFFFFFFFF AND PUSH4 0x18160DDD PUSH1 0x40 MLOAD DUP2 PUSH4 0xFFFFFFFF AND PUSH1 0xE0 SHL DUP2 MSTORE PUSH1 0x4 ADD PUSH1 0x20 PUSH1 0x40 MLOAD DUP1 DUP4 SUB DUP2 DUP7 GAS STATICCALL ISZERO DUP1 ISZERO PUSH3 0x181 JUMPI RETURNDATASIZE PUSH0 DUP1 RETURNDATACOPY RETURNDATASIZE PUSH0 REVERT JUMPDEST POP POP POP POP PUSH1 0x40 MLOAD RETURNDATASIZE PUSH1 0x1F NOT PUSH1 0x1F DUP3 ADD AND DUP3 ADD DUP1 PUSH1 0x40 MSTORE POP DUP2 ADD SWAP1 PUSH3 0x1A7 SWAP2 SWAP1 PUSH3 0x4EC JUMP JUMPDEST PUSH3 0x1B3 SWAP2 SWAP1 PUSH3 0x576 JUMP JUMPDEST PUSH1 0x40 MLOAD DUP5 PUSH4 0xFFFFFFFF AND PUSH1 0xE0 SHL DUP2 MSTORE PUSH1 0x4 ADD PUSH3 0x1D3 SWAP4 SWAP3 SWAP2 SWAP1 PUSH3 0x5CF JUMP JUMPDEST PUSH1 0x20 PUSH1 0x40 MLOAD DUP1 DUP4 SUB DUP2 PUSH0 DUP8 GAS CALL ISZERO DUP1 ISZERO PUSH3 0x1F0 JUMPI RETURNDATASIZE PUSH0 DUP1 RETURNDATACOPY RETURNDATASIZE PUSH0 REVERT JUMPDEST POP POP POP POP PUSH1 0x40 MLOAD RETURNDATASIZE PUSH1 0x1F NOT PUSH1 0x1F DUP3 ADD AND DUP3 ADD DUP1 PUSH1 0x40 MSTORE POP DUP2 ADD SWAP1 PUSH3 0x216 SWAP2 SWAP1 PUSH3 0x644 JUMP JUMPDEST POP PUSH8 0xDE0B6B3A7640000 PUSH1 0x2 PUSH0 SWAP1 SLOAD SWAP1 PUSH2 0x100 EXP SWAP1 DIV PUSH20 0xFFFFFFFFFFFFFFFFFFFFFFFFFFFFFFFFFFFFFFFF AND PUSH20 0xFFFFFFFFFFFFFFFFFFFFFFFFFFFFFFFFFFFFFFFF AND PUSH4 0x70A08231 ADDRESS PUSH1 0x40 MLOAD DUP3 PUSH4 0xFFFFFFFF AND PUSH1 0xE0 SHL DUP2 MSTORE PUSH1 0x4 ADD PUSH3 0x27C SWAP2 SWAP1 PUSH3 0x674 JUMP JUMPDEST PUSH1 0x20 PUSH1 0x40 MLOAD DUP1 DUP4 SUB DUP2 DUP7 GAS STATICCALL ISZERO DUP1 ISZERO PUSH3 0x298 JUMPI RETURNDATASIZE PUSH0 DUP1 RETURNDATACOPY RETURNDATASIZE PUSH0 REVERT JUMPDEST POP POP POP POP PUSH1 0x40 MLOAD RETURNDATASIZE PUSH1 0x1F NOT PUSH1 0x1F DUP3 ADD AND DUP3 ADD DUP1 PUSH1 0x40 MSTORE POP DUP2 ADD SWAP1 PUSH3 0x2BE SWAP2 SWAP1 PUSH3 0x4EC JUMP JUMPDEST PUSH3 0x2CA SWAP2 SWAP1 PUSH3 0x576 JUMP JUMPDEST PUSH1 0x4 PUSH0 ADD PUSH0 DUP3 DUP3 SLOAD PUSH3 0x2DE SWAP2 SWAP1 PUSH3 0x68F JUMP JUMPDEST SWAP3 POP POP DUP2 SWAP1 SSTORE POP POP POP PUSH3 0x6C9 JUMP JUMPDEST PUSH0 CALLER SWAP1 POP SWAP1 JUMP JUMPDEST PUSH0 DUP1 PUSH0 SWAP1 SLOAD SWAP1 PUSH2 0x100 EXP SWAP1 DIV PUSH20 0xFFFFFFFFFFFFFFFFFFFFFFFFFFFFFFFFFFFFFFFF AND SWAP1 POP DUP2 PUSH0 DUP1 PUSH2 0x100 EXP DUP2 SLOAD DUP2 PUSH20 0xFFFFFFFFFFFFFFFFFFFFFFFFFFFFFFFFFFFFFFFF MUL NOT AND SWAP1 DUP4 PUSH20 0xFFFFFFFFFFFFFFFFFFFFFFFFFFFFFFFFFFFFFFFF AND MUL OR SWAP1 SSTORE POP DUP2 PUSH20 0xFFFFFFFFFFFFFFFFFFFFFFFFFFFFFFFFFFFFFFFF AND DUP2 PUSH20 0xFFFFFFFFFFFFFFFFFFFFFFFFFFFFFFFFFFFFFFFF AND PUSH32 0x8BE0079C531659141344CD1FD0A4F28419497F9722A3DAAFE3B4186F6B6457E0 PUSH1 0x40 MLOAD PUSH1 0x40 MLOAD DUP1 SWAP2 SUB SWAP1 LOG3 POP POP JUMP JUMPDEST PUSH0 DUP1 REVERT JUMPDEST PUSH0 PUSH20 0xFFFFFFFFFFFFFFFFFFFFFFFFFFFFFFFFFFFFFFFF DUP3 AND SWAP1 POP SWAP2 SWAP1 POP JUMP JUMPDEST PUSH0 PUSH3 0x3E4 DUP3 PUSH3 0x3B9 JUMP JUMPDEST SWAP1 POP SWAP2 SWAP1 POP JUMP JUMPDEST PUSH0 PUSH3 0x3F7 DUP3 PUSH3 0x3D8 JUMP JUMPDEST SWAP1 POP SWAP2 SWAP1 POP JUMP JUMPDEST PUSH3 0x409 DUP2 PUSH3 0x3EB JUMP JUMPDEST DUP2 EQ PUSH3 0x414 JUMPI PUSH0 DUP1 REVERT JUMPDEST POP JUMP JUMPDEST PUSH0 DUP2 MLOAD SWAP1 POP PUSH3 0x427 DUP2 PUSH3 0x3FE JUMP JUMPDEST SWAP3 SWAP2 POP POP JUMP JUMPDEST PUSH0 PUSH3 0x439 DUP3 PUSH3 0x3D8 JUMP JUMPDEST SWAP1 POP SWAP2 SWAP1 POP JUMP JUMPDEST PUSH3 0x44B DUP2 PUSH3 0x42D JUMP JUMPDEST DUP2 EQ PUSH3 0x456 JUMPI PUSH0 DUP1 REVERT JUMPDEST POP JUMP JUMPDEST PUSH0 DUP2 MLOAD SWAP1 POP PUSH3 0x469 DUP2 PUSH3 0x440 JUMP JUMPDEST SWAP3 SWAP2 POP POP JUMP JUMPDEST PUSH0 DUP1 PUSH1 0x40 DUP4 DUP6 SUB SLT ISZERO PUSH3 0x488 JUMPI PUSH3 0x487 PUSH3 0x3B5 JUMP JUMPDEST JUMPDEST PUSH0 PUSH3 0x497 DUP6 DUP3 DUP7 ADD PUSH3 0x417 JUMP JUMPDEST SWAP3 POP POP PUSH1 0x20 PUSH3 0x4AA DUP6 DUP3 DUP7 ADD PUSH3 0x459 JUMP JUMPDEST SWAP2 POP POP SWAP3 POP SWAP3 SWAP1 POP JUMP JUMPDEST PUSH0 DUP2 SWAP1 POP SWAP2 SWAP1 POP JUMP JUMPDEST PUSH3 0x4C8 DUP2 PUSH3 0x4B4 JUMP JUMPDEST DUP2 EQ PUSH3 0x4D3 JUMPI PUSH0 DUP1 REVERT JUMPDEST POP JUMP JUMPDEST PUSH0 DUP2 MLOAD SWAP1 POP PUSH3 0x4E6 DUP2 PUSH3 0x4BD JUMP JUMPDEST SWAP3 SWAP2 POP POP JUMP JUMPDEST PUSH0 PUSH1 0x20 DUP3 DUP5 SUB SLT ISZERO PUSH3 0x504 JUMPI PUSH3 0x503 PUSH3 0x3B5 JUMP JUMPDEST JUMPDEST PUSH0 PUSH3 0x513 DUP5 DUP3 DUP6 ADD PUSH3 0x4D6 JUMP JUMPDEST SWAP2 POP POP SWAP3 SWAP2 POP POP JUMP JUMPDEST PUSH32 0x4E487B7100000000000000000000000000000000000000000000000000000000 PUSH0 MSTORE PUSH1 0x12 PUSH1 0x4 MSTORE PUSH1 0x24 PUSH0 REVERT JUMPDEST PUSH32 0x4E487B7100000000000000000000000000000000000000000000000000000000 PUSH0 MSTORE PUSH1 0x11 PUSH1 0x4 MSTORE PUSH1 0x24 PUSH0 REVERT JUMPDEST PUSH0 PUSH3 0x582 DUP3 PUSH3 0x4B4 JUMP JUMPDEST SWAP2 POP PUSH3 0x58F DUP4 PUSH3 0x4B4 JUMP JUMPDEST SWAP3 POP DUP3 PUSH3 0x5A2 JUMPI PUSH3 0x5A1 PUSH3 0x51C JUMP JUMPDEST JUMPDEST DUP3 DUP3 DIV SWAP1 POP SWAP3 SWAP2 POP POP JUMP JUMPDEST PUSH3 0x5B8 DUP2 PUSH3 0x3D8 JUMP JUMPDEST DUP3 MSTORE POP POP JUMP JUMPDEST PUSH3 0x5C9 DUP2 PUSH3 0x4B4 JUMP JUMPDEST DUP3 MSTORE POP POP JUMP JUMPDEST PUSH0 PUSH1 0x60 DUP3 ADD SWAP1 POP PUSH3 0x5E4 PUSH0 DUP4 ADD DUP7 PUSH3 0x5AD JUMP JUMPDEST PUSH3 0x5F3 PUSH1 0x20 DUP4 ADD DUP6 PUSH3 0x5AD JUMP JUMPDEST PUSH3 0x602 PUSH1 0x40 DUP4 ADD DUP5 PUSH3 0x5BE JUMP JUMPDEST SWAP5 SWAP4 POP POP POP POP JUMP JUMPDEST PUSH0 DUP2 ISZERO ISZERO SWAP1 POP SWAP2 SWAP1 POP JUMP JUMPDEST PUSH3 0x620 DUP2 PUSH3 0x60A JUMP JUMPDEST DUP2 EQ PUSH3 0x62B JUMPI PUSH0 DUP1 REVERT JUMPDEST POP JUMP JUMPDEST PUSH0 DUP2 MLOAD SWAP1 POP PUSH3 0x63E DUP2 PUSH3 0x615 JUMP JUMPDEST SWAP3 SWAP2 POP POP JUMP JUMPDEST PUSH0 PUSH1 0x20 DUP3 DUP5 SUB SLT ISZERO PUSH3 0x65C JUMPI PUSH3 0x65B PUSH3 0x3B5 JUMP JUMPDEST JUMPDEST PUSH0 PUSH3 0x66B DUP5 DUP3 DUP6 ADD PUSH3 0x62E JUMP JUMPDEST SWAP2 POP POP SWAP3 SWAP2 POP POP JUMP JUMPDEST PUSH0 PUSH1 0x20 DUP3 ADD SWAP1 POP PUSH3 0x689 PUSH0 DUP4 ADD DUP5 PUSH3 0x5AD JUMP JUMPDEST SWAP3 SWAP2 POP POP JUMP JUMPDEST PUSH0 PUSH3 0x69B DUP3 PUSH3 0x4B4 JUMP JUMPDEST SWAP2 POP PUSH3 0x6A8 DUP4 PUSH3 0x4B4 JUMP JUMPDEST SWAP3 POP DUP3 DUP3 ADD SWAP1 POP DUP1 DUP3 GT ISZERO PUSH3 0x6C3 JUMPI PUSH3 0x6C2 PUSH3 0x549 JUMP JUMPDEST JUMPDEST SWAP3 SWAP2 POP POP JUMP JUMPDEST PUSH2 0xF4B DUP1 PUSH3 0x6D7 PUSH0 CODECOPY PUSH0 RETURN INVALID PUSH1 0x80 PUSH1 0x40 MSTORE PUSH1 0x4 CALLDATASIZE LT PUSH2 0x90 JUMPI PUSH0 CALLDATALOAD PUSH1 0xE0 SHR DUP1 PUSH4 0x510B7F98 GT PUSH2 0x58 JUMPI DUP1 PUSH4 0x510B7F98 EQ PUSH2 0x179 JUMPI DUP1 PUSH4 0x715018A6 EQ PUSH2 0x1A3 JUMPI DUP1 PUSH4 0x8DA5CB5B EQ PUSH2 0x1B9 JUMPI DUP1 PUSH4 0xCCC8AD12 EQ PUSH2 0x1E3 JUMPI DUP1 PUSH4 0xF2FDE38B EQ PUSH2 0x213 JUMPI PUSH2 0x90 JUMP JUMPDEST DUP1 PUSH4 0xE301D24 EQ PUSH2 0x94 JUMPI DUP1 PUSH4 0x12782B56 EQ PUSH2 0xBF JUMPI DUP1 PUSH4 0x14B46527 EQ PUSH2 0xFB JUMPI DUP1 PUSH4 0x2B1C4158 EQ PUSH2 0x125 JUMPI DUP1 PUSH4 0x2E4AB48A EQ PUSH2 0x14F JUMPI JUMPDEST PUSH0 DUP1 REVERT JUMPDEST CALLVALUE DUP1 ISZERO PUSH2 0x9F JUMPI PUSH0 DUP1 REVERT JUMPDEST POP PUSH2 0xA8 PUSH2 0x23B JUMP JUMPDEST PUSH1 0x40 MLOAD PUSH2 0xB6 SWAP3 SWAP2 SWAP1 PUSH2 0x8ED JUMP JUMPDEST PUSH1 0x40 MLOAD DUP1 SWAP2 SUB SWAP1 RETURN JUMPDEST CALLVALUE DUP1 ISZERO PUSH2 0xCA JUMPI PUSH0 DUP1 REVERT JUMPDEST POP PUSH2 0xE5 PUSH1 0x4 DUP1 CALLDATASIZE SUB DUP2 ADD SWAP1 PUSH2 0xE0 SWAP2 SWAP1 PUSH2 0x942 JUMP JUMPDEST PUSH2 0x24C JUMP JUMPDEST PUSH1 0x40 MLOAD PUSH2 0xF2 SWAP2 SWAP1 PUSH2 0x987 JUMP JUMPDEST PUSH1 0x40 MLOAD DUP1 SWAP2 SUB SWAP1 RETURN JUMPDEST CALLVALUE DUP1 ISZERO PUSH2 0x106 JUMPI PUSH0 DUP1 REVERT JUMPDEST POP PUSH2 0x10F PUSH2 0x33B JUMP JUMPDEST PUSH1 0x40 MLOAD PUSH2 0x11C SWAP2 SWAP1 PUSH2 0x987 JUMP JUMPDEST PUSH1 0x40 MLOAD DUP1 SWAP2 SUB SWAP1 RETURN JUMPDEST CALLVALUE DUP1 ISZERO PUSH2 0x130 JUMPI PUSH0 DUP1 REVERT JUMPDEST POP PUSH2 0x139 PUSH2 0x3CB JUMP JUMPDEST PUSH1 0x40 MLOAD PUSH2 0x146 SWAP2 SWAP1 PUSH2 0xA1A JUMP JUMPDEST PUSH1 0x40 MLOAD DUP1 SWAP2 SUB SWAP1 RETURN JUMPDEST CALLVALUE DUP1 ISZERO PUSH2 0x15A JUMPI PUSH0 DUP1 REVERT JUMPDEST POP PUSH2 0x163 PUSH2 0x3F0 JUMP JUMPDEST PUSH1 0x40 MLOAD PUSH2 0x170 SWAP2 SWAP1 PUSH2 0xA33 JUMP JUMPDEST PUSH1 0x40 MLOAD DUP1 SWAP2 SUB SWAP1 RETURN JUMPDEST CALLVALUE DUP1 ISZERO PUSH2 0x184 JUMPI PUSH0 DUP1 REVERT JUMPDEST POP PUSH2 0x18D PUSH2 0x400 JUMP JUMPDEST PUSH1 0x40 MLOAD PUSH2 0x19A SWAP2 SWAP1 PUSH2 0xA6C JUMP JUMPDEST PUSH1 0x40 MLOAD DUP1 SWAP2 SUB SWAP1 RETURN JUMPDEST CALLVALUE DUP1 ISZERO PUSH2 0x1AE JUMPI PUSH0 DUP1 REVERT JUMPDEST POP PUSH2 0x1B7 PUSH2 0x425 JUMP JUMPDEST STOP JUMPDEST CALLVALUE DUP1 ISZERO PUSH2 0x1C4 JUMPI PUSH0 DUP1 REVERT JUMPDEST POP PUSH2 0x1CD PUSH2 0x438 JUMP JUMPDEST PUSH1 0x40 MLOAD PUSH2 0x1DA SWAP2 SWAP1 PUSH2 0xAA5 JUMP JUMPDEST PUSH1 0x40 MLOAD DUP1 SWAP2 SUB SWAP1 RETURN JUMPDEST PUSH2 0x1FD PUSH1 0x4 DUP1 CALLDATASIZE SUB DUP2 ADD SWAP1 PUSH2 0x1F8 SWAP2 SWAP1 PUSH2 0x942 JUMP JUMPDEST PUSH2 0x45F JUMP JUMPDEST PUSH1 0x40 MLOAD PUSH2 0x20A SWAP2 SWAP1 PUSH2 0x987 JUMP JUMPDEST PUSH1 0x40 MLOAD DUP1 SWAP2 SUB SWAP1 RETURN JUMPDEST CALLVALUE DUP1 ISZERO PUSH2 0x21E JUMPI PUSH0 DUP1 REVERT JUMPDEST POP PUSH2 0x239 PUSH1 0x4 DUP1 CALLDATASIZE SUB DUP2 ADD SWAP1 PUSH2 0x234 SWAP2 SWAP1 PUSH2 0xAE8 JUMP JUMPDEST PUSH2 0x473 JUMP JUMPDEST STOP JUMPDEST PUSH1 0x4 DUP1 PUSH0 ADD SLOAD SWAP1 DUP1 PUSH1 0x1 ADD SLOAD SWAP1 POP DUP3 JUMP JUMPDEST PUSH0 PUSH1 0x3 PUSH0 SWAP1 SLOAD SWAP1 PUSH2 0x100 EXP SWAP1 DIV PUSH20 0xFFFFFFFFFFFFFFFFFFFFFFFFFFFFFFFFFFFFFFFF AND PUSH20 0xFFFFFFFFFFFFFFFFFFFFFFFFFFFFFFFFFFFFFFFF AND PUSH4 0xFDB06A31 DUP4 ADDRESS PUSH1 0x40 MLOAD DUP4 PUSH4 0xFFFFFFFF AND PUSH1 0xE0 SHL DUP2 MSTORE PUSH1 0x4 ADD PUSH2 0x2A9 SWAP3 SWAP2 SWAP1 PUSH2 0xB13 JUMP JUMPDEST PUSH1 0x20 PUSH1 0x40 MLOAD DUP1 DUP4 SUB DUP2 PUSH0 DUP8 GAS CALL ISZERO DUP1 ISZERO PUSH2 0x2C5 JUMPI RETURNDATASIZE PUSH0 DUP1 RETURNDATACOPY RETURNDATASIZE PUSH0 REVERT JUMPDEST POP POP POP POP PUSH1 0x40 MLOAD RETURNDATASIZE PUSH1 0x1F NOT PUSH1 0x1F DUP3 ADD AND DUP3 ADD DUP1 PUSH1 0x40 MSTORE POP DUP2 ADD SWAP1 PUSH2 0x2E9 SWAP2 SWAP1 PUSH2 0xB64 JUMP JUMPDEST PUSH2 0x328 JUMPI PUSH1 0x40 MLOAD PUSH32 0x8C379A000000000000000000000000000000000000000000000000000000000 DUP2 MSTORE PUSH1 0x4 ADD PUSH2 0x31F SWAP1 PUSH2 0xBE9 JUMP JUMPDEST PUSH1 0x40 MLOAD DUP1 SWAP2 SUB SWAP1 REVERT JUMPDEST PUSH2 0x331 DUP3 PUSH2 0x4F5 JUMP JUMPDEST POP PUSH1 0x1 SWAP1 POP SWAP2 SWAP1 POP JUMP JUMPDEST PUSH0 PUSH2 0x385 CALLER PUSH1 0x6 PUSH0 CALLER PUSH20 0xFFFFFFFFFFFFFFFFFFFFFFFFFFFFFFFFFFFFFFFF AND PUSH20 0xFFFFFFFFFFFFFFFFFFFFFFFFFFFFFFFFFFFFFFFF AND DUP2 MSTORE PUSH1 0x20 ADD SWAP1 DUP2 MSTORE PUSH1 0x20 ADD PUSH0 KECCAK256 PUSH0 ADD SLOAD PUSH2 0x523 JUMP JUMPDEST PUSH2 0x3C4 JUMPI PUSH1 0x40 MLOAD PUSH32 0x8C379A000000000000000000000000000000000000000000000000000000000 DUP2 MSTORE PUSH1 0x4 ADD PUSH2 0x3BB SWAP1 PUSH2 0xC51 JUMP JUMPDEST PUSH1 0x40 MLOAD DUP1 SWAP2 SUB SWAP1 REVERT JUMPDEST PUSH1 0x1 SWAP1 POP SWAP1 JUMP JUMPDEST PUSH1 0x2 PUSH0 SWAP1 SLOAD SWAP1 PUSH2 0x100 EXP SWAP1 DIV PUSH20 0xFFFFFFFFFFFFFFFFFFFFFFFFFFFFFFFFFFFFFFFF AND DUP2 JUMP JUMPDEST PUSH0 PUSH2 0x3FB PUSH1 0x1 PUSH2 0x642 JUMP JUMPDEST SWAP1 POP SWAP1 JUMP JUMPDEST PUSH1 0x3 PUSH0 SWAP1 SLOAD SWAP1 PUSH2 0x100 EXP SWAP1 DIV PUSH20 0xFFFFFFFFFFFFFFFFFFFFFFFFFFFFFFFFFFFFFFFF AND DUP2 JUMP JUMPDEST PUSH2 0x42D PUSH2 0x64E JUMP JUMPDEST PUSH2 0x436 PUSH0 PUSH2 0x6CC JUMP JUMPDEST JUMP JUMPDEST PUSH0 DUP1 PUSH0 SWAP1 SLOAD SWAP1 PUSH2 0x100 EXP SWAP1 DIV PUSH20 0xFFFFFFFFFFFFFFFFFFFFFFFFFFFFFFFFFFFFFFFF AND SWAP1 POP SWAP1 JUMP JUMPDEST PUSH0 PUSH2 0x469 DUP3 PUSH2 0x78D JUMP JUMPDEST POP PUSH1 0x1 SWAP1 POP SWAP2 SWAP1 POP JUMP JUMPDEST PUSH2 0x47B PUSH2 0x64E JUMP JUMPDEST PUSH0 PUSH20 0xFFFFFFFFFFFFFFFFFFFFFFFFFFFFFFFFFFFFFFFF AND DUP2 PUSH20 0xFFFFFFFFFFFFFFFFFFFFFFFFFFFFFFFFFFFFFFFF AND SUB PUSH2 0x4E9 JUMPI PUSH1 0x40 MLOAD PUSH32 0x8C379A000000000000000000000000000000000000000000000000000000000 DUP2 MSTORE PUSH1 0x4 ADD PUSH2 0x4E0 SWAP1 PUSH2 0xCDF JUMP JUMPDEST PUSH1 0x40 MLOAD DUP1 SWAP2 SUB SWAP1 REVERT JUMPDEST PUSH2 0x4F2 DUP2 PUSH2 0x6CC JUMP JUMPDEST POP JUMP JUMPDEST PUSH0 DUP2 PUSH1 0x4 PUSH0 ADD PUSH0 DUP3 DUP3 SLOAD PUSH2 0x509 SWAP2 SWAP1 PUSH2 0xD2A JUMP JUMPDEST SWAP3 POP POP DUP2 SWAP1 SSTORE POP TIMESTAMP PUSH1 0x4 PUSH1 0x1 ADD DUP2 SWAP1 SSTORE POP PUSH1 0x1 SWAP1 POP SWAP2 SWAP1 POP JUMP JUMPDEST PUSH0 PUSH1 0x2 PUSH0 SWAP1 SLOAD SWAP1 PUSH2 0x100 EXP SWAP1 DIV PUSH20 0xFFFFFFFFFFFFFFFFFFFFFFFFFFFFFFFFFFFFFFFF AND PUSH20 0xFFFFFFFFFFFFFFFFFFFFFFFFFFFFFFFFFFFFFFFF AND PUSH4 0x469895C8 ADDRESS DUP6 PUSH8 0xDE0B6B3A7640000 DUP7 PUSH2 0x577 SWAP2 SWAP1 PUSH2 0xD5D JUMP JUMPDEST PUSH1 0x40 MLOAD DUP5 PUSH4 0xFFFFFFFF AND PUSH1 0xE0 SHL DUP2 MSTORE PUSH1 0x4 ADD PUSH2 0x595 SWAP4 SWAP3 SWAP2 SWAP1 PUSH2 0xD9E JUMP JUMPDEST PUSH1 0x20 PUSH1 0x40 MLOAD DUP1 DUP4 SUB DUP2 PUSH0 DUP8 GAS CALL ISZERO DUP1 ISZERO PUSH2 0x5B1 JUMPI RETURNDATASIZE PUSH0 DUP1 RETURNDATACOPY RETURNDATASIZE PUSH0 REVERT JUMPDEST POP POP POP POP PUSH1 0x40 MLOAD RETURNDATASIZE PUSH1 0x1F NOT PUSH1 0x1F DUP3 ADD AND DUP3 ADD DUP1 PUSH1 0x40 MSTORE POP DUP2 ADD SWAP1 PUSH2 0x5D5 SWAP2 SWAP1 PUSH2 0xB64 JUMP JUMPDEST PUSH2 0x614 JUMPI PUSH1 0x40 MLOAD PUSH32 0x8C379A000000000000000000000000000000000000000000000000000000000 DUP2 MSTORE PUSH1 0x4 ADD PUSH2 0x60B SWAP1 PUSH2 0xE1D JUMP JUMPDEST PUSH1 0x40 MLOAD DUP1 SWAP2 SUB SWAP1 REVERT JUMPDEST DUP2 PUSH1 0x4 PUSH0 ADD PUSH0 DUP3 DUP3 SLOAD PUSH2 0x627 SWAP2 SWAP1 PUSH2 0xE3B JUMP JUMPDEST SWAP3 POP POP DUP2 SWAP1 SSTORE POP TIMESTAMP PUSH1 0x4 PUSH1 0x1 ADD DUP2 SWAP1 SSTORE POP PUSH1 0x1 SWAP1 POP SWAP3 SWAP2 POP POP JUMP JUMPDEST PUSH0 DUP2 PUSH0 ADD SLOAD SWAP1 POP SWAP2 SWAP1 POP JUMP JUMPDEST PUSH2 0x656 PUSH2 0x847 JUMP JUMPDEST PUSH20 0xFFFFFFFFFFFFFFFFFFFFFFFFFFFFFFFFFFFFFFFF AND PUSH2 0x674 PUSH2 0x438 JUMP JUMPDEST PUSH20 0xFFFFFFFFFFFFFFFFFFFFFFFFFFFFFFFFFFFFFFFF AND EQ PUSH2 0x6CA JUMPI PUSH1 0x40 MLOAD PUSH32 0x8C379A000000000000000000000000000000000000000000000000000000000 DUP2 MSTORE PUSH1 0x4 ADD PUSH2 0x6C1 SWAP1 PUSH2 0xEB8 JUMP JUMPDEST PUSH1 0x40 MLOAD DUP1 SWAP2 SUB SWAP1 REVERT JUMPDEST JUMP JUMPDEST PUSH0 DUP1 PUSH0 SWAP1 SLOAD SWAP1 PUSH2 0x100 EXP SWAP1 DIV PUSH20 0xFFFFFFFFFFFFFFFFFFFFFFFFFFFFFFFFFFFFFFFF AND SWAP1 POP DUP2 PUSH0 DUP1 PUSH2 0x100 EXP DUP2 SLOAD DUP2 PUSH20 0xFFFFFFFFFFFFFFFFFFFFFFFFFFFFFFFFFFFFFFFF MUL NOT AND SWAP1 DUP4 PUSH20 0xFFFFFFFFFFFFFFFFFFFFFFFFFFFFFFFFFFFFFFFF AND MUL OR SWAP1 SSTORE POP DUP2 PUSH20 0xFFFFFFFFFFFFFFFFFFFFFFFFFFFFFFFFFFFFFFFF AND DUP2 PUSH20 0xFFFFFFFFFFFFFFFFFFFFFFFFFFFFFFFFFFFFFFFF AND PUSH32 0x8BE0079C531659141344CD1FD0A4F28419497F9722A3DAAFE3B4186F6B6457E0 PUSH1 0x40 MLOAD PUSH1 0x40 MLOAD DUP1 SWAP2 SUB SWAP1 LOG3 POP POP JUMP JUMPDEST PUSH0 PUSH1 0x3 PUSH0 SWAP1 SLOAD SWAP1 PUSH2 0x100 EXP SWAP1 DIV PUSH20 0xFFFFFFFFFFFFFFFFFFFFFFFFFFFFFFFFFFFFFFFF AND PUSH20 0xFFFFFFFFFFFFFFFFFFFFFFFFFFFFFFFFFFFFFFFF AND PUSH4 0x906F09E0 CALLER PUSH1 0x40 MLOAD DUP3 PUSH4 0xFFFFFFFF AND PUSH1 0xE0 SHL DUP2 MSTORE PUSH1 0x4 ADD PUSH2 0x7E8 SWAP2 SWAP1 PUSH2 0xAA5 JUMP JUMPDEST PUSH1 0x20 PUSH1 0x40 MLOAD DUP1 DUP4 SUB DUP2 PUSH0 DUP8 GAS CALL ISZERO DUP1 ISZERO PUSH2 0x804 JUMPI RETURNDATASIZE PUSH0 DUP1 RETURNDATACOPY RETURNDATASIZE PUSH0 REVERT JUMPDEST POP POP POP POP PUSH1 0x40 MLOAD RETURNDATASIZE PUSH1 0x1F NOT PUSH1 0x1F DUP3 ADD AND DUP3 ADD DUP1 PUSH1 0x40 MSTORE POP DUP2 ADD SWAP1 PUSH2 0x828 SWAP2 SWAP1 PUSH2 0xEEA JUMP JUMPDEST POP PUSH2 0x833 CALLER DUP4 PUSH2 0x84E JUMP JUMPDEST POP PUSH2 0x83E PUSH1 0x1 PUSH2 0x8C1 JUMP JUMPDEST PUSH1 0x1 SWAP1 POP SWAP2 SWAP1 POP JUMP JUMPDEST PUSH0 CALLER SWAP1 POP SWAP1 JUMP JUMPDEST PUSH0 PUSH8 0xDE0B6B3A7640000 DUP3 PUSH2 0x863 SWAP2 SWAP1 PUSH2 0xD5D JUMP JUMPDEST PUSH1 0x6 PUSH0 DUP6 PUSH20 0xFFFFFFFFFFFFFFFFFFFFFFFFFFFFFFFFFFFFFFFF AND PUSH20 0xFFFFFFFFFFFFFFFFFFFFFFFFFFFFFFFFFFFFFFFF AND DUP2 MSTORE PUSH1 0x20 ADD SWAP1 DUP2 MSTORE PUSH1 0x20 ADD PUSH0 KECCAK256 PUSH0 ADD PUSH0 DUP3 DUP3 SLOAD PUSH2 0x8B0 SWAP2 SWAP1 PUSH2 0xD2A JUMP JUMPDEST SWAP3 POP POP DUP2 SWAP1 SSTORE POP PUSH1 0x1 SWAP1 POP SWAP3 SWAP2 POP POP JUMP JUMPDEST PUSH1 0x1 DUP2 PUSH0 ADD PUSH0 DUP3 DUP3 SLOAD ADD SWAP3 POP POP DUP2 SWAP1 SSTORE POP POP JUMP JUMPDEST PUSH0 DUP2 SWAP1 POP SWAP2 SWAP1 POP JUMP JUMPDEST PUSH2 0x8E7 DUP2 PUSH2 0x8D5 JUMP JUMPDEST DUP3 MSTORE POP POP JUMP JUMPDEST PUSH0 PUSH1 0x40 DUP3 ADD SWAP1 POP PUSH2 0x900 PUSH0 DUP4 ADD DUP6 PUSH2 0x8DE JUMP JUMPDEST PUSH2 0x90D PUSH1 0x20 DUP4 ADD DUP5 PUSH2 0x8DE JUMP JUMPDEST SWAP4 SWAP3 POP POP POP JUMP JUMPDEST PUSH0 DUP1 REVERT JUMPDEST PUSH2 0x921 DUP2 PUSH2 0x8D5 JUMP JUMPDEST DUP2 EQ PUSH2 0x92B JUMPI PUSH0 DUP1 REVERT JUMPDEST POP JUMP JUMPDEST PUSH0 DUP2 CALLDATALOAD SWAP1 POP PUSH2 0x93C DUP2 PUSH2 0x918 JUMP JUMPDEST SWAP3 SWAP2 POP POP JUMP JUMPDEST PUSH0 PUSH1 0x20 DUP3 DUP5 SUB SLT ISZERO PUSH2 0x957 JUMPI PUSH2 0x956 PUSH2 0x914 JUMP JUMPDEST JUMPDEST PUSH0 PUSH2 0x964 DUP5 DUP3 DUP6 ADD PUSH2 0x92E JUMP JUMPDEST SWAP2 POP POP SWAP3 SWAP2 POP POP JUMP JUMPDEST PUSH0 DUP2 ISZERO ISZERO SWAP1 POP SWAP2 SWAP1 POP JUMP JUMPDEST PUSH2 0x981 DUP2 PUSH2 0x96D JUMP JUMPDEST DUP3 MSTORE POP POP JUMP JUMPDEST PUSH0 PUSH1 0x20 DUP3 ADD SWAP1 POP PUSH2 0x99A PUSH0 DUP4 ADD DUP5 PUSH2 0x978 JUMP JUMPDEST SWAP3 SWAP2 POP POP JUMP JUMPDEST PUSH0 PUSH20 0xFFFFFFFFFFFFFFFFFFFFFFFFFFFFFFFFFFFFFFFF DUP3 AND SWAP1 POP SWAP2 SWAP1 POP JUMP JUMPDEST PUSH0 DUP2 SWAP1 POP SWAP2 SWAP1 POP JUMP JUMPDEST PUSH0 PUSH2 0x9E2 PUSH2 0x9DD PUSH2 0x9D8 DUP5 PUSH2 0x9A0 JUMP JUMPDEST PUSH2 0x9BF JUMP JUMPDEST PUSH2 0x9A0 JUMP JUMPDEST SWAP1 POP SWAP2 SWAP1 POP JUMP JUMPDEST PUSH0 PUSH2 0x9F3 DUP3 PUSH2 0x9C8 JUMP JUMPDEST SWAP1 POP SWAP2 SWAP1 POP JUMP JUMPDEST PUSH0 PUSH2 0xA04 DUP3 PUSH2 0x9E9 JUMP JUMPDEST SWAP1 POP SWAP2 SWAP1 POP JUMP JUMPDEST PUSH2 0xA14 DUP2 PUSH2 0x9FA JUMP JUMPDEST DUP3 MSTORE POP POP JUMP JUMPDEST PUSH0 PUSH1 0x20 DUP3 ADD SWAP1 POP PUSH2 0xA2D PUSH0 DUP4 ADD DUP5 PUSH2 0xA0B JUMP JUMPDEST SWAP3 SWAP2 POP POP JUMP JUMPDEST PUSH0 PUSH1 0x20 DUP3 ADD SWAP1 POP PUSH2 0xA46 PUSH0 DUP4 ADD DUP5 PUSH2 0x8DE JUMP JUMPDEST SWAP3 SWAP2 POP POP JUMP JUMPDEST PUSH0 PUSH2 0xA56 DUP3 PUSH2 0x9E9 JUMP JUMPDEST SWAP1 POP SWAP2 SWAP1 POP JUMP JUMPDEST PUSH2 0xA66 DUP2 PUSH2 0xA4C JUMP JUMPDEST DUP3 MSTORE POP POP JUMP JUMPDEST PUSH0 PUSH1 0x20 DUP3 ADD SWAP1 POP PUSH2 0xA7F PUSH0 DUP4 ADD DUP5 PUSH2 0xA5D JUMP JUMPDEST SWAP3 SWAP2 POP POP JUMP JUMPDEST PUSH0 PUSH2 0xA8F DUP3 PUSH2 0x9A0 JUMP JUMPDEST SWAP1 POP SWAP2 SWAP1 POP JUMP JUMPDEST PUSH2 0xA9F DUP2 PUSH2 0xA85 JUMP JUMPDEST DUP3 MSTORE POP POP JUMP JUMPDEST PUSH0 PUSH1 0x20 DUP3 ADD SWAP1 POP PUSH2 0xAB8 PUSH0 DUP4 ADD DUP5 PUSH2 0xA96 JUMP JUMPDEST SWAP3 SWAP2 POP POP JUMP JUMPDEST PUSH2 0xAC7 DUP2 PUSH2 0xA85 JUMP JUMPDEST DUP2 EQ PUSH2 0xAD1 JUMPI PUSH0 DUP1 REVERT JUMPDEST POP JUMP JUMPDEST PUSH0 DUP2 CALLDATALOAD SWAP1 POP PUSH2 0xAE2 DUP2 PUSH2 0xABE JUMP JUMPDEST SWAP3 SWAP2 POP POP JUMP JUMPDEST PUSH0 PUSH1 0x20 DUP3 DUP5 SUB SLT ISZERO PUSH2 0xAFD JUMPI PUSH2 0xAFC PUSH2 0x914 JUMP JUMPDEST JUMPDEST PUSH0 PUSH2 0xB0A DUP5 DUP3 DUP6 ADD PUSH2 0xAD4 JUMP JUMPDEST SWAP2 POP POP SWAP3 SWAP2 POP POP JUMP JUMPDEST PUSH0 PUSH1 0x40 DUP3 ADD SWAP1 POP PUSH2 0xB26 PUSH0 DUP4 ADD DUP6 PUSH2 0x8DE JUMP JUMPDEST PUSH2 0xB33 PUSH1 0x20 DUP4 ADD DUP5 PUSH2 0xA96 JUMP JUMPDEST SWAP4 SWAP3 POP POP POP JUMP JUMPDEST PUSH2 0xB43 DUP2 PUSH2 0x96D JUMP JUMPDEST DUP2 EQ PUSH2 0xB4D JUMPI PUSH0 DUP1 REVERT JUMPDEST POP JUMP JUMPDEST PUSH0 DUP2 MLOAD SWAP1 POP PUSH2 0xB5E DUP2 PUSH2 0xB3A JUMP JUMPDEST SWAP3 SWAP2 POP POP JUMP JUMPDEST PUSH0 PUSH1 0x20 DUP3 DUP5 SUB SLT ISZERO PUSH2 0xB79 JUMPI PUSH2 0xB78 PUSH2 0x914 JUMP JUMPDEST JUMPDEST PUSH0 PUSH2 0xB86 DUP5 DUP3 DUP6 ADD PUSH2 0xB50 JUMP JUMPDEST SWAP2 POP POP SWAP3 SWAP2 POP POP JUMP JUMPDEST PUSH0 DUP3 DUP3 MSTORE PUSH1 0x20 DUP3 ADD SWAP1 POP SWAP3 SWAP2 POP POP JUMP JUMPDEST PUSH32 0x73686F7274656E206572726F7200000000000000000000000000000000000000 PUSH0 DUP3 ADD MSTORE POP JUMP JUMPDEST PUSH0 PUSH2 0xBD3 PUSH1 0xD DUP4 PUSH2 0xB8F JUMP JUMPDEST SWAP2 POP PUSH2 0xBDE DUP3 PUSH2 0xB9F JUMP JUMPDEST PUSH1 0x20 DUP3 ADD SWAP1 POP SWAP2 SWAP1 POP JUMP JUMPDEST PUSH0 PUSH1 0x20 DUP3 ADD SWAP1 POP DUP2 DUP2 SUB PUSH0 DUP4 ADD MSTORE PUSH2 0xC00 DUP2 PUSH2 0xBC7 JUMP JUMPDEST SWAP1 POP SWAP2 SWAP1 POP JUMP JUMPDEST PUSH32 0x4275726E20515645207472616E73666572206572726F72000000000000000000 PUSH0 DUP3 ADD MSTORE POP JUMP JUMPDEST PUSH0 PUSH2 0xC3B PUSH1 0x17 DUP4 PUSH2 0xB8F JUMP JUMPDEST SWAP2 POP PUSH2 0xC46 DUP3 PUSH2 0xC07 JUMP JUMPDEST PUSH1 0x20 DUP3 ADD SWAP1 POP SWAP2 SWAP1 POP JUMP JUMPDEST PUSH0 PUSH1 0x20 DUP3 ADD SWAP1 POP DUP2 DUP2 SUB PUSH0 DUP4 ADD MSTORE PUSH2 0xC68 DUP2 PUSH2 0xC2F JUMP JUMPDEST SWAP1 POP SWAP2 SWAP1 POP JUMP JUMPDEST PUSH32 0x4F776E61626C653A206E6577206F776E657220697320746865207A65726F2061 PUSH0 DUP3 ADD MSTORE PUSH32 0x6464726573730000000000000000000000000000000000000000000000000000 PUSH1 0x20 DUP3 ADD MSTORE POP JUMP JUMPDEST PUSH0 PUSH2 0xCC9 PUSH1 0x26 DUP4 PUSH2 0xB8F JUMP JUMPDEST SWAP2 POP PUSH2 0xCD4 DUP3 PUSH2 0xC6F JUMP JUMPDEST PUSH1 0x40 DUP3 ADD SWAP1 POP SWAP2 SWAP1 POP JUMP JUMPDEST PUSH0 PUSH1 0x20 DUP3 ADD SWAP1 POP DUP2 DUP2 SUB PUSH0 DUP4 ADD MSTORE PUSH2 0xCF6 DUP2 PUSH2 0xCBD JUMP JUMPDEST SWAP1 POP SWAP2 SWAP1 POP JUMP JUMPDEST PUSH32 0x4E487B7100000000000000000000000000000000000000000000000000000000 PUSH0 MSTORE PUSH1 0x11 PUSH1 0x4 MSTORE PUSH1 0x24 PUSH0 REVERT JUMPDEST PUSH0 PUSH2 0xD34 DUP3 PUSH2 0x8D5 JUMP JUMPDEST SWAP2 POP PUSH2 0xD3F DUP4 PUSH2 0x8D5 JUMP JUMPDEST SWAP3 POP DUP3 DUP3 ADD SWAP1 POP DUP1 DUP3 GT ISZERO PUSH2 0xD57 JUMPI PUSH2 0xD56 PUSH2 0xCFD JUMP JUMPDEST JUMPDEST SWAP3 SWAP2 POP POP JUMP JUMPDEST PUSH0 PUSH2 0xD67 DUP3 PUSH2 0x8D5 JUMP JUMPDEST SWAP2 POP PUSH2 0xD72 DUP4 PUSH2 0x8D5 JUMP JUMPDEST SWAP3 POP DUP3 DUP3 MUL PUSH2 0xD80 DUP2 PUSH2 0x8D5 JUMP JUMPDEST SWAP2 POP DUP3 DUP3 DIV DUP5 EQ DUP4 ISZERO OR PUSH2 0xD97 JUMPI PUSH2 0xD96 PUSH2 0xCFD JUMP JUMPDEST JUMPDEST POP SWAP3 SWAP2 POP POP JUMP JUMPDEST PUSH0 PUSH1 0x60 DUP3 ADD SWAP1 POP PUSH2 0xDB1 PUSH0 DUP4 ADD DUP7 PUSH2 0xA96 JUMP JUMPDEST PUSH2 0xDBE PUSH1 0x20 DUP4 ADD DUP6 PUSH2 0xA96 JUMP JUMPDEST PUSH2 0xDCB PUSH1 0x40 DUP4 ADD DUP5 PUSH2 0x8DE JUMP JUMPDEST SWAP5 SWAP4 POP POP POP POP JUMP JUMPDEST PUSH32 0x515645207472616E73666572206572726F720000000000000000000000000000 PUSH0 DUP3 ADD MSTORE POP JUMP JUMPDEST PUSH0 PUSH2 0xE07 PUSH1 0x12 DUP4 PUSH2 0xB8F JUMP JUMPDEST SWAP2 POP PUSH2 0xE12 DUP3 PUSH2 0xDD3 JUMP JUMPDEST PUSH1 0x20 DUP3 ADD SWAP1 POP SWAP2 SWAP1 POP JUMP JUMPDEST PUSH0 PUSH1 0x20 DUP3 ADD SWAP1 POP DUP2 DUP2 SUB PUSH0 DUP4 ADD MSTORE PUSH2 0xE34 DUP2 PUSH2 0xDFB JUMP JUMPDEST SWAP1 POP SWAP2 SWAP1 POP JUMP JUMPDEST PUSH0 PUSH2 0xE45 DUP3 PUSH2 0x8D5 JUMP JUMPDEST SWAP2 POP PUSH2 0xE50 DUP4 PUSH2 0x8D5 JUMP JUMPDEST SWAP3 POP DUP3 DUP3 SUB SWAP1 POP DUP2 DUP2 GT ISZERO PUSH2 0xE68 JUMPI PUSH2 0xE67 PUSH2 0xCFD JUMP JUMPDEST JUMPDEST SWAP3 SWAP2 POP POP JUMP JUMPDEST PUSH32 0x4F776E61626C653A2063616C6C6572206973206E6F7420746865206F776E6572 PUSH0 DUP3 ADD MSTORE POP JUMP JUMPDEST PUSH0 PUSH2 0xEA2 PUSH1 0x20 DUP4 PUSH2 0xB8F JUMP JUMPDEST SWAP2 POP PUSH2 0xEAD DUP3 PUSH2 0xE6E JUMP JUMPDEST PUSH1 0x20 DUP3 ADD SWAP1 POP SWAP2 SWAP1 POP JUMP JUMPDEST PUSH0 PUSH1 0x20 DUP3 ADD SWAP1 POP DUP2 DUP2 SUB PUSH0 DUP4 ADD MSTORE PUSH2 0xECF DUP2 PUSH2 0xE96 JUMP JUMPDEST SWAP1 POP SWAP2 SWAP1 POP JUMP JUMPDEST PUSH0 DUP2 MLOAD SWAP1 POP PUSH2 0xEE4 DUP2 PUSH2 0x918 JUMP JUMPDEST SWAP3 SWAP2 POP POP JUMP JUMPDEST PUSH0 PUSH1 0x20 DUP3 DUP5 SUB SLT ISZERO PUSH2 0xEFF JUMPI PUSH2 0xEFE PUSH2 0x914 JUMP JUMPDEST JUMPDEST PUSH0 PUSH2 0xF0C DUP5 DUP3 DUP6 ADD PUSH2 0xED6 JUMP JUMPDEST SWAP2 POP POP SWAP3 SWAP2 POP POP JUMP INVALID LOG2 PUSH5 0x6970667358 0x22 SLT KECCAK256 RETURN 0x4D PUSH17 0xBD87BF548E4B8B093CE158A0557114DDB2 ADDRESS 0xEE 0xA9 0xA9 0xB5 0xD8 DUP7 0xD6 MSTORE8 0xB0 0xD6 0xE PUSH5 0x736F6C6343 STOP ADDMOD EQ STOP CALLER "
		},
		"gasEstimates": {
			"creation": {
				"codeDepositCost": "783000",
				"executionCost": "infinite",
				"totalCost": "infinite"
			},
			"external": {
				"QVEliquidityPool()": "infinite",
				"burnStakingGuarantee()": "infinite",
				"getStakeCount()": "2568",
				"owner()": "2559",
				"qvenft()": "infinite",
				"qvetoken()": "infinite",
				"receiveAsset(uint256)": "infinite",
				"renounceOwnership()": "30412",
				"shortenLockup(uint256)": "infinite",
				"transferOwnership(address)": "30819"
			},
			"internal": {
				"_addLiquidity(uint256)": "infinite",
				"_addUserStakeVault(address,uint256)": "infinite",
				"_botAddress()": "infinite",
				"_sendQVEFromLiquidity(address,uint256)": "infinite",
				"_subLiquidity(uint256)": "infinite",
				"stakeEth(uint256)": "infinite"
			}
		},
		"methodIdentifiers": {
			"QVEliquidityPool()": "0e301d24",
			"burnStakingGuarantee()": "14b46527",
			"getStakeCount()": "2e4ab48a",
			"owner()": "8da5cb5b",
			"qvenft()": "510b7f98",
			"qvetoken()": "2b1c4158",
			"receiveAsset(uint256)": "ccc8ad12",
			"renounceOwnership()": "715018a6",
			"shortenLockup(uint256)": "12782b56",
			"transferOwnership(address)": "f2fde38b"
		}
	},
	"abi": [
		{
			"inputs": [
				{
					"internalType": "contract QVEtoken",
					"name": "_qveTokenAddress",
					"type": "address"
				},
				{
					"internalType": "contract QVEnft",
					"name": "_qvenft",
					"type": "address"
				}
			],
			"stateMutability": "nonpayable",
			"type": "constructor"
		},
		{
			"anonymous": false,
			"inputs": [
				{
					"indexed": true,
					"internalType": "address",
					"name": "previousOwner",
					"type": "address"
				},
				{
					"indexed": true,
					"internalType": "address",
					"name": "newOwner",
					"type": "address"
				}
			],
			"name": "OwnershipTransferred",
			"type": "event"
		},
		{
			"inputs": [],
			"name": "QVEliquidityPool",
			"outputs": [
				{
					"internalType": "uint256",
					"name": "balance",
					"type": "uint256"
				},
				{
					"internalType": "uint256",
					"name": "at",
					"type": "uint256"
				}
			],
			"stateMutability": "view",
			"type": "function"
		},
		{
			"inputs": [],
			"name": "burnStakingGuarantee",
			"outputs": [
				{
					"internalType": "bool",
					"name": "",
					"type": "bool"
				}
			],
			"stateMutability": "nonpayable",
			"type": "function"
		},
		{
			"inputs": [],
			"name": "getStakeCount",
			"outputs": [
				{
					"internalType": "uint256",
					"name": "",
					"type": "uint256"
				}
			],
			"stateMutability": "view",
			"type": "function"
		},
		{
			"inputs": [],
			"name": "owner",
			"outputs": [
				{
					"internalType": "address",
					"name": "",
					"type": "address"
				}
			],
			"stateMutability": "view",
			"type": "function"
		},
		{
			"inputs": [],
			"name": "qvenft",
			"outputs": [
				{
					"internalType": "contract QVEnft",
					"name": "",
					"type": "address"
				}
			],
			"stateMutability": "view",
			"type": "function"
		},
		{
			"inputs": [],
			"name": "qvetoken",
			"outputs": [
				{
					"internalType": "contract QVEtoken",
					"name": "",
					"type": "address"
				}
			],
			"stateMutability": "view",
			"type": "function"
		},
		{
			"inputs": [
				{
					"internalType": "uint256",
					"name": "assetAmount",
					"type": "uint256"
				}
			],
			"name": "receiveAsset",
			"outputs": [
				{
					"internalType": "bool",
					"name": "",
					"type": "bool"
				}
			],
			"stateMutability": "payable",
			"type": "function"
		},
		{
			"inputs": [],
			"name": "renounceOwnership",
			"outputs": [],
			"stateMutability": "nonpayable",
			"type": "function"
		},
		{
			"inputs": [
				{
					"internalType": "uint256",
					"name": "qveAmount",
					"type": "uint256"
				}
			],
			"name": "shortenLockup",
			"outputs": [
				{
					"internalType": "bool",
					"name": "",
					"type": "bool"
				}
			],
			"stateMutability": "nonpayable",
			"type": "function"
		},
		{
			"inputs": [
				{
					"internalType": "address",
					"name": "newOwner",
					"type": "address"
				}
			],
			"name": "transferOwnership",
			"outputs": [],
			"stateMutability": "nonpayable",
			"type": "function"
		}
	]
}