{
	"data": {
		"bytecode": {
			"linkReferences": {},
			"object": "60c060405234801562000010575f80fd5b506040516200278e3803806200278e8339818101604052810190620000369190620004f3565b620000566200004a6200032f60201b60201c565b6200033660201b60201c565b8260025f6101000a81548173ffffffffffffffffffffffffffffffffffffffff021916908373ffffffffffffffffffffffffffffffffffffffff1602179055508160035f6101000a81548173ffffffffffffffffffffffffffffffffffffffff021916908373ffffffffffffffffffffffffffffffffffffffff1602179055508060045f6101000a81548173ffffffffffffffffffffffffffffffffffffffff021916908373ffffffffffffffffffffffffffffffffffffffff16021790555060025f9054906101000a900473ffffffffffffffffffffffffffffffffffffffff1673ffffffffffffffffffffffffffffffffffffffff1663469895c83330600460025f9054906101000a900473ffffffffffffffffffffffffffffffffffffffff1673ffffffffffffffffffffffffffffffffffffffff166318160ddd6040518163ffffffff1660e01b8152600401602060405180830381865afa158015620001c2573d5f803e3d5ffd5b505050506040513d601f19601f82011682018060405250810190620001e8919062000584565b620001f491906200060e565b6040518463ffffffff1660e01b8152600401620002149392919062000667565b6020604051808303815f875af115801562000231573d5f803e3d5ffd5b505050506040513d601f19601f82011682018060405250810190620002579190620006dc565b50670de0b6b3a764000060025f9054906101000a900473ffffffffffffffffffffffffffffffffffffffff1673ffffffffffffffffffffffffffffffffffffffff166370a08231306040518263ffffffff1660e01b8152600401620002bd91906200070c565b602060405180830381865afa158015620002d9573d5f803e3d5ffd5b505050506040513d601f19601f82011682018060405250810190620002ff919062000584565b6200030b91906200060e565b60055f015f8282546200031f919062000727565b9250508190555050505062000761565b5f33905090565b5f805f9054906101000a900473ffffffffffffffffffffffffffffffffffffffff169050815f806101000a81548173ffffffffffffffffffffffffffffffffffffffff021916908373ffffffffffffffffffffffffffffffffffffffff1602179055508173ffffffffffffffffffffffffffffffffffffffff168173ffffffffffffffffffffffffffffffffffffffff167f8be0079c531659141344cd1fd0a4f28419497f9722a3daafe3b4186f6b6457e060405160405180910390a35050565b5f80fd5b5f73ffffffffffffffffffffffffffffffffffffffff82169050919050565b5f6200042682620003fb565b9050919050565b5f62000439826200041a565b9050919050565b6200044b816200042d565b811462000456575f80fd5b50565b5f81519050620004698162000440565b92915050565b5f6200047b826200041a565b9050919050565b6200048d816200046f565b811462000498575f80fd5b50565b5f81519050620004ab8162000482565b92915050565b5f620004bd826200041a565b9050919050565b620004cf81620004b1565b8114620004da575f80fd5b50565b5f81519050620004ed81620004c4565b92915050565b5f805f606084860312156200050d576200050c620003f7565b5b5f6200051c8682870162000459565b93505060206200052f868287016200049b565b92505060406200054286828701620004dd565b9150509250925092565b5f819050919050565b62000560816200054c565b81146200056b575f80fd5b50565b5f815190506200057e8162000555565b92915050565b5f602082840312156200059c576200059b620003f7565b5b5f620005ab848285016200056e565b91505092915050565b7f4e487b71000000000000000000000000000000000000000000000000000000005f52601260045260245ffd5b7f4e487b71000000000000000000000000000000000000000000000000000000005f52601160045260245ffd5b5f6200061a826200054c565b915062000627836200054c565b9250826200063a5762000639620005b4565b5b828204905092915050565b62000650816200041a565b82525050565b62000661816200054c565b82525050565b5f6060820190506200067c5f83018662000645565b6200068b602083018562000645565b6200069a604083018462000656565b949350505050565b5f8115159050919050565b620006b881620006a2565b8114620006c3575f80fd5b50565b5f81519050620006d681620006ad565b92915050565b5f60208284031215620006f457620006f3620003f7565b5b5f6200070384828501620006c6565b91505092915050565b5f602082019050620007215f83018462000645565b92915050565b5f62000733826200054c565b915062000740836200054c565b92508282019050808211156200075b576200075a620005e1565b5b92915050565b60805160a05161200b620007835f395f6106ad01525f610948015261200b5ff3fe60806040526004361061011e575f3560e01c806383ce61471161009f578063c959360b11610063578063c959360b146103c0578063ccc8ad12146103fc578063e44a998c1461042c578063f2fde38b14610456578063fdcdbae21461047e5761011e565b806383ce6147146102dc5780638da5cb5b146103185780639f62e79614610342578063bc0925ae1461036c578063c2e8caf6146103965761011e565b8063510b7f98116100e6578063510b7f981461020957806352584f581461023357806352946b04146102725780635ac669931461029c578063715018a6146102c65761011e565b80630691badf14610122578063081ed2321461014d5780630e301d241461018a57806314b46527146101b55780632b1c4158146101df575b5f80fd5b34801561012d575f80fd5b506101366104a8565b60405161014492919061127d565b60405180910390f35b348015610158575f80fd5b50610173600480360381019061016e9190611302565b6104b9565b60405161018192919061127d565b60405180910390f35b348015610195575f80fd5b5061019e6104d9565b6040516101ac92919061127d565b60405180910390f35b3480156101c0575f80fd5b506101c96104ea565b6040516101d69190611347565b60405180910390f35b3480156101ea575f80fd5b506101f36105e9565b60405161020091906113bb565b60405180910390f35b348015610214575f80fd5b5061021d61060e565b60405161022a91906113f4565b60405180910390f35b34801561023e575f80fd5b5061025960048036038101906102549190611302565b610633565b6040516102699493929190611495565b60405180910390f35b34801561027d575f80fd5b506102866106ab565b60405161029391906114d8565b60405180910390f35b3480156102a7575f80fd5b506102b06106cf565b6040516102bd91906115d5565b60405180910390f35b3480156102d1575f80fd5b506102da61077b565b005b3480156102e7575f80fd5b5061030260048036038101906102fd919061161f565b61078e565b60405161030f9190611347565b60405180910390f35b348015610323575f80fd5b5061032c610880565b604051610339919061166c565b60405180910390f35b34801561034d575f80fd5b506103566108a7565b60405161036391906114d8565b60405180910390f35b348015610377575f80fd5b50610380610946565b60405161038d91906114d8565b60405180910390f35b3480156103a1575f80fd5b506103aa61096a565b6040516103b791906114d8565b60405180910390f35b3480156103cb575f80fd5b506103e660048036038101906103e19190611302565b610970565b6040516103f391906114d8565b60405180910390f35b61041660048036038101906104119190611685565b610985565b6040516104239190611347565b60405180910390f35b348015610437575f80fd5b50610440610a60565b60405161044d91906114d8565b60405180910390f35b348015610461575f80fd5b5061047c60048036038101906104779190611302565b610a70565b005b348015610489575f80fd5b50610492610af2565b60405161049f91906116d0565b60405180910390f35b6007805f0154908060010154905082565b6009602052805f5260405f205f91509050805f0154908060010154905082565b6005805f0154908060010154905082565b5f61054733670de0b6b3a764000060095f3373ffffffffffffffffffffffffffffffffffffffff1673ffffffffffffffffffffffffffffffffffffffff1681526020019081526020015f205f01546105429190611743565b610b17565b610586576040517f08c379a000000000000000000000000000000000000000000000000000000000815260040161057d906117cd565b60405180910390fd5b6105da600a60095f3373ffffffffffffffffffffffffffffffffffffffff1673ffffffffffffffffffffffffffffffffffffffff1681526020019081526020015f205f01546105d591906117eb565b610c36565b6105e2575f80fd5b6001905090565b60025f9054906101000a900473ffffffffffffffffffffffffffffffffffffffff1681565b60035f9054906101000a900473ffffffffffffffffffffffffffffffffffffffff1681565b600a602052805f5260405f205f91509050805f015f9054906101000a900468ffffffffffffffffff1690805f0160099054906101000a900462ffffff1690805f01600c9054906101000a900463ffffffff1690805f0160109054906101000a90046fffffffffffffffffffffffffffffffff16905084565b7f000000000000000000000000000000000000000000000000000000000000000081565b6060600d5f3373ffffffffffffffffffffffffffffffffffffffff1673ffffffffffffffffffffffffffffffffffffffff1681526020019081526020015f205f01805480602002602001604051908101604052809291908181526020015f905b82821015610772578382905f5260205f2090600202016040518060400160405290815f82015481526020016001820154815250508152602001906001019061072f565b50505050905090565b610783610cdd565b61078c5f610d5b565b565b5f60035f9054906101000a900473ffffffffffffffffffffffffffffffffffffffff1673ffffffffffffffffffffffffffffffffffffffff1663b2c3a7178430856040518463ffffffff1660e01b81526004016107ed9392919061182c565b6020604051808303815f875af1158015610809573d5f803e3d5ffd5b505050506040513d601f19601f8201168201806040525081019061082d919061188b565b61086c576040517f08c379a000000000000000000000000000000000000000000000000000000000815260040161086390611900565b60405180910390fd5b61087583610e1c565b506001905092915050565b5f805f9054906101000a900473ffffffffffffffffffffffffffffffffffffffff16905090565b5f60035f9054906101000a900473ffffffffffffffffffffffffffffffffffffffff1673ffffffffffffffffffffffffffffffffffffffff166370a08231336040518263ffffffff1660e01b8152600401610902919061166c565b602060405180830381865afa15801561091d573d5f803e3d5ffd5b505050506040513d601f19601f820116820180604052508101906109419190611932565b905090565b7f000000000000000000000000000000000000000000000000000000000000000081565b600c5481565b600b602052805f5260405f205f915090505481565b5f61098f82610e4a565b505f61099a83610e73565b6040516020016109aa9190611b85565b604051602081830303815290604052905060035f9054906101000a900473ffffffffffffffffffffffffffffffffffffffff1673ffffffffffffffffffffffffffffffffffffffff16630890d80c826040518263ffffffff1660e01b8152600401610a159190611d1b565b6020604051808303815f875af1158015610a31573d5f803e3d5ffd5b505050506040513d601f19601f82011682018060405250810190610a55919061188b565b506001915050919050565b5f610a6b6001610f3d565b905090565b610a78610cdd565b5f73ffffffffffffffffffffffffffffffffffffffff168173ffffffffffffffffffffffffffffffffffffffff1603610ae6576040517f08c379a0000000000000000000000000000000000000000000000000000000008152600401610add90611dd1565b60405180910390fd5b610aef81610d5b565b50565b60045f9054906101000a900473ffffffffffffffffffffffffffffffffffffffff1681565b5f60025f9054906101000a900473ffffffffffffffffffffffffffffffffffffffff1673ffffffffffffffffffffffffffffffffffffffff1663469895c83085670de0b6b3a764000086610b6b91906117eb565b6040518463ffffffff1660e01b8152600401610b8993929190611def565b6020604051808303815f875af1158015610ba5573d5f803e3d5ffd5b505050506040513d601f19601f82011682018060405250810190610bc9919061188b565b610c08576040517f08c379a0000000000000000000000000000000000000000000000000000000008152600401610bff90611e6e565b60405180910390fd5b8160055f015f828254610c1b9190611e8c565b92505081905550426005600101819055506001905092915050565b5f60045f9054906101000a900473ffffffffffffffffffffffffffffffffffffffff1673ffffffffffffffffffffffffffffffffffffffff166344570b3f33846040518363ffffffff1660e01b8152600401610c93929190611ebf565b6020604051808303815f875af1158015610caf573d5f803e3d5ffd5b505050506040513d601f19601f82011682018060405250810190610cd3919061188b565b5060019050919050565b610ce5610f49565b73ffffffffffffffffffffffffffffffffffffffff16610d03610880565b73ffffffffffffffffffffffffffffffffffffffff1614610d59576040517f08c379a0000000000000000000000000000000000000000000000000000000008152600401610d5090611f30565b60405180910390fd5b565b5f805f9054906101000a900473ffffffffffffffffffffffffffffffffffffffff169050815f806101000a81548173ffffffffffffffffffffffffffffffffffffffff021916908373ffffffffffffffffffffffffffffffffffffffff1602179055508173ffffffffffffffffffffffffffffffffffffffff168173ffffffffffffffffffffffffffffffffffffffff167f8be0079c531659141344cd1fd0a4f28419497f9722a3daafe3b4186f6b6457e060405160405180910390a35050565b5f8160055f015f828254610e309190611f4e565b925050819055504260056001018190555060019050919050565b5f610e5433610f50565b50610e5f338361108d565b50610e6a6001611100565b60019050919050565b60605f6001610e8184611114565b0190505f8167ffffffffffffffff811115610e9f57610e9e611f81565b5b6040519080825280601f01601f191660200182016040528015610ed15781602001600182028036833780820191505090505b5090505f82602001820190505b600115610f32578080600190039150507f3031323334353637383961626364656600000000000000000000000000000000600a86061a8153600a8581610f2757610f266116e9565b5b0494505f8503610ede575b819350505050919050565b5f815f01549050919050565b5f33905090565b5f8060035f9054906101000a900473ffffffffffffffffffffffffffffffffffffffff1673ffffffffffffffffffffffffffffffffffffffff1663f42c69d6845f6040518363ffffffff1660e01b8152600401610fae929190611fae565b6020604051808303815f875af1158015610fca573d5f803e3d5ffd5b505050506040513d601f19601f82011682018060405250810190610fee9190611932565b90505f6040518060400160405280838152602001428152509050600d5f8573ffffffffffffffffffffffffffffffffffffffff1673ffffffffffffffffffffffffffffffffffffffff1681526020019081526020015f205f0181908060018154018082558091505060019003905f5260205f2090600202015f909190919091505f820151815f0155602082015181600101555050600192505050919050565b5f670de0b6b3a7640000826110a291906117eb565b60095f8573ffffffffffffffffffffffffffffffffffffffff1673ffffffffffffffffffffffffffffffffffffffff1681526020019081526020015f205f015f8282546110ef9190611f4e565b925050819055506001905092915050565b6001815f015f828254019250508190555050565b5f805f90507a184f03e93ff9f4daa797ed6e38ed64bf6a1f0100000000000000008310611170577a184f03e93ff9f4daa797ed6e38ed64bf6a1f0100000000000000008381611166576111656116e9565b5b0492506040810190505b6d04ee2d6d415b85acef810000000083106111ad576d04ee2d6d415b85acef810000000083816111a3576111a26116e9565b5b0492506020810190505b662386f26fc1000083106111dc57662386f26fc1000083816111d2576111d16116e9565b5b0492506010810190505b6305f5e1008310611205576305f5e10083816111fb576111fa6116e9565b5b0492506008810190505b612710831061122a5761271083816112205761121f6116e9565b5b0492506004810190505b6064831061124d5760648381611243576112426116e9565b5b0492506002810190505b600a831061125c576001810190505b80915050919050565b5f819050919050565b61127781611265565b82525050565b5f6040820190506112905f83018561126e565b61129d602083018461126e565b9392505050565b5f80fd5b5f73ffffffffffffffffffffffffffffffffffffffff82169050919050565b5f6112d1826112a8565b9050919050565b6112e1816112c7565b81146112eb575f80fd5b50565b5f813590506112fc816112d8565b92915050565b5f60208284031215611317576113166112a4565b5b5f611324848285016112ee565b91505092915050565b5f8115159050919050565b6113418161132d565b82525050565b5f60208201905061135a5f830184611338565b92915050565b5f819050919050565b5f61138361137e611379846112a8565b611360565b6112a8565b9050919050565b5f61139482611369565b9050919050565b5f6113a58261138a565b9050919050565b6113b58161139b565b82525050565b5f6020820190506113ce5f8301846113ac565b92915050565b5f6113de8261138a565b9050919050565b6113ee816113d4565b82525050565b5f6020820190506114075f8301846113e5565b92915050565b5f68ffffffffffffffffff82169050919050565b61142a8161140d565b82525050565b5f62ffffff82169050919050565b61144781611430565b82525050565b5f63ffffffff82169050919050565b6114658161144d565b82525050565b5f6fffffffffffffffffffffffffffffffff82169050919050565b61148f8161146b565b82525050565b5f6080820190506114a85f830187611421565b6114b5602083018661143e565b6114c2604083018561145c565b6114cf6060830184611486565b95945050505050565b5f6020820190506114eb5f83018461126e565b92915050565b5f81519050919050565b5f82825260208201905092915050565b5f819050602082019050919050565b61152381611265565b82525050565b604082015f82015161153d5f85018261151a565b506020820151611550602085018261151a565b50505050565b5f6115618383611529565b60408301905092915050565b5f602082019050919050565b5f611583826114f1565b61158d81856114fb565b93506115988361150b565b805f5b838110156115c85781516115af8882611556565b97506115ba8361156d565b92505060018101905061159b565b5085935050505092915050565b5f6020820190508181035f8301526115ed8184611579565b905092915050565b6115fe81611265565b8114611608575f80fd5b50565b5f81359050611619816115f5565b92915050565b5f8060408385031215611635576116346112a4565b5b5f6116428582860161160b565b92505060206116538582860161160b565b9150509250929050565b611666816112c7565b82525050565b5f60208201905061167f5f83018461165d565b92915050565b5f6020828403121561169a576116996112a4565b5b5f6116a78482850161160b565b91505092915050565b5f6116ba8261138a565b9050919050565b6116ca816116b0565b82525050565b5f6020820190506116e35f8301846116c1565b92915050565b7f4e487b71000000000000000000000000000000000000000000000000000000005f52601260045260245ffd5b7f4e487b71000000000000000000000000000000000000000000000000000000005f52601160045260245ffd5b5f61174d82611265565b915061175883611265565b925082611768576117676116e9565b5b828204905092915050565b5f82825260208201905092915050565b7f4275726e20515645207472616e73666572206572726f720000000000000000005f82015250565b5f6117b7601783611773565b91506117c282611783565b602082019050919050565b5f6020820190508181035f8301526117e4816117ab565b9050919050565b5f6117f582611265565b915061180083611265565b925082820261180e81611265565b9150828204841483151761182557611824611716565b5b5092915050565b5f60608201905061183f5f83018661126e565b61184c602083018561165d565b611859604083018461126e565b949350505050565b61186a8161132d565b8114611874575f80fd5b50565b5f8151905061188581611861565b92915050565b5f602082840312156118a05761189f6112a4565b5b5f6118ad84828501611877565b91505092915050565b7f73686f7274656e206572726f72000000000000000000000000000000000000005f82015250565b5f6118ea600d83611773565b91506118f5826118b6565b602082019050919050565b5f6020820190508181035f830152611917816118de565b9050919050565b5f8151905061192c816115f5565b92915050565b5f60208284031215611947576119466112a4565b5b5f6119548482850161191e565b91505092915050565b5f81905092915050565b7f54686973000000000000000000000000000000000000000000000000000000005f82015250565b5f61199b60048361195d565b91506119a682611967565b600482019050919050565b7f20000000000000000000000000000000000000000000000000000000000000005f82015250565b5f6119e560018361195d565b91506119f0826119b1565b600182019050919050565b7f6e667400000000000000000000000000000000000000000000000000000000005f82015250565b5f611a2f60038361195d565b9150611a3a826119fb565b600382019050919050565b7f67756172616e74656573000000000000000000000000000000000000000000005f82015250565b5f611a79600a8361195d565b9150611a8482611a45565b600a82019050919050565b7f203a2000000000000000000000000000000000000000000000000000000000005f82015250565b5f611ac360038361195d565b9150611ace82611a8f565b600382019050919050565b5f81519050919050565b5f5b83811015611b00578082015181840152602081019050611ae5565b5f8484015250505050565b5f611b1582611ad9565b611b1f818561195d565b9350611b2f818560208601611ae3565b80840191505092915050565b7f45544800000000000000000000000000000000000000000000000000000000005f82015250565b5f611b6f60038361195d565b9150611b7a82611b3b565b600382019050919050565b5f611b8f8261198f565b9150611b9a826119d9565b9150611ba582611a23565b9150611bb0826119d9565b9150611bbb82611a6d565b9150611bc682611ab7565b9150611bd28284611b0b565b9150611bdd826119d9565b9150611be882611b63565b915081905092915050565b7f5374616b696e672047756172616e7465652043617264000000000000000000005f82015250565b5f611c27601683611773565b9150611c3282611bf3565b602082019050919050565b5f601f19601f8301169050919050565b5f611c5782611ad9565b611c618185611773565b9350611c71818560208601611ae3565b611c7a81611c3d565b840191505092915050565b7f68747470733a2f2f697066732e696f2f697066732f516d57456751736b4263745f8201527f514a55617245796376366378506e4d3357723461487a3672476f7132516d547660208201527f7755633f66696c656e616d653d51564577617272616e74792e706e6700000000604082015250565b5f611d05605c83611773565b9150611d1082611c85565b606082019050919050565b5f6060820190508181035f830152611d3281611c1b565b90508181036020830152611d468184611c4d565b90508181036040830152611d5981611cf9565b905092915050565b7f4f776e61626c653a206e6577206f776e657220697320746865207a65726f20615f8201527f6464726573730000000000000000000000000000000000000000000000000000602082015250565b5f611dbb602683611773565b9150611dc682611d61565b604082019050919050565b5f6020820190508181035f830152611de881611daf565b9050919050565b5f606082019050611e025f83018661165d565b611e0f602083018561165d565b611e1c604083018461126e565b949350505050565b7f515645207472616e73666572206572726f7200000000000000000000000000005f82015250565b5f611e58601283611773565b9150611e6382611e24565b602082019050919050565b5f6020820190508181035f830152611e8581611e4c565b9050919050565b5f611e9682611265565b9150611ea183611265565b9250828203905081811115611eb957611eb8611716565b5b92915050565b5f604082019050611ed25f83018561165d565b611edf602083018461126e565b9392505050565b7f4f776e61626c653a2063616c6c6572206973206e6f7420746865206f776e65725f82015250565b5f611f1a602083611773565b9150611f2582611ee6565b602082019050919050565b5f6020820190508181035f830152611f4781611f0e565b9050919050565b5f611f5882611265565b9150611f6383611265565b9250828201905080821115611f7b57611f7a611716565b5b92915050565b7f4e487b71000000000000000000000000000000000000000000000000000000005f52604160045260245ffd5b5f604082019050611fc15f83018561165d565b611fce6020830184611338565b939250505056fea2646970667358221220e0a5b4a1dc25c3e933a922bd488901d440de1757a0bcfa12c608816e52aa8a4064736f6c63430008150033",
			"opcodes": "PUSH1 0xC0 PUSH1 0x40 MSTORE CALLVALUE DUP1 ISZERO PUSH3 0x10 JUMPI PUSH0 DUP1 REVERT JUMPDEST POP PUSH1 0x40 MLOAD PUSH3 0x278E CODESIZE SUB DUP1 PUSH3 0x278E DUP4 CODECOPY DUP2 DUP2 ADD PUSH1 0x40 MSTORE DUP2 ADD SWAP1 PUSH3 0x36 SWAP2 SWAP1 PUSH3 0x4F3 JUMP JUMPDEST PUSH3 0x56 PUSH3 0x4A PUSH3 0x32F PUSH1 0x20 SHL PUSH1 0x20 SHR JUMP JUMPDEST PUSH3 0x336 PUSH1 0x20 SHL PUSH1 0x20 SHR JUMP JUMPDEST DUP3 PUSH1 0x2 PUSH0 PUSH2 0x100 EXP DUP2 SLOAD DUP2 PUSH20 0xFFFFFFFFFFFFFFFFFFFFFFFFFFFFFFFFFFFFFFFF MUL NOT AND SWAP1 DUP4 PUSH20 0xFFFFFFFFFFFFFFFFFFFFFFFFFFFFFFFFFFFFFFFF AND MUL OR SWAP1 SSTORE POP DUP2 PUSH1 0x3 PUSH0 PUSH2 0x100 EXP DUP2 SLOAD DUP2 PUSH20 0xFFFFFFFFFFFFFFFFFFFFFFFFFFFFFFFFFFFFFFFF MUL NOT AND SWAP1 DUP4 PUSH20 0xFFFFFFFFFFFFFFFFFFFFFFFFFFFFFFFFFFFFFFFF AND MUL OR SWAP1 SSTORE POP DUP1 PUSH1 0x4 PUSH0 PUSH2 0x100 EXP DUP2 SLOAD DUP2 PUSH20 0xFFFFFFFFFFFFFFFFFFFFFFFFFFFFFFFFFFFFFFFF MUL NOT AND SWAP1 DUP4 PUSH20 0xFFFFFFFFFFFFFFFFFFFFFFFFFFFFFFFFFFFFFFFF AND MUL OR SWAP1 SSTORE POP PUSH1 0x2 PUSH0 SWAP1 SLOAD SWAP1 PUSH2 0x100 EXP SWAP1 DIV PUSH20 0xFFFFFFFFFFFFFFFFFFFFFFFFFFFFFFFFFFFFFFFF AND PUSH20 0xFFFFFFFFFFFFFFFFFFFFFFFFFFFFFFFFFFFFFFFF AND PUSH4 0x469895C8 CALLER ADDRESS PUSH1 0x4 PUSH1 0x2 PUSH0 SWAP1 SLOAD SWAP1 PUSH2 0x100 EXP SWAP1 DIV PUSH20 0xFFFFFFFFFFFFFFFFFFFFFFFFFFFFFFFFFFFFFFFF AND PUSH20 0xFFFFFFFFFFFFFFFFFFFFFFFFFFFFFFFFFFFFFFFF AND PUSH4 0x18160DDD PUSH1 0x40 MLOAD DUP2 PUSH4 0xFFFFFFFF AND PUSH1 0xE0 SHL DUP2 MSTORE PUSH1 0x4 ADD PUSH1 0x20 PUSH1 0x40 MLOAD DUP1 DUP4 SUB DUP2 DUP7 GAS STATICCALL ISZERO DUP1 ISZERO PUSH3 0x1C2 JUMPI RETURNDATASIZE PUSH0 DUP1 RETURNDATACOPY RETURNDATASIZE PUSH0 REVERT JUMPDEST POP POP POP POP PUSH1 0x40 MLOAD RETURNDATASIZE PUSH1 0x1F NOT PUSH1 0x1F DUP3 ADD AND DUP3 ADD DUP1 PUSH1 0x40 MSTORE POP DUP2 ADD SWAP1 PUSH3 0x1E8 SWAP2 SWAP1 PUSH3 0x584 JUMP JUMPDEST PUSH3 0x1F4 SWAP2 SWAP1 PUSH3 0x60E JUMP JUMPDEST PUSH1 0x40 MLOAD DUP5 PUSH4 0xFFFFFFFF AND PUSH1 0xE0 SHL DUP2 MSTORE PUSH1 0x4 ADD PUSH3 0x214 SWAP4 SWAP3 SWAP2 SWAP1 PUSH3 0x667 JUMP JUMPDEST PUSH1 0x20 PUSH1 0x40 MLOAD DUP1 DUP4 SUB DUP2 PUSH0 DUP8 GAS CALL ISZERO DUP1 ISZERO PUSH3 0x231 JUMPI RETURNDATASIZE PUSH0 DUP1 RETURNDATACOPY RETURNDATASIZE PUSH0 REVERT JUMPDEST POP POP POP POP PUSH1 0x40 MLOAD RETURNDATASIZE PUSH1 0x1F NOT PUSH1 0x1F DUP3 ADD AND DUP3 ADD DUP1 PUSH1 0x40 MSTORE POP DUP2 ADD SWAP1 PUSH3 0x257 SWAP2 SWAP1 PUSH3 0x6DC JUMP JUMPDEST POP PUSH8 0xDE0B6B3A7640000 PUSH1 0x2 PUSH0 SWAP1 SLOAD SWAP1 PUSH2 0x100 EXP SWAP1 DIV PUSH20 0xFFFFFFFFFFFFFFFFFFFFFFFFFFFFFFFFFFFFFFFF AND PUSH20 0xFFFFFFFFFFFFFFFFFFFFFFFFFFFFFFFFFFFFFFFF AND PUSH4 0x70A08231 ADDRESS PUSH1 0x40 MLOAD DUP3 PUSH4 0xFFFFFFFF AND PUSH1 0xE0 SHL DUP2 MSTORE PUSH1 0x4 ADD PUSH3 0x2BD SWAP2 SWAP1 PUSH3 0x70C JUMP JUMPDEST PUSH1 0x20 PUSH1 0x40 MLOAD DUP1 DUP4 SUB DUP2 DUP7 GAS STATICCALL ISZERO DUP1 ISZERO PUSH3 0x2D9 JUMPI RETURNDATASIZE PUSH0 DUP1 RETURNDATACOPY RETURNDATASIZE PUSH0 REVERT JUMPDEST POP POP POP POP PUSH1 0x40 MLOAD RETURNDATASIZE PUSH1 0x1F NOT PUSH1 0x1F DUP3 ADD AND DUP3 ADD DUP1 PUSH1 0x40 MSTORE POP DUP2 ADD SWAP1 PUSH3 0x2FF SWAP2 SWAP1 PUSH3 0x584 JUMP JUMPDEST PUSH3 0x30B SWAP2 SWAP1 PUSH3 0x60E JUMP JUMPDEST PUSH1 0x5 PUSH0 ADD PUSH0 DUP3 DUP3 SLOAD PUSH3 0x31F SWAP2 SWAP1 PUSH3 0x727 JUMP JUMPDEST SWAP3 POP POP DUP2 SWAP1 SSTORE POP POP POP POP PUSH3 0x761 JUMP JUMPDEST PUSH0 CALLER SWAP1 POP SWAP1 JUMP JUMPDEST PUSH0 DUP1 PUSH0 SWAP1 SLOAD SWAP1 PUSH2 0x100 EXP SWAP1 DIV PUSH20 0xFFFFFFFFFFFFFFFFFFFFFFFFFFFFFFFFFFFFFFFF AND SWAP1 POP DUP2 PUSH0 DUP1 PUSH2 0x100 EXP DUP2 SLOAD DUP2 PUSH20 0xFFFFFFFFFFFFFFFFFFFFFFFFFFFFFFFFFFFFFFFF MUL NOT AND SWAP1 DUP4 PUSH20 0xFFFFFFFFFFFFFFFFFFFFFFFFFFFFFFFFFFFFFFFF AND MUL OR SWAP1 SSTORE POP DUP2 PUSH20 0xFFFFFFFFFFFFFFFFFFFFFFFFFFFFFFFFFFFFFFFF AND DUP2 PUSH20 0xFFFFFFFFFFFFFFFFFFFFFFFFFFFFFFFFFFFFFFFF AND PUSH32 0x8BE0079C531659141344CD1FD0A4F28419497F9722A3DAAFE3B4186F6B6457E0 PUSH1 0x40 MLOAD PUSH1 0x40 MLOAD DUP1 SWAP2 SUB SWAP1 LOG3 POP POP JUMP JUMPDEST PUSH0 DUP1 REVERT JUMPDEST PUSH0 PUSH20 0xFFFFFFFFFFFFFFFFFFFFFFFFFFFFFFFFFFFFFFFF DUP3 AND SWAP1 POP SWAP2 SWAP1 POP JUMP JUMPDEST PUSH0 PUSH3 0x426 DUP3 PUSH3 0x3FB JUMP JUMPDEST SWAP1 POP SWAP2 SWAP1 POP JUMP JUMPDEST PUSH0 PUSH3 0x439 DUP3 PUSH3 0x41A JUMP JUMPDEST SWAP1 POP SWAP2 SWAP1 POP JUMP JUMPDEST PUSH3 0x44B DUP2 PUSH3 0x42D JUMP JUMPDEST DUP2 EQ PUSH3 0x456 JUMPI PUSH0 DUP1 REVERT JUMPDEST POP JUMP JUMPDEST PUSH0 DUP2 MLOAD SWAP1 POP PUSH3 0x469 DUP2 PUSH3 0x440 JUMP JUMPDEST SWAP3 SWAP2 POP POP JUMP JUMPDEST PUSH0 PUSH3 0x47B DUP3 PUSH3 0x41A JUMP JUMPDEST SWAP1 POP SWAP2 SWAP1 POP JUMP JUMPDEST PUSH3 0x48D DUP2 PUSH3 0x46F JUMP JUMPDEST DUP2 EQ PUSH3 0x498 JUMPI PUSH0 DUP1 REVERT JUMPDEST POP JUMP JUMPDEST PUSH0 DUP2 MLOAD SWAP1 POP PUSH3 0x4AB DUP2 PUSH3 0x482 JUMP JUMPDEST SWAP3 SWAP2 POP POP JUMP JUMPDEST PUSH0 PUSH3 0x4BD DUP3 PUSH3 0x41A JUMP JUMPDEST SWAP1 POP SWAP2 SWAP1 POP JUMP JUMPDEST PUSH3 0x4CF DUP2 PUSH3 0x4B1 JUMP JUMPDEST DUP2 EQ PUSH3 0x4DA JUMPI PUSH0 DUP1 REVERT JUMPDEST POP JUMP JUMPDEST PUSH0 DUP2 MLOAD SWAP1 POP PUSH3 0x4ED DUP2 PUSH3 0x4C4 JUMP JUMPDEST SWAP3 SWAP2 POP POP JUMP JUMPDEST PUSH0 DUP1 PUSH0 PUSH1 0x60 DUP5 DUP7 SUB SLT ISZERO PUSH3 0x50D JUMPI PUSH3 0x50C PUSH3 0x3F7 JUMP JUMPDEST JUMPDEST PUSH0 PUSH3 0x51C DUP7 DUP3 DUP8 ADD PUSH3 0x459 JUMP JUMPDEST SWAP4 POP POP PUSH1 0x20 PUSH3 0x52F DUP7 DUP3 DUP8 ADD PUSH3 0x49B JUMP JUMPDEST SWAP3 POP POP PUSH1 0x40 PUSH3 0x542 DUP7 DUP3 DUP8 ADD PUSH3 0x4DD JUMP JUMPDEST SWAP2 POP POP SWAP3 POP SWAP3 POP SWAP3 JUMP JUMPDEST PUSH0 DUP2 SWAP1 POP SWAP2 SWAP1 POP JUMP JUMPDEST PUSH3 0x560 DUP2 PUSH3 0x54C JUMP JUMPDEST DUP2 EQ PUSH3 0x56B JUMPI PUSH0 DUP1 REVERT JUMPDEST POP JUMP JUMPDEST PUSH0 DUP2 MLOAD SWAP1 POP PUSH3 0x57E DUP2 PUSH3 0x555 JUMP JUMPDEST SWAP3 SWAP2 POP POP JUMP JUMPDEST PUSH0 PUSH1 0x20 DUP3 DUP5 SUB SLT ISZERO PUSH3 0x59C JUMPI PUSH3 0x59B PUSH3 0x3F7 JUMP JUMPDEST JUMPDEST PUSH0 PUSH3 0x5AB DUP5 DUP3 DUP6 ADD PUSH3 0x56E JUMP JUMPDEST SWAP2 POP POP SWAP3 SWAP2 POP POP JUMP JUMPDEST PUSH32 0x4E487B7100000000000000000000000000000000000000000000000000000000 PUSH0 MSTORE PUSH1 0x12 PUSH1 0x4 MSTORE PUSH1 0x24 PUSH0 REVERT JUMPDEST PUSH32 0x4E487B7100000000000000000000000000000000000000000000000000000000 PUSH0 MSTORE PUSH1 0x11 PUSH1 0x4 MSTORE PUSH1 0x24 PUSH0 REVERT JUMPDEST PUSH0 PUSH3 0x61A DUP3 PUSH3 0x54C JUMP JUMPDEST SWAP2 POP PUSH3 0x627 DUP4 PUSH3 0x54C JUMP JUMPDEST SWAP3 POP DUP3 PUSH3 0x63A JUMPI PUSH3 0x639 PUSH3 0x5B4 JUMP JUMPDEST JUMPDEST DUP3 DUP3 DIV SWAP1 POP SWAP3 SWAP2 POP POP JUMP JUMPDEST PUSH3 0x650 DUP2 PUSH3 0x41A JUMP JUMPDEST DUP3 MSTORE POP POP JUMP JUMPDEST PUSH3 0x661 DUP2 PUSH3 0x54C JUMP JUMPDEST DUP3 MSTORE POP POP JUMP JUMPDEST PUSH0 PUSH1 0x60 DUP3 ADD SWAP1 POP PUSH3 0x67C PUSH0 DUP4 ADD DUP7 PUSH3 0x645 JUMP JUMPDEST PUSH3 0x68B PUSH1 0x20 DUP4 ADD DUP6 PUSH3 0x645 JUMP JUMPDEST PUSH3 0x69A PUSH1 0x40 DUP4 ADD DUP5 PUSH3 0x656 JUMP JUMPDEST SWAP5 SWAP4 POP POP POP POP JUMP JUMPDEST PUSH0 DUP2 ISZERO ISZERO SWAP1 POP SWAP2 SWAP1 POP JUMP JUMPDEST PUSH3 0x6B8 DUP2 PUSH3 0x6A2 JUMP JUMPDEST DUP2 EQ PUSH3 0x6C3 JUMPI PUSH0 DUP1 REVERT JUMPDEST POP JUMP JUMPDEST PUSH0 DUP2 MLOAD SWAP1 POP PUSH3 0x6D6 DUP2 PUSH3 0x6AD JUMP JUMPDEST SWAP3 SWAP2 POP POP JUMP JUMPDEST PUSH0 PUSH1 0x20 DUP3 DUP5 SUB SLT ISZERO PUSH3 0x6F4 JUMPI PUSH3 0x6F3 PUSH3 0x3F7 JUMP JUMPDEST JUMPDEST PUSH0 PUSH3 0x703 DUP5 DUP3 DUP6 ADD PUSH3 0x6C6 JUMP JUMPDEST SWAP2 POP POP SWAP3 SWAP2 POP POP JUMP JUMPDEST PUSH0 PUSH1 0x20 DUP3 ADD SWAP1 POP PUSH3 0x721 PUSH0 DUP4 ADD DUP5 PUSH3 0x645 JUMP JUMPDEST SWAP3 SWAP2 POP POP JUMP JUMPDEST PUSH0 PUSH3 0x733 DUP3 PUSH3 0x54C JUMP JUMPDEST SWAP2 POP PUSH3 0x740 DUP4 PUSH3 0x54C JUMP JUMPDEST SWAP3 POP DUP3 DUP3 ADD SWAP1 POP DUP1 DUP3 GT ISZERO PUSH3 0x75B JUMPI PUSH3 0x75A PUSH3 0x5E1 JUMP JUMPDEST JUMPDEST SWAP3 SWAP2 POP POP JUMP JUMPDEST PUSH1 0x80 MLOAD PUSH1 0xA0 MLOAD PUSH2 0x200B PUSH3 0x783 PUSH0 CODECOPY PUSH0 PUSH2 0x6AD ADD MSTORE PUSH0 PUSH2 0x948 ADD MSTORE PUSH2 0x200B PUSH0 RETURN INVALID PUSH1 0x80 PUSH1 0x40 MSTORE PUSH1 0x4 CALLDATASIZE LT PUSH2 0x11E JUMPI PUSH0 CALLDATALOAD PUSH1 0xE0 SHR DUP1 PUSH4 0x83CE6147 GT PUSH2 0x9F JUMPI DUP1 PUSH4 0xC959360B GT PUSH2 0x63 JUMPI DUP1 PUSH4 0xC959360B EQ PUSH2 0x3C0 JUMPI DUP1 PUSH4 0xCCC8AD12 EQ PUSH2 0x3FC JUMPI DUP1 PUSH4 0xE44A998C EQ PUSH2 0x42C JUMPI DUP1 PUSH4 0xF2FDE38B EQ PUSH2 0x456 JUMPI DUP1 PUSH4 0xFDCDBAE2 EQ PUSH2 0x47E JUMPI PUSH2 0x11E JUMP JUMPDEST DUP1 PUSH4 0x83CE6147 EQ PUSH2 0x2DC JUMPI DUP1 PUSH4 0x8DA5CB5B EQ PUSH2 0x318 JUMPI DUP1 PUSH4 0x9F62E796 EQ PUSH2 0x342 JUMPI DUP1 PUSH4 0xBC0925AE EQ PUSH2 0x36C JUMPI DUP1 PUSH4 0xC2E8CAF6 EQ PUSH2 0x396 JUMPI PUSH2 0x11E JUMP JUMPDEST DUP1 PUSH4 0x510B7F98 GT PUSH2 0xE6 JUMPI DUP1 PUSH4 0x510B7F98 EQ PUSH2 0x209 JUMPI DUP1 PUSH4 0x52584F58 EQ PUSH2 0x233 JUMPI DUP1 PUSH4 0x52946B04 EQ PUSH2 0x272 JUMPI DUP1 PUSH4 0x5AC66993 EQ PUSH2 0x29C JUMPI DUP1 PUSH4 0x715018A6 EQ PUSH2 0x2C6 JUMPI PUSH2 0x11E JUMP JUMPDEST DUP1 PUSH4 0x691BADF EQ PUSH2 0x122 JUMPI DUP1 PUSH4 0x81ED232 EQ PUSH2 0x14D JUMPI DUP1 PUSH4 0xE301D24 EQ PUSH2 0x18A JUMPI DUP1 PUSH4 0x14B46527 EQ PUSH2 0x1B5 JUMPI DUP1 PUSH4 0x2B1C4158 EQ PUSH2 0x1DF JUMPI JUMPDEST PUSH0 DUP1 REVERT JUMPDEST CALLVALUE DUP1 ISZERO PUSH2 0x12D JUMPI PUSH0 DUP1 REVERT JUMPDEST POP PUSH2 0x136 PUSH2 0x4A8 JUMP JUMPDEST PUSH1 0x40 MLOAD PUSH2 0x144 SWAP3 SWAP2 SWAP1 PUSH2 0x127D JUMP JUMPDEST PUSH1 0x40 MLOAD DUP1 SWAP2 SUB SWAP1 RETURN JUMPDEST CALLVALUE DUP1 ISZERO PUSH2 0x158 JUMPI PUSH0 DUP1 REVERT JUMPDEST POP PUSH2 0x173 PUSH1 0x4 DUP1 CALLDATASIZE SUB DUP2 ADD SWAP1 PUSH2 0x16E SWAP2 SWAP1 PUSH2 0x1302 JUMP JUMPDEST PUSH2 0x4B9 JUMP JUMPDEST PUSH1 0x40 MLOAD PUSH2 0x181 SWAP3 SWAP2 SWAP1 PUSH2 0x127D JUMP JUMPDEST PUSH1 0x40 MLOAD DUP1 SWAP2 SUB SWAP1 RETURN JUMPDEST CALLVALUE DUP1 ISZERO PUSH2 0x195 JUMPI PUSH0 DUP1 REVERT JUMPDEST POP PUSH2 0x19E PUSH2 0x4D9 JUMP JUMPDEST PUSH1 0x40 MLOAD PUSH2 0x1AC SWAP3 SWAP2 SWAP1 PUSH2 0x127D JUMP JUMPDEST PUSH1 0x40 MLOAD DUP1 SWAP2 SUB SWAP1 RETURN JUMPDEST CALLVALUE DUP1 ISZERO PUSH2 0x1C0 JUMPI PUSH0 DUP1 REVERT JUMPDEST POP PUSH2 0x1C9 PUSH2 0x4EA JUMP JUMPDEST PUSH1 0x40 MLOAD PUSH2 0x1D6 SWAP2 SWAP1 PUSH2 0x1347 JUMP JUMPDEST PUSH1 0x40 MLOAD DUP1 SWAP2 SUB SWAP1 RETURN JUMPDEST CALLVALUE DUP1 ISZERO PUSH2 0x1EA JUMPI PUSH0 DUP1 REVERT JUMPDEST POP PUSH2 0x1F3 PUSH2 0x5E9 JUMP JUMPDEST PUSH1 0x40 MLOAD PUSH2 0x200 SWAP2 SWAP1 PUSH2 0x13BB JUMP JUMPDEST PUSH1 0x40 MLOAD DUP1 SWAP2 SUB SWAP1 RETURN JUMPDEST CALLVALUE DUP1 ISZERO PUSH2 0x214 JUMPI PUSH0 DUP1 REVERT JUMPDEST POP PUSH2 0x21D PUSH2 0x60E JUMP JUMPDEST PUSH1 0x40 MLOAD PUSH2 0x22A SWAP2 SWAP1 PUSH2 0x13F4 JUMP JUMPDEST PUSH1 0x40 MLOAD DUP1 SWAP2 SUB SWAP1 RETURN JUMPDEST CALLVALUE DUP1 ISZERO PUSH2 0x23E JUMPI PUSH0 DUP1 REVERT JUMPDEST POP PUSH2 0x259 PUSH1 0x4 DUP1 CALLDATASIZE SUB DUP2 ADD SWAP1 PUSH2 0x254 SWAP2 SWAP1 PUSH2 0x1302 JUMP JUMPDEST PUSH2 0x633 JUMP JUMPDEST PUSH1 0x40 MLOAD PUSH2 0x269 SWAP5 SWAP4 SWAP3 SWAP2 SWAP1 PUSH2 0x1495 JUMP JUMPDEST PUSH1 0x40 MLOAD DUP1 SWAP2 SUB SWAP1 RETURN JUMPDEST CALLVALUE DUP1 ISZERO PUSH2 0x27D JUMPI PUSH0 DUP1 REVERT JUMPDEST POP PUSH2 0x286 PUSH2 0x6AB JUMP JUMPDEST PUSH1 0x40 MLOAD PUSH2 0x293 SWAP2 SWAP1 PUSH2 0x14D8 JUMP JUMPDEST PUSH1 0x40 MLOAD DUP1 SWAP2 SUB SWAP1 RETURN JUMPDEST CALLVALUE DUP1 ISZERO PUSH2 0x2A7 JUMPI PUSH0 DUP1 REVERT JUMPDEST POP PUSH2 0x2B0 PUSH2 0x6CF JUMP JUMPDEST PUSH1 0x40 MLOAD PUSH2 0x2BD SWAP2 SWAP1 PUSH2 0x15D5 JUMP JUMPDEST PUSH1 0x40 MLOAD DUP1 SWAP2 SUB SWAP1 RETURN JUMPDEST CALLVALUE DUP1 ISZERO PUSH2 0x2D1 JUMPI PUSH0 DUP1 REVERT JUMPDEST POP PUSH2 0x2DA PUSH2 0x77B JUMP JUMPDEST STOP JUMPDEST CALLVALUE DUP1 ISZERO PUSH2 0x2E7 JUMPI PUSH0 DUP1 REVERT JUMPDEST POP PUSH2 0x302 PUSH1 0x4 DUP1 CALLDATASIZE SUB DUP2 ADD SWAP1 PUSH2 0x2FD SWAP2 SWAP1 PUSH2 0x161F JUMP JUMPDEST PUSH2 0x78E JUMP JUMPDEST PUSH1 0x40 MLOAD PUSH2 0x30F SWAP2 SWAP1 PUSH2 0x1347 JUMP JUMPDEST PUSH1 0x40 MLOAD DUP1 SWAP2 SUB SWAP1 RETURN JUMPDEST CALLVALUE DUP1 ISZERO PUSH2 0x323 JUMPI PUSH0 DUP1 REVERT JUMPDEST POP PUSH2 0x32C PUSH2 0x880 JUMP JUMPDEST PUSH1 0x40 MLOAD PUSH2 0x339 SWAP2 SWAP1 PUSH2 0x166C JUMP JUMPDEST PUSH1 0x40 MLOAD DUP1 SWAP2 SUB SWAP1 RETURN JUMPDEST CALLVALUE DUP1 ISZERO PUSH2 0x34D JUMPI PUSH0 DUP1 REVERT JUMPDEST POP PUSH2 0x356 PUSH2 0x8A7 JUMP JUMPDEST PUSH1 0x40 MLOAD PUSH2 0x363 SWAP2 SWAP1 PUSH2 0x14D8 JUMP JUMPDEST PUSH1 0x40 MLOAD DUP1 SWAP2 SUB SWAP1 RETURN JUMPDEST CALLVALUE DUP1 ISZERO PUSH2 0x377 JUMPI PUSH0 DUP1 REVERT JUMPDEST POP PUSH2 0x380 PUSH2 0x946 JUMP JUMPDEST PUSH1 0x40 MLOAD PUSH2 0x38D SWAP2 SWAP1 PUSH2 0x14D8 JUMP JUMPDEST PUSH1 0x40 MLOAD DUP1 SWAP2 SUB SWAP1 RETURN JUMPDEST CALLVALUE DUP1 ISZERO PUSH2 0x3A1 JUMPI PUSH0 DUP1 REVERT JUMPDEST POP PUSH2 0x3AA PUSH2 0x96A JUMP JUMPDEST PUSH1 0x40 MLOAD PUSH2 0x3B7 SWAP2 SWAP1 PUSH2 0x14D8 JUMP JUMPDEST PUSH1 0x40 MLOAD DUP1 SWAP2 SUB SWAP1 RETURN JUMPDEST CALLVALUE DUP1 ISZERO PUSH2 0x3CB JUMPI PUSH0 DUP1 REVERT JUMPDEST POP PUSH2 0x3E6 PUSH1 0x4 DUP1 CALLDATASIZE SUB DUP2 ADD SWAP1 PUSH2 0x3E1 SWAP2 SWAP1 PUSH2 0x1302 JUMP JUMPDEST PUSH2 0x970 JUMP JUMPDEST PUSH1 0x40 MLOAD PUSH2 0x3F3 SWAP2 SWAP1 PUSH2 0x14D8 JUMP JUMPDEST PUSH1 0x40 MLOAD DUP1 SWAP2 SUB SWAP1 RETURN JUMPDEST PUSH2 0x416 PUSH1 0x4 DUP1 CALLDATASIZE SUB DUP2 ADD SWAP1 PUSH2 0x411 SWAP2 SWAP1 PUSH2 0x1685 JUMP JUMPDEST PUSH2 0x985 JUMP JUMPDEST PUSH1 0x40 MLOAD PUSH2 0x423 SWAP2 SWAP1 PUSH2 0x1347 JUMP JUMPDEST PUSH1 0x40 MLOAD DUP1 SWAP2 SUB SWAP1 RETURN JUMPDEST CALLVALUE DUP1 ISZERO PUSH2 0x437 JUMPI PUSH0 DUP1 REVERT JUMPDEST POP PUSH2 0x440 PUSH2 0xA60 JUMP JUMPDEST PUSH1 0x40 MLOAD PUSH2 0x44D SWAP2 SWAP1 PUSH2 0x14D8 JUMP JUMPDEST PUSH1 0x40 MLOAD DUP1 SWAP2 SUB SWAP1 RETURN JUMPDEST CALLVALUE DUP1 ISZERO PUSH2 0x461 JUMPI PUSH0 DUP1 REVERT JUMPDEST POP PUSH2 0x47C PUSH1 0x4 DUP1 CALLDATASIZE SUB DUP2 ADD SWAP1 PUSH2 0x477 SWAP2 SWAP1 PUSH2 0x1302 JUMP JUMPDEST PUSH2 0xA70 JUMP JUMPDEST STOP JUMPDEST CALLVALUE DUP1 ISZERO PUSH2 0x489 JUMPI PUSH0 DUP1 REVERT JUMPDEST POP PUSH2 0x492 PUSH2 0xAF2 JUMP JUMPDEST PUSH1 0x40 MLOAD PUSH2 0x49F SWAP2 SWAP1 PUSH2 0x16D0 JUMP JUMPDEST PUSH1 0x40 MLOAD DUP1 SWAP2 SUB SWAP1 RETURN JUMPDEST PUSH1 0x7 DUP1 PUSH0 ADD SLOAD SWAP1 DUP1 PUSH1 0x1 ADD SLOAD SWAP1 POP DUP3 JUMP JUMPDEST PUSH1 0x9 PUSH1 0x20 MSTORE DUP1 PUSH0 MSTORE PUSH1 0x40 PUSH0 KECCAK256 PUSH0 SWAP2 POP SWAP1 POP DUP1 PUSH0 ADD SLOAD SWAP1 DUP1 PUSH1 0x1 ADD SLOAD SWAP1 POP DUP3 JUMP JUMPDEST PUSH1 0x5 DUP1 PUSH0 ADD SLOAD SWAP1 DUP1 PUSH1 0x1 ADD SLOAD SWAP1 POP DUP3 JUMP JUMPDEST PUSH0 PUSH2 0x547 CALLER PUSH8 0xDE0B6B3A7640000 PUSH1 0x9 PUSH0 CALLER PUSH20 0xFFFFFFFFFFFFFFFFFFFFFFFFFFFFFFFFFFFFFFFF AND PUSH20 0xFFFFFFFFFFFFFFFFFFFFFFFFFFFFFFFFFFFFFFFF AND DUP2 MSTORE PUSH1 0x20 ADD SWAP1 DUP2 MSTORE PUSH1 0x20 ADD PUSH0 KECCAK256 PUSH0 ADD SLOAD PUSH2 0x542 SWAP2 SWAP1 PUSH2 0x1743 JUMP JUMPDEST PUSH2 0xB17 JUMP JUMPDEST PUSH2 0x586 JUMPI PUSH1 0x40 MLOAD PUSH32 0x8C379A000000000000000000000000000000000000000000000000000000000 DUP2 MSTORE PUSH1 0x4 ADD PUSH2 0x57D SWAP1 PUSH2 0x17CD JUMP JUMPDEST PUSH1 0x40 MLOAD DUP1 SWAP2 SUB SWAP1 REVERT JUMPDEST PUSH2 0x5DA PUSH1 0xA PUSH1 0x9 PUSH0 CALLER PUSH20 0xFFFFFFFFFFFFFFFFFFFFFFFFFFFFFFFFFFFFFFFF AND PUSH20 0xFFFFFFFFFFFFFFFFFFFFFFFFFFFFFFFFFFFFFFFF AND DUP2 MSTORE PUSH1 0x20 ADD SWAP1 DUP2 MSTORE PUSH1 0x20 ADD PUSH0 KECCAK256 PUSH0 ADD SLOAD PUSH2 0x5D5 SWAP2 SWAP1 PUSH2 0x17EB JUMP JUMPDEST PUSH2 0xC36 JUMP JUMPDEST PUSH2 0x5E2 JUMPI PUSH0 DUP1 REVERT JUMPDEST PUSH1 0x1 SWAP1 POP SWAP1 JUMP JUMPDEST PUSH1 0x2 PUSH0 SWAP1 SLOAD SWAP1 PUSH2 0x100 EXP SWAP1 DIV PUSH20 0xFFFFFFFFFFFFFFFFFFFFFFFFFFFFFFFFFFFFFFFF AND DUP2 JUMP JUMPDEST PUSH1 0x3 PUSH0 SWAP1 SLOAD SWAP1 PUSH2 0x100 EXP SWAP1 DIV PUSH20 0xFFFFFFFFFFFFFFFFFFFFFFFFFFFFFFFFFFFFFFFF AND DUP2 JUMP JUMPDEST PUSH1 0xA PUSH1 0x20 MSTORE DUP1 PUSH0 MSTORE PUSH1 0x40 PUSH0 KECCAK256 PUSH0 SWAP2 POP SWAP1 POP DUP1 PUSH0 ADD PUSH0 SWAP1 SLOAD SWAP1 PUSH2 0x100 EXP SWAP1 DIV PUSH9 0xFFFFFFFFFFFFFFFFFF AND SWAP1 DUP1 PUSH0 ADD PUSH1 0x9 SWAP1 SLOAD SWAP1 PUSH2 0x100 EXP SWAP1 DIV PUSH3 0xFFFFFF AND SWAP1 DUP1 PUSH0 ADD PUSH1 0xC SWAP1 SLOAD SWAP1 PUSH2 0x100 EXP SWAP1 DIV PUSH4 0xFFFFFFFF AND SWAP1 DUP1 PUSH0 ADD PUSH1 0x10 SWAP1 SLOAD SWAP1 PUSH2 0x100 EXP SWAP1 DIV PUSH16 0xFFFFFFFFFFFFFFFFFFFFFFFFFFFFFFFF AND SWAP1 POP DUP5 JUMP JUMPDEST PUSH32 0x0 DUP2 JUMP JUMPDEST PUSH1 0x60 PUSH1 0xD PUSH0 CALLER PUSH20 0xFFFFFFFFFFFFFFFFFFFFFFFFFFFFFFFFFFFFFFFF AND PUSH20 0xFFFFFFFFFFFFFFFFFFFFFFFFFFFFFFFFFFFFFFFF AND DUP2 MSTORE PUSH1 0x20 ADD SWAP1 DUP2 MSTORE PUSH1 0x20 ADD PUSH0 KECCAK256 PUSH0 ADD DUP1 SLOAD DUP1 PUSH1 0x20 MUL PUSH1 0x20 ADD PUSH1 0x40 MLOAD SWAP1 DUP2 ADD PUSH1 0x40 MSTORE DUP1 SWAP3 SWAP2 SWAP1 DUP2 DUP2 MSTORE PUSH1 0x20 ADD PUSH0 SWAP1 JUMPDEST DUP3 DUP3 LT ISZERO PUSH2 0x772 JUMPI DUP4 DUP3 SWAP1 PUSH0 MSTORE PUSH1 0x20 PUSH0 KECCAK256 SWAP1 PUSH1 0x2 MUL ADD PUSH1 0x40 MLOAD DUP1 PUSH1 0x40 ADD PUSH1 0x40 MSTORE SWAP1 DUP2 PUSH0 DUP3 ADD SLOAD DUP2 MSTORE PUSH1 0x20 ADD PUSH1 0x1 DUP3 ADD SLOAD DUP2 MSTORE POP POP DUP2 MSTORE PUSH1 0x20 ADD SWAP1 PUSH1 0x1 ADD SWAP1 PUSH2 0x72F JUMP JUMPDEST POP POP POP POP SWAP1 POP SWAP1 JUMP JUMPDEST PUSH2 0x783 PUSH2 0xCDD JUMP JUMPDEST PUSH2 0x78C PUSH0 PUSH2 0xD5B JUMP JUMPDEST JUMP JUMPDEST PUSH0 PUSH1 0x3 PUSH0 SWAP1 SLOAD SWAP1 PUSH2 0x100 EXP SWAP1 DIV PUSH20 0xFFFFFFFFFFFFFFFFFFFFFFFFFFFFFFFFFFFFFFFF AND PUSH20 0xFFFFFFFFFFFFFFFFFFFFFFFFFFFFFFFFFFFFFFFF AND PUSH4 0xB2C3A717 DUP5 ADDRESS DUP6 PUSH1 0x40 MLOAD DUP5 PUSH4 0xFFFFFFFF AND PUSH1 0xE0 SHL DUP2 MSTORE PUSH1 0x4 ADD PUSH2 0x7ED SWAP4 SWAP3 SWAP2 SWAP1 PUSH2 0x182C JUMP JUMPDEST PUSH1 0x20 PUSH1 0x40 MLOAD DUP1 DUP4 SUB DUP2 PUSH0 DUP8 GAS CALL ISZERO DUP1 ISZERO PUSH2 0x809 JUMPI RETURNDATASIZE PUSH0 DUP1 RETURNDATACOPY RETURNDATASIZE PUSH0 REVERT JUMPDEST POP POP POP POP PUSH1 0x40 MLOAD RETURNDATASIZE PUSH1 0x1F NOT PUSH1 0x1F DUP3 ADD AND DUP3 ADD DUP1 PUSH1 0x40 MSTORE POP DUP2 ADD SWAP1 PUSH2 0x82D SWAP2 SWAP1 PUSH2 0x188B JUMP JUMPDEST PUSH2 0x86C JUMPI PUSH1 0x40 MLOAD PUSH32 0x8C379A000000000000000000000000000000000000000000000000000000000 DUP2 MSTORE PUSH1 0x4 ADD PUSH2 0x863 SWAP1 PUSH2 0x1900 JUMP JUMPDEST PUSH1 0x40 MLOAD DUP1 SWAP2 SUB SWAP1 REVERT JUMPDEST PUSH2 0x875 DUP4 PUSH2 0xE1C JUMP JUMPDEST POP PUSH1 0x1 SWAP1 POP SWAP3 SWAP2 POP POP JUMP JUMPDEST PUSH0 DUP1 PUSH0 SWAP1 SLOAD SWAP1 PUSH2 0x100 EXP SWAP1 DIV PUSH20 0xFFFFFFFFFFFFFFFFFFFFFFFFFFFFFFFFFFFFFFFF AND SWAP1 POP SWAP1 JUMP JUMPDEST PUSH0 PUSH1 0x3 PUSH0 SWAP1 SLOAD SWAP1 PUSH2 0x100 EXP SWAP1 DIV PUSH20 0xFFFFFFFFFFFFFFFFFFFFFFFFFFFFFFFFFFFFFFFF AND PUSH20 0xFFFFFFFFFFFFFFFFFFFFFFFFFFFFFFFFFFFFFFFF AND PUSH4 0x70A08231 CALLER PUSH1 0x40 MLOAD DUP3 PUSH4 0xFFFFFFFF AND PUSH1 0xE0 SHL DUP2 MSTORE PUSH1 0x4 ADD PUSH2 0x902 SWAP2 SWAP1 PUSH2 0x166C JUMP JUMPDEST PUSH1 0x20 PUSH1 0x40 MLOAD DUP1 DUP4 SUB DUP2 DUP7 GAS STATICCALL ISZERO DUP1 ISZERO PUSH2 0x91D JUMPI RETURNDATASIZE PUSH0 DUP1 RETURNDATACOPY RETURNDATASIZE PUSH0 REVERT JUMPDEST POP POP POP POP PUSH1 0x40 MLOAD RETURNDATASIZE PUSH1 0x1F NOT PUSH1 0x1F DUP3 ADD AND DUP3 ADD DUP1 PUSH1 0x40 MSTORE POP DUP2 ADD SWAP1 PUSH2 0x941 SWAP2 SWAP1 PUSH2 0x1932 JUMP JUMPDEST SWAP1 POP SWAP1 JUMP JUMPDEST PUSH32 0x0 DUP2 JUMP JUMPDEST PUSH1 0xC SLOAD DUP2 JUMP JUMPDEST PUSH1 0xB PUSH1 0x20 MSTORE DUP1 PUSH0 MSTORE PUSH1 0x40 PUSH0 KECCAK256 PUSH0 SWAP2 POP SWAP1 POP SLOAD DUP2 JUMP JUMPDEST PUSH0 PUSH2 0x98F DUP3 PUSH2 0xE4A JUMP JUMPDEST POP PUSH0 PUSH2 0x99A DUP4 PUSH2 0xE73 JUMP JUMPDEST PUSH1 0x40 MLOAD PUSH1 0x20 ADD PUSH2 0x9AA SWAP2 SWAP1 PUSH2 0x1B85 JUMP JUMPDEST PUSH1 0x40 MLOAD PUSH1 0x20 DUP2 DUP4 SUB SUB DUP2 MSTORE SWAP1 PUSH1 0x40 MSTORE SWAP1 POP PUSH1 0x3 PUSH0 SWAP1 SLOAD SWAP1 PUSH2 0x100 EXP SWAP1 DIV PUSH20 0xFFFFFFFFFFFFFFFFFFFFFFFFFFFFFFFFFFFFFFFF AND PUSH20 0xFFFFFFFFFFFFFFFFFFFFFFFFFFFFFFFFFFFFFFFF AND PUSH4 0x890D80C DUP3 PUSH1 0x40 MLOAD DUP3 PUSH4 0xFFFFFFFF AND PUSH1 0xE0 SHL DUP2 MSTORE PUSH1 0x4 ADD PUSH2 0xA15 SWAP2 SWAP1 PUSH2 0x1D1B JUMP JUMPDEST PUSH1 0x20 PUSH1 0x40 MLOAD DUP1 DUP4 SUB DUP2 PUSH0 DUP8 GAS CALL ISZERO DUP1 ISZERO PUSH2 0xA31 JUMPI RETURNDATASIZE PUSH0 DUP1 RETURNDATACOPY RETURNDATASIZE PUSH0 REVERT JUMPDEST POP POP POP POP PUSH1 0x40 MLOAD RETURNDATASIZE PUSH1 0x1F NOT PUSH1 0x1F DUP3 ADD AND DUP3 ADD DUP1 PUSH1 0x40 MSTORE POP DUP2 ADD SWAP1 PUSH2 0xA55 SWAP2 SWAP1 PUSH2 0x188B JUMP JUMPDEST POP PUSH1 0x1 SWAP2 POP POP SWAP2 SWAP1 POP JUMP JUMPDEST PUSH0 PUSH2 0xA6B PUSH1 0x1 PUSH2 0xF3D JUMP JUMPDEST SWAP1 POP SWAP1 JUMP JUMPDEST PUSH2 0xA78 PUSH2 0xCDD JUMP JUMPDEST PUSH0 PUSH20 0xFFFFFFFFFFFFFFFFFFFFFFFFFFFFFFFFFFFFFFFF AND DUP2 PUSH20 0xFFFFFFFFFFFFFFFFFFFFFFFFFFFFFFFFFFFFFFFF AND SUB PUSH2 0xAE6 JUMPI PUSH1 0x40 MLOAD PUSH32 0x8C379A000000000000000000000000000000000000000000000000000000000 DUP2 MSTORE PUSH1 0x4 ADD PUSH2 0xADD SWAP1 PUSH2 0x1DD1 JUMP JUMPDEST PUSH1 0x40 MLOAD DUP1 SWAP2 SUB SWAP1 REVERT JUMPDEST PUSH2 0xAEF DUP2 PUSH2 0xD5B JUMP JUMPDEST POP JUMP JUMPDEST PUSH1 0x4 PUSH0 SWAP1 SLOAD SWAP1 PUSH2 0x100 EXP SWAP1 DIV PUSH20 0xFFFFFFFFFFFFFFFFFFFFFFFFFFFFFFFFFFFFFFFF AND DUP2 JUMP JUMPDEST PUSH0 PUSH1 0x2 PUSH0 SWAP1 SLOAD SWAP1 PUSH2 0x100 EXP SWAP1 DIV PUSH20 0xFFFFFFFFFFFFFFFFFFFFFFFFFFFFFFFFFFFFFFFF AND PUSH20 0xFFFFFFFFFFFFFFFFFFFFFFFFFFFFFFFFFFFFFFFF AND PUSH4 0x469895C8 ADDRESS DUP6 PUSH8 0xDE0B6B3A7640000 DUP7 PUSH2 0xB6B SWAP2 SWAP1 PUSH2 0x17EB JUMP JUMPDEST PUSH1 0x40 MLOAD DUP5 PUSH4 0xFFFFFFFF AND PUSH1 0xE0 SHL DUP2 MSTORE PUSH1 0x4 ADD PUSH2 0xB89 SWAP4 SWAP3 SWAP2 SWAP1 PUSH2 0x1DEF JUMP JUMPDEST PUSH1 0x20 PUSH1 0x40 MLOAD DUP1 DUP4 SUB DUP2 PUSH0 DUP8 GAS CALL ISZERO DUP1 ISZERO PUSH2 0xBA5 JUMPI RETURNDATASIZE PUSH0 DUP1 RETURNDATACOPY RETURNDATASIZE PUSH0 REVERT JUMPDEST POP POP POP POP PUSH1 0x40 MLOAD RETURNDATASIZE PUSH1 0x1F NOT PUSH1 0x1F DUP3 ADD AND DUP3 ADD DUP1 PUSH1 0x40 MSTORE POP DUP2 ADD SWAP1 PUSH2 0xBC9 SWAP2 SWAP1 PUSH2 0x188B JUMP JUMPDEST PUSH2 0xC08 JUMPI PUSH1 0x40 MLOAD PUSH32 0x8C379A000000000000000000000000000000000000000000000000000000000 DUP2 MSTORE PUSH1 0x4 ADD PUSH2 0xBFF SWAP1 PUSH2 0x1E6E JUMP JUMPDEST PUSH1 0x40 MLOAD DUP1 SWAP2 SUB SWAP1 REVERT JUMPDEST DUP2 PUSH1 0x5 PUSH0 ADD PUSH0 DUP3 DUP3 SLOAD PUSH2 0xC1B SWAP2 SWAP1 PUSH2 0x1E8C JUMP JUMPDEST SWAP3 POP POP DUP2 SWAP1 SSTORE POP TIMESTAMP PUSH1 0x5 PUSH1 0x1 ADD DUP2 SWAP1 SSTORE POP PUSH1 0x1 SWAP1 POP SWAP3 SWAP2 POP POP JUMP JUMPDEST PUSH0 PUSH1 0x4 PUSH0 SWAP1 SLOAD SWAP1 PUSH2 0x100 EXP SWAP1 DIV PUSH20 0xFFFFFFFFFFFFFFFFFFFFFFFFFFFFFFFFFFFFFFFF AND PUSH20 0xFFFFFFFFFFFFFFFFFFFFFFFFFFFFFFFFFFFFFFFF AND PUSH4 0x44570B3F CALLER DUP5 PUSH1 0x40 MLOAD DUP4 PUSH4 0xFFFFFFFF AND PUSH1 0xE0 SHL DUP2 MSTORE PUSH1 0x4 ADD PUSH2 0xC93 SWAP3 SWAP2 SWAP1 PUSH2 0x1EBF JUMP JUMPDEST PUSH1 0x20 PUSH1 0x40 MLOAD DUP1 DUP4 SUB DUP2 PUSH0 DUP8 GAS CALL ISZERO DUP1 ISZERO PUSH2 0xCAF JUMPI RETURNDATASIZE PUSH0 DUP1 RETURNDATACOPY RETURNDATASIZE PUSH0 REVERT JUMPDEST POP POP POP POP PUSH1 0x40 MLOAD RETURNDATASIZE PUSH1 0x1F NOT PUSH1 0x1F DUP3 ADD AND DUP3 ADD DUP1 PUSH1 0x40 MSTORE POP DUP2 ADD SWAP1 PUSH2 0xCD3 SWAP2 SWAP1 PUSH2 0x188B JUMP JUMPDEST POP PUSH1 0x1 SWAP1 POP SWAP2 SWAP1 POP JUMP JUMPDEST PUSH2 0xCE5 PUSH2 0xF49 JUMP JUMPDEST PUSH20 0xFFFFFFFFFFFFFFFFFFFFFFFFFFFFFFFFFFFFFFFF AND PUSH2 0xD03 PUSH2 0x880 JUMP JUMPDEST PUSH20 0xFFFFFFFFFFFFFFFFFFFFFFFFFFFFFFFFFFFFFFFF AND EQ PUSH2 0xD59 JUMPI PUSH1 0x40 MLOAD PUSH32 0x8C379A000000000000000000000000000000000000000000000000000000000 DUP2 MSTORE PUSH1 0x4 ADD PUSH2 0xD50 SWAP1 PUSH2 0x1F30 JUMP JUMPDEST PUSH1 0x40 MLOAD DUP1 SWAP2 SUB SWAP1 REVERT JUMPDEST JUMP JUMPDEST PUSH0 DUP1 PUSH0 SWAP1 SLOAD SWAP1 PUSH2 0x100 EXP SWAP1 DIV PUSH20 0xFFFFFFFFFFFFFFFFFFFFFFFFFFFFFFFFFFFFFFFF AND SWAP1 POP DUP2 PUSH0 DUP1 PUSH2 0x100 EXP DUP2 SLOAD DUP2 PUSH20 0xFFFFFFFFFFFFFFFFFFFFFFFFFFFFFFFFFFFFFFFF MUL NOT AND SWAP1 DUP4 PUSH20 0xFFFFFFFFFFFFFFFFFFFFFFFFFFFFFFFFFFFFFFFF AND MUL OR SWAP1 SSTORE POP DUP2 PUSH20 0xFFFFFFFFFFFFFFFFFFFFFFFFFFFFFFFFFFFFFFFF AND DUP2 PUSH20 0xFFFFFFFFFFFFFFFFFFFFFFFFFFFFFFFFFFFFFFFF AND PUSH32 0x8BE0079C531659141344CD1FD0A4F28419497F9722A3DAAFE3B4186F6B6457E0 PUSH1 0x40 MLOAD PUSH1 0x40 MLOAD DUP1 SWAP2 SUB SWAP1 LOG3 POP POP JUMP JUMPDEST PUSH0 DUP2 PUSH1 0x5 PUSH0 ADD PUSH0 DUP3 DUP3 SLOAD PUSH2 0xE30 SWAP2 SWAP1 PUSH2 0x1F4E JUMP JUMPDEST SWAP3 POP POP DUP2 SWAP1 SSTORE POP TIMESTAMP PUSH1 0x5 PUSH1 0x1 ADD DUP2 SWAP1 SSTORE POP PUSH1 0x1 SWAP1 POP SWAP2 SWAP1 POP JUMP JUMPDEST PUSH0 PUSH2 0xE54 CALLER PUSH2 0xF50 JUMP JUMPDEST POP PUSH2 0xE5F CALLER DUP4 PUSH2 0x108D JUMP JUMPDEST POP PUSH2 0xE6A PUSH1 0x1 PUSH2 0x1100 JUMP JUMPDEST PUSH1 0x1 SWAP1 POP SWAP2 SWAP1 POP JUMP JUMPDEST PUSH1 0x60 PUSH0 PUSH1 0x1 PUSH2 0xE81 DUP5 PUSH2 0x1114 JUMP JUMPDEST ADD SWAP1 POP PUSH0 DUP2 PUSH8 0xFFFFFFFFFFFFFFFF DUP2 GT ISZERO PUSH2 0xE9F JUMPI PUSH2 0xE9E PUSH2 0x1F81 JUMP JUMPDEST JUMPDEST PUSH1 0x40 MLOAD SWAP1 DUP1 DUP3 MSTORE DUP1 PUSH1 0x1F ADD PUSH1 0x1F NOT AND PUSH1 0x20 ADD DUP3 ADD PUSH1 0x40 MSTORE DUP1 ISZERO PUSH2 0xED1 JUMPI DUP2 PUSH1 0x20 ADD PUSH1 0x1 DUP3 MUL DUP1 CALLDATASIZE DUP4 CALLDATACOPY DUP1 DUP3 ADD SWAP2 POP POP SWAP1 POP JUMPDEST POP SWAP1 POP PUSH0 DUP3 PUSH1 0x20 ADD DUP3 ADD SWAP1 POP JUMPDEST PUSH1 0x1 ISZERO PUSH2 0xF32 JUMPI DUP1 DUP1 PUSH1 0x1 SWAP1 SUB SWAP2 POP POP PUSH32 0x3031323334353637383961626364656600000000000000000000000000000000 PUSH1 0xA DUP7 MOD BYTE DUP2 MSTORE8 PUSH1 0xA DUP6 DUP2 PUSH2 0xF27 JUMPI PUSH2 0xF26 PUSH2 0x16E9 JUMP JUMPDEST JUMPDEST DIV SWAP5 POP PUSH0 DUP6 SUB PUSH2 0xEDE JUMPI JUMPDEST DUP2 SWAP4 POP POP POP POP SWAP2 SWAP1 POP JUMP JUMPDEST PUSH0 DUP2 PUSH0 ADD SLOAD SWAP1 POP SWAP2 SWAP1 POP JUMP JUMPDEST PUSH0 CALLER SWAP1 POP SWAP1 JUMP JUMPDEST PUSH0 DUP1 PUSH1 0x3 PUSH0 SWAP1 SLOAD SWAP1 PUSH2 0x100 EXP SWAP1 DIV PUSH20 0xFFFFFFFFFFFFFFFFFFFFFFFFFFFFFFFFFFFFFFFF AND PUSH20 0xFFFFFFFFFFFFFFFFFFFFFFFFFFFFFFFFFFFFFFFF AND PUSH4 0xF42C69D6 DUP5 PUSH0 PUSH1 0x40 MLOAD DUP4 PUSH4 0xFFFFFFFF AND PUSH1 0xE0 SHL DUP2 MSTORE PUSH1 0x4 ADD PUSH2 0xFAE SWAP3 SWAP2 SWAP1 PUSH2 0x1FAE JUMP JUMPDEST PUSH1 0x20 PUSH1 0x40 MLOAD DUP1 DUP4 SUB DUP2 PUSH0 DUP8 GAS CALL ISZERO DUP1 ISZERO PUSH2 0xFCA JUMPI RETURNDATASIZE PUSH0 DUP1 RETURNDATACOPY RETURNDATASIZE PUSH0 REVERT JUMPDEST POP POP POP POP PUSH1 0x40 MLOAD RETURNDATASIZE PUSH1 0x1F NOT PUSH1 0x1F DUP3 ADD AND DUP3 ADD DUP1 PUSH1 0x40 MSTORE POP DUP2 ADD SWAP1 PUSH2 0xFEE SWAP2 SWAP1 PUSH2 0x1932 JUMP JUMPDEST SWAP1 POP PUSH0 PUSH1 0x40 MLOAD DUP1 PUSH1 0x40 ADD PUSH1 0x40 MSTORE DUP1 DUP4 DUP2 MSTORE PUSH1 0x20 ADD TIMESTAMP DUP2 MSTORE POP SWAP1 POP PUSH1 0xD PUSH0 DUP6 PUSH20 0xFFFFFFFFFFFFFFFFFFFFFFFFFFFFFFFFFFFFFFFF AND PUSH20 0xFFFFFFFFFFFFFFFFFFFFFFFFFFFFFFFFFFFFFFFF AND DUP2 MSTORE PUSH1 0x20 ADD SWAP1 DUP2 MSTORE PUSH1 0x20 ADD PUSH0 KECCAK256 PUSH0 ADD DUP2 SWAP1 DUP1 PUSH1 0x1 DUP2 SLOAD ADD DUP1 DUP3 SSTORE DUP1 SWAP2 POP POP PUSH1 0x1 SWAP1 SUB SWAP1 PUSH0 MSTORE PUSH1 0x20 PUSH0 KECCAK256 SWAP1 PUSH1 0x2 MUL ADD PUSH0 SWAP1 SWAP2 SWAP1 SWAP2 SWAP1 SWAP2 POP PUSH0 DUP3 ADD MLOAD DUP2 PUSH0 ADD SSTORE PUSH1 0x20 DUP3 ADD MLOAD DUP2 PUSH1 0x1 ADD SSTORE POP POP PUSH1 0x1 SWAP3 POP POP POP SWAP2 SWAP1 POP JUMP JUMPDEST PUSH0 PUSH8 0xDE0B6B3A7640000 DUP3 PUSH2 0x10A2 SWAP2 SWAP1 PUSH2 0x17EB JUMP JUMPDEST PUSH1 0x9 PUSH0 DUP6 PUSH20 0xFFFFFFFFFFFFFFFFFFFFFFFFFFFFFFFFFFFFFFFF AND PUSH20 0xFFFFFFFFFFFFFFFFFFFFFFFFFFFFFFFFFFFFFFFF AND DUP2 MSTORE PUSH1 0x20 ADD SWAP1 DUP2 MSTORE PUSH1 0x20 ADD PUSH0 KECCAK256 PUSH0 ADD PUSH0 DUP3 DUP3 SLOAD PUSH2 0x10EF SWAP2 SWAP1 PUSH2 0x1F4E JUMP JUMPDEST SWAP3 POP POP DUP2 SWAP1 SSTORE POP PUSH1 0x1 SWAP1 POP SWAP3 SWAP2 POP POP JUMP JUMPDEST PUSH1 0x1 DUP2 PUSH0 ADD PUSH0 DUP3 DUP3 SLOAD ADD SWAP3 POP POP DUP2 SWAP1 SSTORE POP POP JUMP JUMPDEST PUSH0 DUP1 PUSH0 SWAP1 POP PUSH27 0x184F03E93FF9F4DAA797ED6E38ED64BF6A1F010000000000000000 DUP4 LT PUSH2 0x1170 JUMPI PUSH27 0x184F03E93FF9F4DAA797ED6E38ED64BF6A1F010000000000000000 DUP4 DUP2 PUSH2 0x1166 JUMPI PUSH2 0x1165 PUSH2 0x16E9 JUMP JUMPDEST JUMPDEST DIV SWAP3 POP PUSH1 0x40 DUP2 ADD SWAP1 POP JUMPDEST PUSH14 0x4EE2D6D415B85ACEF8100000000 DUP4 LT PUSH2 0x11AD JUMPI PUSH14 0x4EE2D6D415B85ACEF8100000000 DUP4 DUP2 PUSH2 0x11A3 JUMPI PUSH2 0x11A2 PUSH2 0x16E9 JUMP JUMPDEST JUMPDEST DIV SWAP3 POP PUSH1 0x20 DUP2 ADD SWAP1 POP JUMPDEST PUSH7 0x2386F26FC10000 DUP4 LT PUSH2 0x11DC JUMPI PUSH7 0x2386F26FC10000 DUP4 DUP2 PUSH2 0x11D2 JUMPI PUSH2 0x11D1 PUSH2 0x16E9 JUMP JUMPDEST JUMPDEST DIV SWAP3 POP PUSH1 0x10 DUP2 ADD SWAP1 POP JUMPDEST PUSH4 0x5F5E100 DUP4 LT PUSH2 0x1205 JUMPI PUSH4 0x5F5E100 DUP4 DUP2 PUSH2 0x11FB JUMPI PUSH2 0x11FA PUSH2 0x16E9 JUMP JUMPDEST JUMPDEST DIV SWAP3 POP PUSH1 0x8 DUP2 ADD SWAP1 POP JUMPDEST PUSH2 0x2710 DUP4 LT PUSH2 0x122A JUMPI PUSH2 0x2710 DUP4 DUP2 PUSH2 0x1220 JUMPI PUSH2 0x121F PUSH2 0x16E9 JUMP JUMPDEST JUMPDEST DIV SWAP3 POP PUSH1 0x4 DUP2 ADD SWAP1 POP JUMPDEST PUSH1 0x64 DUP4 LT PUSH2 0x124D JUMPI PUSH1 0x64 DUP4 DUP2 PUSH2 0x1243 JUMPI PUSH2 0x1242 PUSH2 0x16E9 JUMP JUMPDEST JUMPDEST DIV SWAP3 POP PUSH1 0x2 DUP2 ADD SWAP1 POP JUMPDEST PUSH1 0xA DUP4 LT PUSH2 0x125C JUMPI PUSH1 0x1 DUP2 ADD SWAP1 POP JUMPDEST DUP1 SWAP2 POP POP SWAP2 SWAP1 POP JUMP JUMPDEST PUSH0 DUP2 SWAP1 POP SWAP2 SWAP1 POP JUMP JUMPDEST PUSH2 0x1277 DUP2 PUSH2 0x1265 JUMP JUMPDEST DUP3 MSTORE POP POP JUMP JUMPDEST PUSH0 PUSH1 0x40 DUP3 ADD SWAP1 POP PUSH2 0x1290 PUSH0 DUP4 ADD DUP6 PUSH2 0x126E JUMP JUMPDEST PUSH2 0x129D PUSH1 0x20 DUP4 ADD DUP5 PUSH2 0x126E JUMP JUMPDEST SWAP4 SWAP3 POP POP POP JUMP JUMPDEST PUSH0 DUP1 REVERT JUMPDEST PUSH0 PUSH20 0xFFFFFFFFFFFFFFFFFFFFFFFFFFFFFFFFFFFFFFFF DUP3 AND SWAP1 POP SWAP2 SWAP1 POP JUMP JUMPDEST PUSH0 PUSH2 0x12D1 DUP3 PUSH2 0x12A8 JUMP JUMPDEST SWAP1 POP SWAP2 SWAP1 POP JUMP JUMPDEST PUSH2 0x12E1 DUP2 PUSH2 0x12C7 JUMP JUMPDEST DUP2 EQ PUSH2 0x12EB JUMPI PUSH0 DUP1 REVERT JUMPDEST POP JUMP JUMPDEST PUSH0 DUP2 CALLDATALOAD SWAP1 POP PUSH2 0x12FC DUP2 PUSH2 0x12D8 JUMP JUMPDEST SWAP3 SWAP2 POP POP JUMP JUMPDEST PUSH0 PUSH1 0x20 DUP3 DUP5 SUB SLT ISZERO PUSH2 0x1317 JUMPI PUSH2 0x1316 PUSH2 0x12A4 JUMP JUMPDEST JUMPDEST PUSH0 PUSH2 0x1324 DUP5 DUP3 DUP6 ADD PUSH2 0x12EE JUMP JUMPDEST SWAP2 POP POP SWAP3 SWAP2 POP POP JUMP JUMPDEST PUSH0 DUP2 ISZERO ISZERO SWAP1 POP SWAP2 SWAP1 POP JUMP JUMPDEST PUSH2 0x1341 DUP2 PUSH2 0x132D JUMP JUMPDEST DUP3 MSTORE POP POP JUMP JUMPDEST PUSH0 PUSH1 0x20 DUP3 ADD SWAP1 POP PUSH2 0x135A PUSH0 DUP4 ADD DUP5 PUSH2 0x1338 JUMP JUMPDEST SWAP3 SWAP2 POP POP JUMP JUMPDEST PUSH0 DUP2 SWAP1 POP SWAP2 SWAP1 POP JUMP JUMPDEST PUSH0 PUSH2 0x1383 PUSH2 0x137E PUSH2 0x1379 DUP5 PUSH2 0x12A8 JUMP JUMPDEST PUSH2 0x1360 JUMP JUMPDEST PUSH2 0x12A8 JUMP JUMPDEST SWAP1 POP SWAP2 SWAP1 POP JUMP JUMPDEST PUSH0 PUSH2 0x1394 DUP3 PUSH2 0x1369 JUMP JUMPDEST SWAP1 POP SWAP2 SWAP1 POP JUMP JUMPDEST PUSH0 PUSH2 0x13A5 DUP3 PUSH2 0x138A JUMP JUMPDEST SWAP1 POP SWAP2 SWAP1 POP JUMP JUMPDEST PUSH2 0x13B5 DUP2 PUSH2 0x139B JUMP JUMPDEST DUP3 MSTORE POP POP JUMP JUMPDEST PUSH0 PUSH1 0x20 DUP3 ADD SWAP1 POP PUSH2 0x13CE PUSH0 DUP4 ADD DUP5 PUSH2 0x13AC JUMP JUMPDEST SWAP3 SWAP2 POP POP JUMP JUMPDEST PUSH0 PUSH2 0x13DE DUP3 PUSH2 0x138A JUMP JUMPDEST SWAP1 POP SWAP2 SWAP1 POP JUMP JUMPDEST PUSH2 0x13EE DUP2 PUSH2 0x13D4 JUMP JUMPDEST DUP3 MSTORE POP POP JUMP JUMPDEST PUSH0 PUSH1 0x20 DUP3 ADD SWAP1 POP PUSH2 0x1407 PUSH0 DUP4 ADD DUP5 PUSH2 0x13E5 JUMP JUMPDEST SWAP3 SWAP2 POP POP JUMP JUMPDEST PUSH0 PUSH9 0xFFFFFFFFFFFFFFFFFF DUP3 AND SWAP1 POP SWAP2 SWAP1 POP JUMP JUMPDEST PUSH2 0x142A DUP2 PUSH2 0x140D JUMP JUMPDEST DUP3 MSTORE POP POP JUMP JUMPDEST PUSH0 PUSH3 0xFFFFFF DUP3 AND SWAP1 POP SWAP2 SWAP1 POP JUMP JUMPDEST PUSH2 0x1447 DUP2 PUSH2 0x1430 JUMP JUMPDEST DUP3 MSTORE POP POP JUMP JUMPDEST PUSH0 PUSH4 0xFFFFFFFF DUP3 AND SWAP1 POP SWAP2 SWAP1 POP JUMP JUMPDEST PUSH2 0x1465 DUP2 PUSH2 0x144D JUMP JUMPDEST DUP3 MSTORE POP POP JUMP JUMPDEST PUSH0 PUSH16 0xFFFFFFFFFFFFFFFFFFFFFFFFFFFFFFFF DUP3 AND SWAP1 POP SWAP2 SWAP1 POP JUMP JUMPDEST PUSH2 0x148F DUP2 PUSH2 0x146B JUMP JUMPDEST DUP3 MSTORE POP POP JUMP JUMPDEST PUSH0 PUSH1 0x80 DUP3 ADD SWAP1 POP PUSH2 0x14A8 PUSH0 DUP4 ADD DUP8 PUSH2 0x1421 JUMP JUMPDEST PUSH2 0x14B5 PUSH1 0x20 DUP4 ADD DUP7 PUSH2 0x143E JUMP JUMPDEST PUSH2 0x14C2 PUSH1 0x40 DUP4 ADD DUP6 PUSH2 0x145C JUMP JUMPDEST PUSH2 0x14CF PUSH1 0x60 DUP4 ADD DUP5 PUSH2 0x1486 JUMP JUMPDEST SWAP6 SWAP5 POP POP POP POP POP JUMP JUMPDEST PUSH0 PUSH1 0x20 DUP3 ADD SWAP1 POP PUSH2 0x14EB PUSH0 DUP4 ADD DUP5 PUSH2 0x126E JUMP JUMPDEST SWAP3 SWAP2 POP POP JUMP JUMPDEST PUSH0 DUP2 MLOAD SWAP1 POP SWAP2 SWAP1 POP JUMP JUMPDEST PUSH0 DUP3 DUP3 MSTORE PUSH1 0x20 DUP3 ADD SWAP1 POP SWAP3 SWAP2 POP POP JUMP JUMPDEST PUSH0 DUP2 SWAP1 POP PUSH1 0x20 DUP3 ADD SWAP1 POP SWAP2 SWAP1 POP JUMP JUMPDEST PUSH2 0x1523 DUP2 PUSH2 0x1265 JUMP JUMPDEST DUP3 MSTORE POP POP JUMP JUMPDEST PUSH1 0x40 DUP3 ADD PUSH0 DUP3 ADD MLOAD PUSH2 0x153D PUSH0 DUP6 ADD DUP3 PUSH2 0x151A JUMP JUMPDEST POP PUSH1 0x20 DUP3 ADD MLOAD PUSH2 0x1550 PUSH1 0x20 DUP6 ADD DUP3 PUSH2 0x151A JUMP JUMPDEST POP POP POP POP JUMP JUMPDEST PUSH0 PUSH2 0x1561 DUP4 DUP4 PUSH2 0x1529 JUMP JUMPDEST PUSH1 0x40 DUP4 ADD SWAP1 POP SWAP3 SWAP2 POP POP JUMP JUMPDEST PUSH0 PUSH1 0x20 DUP3 ADD SWAP1 POP SWAP2 SWAP1 POP JUMP JUMPDEST PUSH0 PUSH2 0x1583 DUP3 PUSH2 0x14F1 JUMP JUMPDEST PUSH2 0x158D DUP2 DUP6 PUSH2 0x14FB JUMP JUMPDEST SWAP4 POP PUSH2 0x1598 DUP4 PUSH2 0x150B JUMP JUMPDEST DUP1 PUSH0 JUMPDEST DUP4 DUP2 LT ISZERO PUSH2 0x15C8 JUMPI DUP2 MLOAD PUSH2 0x15AF DUP9 DUP3 PUSH2 0x1556 JUMP JUMPDEST SWAP8 POP PUSH2 0x15BA DUP4 PUSH2 0x156D JUMP JUMPDEST SWAP3 POP POP PUSH1 0x1 DUP2 ADD SWAP1 POP PUSH2 0x159B JUMP JUMPDEST POP DUP6 SWAP4 POP POP POP POP SWAP3 SWAP2 POP POP JUMP JUMPDEST PUSH0 PUSH1 0x20 DUP3 ADD SWAP1 POP DUP2 DUP2 SUB PUSH0 DUP4 ADD MSTORE PUSH2 0x15ED DUP2 DUP5 PUSH2 0x1579 JUMP JUMPDEST SWAP1 POP SWAP3 SWAP2 POP POP JUMP JUMPDEST PUSH2 0x15FE DUP2 PUSH2 0x1265 JUMP JUMPDEST DUP2 EQ PUSH2 0x1608 JUMPI PUSH0 DUP1 REVERT JUMPDEST POP JUMP JUMPDEST PUSH0 DUP2 CALLDATALOAD SWAP1 POP PUSH2 0x1619 DUP2 PUSH2 0x15F5 JUMP JUMPDEST SWAP3 SWAP2 POP POP JUMP JUMPDEST PUSH0 DUP1 PUSH1 0x40 DUP4 DUP6 SUB SLT ISZERO PUSH2 0x1635 JUMPI PUSH2 0x1634 PUSH2 0x12A4 JUMP JUMPDEST JUMPDEST PUSH0 PUSH2 0x1642 DUP6 DUP3 DUP7 ADD PUSH2 0x160B JUMP JUMPDEST SWAP3 POP POP PUSH1 0x20 PUSH2 0x1653 DUP6 DUP3 DUP7 ADD PUSH2 0x160B JUMP JUMPDEST SWAP2 POP POP SWAP3 POP SWAP3 SWAP1 POP JUMP JUMPDEST PUSH2 0x1666 DUP2 PUSH2 0x12C7 JUMP JUMPDEST DUP3 MSTORE POP POP JUMP JUMPDEST PUSH0 PUSH1 0x20 DUP3 ADD SWAP1 POP PUSH2 0x167F PUSH0 DUP4 ADD DUP5 PUSH2 0x165D JUMP JUMPDEST SWAP3 SWAP2 POP POP JUMP JUMPDEST PUSH0 PUSH1 0x20 DUP3 DUP5 SUB SLT ISZERO PUSH2 0x169A JUMPI PUSH2 0x1699 PUSH2 0x12A4 JUMP JUMPDEST JUMPDEST PUSH0 PUSH2 0x16A7 DUP5 DUP3 DUP6 ADD PUSH2 0x160B JUMP JUMPDEST SWAP2 POP POP SWAP3 SWAP2 POP POP JUMP JUMPDEST PUSH0 PUSH2 0x16BA DUP3 PUSH2 0x138A JUMP JUMPDEST SWAP1 POP SWAP2 SWAP1 POP JUMP JUMPDEST PUSH2 0x16CA DUP2 PUSH2 0x16B0 JUMP JUMPDEST DUP3 MSTORE POP POP JUMP JUMPDEST PUSH0 PUSH1 0x20 DUP3 ADD SWAP1 POP PUSH2 0x16E3 PUSH0 DUP4 ADD DUP5 PUSH2 0x16C1 JUMP JUMPDEST SWAP3 SWAP2 POP POP JUMP JUMPDEST PUSH32 0x4E487B7100000000000000000000000000000000000000000000000000000000 PUSH0 MSTORE PUSH1 0x12 PUSH1 0x4 MSTORE PUSH1 0x24 PUSH0 REVERT JUMPDEST PUSH32 0x4E487B7100000000000000000000000000000000000000000000000000000000 PUSH0 MSTORE PUSH1 0x11 PUSH1 0x4 MSTORE PUSH1 0x24 PUSH0 REVERT JUMPDEST PUSH0 PUSH2 0x174D DUP3 PUSH2 0x1265 JUMP JUMPDEST SWAP2 POP PUSH2 0x1758 DUP4 PUSH2 0x1265 JUMP JUMPDEST SWAP3 POP DUP3 PUSH2 0x1768 JUMPI PUSH2 0x1767 PUSH2 0x16E9 JUMP JUMPDEST JUMPDEST DUP3 DUP3 DIV SWAP1 POP SWAP3 SWAP2 POP POP JUMP JUMPDEST PUSH0 DUP3 DUP3 MSTORE PUSH1 0x20 DUP3 ADD SWAP1 POP SWAP3 SWAP2 POP POP JUMP JUMPDEST PUSH32 0x4275726E20515645207472616E73666572206572726F72000000000000000000 PUSH0 DUP3 ADD MSTORE POP JUMP JUMPDEST PUSH0 PUSH2 0x17B7 PUSH1 0x17 DUP4 PUSH2 0x1773 JUMP JUMPDEST SWAP2 POP PUSH2 0x17C2 DUP3 PUSH2 0x1783 JUMP JUMPDEST PUSH1 0x20 DUP3 ADD SWAP1 POP SWAP2 SWAP1 POP JUMP JUMPDEST PUSH0 PUSH1 0x20 DUP3 ADD SWAP1 POP DUP2 DUP2 SUB PUSH0 DUP4 ADD MSTORE PUSH2 0x17E4 DUP2 PUSH2 0x17AB JUMP JUMPDEST SWAP1 POP SWAP2 SWAP1 POP JUMP JUMPDEST PUSH0 PUSH2 0x17F5 DUP3 PUSH2 0x1265 JUMP JUMPDEST SWAP2 POP PUSH2 0x1800 DUP4 PUSH2 0x1265 JUMP JUMPDEST SWAP3 POP DUP3 DUP3 MUL PUSH2 0x180E DUP2 PUSH2 0x1265 JUMP JUMPDEST SWAP2 POP DUP3 DUP3 DIV DUP5 EQ DUP4 ISZERO OR PUSH2 0x1825 JUMPI PUSH2 0x1824 PUSH2 0x1716 JUMP JUMPDEST JUMPDEST POP SWAP3 SWAP2 POP POP JUMP JUMPDEST PUSH0 PUSH1 0x60 DUP3 ADD SWAP1 POP PUSH2 0x183F PUSH0 DUP4 ADD DUP7 PUSH2 0x126E JUMP JUMPDEST PUSH2 0x184C PUSH1 0x20 DUP4 ADD DUP6 PUSH2 0x165D JUMP JUMPDEST PUSH2 0x1859 PUSH1 0x40 DUP4 ADD DUP5 PUSH2 0x126E JUMP JUMPDEST SWAP5 SWAP4 POP POP POP POP JUMP JUMPDEST PUSH2 0x186A DUP2 PUSH2 0x132D JUMP JUMPDEST DUP2 EQ PUSH2 0x1874 JUMPI PUSH0 DUP1 REVERT JUMPDEST POP JUMP JUMPDEST PUSH0 DUP2 MLOAD SWAP1 POP PUSH2 0x1885 DUP2 PUSH2 0x1861 JUMP JUMPDEST SWAP3 SWAP2 POP POP JUMP JUMPDEST PUSH0 PUSH1 0x20 DUP3 DUP5 SUB SLT ISZERO PUSH2 0x18A0 JUMPI PUSH2 0x189F PUSH2 0x12A4 JUMP JUMPDEST JUMPDEST PUSH0 PUSH2 0x18AD DUP5 DUP3 DUP6 ADD PUSH2 0x1877 JUMP JUMPDEST SWAP2 POP POP SWAP3 SWAP2 POP POP JUMP JUMPDEST PUSH32 0x73686F7274656E206572726F7200000000000000000000000000000000000000 PUSH0 DUP3 ADD MSTORE POP JUMP JUMPDEST PUSH0 PUSH2 0x18EA PUSH1 0xD DUP4 PUSH2 0x1773 JUMP JUMPDEST SWAP2 POP PUSH2 0x18F5 DUP3 PUSH2 0x18B6 JUMP JUMPDEST PUSH1 0x20 DUP3 ADD SWAP1 POP SWAP2 SWAP1 POP JUMP JUMPDEST PUSH0 PUSH1 0x20 DUP3 ADD SWAP1 POP DUP2 DUP2 SUB PUSH0 DUP4 ADD MSTORE PUSH2 0x1917 DUP2 PUSH2 0x18DE JUMP JUMPDEST SWAP1 POP SWAP2 SWAP1 POP JUMP JUMPDEST PUSH0 DUP2 MLOAD SWAP1 POP PUSH2 0x192C DUP2 PUSH2 0x15F5 JUMP JUMPDEST SWAP3 SWAP2 POP POP JUMP JUMPDEST PUSH0 PUSH1 0x20 DUP3 DUP5 SUB SLT ISZERO PUSH2 0x1947 JUMPI PUSH2 0x1946 PUSH2 0x12A4 JUMP JUMPDEST JUMPDEST PUSH0 PUSH2 0x1954 DUP5 DUP3 DUP6 ADD PUSH2 0x191E JUMP JUMPDEST SWAP2 POP POP SWAP3 SWAP2 POP POP JUMP JUMPDEST PUSH0 DUP2 SWAP1 POP SWAP3 SWAP2 POP POP JUMP JUMPDEST PUSH32 0x5468697300000000000000000000000000000000000000000000000000000000 PUSH0 DUP3 ADD MSTORE POP JUMP JUMPDEST PUSH0 PUSH2 0x199B PUSH1 0x4 DUP4 PUSH2 0x195D JUMP JUMPDEST SWAP2 POP PUSH2 0x19A6 DUP3 PUSH2 0x1967 JUMP JUMPDEST PUSH1 0x4 DUP3 ADD SWAP1 POP SWAP2 SWAP1 POP JUMP JUMPDEST PUSH32 0x2000000000000000000000000000000000000000000000000000000000000000 PUSH0 DUP3 ADD MSTORE POP JUMP JUMPDEST PUSH0 PUSH2 0x19E5 PUSH1 0x1 DUP4 PUSH2 0x195D JUMP JUMPDEST SWAP2 POP PUSH2 0x19F0 DUP3 PUSH2 0x19B1 JUMP JUMPDEST PUSH1 0x1 DUP3 ADD SWAP1 POP SWAP2 SWAP1 POP JUMP JUMPDEST PUSH32 0x6E66740000000000000000000000000000000000000000000000000000000000 PUSH0 DUP3 ADD MSTORE POP JUMP JUMPDEST PUSH0 PUSH2 0x1A2F PUSH1 0x3 DUP4 PUSH2 0x195D JUMP JUMPDEST SWAP2 POP PUSH2 0x1A3A DUP3 PUSH2 0x19FB JUMP JUMPDEST PUSH1 0x3 DUP3 ADD SWAP1 POP SWAP2 SWAP1 POP JUMP JUMPDEST PUSH32 0x67756172616E7465657300000000000000000000000000000000000000000000 PUSH0 DUP3 ADD MSTORE POP JUMP JUMPDEST PUSH0 PUSH2 0x1A79 PUSH1 0xA DUP4 PUSH2 0x195D JUMP JUMPDEST SWAP2 POP PUSH2 0x1A84 DUP3 PUSH2 0x1A45 JUMP JUMPDEST PUSH1 0xA DUP3 ADD SWAP1 POP SWAP2 SWAP1 POP JUMP JUMPDEST PUSH32 0x203A200000000000000000000000000000000000000000000000000000000000 PUSH0 DUP3 ADD MSTORE POP JUMP JUMPDEST PUSH0 PUSH2 0x1AC3 PUSH1 0x3 DUP4 PUSH2 0x195D JUMP JUMPDEST SWAP2 POP PUSH2 0x1ACE DUP3 PUSH2 0x1A8F JUMP JUMPDEST PUSH1 0x3 DUP3 ADD SWAP1 POP SWAP2 SWAP1 POP JUMP JUMPDEST PUSH0 DUP2 MLOAD SWAP1 POP SWAP2 SWAP1 POP JUMP JUMPDEST PUSH0 JUMPDEST DUP4 DUP2 LT ISZERO PUSH2 0x1B00 JUMPI DUP1 DUP3 ADD MLOAD DUP2 DUP5 ADD MSTORE PUSH1 0x20 DUP2 ADD SWAP1 POP PUSH2 0x1AE5 JUMP JUMPDEST PUSH0 DUP5 DUP5 ADD MSTORE POP POP POP POP JUMP JUMPDEST PUSH0 PUSH2 0x1B15 DUP3 PUSH2 0x1AD9 JUMP JUMPDEST PUSH2 0x1B1F DUP2 DUP6 PUSH2 0x195D JUMP JUMPDEST SWAP4 POP PUSH2 0x1B2F DUP2 DUP6 PUSH1 0x20 DUP7 ADD PUSH2 0x1AE3 JUMP JUMPDEST DUP1 DUP5 ADD SWAP2 POP POP SWAP3 SWAP2 POP POP JUMP JUMPDEST PUSH32 0x4554480000000000000000000000000000000000000000000000000000000000 PUSH0 DUP3 ADD MSTORE POP JUMP JUMPDEST PUSH0 PUSH2 0x1B6F PUSH1 0x3 DUP4 PUSH2 0x195D JUMP JUMPDEST SWAP2 POP PUSH2 0x1B7A DUP3 PUSH2 0x1B3B JUMP JUMPDEST PUSH1 0x3 DUP3 ADD SWAP1 POP SWAP2 SWAP1 POP JUMP JUMPDEST PUSH0 PUSH2 0x1B8F DUP3 PUSH2 0x198F JUMP JUMPDEST SWAP2 POP PUSH2 0x1B9A DUP3 PUSH2 0x19D9 JUMP JUMPDEST SWAP2 POP PUSH2 0x1BA5 DUP3 PUSH2 0x1A23 JUMP JUMPDEST SWAP2 POP PUSH2 0x1BB0 DUP3 PUSH2 0x19D9 JUMP JUMPDEST SWAP2 POP PUSH2 0x1BBB DUP3 PUSH2 0x1A6D JUMP JUMPDEST SWAP2 POP PUSH2 0x1BC6 DUP3 PUSH2 0x1AB7 JUMP JUMPDEST SWAP2 POP PUSH2 0x1BD2 DUP3 DUP5 PUSH2 0x1B0B JUMP JUMPDEST SWAP2 POP PUSH2 0x1BDD DUP3 PUSH2 0x19D9 JUMP JUMPDEST SWAP2 POP PUSH2 0x1BE8 DUP3 PUSH2 0x1B63 JUMP JUMPDEST SWAP2 POP DUP2 SWAP1 POP SWAP3 SWAP2 POP POP JUMP JUMPDEST PUSH32 0x5374616B696E672047756172616E746565204361726400000000000000000000 PUSH0 DUP3 ADD MSTORE POP JUMP JUMPDEST PUSH0 PUSH2 0x1C27 PUSH1 0x16 DUP4 PUSH2 0x1773 JUMP JUMPDEST SWAP2 POP PUSH2 0x1C32 DUP3 PUSH2 0x1BF3 JUMP JUMPDEST PUSH1 0x20 DUP3 ADD SWAP1 POP SWAP2 SWAP1 POP JUMP JUMPDEST PUSH0 PUSH1 0x1F NOT PUSH1 0x1F DUP4 ADD AND SWAP1 POP SWAP2 SWAP1 POP JUMP JUMPDEST PUSH0 PUSH2 0x1C57 DUP3 PUSH2 0x1AD9 JUMP JUMPDEST PUSH2 0x1C61 DUP2 DUP6 PUSH2 0x1773 JUMP JUMPDEST SWAP4 POP PUSH2 0x1C71 DUP2 DUP6 PUSH1 0x20 DUP7 ADD PUSH2 0x1AE3 JUMP JUMPDEST PUSH2 0x1C7A DUP2 PUSH2 0x1C3D JUMP JUMPDEST DUP5 ADD SWAP2 POP POP SWAP3 SWAP2 POP POP JUMP JUMPDEST PUSH32 0x68747470733A2F2F697066732E696F2F697066732F516D57456751736B426374 PUSH0 DUP3 ADD MSTORE PUSH32 0x514A55617245796376366378506E4D3357723461487A3672476F7132516D5476 PUSH1 0x20 DUP3 ADD MSTORE PUSH32 0x7755633F66696C656E616D653D51564577617272616E74792E706E6700000000 PUSH1 0x40 DUP3 ADD MSTORE POP JUMP JUMPDEST PUSH0 PUSH2 0x1D05 PUSH1 0x5C DUP4 PUSH2 0x1773 JUMP JUMPDEST SWAP2 POP PUSH2 0x1D10 DUP3 PUSH2 0x1C85 JUMP JUMPDEST PUSH1 0x60 DUP3 ADD SWAP1 POP SWAP2 SWAP1 POP JUMP JUMPDEST PUSH0 PUSH1 0x60 DUP3 ADD SWAP1 POP DUP2 DUP2 SUB PUSH0 DUP4 ADD MSTORE PUSH2 0x1D32 DUP2 PUSH2 0x1C1B JUMP JUMPDEST SWAP1 POP DUP2 DUP2 SUB PUSH1 0x20 DUP4 ADD MSTORE PUSH2 0x1D46 DUP2 DUP5 PUSH2 0x1C4D JUMP JUMPDEST SWAP1 POP DUP2 DUP2 SUB PUSH1 0x40 DUP4 ADD MSTORE PUSH2 0x1D59 DUP2 PUSH2 0x1CF9 JUMP JUMPDEST SWAP1 POP SWAP3 SWAP2 POP POP JUMP JUMPDEST PUSH32 0x4F776E61626C653A206E6577206F776E657220697320746865207A65726F2061 PUSH0 DUP3 ADD MSTORE PUSH32 0x6464726573730000000000000000000000000000000000000000000000000000 PUSH1 0x20 DUP3 ADD MSTORE POP JUMP JUMPDEST PUSH0 PUSH2 0x1DBB PUSH1 0x26 DUP4 PUSH2 0x1773 JUMP JUMPDEST SWAP2 POP PUSH2 0x1DC6 DUP3 PUSH2 0x1D61 JUMP JUMPDEST PUSH1 0x40 DUP3 ADD SWAP1 POP SWAP2 SWAP1 POP JUMP JUMPDEST PUSH0 PUSH1 0x20 DUP3 ADD SWAP1 POP DUP2 DUP2 SUB PUSH0 DUP4 ADD MSTORE PUSH2 0x1DE8 DUP2 PUSH2 0x1DAF JUMP JUMPDEST SWAP1 POP SWAP2 SWAP1 POP JUMP JUMPDEST PUSH0 PUSH1 0x60 DUP3 ADD SWAP1 POP PUSH2 0x1E02 PUSH0 DUP4 ADD DUP7 PUSH2 0x165D JUMP JUMPDEST PUSH2 0x1E0F PUSH1 0x20 DUP4 ADD DUP6 PUSH2 0x165D JUMP JUMPDEST PUSH2 0x1E1C PUSH1 0x40 DUP4 ADD DUP5 PUSH2 0x126E JUMP JUMPDEST SWAP5 SWAP4 POP POP POP POP JUMP JUMPDEST PUSH32 0x515645207472616E73666572206572726F720000000000000000000000000000 PUSH0 DUP3 ADD MSTORE POP JUMP JUMPDEST PUSH0 PUSH2 0x1E58 PUSH1 0x12 DUP4 PUSH2 0x1773 JUMP JUMPDEST SWAP2 POP PUSH2 0x1E63 DUP3 PUSH2 0x1E24 JUMP JUMPDEST PUSH1 0x20 DUP3 ADD SWAP1 POP SWAP2 SWAP1 POP JUMP JUMPDEST PUSH0 PUSH1 0x20 DUP3 ADD SWAP1 POP DUP2 DUP2 SUB PUSH0 DUP4 ADD MSTORE PUSH2 0x1E85 DUP2 PUSH2 0x1E4C JUMP JUMPDEST SWAP1 POP SWAP2 SWAP1 POP JUMP JUMPDEST PUSH0 PUSH2 0x1E96 DUP3 PUSH2 0x1265 JUMP JUMPDEST SWAP2 POP PUSH2 0x1EA1 DUP4 PUSH2 0x1265 JUMP JUMPDEST SWAP3 POP DUP3 DUP3 SUB SWAP1 POP DUP2 DUP2 GT ISZERO PUSH2 0x1EB9 JUMPI PUSH2 0x1EB8 PUSH2 0x1716 JUMP JUMPDEST JUMPDEST SWAP3 SWAP2 POP POP JUMP JUMPDEST PUSH0 PUSH1 0x40 DUP3 ADD SWAP1 POP PUSH2 0x1ED2 PUSH0 DUP4 ADD DUP6 PUSH2 0x165D JUMP JUMPDEST PUSH2 0x1EDF PUSH1 0x20 DUP4 ADD DUP5 PUSH2 0x126E JUMP JUMPDEST SWAP4 SWAP3 POP POP POP JUMP JUMPDEST PUSH32 0x4F776E61626C653A2063616C6C6572206973206E6F7420746865206F776E6572 PUSH0 DUP3 ADD MSTORE POP JUMP JUMPDEST PUSH0 PUSH2 0x1F1A PUSH1 0x20 DUP4 PUSH2 0x1773 JUMP JUMPDEST SWAP2 POP PUSH2 0x1F25 DUP3 PUSH2 0x1EE6 JUMP JUMPDEST PUSH1 0x20 DUP3 ADD SWAP1 POP SWAP2 SWAP1 POP JUMP JUMPDEST PUSH0 PUSH1 0x20 DUP3 ADD SWAP1 POP DUP2 DUP2 SUB PUSH0 DUP4 ADD MSTORE PUSH2 0x1F47 DUP2 PUSH2 0x1F0E JUMP JUMPDEST SWAP1 POP SWAP2 SWAP1 POP JUMP JUMPDEST PUSH0 PUSH2 0x1F58 DUP3 PUSH2 0x1265 JUMP JUMPDEST SWAP2 POP PUSH2 0x1F63 DUP4 PUSH2 0x1265 JUMP JUMPDEST SWAP3 POP DUP3 DUP3 ADD SWAP1 POP DUP1 DUP3 GT ISZERO PUSH2 0x1F7B JUMPI PUSH2 0x1F7A PUSH2 0x1716 JUMP JUMPDEST JUMPDEST SWAP3 SWAP2 POP POP JUMP JUMPDEST PUSH32 0x4E487B7100000000000000000000000000000000000000000000000000000000 PUSH0 MSTORE PUSH1 0x41 PUSH1 0x4 MSTORE PUSH1 0x24 PUSH0 REVERT JUMPDEST PUSH0 PUSH1 0x40 DUP3 ADD SWAP1 POP PUSH2 0x1FC1 PUSH0 DUP4 ADD DUP6 PUSH2 0x165D JUMP JUMPDEST PUSH2 0x1FCE PUSH1 0x20 DUP4 ADD DUP5 PUSH2 0x1338 JUMP JUMPDEST SWAP4 SWAP3 POP POP POP JUMP INVALID LOG2 PUSH5 0x6970667358 0x22 SLT KECCAK256 0xE0 0xA5 0xB4 LOG1 0xDC 0x25 0xC3 0xE9 CALLER 0xA9 0x22 0xBD BASEFEE DUP10 ADD 0xD4 BLOCKHASH 0xDE OR JUMPI LOG0 0xBC STATICCALL SLT 0xC6 ADDMOD DUP2 PUSH15 0x52AA8A4064736F6C63430008150033 "
		},
		"gasEstimates": {
			"creation": {
				"codeDepositCost": "1640600",
				"executionCost": "infinite",
				"totalCost": "infinite"
			},
			"external": {
				"ETHstakingVault(address)": "infinite",
				"QVEliquidityPool()": "infinite",
				"QVEstakes(address)": "9807",
				"burnStakingGuarantee()": "infinite",
				"esQVEliquidityPool()": "infinite",
				"getNFTbalance_()": "infinite",
				"getNfts_()": "infinite",
				"getStakeCount_()": "2545",
				"owner()": "2560",
				"qveEscrow()": "infinite",
				"qvenft()": "infinite",
				"qvetoken()": "infinite",
				"receiveAsset(uint256)": "infinite",
				"renounceOwnership()": "30501",
				"rewardPointsEarned(address)": "2824",
				"shortenLockup(uint256,uint256)": "infinite",
				"stakingFundAmount()": "infinite",
				"stakingProgramEndsBlock()": "infinite",
				"totalRewardPoints()": "2536",
				"transferOwnership(address)": "30819"
			},
			"internal": {
				"_addLiquidity(uint256)": "infinite",
				"_addUserStakeVault(address,uint256)": "infinite",
				"_botAddress()": "infinite",
				"_escrowQVE(uint256)": "infinite",
				"_issueGuaranteeNFT(address)": "infinite",
				"_sendQVEFromLiquidity(address,uint256)": "infinite",
				"_subLiquidity(uint256)": "infinite",
				"stakeEth(uint256)": "infinite"
			}
		},
		"methodIdentifiers": {
			"ETHstakingVault(address)": "081ed232",
			"QVEliquidityPool()": "0e301d24",
			"QVEstakes(address)": "52584f58",
			"burnStakingGuarantee()": "14b46527",
			"esQVEliquidityPool()": "0691badf",
			"getNFTbalance_()": "9f62e796",
			"getNfts_()": "5ac66993",
			"getStakeCount_()": "e44a998c",
			"owner()": "8da5cb5b",
			"qveEscrow()": "fdcdbae2",
			"qvenft()": "510b7f98",
			"qvetoken()": "2b1c4158",
			"receiveAsset(uint256)": "ccc8ad12",
			"renounceOwnership()": "715018a6",
			"rewardPointsEarned(address)": "c959360b",
			"shortenLockup(uint256,uint256)": "83ce6147",
			"stakingFundAmount()": "52946b04",
			"stakingProgramEndsBlock()": "bc0925ae",
			"totalRewardPoints()": "c2e8caf6",
			"transferOwnership(address)": "f2fde38b"
		}
	},
	"abi": [
		{
			"inputs": [
				{
					"internalType": "contract QVEtoken",
					"name": "_qveTokenAddress",
					"type": "address"
				},
				{
					"internalType": "contract QVEnft",
					"name": "_qvenft",
					"type": "address"
				},
				{
					"internalType": "contract QVEescrow",
					"name": "_qveEscrow",
					"type": "address"
				}
			],
			"stateMutability": "nonpayable",
			"type": "constructor"
		},
		{
			"anonymous": false,
			"inputs": [
				{
					"indexed": true,
					"internalType": "address",
					"name": "previousOwner",
					"type": "address"
				},
				{
					"indexed": true,
					"internalType": "address",
					"name": "newOwner",
					"type": "address"
				}
			],
			"name": "OwnershipTransferred",
			"type": "event"
		},
		{
			"inputs": [
				{
					"internalType": "address",
					"name": "",
					"type": "address"
				}
			],
			"name": "ETHstakingVault",
			"outputs": [
				{
					"internalType": "uint256",
					"name": "balance",
					"type": "uint256"
				},
				{
					"internalType": "uint256",
					"name": "at",
					"type": "uint256"
				}
			],
			"stateMutability": "view",
			"type": "function"
		},
		{
			"inputs": [],
			"name": "QVEliquidityPool",
			"outputs": [
				{
					"internalType": "uint256",
					"name": "balance",
					"type": "uint256"
				},
				{
					"internalType": "uint256",
					"name": "at",
					"type": "uint256"
				}
			],
			"stateMutability": "view",
			"type": "function"
		},
		{
			"inputs": [
				{
					"internalType": "address",
					"name": "",
					"type": "address"
				}
			],
			"name": "QVEstakes",
			"outputs": [
				{
					"internalType": "uint72",
					"name": "tokenAmount",
					"type": "uint72"
				},
				{
					"internalType": "uint24",
					"name": "lockingPeriodInBlocks",
					"type": "uint24"
				},
				{
					"internalType": "uint32",
					"name": "startBlock",
					"type": "uint32"
				},
				{
					"internalType": "uint128",
					"name": "expectedStakingRewardPoints",
					"type": "uint128"
				}
			],
			"stateMutability": "view",
			"type": "function"
		},
		{
			"inputs": [],
			"name": "burnStakingGuarantee",
			"outputs": [
				{
					"internalType": "bool",
					"name": "",
					"type": "bool"
				}
			],
			"stateMutability": "nonpayable",
			"type": "function"
		},
		{
			"inputs": [],
			"name": "esQVEliquidityPool",
			"outputs": [
				{
					"internalType": "uint256",
					"name": "balance",
					"type": "uint256"
				},
				{
					"internalType": "uint256",
					"name": "at",
					"type": "uint256"
				}
			],
			"stateMutability": "view",
			"type": "function"
		},
		{
			"inputs": [],
			"name": "getNFTbalance_",
			"outputs": [
				{
					"internalType": "uint256",
					"name": "",
					"type": "uint256"
				}
			],
			"stateMutability": "view",
			"type": "function"
		},
		{
			"inputs": [],
			"name": "getNfts_",
			"outputs": [
				{
					"components": [
						{
							"internalType": "uint256",
							"name": "tokenId",
							"type": "uint256"
						},
						{
							"internalType": "uint256",
							"name": "at",
							"type": "uint256"
						}
					],
					"internalType": "struct QVEDefi.NFTFragment[]",
					"name": "",
					"type": "tuple[]"
				}
			],
			"stateMutability": "view",
			"type": "function"
		},
		{
			"inputs": [],
			"name": "getStakeCount_",
			"outputs": [
				{
					"internalType": "uint256",
					"name": "",
					"type": "uint256"
				}
			],
			"stateMutability": "view",
			"type": "function"
		},
		{
			"inputs": [],
			"name": "owner",
			"outputs": [
				{
					"internalType": "address",
					"name": "",
					"type": "address"
				}
			],
			"stateMutability": "view",
			"type": "function"
		},
		{
			"inputs": [],
			"name": "qveEscrow",
			"outputs": [
				{
					"internalType": "contract QVEescrow",
					"name": "",
					"type": "address"
				}
			],
			"stateMutability": "view",
			"type": "function"
		},
		{
			"inputs": [],
			"name": "qvenft",
			"outputs": [
				{
					"internalType": "contract QVEnft",
					"name": "",
					"type": "address"
				}
			],
			"stateMutability": "view",
			"type": "function"
		},
		{
			"inputs": [],
			"name": "qvetoken",
			"outputs": [
				{
					"internalType": "contract QVEtoken",
					"name": "",
					"type": "address"
				}
			],
			"stateMutability": "view",
			"type": "function"
		},
		{
			"inputs": [
				{
					"internalType": "uint256",
					"name": "assetAmount",
					"type": "uint256"
				}
			],
			"name": "receiveAsset",
			"outputs": [
				{
					"internalType": "bool",
					"name": "",
					"type": "bool"
				}
			],
			"stateMutability": "payable",
			"type": "function"
		},
		{
			"inputs": [],
			"name": "renounceOwnership",
			"outputs": [],
			"stateMutability": "nonpayable",
			"type": "function"
		},
		{
			"inputs": [
				{
					"internalType": "address",
					"name": "",
					"type": "address"
				}
			],
			"name": "rewardPointsEarned",
			"outputs": [
				{
					"internalType": "uint256",
					"name": "",
					"type": "uint256"
				}
			],
			"stateMutability": "view",
			"type": "function"
		},
		{
			"inputs": [
				{
					"internalType": "uint256",
					"name": "qveAmount",
					"type": "uint256"
				},
				{
					"internalType": "uint256",
					"name": "tokenId",
					"type": "uint256"
				}
			],
			"name": "shortenLockup",
			"outputs": [
				{
					"internalType": "bool",
					"name": "",
					"type": "bool"
				}
			],
			"stateMutability": "nonpayable",
			"type": "function"
		},
		{
			"inputs": [],
			"name": "stakingFundAmount",
			"outputs": [
				{
					"internalType": "uint256",
					"name": "",
					"type": "uint256"
				}
			],
			"stateMutability": "view",
			"type": "function"
		},
		{
			"inputs": [],
			"name": "stakingProgramEndsBlock",
			"outputs": [
				{
					"internalType": "uint256",
					"name": "",
					"type": "uint256"
				}
			],
			"stateMutability": "view",
			"type": "function"
		},
		{
			"inputs": [],
			"name": "totalRewardPoints",
			"outputs": [
				{
					"internalType": "uint256",
					"name": "",
					"type": "uint256"
				}
			],
			"stateMutability": "view",
			"type": "function"
		},
		{
			"inputs": [
				{
					"internalType": "address",
					"name": "newOwner",
					"type": "address"
				}
			],
			"name": "transferOwnership",
			"outputs": [],
			"stateMutability": "nonpayable",
			"type": "function"
		}
	]
}