{
	"data": {
		"bytecode": {
			"linkReferences": {},
			"object": "60c060405234801562000010575f80fd5b5060405162002705380380620027058339818101604052810190620000369190620004f2565b620000566200004a6200032e60201b60201c565b6200033560201b60201c565b8260025f6101000a81548173ffffffffffffffffffffffffffffffffffffffff021916908373ffffffffffffffffffffffffffffffffffffffff1602179055508160035f6101000a81548173ffffffffffffffffffffffffffffffffffffffff021916908373ffffffffffffffffffffffffffffffffffffffff1602179055508060045f6101000a81548173ffffffffffffffffffffffffffffffffffffffff021916908373ffffffffffffffffffffffffffffffffffffffff16021790555060025f9054906101000a900473ffffffffffffffffffffffffffffffffffffffff1673ffffffffffffffffffffffffffffffffffffffff1663469895c833306002805f9054906101000a900473ffffffffffffffffffffffffffffffffffffffff1673ffffffffffffffffffffffffffffffffffffffff166318160ddd6040518163ffffffff1660e01b8152600401602060405180830381865afa158015620001c1573d5f803e3d5ffd5b505050506040513d601f19601f82011682018060405250810190620001e7919062000583565b620001f391906200060d565b6040518463ffffffff1660e01b8152600401620002139392919062000666565b6020604051808303815f875af115801562000230573d5f803e3d5ffd5b505050506040513d601f19601f82011682018060405250810190620002569190620006db565b50670de0b6b3a764000060025f9054906101000a900473ffffffffffffffffffffffffffffffffffffffff1673ffffffffffffffffffffffffffffffffffffffff166370a08231306040518263ffffffff1660e01b8152600401620002bc91906200070b565b602060405180830381865afa158015620002d8573d5f803e3d5ffd5b505050506040513d601f19601f82011682018060405250810190620002fe919062000583565b6200030a91906200060d565b60055f015f8282546200031e919062000726565b9250508190555050505062000760565b5f33905090565b5f805f9054906101000a900473ffffffffffffffffffffffffffffffffffffffff169050815f806101000a81548173ffffffffffffffffffffffffffffffffffffffff021916908373ffffffffffffffffffffffffffffffffffffffff1602179055508173ffffffffffffffffffffffffffffffffffffffff168173ffffffffffffffffffffffffffffffffffffffff167f8be0079c531659141344cd1fd0a4f28419497f9722a3daafe3b4186f6b6457e060405160405180910390a35050565b5f80fd5b5f73ffffffffffffffffffffffffffffffffffffffff82169050919050565b5f6200042582620003fa565b9050919050565b5f620004388262000419565b9050919050565b6200044a816200042c565b811462000455575f80fd5b50565b5f8151905062000468816200043f565b92915050565b5f6200047a8262000419565b9050919050565b6200048c816200046e565b811462000497575f80fd5b50565b5f81519050620004aa8162000481565b92915050565b5f620004bc8262000419565b9050919050565b620004ce81620004b0565b8114620004d9575f80fd5b50565b5f81519050620004ec81620004c3565b92915050565b5f805f606084860312156200050c576200050b620003f6565b5b5f6200051b8682870162000458565b93505060206200052e868287016200049a565b92505060406200054186828701620004dc565b9150509250925092565b5f819050919050565b6200055f816200054b565b81146200056a575f80fd5b50565b5f815190506200057d8162000554565b92915050565b5f602082840312156200059b576200059a620003f6565b5b5f620005aa848285016200056d565b91505092915050565b7f4e487b71000000000000000000000000000000000000000000000000000000005f52601260045260245ffd5b7f4e487b71000000000000000000000000000000000000000000000000000000005f52601160045260245ffd5b5f62000619826200054b565b915062000626836200054b565b925082620006395762000638620005b3565b5b828204905092915050565b6200064f8162000419565b82525050565b62000660816200054b565b82525050565b5f6060820190506200067b5f83018662000644565b6200068a602083018562000644565b62000699604083018462000655565b949350505050565b5f8115159050919050565b620006b781620006a1565b8114620006c2575f80fd5b50565b5f81519050620006d581620006ac565b92915050565b5f60208284031215620006f357620006f2620003f6565b5b5f6200070284828501620006c5565b91505092915050565b5f602082019050620007205f83018462000644565b92915050565b5f62000732826200054b565b91506200073f836200054b565b92508282019050808211156200075a5762000759620005e0565b5b92915050565b60805160a051611f83620007825f395f61064701525f6107f00152611f835ff3fe608060405260043610610113575f3560e01c80638da5cb5b1161009f578063ccc8ad1211610063578063ccc8ad121461038a578063e44a998c146103ba578063f2fde38b146103e4578063f366b27e1461040c578063fdcdbae21461044857610113565b80638da5cb5b146102a65780639f62e796146102d0578063bc0925ae146102fa578063c2e8caf614610324578063c959360b1461034e57610113565b8063510b7f98116100e6578063510b7f98146101d357806352584f58146101fd57806352946b041461023c5780635ac6699314610266578063715018a61461029057610113565b80630691badf146101175780630e301d241461014257806312782b561461016d5780632b1c4158146101a9575b5f80fd5b348015610122575f80fd5b5061012b610472565b604051610139929190611298565b60405180910390f35b34801561014d575f80fd5b50610156610483565b604051610164929190611298565b60405180910390f35b348015610178575f80fd5b50610193600480360381019061018e91906112ed565b610494565b6040516101a09190611332565b60405180910390f35b3480156101b4575f80fd5b506101bd610583565b6040516101ca91906113c5565b60405180910390f35b3480156101de575f80fd5b506101e76105a8565b6040516101f491906113fe565b60405180910390f35b348015610208575f80fd5b50610223600480360381019061021e9190611452565b6105cd565b6040516102339493929190611505565b60405180910390f35b348015610247575f80fd5b50610250610645565b60405161025d9190611548565b60405180910390f35b348015610271575f80fd5b5061027a610669565b6040516102879190611645565b60405180910390f35b34801561029b575f80fd5b506102a4610715565b005b3480156102b1575f80fd5b506102ba610728565b6040516102c79190611674565b60405180910390f35b3480156102db575f80fd5b506102e461074f565b6040516102f19190611548565b60405180910390f35b348015610305575f80fd5b5061030e6107ee565b60405161031b9190611548565b60405180910390f35b34801561032f575f80fd5b50610338610812565b6040516103459190611548565b60405180910390f35b348015610359575f80fd5b50610374600480360381019061036f9190611452565b610818565b6040516103819190611548565b60405180910390f35b6103a4600480360381019061039f91906112ed565b61082d565b6040516103b19190611332565b60405180910390f35b3480156103c5575f80fd5b506103ce610908565b6040516103db9190611548565b60405180910390f35b3480156103ef575f80fd5b5061040a60048036038101906104059190611452565b610918565b005b348015610417575f80fd5b50610432600480360381019061042d91906112ed565b61099a565b60405161043f9190611332565b60405180910390f35b348015610453575f80fd5b5061045c610b0f565b60405161046991906116ad565b60405180910390f35b6007805f0154908060010154905082565b6005805f0154908060010154905082565b5f60035f9054906101000a900473ffffffffffffffffffffffffffffffffffffffff1673ffffffffffffffffffffffffffffffffffffffff1663fdb06a3183306040518363ffffffff1660e01b81526004016104f19291906116c6565b6020604051808303815f875af115801561050d573d5f803e3d5ffd5b505050506040513d601f19601f820116820180604052508101906105319190611717565b610570576040517f08c379a00000000000000000000000000000000000000000000000000000000081526004016105679061179c565b60405180910390fd5b61057982610b34565b5060019050919050565b60025f9054906101000a900473ffffffffffffffffffffffffffffffffffffffff1681565b60035f9054906101000a900473ffffffffffffffffffffffffffffffffffffffff1681565b600a602052805f5260405f205f91509050805f015f9054906101000a900468ffffffffffffffffff1690805f0160099054906101000a900462ffffff1690805f01600c9054906101000a900463ffffffff1690805f0160109054906101000a90046fffffffffffffffffffffffffffffffff16905084565b7f000000000000000000000000000000000000000000000000000000000000000081565b6060600d5f3373ffffffffffffffffffffffffffffffffffffffff1673ffffffffffffffffffffffffffffffffffffffff1681526020019081526020015f205f01805480602002602001604051908101604052809291908181526020015f905b8282101561070c578382905f5260205f2090600202016040518060400160405290815f8201548152602001600182015481525050815260200190600101906106c9565b50505050905090565b61071d610b62565b6107265f610be0565b565b5f805f9054906101000a900473ffffffffffffffffffffffffffffffffffffffff16905090565b5f60035f9054906101000a900473ffffffffffffffffffffffffffffffffffffffff1673ffffffffffffffffffffffffffffffffffffffff166370a08231336040518263ffffffff1660e01b81526004016107aa9190611674565b602060405180830381865afa1580156107c5573d5f803e3d5ffd5b505050506040513d601f19601f820116820180604052508101906107e991906117ce565b905090565b7f000000000000000000000000000000000000000000000000000000000000000081565b600c5481565b600b602052805f5260405f205f915090505481565b5f61083782610ca1565b505f61084283610cca565b6040516020016108529190611a21565b604051602081830303815290604052905060035f9054906101000a900473ffffffffffffffffffffffffffffffffffffffff1673ffffffffffffffffffffffffffffffffffffffff16630890d80c826040518263ffffffff1660e01b81526004016108bd9190611bb7565b6020604051808303815f875af11580156108d9573d5f803e3d5ffd5b505050506040513d601f19601f820116820180604052508101906108fd9190611717565b506001915050919050565b5f6109136001610d94565b905090565b610920610b62565b5f73ffffffffffffffffffffffffffffffffffffffff168173ffffffffffffffffffffffffffffffffffffffff160361098e576040517f08c379a000000000000000000000000000000000000000000000000000000000815260040161098590611c6d565b60405180910390fd5b61099781610be0565b50565b5f60035f9054906101000a900473ffffffffffffffffffffffffffffffffffffffff1673ffffffffffffffffffffffffffffffffffffffff166342966c68836040518263ffffffff1660e01b81526004016109f59190611548565b5f604051808303815f87803b158015610a0c575f80fd5b505af1158015610a1e573d5f803e3d5ffd5b50505050610a6b3360095f3373ffffffffffffffffffffffffffffffffffffffff1673ffffffffffffffffffffffffffffffffffffffff1681526020019081526020015f205f0154610da0565b610aaa576040517f08c379a0000000000000000000000000000000000000000000000000000000008152600401610aa190611cd5565b60405180910390fd5b610afe600a60095f3373ffffffffffffffffffffffffffffffffffffffff1673ffffffffffffffffffffffffffffffffffffffff1681526020019081526020015f205f0154610af99190611d20565b610ebf565b610b06575f80fd5b60019050919050565b60045f9054906101000a900473ffffffffffffffffffffffffffffffffffffffff1681565b5f8160055f015f828254610b489190611d61565b925050819055504260056001018190555060019050919050565b610b6a610f66565b73ffffffffffffffffffffffffffffffffffffffff16610b88610728565b73ffffffffffffffffffffffffffffffffffffffff1614610bde576040517f08c379a0000000000000000000000000000000000000000000000000000000008152600401610bd590611dde565b60405180910390fd5b565b5f805f9054906101000a900473ffffffffffffffffffffffffffffffffffffffff169050815f806101000a81548173ffffffffffffffffffffffffffffffffffffffff021916908373ffffffffffffffffffffffffffffffffffffffff1602179055508173ffffffffffffffffffffffffffffffffffffffff168173ffffffffffffffffffffffffffffffffffffffff167f8be0079c531659141344cd1fd0a4f28419497f9722a3daafe3b4186f6b6457e060405160405180910390a35050565b5f610cab33610f6d565b50610cb633836110a8565b50610cc1600161111b565b60019050919050565b60605f6001610cd88461112f565b0190505f8167ffffffffffffffff811115610cf657610cf5611dfc565b5b6040519080825280601f01601f191660200182016040528015610d285781602001600182028036833780820191505090505b5090505f82602001820190505b600115610d89578080600190039150507f3031323334353637383961626364656600000000000000000000000000000000600a86061a8153600a8581610d7e57610d7d611e29565b5b0494505f8503610d35575b819350505050919050565b5f815f01549050919050565b5f60025f9054906101000a900473ffffffffffffffffffffffffffffffffffffffff1673ffffffffffffffffffffffffffffffffffffffff1663469895c83085670de0b6b3a764000086610df49190611d20565b6040518463ffffffff1660e01b8152600401610e1293929190611e56565b6020604051808303815f875af1158015610e2e573d5f803e3d5ffd5b505050506040513d601f19601f82011682018060405250810190610e529190611717565b610e91576040517f08c379a0000000000000000000000000000000000000000000000000000000008152600401610e8890611ed5565b60405180910390fd5b8160055f015f828254610ea49190611ef3565b92505081905550426005600101819055506001905092915050565b5f60045f9054906101000a900473ffffffffffffffffffffffffffffffffffffffff1673ffffffffffffffffffffffffffffffffffffffff166344570b3f33846040518363ffffffff1660e01b8152600401610f1c929190611f26565b6020604051808303815f875af1158015610f38573d5f803e3d5ffd5b505050506040513d601f19601f82011682018060405250810190610f5c9190611717565b5060019050919050565b5f33905090565b5f8060035f9054906101000a900473ffffffffffffffffffffffffffffffffffffffff1673ffffffffffffffffffffffffffffffffffffffff1663906f09e0846040518263ffffffff1660e01b8152600401610fc99190611674565b6020604051808303815f875af1158015610fe5573d5f803e3d5ffd5b505050506040513d601f19601f8201168201806040525081019061100991906117ce565b90505f6040518060400160405280838152602001428152509050600d5f8573ffffffffffffffffffffffffffffffffffffffff1673ffffffffffffffffffffffffffffffffffffffff1681526020019081526020015f205f0181908060018154018082558091505060019003905f5260205f2090600202015f909190919091505f820151815f0155602082015181600101555050600192505050919050565b5f670de0b6b3a7640000826110bd9190611d20565b60095f8573ffffffffffffffffffffffffffffffffffffffff1673ffffffffffffffffffffffffffffffffffffffff1681526020019081526020015f205f015f82825461110a9190611d61565b925050819055506001905092915050565b6001815f015f828254019250508190555050565b5f805f90507a184f03e93ff9f4daa797ed6e38ed64bf6a1f010000000000000000831061118b577a184f03e93ff9f4daa797ed6e38ed64bf6a1f010000000000000000838161118157611180611e29565b5b0492506040810190505b6d04ee2d6d415b85acef810000000083106111c8576d04ee2d6d415b85acef810000000083816111be576111bd611e29565b5b0492506020810190505b662386f26fc1000083106111f757662386f26fc1000083816111ed576111ec611e29565b5b0492506010810190505b6305f5e1008310611220576305f5e100838161121657611215611e29565b5b0492506008810190505b612710831061124557612710838161123b5761123a611e29565b5b0492506004810190505b60648310611268576064838161125e5761125d611e29565b5b0492506002810190505b600a8310611277576001810190505b80915050919050565b5f819050919050565b61129281611280565b82525050565b5f6040820190506112ab5f830185611289565b6112b86020830184611289565b9392505050565b5f80fd5b6112cc81611280565b81146112d6575f80fd5b50565b5f813590506112e7816112c3565b92915050565b5f60208284031215611302576113016112bf565b5b5f61130f848285016112d9565b91505092915050565b5f8115159050919050565b61132c81611318565b82525050565b5f6020820190506113455f830184611323565b92915050565b5f73ffffffffffffffffffffffffffffffffffffffff82169050919050565b5f819050919050565b5f61138d6113886113838461134b565b61136a565b61134b565b9050919050565b5f61139e82611373565b9050919050565b5f6113af82611394565b9050919050565b6113bf816113a5565b82525050565b5f6020820190506113d85f8301846113b6565b92915050565b5f6113e882611394565b9050919050565b6113f8816113de565b82525050565b5f6020820190506114115f8301846113ef565b92915050565b5f6114218261134b565b9050919050565b61143181611417565b811461143b575f80fd5b50565b5f8135905061144c81611428565b92915050565b5f60208284031215611467576114666112bf565b5b5f6114748482850161143e565b91505092915050565b5f68ffffffffffffffffff82169050919050565b61149a8161147d565b82525050565b5f62ffffff82169050919050565b6114b7816114a0565b82525050565b5f63ffffffff82169050919050565b6114d5816114bd565b82525050565b5f6fffffffffffffffffffffffffffffffff82169050919050565b6114ff816114db565b82525050565b5f6080820190506115185f830187611491565b61152560208301866114ae565b61153260408301856114cc565b61153f60608301846114f6565b95945050505050565b5f60208201905061155b5f830184611289565b92915050565b5f81519050919050565b5f82825260208201905092915050565b5f819050602082019050919050565b61159381611280565b82525050565b604082015f8201516115ad5f85018261158a565b5060208201516115c0602085018261158a565b50505050565b5f6115d18383611599565b60408301905092915050565b5f602082019050919050565b5f6115f382611561565b6115fd818561156b565b93506116088361157b565b805f5b8381101561163857815161161f88826115c6565b975061162a836115dd565b92505060018101905061160b565b5085935050505092915050565b5f6020820190508181035f83015261165d81846115e9565b905092915050565b61166e81611417565b82525050565b5f6020820190506116875f830184611665565b92915050565b5f61169782611394565b9050919050565b6116a78161168d565b82525050565b5f6020820190506116c05f83018461169e565b92915050565b5f6040820190506116d95f830185611289565b6116e66020830184611665565b9392505050565b6116f681611318565b8114611700575f80fd5b50565b5f81519050611711816116ed565b92915050565b5f6020828403121561172c5761172b6112bf565b5b5f61173984828501611703565b91505092915050565b5f82825260208201905092915050565b7f73686f7274656e206572726f72000000000000000000000000000000000000005f82015250565b5f611786600d83611742565b915061179182611752565b602082019050919050565b5f6020820190508181035f8301526117b38161177a565b9050919050565b5f815190506117c8816112c3565b92915050565b5f602082840312156117e3576117e26112bf565b5b5f6117f0848285016117ba565b91505092915050565b5f81905092915050565b7f54686973000000000000000000000000000000000000000000000000000000005f82015250565b5f6118376004836117f9565b915061184282611803565b600482019050919050565b7f20000000000000000000000000000000000000000000000000000000000000005f82015250565b5f6118816001836117f9565b915061188c8261184d565b600182019050919050565b7f6e667400000000000000000000000000000000000000000000000000000000005f82015250565b5f6118cb6003836117f9565b91506118d682611897565b600382019050919050565b7f67756172616e74656573000000000000000000000000000000000000000000005f82015250565b5f611915600a836117f9565b9150611920826118e1565b600a82019050919050565b7f203a2000000000000000000000000000000000000000000000000000000000005f82015250565b5f61195f6003836117f9565b915061196a8261192b565b600382019050919050565b5f81519050919050565b5f5b8381101561199c578082015181840152602081019050611981565b5f8484015250505050565b5f6119b182611975565b6119bb81856117f9565b93506119cb81856020860161197f565b80840191505092915050565b7f45544800000000000000000000000000000000000000000000000000000000005f82015250565b5f611a0b6003836117f9565b9150611a16826119d7565b600382019050919050565b5f611a2b8261182b565b9150611a3682611875565b9150611a41826118bf565b9150611a4c82611875565b9150611a5782611909565b9150611a6282611953565b9150611a6e82846119a7565b9150611a7982611875565b9150611a84826119ff565b915081905092915050565b7f5374616b696e672047756172616e7465652043617264000000000000000000005f82015250565b5f611ac3601683611742565b9150611ace82611a8f565b602082019050919050565b5f601f19601f8301169050919050565b5f611af382611975565b611afd8185611742565b9350611b0d81856020860161197f565b611b1681611ad9565b840191505092915050565b7f68747470733a2f2f697066732e696f2f697066732f516d57456751736b4263745f8201527f514a55617245796376366378506e4d3357723461487a3672476f7132516d547660208201527f7755633f66696c656e616d653d51564577617272616e74792e706e6700000000604082015250565b5f611ba1605c83611742565b9150611bac82611b21565b606082019050919050565b5f6060820190508181035f830152611bce81611ab7565b90508181036020830152611be28184611ae9565b90508181036040830152611bf581611b95565b905092915050565b7f4f776e61626c653a206e6577206f776e657220697320746865207a65726f20615f8201527f6464726573730000000000000000000000000000000000000000000000000000602082015250565b5f611c57602683611742565b9150611c6282611bfd565b604082019050919050565b5f6020820190508181035f830152611c8481611c4b565b9050919050565b7f4275726e20515645207472616e73666572206572726f720000000000000000005f82015250565b5f611cbf601783611742565b9150611cca82611c8b565b602082019050919050565b5f6020820190508181035f830152611cec81611cb3565b9050919050565b7f4e487b71000000000000000000000000000000000000000000000000000000005f52601160045260245ffd5b5f611d2a82611280565b9150611d3583611280565b9250828202611d4381611280565b91508282048414831517611d5a57611d59611cf3565b5b5092915050565b5f611d6b82611280565b9150611d7683611280565b9250828201905080821115611d8e57611d8d611cf3565b5b92915050565b7f4f776e61626c653a2063616c6c6572206973206e6f7420746865206f776e65725f82015250565b5f611dc8602083611742565b9150611dd382611d94565b602082019050919050565b5f6020820190508181035f830152611df581611dbc565b9050919050565b7f4e487b71000000000000000000000000000000000000000000000000000000005f52604160045260245ffd5b7f4e487b71000000000000000000000000000000000000000000000000000000005f52601260045260245ffd5b5f606082019050611e695f830186611665565b611e766020830185611665565b611e836040830184611289565b949350505050565b7f515645207472616e73666572206572726f7200000000000000000000000000005f82015250565b5f611ebf601283611742565b9150611eca82611e8b565b602082019050919050565b5f6020820190508181035f830152611eec81611eb3565b9050919050565b5f611efd82611280565b9150611f0883611280565b9250828203905081811115611f2057611f1f611cf3565b5b92915050565b5f604082019050611f395f830185611665565b611f466020830184611289565b939250505056fea264697066735822122090e867db1890c4b892b144917b5347672f2bad2c0e9a646a5b092d4ed917483664736f6c63430008150033",
			"opcodes": "PUSH1 0xC0 PUSH1 0x40 MSTORE CALLVALUE DUP1 ISZERO PUSH3 0x10 JUMPI PUSH0 DUP1 REVERT JUMPDEST POP PUSH1 0x40 MLOAD PUSH3 0x2705 CODESIZE SUB DUP1 PUSH3 0x2705 DUP4 CODECOPY DUP2 DUP2 ADD PUSH1 0x40 MSTORE DUP2 ADD SWAP1 PUSH3 0x36 SWAP2 SWAP1 PUSH3 0x4F2 JUMP JUMPDEST PUSH3 0x56 PUSH3 0x4A PUSH3 0x32E PUSH1 0x20 SHL PUSH1 0x20 SHR JUMP JUMPDEST PUSH3 0x335 PUSH1 0x20 SHL PUSH1 0x20 SHR JUMP JUMPDEST DUP3 PUSH1 0x2 PUSH0 PUSH2 0x100 EXP DUP2 SLOAD DUP2 PUSH20 0xFFFFFFFFFFFFFFFFFFFFFFFFFFFFFFFFFFFFFFFF MUL NOT AND SWAP1 DUP4 PUSH20 0xFFFFFFFFFFFFFFFFFFFFFFFFFFFFFFFFFFFFFFFF AND MUL OR SWAP1 SSTORE POP DUP2 PUSH1 0x3 PUSH0 PUSH2 0x100 EXP DUP2 SLOAD DUP2 PUSH20 0xFFFFFFFFFFFFFFFFFFFFFFFFFFFFFFFFFFFFFFFF MUL NOT AND SWAP1 DUP4 PUSH20 0xFFFFFFFFFFFFFFFFFFFFFFFFFFFFFFFFFFFFFFFF AND MUL OR SWAP1 SSTORE POP DUP1 PUSH1 0x4 PUSH0 PUSH2 0x100 EXP DUP2 SLOAD DUP2 PUSH20 0xFFFFFFFFFFFFFFFFFFFFFFFFFFFFFFFFFFFFFFFF MUL NOT AND SWAP1 DUP4 PUSH20 0xFFFFFFFFFFFFFFFFFFFFFFFFFFFFFFFFFFFFFFFF AND MUL OR SWAP1 SSTORE POP PUSH1 0x2 PUSH0 SWAP1 SLOAD SWAP1 PUSH2 0x100 EXP SWAP1 DIV PUSH20 0xFFFFFFFFFFFFFFFFFFFFFFFFFFFFFFFFFFFFFFFF AND PUSH20 0xFFFFFFFFFFFFFFFFFFFFFFFFFFFFFFFFFFFFFFFF AND PUSH4 0x469895C8 CALLER ADDRESS PUSH1 0x2 DUP1 PUSH0 SWAP1 SLOAD SWAP1 PUSH2 0x100 EXP SWAP1 DIV PUSH20 0xFFFFFFFFFFFFFFFFFFFFFFFFFFFFFFFFFFFFFFFF AND PUSH20 0xFFFFFFFFFFFFFFFFFFFFFFFFFFFFFFFFFFFFFFFF AND PUSH4 0x18160DDD PUSH1 0x40 MLOAD DUP2 PUSH4 0xFFFFFFFF AND PUSH1 0xE0 SHL DUP2 MSTORE PUSH1 0x4 ADD PUSH1 0x20 PUSH1 0x40 MLOAD DUP1 DUP4 SUB DUP2 DUP7 GAS STATICCALL ISZERO DUP1 ISZERO PUSH3 0x1C1 JUMPI RETURNDATASIZE PUSH0 DUP1 RETURNDATACOPY RETURNDATASIZE PUSH0 REVERT JUMPDEST POP POP POP POP PUSH1 0x40 MLOAD RETURNDATASIZE PUSH1 0x1F NOT PUSH1 0x1F DUP3 ADD AND DUP3 ADD DUP1 PUSH1 0x40 MSTORE POP DUP2 ADD SWAP1 PUSH3 0x1E7 SWAP2 SWAP1 PUSH3 0x583 JUMP JUMPDEST PUSH3 0x1F3 SWAP2 SWAP1 PUSH3 0x60D JUMP JUMPDEST PUSH1 0x40 MLOAD DUP5 PUSH4 0xFFFFFFFF AND PUSH1 0xE0 SHL DUP2 MSTORE PUSH1 0x4 ADD PUSH3 0x213 SWAP4 SWAP3 SWAP2 SWAP1 PUSH3 0x666 JUMP JUMPDEST PUSH1 0x20 PUSH1 0x40 MLOAD DUP1 DUP4 SUB DUP2 PUSH0 DUP8 GAS CALL ISZERO DUP1 ISZERO PUSH3 0x230 JUMPI RETURNDATASIZE PUSH0 DUP1 RETURNDATACOPY RETURNDATASIZE PUSH0 REVERT JUMPDEST POP POP POP POP PUSH1 0x40 MLOAD RETURNDATASIZE PUSH1 0x1F NOT PUSH1 0x1F DUP3 ADD AND DUP3 ADD DUP1 PUSH1 0x40 MSTORE POP DUP2 ADD SWAP1 PUSH3 0x256 SWAP2 SWAP1 PUSH3 0x6DB JUMP JUMPDEST POP PUSH8 0xDE0B6B3A7640000 PUSH1 0x2 PUSH0 SWAP1 SLOAD SWAP1 PUSH2 0x100 EXP SWAP1 DIV PUSH20 0xFFFFFFFFFFFFFFFFFFFFFFFFFFFFFFFFFFFFFFFF AND PUSH20 0xFFFFFFFFFFFFFFFFFFFFFFFFFFFFFFFFFFFFFFFF AND PUSH4 0x70A08231 ADDRESS PUSH1 0x40 MLOAD DUP3 PUSH4 0xFFFFFFFF AND PUSH1 0xE0 SHL DUP2 MSTORE PUSH1 0x4 ADD PUSH3 0x2BC SWAP2 SWAP1 PUSH3 0x70B JUMP JUMPDEST PUSH1 0x20 PUSH1 0x40 MLOAD DUP1 DUP4 SUB DUP2 DUP7 GAS STATICCALL ISZERO DUP1 ISZERO PUSH3 0x2D8 JUMPI RETURNDATASIZE PUSH0 DUP1 RETURNDATACOPY RETURNDATASIZE PUSH0 REVERT JUMPDEST POP POP POP POP PUSH1 0x40 MLOAD RETURNDATASIZE PUSH1 0x1F NOT PUSH1 0x1F DUP3 ADD AND DUP3 ADD DUP1 PUSH1 0x40 MSTORE POP DUP2 ADD SWAP1 PUSH3 0x2FE SWAP2 SWAP1 PUSH3 0x583 JUMP JUMPDEST PUSH3 0x30A SWAP2 SWAP1 PUSH3 0x60D JUMP JUMPDEST PUSH1 0x5 PUSH0 ADD PUSH0 DUP3 DUP3 SLOAD PUSH3 0x31E SWAP2 SWAP1 PUSH3 0x726 JUMP JUMPDEST SWAP3 POP POP DUP2 SWAP1 SSTORE POP POP POP POP PUSH3 0x760 JUMP JUMPDEST PUSH0 CALLER SWAP1 POP SWAP1 JUMP JUMPDEST PUSH0 DUP1 PUSH0 SWAP1 SLOAD SWAP1 PUSH2 0x100 EXP SWAP1 DIV PUSH20 0xFFFFFFFFFFFFFFFFFFFFFFFFFFFFFFFFFFFFFFFF AND SWAP1 POP DUP2 PUSH0 DUP1 PUSH2 0x100 EXP DUP2 SLOAD DUP2 PUSH20 0xFFFFFFFFFFFFFFFFFFFFFFFFFFFFFFFFFFFFFFFF MUL NOT AND SWAP1 DUP4 PUSH20 0xFFFFFFFFFFFFFFFFFFFFFFFFFFFFFFFFFFFFFFFF AND MUL OR SWAP1 SSTORE POP DUP2 PUSH20 0xFFFFFFFFFFFFFFFFFFFFFFFFFFFFFFFFFFFFFFFF AND DUP2 PUSH20 0xFFFFFFFFFFFFFFFFFFFFFFFFFFFFFFFFFFFFFFFF AND PUSH32 0x8BE0079C531659141344CD1FD0A4F28419497F9722A3DAAFE3B4186F6B6457E0 PUSH1 0x40 MLOAD PUSH1 0x40 MLOAD DUP1 SWAP2 SUB SWAP1 LOG3 POP POP JUMP JUMPDEST PUSH0 DUP1 REVERT JUMPDEST PUSH0 PUSH20 0xFFFFFFFFFFFFFFFFFFFFFFFFFFFFFFFFFFFFFFFF DUP3 AND SWAP1 POP SWAP2 SWAP1 POP JUMP JUMPDEST PUSH0 PUSH3 0x425 DUP3 PUSH3 0x3FA JUMP JUMPDEST SWAP1 POP SWAP2 SWAP1 POP JUMP JUMPDEST PUSH0 PUSH3 0x438 DUP3 PUSH3 0x419 JUMP JUMPDEST SWAP1 POP SWAP2 SWAP1 POP JUMP JUMPDEST PUSH3 0x44A DUP2 PUSH3 0x42C JUMP JUMPDEST DUP2 EQ PUSH3 0x455 JUMPI PUSH0 DUP1 REVERT JUMPDEST POP JUMP JUMPDEST PUSH0 DUP2 MLOAD SWAP1 POP PUSH3 0x468 DUP2 PUSH3 0x43F JUMP JUMPDEST SWAP3 SWAP2 POP POP JUMP JUMPDEST PUSH0 PUSH3 0x47A DUP3 PUSH3 0x419 JUMP JUMPDEST SWAP1 POP SWAP2 SWAP1 POP JUMP JUMPDEST PUSH3 0x48C DUP2 PUSH3 0x46E JUMP JUMPDEST DUP2 EQ PUSH3 0x497 JUMPI PUSH0 DUP1 REVERT JUMPDEST POP JUMP JUMPDEST PUSH0 DUP2 MLOAD SWAP1 POP PUSH3 0x4AA DUP2 PUSH3 0x481 JUMP JUMPDEST SWAP3 SWAP2 POP POP JUMP JUMPDEST PUSH0 PUSH3 0x4BC DUP3 PUSH3 0x419 JUMP JUMPDEST SWAP1 POP SWAP2 SWAP1 POP JUMP JUMPDEST PUSH3 0x4CE DUP2 PUSH3 0x4B0 JUMP JUMPDEST DUP2 EQ PUSH3 0x4D9 JUMPI PUSH0 DUP1 REVERT JUMPDEST POP JUMP JUMPDEST PUSH0 DUP2 MLOAD SWAP1 POP PUSH3 0x4EC DUP2 PUSH3 0x4C3 JUMP JUMPDEST SWAP3 SWAP2 POP POP JUMP JUMPDEST PUSH0 DUP1 PUSH0 PUSH1 0x60 DUP5 DUP7 SUB SLT ISZERO PUSH3 0x50C JUMPI PUSH3 0x50B PUSH3 0x3F6 JUMP JUMPDEST JUMPDEST PUSH0 PUSH3 0x51B DUP7 DUP3 DUP8 ADD PUSH3 0x458 JUMP JUMPDEST SWAP4 POP POP PUSH1 0x20 PUSH3 0x52E DUP7 DUP3 DUP8 ADD PUSH3 0x49A JUMP JUMPDEST SWAP3 POP POP PUSH1 0x40 PUSH3 0x541 DUP7 DUP3 DUP8 ADD PUSH3 0x4DC JUMP JUMPDEST SWAP2 POP POP SWAP3 POP SWAP3 POP SWAP3 JUMP JUMPDEST PUSH0 DUP2 SWAP1 POP SWAP2 SWAP1 POP JUMP JUMPDEST PUSH3 0x55F DUP2 PUSH3 0x54B JUMP JUMPDEST DUP2 EQ PUSH3 0x56A JUMPI PUSH0 DUP1 REVERT JUMPDEST POP JUMP JUMPDEST PUSH0 DUP2 MLOAD SWAP1 POP PUSH3 0x57D DUP2 PUSH3 0x554 JUMP JUMPDEST SWAP3 SWAP2 POP POP JUMP JUMPDEST PUSH0 PUSH1 0x20 DUP3 DUP5 SUB SLT ISZERO PUSH3 0x59B JUMPI PUSH3 0x59A PUSH3 0x3F6 JUMP JUMPDEST JUMPDEST PUSH0 PUSH3 0x5AA DUP5 DUP3 DUP6 ADD PUSH3 0x56D JUMP JUMPDEST SWAP2 POP POP SWAP3 SWAP2 POP POP JUMP JUMPDEST PUSH32 0x4E487B7100000000000000000000000000000000000000000000000000000000 PUSH0 MSTORE PUSH1 0x12 PUSH1 0x4 MSTORE PUSH1 0x24 PUSH0 REVERT JUMPDEST PUSH32 0x4E487B7100000000000000000000000000000000000000000000000000000000 PUSH0 MSTORE PUSH1 0x11 PUSH1 0x4 MSTORE PUSH1 0x24 PUSH0 REVERT JUMPDEST PUSH0 PUSH3 0x619 DUP3 PUSH3 0x54B JUMP JUMPDEST SWAP2 POP PUSH3 0x626 DUP4 PUSH3 0x54B JUMP JUMPDEST SWAP3 POP DUP3 PUSH3 0x639 JUMPI PUSH3 0x638 PUSH3 0x5B3 JUMP JUMPDEST JUMPDEST DUP3 DUP3 DIV SWAP1 POP SWAP3 SWAP2 POP POP JUMP JUMPDEST PUSH3 0x64F DUP2 PUSH3 0x419 JUMP JUMPDEST DUP3 MSTORE POP POP JUMP JUMPDEST PUSH3 0x660 DUP2 PUSH3 0x54B JUMP JUMPDEST DUP3 MSTORE POP POP JUMP JUMPDEST PUSH0 PUSH1 0x60 DUP3 ADD SWAP1 POP PUSH3 0x67B PUSH0 DUP4 ADD DUP7 PUSH3 0x644 JUMP JUMPDEST PUSH3 0x68A PUSH1 0x20 DUP4 ADD DUP6 PUSH3 0x644 JUMP JUMPDEST PUSH3 0x699 PUSH1 0x40 DUP4 ADD DUP5 PUSH3 0x655 JUMP JUMPDEST SWAP5 SWAP4 POP POP POP POP JUMP JUMPDEST PUSH0 DUP2 ISZERO ISZERO SWAP1 POP SWAP2 SWAP1 POP JUMP JUMPDEST PUSH3 0x6B7 DUP2 PUSH3 0x6A1 JUMP JUMPDEST DUP2 EQ PUSH3 0x6C2 JUMPI PUSH0 DUP1 REVERT JUMPDEST POP JUMP JUMPDEST PUSH0 DUP2 MLOAD SWAP1 POP PUSH3 0x6D5 DUP2 PUSH3 0x6AC JUMP JUMPDEST SWAP3 SWAP2 POP POP JUMP JUMPDEST PUSH0 PUSH1 0x20 DUP3 DUP5 SUB SLT ISZERO PUSH3 0x6F3 JUMPI PUSH3 0x6F2 PUSH3 0x3F6 JUMP JUMPDEST JUMPDEST PUSH0 PUSH3 0x702 DUP5 DUP3 DUP6 ADD PUSH3 0x6C5 JUMP JUMPDEST SWAP2 POP POP SWAP3 SWAP2 POP POP JUMP JUMPDEST PUSH0 PUSH1 0x20 DUP3 ADD SWAP1 POP PUSH3 0x720 PUSH0 DUP4 ADD DUP5 PUSH3 0x644 JUMP JUMPDEST SWAP3 SWAP2 POP POP JUMP JUMPDEST PUSH0 PUSH3 0x732 DUP3 PUSH3 0x54B JUMP JUMPDEST SWAP2 POP PUSH3 0x73F DUP4 PUSH3 0x54B JUMP JUMPDEST SWAP3 POP DUP3 DUP3 ADD SWAP1 POP DUP1 DUP3 GT ISZERO PUSH3 0x75A JUMPI PUSH3 0x759 PUSH3 0x5E0 JUMP JUMPDEST JUMPDEST SWAP3 SWAP2 POP POP JUMP JUMPDEST PUSH1 0x80 MLOAD PUSH1 0xA0 MLOAD PUSH2 0x1F83 PUSH3 0x782 PUSH0 CODECOPY PUSH0 PUSH2 0x647 ADD MSTORE PUSH0 PUSH2 0x7F0 ADD MSTORE PUSH2 0x1F83 PUSH0 RETURN INVALID PUSH1 0x80 PUSH1 0x40 MSTORE PUSH1 0x4 CALLDATASIZE LT PUSH2 0x113 JUMPI PUSH0 CALLDATALOAD PUSH1 0xE0 SHR DUP1 PUSH4 0x8DA5CB5B GT PUSH2 0x9F JUMPI DUP1 PUSH4 0xCCC8AD12 GT PUSH2 0x63 JUMPI DUP1 PUSH4 0xCCC8AD12 EQ PUSH2 0x38A JUMPI DUP1 PUSH4 0xE44A998C EQ PUSH2 0x3BA JUMPI DUP1 PUSH4 0xF2FDE38B EQ PUSH2 0x3E4 JUMPI DUP1 PUSH4 0xF366B27E EQ PUSH2 0x40C JUMPI DUP1 PUSH4 0xFDCDBAE2 EQ PUSH2 0x448 JUMPI PUSH2 0x113 JUMP JUMPDEST DUP1 PUSH4 0x8DA5CB5B EQ PUSH2 0x2A6 JUMPI DUP1 PUSH4 0x9F62E796 EQ PUSH2 0x2D0 JUMPI DUP1 PUSH4 0xBC0925AE EQ PUSH2 0x2FA JUMPI DUP1 PUSH4 0xC2E8CAF6 EQ PUSH2 0x324 JUMPI DUP1 PUSH4 0xC959360B EQ PUSH2 0x34E JUMPI PUSH2 0x113 JUMP JUMPDEST DUP1 PUSH4 0x510B7F98 GT PUSH2 0xE6 JUMPI DUP1 PUSH4 0x510B7F98 EQ PUSH2 0x1D3 JUMPI DUP1 PUSH4 0x52584F58 EQ PUSH2 0x1FD JUMPI DUP1 PUSH4 0x52946B04 EQ PUSH2 0x23C JUMPI DUP1 PUSH4 0x5AC66993 EQ PUSH2 0x266 JUMPI DUP1 PUSH4 0x715018A6 EQ PUSH2 0x290 JUMPI PUSH2 0x113 JUMP JUMPDEST DUP1 PUSH4 0x691BADF EQ PUSH2 0x117 JUMPI DUP1 PUSH4 0xE301D24 EQ PUSH2 0x142 JUMPI DUP1 PUSH4 0x12782B56 EQ PUSH2 0x16D JUMPI DUP1 PUSH4 0x2B1C4158 EQ PUSH2 0x1A9 JUMPI JUMPDEST PUSH0 DUP1 REVERT JUMPDEST CALLVALUE DUP1 ISZERO PUSH2 0x122 JUMPI PUSH0 DUP1 REVERT JUMPDEST POP PUSH2 0x12B PUSH2 0x472 JUMP JUMPDEST PUSH1 0x40 MLOAD PUSH2 0x139 SWAP3 SWAP2 SWAP1 PUSH2 0x1298 JUMP JUMPDEST PUSH1 0x40 MLOAD DUP1 SWAP2 SUB SWAP1 RETURN JUMPDEST CALLVALUE DUP1 ISZERO PUSH2 0x14D JUMPI PUSH0 DUP1 REVERT JUMPDEST POP PUSH2 0x156 PUSH2 0x483 JUMP JUMPDEST PUSH1 0x40 MLOAD PUSH2 0x164 SWAP3 SWAP2 SWAP1 PUSH2 0x1298 JUMP JUMPDEST PUSH1 0x40 MLOAD DUP1 SWAP2 SUB SWAP1 RETURN JUMPDEST CALLVALUE DUP1 ISZERO PUSH2 0x178 JUMPI PUSH0 DUP1 REVERT JUMPDEST POP PUSH2 0x193 PUSH1 0x4 DUP1 CALLDATASIZE SUB DUP2 ADD SWAP1 PUSH2 0x18E SWAP2 SWAP1 PUSH2 0x12ED JUMP JUMPDEST PUSH2 0x494 JUMP JUMPDEST PUSH1 0x40 MLOAD PUSH2 0x1A0 SWAP2 SWAP1 PUSH2 0x1332 JUMP JUMPDEST PUSH1 0x40 MLOAD DUP1 SWAP2 SUB SWAP1 RETURN JUMPDEST CALLVALUE DUP1 ISZERO PUSH2 0x1B4 JUMPI PUSH0 DUP1 REVERT JUMPDEST POP PUSH2 0x1BD PUSH2 0x583 JUMP JUMPDEST PUSH1 0x40 MLOAD PUSH2 0x1CA SWAP2 SWAP1 PUSH2 0x13C5 JUMP JUMPDEST PUSH1 0x40 MLOAD DUP1 SWAP2 SUB SWAP1 RETURN JUMPDEST CALLVALUE DUP1 ISZERO PUSH2 0x1DE JUMPI PUSH0 DUP1 REVERT JUMPDEST POP PUSH2 0x1E7 PUSH2 0x5A8 JUMP JUMPDEST PUSH1 0x40 MLOAD PUSH2 0x1F4 SWAP2 SWAP1 PUSH2 0x13FE JUMP JUMPDEST PUSH1 0x40 MLOAD DUP1 SWAP2 SUB SWAP1 RETURN JUMPDEST CALLVALUE DUP1 ISZERO PUSH2 0x208 JUMPI PUSH0 DUP1 REVERT JUMPDEST POP PUSH2 0x223 PUSH1 0x4 DUP1 CALLDATASIZE SUB DUP2 ADD SWAP1 PUSH2 0x21E SWAP2 SWAP1 PUSH2 0x1452 JUMP JUMPDEST PUSH2 0x5CD JUMP JUMPDEST PUSH1 0x40 MLOAD PUSH2 0x233 SWAP5 SWAP4 SWAP3 SWAP2 SWAP1 PUSH2 0x1505 JUMP JUMPDEST PUSH1 0x40 MLOAD DUP1 SWAP2 SUB SWAP1 RETURN JUMPDEST CALLVALUE DUP1 ISZERO PUSH2 0x247 JUMPI PUSH0 DUP1 REVERT JUMPDEST POP PUSH2 0x250 PUSH2 0x645 JUMP JUMPDEST PUSH1 0x40 MLOAD PUSH2 0x25D SWAP2 SWAP1 PUSH2 0x1548 JUMP JUMPDEST PUSH1 0x40 MLOAD DUP1 SWAP2 SUB SWAP1 RETURN JUMPDEST CALLVALUE DUP1 ISZERO PUSH2 0x271 JUMPI PUSH0 DUP1 REVERT JUMPDEST POP PUSH2 0x27A PUSH2 0x669 JUMP JUMPDEST PUSH1 0x40 MLOAD PUSH2 0x287 SWAP2 SWAP1 PUSH2 0x1645 JUMP JUMPDEST PUSH1 0x40 MLOAD DUP1 SWAP2 SUB SWAP1 RETURN JUMPDEST CALLVALUE DUP1 ISZERO PUSH2 0x29B JUMPI PUSH0 DUP1 REVERT JUMPDEST POP PUSH2 0x2A4 PUSH2 0x715 JUMP JUMPDEST STOP JUMPDEST CALLVALUE DUP1 ISZERO PUSH2 0x2B1 JUMPI PUSH0 DUP1 REVERT JUMPDEST POP PUSH2 0x2BA PUSH2 0x728 JUMP JUMPDEST PUSH1 0x40 MLOAD PUSH2 0x2C7 SWAP2 SWAP1 PUSH2 0x1674 JUMP JUMPDEST PUSH1 0x40 MLOAD DUP1 SWAP2 SUB SWAP1 RETURN JUMPDEST CALLVALUE DUP1 ISZERO PUSH2 0x2DB JUMPI PUSH0 DUP1 REVERT JUMPDEST POP PUSH2 0x2E4 PUSH2 0x74F JUMP JUMPDEST PUSH1 0x40 MLOAD PUSH2 0x2F1 SWAP2 SWAP1 PUSH2 0x1548 JUMP JUMPDEST PUSH1 0x40 MLOAD DUP1 SWAP2 SUB SWAP1 RETURN JUMPDEST CALLVALUE DUP1 ISZERO PUSH2 0x305 JUMPI PUSH0 DUP1 REVERT JUMPDEST POP PUSH2 0x30E PUSH2 0x7EE JUMP JUMPDEST PUSH1 0x40 MLOAD PUSH2 0x31B SWAP2 SWAP1 PUSH2 0x1548 JUMP JUMPDEST PUSH1 0x40 MLOAD DUP1 SWAP2 SUB SWAP1 RETURN JUMPDEST CALLVALUE DUP1 ISZERO PUSH2 0x32F JUMPI PUSH0 DUP1 REVERT JUMPDEST POP PUSH2 0x338 PUSH2 0x812 JUMP JUMPDEST PUSH1 0x40 MLOAD PUSH2 0x345 SWAP2 SWAP1 PUSH2 0x1548 JUMP JUMPDEST PUSH1 0x40 MLOAD DUP1 SWAP2 SUB SWAP1 RETURN JUMPDEST CALLVALUE DUP1 ISZERO PUSH2 0x359 JUMPI PUSH0 DUP1 REVERT JUMPDEST POP PUSH2 0x374 PUSH1 0x4 DUP1 CALLDATASIZE SUB DUP2 ADD SWAP1 PUSH2 0x36F SWAP2 SWAP1 PUSH2 0x1452 JUMP JUMPDEST PUSH2 0x818 JUMP JUMPDEST PUSH1 0x40 MLOAD PUSH2 0x381 SWAP2 SWAP1 PUSH2 0x1548 JUMP JUMPDEST PUSH1 0x40 MLOAD DUP1 SWAP2 SUB SWAP1 RETURN JUMPDEST PUSH2 0x3A4 PUSH1 0x4 DUP1 CALLDATASIZE SUB DUP2 ADD SWAP1 PUSH2 0x39F SWAP2 SWAP1 PUSH2 0x12ED JUMP JUMPDEST PUSH2 0x82D JUMP JUMPDEST PUSH1 0x40 MLOAD PUSH2 0x3B1 SWAP2 SWAP1 PUSH2 0x1332 JUMP JUMPDEST PUSH1 0x40 MLOAD DUP1 SWAP2 SUB SWAP1 RETURN JUMPDEST CALLVALUE DUP1 ISZERO PUSH2 0x3C5 JUMPI PUSH0 DUP1 REVERT JUMPDEST POP PUSH2 0x3CE PUSH2 0x908 JUMP JUMPDEST PUSH1 0x40 MLOAD PUSH2 0x3DB SWAP2 SWAP1 PUSH2 0x1548 JUMP JUMPDEST PUSH1 0x40 MLOAD DUP1 SWAP2 SUB SWAP1 RETURN JUMPDEST CALLVALUE DUP1 ISZERO PUSH2 0x3EF JUMPI PUSH0 DUP1 REVERT JUMPDEST POP PUSH2 0x40A PUSH1 0x4 DUP1 CALLDATASIZE SUB DUP2 ADD SWAP1 PUSH2 0x405 SWAP2 SWAP1 PUSH2 0x1452 JUMP JUMPDEST PUSH2 0x918 JUMP JUMPDEST STOP JUMPDEST CALLVALUE DUP1 ISZERO PUSH2 0x417 JUMPI PUSH0 DUP1 REVERT JUMPDEST POP PUSH2 0x432 PUSH1 0x4 DUP1 CALLDATASIZE SUB DUP2 ADD SWAP1 PUSH2 0x42D SWAP2 SWAP1 PUSH2 0x12ED JUMP JUMPDEST PUSH2 0x99A JUMP JUMPDEST PUSH1 0x40 MLOAD PUSH2 0x43F SWAP2 SWAP1 PUSH2 0x1332 JUMP JUMPDEST PUSH1 0x40 MLOAD DUP1 SWAP2 SUB SWAP1 RETURN JUMPDEST CALLVALUE DUP1 ISZERO PUSH2 0x453 JUMPI PUSH0 DUP1 REVERT JUMPDEST POP PUSH2 0x45C PUSH2 0xB0F JUMP JUMPDEST PUSH1 0x40 MLOAD PUSH2 0x469 SWAP2 SWAP1 PUSH2 0x16AD JUMP JUMPDEST PUSH1 0x40 MLOAD DUP1 SWAP2 SUB SWAP1 RETURN JUMPDEST PUSH1 0x7 DUP1 PUSH0 ADD SLOAD SWAP1 DUP1 PUSH1 0x1 ADD SLOAD SWAP1 POP DUP3 JUMP JUMPDEST PUSH1 0x5 DUP1 PUSH0 ADD SLOAD SWAP1 DUP1 PUSH1 0x1 ADD SLOAD SWAP1 POP DUP3 JUMP JUMPDEST PUSH0 PUSH1 0x3 PUSH0 SWAP1 SLOAD SWAP1 PUSH2 0x100 EXP SWAP1 DIV PUSH20 0xFFFFFFFFFFFFFFFFFFFFFFFFFFFFFFFFFFFFFFFF AND PUSH20 0xFFFFFFFFFFFFFFFFFFFFFFFFFFFFFFFFFFFFFFFF AND PUSH4 0xFDB06A31 DUP4 ADDRESS PUSH1 0x40 MLOAD DUP4 PUSH4 0xFFFFFFFF AND PUSH1 0xE0 SHL DUP2 MSTORE PUSH1 0x4 ADD PUSH2 0x4F1 SWAP3 SWAP2 SWAP1 PUSH2 0x16C6 JUMP JUMPDEST PUSH1 0x20 PUSH1 0x40 MLOAD DUP1 DUP4 SUB DUP2 PUSH0 DUP8 GAS CALL ISZERO DUP1 ISZERO PUSH2 0x50D JUMPI RETURNDATASIZE PUSH0 DUP1 RETURNDATACOPY RETURNDATASIZE PUSH0 REVERT JUMPDEST POP POP POP POP PUSH1 0x40 MLOAD RETURNDATASIZE PUSH1 0x1F NOT PUSH1 0x1F DUP3 ADD AND DUP3 ADD DUP1 PUSH1 0x40 MSTORE POP DUP2 ADD SWAP1 PUSH2 0x531 SWAP2 SWAP1 PUSH2 0x1717 JUMP JUMPDEST PUSH2 0x570 JUMPI PUSH1 0x40 MLOAD PUSH32 0x8C379A000000000000000000000000000000000000000000000000000000000 DUP2 MSTORE PUSH1 0x4 ADD PUSH2 0x567 SWAP1 PUSH2 0x179C JUMP JUMPDEST PUSH1 0x40 MLOAD DUP1 SWAP2 SUB SWAP1 REVERT JUMPDEST PUSH2 0x579 DUP3 PUSH2 0xB34 JUMP JUMPDEST POP PUSH1 0x1 SWAP1 POP SWAP2 SWAP1 POP JUMP JUMPDEST PUSH1 0x2 PUSH0 SWAP1 SLOAD SWAP1 PUSH2 0x100 EXP SWAP1 DIV PUSH20 0xFFFFFFFFFFFFFFFFFFFFFFFFFFFFFFFFFFFFFFFF AND DUP2 JUMP JUMPDEST PUSH1 0x3 PUSH0 SWAP1 SLOAD SWAP1 PUSH2 0x100 EXP SWAP1 DIV PUSH20 0xFFFFFFFFFFFFFFFFFFFFFFFFFFFFFFFFFFFFFFFF AND DUP2 JUMP JUMPDEST PUSH1 0xA PUSH1 0x20 MSTORE DUP1 PUSH0 MSTORE PUSH1 0x40 PUSH0 KECCAK256 PUSH0 SWAP2 POP SWAP1 POP DUP1 PUSH0 ADD PUSH0 SWAP1 SLOAD SWAP1 PUSH2 0x100 EXP SWAP1 DIV PUSH9 0xFFFFFFFFFFFFFFFFFF AND SWAP1 DUP1 PUSH0 ADD PUSH1 0x9 SWAP1 SLOAD SWAP1 PUSH2 0x100 EXP SWAP1 DIV PUSH3 0xFFFFFF AND SWAP1 DUP1 PUSH0 ADD PUSH1 0xC SWAP1 SLOAD SWAP1 PUSH2 0x100 EXP SWAP1 DIV PUSH4 0xFFFFFFFF AND SWAP1 DUP1 PUSH0 ADD PUSH1 0x10 SWAP1 SLOAD SWAP1 PUSH2 0x100 EXP SWAP1 DIV PUSH16 0xFFFFFFFFFFFFFFFFFFFFFFFFFFFFFFFF AND SWAP1 POP DUP5 JUMP JUMPDEST PUSH32 0x0 DUP2 JUMP JUMPDEST PUSH1 0x60 PUSH1 0xD PUSH0 CALLER PUSH20 0xFFFFFFFFFFFFFFFFFFFFFFFFFFFFFFFFFFFFFFFF AND PUSH20 0xFFFFFFFFFFFFFFFFFFFFFFFFFFFFFFFFFFFFFFFF AND DUP2 MSTORE PUSH1 0x20 ADD SWAP1 DUP2 MSTORE PUSH1 0x20 ADD PUSH0 KECCAK256 PUSH0 ADD DUP1 SLOAD DUP1 PUSH1 0x20 MUL PUSH1 0x20 ADD PUSH1 0x40 MLOAD SWAP1 DUP2 ADD PUSH1 0x40 MSTORE DUP1 SWAP3 SWAP2 SWAP1 DUP2 DUP2 MSTORE PUSH1 0x20 ADD PUSH0 SWAP1 JUMPDEST DUP3 DUP3 LT ISZERO PUSH2 0x70C JUMPI DUP4 DUP3 SWAP1 PUSH0 MSTORE PUSH1 0x20 PUSH0 KECCAK256 SWAP1 PUSH1 0x2 MUL ADD PUSH1 0x40 MLOAD DUP1 PUSH1 0x40 ADD PUSH1 0x40 MSTORE SWAP1 DUP2 PUSH0 DUP3 ADD SLOAD DUP2 MSTORE PUSH1 0x20 ADD PUSH1 0x1 DUP3 ADD SLOAD DUP2 MSTORE POP POP DUP2 MSTORE PUSH1 0x20 ADD SWAP1 PUSH1 0x1 ADD SWAP1 PUSH2 0x6C9 JUMP JUMPDEST POP POP POP POP SWAP1 POP SWAP1 JUMP JUMPDEST PUSH2 0x71D PUSH2 0xB62 JUMP JUMPDEST PUSH2 0x726 PUSH0 PUSH2 0xBE0 JUMP JUMPDEST JUMP JUMPDEST PUSH0 DUP1 PUSH0 SWAP1 SLOAD SWAP1 PUSH2 0x100 EXP SWAP1 DIV PUSH20 0xFFFFFFFFFFFFFFFFFFFFFFFFFFFFFFFFFFFFFFFF AND SWAP1 POP SWAP1 JUMP JUMPDEST PUSH0 PUSH1 0x3 PUSH0 SWAP1 SLOAD SWAP1 PUSH2 0x100 EXP SWAP1 DIV PUSH20 0xFFFFFFFFFFFFFFFFFFFFFFFFFFFFFFFFFFFFFFFF AND PUSH20 0xFFFFFFFFFFFFFFFFFFFFFFFFFFFFFFFFFFFFFFFF AND PUSH4 0x70A08231 CALLER PUSH1 0x40 MLOAD DUP3 PUSH4 0xFFFFFFFF AND PUSH1 0xE0 SHL DUP2 MSTORE PUSH1 0x4 ADD PUSH2 0x7AA SWAP2 SWAP1 PUSH2 0x1674 JUMP JUMPDEST PUSH1 0x20 PUSH1 0x40 MLOAD DUP1 DUP4 SUB DUP2 DUP7 GAS STATICCALL ISZERO DUP1 ISZERO PUSH2 0x7C5 JUMPI RETURNDATASIZE PUSH0 DUP1 RETURNDATACOPY RETURNDATASIZE PUSH0 REVERT JUMPDEST POP POP POP POP PUSH1 0x40 MLOAD RETURNDATASIZE PUSH1 0x1F NOT PUSH1 0x1F DUP3 ADD AND DUP3 ADD DUP1 PUSH1 0x40 MSTORE POP DUP2 ADD SWAP1 PUSH2 0x7E9 SWAP2 SWAP1 PUSH2 0x17CE JUMP JUMPDEST SWAP1 POP SWAP1 JUMP JUMPDEST PUSH32 0x0 DUP2 JUMP JUMPDEST PUSH1 0xC SLOAD DUP2 JUMP JUMPDEST PUSH1 0xB PUSH1 0x20 MSTORE DUP1 PUSH0 MSTORE PUSH1 0x40 PUSH0 KECCAK256 PUSH0 SWAP2 POP SWAP1 POP SLOAD DUP2 JUMP JUMPDEST PUSH0 PUSH2 0x837 DUP3 PUSH2 0xCA1 JUMP JUMPDEST POP PUSH0 PUSH2 0x842 DUP4 PUSH2 0xCCA JUMP JUMPDEST PUSH1 0x40 MLOAD PUSH1 0x20 ADD PUSH2 0x852 SWAP2 SWAP1 PUSH2 0x1A21 JUMP JUMPDEST PUSH1 0x40 MLOAD PUSH1 0x20 DUP2 DUP4 SUB SUB DUP2 MSTORE SWAP1 PUSH1 0x40 MSTORE SWAP1 POP PUSH1 0x3 PUSH0 SWAP1 SLOAD SWAP1 PUSH2 0x100 EXP SWAP1 DIV PUSH20 0xFFFFFFFFFFFFFFFFFFFFFFFFFFFFFFFFFFFFFFFF AND PUSH20 0xFFFFFFFFFFFFFFFFFFFFFFFFFFFFFFFFFFFFFFFF AND PUSH4 0x890D80C DUP3 PUSH1 0x40 MLOAD DUP3 PUSH4 0xFFFFFFFF AND PUSH1 0xE0 SHL DUP2 MSTORE PUSH1 0x4 ADD PUSH2 0x8BD SWAP2 SWAP1 PUSH2 0x1BB7 JUMP JUMPDEST PUSH1 0x20 PUSH1 0x40 MLOAD DUP1 DUP4 SUB DUP2 PUSH0 DUP8 GAS CALL ISZERO DUP1 ISZERO PUSH2 0x8D9 JUMPI RETURNDATASIZE PUSH0 DUP1 RETURNDATACOPY RETURNDATASIZE PUSH0 REVERT JUMPDEST POP POP POP POP PUSH1 0x40 MLOAD RETURNDATASIZE PUSH1 0x1F NOT PUSH1 0x1F DUP3 ADD AND DUP3 ADD DUP1 PUSH1 0x40 MSTORE POP DUP2 ADD SWAP1 PUSH2 0x8FD SWAP2 SWAP1 PUSH2 0x1717 JUMP JUMPDEST POP PUSH1 0x1 SWAP2 POP POP SWAP2 SWAP1 POP JUMP JUMPDEST PUSH0 PUSH2 0x913 PUSH1 0x1 PUSH2 0xD94 JUMP JUMPDEST SWAP1 POP SWAP1 JUMP JUMPDEST PUSH2 0x920 PUSH2 0xB62 JUMP JUMPDEST PUSH0 PUSH20 0xFFFFFFFFFFFFFFFFFFFFFFFFFFFFFFFFFFFFFFFF AND DUP2 PUSH20 0xFFFFFFFFFFFFFFFFFFFFFFFFFFFFFFFFFFFFFFFF AND SUB PUSH2 0x98E JUMPI PUSH1 0x40 MLOAD PUSH32 0x8C379A000000000000000000000000000000000000000000000000000000000 DUP2 MSTORE PUSH1 0x4 ADD PUSH2 0x985 SWAP1 PUSH2 0x1C6D JUMP JUMPDEST PUSH1 0x40 MLOAD DUP1 SWAP2 SUB SWAP1 REVERT JUMPDEST PUSH2 0x997 DUP2 PUSH2 0xBE0 JUMP JUMPDEST POP JUMP JUMPDEST PUSH0 PUSH1 0x3 PUSH0 SWAP1 SLOAD SWAP1 PUSH2 0x100 EXP SWAP1 DIV PUSH20 0xFFFFFFFFFFFFFFFFFFFFFFFFFFFFFFFFFFFFFFFF AND PUSH20 0xFFFFFFFFFFFFFFFFFFFFFFFFFFFFFFFFFFFFFFFF AND PUSH4 0x42966C68 DUP4 PUSH1 0x40 MLOAD DUP3 PUSH4 0xFFFFFFFF AND PUSH1 0xE0 SHL DUP2 MSTORE PUSH1 0x4 ADD PUSH2 0x9F5 SWAP2 SWAP1 PUSH2 0x1548 JUMP JUMPDEST PUSH0 PUSH1 0x40 MLOAD DUP1 DUP4 SUB DUP2 PUSH0 DUP8 DUP1 EXTCODESIZE ISZERO DUP1 ISZERO PUSH2 0xA0C JUMPI PUSH0 DUP1 REVERT JUMPDEST POP GAS CALL ISZERO DUP1 ISZERO PUSH2 0xA1E JUMPI RETURNDATASIZE PUSH0 DUP1 RETURNDATACOPY RETURNDATASIZE PUSH0 REVERT JUMPDEST POP POP POP POP PUSH2 0xA6B CALLER PUSH1 0x9 PUSH0 CALLER PUSH20 0xFFFFFFFFFFFFFFFFFFFFFFFFFFFFFFFFFFFFFFFF AND PUSH20 0xFFFFFFFFFFFFFFFFFFFFFFFFFFFFFFFFFFFFFFFF AND DUP2 MSTORE PUSH1 0x20 ADD SWAP1 DUP2 MSTORE PUSH1 0x20 ADD PUSH0 KECCAK256 PUSH0 ADD SLOAD PUSH2 0xDA0 JUMP JUMPDEST PUSH2 0xAAA JUMPI PUSH1 0x40 MLOAD PUSH32 0x8C379A000000000000000000000000000000000000000000000000000000000 DUP2 MSTORE PUSH1 0x4 ADD PUSH2 0xAA1 SWAP1 PUSH2 0x1CD5 JUMP JUMPDEST PUSH1 0x40 MLOAD DUP1 SWAP2 SUB SWAP1 REVERT JUMPDEST PUSH2 0xAFE PUSH1 0xA PUSH1 0x9 PUSH0 CALLER PUSH20 0xFFFFFFFFFFFFFFFFFFFFFFFFFFFFFFFFFFFFFFFF AND PUSH20 0xFFFFFFFFFFFFFFFFFFFFFFFFFFFFFFFFFFFFFFFF AND DUP2 MSTORE PUSH1 0x20 ADD SWAP1 DUP2 MSTORE PUSH1 0x20 ADD PUSH0 KECCAK256 PUSH0 ADD SLOAD PUSH2 0xAF9 SWAP2 SWAP1 PUSH2 0x1D20 JUMP JUMPDEST PUSH2 0xEBF JUMP JUMPDEST PUSH2 0xB06 JUMPI PUSH0 DUP1 REVERT JUMPDEST PUSH1 0x1 SWAP1 POP SWAP2 SWAP1 POP JUMP JUMPDEST PUSH1 0x4 PUSH0 SWAP1 SLOAD SWAP1 PUSH2 0x100 EXP SWAP1 DIV PUSH20 0xFFFFFFFFFFFFFFFFFFFFFFFFFFFFFFFFFFFFFFFF AND DUP2 JUMP JUMPDEST PUSH0 DUP2 PUSH1 0x5 PUSH0 ADD PUSH0 DUP3 DUP3 SLOAD PUSH2 0xB48 SWAP2 SWAP1 PUSH2 0x1D61 JUMP JUMPDEST SWAP3 POP POP DUP2 SWAP1 SSTORE POP TIMESTAMP PUSH1 0x5 PUSH1 0x1 ADD DUP2 SWAP1 SSTORE POP PUSH1 0x1 SWAP1 POP SWAP2 SWAP1 POP JUMP JUMPDEST PUSH2 0xB6A PUSH2 0xF66 JUMP JUMPDEST PUSH20 0xFFFFFFFFFFFFFFFFFFFFFFFFFFFFFFFFFFFFFFFF AND PUSH2 0xB88 PUSH2 0x728 JUMP JUMPDEST PUSH20 0xFFFFFFFFFFFFFFFFFFFFFFFFFFFFFFFFFFFFFFFF AND EQ PUSH2 0xBDE JUMPI PUSH1 0x40 MLOAD PUSH32 0x8C379A000000000000000000000000000000000000000000000000000000000 DUP2 MSTORE PUSH1 0x4 ADD PUSH2 0xBD5 SWAP1 PUSH2 0x1DDE JUMP JUMPDEST PUSH1 0x40 MLOAD DUP1 SWAP2 SUB SWAP1 REVERT JUMPDEST JUMP JUMPDEST PUSH0 DUP1 PUSH0 SWAP1 SLOAD SWAP1 PUSH2 0x100 EXP SWAP1 DIV PUSH20 0xFFFFFFFFFFFFFFFFFFFFFFFFFFFFFFFFFFFFFFFF AND SWAP1 POP DUP2 PUSH0 DUP1 PUSH2 0x100 EXP DUP2 SLOAD DUP2 PUSH20 0xFFFFFFFFFFFFFFFFFFFFFFFFFFFFFFFFFFFFFFFF MUL NOT AND SWAP1 DUP4 PUSH20 0xFFFFFFFFFFFFFFFFFFFFFFFFFFFFFFFFFFFFFFFF AND MUL OR SWAP1 SSTORE POP DUP2 PUSH20 0xFFFFFFFFFFFFFFFFFFFFFFFFFFFFFFFFFFFFFFFF AND DUP2 PUSH20 0xFFFFFFFFFFFFFFFFFFFFFFFFFFFFFFFFFFFFFFFF AND PUSH32 0x8BE0079C531659141344CD1FD0A4F28419497F9722A3DAAFE3B4186F6B6457E0 PUSH1 0x40 MLOAD PUSH1 0x40 MLOAD DUP1 SWAP2 SUB SWAP1 LOG3 POP POP JUMP JUMPDEST PUSH0 PUSH2 0xCAB CALLER PUSH2 0xF6D JUMP JUMPDEST POP PUSH2 0xCB6 CALLER DUP4 PUSH2 0x10A8 JUMP JUMPDEST POP PUSH2 0xCC1 PUSH1 0x1 PUSH2 0x111B JUMP JUMPDEST PUSH1 0x1 SWAP1 POP SWAP2 SWAP1 POP JUMP JUMPDEST PUSH1 0x60 PUSH0 PUSH1 0x1 PUSH2 0xCD8 DUP5 PUSH2 0x112F JUMP JUMPDEST ADD SWAP1 POP PUSH0 DUP2 PUSH8 0xFFFFFFFFFFFFFFFF DUP2 GT ISZERO PUSH2 0xCF6 JUMPI PUSH2 0xCF5 PUSH2 0x1DFC JUMP JUMPDEST JUMPDEST PUSH1 0x40 MLOAD SWAP1 DUP1 DUP3 MSTORE DUP1 PUSH1 0x1F ADD PUSH1 0x1F NOT AND PUSH1 0x20 ADD DUP3 ADD PUSH1 0x40 MSTORE DUP1 ISZERO PUSH2 0xD28 JUMPI DUP2 PUSH1 0x20 ADD PUSH1 0x1 DUP3 MUL DUP1 CALLDATASIZE DUP4 CALLDATACOPY DUP1 DUP3 ADD SWAP2 POP POP SWAP1 POP JUMPDEST POP SWAP1 POP PUSH0 DUP3 PUSH1 0x20 ADD DUP3 ADD SWAP1 POP JUMPDEST PUSH1 0x1 ISZERO PUSH2 0xD89 JUMPI DUP1 DUP1 PUSH1 0x1 SWAP1 SUB SWAP2 POP POP PUSH32 0x3031323334353637383961626364656600000000000000000000000000000000 PUSH1 0xA DUP7 MOD BYTE DUP2 MSTORE8 PUSH1 0xA DUP6 DUP2 PUSH2 0xD7E JUMPI PUSH2 0xD7D PUSH2 0x1E29 JUMP JUMPDEST JUMPDEST DIV SWAP5 POP PUSH0 DUP6 SUB PUSH2 0xD35 JUMPI JUMPDEST DUP2 SWAP4 POP POP POP POP SWAP2 SWAP1 POP JUMP JUMPDEST PUSH0 DUP2 PUSH0 ADD SLOAD SWAP1 POP SWAP2 SWAP1 POP JUMP JUMPDEST PUSH0 PUSH1 0x2 PUSH0 SWAP1 SLOAD SWAP1 PUSH2 0x100 EXP SWAP1 DIV PUSH20 0xFFFFFFFFFFFFFFFFFFFFFFFFFFFFFFFFFFFFFFFF AND PUSH20 0xFFFFFFFFFFFFFFFFFFFFFFFFFFFFFFFFFFFFFFFF AND PUSH4 0x469895C8 ADDRESS DUP6 PUSH8 0xDE0B6B3A7640000 DUP7 PUSH2 0xDF4 SWAP2 SWAP1 PUSH2 0x1D20 JUMP JUMPDEST PUSH1 0x40 MLOAD DUP5 PUSH4 0xFFFFFFFF AND PUSH1 0xE0 SHL DUP2 MSTORE PUSH1 0x4 ADD PUSH2 0xE12 SWAP4 SWAP3 SWAP2 SWAP1 PUSH2 0x1E56 JUMP JUMPDEST PUSH1 0x20 PUSH1 0x40 MLOAD DUP1 DUP4 SUB DUP2 PUSH0 DUP8 GAS CALL ISZERO DUP1 ISZERO PUSH2 0xE2E JUMPI RETURNDATASIZE PUSH0 DUP1 RETURNDATACOPY RETURNDATASIZE PUSH0 REVERT JUMPDEST POP POP POP POP PUSH1 0x40 MLOAD RETURNDATASIZE PUSH1 0x1F NOT PUSH1 0x1F DUP3 ADD AND DUP3 ADD DUP1 PUSH1 0x40 MSTORE POP DUP2 ADD SWAP1 PUSH2 0xE52 SWAP2 SWAP1 PUSH2 0x1717 JUMP JUMPDEST PUSH2 0xE91 JUMPI PUSH1 0x40 MLOAD PUSH32 0x8C379A000000000000000000000000000000000000000000000000000000000 DUP2 MSTORE PUSH1 0x4 ADD PUSH2 0xE88 SWAP1 PUSH2 0x1ED5 JUMP JUMPDEST PUSH1 0x40 MLOAD DUP1 SWAP2 SUB SWAP1 REVERT JUMPDEST DUP2 PUSH1 0x5 PUSH0 ADD PUSH0 DUP3 DUP3 SLOAD PUSH2 0xEA4 SWAP2 SWAP1 PUSH2 0x1EF3 JUMP JUMPDEST SWAP3 POP POP DUP2 SWAP1 SSTORE POP TIMESTAMP PUSH1 0x5 PUSH1 0x1 ADD DUP2 SWAP1 SSTORE POP PUSH1 0x1 SWAP1 POP SWAP3 SWAP2 POP POP JUMP JUMPDEST PUSH0 PUSH1 0x4 PUSH0 SWAP1 SLOAD SWAP1 PUSH2 0x100 EXP SWAP1 DIV PUSH20 0xFFFFFFFFFFFFFFFFFFFFFFFFFFFFFFFFFFFFFFFF AND PUSH20 0xFFFFFFFFFFFFFFFFFFFFFFFFFFFFFFFFFFFFFFFF AND PUSH4 0x44570B3F CALLER DUP5 PUSH1 0x40 MLOAD DUP4 PUSH4 0xFFFFFFFF AND PUSH1 0xE0 SHL DUP2 MSTORE PUSH1 0x4 ADD PUSH2 0xF1C SWAP3 SWAP2 SWAP1 PUSH2 0x1F26 JUMP JUMPDEST PUSH1 0x20 PUSH1 0x40 MLOAD DUP1 DUP4 SUB DUP2 PUSH0 DUP8 GAS CALL ISZERO DUP1 ISZERO PUSH2 0xF38 JUMPI RETURNDATASIZE PUSH0 DUP1 RETURNDATACOPY RETURNDATASIZE PUSH0 REVERT JUMPDEST POP POP POP POP PUSH1 0x40 MLOAD RETURNDATASIZE PUSH1 0x1F NOT PUSH1 0x1F DUP3 ADD AND DUP3 ADD DUP1 PUSH1 0x40 MSTORE POP DUP2 ADD SWAP1 PUSH2 0xF5C SWAP2 SWAP1 PUSH2 0x1717 JUMP JUMPDEST POP PUSH1 0x1 SWAP1 POP SWAP2 SWAP1 POP JUMP JUMPDEST PUSH0 CALLER SWAP1 POP SWAP1 JUMP JUMPDEST PUSH0 DUP1 PUSH1 0x3 PUSH0 SWAP1 SLOAD SWAP1 PUSH2 0x100 EXP SWAP1 DIV PUSH20 0xFFFFFFFFFFFFFFFFFFFFFFFFFFFFFFFFFFFFFFFF AND PUSH20 0xFFFFFFFFFFFFFFFFFFFFFFFFFFFFFFFFFFFFFFFF AND PUSH4 0x906F09E0 DUP5 PUSH1 0x40 MLOAD DUP3 PUSH4 0xFFFFFFFF AND PUSH1 0xE0 SHL DUP2 MSTORE PUSH1 0x4 ADD PUSH2 0xFC9 SWAP2 SWAP1 PUSH2 0x1674 JUMP JUMPDEST PUSH1 0x20 PUSH1 0x40 MLOAD DUP1 DUP4 SUB DUP2 PUSH0 DUP8 GAS CALL ISZERO DUP1 ISZERO PUSH2 0xFE5 JUMPI RETURNDATASIZE PUSH0 DUP1 RETURNDATACOPY RETURNDATASIZE PUSH0 REVERT JUMPDEST POP POP POP POP PUSH1 0x40 MLOAD RETURNDATASIZE PUSH1 0x1F NOT PUSH1 0x1F DUP3 ADD AND DUP3 ADD DUP1 PUSH1 0x40 MSTORE POP DUP2 ADD SWAP1 PUSH2 0x1009 SWAP2 SWAP1 PUSH2 0x17CE JUMP JUMPDEST SWAP1 POP PUSH0 PUSH1 0x40 MLOAD DUP1 PUSH1 0x40 ADD PUSH1 0x40 MSTORE DUP1 DUP4 DUP2 MSTORE PUSH1 0x20 ADD TIMESTAMP DUP2 MSTORE POP SWAP1 POP PUSH1 0xD PUSH0 DUP6 PUSH20 0xFFFFFFFFFFFFFFFFFFFFFFFFFFFFFFFFFFFFFFFF AND PUSH20 0xFFFFFFFFFFFFFFFFFFFFFFFFFFFFFFFFFFFFFFFF AND DUP2 MSTORE PUSH1 0x20 ADD SWAP1 DUP2 MSTORE PUSH1 0x20 ADD PUSH0 KECCAK256 PUSH0 ADD DUP2 SWAP1 DUP1 PUSH1 0x1 DUP2 SLOAD ADD DUP1 DUP3 SSTORE DUP1 SWAP2 POP POP PUSH1 0x1 SWAP1 SUB SWAP1 PUSH0 MSTORE PUSH1 0x20 PUSH0 KECCAK256 SWAP1 PUSH1 0x2 MUL ADD PUSH0 SWAP1 SWAP2 SWAP1 SWAP2 SWAP1 SWAP2 POP PUSH0 DUP3 ADD MLOAD DUP2 PUSH0 ADD SSTORE PUSH1 0x20 DUP3 ADD MLOAD DUP2 PUSH1 0x1 ADD SSTORE POP POP PUSH1 0x1 SWAP3 POP POP POP SWAP2 SWAP1 POP JUMP JUMPDEST PUSH0 PUSH8 0xDE0B6B3A7640000 DUP3 PUSH2 0x10BD SWAP2 SWAP1 PUSH2 0x1D20 JUMP JUMPDEST PUSH1 0x9 PUSH0 DUP6 PUSH20 0xFFFFFFFFFFFFFFFFFFFFFFFFFFFFFFFFFFFFFFFF AND PUSH20 0xFFFFFFFFFFFFFFFFFFFFFFFFFFFFFFFFFFFFFFFF AND DUP2 MSTORE PUSH1 0x20 ADD SWAP1 DUP2 MSTORE PUSH1 0x20 ADD PUSH0 KECCAK256 PUSH0 ADD PUSH0 DUP3 DUP3 SLOAD PUSH2 0x110A SWAP2 SWAP1 PUSH2 0x1D61 JUMP JUMPDEST SWAP3 POP POP DUP2 SWAP1 SSTORE POP PUSH1 0x1 SWAP1 POP SWAP3 SWAP2 POP POP JUMP JUMPDEST PUSH1 0x1 DUP2 PUSH0 ADD PUSH0 DUP3 DUP3 SLOAD ADD SWAP3 POP POP DUP2 SWAP1 SSTORE POP POP JUMP JUMPDEST PUSH0 DUP1 PUSH0 SWAP1 POP PUSH27 0x184F03E93FF9F4DAA797ED6E38ED64BF6A1F010000000000000000 DUP4 LT PUSH2 0x118B JUMPI PUSH27 0x184F03E93FF9F4DAA797ED6E38ED64BF6A1F010000000000000000 DUP4 DUP2 PUSH2 0x1181 JUMPI PUSH2 0x1180 PUSH2 0x1E29 JUMP JUMPDEST JUMPDEST DIV SWAP3 POP PUSH1 0x40 DUP2 ADD SWAP1 POP JUMPDEST PUSH14 0x4EE2D6D415B85ACEF8100000000 DUP4 LT PUSH2 0x11C8 JUMPI PUSH14 0x4EE2D6D415B85ACEF8100000000 DUP4 DUP2 PUSH2 0x11BE JUMPI PUSH2 0x11BD PUSH2 0x1E29 JUMP JUMPDEST JUMPDEST DIV SWAP3 POP PUSH1 0x20 DUP2 ADD SWAP1 POP JUMPDEST PUSH7 0x2386F26FC10000 DUP4 LT PUSH2 0x11F7 JUMPI PUSH7 0x2386F26FC10000 DUP4 DUP2 PUSH2 0x11ED JUMPI PUSH2 0x11EC PUSH2 0x1E29 JUMP JUMPDEST JUMPDEST DIV SWAP3 POP PUSH1 0x10 DUP2 ADD SWAP1 POP JUMPDEST PUSH4 0x5F5E100 DUP4 LT PUSH2 0x1220 JUMPI PUSH4 0x5F5E100 DUP4 DUP2 PUSH2 0x1216 JUMPI PUSH2 0x1215 PUSH2 0x1E29 JUMP JUMPDEST JUMPDEST DIV SWAP3 POP PUSH1 0x8 DUP2 ADD SWAP1 POP JUMPDEST PUSH2 0x2710 DUP4 LT PUSH2 0x1245 JUMPI PUSH2 0x2710 DUP4 DUP2 PUSH2 0x123B JUMPI PUSH2 0x123A PUSH2 0x1E29 JUMP JUMPDEST JUMPDEST DIV SWAP3 POP PUSH1 0x4 DUP2 ADD SWAP1 POP JUMPDEST PUSH1 0x64 DUP4 LT PUSH2 0x1268 JUMPI PUSH1 0x64 DUP4 DUP2 PUSH2 0x125E JUMPI PUSH2 0x125D PUSH2 0x1E29 JUMP JUMPDEST JUMPDEST DIV SWAP3 POP PUSH1 0x2 DUP2 ADD SWAP1 POP JUMPDEST PUSH1 0xA DUP4 LT PUSH2 0x1277 JUMPI PUSH1 0x1 DUP2 ADD SWAP1 POP JUMPDEST DUP1 SWAP2 POP POP SWAP2 SWAP1 POP JUMP JUMPDEST PUSH0 DUP2 SWAP1 POP SWAP2 SWAP1 POP JUMP JUMPDEST PUSH2 0x1292 DUP2 PUSH2 0x1280 JUMP JUMPDEST DUP3 MSTORE POP POP JUMP JUMPDEST PUSH0 PUSH1 0x40 DUP3 ADD SWAP1 POP PUSH2 0x12AB PUSH0 DUP4 ADD DUP6 PUSH2 0x1289 JUMP JUMPDEST PUSH2 0x12B8 PUSH1 0x20 DUP4 ADD DUP5 PUSH2 0x1289 JUMP JUMPDEST SWAP4 SWAP3 POP POP POP JUMP JUMPDEST PUSH0 DUP1 REVERT JUMPDEST PUSH2 0x12CC DUP2 PUSH2 0x1280 JUMP JUMPDEST DUP2 EQ PUSH2 0x12D6 JUMPI PUSH0 DUP1 REVERT JUMPDEST POP JUMP JUMPDEST PUSH0 DUP2 CALLDATALOAD SWAP1 POP PUSH2 0x12E7 DUP2 PUSH2 0x12C3 JUMP JUMPDEST SWAP3 SWAP2 POP POP JUMP JUMPDEST PUSH0 PUSH1 0x20 DUP3 DUP5 SUB SLT ISZERO PUSH2 0x1302 JUMPI PUSH2 0x1301 PUSH2 0x12BF JUMP JUMPDEST JUMPDEST PUSH0 PUSH2 0x130F DUP5 DUP3 DUP6 ADD PUSH2 0x12D9 JUMP JUMPDEST SWAP2 POP POP SWAP3 SWAP2 POP POP JUMP JUMPDEST PUSH0 DUP2 ISZERO ISZERO SWAP1 POP SWAP2 SWAP1 POP JUMP JUMPDEST PUSH2 0x132C DUP2 PUSH2 0x1318 JUMP JUMPDEST DUP3 MSTORE POP POP JUMP JUMPDEST PUSH0 PUSH1 0x20 DUP3 ADD SWAP1 POP PUSH2 0x1345 PUSH0 DUP4 ADD DUP5 PUSH2 0x1323 JUMP JUMPDEST SWAP3 SWAP2 POP POP JUMP JUMPDEST PUSH0 PUSH20 0xFFFFFFFFFFFFFFFFFFFFFFFFFFFFFFFFFFFFFFFF DUP3 AND SWAP1 POP SWAP2 SWAP1 POP JUMP JUMPDEST PUSH0 DUP2 SWAP1 POP SWAP2 SWAP1 POP JUMP JUMPDEST PUSH0 PUSH2 0x138D PUSH2 0x1388 PUSH2 0x1383 DUP5 PUSH2 0x134B JUMP JUMPDEST PUSH2 0x136A JUMP JUMPDEST PUSH2 0x134B JUMP JUMPDEST SWAP1 POP SWAP2 SWAP1 POP JUMP JUMPDEST PUSH0 PUSH2 0x139E DUP3 PUSH2 0x1373 JUMP JUMPDEST SWAP1 POP SWAP2 SWAP1 POP JUMP JUMPDEST PUSH0 PUSH2 0x13AF DUP3 PUSH2 0x1394 JUMP JUMPDEST SWAP1 POP SWAP2 SWAP1 POP JUMP JUMPDEST PUSH2 0x13BF DUP2 PUSH2 0x13A5 JUMP JUMPDEST DUP3 MSTORE POP POP JUMP JUMPDEST PUSH0 PUSH1 0x20 DUP3 ADD SWAP1 POP PUSH2 0x13D8 PUSH0 DUP4 ADD DUP5 PUSH2 0x13B6 JUMP JUMPDEST SWAP3 SWAP2 POP POP JUMP JUMPDEST PUSH0 PUSH2 0x13E8 DUP3 PUSH2 0x1394 JUMP JUMPDEST SWAP1 POP SWAP2 SWAP1 POP JUMP JUMPDEST PUSH2 0x13F8 DUP2 PUSH2 0x13DE JUMP JUMPDEST DUP3 MSTORE POP POP JUMP JUMPDEST PUSH0 PUSH1 0x20 DUP3 ADD SWAP1 POP PUSH2 0x1411 PUSH0 DUP4 ADD DUP5 PUSH2 0x13EF JUMP JUMPDEST SWAP3 SWAP2 POP POP JUMP JUMPDEST PUSH0 PUSH2 0x1421 DUP3 PUSH2 0x134B JUMP JUMPDEST SWAP1 POP SWAP2 SWAP1 POP JUMP JUMPDEST PUSH2 0x1431 DUP2 PUSH2 0x1417 JUMP JUMPDEST DUP2 EQ PUSH2 0x143B JUMPI PUSH0 DUP1 REVERT JUMPDEST POP JUMP JUMPDEST PUSH0 DUP2 CALLDATALOAD SWAP1 POP PUSH2 0x144C DUP2 PUSH2 0x1428 JUMP JUMPDEST SWAP3 SWAP2 POP POP JUMP JUMPDEST PUSH0 PUSH1 0x20 DUP3 DUP5 SUB SLT ISZERO PUSH2 0x1467 JUMPI PUSH2 0x1466 PUSH2 0x12BF JUMP JUMPDEST JUMPDEST PUSH0 PUSH2 0x1474 DUP5 DUP3 DUP6 ADD PUSH2 0x143E JUMP JUMPDEST SWAP2 POP POP SWAP3 SWAP2 POP POP JUMP JUMPDEST PUSH0 PUSH9 0xFFFFFFFFFFFFFFFFFF DUP3 AND SWAP1 POP SWAP2 SWAP1 POP JUMP JUMPDEST PUSH2 0x149A DUP2 PUSH2 0x147D JUMP JUMPDEST DUP3 MSTORE POP POP JUMP JUMPDEST PUSH0 PUSH3 0xFFFFFF DUP3 AND SWAP1 POP SWAP2 SWAP1 POP JUMP JUMPDEST PUSH2 0x14B7 DUP2 PUSH2 0x14A0 JUMP JUMPDEST DUP3 MSTORE POP POP JUMP JUMPDEST PUSH0 PUSH4 0xFFFFFFFF DUP3 AND SWAP1 POP SWAP2 SWAP1 POP JUMP JUMPDEST PUSH2 0x14D5 DUP2 PUSH2 0x14BD JUMP JUMPDEST DUP3 MSTORE POP POP JUMP JUMPDEST PUSH0 PUSH16 0xFFFFFFFFFFFFFFFFFFFFFFFFFFFFFFFF DUP3 AND SWAP1 POP SWAP2 SWAP1 POP JUMP JUMPDEST PUSH2 0x14FF DUP2 PUSH2 0x14DB JUMP JUMPDEST DUP3 MSTORE POP POP JUMP JUMPDEST PUSH0 PUSH1 0x80 DUP3 ADD SWAP1 POP PUSH2 0x1518 PUSH0 DUP4 ADD DUP8 PUSH2 0x1491 JUMP JUMPDEST PUSH2 0x1525 PUSH1 0x20 DUP4 ADD DUP7 PUSH2 0x14AE JUMP JUMPDEST PUSH2 0x1532 PUSH1 0x40 DUP4 ADD DUP6 PUSH2 0x14CC JUMP JUMPDEST PUSH2 0x153F PUSH1 0x60 DUP4 ADD DUP5 PUSH2 0x14F6 JUMP JUMPDEST SWAP6 SWAP5 POP POP POP POP POP JUMP JUMPDEST PUSH0 PUSH1 0x20 DUP3 ADD SWAP1 POP PUSH2 0x155B PUSH0 DUP4 ADD DUP5 PUSH2 0x1289 JUMP JUMPDEST SWAP3 SWAP2 POP POP JUMP JUMPDEST PUSH0 DUP2 MLOAD SWAP1 POP SWAP2 SWAP1 POP JUMP JUMPDEST PUSH0 DUP3 DUP3 MSTORE PUSH1 0x20 DUP3 ADD SWAP1 POP SWAP3 SWAP2 POP POP JUMP JUMPDEST PUSH0 DUP2 SWAP1 POP PUSH1 0x20 DUP3 ADD SWAP1 POP SWAP2 SWAP1 POP JUMP JUMPDEST PUSH2 0x1593 DUP2 PUSH2 0x1280 JUMP JUMPDEST DUP3 MSTORE POP POP JUMP JUMPDEST PUSH1 0x40 DUP3 ADD PUSH0 DUP3 ADD MLOAD PUSH2 0x15AD PUSH0 DUP6 ADD DUP3 PUSH2 0x158A JUMP JUMPDEST POP PUSH1 0x20 DUP3 ADD MLOAD PUSH2 0x15C0 PUSH1 0x20 DUP6 ADD DUP3 PUSH2 0x158A JUMP JUMPDEST POP POP POP POP JUMP JUMPDEST PUSH0 PUSH2 0x15D1 DUP4 DUP4 PUSH2 0x1599 JUMP JUMPDEST PUSH1 0x40 DUP4 ADD SWAP1 POP SWAP3 SWAP2 POP POP JUMP JUMPDEST PUSH0 PUSH1 0x20 DUP3 ADD SWAP1 POP SWAP2 SWAP1 POP JUMP JUMPDEST PUSH0 PUSH2 0x15F3 DUP3 PUSH2 0x1561 JUMP JUMPDEST PUSH2 0x15FD DUP2 DUP6 PUSH2 0x156B JUMP JUMPDEST SWAP4 POP PUSH2 0x1608 DUP4 PUSH2 0x157B JUMP JUMPDEST DUP1 PUSH0 JUMPDEST DUP4 DUP2 LT ISZERO PUSH2 0x1638 JUMPI DUP2 MLOAD PUSH2 0x161F DUP9 DUP3 PUSH2 0x15C6 JUMP JUMPDEST SWAP8 POP PUSH2 0x162A DUP4 PUSH2 0x15DD JUMP JUMPDEST SWAP3 POP POP PUSH1 0x1 DUP2 ADD SWAP1 POP PUSH2 0x160B JUMP JUMPDEST POP DUP6 SWAP4 POP POP POP POP SWAP3 SWAP2 POP POP JUMP JUMPDEST PUSH0 PUSH1 0x20 DUP3 ADD SWAP1 POP DUP2 DUP2 SUB PUSH0 DUP4 ADD MSTORE PUSH2 0x165D DUP2 DUP5 PUSH2 0x15E9 JUMP JUMPDEST SWAP1 POP SWAP3 SWAP2 POP POP JUMP JUMPDEST PUSH2 0x166E DUP2 PUSH2 0x1417 JUMP JUMPDEST DUP3 MSTORE POP POP JUMP JUMPDEST PUSH0 PUSH1 0x20 DUP3 ADD SWAP1 POP PUSH2 0x1687 PUSH0 DUP4 ADD DUP5 PUSH2 0x1665 JUMP JUMPDEST SWAP3 SWAP2 POP POP JUMP JUMPDEST PUSH0 PUSH2 0x1697 DUP3 PUSH2 0x1394 JUMP JUMPDEST SWAP1 POP SWAP2 SWAP1 POP JUMP JUMPDEST PUSH2 0x16A7 DUP2 PUSH2 0x168D JUMP JUMPDEST DUP3 MSTORE POP POP JUMP JUMPDEST PUSH0 PUSH1 0x20 DUP3 ADD SWAP1 POP PUSH2 0x16C0 PUSH0 DUP4 ADD DUP5 PUSH2 0x169E JUMP JUMPDEST SWAP3 SWAP2 POP POP JUMP JUMPDEST PUSH0 PUSH1 0x40 DUP3 ADD SWAP1 POP PUSH2 0x16D9 PUSH0 DUP4 ADD DUP6 PUSH2 0x1289 JUMP JUMPDEST PUSH2 0x16E6 PUSH1 0x20 DUP4 ADD DUP5 PUSH2 0x1665 JUMP JUMPDEST SWAP4 SWAP3 POP POP POP JUMP JUMPDEST PUSH2 0x16F6 DUP2 PUSH2 0x1318 JUMP JUMPDEST DUP2 EQ PUSH2 0x1700 JUMPI PUSH0 DUP1 REVERT JUMPDEST POP JUMP JUMPDEST PUSH0 DUP2 MLOAD SWAP1 POP PUSH2 0x1711 DUP2 PUSH2 0x16ED JUMP JUMPDEST SWAP3 SWAP2 POP POP JUMP JUMPDEST PUSH0 PUSH1 0x20 DUP3 DUP5 SUB SLT ISZERO PUSH2 0x172C JUMPI PUSH2 0x172B PUSH2 0x12BF JUMP JUMPDEST JUMPDEST PUSH0 PUSH2 0x1739 DUP5 DUP3 DUP6 ADD PUSH2 0x1703 JUMP JUMPDEST SWAP2 POP POP SWAP3 SWAP2 POP POP JUMP JUMPDEST PUSH0 DUP3 DUP3 MSTORE PUSH1 0x20 DUP3 ADD SWAP1 POP SWAP3 SWAP2 POP POP JUMP JUMPDEST PUSH32 0x73686F7274656E206572726F7200000000000000000000000000000000000000 PUSH0 DUP3 ADD MSTORE POP JUMP JUMPDEST PUSH0 PUSH2 0x1786 PUSH1 0xD DUP4 PUSH2 0x1742 JUMP JUMPDEST SWAP2 POP PUSH2 0x1791 DUP3 PUSH2 0x1752 JUMP JUMPDEST PUSH1 0x20 DUP3 ADD SWAP1 POP SWAP2 SWAP1 POP JUMP JUMPDEST PUSH0 PUSH1 0x20 DUP3 ADD SWAP1 POP DUP2 DUP2 SUB PUSH0 DUP4 ADD MSTORE PUSH2 0x17B3 DUP2 PUSH2 0x177A JUMP JUMPDEST SWAP1 POP SWAP2 SWAP1 POP JUMP JUMPDEST PUSH0 DUP2 MLOAD SWAP1 POP PUSH2 0x17C8 DUP2 PUSH2 0x12C3 JUMP JUMPDEST SWAP3 SWAP2 POP POP JUMP JUMPDEST PUSH0 PUSH1 0x20 DUP3 DUP5 SUB SLT ISZERO PUSH2 0x17E3 JUMPI PUSH2 0x17E2 PUSH2 0x12BF JUMP JUMPDEST JUMPDEST PUSH0 PUSH2 0x17F0 DUP5 DUP3 DUP6 ADD PUSH2 0x17BA JUMP JUMPDEST SWAP2 POP POP SWAP3 SWAP2 POP POP JUMP JUMPDEST PUSH0 DUP2 SWAP1 POP SWAP3 SWAP2 POP POP JUMP JUMPDEST PUSH32 0x5468697300000000000000000000000000000000000000000000000000000000 PUSH0 DUP3 ADD MSTORE POP JUMP JUMPDEST PUSH0 PUSH2 0x1837 PUSH1 0x4 DUP4 PUSH2 0x17F9 JUMP JUMPDEST SWAP2 POP PUSH2 0x1842 DUP3 PUSH2 0x1803 JUMP JUMPDEST PUSH1 0x4 DUP3 ADD SWAP1 POP SWAP2 SWAP1 POP JUMP JUMPDEST PUSH32 0x2000000000000000000000000000000000000000000000000000000000000000 PUSH0 DUP3 ADD MSTORE POP JUMP JUMPDEST PUSH0 PUSH2 0x1881 PUSH1 0x1 DUP4 PUSH2 0x17F9 JUMP JUMPDEST SWAP2 POP PUSH2 0x188C DUP3 PUSH2 0x184D JUMP JUMPDEST PUSH1 0x1 DUP3 ADD SWAP1 POP SWAP2 SWAP1 POP JUMP JUMPDEST PUSH32 0x6E66740000000000000000000000000000000000000000000000000000000000 PUSH0 DUP3 ADD MSTORE POP JUMP JUMPDEST PUSH0 PUSH2 0x18CB PUSH1 0x3 DUP4 PUSH2 0x17F9 JUMP JUMPDEST SWAP2 POP PUSH2 0x18D6 DUP3 PUSH2 0x1897 JUMP JUMPDEST PUSH1 0x3 DUP3 ADD SWAP1 POP SWAP2 SWAP1 POP JUMP JUMPDEST PUSH32 0x67756172616E7465657300000000000000000000000000000000000000000000 PUSH0 DUP3 ADD MSTORE POP JUMP JUMPDEST PUSH0 PUSH2 0x1915 PUSH1 0xA DUP4 PUSH2 0x17F9 JUMP JUMPDEST SWAP2 POP PUSH2 0x1920 DUP3 PUSH2 0x18E1 JUMP JUMPDEST PUSH1 0xA DUP3 ADD SWAP1 POP SWAP2 SWAP1 POP JUMP JUMPDEST PUSH32 0x203A200000000000000000000000000000000000000000000000000000000000 PUSH0 DUP3 ADD MSTORE POP JUMP JUMPDEST PUSH0 PUSH2 0x195F PUSH1 0x3 DUP4 PUSH2 0x17F9 JUMP JUMPDEST SWAP2 POP PUSH2 0x196A DUP3 PUSH2 0x192B JUMP JUMPDEST PUSH1 0x3 DUP3 ADD SWAP1 POP SWAP2 SWAP1 POP JUMP JUMPDEST PUSH0 DUP2 MLOAD SWAP1 POP SWAP2 SWAP1 POP JUMP JUMPDEST PUSH0 JUMPDEST DUP4 DUP2 LT ISZERO PUSH2 0x199C JUMPI DUP1 DUP3 ADD MLOAD DUP2 DUP5 ADD MSTORE PUSH1 0x20 DUP2 ADD SWAP1 POP PUSH2 0x1981 JUMP JUMPDEST PUSH0 DUP5 DUP5 ADD MSTORE POP POP POP POP JUMP JUMPDEST PUSH0 PUSH2 0x19B1 DUP3 PUSH2 0x1975 JUMP JUMPDEST PUSH2 0x19BB DUP2 DUP6 PUSH2 0x17F9 JUMP JUMPDEST SWAP4 POP PUSH2 0x19CB DUP2 DUP6 PUSH1 0x20 DUP7 ADD PUSH2 0x197F JUMP JUMPDEST DUP1 DUP5 ADD SWAP2 POP POP SWAP3 SWAP2 POP POP JUMP JUMPDEST PUSH32 0x4554480000000000000000000000000000000000000000000000000000000000 PUSH0 DUP3 ADD MSTORE POP JUMP JUMPDEST PUSH0 PUSH2 0x1A0B PUSH1 0x3 DUP4 PUSH2 0x17F9 JUMP JUMPDEST SWAP2 POP PUSH2 0x1A16 DUP3 PUSH2 0x19D7 JUMP JUMPDEST PUSH1 0x3 DUP3 ADD SWAP1 POP SWAP2 SWAP1 POP JUMP JUMPDEST PUSH0 PUSH2 0x1A2B DUP3 PUSH2 0x182B JUMP JUMPDEST SWAP2 POP PUSH2 0x1A36 DUP3 PUSH2 0x1875 JUMP JUMPDEST SWAP2 POP PUSH2 0x1A41 DUP3 PUSH2 0x18BF JUMP JUMPDEST SWAP2 POP PUSH2 0x1A4C DUP3 PUSH2 0x1875 JUMP JUMPDEST SWAP2 POP PUSH2 0x1A57 DUP3 PUSH2 0x1909 JUMP JUMPDEST SWAP2 POP PUSH2 0x1A62 DUP3 PUSH2 0x1953 JUMP JUMPDEST SWAP2 POP PUSH2 0x1A6E DUP3 DUP5 PUSH2 0x19A7 JUMP JUMPDEST SWAP2 POP PUSH2 0x1A79 DUP3 PUSH2 0x1875 JUMP JUMPDEST SWAP2 POP PUSH2 0x1A84 DUP3 PUSH2 0x19FF JUMP JUMPDEST SWAP2 POP DUP2 SWAP1 POP SWAP3 SWAP2 POP POP JUMP JUMPDEST PUSH32 0x5374616B696E672047756172616E746565204361726400000000000000000000 PUSH0 DUP3 ADD MSTORE POP JUMP JUMPDEST PUSH0 PUSH2 0x1AC3 PUSH1 0x16 DUP4 PUSH2 0x1742 JUMP JUMPDEST SWAP2 POP PUSH2 0x1ACE DUP3 PUSH2 0x1A8F JUMP JUMPDEST PUSH1 0x20 DUP3 ADD SWAP1 POP SWAP2 SWAP1 POP JUMP JUMPDEST PUSH0 PUSH1 0x1F NOT PUSH1 0x1F DUP4 ADD AND SWAP1 POP SWAP2 SWAP1 POP JUMP JUMPDEST PUSH0 PUSH2 0x1AF3 DUP3 PUSH2 0x1975 JUMP JUMPDEST PUSH2 0x1AFD DUP2 DUP6 PUSH2 0x1742 JUMP JUMPDEST SWAP4 POP PUSH2 0x1B0D DUP2 DUP6 PUSH1 0x20 DUP7 ADD PUSH2 0x197F JUMP JUMPDEST PUSH2 0x1B16 DUP2 PUSH2 0x1AD9 JUMP JUMPDEST DUP5 ADD SWAP2 POP POP SWAP3 SWAP2 POP POP JUMP JUMPDEST PUSH32 0x68747470733A2F2F697066732E696F2F697066732F516D57456751736B426374 PUSH0 DUP3 ADD MSTORE PUSH32 0x514A55617245796376366378506E4D3357723461487A3672476F7132516D5476 PUSH1 0x20 DUP3 ADD MSTORE PUSH32 0x7755633F66696C656E616D653D51564577617272616E74792E706E6700000000 PUSH1 0x40 DUP3 ADD MSTORE POP JUMP JUMPDEST PUSH0 PUSH2 0x1BA1 PUSH1 0x5C DUP4 PUSH2 0x1742 JUMP JUMPDEST SWAP2 POP PUSH2 0x1BAC DUP3 PUSH2 0x1B21 JUMP JUMPDEST PUSH1 0x60 DUP3 ADD SWAP1 POP SWAP2 SWAP1 POP JUMP JUMPDEST PUSH0 PUSH1 0x60 DUP3 ADD SWAP1 POP DUP2 DUP2 SUB PUSH0 DUP4 ADD MSTORE PUSH2 0x1BCE DUP2 PUSH2 0x1AB7 JUMP JUMPDEST SWAP1 POP DUP2 DUP2 SUB PUSH1 0x20 DUP4 ADD MSTORE PUSH2 0x1BE2 DUP2 DUP5 PUSH2 0x1AE9 JUMP JUMPDEST SWAP1 POP DUP2 DUP2 SUB PUSH1 0x40 DUP4 ADD MSTORE PUSH2 0x1BF5 DUP2 PUSH2 0x1B95 JUMP JUMPDEST SWAP1 POP SWAP3 SWAP2 POP POP JUMP JUMPDEST PUSH32 0x4F776E61626C653A206E6577206F776E657220697320746865207A65726F2061 PUSH0 DUP3 ADD MSTORE PUSH32 0x6464726573730000000000000000000000000000000000000000000000000000 PUSH1 0x20 DUP3 ADD MSTORE POP JUMP JUMPDEST PUSH0 PUSH2 0x1C57 PUSH1 0x26 DUP4 PUSH2 0x1742 JUMP JUMPDEST SWAP2 POP PUSH2 0x1C62 DUP3 PUSH2 0x1BFD JUMP JUMPDEST PUSH1 0x40 DUP3 ADD SWAP1 POP SWAP2 SWAP1 POP JUMP JUMPDEST PUSH0 PUSH1 0x20 DUP3 ADD SWAP1 POP DUP2 DUP2 SUB PUSH0 DUP4 ADD MSTORE PUSH2 0x1C84 DUP2 PUSH2 0x1C4B JUMP JUMPDEST SWAP1 POP SWAP2 SWAP1 POP JUMP JUMPDEST PUSH32 0x4275726E20515645207472616E73666572206572726F72000000000000000000 PUSH0 DUP3 ADD MSTORE POP JUMP JUMPDEST PUSH0 PUSH2 0x1CBF PUSH1 0x17 DUP4 PUSH2 0x1742 JUMP JUMPDEST SWAP2 POP PUSH2 0x1CCA DUP3 PUSH2 0x1C8B JUMP JUMPDEST PUSH1 0x20 DUP3 ADD SWAP1 POP SWAP2 SWAP1 POP JUMP JUMPDEST PUSH0 PUSH1 0x20 DUP3 ADD SWAP1 POP DUP2 DUP2 SUB PUSH0 DUP4 ADD MSTORE PUSH2 0x1CEC DUP2 PUSH2 0x1CB3 JUMP JUMPDEST SWAP1 POP SWAP2 SWAP1 POP JUMP JUMPDEST PUSH32 0x4E487B7100000000000000000000000000000000000000000000000000000000 PUSH0 MSTORE PUSH1 0x11 PUSH1 0x4 MSTORE PUSH1 0x24 PUSH0 REVERT JUMPDEST PUSH0 PUSH2 0x1D2A DUP3 PUSH2 0x1280 JUMP JUMPDEST SWAP2 POP PUSH2 0x1D35 DUP4 PUSH2 0x1280 JUMP JUMPDEST SWAP3 POP DUP3 DUP3 MUL PUSH2 0x1D43 DUP2 PUSH2 0x1280 JUMP JUMPDEST SWAP2 POP DUP3 DUP3 DIV DUP5 EQ DUP4 ISZERO OR PUSH2 0x1D5A JUMPI PUSH2 0x1D59 PUSH2 0x1CF3 JUMP JUMPDEST JUMPDEST POP SWAP3 SWAP2 POP POP JUMP JUMPDEST PUSH0 PUSH2 0x1D6B DUP3 PUSH2 0x1280 JUMP JUMPDEST SWAP2 POP PUSH2 0x1D76 DUP4 PUSH2 0x1280 JUMP JUMPDEST SWAP3 POP DUP3 DUP3 ADD SWAP1 POP DUP1 DUP3 GT ISZERO PUSH2 0x1D8E JUMPI PUSH2 0x1D8D PUSH2 0x1CF3 JUMP JUMPDEST JUMPDEST SWAP3 SWAP2 POP POP JUMP JUMPDEST PUSH32 0x4F776E61626C653A2063616C6C6572206973206E6F7420746865206F776E6572 PUSH0 DUP3 ADD MSTORE POP JUMP JUMPDEST PUSH0 PUSH2 0x1DC8 PUSH1 0x20 DUP4 PUSH2 0x1742 JUMP JUMPDEST SWAP2 POP PUSH2 0x1DD3 DUP3 PUSH2 0x1D94 JUMP JUMPDEST PUSH1 0x20 DUP3 ADD SWAP1 POP SWAP2 SWAP1 POP JUMP JUMPDEST PUSH0 PUSH1 0x20 DUP3 ADD SWAP1 POP DUP2 DUP2 SUB PUSH0 DUP4 ADD MSTORE PUSH2 0x1DF5 DUP2 PUSH2 0x1DBC JUMP JUMPDEST SWAP1 POP SWAP2 SWAP1 POP JUMP JUMPDEST PUSH32 0x4E487B7100000000000000000000000000000000000000000000000000000000 PUSH0 MSTORE PUSH1 0x41 PUSH1 0x4 MSTORE PUSH1 0x24 PUSH0 REVERT JUMPDEST PUSH32 0x4E487B7100000000000000000000000000000000000000000000000000000000 PUSH0 MSTORE PUSH1 0x12 PUSH1 0x4 MSTORE PUSH1 0x24 PUSH0 REVERT JUMPDEST PUSH0 PUSH1 0x60 DUP3 ADD SWAP1 POP PUSH2 0x1E69 PUSH0 DUP4 ADD DUP7 PUSH2 0x1665 JUMP JUMPDEST PUSH2 0x1E76 PUSH1 0x20 DUP4 ADD DUP6 PUSH2 0x1665 JUMP JUMPDEST PUSH2 0x1E83 PUSH1 0x40 DUP4 ADD DUP5 PUSH2 0x1289 JUMP JUMPDEST SWAP5 SWAP4 POP POP POP POP JUMP JUMPDEST PUSH32 0x515645207472616E73666572206572726F720000000000000000000000000000 PUSH0 DUP3 ADD MSTORE POP JUMP JUMPDEST PUSH0 PUSH2 0x1EBF PUSH1 0x12 DUP4 PUSH2 0x1742 JUMP JUMPDEST SWAP2 POP PUSH2 0x1ECA DUP3 PUSH2 0x1E8B JUMP JUMPDEST PUSH1 0x20 DUP3 ADD SWAP1 POP SWAP2 SWAP1 POP JUMP JUMPDEST PUSH0 PUSH1 0x20 DUP3 ADD SWAP1 POP DUP2 DUP2 SUB PUSH0 DUP4 ADD MSTORE PUSH2 0x1EEC DUP2 PUSH2 0x1EB3 JUMP JUMPDEST SWAP1 POP SWAP2 SWAP1 POP JUMP JUMPDEST PUSH0 PUSH2 0x1EFD DUP3 PUSH2 0x1280 JUMP JUMPDEST SWAP2 POP PUSH2 0x1F08 DUP4 PUSH2 0x1280 JUMP JUMPDEST SWAP3 POP DUP3 DUP3 SUB SWAP1 POP DUP2 DUP2 GT ISZERO PUSH2 0x1F20 JUMPI PUSH2 0x1F1F PUSH2 0x1CF3 JUMP JUMPDEST JUMPDEST SWAP3 SWAP2 POP POP JUMP JUMPDEST PUSH0 PUSH1 0x40 DUP3 ADD SWAP1 POP PUSH2 0x1F39 PUSH0 DUP4 ADD DUP6 PUSH2 0x1665 JUMP JUMPDEST PUSH2 0x1F46 PUSH1 0x20 DUP4 ADD DUP5 PUSH2 0x1289 JUMP JUMPDEST SWAP4 SWAP3 POP POP POP JUMP INVALID LOG2 PUSH5 0x6970667358 0x22 SLT KECCAK256 SWAP1 0xE8 PUSH8 0xDB1890C4B892B144 SWAP2 PUSH28 0x5347672F2BAD2C0E9A646A5B092D4ED917483664736F6C6343000815 STOP CALLER "
		},
		"gasEstimates": {
			"creation": {
				"codeDepositCost": "1613400",
				"executionCost": "infinite",
				"totalCost": "infinite"
			},
			"external": {
				"QVEliquidityPool()": "infinite",
				"QVEstakes(address)": "9807",
				"burnStakingGuarantee(uint256)": "infinite",
				"esQVEliquidityPool()": "infinite",
				"getNFTbalance_()": "infinite",
				"getNfts_()": "infinite",
				"getStakeCount_()": "2523",
				"owner()": "2538",
				"qveEscrow()": "infinite",
				"qvenft()": "infinite",
				"qvetoken()": "infinite",
				"receiveAsset(uint256)": "infinite",
				"renounceOwnership()": "30501",
				"rewardPointsEarned(address)": "2913",
				"shortenLockup(uint256)": "infinite",
				"stakingFundAmount()": "infinite",
				"stakingProgramEndsBlock()": "infinite",
				"totalRewardPoints()": "2514",
				"transferOwnership(address)": "30797"
			},
			"internal": {
				"_addLiquidity(uint256)": "infinite",
				"_addUserStakeVault(address,uint256)": "infinite",
				"_botAddress()": "infinite",
				"_escrowQVE(uint256)": "infinite",
				"_issueGuaranteeNFT(address)": "infinite",
				"_sendQVEFromLiquidity(address,uint256)": "infinite",
				"_subLiquidity(uint256)": "infinite",
				"stakeEth(uint256)": "infinite"
			}
		},
		"methodIdentifiers": {
			"QVEliquidityPool()": "0e301d24",
			"QVEstakes(address)": "52584f58",
			"burnStakingGuarantee(uint256)": "f366b27e",
			"esQVEliquidityPool()": "0691badf",
			"getNFTbalance_()": "9f62e796",
			"getNfts_()": "5ac66993",
			"getStakeCount_()": "e44a998c",
			"owner()": "8da5cb5b",
			"qveEscrow()": "fdcdbae2",
			"qvenft()": "510b7f98",
			"qvetoken()": "2b1c4158",
			"receiveAsset(uint256)": "ccc8ad12",
			"renounceOwnership()": "715018a6",
			"rewardPointsEarned(address)": "c959360b",
			"shortenLockup(uint256)": "12782b56",
			"stakingFundAmount()": "52946b04",
			"stakingProgramEndsBlock()": "bc0925ae",
			"totalRewardPoints()": "c2e8caf6",
			"transferOwnership(address)": "f2fde38b"
		}
	},
	"abi": [
		{
			"inputs": [
				{
					"internalType": "contract QVEtoken",
					"name": "_qveTokenAddress",
					"type": "address"
				},
				{
					"internalType": "contract QVEnft",
					"name": "_qvenft",
					"type": "address"
				},
				{
					"internalType": "contract QVEescrow",
					"name": "_qveEscrow",
					"type": "address"
				}
			],
			"stateMutability": "nonpayable",
			"type": "constructor"
		},
		{
			"anonymous": false,
			"inputs": [
				{
					"indexed": true,
					"internalType": "address",
					"name": "previousOwner",
					"type": "address"
				},
				{
					"indexed": true,
					"internalType": "address",
					"name": "newOwner",
					"type": "address"
				}
			],
			"name": "OwnershipTransferred",
			"type": "event"
		},
		{
			"inputs": [],
			"name": "QVEliquidityPool",
			"outputs": [
				{
					"internalType": "uint256",
					"name": "balance",
					"type": "uint256"
				},
				{
					"internalType": "uint256",
					"name": "at",
					"type": "uint256"
				}
			],
			"stateMutability": "view",
			"type": "function"
		},
		{
			"inputs": [
				{
					"internalType": "address",
					"name": "",
					"type": "address"
				}
			],
			"name": "QVEstakes",
			"outputs": [
				{
					"internalType": "uint72",
					"name": "tokenAmount",
					"type": "uint72"
				},
				{
					"internalType": "uint24",
					"name": "lockingPeriodInBlocks",
					"type": "uint24"
				},
				{
					"internalType": "uint32",
					"name": "startBlock",
					"type": "uint32"
				},
				{
					"internalType": "uint128",
					"name": "expectedStakingRewardPoints",
					"type": "uint128"
				}
			],
			"stateMutability": "view",
			"type": "function"
		},
		{
			"inputs": [
				{
					"internalType": "uint256",
					"name": "tokenId",
					"type": "uint256"
				}
			],
			"name": "burnStakingGuarantee",
			"outputs": [
				{
					"internalType": "bool",
					"name": "",
					"type": "bool"
				}
			],
			"stateMutability": "nonpayable",
			"type": "function"
		},
		{
			"inputs": [],
			"name": "esQVEliquidityPool",
			"outputs": [
				{
					"internalType": "uint256",
					"name": "balance",
					"type": "uint256"
				},
				{
					"internalType": "uint256",
					"name": "at",
					"type": "uint256"
				}
			],
			"stateMutability": "view",
			"type": "function"
		},
		{
			"inputs": [],
			"name": "getNFTbalance_",
			"outputs": [
				{
					"internalType": "uint256",
					"name": "",
					"type": "uint256"
				}
			],
			"stateMutability": "view",
			"type": "function"
		},
		{
			"inputs": [],
			"name": "getNfts_",
			"outputs": [
				{
					"components": [
						{
							"internalType": "uint256",
							"name": "tokenId",
							"type": "uint256"
						},
						{
							"internalType": "uint256",
							"name": "at",
							"type": "uint256"
						}
					],
					"internalType": "struct QVEDefi.NFTFragment[]",
					"name": "",
					"type": "tuple[]"
				}
			],
			"stateMutability": "view",
			"type": "function"
		},
		{
			"inputs": [],
			"name": "getStakeCount_",
			"outputs": [
				{
					"internalType": "uint256",
					"name": "",
					"type": "uint256"
				}
			],
			"stateMutability": "view",
			"type": "function"
		},
		{
			"inputs": [],
			"name": "owner",
			"outputs": [
				{
					"internalType": "address",
					"name": "",
					"type": "address"
				}
			],
			"stateMutability": "view",
			"type": "function"
		},
		{
			"inputs": [],
			"name": "qveEscrow",
			"outputs": [
				{
					"internalType": "contract QVEescrow",
					"name": "",
					"type": "address"
				}
			],
			"stateMutability": "view",
			"type": "function"
		},
		{
			"inputs": [],
			"name": "qvenft",
			"outputs": [
				{
					"internalType": "contract QVEnft",
					"name": "",
					"type": "address"
				}
			],
			"stateMutability": "view",
			"type": "function"
		},
		{
			"inputs": [],
			"name": "qvetoken",
			"outputs": [
				{
					"internalType": "contract QVEtoken",
					"name": "",
					"type": "address"
				}
			],
			"stateMutability": "view",
			"type": "function"
		},
		{
			"inputs": [
				{
					"internalType": "uint256",
					"name": "assetAmount",
					"type": "uint256"
				}
			],
			"name": "receiveAsset",
			"outputs": [
				{
					"internalType": "bool",
					"name": "",
					"type": "bool"
				}
			],
			"stateMutability": "payable",
			"type": "function"
		},
		{
			"inputs": [],
			"name": "renounceOwnership",
			"outputs": [],
			"stateMutability": "nonpayable",
			"type": "function"
		},
		{
			"inputs": [
				{
					"internalType": "address",
					"name": "",
					"type": "address"
				}
			],
			"name": "rewardPointsEarned",
			"outputs": [
				{
					"internalType": "uint256",
					"name": "",
					"type": "uint256"
				}
			],
			"stateMutability": "view",
			"type": "function"
		},
		{
			"inputs": [
				{
					"internalType": "uint256",
					"name": "qveAmount",
					"type": "uint256"
				}
			],
			"name": "shortenLockup",
			"outputs": [
				{
					"internalType": "bool",
					"name": "",
					"type": "bool"
				}
			],
			"stateMutability": "nonpayable",
			"type": "function"
		},
		{
			"inputs": [],
			"name": "stakingFundAmount",
			"outputs": [
				{
					"internalType": "uint256",
					"name": "",
					"type": "uint256"
				}
			],
			"stateMutability": "view",
			"type": "function"
		},
		{
			"inputs": [],
			"name": "stakingProgramEndsBlock",
			"outputs": [
				{
					"internalType": "uint256",
					"name": "",
					"type": "uint256"
				}
			],
			"stateMutability": "view",
			"type": "function"
		},
		{
			"inputs": [],
			"name": "totalRewardPoints",
			"outputs": [
				{
					"internalType": "uint256",
					"name": "",
					"type": "uint256"
				}
			],
			"stateMutability": "view",
			"type": "function"
		},
		{
			"inputs": [
				{
					"internalType": "address",
					"name": "newOwner",
					"type": "address"
				}
			],
			"name": "transferOwnership",
			"outputs": [],
			"stateMutability": "nonpayable",
			"type": "function"
		}
	]
}