{
	"data": {
		"bytecode": {
			"linkReferences": {},
			"object": "60806040523480156200001157600080fd5b506040516200293f3803806200293f833981810160405281019062000037919062000514565b620000576200004b6200033f60201b60201c565b6200034760201b60201c565b82600260006101000a81548173ffffffffffffffffffffffffffffffffffffffff021916908373ffffffffffffffffffffffffffffffffffffffff16021790555081600360006101000a81548173ffffffffffffffffffffffffffffffffffffffff021916908373ffffffffffffffffffffffffffffffffffffffff16021790555080600460006101000a81548173ffffffffffffffffffffffffffffffffffffffff021916908373ffffffffffffffffffffffffffffffffffffffff160217905550600260009054906101000a900473ffffffffffffffffffffffffffffffffffffffff1673ffffffffffffffffffffffffffffffffffffffff1663469895c833306004600260009054906101000a900473ffffffffffffffffffffffffffffffffffffffff1673ffffffffffffffffffffffffffffffffffffffff166318160ddd6040518163ffffffff1660e01b8152600401602060405180830381865afa158015620001ca573d6000803e3d6000fd5b505050506040513d601f19601f82011682018060405250810190620001f09190620005ab565b620001fc91906200063b565b6040518463ffffffff1660e01b81526004016200021c9392919062000695565b6020604051808303816000875af11580156200023c573d6000803e3d6000fd5b505050506040513d601f19601f820116820180604052508101906200026291906200070f565b50670de0b6b3a7640000600260009054906101000a900473ffffffffffffffffffffffffffffffffffffffff1673ffffffffffffffffffffffffffffffffffffffff166370a08231306040518263ffffffff1660e01b8152600401620002c9919062000741565b602060405180830381865afa158015620002e7573d6000803e3d6000fd5b505050506040513d601f19601f820116820180604052508101906200030d9190620005ab565b6200031991906200063b565b600660000160008282546200032f91906200075e565b9250508190555050505062000799565b600033905090565b60008060019054906101000a900473ffffffffffffffffffffffffffffffffffffffff16905081600060016101000a81548173ffffffffffffffffffffffffffffffffffffffff021916908373ffffffffffffffffffffffffffffffffffffffff1602179055508173ffffffffffffffffffffffffffffffffffffffff168173ffffffffffffffffffffffffffffffffffffffff167f8be0079c531659141344cd1fd0a4f28419497f9722a3daafe3b4186f6b6457e060405160405180910390a35050565b600080fd5b600073ffffffffffffffffffffffffffffffffffffffff82169050919050565b60006200043e8262000411565b9050919050565b6000620004528262000431565b9050919050565b620004648162000445565b81146200047057600080fd5b50565b600081519050620004848162000459565b92915050565b6000620004978262000431565b9050919050565b620004a9816200048a565b8114620004b557600080fd5b50565b600081519050620004c9816200049e565b92915050565b6000620004dc8262000431565b9050919050565b620004ee81620004cf565b8114620004fa57600080fd5b50565b6000815190506200050e81620004e3565b92915050565b60008060006060848603121562000530576200052f6200040c565b5b6000620005408682870162000473565b93505060206200055386828701620004b8565b92505060406200056686828701620004fd565b9150509250925092565b6000819050919050565b620005858162000570565b81146200059157600080fd5b50565b600081519050620005a5816200057a565b92915050565b600060208284031215620005c457620005c36200040c565b5b6000620005d48482850162000594565b91505092915050565b7f4e487b7100000000000000000000000000000000000000000000000000000000600052601260045260246000fd5b7f4e487b7100000000000000000000000000000000000000000000000000000000600052601160045260246000fd5b6000620006488262000570565b9150620006558362000570565b925082620006685762000667620005dd565b5b828204905092915050565b6200067e8162000431565b82525050565b6200068f8162000570565b82525050565b6000606082019050620006ac600083018662000673565b620006bb602083018562000673565b620006ca604083018462000684565b949350505050565b60008115159050919050565b620006e981620006d2565b8114620006f557600080fd5b50565b6000815190506200070981620006de565b92915050565b6000602082840312156200072857620007276200040c565b5b60006200073884828501620006f8565b91505092915050565b600060208201905062000758600083018462000673565b92915050565b60006200076b8262000570565b9150620007788362000570565b92508282019050808211156200079357620007926200060c565b5b92915050565b61219680620007a96000396000f3fe6080604052600436106100dd5760003560e01c80638866b9371161007f578063f2fde38b11610059578063f2fde38b14610290578063f366b27e146102b9578063fdcdbae2146102f6578063fe35fb5014610321576100dd565b80638866b9371461020f5780638da5cb5b1461023a5780639f62e79614610265576100dd565b8063510b7f98116100bb578063510b7f98146101655780635ac6699314610190578063715018a6146101bb57806383ce6147146101d2576100dd565b80630691badf146100e25780630e301d241461010e5780632b1c41581461013a575b600080fd5b3480156100ee57600080fd5b506100f7610351565b604051610105929190611631565b60405180910390f35b34801561011a57600080fd5b50610123610363565b604051610131929190611631565b60405180910390f35b34801561014657600080fd5b5061014f610375565b60405161015c91906116d9565b60405180910390f35b34801561017157600080fd5b5061017a61039b565b6040516101879190611715565b60405180910390f35b34801561019c57600080fd5b506101a56103c1565b6040516101b2919061181d565b60405180910390f35b3480156101c757600080fd5b506101d0610474565b005b3480156101de57600080fd5b506101f960048036038101906101f49190611870565b610488565b60405161020691906118cb565b60405180910390f35b34801561021b57600080fd5b5061022461063b565b60405161023191906118e6565b60405180910390f35b34801561024657600080fd5b5061024f61064c565b60405161025c9190611922565b60405180910390f35b34801561027157600080fd5b5061027a610675565b60405161028791906118e6565b60405180910390f35b34801561029c57600080fd5b506102b760048036038101906102b29190611969565b610718565b005b3480156102c557600080fd5b506102e060048036038101906102db9190611996565b61079b565b6040516102ed91906118cb565b60405180910390f35b34801561030257600080fd5b5061030b610940565b60405161031891906119e4565b60405180910390f35b61033b60048036038101906103369190611a2b565b610966565b60405161034891906118cb565b60405180910390f35b60088060000154908060010154905082565b60068060000154908060010154905082565b600260009054906101000a900473ffffffffffffffffffffffffffffffffffffffff1681565b600360009054906101000a900473ffffffffffffffffffffffffffffffffffffffff1681565b6060600560003373ffffffffffffffffffffffffffffffffffffffff1673ffffffffffffffffffffffffffffffffffffffff168152602001908152602001600020600001805480602002602001604051908101604052809291908181526020016000905b8282101561046b57838290600052602060002090600202016040518060400160405290816000820154815260200160018201548152505081526020019060010190610425565b50505050905090565b61047c610acc565b6104866000610b4a565b565b60008060009054906101000a900460ff16156104d9576040517f08c379a00000000000000000000000000000000000000000000000000000000081526004016104d090611ac8565b60405180910390fd5b60016000806101000a81548160ff021916908315150217905550600360009054906101000a900473ffffffffffffffffffffffffffffffffffffffff1673ffffffffffffffffffffffffffffffffffffffff1663b2c3a7178430856040518463ffffffff1660e01b815260040161055293929190611ae8565b6020604051808303816000875af1158015610571573d6000803e3d6000fd5b505050506040513d601f19601f820116820180604052508101906105959190611b34565b6040518060400160405280601a81526020017f5761726e696e6720466f72204c6f636b75702053686f7274656e0000000000008152509061060c576040517f08c379a00000000000000000000000000000000000000000000000000000000081526004016106039190611be0565b60405180910390fd5b5061061683610c0f565b506001905060008060006101000a81548160ff02191690831515021790555092915050565b60006106476001610c40565b905090565b60008060019054906101000a900473ffffffffffffffffffffffffffffffffffffffff16905090565b6000600360009054906101000a900473ffffffffffffffffffffffffffffffffffffffff1673ffffffffffffffffffffffffffffffffffffffff166370a08231336040518263ffffffff1660e01b81526004016106d29190611922565b602060405180830381865afa1580156106ef573d6000803e3d6000fd5b505050506040513d601f19601f820116820180604052508101906107139190611c17565b905090565b610720610acc565b600073ffffffffffffffffffffffffffffffffffffffff168173ffffffffffffffffffffffffffffffffffffffff160361078f576040517f08c379a000000000000000000000000000000000000000000000000000000000815260040161078690611cb6565b60405180910390fd5b61079881610b4a565b50565b6000600360009054906101000a900473ffffffffffffffffffffffffffffffffffffffff1673ffffffffffffffffffffffffffffffffffffffff16632890e0d7836040518263ffffffff1660e01b81526004016107f891906118e6565b6020604051808303816000875af1158015610817573d6000803e3d6000fd5b505050506040513d601f19601f8201168201806040525081019061083b9190611b34565b5061086c33670de0b6b3a7640000600a6000868152602001908152602001600020546108679190611d34565b610c4e565b6040518060400160405280601481526020017f5761726e696e6720466f72205472616e73666572000000000000000000000000815250906108e3576040517f08c379a00000000000000000000000000000000000000000000000000000000081526004016108da9190611be0565b60405180910390fd5b5061092e670de0b6b3a76400006064602860ff16600a6000878152602001908152602001600020546109159190611d65565b61091f9190611d34565b6109299190611d65565b610e30565b61093757600080fd5b60019050919050565b600460009054906101000a900473ffffffffffffffffffffffffffffffffffffffff1681565b60008060009054906101000a900460ff16156109b7576040517f08c379a00000000000000000000000000000000000000000000000000000000081526004016109ae90611ac8565b60405180910390fd5b60016000806101000a81548160ff0219169083151502179055506109db8383610f5f565b5060006109e784611010565b6040516020016109f79190611e7b565b6040516020818303038152906040529050600360009054906101000a900473ffffffffffffffffffffffffffffffffffffffff1673ffffffffffffffffffffffffffffffffffffffff16630890d80c826040518263ffffffff1660e01b8152600401610a639190611f8c565b6020604051808303816000875af1158015610a82573d6000803e3d6000fd5b505050506040513d601f19601f82011682018060405250810190610aa69190611b34565b50600191505060008060006101000a81548160ff02191690831515021790555092915050565b610ad46110de565b73ffffffffffffffffffffffffffffffffffffffff16610af261064c565b73ffffffffffffffffffffffffffffffffffffffff1614610b48576040517f08c379a0000000000000000000000000000000000000000000000000000000008152600401610b3f90612020565b60405180910390fd5b565b60008060019054906101000a900473ffffffffffffffffffffffffffffffffffffffff16905081600060016101000a81548173ffffffffffffffffffffffffffffffffffffffff021916908373ffffffffffffffffffffffffffffffffffffffff1602179055508173ffffffffffffffffffffffffffffffffffffffff168173ffffffffffffffffffffffffffffffffffffffff167f8be0079c531659141344cd1fd0a4f28419497f9722a3daafe3b4186f6b6457e060405160405180910390a35050565b60008160066000016000828254610c269190612040565b925050819055504260066001018190555060019050919050565b600081600001549050919050565b60008060009054906101000a900460ff1615610c9f576040517f08c379a0000000000000000000000000000000000000000000000000000000008152600401610c9690611ac8565b60405180910390fd5b60016000806101000a81548160ff021916908315150217905550600260009054906101000a900473ffffffffffffffffffffffffffffffffffffffff1673ffffffffffffffffffffffffffffffffffffffff1663469895c83085670de0b6b3a764000086610d0d9190611d65565b6040518463ffffffff1660e01b8152600401610d2b93929190612074565b6020604051808303816000875af1158015610d4a573d6000803e3d6000fd5b505050506040513d601f19601f82011682018060405250810190610d6e9190611b34565b6040518060400160405280601481526020017f5761726e696e6720466f72205472616e7366657200000000000000000000000081525090610de5576040517f08c379a0000000000000000000000000000000000000000000000000000000008152600401610ddc9190611be0565b60405180910390fd5b508160066000016000828254610dfb91906120ab565b92505081905550426006600101819055506001905060008060006101000a81548160ff02191690831515021790555092915050565b60008060009054906101000a900460ff1615610e81576040517f08c379a0000000000000000000000000000000000000000000000000000000008152600401610e7890611ac8565b60405180910390fd5b60016000806101000a81548160ff021916908315150217905550600460009054906101000a900473ffffffffffffffffffffffffffffffffffffffff1673ffffffffffffffffffffffffffffffffffffffff166344570b3f33846040518363ffffffff1660e01b8152600401610ef89291906120df565b6020604051808303816000875af1158015610f17573d6000803e3d6000fd5b505050506040513d601f19601f82011682018060405250810190610f3b9190611b34565b506001905060008060006101000a81548160ff021916908315150217905550919050565b600080610f6d3385856110e6565b9050610f78816112bc565b610f83338583611355565b6040518060400160405280601181526020017f5761726e696e6720466f72205661756c7400000000000000000000000000000081525090610ffa576040517f08c379a0000000000000000000000000000000000000000000000000000000008152600401610ff19190611be0565b60405180910390fd5b50611005600161148e565b600191505092915050565b60606000600161101f846114a4565b01905060008167ffffffffffffffff81111561103e5761103d612108565b5b6040519080825280601f01601f1916602001820160405280156110705781602001600182028036833780820191505090505b509050600082602001820190505b6001156110d3578080600190039150507f3031323334353637383961626364656600000000000000000000000000000000600a86061a8153600a85816110c7576110c6611cd6565b5b0494506000850361107e575b819350505050919050565b600033905090565b60008060009054906101000a900460ff1615611137576040517f08c379a000000000000000000000000000000000000000000000000000000000815260040161112e90611ac8565b60405180910390fd5b60016000806101000a81548160ff0219169083151502179055506000600360009054906101000a900473ffffffffffffffffffffffffffffffffffffffff1673ffffffffffffffffffffffffffffffffffffffff1663f42c69d686856040518363ffffffff1660e01b81526004016111b0929190612137565b6020604051808303816000875af11580156111cf573d6000803e3d6000fd5b505050506040513d601f19601f820116820180604052508101906111f39190611c17565b9050600560008673ffffffffffffffffffffffffffffffffffffffff1673ffffffffffffffffffffffffffffffffffffffff168152602001908152602001600020600001604051806040016040528083815260200142815250908060018154018082558091505060019003906000526020600020906002020160009091909190915060008201518160000155602082015181600101555050611296338583611355565b508091505060008060006101000a81548160ff0219169083151502179055509392505050565b611352816040516024016112d091906118e6565b6040516020818303038152906040527ff82c50f1000000000000000000000000000000000000000000000000000000007bffffffffffffffffffffffffffffffffffffffffffffffffffffffff19166020820180517bffffffffffffffffffffffffffffffffffffffffffffffffffffffff83818316178352505050506115f7565b50565b600080600b60008673ffffffffffffffffffffffffffffffffffffffff1673ffffffffffffffffffffffffffffffffffffffff16815260200190815260200160002060000190508060405180606001604052808681526020014281526020018581525090806001815401808255809150506001900390600052602060002090600302016000909190919091506000820151816000015560208201518160010155604082015181600201555050600b60008673ffffffffffffffffffffffffffffffffffffffff1673ffffffffffffffffffffffffffffffffffffffff16815260200190815260200160002060010183908060018154018082558091505060019003906000526020600020016000909190919091505583600a60008581526020019081526020016000208190555060019150509392505050565b6001816000016000828254019250508190555050565b600080600090507a184f03e93ff9f4daa797ed6e38ed64bf6a1f0100000000000000008310611502577a184f03e93ff9f4daa797ed6e38ed64bf6a1f01000000000000000083816114f8576114f7611cd6565b5b0492506040810190505b6d04ee2d6d415b85acef8100000000831061153f576d04ee2d6d415b85acef8100000000838161153557611534611cd6565b5b0492506020810190505b662386f26fc10000831061156e57662386f26fc10000838161156457611563611cd6565b5b0492506010810190505b6305f5e1008310611597576305f5e100838161158d5761158c611cd6565b5b0492506008810190505b61271083106115bc5761271083816115b2576115b1611cd6565b5b0492506004810190505b606483106115df57606483816115d5576115d4611cd6565b5b0492506002810190505b600a83106115ee576001810190505b80915050919050565b60006a636f6e736f6c652e6c6f679050600080835160208501845afa505050565b6000819050919050565b61162b81611618565b82525050565b60006040820190506116466000830185611622565b6116536020830184611622565b9392505050565b600073ffffffffffffffffffffffffffffffffffffffff82169050919050565b6000819050919050565b600061169f61169a6116958461165a565b61167a565b61165a565b9050919050565b60006116b182611684565b9050919050565b60006116c3826116a6565b9050919050565b6116d3816116b8565b82525050565b60006020820190506116ee60008301846116ca565b92915050565b60006116ff826116a6565b9050919050565b61170f816116f4565b82525050565b600060208201905061172a6000830184611706565b92915050565b600081519050919050565b600082825260208201905092915050565b6000819050602082019050919050565b61176581611618565b82525050565b604082016000820151611781600085018261175c565b506020820151611794602085018261175c565b50505050565b60006117a6838361176b565b60408301905092915050565b6000602082019050919050565b60006117ca82611730565b6117d4818561173b565b93506117df8361174c565b8060005b838110156118105781516117f7888261179a565b9750611802836117b2565b9250506001810190506117e3565b5085935050505092915050565b6000602082019050818103600083015261183781846117bf565b905092915050565b600080fd5b61184d81611618565b811461185857600080fd5b50565b60008135905061186a81611844565b92915050565b600080604083850312156118875761188661183f565b5b60006118958582860161185b565b92505060206118a68582860161185b565b9150509250929050565b60008115159050919050565b6118c5816118b0565b82525050565b60006020820190506118e060008301846118bc565b92915050565b60006020820190506118fb6000830184611622565b92915050565b600061190c8261165a565b9050919050565b61191c81611901565b82525050565b60006020820190506119376000830184611913565b92915050565b61194681611901565b811461195157600080fd5b50565b6000813590506119638161193d565b92915050565b60006020828403121561197f5761197e61183f565b5b600061198d84828501611954565b91505092915050565b6000602082840312156119ac576119ab61183f565b5b60006119ba8482850161185b565b91505092915050565b60006119ce826116a6565b9050919050565b6119de816119c3565b82525050565b60006020820190506119f960008301846119d5565b92915050565b611a08816118b0565b8114611a1357600080fd5b50565b600081359050611a25816119ff565b92915050565b60008060408385031215611a4257611a4161183f565b5b6000611a508582860161185b565b9250506020611a6185828601611a16565b9150509250929050565b600082825260208201905092915050565b7f4e6f205265456e7472616e637900000000000000000000000000000000000000600082015250565b6000611ab2600d83611a6b565b9150611abd82611a7c565b602082019050919050565b60006020820190508181036000830152611ae181611aa5565b9050919050565b6000606082019050611afd6000830186611622565b611b0a6020830185611913565b611b176040830184611622565b949350505050565b600081519050611b2e816119ff565b92915050565b600060208284031215611b4a57611b4961183f565b5b6000611b5884828501611b1f565b91505092915050565b600081519050919050565b60005b83811015611b8a578082015181840152602081019050611b6f565b60008484015250505050565b6000601f19601f8301169050919050565b6000611bb282611b61565b611bbc8185611a6b565b9350611bcc818560208601611b6c565b611bd581611b96565b840191505092915050565b60006020820190508181036000830152611bfa8184611ba7565b905092915050565b600081519050611c1181611844565b92915050565b600060208284031215611c2d57611c2c61183f565b5b6000611c3b84828501611c02565b91505092915050565b7f4f776e61626c653a206e6577206f776e657220697320746865207a65726f206160008201527f6464726573730000000000000000000000000000000000000000000000000000602082015250565b6000611ca0602683611a6b565b9150611cab82611c44565b604082019050919050565b60006020820190508181036000830152611ccf81611c93565b9050919050565b7f4e487b7100000000000000000000000000000000000000000000000000000000600052601260045260246000fd5b7f4e487b7100000000000000000000000000000000000000000000000000000000600052601160045260246000fd5b6000611d3f82611618565b9150611d4a83611618565b925082611d5a57611d59611cd6565b5b828204905092915050565b6000611d7082611618565b9150611d7b83611618565b9250828202611d8981611618565b91508282048414831517611da057611d9f611d05565b5b5092915050565b600081905092915050565b7f4d617267696e203a200000000000000000000000000000000000000000000000600082015250565b6000611de8600983611da7565b9150611df382611db2565b600982019050919050565b6000611e0982611b61565b611e138185611da7565b9350611e23818560208601611b6c565b80840191505092915050565b7f4554480000000000000000000000000000000000000000000000000000000000600082015250565b6000611e65600383611da7565b9150611e7082611e2f565b600382019050919050565b6000611e8682611ddb565b9150611e928284611dfe565b9150611e9d82611e58565b915081905092915050565b7f5374616b696e672047756172616e746565204361726400000000000000000000600082015250565b6000611ede601683611a6b565b9150611ee982611ea8565b602082019050919050565b7f68747470733a2f2f697066732e696f2f697066732f516d57456751736b42637460008201527f514a55617245796376366378506e4d3357723461487a3672476f7132516d547660208201527f7755633f66696c656e616d653d51564577617272616e74792e706e6700000000604082015250565b6000611f76605c83611a6b565b9150611f8182611ef4565b606082019050919050565b60006060820190508181036000830152611fa581611ed1565b90508181036020830152611fb98184611ba7565b90508181036040830152611fcc81611f69565b905092915050565b7f4f776e61626c653a2063616c6c6572206973206e6f7420746865206f776e6572600082015250565b600061200a602083611a6b565b915061201582611fd4565b602082019050919050565b6000602082019050818103600083015261203981611ffd565b9050919050565b600061204b82611618565b915061205683611618565b925082820190508082111561206e5761206d611d05565b5b92915050565b60006060820190506120896000830186611913565b6120966020830185611913565b6120a36040830184611622565b949350505050565b60006120b682611618565b91506120c183611618565b92508282039050818111156120d9576120d8611d05565b5b92915050565b60006040820190506120f46000830185611913565b6121016020830184611622565b9392505050565b7f4e487b7100000000000000000000000000000000000000000000000000000000600052604160045260246000fd5b600060408201905061214c6000830185611913565b61215960208301846118bc565b939250505056fea2646970667358221220653c952ed729f8725a403b4d98cf88cc37d74d7bc470bc0619c84196532bb4a364736f6c63430008120033",
			"opcodes": "PUSH1 0x80 PUSH1 0x40 MSTORE CALLVALUE DUP1 ISZERO PUSH3 0x11 JUMPI PUSH1 0x0 DUP1 REVERT JUMPDEST POP PUSH1 0x40 MLOAD PUSH3 0x293F CODESIZE SUB DUP1 PUSH3 0x293F DUP4 CODECOPY DUP2 DUP2 ADD PUSH1 0x40 MSTORE DUP2 ADD SWAP1 PUSH3 0x37 SWAP2 SWAP1 PUSH3 0x514 JUMP JUMPDEST PUSH3 0x57 PUSH3 0x4B PUSH3 0x33F PUSH1 0x20 SHL PUSH1 0x20 SHR JUMP JUMPDEST PUSH3 0x347 PUSH1 0x20 SHL PUSH1 0x20 SHR JUMP JUMPDEST DUP3 PUSH1 0x2 PUSH1 0x0 PUSH2 0x100 EXP DUP2 SLOAD DUP2 PUSH20 0xFFFFFFFFFFFFFFFFFFFFFFFFFFFFFFFFFFFFFFFF MUL NOT AND SWAP1 DUP4 PUSH20 0xFFFFFFFFFFFFFFFFFFFFFFFFFFFFFFFFFFFFFFFF AND MUL OR SWAP1 SSTORE POP DUP2 PUSH1 0x3 PUSH1 0x0 PUSH2 0x100 EXP DUP2 SLOAD DUP2 PUSH20 0xFFFFFFFFFFFFFFFFFFFFFFFFFFFFFFFFFFFFFFFF MUL NOT AND SWAP1 DUP4 PUSH20 0xFFFFFFFFFFFFFFFFFFFFFFFFFFFFFFFFFFFFFFFF AND MUL OR SWAP1 SSTORE POP DUP1 PUSH1 0x4 PUSH1 0x0 PUSH2 0x100 EXP DUP2 SLOAD DUP2 PUSH20 0xFFFFFFFFFFFFFFFFFFFFFFFFFFFFFFFFFFFFFFFF MUL NOT AND SWAP1 DUP4 PUSH20 0xFFFFFFFFFFFFFFFFFFFFFFFFFFFFFFFFFFFFFFFF AND MUL OR SWAP1 SSTORE POP PUSH1 0x2 PUSH1 0x0 SWAP1 SLOAD SWAP1 PUSH2 0x100 EXP SWAP1 DIV PUSH20 0xFFFFFFFFFFFFFFFFFFFFFFFFFFFFFFFFFFFFFFFF AND PUSH20 0xFFFFFFFFFFFFFFFFFFFFFFFFFFFFFFFFFFFFFFFF AND PUSH4 0x469895C8 CALLER ADDRESS PUSH1 0x4 PUSH1 0x2 PUSH1 0x0 SWAP1 SLOAD SWAP1 PUSH2 0x100 EXP SWAP1 DIV PUSH20 0xFFFFFFFFFFFFFFFFFFFFFFFFFFFFFFFFFFFFFFFF AND PUSH20 0xFFFFFFFFFFFFFFFFFFFFFFFFFFFFFFFFFFFFFFFF AND PUSH4 0x18160DDD PUSH1 0x40 MLOAD DUP2 PUSH4 0xFFFFFFFF AND PUSH1 0xE0 SHL DUP2 MSTORE PUSH1 0x4 ADD PUSH1 0x20 PUSH1 0x40 MLOAD DUP1 DUP4 SUB DUP2 DUP7 GAS STATICCALL ISZERO DUP1 ISZERO PUSH3 0x1CA JUMPI RETURNDATASIZE PUSH1 0x0 DUP1 RETURNDATACOPY RETURNDATASIZE PUSH1 0x0 REVERT JUMPDEST POP POP POP POP PUSH1 0x40 MLOAD RETURNDATASIZE PUSH1 0x1F NOT PUSH1 0x1F DUP3 ADD AND DUP3 ADD DUP1 PUSH1 0x40 MSTORE POP DUP2 ADD SWAP1 PUSH3 0x1F0 SWAP2 SWAP1 PUSH3 0x5AB JUMP JUMPDEST PUSH3 0x1FC SWAP2 SWAP1 PUSH3 0x63B JUMP JUMPDEST PUSH1 0x40 MLOAD DUP5 PUSH4 0xFFFFFFFF AND PUSH1 0xE0 SHL DUP2 MSTORE PUSH1 0x4 ADD PUSH3 0x21C SWAP4 SWAP3 SWAP2 SWAP1 PUSH3 0x695 JUMP JUMPDEST PUSH1 0x20 PUSH1 0x40 MLOAD DUP1 DUP4 SUB DUP2 PUSH1 0x0 DUP8 GAS CALL ISZERO DUP1 ISZERO PUSH3 0x23C JUMPI RETURNDATASIZE PUSH1 0x0 DUP1 RETURNDATACOPY RETURNDATASIZE PUSH1 0x0 REVERT JUMPDEST POP POP POP POP PUSH1 0x40 MLOAD RETURNDATASIZE PUSH1 0x1F NOT PUSH1 0x1F DUP3 ADD AND DUP3 ADD DUP1 PUSH1 0x40 MSTORE POP DUP2 ADD SWAP1 PUSH3 0x262 SWAP2 SWAP1 PUSH3 0x70F JUMP JUMPDEST POP PUSH8 0xDE0B6B3A7640000 PUSH1 0x2 PUSH1 0x0 SWAP1 SLOAD SWAP1 PUSH2 0x100 EXP SWAP1 DIV PUSH20 0xFFFFFFFFFFFFFFFFFFFFFFFFFFFFFFFFFFFFFFFF AND PUSH20 0xFFFFFFFFFFFFFFFFFFFFFFFFFFFFFFFFFFFFFFFF AND PUSH4 0x70A08231 ADDRESS PUSH1 0x40 MLOAD DUP3 PUSH4 0xFFFFFFFF AND PUSH1 0xE0 SHL DUP2 MSTORE PUSH1 0x4 ADD PUSH3 0x2C9 SWAP2 SWAP1 PUSH3 0x741 JUMP JUMPDEST PUSH1 0x20 PUSH1 0x40 MLOAD DUP1 DUP4 SUB DUP2 DUP7 GAS STATICCALL ISZERO DUP1 ISZERO PUSH3 0x2E7 JUMPI RETURNDATASIZE PUSH1 0x0 DUP1 RETURNDATACOPY RETURNDATASIZE PUSH1 0x0 REVERT JUMPDEST POP POP POP POP PUSH1 0x40 MLOAD RETURNDATASIZE PUSH1 0x1F NOT PUSH1 0x1F DUP3 ADD AND DUP3 ADD DUP1 PUSH1 0x40 MSTORE POP DUP2 ADD SWAP1 PUSH3 0x30D SWAP2 SWAP1 PUSH3 0x5AB JUMP JUMPDEST PUSH3 0x319 SWAP2 SWAP1 PUSH3 0x63B JUMP JUMPDEST PUSH1 0x6 PUSH1 0x0 ADD PUSH1 0x0 DUP3 DUP3 SLOAD PUSH3 0x32F SWAP2 SWAP1 PUSH3 0x75E JUMP JUMPDEST SWAP3 POP POP DUP2 SWAP1 SSTORE POP POP POP POP PUSH3 0x799 JUMP JUMPDEST PUSH1 0x0 CALLER SWAP1 POP SWAP1 JUMP JUMPDEST PUSH1 0x0 DUP1 PUSH1 0x1 SWAP1 SLOAD SWAP1 PUSH2 0x100 EXP SWAP1 DIV PUSH20 0xFFFFFFFFFFFFFFFFFFFFFFFFFFFFFFFFFFFFFFFF AND SWAP1 POP DUP2 PUSH1 0x0 PUSH1 0x1 PUSH2 0x100 EXP DUP2 SLOAD DUP2 PUSH20 0xFFFFFFFFFFFFFFFFFFFFFFFFFFFFFFFFFFFFFFFF MUL NOT AND SWAP1 DUP4 PUSH20 0xFFFFFFFFFFFFFFFFFFFFFFFFFFFFFFFFFFFFFFFF AND MUL OR SWAP1 SSTORE POP DUP2 PUSH20 0xFFFFFFFFFFFFFFFFFFFFFFFFFFFFFFFFFFFFFFFF AND DUP2 PUSH20 0xFFFFFFFFFFFFFFFFFFFFFFFFFFFFFFFFFFFFFFFF AND PUSH32 0x8BE0079C531659141344CD1FD0A4F28419497F9722A3DAAFE3B4186F6B6457E0 PUSH1 0x40 MLOAD PUSH1 0x40 MLOAD DUP1 SWAP2 SUB SWAP1 LOG3 POP POP JUMP JUMPDEST PUSH1 0x0 DUP1 REVERT JUMPDEST PUSH1 0x0 PUSH20 0xFFFFFFFFFFFFFFFFFFFFFFFFFFFFFFFFFFFFFFFF DUP3 AND SWAP1 POP SWAP2 SWAP1 POP JUMP JUMPDEST PUSH1 0x0 PUSH3 0x43E DUP3 PUSH3 0x411 JUMP JUMPDEST SWAP1 POP SWAP2 SWAP1 POP JUMP JUMPDEST PUSH1 0x0 PUSH3 0x452 DUP3 PUSH3 0x431 JUMP JUMPDEST SWAP1 POP SWAP2 SWAP1 POP JUMP JUMPDEST PUSH3 0x464 DUP2 PUSH3 0x445 JUMP JUMPDEST DUP2 EQ PUSH3 0x470 JUMPI PUSH1 0x0 DUP1 REVERT JUMPDEST POP JUMP JUMPDEST PUSH1 0x0 DUP2 MLOAD SWAP1 POP PUSH3 0x484 DUP2 PUSH3 0x459 JUMP JUMPDEST SWAP3 SWAP2 POP POP JUMP JUMPDEST PUSH1 0x0 PUSH3 0x497 DUP3 PUSH3 0x431 JUMP JUMPDEST SWAP1 POP SWAP2 SWAP1 POP JUMP JUMPDEST PUSH3 0x4A9 DUP2 PUSH3 0x48A JUMP JUMPDEST DUP2 EQ PUSH3 0x4B5 JUMPI PUSH1 0x0 DUP1 REVERT JUMPDEST POP JUMP JUMPDEST PUSH1 0x0 DUP2 MLOAD SWAP1 POP PUSH3 0x4C9 DUP2 PUSH3 0x49E JUMP JUMPDEST SWAP3 SWAP2 POP POP JUMP JUMPDEST PUSH1 0x0 PUSH3 0x4DC DUP3 PUSH3 0x431 JUMP JUMPDEST SWAP1 POP SWAP2 SWAP1 POP JUMP JUMPDEST PUSH3 0x4EE DUP2 PUSH3 0x4CF JUMP JUMPDEST DUP2 EQ PUSH3 0x4FA JUMPI PUSH1 0x0 DUP1 REVERT JUMPDEST POP JUMP JUMPDEST PUSH1 0x0 DUP2 MLOAD SWAP1 POP PUSH3 0x50E DUP2 PUSH3 0x4E3 JUMP JUMPDEST SWAP3 SWAP2 POP POP JUMP JUMPDEST PUSH1 0x0 DUP1 PUSH1 0x0 PUSH1 0x60 DUP5 DUP7 SUB SLT ISZERO PUSH3 0x530 JUMPI PUSH3 0x52F PUSH3 0x40C JUMP JUMPDEST JUMPDEST PUSH1 0x0 PUSH3 0x540 DUP7 DUP3 DUP8 ADD PUSH3 0x473 JUMP JUMPDEST SWAP4 POP POP PUSH1 0x20 PUSH3 0x553 DUP7 DUP3 DUP8 ADD PUSH3 0x4B8 JUMP JUMPDEST SWAP3 POP POP PUSH1 0x40 PUSH3 0x566 DUP7 DUP3 DUP8 ADD PUSH3 0x4FD JUMP JUMPDEST SWAP2 POP POP SWAP3 POP SWAP3 POP SWAP3 JUMP JUMPDEST PUSH1 0x0 DUP2 SWAP1 POP SWAP2 SWAP1 POP JUMP JUMPDEST PUSH3 0x585 DUP2 PUSH3 0x570 JUMP JUMPDEST DUP2 EQ PUSH3 0x591 JUMPI PUSH1 0x0 DUP1 REVERT JUMPDEST POP JUMP JUMPDEST PUSH1 0x0 DUP2 MLOAD SWAP1 POP PUSH3 0x5A5 DUP2 PUSH3 0x57A JUMP JUMPDEST SWAP3 SWAP2 POP POP JUMP JUMPDEST PUSH1 0x0 PUSH1 0x20 DUP3 DUP5 SUB SLT ISZERO PUSH3 0x5C4 JUMPI PUSH3 0x5C3 PUSH3 0x40C JUMP JUMPDEST JUMPDEST PUSH1 0x0 PUSH3 0x5D4 DUP5 DUP3 DUP6 ADD PUSH3 0x594 JUMP JUMPDEST SWAP2 POP POP SWAP3 SWAP2 POP POP JUMP JUMPDEST PUSH32 0x4E487B7100000000000000000000000000000000000000000000000000000000 PUSH1 0x0 MSTORE PUSH1 0x12 PUSH1 0x4 MSTORE PUSH1 0x24 PUSH1 0x0 REVERT JUMPDEST PUSH32 0x4E487B7100000000000000000000000000000000000000000000000000000000 PUSH1 0x0 MSTORE PUSH1 0x11 PUSH1 0x4 MSTORE PUSH1 0x24 PUSH1 0x0 REVERT JUMPDEST PUSH1 0x0 PUSH3 0x648 DUP3 PUSH3 0x570 JUMP JUMPDEST SWAP2 POP PUSH3 0x655 DUP4 PUSH3 0x570 JUMP JUMPDEST SWAP3 POP DUP3 PUSH3 0x668 JUMPI PUSH3 0x667 PUSH3 0x5DD JUMP JUMPDEST JUMPDEST DUP3 DUP3 DIV SWAP1 POP SWAP3 SWAP2 POP POP JUMP JUMPDEST PUSH3 0x67E DUP2 PUSH3 0x431 JUMP JUMPDEST DUP3 MSTORE POP POP JUMP JUMPDEST PUSH3 0x68F DUP2 PUSH3 0x570 JUMP JUMPDEST DUP3 MSTORE POP POP JUMP JUMPDEST PUSH1 0x0 PUSH1 0x60 DUP3 ADD SWAP1 POP PUSH3 0x6AC PUSH1 0x0 DUP4 ADD DUP7 PUSH3 0x673 JUMP JUMPDEST PUSH3 0x6BB PUSH1 0x20 DUP4 ADD DUP6 PUSH3 0x673 JUMP JUMPDEST PUSH3 0x6CA PUSH1 0x40 DUP4 ADD DUP5 PUSH3 0x684 JUMP JUMPDEST SWAP5 SWAP4 POP POP POP POP JUMP JUMPDEST PUSH1 0x0 DUP2 ISZERO ISZERO SWAP1 POP SWAP2 SWAP1 POP JUMP JUMPDEST PUSH3 0x6E9 DUP2 PUSH3 0x6D2 JUMP JUMPDEST DUP2 EQ PUSH3 0x6F5 JUMPI PUSH1 0x0 DUP1 REVERT JUMPDEST POP JUMP JUMPDEST PUSH1 0x0 DUP2 MLOAD SWAP1 POP PUSH3 0x709 DUP2 PUSH3 0x6DE JUMP JUMPDEST SWAP3 SWAP2 POP POP JUMP JUMPDEST PUSH1 0x0 PUSH1 0x20 DUP3 DUP5 SUB SLT ISZERO PUSH3 0x728 JUMPI PUSH3 0x727 PUSH3 0x40C JUMP JUMPDEST JUMPDEST PUSH1 0x0 PUSH3 0x738 DUP5 DUP3 DUP6 ADD PUSH3 0x6F8 JUMP JUMPDEST SWAP2 POP POP SWAP3 SWAP2 POP POP JUMP JUMPDEST PUSH1 0x0 PUSH1 0x20 DUP3 ADD SWAP1 POP PUSH3 0x758 PUSH1 0x0 DUP4 ADD DUP5 PUSH3 0x673 JUMP JUMPDEST SWAP3 SWAP2 POP POP JUMP JUMPDEST PUSH1 0x0 PUSH3 0x76B DUP3 PUSH3 0x570 JUMP JUMPDEST SWAP2 POP PUSH3 0x778 DUP4 PUSH3 0x570 JUMP JUMPDEST SWAP3 POP DUP3 DUP3 ADD SWAP1 POP DUP1 DUP3 GT ISZERO PUSH3 0x793 JUMPI PUSH3 0x792 PUSH3 0x60C JUMP JUMPDEST JUMPDEST SWAP3 SWAP2 POP POP JUMP JUMPDEST PUSH2 0x2196 DUP1 PUSH3 0x7A9 PUSH1 0x0 CODECOPY PUSH1 0x0 RETURN INVALID PUSH1 0x80 PUSH1 0x40 MSTORE PUSH1 0x4 CALLDATASIZE LT PUSH2 0xDD JUMPI PUSH1 0x0 CALLDATALOAD PUSH1 0xE0 SHR DUP1 PUSH4 0x8866B937 GT PUSH2 0x7F JUMPI DUP1 PUSH4 0xF2FDE38B GT PUSH2 0x59 JUMPI DUP1 PUSH4 0xF2FDE38B EQ PUSH2 0x290 JUMPI DUP1 PUSH4 0xF366B27E EQ PUSH2 0x2B9 JUMPI DUP1 PUSH4 0xFDCDBAE2 EQ PUSH2 0x2F6 JUMPI DUP1 PUSH4 0xFE35FB50 EQ PUSH2 0x321 JUMPI PUSH2 0xDD JUMP JUMPDEST DUP1 PUSH4 0x8866B937 EQ PUSH2 0x20F JUMPI DUP1 PUSH4 0x8DA5CB5B EQ PUSH2 0x23A JUMPI DUP1 PUSH4 0x9F62E796 EQ PUSH2 0x265 JUMPI PUSH2 0xDD JUMP JUMPDEST DUP1 PUSH4 0x510B7F98 GT PUSH2 0xBB JUMPI DUP1 PUSH4 0x510B7F98 EQ PUSH2 0x165 JUMPI DUP1 PUSH4 0x5AC66993 EQ PUSH2 0x190 JUMPI DUP1 PUSH4 0x715018A6 EQ PUSH2 0x1BB JUMPI DUP1 PUSH4 0x83CE6147 EQ PUSH2 0x1D2 JUMPI PUSH2 0xDD JUMP JUMPDEST DUP1 PUSH4 0x691BADF EQ PUSH2 0xE2 JUMPI DUP1 PUSH4 0xE301D24 EQ PUSH2 0x10E JUMPI DUP1 PUSH4 0x2B1C4158 EQ PUSH2 0x13A JUMPI JUMPDEST PUSH1 0x0 DUP1 REVERT JUMPDEST CALLVALUE DUP1 ISZERO PUSH2 0xEE JUMPI PUSH1 0x0 DUP1 REVERT JUMPDEST POP PUSH2 0xF7 PUSH2 0x351 JUMP JUMPDEST PUSH1 0x40 MLOAD PUSH2 0x105 SWAP3 SWAP2 SWAP1 PUSH2 0x1631 JUMP JUMPDEST PUSH1 0x40 MLOAD DUP1 SWAP2 SUB SWAP1 RETURN JUMPDEST CALLVALUE DUP1 ISZERO PUSH2 0x11A JUMPI PUSH1 0x0 DUP1 REVERT JUMPDEST POP PUSH2 0x123 PUSH2 0x363 JUMP JUMPDEST PUSH1 0x40 MLOAD PUSH2 0x131 SWAP3 SWAP2 SWAP1 PUSH2 0x1631 JUMP JUMPDEST PUSH1 0x40 MLOAD DUP1 SWAP2 SUB SWAP1 RETURN JUMPDEST CALLVALUE DUP1 ISZERO PUSH2 0x146 JUMPI PUSH1 0x0 DUP1 REVERT JUMPDEST POP PUSH2 0x14F PUSH2 0x375 JUMP JUMPDEST PUSH1 0x40 MLOAD PUSH2 0x15C SWAP2 SWAP1 PUSH2 0x16D9 JUMP JUMPDEST PUSH1 0x40 MLOAD DUP1 SWAP2 SUB SWAP1 RETURN JUMPDEST CALLVALUE DUP1 ISZERO PUSH2 0x171 JUMPI PUSH1 0x0 DUP1 REVERT JUMPDEST POP PUSH2 0x17A PUSH2 0x39B JUMP JUMPDEST PUSH1 0x40 MLOAD PUSH2 0x187 SWAP2 SWAP1 PUSH2 0x1715 JUMP JUMPDEST PUSH1 0x40 MLOAD DUP1 SWAP2 SUB SWAP1 RETURN JUMPDEST CALLVALUE DUP1 ISZERO PUSH2 0x19C JUMPI PUSH1 0x0 DUP1 REVERT JUMPDEST POP PUSH2 0x1A5 PUSH2 0x3C1 JUMP JUMPDEST PUSH1 0x40 MLOAD PUSH2 0x1B2 SWAP2 SWAP1 PUSH2 0x181D JUMP JUMPDEST PUSH1 0x40 MLOAD DUP1 SWAP2 SUB SWAP1 RETURN JUMPDEST CALLVALUE DUP1 ISZERO PUSH2 0x1C7 JUMPI PUSH1 0x0 DUP1 REVERT JUMPDEST POP PUSH2 0x1D0 PUSH2 0x474 JUMP JUMPDEST STOP JUMPDEST CALLVALUE DUP1 ISZERO PUSH2 0x1DE JUMPI PUSH1 0x0 DUP1 REVERT JUMPDEST POP PUSH2 0x1F9 PUSH1 0x4 DUP1 CALLDATASIZE SUB DUP2 ADD SWAP1 PUSH2 0x1F4 SWAP2 SWAP1 PUSH2 0x1870 JUMP JUMPDEST PUSH2 0x488 JUMP JUMPDEST PUSH1 0x40 MLOAD PUSH2 0x206 SWAP2 SWAP1 PUSH2 0x18CB JUMP JUMPDEST PUSH1 0x40 MLOAD DUP1 SWAP2 SUB SWAP1 RETURN JUMPDEST CALLVALUE DUP1 ISZERO PUSH2 0x21B JUMPI PUSH1 0x0 DUP1 REVERT JUMPDEST POP PUSH2 0x224 PUSH2 0x63B JUMP JUMPDEST PUSH1 0x40 MLOAD PUSH2 0x231 SWAP2 SWAP1 PUSH2 0x18E6 JUMP JUMPDEST PUSH1 0x40 MLOAD DUP1 SWAP2 SUB SWAP1 RETURN JUMPDEST CALLVALUE DUP1 ISZERO PUSH2 0x246 JUMPI PUSH1 0x0 DUP1 REVERT JUMPDEST POP PUSH2 0x24F PUSH2 0x64C JUMP JUMPDEST PUSH1 0x40 MLOAD PUSH2 0x25C SWAP2 SWAP1 PUSH2 0x1922 JUMP JUMPDEST PUSH1 0x40 MLOAD DUP1 SWAP2 SUB SWAP1 RETURN JUMPDEST CALLVALUE DUP1 ISZERO PUSH2 0x271 JUMPI PUSH1 0x0 DUP1 REVERT JUMPDEST POP PUSH2 0x27A PUSH2 0x675 JUMP JUMPDEST PUSH1 0x40 MLOAD PUSH2 0x287 SWAP2 SWAP1 PUSH2 0x18E6 JUMP JUMPDEST PUSH1 0x40 MLOAD DUP1 SWAP2 SUB SWAP1 RETURN JUMPDEST CALLVALUE DUP1 ISZERO PUSH2 0x29C JUMPI PUSH1 0x0 DUP1 REVERT JUMPDEST POP PUSH2 0x2B7 PUSH1 0x4 DUP1 CALLDATASIZE SUB DUP2 ADD SWAP1 PUSH2 0x2B2 SWAP2 SWAP1 PUSH2 0x1969 JUMP JUMPDEST PUSH2 0x718 JUMP JUMPDEST STOP JUMPDEST CALLVALUE DUP1 ISZERO PUSH2 0x2C5 JUMPI PUSH1 0x0 DUP1 REVERT JUMPDEST POP PUSH2 0x2E0 PUSH1 0x4 DUP1 CALLDATASIZE SUB DUP2 ADD SWAP1 PUSH2 0x2DB SWAP2 SWAP1 PUSH2 0x1996 JUMP JUMPDEST PUSH2 0x79B JUMP JUMPDEST PUSH1 0x40 MLOAD PUSH2 0x2ED SWAP2 SWAP1 PUSH2 0x18CB JUMP JUMPDEST PUSH1 0x40 MLOAD DUP1 SWAP2 SUB SWAP1 RETURN JUMPDEST CALLVALUE DUP1 ISZERO PUSH2 0x302 JUMPI PUSH1 0x0 DUP1 REVERT JUMPDEST POP PUSH2 0x30B PUSH2 0x940 JUMP JUMPDEST PUSH1 0x40 MLOAD PUSH2 0x318 SWAP2 SWAP1 PUSH2 0x19E4 JUMP JUMPDEST PUSH1 0x40 MLOAD DUP1 SWAP2 SUB SWAP1 RETURN JUMPDEST PUSH2 0x33B PUSH1 0x4 DUP1 CALLDATASIZE SUB DUP2 ADD SWAP1 PUSH2 0x336 SWAP2 SWAP1 PUSH2 0x1A2B JUMP JUMPDEST PUSH2 0x966 JUMP JUMPDEST PUSH1 0x40 MLOAD PUSH2 0x348 SWAP2 SWAP1 PUSH2 0x18CB JUMP JUMPDEST PUSH1 0x40 MLOAD DUP1 SWAP2 SUB SWAP1 RETURN JUMPDEST PUSH1 0x8 DUP1 PUSH1 0x0 ADD SLOAD SWAP1 DUP1 PUSH1 0x1 ADD SLOAD SWAP1 POP DUP3 JUMP JUMPDEST PUSH1 0x6 DUP1 PUSH1 0x0 ADD SLOAD SWAP1 DUP1 PUSH1 0x1 ADD SLOAD SWAP1 POP DUP3 JUMP JUMPDEST PUSH1 0x2 PUSH1 0x0 SWAP1 SLOAD SWAP1 PUSH2 0x100 EXP SWAP1 DIV PUSH20 0xFFFFFFFFFFFFFFFFFFFFFFFFFFFFFFFFFFFFFFFF AND DUP2 JUMP JUMPDEST PUSH1 0x3 PUSH1 0x0 SWAP1 SLOAD SWAP1 PUSH2 0x100 EXP SWAP1 DIV PUSH20 0xFFFFFFFFFFFFFFFFFFFFFFFFFFFFFFFFFFFFFFFF AND DUP2 JUMP JUMPDEST PUSH1 0x60 PUSH1 0x5 PUSH1 0x0 CALLER PUSH20 0xFFFFFFFFFFFFFFFFFFFFFFFFFFFFFFFFFFFFFFFF AND PUSH20 0xFFFFFFFFFFFFFFFFFFFFFFFFFFFFFFFFFFFFFFFF AND DUP2 MSTORE PUSH1 0x20 ADD SWAP1 DUP2 MSTORE PUSH1 0x20 ADD PUSH1 0x0 KECCAK256 PUSH1 0x0 ADD DUP1 SLOAD DUP1 PUSH1 0x20 MUL PUSH1 0x20 ADD PUSH1 0x40 MLOAD SWAP1 DUP2 ADD PUSH1 0x40 MSTORE DUP1 SWAP3 SWAP2 SWAP1 DUP2 DUP2 MSTORE PUSH1 0x20 ADD PUSH1 0x0 SWAP1 JUMPDEST DUP3 DUP3 LT ISZERO PUSH2 0x46B JUMPI DUP4 DUP3 SWAP1 PUSH1 0x0 MSTORE PUSH1 0x20 PUSH1 0x0 KECCAK256 SWAP1 PUSH1 0x2 MUL ADD PUSH1 0x40 MLOAD DUP1 PUSH1 0x40 ADD PUSH1 0x40 MSTORE SWAP1 DUP2 PUSH1 0x0 DUP3 ADD SLOAD DUP2 MSTORE PUSH1 0x20 ADD PUSH1 0x1 DUP3 ADD SLOAD DUP2 MSTORE POP POP DUP2 MSTORE PUSH1 0x20 ADD SWAP1 PUSH1 0x1 ADD SWAP1 PUSH2 0x425 JUMP JUMPDEST POP POP POP POP SWAP1 POP SWAP1 JUMP JUMPDEST PUSH2 0x47C PUSH2 0xACC JUMP JUMPDEST PUSH2 0x486 PUSH1 0x0 PUSH2 0xB4A JUMP JUMPDEST JUMP JUMPDEST PUSH1 0x0 DUP1 PUSH1 0x0 SWAP1 SLOAD SWAP1 PUSH2 0x100 EXP SWAP1 DIV PUSH1 0xFF AND ISZERO PUSH2 0x4D9 JUMPI PUSH1 0x40 MLOAD PUSH32 0x8C379A000000000000000000000000000000000000000000000000000000000 DUP2 MSTORE PUSH1 0x4 ADD PUSH2 0x4D0 SWAP1 PUSH2 0x1AC8 JUMP JUMPDEST PUSH1 0x40 MLOAD DUP1 SWAP2 SUB SWAP1 REVERT JUMPDEST PUSH1 0x1 PUSH1 0x0 DUP1 PUSH2 0x100 EXP DUP2 SLOAD DUP2 PUSH1 0xFF MUL NOT AND SWAP1 DUP4 ISZERO ISZERO MUL OR SWAP1 SSTORE POP PUSH1 0x3 PUSH1 0x0 SWAP1 SLOAD SWAP1 PUSH2 0x100 EXP SWAP1 DIV PUSH20 0xFFFFFFFFFFFFFFFFFFFFFFFFFFFFFFFFFFFFFFFF AND PUSH20 0xFFFFFFFFFFFFFFFFFFFFFFFFFFFFFFFFFFFFFFFF AND PUSH4 0xB2C3A717 DUP5 ADDRESS DUP6 PUSH1 0x40 MLOAD DUP5 PUSH4 0xFFFFFFFF AND PUSH1 0xE0 SHL DUP2 MSTORE PUSH1 0x4 ADD PUSH2 0x552 SWAP4 SWAP3 SWAP2 SWAP1 PUSH2 0x1AE8 JUMP JUMPDEST PUSH1 0x20 PUSH1 0x40 MLOAD DUP1 DUP4 SUB DUP2 PUSH1 0x0 DUP8 GAS CALL ISZERO DUP1 ISZERO PUSH2 0x571 JUMPI RETURNDATASIZE PUSH1 0x0 DUP1 RETURNDATACOPY RETURNDATASIZE PUSH1 0x0 REVERT JUMPDEST POP POP POP POP PUSH1 0x40 MLOAD RETURNDATASIZE PUSH1 0x1F NOT PUSH1 0x1F DUP3 ADD AND DUP3 ADD DUP1 PUSH1 0x40 MSTORE POP DUP2 ADD SWAP1 PUSH2 0x595 SWAP2 SWAP1 PUSH2 0x1B34 JUMP JUMPDEST PUSH1 0x40 MLOAD DUP1 PUSH1 0x40 ADD PUSH1 0x40 MSTORE DUP1 PUSH1 0x1A DUP2 MSTORE PUSH1 0x20 ADD PUSH32 0x5761726E696E6720466F72204C6F636B75702053686F7274656E000000000000 DUP2 MSTORE POP SWAP1 PUSH2 0x60C JUMPI PUSH1 0x40 MLOAD PUSH32 0x8C379A000000000000000000000000000000000000000000000000000000000 DUP2 MSTORE PUSH1 0x4 ADD PUSH2 0x603 SWAP2 SWAP1 PUSH2 0x1BE0 JUMP JUMPDEST PUSH1 0x40 MLOAD DUP1 SWAP2 SUB SWAP1 REVERT JUMPDEST POP PUSH2 0x616 DUP4 PUSH2 0xC0F JUMP JUMPDEST POP PUSH1 0x1 SWAP1 POP PUSH1 0x0 DUP1 PUSH1 0x0 PUSH2 0x100 EXP DUP2 SLOAD DUP2 PUSH1 0xFF MUL NOT AND SWAP1 DUP4 ISZERO ISZERO MUL OR SWAP1 SSTORE POP SWAP3 SWAP2 POP POP JUMP JUMPDEST PUSH1 0x0 PUSH2 0x647 PUSH1 0x1 PUSH2 0xC40 JUMP JUMPDEST SWAP1 POP SWAP1 JUMP JUMPDEST PUSH1 0x0 DUP1 PUSH1 0x1 SWAP1 SLOAD SWAP1 PUSH2 0x100 EXP SWAP1 DIV PUSH20 0xFFFFFFFFFFFFFFFFFFFFFFFFFFFFFFFFFFFFFFFF AND SWAP1 POP SWAP1 JUMP JUMPDEST PUSH1 0x0 PUSH1 0x3 PUSH1 0x0 SWAP1 SLOAD SWAP1 PUSH2 0x100 EXP SWAP1 DIV PUSH20 0xFFFFFFFFFFFFFFFFFFFFFFFFFFFFFFFFFFFFFFFF AND PUSH20 0xFFFFFFFFFFFFFFFFFFFFFFFFFFFFFFFFFFFFFFFF AND PUSH4 0x70A08231 CALLER PUSH1 0x40 MLOAD DUP3 PUSH4 0xFFFFFFFF AND PUSH1 0xE0 SHL DUP2 MSTORE PUSH1 0x4 ADD PUSH2 0x6D2 SWAP2 SWAP1 PUSH2 0x1922 JUMP JUMPDEST PUSH1 0x20 PUSH1 0x40 MLOAD DUP1 DUP4 SUB DUP2 DUP7 GAS STATICCALL ISZERO DUP1 ISZERO PUSH2 0x6EF JUMPI RETURNDATASIZE PUSH1 0x0 DUP1 RETURNDATACOPY RETURNDATASIZE PUSH1 0x0 REVERT JUMPDEST POP POP POP POP PUSH1 0x40 MLOAD RETURNDATASIZE PUSH1 0x1F NOT PUSH1 0x1F DUP3 ADD AND DUP3 ADD DUP1 PUSH1 0x40 MSTORE POP DUP2 ADD SWAP1 PUSH2 0x713 SWAP2 SWAP1 PUSH2 0x1C17 JUMP JUMPDEST SWAP1 POP SWAP1 JUMP JUMPDEST PUSH2 0x720 PUSH2 0xACC JUMP JUMPDEST PUSH1 0x0 PUSH20 0xFFFFFFFFFFFFFFFFFFFFFFFFFFFFFFFFFFFFFFFF AND DUP2 PUSH20 0xFFFFFFFFFFFFFFFFFFFFFFFFFFFFFFFFFFFFFFFF AND SUB PUSH2 0x78F JUMPI PUSH1 0x40 MLOAD PUSH32 0x8C379A000000000000000000000000000000000000000000000000000000000 DUP2 MSTORE PUSH1 0x4 ADD PUSH2 0x786 SWAP1 PUSH2 0x1CB6 JUMP JUMPDEST PUSH1 0x40 MLOAD DUP1 SWAP2 SUB SWAP1 REVERT JUMPDEST PUSH2 0x798 DUP2 PUSH2 0xB4A JUMP JUMPDEST POP JUMP JUMPDEST PUSH1 0x0 PUSH1 0x3 PUSH1 0x0 SWAP1 SLOAD SWAP1 PUSH2 0x100 EXP SWAP1 DIV PUSH20 0xFFFFFFFFFFFFFFFFFFFFFFFFFFFFFFFFFFFFFFFF AND PUSH20 0xFFFFFFFFFFFFFFFFFFFFFFFFFFFFFFFFFFFFFFFF AND PUSH4 0x2890E0D7 DUP4 PUSH1 0x40 MLOAD DUP3 PUSH4 0xFFFFFFFF AND PUSH1 0xE0 SHL DUP2 MSTORE PUSH1 0x4 ADD PUSH2 0x7F8 SWAP2 SWAP1 PUSH2 0x18E6 JUMP JUMPDEST PUSH1 0x20 PUSH1 0x40 MLOAD DUP1 DUP4 SUB DUP2 PUSH1 0x0 DUP8 GAS CALL ISZERO DUP1 ISZERO PUSH2 0x817 JUMPI RETURNDATASIZE PUSH1 0x0 DUP1 RETURNDATACOPY RETURNDATASIZE PUSH1 0x0 REVERT JUMPDEST POP POP POP POP PUSH1 0x40 MLOAD RETURNDATASIZE PUSH1 0x1F NOT PUSH1 0x1F DUP3 ADD AND DUP3 ADD DUP1 PUSH1 0x40 MSTORE POP DUP2 ADD SWAP1 PUSH2 0x83B SWAP2 SWAP1 PUSH2 0x1B34 JUMP JUMPDEST POP PUSH2 0x86C CALLER PUSH8 0xDE0B6B3A7640000 PUSH1 0xA PUSH1 0x0 DUP7 DUP2 MSTORE PUSH1 0x20 ADD SWAP1 DUP2 MSTORE PUSH1 0x20 ADD PUSH1 0x0 KECCAK256 SLOAD PUSH2 0x867 SWAP2 SWAP1 PUSH2 0x1D34 JUMP JUMPDEST PUSH2 0xC4E JUMP JUMPDEST PUSH1 0x40 MLOAD DUP1 PUSH1 0x40 ADD PUSH1 0x40 MSTORE DUP1 PUSH1 0x14 DUP2 MSTORE PUSH1 0x20 ADD PUSH32 0x5761726E696E6720466F72205472616E73666572000000000000000000000000 DUP2 MSTORE POP SWAP1 PUSH2 0x8E3 JUMPI PUSH1 0x40 MLOAD PUSH32 0x8C379A000000000000000000000000000000000000000000000000000000000 DUP2 MSTORE PUSH1 0x4 ADD PUSH2 0x8DA SWAP2 SWAP1 PUSH2 0x1BE0 JUMP JUMPDEST PUSH1 0x40 MLOAD DUP1 SWAP2 SUB SWAP1 REVERT JUMPDEST POP PUSH2 0x92E PUSH8 0xDE0B6B3A7640000 PUSH1 0x64 PUSH1 0x28 PUSH1 0xFF AND PUSH1 0xA PUSH1 0x0 DUP8 DUP2 MSTORE PUSH1 0x20 ADD SWAP1 DUP2 MSTORE PUSH1 0x20 ADD PUSH1 0x0 KECCAK256 SLOAD PUSH2 0x915 SWAP2 SWAP1 PUSH2 0x1D65 JUMP JUMPDEST PUSH2 0x91F SWAP2 SWAP1 PUSH2 0x1D34 JUMP JUMPDEST PUSH2 0x929 SWAP2 SWAP1 PUSH2 0x1D65 JUMP JUMPDEST PUSH2 0xE30 JUMP JUMPDEST PUSH2 0x937 JUMPI PUSH1 0x0 DUP1 REVERT JUMPDEST PUSH1 0x1 SWAP1 POP SWAP2 SWAP1 POP JUMP JUMPDEST PUSH1 0x4 PUSH1 0x0 SWAP1 SLOAD SWAP1 PUSH2 0x100 EXP SWAP1 DIV PUSH20 0xFFFFFFFFFFFFFFFFFFFFFFFFFFFFFFFFFFFFFFFF AND DUP2 JUMP JUMPDEST PUSH1 0x0 DUP1 PUSH1 0x0 SWAP1 SLOAD SWAP1 PUSH2 0x100 EXP SWAP1 DIV PUSH1 0xFF AND ISZERO PUSH2 0x9B7 JUMPI PUSH1 0x40 MLOAD PUSH32 0x8C379A000000000000000000000000000000000000000000000000000000000 DUP2 MSTORE PUSH1 0x4 ADD PUSH2 0x9AE SWAP1 PUSH2 0x1AC8 JUMP JUMPDEST PUSH1 0x40 MLOAD DUP1 SWAP2 SUB SWAP1 REVERT JUMPDEST PUSH1 0x1 PUSH1 0x0 DUP1 PUSH2 0x100 EXP DUP2 SLOAD DUP2 PUSH1 0xFF MUL NOT AND SWAP1 DUP4 ISZERO ISZERO MUL OR SWAP1 SSTORE POP PUSH2 0x9DB DUP4 DUP4 PUSH2 0xF5F JUMP JUMPDEST POP PUSH1 0x0 PUSH2 0x9E7 DUP5 PUSH2 0x1010 JUMP JUMPDEST PUSH1 0x40 MLOAD PUSH1 0x20 ADD PUSH2 0x9F7 SWAP2 SWAP1 PUSH2 0x1E7B JUMP JUMPDEST PUSH1 0x40 MLOAD PUSH1 0x20 DUP2 DUP4 SUB SUB DUP2 MSTORE SWAP1 PUSH1 0x40 MSTORE SWAP1 POP PUSH1 0x3 PUSH1 0x0 SWAP1 SLOAD SWAP1 PUSH2 0x100 EXP SWAP1 DIV PUSH20 0xFFFFFFFFFFFFFFFFFFFFFFFFFFFFFFFFFFFFFFFF AND PUSH20 0xFFFFFFFFFFFFFFFFFFFFFFFFFFFFFFFFFFFFFFFF AND PUSH4 0x890D80C DUP3 PUSH1 0x40 MLOAD DUP3 PUSH4 0xFFFFFFFF AND PUSH1 0xE0 SHL DUP2 MSTORE PUSH1 0x4 ADD PUSH2 0xA63 SWAP2 SWAP1 PUSH2 0x1F8C JUMP JUMPDEST PUSH1 0x20 PUSH1 0x40 MLOAD DUP1 DUP4 SUB DUP2 PUSH1 0x0 DUP8 GAS CALL ISZERO DUP1 ISZERO PUSH2 0xA82 JUMPI RETURNDATASIZE PUSH1 0x0 DUP1 RETURNDATACOPY RETURNDATASIZE PUSH1 0x0 REVERT JUMPDEST POP POP POP POP PUSH1 0x40 MLOAD RETURNDATASIZE PUSH1 0x1F NOT PUSH1 0x1F DUP3 ADD AND DUP3 ADD DUP1 PUSH1 0x40 MSTORE POP DUP2 ADD SWAP1 PUSH2 0xAA6 SWAP2 SWAP1 PUSH2 0x1B34 JUMP JUMPDEST POP PUSH1 0x1 SWAP2 POP POP PUSH1 0x0 DUP1 PUSH1 0x0 PUSH2 0x100 EXP DUP2 SLOAD DUP2 PUSH1 0xFF MUL NOT AND SWAP1 DUP4 ISZERO ISZERO MUL OR SWAP1 SSTORE POP SWAP3 SWAP2 POP POP JUMP JUMPDEST PUSH2 0xAD4 PUSH2 0x10DE JUMP JUMPDEST PUSH20 0xFFFFFFFFFFFFFFFFFFFFFFFFFFFFFFFFFFFFFFFF AND PUSH2 0xAF2 PUSH2 0x64C JUMP JUMPDEST PUSH20 0xFFFFFFFFFFFFFFFFFFFFFFFFFFFFFFFFFFFFFFFF AND EQ PUSH2 0xB48 JUMPI PUSH1 0x40 MLOAD PUSH32 0x8C379A000000000000000000000000000000000000000000000000000000000 DUP2 MSTORE PUSH1 0x4 ADD PUSH2 0xB3F SWAP1 PUSH2 0x2020 JUMP JUMPDEST PUSH1 0x40 MLOAD DUP1 SWAP2 SUB SWAP1 REVERT JUMPDEST JUMP JUMPDEST PUSH1 0x0 DUP1 PUSH1 0x1 SWAP1 SLOAD SWAP1 PUSH2 0x100 EXP SWAP1 DIV PUSH20 0xFFFFFFFFFFFFFFFFFFFFFFFFFFFFFFFFFFFFFFFF AND SWAP1 POP DUP2 PUSH1 0x0 PUSH1 0x1 PUSH2 0x100 EXP DUP2 SLOAD DUP2 PUSH20 0xFFFFFFFFFFFFFFFFFFFFFFFFFFFFFFFFFFFFFFFF MUL NOT AND SWAP1 DUP4 PUSH20 0xFFFFFFFFFFFFFFFFFFFFFFFFFFFFFFFFFFFFFFFF AND MUL OR SWAP1 SSTORE POP DUP2 PUSH20 0xFFFFFFFFFFFFFFFFFFFFFFFFFFFFFFFFFFFFFFFF AND DUP2 PUSH20 0xFFFFFFFFFFFFFFFFFFFFFFFFFFFFFFFFFFFFFFFF AND PUSH32 0x8BE0079C531659141344CD1FD0A4F28419497F9722A3DAAFE3B4186F6B6457E0 PUSH1 0x40 MLOAD PUSH1 0x40 MLOAD DUP1 SWAP2 SUB SWAP1 LOG3 POP POP JUMP JUMPDEST PUSH1 0x0 DUP2 PUSH1 0x6 PUSH1 0x0 ADD PUSH1 0x0 DUP3 DUP3 SLOAD PUSH2 0xC26 SWAP2 SWAP1 PUSH2 0x2040 JUMP JUMPDEST SWAP3 POP POP DUP2 SWAP1 SSTORE POP TIMESTAMP PUSH1 0x6 PUSH1 0x1 ADD DUP2 SWAP1 SSTORE POP PUSH1 0x1 SWAP1 POP SWAP2 SWAP1 POP JUMP JUMPDEST PUSH1 0x0 DUP2 PUSH1 0x0 ADD SLOAD SWAP1 POP SWAP2 SWAP1 POP JUMP JUMPDEST PUSH1 0x0 DUP1 PUSH1 0x0 SWAP1 SLOAD SWAP1 PUSH2 0x100 EXP SWAP1 DIV PUSH1 0xFF AND ISZERO PUSH2 0xC9F JUMPI PUSH1 0x40 MLOAD PUSH32 0x8C379A000000000000000000000000000000000000000000000000000000000 DUP2 MSTORE PUSH1 0x4 ADD PUSH2 0xC96 SWAP1 PUSH2 0x1AC8 JUMP JUMPDEST PUSH1 0x40 MLOAD DUP1 SWAP2 SUB SWAP1 REVERT JUMPDEST PUSH1 0x1 PUSH1 0x0 DUP1 PUSH2 0x100 EXP DUP2 SLOAD DUP2 PUSH1 0xFF MUL NOT AND SWAP1 DUP4 ISZERO ISZERO MUL OR SWAP1 SSTORE POP PUSH1 0x2 PUSH1 0x0 SWAP1 SLOAD SWAP1 PUSH2 0x100 EXP SWAP1 DIV PUSH20 0xFFFFFFFFFFFFFFFFFFFFFFFFFFFFFFFFFFFFFFFF AND PUSH20 0xFFFFFFFFFFFFFFFFFFFFFFFFFFFFFFFFFFFFFFFF AND PUSH4 0x469895C8 ADDRESS DUP6 PUSH8 0xDE0B6B3A7640000 DUP7 PUSH2 0xD0D SWAP2 SWAP1 PUSH2 0x1D65 JUMP JUMPDEST PUSH1 0x40 MLOAD DUP5 PUSH4 0xFFFFFFFF AND PUSH1 0xE0 SHL DUP2 MSTORE PUSH1 0x4 ADD PUSH2 0xD2B SWAP4 SWAP3 SWAP2 SWAP1 PUSH2 0x2074 JUMP JUMPDEST PUSH1 0x20 PUSH1 0x40 MLOAD DUP1 DUP4 SUB DUP2 PUSH1 0x0 DUP8 GAS CALL ISZERO DUP1 ISZERO PUSH2 0xD4A JUMPI RETURNDATASIZE PUSH1 0x0 DUP1 RETURNDATACOPY RETURNDATASIZE PUSH1 0x0 REVERT JUMPDEST POP POP POP POP PUSH1 0x40 MLOAD RETURNDATASIZE PUSH1 0x1F NOT PUSH1 0x1F DUP3 ADD AND DUP3 ADD DUP1 PUSH1 0x40 MSTORE POP DUP2 ADD SWAP1 PUSH2 0xD6E SWAP2 SWAP1 PUSH2 0x1B34 JUMP JUMPDEST PUSH1 0x40 MLOAD DUP1 PUSH1 0x40 ADD PUSH1 0x40 MSTORE DUP1 PUSH1 0x14 DUP2 MSTORE PUSH1 0x20 ADD PUSH32 0x5761726E696E6720466F72205472616E73666572000000000000000000000000 DUP2 MSTORE POP SWAP1 PUSH2 0xDE5 JUMPI PUSH1 0x40 MLOAD PUSH32 0x8C379A000000000000000000000000000000000000000000000000000000000 DUP2 MSTORE PUSH1 0x4 ADD PUSH2 0xDDC SWAP2 SWAP1 PUSH2 0x1BE0 JUMP JUMPDEST PUSH1 0x40 MLOAD DUP1 SWAP2 SUB SWAP1 REVERT JUMPDEST POP DUP2 PUSH1 0x6 PUSH1 0x0 ADD PUSH1 0x0 DUP3 DUP3 SLOAD PUSH2 0xDFB SWAP2 SWAP1 PUSH2 0x20AB JUMP JUMPDEST SWAP3 POP POP DUP2 SWAP1 SSTORE POP TIMESTAMP PUSH1 0x6 PUSH1 0x1 ADD DUP2 SWAP1 SSTORE POP PUSH1 0x1 SWAP1 POP PUSH1 0x0 DUP1 PUSH1 0x0 PUSH2 0x100 EXP DUP2 SLOAD DUP2 PUSH1 0xFF MUL NOT AND SWAP1 DUP4 ISZERO ISZERO MUL OR SWAP1 SSTORE POP SWAP3 SWAP2 POP POP JUMP JUMPDEST PUSH1 0x0 DUP1 PUSH1 0x0 SWAP1 SLOAD SWAP1 PUSH2 0x100 EXP SWAP1 DIV PUSH1 0xFF AND ISZERO PUSH2 0xE81 JUMPI PUSH1 0x40 MLOAD PUSH32 0x8C379A000000000000000000000000000000000000000000000000000000000 DUP2 MSTORE PUSH1 0x4 ADD PUSH2 0xE78 SWAP1 PUSH2 0x1AC8 JUMP JUMPDEST PUSH1 0x40 MLOAD DUP1 SWAP2 SUB SWAP1 REVERT JUMPDEST PUSH1 0x1 PUSH1 0x0 DUP1 PUSH2 0x100 EXP DUP2 SLOAD DUP2 PUSH1 0xFF MUL NOT AND SWAP1 DUP4 ISZERO ISZERO MUL OR SWAP1 SSTORE POP PUSH1 0x4 PUSH1 0x0 SWAP1 SLOAD SWAP1 PUSH2 0x100 EXP SWAP1 DIV PUSH20 0xFFFFFFFFFFFFFFFFFFFFFFFFFFFFFFFFFFFFFFFF AND PUSH20 0xFFFFFFFFFFFFFFFFFFFFFFFFFFFFFFFFFFFFFFFF AND PUSH4 0x44570B3F CALLER DUP5 PUSH1 0x40 MLOAD DUP4 PUSH4 0xFFFFFFFF AND PUSH1 0xE0 SHL DUP2 MSTORE PUSH1 0x4 ADD PUSH2 0xEF8 SWAP3 SWAP2 SWAP1 PUSH2 0x20DF JUMP JUMPDEST PUSH1 0x20 PUSH1 0x40 MLOAD DUP1 DUP4 SUB DUP2 PUSH1 0x0 DUP8 GAS CALL ISZERO DUP1 ISZERO PUSH2 0xF17 JUMPI RETURNDATASIZE PUSH1 0x0 DUP1 RETURNDATACOPY RETURNDATASIZE PUSH1 0x0 REVERT JUMPDEST POP POP POP POP PUSH1 0x40 MLOAD RETURNDATASIZE PUSH1 0x1F NOT PUSH1 0x1F DUP3 ADD AND DUP3 ADD DUP1 PUSH1 0x40 MSTORE POP DUP2 ADD SWAP1 PUSH2 0xF3B SWAP2 SWAP1 PUSH2 0x1B34 JUMP JUMPDEST POP PUSH1 0x1 SWAP1 POP PUSH1 0x0 DUP1 PUSH1 0x0 PUSH2 0x100 EXP DUP2 SLOAD DUP2 PUSH1 0xFF MUL NOT AND SWAP1 DUP4 ISZERO ISZERO MUL OR SWAP1 SSTORE POP SWAP2 SWAP1 POP JUMP JUMPDEST PUSH1 0x0 DUP1 PUSH2 0xF6D CALLER DUP6 DUP6 PUSH2 0x10E6 JUMP JUMPDEST SWAP1 POP PUSH2 0xF78 DUP2 PUSH2 0x12BC JUMP JUMPDEST PUSH2 0xF83 CALLER DUP6 DUP4 PUSH2 0x1355 JUMP JUMPDEST PUSH1 0x40 MLOAD DUP1 PUSH1 0x40 ADD PUSH1 0x40 MSTORE DUP1 PUSH1 0x11 DUP2 MSTORE PUSH1 0x20 ADD PUSH32 0x5761726E696E6720466F72205661756C74000000000000000000000000000000 DUP2 MSTORE POP SWAP1 PUSH2 0xFFA JUMPI PUSH1 0x40 MLOAD PUSH32 0x8C379A000000000000000000000000000000000000000000000000000000000 DUP2 MSTORE PUSH1 0x4 ADD PUSH2 0xFF1 SWAP2 SWAP1 PUSH2 0x1BE0 JUMP JUMPDEST PUSH1 0x40 MLOAD DUP1 SWAP2 SUB SWAP1 REVERT JUMPDEST POP PUSH2 0x1005 PUSH1 0x1 PUSH2 0x148E JUMP JUMPDEST PUSH1 0x1 SWAP2 POP POP SWAP3 SWAP2 POP POP JUMP JUMPDEST PUSH1 0x60 PUSH1 0x0 PUSH1 0x1 PUSH2 0x101F DUP5 PUSH2 0x14A4 JUMP JUMPDEST ADD SWAP1 POP PUSH1 0x0 DUP2 PUSH8 0xFFFFFFFFFFFFFFFF DUP2 GT ISZERO PUSH2 0x103E JUMPI PUSH2 0x103D PUSH2 0x2108 JUMP JUMPDEST JUMPDEST PUSH1 0x40 MLOAD SWAP1 DUP1 DUP3 MSTORE DUP1 PUSH1 0x1F ADD PUSH1 0x1F NOT AND PUSH1 0x20 ADD DUP3 ADD PUSH1 0x40 MSTORE DUP1 ISZERO PUSH2 0x1070 JUMPI DUP2 PUSH1 0x20 ADD PUSH1 0x1 DUP3 MUL DUP1 CALLDATASIZE DUP4 CALLDATACOPY DUP1 DUP3 ADD SWAP2 POP POP SWAP1 POP JUMPDEST POP SWAP1 POP PUSH1 0x0 DUP3 PUSH1 0x20 ADD DUP3 ADD SWAP1 POP JUMPDEST PUSH1 0x1 ISZERO PUSH2 0x10D3 JUMPI DUP1 DUP1 PUSH1 0x1 SWAP1 SUB SWAP2 POP POP PUSH32 0x3031323334353637383961626364656600000000000000000000000000000000 PUSH1 0xA DUP7 MOD BYTE DUP2 MSTORE8 PUSH1 0xA DUP6 DUP2 PUSH2 0x10C7 JUMPI PUSH2 0x10C6 PUSH2 0x1CD6 JUMP JUMPDEST JUMPDEST DIV SWAP5 POP PUSH1 0x0 DUP6 SUB PUSH2 0x107E JUMPI JUMPDEST DUP2 SWAP4 POP POP POP POP SWAP2 SWAP1 POP JUMP JUMPDEST PUSH1 0x0 CALLER SWAP1 POP SWAP1 JUMP JUMPDEST PUSH1 0x0 DUP1 PUSH1 0x0 SWAP1 SLOAD SWAP1 PUSH2 0x100 EXP SWAP1 DIV PUSH1 0xFF AND ISZERO PUSH2 0x1137 JUMPI PUSH1 0x40 MLOAD PUSH32 0x8C379A000000000000000000000000000000000000000000000000000000000 DUP2 MSTORE PUSH1 0x4 ADD PUSH2 0x112E SWAP1 PUSH2 0x1AC8 JUMP JUMPDEST PUSH1 0x40 MLOAD DUP1 SWAP2 SUB SWAP1 REVERT JUMPDEST PUSH1 0x1 PUSH1 0x0 DUP1 PUSH2 0x100 EXP DUP2 SLOAD DUP2 PUSH1 0xFF MUL NOT AND SWAP1 DUP4 ISZERO ISZERO MUL OR SWAP1 SSTORE POP PUSH1 0x0 PUSH1 0x3 PUSH1 0x0 SWAP1 SLOAD SWAP1 PUSH2 0x100 EXP SWAP1 DIV PUSH20 0xFFFFFFFFFFFFFFFFFFFFFFFFFFFFFFFFFFFFFFFF AND PUSH20 0xFFFFFFFFFFFFFFFFFFFFFFFFFFFFFFFFFFFFFFFF AND PUSH4 0xF42C69D6 DUP7 DUP6 PUSH1 0x40 MLOAD DUP4 PUSH4 0xFFFFFFFF AND PUSH1 0xE0 SHL DUP2 MSTORE PUSH1 0x4 ADD PUSH2 0x11B0 SWAP3 SWAP2 SWAP1 PUSH2 0x2137 JUMP JUMPDEST PUSH1 0x20 PUSH1 0x40 MLOAD DUP1 DUP4 SUB DUP2 PUSH1 0x0 DUP8 GAS CALL ISZERO DUP1 ISZERO PUSH2 0x11CF JUMPI RETURNDATASIZE PUSH1 0x0 DUP1 RETURNDATACOPY RETURNDATASIZE PUSH1 0x0 REVERT JUMPDEST POP POP POP POP PUSH1 0x40 MLOAD RETURNDATASIZE PUSH1 0x1F NOT PUSH1 0x1F DUP3 ADD AND DUP3 ADD DUP1 PUSH1 0x40 MSTORE POP DUP2 ADD SWAP1 PUSH2 0x11F3 SWAP2 SWAP1 PUSH2 0x1C17 JUMP JUMPDEST SWAP1 POP PUSH1 0x5 PUSH1 0x0 DUP7 PUSH20 0xFFFFFFFFFFFFFFFFFFFFFFFFFFFFFFFFFFFFFFFF AND PUSH20 0xFFFFFFFFFFFFFFFFFFFFFFFFFFFFFFFFFFFFFFFF AND DUP2 MSTORE PUSH1 0x20 ADD SWAP1 DUP2 MSTORE PUSH1 0x20 ADD PUSH1 0x0 KECCAK256 PUSH1 0x0 ADD PUSH1 0x40 MLOAD DUP1 PUSH1 0x40 ADD PUSH1 0x40 MSTORE DUP1 DUP4 DUP2 MSTORE PUSH1 0x20 ADD TIMESTAMP DUP2 MSTORE POP SWAP1 DUP1 PUSH1 0x1 DUP2 SLOAD ADD DUP1 DUP3 SSTORE DUP1 SWAP2 POP POP PUSH1 0x1 SWAP1 SUB SWAP1 PUSH1 0x0 MSTORE PUSH1 0x20 PUSH1 0x0 KECCAK256 SWAP1 PUSH1 0x2 MUL ADD PUSH1 0x0 SWAP1 SWAP2 SWAP1 SWAP2 SWAP1 SWAP2 POP PUSH1 0x0 DUP3 ADD MLOAD DUP2 PUSH1 0x0 ADD SSTORE PUSH1 0x20 DUP3 ADD MLOAD DUP2 PUSH1 0x1 ADD SSTORE POP POP PUSH2 0x1296 CALLER DUP6 DUP4 PUSH2 0x1355 JUMP JUMPDEST POP DUP1 SWAP2 POP POP PUSH1 0x0 DUP1 PUSH1 0x0 PUSH2 0x100 EXP DUP2 SLOAD DUP2 PUSH1 0xFF MUL NOT AND SWAP1 DUP4 ISZERO ISZERO MUL OR SWAP1 SSTORE POP SWAP4 SWAP3 POP POP POP JUMP JUMPDEST PUSH2 0x1352 DUP2 PUSH1 0x40 MLOAD PUSH1 0x24 ADD PUSH2 0x12D0 SWAP2 SWAP1 PUSH2 0x18E6 JUMP JUMPDEST PUSH1 0x40 MLOAD PUSH1 0x20 DUP2 DUP4 SUB SUB DUP2 MSTORE SWAP1 PUSH1 0x40 MSTORE PUSH32 0xF82C50F100000000000000000000000000000000000000000000000000000000 PUSH28 0xFFFFFFFFFFFFFFFFFFFFFFFFFFFFFFFFFFFFFFFFFFFFFFFFFFFFFFFF NOT AND PUSH1 0x20 DUP3 ADD DUP1 MLOAD PUSH28 0xFFFFFFFFFFFFFFFFFFFFFFFFFFFFFFFFFFFFFFFFFFFFFFFFFFFFFFFF DUP4 DUP2 DUP4 AND OR DUP4 MSTORE POP POP POP POP PUSH2 0x15F7 JUMP JUMPDEST POP JUMP JUMPDEST PUSH1 0x0 DUP1 PUSH1 0xB PUSH1 0x0 DUP7 PUSH20 0xFFFFFFFFFFFFFFFFFFFFFFFFFFFFFFFFFFFFFFFF AND PUSH20 0xFFFFFFFFFFFFFFFFFFFFFFFFFFFFFFFFFFFFFFFF AND DUP2 MSTORE PUSH1 0x20 ADD SWAP1 DUP2 MSTORE PUSH1 0x20 ADD PUSH1 0x0 KECCAK256 PUSH1 0x0 ADD SWAP1 POP DUP1 PUSH1 0x40 MLOAD DUP1 PUSH1 0x60 ADD PUSH1 0x40 MSTORE DUP1 DUP7 DUP2 MSTORE PUSH1 0x20 ADD TIMESTAMP DUP2 MSTORE PUSH1 0x20 ADD DUP6 DUP2 MSTORE POP SWAP1 DUP1 PUSH1 0x1 DUP2 SLOAD ADD DUP1 DUP3 SSTORE DUP1 SWAP2 POP POP PUSH1 0x1 SWAP1 SUB SWAP1 PUSH1 0x0 MSTORE PUSH1 0x20 PUSH1 0x0 KECCAK256 SWAP1 PUSH1 0x3 MUL ADD PUSH1 0x0 SWAP1 SWAP2 SWAP1 SWAP2 SWAP1 SWAP2 POP PUSH1 0x0 DUP3 ADD MLOAD DUP2 PUSH1 0x0 ADD SSTORE PUSH1 0x20 DUP3 ADD MLOAD DUP2 PUSH1 0x1 ADD SSTORE PUSH1 0x40 DUP3 ADD MLOAD DUP2 PUSH1 0x2 ADD SSTORE POP POP PUSH1 0xB PUSH1 0x0 DUP7 PUSH20 0xFFFFFFFFFFFFFFFFFFFFFFFFFFFFFFFFFFFFFFFF AND PUSH20 0xFFFFFFFFFFFFFFFFFFFFFFFFFFFFFFFFFFFFFFFF AND DUP2 MSTORE PUSH1 0x20 ADD SWAP1 DUP2 MSTORE PUSH1 0x20 ADD PUSH1 0x0 KECCAK256 PUSH1 0x1 ADD DUP4 SWAP1 DUP1 PUSH1 0x1 DUP2 SLOAD ADD DUP1 DUP3 SSTORE DUP1 SWAP2 POP POP PUSH1 0x1 SWAP1 SUB SWAP1 PUSH1 0x0 MSTORE PUSH1 0x20 PUSH1 0x0 KECCAK256 ADD PUSH1 0x0 SWAP1 SWAP2 SWAP1 SWAP2 SWAP1 SWAP2 POP SSTORE DUP4 PUSH1 0xA PUSH1 0x0 DUP6 DUP2 MSTORE PUSH1 0x20 ADD SWAP1 DUP2 MSTORE PUSH1 0x20 ADD PUSH1 0x0 KECCAK256 DUP2 SWAP1 SSTORE POP PUSH1 0x1 SWAP2 POP POP SWAP4 SWAP3 POP POP POP JUMP JUMPDEST PUSH1 0x1 DUP2 PUSH1 0x0 ADD PUSH1 0x0 DUP3 DUP3 SLOAD ADD SWAP3 POP POP DUP2 SWAP1 SSTORE POP POP JUMP JUMPDEST PUSH1 0x0 DUP1 PUSH1 0x0 SWAP1 POP PUSH27 0x184F03E93FF9F4DAA797ED6E38ED64BF6A1F010000000000000000 DUP4 LT PUSH2 0x1502 JUMPI PUSH27 0x184F03E93FF9F4DAA797ED6E38ED64BF6A1F010000000000000000 DUP4 DUP2 PUSH2 0x14F8 JUMPI PUSH2 0x14F7 PUSH2 0x1CD6 JUMP JUMPDEST JUMPDEST DIV SWAP3 POP PUSH1 0x40 DUP2 ADD SWAP1 POP JUMPDEST PUSH14 0x4EE2D6D415B85ACEF8100000000 DUP4 LT PUSH2 0x153F JUMPI PUSH14 0x4EE2D6D415B85ACEF8100000000 DUP4 DUP2 PUSH2 0x1535 JUMPI PUSH2 0x1534 PUSH2 0x1CD6 JUMP JUMPDEST JUMPDEST DIV SWAP3 POP PUSH1 0x20 DUP2 ADD SWAP1 POP JUMPDEST PUSH7 0x2386F26FC10000 DUP4 LT PUSH2 0x156E JUMPI PUSH7 0x2386F26FC10000 DUP4 DUP2 PUSH2 0x1564 JUMPI PUSH2 0x1563 PUSH2 0x1CD6 JUMP JUMPDEST JUMPDEST DIV SWAP3 POP PUSH1 0x10 DUP2 ADD SWAP1 POP JUMPDEST PUSH4 0x5F5E100 DUP4 LT PUSH2 0x1597 JUMPI PUSH4 0x5F5E100 DUP4 DUP2 PUSH2 0x158D JUMPI PUSH2 0x158C PUSH2 0x1CD6 JUMP JUMPDEST JUMPDEST DIV SWAP3 POP PUSH1 0x8 DUP2 ADD SWAP1 POP JUMPDEST PUSH2 0x2710 DUP4 LT PUSH2 0x15BC JUMPI PUSH2 0x2710 DUP4 DUP2 PUSH2 0x15B2 JUMPI PUSH2 0x15B1 PUSH2 0x1CD6 JUMP JUMPDEST JUMPDEST DIV SWAP3 POP PUSH1 0x4 DUP2 ADD SWAP1 POP JUMPDEST PUSH1 0x64 DUP4 LT PUSH2 0x15DF JUMPI PUSH1 0x64 DUP4 DUP2 PUSH2 0x15D5 JUMPI PUSH2 0x15D4 PUSH2 0x1CD6 JUMP JUMPDEST JUMPDEST DIV SWAP3 POP PUSH1 0x2 DUP2 ADD SWAP1 POP JUMPDEST PUSH1 0xA DUP4 LT PUSH2 0x15EE JUMPI PUSH1 0x1 DUP2 ADD SWAP1 POP JUMPDEST DUP1 SWAP2 POP POP SWAP2 SWAP1 POP JUMP JUMPDEST PUSH1 0x0 PUSH11 0x636F6E736F6C652E6C6F67 SWAP1 POP PUSH1 0x0 DUP1 DUP4 MLOAD PUSH1 0x20 DUP6 ADD DUP5 GAS STATICCALL POP POP POP JUMP JUMPDEST PUSH1 0x0 DUP2 SWAP1 POP SWAP2 SWAP1 POP JUMP JUMPDEST PUSH2 0x162B DUP2 PUSH2 0x1618 JUMP JUMPDEST DUP3 MSTORE POP POP JUMP JUMPDEST PUSH1 0x0 PUSH1 0x40 DUP3 ADD SWAP1 POP PUSH2 0x1646 PUSH1 0x0 DUP4 ADD DUP6 PUSH2 0x1622 JUMP JUMPDEST PUSH2 0x1653 PUSH1 0x20 DUP4 ADD DUP5 PUSH2 0x1622 JUMP JUMPDEST SWAP4 SWAP3 POP POP POP JUMP JUMPDEST PUSH1 0x0 PUSH20 0xFFFFFFFFFFFFFFFFFFFFFFFFFFFFFFFFFFFFFFFF DUP3 AND SWAP1 POP SWAP2 SWAP1 POP JUMP JUMPDEST PUSH1 0x0 DUP2 SWAP1 POP SWAP2 SWAP1 POP JUMP JUMPDEST PUSH1 0x0 PUSH2 0x169F PUSH2 0x169A PUSH2 0x1695 DUP5 PUSH2 0x165A JUMP JUMPDEST PUSH2 0x167A JUMP JUMPDEST PUSH2 0x165A JUMP JUMPDEST SWAP1 POP SWAP2 SWAP1 POP JUMP JUMPDEST PUSH1 0x0 PUSH2 0x16B1 DUP3 PUSH2 0x1684 JUMP JUMPDEST SWAP1 POP SWAP2 SWAP1 POP JUMP JUMPDEST PUSH1 0x0 PUSH2 0x16C3 DUP3 PUSH2 0x16A6 JUMP JUMPDEST SWAP1 POP SWAP2 SWAP1 POP JUMP JUMPDEST PUSH2 0x16D3 DUP2 PUSH2 0x16B8 JUMP JUMPDEST DUP3 MSTORE POP POP JUMP JUMPDEST PUSH1 0x0 PUSH1 0x20 DUP3 ADD SWAP1 POP PUSH2 0x16EE PUSH1 0x0 DUP4 ADD DUP5 PUSH2 0x16CA JUMP JUMPDEST SWAP3 SWAP2 POP POP JUMP JUMPDEST PUSH1 0x0 PUSH2 0x16FF DUP3 PUSH2 0x16A6 JUMP JUMPDEST SWAP1 POP SWAP2 SWAP1 POP JUMP JUMPDEST PUSH2 0x170F DUP2 PUSH2 0x16F4 JUMP JUMPDEST DUP3 MSTORE POP POP JUMP JUMPDEST PUSH1 0x0 PUSH1 0x20 DUP3 ADD SWAP1 POP PUSH2 0x172A PUSH1 0x0 DUP4 ADD DUP5 PUSH2 0x1706 JUMP JUMPDEST SWAP3 SWAP2 POP POP JUMP JUMPDEST PUSH1 0x0 DUP2 MLOAD SWAP1 POP SWAP2 SWAP1 POP JUMP JUMPDEST PUSH1 0x0 DUP3 DUP3 MSTORE PUSH1 0x20 DUP3 ADD SWAP1 POP SWAP3 SWAP2 POP POP JUMP JUMPDEST PUSH1 0x0 DUP2 SWAP1 POP PUSH1 0x20 DUP3 ADD SWAP1 POP SWAP2 SWAP1 POP JUMP JUMPDEST PUSH2 0x1765 DUP2 PUSH2 0x1618 JUMP JUMPDEST DUP3 MSTORE POP POP JUMP JUMPDEST PUSH1 0x40 DUP3 ADD PUSH1 0x0 DUP3 ADD MLOAD PUSH2 0x1781 PUSH1 0x0 DUP6 ADD DUP3 PUSH2 0x175C JUMP JUMPDEST POP PUSH1 0x20 DUP3 ADD MLOAD PUSH2 0x1794 PUSH1 0x20 DUP6 ADD DUP3 PUSH2 0x175C JUMP JUMPDEST POP POP POP POP JUMP JUMPDEST PUSH1 0x0 PUSH2 0x17A6 DUP4 DUP4 PUSH2 0x176B JUMP JUMPDEST PUSH1 0x40 DUP4 ADD SWAP1 POP SWAP3 SWAP2 POP POP JUMP JUMPDEST PUSH1 0x0 PUSH1 0x20 DUP3 ADD SWAP1 POP SWAP2 SWAP1 POP JUMP JUMPDEST PUSH1 0x0 PUSH2 0x17CA DUP3 PUSH2 0x1730 JUMP JUMPDEST PUSH2 0x17D4 DUP2 DUP6 PUSH2 0x173B JUMP JUMPDEST SWAP4 POP PUSH2 0x17DF DUP4 PUSH2 0x174C JUMP JUMPDEST DUP1 PUSH1 0x0 JUMPDEST DUP4 DUP2 LT ISZERO PUSH2 0x1810 JUMPI DUP2 MLOAD PUSH2 0x17F7 DUP9 DUP3 PUSH2 0x179A JUMP JUMPDEST SWAP8 POP PUSH2 0x1802 DUP4 PUSH2 0x17B2 JUMP JUMPDEST SWAP3 POP POP PUSH1 0x1 DUP2 ADD SWAP1 POP PUSH2 0x17E3 JUMP JUMPDEST POP DUP6 SWAP4 POP POP POP POP SWAP3 SWAP2 POP POP JUMP JUMPDEST PUSH1 0x0 PUSH1 0x20 DUP3 ADD SWAP1 POP DUP2 DUP2 SUB PUSH1 0x0 DUP4 ADD MSTORE PUSH2 0x1837 DUP2 DUP5 PUSH2 0x17BF JUMP JUMPDEST SWAP1 POP SWAP3 SWAP2 POP POP JUMP JUMPDEST PUSH1 0x0 DUP1 REVERT JUMPDEST PUSH2 0x184D DUP2 PUSH2 0x1618 JUMP JUMPDEST DUP2 EQ PUSH2 0x1858 JUMPI PUSH1 0x0 DUP1 REVERT JUMPDEST POP JUMP JUMPDEST PUSH1 0x0 DUP2 CALLDATALOAD SWAP1 POP PUSH2 0x186A DUP2 PUSH2 0x1844 JUMP JUMPDEST SWAP3 SWAP2 POP POP JUMP JUMPDEST PUSH1 0x0 DUP1 PUSH1 0x40 DUP4 DUP6 SUB SLT ISZERO PUSH2 0x1887 JUMPI PUSH2 0x1886 PUSH2 0x183F JUMP JUMPDEST JUMPDEST PUSH1 0x0 PUSH2 0x1895 DUP6 DUP3 DUP7 ADD PUSH2 0x185B JUMP JUMPDEST SWAP3 POP POP PUSH1 0x20 PUSH2 0x18A6 DUP6 DUP3 DUP7 ADD PUSH2 0x185B JUMP JUMPDEST SWAP2 POP POP SWAP3 POP SWAP3 SWAP1 POP JUMP JUMPDEST PUSH1 0x0 DUP2 ISZERO ISZERO SWAP1 POP SWAP2 SWAP1 POP JUMP JUMPDEST PUSH2 0x18C5 DUP2 PUSH2 0x18B0 JUMP JUMPDEST DUP3 MSTORE POP POP JUMP JUMPDEST PUSH1 0x0 PUSH1 0x20 DUP3 ADD SWAP1 POP PUSH2 0x18E0 PUSH1 0x0 DUP4 ADD DUP5 PUSH2 0x18BC JUMP JUMPDEST SWAP3 SWAP2 POP POP JUMP JUMPDEST PUSH1 0x0 PUSH1 0x20 DUP3 ADD SWAP1 POP PUSH2 0x18FB PUSH1 0x0 DUP4 ADD DUP5 PUSH2 0x1622 JUMP JUMPDEST SWAP3 SWAP2 POP POP JUMP JUMPDEST PUSH1 0x0 PUSH2 0x190C DUP3 PUSH2 0x165A JUMP JUMPDEST SWAP1 POP SWAP2 SWAP1 POP JUMP JUMPDEST PUSH2 0x191C DUP2 PUSH2 0x1901 JUMP JUMPDEST DUP3 MSTORE POP POP JUMP JUMPDEST PUSH1 0x0 PUSH1 0x20 DUP3 ADD SWAP1 POP PUSH2 0x1937 PUSH1 0x0 DUP4 ADD DUP5 PUSH2 0x1913 JUMP JUMPDEST SWAP3 SWAP2 POP POP JUMP JUMPDEST PUSH2 0x1946 DUP2 PUSH2 0x1901 JUMP JUMPDEST DUP2 EQ PUSH2 0x1951 JUMPI PUSH1 0x0 DUP1 REVERT JUMPDEST POP JUMP JUMPDEST PUSH1 0x0 DUP2 CALLDATALOAD SWAP1 POP PUSH2 0x1963 DUP2 PUSH2 0x193D JUMP JUMPDEST SWAP3 SWAP2 POP POP JUMP JUMPDEST PUSH1 0x0 PUSH1 0x20 DUP3 DUP5 SUB SLT ISZERO PUSH2 0x197F JUMPI PUSH2 0x197E PUSH2 0x183F JUMP JUMPDEST JUMPDEST PUSH1 0x0 PUSH2 0x198D DUP5 DUP3 DUP6 ADD PUSH2 0x1954 JUMP JUMPDEST SWAP2 POP POP SWAP3 SWAP2 POP POP JUMP JUMPDEST PUSH1 0x0 PUSH1 0x20 DUP3 DUP5 SUB SLT ISZERO PUSH2 0x19AC JUMPI PUSH2 0x19AB PUSH2 0x183F JUMP JUMPDEST JUMPDEST PUSH1 0x0 PUSH2 0x19BA DUP5 DUP3 DUP6 ADD PUSH2 0x185B JUMP JUMPDEST SWAP2 POP POP SWAP3 SWAP2 POP POP JUMP JUMPDEST PUSH1 0x0 PUSH2 0x19CE DUP3 PUSH2 0x16A6 JUMP JUMPDEST SWAP1 POP SWAP2 SWAP1 POP JUMP JUMPDEST PUSH2 0x19DE DUP2 PUSH2 0x19C3 JUMP JUMPDEST DUP3 MSTORE POP POP JUMP JUMPDEST PUSH1 0x0 PUSH1 0x20 DUP3 ADD SWAP1 POP PUSH2 0x19F9 PUSH1 0x0 DUP4 ADD DUP5 PUSH2 0x19D5 JUMP JUMPDEST SWAP3 SWAP2 POP POP JUMP JUMPDEST PUSH2 0x1A08 DUP2 PUSH2 0x18B0 JUMP JUMPDEST DUP2 EQ PUSH2 0x1A13 JUMPI PUSH1 0x0 DUP1 REVERT JUMPDEST POP JUMP JUMPDEST PUSH1 0x0 DUP2 CALLDATALOAD SWAP1 POP PUSH2 0x1A25 DUP2 PUSH2 0x19FF JUMP JUMPDEST SWAP3 SWAP2 POP POP JUMP JUMPDEST PUSH1 0x0 DUP1 PUSH1 0x40 DUP4 DUP6 SUB SLT ISZERO PUSH2 0x1A42 JUMPI PUSH2 0x1A41 PUSH2 0x183F JUMP JUMPDEST JUMPDEST PUSH1 0x0 PUSH2 0x1A50 DUP6 DUP3 DUP7 ADD PUSH2 0x185B JUMP JUMPDEST SWAP3 POP POP PUSH1 0x20 PUSH2 0x1A61 DUP6 DUP3 DUP7 ADD PUSH2 0x1A16 JUMP JUMPDEST SWAP2 POP POP SWAP3 POP SWAP3 SWAP1 POP JUMP JUMPDEST PUSH1 0x0 DUP3 DUP3 MSTORE PUSH1 0x20 DUP3 ADD SWAP1 POP SWAP3 SWAP2 POP POP JUMP JUMPDEST PUSH32 0x4E6F205265456E7472616E637900000000000000000000000000000000000000 PUSH1 0x0 DUP3 ADD MSTORE POP JUMP JUMPDEST PUSH1 0x0 PUSH2 0x1AB2 PUSH1 0xD DUP4 PUSH2 0x1A6B JUMP JUMPDEST SWAP2 POP PUSH2 0x1ABD DUP3 PUSH2 0x1A7C JUMP JUMPDEST PUSH1 0x20 DUP3 ADD SWAP1 POP SWAP2 SWAP1 POP JUMP JUMPDEST PUSH1 0x0 PUSH1 0x20 DUP3 ADD SWAP1 POP DUP2 DUP2 SUB PUSH1 0x0 DUP4 ADD MSTORE PUSH2 0x1AE1 DUP2 PUSH2 0x1AA5 JUMP JUMPDEST SWAP1 POP SWAP2 SWAP1 POP JUMP JUMPDEST PUSH1 0x0 PUSH1 0x60 DUP3 ADD SWAP1 POP PUSH2 0x1AFD PUSH1 0x0 DUP4 ADD DUP7 PUSH2 0x1622 JUMP JUMPDEST PUSH2 0x1B0A PUSH1 0x20 DUP4 ADD DUP6 PUSH2 0x1913 JUMP JUMPDEST PUSH2 0x1B17 PUSH1 0x40 DUP4 ADD DUP5 PUSH2 0x1622 JUMP JUMPDEST SWAP5 SWAP4 POP POP POP POP JUMP JUMPDEST PUSH1 0x0 DUP2 MLOAD SWAP1 POP PUSH2 0x1B2E DUP2 PUSH2 0x19FF JUMP JUMPDEST SWAP3 SWAP2 POP POP JUMP JUMPDEST PUSH1 0x0 PUSH1 0x20 DUP3 DUP5 SUB SLT ISZERO PUSH2 0x1B4A JUMPI PUSH2 0x1B49 PUSH2 0x183F JUMP JUMPDEST JUMPDEST PUSH1 0x0 PUSH2 0x1B58 DUP5 DUP3 DUP6 ADD PUSH2 0x1B1F JUMP JUMPDEST SWAP2 POP POP SWAP3 SWAP2 POP POP JUMP JUMPDEST PUSH1 0x0 DUP2 MLOAD SWAP1 POP SWAP2 SWAP1 POP JUMP JUMPDEST PUSH1 0x0 JUMPDEST DUP4 DUP2 LT ISZERO PUSH2 0x1B8A JUMPI DUP1 DUP3 ADD MLOAD DUP2 DUP5 ADD MSTORE PUSH1 0x20 DUP2 ADD SWAP1 POP PUSH2 0x1B6F JUMP JUMPDEST PUSH1 0x0 DUP5 DUP5 ADD MSTORE POP POP POP POP JUMP JUMPDEST PUSH1 0x0 PUSH1 0x1F NOT PUSH1 0x1F DUP4 ADD AND SWAP1 POP SWAP2 SWAP1 POP JUMP JUMPDEST PUSH1 0x0 PUSH2 0x1BB2 DUP3 PUSH2 0x1B61 JUMP JUMPDEST PUSH2 0x1BBC DUP2 DUP6 PUSH2 0x1A6B JUMP JUMPDEST SWAP4 POP PUSH2 0x1BCC DUP2 DUP6 PUSH1 0x20 DUP7 ADD PUSH2 0x1B6C JUMP JUMPDEST PUSH2 0x1BD5 DUP2 PUSH2 0x1B96 JUMP JUMPDEST DUP5 ADD SWAP2 POP POP SWAP3 SWAP2 POP POP JUMP JUMPDEST PUSH1 0x0 PUSH1 0x20 DUP3 ADD SWAP1 POP DUP2 DUP2 SUB PUSH1 0x0 DUP4 ADD MSTORE PUSH2 0x1BFA DUP2 DUP5 PUSH2 0x1BA7 JUMP JUMPDEST SWAP1 POP SWAP3 SWAP2 POP POP JUMP JUMPDEST PUSH1 0x0 DUP2 MLOAD SWAP1 POP PUSH2 0x1C11 DUP2 PUSH2 0x1844 JUMP JUMPDEST SWAP3 SWAP2 POP POP JUMP JUMPDEST PUSH1 0x0 PUSH1 0x20 DUP3 DUP5 SUB SLT ISZERO PUSH2 0x1C2D JUMPI PUSH2 0x1C2C PUSH2 0x183F JUMP JUMPDEST JUMPDEST PUSH1 0x0 PUSH2 0x1C3B DUP5 DUP3 DUP6 ADD PUSH2 0x1C02 JUMP JUMPDEST SWAP2 POP POP SWAP3 SWAP2 POP POP JUMP JUMPDEST PUSH32 0x4F776E61626C653A206E6577206F776E657220697320746865207A65726F2061 PUSH1 0x0 DUP3 ADD MSTORE PUSH32 0x6464726573730000000000000000000000000000000000000000000000000000 PUSH1 0x20 DUP3 ADD MSTORE POP JUMP JUMPDEST PUSH1 0x0 PUSH2 0x1CA0 PUSH1 0x26 DUP4 PUSH2 0x1A6B JUMP JUMPDEST SWAP2 POP PUSH2 0x1CAB DUP3 PUSH2 0x1C44 JUMP JUMPDEST PUSH1 0x40 DUP3 ADD SWAP1 POP SWAP2 SWAP1 POP JUMP JUMPDEST PUSH1 0x0 PUSH1 0x20 DUP3 ADD SWAP1 POP DUP2 DUP2 SUB PUSH1 0x0 DUP4 ADD MSTORE PUSH2 0x1CCF DUP2 PUSH2 0x1C93 JUMP JUMPDEST SWAP1 POP SWAP2 SWAP1 POP JUMP JUMPDEST PUSH32 0x4E487B7100000000000000000000000000000000000000000000000000000000 PUSH1 0x0 MSTORE PUSH1 0x12 PUSH1 0x4 MSTORE PUSH1 0x24 PUSH1 0x0 REVERT JUMPDEST PUSH32 0x4E487B7100000000000000000000000000000000000000000000000000000000 PUSH1 0x0 MSTORE PUSH1 0x11 PUSH1 0x4 MSTORE PUSH1 0x24 PUSH1 0x0 REVERT JUMPDEST PUSH1 0x0 PUSH2 0x1D3F DUP3 PUSH2 0x1618 JUMP JUMPDEST SWAP2 POP PUSH2 0x1D4A DUP4 PUSH2 0x1618 JUMP JUMPDEST SWAP3 POP DUP3 PUSH2 0x1D5A JUMPI PUSH2 0x1D59 PUSH2 0x1CD6 JUMP JUMPDEST JUMPDEST DUP3 DUP3 DIV SWAP1 POP SWAP3 SWAP2 POP POP JUMP JUMPDEST PUSH1 0x0 PUSH2 0x1D70 DUP3 PUSH2 0x1618 JUMP JUMPDEST SWAP2 POP PUSH2 0x1D7B DUP4 PUSH2 0x1618 JUMP JUMPDEST SWAP3 POP DUP3 DUP3 MUL PUSH2 0x1D89 DUP2 PUSH2 0x1618 JUMP JUMPDEST SWAP2 POP DUP3 DUP3 DIV DUP5 EQ DUP4 ISZERO OR PUSH2 0x1DA0 JUMPI PUSH2 0x1D9F PUSH2 0x1D05 JUMP JUMPDEST JUMPDEST POP SWAP3 SWAP2 POP POP JUMP JUMPDEST PUSH1 0x0 DUP2 SWAP1 POP SWAP3 SWAP2 POP POP JUMP JUMPDEST PUSH32 0x4D617267696E203A200000000000000000000000000000000000000000000000 PUSH1 0x0 DUP3 ADD MSTORE POP JUMP JUMPDEST PUSH1 0x0 PUSH2 0x1DE8 PUSH1 0x9 DUP4 PUSH2 0x1DA7 JUMP JUMPDEST SWAP2 POP PUSH2 0x1DF3 DUP3 PUSH2 0x1DB2 JUMP JUMPDEST PUSH1 0x9 DUP3 ADD SWAP1 POP SWAP2 SWAP1 POP JUMP JUMPDEST PUSH1 0x0 PUSH2 0x1E09 DUP3 PUSH2 0x1B61 JUMP JUMPDEST PUSH2 0x1E13 DUP2 DUP6 PUSH2 0x1DA7 JUMP JUMPDEST SWAP4 POP PUSH2 0x1E23 DUP2 DUP6 PUSH1 0x20 DUP7 ADD PUSH2 0x1B6C JUMP JUMPDEST DUP1 DUP5 ADD SWAP2 POP POP SWAP3 SWAP2 POP POP JUMP JUMPDEST PUSH32 0x4554480000000000000000000000000000000000000000000000000000000000 PUSH1 0x0 DUP3 ADD MSTORE POP JUMP JUMPDEST PUSH1 0x0 PUSH2 0x1E65 PUSH1 0x3 DUP4 PUSH2 0x1DA7 JUMP JUMPDEST SWAP2 POP PUSH2 0x1E70 DUP3 PUSH2 0x1E2F JUMP JUMPDEST PUSH1 0x3 DUP3 ADD SWAP1 POP SWAP2 SWAP1 POP JUMP JUMPDEST PUSH1 0x0 PUSH2 0x1E86 DUP3 PUSH2 0x1DDB JUMP JUMPDEST SWAP2 POP PUSH2 0x1E92 DUP3 DUP5 PUSH2 0x1DFE JUMP JUMPDEST SWAP2 POP PUSH2 0x1E9D DUP3 PUSH2 0x1E58 JUMP JUMPDEST SWAP2 POP DUP2 SWAP1 POP SWAP3 SWAP2 POP POP JUMP JUMPDEST PUSH32 0x5374616B696E672047756172616E746565204361726400000000000000000000 PUSH1 0x0 DUP3 ADD MSTORE POP JUMP JUMPDEST PUSH1 0x0 PUSH2 0x1EDE PUSH1 0x16 DUP4 PUSH2 0x1A6B JUMP JUMPDEST SWAP2 POP PUSH2 0x1EE9 DUP3 PUSH2 0x1EA8 JUMP JUMPDEST PUSH1 0x20 DUP3 ADD SWAP1 POP SWAP2 SWAP1 POP JUMP JUMPDEST PUSH32 0x68747470733A2F2F697066732E696F2F697066732F516D57456751736B426374 PUSH1 0x0 DUP3 ADD MSTORE PUSH32 0x514A55617245796376366378506E4D3357723461487A3672476F7132516D5476 PUSH1 0x20 DUP3 ADD MSTORE PUSH32 0x7755633F66696C656E616D653D51564577617272616E74792E706E6700000000 PUSH1 0x40 DUP3 ADD MSTORE POP JUMP JUMPDEST PUSH1 0x0 PUSH2 0x1F76 PUSH1 0x5C DUP4 PUSH2 0x1A6B JUMP JUMPDEST SWAP2 POP PUSH2 0x1F81 DUP3 PUSH2 0x1EF4 JUMP JUMPDEST PUSH1 0x60 DUP3 ADD SWAP1 POP SWAP2 SWAP1 POP JUMP JUMPDEST PUSH1 0x0 PUSH1 0x60 DUP3 ADD SWAP1 POP DUP2 DUP2 SUB PUSH1 0x0 DUP4 ADD MSTORE PUSH2 0x1FA5 DUP2 PUSH2 0x1ED1 JUMP JUMPDEST SWAP1 POP DUP2 DUP2 SUB PUSH1 0x20 DUP4 ADD MSTORE PUSH2 0x1FB9 DUP2 DUP5 PUSH2 0x1BA7 JUMP JUMPDEST SWAP1 POP DUP2 DUP2 SUB PUSH1 0x40 DUP4 ADD MSTORE PUSH2 0x1FCC DUP2 PUSH2 0x1F69 JUMP JUMPDEST SWAP1 POP SWAP3 SWAP2 POP POP JUMP JUMPDEST PUSH32 0x4F776E61626C653A2063616C6C6572206973206E6F7420746865206F776E6572 PUSH1 0x0 DUP3 ADD MSTORE POP JUMP JUMPDEST PUSH1 0x0 PUSH2 0x200A PUSH1 0x20 DUP4 PUSH2 0x1A6B JUMP JUMPDEST SWAP2 POP PUSH2 0x2015 DUP3 PUSH2 0x1FD4 JUMP JUMPDEST PUSH1 0x20 DUP3 ADD SWAP1 POP SWAP2 SWAP1 POP JUMP JUMPDEST PUSH1 0x0 PUSH1 0x20 DUP3 ADD SWAP1 POP DUP2 DUP2 SUB PUSH1 0x0 DUP4 ADD MSTORE PUSH2 0x2039 DUP2 PUSH2 0x1FFD JUMP JUMPDEST SWAP1 POP SWAP2 SWAP1 POP JUMP JUMPDEST PUSH1 0x0 PUSH2 0x204B DUP3 PUSH2 0x1618 JUMP JUMPDEST SWAP2 POP PUSH2 0x2056 DUP4 PUSH2 0x1618 JUMP JUMPDEST SWAP3 POP DUP3 DUP3 ADD SWAP1 POP DUP1 DUP3 GT ISZERO PUSH2 0x206E JUMPI PUSH2 0x206D PUSH2 0x1D05 JUMP JUMPDEST JUMPDEST SWAP3 SWAP2 POP POP JUMP JUMPDEST PUSH1 0x0 PUSH1 0x60 DUP3 ADD SWAP1 POP PUSH2 0x2089 PUSH1 0x0 DUP4 ADD DUP7 PUSH2 0x1913 JUMP JUMPDEST PUSH2 0x2096 PUSH1 0x20 DUP4 ADD DUP6 PUSH2 0x1913 JUMP JUMPDEST PUSH2 0x20A3 PUSH1 0x40 DUP4 ADD DUP5 PUSH2 0x1622 JUMP JUMPDEST SWAP5 SWAP4 POP POP POP POP JUMP JUMPDEST PUSH1 0x0 PUSH2 0x20B6 DUP3 PUSH2 0x1618 JUMP JUMPDEST SWAP2 POP PUSH2 0x20C1 DUP4 PUSH2 0x1618 JUMP JUMPDEST SWAP3 POP DUP3 DUP3 SUB SWAP1 POP DUP2 DUP2 GT ISZERO PUSH2 0x20D9 JUMPI PUSH2 0x20D8 PUSH2 0x1D05 JUMP JUMPDEST JUMPDEST SWAP3 SWAP2 POP POP JUMP JUMPDEST PUSH1 0x0 PUSH1 0x40 DUP3 ADD SWAP1 POP PUSH2 0x20F4 PUSH1 0x0 DUP4 ADD DUP6 PUSH2 0x1913 JUMP JUMPDEST PUSH2 0x2101 PUSH1 0x20 DUP4 ADD DUP5 PUSH2 0x1622 JUMP JUMPDEST SWAP4 SWAP3 POP POP POP JUMP JUMPDEST PUSH32 0x4E487B7100000000000000000000000000000000000000000000000000000000 PUSH1 0x0 MSTORE PUSH1 0x41 PUSH1 0x4 MSTORE PUSH1 0x24 PUSH1 0x0 REVERT JUMPDEST PUSH1 0x0 PUSH1 0x40 DUP3 ADD SWAP1 POP PUSH2 0x214C PUSH1 0x0 DUP4 ADD DUP6 PUSH2 0x1913 JUMP JUMPDEST PUSH2 0x2159 PUSH1 0x20 DUP4 ADD DUP5 PUSH2 0x18BC JUMP JUMPDEST SWAP4 SWAP3 POP POP POP JUMP INVALID LOG2 PUSH5 0x6970667358 0x22 SLT KECCAK256 PUSH6 0x3C952ED729F8 PUSH19 0x5A403B4D98CF88CC37D74D7BC470BC0619C841 SWAP7 MSTORE8 0x2B 0xB4 LOG3 PUSH5 0x736F6C6343 STOP ADDMOD SLT STOP CALLER "
		},
		"gasEstimates": {
			"creation": {
				"codeDepositCost": "1719600",
				"executionCost": "infinite",
				"totalCost": "infinite"
			},
			"external": {
				"QVEliquidityPool()": "infinite",
				"burnStakingGuarantee(uint256)": "infinite",
				"esQVEliquidityPool()": "infinite",
				"getInputedMarginCount()": "2509",
				"getNFTbalance_()": "infinite",
				"getNfts_()": "infinite",
				"owner()": "2617",
				"qveEscrow()": "infinite",
				"qvenft()": "infinite",
				"qvetoken()": "infinite",
				"receiveAsset(uint256,bool)": "29569",
				"renounceOwnership()": "30615",
				"shortenLockup(uint256,uint256)": "infinite",
				"transferOwnership(address)": "30916"
			},
			"internal": {
				"_addLiquidity(uint256)": "infinite",
				"_addUserMarginVault(address,uint256,uint256)": "infinite",
				"_botAddress()": "infinite",
				"_escrowQVE(uint256)": "infinite",
				"_issueGuaranteeNFT(address,uint256,bool)": "infinite",
				"_sendQVEFromLiquidity(address,uint256)": "infinite",
				"_subLiquidity(uint256)": "infinite",
				"stakeEth(uint256,bool)": "infinite"
			}
		},
		"methodIdentifiers": {
			"QVEliquidityPool()": "0e301d24",
			"burnStakingGuarantee(uint256)": "f366b27e",
			"esQVEliquidityPool()": "0691badf",
			"getInputedMarginCount()": "8866b937",
			"getNFTbalance_()": "9f62e796",
			"getNfts_()": "5ac66993",
			"owner()": "8da5cb5b",
			"qveEscrow()": "fdcdbae2",
			"qvenft()": "510b7f98",
			"qvetoken()": "2b1c4158",
			"receiveAsset(uint256,bool)": "fe35fb50",
			"renounceOwnership()": "715018a6",
			"shortenLockup(uint256,uint256)": "83ce6147",
			"transferOwnership(address)": "f2fde38b"
		}
	},
	"abi": [
		{
			"inputs": [
				{
					"internalType": "contract QVEtoken",
					"name": "_qveTokenAddress",
					"type": "address"
				},
				{
					"internalType": "contract QVEnft",
					"name": "_qvenft",
					"type": "address"
				},
				{
					"internalType": "contract QVEescrow",
					"name": "_qveEscrow",
					"type": "address"
				}
			],
			"stateMutability": "nonpayable",
			"type": "constructor"
		},
		{
			"anonymous": false,
			"inputs": [
				{
					"indexed": true,
					"internalType": "address",
					"name": "previousOwner",
					"type": "address"
				},
				{
					"indexed": true,
					"internalType": "address",
					"name": "newOwner",
					"type": "address"
				}
			],
			"name": "OwnershipTransferred",
			"type": "event"
		},
		{
			"inputs": [],
			"name": "QVEliquidityPool",
			"outputs": [
				{
					"internalType": "uint256",
					"name": "balance",
					"type": "uint256"
				},
				{
					"internalType": "uint256",
					"name": "at",
					"type": "uint256"
				}
			],
			"stateMutability": "view",
			"type": "function"
		},
		{
			"inputs": [
				{
					"internalType": "uint256",
					"name": "tokenId",
					"type": "uint256"
				}
			],
			"name": "burnStakingGuarantee",
			"outputs": [
				{
					"internalType": "bool",
					"name": "",
					"type": "bool"
				}
			],
			"stateMutability": "nonpayable",
			"type": "function"
		},
		{
			"inputs": [],
			"name": "esQVEliquidityPool",
			"outputs": [
				{
					"internalType": "uint256",
					"name": "balance",
					"type": "uint256"
				},
				{
					"internalType": "uint256",
					"name": "at",
					"type": "uint256"
				}
			],
			"stateMutability": "view",
			"type": "function"
		},
		{
			"inputs": [],
			"name": "getInputedMarginCount",
			"outputs": [
				{
					"internalType": "uint256",
					"name": "",
					"type": "uint256"
				}
			],
			"stateMutability": "view",
			"type": "function"
		},
		{
			"inputs": [],
			"name": "getNFTbalance_",
			"outputs": [
				{
					"internalType": "uint256",
					"name": "",
					"type": "uint256"
				}
			],
			"stateMutability": "view",
			"type": "function"
		},
		{
			"inputs": [],
			"name": "getNfts_",
			"outputs": [
				{
					"components": [
						{
							"internalType": "uint256",
							"name": "tokenId",
							"type": "uint256"
						},
						{
							"internalType": "uint256",
							"name": "at",
							"type": "uint256"
						}
					],
					"internalType": "struct QVEDefi.NFTFragment[]",
					"name": "",
					"type": "tuple[]"
				}
			],
			"stateMutability": "view",
			"type": "function"
		},
		{
			"inputs": [],
			"name": "owner",
			"outputs": [
				{
					"internalType": "address",
					"name": "",
					"type": "address"
				}
			],
			"stateMutability": "view",
			"type": "function"
		},
		{
			"inputs": [],
			"name": "qveEscrow",
			"outputs": [
				{
					"internalType": "contract QVEescrow",
					"name": "",
					"type": "address"
				}
			],
			"stateMutability": "view",
			"type": "function"
		},
		{
			"inputs": [],
			"name": "qvenft",
			"outputs": [
				{
					"internalType": "contract QVEnft",
					"name": "",
					"type": "address"
				}
			],
			"stateMutability": "view",
			"type": "function"
		},
		{
			"inputs": [],
			"name": "qvetoken",
			"outputs": [
				{
					"internalType": "contract QVEtoken",
					"name": "",
					"type": "address"
				}
			],
			"stateMutability": "view",
			"type": "function"
		},
		{
			"inputs": [
				{
					"internalType": "uint256",
					"name": "assetAmount",
					"type": "uint256"
				},
				{
					"internalType": "bool",
					"name": "lockup",
					"type": "bool"
				}
			],
			"name": "receiveAsset",
			"outputs": [
				{
					"internalType": "bool",
					"name": "",
					"type": "bool"
				}
			],
			"stateMutability": "payable",
			"type": "function"
		},
		{
			"inputs": [],
			"name": "renounceOwnership",
			"outputs": [],
			"stateMutability": "nonpayable",
			"type": "function"
		},
		{
			"inputs": [
				{
					"internalType": "uint256",
					"name": "qveAmount",
					"type": "uint256"
				},
				{
					"internalType": "uint256",
					"name": "tokenId",
					"type": "uint256"
				}
			],
			"name": "shortenLockup",
			"outputs": [
				{
					"internalType": "bool",
					"name": "",
					"type": "bool"
				}
			],
			"stateMutability": "nonpayable",
			"type": "function"
		},
		{
			"inputs": [
				{
					"internalType": "address",
					"name": "newOwner",
					"type": "address"
				}
			],
			"name": "transferOwnership",
			"outputs": [],
			"stateMutability": "nonpayable",
			"type": "function"
		}
	]
}