{
	"data": {
		"bytecode": {
			"linkReferences": {},
			"object": "608060405234801562000010575f80fd5b506040516200392138038062003921833981810160405281019062000036919062000190565b6040518060400160405280600b81526020017f5156455f7374616b696e670000000000000000000000000000000000000000008152506040518060400160405280600d81526020017f5156455f47554152414e54454500000000000000000000000000000000000000815250815f9081620000b2919062000424565b508060019081620000c4919062000424565b5050508060075f6101000a81548173ffffffffffffffffffffffffffffffffffffffff021916908373ffffffffffffffffffffffffffffffffffffffff16021790555062ed4e006009819055505062000508565b5f80fd5b5f73ffffffffffffffffffffffffffffffffffffffff82169050919050565b5f62000147826200011c565b9050919050565b5f6200015a826200013b565b9050919050565b6200016c816200014e565b811462000177575f80fd5b50565b5f815190506200018a8162000161565b92915050565b5f60208284031215620001a857620001a762000118565b5b5f620001b7848285016200017a565b91505092915050565b5f81519050919050565b7f4e487b71000000000000000000000000000000000000000000000000000000005f52604160045260245ffd5b7f4e487b71000000000000000000000000000000000000000000000000000000005f52602260045260245ffd5b5f60028204905060018216806200023c57607f821691505b602082108103620002525762000251620001f7565b5b50919050565b5f819050815f5260205f209050919050565b5f6020601f8301049050919050565b5f82821b905092915050565b5f60088302620002b67fffffffffffffffffffffffffffffffffffffffffffffffffffffffffffffffff8262000279565b620002c2868362000279565b95508019841693508086168417925050509392505050565b5f819050919050565b5f819050919050565b5f6200030c620003066200030084620002da565b620002e3565b620002da565b9050919050565b5f819050919050565b6200032783620002ec565b6200033f620003368262000313565b84845462000285565b825550505050565b5f90565b6200035562000347565b620003628184846200031c565b505050565b5b8181101562000389576200037d5f826200034b565b60018101905062000368565b5050565b601f821115620003d857620003a28162000258565b620003ad846200026a565b81016020851015620003bd578190505b620003d5620003cc856200026a565b83018262000367565b50505b505050565b5f82821c905092915050565b5f620003fa5f1984600802620003dd565b1980831691505092915050565b5f620004148383620003e9565b9150826002028217905092915050565b6200042f82620001c0565b67ffffffffffffffff8111156200044b576200044a620001ca565b5b62000457825462000224565b620004648282856200038d565b5f60209050601f8311600181146200049a575f841562000485578287015190505b62000491858262000407565b86555062000500565b601f198416620004aa8662000258565b5f5b82811015620004d357848901518255600182019150602085019450602081019050620004ac565b86831015620004f35784890151620004ef601f891682620003e9565b8355505b6001600288020188555050505b505050505050565b61340b80620005165f395ff3fe608060405234801561000f575f80fd5b506004361061012a575f3560e01c806370a08231116100ab578063b88d4fde1161006f578063b88d4fde14610377578063c87b56dd14610393578063e149f036146103c3578063e985e9c5146103f3578063f42c69d6146104235761012a565b806370a08231146102ac5780637d4cd847146102dc57806395d89b411461030d578063a22cb4651461032b578063b2c3a717146103475761012a565b806323b872dd116100f257806323b872dd146101f85780632890e0d71461021457806342842e0e1461024457806342966c68146102605780636352211e1461027c5761012a565b806301ffc9a71461012e57806306fdde031461015e578063081812fc1461017c5780630890d80c146101ac578063095ea7b3146101dc575b5f80fd5b61014860048036038101906101439190611f61565b610453565b6040516101559190611fa6565b60405180910390f35b610166610534565b6040516101739190612049565b60405180910390f35b6101966004803603810190610191919061209c565b6105c3565b6040516101a39190612106565b60405180910390f35b6101c660048036038101906101c1919061224b565b610605565b6040516101d39190611fa6565b60405180910390f35b6101f660048036038101906101f19190612319565b610641565b005b610212600480360381019061020d9190612357565b610757565b005b61022e6004803603810190610229919061209c565b6107b7565b60405161023b9190611fa6565b60405180910390f35b61025e60048036038101906102599190612357565b6107ca565b005b61027a6004803603810190610275919061209c565b6107e9565b005b6102966004803603810190610291919061209c565b610845565b6040516102a39190612106565b60405180910390f35b6102c660048036038101906102c191906123a7565b6108c9565b6040516102d391906123e1565b60405180910390f35b6102f660048036038101906102f1919061209c565b61097d565b6040516103049291906123fa565b60405180910390f35b61031561099d565b6040516103229190612049565b60405180910390f35b6103456004803603810190610340919061244b565b610a2d565b005b610361600480360381019061035c9190612489565b610a43565b60405161036e9190611fa6565b60405180910390f35b610391600480360381019061038c9190612577565b610b62565b005b6103ad60048036038101906103a8919061209c565b610bc4565b6040516103ba9190612049565b60405180910390f35b6103dd60048036038101906103d89190612319565b610bfd565b6040516103ea91906123e1565b60405180910390f35b61040d600480360381019061040891906125f7565b610c28565b60405161041a9190611fa6565b60405180910390f35b61043d6004803603810190610438919061244b565b610cb6565b60405161044a91906123e1565b60405180910390f35b5f7f80ac58cd000000000000000000000000000000000000000000000000000000007bffffffffffffffffffffffffffffffffffffffffffffffffffffffff1916827bffffffffffffffffffffffffffffffffffffffffffffffffffffffff1916148061051d57507f5b5e139f000000000000000000000000000000000000000000000000000000007bffffffffffffffffffffffffffffffffffffffffffffffffffffffff1916827bffffffffffffffffffffffffffffffffffffffffffffffffffffffff1916145b8061052d575061052c82610e17565b5b9050919050565b60605f805461054290612662565b80601f016020809104026020016040519081016040528092919081815260200182805461056e90612662565b80156105b95780601f10610590576101008083540402835291602001916105b9565b820191905f5260205f20905b81548152906001019060200180831161059c57829003601f168201915b5050505050905090565b5f6105cd82610e80565b60045f8381526020019081526020015f205f9054906101000a900473ffffffffffffffffffffffffffffffffffffffff169050919050565b5f83600a9081610615919061282f565b5082600b9081610625919061282f565b5081600c9081610635919061282f565b50600190509392505050565b5f61064b82610845565b90508073ffffffffffffffffffffffffffffffffffffffff168373ffffffffffffffffffffffffffffffffffffffff16036106bb576040517f08c379a00000000000000000000000000000000000000000000000000000000081526004016106b29061296e565b60405180910390fd5b8073ffffffffffffffffffffffffffffffffffffffff166106da610ecb565b73ffffffffffffffffffffffffffffffffffffffff161480610709575061070881610703610ecb565b610c28565b5b610748576040517f08c379a000000000000000000000000000000000000000000000000000000000815260040161073f906129fc565b60405180910390fd5b6107528383610ed2565b505050565b610768610762610ecb565b82610f88565b6107a7576040517f08c379a000000000000000000000000000000000000000000000000000000000815260040161079e90612a8a565b60405180910390fd5b6107b283838361101c565b505050565b5f6107c182611308565b60019050919050565b6107e483838360405180602001604052805f815250610b62565b505050565b6107fa6107f4610ecb565b82610f88565b610839576040517f08c379a000000000000000000000000000000000000000000000000000000000815260040161083090612a8a565b60405180910390fd5b61084281611308565b50565b5f8061085083611449565b90505f73ffffffffffffffffffffffffffffffffffffffff168173ffffffffffffffffffffffffffffffffffffffff16036108c0576040517f08c379a00000000000000000000000000000000000000000000000000000000081526004016108b790612af2565b60405180910390fd5b80915050919050565b5f8073ffffffffffffffffffffffffffffffffffffffff168273ffffffffffffffffffffffffffffffffffffffff1603610938576040517f08c379a000000000000000000000000000000000000000000000000000000000815260040161092f90612b80565b60405180910390fd5b60035f8373ffffffffffffffffffffffffffffffffffffffff1673ffffffffffffffffffffffffffffffffffffffff1681526020019081526020015f20549050919050565b600d602052805f5260405f205f91509050805f0154908060010154905082565b6060600180546109ac90612662565b80601f01602080910402602001604051908101604052809291908181526020018280546109d890612662565b8015610a235780601f106109fa57610100808354040283529160200191610a23565b820191905f5260205f20905b815481529060010190602001808311610a0657829003601f168201915b5050505050905090565b610a3f610a38610ecb565b8383611482565b5050565b5f610a4d836115e9565b5060075f9054906101000a900473ffffffffffffffffffffffffffffffffffffffff1673ffffffffffffffffffffffffffffffffffffffff1663469895c83360085f9054906101000a900473ffffffffffffffffffffffffffffffffffffffff16876040518463ffffffff1660e01b8152600401610acd93929190612b9e565b6020604051808303815f875af1158015610ae9573d5f803e3d5ffd5b505050506040513d601f19601f82011682018060405250810190610b0d9190612be7565b610b4c576040517f08c379a0000000000000000000000000000000000000000000000000000000008152600401610b4390612c5c565b60405180910390fd5b610b5684836116a1565b50600190509392505050565b610b73610b6d610ecb565b83610f88565b610bb2576040517f08c379a0000000000000000000000000000000000000000000000000000000008152600401610ba990612a8a565b60405180910390fd5b610bbe8484848461171b565b50505050565b6060610bcf82610e80565b600a600b600c604051602001610be793929190612e2c565b6040516020818303038152906040529050919050565b600e602052815f5260405f208181548110610c16575f80fd5b905f5260205f20015f91509150505481565b5f60055f8473ffffffffffffffffffffffffffffffffffffffff1673ffffffffffffffffffffffffffffffffffffffff1681526020019081526020015f205f8373ffffffffffffffffffffffffffffffffffffffff1673ffffffffffffffffffffffffffffffffffffffff1681526020019081526020015f205f9054906101000a900460ff16905092915050565b5f80610cc26006611777565b9050610cdd848260405180602001604052805f815250611783565b8215610d2657604051806040016040528042815260200162ed4e00815250600d5f8381526020019081526020015f205f820151815f015560208201518160010155905050610d62565b60405180604001604052804281526020015f815250600d5f8381526020019081526020015f205f820151815f0155602082015181600101559050505b600e5f8573ffffffffffffffffffffffffffffffffffffffff1673ffffffffffffffffffffffffffffffffffffffff1681526020019081526020015f2081908060018154018082558091505060019003905f5260205f20015f9091909190915055610dcd60066117dd565b600e5f8573ffffffffffffffffffffffffffffffffffffffff1673ffffffffffffffffffffffffffffffffffffffff1681526020019081526020015f208054905091505092915050565b5f7f01ffc9a7000000000000000000000000000000000000000000000000000000007bffffffffffffffffffffffffffffffffffffffffffffffffffffffff1916827bffffffffffffffffffffffffffffffffffffffffffffffffffffffff1916149050919050565b610e89816117f1565b610ec8576040517f08c379a0000000000000000000000000000000000000000000000000000000008152600401610ebf90612af2565b60405180910390fd5b50565b5f33905090565b8160045f8381526020019081526020015f205f6101000a81548173ffffffffffffffffffffffffffffffffffffffff021916908373ffffffffffffffffffffffffffffffffffffffff160217905550808273ffffffffffffffffffffffffffffffffffffffff16610f4283610845565b73ffffffffffffffffffffffffffffffffffffffff167f8c5be1e5ebec7d5bd14f71427d1e84f3dd0314c0f7b2291e5b200ac8c7c3b92560405160405180910390a45050565b5f80610f9383610845565b90508073ffffffffffffffffffffffffffffffffffffffff168473ffffffffffffffffffffffffffffffffffffffff161480610fd55750610fd48185610c28565b5b8061101357508373ffffffffffffffffffffffffffffffffffffffff16610ffb846105c3565b73ffffffffffffffffffffffffffffffffffffffff16145b91505092915050565b8273ffffffffffffffffffffffffffffffffffffffff1661103c82610845565b73ffffffffffffffffffffffffffffffffffffffff1614611092576040517f08c379a000000000000000000000000000000000000000000000000000000000815260040161108990612ef8565b60405180910390fd5b5f73ffffffffffffffffffffffffffffffffffffffff168273ffffffffffffffffffffffffffffffffffffffff1603611100576040517f08c379a00000000000000000000000000000000000000000000000000000000081526004016110f790612f86565b60405180910390fd5b61110d8383836001611831565b8273ffffffffffffffffffffffffffffffffffffffff1661112d82610845565b73ffffffffffffffffffffffffffffffffffffffff1614611183576040517f08c379a000000000000000000000000000000000000000000000000000000000815260040161117a90612ef8565b60405180910390fd5b60045f8281526020019081526020015f205f6101000a81549073ffffffffffffffffffffffffffffffffffffffff0219169055600160035f8573ffffffffffffffffffffffffffffffffffffffff1673ffffffffffffffffffffffffffffffffffffffff1681526020019081526020015f205f8282540392505081905550600160035f8473ffffffffffffffffffffffffffffffffffffffff1673ffffffffffffffffffffffffffffffffffffffff1681526020019081526020015f205f82825401925050819055508160025f8381526020019081526020015f205f6101000a81548173ffffffffffffffffffffffffffffffffffffffff021916908373ffffffffffffffffffffffffffffffffffffffff160217905550808273ffffffffffffffffffffffffffffffffffffffff168473ffffffffffffffffffffffffffffffffffffffff167fddf252ad1be2c89b69c2b068fc378daa952ba7f163c4a11628f55a4df523b3ef60405160405180910390a4611303838383600161191d565b505050565b5f61131282610845565b9050611321815f846001611831565b61132a82610845565b905060045f8381526020019081526020015f205f6101000a81549073ffffffffffffffffffffffffffffffffffffffff0219169055600160035f8373ffffffffffffffffffffffffffffffffffffffff1673ffffffffffffffffffffffffffffffffffffffff1681526020019081526020015f205f828254039250508190555060025f8381526020019081526020015f205f6101000a81549073ffffffffffffffffffffffffffffffffffffffff0219169055815f73ffffffffffffffffffffffffffffffffffffffff168273ffffffffffffffffffffffffffffffffffffffff167fddf252ad1be2c89b69c2b068fc378daa952ba7f163c4a11628f55a4df523b3ef60405160405180910390a4611445815f84600161191d565b5050565b5f60025f8381526020019081526020015f205f9054906101000a900473ffffffffffffffffffffffffffffffffffffffff169050919050565b8173ffffffffffffffffffffffffffffffffffffffff168373ffffffffffffffffffffffffffffffffffffffff16036114f0576040517f08c379a00000000000000000000000000000000000000000000000000000000081526004016114e790612fee565b60405180910390fd5b8060055f8573ffffffffffffffffffffffffffffffffffffffff1673ffffffffffffffffffffffffffffffffffffffff1681526020019081526020015f205f8473ffffffffffffffffffffffffffffffffffffffff1673ffffffffffffffffffffffffffffffffffffffff1681526020019081526020015f205f6101000a81548160ff0219169083151502179055508173ffffffffffffffffffffffffffffffffffffffff168373ffffffffffffffffffffffffffffffffffffffff167f17307eab39ab6107e8899845ad3d59bd9653f200f220920489ca2b5937696c31836040516115dc9190611fa6565b60405180910390a3505050565b5f8073ffffffffffffffffffffffffffffffffffffffff168273ffffffffffffffffffffffffffffffffffffffff1603611658576040517f08c379a000000000000000000000000000000000000000000000000000000000815260040161164f90613056565b60405180910390fd5b8160085f6101000a81548173ffffffffffffffffffffffffffffffffffffffff021916908373ffffffffffffffffffffffffffffffffffffffff16021790555060019050919050565b5f8083146116e657606483146116dc5760c883146116d2576103e883146116cb5762ed4e006116cd565b5f5b6116d7565b6283d6005b6116e1565b62ab63005b6116eb565b62ed4e005b62ffffff16600981905550600954600d5f8481526020019081526020015f20600101819055506001905092915050565b61172684848461101c565b61173284848484611923565b611771576040517f08c379a0000000000000000000000000000000000000000000000000000000008152600401611768906130e4565b60405180910390fd5b50505050565b5f815f01549050919050565b61178d8383611aa5565b6117995f848484611923565b6117d8576040517f08c379a00000000000000000000000000000000000000000000000000000000081526004016117cf906130e4565b60405180910390fd5b505050565b6001815f015f828254019250508190555050565b5f8073ffffffffffffffffffffffffffffffffffffffff1661181283611449565b73ffffffffffffffffffffffffffffffffffffffff1614159050919050565b6118418484846001945084611cb8565b5f73ffffffffffffffffffffffffffffffffffffffff168473ffffffffffffffffffffffffffffffffffffffff161461191757600d5f8381526020019081526020015f2060010154600d5f8481526020019081526020015f205f01546118a7919061312f565b4210156118b5600954611cbe565b6040516020016118c591906131dc565b60405160208183030381529060405290611915576040517f08c379a000000000000000000000000000000000000000000000000000000000815260040161190c9190612049565b60405180910390fd5b505b50505050565b50505050565b5f6119438473ffffffffffffffffffffffffffffffffffffffff16611d88565b15611a98578373ffffffffffffffffffffffffffffffffffffffff1663150b7a0261196c610ecb565b8786866040518563ffffffff1660e01b815260040161198e949392919061324f565b6020604051808303815f875af19250505080156119c957506040513d601f19601f820116820180604052508101906119c691906132ad565b60015b611a48573d805f81146119f7576040519150601f19603f3d011682016040523d82523d5f602084013e6119fc565b606091505b505f815103611a40576040517f08c379a0000000000000000000000000000000000000000000000000000000008152600401611a37906130e4565b60405180910390fd5b805181602001fd5b63150b7a0260e01b7bffffffffffffffffffffffffffffffffffffffffffffffffffffffff1916817bffffffffffffffffffffffffffffffffffffffffffffffffffffffff191614915050611a9d565b600190505b949350505050565b5f73ffffffffffffffffffffffffffffffffffffffff168273ffffffffffffffffffffffffffffffffffffffff1603611b13576040517f08c379a0000000000000000000000000000000000000000000000000000000008152600401611b0a90613322565b60405180910390fd5b611b1c816117f1565b15611b5c576040517f08c379a0000000000000000000000000000000000000000000000000000000008152600401611b539061338a565b60405180910390fd5b611b695f83836001611831565b611b72816117f1565b15611bb2576040517f08c379a0000000000000000000000000000000000000000000000000000000008152600401611ba99061338a565b60405180910390fd5b600160035f8473ffffffffffffffffffffffffffffffffffffffff1673ffffffffffffffffffffffffffffffffffffffff1681526020019081526020015f205f82825401925050819055508160025f8381526020019081526020015f205f6101000a81548173ffffffffffffffffffffffffffffffffffffffff021916908373ffffffffffffffffffffffffffffffffffffffff160217905550808273ffffffffffffffffffffffffffffffffffffffff165f73ffffffffffffffffffffffffffffffffffffffff167fddf252ad1be2c89b69c2b068fc378daa952ba7f163c4a11628f55a4df523b3ef60405160405180910390a4611cb45f8383600161191d565b5050565b50505050565b60605f6001611ccc84611daa565b0190505f8167ffffffffffffffff811115611cea57611ce9612127565b5b6040519080825280601f01601f191660200182016040528015611d1c5781602001600182028036833780820191505090505b5090505f82602001820190505b600115611d7d578080600190039150507f3031323334353637383961626364656600000000000000000000000000000000600a86061a8153600a8581611d7257611d716133a8565b5b0494505f8503611d29575b819350505050919050565b5f808273ffffffffffffffffffffffffffffffffffffffff163b119050919050565b5f805f90507a184f03e93ff9f4daa797ed6e38ed64bf6a1f0100000000000000008310611e06577a184f03e93ff9f4daa797ed6e38ed64bf6a1f0100000000000000008381611dfc57611dfb6133a8565b5b0492506040810190505b6d04ee2d6d415b85acef81000000008310611e43576d04ee2d6d415b85acef81000000008381611e3957611e386133a8565b5b0492506020810190505b662386f26fc100008310611e7257662386f26fc100008381611e6857611e676133a8565b5b0492506010810190505b6305f5e1008310611e9b576305f5e1008381611e9157611e906133a8565b5b0492506008810190505b6127108310611ec0576127108381611eb657611eb56133a8565b5b0492506004810190505b60648310611ee35760648381611ed957611ed86133a8565b5b0492506002810190505b600a8310611ef2576001810190505b80915050919050565b5f604051905090565b5f80fd5b5f80fd5b5f7fffffffff0000000000000000000000000000000000000000000000000000000082169050919050565b611f4081611f0c565b8114611f4a575f80fd5b50565b5f81359050611f5b81611f37565b92915050565b5f60208284031215611f7657611f75611f04565b5b5f611f8384828501611f4d565b91505092915050565b5f8115159050919050565b611fa081611f8c565b82525050565b5f602082019050611fb95f830184611f97565b92915050565b5f81519050919050565b5f82825260208201905092915050565b5f5b83811015611ff6578082015181840152602081019050611fdb565b5f8484015250505050565b5f601f19601f8301169050919050565b5f61201b82611fbf565b6120258185611fc9565b9350612035818560208601611fd9565b61203e81612001565b840191505092915050565b5f6020820190508181035f8301526120618184612011565b905092915050565b5f819050919050565b61207b81612069565b8114612085575f80fd5b50565b5f8135905061209681612072565b92915050565b5f602082840312156120b1576120b0611f04565b5b5f6120be84828501612088565b91505092915050565b5f73ffffffffffffffffffffffffffffffffffffffff82169050919050565b5f6120f0826120c7565b9050919050565b612100816120e6565b82525050565b5f6020820190506121195f8301846120f7565b92915050565b5f80fd5b5f80fd5b7f4e487b71000000000000000000000000000000000000000000000000000000005f52604160045260245ffd5b61215d82612001565b810181811067ffffffffffffffff8211171561217c5761217b612127565b5b80604052505050565b5f61218e611efb565b905061219a8282612154565b919050565b5f67ffffffffffffffff8211156121b9576121b8612127565b5b6121c282612001565b9050602081019050919050565b828183375f83830152505050565b5f6121ef6121ea8461219f565b612185565b90508281526020810184848401111561220b5761220a612123565b5b6122168482856121cf565b509392505050565b5f82601f8301126122325761223161211f565b5b81356122428482602086016121dd565b91505092915050565b5f805f6060848603121561226257612261611f04565b5b5f84013567ffffffffffffffff81111561227f5761227e611f08565b5b61228b8682870161221e565b935050602084013567ffffffffffffffff8111156122ac576122ab611f08565b5b6122b88682870161221e565b925050604084013567ffffffffffffffff8111156122d9576122d8611f08565b5b6122e58682870161221e565b9150509250925092565b6122f8816120e6565b8114612302575f80fd5b50565b5f81359050612313816122ef565b92915050565b5f806040838503121561232f5761232e611f04565b5b5f61233c85828601612305565b925050602061234d85828601612088565b9150509250929050565b5f805f6060848603121561236e5761236d611f04565b5b5f61237b86828701612305565b935050602061238c86828701612305565b925050604061239d86828701612088565b9150509250925092565b5f602082840312156123bc576123bb611f04565b5b5f6123c984828501612305565b91505092915050565b6123db81612069565b82525050565b5f6020820190506123f45f8301846123d2565b92915050565b5f60408201905061240d5f8301856123d2565b61241a60208301846123d2565b9392505050565b61242a81611f8c565b8114612434575f80fd5b50565b5f8135905061244581612421565b92915050565b5f806040838503121561246157612460611f04565b5b5f61246e85828601612305565b925050602061247f85828601612437565b9150509250929050565b5f805f606084860312156124a05761249f611f04565b5b5f6124ad86828701612088565b93505060206124be86828701612305565b92505060406124cf86828701612088565b9150509250925092565b5f67ffffffffffffffff8211156124f3576124f2612127565b5b6124fc82612001565b9050602081019050919050565b5f61251b612516846124d9565b612185565b90508281526020810184848401111561253757612536612123565b5b6125428482856121cf565b509392505050565b5f82601f83011261255e5761255d61211f565b5b813561256e848260208601612509565b91505092915050565b5f805f806080858703121561258f5761258e611f04565b5b5f61259c87828801612305565b94505060206125ad87828801612305565b93505060406125be87828801612088565b925050606085013567ffffffffffffffff8111156125df576125de611f08565b5b6125eb8782880161254a565b91505092959194509250565b5f806040838503121561260d5761260c611f04565b5b5f61261a85828601612305565b925050602061262b85828601612305565b9150509250929050565b7f4e487b71000000000000000000000000000000000000000000000000000000005f52602260045260245ffd5b5f600282049050600182168061267957607f821691505b60208210810361268c5761268b612635565b5b50919050565b5f819050815f5260205f209050919050565b5f6020601f8301049050919050565b5f82821b905092915050565b5f600883026126ee7fffffffffffffffffffffffffffffffffffffffffffffffffffffffffffffffff826126b3565b6126f886836126b3565b95508019841693508086168417925050509392505050565b5f819050919050565b5f61273361272e61272984612069565b612710565b612069565b9050919050565b5f819050919050565b61274c83612719565b6127606127588261273a565b8484546126bf565b825550505050565b5f90565b612774612768565b61277f818484612743565b505050565b5b818110156127a2576127975f8261276c565b600181019050612785565b5050565b601f8211156127e7576127b881612692565b6127c1846126a4565b810160208510156127d0578190505b6127e46127dc856126a4565b830182612784565b50505b505050565b5f82821c905092915050565b5f6128075f19846008026127ec565b1980831691505092915050565b5f61281f83836127f8565b9150826002028217905092915050565b61283882611fbf565b67ffffffffffffffff81111561285157612850612127565b5b61285b8254612662565b6128668282856127a6565b5f60209050601f831160018114612897575f8415612885578287015190505b61288f8582612814565b8655506128f6565b601f1984166128a586612692565b5f5b828110156128cc578489015182556001820191506020850194506020810190506128a7565b868310156128e957848901516128e5601f8916826127f8565b8355505b6001600288020188555050505b505050505050565b7f4552433732313a20617070726f76616c20746f2063757272656e74206f776e655f8201527f7200000000000000000000000000000000000000000000000000000000000000602082015250565b5f612958602183611fc9565b9150612963826128fe565b604082019050919050565b5f6020820190508181035f8301526129858161294c565b9050919050565b7f4552433732313a20617070726f76652063616c6c6572206973206e6f7420746f5f8201527f6b656e206f776e6572206f7220617070726f76656420666f7220616c6c000000602082015250565b5f6129e6603d83611fc9565b91506129f18261298c565b604082019050919050565b5f6020820190508181035f830152612a13816129da565b9050919050565b7f4552433732313a2063616c6c6572206973206e6f7420746f6b656e206f776e655f8201527f72206f7220617070726f76656400000000000000000000000000000000000000602082015250565b5f612a74602d83611fc9565b9150612a7f82612a1a565b604082019050919050565b5f6020820190508181035f830152612aa181612a68565b9050919050565b7f4552433732313a20696e76616c696420746f6b656e20494400000000000000005f82015250565b5f612adc601883611fc9565b9150612ae782612aa8565b602082019050919050565b5f6020820190508181035f830152612b0981612ad0565b9050919050565b7f4552433732313a2061646472657373207a65726f206973206e6f7420612076615f8201527f6c6964206f776e65720000000000000000000000000000000000000000000000602082015250565b5f612b6a602983611fc9565b9150612b7582612b10565b604082019050919050565b5f6020820190508181035f830152612b9781612b5e565b9050919050565b5f606082019050612bb15f8301866120f7565b612bbe60208301856120f7565b612bcb60408301846123d2565b949350505050565b5f81519050612be181612421565b92915050565b5f60208284031215612bfc57612bfb611f04565b5b5f612c0984828501612bd3565b91505092915050565b7f717665546f6b656e207472616e73666572206572726f720000000000000000005f82015250565b5f612c46601783611fc9565b9150612c5182612c12565b602082019050919050565b5f6020820190508181035f830152612c7381612c3a565b9050919050565b5f81905092915050565b7f646174613a6170706c69636174696f6e2f6a736f6e2c7b226e616d65223a22005f82015250565b5f612cb8601f83612c7a565b9150612cc382612c84565b601f82019050919050565b5f8154612cda81612662565b612ce48186612c7a565b9450600182165f8114612cfe5760018114612d1357612d45565b60ff1983168652811515820286019350612d45565b612d1c85612692565b5f5b83811015612d3d57815481890152600182019150602081019050612d1e565b838801955050505b50505092915050565b7f222c20226465736372697074696f6e223a2200000000000000000000000000005f82015250565b5f612d82601283612c7a565b9150612d8d82612d4e565b601282019050919050565b7f222c2022696d616765223a2200000000000000000000000000000000000000005f82015250565b5f612dcc600c83612c7a565b9150612dd782612d98565b600c82019050919050565b7f227d0000000000000000000000000000000000000000000000000000000000005f82015250565b5f612e16600283612c7a565b9150612e2182612de2565b600282019050919050565b5f612e3682612cac565b9150612e428286612cce565b9150612e4d82612d76565b9150612e598285612cce565b9150612e6482612dc0565b9150612e708284612cce565b9150612e7b82612e0a565b9150819050949350505050565b7f4552433732313a207472616e736665722066726f6d20696e636f7272656374205f8201527f6f776e6572000000000000000000000000000000000000000000000000000000602082015250565b5f612ee2602583611fc9565b9150612eed82612e88565b604082019050919050565b5f6020820190508181035f830152612f0f81612ed6565b9050919050565b7f4552433732313a207472616e7366657220746f20746865207a65726f206164645f8201527f7265737300000000000000000000000000000000000000000000000000000000602082015250565b5f612f70602483611fc9565b9150612f7b82612f16565b604082019050919050565b5f6020820190508181035f830152612f9d81612f64565b9050919050565b7f4552433732313a20617070726f766520746f2063616c6c6572000000000000005f82015250565b5f612fd8601983611fc9565b9150612fe382612fa4565b602082019050919050565b5f6020820190508181035f83015261300581612fcc565b9050919050565b7f5f73657451564564656669206572726f720000000000000000000000000000005f82015250565b5f613040601183611fc9565b915061304b8261300c565b602082019050919050565b5f6020820190508181035f83015261306d81613034565b9050919050565b7f4552433732313a207472616e7366657220746f206e6f6e2045524337323152655f8201527f63656976657220696d706c656d656e7465720000000000000000000000000000602082015250565b5f6130ce603283611fc9565b91506130d982613074565b604082019050919050565b5f6020820190508181035f8301526130fb816130c2565b9050919050565b7f4e487b71000000000000000000000000000000000000000000000000000000005f52601160045260245ffd5b5f61313982612069565b915061314483612069565b925082820190508082111561315c5761315b613102565b5b92915050565b7f746f6b656e206973207374696c6c20696e206c6f636b20706572696f640000005f82015250565b5f613196601d83612c7a565b91506131a182613162565b601d82019050919050565b5f6131b682611fbf565b6131c08185612c7a565b93506131d0818560208601611fd9565b80840191505092915050565b5f6131e68261318a565b91506131f282846131ac565b915081905092915050565b5f81519050919050565b5f82825260208201905092915050565b5f613221826131fd565b61322b8185613207565b935061323b818560208601611fd9565b61324481612001565b840191505092915050565b5f6080820190506132625f8301876120f7565b61326f60208301866120f7565b61327c60408301856123d2565b818103606083015261328e8184613217565b905095945050505050565b5f815190506132a781611f37565b92915050565b5f602082840312156132c2576132c1611f04565b5b5f6132cf84828501613299565b91505092915050565b7f4552433732313a206d696e7420746f20746865207a65726f20616464726573735f82015250565b5f61330c602083611fc9565b9150613317826132d8565b602082019050919050565b5f6020820190508181035f83015261333981613300565b9050919050565b7f4552433732313a20746f6b656e20616c7265616479206d696e746564000000005f82015250565b5f613374601c83611fc9565b915061337f82613340565b602082019050919050565b5f6020820190508181035f8301526133a181613368565b9050919050565b7f4e487b71000000000000000000000000000000000000000000000000000000005f52601260045260245ffdfea2646970667358221220de9e014777841ebe7a75496b84263b2f2de381564246c67e5cbb3c3cad106efa64736f6c63430008150033",
			"opcodes": "PUSH1 0x80 PUSH1 0x40 MSTORE CALLVALUE DUP1 ISZERO PUSH3 0x10 JUMPI PUSH0 DUP1 REVERT JUMPDEST POP PUSH1 0x40 MLOAD PUSH3 0x3921 CODESIZE SUB DUP1 PUSH3 0x3921 DUP4 CODECOPY DUP2 DUP2 ADD PUSH1 0x40 MSTORE DUP2 ADD SWAP1 PUSH3 0x36 SWAP2 SWAP1 PUSH3 0x190 JUMP JUMPDEST PUSH1 0x40 MLOAD DUP1 PUSH1 0x40 ADD PUSH1 0x40 MSTORE DUP1 PUSH1 0xB DUP2 MSTORE PUSH1 0x20 ADD PUSH32 0x5156455F7374616B696E67000000000000000000000000000000000000000000 DUP2 MSTORE POP PUSH1 0x40 MLOAD DUP1 PUSH1 0x40 ADD PUSH1 0x40 MSTORE DUP1 PUSH1 0xD DUP2 MSTORE PUSH1 0x20 ADD PUSH32 0x5156455F47554152414E54454500000000000000000000000000000000000000 DUP2 MSTORE POP DUP2 PUSH0 SWAP1 DUP2 PUSH3 0xB2 SWAP2 SWAP1 PUSH3 0x424 JUMP JUMPDEST POP DUP1 PUSH1 0x1 SWAP1 DUP2 PUSH3 0xC4 SWAP2 SWAP1 PUSH3 0x424 JUMP JUMPDEST POP POP POP DUP1 PUSH1 0x7 PUSH0 PUSH2 0x100 EXP DUP2 SLOAD DUP2 PUSH20 0xFFFFFFFFFFFFFFFFFFFFFFFFFFFFFFFFFFFFFFFF MUL NOT AND SWAP1 DUP4 PUSH20 0xFFFFFFFFFFFFFFFFFFFFFFFFFFFFFFFFFFFFFFFF AND MUL OR SWAP1 SSTORE POP PUSH3 0xED4E00 PUSH1 0x9 DUP2 SWAP1 SSTORE POP POP PUSH3 0x508 JUMP JUMPDEST PUSH0 DUP1 REVERT JUMPDEST PUSH0 PUSH20 0xFFFFFFFFFFFFFFFFFFFFFFFFFFFFFFFFFFFFFFFF DUP3 AND SWAP1 POP SWAP2 SWAP1 POP JUMP JUMPDEST PUSH0 PUSH3 0x147 DUP3 PUSH3 0x11C JUMP JUMPDEST SWAP1 POP SWAP2 SWAP1 POP JUMP JUMPDEST PUSH0 PUSH3 0x15A DUP3 PUSH3 0x13B JUMP JUMPDEST SWAP1 POP SWAP2 SWAP1 POP JUMP JUMPDEST PUSH3 0x16C DUP2 PUSH3 0x14E JUMP JUMPDEST DUP2 EQ PUSH3 0x177 JUMPI PUSH0 DUP1 REVERT JUMPDEST POP JUMP JUMPDEST PUSH0 DUP2 MLOAD SWAP1 POP PUSH3 0x18A DUP2 PUSH3 0x161 JUMP JUMPDEST SWAP3 SWAP2 POP POP JUMP JUMPDEST PUSH0 PUSH1 0x20 DUP3 DUP5 SUB SLT ISZERO PUSH3 0x1A8 JUMPI PUSH3 0x1A7 PUSH3 0x118 JUMP JUMPDEST JUMPDEST PUSH0 PUSH3 0x1B7 DUP5 DUP3 DUP6 ADD PUSH3 0x17A JUMP JUMPDEST SWAP2 POP POP SWAP3 SWAP2 POP POP JUMP JUMPDEST PUSH0 DUP2 MLOAD SWAP1 POP SWAP2 SWAP1 POP JUMP JUMPDEST PUSH32 0x4E487B7100000000000000000000000000000000000000000000000000000000 PUSH0 MSTORE PUSH1 0x41 PUSH1 0x4 MSTORE PUSH1 0x24 PUSH0 REVERT JUMPDEST PUSH32 0x4E487B7100000000000000000000000000000000000000000000000000000000 PUSH0 MSTORE PUSH1 0x22 PUSH1 0x4 MSTORE PUSH1 0x24 PUSH0 REVERT JUMPDEST PUSH0 PUSH1 0x2 DUP3 DIV SWAP1 POP PUSH1 0x1 DUP3 AND DUP1 PUSH3 0x23C JUMPI PUSH1 0x7F DUP3 AND SWAP2 POP JUMPDEST PUSH1 0x20 DUP3 LT DUP2 SUB PUSH3 0x252 JUMPI PUSH3 0x251 PUSH3 0x1F7 JUMP JUMPDEST JUMPDEST POP SWAP2 SWAP1 POP JUMP JUMPDEST PUSH0 DUP2 SWAP1 POP DUP2 PUSH0 MSTORE PUSH1 0x20 PUSH0 KECCAK256 SWAP1 POP SWAP2 SWAP1 POP JUMP JUMPDEST PUSH0 PUSH1 0x20 PUSH1 0x1F DUP4 ADD DIV SWAP1 POP SWAP2 SWAP1 POP JUMP JUMPDEST PUSH0 DUP3 DUP3 SHL SWAP1 POP SWAP3 SWAP2 POP POP JUMP JUMPDEST PUSH0 PUSH1 0x8 DUP4 MUL PUSH3 0x2B6 PUSH32 0xFFFFFFFFFFFFFFFFFFFFFFFFFFFFFFFFFFFFFFFFFFFFFFFFFFFFFFFFFFFFFFFF DUP3 PUSH3 0x279 JUMP JUMPDEST PUSH3 0x2C2 DUP7 DUP4 PUSH3 0x279 JUMP JUMPDEST SWAP6 POP DUP1 NOT DUP5 AND SWAP4 POP DUP1 DUP7 AND DUP5 OR SWAP3 POP POP POP SWAP4 SWAP3 POP POP POP JUMP JUMPDEST PUSH0 DUP2 SWAP1 POP SWAP2 SWAP1 POP JUMP JUMPDEST PUSH0 DUP2 SWAP1 POP SWAP2 SWAP1 POP JUMP JUMPDEST PUSH0 PUSH3 0x30C PUSH3 0x306 PUSH3 0x300 DUP5 PUSH3 0x2DA JUMP JUMPDEST PUSH3 0x2E3 JUMP JUMPDEST PUSH3 0x2DA JUMP JUMPDEST SWAP1 POP SWAP2 SWAP1 POP JUMP JUMPDEST PUSH0 DUP2 SWAP1 POP SWAP2 SWAP1 POP JUMP JUMPDEST PUSH3 0x327 DUP4 PUSH3 0x2EC JUMP JUMPDEST PUSH3 0x33F PUSH3 0x336 DUP3 PUSH3 0x313 JUMP JUMPDEST DUP5 DUP5 SLOAD PUSH3 0x285 JUMP JUMPDEST DUP3 SSTORE POP POP POP POP JUMP JUMPDEST PUSH0 SWAP1 JUMP JUMPDEST PUSH3 0x355 PUSH3 0x347 JUMP JUMPDEST PUSH3 0x362 DUP2 DUP5 DUP5 PUSH3 0x31C JUMP JUMPDEST POP POP POP JUMP JUMPDEST JUMPDEST DUP2 DUP2 LT ISZERO PUSH3 0x389 JUMPI PUSH3 0x37D PUSH0 DUP3 PUSH3 0x34B JUMP JUMPDEST PUSH1 0x1 DUP2 ADD SWAP1 POP PUSH3 0x368 JUMP JUMPDEST POP POP JUMP JUMPDEST PUSH1 0x1F DUP3 GT ISZERO PUSH3 0x3D8 JUMPI PUSH3 0x3A2 DUP2 PUSH3 0x258 JUMP JUMPDEST PUSH3 0x3AD DUP5 PUSH3 0x26A JUMP JUMPDEST DUP2 ADD PUSH1 0x20 DUP6 LT ISZERO PUSH3 0x3BD JUMPI DUP2 SWAP1 POP JUMPDEST PUSH3 0x3D5 PUSH3 0x3CC DUP6 PUSH3 0x26A JUMP JUMPDEST DUP4 ADD DUP3 PUSH3 0x367 JUMP JUMPDEST POP POP JUMPDEST POP POP POP JUMP JUMPDEST PUSH0 DUP3 DUP3 SHR SWAP1 POP SWAP3 SWAP2 POP POP JUMP JUMPDEST PUSH0 PUSH3 0x3FA PUSH0 NOT DUP5 PUSH1 0x8 MUL PUSH3 0x3DD JUMP JUMPDEST NOT DUP1 DUP4 AND SWAP2 POP POP SWAP3 SWAP2 POP POP JUMP JUMPDEST PUSH0 PUSH3 0x414 DUP4 DUP4 PUSH3 0x3E9 JUMP JUMPDEST SWAP2 POP DUP3 PUSH1 0x2 MUL DUP3 OR SWAP1 POP SWAP3 SWAP2 POP POP JUMP JUMPDEST PUSH3 0x42F DUP3 PUSH3 0x1C0 JUMP JUMPDEST PUSH8 0xFFFFFFFFFFFFFFFF DUP2 GT ISZERO PUSH3 0x44B JUMPI PUSH3 0x44A PUSH3 0x1CA JUMP JUMPDEST JUMPDEST PUSH3 0x457 DUP3 SLOAD PUSH3 0x224 JUMP JUMPDEST PUSH3 0x464 DUP3 DUP3 DUP6 PUSH3 0x38D JUMP JUMPDEST PUSH0 PUSH1 0x20 SWAP1 POP PUSH1 0x1F DUP4 GT PUSH1 0x1 DUP2 EQ PUSH3 0x49A JUMPI PUSH0 DUP5 ISZERO PUSH3 0x485 JUMPI DUP3 DUP8 ADD MLOAD SWAP1 POP JUMPDEST PUSH3 0x491 DUP6 DUP3 PUSH3 0x407 JUMP JUMPDEST DUP7 SSTORE POP PUSH3 0x500 JUMP JUMPDEST PUSH1 0x1F NOT DUP5 AND PUSH3 0x4AA DUP7 PUSH3 0x258 JUMP JUMPDEST PUSH0 JUMPDEST DUP3 DUP2 LT ISZERO PUSH3 0x4D3 JUMPI DUP5 DUP10 ADD MLOAD DUP3 SSTORE PUSH1 0x1 DUP3 ADD SWAP2 POP PUSH1 0x20 DUP6 ADD SWAP5 POP PUSH1 0x20 DUP2 ADD SWAP1 POP PUSH3 0x4AC JUMP JUMPDEST DUP7 DUP4 LT ISZERO PUSH3 0x4F3 JUMPI DUP5 DUP10 ADD MLOAD PUSH3 0x4EF PUSH1 0x1F DUP10 AND DUP3 PUSH3 0x3E9 JUMP JUMPDEST DUP4 SSTORE POP JUMPDEST PUSH1 0x1 PUSH1 0x2 DUP9 MUL ADD DUP9 SSTORE POP POP POP JUMPDEST POP POP POP POP POP POP JUMP JUMPDEST PUSH2 0x340B DUP1 PUSH3 0x516 PUSH0 CODECOPY PUSH0 RETURN INVALID PUSH1 0x80 PUSH1 0x40 MSTORE CALLVALUE DUP1 ISZERO PUSH2 0xF JUMPI PUSH0 DUP1 REVERT JUMPDEST POP PUSH1 0x4 CALLDATASIZE LT PUSH2 0x12A JUMPI PUSH0 CALLDATALOAD PUSH1 0xE0 SHR DUP1 PUSH4 0x70A08231 GT PUSH2 0xAB JUMPI DUP1 PUSH4 0xB88D4FDE GT PUSH2 0x6F JUMPI DUP1 PUSH4 0xB88D4FDE EQ PUSH2 0x377 JUMPI DUP1 PUSH4 0xC87B56DD EQ PUSH2 0x393 JUMPI DUP1 PUSH4 0xE149F036 EQ PUSH2 0x3C3 JUMPI DUP1 PUSH4 0xE985E9C5 EQ PUSH2 0x3F3 JUMPI DUP1 PUSH4 0xF42C69D6 EQ PUSH2 0x423 JUMPI PUSH2 0x12A JUMP JUMPDEST DUP1 PUSH4 0x70A08231 EQ PUSH2 0x2AC JUMPI DUP1 PUSH4 0x7D4CD847 EQ PUSH2 0x2DC JUMPI DUP1 PUSH4 0x95D89B41 EQ PUSH2 0x30D JUMPI DUP1 PUSH4 0xA22CB465 EQ PUSH2 0x32B JUMPI DUP1 PUSH4 0xB2C3A717 EQ PUSH2 0x347 JUMPI PUSH2 0x12A JUMP JUMPDEST DUP1 PUSH4 0x23B872DD GT PUSH2 0xF2 JUMPI DUP1 PUSH4 0x23B872DD EQ PUSH2 0x1F8 JUMPI DUP1 PUSH4 0x2890E0D7 EQ PUSH2 0x214 JUMPI DUP1 PUSH4 0x42842E0E EQ PUSH2 0x244 JUMPI DUP1 PUSH4 0x42966C68 EQ PUSH2 0x260 JUMPI DUP1 PUSH4 0x6352211E EQ PUSH2 0x27C JUMPI PUSH2 0x12A JUMP JUMPDEST DUP1 PUSH4 0x1FFC9A7 EQ PUSH2 0x12E JUMPI DUP1 PUSH4 0x6FDDE03 EQ PUSH2 0x15E JUMPI DUP1 PUSH4 0x81812FC EQ PUSH2 0x17C JUMPI DUP1 PUSH4 0x890D80C EQ PUSH2 0x1AC JUMPI DUP1 PUSH4 0x95EA7B3 EQ PUSH2 0x1DC JUMPI JUMPDEST PUSH0 DUP1 REVERT JUMPDEST PUSH2 0x148 PUSH1 0x4 DUP1 CALLDATASIZE SUB DUP2 ADD SWAP1 PUSH2 0x143 SWAP2 SWAP1 PUSH2 0x1F61 JUMP JUMPDEST PUSH2 0x453 JUMP JUMPDEST PUSH1 0x40 MLOAD PUSH2 0x155 SWAP2 SWAP1 PUSH2 0x1FA6 JUMP JUMPDEST PUSH1 0x40 MLOAD DUP1 SWAP2 SUB SWAP1 RETURN JUMPDEST PUSH2 0x166 PUSH2 0x534 JUMP JUMPDEST PUSH1 0x40 MLOAD PUSH2 0x173 SWAP2 SWAP1 PUSH2 0x2049 JUMP JUMPDEST PUSH1 0x40 MLOAD DUP1 SWAP2 SUB SWAP1 RETURN JUMPDEST PUSH2 0x196 PUSH1 0x4 DUP1 CALLDATASIZE SUB DUP2 ADD SWAP1 PUSH2 0x191 SWAP2 SWAP1 PUSH2 0x209C JUMP JUMPDEST PUSH2 0x5C3 JUMP JUMPDEST PUSH1 0x40 MLOAD PUSH2 0x1A3 SWAP2 SWAP1 PUSH2 0x2106 JUMP JUMPDEST PUSH1 0x40 MLOAD DUP1 SWAP2 SUB SWAP1 RETURN JUMPDEST PUSH2 0x1C6 PUSH1 0x4 DUP1 CALLDATASIZE SUB DUP2 ADD SWAP1 PUSH2 0x1C1 SWAP2 SWAP1 PUSH2 0x224B JUMP JUMPDEST PUSH2 0x605 JUMP JUMPDEST PUSH1 0x40 MLOAD PUSH2 0x1D3 SWAP2 SWAP1 PUSH2 0x1FA6 JUMP JUMPDEST PUSH1 0x40 MLOAD DUP1 SWAP2 SUB SWAP1 RETURN JUMPDEST PUSH2 0x1F6 PUSH1 0x4 DUP1 CALLDATASIZE SUB DUP2 ADD SWAP1 PUSH2 0x1F1 SWAP2 SWAP1 PUSH2 0x2319 JUMP JUMPDEST PUSH2 0x641 JUMP JUMPDEST STOP JUMPDEST PUSH2 0x212 PUSH1 0x4 DUP1 CALLDATASIZE SUB DUP2 ADD SWAP1 PUSH2 0x20D SWAP2 SWAP1 PUSH2 0x2357 JUMP JUMPDEST PUSH2 0x757 JUMP JUMPDEST STOP JUMPDEST PUSH2 0x22E PUSH1 0x4 DUP1 CALLDATASIZE SUB DUP2 ADD SWAP1 PUSH2 0x229 SWAP2 SWAP1 PUSH2 0x209C JUMP JUMPDEST PUSH2 0x7B7 JUMP JUMPDEST PUSH1 0x40 MLOAD PUSH2 0x23B SWAP2 SWAP1 PUSH2 0x1FA6 JUMP JUMPDEST PUSH1 0x40 MLOAD DUP1 SWAP2 SUB SWAP1 RETURN JUMPDEST PUSH2 0x25E PUSH1 0x4 DUP1 CALLDATASIZE SUB DUP2 ADD SWAP1 PUSH2 0x259 SWAP2 SWAP1 PUSH2 0x2357 JUMP JUMPDEST PUSH2 0x7CA JUMP JUMPDEST STOP JUMPDEST PUSH2 0x27A PUSH1 0x4 DUP1 CALLDATASIZE SUB DUP2 ADD SWAP1 PUSH2 0x275 SWAP2 SWAP1 PUSH2 0x209C JUMP JUMPDEST PUSH2 0x7E9 JUMP JUMPDEST STOP JUMPDEST PUSH2 0x296 PUSH1 0x4 DUP1 CALLDATASIZE SUB DUP2 ADD SWAP1 PUSH2 0x291 SWAP2 SWAP1 PUSH2 0x209C JUMP JUMPDEST PUSH2 0x845 JUMP JUMPDEST PUSH1 0x40 MLOAD PUSH2 0x2A3 SWAP2 SWAP1 PUSH2 0x2106 JUMP JUMPDEST PUSH1 0x40 MLOAD DUP1 SWAP2 SUB SWAP1 RETURN JUMPDEST PUSH2 0x2C6 PUSH1 0x4 DUP1 CALLDATASIZE SUB DUP2 ADD SWAP1 PUSH2 0x2C1 SWAP2 SWAP1 PUSH2 0x23A7 JUMP JUMPDEST PUSH2 0x8C9 JUMP JUMPDEST PUSH1 0x40 MLOAD PUSH2 0x2D3 SWAP2 SWAP1 PUSH2 0x23E1 JUMP JUMPDEST PUSH1 0x40 MLOAD DUP1 SWAP2 SUB SWAP1 RETURN JUMPDEST PUSH2 0x2F6 PUSH1 0x4 DUP1 CALLDATASIZE SUB DUP2 ADD SWAP1 PUSH2 0x2F1 SWAP2 SWAP1 PUSH2 0x209C JUMP JUMPDEST PUSH2 0x97D JUMP JUMPDEST PUSH1 0x40 MLOAD PUSH2 0x304 SWAP3 SWAP2 SWAP1 PUSH2 0x23FA JUMP JUMPDEST PUSH1 0x40 MLOAD DUP1 SWAP2 SUB SWAP1 RETURN JUMPDEST PUSH2 0x315 PUSH2 0x99D JUMP JUMPDEST PUSH1 0x40 MLOAD PUSH2 0x322 SWAP2 SWAP1 PUSH2 0x2049 JUMP JUMPDEST PUSH1 0x40 MLOAD DUP1 SWAP2 SUB SWAP1 RETURN JUMPDEST PUSH2 0x345 PUSH1 0x4 DUP1 CALLDATASIZE SUB DUP2 ADD SWAP1 PUSH2 0x340 SWAP2 SWAP1 PUSH2 0x244B JUMP JUMPDEST PUSH2 0xA2D JUMP JUMPDEST STOP JUMPDEST PUSH2 0x361 PUSH1 0x4 DUP1 CALLDATASIZE SUB DUP2 ADD SWAP1 PUSH2 0x35C SWAP2 SWAP1 PUSH2 0x2489 JUMP JUMPDEST PUSH2 0xA43 JUMP JUMPDEST PUSH1 0x40 MLOAD PUSH2 0x36E SWAP2 SWAP1 PUSH2 0x1FA6 JUMP JUMPDEST PUSH1 0x40 MLOAD DUP1 SWAP2 SUB SWAP1 RETURN JUMPDEST PUSH2 0x391 PUSH1 0x4 DUP1 CALLDATASIZE SUB DUP2 ADD SWAP1 PUSH2 0x38C SWAP2 SWAP1 PUSH2 0x2577 JUMP JUMPDEST PUSH2 0xB62 JUMP JUMPDEST STOP JUMPDEST PUSH2 0x3AD PUSH1 0x4 DUP1 CALLDATASIZE SUB DUP2 ADD SWAP1 PUSH2 0x3A8 SWAP2 SWAP1 PUSH2 0x209C JUMP JUMPDEST PUSH2 0xBC4 JUMP JUMPDEST PUSH1 0x40 MLOAD PUSH2 0x3BA SWAP2 SWAP1 PUSH2 0x2049 JUMP JUMPDEST PUSH1 0x40 MLOAD DUP1 SWAP2 SUB SWAP1 RETURN JUMPDEST PUSH2 0x3DD PUSH1 0x4 DUP1 CALLDATASIZE SUB DUP2 ADD SWAP1 PUSH2 0x3D8 SWAP2 SWAP1 PUSH2 0x2319 JUMP JUMPDEST PUSH2 0xBFD JUMP JUMPDEST PUSH1 0x40 MLOAD PUSH2 0x3EA SWAP2 SWAP1 PUSH2 0x23E1 JUMP JUMPDEST PUSH1 0x40 MLOAD DUP1 SWAP2 SUB SWAP1 RETURN JUMPDEST PUSH2 0x40D PUSH1 0x4 DUP1 CALLDATASIZE SUB DUP2 ADD SWAP1 PUSH2 0x408 SWAP2 SWAP1 PUSH2 0x25F7 JUMP JUMPDEST PUSH2 0xC28 JUMP JUMPDEST PUSH1 0x40 MLOAD PUSH2 0x41A SWAP2 SWAP1 PUSH2 0x1FA6 JUMP JUMPDEST PUSH1 0x40 MLOAD DUP1 SWAP2 SUB SWAP1 RETURN JUMPDEST PUSH2 0x43D PUSH1 0x4 DUP1 CALLDATASIZE SUB DUP2 ADD SWAP1 PUSH2 0x438 SWAP2 SWAP1 PUSH2 0x244B JUMP JUMPDEST PUSH2 0xCB6 JUMP JUMPDEST PUSH1 0x40 MLOAD PUSH2 0x44A SWAP2 SWAP1 PUSH2 0x23E1 JUMP JUMPDEST PUSH1 0x40 MLOAD DUP1 SWAP2 SUB SWAP1 RETURN JUMPDEST PUSH0 PUSH32 0x80AC58CD00000000000000000000000000000000000000000000000000000000 PUSH28 0xFFFFFFFFFFFFFFFFFFFFFFFFFFFFFFFFFFFFFFFFFFFFFFFFFFFFFFFF NOT AND DUP3 PUSH28 0xFFFFFFFFFFFFFFFFFFFFFFFFFFFFFFFFFFFFFFFFFFFFFFFFFFFFFFFF NOT AND EQ DUP1 PUSH2 0x51D JUMPI POP PUSH32 0x5B5E139F00000000000000000000000000000000000000000000000000000000 PUSH28 0xFFFFFFFFFFFFFFFFFFFFFFFFFFFFFFFFFFFFFFFFFFFFFFFFFFFFFFFF NOT AND DUP3 PUSH28 0xFFFFFFFFFFFFFFFFFFFFFFFFFFFFFFFFFFFFFFFFFFFFFFFFFFFFFFFF NOT AND EQ JUMPDEST DUP1 PUSH2 0x52D JUMPI POP PUSH2 0x52C DUP3 PUSH2 0xE17 JUMP JUMPDEST JUMPDEST SWAP1 POP SWAP2 SWAP1 POP JUMP JUMPDEST PUSH1 0x60 PUSH0 DUP1 SLOAD PUSH2 0x542 SWAP1 PUSH2 0x2662 JUMP JUMPDEST DUP1 PUSH1 0x1F ADD PUSH1 0x20 DUP1 SWAP2 DIV MUL PUSH1 0x20 ADD PUSH1 0x40 MLOAD SWAP1 DUP2 ADD PUSH1 0x40 MSTORE DUP1 SWAP3 SWAP2 SWAP1 DUP2 DUP2 MSTORE PUSH1 0x20 ADD DUP3 DUP1 SLOAD PUSH2 0x56E SWAP1 PUSH2 0x2662 JUMP JUMPDEST DUP1 ISZERO PUSH2 0x5B9 JUMPI DUP1 PUSH1 0x1F LT PUSH2 0x590 JUMPI PUSH2 0x100 DUP1 DUP4 SLOAD DIV MUL DUP4 MSTORE SWAP2 PUSH1 0x20 ADD SWAP2 PUSH2 0x5B9 JUMP JUMPDEST DUP3 ADD SWAP2 SWAP1 PUSH0 MSTORE PUSH1 0x20 PUSH0 KECCAK256 SWAP1 JUMPDEST DUP2 SLOAD DUP2 MSTORE SWAP1 PUSH1 0x1 ADD SWAP1 PUSH1 0x20 ADD DUP1 DUP4 GT PUSH2 0x59C JUMPI DUP3 SWAP1 SUB PUSH1 0x1F AND DUP3 ADD SWAP2 JUMPDEST POP POP POP POP POP SWAP1 POP SWAP1 JUMP JUMPDEST PUSH0 PUSH2 0x5CD DUP3 PUSH2 0xE80 JUMP JUMPDEST PUSH1 0x4 PUSH0 DUP4 DUP2 MSTORE PUSH1 0x20 ADD SWAP1 DUP2 MSTORE PUSH1 0x20 ADD PUSH0 KECCAK256 PUSH0 SWAP1 SLOAD SWAP1 PUSH2 0x100 EXP SWAP1 DIV PUSH20 0xFFFFFFFFFFFFFFFFFFFFFFFFFFFFFFFFFFFFFFFF AND SWAP1 POP SWAP2 SWAP1 POP JUMP JUMPDEST PUSH0 DUP4 PUSH1 0xA SWAP1 DUP2 PUSH2 0x615 SWAP2 SWAP1 PUSH2 0x282F JUMP JUMPDEST POP DUP3 PUSH1 0xB SWAP1 DUP2 PUSH2 0x625 SWAP2 SWAP1 PUSH2 0x282F JUMP JUMPDEST POP DUP2 PUSH1 0xC SWAP1 DUP2 PUSH2 0x635 SWAP2 SWAP1 PUSH2 0x282F JUMP JUMPDEST POP PUSH1 0x1 SWAP1 POP SWAP4 SWAP3 POP POP POP JUMP JUMPDEST PUSH0 PUSH2 0x64B DUP3 PUSH2 0x845 JUMP JUMPDEST SWAP1 POP DUP1 PUSH20 0xFFFFFFFFFFFFFFFFFFFFFFFFFFFFFFFFFFFFFFFF AND DUP4 PUSH20 0xFFFFFFFFFFFFFFFFFFFFFFFFFFFFFFFFFFFFFFFF AND SUB PUSH2 0x6BB JUMPI PUSH1 0x40 MLOAD PUSH32 0x8C379A000000000000000000000000000000000000000000000000000000000 DUP2 MSTORE PUSH1 0x4 ADD PUSH2 0x6B2 SWAP1 PUSH2 0x296E JUMP JUMPDEST PUSH1 0x40 MLOAD DUP1 SWAP2 SUB SWAP1 REVERT JUMPDEST DUP1 PUSH20 0xFFFFFFFFFFFFFFFFFFFFFFFFFFFFFFFFFFFFFFFF AND PUSH2 0x6DA PUSH2 0xECB JUMP JUMPDEST PUSH20 0xFFFFFFFFFFFFFFFFFFFFFFFFFFFFFFFFFFFFFFFF AND EQ DUP1 PUSH2 0x709 JUMPI POP PUSH2 0x708 DUP2 PUSH2 0x703 PUSH2 0xECB JUMP JUMPDEST PUSH2 0xC28 JUMP JUMPDEST JUMPDEST PUSH2 0x748 JUMPI PUSH1 0x40 MLOAD PUSH32 0x8C379A000000000000000000000000000000000000000000000000000000000 DUP2 MSTORE PUSH1 0x4 ADD PUSH2 0x73F SWAP1 PUSH2 0x29FC JUMP JUMPDEST PUSH1 0x40 MLOAD DUP1 SWAP2 SUB SWAP1 REVERT JUMPDEST PUSH2 0x752 DUP4 DUP4 PUSH2 0xED2 JUMP JUMPDEST POP POP POP JUMP JUMPDEST PUSH2 0x768 PUSH2 0x762 PUSH2 0xECB JUMP JUMPDEST DUP3 PUSH2 0xF88 JUMP JUMPDEST PUSH2 0x7A7 JUMPI PUSH1 0x40 MLOAD PUSH32 0x8C379A000000000000000000000000000000000000000000000000000000000 DUP2 MSTORE PUSH1 0x4 ADD PUSH2 0x79E SWAP1 PUSH2 0x2A8A JUMP JUMPDEST PUSH1 0x40 MLOAD DUP1 SWAP2 SUB SWAP1 REVERT JUMPDEST PUSH2 0x7B2 DUP4 DUP4 DUP4 PUSH2 0x101C JUMP JUMPDEST POP POP POP JUMP JUMPDEST PUSH0 PUSH2 0x7C1 DUP3 PUSH2 0x1308 JUMP JUMPDEST PUSH1 0x1 SWAP1 POP SWAP2 SWAP1 POP JUMP JUMPDEST PUSH2 0x7E4 DUP4 DUP4 DUP4 PUSH1 0x40 MLOAD DUP1 PUSH1 0x20 ADD PUSH1 0x40 MSTORE DUP1 PUSH0 DUP2 MSTORE POP PUSH2 0xB62 JUMP JUMPDEST POP POP POP JUMP JUMPDEST PUSH2 0x7FA PUSH2 0x7F4 PUSH2 0xECB JUMP JUMPDEST DUP3 PUSH2 0xF88 JUMP JUMPDEST PUSH2 0x839 JUMPI PUSH1 0x40 MLOAD PUSH32 0x8C379A000000000000000000000000000000000000000000000000000000000 DUP2 MSTORE PUSH1 0x4 ADD PUSH2 0x830 SWAP1 PUSH2 0x2A8A JUMP JUMPDEST PUSH1 0x40 MLOAD DUP1 SWAP2 SUB SWAP1 REVERT JUMPDEST PUSH2 0x842 DUP2 PUSH2 0x1308 JUMP JUMPDEST POP JUMP JUMPDEST PUSH0 DUP1 PUSH2 0x850 DUP4 PUSH2 0x1449 JUMP JUMPDEST SWAP1 POP PUSH0 PUSH20 0xFFFFFFFFFFFFFFFFFFFFFFFFFFFFFFFFFFFFFFFF AND DUP2 PUSH20 0xFFFFFFFFFFFFFFFFFFFFFFFFFFFFFFFFFFFFFFFF AND SUB PUSH2 0x8C0 JUMPI PUSH1 0x40 MLOAD PUSH32 0x8C379A000000000000000000000000000000000000000000000000000000000 DUP2 MSTORE PUSH1 0x4 ADD PUSH2 0x8B7 SWAP1 PUSH2 0x2AF2 JUMP JUMPDEST PUSH1 0x40 MLOAD DUP1 SWAP2 SUB SWAP1 REVERT JUMPDEST DUP1 SWAP2 POP POP SWAP2 SWAP1 POP JUMP JUMPDEST PUSH0 DUP1 PUSH20 0xFFFFFFFFFFFFFFFFFFFFFFFFFFFFFFFFFFFFFFFF AND DUP3 PUSH20 0xFFFFFFFFFFFFFFFFFFFFFFFFFFFFFFFFFFFFFFFF AND SUB PUSH2 0x938 JUMPI PUSH1 0x40 MLOAD PUSH32 0x8C379A000000000000000000000000000000000000000000000000000000000 DUP2 MSTORE PUSH1 0x4 ADD PUSH2 0x92F SWAP1 PUSH2 0x2B80 JUMP JUMPDEST PUSH1 0x40 MLOAD DUP1 SWAP2 SUB SWAP1 REVERT JUMPDEST PUSH1 0x3 PUSH0 DUP4 PUSH20 0xFFFFFFFFFFFFFFFFFFFFFFFFFFFFFFFFFFFFFFFF AND PUSH20 0xFFFFFFFFFFFFFFFFFFFFFFFFFFFFFFFFFFFFFFFF AND DUP2 MSTORE PUSH1 0x20 ADD SWAP1 DUP2 MSTORE PUSH1 0x20 ADD PUSH0 KECCAK256 SLOAD SWAP1 POP SWAP2 SWAP1 POP JUMP JUMPDEST PUSH1 0xD PUSH1 0x20 MSTORE DUP1 PUSH0 MSTORE PUSH1 0x40 PUSH0 KECCAK256 PUSH0 SWAP2 POP SWAP1 POP DUP1 PUSH0 ADD SLOAD SWAP1 DUP1 PUSH1 0x1 ADD SLOAD SWAP1 POP DUP3 JUMP JUMPDEST PUSH1 0x60 PUSH1 0x1 DUP1 SLOAD PUSH2 0x9AC SWAP1 PUSH2 0x2662 JUMP JUMPDEST DUP1 PUSH1 0x1F ADD PUSH1 0x20 DUP1 SWAP2 DIV MUL PUSH1 0x20 ADD PUSH1 0x40 MLOAD SWAP1 DUP2 ADD PUSH1 0x40 MSTORE DUP1 SWAP3 SWAP2 SWAP1 DUP2 DUP2 MSTORE PUSH1 0x20 ADD DUP3 DUP1 SLOAD PUSH2 0x9D8 SWAP1 PUSH2 0x2662 JUMP JUMPDEST DUP1 ISZERO PUSH2 0xA23 JUMPI DUP1 PUSH1 0x1F LT PUSH2 0x9FA JUMPI PUSH2 0x100 DUP1 DUP4 SLOAD DIV MUL DUP4 MSTORE SWAP2 PUSH1 0x20 ADD SWAP2 PUSH2 0xA23 JUMP JUMPDEST DUP3 ADD SWAP2 SWAP1 PUSH0 MSTORE PUSH1 0x20 PUSH0 KECCAK256 SWAP1 JUMPDEST DUP2 SLOAD DUP2 MSTORE SWAP1 PUSH1 0x1 ADD SWAP1 PUSH1 0x20 ADD DUP1 DUP4 GT PUSH2 0xA06 JUMPI DUP3 SWAP1 SUB PUSH1 0x1F AND DUP3 ADD SWAP2 JUMPDEST POP POP POP POP POP SWAP1 POP SWAP1 JUMP JUMPDEST PUSH2 0xA3F PUSH2 0xA38 PUSH2 0xECB JUMP JUMPDEST DUP4 DUP4 PUSH2 0x1482 JUMP JUMPDEST POP POP JUMP JUMPDEST PUSH0 PUSH2 0xA4D DUP4 PUSH2 0x15E9 JUMP JUMPDEST POP PUSH1 0x7 PUSH0 SWAP1 SLOAD SWAP1 PUSH2 0x100 EXP SWAP1 DIV PUSH20 0xFFFFFFFFFFFFFFFFFFFFFFFFFFFFFFFFFFFFFFFF AND PUSH20 0xFFFFFFFFFFFFFFFFFFFFFFFFFFFFFFFFFFFFFFFF AND PUSH4 0x469895C8 CALLER PUSH1 0x8 PUSH0 SWAP1 SLOAD SWAP1 PUSH2 0x100 EXP SWAP1 DIV PUSH20 0xFFFFFFFFFFFFFFFFFFFFFFFFFFFFFFFFFFFFFFFF AND DUP8 PUSH1 0x40 MLOAD DUP5 PUSH4 0xFFFFFFFF AND PUSH1 0xE0 SHL DUP2 MSTORE PUSH1 0x4 ADD PUSH2 0xACD SWAP4 SWAP3 SWAP2 SWAP1 PUSH2 0x2B9E JUMP JUMPDEST PUSH1 0x20 PUSH1 0x40 MLOAD DUP1 DUP4 SUB DUP2 PUSH0 DUP8 GAS CALL ISZERO DUP1 ISZERO PUSH2 0xAE9 JUMPI RETURNDATASIZE PUSH0 DUP1 RETURNDATACOPY RETURNDATASIZE PUSH0 REVERT JUMPDEST POP POP POP POP PUSH1 0x40 MLOAD RETURNDATASIZE PUSH1 0x1F NOT PUSH1 0x1F DUP3 ADD AND DUP3 ADD DUP1 PUSH1 0x40 MSTORE POP DUP2 ADD SWAP1 PUSH2 0xB0D SWAP2 SWAP1 PUSH2 0x2BE7 JUMP JUMPDEST PUSH2 0xB4C JUMPI PUSH1 0x40 MLOAD PUSH32 0x8C379A000000000000000000000000000000000000000000000000000000000 DUP2 MSTORE PUSH1 0x4 ADD PUSH2 0xB43 SWAP1 PUSH2 0x2C5C JUMP JUMPDEST PUSH1 0x40 MLOAD DUP1 SWAP2 SUB SWAP1 REVERT JUMPDEST PUSH2 0xB56 DUP5 DUP4 PUSH2 0x16A1 JUMP JUMPDEST POP PUSH1 0x1 SWAP1 POP SWAP4 SWAP3 POP POP POP JUMP JUMPDEST PUSH2 0xB73 PUSH2 0xB6D PUSH2 0xECB JUMP JUMPDEST DUP4 PUSH2 0xF88 JUMP JUMPDEST PUSH2 0xBB2 JUMPI PUSH1 0x40 MLOAD PUSH32 0x8C379A000000000000000000000000000000000000000000000000000000000 DUP2 MSTORE PUSH1 0x4 ADD PUSH2 0xBA9 SWAP1 PUSH2 0x2A8A JUMP JUMPDEST PUSH1 0x40 MLOAD DUP1 SWAP2 SUB SWAP1 REVERT JUMPDEST PUSH2 0xBBE DUP5 DUP5 DUP5 DUP5 PUSH2 0x171B JUMP JUMPDEST POP POP POP POP JUMP JUMPDEST PUSH1 0x60 PUSH2 0xBCF DUP3 PUSH2 0xE80 JUMP JUMPDEST PUSH1 0xA PUSH1 0xB PUSH1 0xC PUSH1 0x40 MLOAD PUSH1 0x20 ADD PUSH2 0xBE7 SWAP4 SWAP3 SWAP2 SWAP1 PUSH2 0x2E2C JUMP JUMPDEST PUSH1 0x40 MLOAD PUSH1 0x20 DUP2 DUP4 SUB SUB DUP2 MSTORE SWAP1 PUSH1 0x40 MSTORE SWAP1 POP SWAP2 SWAP1 POP JUMP JUMPDEST PUSH1 0xE PUSH1 0x20 MSTORE DUP2 PUSH0 MSTORE PUSH1 0x40 PUSH0 KECCAK256 DUP2 DUP2 SLOAD DUP2 LT PUSH2 0xC16 JUMPI PUSH0 DUP1 REVERT JUMPDEST SWAP1 PUSH0 MSTORE PUSH1 0x20 PUSH0 KECCAK256 ADD PUSH0 SWAP2 POP SWAP2 POP POP SLOAD DUP2 JUMP JUMPDEST PUSH0 PUSH1 0x5 PUSH0 DUP5 PUSH20 0xFFFFFFFFFFFFFFFFFFFFFFFFFFFFFFFFFFFFFFFF AND PUSH20 0xFFFFFFFFFFFFFFFFFFFFFFFFFFFFFFFFFFFFFFFF AND DUP2 MSTORE PUSH1 0x20 ADD SWAP1 DUP2 MSTORE PUSH1 0x20 ADD PUSH0 KECCAK256 PUSH0 DUP4 PUSH20 0xFFFFFFFFFFFFFFFFFFFFFFFFFFFFFFFFFFFFFFFF AND PUSH20 0xFFFFFFFFFFFFFFFFFFFFFFFFFFFFFFFFFFFFFFFF AND DUP2 MSTORE PUSH1 0x20 ADD SWAP1 DUP2 MSTORE PUSH1 0x20 ADD PUSH0 KECCAK256 PUSH0 SWAP1 SLOAD SWAP1 PUSH2 0x100 EXP SWAP1 DIV PUSH1 0xFF AND SWAP1 POP SWAP3 SWAP2 POP POP JUMP JUMPDEST PUSH0 DUP1 PUSH2 0xCC2 PUSH1 0x6 PUSH2 0x1777 JUMP JUMPDEST SWAP1 POP PUSH2 0xCDD DUP5 DUP3 PUSH1 0x40 MLOAD DUP1 PUSH1 0x20 ADD PUSH1 0x40 MSTORE DUP1 PUSH0 DUP2 MSTORE POP PUSH2 0x1783 JUMP JUMPDEST DUP3 ISZERO PUSH2 0xD26 JUMPI PUSH1 0x40 MLOAD DUP1 PUSH1 0x40 ADD PUSH1 0x40 MSTORE DUP1 TIMESTAMP DUP2 MSTORE PUSH1 0x20 ADD PUSH3 0xED4E00 DUP2 MSTORE POP PUSH1 0xD PUSH0 DUP4 DUP2 MSTORE PUSH1 0x20 ADD SWAP1 DUP2 MSTORE PUSH1 0x20 ADD PUSH0 KECCAK256 PUSH0 DUP3 ADD MLOAD DUP2 PUSH0 ADD SSTORE PUSH1 0x20 DUP3 ADD MLOAD DUP2 PUSH1 0x1 ADD SSTORE SWAP1 POP POP PUSH2 0xD62 JUMP JUMPDEST PUSH1 0x40 MLOAD DUP1 PUSH1 0x40 ADD PUSH1 0x40 MSTORE DUP1 TIMESTAMP DUP2 MSTORE PUSH1 0x20 ADD PUSH0 DUP2 MSTORE POP PUSH1 0xD PUSH0 DUP4 DUP2 MSTORE PUSH1 0x20 ADD SWAP1 DUP2 MSTORE PUSH1 0x20 ADD PUSH0 KECCAK256 PUSH0 DUP3 ADD MLOAD DUP2 PUSH0 ADD SSTORE PUSH1 0x20 DUP3 ADD MLOAD DUP2 PUSH1 0x1 ADD SSTORE SWAP1 POP POP JUMPDEST PUSH1 0xE PUSH0 DUP6 PUSH20 0xFFFFFFFFFFFFFFFFFFFFFFFFFFFFFFFFFFFFFFFF AND PUSH20 0xFFFFFFFFFFFFFFFFFFFFFFFFFFFFFFFFFFFFFFFF AND DUP2 MSTORE PUSH1 0x20 ADD SWAP1 DUP2 MSTORE PUSH1 0x20 ADD PUSH0 KECCAK256 DUP2 SWAP1 DUP1 PUSH1 0x1 DUP2 SLOAD ADD DUP1 DUP3 SSTORE DUP1 SWAP2 POP POP PUSH1 0x1 SWAP1 SUB SWAP1 PUSH0 MSTORE PUSH1 0x20 PUSH0 KECCAK256 ADD PUSH0 SWAP1 SWAP2 SWAP1 SWAP2 SWAP1 SWAP2 POP SSTORE PUSH2 0xDCD PUSH1 0x6 PUSH2 0x17DD JUMP JUMPDEST PUSH1 0xE PUSH0 DUP6 PUSH20 0xFFFFFFFFFFFFFFFFFFFFFFFFFFFFFFFFFFFFFFFF AND PUSH20 0xFFFFFFFFFFFFFFFFFFFFFFFFFFFFFFFFFFFFFFFF AND DUP2 MSTORE PUSH1 0x20 ADD SWAP1 DUP2 MSTORE PUSH1 0x20 ADD PUSH0 KECCAK256 DUP1 SLOAD SWAP1 POP SWAP2 POP POP SWAP3 SWAP2 POP POP JUMP JUMPDEST PUSH0 PUSH32 0x1FFC9A700000000000000000000000000000000000000000000000000000000 PUSH28 0xFFFFFFFFFFFFFFFFFFFFFFFFFFFFFFFFFFFFFFFFFFFFFFFFFFFFFFFF NOT AND DUP3 PUSH28 0xFFFFFFFFFFFFFFFFFFFFFFFFFFFFFFFFFFFFFFFFFFFFFFFFFFFFFFFF NOT AND EQ SWAP1 POP SWAP2 SWAP1 POP JUMP JUMPDEST PUSH2 0xE89 DUP2 PUSH2 0x17F1 JUMP JUMPDEST PUSH2 0xEC8 JUMPI PUSH1 0x40 MLOAD PUSH32 0x8C379A000000000000000000000000000000000000000000000000000000000 DUP2 MSTORE PUSH1 0x4 ADD PUSH2 0xEBF SWAP1 PUSH2 0x2AF2 JUMP JUMPDEST PUSH1 0x40 MLOAD DUP1 SWAP2 SUB SWAP1 REVERT JUMPDEST POP JUMP JUMPDEST PUSH0 CALLER SWAP1 POP SWAP1 JUMP JUMPDEST DUP2 PUSH1 0x4 PUSH0 DUP4 DUP2 MSTORE PUSH1 0x20 ADD SWAP1 DUP2 MSTORE PUSH1 0x20 ADD PUSH0 KECCAK256 PUSH0 PUSH2 0x100 EXP DUP2 SLOAD DUP2 PUSH20 0xFFFFFFFFFFFFFFFFFFFFFFFFFFFFFFFFFFFFFFFF MUL NOT AND SWAP1 DUP4 PUSH20 0xFFFFFFFFFFFFFFFFFFFFFFFFFFFFFFFFFFFFFFFF AND MUL OR SWAP1 SSTORE POP DUP1 DUP3 PUSH20 0xFFFFFFFFFFFFFFFFFFFFFFFFFFFFFFFFFFFFFFFF AND PUSH2 0xF42 DUP4 PUSH2 0x845 JUMP JUMPDEST PUSH20 0xFFFFFFFFFFFFFFFFFFFFFFFFFFFFFFFFFFFFFFFF AND PUSH32 0x8C5BE1E5EBEC7D5BD14F71427D1E84F3DD0314C0F7B2291E5B200AC8C7C3B925 PUSH1 0x40 MLOAD PUSH1 0x40 MLOAD DUP1 SWAP2 SUB SWAP1 LOG4 POP POP JUMP JUMPDEST PUSH0 DUP1 PUSH2 0xF93 DUP4 PUSH2 0x845 JUMP JUMPDEST SWAP1 POP DUP1 PUSH20 0xFFFFFFFFFFFFFFFFFFFFFFFFFFFFFFFFFFFFFFFF AND DUP5 PUSH20 0xFFFFFFFFFFFFFFFFFFFFFFFFFFFFFFFFFFFFFFFF AND EQ DUP1 PUSH2 0xFD5 JUMPI POP PUSH2 0xFD4 DUP2 DUP6 PUSH2 0xC28 JUMP JUMPDEST JUMPDEST DUP1 PUSH2 0x1013 JUMPI POP DUP4 PUSH20 0xFFFFFFFFFFFFFFFFFFFFFFFFFFFFFFFFFFFFFFFF AND PUSH2 0xFFB DUP5 PUSH2 0x5C3 JUMP JUMPDEST PUSH20 0xFFFFFFFFFFFFFFFFFFFFFFFFFFFFFFFFFFFFFFFF AND EQ JUMPDEST SWAP2 POP POP SWAP3 SWAP2 POP POP JUMP JUMPDEST DUP3 PUSH20 0xFFFFFFFFFFFFFFFFFFFFFFFFFFFFFFFFFFFFFFFF AND PUSH2 0x103C DUP3 PUSH2 0x845 JUMP JUMPDEST PUSH20 0xFFFFFFFFFFFFFFFFFFFFFFFFFFFFFFFFFFFFFFFF AND EQ PUSH2 0x1092 JUMPI PUSH1 0x40 MLOAD PUSH32 0x8C379A000000000000000000000000000000000000000000000000000000000 DUP2 MSTORE PUSH1 0x4 ADD PUSH2 0x1089 SWAP1 PUSH2 0x2EF8 JUMP JUMPDEST PUSH1 0x40 MLOAD DUP1 SWAP2 SUB SWAP1 REVERT JUMPDEST PUSH0 PUSH20 0xFFFFFFFFFFFFFFFFFFFFFFFFFFFFFFFFFFFFFFFF AND DUP3 PUSH20 0xFFFFFFFFFFFFFFFFFFFFFFFFFFFFFFFFFFFFFFFF AND SUB PUSH2 0x1100 JUMPI PUSH1 0x40 MLOAD PUSH32 0x8C379A000000000000000000000000000000000000000000000000000000000 DUP2 MSTORE PUSH1 0x4 ADD PUSH2 0x10F7 SWAP1 PUSH2 0x2F86 JUMP JUMPDEST PUSH1 0x40 MLOAD DUP1 SWAP2 SUB SWAP1 REVERT JUMPDEST PUSH2 0x110D DUP4 DUP4 DUP4 PUSH1 0x1 PUSH2 0x1831 JUMP JUMPDEST DUP3 PUSH20 0xFFFFFFFFFFFFFFFFFFFFFFFFFFFFFFFFFFFFFFFF AND PUSH2 0x112D DUP3 PUSH2 0x845 JUMP JUMPDEST PUSH20 0xFFFFFFFFFFFFFFFFFFFFFFFFFFFFFFFFFFFFFFFF AND EQ PUSH2 0x1183 JUMPI PUSH1 0x40 MLOAD PUSH32 0x8C379A000000000000000000000000000000000000000000000000000000000 DUP2 MSTORE PUSH1 0x4 ADD PUSH2 0x117A SWAP1 PUSH2 0x2EF8 JUMP JUMPDEST PUSH1 0x40 MLOAD DUP1 SWAP2 SUB SWAP1 REVERT JUMPDEST PUSH1 0x4 PUSH0 DUP3 DUP2 MSTORE PUSH1 0x20 ADD SWAP1 DUP2 MSTORE PUSH1 0x20 ADD PUSH0 KECCAK256 PUSH0 PUSH2 0x100 EXP DUP2 SLOAD SWAP1 PUSH20 0xFFFFFFFFFFFFFFFFFFFFFFFFFFFFFFFFFFFFFFFF MUL NOT AND SWAP1 SSTORE PUSH1 0x1 PUSH1 0x3 PUSH0 DUP6 PUSH20 0xFFFFFFFFFFFFFFFFFFFFFFFFFFFFFFFFFFFFFFFF AND PUSH20 0xFFFFFFFFFFFFFFFFFFFFFFFFFFFFFFFFFFFFFFFF AND DUP2 MSTORE PUSH1 0x20 ADD SWAP1 DUP2 MSTORE PUSH1 0x20 ADD PUSH0 KECCAK256 PUSH0 DUP3 DUP3 SLOAD SUB SWAP3 POP POP DUP2 SWAP1 SSTORE POP PUSH1 0x1 PUSH1 0x3 PUSH0 DUP5 PUSH20 0xFFFFFFFFFFFFFFFFFFFFFFFFFFFFFFFFFFFFFFFF AND PUSH20 0xFFFFFFFFFFFFFFFFFFFFFFFFFFFFFFFFFFFFFFFF AND DUP2 MSTORE PUSH1 0x20 ADD SWAP1 DUP2 MSTORE PUSH1 0x20 ADD PUSH0 KECCAK256 PUSH0 DUP3 DUP3 SLOAD ADD SWAP3 POP POP DUP2 SWAP1 SSTORE POP DUP2 PUSH1 0x2 PUSH0 DUP4 DUP2 MSTORE PUSH1 0x20 ADD SWAP1 DUP2 MSTORE PUSH1 0x20 ADD PUSH0 KECCAK256 PUSH0 PUSH2 0x100 EXP DUP2 SLOAD DUP2 PUSH20 0xFFFFFFFFFFFFFFFFFFFFFFFFFFFFFFFFFFFFFFFF MUL NOT AND SWAP1 DUP4 PUSH20 0xFFFFFFFFFFFFFFFFFFFFFFFFFFFFFFFFFFFFFFFF AND MUL OR SWAP1 SSTORE POP DUP1 DUP3 PUSH20 0xFFFFFFFFFFFFFFFFFFFFFFFFFFFFFFFFFFFFFFFF AND DUP5 PUSH20 0xFFFFFFFFFFFFFFFFFFFFFFFFFFFFFFFFFFFFFFFF AND PUSH32 0xDDF252AD1BE2C89B69C2B068FC378DAA952BA7F163C4A11628F55A4DF523B3EF PUSH1 0x40 MLOAD PUSH1 0x40 MLOAD DUP1 SWAP2 SUB SWAP1 LOG4 PUSH2 0x1303 DUP4 DUP4 DUP4 PUSH1 0x1 PUSH2 0x191D JUMP JUMPDEST POP POP POP JUMP JUMPDEST PUSH0 PUSH2 0x1312 DUP3 PUSH2 0x845 JUMP JUMPDEST SWAP1 POP PUSH2 0x1321 DUP2 PUSH0 DUP5 PUSH1 0x1 PUSH2 0x1831 JUMP JUMPDEST PUSH2 0x132A DUP3 PUSH2 0x845 JUMP JUMPDEST SWAP1 POP PUSH1 0x4 PUSH0 DUP4 DUP2 MSTORE PUSH1 0x20 ADD SWAP1 DUP2 MSTORE PUSH1 0x20 ADD PUSH0 KECCAK256 PUSH0 PUSH2 0x100 EXP DUP2 SLOAD SWAP1 PUSH20 0xFFFFFFFFFFFFFFFFFFFFFFFFFFFFFFFFFFFFFFFF MUL NOT AND SWAP1 SSTORE PUSH1 0x1 PUSH1 0x3 PUSH0 DUP4 PUSH20 0xFFFFFFFFFFFFFFFFFFFFFFFFFFFFFFFFFFFFFFFF AND PUSH20 0xFFFFFFFFFFFFFFFFFFFFFFFFFFFFFFFFFFFFFFFF AND DUP2 MSTORE PUSH1 0x20 ADD SWAP1 DUP2 MSTORE PUSH1 0x20 ADD PUSH0 KECCAK256 PUSH0 DUP3 DUP3 SLOAD SUB SWAP3 POP POP DUP2 SWAP1 SSTORE POP PUSH1 0x2 PUSH0 DUP4 DUP2 MSTORE PUSH1 0x20 ADD SWAP1 DUP2 MSTORE PUSH1 0x20 ADD PUSH0 KECCAK256 PUSH0 PUSH2 0x100 EXP DUP2 SLOAD SWAP1 PUSH20 0xFFFFFFFFFFFFFFFFFFFFFFFFFFFFFFFFFFFFFFFF MUL NOT AND SWAP1 SSTORE DUP2 PUSH0 PUSH20 0xFFFFFFFFFFFFFFFFFFFFFFFFFFFFFFFFFFFFFFFF AND DUP3 PUSH20 0xFFFFFFFFFFFFFFFFFFFFFFFFFFFFFFFFFFFFFFFF AND PUSH32 0xDDF252AD1BE2C89B69C2B068FC378DAA952BA7F163C4A11628F55A4DF523B3EF PUSH1 0x40 MLOAD PUSH1 0x40 MLOAD DUP1 SWAP2 SUB SWAP1 LOG4 PUSH2 0x1445 DUP2 PUSH0 DUP5 PUSH1 0x1 PUSH2 0x191D JUMP JUMPDEST POP POP JUMP JUMPDEST PUSH0 PUSH1 0x2 PUSH0 DUP4 DUP2 MSTORE PUSH1 0x20 ADD SWAP1 DUP2 MSTORE PUSH1 0x20 ADD PUSH0 KECCAK256 PUSH0 SWAP1 SLOAD SWAP1 PUSH2 0x100 EXP SWAP1 DIV PUSH20 0xFFFFFFFFFFFFFFFFFFFFFFFFFFFFFFFFFFFFFFFF AND SWAP1 POP SWAP2 SWAP1 POP JUMP JUMPDEST DUP2 PUSH20 0xFFFFFFFFFFFFFFFFFFFFFFFFFFFFFFFFFFFFFFFF AND DUP4 PUSH20 0xFFFFFFFFFFFFFFFFFFFFFFFFFFFFFFFFFFFFFFFF AND SUB PUSH2 0x14F0 JUMPI PUSH1 0x40 MLOAD PUSH32 0x8C379A000000000000000000000000000000000000000000000000000000000 DUP2 MSTORE PUSH1 0x4 ADD PUSH2 0x14E7 SWAP1 PUSH2 0x2FEE JUMP JUMPDEST PUSH1 0x40 MLOAD DUP1 SWAP2 SUB SWAP1 REVERT JUMPDEST DUP1 PUSH1 0x5 PUSH0 DUP6 PUSH20 0xFFFFFFFFFFFFFFFFFFFFFFFFFFFFFFFFFFFFFFFF AND PUSH20 0xFFFFFFFFFFFFFFFFFFFFFFFFFFFFFFFFFFFFFFFF AND DUP2 MSTORE PUSH1 0x20 ADD SWAP1 DUP2 MSTORE PUSH1 0x20 ADD PUSH0 KECCAK256 PUSH0 DUP5 PUSH20 0xFFFFFFFFFFFFFFFFFFFFFFFFFFFFFFFFFFFFFFFF AND PUSH20 0xFFFFFFFFFFFFFFFFFFFFFFFFFFFFFFFFFFFFFFFF AND DUP2 MSTORE PUSH1 0x20 ADD SWAP1 DUP2 MSTORE PUSH1 0x20 ADD PUSH0 KECCAK256 PUSH0 PUSH2 0x100 EXP DUP2 SLOAD DUP2 PUSH1 0xFF MUL NOT AND SWAP1 DUP4 ISZERO ISZERO MUL OR SWAP1 SSTORE POP DUP2 PUSH20 0xFFFFFFFFFFFFFFFFFFFFFFFFFFFFFFFFFFFFFFFF AND DUP4 PUSH20 0xFFFFFFFFFFFFFFFFFFFFFFFFFFFFFFFFFFFFFFFF AND PUSH32 0x17307EAB39AB6107E8899845AD3D59BD9653F200F220920489CA2B5937696C31 DUP4 PUSH1 0x40 MLOAD PUSH2 0x15DC SWAP2 SWAP1 PUSH2 0x1FA6 JUMP JUMPDEST PUSH1 0x40 MLOAD DUP1 SWAP2 SUB SWAP1 LOG3 POP POP POP JUMP JUMPDEST PUSH0 DUP1 PUSH20 0xFFFFFFFFFFFFFFFFFFFFFFFFFFFFFFFFFFFFFFFF AND DUP3 PUSH20 0xFFFFFFFFFFFFFFFFFFFFFFFFFFFFFFFFFFFFFFFF AND SUB PUSH2 0x1658 JUMPI PUSH1 0x40 MLOAD PUSH32 0x8C379A000000000000000000000000000000000000000000000000000000000 DUP2 MSTORE PUSH1 0x4 ADD PUSH2 0x164F SWAP1 PUSH2 0x3056 JUMP JUMPDEST PUSH1 0x40 MLOAD DUP1 SWAP2 SUB SWAP1 REVERT JUMPDEST DUP2 PUSH1 0x8 PUSH0 PUSH2 0x100 EXP DUP2 SLOAD DUP2 PUSH20 0xFFFFFFFFFFFFFFFFFFFFFFFFFFFFFFFFFFFFFFFF MUL NOT AND SWAP1 DUP4 PUSH20 0xFFFFFFFFFFFFFFFFFFFFFFFFFFFFFFFFFFFFFFFF AND MUL OR SWAP1 SSTORE POP PUSH1 0x1 SWAP1 POP SWAP2 SWAP1 POP JUMP JUMPDEST PUSH0 DUP1 DUP4 EQ PUSH2 0x16E6 JUMPI PUSH1 0x64 DUP4 EQ PUSH2 0x16DC JUMPI PUSH1 0xC8 DUP4 EQ PUSH2 0x16D2 JUMPI PUSH2 0x3E8 DUP4 EQ PUSH2 0x16CB JUMPI PUSH3 0xED4E00 PUSH2 0x16CD JUMP JUMPDEST PUSH0 JUMPDEST PUSH2 0x16D7 JUMP JUMPDEST PUSH3 0x83D600 JUMPDEST PUSH2 0x16E1 JUMP JUMPDEST PUSH3 0xAB6300 JUMPDEST PUSH2 0x16EB JUMP JUMPDEST PUSH3 0xED4E00 JUMPDEST PUSH3 0xFFFFFF AND PUSH1 0x9 DUP2 SWAP1 SSTORE POP PUSH1 0x9 SLOAD PUSH1 0xD PUSH0 DUP5 DUP2 MSTORE PUSH1 0x20 ADD SWAP1 DUP2 MSTORE PUSH1 0x20 ADD PUSH0 KECCAK256 PUSH1 0x1 ADD DUP2 SWAP1 SSTORE POP PUSH1 0x1 SWAP1 POP SWAP3 SWAP2 POP POP JUMP JUMPDEST PUSH2 0x1726 DUP5 DUP5 DUP5 PUSH2 0x101C JUMP JUMPDEST PUSH2 0x1732 DUP5 DUP5 DUP5 DUP5 PUSH2 0x1923 JUMP JUMPDEST PUSH2 0x1771 JUMPI PUSH1 0x40 MLOAD PUSH32 0x8C379A000000000000000000000000000000000000000000000000000000000 DUP2 MSTORE PUSH1 0x4 ADD PUSH2 0x1768 SWAP1 PUSH2 0x30E4 JUMP JUMPDEST PUSH1 0x40 MLOAD DUP1 SWAP2 SUB SWAP1 REVERT JUMPDEST POP POP POP POP JUMP JUMPDEST PUSH0 DUP2 PUSH0 ADD SLOAD SWAP1 POP SWAP2 SWAP1 POP JUMP JUMPDEST PUSH2 0x178D DUP4 DUP4 PUSH2 0x1AA5 JUMP JUMPDEST PUSH2 0x1799 PUSH0 DUP5 DUP5 DUP5 PUSH2 0x1923 JUMP JUMPDEST PUSH2 0x17D8 JUMPI PUSH1 0x40 MLOAD PUSH32 0x8C379A000000000000000000000000000000000000000000000000000000000 DUP2 MSTORE PUSH1 0x4 ADD PUSH2 0x17CF SWAP1 PUSH2 0x30E4 JUMP JUMPDEST PUSH1 0x40 MLOAD DUP1 SWAP2 SUB SWAP1 REVERT JUMPDEST POP POP POP JUMP JUMPDEST PUSH1 0x1 DUP2 PUSH0 ADD PUSH0 DUP3 DUP3 SLOAD ADD SWAP3 POP POP DUP2 SWAP1 SSTORE POP POP JUMP JUMPDEST PUSH0 DUP1 PUSH20 0xFFFFFFFFFFFFFFFFFFFFFFFFFFFFFFFFFFFFFFFF AND PUSH2 0x1812 DUP4 PUSH2 0x1449 JUMP JUMPDEST PUSH20 0xFFFFFFFFFFFFFFFFFFFFFFFFFFFFFFFFFFFFFFFF AND EQ ISZERO SWAP1 POP SWAP2 SWAP1 POP JUMP JUMPDEST PUSH2 0x1841 DUP5 DUP5 DUP5 PUSH1 0x1 SWAP5 POP DUP5 PUSH2 0x1CB8 JUMP JUMPDEST PUSH0 PUSH20 0xFFFFFFFFFFFFFFFFFFFFFFFFFFFFFFFFFFFFFFFF AND DUP5 PUSH20 0xFFFFFFFFFFFFFFFFFFFFFFFFFFFFFFFFFFFFFFFF AND EQ PUSH2 0x1917 JUMPI PUSH1 0xD PUSH0 DUP4 DUP2 MSTORE PUSH1 0x20 ADD SWAP1 DUP2 MSTORE PUSH1 0x20 ADD PUSH0 KECCAK256 PUSH1 0x1 ADD SLOAD PUSH1 0xD PUSH0 DUP5 DUP2 MSTORE PUSH1 0x20 ADD SWAP1 DUP2 MSTORE PUSH1 0x20 ADD PUSH0 KECCAK256 PUSH0 ADD SLOAD PUSH2 0x18A7 SWAP2 SWAP1 PUSH2 0x312F JUMP JUMPDEST TIMESTAMP LT ISZERO PUSH2 0x18B5 PUSH1 0x9 SLOAD PUSH2 0x1CBE JUMP JUMPDEST PUSH1 0x40 MLOAD PUSH1 0x20 ADD PUSH2 0x18C5 SWAP2 SWAP1 PUSH2 0x31DC JUMP JUMPDEST PUSH1 0x40 MLOAD PUSH1 0x20 DUP2 DUP4 SUB SUB DUP2 MSTORE SWAP1 PUSH1 0x40 MSTORE SWAP1 PUSH2 0x1915 JUMPI PUSH1 0x40 MLOAD PUSH32 0x8C379A000000000000000000000000000000000000000000000000000000000 DUP2 MSTORE PUSH1 0x4 ADD PUSH2 0x190C SWAP2 SWAP1 PUSH2 0x2049 JUMP JUMPDEST PUSH1 0x40 MLOAD DUP1 SWAP2 SUB SWAP1 REVERT JUMPDEST POP JUMPDEST POP POP POP POP JUMP JUMPDEST POP POP POP POP JUMP JUMPDEST PUSH0 PUSH2 0x1943 DUP5 PUSH20 0xFFFFFFFFFFFFFFFFFFFFFFFFFFFFFFFFFFFFFFFF AND PUSH2 0x1D88 JUMP JUMPDEST ISZERO PUSH2 0x1A98 JUMPI DUP4 PUSH20 0xFFFFFFFFFFFFFFFFFFFFFFFFFFFFFFFFFFFFFFFF AND PUSH4 0x150B7A02 PUSH2 0x196C PUSH2 0xECB JUMP JUMPDEST DUP8 DUP7 DUP7 PUSH1 0x40 MLOAD DUP6 PUSH4 0xFFFFFFFF AND PUSH1 0xE0 SHL DUP2 MSTORE PUSH1 0x4 ADD PUSH2 0x198E SWAP5 SWAP4 SWAP3 SWAP2 SWAP1 PUSH2 0x324F JUMP JUMPDEST PUSH1 0x20 PUSH1 0x40 MLOAD DUP1 DUP4 SUB DUP2 PUSH0 DUP8 GAS CALL SWAP3 POP POP POP DUP1 ISZERO PUSH2 0x19C9 JUMPI POP PUSH1 0x40 MLOAD RETURNDATASIZE PUSH1 0x1F NOT PUSH1 0x1F DUP3 ADD AND DUP3 ADD DUP1 PUSH1 0x40 MSTORE POP DUP2 ADD SWAP1 PUSH2 0x19C6 SWAP2 SWAP1 PUSH2 0x32AD JUMP JUMPDEST PUSH1 0x1 JUMPDEST PUSH2 0x1A48 JUMPI RETURNDATASIZE DUP1 PUSH0 DUP2 EQ PUSH2 0x19F7 JUMPI PUSH1 0x40 MLOAD SWAP2 POP PUSH1 0x1F NOT PUSH1 0x3F RETURNDATASIZE ADD AND DUP3 ADD PUSH1 0x40 MSTORE RETURNDATASIZE DUP3 MSTORE RETURNDATASIZE PUSH0 PUSH1 0x20 DUP5 ADD RETURNDATACOPY PUSH2 0x19FC JUMP JUMPDEST PUSH1 0x60 SWAP2 POP JUMPDEST POP PUSH0 DUP2 MLOAD SUB PUSH2 0x1A40 JUMPI PUSH1 0x40 MLOAD PUSH32 0x8C379A000000000000000000000000000000000000000000000000000000000 DUP2 MSTORE PUSH1 0x4 ADD PUSH2 0x1A37 SWAP1 PUSH2 0x30E4 JUMP JUMPDEST PUSH1 0x40 MLOAD DUP1 SWAP2 SUB SWAP1 REVERT JUMPDEST DUP1 MLOAD DUP2 PUSH1 0x20 ADD REVERT JUMPDEST PUSH4 0x150B7A02 PUSH1 0xE0 SHL PUSH28 0xFFFFFFFFFFFFFFFFFFFFFFFFFFFFFFFFFFFFFFFFFFFFFFFFFFFFFFFF NOT AND DUP2 PUSH28 0xFFFFFFFFFFFFFFFFFFFFFFFFFFFFFFFFFFFFFFFFFFFFFFFFFFFFFFFF NOT AND EQ SWAP2 POP POP PUSH2 0x1A9D JUMP JUMPDEST PUSH1 0x1 SWAP1 POP JUMPDEST SWAP5 SWAP4 POP POP POP POP JUMP JUMPDEST PUSH0 PUSH20 0xFFFFFFFFFFFFFFFFFFFFFFFFFFFFFFFFFFFFFFFF AND DUP3 PUSH20 0xFFFFFFFFFFFFFFFFFFFFFFFFFFFFFFFFFFFFFFFF AND SUB PUSH2 0x1B13 JUMPI PUSH1 0x40 MLOAD PUSH32 0x8C379A000000000000000000000000000000000000000000000000000000000 DUP2 MSTORE PUSH1 0x4 ADD PUSH2 0x1B0A SWAP1 PUSH2 0x3322 JUMP JUMPDEST PUSH1 0x40 MLOAD DUP1 SWAP2 SUB SWAP1 REVERT JUMPDEST PUSH2 0x1B1C DUP2 PUSH2 0x17F1 JUMP JUMPDEST ISZERO PUSH2 0x1B5C JUMPI PUSH1 0x40 MLOAD PUSH32 0x8C379A000000000000000000000000000000000000000000000000000000000 DUP2 MSTORE PUSH1 0x4 ADD PUSH2 0x1B53 SWAP1 PUSH2 0x338A JUMP JUMPDEST PUSH1 0x40 MLOAD DUP1 SWAP2 SUB SWAP1 REVERT JUMPDEST PUSH2 0x1B69 PUSH0 DUP4 DUP4 PUSH1 0x1 PUSH2 0x1831 JUMP JUMPDEST PUSH2 0x1B72 DUP2 PUSH2 0x17F1 JUMP JUMPDEST ISZERO PUSH2 0x1BB2 JUMPI PUSH1 0x40 MLOAD PUSH32 0x8C379A000000000000000000000000000000000000000000000000000000000 DUP2 MSTORE PUSH1 0x4 ADD PUSH2 0x1BA9 SWAP1 PUSH2 0x338A JUMP JUMPDEST PUSH1 0x40 MLOAD DUP1 SWAP2 SUB SWAP1 REVERT JUMPDEST PUSH1 0x1 PUSH1 0x3 PUSH0 DUP5 PUSH20 0xFFFFFFFFFFFFFFFFFFFFFFFFFFFFFFFFFFFFFFFF AND PUSH20 0xFFFFFFFFFFFFFFFFFFFFFFFFFFFFFFFFFFFFFFFF AND DUP2 MSTORE PUSH1 0x20 ADD SWAP1 DUP2 MSTORE PUSH1 0x20 ADD PUSH0 KECCAK256 PUSH0 DUP3 DUP3 SLOAD ADD SWAP3 POP POP DUP2 SWAP1 SSTORE POP DUP2 PUSH1 0x2 PUSH0 DUP4 DUP2 MSTORE PUSH1 0x20 ADD SWAP1 DUP2 MSTORE PUSH1 0x20 ADD PUSH0 KECCAK256 PUSH0 PUSH2 0x100 EXP DUP2 SLOAD DUP2 PUSH20 0xFFFFFFFFFFFFFFFFFFFFFFFFFFFFFFFFFFFFFFFF MUL NOT AND SWAP1 DUP4 PUSH20 0xFFFFFFFFFFFFFFFFFFFFFFFFFFFFFFFFFFFFFFFF AND MUL OR SWAP1 SSTORE POP DUP1 DUP3 PUSH20 0xFFFFFFFFFFFFFFFFFFFFFFFFFFFFFFFFFFFFFFFF AND PUSH0 PUSH20 0xFFFFFFFFFFFFFFFFFFFFFFFFFFFFFFFFFFFFFFFF AND PUSH32 0xDDF252AD1BE2C89B69C2B068FC378DAA952BA7F163C4A11628F55A4DF523B3EF PUSH1 0x40 MLOAD PUSH1 0x40 MLOAD DUP1 SWAP2 SUB SWAP1 LOG4 PUSH2 0x1CB4 PUSH0 DUP4 DUP4 PUSH1 0x1 PUSH2 0x191D JUMP JUMPDEST POP POP JUMP JUMPDEST POP POP POP POP JUMP JUMPDEST PUSH1 0x60 PUSH0 PUSH1 0x1 PUSH2 0x1CCC DUP5 PUSH2 0x1DAA JUMP JUMPDEST ADD SWAP1 POP PUSH0 DUP2 PUSH8 0xFFFFFFFFFFFFFFFF DUP2 GT ISZERO PUSH2 0x1CEA JUMPI PUSH2 0x1CE9 PUSH2 0x2127 JUMP JUMPDEST JUMPDEST PUSH1 0x40 MLOAD SWAP1 DUP1 DUP3 MSTORE DUP1 PUSH1 0x1F ADD PUSH1 0x1F NOT AND PUSH1 0x20 ADD DUP3 ADD PUSH1 0x40 MSTORE DUP1 ISZERO PUSH2 0x1D1C JUMPI DUP2 PUSH1 0x20 ADD PUSH1 0x1 DUP3 MUL DUP1 CALLDATASIZE DUP4 CALLDATACOPY DUP1 DUP3 ADD SWAP2 POP POP SWAP1 POP JUMPDEST POP SWAP1 POP PUSH0 DUP3 PUSH1 0x20 ADD DUP3 ADD SWAP1 POP JUMPDEST PUSH1 0x1 ISZERO PUSH2 0x1D7D JUMPI DUP1 DUP1 PUSH1 0x1 SWAP1 SUB SWAP2 POP POP PUSH32 0x3031323334353637383961626364656600000000000000000000000000000000 PUSH1 0xA DUP7 MOD BYTE DUP2 MSTORE8 PUSH1 0xA DUP6 DUP2 PUSH2 0x1D72 JUMPI PUSH2 0x1D71 PUSH2 0x33A8 JUMP JUMPDEST JUMPDEST DIV SWAP5 POP PUSH0 DUP6 SUB PUSH2 0x1D29 JUMPI JUMPDEST DUP2 SWAP4 POP POP POP POP SWAP2 SWAP1 POP JUMP JUMPDEST PUSH0 DUP1 DUP3 PUSH20 0xFFFFFFFFFFFFFFFFFFFFFFFFFFFFFFFFFFFFFFFF AND EXTCODESIZE GT SWAP1 POP SWAP2 SWAP1 POP JUMP JUMPDEST PUSH0 DUP1 PUSH0 SWAP1 POP PUSH27 0x184F03E93FF9F4DAA797ED6E38ED64BF6A1F010000000000000000 DUP4 LT PUSH2 0x1E06 JUMPI PUSH27 0x184F03E93FF9F4DAA797ED6E38ED64BF6A1F010000000000000000 DUP4 DUP2 PUSH2 0x1DFC JUMPI PUSH2 0x1DFB PUSH2 0x33A8 JUMP JUMPDEST JUMPDEST DIV SWAP3 POP PUSH1 0x40 DUP2 ADD SWAP1 POP JUMPDEST PUSH14 0x4EE2D6D415B85ACEF8100000000 DUP4 LT PUSH2 0x1E43 JUMPI PUSH14 0x4EE2D6D415B85ACEF8100000000 DUP4 DUP2 PUSH2 0x1E39 JUMPI PUSH2 0x1E38 PUSH2 0x33A8 JUMP JUMPDEST JUMPDEST DIV SWAP3 POP PUSH1 0x20 DUP2 ADD SWAP1 POP JUMPDEST PUSH7 0x2386F26FC10000 DUP4 LT PUSH2 0x1E72 JUMPI PUSH7 0x2386F26FC10000 DUP4 DUP2 PUSH2 0x1E68 JUMPI PUSH2 0x1E67 PUSH2 0x33A8 JUMP JUMPDEST JUMPDEST DIV SWAP3 POP PUSH1 0x10 DUP2 ADD SWAP1 POP JUMPDEST PUSH4 0x5F5E100 DUP4 LT PUSH2 0x1E9B JUMPI PUSH4 0x5F5E100 DUP4 DUP2 PUSH2 0x1E91 JUMPI PUSH2 0x1E90 PUSH2 0x33A8 JUMP JUMPDEST JUMPDEST DIV SWAP3 POP PUSH1 0x8 DUP2 ADD SWAP1 POP JUMPDEST PUSH2 0x2710 DUP4 LT PUSH2 0x1EC0 JUMPI PUSH2 0x2710 DUP4 DUP2 PUSH2 0x1EB6 JUMPI PUSH2 0x1EB5 PUSH2 0x33A8 JUMP JUMPDEST JUMPDEST DIV SWAP3 POP PUSH1 0x4 DUP2 ADD SWAP1 POP JUMPDEST PUSH1 0x64 DUP4 LT PUSH2 0x1EE3 JUMPI PUSH1 0x64 DUP4 DUP2 PUSH2 0x1ED9 JUMPI PUSH2 0x1ED8 PUSH2 0x33A8 JUMP JUMPDEST JUMPDEST DIV SWAP3 POP PUSH1 0x2 DUP2 ADD SWAP1 POP JUMPDEST PUSH1 0xA DUP4 LT PUSH2 0x1EF2 JUMPI PUSH1 0x1 DUP2 ADD SWAP1 POP JUMPDEST DUP1 SWAP2 POP POP SWAP2 SWAP1 POP JUMP JUMPDEST PUSH0 PUSH1 0x40 MLOAD SWAP1 POP SWAP1 JUMP JUMPDEST PUSH0 DUP1 REVERT JUMPDEST PUSH0 DUP1 REVERT JUMPDEST PUSH0 PUSH32 0xFFFFFFFF00000000000000000000000000000000000000000000000000000000 DUP3 AND SWAP1 POP SWAP2 SWAP1 POP JUMP JUMPDEST PUSH2 0x1F40 DUP2 PUSH2 0x1F0C JUMP JUMPDEST DUP2 EQ PUSH2 0x1F4A JUMPI PUSH0 DUP1 REVERT JUMPDEST POP JUMP JUMPDEST PUSH0 DUP2 CALLDATALOAD SWAP1 POP PUSH2 0x1F5B DUP2 PUSH2 0x1F37 JUMP JUMPDEST SWAP3 SWAP2 POP POP JUMP JUMPDEST PUSH0 PUSH1 0x20 DUP3 DUP5 SUB SLT ISZERO PUSH2 0x1F76 JUMPI PUSH2 0x1F75 PUSH2 0x1F04 JUMP JUMPDEST JUMPDEST PUSH0 PUSH2 0x1F83 DUP5 DUP3 DUP6 ADD PUSH2 0x1F4D JUMP JUMPDEST SWAP2 POP POP SWAP3 SWAP2 POP POP JUMP JUMPDEST PUSH0 DUP2 ISZERO ISZERO SWAP1 POP SWAP2 SWAP1 POP JUMP JUMPDEST PUSH2 0x1FA0 DUP2 PUSH2 0x1F8C JUMP JUMPDEST DUP3 MSTORE POP POP JUMP JUMPDEST PUSH0 PUSH1 0x20 DUP3 ADD SWAP1 POP PUSH2 0x1FB9 PUSH0 DUP4 ADD DUP5 PUSH2 0x1F97 JUMP JUMPDEST SWAP3 SWAP2 POP POP JUMP JUMPDEST PUSH0 DUP2 MLOAD SWAP1 POP SWAP2 SWAP1 POP JUMP JUMPDEST PUSH0 DUP3 DUP3 MSTORE PUSH1 0x20 DUP3 ADD SWAP1 POP SWAP3 SWAP2 POP POP JUMP JUMPDEST PUSH0 JUMPDEST DUP4 DUP2 LT ISZERO PUSH2 0x1FF6 JUMPI DUP1 DUP3 ADD MLOAD DUP2 DUP5 ADD MSTORE PUSH1 0x20 DUP2 ADD SWAP1 POP PUSH2 0x1FDB JUMP JUMPDEST PUSH0 DUP5 DUP5 ADD MSTORE POP POP POP POP JUMP JUMPDEST PUSH0 PUSH1 0x1F NOT PUSH1 0x1F DUP4 ADD AND SWAP1 POP SWAP2 SWAP1 POP JUMP JUMPDEST PUSH0 PUSH2 0x201B DUP3 PUSH2 0x1FBF JUMP JUMPDEST PUSH2 0x2025 DUP2 DUP6 PUSH2 0x1FC9 JUMP JUMPDEST SWAP4 POP PUSH2 0x2035 DUP2 DUP6 PUSH1 0x20 DUP7 ADD PUSH2 0x1FD9 JUMP JUMPDEST PUSH2 0x203E DUP2 PUSH2 0x2001 JUMP JUMPDEST DUP5 ADD SWAP2 POP POP SWAP3 SWAP2 POP POP JUMP JUMPDEST PUSH0 PUSH1 0x20 DUP3 ADD SWAP1 POP DUP2 DUP2 SUB PUSH0 DUP4 ADD MSTORE PUSH2 0x2061 DUP2 DUP5 PUSH2 0x2011 JUMP JUMPDEST SWAP1 POP SWAP3 SWAP2 POP POP JUMP JUMPDEST PUSH0 DUP2 SWAP1 POP SWAP2 SWAP1 POP JUMP JUMPDEST PUSH2 0x207B DUP2 PUSH2 0x2069 JUMP JUMPDEST DUP2 EQ PUSH2 0x2085 JUMPI PUSH0 DUP1 REVERT JUMPDEST POP JUMP JUMPDEST PUSH0 DUP2 CALLDATALOAD SWAP1 POP PUSH2 0x2096 DUP2 PUSH2 0x2072 JUMP JUMPDEST SWAP3 SWAP2 POP POP JUMP JUMPDEST PUSH0 PUSH1 0x20 DUP3 DUP5 SUB SLT ISZERO PUSH2 0x20B1 JUMPI PUSH2 0x20B0 PUSH2 0x1F04 JUMP JUMPDEST JUMPDEST PUSH0 PUSH2 0x20BE DUP5 DUP3 DUP6 ADD PUSH2 0x2088 JUMP JUMPDEST SWAP2 POP POP SWAP3 SWAP2 POP POP JUMP JUMPDEST PUSH0 PUSH20 0xFFFFFFFFFFFFFFFFFFFFFFFFFFFFFFFFFFFFFFFF DUP3 AND SWAP1 POP SWAP2 SWAP1 POP JUMP JUMPDEST PUSH0 PUSH2 0x20F0 DUP3 PUSH2 0x20C7 JUMP JUMPDEST SWAP1 POP SWAP2 SWAP1 POP JUMP JUMPDEST PUSH2 0x2100 DUP2 PUSH2 0x20E6 JUMP JUMPDEST DUP3 MSTORE POP POP JUMP JUMPDEST PUSH0 PUSH1 0x20 DUP3 ADD SWAP1 POP PUSH2 0x2119 PUSH0 DUP4 ADD DUP5 PUSH2 0x20F7 JUMP JUMPDEST SWAP3 SWAP2 POP POP JUMP JUMPDEST PUSH0 DUP1 REVERT JUMPDEST PUSH0 DUP1 REVERT JUMPDEST PUSH32 0x4E487B7100000000000000000000000000000000000000000000000000000000 PUSH0 MSTORE PUSH1 0x41 PUSH1 0x4 MSTORE PUSH1 0x24 PUSH0 REVERT JUMPDEST PUSH2 0x215D DUP3 PUSH2 0x2001 JUMP JUMPDEST DUP2 ADD DUP2 DUP2 LT PUSH8 0xFFFFFFFFFFFFFFFF DUP3 GT OR ISZERO PUSH2 0x217C JUMPI PUSH2 0x217B PUSH2 0x2127 JUMP JUMPDEST JUMPDEST DUP1 PUSH1 0x40 MSTORE POP POP POP JUMP JUMPDEST PUSH0 PUSH2 0x218E PUSH2 0x1EFB JUMP JUMPDEST SWAP1 POP PUSH2 0x219A DUP3 DUP3 PUSH2 0x2154 JUMP JUMPDEST SWAP2 SWAP1 POP JUMP JUMPDEST PUSH0 PUSH8 0xFFFFFFFFFFFFFFFF DUP3 GT ISZERO PUSH2 0x21B9 JUMPI PUSH2 0x21B8 PUSH2 0x2127 JUMP JUMPDEST JUMPDEST PUSH2 0x21C2 DUP3 PUSH2 0x2001 JUMP JUMPDEST SWAP1 POP PUSH1 0x20 DUP2 ADD SWAP1 POP SWAP2 SWAP1 POP JUMP JUMPDEST DUP3 DUP2 DUP4 CALLDATACOPY PUSH0 DUP4 DUP4 ADD MSTORE POP POP POP JUMP JUMPDEST PUSH0 PUSH2 0x21EF PUSH2 0x21EA DUP5 PUSH2 0x219F JUMP JUMPDEST PUSH2 0x2185 JUMP JUMPDEST SWAP1 POP DUP3 DUP2 MSTORE PUSH1 0x20 DUP2 ADD DUP5 DUP5 DUP5 ADD GT ISZERO PUSH2 0x220B JUMPI PUSH2 0x220A PUSH2 0x2123 JUMP JUMPDEST JUMPDEST PUSH2 0x2216 DUP5 DUP3 DUP6 PUSH2 0x21CF JUMP JUMPDEST POP SWAP4 SWAP3 POP POP POP JUMP JUMPDEST PUSH0 DUP3 PUSH1 0x1F DUP4 ADD SLT PUSH2 0x2232 JUMPI PUSH2 0x2231 PUSH2 0x211F JUMP JUMPDEST JUMPDEST DUP2 CALLDATALOAD PUSH2 0x2242 DUP5 DUP3 PUSH1 0x20 DUP7 ADD PUSH2 0x21DD JUMP JUMPDEST SWAP2 POP POP SWAP3 SWAP2 POP POP JUMP JUMPDEST PUSH0 DUP1 PUSH0 PUSH1 0x60 DUP5 DUP7 SUB SLT ISZERO PUSH2 0x2262 JUMPI PUSH2 0x2261 PUSH2 0x1F04 JUMP JUMPDEST JUMPDEST PUSH0 DUP5 ADD CALLDATALOAD PUSH8 0xFFFFFFFFFFFFFFFF DUP2 GT ISZERO PUSH2 0x227F JUMPI PUSH2 0x227E PUSH2 0x1F08 JUMP JUMPDEST JUMPDEST PUSH2 0x228B DUP7 DUP3 DUP8 ADD PUSH2 0x221E JUMP JUMPDEST SWAP4 POP POP PUSH1 0x20 DUP5 ADD CALLDATALOAD PUSH8 0xFFFFFFFFFFFFFFFF DUP2 GT ISZERO PUSH2 0x22AC JUMPI PUSH2 0x22AB PUSH2 0x1F08 JUMP JUMPDEST JUMPDEST PUSH2 0x22B8 DUP7 DUP3 DUP8 ADD PUSH2 0x221E JUMP JUMPDEST SWAP3 POP POP PUSH1 0x40 DUP5 ADD CALLDATALOAD PUSH8 0xFFFFFFFFFFFFFFFF DUP2 GT ISZERO PUSH2 0x22D9 JUMPI PUSH2 0x22D8 PUSH2 0x1F08 JUMP JUMPDEST JUMPDEST PUSH2 0x22E5 DUP7 DUP3 DUP8 ADD PUSH2 0x221E JUMP JUMPDEST SWAP2 POP POP SWAP3 POP SWAP3 POP SWAP3 JUMP JUMPDEST PUSH2 0x22F8 DUP2 PUSH2 0x20E6 JUMP JUMPDEST DUP2 EQ PUSH2 0x2302 JUMPI PUSH0 DUP1 REVERT JUMPDEST POP JUMP JUMPDEST PUSH0 DUP2 CALLDATALOAD SWAP1 POP PUSH2 0x2313 DUP2 PUSH2 0x22EF JUMP JUMPDEST SWAP3 SWAP2 POP POP JUMP JUMPDEST PUSH0 DUP1 PUSH1 0x40 DUP4 DUP6 SUB SLT ISZERO PUSH2 0x232F JUMPI PUSH2 0x232E PUSH2 0x1F04 JUMP JUMPDEST JUMPDEST PUSH0 PUSH2 0x233C DUP6 DUP3 DUP7 ADD PUSH2 0x2305 JUMP JUMPDEST SWAP3 POP POP PUSH1 0x20 PUSH2 0x234D DUP6 DUP3 DUP7 ADD PUSH2 0x2088 JUMP JUMPDEST SWAP2 POP POP SWAP3 POP SWAP3 SWAP1 POP JUMP JUMPDEST PUSH0 DUP1 PUSH0 PUSH1 0x60 DUP5 DUP7 SUB SLT ISZERO PUSH2 0x236E JUMPI PUSH2 0x236D PUSH2 0x1F04 JUMP JUMPDEST JUMPDEST PUSH0 PUSH2 0x237B DUP7 DUP3 DUP8 ADD PUSH2 0x2305 JUMP JUMPDEST SWAP4 POP POP PUSH1 0x20 PUSH2 0x238C DUP7 DUP3 DUP8 ADD PUSH2 0x2305 JUMP JUMPDEST SWAP3 POP POP PUSH1 0x40 PUSH2 0x239D DUP7 DUP3 DUP8 ADD PUSH2 0x2088 JUMP JUMPDEST SWAP2 POP POP SWAP3 POP SWAP3 POP SWAP3 JUMP JUMPDEST PUSH0 PUSH1 0x20 DUP3 DUP5 SUB SLT ISZERO PUSH2 0x23BC JUMPI PUSH2 0x23BB PUSH2 0x1F04 JUMP JUMPDEST JUMPDEST PUSH0 PUSH2 0x23C9 DUP5 DUP3 DUP6 ADD PUSH2 0x2305 JUMP JUMPDEST SWAP2 POP POP SWAP3 SWAP2 POP POP JUMP JUMPDEST PUSH2 0x23DB DUP2 PUSH2 0x2069 JUMP JUMPDEST DUP3 MSTORE POP POP JUMP JUMPDEST PUSH0 PUSH1 0x20 DUP3 ADD SWAP1 POP PUSH2 0x23F4 PUSH0 DUP4 ADD DUP5 PUSH2 0x23D2 JUMP JUMPDEST SWAP3 SWAP2 POP POP JUMP JUMPDEST PUSH0 PUSH1 0x40 DUP3 ADD SWAP1 POP PUSH2 0x240D PUSH0 DUP4 ADD DUP6 PUSH2 0x23D2 JUMP JUMPDEST PUSH2 0x241A PUSH1 0x20 DUP4 ADD DUP5 PUSH2 0x23D2 JUMP JUMPDEST SWAP4 SWAP3 POP POP POP JUMP JUMPDEST PUSH2 0x242A DUP2 PUSH2 0x1F8C JUMP JUMPDEST DUP2 EQ PUSH2 0x2434 JUMPI PUSH0 DUP1 REVERT JUMPDEST POP JUMP JUMPDEST PUSH0 DUP2 CALLDATALOAD SWAP1 POP PUSH2 0x2445 DUP2 PUSH2 0x2421 JUMP JUMPDEST SWAP3 SWAP2 POP POP JUMP JUMPDEST PUSH0 DUP1 PUSH1 0x40 DUP4 DUP6 SUB SLT ISZERO PUSH2 0x2461 JUMPI PUSH2 0x2460 PUSH2 0x1F04 JUMP JUMPDEST JUMPDEST PUSH0 PUSH2 0x246E DUP6 DUP3 DUP7 ADD PUSH2 0x2305 JUMP JUMPDEST SWAP3 POP POP PUSH1 0x20 PUSH2 0x247F DUP6 DUP3 DUP7 ADD PUSH2 0x2437 JUMP JUMPDEST SWAP2 POP POP SWAP3 POP SWAP3 SWAP1 POP JUMP JUMPDEST PUSH0 DUP1 PUSH0 PUSH1 0x60 DUP5 DUP7 SUB SLT ISZERO PUSH2 0x24A0 JUMPI PUSH2 0x249F PUSH2 0x1F04 JUMP JUMPDEST JUMPDEST PUSH0 PUSH2 0x24AD DUP7 DUP3 DUP8 ADD PUSH2 0x2088 JUMP JUMPDEST SWAP4 POP POP PUSH1 0x20 PUSH2 0x24BE DUP7 DUP3 DUP8 ADD PUSH2 0x2305 JUMP JUMPDEST SWAP3 POP POP PUSH1 0x40 PUSH2 0x24CF DUP7 DUP3 DUP8 ADD PUSH2 0x2088 JUMP JUMPDEST SWAP2 POP POP SWAP3 POP SWAP3 POP SWAP3 JUMP JUMPDEST PUSH0 PUSH8 0xFFFFFFFFFFFFFFFF DUP3 GT ISZERO PUSH2 0x24F3 JUMPI PUSH2 0x24F2 PUSH2 0x2127 JUMP JUMPDEST JUMPDEST PUSH2 0x24FC DUP3 PUSH2 0x2001 JUMP JUMPDEST SWAP1 POP PUSH1 0x20 DUP2 ADD SWAP1 POP SWAP2 SWAP1 POP JUMP JUMPDEST PUSH0 PUSH2 0x251B PUSH2 0x2516 DUP5 PUSH2 0x24D9 JUMP JUMPDEST PUSH2 0x2185 JUMP JUMPDEST SWAP1 POP DUP3 DUP2 MSTORE PUSH1 0x20 DUP2 ADD DUP5 DUP5 DUP5 ADD GT ISZERO PUSH2 0x2537 JUMPI PUSH2 0x2536 PUSH2 0x2123 JUMP JUMPDEST JUMPDEST PUSH2 0x2542 DUP5 DUP3 DUP6 PUSH2 0x21CF JUMP JUMPDEST POP SWAP4 SWAP3 POP POP POP JUMP JUMPDEST PUSH0 DUP3 PUSH1 0x1F DUP4 ADD SLT PUSH2 0x255E JUMPI PUSH2 0x255D PUSH2 0x211F JUMP JUMPDEST JUMPDEST DUP2 CALLDATALOAD PUSH2 0x256E DUP5 DUP3 PUSH1 0x20 DUP7 ADD PUSH2 0x2509 JUMP JUMPDEST SWAP2 POP POP SWAP3 SWAP2 POP POP JUMP JUMPDEST PUSH0 DUP1 PUSH0 DUP1 PUSH1 0x80 DUP6 DUP8 SUB SLT ISZERO PUSH2 0x258F JUMPI PUSH2 0x258E PUSH2 0x1F04 JUMP JUMPDEST JUMPDEST PUSH0 PUSH2 0x259C DUP8 DUP3 DUP9 ADD PUSH2 0x2305 JUMP JUMPDEST SWAP5 POP POP PUSH1 0x20 PUSH2 0x25AD DUP8 DUP3 DUP9 ADD PUSH2 0x2305 JUMP JUMPDEST SWAP4 POP POP PUSH1 0x40 PUSH2 0x25BE DUP8 DUP3 DUP9 ADD PUSH2 0x2088 JUMP JUMPDEST SWAP3 POP POP PUSH1 0x60 DUP6 ADD CALLDATALOAD PUSH8 0xFFFFFFFFFFFFFFFF DUP2 GT ISZERO PUSH2 0x25DF JUMPI PUSH2 0x25DE PUSH2 0x1F08 JUMP JUMPDEST JUMPDEST PUSH2 0x25EB DUP8 DUP3 DUP9 ADD PUSH2 0x254A JUMP JUMPDEST SWAP2 POP POP SWAP3 SWAP6 SWAP2 SWAP5 POP SWAP3 POP JUMP JUMPDEST PUSH0 DUP1 PUSH1 0x40 DUP4 DUP6 SUB SLT ISZERO PUSH2 0x260D JUMPI PUSH2 0x260C PUSH2 0x1F04 JUMP JUMPDEST JUMPDEST PUSH0 PUSH2 0x261A DUP6 DUP3 DUP7 ADD PUSH2 0x2305 JUMP JUMPDEST SWAP3 POP POP PUSH1 0x20 PUSH2 0x262B DUP6 DUP3 DUP7 ADD PUSH2 0x2305 JUMP JUMPDEST SWAP2 POP POP SWAP3 POP SWAP3 SWAP1 POP JUMP JUMPDEST PUSH32 0x4E487B7100000000000000000000000000000000000000000000000000000000 PUSH0 MSTORE PUSH1 0x22 PUSH1 0x4 MSTORE PUSH1 0x24 PUSH0 REVERT JUMPDEST PUSH0 PUSH1 0x2 DUP3 DIV SWAP1 POP PUSH1 0x1 DUP3 AND DUP1 PUSH2 0x2679 JUMPI PUSH1 0x7F DUP3 AND SWAP2 POP JUMPDEST PUSH1 0x20 DUP3 LT DUP2 SUB PUSH2 0x268C JUMPI PUSH2 0x268B PUSH2 0x2635 JUMP JUMPDEST JUMPDEST POP SWAP2 SWAP1 POP JUMP JUMPDEST PUSH0 DUP2 SWAP1 POP DUP2 PUSH0 MSTORE PUSH1 0x20 PUSH0 KECCAK256 SWAP1 POP SWAP2 SWAP1 POP JUMP JUMPDEST PUSH0 PUSH1 0x20 PUSH1 0x1F DUP4 ADD DIV SWAP1 POP SWAP2 SWAP1 POP JUMP JUMPDEST PUSH0 DUP3 DUP3 SHL SWAP1 POP SWAP3 SWAP2 POP POP JUMP JUMPDEST PUSH0 PUSH1 0x8 DUP4 MUL PUSH2 0x26EE PUSH32 0xFFFFFFFFFFFFFFFFFFFFFFFFFFFFFFFFFFFFFFFFFFFFFFFFFFFFFFFFFFFFFFFF DUP3 PUSH2 0x26B3 JUMP JUMPDEST PUSH2 0x26F8 DUP7 DUP4 PUSH2 0x26B3 JUMP JUMPDEST SWAP6 POP DUP1 NOT DUP5 AND SWAP4 POP DUP1 DUP7 AND DUP5 OR SWAP3 POP POP POP SWAP4 SWAP3 POP POP POP JUMP JUMPDEST PUSH0 DUP2 SWAP1 POP SWAP2 SWAP1 POP JUMP JUMPDEST PUSH0 PUSH2 0x2733 PUSH2 0x272E PUSH2 0x2729 DUP5 PUSH2 0x2069 JUMP JUMPDEST PUSH2 0x2710 JUMP JUMPDEST PUSH2 0x2069 JUMP JUMPDEST SWAP1 POP SWAP2 SWAP1 POP JUMP JUMPDEST PUSH0 DUP2 SWAP1 POP SWAP2 SWAP1 POP JUMP JUMPDEST PUSH2 0x274C DUP4 PUSH2 0x2719 JUMP JUMPDEST PUSH2 0x2760 PUSH2 0x2758 DUP3 PUSH2 0x273A JUMP JUMPDEST DUP5 DUP5 SLOAD PUSH2 0x26BF JUMP JUMPDEST DUP3 SSTORE POP POP POP POP JUMP JUMPDEST PUSH0 SWAP1 JUMP JUMPDEST PUSH2 0x2774 PUSH2 0x2768 JUMP JUMPDEST PUSH2 0x277F DUP2 DUP5 DUP5 PUSH2 0x2743 JUMP JUMPDEST POP POP POP JUMP JUMPDEST JUMPDEST DUP2 DUP2 LT ISZERO PUSH2 0x27A2 JUMPI PUSH2 0x2797 PUSH0 DUP3 PUSH2 0x276C JUMP JUMPDEST PUSH1 0x1 DUP2 ADD SWAP1 POP PUSH2 0x2785 JUMP JUMPDEST POP POP JUMP JUMPDEST PUSH1 0x1F DUP3 GT ISZERO PUSH2 0x27E7 JUMPI PUSH2 0x27B8 DUP2 PUSH2 0x2692 JUMP JUMPDEST PUSH2 0x27C1 DUP5 PUSH2 0x26A4 JUMP JUMPDEST DUP2 ADD PUSH1 0x20 DUP6 LT ISZERO PUSH2 0x27D0 JUMPI DUP2 SWAP1 POP JUMPDEST PUSH2 0x27E4 PUSH2 0x27DC DUP6 PUSH2 0x26A4 JUMP JUMPDEST DUP4 ADD DUP3 PUSH2 0x2784 JUMP JUMPDEST POP POP JUMPDEST POP POP POP JUMP JUMPDEST PUSH0 DUP3 DUP3 SHR SWAP1 POP SWAP3 SWAP2 POP POP JUMP JUMPDEST PUSH0 PUSH2 0x2807 PUSH0 NOT DUP5 PUSH1 0x8 MUL PUSH2 0x27EC JUMP JUMPDEST NOT DUP1 DUP4 AND SWAP2 POP POP SWAP3 SWAP2 POP POP JUMP JUMPDEST PUSH0 PUSH2 0x281F DUP4 DUP4 PUSH2 0x27F8 JUMP JUMPDEST SWAP2 POP DUP3 PUSH1 0x2 MUL DUP3 OR SWAP1 POP SWAP3 SWAP2 POP POP JUMP JUMPDEST PUSH2 0x2838 DUP3 PUSH2 0x1FBF JUMP JUMPDEST PUSH8 0xFFFFFFFFFFFFFFFF DUP2 GT ISZERO PUSH2 0x2851 JUMPI PUSH2 0x2850 PUSH2 0x2127 JUMP JUMPDEST JUMPDEST PUSH2 0x285B DUP3 SLOAD PUSH2 0x2662 JUMP JUMPDEST PUSH2 0x2866 DUP3 DUP3 DUP6 PUSH2 0x27A6 JUMP JUMPDEST PUSH0 PUSH1 0x20 SWAP1 POP PUSH1 0x1F DUP4 GT PUSH1 0x1 DUP2 EQ PUSH2 0x2897 JUMPI PUSH0 DUP5 ISZERO PUSH2 0x2885 JUMPI DUP3 DUP8 ADD MLOAD SWAP1 POP JUMPDEST PUSH2 0x288F DUP6 DUP3 PUSH2 0x2814 JUMP JUMPDEST DUP7 SSTORE POP PUSH2 0x28F6 JUMP JUMPDEST PUSH1 0x1F NOT DUP5 AND PUSH2 0x28A5 DUP7 PUSH2 0x2692 JUMP JUMPDEST PUSH0 JUMPDEST DUP3 DUP2 LT ISZERO PUSH2 0x28CC JUMPI DUP5 DUP10 ADD MLOAD DUP3 SSTORE PUSH1 0x1 DUP3 ADD SWAP2 POP PUSH1 0x20 DUP6 ADD SWAP5 POP PUSH1 0x20 DUP2 ADD SWAP1 POP PUSH2 0x28A7 JUMP JUMPDEST DUP7 DUP4 LT ISZERO PUSH2 0x28E9 JUMPI DUP5 DUP10 ADD MLOAD PUSH2 0x28E5 PUSH1 0x1F DUP10 AND DUP3 PUSH2 0x27F8 JUMP JUMPDEST DUP4 SSTORE POP JUMPDEST PUSH1 0x1 PUSH1 0x2 DUP9 MUL ADD DUP9 SSTORE POP POP POP JUMPDEST POP POP POP POP POP POP JUMP JUMPDEST PUSH32 0x4552433732313A20617070726F76616C20746F2063757272656E74206F776E65 PUSH0 DUP3 ADD MSTORE PUSH32 0x7200000000000000000000000000000000000000000000000000000000000000 PUSH1 0x20 DUP3 ADD MSTORE POP JUMP JUMPDEST PUSH0 PUSH2 0x2958 PUSH1 0x21 DUP4 PUSH2 0x1FC9 JUMP JUMPDEST SWAP2 POP PUSH2 0x2963 DUP3 PUSH2 0x28FE JUMP JUMPDEST PUSH1 0x40 DUP3 ADD SWAP1 POP SWAP2 SWAP1 POP JUMP JUMPDEST PUSH0 PUSH1 0x20 DUP3 ADD SWAP1 POP DUP2 DUP2 SUB PUSH0 DUP4 ADD MSTORE PUSH2 0x2985 DUP2 PUSH2 0x294C JUMP JUMPDEST SWAP1 POP SWAP2 SWAP1 POP JUMP JUMPDEST PUSH32 0x4552433732313A20617070726F76652063616C6C6572206973206E6F7420746F PUSH0 DUP3 ADD MSTORE PUSH32 0x6B656E206F776E6572206F7220617070726F76656420666F7220616C6C000000 PUSH1 0x20 DUP3 ADD MSTORE POP JUMP JUMPDEST PUSH0 PUSH2 0x29E6 PUSH1 0x3D DUP4 PUSH2 0x1FC9 JUMP JUMPDEST SWAP2 POP PUSH2 0x29F1 DUP3 PUSH2 0x298C JUMP JUMPDEST PUSH1 0x40 DUP3 ADD SWAP1 POP SWAP2 SWAP1 POP JUMP JUMPDEST PUSH0 PUSH1 0x20 DUP3 ADD SWAP1 POP DUP2 DUP2 SUB PUSH0 DUP4 ADD MSTORE PUSH2 0x2A13 DUP2 PUSH2 0x29DA JUMP JUMPDEST SWAP1 POP SWAP2 SWAP1 POP JUMP JUMPDEST PUSH32 0x4552433732313A2063616C6C6572206973206E6F7420746F6B656E206F776E65 PUSH0 DUP3 ADD MSTORE PUSH32 0x72206F7220617070726F76656400000000000000000000000000000000000000 PUSH1 0x20 DUP3 ADD MSTORE POP JUMP JUMPDEST PUSH0 PUSH2 0x2A74 PUSH1 0x2D DUP4 PUSH2 0x1FC9 JUMP JUMPDEST SWAP2 POP PUSH2 0x2A7F DUP3 PUSH2 0x2A1A JUMP JUMPDEST PUSH1 0x40 DUP3 ADD SWAP1 POP SWAP2 SWAP1 POP JUMP JUMPDEST PUSH0 PUSH1 0x20 DUP3 ADD SWAP1 POP DUP2 DUP2 SUB PUSH0 DUP4 ADD MSTORE PUSH2 0x2AA1 DUP2 PUSH2 0x2A68 JUMP JUMPDEST SWAP1 POP SWAP2 SWAP1 POP JUMP JUMPDEST PUSH32 0x4552433732313A20696E76616C696420746F6B656E2049440000000000000000 PUSH0 DUP3 ADD MSTORE POP JUMP JUMPDEST PUSH0 PUSH2 0x2ADC PUSH1 0x18 DUP4 PUSH2 0x1FC9 JUMP JUMPDEST SWAP2 POP PUSH2 0x2AE7 DUP3 PUSH2 0x2AA8 JUMP JUMPDEST PUSH1 0x20 DUP3 ADD SWAP1 POP SWAP2 SWAP1 POP JUMP JUMPDEST PUSH0 PUSH1 0x20 DUP3 ADD SWAP1 POP DUP2 DUP2 SUB PUSH0 DUP4 ADD MSTORE PUSH2 0x2B09 DUP2 PUSH2 0x2AD0 JUMP JUMPDEST SWAP1 POP SWAP2 SWAP1 POP JUMP JUMPDEST PUSH32 0x4552433732313A2061646472657373207A65726F206973206E6F742061207661 PUSH0 DUP3 ADD MSTORE PUSH32 0x6C6964206F776E65720000000000000000000000000000000000000000000000 PUSH1 0x20 DUP3 ADD MSTORE POP JUMP JUMPDEST PUSH0 PUSH2 0x2B6A PUSH1 0x29 DUP4 PUSH2 0x1FC9 JUMP JUMPDEST SWAP2 POP PUSH2 0x2B75 DUP3 PUSH2 0x2B10 JUMP JUMPDEST PUSH1 0x40 DUP3 ADD SWAP1 POP SWAP2 SWAP1 POP JUMP JUMPDEST PUSH0 PUSH1 0x20 DUP3 ADD SWAP1 POP DUP2 DUP2 SUB PUSH0 DUP4 ADD MSTORE PUSH2 0x2B97 DUP2 PUSH2 0x2B5E JUMP JUMPDEST SWAP1 POP SWAP2 SWAP1 POP JUMP JUMPDEST PUSH0 PUSH1 0x60 DUP3 ADD SWAP1 POP PUSH2 0x2BB1 PUSH0 DUP4 ADD DUP7 PUSH2 0x20F7 JUMP JUMPDEST PUSH2 0x2BBE PUSH1 0x20 DUP4 ADD DUP6 PUSH2 0x20F7 JUMP JUMPDEST PUSH2 0x2BCB PUSH1 0x40 DUP4 ADD DUP5 PUSH2 0x23D2 JUMP JUMPDEST SWAP5 SWAP4 POP POP POP POP JUMP JUMPDEST PUSH0 DUP2 MLOAD SWAP1 POP PUSH2 0x2BE1 DUP2 PUSH2 0x2421 JUMP JUMPDEST SWAP3 SWAP2 POP POP JUMP JUMPDEST PUSH0 PUSH1 0x20 DUP3 DUP5 SUB SLT ISZERO PUSH2 0x2BFC JUMPI PUSH2 0x2BFB PUSH2 0x1F04 JUMP JUMPDEST JUMPDEST PUSH0 PUSH2 0x2C09 DUP5 DUP3 DUP6 ADD PUSH2 0x2BD3 JUMP JUMPDEST SWAP2 POP POP SWAP3 SWAP2 POP POP JUMP JUMPDEST PUSH32 0x717665546F6B656E207472616E73666572206572726F72000000000000000000 PUSH0 DUP3 ADD MSTORE POP JUMP JUMPDEST PUSH0 PUSH2 0x2C46 PUSH1 0x17 DUP4 PUSH2 0x1FC9 JUMP JUMPDEST SWAP2 POP PUSH2 0x2C51 DUP3 PUSH2 0x2C12 JUMP JUMPDEST PUSH1 0x20 DUP3 ADD SWAP1 POP SWAP2 SWAP1 POP JUMP JUMPDEST PUSH0 PUSH1 0x20 DUP3 ADD SWAP1 POP DUP2 DUP2 SUB PUSH0 DUP4 ADD MSTORE PUSH2 0x2C73 DUP2 PUSH2 0x2C3A JUMP JUMPDEST SWAP1 POP SWAP2 SWAP1 POP JUMP JUMPDEST PUSH0 DUP2 SWAP1 POP SWAP3 SWAP2 POP POP JUMP JUMPDEST PUSH32 0x646174613A6170706C69636174696F6E2F6A736F6E2C7B226E616D65223A2200 PUSH0 DUP3 ADD MSTORE POP JUMP JUMPDEST PUSH0 PUSH2 0x2CB8 PUSH1 0x1F DUP4 PUSH2 0x2C7A JUMP JUMPDEST SWAP2 POP PUSH2 0x2CC3 DUP3 PUSH2 0x2C84 JUMP JUMPDEST PUSH1 0x1F DUP3 ADD SWAP1 POP SWAP2 SWAP1 POP JUMP JUMPDEST PUSH0 DUP2 SLOAD PUSH2 0x2CDA DUP2 PUSH2 0x2662 JUMP JUMPDEST PUSH2 0x2CE4 DUP2 DUP7 PUSH2 0x2C7A JUMP JUMPDEST SWAP5 POP PUSH1 0x1 DUP3 AND PUSH0 DUP2 EQ PUSH2 0x2CFE JUMPI PUSH1 0x1 DUP2 EQ PUSH2 0x2D13 JUMPI PUSH2 0x2D45 JUMP JUMPDEST PUSH1 0xFF NOT DUP4 AND DUP7 MSTORE DUP2 ISZERO ISZERO DUP3 MUL DUP7 ADD SWAP4 POP PUSH2 0x2D45 JUMP JUMPDEST PUSH2 0x2D1C DUP6 PUSH2 0x2692 JUMP JUMPDEST PUSH0 JUMPDEST DUP4 DUP2 LT ISZERO PUSH2 0x2D3D JUMPI DUP2 SLOAD DUP2 DUP10 ADD MSTORE PUSH1 0x1 DUP3 ADD SWAP2 POP PUSH1 0x20 DUP2 ADD SWAP1 POP PUSH2 0x2D1E JUMP JUMPDEST DUP4 DUP9 ADD SWAP6 POP POP POP JUMPDEST POP POP POP SWAP3 SWAP2 POP POP JUMP JUMPDEST PUSH32 0x222C20226465736372697074696F6E223A220000000000000000000000000000 PUSH0 DUP3 ADD MSTORE POP JUMP JUMPDEST PUSH0 PUSH2 0x2D82 PUSH1 0x12 DUP4 PUSH2 0x2C7A JUMP JUMPDEST SWAP2 POP PUSH2 0x2D8D DUP3 PUSH2 0x2D4E JUMP JUMPDEST PUSH1 0x12 DUP3 ADD SWAP1 POP SWAP2 SWAP1 POP JUMP JUMPDEST PUSH32 0x222C2022696D616765223A220000000000000000000000000000000000000000 PUSH0 DUP3 ADD MSTORE POP JUMP JUMPDEST PUSH0 PUSH2 0x2DCC PUSH1 0xC DUP4 PUSH2 0x2C7A JUMP JUMPDEST SWAP2 POP PUSH2 0x2DD7 DUP3 PUSH2 0x2D98 JUMP JUMPDEST PUSH1 0xC DUP3 ADD SWAP1 POP SWAP2 SWAP1 POP JUMP JUMPDEST PUSH32 0x227D000000000000000000000000000000000000000000000000000000000000 PUSH0 DUP3 ADD MSTORE POP JUMP JUMPDEST PUSH0 PUSH2 0x2E16 PUSH1 0x2 DUP4 PUSH2 0x2C7A JUMP JUMPDEST SWAP2 POP PUSH2 0x2E21 DUP3 PUSH2 0x2DE2 JUMP JUMPDEST PUSH1 0x2 DUP3 ADD SWAP1 POP SWAP2 SWAP1 POP JUMP JUMPDEST PUSH0 PUSH2 0x2E36 DUP3 PUSH2 0x2CAC JUMP JUMPDEST SWAP2 POP PUSH2 0x2E42 DUP3 DUP7 PUSH2 0x2CCE JUMP JUMPDEST SWAP2 POP PUSH2 0x2E4D DUP3 PUSH2 0x2D76 JUMP JUMPDEST SWAP2 POP PUSH2 0x2E59 DUP3 DUP6 PUSH2 0x2CCE JUMP JUMPDEST SWAP2 POP PUSH2 0x2E64 DUP3 PUSH2 0x2DC0 JUMP JUMPDEST SWAP2 POP PUSH2 0x2E70 DUP3 DUP5 PUSH2 0x2CCE JUMP JUMPDEST SWAP2 POP PUSH2 0x2E7B DUP3 PUSH2 0x2E0A JUMP JUMPDEST SWAP2 POP DUP2 SWAP1 POP SWAP5 SWAP4 POP POP POP POP JUMP JUMPDEST PUSH32 0x4552433732313A207472616E736665722066726F6D20696E636F727265637420 PUSH0 DUP3 ADD MSTORE PUSH32 0x6F776E6572000000000000000000000000000000000000000000000000000000 PUSH1 0x20 DUP3 ADD MSTORE POP JUMP JUMPDEST PUSH0 PUSH2 0x2EE2 PUSH1 0x25 DUP4 PUSH2 0x1FC9 JUMP JUMPDEST SWAP2 POP PUSH2 0x2EED DUP3 PUSH2 0x2E88 JUMP JUMPDEST PUSH1 0x40 DUP3 ADD SWAP1 POP SWAP2 SWAP1 POP JUMP JUMPDEST PUSH0 PUSH1 0x20 DUP3 ADD SWAP1 POP DUP2 DUP2 SUB PUSH0 DUP4 ADD MSTORE PUSH2 0x2F0F DUP2 PUSH2 0x2ED6 JUMP JUMPDEST SWAP1 POP SWAP2 SWAP1 POP JUMP JUMPDEST PUSH32 0x4552433732313A207472616E7366657220746F20746865207A65726F20616464 PUSH0 DUP3 ADD MSTORE PUSH32 0x7265737300000000000000000000000000000000000000000000000000000000 PUSH1 0x20 DUP3 ADD MSTORE POP JUMP JUMPDEST PUSH0 PUSH2 0x2F70 PUSH1 0x24 DUP4 PUSH2 0x1FC9 JUMP JUMPDEST SWAP2 POP PUSH2 0x2F7B DUP3 PUSH2 0x2F16 JUMP JUMPDEST PUSH1 0x40 DUP3 ADD SWAP1 POP SWAP2 SWAP1 POP JUMP JUMPDEST PUSH0 PUSH1 0x20 DUP3 ADD SWAP1 POP DUP2 DUP2 SUB PUSH0 DUP4 ADD MSTORE PUSH2 0x2F9D DUP2 PUSH2 0x2F64 JUMP JUMPDEST SWAP1 POP SWAP2 SWAP1 POP JUMP JUMPDEST PUSH32 0x4552433732313A20617070726F766520746F2063616C6C657200000000000000 PUSH0 DUP3 ADD MSTORE POP JUMP JUMPDEST PUSH0 PUSH2 0x2FD8 PUSH1 0x19 DUP4 PUSH2 0x1FC9 JUMP JUMPDEST SWAP2 POP PUSH2 0x2FE3 DUP3 PUSH2 0x2FA4 JUMP JUMPDEST PUSH1 0x20 DUP3 ADD SWAP1 POP SWAP2 SWAP1 POP JUMP JUMPDEST PUSH0 PUSH1 0x20 DUP3 ADD SWAP1 POP DUP2 DUP2 SUB PUSH0 DUP4 ADD MSTORE PUSH2 0x3005 DUP2 PUSH2 0x2FCC JUMP JUMPDEST SWAP1 POP SWAP2 SWAP1 POP JUMP JUMPDEST PUSH32 0x5F73657451564564656669206572726F72000000000000000000000000000000 PUSH0 DUP3 ADD MSTORE POP JUMP JUMPDEST PUSH0 PUSH2 0x3040 PUSH1 0x11 DUP4 PUSH2 0x1FC9 JUMP JUMPDEST SWAP2 POP PUSH2 0x304B DUP3 PUSH2 0x300C JUMP JUMPDEST PUSH1 0x20 DUP3 ADD SWAP1 POP SWAP2 SWAP1 POP JUMP JUMPDEST PUSH0 PUSH1 0x20 DUP3 ADD SWAP1 POP DUP2 DUP2 SUB PUSH0 DUP4 ADD MSTORE PUSH2 0x306D DUP2 PUSH2 0x3034 JUMP JUMPDEST SWAP1 POP SWAP2 SWAP1 POP JUMP JUMPDEST PUSH32 0x4552433732313A207472616E7366657220746F206E6F6E204552433732315265 PUSH0 DUP3 ADD MSTORE PUSH32 0x63656976657220696D706C656D656E7465720000000000000000000000000000 PUSH1 0x20 DUP3 ADD MSTORE POP JUMP JUMPDEST PUSH0 PUSH2 0x30CE PUSH1 0x32 DUP4 PUSH2 0x1FC9 JUMP JUMPDEST SWAP2 POP PUSH2 0x30D9 DUP3 PUSH2 0x3074 JUMP JUMPDEST PUSH1 0x40 DUP3 ADD SWAP1 POP SWAP2 SWAP1 POP JUMP JUMPDEST PUSH0 PUSH1 0x20 DUP3 ADD SWAP1 POP DUP2 DUP2 SUB PUSH0 DUP4 ADD MSTORE PUSH2 0x30FB DUP2 PUSH2 0x30C2 JUMP JUMPDEST SWAP1 POP SWAP2 SWAP1 POP JUMP JUMPDEST PUSH32 0x4E487B7100000000000000000000000000000000000000000000000000000000 PUSH0 MSTORE PUSH1 0x11 PUSH1 0x4 MSTORE PUSH1 0x24 PUSH0 REVERT JUMPDEST PUSH0 PUSH2 0x3139 DUP3 PUSH2 0x2069 JUMP JUMPDEST SWAP2 POP PUSH2 0x3144 DUP4 PUSH2 0x2069 JUMP JUMPDEST SWAP3 POP DUP3 DUP3 ADD SWAP1 POP DUP1 DUP3 GT ISZERO PUSH2 0x315C JUMPI PUSH2 0x315B PUSH2 0x3102 JUMP JUMPDEST JUMPDEST SWAP3 SWAP2 POP POP JUMP JUMPDEST PUSH32 0x746F6B656E206973207374696C6C20696E206C6F636B20706572696F64000000 PUSH0 DUP3 ADD MSTORE POP JUMP JUMPDEST PUSH0 PUSH2 0x3196 PUSH1 0x1D DUP4 PUSH2 0x2C7A JUMP JUMPDEST SWAP2 POP PUSH2 0x31A1 DUP3 PUSH2 0x3162 JUMP JUMPDEST PUSH1 0x1D DUP3 ADD SWAP1 POP SWAP2 SWAP1 POP JUMP JUMPDEST PUSH0 PUSH2 0x31B6 DUP3 PUSH2 0x1FBF JUMP JUMPDEST PUSH2 0x31C0 DUP2 DUP6 PUSH2 0x2C7A JUMP JUMPDEST SWAP4 POP PUSH2 0x31D0 DUP2 DUP6 PUSH1 0x20 DUP7 ADD PUSH2 0x1FD9 JUMP JUMPDEST DUP1 DUP5 ADD SWAP2 POP POP SWAP3 SWAP2 POP POP JUMP JUMPDEST PUSH0 PUSH2 0x31E6 DUP3 PUSH2 0x318A JUMP JUMPDEST SWAP2 POP PUSH2 0x31F2 DUP3 DUP5 PUSH2 0x31AC JUMP JUMPDEST SWAP2 POP DUP2 SWAP1 POP SWAP3 SWAP2 POP POP JUMP JUMPDEST PUSH0 DUP2 MLOAD SWAP1 POP SWAP2 SWAP1 POP JUMP JUMPDEST PUSH0 DUP3 DUP3 MSTORE PUSH1 0x20 DUP3 ADD SWAP1 POP SWAP3 SWAP2 POP POP JUMP JUMPDEST PUSH0 PUSH2 0x3221 DUP3 PUSH2 0x31FD JUMP JUMPDEST PUSH2 0x322B DUP2 DUP6 PUSH2 0x3207 JUMP JUMPDEST SWAP4 POP PUSH2 0x323B DUP2 DUP6 PUSH1 0x20 DUP7 ADD PUSH2 0x1FD9 JUMP JUMPDEST PUSH2 0x3244 DUP2 PUSH2 0x2001 JUMP JUMPDEST DUP5 ADD SWAP2 POP POP SWAP3 SWAP2 POP POP JUMP JUMPDEST PUSH0 PUSH1 0x80 DUP3 ADD SWAP1 POP PUSH2 0x3262 PUSH0 DUP4 ADD DUP8 PUSH2 0x20F7 JUMP JUMPDEST PUSH2 0x326F PUSH1 0x20 DUP4 ADD DUP7 PUSH2 0x20F7 JUMP JUMPDEST PUSH2 0x327C PUSH1 0x40 DUP4 ADD DUP6 PUSH2 0x23D2 JUMP JUMPDEST DUP2 DUP2 SUB PUSH1 0x60 DUP4 ADD MSTORE PUSH2 0x328E DUP2 DUP5 PUSH2 0x3217 JUMP JUMPDEST SWAP1 POP SWAP6 SWAP5 POP POP POP POP POP JUMP JUMPDEST PUSH0 DUP2 MLOAD SWAP1 POP PUSH2 0x32A7 DUP2 PUSH2 0x1F37 JUMP JUMPDEST SWAP3 SWAP2 POP POP JUMP JUMPDEST PUSH0 PUSH1 0x20 DUP3 DUP5 SUB SLT ISZERO PUSH2 0x32C2 JUMPI PUSH2 0x32C1 PUSH2 0x1F04 JUMP JUMPDEST JUMPDEST PUSH0 PUSH2 0x32CF DUP5 DUP3 DUP6 ADD PUSH2 0x3299 JUMP JUMPDEST SWAP2 POP POP SWAP3 SWAP2 POP POP JUMP JUMPDEST PUSH32 0x4552433732313A206D696E7420746F20746865207A65726F2061646472657373 PUSH0 DUP3 ADD MSTORE POP JUMP JUMPDEST PUSH0 PUSH2 0x330C PUSH1 0x20 DUP4 PUSH2 0x1FC9 JUMP JUMPDEST SWAP2 POP PUSH2 0x3317 DUP3 PUSH2 0x32D8 JUMP JUMPDEST PUSH1 0x20 DUP3 ADD SWAP1 POP SWAP2 SWAP1 POP JUMP JUMPDEST PUSH0 PUSH1 0x20 DUP3 ADD SWAP1 POP DUP2 DUP2 SUB PUSH0 DUP4 ADD MSTORE PUSH2 0x3339 DUP2 PUSH2 0x3300 JUMP JUMPDEST SWAP1 POP SWAP2 SWAP1 POP JUMP JUMPDEST PUSH32 0x4552433732313A20746F6B656E20616C7265616479206D696E74656400000000 PUSH0 DUP3 ADD MSTORE POP JUMP JUMPDEST PUSH0 PUSH2 0x3374 PUSH1 0x1C DUP4 PUSH2 0x1FC9 JUMP JUMPDEST SWAP2 POP PUSH2 0x337F DUP3 PUSH2 0x3340 JUMP JUMPDEST PUSH1 0x20 DUP3 ADD SWAP1 POP SWAP2 SWAP1 POP JUMP JUMPDEST PUSH0 PUSH1 0x20 DUP3 ADD SWAP1 POP DUP2 DUP2 SUB PUSH0 DUP4 ADD MSTORE PUSH2 0x33A1 DUP2 PUSH2 0x3368 JUMP JUMPDEST SWAP1 POP SWAP2 SWAP1 POP JUMP JUMPDEST PUSH32 0x4E487B7100000000000000000000000000000000000000000000000000000000 PUSH0 MSTORE PUSH1 0x12 PUSH1 0x4 MSTORE PUSH1 0x24 PUSH0 REVERT INVALID LOG2 PUSH5 0x6970667358 0x22 SLT KECCAK256 0xDE SWAP15 ADD SELFBALANCE PUSH24 0x841EBE7A75496B84263B2F2DE381564246C67E5CBB3C3CAD LT PUSH15 0xFA64736F6C63430008150033000000 "
		},
		"gasEstimates": {
			"creation": {
				"codeDepositCost": "2664600",
				"executionCost": "infinite",
				"totalCost": "infinite"
			},
			"external": {
				"approve(address,uint256)": "infinite",
				"balanceOf(address)": "2887",
				"burn(uint256)": "infinite",
				"burnNFT(uint256)": "infinite",
				"getApproved(uint256)": "5282",
				"isApprovedForAll(address,address)": "infinite",
				"mintStakingGuarantee(address,bool)": "infinite",
				"name()": "infinite",
				"nftDetails(uint256)": "infinite",
				"ownedTokens(address,uint256)": "infinite",
				"ownerOf(uint256)": "3094",
				"safeTransferFrom(address,address,uint256)": "infinite",
				"safeTransferFrom(address,address,uint256,bytes)": "infinite",
				"setApprovalForAll(address,bool)": "infinite",
				"setMetadata(string,string,string)": "infinite",
				"shortenLockup(uint256,address,uint256)": "infinite",
				"supportsInterface(bytes4)": "787",
				"symbol()": "infinite",
				"tokenURI(uint256)": "infinite",
				"transferFrom(address,address,uint256)": "infinite"
			},
			"internal": {
				"_beforeTokenTransfer(address,address,uint256,uint256)": "infinite",
				"_setLockup(uint256,uint256)": "46587",
				"_setQVEdefi(address)": "infinite"
			}
		},
		"methodIdentifiers": {
			"approve(address,uint256)": "095ea7b3",
			"balanceOf(address)": "70a08231",
			"burn(uint256)": "42966c68",
			"burnNFT(uint256)": "2890e0d7",
			"getApproved(uint256)": "081812fc",
			"isApprovedForAll(address,address)": "e985e9c5",
			"mintStakingGuarantee(address,bool)": "f42c69d6",
			"name()": "06fdde03",
			"nftDetails(uint256)": "7d4cd847",
			"ownedTokens(address,uint256)": "e149f036",
			"ownerOf(uint256)": "6352211e",
			"safeTransferFrom(address,address,uint256)": "42842e0e",
			"safeTransferFrom(address,address,uint256,bytes)": "b88d4fde",
			"setApprovalForAll(address,bool)": "a22cb465",
			"setMetadata(string,string,string)": "0890d80c",
			"shortenLockup(uint256,address,uint256)": "b2c3a717",
			"supportsInterface(bytes4)": "01ffc9a7",
			"symbol()": "95d89b41",
			"tokenURI(uint256)": "c87b56dd",
			"transferFrom(address,address,uint256)": "23b872dd"
		}
	},
	"abi": [
		{
			"inputs": [
				{
					"internalType": "contract QVEtoken",
					"name": "_qveToken",
					"type": "address"
				}
			],
			"stateMutability": "nonpayable",
			"type": "constructor"
		},
		{
			"anonymous": false,
			"inputs": [
				{
					"indexed": true,
					"internalType": "address",
					"name": "owner",
					"type": "address"
				},
				{
					"indexed": true,
					"internalType": "address",
					"name": "approved",
					"type": "address"
				},
				{
					"indexed": true,
					"internalType": "uint256",
					"name": "tokenId",
					"type": "uint256"
				}
			],
			"name": "Approval",
			"type": "event"
		},
		{
			"anonymous": false,
			"inputs": [
				{
					"indexed": true,
					"internalType": "address",
					"name": "owner",
					"type": "address"
				},
				{
					"indexed": true,
					"internalType": "address",
					"name": "operator",
					"type": "address"
				},
				{
					"indexed": false,
					"internalType": "bool",
					"name": "approved",
					"type": "bool"
				}
			],
			"name": "ApprovalForAll",
			"type": "event"
		},
		{
			"anonymous": false,
			"inputs": [
				{
					"indexed": true,
					"internalType": "address",
					"name": "from",
					"type": "address"
				},
				{
					"indexed": true,
					"internalType": "address",
					"name": "to",
					"type": "address"
				},
				{
					"indexed": true,
					"internalType": "uint256",
					"name": "tokenId",
					"type": "uint256"
				}
			],
			"name": "Transfer",
			"type": "event"
		},
		{
			"inputs": [
				{
					"internalType": "address",
					"name": "to",
					"type": "address"
				},
				{
					"internalType": "uint256",
					"name": "tokenId",
					"type": "uint256"
				}
			],
			"name": "approve",
			"outputs": [],
			"stateMutability": "nonpayable",
			"type": "function"
		},
		{
			"inputs": [
				{
					"internalType": "address",
					"name": "owner",
					"type": "address"
				}
			],
			"name": "balanceOf",
			"outputs": [
				{
					"internalType": "uint256",
					"name": "",
					"type": "uint256"
				}
			],
			"stateMutability": "view",
			"type": "function"
		},
		{
			"inputs": [
				{
					"internalType": "uint256",
					"name": "tokenId",
					"type": "uint256"
				}
			],
			"name": "burn",
			"outputs": [],
			"stateMutability": "nonpayable",
			"type": "function"
		},
		{
			"inputs": [
				{
					"internalType": "uint256",
					"name": "tokenId",
					"type": "uint256"
				}
			],
			"name": "burnNFT",
			"outputs": [
				{
					"internalType": "bool",
					"name": "",
					"type": "bool"
				}
			],
			"stateMutability": "nonpayable",
			"type": "function"
		},
		{
			"inputs": [
				{
					"internalType": "uint256",
					"name": "tokenId",
					"type": "uint256"
				}
			],
			"name": "getApproved",
			"outputs": [
				{
					"internalType": "address",
					"name": "",
					"type": "address"
				}
			],
			"stateMutability": "view",
			"type": "function"
		},
		{
			"inputs": [
				{
					"internalType": "address",
					"name": "owner",
					"type": "address"
				},
				{
					"internalType": "address",
					"name": "operator",
					"type": "address"
				}
			],
			"name": "isApprovedForAll",
			"outputs": [
				{
					"internalType": "bool",
					"name": "",
					"type": "bool"
				}
			],
			"stateMutability": "view",
			"type": "function"
		},
		{
			"inputs": [
				{
					"internalType": "address",
					"name": "staker",
					"type": "address"
				},
				{
					"internalType": "bool",
					"name": "lockup",
					"type": "bool"
				}
			],
			"name": "mintStakingGuarantee",
			"outputs": [
				{
					"internalType": "uint256",
					"name": "",
					"type": "uint256"
				}
			],
			"stateMutability": "nonpayable",
			"type": "function"
		},
		{
			"inputs": [],
			"name": "name",
			"outputs": [
				{
					"internalType": "string",
					"name": "",
					"type": "string"
				}
			],
			"stateMutability": "view",
			"type": "function"
		},
		{
			"inputs": [
				{
					"internalType": "uint256",
					"name": "",
					"type": "uint256"
				}
			],
			"name": "nftDetails",
			"outputs": [
				{
					"internalType": "uint256",
					"name": "mintTime",
					"type": "uint256"
				},
				{
					"internalType": "uint256",
					"name": "lockupTime",
					"type": "uint256"
				}
			],
			"stateMutability": "view",
			"type": "function"
		},
		{
			"inputs": [
				{
					"internalType": "address",
					"name": "",
					"type": "address"
				},
				{
					"internalType": "uint256",
					"name": "",
					"type": "uint256"
				}
			],
			"name": "ownedTokens",
			"outputs": [
				{
					"internalType": "uint256",
					"name": "",
					"type": "uint256"
				}
			],
			"stateMutability": "view",
			"type": "function"
		},
		{
			"inputs": [
				{
					"internalType": "uint256",
					"name": "tokenId",
					"type": "uint256"
				}
			],
			"name": "ownerOf",
			"outputs": [
				{
					"internalType": "address",
					"name": "",
					"type": "address"
				}
			],
			"stateMutability": "view",
			"type": "function"
		},
		{
			"inputs": [
				{
					"internalType": "address",
					"name": "from",
					"type": "address"
				},
				{
					"internalType": "address",
					"name": "to",
					"type": "address"
				},
				{
					"internalType": "uint256",
					"name": "tokenId",
					"type": "uint256"
				}
			],
			"name": "safeTransferFrom",
			"outputs": [],
			"stateMutability": "nonpayable",
			"type": "function"
		},
		{
			"inputs": [
				{
					"internalType": "address",
					"name": "from",
					"type": "address"
				},
				{
					"internalType": "address",
					"name": "to",
					"type": "address"
				},
				{
					"internalType": "uint256",
					"name": "tokenId",
					"type": "uint256"
				},
				{
					"internalType": "bytes",
					"name": "data",
					"type": "bytes"
				}
			],
			"name": "safeTransferFrom",
			"outputs": [],
			"stateMutability": "nonpayable",
			"type": "function"
		},
		{
			"inputs": [
				{
					"internalType": "address",
					"name": "operator",
					"type": "address"
				},
				{
					"internalType": "bool",
					"name": "approved",
					"type": "bool"
				}
			],
			"name": "setApprovalForAll",
			"outputs": [],
			"stateMutability": "nonpayable",
			"type": "function"
		},
		{
			"inputs": [
				{
					"internalType": "string",
					"name": "name_",
					"type": "string"
				},
				{
					"internalType": "string",
					"name": "description_",
					"type": "string"
				},
				{
					"internalType": "string",
					"name": "imageUri_",
					"type": "string"
				}
			],
			"name": "setMetadata",
			"outputs": [
				{
					"internalType": "bool",
					"name": "",
					"type": "bool"
				}
			],
			"stateMutability": "nonpayable",
			"type": "function"
		},
		{
			"inputs": [
				{
					"internalType": "uint256",
					"name": "QVEamount",
					"type": "uint256"
				},
				{
					"internalType": "address",
					"name": "_qveDefiAddress",
					"type": "address"
				},
				{
					"internalType": "uint256",
					"name": "tokenId",
					"type": "uint256"
				}
			],
			"name": "shortenLockup",
			"outputs": [
				{
					"internalType": "bool",
					"name": "",
					"type": "bool"
				}
			],
			"stateMutability": "nonpayable",
			"type": "function"
		},
		{
			"inputs": [
				{
					"internalType": "bytes4",
					"name": "interfaceId",
					"type": "bytes4"
				}
			],
			"name": "supportsInterface",
			"outputs": [
				{
					"internalType": "bool",
					"name": "",
					"type": "bool"
				}
			],
			"stateMutability": "view",
			"type": "function"
		},
		{
			"inputs": [],
			"name": "symbol",
			"outputs": [
				{
					"internalType": "string",
					"name": "",
					"type": "string"
				}
			],
			"stateMutability": "view",
			"type": "function"
		},
		{
			"inputs": [
				{
					"internalType": "uint256",
					"name": "tokenId",
					"type": "uint256"
				}
			],
			"name": "tokenURI",
			"outputs": [
				{
					"internalType": "string",
					"name": "",
					"type": "string"
				}
			],
			"stateMutability": "view",
			"type": "function"
		},
		{
			"inputs": [
				{
					"internalType": "address",
					"name": "from",
					"type": "address"
				},
				{
					"internalType": "address",
					"name": "to",
					"type": "address"
				},
				{
					"internalType": "uint256",
					"name": "tokenId",
					"type": "uint256"
				}
			],
			"name": "transferFrom",
			"outputs": [],
			"stateMutability": "nonpayable",
			"type": "function"
		}
	]
}