{
	"data": {
		"bytecode": {
			"linkReferences": {},
			"object": "608060405234801562000010575f80fd5b50604051620037ec380380620037ec833981810160405281019062000036919062000190565b6040518060400160405280600b81526020017f5156455f7374616b696e670000000000000000000000000000000000000000008152506040518060400160405280600d81526020017f5156455f47554152414e54454500000000000000000000000000000000000000815250815f9081620000b2919062000424565b508060019081620000c4919062000424565b5050508060075f6101000a81548173ffffffffffffffffffffffffffffffffffffffff021916908373ffffffffffffffffffffffffffffffffffffffff16021790555062ed4e006009819055505062000508565b5f80fd5b5f73ffffffffffffffffffffffffffffffffffffffff82169050919050565b5f62000147826200011c565b9050919050565b5f6200015a826200013b565b9050919050565b6200016c816200014e565b811462000177575f80fd5b50565b5f815190506200018a8162000161565b92915050565b5f60208284031215620001a857620001a762000118565b5b5f620001b7848285016200017a565b91505092915050565b5f81519050919050565b7f4e487b71000000000000000000000000000000000000000000000000000000005f52604160045260245ffd5b7f4e487b71000000000000000000000000000000000000000000000000000000005f52602260045260245ffd5b5f60028204905060018216806200023c57607f821691505b602082108103620002525762000251620001f7565b5b50919050565b5f819050815f5260205f209050919050565b5f6020601f8301049050919050565b5f82821b905092915050565b5f60088302620002b67fffffffffffffffffffffffffffffffffffffffffffffffffffffffffffffffff8262000279565b620002c2868362000279565b95508019841693508086168417925050509392505050565b5f819050919050565b5f819050919050565b5f6200030c620003066200030084620002da565b620002e3565b620002da565b9050919050565b5f819050919050565b6200032783620002ec565b6200033f620003368262000313565b84845462000285565b825550505050565b5f90565b6200035562000347565b620003628184846200031c565b505050565b5b8181101562000389576200037d5f826200034b565b60018101905062000368565b5050565b601f821115620003d857620003a28162000258565b620003ad846200026a565b81016020851015620003bd578190505b620003d5620003cc856200026a565b83018262000367565b50505b505050565b5f82821c905092915050565b5f620003fa5f1984600802620003dd565b1980831691505092915050565b5f620004148383620003e9565b9150826002028217905092915050565b6200042f82620001c0565b67ffffffffffffffff8111156200044b576200044a620001ca565b5b62000457825462000224565b620004648282856200038d565b5f60209050601f8311600181146200049a575f841562000485578287015190505b62000491858262000407565b86555062000500565b601f198416620004aa8662000258565b5f5b82811015620004d357848901518255600182019150602085019450602081019050620004ac565b86831015620004f35784890151620004ef601f891682620003e9565b8355505b6001600288020188555050505b505050505050565b6132d680620005165f395ff3fe608060405234801561000f575f80fd5b506004361061012a575f3560e01c80636352211e116100ab578063a22cb4651161006f578063a22cb46514610366578063b88d4fde14610382578063c87b56dd1461039e578063e985e9c5146103ce578063fdb06a31146103fe5761012a565b80636352211e1461029a5780636547113a146102ca57806370a08231146102e8578063906f09e01461031857806395d89b41146103485761012a565b8063095ea7b3116100f2578063095ea7b3146101fa5780631349d5bd1461021657806323b872dd1461024657806342842e0e1461026257806342966c681461027e5761012a565b806301ffc9a71461012e578063053354101461015e57806306fdde031461017c578063081812fc1461019a5780630890d80c146101ca575b5f80fd5b61014860048036038101906101439190611dfa565b61042e565b6040516101559190611e3f565b60405180910390f35b61016661050f565b6040516101739190611ed2565b60405180910390f35b610184610534565b6040516101919190611f75565b60405180910390f35b6101b460048036038101906101af9190611fc8565b6105c3565b6040516101c19190612013565b60405180910390f35b6101e460048036038101906101df9190612158565b610605565b6040516101f19190611e3f565b60405180910390f35b610214600480360381019061020f9190612226565b610641565b005b610230600480360381019061022b9190611fc8565b610757565b60405161023d9190612273565b60405180910390f35b610260600480360381019061025b919061228c565b61076c565b005b61027c6004803603810190610277919061228c565b6107cc565b005b61029860048036038101906102939190611fc8565b6107eb565b005b6102b460048036038101906102af9190611fc8565b610847565b6040516102c19190612013565b60405180910390f35b6102d26108cb565b6040516102df9190612013565b60405180910390f35b61030260048036038101906102fd91906122dc565b6108f0565b60405161030f9190612273565b60405180910390f35b610332600480360381019061032d91906122dc565b6109a4565b60405161033f9190612273565b60405180910390f35b6103506109f4565b60405161035d9190611f75565b60405180910390f35b610380600480360381019061037b9190612331565b610a84565b005b61039c6004803603810190610397919061240d565b610a9a565b005b6103b860048036038101906103b39190611fc8565b610afc565b6040516103c59190611f75565b60405180910390f35b6103e860048036038101906103e3919061248d565b610b35565b6040516103f59190611e3f565b60405180910390f35b610418600480360381019061041391906124cb565b610bc3565b6040516104259190611e3f565b60405180910390f35b5f7f80ac58cd000000000000000000000000000000000000000000000000000000007bffffffffffffffffffffffffffffffffffffffffffffffffffffffff1916827bffffffffffffffffffffffffffffffffffffffffffffffffffffffff191614806104f857507f5b5e139f000000000000000000000000000000000000000000000000000000007bffffffffffffffffffffffffffffffffffffffffffffffffffffffff1916827bffffffffffffffffffffffffffffffffffffffffffffffffffffffff1916145b80610508575061050782610ce0565b5b9050919050565b60075f9054906101000a900473ffffffffffffffffffffffffffffffffffffffff1681565b60605f805461054290612536565b80601f016020809104026020016040519081016040528092919081815260200182805461056e90612536565b80156105b95780601f10610590576101008083540402835291602001916105b9565b820191905f5260205f20905b81548152906001019060200180831161059c57829003601f168201915b5050505050905090565b5f6105cd82610d49565b60045f8381526020019081526020015f205f9054906101000a900473ffffffffffffffffffffffffffffffffffffffff169050919050565b5f83600a908161061591906126fa565b5082600b908161062591906126fa565b5081600c908161063591906126fa565b50600190509392505050565b5f61064b82610847565b90508073ffffffffffffffffffffffffffffffffffffffff168373ffffffffffffffffffffffffffffffffffffffff16036106bb576040517f08c379a00000000000000000000000000000000000000000000000000000000081526004016106b290612839565b60405180910390fd5b8073ffffffffffffffffffffffffffffffffffffffff166106da610d94565b73ffffffffffffffffffffffffffffffffffffffff161480610709575061070881610703610d94565b610b35565b5b610748576040517f08c379a000000000000000000000000000000000000000000000000000000000815260040161073f906128c7565b60405180910390fd5b6107528383610d9b565b505050565b600d602052805f5260405f205f915090505481565b61077d610777610d94565b82610e51565b6107bc576040517f08c379a00000000000000000000000000000000000000000000000000000000081526004016107b390612955565b60405180910390fd5b6107c7838383610ee5565b505050565b6107e683838360405180602001604052805f815250610a9a565b505050565b6107fc6107f6610d94565b82610e51565b61083b576040517f08c379a000000000000000000000000000000000000000000000000000000000815260040161083290612955565b60405180910390fd5b610844816111d1565b50565b5f8061085283611312565b90505f73ffffffffffffffffffffffffffffffffffffffff168173ffffffffffffffffffffffffffffffffffffffff16036108c2576040517f08c379a00000000000000000000000000000000000000000000000000000000081526004016108b9906129bd565b60405180910390fd5b80915050919050565b60085f9054906101000a900473ffffffffffffffffffffffffffffffffffffffff1681565b5f8073ffffffffffffffffffffffffffffffffffffffff168273ffffffffffffffffffffffffffffffffffffffff160361095f576040517f08c379a000000000000000000000000000000000000000000000000000000000815260040161095690612a4b565b60405180910390fd5b60035f8373ffffffffffffffffffffffffffffffffffffffff1673ffffffffffffffffffffffffffffffffffffffff1681526020019081526020015f20549050919050565b5f806109b0600661134b565b90506109cb838260405180602001604052805f815250611357565b42600d5f8381526020019081526020015f20819055506109eb60066113b1565b80915050919050565b606060018054610a0390612536565b80601f0160208091040260200160405190810160405280929190818152602001828054610a2f90612536565b8015610a7a5780601f10610a5157610100808354040283529160200191610a7a565b820191905f5260205f20905b815481529060010190602001808311610a5d57829003601f168201915b5050505050905090565b610a96610a8f610d94565b83836113c5565b5050565b610aab610aa5610d94565b83610e51565b610aea576040517f08c379a0000000000000000000000000000000000000000000000000000000008152600401610ae190612955565b60405180910390fd5b610af68484848461152c565b50505050565b6060610b0782610d49565b600a600b600c604051602001610b1f93929190612c1b565b6040516020818303038152906040529050919050565b5f60055f8473ffffffffffffffffffffffffffffffffffffffff1673ffffffffffffffffffffffffffffffffffffffff1681526020019081526020015f205f8373ffffffffffffffffffffffffffffffffffffffff1673ffffffffffffffffffffffffffffffffffffffff1681526020019081526020015f205f9054906101000a900460ff16905092915050565b5f610bcd82611588565b5060075f9054906101000a900473ffffffffffffffffffffffffffffffffffffffff1673ffffffffffffffffffffffffffffffffffffffff1663469895c83360085f9054906101000a900473ffffffffffffffffffffffffffffffffffffffff16866040518463ffffffff1660e01b8152600401610c4d93929190612c77565b6020604051808303815f875af1158015610c69573d5f803e3d5ffd5b505050506040513d601f19601f82011682018060405250810190610c8d9190612cc0565b610ccc576040517f08c379a0000000000000000000000000000000000000000000000000000000008152600401610cc390612d35565b60405180910390fd5b610cd583611640565b506001905092915050565b5f7f01ffc9a7000000000000000000000000000000000000000000000000000000007bffffffffffffffffffffffffffffffffffffffffffffffffffffffff1916827bffffffffffffffffffffffffffffffffffffffffffffffffffffffff1916149050919050565b610d528161169e565b610d91576040517f08c379a0000000000000000000000000000000000000000000000000000000008152600401610d88906129bd565b60405180910390fd5b50565b5f33905090565b8160045f8381526020019081526020015f205f6101000a81548173ffffffffffffffffffffffffffffffffffffffff021916908373ffffffffffffffffffffffffffffffffffffffff160217905550808273ffffffffffffffffffffffffffffffffffffffff16610e0b83610847565b73ffffffffffffffffffffffffffffffffffffffff167f8c5be1e5ebec7d5bd14f71427d1e84f3dd0314c0f7b2291e5b200ac8c7c3b92560405160405180910390a45050565b5f80610e5c83610847565b90508073ffffffffffffffffffffffffffffffffffffffff168473ffffffffffffffffffffffffffffffffffffffff161480610e9e5750610e9d8185610b35565b5b80610edc57508373ffffffffffffffffffffffffffffffffffffffff16610ec4846105c3565b73ffffffffffffffffffffffffffffffffffffffff16145b91505092915050565b8273ffffffffffffffffffffffffffffffffffffffff16610f0582610847565b73ffffffffffffffffffffffffffffffffffffffff1614610f5b576040517f08c379a0000000000000000000000000000000000000000000000000000000008152600401610f5290612dc3565b60405180910390fd5b5f73ffffffffffffffffffffffffffffffffffffffff168273ffffffffffffffffffffffffffffffffffffffff1603610fc9576040517f08c379a0000000000000000000000000000000000000000000000000000000008152600401610fc090612e51565b60405180910390fd5b610fd683838360016116de565b8273ffffffffffffffffffffffffffffffffffffffff16610ff682610847565b73ffffffffffffffffffffffffffffffffffffffff161461104c576040517f08c379a000000000000000000000000000000000000000000000000000000000815260040161104390612dc3565b60405180910390fd5b60045f8281526020019081526020015f205f6101000a81549073ffffffffffffffffffffffffffffffffffffffff0219169055600160035f8573ffffffffffffffffffffffffffffffffffffffff1673ffffffffffffffffffffffffffffffffffffffff1681526020019081526020015f205f8282540392505081905550600160035f8473ffffffffffffffffffffffffffffffffffffffff1673ffffffffffffffffffffffffffffffffffffffff1681526020019081526020015f205f82825401925050819055508160025f8381526020019081526020015f205f6101000a81548173ffffffffffffffffffffffffffffffffffffffff021916908373ffffffffffffffffffffffffffffffffffffffff160217905550808273ffffffffffffffffffffffffffffffffffffffff168473ffffffffffffffffffffffffffffffffffffffff167fddf252ad1be2c89b69c2b068fc378daa952ba7f163c4a11628f55a4df523b3ef60405160405180910390a46111cc83838360016117b6565b505050565b5f6111db82610847565b90506111ea815f8460016116de565b6111f382610847565b905060045f8381526020019081526020015f205f6101000a81549073ffffffffffffffffffffffffffffffffffffffff0219169055600160035f8373ffffffffffffffffffffffffffffffffffffffff1673ffffffffffffffffffffffffffffffffffffffff1681526020019081526020015f205f828254039250508190555060025f8381526020019081526020015f205f6101000a81549073ffffffffffffffffffffffffffffffffffffffff0219169055815f73ffffffffffffffffffffffffffffffffffffffff168273ffffffffffffffffffffffffffffffffffffffff167fddf252ad1be2c89b69c2b068fc378daa952ba7f163c4a11628f55a4df523b3ef60405160405180910390a461130e815f8460016117b6565b5050565b5f60025f8381526020019081526020015f205f9054906101000a900473ffffffffffffffffffffffffffffffffffffffff169050919050565b5f815f01549050919050565b61136183836117bc565b61136d5f8484846119cf565b6113ac576040517f08c379a00000000000000000000000000000000000000000000000000000000081526004016113a390612edf565b60405180910390fd5b505050565b6001815f015f828254019250508190555050565b8173ffffffffffffffffffffffffffffffffffffffff168373ffffffffffffffffffffffffffffffffffffffff1603611433576040517f08c379a000000000000000000000000000000000000000000000000000000000815260040161142a90612f47565b60405180910390fd5b8060055f8573ffffffffffffffffffffffffffffffffffffffff1673ffffffffffffffffffffffffffffffffffffffff1681526020019081526020015f205f8473ffffffffffffffffffffffffffffffffffffffff1673ffffffffffffffffffffffffffffffffffffffff1681526020019081526020015f205f6101000a81548160ff0219169083151502179055508173ffffffffffffffffffffffffffffffffffffffff168373ffffffffffffffffffffffffffffffffffffffff167f17307eab39ab6107e8899845ad3d59bd9653f200f220920489ca2b5937696c318360405161151f9190611e3f565b60405180910390a3505050565b611537848484610ee5565b611543848484846119cf565b611582576040517f08c379a000000000000000000000000000000000000000000000000000000000815260040161157990612edf565b60405180910390fd5b50505050565b5f8073ffffffffffffffffffffffffffffffffffffffff168273ffffffffffffffffffffffffffffffffffffffff16036115f7576040517f08c379a00000000000000000000000000000000000000000000000000000000081526004016115ee90612faf565b60405180910390fd5b8160085f6101000a81548173ffffffffffffffffffffffffffffffffffffffff021916908373ffffffffffffffffffffffffffffffffffffffff16021790555060019050919050565b5f808214611685576064821461167b5760c88214611671576103e8821461166a5762ed4e0061166c565b5f5b611676565b6283d6005b611680565b62ab63005b61168a565b62ed4e005b62ffffff1660098190555060019050919050565b5f8073ffffffffffffffffffffffffffffffffffffffff166116bf83611312565b73ffffffffffffffffffffffffffffffffffffffff1614159050919050565b6116ee8484846001945084611b51565b5f73ffffffffffffffffffffffffffffffffffffffff168473ffffffffffffffffffffffffffffffffffffffff16146117b057600954600d5f8481526020019081526020015f20546117409190612ffa565b42101561174e600954611b57565b60405160200161175e91906130a7565b604051602081830303815290604052906117ae576040517f08c379a00000000000000000000000000000000000000000000000000000000081526004016117a59190611f75565b60405180910390fd5b505b50505050565b50505050565b5f73ffffffffffffffffffffffffffffffffffffffff168273ffffffffffffffffffffffffffffffffffffffff160361182a576040517f08c379a000000000000000000000000000000000000000000000000000000000815260040161182190613112565b60405180910390fd5b6118338161169e565b15611873576040517f08c379a000000000000000000000000000000000000000000000000000000000815260040161186a9061317a565b60405180910390fd5b6118805f838360016116de565b6118898161169e565b156118c9576040517f08c379a00000000000000000000000000000000000000000000000000000000081526004016118c09061317a565b60405180910390fd5b600160035f8473ffffffffffffffffffffffffffffffffffffffff1673ffffffffffffffffffffffffffffffffffffffff1681526020019081526020015f205f82825401925050819055508160025f8381526020019081526020015f205f6101000a81548173ffffffffffffffffffffffffffffffffffffffff021916908373ffffffffffffffffffffffffffffffffffffffff160217905550808273ffffffffffffffffffffffffffffffffffffffff165f73ffffffffffffffffffffffffffffffffffffffff167fddf252ad1be2c89b69c2b068fc378daa952ba7f163c4a11628f55a4df523b3ef60405160405180910390a46119cb5f838360016117b6565b5050565b5f6119ef8473ffffffffffffffffffffffffffffffffffffffff16611c21565b15611b44578373ffffffffffffffffffffffffffffffffffffffff1663150b7a02611a18610d94565b8786866040518563ffffffff1660e01b8152600401611a3a94939291906131ea565b6020604051808303815f875af1925050508015611a7557506040513d601f19601f82011682018060405250810190611a729190613248565b60015b611af4573d805f8114611aa3576040519150601f19603f3d011682016040523d82523d5f602084013e611aa8565b606091505b505f815103611aec576040517f08c379a0000000000000000000000000000000000000000000000000000000008152600401611ae390612edf565b60405180910390fd5b805181602001fd5b63150b7a0260e01b7bffffffffffffffffffffffffffffffffffffffffffffffffffffffff1916817bffffffffffffffffffffffffffffffffffffffffffffffffffffffff191614915050611b49565b600190505b949350505050565b50505050565b60605f6001611b6584611c43565b0190505f8167ffffffffffffffff811115611b8357611b82612034565b5b6040519080825280601f01601f191660200182016040528015611bb55781602001600182028036833780820191505090505b5090505f82602001820190505b600115611c16578080600190039150507f3031323334353637383961626364656600000000000000000000000000000000600a86061a8153600a8581611c0b57611c0a613273565b5b0494505f8503611bc2575b819350505050919050565b5f808273ffffffffffffffffffffffffffffffffffffffff163b119050919050565b5f805f90507a184f03e93ff9f4daa797ed6e38ed64bf6a1f0100000000000000008310611c9f577a184f03e93ff9f4daa797ed6e38ed64bf6a1f0100000000000000008381611c9557611c94613273565b5b0492506040810190505b6d04ee2d6d415b85acef81000000008310611cdc576d04ee2d6d415b85acef81000000008381611cd257611cd1613273565b5b0492506020810190505b662386f26fc100008310611d0b57662386f26fc100008381611d0157611d00613273565b5b0492506010810190505b6305f5e1008310611d34576305f5e1008381611d2a57611d29613273565b5b0492506008810190505b6127108310611d59576127108381611d4f57611d4e613273565b5b0492506004810190505b60648310611d7c5760648381611d7257611d71613273565b5b0492506002810190505b600a8310611d8b576001810190505b80915050919050565b5f604051905090565b5f80fd5b5f80fd5b5f7fffffffff0000000000000000000000000000000000000000000000000000000082169050919050565b611dd981611da5565b8114611de3575f80fd5b50565b5f81359050611df481611dd0565b92915050565b5f60208284031215611e0f57611e0e611d9d565b5b5f611e1c84828501611de6565b91505092915050565b5f8115159050919050565b611e3981611e25565b82525050565b5f602082019050611e525f830184611e30565b92915050565b5f73ffffffffffffffffffffffffffffffffffffffff82169050919050565b5f819050919050565b5f611e9a611e95611e9084611e58565b611e77565b611e58565b9050919050565b5f611eab82611e80565b9050919050565b5f611ebc82611ea1565b9050919050565b611ecc81611eb2565b82525050565b5f602082019050611ee55f830184611ec3565b92915050565b5f81519050919050565b5f82825260208201905092915050565b5f5b83811015611f22578082015181840152602081019050611f07565b5f8484015250505050565b5f601f19601f8301169050919050565b5f611f4782611eeb565b611f518185611ef5565b9350611f61818560208601611f05565b611f6a81611f2d565b840191505092915050565b5f6020820190508181035f830152611f8d8184611f3d565b905092915050565b5f819050919050565b611fa781611f95565b8114611fb1575f80fd5b50565b5f81359050611fc281611f9e565b92915050565b5f60208284031215611fdd57611fdc611d9d565b5b5f611fea84828501611fb4565b91505092915050565b5f611ffd82611e58565b9050919050565b61200d81611ff3565b82525050565b5f6020820190506120265f830184612004565b92915050565b5f80fd5b5f80fd5b7f4e487b71000000000000000000000000000000000000000000000000000000005f52604160045260245ffd5b61206a82611f2d565b810181811067ffffffffffffffff8211171561208957612088612034565b5b80604052505050565b5f61209b611d94565b90506120a78282612061565b919050565b5f67ffffffffffffffff8211156120c6576120c5612034565b5b6120cf82611f2d565b9050602081019050919050565b828183375f83830152505050565b5f6120fc6120f7846120ac565b612092565b90508281526020810184848401111561211857612117612030565b5b6121238482856120dc565b509392505050565b5f82601f83011261213f5761213e61202c565b5b813561214f8482602086016120ea565b91505092915050565b5f805f6060848603121561216f5761216e611d9d565b5b5f84013567ffffffffffffffff81111561218c5761218b611da1565b5b6121988682870161212b565b935050602084013567ffffffffffffffff8111156121b9576121b8611da1565b5b6121c58682870161212b565b925050604084013567ffffffffffffffff8111156121e6576121e5611da1565b5b6121f28682870161212b565b9150509250925092565b61220581611ff3565b811461220f575f80fd5b50565b5f81359050612220816121fc565b92915050565b5f806040838503121561223c5761223b611d9d565b5b5f61224985828601612212565b925050602061225a85828601611fb4565b9150509250929050565b61226d81611f95565b82525050565b5f6020820190506122865f830184612264565b92915050565b5f805f606084860312156122a3576122a2611d9d565b5b5f6122b086828701612212565b93505060206122c186828701612212565b92505060406122d286828701611fb4565b9150509250925092565b5f602082840312156122f1576122f0611d9d565b5b5f6122fe84828501612212565b91505092915050565b61231081611e25565b811461231a575f80fd5b50565b5f8135905061232b81612307565b92915050565b5f806040838503121561234757612346611d9d565b5b5f61235485828601612212565b92505060206123658582860161231d565b9150509250929050565b5f67ffffffffffffffff82111561238957612388612034565b5b61239282611f2d565b9050602081019050919050565b5f6123b16123ac8461236f565b612092565b9050828152602081018484840111156123cd576123cc612030565b5b6123d88482856120dc565b509392505050565b5f82601f8301126123f4576123f361202c565b5b813561240484826020860161239f565b91505092915050565b5f805f806080858703121561242557612424611d9d565b5b5f61243287828801612212565b945050602061244387828801612212565b935050604061245487828801611fb4565b925050606085013567ffffffffffffffff81111561247557612474611da1565b5b612481878288016123e0565b91505092959194509250565b5f80604083850312156124a3576124a2611d9d565b5b5f6124b085828601612212565b92505060206124c185828601612212565b9150509250929050565b5f80604083850312156124e1576124e0611d9d565b5b5f6124ee85828601611fb4565b92505060206124ff85828601612212565b9150509250929050565b7f4e487b71000000000000000000000000000000000000000000000000000000005f52602260045260245ffd5b5f600282049050600182168061254d57607f821691505b6020821081036125605761255f612509565b5b50919050565b5f819050815f5260205f209050919050565b5f6020601f8301049050919050565b5f82821b905092915050565b5f600883026125c27fffffffffffffffffffffffffffffffffffffffffffffffffffffffffffffffff82612587565b6125cc8683612587565b95508019841693508086168417925050509392505050565b5f6125fe6125f96125f484611f95565b611e77565b611f95565b9050919050565b5f819050919050565b612617836125e4565b61262b61262382612605565b848454612593565b825550505050565b5f90565b61263f612633565b61264a81848461260e565b505050565b5b8181101561266d576126625f82612637565b600181019050612650565b5050565b601f8211156126b25761268381612566565b61268c84612578565b8101602085101561269b578190505b6126af6126a785612578565b83018261264f565b50505b505050565b5f82821c905092915050565b5f6126d25f19846008026126b7565b1980831691505092915050565b5f6126ea83836126c3565b9150826002028217905092915050565b61270382611eeb565b67ffffffffffffffff81111561271c5761271b612034565b5b6127268254612536565b612731828285612671565b5f60209050601f831160018114612762575f8415612750578287015190505b61275a85826126df565b8655506127c1565b601f19841661277086612566565b5f5b8281101561279757848901518255600182019150602085019450602081019050612772565b868310156127b457848901516127b0601f8916826126c3565b8355505b6001600288020188555050505b505050505050565b7f4552433732313a20617070726f76616c20746f2063757272656e74206f776e655f8201527f7200000000000000000000000000000000000000000000000000000000000000602082015250565b5f612823602183611ef5565b915061282e826127c9565b604082019050919050565b5f6020820190508181035f83015261285081612817565b9050919050565b7f4552433732313a20617070726f76652063616c6c6572206973206e6f7420746f5f8201527f6b656e206f776e6572206f7220617070726f76656420666f7220616c6c000000602082015250565b5f6128b1603d83611ef5565b91506128bc82612857565b604082019050919050565b5f6020820190508181035f8301526128de816128a5565b9050919050565b7f4552433732313a2063616c6c6572206973206e6f7420746f6b656e206f776e655f8201527f72206f7220617070726f76656400000000000000000000000000000000000000602082015250565b5f61293f602d83611ef5565b915061294a826128e5565b604082019050919050565b5f6020820190508181035f83015261296c81612933565b9050919050565b7f4552433732313a20696e76616c696420746f6b656e20494400000000000000005f82015250565b5f6129a7601883611ef5565b91506129b282612973565b602082019050919050565b5f6020820190508181035f8301526129d48161299b565b9050919050565b7f4552433732313a2061646472657373207a65726f206973206e6f7420612076615f8201527f6c6964206f776e65720000000000000000000000000000000000000000000000602082015250565b5f612a35602983611ef5565b9150612a40826129db565b604082019050919050565b5f6020820190508181035f830152612a6281612a29565b9050919050565b5f81905092915050565b7f646174613a6170706c69636174696f6e2f6a736f6e2c7b226e616d65223a22005f82015250565b5f612aa7601f83612a69565b9150612ab282612a73565b601f82019050919050565b5f8154612ac981612536565b612ad38186612a69565b9450600182165f8114612aed5760018114612b0257612b34565b60ff1983168652811515820286019350612b34565b612b0b85612566565b5f5b83811015612b2c57815481890152600182019150602081019050612b0d565b838801955050505b50505092915050565b7f222c20226465736372697074696f6e223a2200000000000000000000000000005f82015250565b5f612b71601283612a69565b9150612b7c82612b3d565b601282019050919050565b7f222c2022696d616765223a2200000000000000000000000000000000000000005f82015250565b5f612bbb600c83612a69565b9150612bc682612b87565b600c82019050919050565b7f227d0000000000000000000000000000000000000000000000000000000000005f82015250565b5f612c05600283612a69565b9150612c1082612bd1565b600282019050919050565b5f612c2582612a9b565b9150612c318286612abd565b9150612c3c82612b65565b9150612c488285612abd565b9150612c5382612baf565b9150612c5f8284612abd565b9150612c6a82612bf9565b9150819050949350505050565b5f606082019050612c8a5f830186612004565b612c976020830185612004565b612ca46040830184612264565b949350505050565b5f81519050612cba81612307565b92915050565b5f60208284031215612cd557612cd4611d9d565b5b5f612ce284828501612cac565b91505092915050565b7f717665546f6b656e207472616e73666572206572726f720000000000000000005f82015250565b5f612d1f601783611ef5565b9150612d2a82612ceb565b602082019050919050565b5f6020820190508181035f830152612d4c81612d13565b9050919050565b7f4552433732313a207472616e736665722066726f6d20696e636f7272656374205f8201527f6f776e6572000000000000000000000000000000000000000000000000000000602082015250565b5f612dad602583611ef5565b9150612db882612d53565b604082019050919050565b5f6020820190508181035f830152612dda81612da1565b9050919050565b7f4552433732313a207472616e7366657220746f20746865207a65726f206164645f8201527f7265737300000000000000000000000000000000000000000000000000000000602082015250565b5f612e3b602483611ef5565b9150612e4682612de1565b604082019050919050565b5f6020820190508181035f830152612e6881612e2f565b9050919050565b7f4552433732313a207472616e7366657220746f206e6f6e2045524337323152655f8201527f63656976657220696d706c656d656e7465720000000000000000000000000000602082015250565b5f612ec9603283611ef5565b9150612ed482612e6f565b604082019050919050565b5f6020820190508181035f830152612ef681612ebd565b9050919050565b7f4552433732313a20617070726f766520746f2063616c6c6572000000000000005f82015250565b5f612f31601983611ef5565b9150612f3c82612efd565b602082019050919050565b5f6020820190508181035f830152612f5e81612f25565b9050919050565b7f5f73657451564564656669206572726f720000000000000000000000000000005f82015250565b5f612f99601183611ef5565b9150612fa482612f65565b602082019050919050565b5f6020820190508181035f830152612fc681612f8d565b9050919050565b7f4e487b71000000000000000000000000000000000000000000000000000000005f52601160045260245ffd5b5f61300482611f95565b915061300f83611f95565b925082820190508082111561302757613026612fcd565b5b92915050565b7f746f6b656e206973207374696c6c20696e206c6f636b20706572696f640000005f82015250565b5f613061601d83612a69565b915061306c8261302d565b601d82019050919050565b5f61308182611eeb565b61308b8185612a69565b935061309b818560208601611f05565b80840191505092915050565b5f6130b182613055565b91506130bd8284613077565b915081905092915050565b7f4552433732313a206d696e7420746f20746865207a65726f20616464726573735f82015250565b5f6130fc602083611ef5565b9150613107826130c8565b602082019050919050565b5f6020820190508181035f830152613129816130f0565b9050919050565b7f4552433732313a20746f6b656e20616c7265616479206d696e746564000000005f82015250565b5f613164601c83611ef5565b915061316f82613130565b602082019050919050565b5f6020820190508181035f83015261319181613158565b9050919050565b5f81519050919050565b5f82825260208201905092915050565b5f6131bc82613198565b6131c681856131a2565b93506131d6818560208601611f05565b6131df81611f2d565b840191505092915050565b5f6080820190506131fd5f830187612004565b61320a6020830186612004565b6132176040830185612264565b818103606083015261322981846131b2565b905095945050505050565b5f8151905061324281611dd0565b92915050565b5f6020828403121561325d5761325c611d9d565b5b5f61326a84828501613234565b91505092915050565b7f4e487b71000000000000000000000000000000000000000000000000000000005f52601260045260245ffdfea264697066735822122026654139a1e51e0a60a430c234323ca573e51ede9d8b28bcd933898585af02a964736f6c63430008140033",
			"opcodes": "PUSH1 0x80 PUSH1 0x40 MSTORE CALLVALUE DUP1 ISZERO PUSH3 0x10 JUMPI PUSH0 DUP1 REVERT JUMPDEST POP PUSH1 0x40 MLOAD PUSH3 0x37EC CODESIZE SUB DUP1 PUSH3 0x37EC DUP4 CODECOPY DUP2 DUP2 ADD PUSH1 0x40 MSTORE DUP2 ADD SWAP1 PUSH3 0x36 SWAP2 SWAP1 PUSH3 0x190 JUMP JUMPDEST PUSH1 0x40 MLOAD DUP1 PUSH1 0x40 ADD PUSH1 0x40 MSTORE DUP1 PUSH1 0xB DUP2 MSTORE PUSH1 0x20 ADD PUSH32 0x5156455F7374616B696E67000000000000000000000000000000000000000000 DUP2 MSTORE POP PUSH1 0x40 MLOAD DUP1 PUSH1 0x40 ADD PUSH1 0x40 MSTORE DUP1 PUSH1 0xD DUP2 MSTORE PUSH1 0x20 ADD PUSH32 0x5156455F47554152414E54454500000000000000000000000000000000000000 DUP2 MSTORE POP DUP2 PUSH0 SWAP1 DUP2 PUSH3 0xB2 SWAP2 SWAP1 PUSH3 0x424 JUMP JUMPDEST POP DUP1 PUSH1 0x1 SWAP1 DUP2 PUSH3 0xC4 SWAP2 SWAP1 PUSH3 0x424 JUMP JUMPDEST POP POP POP DUP1 PUSH1 0x7 PUSH0 PUSH2 0x100 EXP DUP2 SLOAD DUP2 PUSH20 0xFFFFFFFFFFFFFFFFFFFFFFFFFFFFFFFFFFFFFFFF MUL NOT AND SWAP1 DUP4 PUSH20 0xFFFFFFFFFFFFFFFFFFFFFFFFFFFFFFFFFFFFFFFF AND MUL OR SWAP1 SSTORE POP PUSH3 0xED4E00 PUSH1 0x9 DUP2 SWAP1 SSTORE POP POP PUSH3 0x508 JUMP JUMPDEST PUSH0 DUP1 REVERT JUMPDEST PUSH0 PUSH20 0xFFFFFFFFFFFFFFFFFFFFFFFFFFFFFFFFFFFFFFFF DUP3 AND SWAP1 POP SWAP2 SWAP1 POP JUMP JUMPDEST PUSH0 PUSH3 0x147 DUP3 PUSH3 0x11C JUMP JUMPDEST SWAP1 POP SWAP2 SWAP1 POP JUMP JUMPDEST PUSH0 PUSH3 0x15A DUP3 PUSH3 0x13B JUMP JUMPDEST SWAP1 POP SWAP2 SWAP1 POP JUMP JUMPDEST PUSH3 0x16C DUP2 PUSH3 0x14E JUMP JUMPDEST DUP2 EQ PUSH3 0x177 JUMPI PUSH0 DUP1 REVERT JUMPDEST POP JUMP JUMPDEST PUSH0 DUP2 MLOAD SWAP1 POP PUSH3 0x18A DUP2 PUSH3 0x161 JUMP JUMPDEST SWAP3 SWAP2 POP POP JUMP JUMPDEST PUSH0 PUSH1 0x20 DUP3 DUP5 SUB SLT ISZERO PUSH3 0x1A8 JUMPI PUSH3 0x1A7 PUSH3 0x118 JUMP JUMPDEST JUMPDEST PUSH0 PUSH3 0x1B7 DUP5 DUP3 DUP6 ADD PUSH3 0x17A JUMP JUMPDEST SWAP2 POP POP SWAP3 SWAP2 POP POP JUMP JUMPDEST PUSH0 DUP2 MLOAD SWAP1 POP SWAP2 SWAP1 POP JUMP JUMPDEST PUSH32 0x4E487B7100000000000000000000000000000000000000000000000000000000 PUSH0 MSTORE PUSH1 0x41 PUSH1 0x4 MSTORE PUSH1 0x24 PUSH0 REVERT JUMPDEST PUSH32 0x4E487B7100000000000000000000000000000000000000000000000000000000 PUSH0 MSTORE PUSH1 0x22 PUSH1 0x4 MSTORE PUSH1 0x24 PUSH0 REVERT JUMPDEST PUSH0 PUSH1 0x2 DUP3 DIV SWAP1 POP PUSH1 0x1 DUP3 AND DUP1 PUSH3 0x23C JUMPI PUSH1 0x7F DUP3 AND SWAP2 POP JUMPDEST PUSH1 0x20 DUP3 LT DUP2 SUB PUSH3 0x252 JUMPI PUSH3 0x251 PUSH3 0x1F7 JUMP JUMPDEST JUMPDEST POP SWAP2 SWAP1 POP JUMP JUMPDEST PUSH0 DUP2 SWAP1 POP DUP2 PUSH0 MSTORE PUSH1 0x20 PUSH0 KECCAK256 SWAP1 POP SWAP2 SWAP1 POP JUMP JUMPDEST PUSH0 PUSH1 0x20 PUSH1 0x1F DUP4 ADD DIV SWAP1 POP SWAP2 SWAP1 POP JUMP JUMPDEST PUSH0 DUP3 DUP3 SHL SWAP1 POP SWAP3 SWAP2 POP POP JUMP JUMPDEST PUSH0 PUSH1 0x8 DUP4 MUL PUSH3 0x2B6 PUSH32 0xFFFFFFFFFFFFFFFFFFFFFFFFFFFFFFFFFFFFFFFFFFFFFFFFFFFFFFFFFFFFFFFF DUP3 PUSH3 0x279 JUMP JUMPDEST PUSH3 0x2C2 DUP7 DUP4 PUSH3 0x279 JUMP JUMPDEST SWAP6 POP DUP1 NOT DUP5 AND SWAP4 POP DUP1 DUP7 AND DUP5 OR SWAP3 POP POP POP SWAP4 SWAP3 POP POP POP JUMP JUMPDEST PUSH0 DUP2 SWAP1 POP SWAP2 SWAP1 POP JUMP JUMPDEST PUSH0 DUP2 SWAP1 POP SWAP2 SWAP1 POP JUMP JUMPDEST PUSH0 PUSH3 0x30C PUSH3 0x306 PUSH3 0x300 DUP5 PUSH3 0x2DA JUMP JUMPDEST PUSH3 0x2E3 JUMP JUMPDEST PUSH3 0x2DA JUMP JUMPDEST SWAP1 POP SWAP2 SWAP1 POP JUMP JUMPDEST PUSH0 DUP2 SWAP1 POP SWAP2 SWAP1 POP JUMP JUMPDEST PUSH3 0x327 DUP4 PUSH3 0x2EC JUMP JUMPDEST PUSH3 0x33F PUSH3 0x336 DUP3 PUSH3 0x313 JUMP JUMPDEST DUP5 DUP5 SLOAD PUSH3 0x285 JUMP JUMPDEST DUP3 SSTORE POP POP POP POP JUMP JUMPDEST PUSH0 SWAP1 JUMP JUMPDEST PUSH3 0x355 PUSH3 0x347 JUMP JUMPDEST PUSH3 0x362 DUP2 DUP5 DUP5 PUSH3 0x31C JUMP JUMPDEST POP POP POP JUMP JUMPDEST JUMPDEST DUP2 DUP2 LT ISZERO PUSH3 0x389 JUMPI PUSH3 0x37D PUSH0 DUP3 PUSH3 0x34B JUMP JUMPDEST PUSH1 0x1 DUP2 ADD SWAP1 POP PUSH3 0x368 JUMP JUMPDEST POP POP JUMP JUMPDEST PUSH1 0x1F DUP3 GT ISZERO PUSH3 0x3D8 JUMPI PUSH3 0x3A2 DUP2 PUSH3 0x258 JUMP JUMPDEST PUSH3 0x3AD DUP5 PUSH3 0x26A JUMP JUMPDEST DUP2 ADD PUSH1 0x20 DUP6 LT ISZERO PUSH3 0x3BD JUMPI DUP2 SWAP1 POP JUMPDEST PUSH3 0x3D5 PUSH3 0x3CC DUP6 PUSH3 0x26A JUMP JUMPDEST DUP4 ADD DUP3 PUSH3 0x367 JUMP JUMPDEST POP POP JUMPDEST POP POP POP JUMP JUMPDEST PUSH0 DUP3 DUP3 SHR SWAP1 POP SWAP3 SWAP2 POP POP JUMP JUMPDEST PUSH0 PUSH3 0x3FA PUSH0 NOT DUP5 PUSH1 0x8 MUL PUSH3 0x3DD JUMP JUMPDEST NOT DUP1 DUP4 AND SWAP2 POP POP SWAP3 SWAP2 POP POP JUMP JUMPDEST PUSH0 PUSH3 0x414 DUP4 DUP4 PUSH3 0x3E9 JUMP JUMPDEST SWAP2 POP DUP3 PUSH1 0x2 MUL DUP3 OR SWAP1 POP SWAP3 SWAP2 POP POP JUMP JUMPDEST PUSH3 0x42F DUP3 PUSH3 0x1C0 JUMP JUMPDEST PUSH8 0xFFFFFFFFFFFFFFFF DUP2 GT ISZERO PUSH3 0x44B JUMPI PUSH3 0x44A PUSH3 0x1CA JUMP JUMPDEST JUMPDEST PUSH3 0x457 DUP3 SLOAD PUSH3 0x224 JUMP JUMPDEST PUSH3 0x464 DUP3 DUP3 DUP6 PUSH3 0x38D JUMP JUMPDEST PUSH0 PUSH1 0x20 SWAP1 POP PUSH1 0x1F DUP4 GT PUSH1 0x1 DUP2 EQ PUSH3 0x49A JUMPI PUSH0 DUP5 ISZERO PUSH3 0x485 JUMPI DUP3 DUP8 ADD MLOAD SWAP1 POP JUMPDEST PUSH3 0x491 DUP6 DUP3 PUSH3 0x407 JUMP JUMPDEST DUP7 SSTORE POP PUSH3 0x500 JUMP JUMPDEST PUSH1 0x1F NOT DUP5 AND PUSH3 0x4AA DUP7 PUSH3 0x258 JUMP JUMPDEST PUSH0 JUMPDEST DUP3 DUP2 LT ISZERO PUSH3 0x4D3 JUMPI DUP5 DUP10 ADD MLOAD DUP3 SSTORE PUSH1 0x1 DUP3 ADD SWAP2 POP PUSH1 0x20 DUP6 ADD SWAP5 POP PUSH1 0x20 DUP2 ADD SWAP1 POP PUSH3 0x4AC JUMP JUMPDEST DUP7 DUP4 LT ISZERO PUSH3 0x4F3 JUMPI DUP5 DUP10 ADD MLOAD PUSH3 0x4EF PUSH1 0x1F DUP10 AND DUP3 PUSH3 0x3E9 JUMP JUMPDEST DUP4 SSTORE POP JUMPDEST PUSH1 0x1 PUSH1 0x2 DUP9 MUL ADD DUP9 SSTORE POP POP POP JUMPDEST POP POP POP POP POP POP JUMP JUMPDEST PUSH2 0x32D6 DUP1 PUSH3 0x516 PUSH0 CODECOPY PUSH0 RETURN INVALID PUSH1 0x80 PUSH1 0x40 MSTORE CALLVALUE DUP1 ISZERO PUSH2 0xF JUMPI PUSH0 DUP1 REVERT JUMPDEST POP PUSH1 0x4 CALLDATASIZE LT PUSH2 0x12A JUMPI PUSH0 CALLDATALOAD PUSH1 0xE0 SHR DUP1 PUSH4 0x6352211E GT PUSH2 0xAB JUMPI DUP1 PUSH4 0xA22CB465 GT PUSH2 0x6F JUMPI DUP1 PUSH4 0xA22CB465 EQ PUSH2 0x366 JUMPI DUP1 PUSH4 0xB88D4FDE EQ PUSH2 0x382 JUMPI DUP1 PUSH4 0xC87B56DD EQ PUSH2 0x39E JUMPI DUP1 PUSH4 0xE985E9C5 EQ PUSH2 0x3CE JUMPI DUP1 PUSH4 0xFDB06A31 EQ PUSH2 0x3FE JUMPI PUSH2 0x12A JUMP JUMPDEST DUP1 PUSH4 0x6352211E EQ PUSH2 0x29A JUMPI DUP1 PUSH4 0x6547113A EQ PUSH2 0x2CA JUMPI DUP1 PUSH4 0x70A08231 EQ PUSH2 0x2E8 JUMPI DUP1 PUSH4 0x906F09E0 EQ PUSH2 0x318 JUMPI DUP1 PUSH4 0x95D89B41 EQ PUSH2 0x348 JUMPI PUSH2 0x12A JUMP JUMPDEST DUP1 PUSH4 0x95EA7B3 GT PUSH2 0xF2 JUMPI DUP1 PUSH4 0x95EA7B3 EQ PUSH2 0x1FA JUMPI DUP1 PUSH4 0x1349D5BD EQ PUSH2 0x216 JUMPI DUP1 PUSH4 0x23B872DD EQ PUSH2 0x246 JUMPI DUP1 PUSH4 0x42842E0E EQ PUSH2 0x262 JUMPI DUP1 PUSH4 0x42966C68 EQ PUSH2 0x27E JUMPI PUSH2 0x12A JUMP JUMPDEST DUP1 PUSH4 0x1FFC9A7 EQ PUSH2 0x12E JUMPI DUP1 PUSH4 0x5335410 EQ PUSH2 0x15E JUMPI DUP1 PUSH4 0x6FDDE03 EQ PUSH2 0x17C JUMPI DUP1 PUSH4 0x81812FC EQ PUSH2 0x19A JUMPI DUP1 PUSH4 0x890D80C EQ PUSH2 0x1CA JUMPI JUMPDEST PUSH0 DUP1 REVERT JUMPDEST PUSH2 0x148 PUSH1 0x4 DUP1 CALLDATASIZE SUB DUP2 ADD SWAP1 PUSH2 0x143 SWAP2 SWAP1 PUSH2 0x1DFA JUMP JUMPDEST PUSH2 0x42E JUMP JUMPDEST PUSH1 0x40 MLOAD PUSH2 0x155 SWAP2 SWAP1 PUSH2 0x1E3F JUMP JUMPDEST PUSH1 0x40 MLOAD DUP1 SWAP2 SUB SWAP1 RETURN JUMPDEST PUSH2 0x166 PUSH2 0x50F JUMP JUMPDEST PUSH1 0x40 MLOAD PUSH2 0x173 SWAP2 SWAP1 PUSH2 0x1ED2 JUMP JUMPDEST PUSH1 0x40 MLOAD DUP1 SWAP2 SUB SWAP1 RETURN JUMPDEST PUSH2 0x184 PUSH2 0x534 JUMP JUMPDEST PUSH1 0x40 MLOAD PUSH2 0x191 SWAP2 SWAP1 PUSH2 0x1F75 JUMP JUMPDEST PUSH1 0x40 MLOAD DUP1 SWAP2 SUB SWAP1 RETURN JUMPDEST PUSH2 0x1B4 PUSH1 0x4 DUP1 CALLDATASIZE SUB DUP2 ADD SWAP1 PUSH2 0x1AF SWAP2 SWAP1 PUSH2 0x1FC8 JUMP JUMPDEST PUSH2 0x5C3 JUMP JUMPDEST PUSH1 0x40 MLOAD PUSH2 0x1C1 SWAP2 SWAP1 PUSH2 0x2013 JUMP JUMPDEST PUSH1 0x40 MLOAD DUP1 SWAP2 SUB SWAP1 RETURN JUMPDEST PUSH2 0x1E4 PUSH1 0x4 DUP1 CALLDATASIZE SUB DUP2 ADD SWAP1 PUSH2 0x1DF SWAP2 SWAP1 PUSH2 0x2158 JUMP JUMPDEST PUSH2 0x605 JUMP JUMPDEST PUSH1 0x40 MLOAD PUSH2 0x1F1 SWAP2 SWAP1 PUSH2 0x1E3F JUMP JUMPDEST PUSH1 0x40 MLOAD DUP1 SWAP2 SUB SWAP1 RETURN JUMPDEST PUSH2 0x214 PUSH1 0x4 DUP1 CALLDATASIZE SUB DUP2 ADD SWAP1 PUSH2 0x20F SWAP2 SWAP1 PUSH2 0x2226 JUMP JUMPDEST PUSH2 0x641 JUMP JUMPDEST STOP JUMPDEST PUSH2 0x230 PUSH1 0x4 DUP1 CALLDATASIZE SUB DUP2 ADD SWAP1 PUSH2 0x22B SWAP2 SWAP1 PUSH2 0x1FC8 JUMP JUMPDEST PUSH2 0x757 JUMP JUMPDEST PUSH1 0x40 MLOAD PUSH2 0x23D SWAP2 SWAP1 PUSH2 0x2273 JUMP JUMPDEST PUSH1 0x40 MLOAD DUP1 SWAP2 SUB SWAP1 RETURN JUMPDEST PUSH2 0x260 PUSH1 0x4 DUP1 CALLDATASIZE SUB DUP2 ADD SWAP1 PUSH2 0x25B SWAP2 SWAP1 PUSH2 0x228C JUMP JUMPDEST PUSH2 0x76C JUMP JUMPDEST STOP JUMPDEST PUSH2 0x27C PUSH1 0x4 DUP1 CALLDATASIZE SUB DUP2 ADD SWAP1 PUSH2 0x277 SWAP2 SWAP1 PUSH2 0x228C JUMP JUMPDEST PUSH2 0x7CC JUMP JUMPDEST STOP JUMPDEST PUSH2 0x298 PUSH1 0x4 DUP1 CALLDATASIZE SUB DUP2 ADD SWAP1 PUSH2 0x293 SWAP2 SWAP1 PUSH2 0x1FC8 JUMP JUMPDEST PUSH2 0x7EB JUMP JUMPDEST STOP JUMPDEST PUSH2 0x2B4 PUSH1 0x4 DUP1 CALLDATASIZE SUB DUP2 ADD SWAP1 PUSH2 0x2AF SWAP2 SWAP1 PUSH2 0x1FC8 JUMP JUMPDEST PUSH2 0x847 JUMP JUMPDEST PUSH1 0x40 MLOAD PUSH2 0x2C1 SWAP2 SWAP1 PUSH2 0x2013 JUMP JUMPDEST PUSH1 0x40 MLOAD DUP1 SWAP2 SUB SWAP1 RETURN JUMPDEST PUSH2 0x2D2 PUSH2 0x8CB JUMP JUMPDEST PUSH1 0x40 MLOAD PUSH2 0x2DF SWAP2 SWAP1 PUSH2 0x2013 JUMP JUMPDEST PUSH1 0x40 MLOAD DUP1 SWAP2 SUB SWAP1 RETURN JUMPDEST PUSH2 0x302 PUSH1 0x4 DUP1 CALLDATASIZE SUB DUP2 ADD SWAP1 PUSH2 0x2FD SWAP2 SWAP1 PUSH2 0x22DC JUMP JUMPDEST PUSH2 0x8F0 JUMP JUMPDEST PUSH1 0x40 MLOAD PUSH2 0x30F SWAP2 SWAP1 PUSH2 0x2273 JUMP JUMPDEST PUSH1 0x40 MLOAD DUP1 SWAP2 SUB SWAP1 RETURN JUMPDEST PUSH2 0x332 PUSH1 0x4 DUP1 CALLDATASIZE SUB DUP2 ADD SWAP1 PUSH2 0x32D SWAP2 SWAP1 PUSH2 0x22DC JUMP JUMPDEST PUSH2 0x9A4 JUMP JUMPDEST PUSH1 0x40 MLOAD PUSH2 0x33F SWAP2 SWAP1 PUSH2 0x2273 JUMP JUMPDEST PUSH1 0x40 MLOAD DUP1 SWAP2 SUB SWAP1 RETURN JUMPDEST PUSH2 0x350 PUSH2 0x9F4 JUMP JUMPDEST PUSH1 0x40 MLOAD PUSH2 0x35D SWAP2 SWAP1 PUSH2 0x1F75 JUMP JUMPDEST PUSH1 0x40 MLOAD DUP1 SWAP2 SUB SWAP1 RETURN JUMPDEST PUSH2 0x380 PUSH1 0x4 DUP1 CALLDATASIZE SUB DUP2 ADD SWAP1 PUSH2 0x37B SWAP2 SWAP1 PUSH2 0x2331 JUMP JUMPDEST PUSH2 0xA84 JUMP JUMPDEST STOP JUMPDEST PUSH2 0x39C PUSH1 0x4 DUP1 CALLDATASIZE SUB DUP2 ADD SWAP1 PUSH2 0x397 SWAP2 SWAP1 PUSH2 0x240D JUMP JUMPDEST PUSH2 0xA9A JUMP JUMPDEST STOP JUMPDEST PUSH2 0x3B8 PUSH1 0x4 DUP1 CALLDATASIZE SUB DUP2 ADD SWAP1 PUSH2 0x3B3 SWAP2 SWAP1 PUSH2 0x1FC8 JUMP JUMPDEST PUSH2 0xAFC JUMP JUMPDEST PUSH1 0x40 MLOAD PUSH2 0x3C5 SWAP2 SWAP1 PUSH2 0x1F75 JUMP JUMPDEST PUSH1 0x40 MLOAD DUP1 SWAP2 SUB SWAP1 RETURN JUMPDEST PUSH2 0x3E8 PUSH1 0x4 DUP1 CALLDATASIZE SUB DUP2 ADD SWAP1 PUSH2 0x3E3 SWAP2 SWAP1 PUSH2 0x248D JUMP JUMPDEST PUSH2 0xB35 JUMP JUMPDEST PUSH1 0x40 MLOAD PUSH2 0x3F5 SWAP2 SWAP1 PUSH2 0x1E3F JUMP JUMPDEST PUSH1 0x40 MLOAD DUP1 SWAP2 SUB SWAP1 RETURN JUMPDEST PUSH2 0x418 PUSH1 0x4 DUP1 CALLDATASIZE SUB DUP2 ADD SWAP1 PUSH2 0x413 SWAP2 SWAP1 PUSH2 0x24CB JUMP JUMPDEST PUSH2 0xBC3 JUMP JUMPDEST PUSH1 0x40 MLOAD PUSH2 0x425 SWAP2 SWAP1 PUSH2 0x1E3F JUMP JUMPDEST PUSH1 0x40 MLOAD DUP1 SWAP2 SUB SWAP1 RETURN JUMPDEST PUSH0 PUSH32 0x80AC58CD00000000000000000000000000000000000000000000000000000000 PUSH28 0xFFFFFFFFFFFFFFFFFFFFFFFFFFFFFFFFFFFFFFFFFFFFFFFFFFFFFFFF NOT AND DUP3 PUSH28 0xFFFFFFFFFFFFFFFFFFFFFFFFFFFFFFFFFFFFFFFFFFFFFFFFFFFFFFFF NOT AND EQ DUP1 PUSH2 0x4F8 JUMPI POP PUSH32 0x5B5E139F00000000000000000000000000000000000000000000000000000000 PUSH28 0xFFFFFFFFFFFFFFFFFFFFFFFFFFFFFFFFFFFFFFFFFFFFFFFFFFFFFFFF NOT AND DUP3 PUSH28 0xFFFFFFFFFFFFFFFFFFFFFFFFFFFFFFFFFFFFFFFFFFFFFFFFFFFFFFFF NOT AND EQ JUMPDEST DUP1 PUSH2 0x508 JUMPI POP PUSH2 0x507 DUP3 PUSH2 0xCE0 JUMP JUMPDEST JUMPDEST SWAP1 POP SWAP2 SWAP1 POP JUMP JUMPDEST PUSH1 0x7 PUSH0 SWAP1 SLOAD SWAP1 PUSH2 0x100 EXP SWAP1 DIV PUSH20 0xFFFFFFFFFFFFFFFFFFFFFFFFFFFFFFFFFFFFFFFF AND DUP2 JUMP JUMPDEST PUSH1 0x60 PUSH0 DUP1 SLOAD PUSH2 0x542 SWAP1 PUSH2 0x2536 JUMP JUMPDEST DUP1 PUSH1 0x1F ADD PUSH1 0x20 DUP1 SWAP2 DIV MUL PUSH1 0x20 ADD PUSH1 0x40 MLOAD SWAP1 DUP2 ADD PUSH1 0x40 MSTORE DUP1 SWAP3 SWAP2 SWAP1 DUP2 DUP2 MSTORE PUSH1 0x20 ADD DUP3 DUP1 SLOAD PUSH2 0x56E SWAP1 PUSH2 0x2536 JUMP JUMPDEST DUP1 ISZERO PUSH2 0x5B9 JUMPI DUP1 PUSH1 0x1F LT PUSH2 0x590 JUMPI PUSH2 0x100 DUP1 DUP4 SLOAD DIV MUL DUP4 MSTORE SWAP2 PUSH1 0x20 ADD SWAP2 PUSH2 0x5B9 JUMP JUMPDEST DUP3 ADD SWAP2 SWAP1 PUSH0 MSTORE PUSH1 0x20 PUSH0 KECCAK256 SWAP1 JUMPDEST DUP2 SLOAD DUP2 MSTORE SWAP1 PUSH1 0x1 ADD SWAP1 PUSH1 0x20 ADD DUP1 DUP4 GT PUSH2 0x59C JUMPI DUP3 SWAP1 SUB PUSH1 0x1F AND DUP3 ADD SWAP2 JUMPDEST POP POP POP POP POP SWAP1 POP SWAP1 JUMP JUMPDEST PUSH0 PUSH2 0x5CD DUP3 PUSH2 0xD49 JUMP JUMPDEST PUSH1 0x4 PUSH0 DUP4 DUP2 MSTORE PUSH1 0x20 ADD SWAP1 DUP2 MSTORE PUSH1 0x20 ADD PUSH0 KECCAK256 PUSH0 SWAP1 SLOAD SWAP1 PUSH2 0x100 EXP SWAP1 DIV PUSH20 0xFFFFFFFFFFFFFFFFFFFFFFFFFFFFFFFFFFFFFFFF AND SWAP1 POP SWAP2 SWAP1 POP JUMP JUMPDEST PUSH0 DUP4 PUSH1 0xA SWAP1 DUP2 PUSH2 0x615 SWAP2 SWAP1 PUSH2 0x26FA JUMP JUMPDEST POP DUP3 PUSH1 0xB SWAP1 DUP2 PUSH2 0x625 SWAP2 SWAP1 PUSH2 0x26FA JUMP JUMPDEST POP DUP2 PUSH1 0xC SWAP1 DUP2 PUSH2 0x635 SWAP2 SWAP1 PUSH2 0x26FA JUMP JUMPDEST POP PUSH1 0x1 SWAP1 POP SWAP4 SWAP3 POP POP POP JUMP JUMPDEST PUSH0 PUSH2 0x64B DUP3 PUSH2 0x847 JUMP JUMPDEST SWAP1 POP DUP1 PUSH20 0xFFFFFFFFFFFFFFFFFFFFFFFFFFFFFFFFFFFFFFFF AND DUP4 PUSH20 0xFFFFFFFFFFFFFFFFFFFFFFFFFFFFFFFFFFFFFFFF AND SUB PUSH2 0x6BB JUMPI PUSH1 0x40 MLOAD PUSH32 0x8C379A000000000000000000000000000000000000000000000000000000000 DUP2 MSTORE PUSH1 0x4 ADD PUSH2 0x6B2 SWAP1 PUSH2 0x2839 JUMP JUMPDEST PUSH1 0x40 MLOAD DUP1 SWAP2 SUB SWAP1 REVERT JUMPDEST DUP1 PUSH20 0xFFFFFFFFFFFFFFFFFFFFFFFFFFFFFFFFFFFFFFFF AND PUSH2 0x6DA PUSH2 0xD94 JUMP JUMPDEST PUSH20 0xFFFFFFFFFFFFFFFFFFFFFFFFFFFFFFFFFFFFFFFF AND EQ DUP1 PUSH2 0x709 JUMPI POP PUSH2 0x708 DUP2 PUSH2 0x703 PUSH2 0xD94 JUMP JUMPDEST PUSH2 0xB35 JUMP JUMPDEST JUMPDEST PUSH2 0x748 JUMPI PUSH1 0x40 MLOAD PUSH32 0x8C379A000000000000000000000000000000000000000000000000000000000 DUP2 MSTORE PUSH1 0x4 ADD PUSH2 0x73F SWAP1 PUSH2 0x28C7 JUMP JUMPDEST PUSH1 0x40 MLOAD DUP1 SWAP2 SUB SWAP1 REVERT JUMPDEST PUSH2 0x752 DUP4 DUP4 PUSH2 0xD9B JUMP JUMPDEST POP POP POP JUMP JUMPDEST PUSH1 0xD PUSH1 0x20 MSTORE DUP1 PUSH0 MSTORE PUSH1 0x40 PUSH0 KECCAK256 PUSH0 SWAP2 POP SWAP1 POP SLOAD DUP2 JUMP JUMPDEST PUSH2 0x77D PUSH2 0x777 PUSH2 0xD94 JUMP JUMPDEST DUP3 PUSH2 0xE51 JUMP JUMPDEST PUSH2 0x7BC JUMPI PUSH1 0x40 MLOAD PUSH32 0x8C379A000000000000000000000000000000000000000000000000000000000 DUP2 MSTORE PUSH1 0x4 ADD PUSH2 0x7B3 SWAP1 PUSH2 0x2955 JUMP JUMPDEST PUSH1 0x40 MLOAD DUP1 SWAP2 SUB SWAP1 REVERT JUMPDEST PUSH2 0x7C7 DUP4 DUP4 DUP4 PUSH2 0xEE5 JUMP JUMPDEST POP POP POP JUMP JUMPDEST PUSH2 0x7E6 DUP4 DUP4 DUP4 PUSH1 0x40 MLOAD DUP1 PUSH1 0x20 ADD PUSH1 0x40 MSTORE DUP1 PUSH0 DUP2 MSTORE POP PUSH2 0xA9A JUMP JUMPDEST POP POP POP JUMP JUMPDEST PUSH2 0x7FC PUSH2 0x7F6 PUSH2 0xD94 JUMP JUMPDEST DUP3 PUSH2 0xE51 JUMP JUMPDEST PUSH2 0x83B JUMPI PUSH1 0x40 MLOAD PUSH32 0x8C379A000000000000000000000000000000000000000000000000000000000 DUP2 MSTORE PUSH1 0x4 ADD PUSH2 0x832 SWAP1 PUSH2 0x2955 JUMP JUMPDEST PUSH1 0x40 MLOAD DUP1 SWAP2 SUB SWAP1 REVERT JUMPDEST PUSH2 0x844 DUP2 PUSH2 0x11D1 JUMP JUMPDEST POP JUMP JUMPDEST PUSH0 DUP1 PUSH2 0x852 DUP4 PUSH2 0x1312 JUMP JUMPDEST SWAP1 POP PUSH0 PUSH20 0xFFFFFFFFFFFFFFFFFFFFFFFFFFFFFFFFFFFFFFFF AND DUP2 PUSH20 0xFFFFFFFFFFFFFFFFFFFFFFFFFFFFFFFFFFFFFFFF AND SUB PUSH2 0x8C2 JUMPI PUSH1 0x40 MLOAD PUSH32 0x8C379A000000000000000000000000000000000000000000000000000000000 DUP2 MSTORE PUSH1 0x4 ADD PUSH2 0x8B9 SWAP1 PUSH2 0x29BD JUMP JUMPDEST PUSH1 0x40 MLOAD DUP1 SWAP2 SUB SWAP1 REVERT JUMPDEST DUP1 SWAP2 POP POP SWAP2 SWAP1 POP JUMP JUMPDEST PUSH1 0x8 PUSH0 SWAP1 SLOAD SWAP1 PUSH2 0x100 EXP SWAP1 DIV PUSH20 0xFFFFFFFFFFFFFFFFFFFFFFFFFFFFFFFFFFFFFFFF AND DUP2 JUMP JUMPDEST PUSH0 DUP1 PUSH20 0xFFFFFFFFFFFFFFFFFFFFFFFFFFFFFFFFFFFFFFFF AND DUP3 PUSH20 0xFFFFFFFFFFFFFFFFFFFFFFFFFFFFFFFFFFFFFFFF AND SUB PUSH2 0x95F JUMPI PUSH1 0x40 MLOAD PUSH32 0x8C379A000000000000000000000000000000000000000000000000000000000 DUP2 MSTORE PUSH1 0x4 ADD PUSH2 0x956 SWAP1 PUSH2 0x2A4B JUMP JUMPDEST PUSH1 0x40 MLOAD DUP1 SWAP2 SUB SWAP1 REVERT JUMPDEST PUSH1 0x3 PUSH0 DUP4 PUSH20 0xFFFFFFFFFFFFFFFFFFFFFFFFFFFFFFFFFFFFFFFF AND PUSH20 0xFFFFFFFFFFFFFFFFFFFFFFFFFFFFFFFFFFFFFFFF AND DUP2 MSTORE PUSH1 0x20 ADD SWAP1 DUP2 MSTORE PUSH1 0x20 ADD PUSH0 KECCAK256 SLOAD SWAP1 POP SWAP2 SWAP1 POP JUMP JUMPDEST PUSH0 DUP1 PUSH2 0x9B0 PUSH1 0x6 PUSH2 0x134B JUMP JUMPDEST SWAP1 POP PUSH2 0x9CB DUP4 DUP3 PUSH1 0x40 MLOAD DUP1 PUSH1 0x20 ADD PUSH1 0x40 MSTORE DUP1 PUSH0 DUP2 MSTORE POP PUSH2 0x1357 JUMP JUMPDEST TIMESTAMP PUSH1 0xD PUSH0 DUP4 DUP2 MSTORE PUSH1 0x20 ADD SWAP1 DUP2 MSTORE PUSH1 0x20 ADD PUSH0 KECCAK256 DUP2 SWAP1 SSTORE POP PUSH2 0x9EB PUSH1 0x6 PUSH2 0x13B1 JUMP JUMPDEST DUP1 SWAP2 POP POP SWAP2 SWAP1 POP JUMP JUMPDEST PUSH1 0x60 PUSH1 0x1 DUP1 SLOAD PUSH2 0xA03 SWAP1 PUSH2 0x2536 JUMP JUMPDEST DUP1 PUSH1 0x1F ADD PUSH1 0x20 DUP1 SWAP2 DIV MUL PUSH1 0x20 ADD PUSH1 0x40 MLOAD SWAP1 DUP2 ADD PUSH1 0x40 MSTORE DUP1 SWAP3 SWAP2 SWAP1 DUP2 DUP2 MSTORE PUSH1 0x20 ADD DUP3 DUP1 SLOAD PUSH2 0xA2F SWAP1 PUSH2 0x2536 JUMP JUMPDEST DUP1 ISZERO PUSH2 0xA7A JUMPI DUP1 PUSH1 0x1F LT PUSH2 0xA51 JUMPI PUSH2 0x100 DUP1 DUP4 SLOAD DIV MUL DUP4 MSTORE SWAP2 PUSH1 0x20 ADD SWAP2 PUSH2 0xA7A JUMP JUMPDEST DUP3 ADD SWAP2 SWAP1 PUSH0 MSTORE PUSH1 0x20 PUSH0 KECCAK256 SWAP1 JUMPDEST DUP2 SLOAD DUP2 MSTORE SWAP1 PUSH1 0x1 ADD SWAP1 PUSH1 0x20 ADD DUP1 DUP4 GT PUSH2 0xA5D JUMPI DUP3 SWAP1 SUB PUSH1 0x1F AND DUP3 ADD SWAP2 JUMPDEST POP POP POP POP POP SWAP1 POP SWAP1 JUMP JUMPDEST PUSH2 0xA96 PUSH2 0xA8F PUSH2 0xD94 JUMP JUMPDEST DUP4 DUP4 PUSH2 0x13C5 JUMP JUMPDEST POP POP JUMP JUMPDEST PUSH2 0xAAB PUSH2 0xAA5 PUSH2 0xD94 JUMP JUMPDEST DUP4 PUSH2 0xE51 JUMP JUMPDEST PUSH2 0xAEA JUMPI PUSH1 0x40 MLOAD PUSH32 0x8C379A000000000000000000000000000000000000000000000000000000000 DUP2 MSTORE PUSH1 0x4 ADD PUSH2 0xAE1 SWAP1 PUSH2 0x2955 JUMP JUMPDEST PUSH1 0x40 MLOAD DUP1 SWAP2 SUB SWAP1 REVERT JUMPDEST PUSH2 0xAF6 DUP5 DUP5 DUP5 DUP5 PUSH2 0x152C JUMP JUMPDEST POP POP POP POP JUMP JUMPDEST PUSH1 0x60 PUSH2 0xB07 DUP3 PUSH2 0xD49 JUMP JUMPDEST PUSH1 0xA PUSH1 0xB PUSH1 0xC PUSH1 0x40 MLOAD PUSH1 0x20 ADD PUSH2 0xB1F SWAP4 SWAP3 SWAP2 SWAP1 PUSH2 0x2C1B JUMP JUMPDEST PUSH1 0x40 MLOAD PUSH1 0x20 DUP2 DUP4 SUB SUB DUP2 MSTORE SWAP1 PUSH1 0x40 MSTORE SWAP1 POP SWAP2 SWAP1 POP JUMP JUMPDEST PUSH0 PUSH1 0x5 PUSH0 DUP5 PUSH20 0xFFFFFFFFFFFFFFFFFFFFFFFFFFFFFFFFFFFFFFFF AND PUSH20 0xFFFFFFFFFFFFFFFFFFFFFFFFFFFFFFFFFFFFFFFF AND DUP2 MSTORE PUSH1 0x20 ADD SWAP1 DUP2 MSTORE PUSH1 0x20 ADD PUSH0 KECCAK256 PUSH0 DUP4 PUSH20 0xFFFFFFFFFFFFFFFFFFFFFFFFFFFFFFFFFFFFFFFF AND PUSH20 0xFFFFFFFFFFFFFFFFFFFFFFFFFFFFFFFFFFFFFFFF AND DUP2 MSTORE PUSH1 0x20 ADD SWAP1 DUP2 MSTORE PUSH1 0x20 ADD PUSH0 KECCAK256 PUSH0 SWAP1 SLOAD SWAP1 PUSH2 0x100 EXP SWAP1 DIV PUSH1 0xFF AND SWAP1 POP SWAP3 SWAP2 POP POP JUMP JUMPDEST PUSH0 PUSH2 0xBCD DUP3 PUSH2 0x1588 JUMP JUMPDEST POP PUSH1 0x7 PUSH0 SWAP1 SLOAD SWAP1 PUSH2 0x100 EXP SWAP1 DIV PUSH20 0xFFFFFFFFFFFFFFFFFFFFFFFFFFFFFFFFFFFFFFFF AND PUSH20 0xFFFFFFFFFFFFFFFFFFFFFFFFFFFFFFFFFFFFFFFF AND PUSH4 0x469895C8 CALLER PUSH1 0x8 PUSH0 SWAP1 SLOAD SWAP1 PUSH2 0x100 EXP SWAP1 DIV PUSH20 0xFFFFFFFFFFFFFFFFFFFFFFFFFFFFFFFFFFFFFFFF AND DUP7 PUSH1 0x40 MLOAD DUP5 PUSH4 0xFFFFFFFF AND PUSH1 0xE0 SHL DUP2 MSTORE PUSH1 0x4 ADD PUSH2 0xC4D SWAP4 SWAP3 SWAP2 SWAP1 PUSH2 0x2C77 JUMP JUMPDEST PUSH1 0x20 PUSH1 0x40 MLOAD DUP1 DUP4 SUB DUP2 PUSH0 DUP8 GAS CALL ISZERO DUP1 ISZERO PUSH2 0xC69 JUMPI RETURNDATASIZE PUSH0 DUP1 RETURNDATACOPY RETURNDATASIZE PUSH0 REVERT JUMPDEST POP POP POP POP PUSH1 0x40 MLOAD RETURNDATASIZE PUSH1 0x1F NOT PUSH1 0x1F DUP3 ADD AND DUP3 ADD DUP1 PUSH1 0x40 MSTORE POP DUP2 ADD SWAP1 PUSH2 0xC8D SWAP2 SWAP1 PUSH2 0x2CC0 JUMP JUMPDEST PUSH2 0xCCC JUMPI PUSH1 0x40 MLOAD PUSH32 0x8C379A000000000000000000000000000000000000000000000000000000000 DUP2 MSTORE PUSH1 0x4 ADD PUSH2 0xCC3 SWAP1 PUSH2 0x2D35 JUMP JUMPDEST PUSH1 0x40 MLOAD DUP1 SWAP2 SUB SWAP1 REVERT JUMPDEST PUSH2 0xCD5 DUP4 PUSH2 0x1640 JUMP JUMPDEST POP PUSH1 0x1 SWAP1 POP SWAP3 SWAP2 POP POP JUMP JUMPDEST PUSH0 PUSH32 0x1FFC9A700000000000000000000000000000000000000000000000000000000 PUSH28 0xFFFFFFFFFFFFFFFFFFFFFFFFFFFFFFFFFFFFFFFFFFFFFFFFFFFFFFFF NOT AND DUP3 PUSH28 0xFFFFFFFFFFFFFFFFFFFFFFFFFFFFFFFFFFFFFFFFFFFFFFFFFFFFFFFF NOT AND EQ SWAP1 POP SWAP2 SWAP1 POP JUMP JUMPDEST PUSH2 0xD52 DUP2 PUSH2 0x169E JUMP JUMPDEST PUSH2 0xD91 JUMPI PUSH1 0x40 MLOAD PUSH32 0x8C379A000000000000000000000000000000000000000000000000000000000 DUP2 MSTORE PUSH1 0x4 ADD PUSH2 0xD88 SWAP1 PUSH2 0x29BD JUMP JUMPDEST PUSH1 0x40 MLOAD DUP1 SWAP2 SUB SWAP1 REVERT JUMPDEST POP JUMP JUMPDEST PUSH0 CALLER SWAP1 POP SWAP1 JUMP JUMPDEST DUP2 PUSH1 0x4 PUSH0 DUP4 DUP2 MSTORE PUSH1 0x20 ADD SWAP1 DUP2 MSTORE PUSH1 0x20 ADD PUSH0 KECCAK256 PUSH0 PUSH2 0x100 EXP DUP2 SLOAD DUP2 PUSH20 0xFFFFFFFFFFFFFFFFFFFFFFFFFFFFFFFFFFFFFFFF MUL NOT AND SWAP1 DUP4 PUSH20 0xFFFFFFFFFFFFFFFFFFFFFFFFFFFFFFFFFFFFFFFF AND MUL OR SWAP1 SSTORE POP DUP1 DUP3 PUSH20 0xFFFFFFFFFFFFFFFFFFFFFFFFFFFFFFFFFFFFFFFF AND PUSH2 0xE0B DUP4 PUSH2 0x847 JUMP JUMPDEST PUSH20 0xFFFFFFFFFFFFFFFFFFFFFFFFFFFFFFFFFFFFFFFF AND PUSH32 0x8C5BE1E5EBEC7D5BD14F71427D1E84F3DD0314C0F7B2291E5B200AC8C7C3B925 PUSH1 0x40 MLOAD PUSH1 0x40 MLOAD DUP1 SWAP2 SUB SWAP1 LOG4 POP POP JUMP JUMPDEST PUSH0 DUP1 PUSH2 0xE5C DUP4 PUSH2 0x847 JUMP JUMPDEST SWAP1 POP DUP1 PUSH20 0xFFFFFFFFFFFFFFFFFFFFFFFFFFFFFFFFFFFFFFFF AND DUP5 PUSH20 0xFFFFFFFFFFFFFFFFFFFFFFFFFFFFFFFFFFFFFFFF AND EQ DUP1 PUSH2 0xE9E JUMPI POP PUSH2 0xE9D DUP2 DUP6 PUSH2 0xB35 JUMP JUMPDEST JUMPDEST DUP1 PUSH2 0xEDC JUMPI POP DUP4 PUSH20 0xFFFFFFFFFFFFFFFFFFFFFFFFFFFFFFFFFFFFFFFF AND PUSH2 0xEC4 DUP5 PUSH2 0x5C3 JUMP JUMPDEST PUSH20 0xFFFFFFFFFFFFFFFFFFFFFFFFFFFFFFFFFFFFFFFF AND EQ JUMPDEST SWAP2 POP POP SWAP3 SWAP2 POP POP JUMP JUMPDEST DUP3 PUSH20 0xFFFFFFFFFFFFFFFFFFFFFFFFFFFFFFFFFFFFFFFF AND PUSH2 0xF05 DUP3 PUSH2 0x847 JUMP JUMPDEST PUSH20 0xFFFFFFFFFFFFFFFFFFFFFFFFFFFFFFFFFFFFFFFF AND EQ PUSH2 0xF5B JUMPI PUSH1 0x40 MLOAD PUSH32 0x8C379A000000000000000000000000000000000000000000000000000000000 DUP2 MSTORE PUSH1 0x4 ADD PUSH2 0xF52 SWAP1 PUSH2 0x2DC3 JUMP JUMPDEST PUSH1 0x40 MLOAD DUP1 SWAP2 SUB SWAP1 REVERT JUMPDEST PUSH0 PUSH20 0xFFFFFFFFFFFFFFFFFFFFFFFFFFFFFFFFFFFFFFFF AND DUP3 PUSH20 0xFFFFFFFFFFFFFFFFFFFFFFFFFFFFFFFFFFFFFFFF AND SUB PUSH2 0xFC9 JUMPI PUSH1 0x40 MLOAD PUSH32 0x8C379A000000000000000000000000000000000000000000000000000000000 DUP2 MSTORE PUSH1 0x4 ADD PUSH2 0xFC0 SWAP1 PUSH2 0x2E51 JUMP JUMPDEST PUSH1 0x40 MLOAD DUP1 SWAP2 SUB SWAP1 REVERT JUMPDEST PUSH2 0xFD6 DUP4 DUP4 DUP4 PUSH1 0x1 PUSH2 0x16DE JUMP JUMPDEST DUP3 PUSH20 0xFFFFFFFFFFFFFFFFFFFFFFFFFFFFFFFFFFFFFFFF AND PUSH2 0xFF6 DUP3 PUSH2 0x847 JUMP JUMPDEST PUSH20 0xFFFFFFFFFFFFFFFFFFFFFFFFFFFFFFFFFFFFFFFF AND EQ PUSH2 0x104C JUMPI PUSH1 0x40 MLOAD PUSH32 0x8C379A000000000000000000000000000000000000000000000000000000000 DUP2 MSTORE PUSH1 0x4 ADD PUSH2 0x1043 SWAP1 PUSH2 0x2DC3 JUMP JUMPDEST PUSH1 0x40 MLOAD DUP1 SWAP2 SUB SWAP1 REVERT JUMPDEST PUSH1 0x4 PUSH0 DUP3 DUP2 MSTORE PUSH1 0x20 ADD SWAP1 DUP2 MSTORE PUSH1 0x20 ADD PUSH0 KECCAK256 PUSH0 PUSH2 0x100 EXP DUP2 SLOAD SWAP1 PUSH20 0xFFFFFFFFFFFFFFFFFFFFFFFFFFFFFFFFFFFFFFFF MUL NOT AND SWAP1 SSTORE PUSH1 0x1 PUSH1 0x3 PUSH0 DUP6 PUSH20 0xFFFFFFFFFFFFFFFFFFFFFFFFFFFFFFFFFFFFFFFF AND PUSH20 0xFFFFFFFFFFFFFFFFFFFFFFFFFFFFFFFFFFFFFFFF AND DUP2 MSTORE PUSH1 0x20 ADD SWAP1 DUP2 MSTORE PUSH1 0x20 ADD PUSH0 KECCAK256 PUSH0 DUP3 DUP3 SLOAD SUB SWAP3 POP POP DUP2 SWAP1 SSTORE POP PUSH1 0x1 PUSH1 0x3 PUSH0 DUP5 PUSH20 0xFFFFFFFFFFFFFFFFFFFFFFFFFFFFFFFFFFFFFFFF AND PUSH20 0xFFFFFFFFFFFFFFFFFFFFFFFFFFFFFFFFFFFFFFFF AND DUP2 MSTORE PUSH1 0x20 ADD SWAP1 DUP2 MSTORE PUSH1 0x20 ADD PUSH0 KECCAK256 PUSH0 DUP3 DUP3 SLOAD ADD SWAP3 POP POP DUP2 SWAP1 SSTORE POP DUP2 PUSH1 0x2 PUSH0 DUP4 DUP2 MSTORE PUSH1 0x20 ADD SWAP1 DUP2 MSTORE PUSH1 0x20 ADD PUSH0 KECCAK256 PUSH0 PUSH2 0x100 EXP DUP2 SLOAD DUP2 PUSH20 0xFFFFFFFFFFFFFFFFFFFFFFFFFFFFFFFFFFFFFFFF MUL NOT AND SWAP1 DUP4 PUSH20 0xFFFFFFFFFFFFFFFFFFFFFFFFFFFFFFFFFFFFFFFF AND MUL OR SWAP1 SSTORE POP DUP1 DUP3 PUSH20 0xFFFFFFFFFFFFFFFFFFFFFFFFFFFFFFFFFFFFFFFF AND DUP5 PUSH20 0xFFFFFFFFFFFFFFFFFFFFFFFFFFFFFFFFFFFFFFFF AND PUSH32 0xDDF252AD1BE2C89B69C2B068FC378DAA952BA7F163C4A11628F55A4DF523B3EF PUSH1 0x40 MLOAD PUSH1 0x40 MLOAD DUP1 SWAP2 SUB SWAP1 LOG4 PUSH2 0x11CC DUP4 DUP4 DUP4 PUSH1 0x1 PUSH2 0x17B6 JUMP JUMPDEST POP POP POP JUMP JUMPDEST PUSH0 PUSH2 0x11DB DUP3 PUSH2 0x847 JUMP JUMPDEST SWAP1 POP PUSH2 0x11EA DUP2 PUSH0 DUP5 PUSH1 0x1 PUSH2 0x16DE JUMP JUMPDEST PUSH2 0x11F3 DUP3 PUSH2 0x847 JUMP JUMPDEST SWAP1 POP PUSH1 0x4 PUSH0 DUP4 DUP2 MSTORE PUSH1 0x20 ADD SWAP1 DUP2 MSTORE PUSH1 0x20 ADD PUSH0 KECCAK256 PUSH0 PUSH2 0x100 EXP DUP2 SLOAD SWAP1 PUSH20 0xFFFFFFFFFFFFFFFFFFFFFFFFFFFFFFFFFFFFFFFF MUL NOT AND SWAP1 SSTORE PUSH1 0x1 PUSH1 0x3 PUSH0 DUP4 PUSH20 0xFFFFFFFFFFFFFFFFFFFFFFFFFFFFFFFFFFFFFFFF AND PUSH20 0xFFFFFFFFFFFFFFFFFFFFFFFFFFFFFFFFFFFFFFFF AND DUP2 MSTORE PUSH1 0x20 ADD SWAP1 DUP2 MSTORE PUSH1 0x20 ADD PUSH0 KECCAK256 PUSH0 DUP3 DUP3 SLOAD SUB SWAP3 POP POP DUP2 SWAP1 SSTORE POP PUSH1 0x2 PUSH0 DUP4 DUP2 MSTORE PUSH1 0x20 ADD SWAP1 DUP2 MSTORE PUSH1 0x20 ADD PUSH0 KECCAK256 PUSH0 PUSH2 0x100 EXP DUP2 SLOAD SWAP1 PUSH20 0xFFFFFFFFFFFFFFFFFFFFFFFFFFFFFFFFFFFFFFFF MUL NOT AND SWAP1 SSTORE DUP2 PUSH0 PUSH20 0xFFFFFFFFFFFFFFFFFFFFFFFFFFFFFFFFFFFFFFFF AND DUP3 PUSH20 0xFFFFFFFFFFFFFFFFFFFFFFFFFFFFFFFFFFFFFFFF AND PUSH32 0xDDF252AD1BE2C89B69C2B068FC378DAA952BA7F163C4A11628F55A4DF523B3EF PUSH1 0x40 MLOAD PUSH1 0x40 MLOAD DUP1 SWAP2 SUB SWAP1 LOG4 PUSH2 0x130E DUP2 PUSH0 DUP5 PUSH1 0x1 PUSH2 0x17B6 JUMP JUMPDEST POP POP JUMP JUMPDEST PUSH0 PUSH1 0x2 PUSH0 DUP4 DUP2 MSTORE PUSH1 0x20 ADD SWAP1 DUP2 MSTORE PUSH1 0x20 ADD PUSH0 KECCAK256 PUSH0 SWAP1 SLOAD SWAP1 PUSH2 0x100 EXP SWAP1 DIV PUSH20 0xFFFFFFFFFFFFFFFFFFFFFFFFFFFFFFFFFFFFFFFF AND SWAP1 POP SWAP2 SWAP1 POP JUMP JUMPDEST PUSH0 DUP2 PUSH0 ADD SLOAD SWAP1 POP SWAP2 SWAP1 POP JUMP JUMPDEST PUSH2 0x1361 DUP4 DUP4 PUSH2 0x17BC JUMP JUMPDEST PUSH2 0x136D PUSH0 DUP5 DUP5 DUP5 PUSH2 0x19CF JUMP JUMPDEST PUSH2 0x13AC JUMPI PUSH1 0x40 MLOAD PUSH32 0x8C379A000000000000000000000000000000000000000000000000000000000 DUP2 MSTORE PUSH1 0x4 ADD PUSH2 0x13A3 SWAP1 PUSH2 0x2EDF JUMP JUMPDEST PUSH1 0x40 MLOAD DUP1 SWAP2 SUB SWAP1 REVERT JUMPDEST POP POP POP JUMP JUMPDEST PUSH1 0x1 DUP2 PUSH0 ADD PUSH0 DUP3 DUP3 SLOAD ADD SWAP3 POP POP DUP2 SWAP1 SSTORE POP POP JUMP JUMPDEST DUP2 PUSH20 0xFFFFFFFFFFFFFFFFFFFFFFFFFFFFFFFFFFFFFFFF AND DUP4 PUSH20 0xFFFFFFFFFFFFFFFFFFFFFFFFFFFFFFFFFFFFFFFF AND SUB PUSH2 0x1433 JUMPI PUSH1 0x40 MLOAD PUSH32 0x8C379A000000000000000000000000000000000000000000000000000000000 DUP2 MSTORE PUSH1 0x4 ADD PUSH2 0x142A SWAP1 PUSH2 0x2F47 JUMP JUMPDEST PUSH1 0x40 MLOAD DUP1 SWAP2 SUB SWAP1 REVERT JUMPDEST DUP1 PUSH1 0x5 PUSH0 DUP6 PUSH20 0xFFFFFFFFFFFFFFFFFFFFFFFFFFFFFFFFFFFFFFFF AND PUSH20 0xFFFFFFFFFFFFFFFFFFFFFFFFFFFFFFFFFFFFFFFF AND DUP2 MSTORE PUSH1 0x20 ADD SWAP1 DUP2 MSTORE PUSH1 0x20 ADD PUSH0 KECCAK256 PUSH0 DUP5 PUSH20 0xFFFFFFFFFFFFFFFFFFFFFFFFFFFFFFFFFFFFFFFF AND PUSH20 0xFFFFFFFFFFFFFFFFFFFFFFFFFFFFFFFFFFFFFFFF AND DUP2 MSTORE PUSH1 0x20 ADD SWAP1 DUP2 MSTORE PUSH1 0x20 ADD PUSH0 KECCAK256 PUSH0 PUSH2 0x100 EXP DUP2 SLOAD DUP2 PUSH1 0xFF MUL NOT AND SWAP1 DUP4 ISZERO ISZERO MUL OR SWAP1 SSTORE POP DUP2 PUSH20 0xFFFFFFFFFFFFFFFFFFFFFFFFFFFFFFFFFFFFFFFF AND DUP4 PUSH20 0xFFFFFFFFFFFFFFFFFFFFFFFFFFFFFFFFFFFFFFFF AND PUSH32 0x17307EAB39AB6107E8899845AD3D59BD9653F200F220920489CA2B5937696C31 DUP4 PUSH1 0x40 MLOAD PUSH2 0x151F SWAP2 SWAP1 PUSH2 0x1E3F JUMP JUMPDEST PUSH1 0x40 MLOAD DUP1 SWAP2 SUB SWAP1 LOG3 POP POP POP JUMP JUMPDEST PUSH2 0x1537 DUP5 DUP5 DUP5 PUSH2 0xEE5 JUMP JUMPDEST PUSH2 0x1543 DUP5 DUP5 DUP5 DUP5 PUSH2 0x19CF JUMP JUMPDEST PUSH2 0x1582 JUMPI PUSH1 0x40 MLOAD PUSH32 0x8C379A000000000000000000000000000000000000000000000000000000000 DUP2 MSTORE PUSH1 0x4 ADD PUSH2 0x1579 SWAP1 PUSH2 0x2EDF JUMP JUMPDEST PUSH1 0x40 MLOAD DUP1 SWAP2 SUB SWAP1 REVERT JUMPDEST POP POP POP POP JUMP JUMPDEST PUSH0 DUP1 PUSH20 0xFFFFFFFFFFFFFFFFFFFFFFFFFFFFFFFFFFFFFFFF AND DUP3 PUSH20 0xFFFFFFFFFFFFFFFFFFFFFFFFFFFFFFFFFFFFFFFF AND SUB PUSH2 0x15F7 JUMPI PUSH1 0x40 MLOAD PUSH32 0x8C379A000000000000000000000000000000000000000000000000000000000 DUP2 MSTORE PUSH1 0x4 ADD PUSH2 0x15EE SWAP1 PUSH2 0x2FAF JUMP JUMPDEST PUSH1 0x40 MLOAD DUP1 SWAP2 SUB SWAP1 REVERT JUMPDEST DUP2 PUSH1 0x8 PUSH0 PUSH2 0x100 EXP DUP2 SLOAD DUP2 PUSH20 0xFFFFFFFFFFFFFFFFFFFFFFFFFFFFFFFFFFFFFFFF MUL NOT AND SWAP1 DUP4 PUSH20 0xFFFFFFFFFFFFFFFFFFFFFFFFFFFFFFFFFFFFFFFF AND MUL OR SWAP1 SSTORE POP PUSH1 0x1 SWAP1 POP SWAP2 SWAP1 POP JUMP JUMPDEST PUSH0 DUP1 DUP3 EQ PUSH2 0x1685 JUMPI PUSH1 0x64 DUP3 EQ PUSH2 0x167B JUMPI PUSH1 0xC8 DUP3 EQ PUSH2 0x1671 JUMPI PUSH2 0x3E8 DUP3 EQ PUSH2 0x166A JUMPI PUSH3 0xED4E00 PUSH2 0x166C JUMP JUMPDEST PUSH0 JUMPDEST PUSH2 0x1676 JUMP JUMPDEST PUSH3 0x83D600 JUMPDEST PUSH2 0x1680 JUMP JUMPDEST PUSH3 0xAB6300 JUMPDEST PUSH2 0x168A JUMP JUMPDEST PUSH3 0xED4E00 JUMPDEST PUSH3 0xFFFFFF AND PUSH1 0x9 DUP2 SWAP1 SSTORE POP PUSH1 0x1 SWAP1 POP SWAP2 SWAP1 POP JUMP JUMPDEST PUSH0 DUP1 PUSH20 0xFFFFFFFFFFFFFFFFFFFFFFFFFFFFFFFFFFFFFFFF AND PUSH2 0x16BF DUP4 PUSH2 0x1312 JUMP JUMPDEST PUSH20 0xFFFFFFFFFFFFFFFFFFFFFFFFFFFFFFFFFFFFFFFF AND EQ ISZERO SWAP1 POP SWAP2 SWAP1 POP JUMP JUMPDEST PUSH2 0x16EE DUP5 DUP5 DUP5 PUSH1 0x1 SWAP5 POP DUP5 PUSH2 0x1B51 JUMP JUMPDEST PUSH0 PUSH20 0xFFFFFFFFFFFFFFFFFFFFFFFFFFFFFFFFFFFFFFFF AND DUP5 PUSH20 0xFFFFFFFFFFFFFFFFFFFFFFFFFFFFFFFFFFFFFFFF AND EQ PUSH2 0x17B0 JUMPI PUSH1 0x9 SLOAD PUSH1 0xD PUSH0 DUP5 DUP2 MSTORE PUSH1 0x20 ADD SWAP1 DUP2 MSTORE PUSH1 0x20 ADD PUSH0 KECCAK256 SLOAD PUSH2 0x1740 SWAP2 SWAP1 PUSH2 0x2FFA JUMP JUMPDEST TIMESTAMP LT ISZERO PUSH2 0x174E PUSH1 0x9 SLOAD PUSH2 0x1B57 JUMP JUMPDEST PUSH1 0x40 MLOAD PUSH1 0x20 ADD PUSH2 0x175E SWAP2 SWAP1 PUSH2 0x30A7 JUMP JUMPDEST PUSH1 0x40 MLOAD PUSH1 0x20 DUP2 DUP4 SUB SUB DUP2 MSTORE SWAP1 PUSH1 0x40 MSTORE SWAP1 PUSH2 0x17AE JUMPI PUSH1 0x40 MLOAD PUSH32 0x8C379A000000000000000000000000000000000000000000000000000000000 DUP2 MSTORE PUSH1 0x4 ADD PUSH2 0x17A5 SWAP2 SWAP1 PUSH2 0x1F75 JUMP JUMPDEST PUSH1 0x40 MLOAD DUP1 SWAP2 SUB SWAP1 REVERT JUMPDEST POP JUMPDEST POP POP POP POP JUMP JUMPDEST POP POP POP POP JUMP JUMPDEST PUSH0 PUSH20 0xFFFFFFFFFFFFFFFFFFFFFFFFFFFFFFFFFFFFFFFF AND DUP3 PUSH20 0xFFFFFFFFFFFFFFFFFFFFFFFFFFFFFFFFFFFFFFFF AND SUB PUSH2 0x182A JUMPI PUSH1 0x40 MLOAD PUSH32 0x8C379A000000000000000000000000000000000000000000000000000000000 DUP2 MSTORE PUSH1 0x4 ADD PUSH2 0x1821 SWAP1 PUSH2 0x3112 JUMP JUMPDEST PUSH1 0x40 MLOAD DUP1 SWAP2 SUB SWAP1 REVERT JUMPDEST PUSH2 0x1833 DUP2 PUSH2 0x169E JUMP JUMPDEST ISZERO PUSH2 0x1873 JUMPI PUSH1 0x40 MLOAD PUSH32 0x8C379A000000000000000000000000000000000000000000000000000000000 DUP2 MSTORE PUSH1 0x4 ADD PUSH2 0x186A SWAP1 PUSH2 0x317A JUMP JUMPDEST PUSH1 0x40 MLOAD DUP1 SWAP2 SUB SWAP1 REVERT JUMPDEST PUSH2 0x1880 PUSH0 DUP4 DUP4 PUSH1 0x1 PUSH2 0x16DE JUMP JUMPDEST PUSH2 0x1889 DUP2 PUSH2 0x169E JUMP JUMPDEST ISZERO PUSH2 0x18C9 JUMPI PUSH1 0x40 MLOAD PUSH32 0x8C379A000000000000000000000000000000000000000000000000000000000 DUP2 MSTORE PUSH1 0x4 ADD PUSH2 0x18C0 SWAP1 PUSH2 0x317A JUMP JUMPDEST PUSH1 0x40 MLOAD DUP1 SWAP2 SUB SWAP1 REVERT JUMPDEST PUSH1 0x1 PUSH1 0x3 PUSH0 DUP5 PUSH20 0xFFFFFFFFFFFFFFFFFFFFFFFFFFFFFFFFFFFFFFFF AND PUSH20 0xFFFFFFFFFFFFFFFFFFFFFFFFFFFFFFFFFFFFFFFF AND DUP2 MSTORE PUSH1 0x20 ADD SWAP1 DUP2 MSTORE PUSH1 0x20 ADD PUSH0 KECCAK256 PUSH0 DUP3 DUP3 SLOAD ADD SWAP3 POP POP DUP2 SWAP1 SSTORE POP DUP2 PUSH1 0x2 PUSH0 DUP4 DUP2 MSTORE PUSH1 0x20 ADD SWAP1 DUP2 MSTORE PUSH1 0x20 ADD PUSH0 KECCAK256 PUSH0 PUSH2 0x100 EXP DUP2 SLOAD DUP2 PUSH20 0xFFFFFFFFFFFFFFFFFFFFFFFFFFFFFFFFFFFFFFFF MUL NOT AND SWAP1 DUP4 PUSH20 0xFFFFFFFFFFFFFFFFFFFFFFFFFFFFFFFFFFFFFFFF AND MUL OR SWAP1 SSTORE POP DUP1 DUP3 PUSH20 0xFFFFFFFFFFFFFFFFFFFFFFFFFFFFFFFFFFFFFFFF AND PUSH0 PUSH20 0xFFFFFFFFFFFFFFFFFFFFFFFFFFFFFFFFFFFFFFFF AND PUSH32 0xDDF252AD1BE2C89B69C2B068FC378DAA952BA7F163C4A11628F55A4DF523B3EF PUSH1 0x40 MLOAD PUSH1 0x40 MLOAD DUP1 SWAP2 SUB SWAP1 LOG4 PUSH2 0x19CB PUSH0 DUP4 DUP4 PUSH1 0x1 PUSH2 0x17B6 JUMP JUMPDEST POP POP JUMP JUMPDEST PUSH0 PUSH2 0x19EF DUP5 PUSH20 0xFFFFFFFFFFFFFFFFFFFFFFFFFFFFFFFFFFFFFFFF AND PUSH2 0x1C21 JUMP JUMPDEST ISZERO PUSH2 0x1B44 JUMPI DUP4 PUSH20 0xFFFFFFFFFFFFFFFFFFFFFFFFFFFFFFFFFFFFFFFF AND PUSH4 0x150B7A02 PUSH2 0x1A18 PUSH2 0xD94 JUMP JUMPDEST DUP8 DUP7 DUP7 PUSH1 0x40 MLOAD DUP6 PUSH4 0xFFFFFFFF AND PUSH1 0xE0 SHL DUP2 MSTORE PUSH1 0x4 ADD PUSH2 0x1A3A SWAP5 SWAP4 SWAP3 SWAP2 SWAP1 PUSH2 0x31EA JUMP JUMPDEST PUSH1 0x20 PUSH1 0x40 MLOAD DUP1 DUP4 SUB DUP2 PUSH0 DUP8 GAS CALL SWAP3 POP POP POP DUP1 ISZERO PUSH2 0x1A75 JUMPI POP PUSH1 0x40 MLOAD RETURNDATASIZE PUSH1 0x1F NOT PUSH1 0x1F DUP3 ADD AND DUP3 ADD DUP1 PUSH1 0x40 MSTORE POP DUP2 ADD SWAP1 PUSH2 0x1A72 SWAP2 SWAP1 PUSH2 0x3248 JUMP JUMPDEST PUSH1 0x1 JUMPDEST PUSH2 0x1AF4 JUMPI RETURNDATASIZE DUP1 PUSH0 DUP2 EQ PUSH2 0x1AA3 JUMPI PUSH1 0x40 MLOAD SWAP2 POP PUSH1 0x1F NOT PUSH1 0x3F RETURNDATASIZE ADD AND DUP3 ADD PUSH1 0x40 MSTORE RETURNDATASIZE DUP3 MSTORE RETURNDATASIZE PUSH0 PUSH1 0x20 DUP5 ADD RETURNDATACOPY PUSH2 0x1AA8 JUMP JUMPDEST PUSH1 0x60 SWAP2 POP JUMPDEST POP PUSH0 DUP2 MLOAD SUB PUSH2 0x1AEC JUMPI PUSH1 0x40 MLOAD PUSH32 0x8C379A000000000000000000000000000000000000000000000000000000000 DUP2 MSTORE PUSH1 0x4 ADD PUSH2 0x1AE3 SWAP1 PUSH2 0x2EDF JUMP JUMPDEST PUSH1 0x40 MLOAD DUP1 SWAP2 SUB SWAP1 REVERT JUMPDEST DUP1 MLOAD DUP2 PUSH1 0x20 ADD REVERT JUMPDEST PUSH4 0x150B7A02 PUSH1 0xE0 SHL PUSH28 0xFFFFFFFFFFFFFFFFFFFFFFFFFFFFFFFFFFFFFFFFFFFFFFFFFFFFFFFF NOT AND DUP2 PUSH28 0xFFFFFFFFFFFFFFFFFFFFFFFFFFFFFFFFFFFFFFFFFFFFFFFFFFFFFFFF NOT AND EQ SWAP2 POP POP PUSH2 0x1B49 JUMP JUMPDEST PUSH1 0x1 SWAP1 POP JUMPDEST SWAP5 SWAP4 POP POP POP POP JUMP JUMPDEST POP POP POP POP JUMP JUMPDEST PUSH1 0x60 PUSH0 PUSH1 0x1 PUSH2 0x1B65 DUP5 PUSH2 0x1C43 JUMP JUMPDEST ADD SWAP1 POP PUSH0 DUP2 PUSH8 0xFFFFFFFFFFFFFFFF DUP2 GT ISZERO PUSH2 0x1B83 JUMPI PUSH2 0x1B82 PUSH2 0x2034 JUMP JUMPDEST JUMPDEST PUSH1 0x40 MLOAD SWAP1 DUP1 DUP3 MSTORE DUP1 PUSH1 0x1F ADD PUSH1 0x1F NOT AND PUSH1 0x20 ADD DUP3 ADD PUSH1 0x40 MSTORE DUP1 ISZERO PUSH2 0x1BB5 JUMPI DUP2 PUSH1 0x20 ADD PUSH1 0x1 DUP3 MUL DUP1 CALLDATASIZE DUP4 CALLDATACOPY DUP1 DUP3 ADD SWAP2 POP POP SWAP1 POP JUMPDEST POP SWAP1 POP PUSH0 DUP3 PUSH1 0x20 ADD DUP3 ADD SWAP1 POP JUMPDEST PUSH1 0x1 ISZERO PUSH2 0x1C16 JUMPI DUP1 DUP1 PUSH1 0x1 SWAP1 SUB SWAP2 POP POP PUSH32 0x3031323334353637383961626364656600000000000000000000000000000000 PUSH1 0xA DUP7 MOD BYTE DUP2 MSTORE8 PUSH1 0xA DUP6 DUP2 PUSH2 0x1C0B JUMPI PUSH2 0x1C0A PUSH2 0x3273 JUMP JUMPDEST JUMPDEST DIV SWAP5 POP PUSH0 DUP6 SUB PUSH2 0x1BC2 JUMPI JUMPDEST DUP2 SWAP4 POP POP POP POP SWAP2 SWAP1 POP JUMP JUMPDEST PUSH0 DUP1 DUP3 PUSH20 0xFFFFFFFFFFFFFFFFFFFFFFFFFFFFFFFFFFFFFFFF AND EXTCODESIZE GT SWAP1 POP SWAP2 SWAP1 POP JUMP JUMPDEST PUSH0 DUP1 PUSH0 SWAP1 POP PUSH27 0x184F03E93FF9F4DAA797ED6E38ED64BF6A1F010000000000000000 DUP4 LT PUSH2 0x1C9F JUMPI PUSH27 0x184F03E93FF9F4DAA797ED6E38ED64BF6A1F010000000000000000 DUP4 DUP2 PUSH2 0x1C95 JUMPI PUSH2 0x1C94 PUSH2 0x3273 JUMP JUMPDEST JUMPDEST DIV SWAP3 POP PUSH1 0x40 DUP2 ADD SWAP1 POP JUMPDEST PUSH14 0x4EE2D6D415B85ACEF8100000000 DUP4 LT PUSH2 0x1CDC JUMPI PUSH14 0x4EE2D6D415B85ACEF8100000000 DUP4 DUP2 PUSH2 0x1CD2 JUMPI PUSH2 0x1CD1 PUSH2 0x3273 JUMP JUMPDEST JUMPDEST DIV SWAP3 POP PUSH1 0x20 DUP2 ADD SWAP1 POP JUMPDEST PUSH7 0x2386F26FC10000 DUP4 LT PUSH2 0x1D0B JUMPI PUSH7 0x2386F26FC10000 DUP4 DUP2 PUSH2 0x1D01 JUMPI PUSH2 0x1D00 PUSH2 0x3273 JUMP JUMPDEST JUMPDEST DIV SWAP3 POP PUSH1 0x10 DUP2 ADD SWAP1 POP JUMPDEST PUSH4 0x5F5E100 DUP4 LT PUSH2 0x1D34 JUMPI PUSH4 0x5F5E100 DUP4 DUP2 PUSH2 0x1D2A JUMPI PUSH2 0x1D29 PUSH2 0x3273 JUMP JUMPDEST JUMPDEST DIV SWAP3 POP PUSH1 0x8 DUP2 ADD SWAP1 POP JUMPDEST PUSH2 0x2710 DUP4 LT PUSH2 0x1D59 JUMPI PUSH2 0x2710 DUP4 DUP2 PUSH2 0x1D4F JUMPI PUSH2 0x1D4E PUSH2 0x3273 JUMP JUMPDEST JUMPDEST DIV SWAP3 POP PUSH1 0x4 DUP2 ADD SWAP1 POP JUMPDEST PUSH1 0x64 DUP4 LT PUSH2 0x1D7C JUMPI PUSH1 0x64 DUP4 DUP2 PUSH2 0x1D72 JUMPI PUSH2 0x1D71 PUSH2 0x3273 JUMP JUMPDEST JUMPDEST DIV SWAP3 POP PUSH1 0x2 DUP2 ADD SWAP1 POP JUMPDEST PUSH1 0xA DUP4 LT PUSH2 0x1D8B JUMPI PUSH1 0x1 DUP2 ADD SWAP1 POP JUMPDEST DUP1 SWAP2 POP POP SWAP2 SWAP1 POP JUMP JUMPDEST PUSH0 PUSH1 0x40 MLOAD SWAP1 POP SWAP1 JUMP JUMPDEST PUSH0 DUP1 REVERT JUMPDEST PUSH0 DUP1 REVERT JUMPDEST PUSH0 PUSH32 0xFFFFFFFF00000000000000000000000000000000000000000000000000000000 DUP3 AND SWAP1 POP SWAP2 SWAP1 POP JUMP JUMPDEST PUSH2 0x1DD9 DUP2 PUSH2 0x1DA5 JUMP JUMPDEST DUP2 EQ PUSH2 0x1DE3 JUMPI PUSH0 DUP1 REVERT JUMPDEST POP JUMP JUMPDEST PUSH0 DUP2 CALLDATALOAD SWAP1 POP PUSH2 0x1DF4 DUP2 PUSH2 0x1DD0 JUMP JUMPDEST SWAP3 SWAP2 POP POP JUMP JUMPDEST PUSH0 PUSH1 0x20 DUP3 DUP5 SUB SLT ISZERO PUSH2 0x1E0F JUMPI PUSH2 0x1E0E PUSH2 0x1D9D JUMP JUMPDEST JUMPDEST PUSH0 PUSH2 0x1E1C DUP5 DUP3 DUP6 ADD PUSH2 0x1DE6 JUMP JUMPDEST SWAP2 POP POP SWAP3 SWAP2 POP POP JUMP JUMPDEST PUSH0 DUP2 ISZERO ISZERO SWAP1 POP SWAP2 SWAP1 POP JUMP JUMPDEST PUSH2 0x1E39 DUP2 PUSH2 0x1E25 JUMP JUMPDEST DUP3 MSTORE POP POP JUMP JUMPDEST PUSH0 PUSH1 0x20 DUP3 ADD SWAP1 POP PUSH2 0x1E52 PUSH0 DUP4 ADD DUP5 PUSH2 0x1E30 JUMP JUMPDEST SWAP3 SWAP2 POP POP JUMP JUMPDEST PUSH0 PUSH20 0xFFFFFFFFFFFFFFFFFFFFFFFFFFFFFFFFFFFFFFFF DUP3 AND SWAP1 POP SWAP2 SWAP1 POP JUMP JUMPDEST PUSH0 DUP2 SWAP1 POP SWAP2 SWAP1 POP JUMP JUMPDEST PUSH0 PUSH2 0x1E9A PUSH2 0x1E95 PUSH2 0x1E90 DUP5 PUSH2 0x1E58 JUMP JUMPDEST PUSH2 0x1E77 JUMP JUMPDEST PUSH2 0x1E58 JUMP JUMPDEST SWAP1 POP SWAP2 SWAP1 POP JUMP JUMPDEST PUSH0 PUSH2 0x1EAB DUP3 PUSH2 0x1E80 JUMP JUMPDEST SWAP1 POP SWAP2 SWAP1 POP JUMP JUMPDEST PUSH0 PUSH2 0x1EBC DUP3 PUSH2 0x1EA1 JUMP JUMPDEST SWAP1 POP SWAP2 SWAP1 POP JUMP JUMPDEST PUSH2 0x1ECC DUP2 PUSH2 0x1EB2 JUMP JUMPDEST DUP3 MSTORE POP POP JUMP JUMPDEST PUSH0 PUSH1 0x20 DUP3 ADD SWAP1 POP PUSH2 0x1EE5 PUSH0 DUP4 ADD DUP5 PUSH2 0x1EC3 JUMP JUMPDEST SWAP3 SWAP2 POP POP JUMP JUMPDEST PUSH0 DUP2 MLOAD SWAP1 POP SWAP2 SWAP1 POP JUMP JUMPDEST PUSH0 DUP3 DUP3 MSTORE PUSH1 0x20 DUP3 ADD SWAP1 POP SWAP3 SWAP2 POP POP JUMP JUMPDEST PUSH0 JUMPDEST DUP4 DUP2 LT ISZERO PUSH2 0x1F22 JUMPI DUP1 DUP3 ADD MLOAD DUP2 DUP5 ADD MSTORE PUSH1 0x20 DUP2 ADD SWAP1 POP PUSH2 0x1F07 JUMP JUMPDEST PUSH0 DUP5 DUP5 ADD MSTORE POP POP POP POP JUMP JUMPDEST PUSH0 PUSH1 0x1F NOT PUSH1 0x1F DUP4 ADD AND SWAP1 POP SWAP2 SWAP1 POP JUMP JUMPDEST PUSH0 PUSH2 0x1F47 DUP3 PUSH2 0x1EEB JUMP JUMPDEST PUSH2 0x1F51 DUP2 DUP6 PUSH2 0x1EF5 JUMP JUMPDEST SWAP4 POP PUSH2 0x1F61 DUP2 DUP6 PUSH1 0x20 DUP7 ADD PUSH2 0x1F05 JUMP JUMPDEST PUSH2 0x1F6A DUP2 PUSH2 0x1F2D JUMP JUMPDEST DUP5 ADD SWAP2 POP POP SWAP3 SWAP2 POP POP JUMP JUMPDEST PUSH0 PUSH1 0x20 DUP3 ADD SWAP1 POP DUP2 DUP2 SUB PUSH0 DUP4 ADD MSTORE PUSH2 0x1F8D DUP2 DUP5 PUSH2 0x1F3D JUMP JUMPDEST SWAP1 POP SWAP3 SWAP2 POP POP JUMP JUMPDEST PUSH0 DUP2 SWAP1 POP SWAP2 SWAP1 POP JUMP JUMPDEST PUSH2 0x1FA7 DUP2 PUSH2 0x1F95 JUMP JUMPDEST DUP2 EQ PUSH2 0x1FB1 JUMPI PUSH0 DUP1 REVERT JUMPDEST POP JUMP JUMPDEST PUSH0 DUP2 CALLDATALOAD SWAP1 POP PUSH2 0x1FC2 DUP2 PUSH2 0x1F9E JUMP JUMPDEST SWAP3 SWAP2 POP POP JUMP JUMPDEST PUSH0 PUSH1 0x20 DUP3 DUP5 SUB SLT ISZERO PUSH2 0x1FDD JUMPI PUSH2 0x1FDC PUSH2 0x1D9D JUMP JUMPDEST JUMPDEST PUSH0 PUSH2 0x1FEA DUP5 DUP3 DUP6 ADD PUSH2 0x1FB4 JUMP JUMPDEST SWAP2 POP POP SWAP3 SWAP2 POP POP JUMP JUMPDEST PUSH0 PUSH2 0x1FFD DUP3 PUSH2 0x1E58 JUMP JUMPDEST SWAP1 POP SWAP2 SWAP1 POP JUMP JUMPDEST PUSH2 0x200D DUP2 PUSH2 0x1FF3 JUMP JUMPDEST DUP3 MSTORE POP POP JUMP JUMPDEST PUSH0 PUSH1 0x20 DUP3 ADD SWAP1 POP PUSH2 0x2026 PUSH0 DUP4 ADD DUP5 PUSH2 0x2004 JUMP JUMPDEST SWAP3 SWAP2 POP POP JUMP JUMPDEST PUSH0 DUP1 REVERT JUMPDEST PUSH0 DUP1 REVERT JUMPDEST PUSH32 0x4E487B7100000000000000000000000000000000000000000000000000000000 PUSH0 MSTORE PUSH1 0x41 PUSH1 0x4 MSTORE PUSH1 0x24 PUSH0 REVERT JUMPDEST PUSH2 0x206A DUP3 PUSH2 0x1F2D JUMP JUMPDEST DUP2 ADD DUP2 DUP2 LT PUSH8 0xFFFFFFFFFFFFFFFF DUP3 GT OR ISZERO PUSH2 0x2089 JUMPI PUSH2 0x2088 PUSH2 0x2034 JUMP JUMPDEST JUMPDEST DUP1 PUSH1 0x40 MSTORE POP POP POP JUMP JUMPDEST PUSH0 PUSH2 0x209B PUSH2 0x1D94 JUMP JUMPDEST SWAP1 POP PUSH2 0x20A7 DUP3 DUP3 PUSH2 0x2061 JUMP JUMPDEST SWAP2 SWAP1 POP JUMP JUMPDEST PUSH0 PUSH8 0xFFFFFFFFFFFFFFFF DUP3 GT ISZERO PUSH2 0x20C6 JUMPI PUSH2 0x20C5 PUSH2 0x2034 JUMP JUMPDEST JUMPDEST PUSH2 0x20CF DUP3 PUSH2 0x1F2D JUMP JUMPDEST SWAP1 POP PUSH1 0x20 DUP2 ADD SWAP1 POP SWAP2 SWAP1 POP JUMP JUMPDEST DUP3 DUP2 DUP4 CALLDATACOPY PUSH0 DUP4 DUP4 ADD MSTORE POP POP POP JUMP JUMPDEST PUSH0 PUSH2 0x20FC PUSH2 0x20F7 DUP5 PUSH2 0x20AC JUMP JUMPDEST PUSH2 0x2092 JUMP JUMPDEST SWAP1 POP DUP3 DUP2 MSTORE PUSH1 0x20 DUP2 ADD DUP5 DUP5 DUP5 ADD GT ISZERO PUSH2 0x2118 JUMPI PUSH2 0x2117 PUSH2 0x2030 JUMP JUMPDEST JUMPDEST PUSH2 0x2123 DUP5 DUP3 DUP6 PUSH2 0x20DC JUMP JUMPDEST POP SWAP4 SWAP3 POP POP POP JUMP JUMPDEST PUSH0 DUP3 PUSH1 0x1F DUP4 ADD SLT PUSH2 0x213F JUMPI PUSH2 0x213E PUSH2 0x202C JUMP JUMPDEST JUMPDEST DUP2 CALLDATALOAD PUSH2 0x214F DUP5 DUP3 PUSH1 0x20 DUP7 ADD PUSH2 0x20EA JUMP JUMPDEST SWAP2 POP POP SWAP3 SWAP2 POP POP JUMP JUMPDEST PUSH0 DUP1 PUSH0 PUSH1 0x60 DUP5 DUP7 SUB SLT ISZERO PUSH2 0x216F JUMPI PUSH2 0x216E PUSH2 0x1D9D JUMP JUMPDEST JUMPDEST PUSH0 DUP5 ADD CALLDATALOAD PUSH8 0xFFFFFFFFFFFFFFFF DUP2 GT ISZERO PUSH2 0x218C JUMPI PUSH2 0x218B PUSH2 0x1DA1 JUMP JUMPDEST JUMPDEST PUSH2 0x2198 DUP7 DUP3 DUP8 ADD PUSH2 0x212B JUMP JUMPDEST SWAP4 POP POP PUSH1 0x20 DUP5 ADD CALLDATALOAD PUSH8 0xFFFFFFFFFFFFFFFF DUP2 GT ISZERO PUSH2 0x21B9 JUMPI PUSH2 0x21B8 PUSH2 0x1DA1 JUMP JUMPDEST JUMPDEST PUSH2 0x21C5 DUP7 DUP3 DUP8 ADD PUSH2 0x212B JUMP JUMPDEST SWAP3 POP POP PUSH1 0x40 DUP5 ADD CALLDATALOAD PUSH8 0xFFFFFFFFFFFFFFFF DUP2 GT ISZERO PUSH2 0x21E6 JUMPI PUSH2 0x21E5 PUSH2 0x1DA1 JUMP JUMPDEST JUMPDEST PUSH2 0x21F2 DUP7 DUP3 DUP8 ADD PUSH2 0x212B JUMP JUMPDEST SWAP2 POP POP SWAP3 POP SWAP3 POP SWAP3 JUMP JUMPDEST PUSH2 0x2205 DUP2 PUSH2 0x1FF3 JUMP JUMPDEST DUP2 EQ PUSH2 0x220F JUMPI PUSH0 DUP1 REVERT JUMPDEST POP JUMP JUMPDEST PUSH0 DUP2 CALLDATALOAD SWAP1 POP PUSH2 0x2220 DUP2 PUSH2 0x21FC JUMP JUMPDEST SWAP3 SWAP2 POP POP JUMP JUMPDEST PUSH0 DUP1 PUSH1 0x40 DUP4 DUP6 SUB SLT ISZERO PUSH2 0x223C JUMPI PUSH2 0x223B PUSH2 0x1D9D JUMP JUMPDEST JUMPDEST PUSH0 PUSH2 0x2249 DUP6 DUP3 DUP7 ADD PUSH2 0x2212 JUMP JUMPDEST SWAP3 POP POP PUSH1 0x20 PUSH2 0x225A DUP6 DUP3 DUP7 ADD PUSH2 0x1FB4 JUMP JUMPDEST SWAP2 POP POP SWAP3 POP SWAP3 SWAP1 POP JUMP JUMPDEST PUSH2 0x226D DUP2 PUSH2 0x1F95 JUMP JUMPDEST DUP3 MSTORE POP POP JUMP JUMPDEST PUSH0 PUSH1 0x20 DUP3 ADD SWAP1 POP PUSH2 0x2286 PUSH0 DUP4 ADD DUP5 PUSH2 0x2264 JUMP JUMPDEST SWAP3 SWAP2 POP POP JUMP JUMPDEST PUSH0 DUP1 PUSH0 PUSH1 0x60 DUP5 DUP7 SUB SLT ISZERO PUSH2 0x22A3 JUMPI PUSH2 0x22A2 PUSH2 0x1D9D JUMP JUMPDEST JUMPDEST PUSH0 PUSH2 0x22B0 DUP7 DUP3 DUP8 ADD PUSH2 0x2212 JUMP JUMPDEST SWAP4 POP POP PUSH1 0x20 PUSH2 0x22C1 DUP7 DUP3 DUP8 ADD PUSH2 0x2212 JUMP JUMPDEST SWAP3 POP POP PUSH1 0x40 PUSH2 0x22D2 DUP7 DUP3 DUP8 ADD PUSH2 0x1FB4 JUMP JUMPDEST SWAP2 POP POP SWAP3 POP SWAP3 POP SWAP3 JUMP JUMPDEST PUSH0 PUSH1 0x20 DUP3 DUP5 SUB SLT ISZERO PUSH2 0x22F1 JUMPI PUSH2 0x22F0 PUSH2 0x1D9D JUMP JUMPDEST JUMPDEST PUSH0 PUSH2 0x22FE DUP5 DUP3 DUP6 ADD PUSH2 0x2212 JUMP JUMPDEST SWAP2 POP POP SWAP3 SWAP2 POP POP JUMP JUMPDEST PUSH2 0x2310 DUP2 PUSH2 0x1E25 JUMP JUMPDEST DUP2 EQ PUSH2 0x231A JUMPI PUSH0 DUP1 REVERT JUMPDEST POP JUMP JUMPDEST PUSH0 DUP2 CALLDATALOAD SWAP1 POP PUSH2 0x232B DUP2 PUSH2 0x2307 JUMP JUMPDEST SWAP3 SWAP2 POP POP JUMP JUMPDEST PUSH0 DUP1 PUSH1 0x40 DUP4 DUP6 SUB SLT ISZERO PUSH2 0x2347 JUMPI PUSH2 0x2346 PUSH2 0x1D9D JUMP JUMPDEST JUMPDEST PUSH0 PUSH2 0x2354 DUP6 DUP3 DUP7 ADD PUSH2 0x2212 JUMP JUMPDEST SWAP3 POP POP PUSH1 0x20 PUSH2 0x2365 DUP6 DUP3 DUP7 ADD PUSH2 0x231D JUMP JUMPDEST SWAP2 POP POP SWAP3 POP SWAP3 SWAP1 POP JUMP JUMPDEST PUSH0 PUSH8 0xFFFFFFFFFFFFFFFF DUP3 GT ISZERO PUSH2 0x2389 JUMPI PUSH2 0x2388 PUSH2 0x2034 JUMP JUMPDEST JUMPDEST PUSH2 0x2392 DUP3 PUSH2 0x1F2D JUMP JUMPDEST SWAP1 POP PUSH1 0x20 DUP2 ADD SWAP1 POP SWAP2 SWAP1 POP JUMP JUMPDEST PUSH0 PUSH2 0x23B1 PUSH2 0x23AC DUP5 PUSH2 0x236F JUMP JUMPDEST PUSH2 0x2092 JUMP JUMPDEST SWAP1 POP DUP3 DUP2 MSTORE PUSH1 0x20 DUP2 ADD DUP5 DUP5 DUP5 ADD GT ISZERO PUSH2 0x23CD JUMPI PUSH2 0x23CC PUSH2 0x2030 JUMP JUMPDEST JUMPDEST PUSH2 0x23D8 DUP5 DUP3 DUP6 PUSH2 0x20DC JUMP JUMPDEST POP SWAP4 SWAP3 POP POP POP JUMP JUMPDEST PUSH0 DUP3 PUSH1 0x1F DUP4 ADD SLT PUSH2 0x23F4 JUMPI PUSH2 0x23F3 PUSH2 0x202C JUMP JUMPDEST JUMPDEST DUP2 CALLDATALOAD PUSH2 0x2404 DUP5 DUP3 PUSH1 0x20 DUP7 ADD PUSH2 0x239F JUMP JUMPDEST SWAP2 POP POP SWAP3 SWAP2 POP POP JUMP JUMPDEST PUSH0 DUP1 PUSH0 DUP1 PUSH1 0x80 DUP6 DUP8 SUB SLT ISZERO PUSH2 0x2425 JUMPI PUSH2 0x2424 PUSH2 0x1D9D JUMP JUMPDEST JUMPDEST PUSH0 PUSH2 0x2432 DUP8 DUP3 DUP9 ADD PUSH2 0x2212 JUMP JUMPDEST SWAP5 POP POP PUSH1 0x20 PUSH2 0x2443 DUP8 DUP3 DUP9 ADD PUSH2 0x2212 JUMP JUMPDEST SWAP4 POP POP PUSH1 0x40 PUSH2 0x2454 DUP8 DUP3 DUP9 ADD PUSH2 0x1FB4 JUMP JUMPDEST SWAP3 POP POP PUSH1 0x60 DUP6 ADD CALLDATALOAD PUSH8 0xFFFFFFFFFFFFFFFF DUP2 GT ISZERO PUSH2 0x2475 JUMPI PUSH2 0x2474 PUSH2 0x1DA1 JUMP JUMPDEST JUMPDEST PUSH2 0x2481 DUP8 DUP3 DUP9 ADD PUSH2 0x23E0 JUMP JUMPDEST SWAP2 POP POP SWAP3 SWAP6 SWAP2 SWAP5 POP SWAP3 POP JUMP JUMPDEST PUSH0 DUP1 PUSH1 0x40 DUP4 DUP6 SUB SLT ISZERO PUSH2 0x24A3 JUMPI PUSH2 0x24A2 PUSH2 0x1D9D JUMP JUMPDEST JUMPDEST PUSH0 PUSH2 0x24B0 DUP6 DUP3 DUP7 ADD PUSH2 0x2212 JUMP JUMPDEST SWAP3 POP POP PUSH1 0x20 PUSH2 0x24C1 DUP6 DUP3 DUP7 ADD PUSH2 0x2212 JUMP JUMPDEST SWAP2 POP POP SWAP3 POP SWAP3 SWAP1 POP JUMP JUMPDEST PUSH0 DUP1 PUSH1 0x40 DUP4 DUP6 SUB SLT ISZERO PUSH2 0x24E1 JUMPI PUSH2 0x24E0 PUSH2 0x1D9D JUMP JUMPDEST JUMPDEST PUSH0 PUSH2 0x24EE DUP6 DUP3 DUP7 ADD PUSH2 0x1FB4 JUMP JUMPDEST SWAP3 POP POP PUSH1 0x20 PUSH2 0x24FF DUP6 DUP3 DUP7 ADD PUSH2 0x2212 JUMP JUMPDEST SWAP2 POP POP SWAP3 POP SWAP3 SWAP1 POP JUMP JUMPDEST PUSH32 0x4E487B7100000000000000000000000000000000000000000000000000000000 PUSH0 MSTORE PUSH1 0x22 PUSH1 0x4 MSTORE PUSH1 0x24 PUSH0 REVERT JUMPDEST PUSH0 PUSH1 0x2 DUP3 DIV SWAP1 POP PUSH1 0x1 DUP3 AND DUP1 PUSH2 0x254D JUMPI PUSH1 0x7F DUP3 AND SWAP2 POP JUMPDEST PUSH1 0x20 DUP3 LT DUP2 SUB PUSH2 0x2560 JUMPI PUSH2 0x255F PUSH2 0x2509 JUMP JUMPDEST JUMPDEST POP SWAP2 SWAP1 POP JUMP JUMPDEST PUSH0 DUP2 SWAP1 POP DUP2 PUSH0 MSTORE PUSH1 0x20 PUSH0 KECCAK256 SWAP1 POP SWAP2 SWAP1 POP JUMP JUMPDEST PUSH0 PUSH1 0x20 PUSH1 0x1F DUP4 ADD DIV SWAP1 POP SWAP2 SWAP1 POP JUMP JUMPDEST PUSH0 DUP3 DUP3 SHL SWAP1 POP SWAP3 SWAP2 POP POP JUMP JUMPDEST PUSH0 PUSH1 0x8 DUP4 MUL PUSH2 0x25C2 PUSH32 0xFFFFFFFFFFFFFFFFFFFFFFFFFFFFFFFFFFFFFFFFFFFFFFFFFFFFFFFFFFFFFFFF DUP3 PUSH2 0x2587 JUMP JUMPDEST PUSH2 0x25CC DUP7 DUP4 PUSH2 0x2587 JUMP JUMPDEST SWAP6 POP DUP1 NOT DUP5 AND SWAP4 POP DUP1 DUP7 AND DUP5 OR SWAP3 POP POP POP SWAP4 SWAP3 POP POP POP JUMP JUMPDEST PUSH0 PUSH2 0x25FE PUSH2 0x25F9 PUSH2 0x25F4 DUP5 PUSH2 0x1F95 JUMP JUMPDEST PUSH2 0x1E77 JUMP JUMPDEST PUSH2 0x1F95 JUMP JUMPDEST SWAP1 POP SWAP2 SWAP1 POP JUMP JUMPDEST PUSH0 DUP2 SWAP1 POP SWAP2 SWAP1 POP JUMP JUMPDEST PUSH2 0x2617 DUP4 PUSH2 0x25E4 JUMP JUMPDEST PUSH2 0x262B PUSH2 0x2623 DUP3 PUSH2 0x2605 JUMP JUMPDEST DUP5 DUP5 SLOAD PUSH2 0x2593 JUMP JUMPDEST DUP3 SSTORE POP POP POP POP JUMP JUMPDEST PUSH0 SWAP1 JUMP JUMPDEST PUSH2 0x263F PUSH2 0x2633 JUMP JUMPDEST PUSH2 0x264A DUP2 DUP5 DUP5 PUSH2 0x260E JUMP JUMPDEST POP POP POP JUMP JUMPDEST JUMPDEST DUP2 DUP2 LT ISZERO PUSH2 0x266D JUMPI PUSH2 0x2662 PUSH0 DUP3 PUSH2 0x2637 JUMP JUMPDEST PUSH1 0x1 DUP2 ADD SWAP1 POP PUSH2 0x2650 JUMP JUMPDEST POP POP JUMP JUMPDEST PUSH1 0x1F DUP3 GT ISZERO PUSH2 0x26B2 JUMPI PUSH2 0x2683 DUP2 PUSH2 0x2566 JUMP JUMPDEST PUSH2 0x268C DUP5 PUSH2 0x2578 JUMP JUMPDEST DUP2 ADD PUSH1 0x20 DUP6 LT ISZERO PUSH2 0x269B JUMPI DUP2 SWAP1 POP JUMPDEST PUSH2 0x26AF PUSH2 0x26A7 DUP6 PUSH2 0x2578 JUMP JUMPDEST DUP4 ADD DUP3 PUSH2 0x264F JUMP JUMPDEST POP POP JUMPDEST POP POP POP JUMP JUMPDEST PUSH0 DUP3 DUP3 SHR SWAP1 POP SWAP3 SWAP2 POP POP JUMP JUMPDEST PUSH0 PUSH2 0x26D2 PUSH0 NOT DUP5 PUSH1 0x8 MUL PUSH2 0x26B7 JUMP JUMPDEST NOT DUP1 DUP4 AND SWAP2 POP POP SWAP3 SWAP2 POP POP JUMP JUMPDEST PUSH0 PUSH2 0x26EA DUP4 DUP4 PUSH2 0x26C3 JUMP JUMPDEST SWAP2 POP DUP3 PUSH1 0x2 MUL DUP3 OR SWAP1 POP SWAP3 SWAP2 POP POP JUMP JUMPDEST PUSH2 0x2703 DUP3 PUSH2 0x1EEB JUMP JUMPDEST PUSH8 0xFFFFFFFFFFFFFFFF DUP2 GT ISZERO PUSH2 0x271C JUMPI PUSH2 0x271B PUSH2 0x2034 JUMP JUMPDEST JUMPDEST PUSH2 0x2726 DUP3 SLOAD PUSH2 0x2536 JUMP JUMPDEST PUSH2 0x2731 DUP3 DUP3 DUP6 PUSH2 0x2671 JUMP JUMPDEST PUSH0 PUSH1 0x20 SWAP1 POP PUSH1 0x1F DUP4 GT PUSH1 0x1 DUP2 EQ PUSH2 0x2762 JUMPI PUSH0 DUP5 ISZERO PUSH2 0x2750 JUMPI DUP3 DUP8 ADD MLOAD SWAP1 POP JUMPDEST PUSH2 0x275A DUP6 DUP3 PUSH2 0x26DF JUMP JUMPDEST DUP7 SSTORE POP PUSH2 0x27C1 JUMP JUMPDEST PUSH1 0x1F NOT DUP5 AND PUSH2 0x2770 DUP7 PUSH2 0x2566 JUMP JUMPDEST PUSH0 JUMPDEST DUP3 DUP2 LT ISZERO PUSH2 0x2797 JUMPI DUP5 DUP10 ADD MLOAD DUP3 SSTORE PUSH1 0x1 DUP3 ADD SWAP2 POP PUSH1 0x20 DUP6 ADD SWAP5 POP PUSH1 0x20 DUP2 ADD SWAP1 POP PUSH2 0x2772 JUMP JUMPDEST DUP7 DUP4 LT ISZERO PUSH2 0x27B4 JUMPI DUP5 DUP10 ADD MLOAD PUSH2 0x27B0 PUSH1 0x1F DUP10 AND DUP3 PUSH2 0x26C3 JUMP JUMPDEST DUP4 SSTORE POP JUMPDEST PUSH1 0x1 PUSH1 0x2 DUP9 MUL ADD DUP9 SSTORE POP POP POP JUMPDEST POP POP POP POP POP POP JUMP JUMPDEST PUSH32 0x4552433732313A20617070726F76616C20746F2063757272656E74206F776E65 PUSH0 DUP3 ADD MSTORE PUSH32 0x7200000000000000000000000000000000000000000000000000000000000000 PUSH1 0x20 DUP3 ADD MSTORE POP JUMP JUMPDEST PUSH0 PUSH2 0x2823 PUSH1 0x21 DUP4 PUSH2 0x1EF5 JUMP JUMPDEST SWAP2 POP PUSH2 0x282E DUP3 PUSH2 0x27C9 JUMP JUMPDEST PUSH1 0x40 DUP3 ADD SWAP1 POP SWAP2 SWAP1 POP JUMP JUMPDEST PUSH0 PUSH1 0x20 DUP3 ADD SWAP1 POP DUP2 DUP2 SUB PUSH0 DUP4 ADD MSTORE PUSH2 0x2850 DUP2 PUSH2 0x2817 JUMP JUMPDEST SWAP1 POP SWAP2 SWAP1 POP JUMP JUMPDEST PUSH32 0x4552433732313A20617070726F76652063616C6C6572206973206E6F7420746F PUSH0 DUP3 ADD MSTORE PUSH32 0x6B656E206F776E6572206F7220617070726F76656420666F7220616C6C000000 PUSH1 0x20 DUP3 ADD MSTORE POP JUMP JUMPDEST PUSH0 PUSH2 0x28B1 PUSH1 0x3D DUP4 PUSH2 0x1EF5 JUMP JUMPDEST SWAP2 POP PUSH2 0x28BC DUP3 PUSH2 0x2857 JUMP JUMPDEST PUSH1 0x40 DUP3 ADD SWAP1 POP SWAP2 SWAP1 POP JUMP JUMPDEST PUSH0 PUSH1 0x20 DUP3 ADD SWAP1 POP DUP2 DUP2 SUB PUSH0 DUP4 ADD MSTORE PUSH2 0x28DE DUP2 PUSH2 0x28A5 JUMP JUMPDEST SWAP1 POP SWAP2 SWAP1 POP JUMP JUMPDEST PUSH32 0x4552433732313A2063616C6C6572206973206E6F7420746F6B656E206F776E65 PUSH0 DUP3 ADD MSTORE PUSH32 0x72206F7220617070726F76656400000000000000000000000000000000000000 PUSH1 0x20 DUP3 ADD MSTORE POP JUMP JUMPDEST PUSH0 PUSH2 0x293F PUSH1 0x2D DUP4 PUSH2 0x1EF5 JUMP JUMPDEST SWAP2 POP PUSH2 0x294A DUP3 PUSH2 0x28E5 JUMP JUMPDEST PUSH1 0x40 DUP3 ADD SWAP1 POP SWAP2 SWAP1 POP JUMP JUMPDEST PUSH0 PUSH1 0x20 DUP3 ADD SWAP1 POP DUP2 DUP2 SUB PUSH0 DUP4 ADD MSTORE PUSH2 0x296C DUP2 PUSH2 0x2933 JUMP JUMPDEST SWAP1 POP SWAP2 SWAP1 POP JUMP JUMPDEST PUSH32 0x4552433732313A20696E76616C696420746F6B656E2049440000000000000000 PUSH0 DUP3 ADD MSTORE POP JUMP JUMPDEST PUSH0 PUSH2 0x29A7 PUSH1 0x18 DUP4 PUSH2 0x1EF5 JUMP JUMPDEST SWAP2 POP PUSH2 0x29B2 DUP3 PUSH2 0x2973 JUMP JUMPDEST PUSH1 0x20 DUP3 ADD SWAP1 POP SWAP2 SWAP1 POP JUMP JUMPDEST PUSH0 PUSH1 0x20 DUP3 ADD SWAP1 POP DUP2 DUP2 SUB PUSH0 DUP4 ADD MSTORE PUSH2 0x29D4 DUP2 PUSH2 0x299B JUMP JUMPDEST SWAP1 POP SWAP2 SWAP1 POP JUMP JUMPDEST PUSH32 0x4552433732313A2061646472657373207A65726F206973206E6F742061207661 PUSH0 DUP3 ADD MSTORE PUSH32 0x6C6964206F776E65720000000000000000000000000000000000000000000000 PUSH1 0x20 DUP3 ADD MSTORE POP JUMP JUMPDEST PUSH0 PUSH2 0x2A35 PUSH1 0x29 DUP4 PUSH2 0x1EF5 JUMP JUMPDEST SWAP2 POP PUSH2 0x2A40 DUP3 PUSH2 0x29DB JUMP JUMPDEST PUSH1 0x40 DUP3 ADD SWAP1 POP SWAP2 SWAP1 POP JUMP JUMPDEST PUSH0 PUSH1 0x20 DUP3 ADD SWAP1 POP DUP2 DUP2 SUB PUSH0 DUP4 ADD MSTORE PUSH2 0x2A62 DUP2 PUSH2 0x2A29 JUMP JUMPDEST SWAP1 POP SWAP2 SWAP1 POP JUMP JUMPDEST PUSH0 DUP2 SWAP1 POP SWAP3 SWAP2 POP POP JUMP JUMPDEST PUSH32 0x646174613A6170706C69636174696F6E2F6A736F6E2C7B226E616D65223A2200 PUSH0 DUP3 ADD MSTORE POP JUMP JUMPDEST PUSH0 PUSH2 0x2AA7 PUSH1 0x1F DUP4 PUSH2 0x2A69 JUMP JUMPDEST SWAP2 POP PUSH2 0x2AB2 DUP3 PUSH2 0x2A73 JUMP JUMPDEST PUSH1 0x1F DUP3 ADD SWAP1 POP SWAP2 SWAP1 POP JUMP JUMPDEST PUSH0 DUP2 SLOAD PUSH2 0x2AC9 DUP2 PUSH2 0x2536 JUMP JUMPDEST PUSH2 0x2AD3 DUP2 DUP7 PUSH2 0x2A69 JUMP JUMPDEST SWAP5 POP PUSH1 0x1 DUP3 AND PUSH0 DUP2 EQ PUSH2 0x2AED JUMPI PUSH1 0x1 DUP2 EQ PUSH2 0x2B02 JUMPI PUSH2 0x2B34 JUMP JUMPDEST PUSH1 0xFF NOT DUP4 AND DUP7 MSTORE DUP2 ISZERO ISZERO DUP3 MUL DUP7 ADD SWAP4 POP PUSH2 0x2B34 JUMP JUMPDEST PUSH2 0x2B0B DUP6 PUSH2 0x2566 JUMP JUMPDEST PUSH0 JUMPDEST DUP4 DUP2 LT ISZERO PUSH2 0x2B2C JUMPI DUP2 SLOAD DUP2 DUP10 ADD MSTORE PUSH1 0x1 DUP3 ADD SWAP2 POP PUSH1 0x20 DUP2 ADD SWAP1 POP PUSH2 0x2B0D JUMP JUMPDEST DUP4 DUP9 ADD SWAP6 POP POP POP JUMPDEST POP POP POP SWAP3 SWAP2 POP POP JUMP JUMPDEST PUSH32 0x222C20226465736372697074696F6E223A220000000000000000000000000000 PUSH0 DUP3 ADD MSTORE POP JUMP JUMPDEST PUSH0 PUSH2 0x2B71 PUSH1 0x12 DUP4 PUSH2 0x2A69 JUMP JUMPDEST SWAP2 POP PUSH2 0x2B7C DUP3 PUSH2 0x2B3D JUMP JUMPDEST PUSH1 0x12 DUP3 ADD SWAP1 POP SWAP2 SWAP1 POP JUMP JUMPDEST PUSH32 0x222C2022696D616765223A220000000000000000000000000000000000000000 PUSH0 DUP3 ADD MSTORE POP JUMP JUMPDEST PUSH0 PUSH2 0x2BBB PUSH1 0xC DUP4 PUSH2 0x2A69 JUMP JUMPDEST SWAP2 POP PUSH2 0x2BC6 DUP3 PUSH2 0x2B87 JUMP JUMPDEST PUSH1 0xC DUP3 ADD SWAP1 POP SWAP2 SWAP1 POP JUMP JUMPDEST PUSH32 0x227D000000000000000000000000000000000000000000000000000000000000 PUSH0 DUP3 ADD MSTORE POP JUMP JUMPDEST PUSH0 PUSH2 0x2C05 PUSH1 0x2 DUP4 PUSH2 0x2A69 JUMP JUMPDEST SWAP2 POP PUSH2 0x2C10 DUP3 PUSH2 0x2BD1 JUMP JUMPDEST PUSH1 0x2 DUP3 ADD SWAP1 POP SWAP2 SWAP1 POP JUMP JUMPDEST PUSH0 PUSH2 0x2C25 DUP3 PUSH2 0x2A9B JUMP JUMPDEST SWAP2 POP PUSH2 0x2C31 DUP3 DUP7 PUSH2 0x2ABD JUMP JUMPDEST SWAP2 POP PUSH2 0x2C3C DUP3 PUSH2 0x2B65 JUMP JUMPDEST SWAP2 POP PUSH2 0x2C48 DUP3 DUP6 PUSH2 0x2ABD JUMP JUMPDEST SWAP2 POP PUSH2 0x2C53 DUP3 PUSH2 0x2BAF JUMP JUMPDEST SWAP2 POP PUSH2 0x2C5F DUP3 DUP5 PUSH2 0x2ABD JUMP JUMPDEST SWAP2 POP PUSH2 0x2C6A DUP3 PUSH2 0x2BF9 JUMP JUMPDEST SWAP2 POP DUP2 SWAP1 POP SWAP5 SWAP4 POP POP POP POP JUMP JUMPDEST PUSH0 PUSH1 0x60 DUP3 ADD SWAP1 POP PUSH2 0x2C8A PUSH0 DUP4 ADD DUP7 PUSH2 0x2004 JUMP JUMPDEST PUSH2 0x2C97 PUSH1 0x20 DUP4 ADD DUP6 PUSH2 0x2004 JUMP JUMPDEST PUSH2 0x2CA4 PUSH1 0x40 DUP4 ADD DUP5 PUSH2 0x2264 JUMP JUMPDEST SWAP5 SWAP4 POP POP POP POP JUMP JUMPDEST PUSH0 DUP2 MLOAD SWAP1 POP PUSH2 0x2CBA DUP2 PUSH2 0x2307 JUMP JUMPDEST SWAP3 SWAP2 POP POP JUMP JUMPDEST PUSH0 PUSH1 0x20 DUP3 DUP5 SUB SLT ISZERO PUSH2 0x2CD5 JUMPI PUSH2 0x2CD4 PUSH2 0x1D9D JUMP JUMPDEST JUMPDEST PUSH0 PUSH2 0x2CE2 DUP5 DUP3 DUP6 ADD PUSH2 0x2CAC JUMP JUMPDEST SWAP2 POP POP SWAP3 SWAP2 POP POP JUMP JUMPDEST PUSH32 0x717665546F6B656E207472616E73666572206572726F72000000000000000000 PUSH0 DUP3 ADD MSTORE POP JUMP JUMPDEST PUSH0 PUSH2 0x2D1F PUSH1 0x17 DUP4 PUSH2 0x1EF5 JUMP JUMPDEST SWAP2 POP PUSH2 0x2D2A DUP3 PUSH2 0x2CEB JUMP JUMPDEST PUSH1 0x20 DUP3 ADD SWAP1 POP SWAP2 SWAP1 POP JUMP JUMPDEST PUSH0 PUSH1 0x20 DUP3 ADD SWAP1 POP DUP2 DUP2 SUB PUSH0 DUP4 ADD MSTORE PUSH2 0x2D4C DUP2 PUSH2 0x2D13 JUMP JUMPDEST SWAP1 POP SWAP2 SWAP1 POP JUMP JUMPDEST PUSH32 0x4552433732313A207472616E736665722066726F6D20696E636F727265637420 PUSH0 DUP3 ADD MSTORE PUSH32 0x6F776E6572000000000000000000000000000000000000000000000000000000 PUSH1 0x20 DUP3 ADD MSTORE POP JUMP JUMPDEST PUSH0 PUSH2 0x2DAD PUSH1 0x25 DUP4 PUSH2 0x1EF5 JUMP JUMPDEST SWAP2 POP PUSH2 0x2DB8 DUP3 PUSH2 0x2D53 JUMP JUMPDEST PUSH1 0x40 DUP3 ADD SWAP1 POP SWAP2 SWAP1 POP JUMP JUMPDEST PUSH0 PUSH1 0x20 DUP3 ADD SWAP1 POP DUP2 DUP2 SUB PUSH0 DUP4 ADD MSTORE PUSH2 0x2DDA DUP2 PUSH2 0x2DA1 JUMP JUMPDEST SWAP1 POP SWAP2 SWAP1 POP JUMP JUMPDEST PUSH32 0x4552433732313A207472616E7366657220746F20746865207A65726F20616464 PUSH0 DUP3 ADD MSTORE PUSH32 0x7265737300000000000000000000000000000000000000000000000000000000 PUSH1 0x20 DUP3 ADD MSTORE POP JUMP JUMPDEST PUSH0 PUSH2 0x2E3B PUSH1 0x24 DUP4 PUSH2 0x1EF5 JUMP JUMPDEST SWAP2 POP PUSH2 0x2E46 DUP3 PUSH2 0x2DE1 JUMP JUMPDEST PUSH1 0x40 DUP3 ADD SWAP1 POP SWAP2 SWAP1 POP JUMP JUMPDEST PUSH0 PUSH1 0x20 DUP3 ADD SWAP1 POP DUP2 DUP2 SUB PUSH0 DUP4 ADD MSTORE PUSH2 0x2E68 DUP2 PUSH2 0x2E2F JUMP JUMPDEST SWAP1 POP SWAP2 SWAP1 POP JUMP JUMPDEST PUSH32 0x4552433732313A207472616E7366657220746F206E6F6E204552433732315265 PUSH0 DUP3 ADD MSTORE PUSH32 0x63656976657220696D706C656D656E7465720000000000000000000000000000 PUSH1 0x20 DUP3 ADD MSTORE POP JUMP JUMPDEST PUSH0 PUSH2 0x2EC9 PUSH1 0x32 DUP4 PUSH2 0x1EF5 JUMP JUMPDEST SWAP2 POP PUSH2 0x2ED4 DUP3 PUSH2 0x2E6F JUMP JUMPDEST PUSH1 0x40 DUP3 ADD SWAP1 POP SWAP2 SWAP1 POP JUMP JUMPDEST PUSH0 PUSH1 0x20 DUP3 ADD SWAP1 POP DUP2 DUP2 SUB PUSH0 DUP4 ADD MSTORE PUSH2 0x2EF6 DUP2 PUSH2 0x2EBD JUMP JUMPDEST SWAP1 POP SWAP2 SWAP1 POP JUMP JUMPDEST PUSH32 0x4552433732313A20617070726F766520746F2063616C6C657200000000000000 PUSH0 DUP3 ADD MSTORE POP JUMP JUMPDEST PUSH0 PUSH2 0x2F31 PUSH1 0x19 DUP4 PUSH2 0x1EF5 JUMP JUMPDEST SWAP2 POP PUSH2 0x2F3C DUP3 PUSH2 0x2EFD JUMP JUMPDEST PUSH1 0x20 DUP3 ADD SWAP1 POP SWAP2 SWAP1 POP JUMP JUMPDEST PUSH0 PUSH1 0x20 DUP3 ADD SWAP1 POP DUP2 DUP2 SUB PUSH0 DUP4 ADD MSTORE PUSH2 0x2F5E DUP2 PUSH2 0x2F25 JUMP JUMPDEST SWAP1 POP SWAP2 SWAP1 POP JUMP JUMPDEST PUSH32 0x5F73657451564564656669206572726F72000000000000000000000000000000 PUSH0 DUP3 ADD MSTORE POP JUMP JUMPDEST PUSH0 PUSH2 0x2F99 PUSH1 0x11 DUP4 PUSH2 0x1EF5 JUMP JUMPDEST SWAP2 POP PUSH2 0x2FA4 DUP3 PUSH2 0x2F65 JUMP JUMPDEST PUSH1 0x20 DUP3 ADD SWAP1 POP SWAP2 SWAP1 POP JUMP JUMPDEST PUSH0 PUSH1 0x20 DUP3 ADD SWAP1 POP DUP2 DUP2 SUB PUSH0 DUP4 ADD MSTORE PUSH2 0x2FC6 DUP2 PUSH2 0x2F8D JUMP JUMPDEST SWAP1 POP SWAP2 SWAP1 POP JUMP JUMPDEST PUSH32 0x4E487B7100000000000000000000000000000000000000000000000000000000 PUSH0 MSTORE PUSH1 0x11 PUSH1 0x4 MSTORE PUSH1 0x24 PUSH0 REVERT JUMPDEST PUSH0 PUSH2 0x3004 DUP3 PUSH2 0x1F95 JUMP JUMPDEST SWAP2 POP PUSH2 0x300F DUP4 PUSH2 0x1F95 JUMP JUMPDEST SWAP3 POP DUP3 DUP3 ADD SWAP1 POP DUP1 DUP3 GT ISZERO PUSH2 0x3027 JUMPI PUSH2 0x3026 PUSH2 0x2FCD JUMP JUMPDEST JUMPDEST SWAP3 SWAP2 POP POP JUMP JUMPDEST PUSH32 0x746F6B656E206973207374696C6C20696E206C6F636B20706572696F64000000 PUSH0 DUP3 ADD MSTORE POP JUMP JUMPDEST PUSH0 PUSH2 0x3061 PUSH1 0x1D DUP4 PUSH2 0x2A69 JUMP JUMPDEST SWAP2 POP PUSH2 0x306C DUP3 PUSH2 0x302D JUMP JUMPDEST PUSH1 0x1D DUP3 ADD SWAP1 POP SWAP2 SWAP1 POP JUMP JUMPDEST PUSH0 PUSH2 0x3081 DUP3 PUSH2 0x1EEB JUMP JUMPDEST PUSH2 0x308B DUP2 DUP6 PUSH2 0x2A69 JUMP JUMPDEST SWAP4 POP PUSH2 0x309B DUP2 DUP6 PUSH1 0x20 DUP7 ADD PUSH2 0x1F05 JUMP JUMPDEST DUP1 DUP5 ADD SWAP2 POP POP SWAP3 SWAP2 POP POP JUMP JUMPDEST PUSH0 PUSH2 0x30B1 DUP3 PUSH2 0x3055 JUMP JUMPDEST SWAP2 POP PUSH2 0x30BD DUP3 DUP5 PUSH2 0x3077 JUMP JUMPDEST SWAP2 POP DUP2 SWAP1 POP SWAP3 SWAP2 POP POP JUMP JUMPDEST PUSH32 0x4552433732313A206D696E7420746F20746865207A65726F2061646472657373 PUSH0 DUP3 ADD MSTORE POP JUMP JUMPDEST PUSH0 PUSH2 0x30FC PUSH1 0x20 DUP4 PUSH2 0x1EF5 JUMP JUMPDEST SWAP2 POP PUSH2 0x3107 DUP3 PUSH2 0x30C8 JUMP JUMPDEST PUSH1 0x20 DUP3 ADD SWAP1 POP SWAP2 SWAP1 POP JUMP JUMPDEST PUSH0 PUSH1 0x20 DUP3 ADD SWAP1 POP DUP2 DUP2 SUB PUSH0 DUP4 ADD MSTORE PUSH2 0x3129 DUP2 PUSH2 0x30F0 JUMP JUMPDEST SWAP1 POP SWAP2 SWAP1 POP JUMP JUMPDEST PUSH32 0x4552433732313A20746F6B656E20616C7265616479206D696E74656400000000 PUSH0 DUP3 ADD MSTORE POP JUMP JUMPDEST PUSH0 PUSH2 0x3164 PUSH1 0x1C DUP4 PUSH2 0x1EF5 JUMP JUMPDEST SWAP2 POP PUSH2 0x316F DUP3 PUSH2 0x3130 JUMP JUMPDEST PUSH1 0x20 DUP3 ADD SWAP1 POP SWAP2 SWAP1 POP JUMP JUMPDEST PUSH0 PUSH1 0x20 DUP3 ADD SWAP1 POP DUP2 DUP2 SUB PUSH0 DUP4 ADD MSTORE PUSH2 0x3191 DUP2 PUSH2 0x3158 JUMP JUMPDEST SWAP1 POP SWAP2 SWAP1 POP JUMP JUMPDEST PUSH0 DUP2 MLOAD SWAP1 POP SWAP2 SWAP1 POP JUMP JUMPDEST PUSH0 DUP3 DUP3 MSTORE PUSH1 0x20 DUP3 ADD SWAP1 POP SWAP3 SWAP2 POP POP JUMP JUMPDEST PUSH0 PUSH2 0x31BC DUP3 PUSH2 0x3198 JUMP JUMPDEST PUSH2 0x31C6 DUP2 DUP6 PUSH2 0x31A2 JUMP JUMPDEST SWAP4 POP PUSH2 0x31D6 DUP2 DUP6 PUSH1 0x20 DUP7 ADD PUSH2 0x1F05 JUMP JUMPDEST PUSH2 0x31DF DUP2 PUSH2 0x1F2D JUMP JUMPDEST DUP5 ADD SWAP2 POP POP SWAP3 SWAP2 POP POP JUMP JUMPDEST PUSH0 PUSH1 0x80 DUP3 ADD SWAP1 POP PUSH2 0x31FD PUSH0 DUP4 ADD DUP8 PUSH2 0x2004 JUMP JUMPDEST PUSH2 0x320A PUSH1 0x20 DUP4 ADD DUP7 PUSH2 0x2004 JUMP JUMPDEST PUSH2 0x3217 PUSH1 0x40 DUP4 ADD DUP6 PUSH2 0x2264 JUMP JUMPDEST DUP2 DUP2 SUB PUSH1 0x60 DUP4 ADD MSTORE PUSH2 0x3229 DUP2 DUP5 PUSH2 0x31B2 JUMP JUMPDEST SWAP1 POP SWAP6 SWAP5 POP POP POP POP POP JUMP JUMPDEST PUSH0 DUP2 MLOAD SWAP1 POP PUSH2 0x3242 DUP2 PUSH2 0x1DD0 JUMP JUMPDEST SWAP3 SWAP2 POP POP JUMP JUMPDEST PUSH0 PUSH1 0x20 DUP3 DUP5 SUB SLT ISZERO PUSH2 0x325D JUMPI PUSH2 0x325C PUSH2 0x1D9D JUMP JUMPDEST JUMPDEST PUSH0 PUSH2 0x326A DUP5 DUP3 DUP6 ADD PUSH2 0x3234 JUMP JUMPDEST SWAP2 POP POP SWAP3 SWAP2 POP POP JUMP JUMPDEST PUSH32 0x4E487B7100000000000000000000000000000000000000000000000000000000 PUSH0 MSTORE PUSH1 0x12 PUSH1 0x4 MSTORE PUSH1 0x24 PUSH0 REVERT INVALID LOG2 PUSH5 0x6970667358 0x22 SLT KECCAK256 0x26 PUSH6 0x4139A1E51E0A PUSH1 0xA4 ADDRESS 0xC2 CALLVALUE ORIGIN EXTCODECOPY 0xA5 PUSH20 0xE51EDE9D8B28BCD933898585AF02A964736F6C63 NUMBER STOP ADDMOD EQ STOP CALLER "
		},
		"gasEstimates": {
			"creation": {
				"codeDepositCost": "2602800",
				"executionCost": "infinite",
				"totalCost": "infinite"
			},
			"external": {
				"_mintTimes(uint256)": "infinite",
				"approve(address,uint256)": "infinite",
				"balanceOf(address)": "2931",
				"burn(uint256)": "infinite",
				"getApproved(uint256)": "5304",
				"isApprovedForAll(address,address)": "infinite",
				"mintStakingGuarantee(address)": "infinite",
				"name()": "infinite",
				"ownerOf(uint256)": "3006",
				"qveDefiAddress()": "2553",
				"qveToken()": "infinite",
				"safeTransferFrom(address,address,uint256)": "infinite",
				"safeTransferFrom(address,address,uint256,bytes)": "infinite",
				"setApprovalForAll(address,bool)": "infinite",
				"setMetadata(string,string,string)": "infinite",
				"shortenLockup(uint256,address)": "infinite",
				"supportsInterface(bytes4)": "787",
				"symbol()": "infinite",
				"tokenURI(uint256)": "infinite",
				"transferFrom(address,address,uint256)": "infinite"
			},
			"internal": {
				"_beforeTokenTransfer(address,address,uint256,uint256)": "infinite",
				"_setLockup(uint256)": "22283",
				"_setQVEdefi(address)": "infinite"
			}
		},
		"methodIdentifiers": {
			"_mintTimes(uint256)": "1349d5bd",
			"approve(address,uint256)": "095ea7b3",
			"balanceOf(address)": "70a08231",
			"burn(uint256)": "42966c68",
			"getApproved(uint256)": "081812fc",
			"isApprovedForAll(address,address)": "e985e9c5",
			"mintStakingGuarantee(address)": "906f09e0",
			"name()": "06fdde03",
			"ownerOf(uint256)": "6352211e",
			"qveDefiAddress()": "6547113a",
			"qveToken()": "05335410",
			"safeTransferFrom(address,address,uint256)": "42842e0e",
			"safeTransferFrom(address,address,uint256,bytes)": "b88d4fde",
			"setApprovalForAll(address,bool)": "a22cb465",
			"setMetadata(string,string,string)": "0890d80c",
			"shortenLockup(uint256,address)": "fdb06a31",
			"supportsInterface(bytes4)": "01ffc9a7",
			"symbol()": "95d89b41",
			"tokenURI(uint256)": "c87b56dd",
			"transferFrom(address,address,uint256)": "23b872dd"
		}
	},
	"abi": [
		{
			"inputs": [
				{
					"internalType": "contract QVEtoken",
					"name": "_qveToken",
					"type": "address"
				}
			],
			"stateMutability": "nonpayable",
			"type": "constructor"
		},
		{
			"anonymous": false,
			"inputs": [
				{
					"indexed": true,
					"internalType": "address",
					"name": "owner",
					"type": "address"
				},
				{
					"indexed": true,
					"internalType": "address",
					"name": "approved",
					"type": "address"
				},
				{
					"indexed": true,
					"internalType": "uint256",
					"name": "tokenId",
					"type": "uint256"
				}
			],
			"name": "Approval",
			"type": "event"
		},
		{
			"anonymous": false,
			"inputs": [
				{
					"indexed": true,
					"internalType": "address",
					"name": "owner",
					"type": "address"
				},
				{
					"indexed": true,
					"internalType": "address",
					"name": "operator",
					"type": "address"
				},
				{
					"indexed": false,
					"internalType": "bool",
					"name": "approved",
					"type": "bool"
				}
			],
			"name": "ApprovalForAll",
			"type": "event"
		},
		{
			"anonymous": false,
			"inputs": [
				{
					"indexed": true,
					"internalType": "address",
					"name": "from",
					"type": "address"
				},
				{
					"indexed": true,
					"internalType": "address",
					"name": "to",
					"type": "address"
				},
				{
					"indexed": true,
					"internalType": "uint256",
					"name": "tokenId",
					"type": "uint256"
				}
			],
			"name": "Transfer",
			"type": "event"
		},
		{
			"inputs": [
				{
					"internalType": "uint256",
					"name": "",
					"type": "uint256"
				}
			],
			"name": "_mintTimes",
			"outputs": [
				{
					"internalType": "uint256",
					"name": "",
					"type": "uint256"
				}
			],
			"stateMutability": "view",
			"type": "function"
		},
		{
			"inputs": [
				{
					"internalType": "address",
					"name": "to",
					"type": "address"
				},
				{
					"internalType": "uint256",
					"name": "tokenId",
					"type": "uint256"
				}
			],
			"name": "approve",
			"outputs": [],
			"stateMutability": "nonpayable",
			"type": "function"
		},
		{
			"inputs": [
				{
					"internalType": "address",
					"name": "owner",
					"type": "address"
				}
			],
			"name": "balanceOf",
			"outputs": [
				{
					"internalType": "uint256",
					"name": "",
					"type": "uint256"
				}
			],
			"stateMutability": "view",
			"type": "function"
		},
		{
			"inputs": [
				{
					"internalType": "uint256",
					"name": "tokenId",
					"type": "uint256"
				}
			],
			"name": "burn",
			"outputs": [],
			"stateMutability": "nonpayable",
			"type": "function"
		},
		{
			"inputs": [
				{
					"internalType": "uint256",
					"name": "tokenId",
					"type": "uint256"
				}
			],
			"name": "getApproved",
			"outputs": [
				{
					"internalType": "address",
					"name": "",
					"type": "address"
				}
			],
			"stateMutability": "view",
			"type": "function"
		},
		{
			"inputs": [
				{
					"internalType": "address",
					"name": "owner",
					"type": "address"
				},
				{
					"internalType": "address",
					"name": "operator",
					"type": "address"
				}
			],
			"name": "isApprovedForAll",
			"outputs": [
				{
					"internalType": "bool",
					"name": "",
					"type": "bool"
				}
			],
			"stateMutability": "view",
			"type": "function"
		},
		{
			"inputs": [
				{
					"internalType": "address",
					"name": "staker",
					"type": "address"
				}
			],
			"name": "mintStakingGuarantee",
			"outputs": [
				{
					"internalType": "uint256",
					"name": "",
					"type": "uint256"
				}
			],
			"stateMutability": "nonpayable",
			"type": "function"
		},
		{
			"inputs": [],
			"name": "name",
			"outputs": [
				{
					"internalType": "string",
					"name": "",
					"type": "string"
				}
			],
			"stateMutability": "view",
			"type": "function"
		},
		{
			"inputs": [
				{
					"internalType": "uint256",
					"name": "tokenId",
					"type": "uint256"
				}
			],
			"name": "ownerOf",
			"outputs": [
				{
					"internalType": "address",
					"name": "",
					"type": "address"
				}
			],
			"stateMutability": "view",
			"type": "function"
		},
		{
			"inputs": [],
			"name": "qveDefiAddress",
			"outputs": [
				{
					"internalType": "address",
					"name": "",
					"type": "address"
				}
			],
			"stateMutability": "view",
			"type": "function"
		},
		{
			"inputs": [],
			"name": "qveToken",
			"outputs": [
				{
					"internalType": "contract QVEtoken",
					"name": "",
					"type": "address"
				}
			],
			"stateMutability": "view",
			"type": "function"
		},
		{
			"inputs": [
				{
					"internalType": "address",
					"name": "from",
					"type": "address"
				},
				{
					"internalType": "address",
					"name": "to",
					"type": "address"
				},
				{
					"internalType": "uint256",
					"name": "tokenId",
					"type": "uint256"
				}
			],
			"name": "safeTransferFrom",
			"outputs": [],
			"stateMutability": "nonpayable",
			"type": "function"
		},
		{
			"inputs": [
				{
					"internalType": "address",
					"name": "from",
					"type": "address"
				},
				{
					"internalType": "address",
					"name": "to",
					"type": "address"
				},
				{
					"internalType": "uint256",
					"name": "tokenId",
					"type": "uint256"
				},
				{
					"internalType": "bytes",
					"name": "data",
					"type": "bytes"
				}
			],
			"name": "safeTransferFrom",
			"outputs": [],
			"stateMutability": "nonpayable",
			"type": "function"
		},
		{
			"inputs": [
				{
					"internalType": "address",
					"name": "operator",
					"type": "address"
				},
				{
					"internalType": "bool",
					"name": "approved",
					"type": "bool"
				}
			],
			"name": "setApprovalForAll",
			"outputs": [],
			"stateMutability": "nonpayable",
			"type": "function"
		},
		{
			"inputs": [
				{
					"internalType": "string",
					"name": "name_",
					"type": "string"
				},
				{
					"internalType": "string",
					"name": "description_",
					"type": "string"
				},
				{
					"internalType": "string",
					"name": "imageUri_",
					"type": "string"
				}
			],
			"name": "setMetadata",
			"outputs": [
				{
					"internalType": "bool",
					"name": "",
					"type": "bool"
				}
			],
			"stateMutability": "nonpayable",
			"type": "function"
		},
		{
			"inputs": [
				{
					"internalType": "uint256",
					"name": "QVEamount",
					"type": "uint256"
				},
				{
					"internalType": "address",
					"name": "_qveDefiAddress",
					"type": "address"
				}
			],
			"name": "shortenLockup",
			"outputs": [
				{
					"internalType": "bool",
					"name": "",
					"type": "bool"
				}
			],
			"stateMutability": "nonpayable",
			"type": "function"
		},
		{
			"inputs": [
				{
					"internalType": "bytes4",
					"name": "interfaceId",
					"type": "bytes4"
				}
			],
			"name": "supportsInterface",
			"outputs": [
				{
					"internalType": "bool",
					"name": "",
					"type": "bool"
				}
			],
			"stateMutability": "view",
			"type": "function"
		},
		{
			"inputs": [],
			"name": "symbol",
			"outputs": [
				{
					"internalType": "string",
					"name": "",
					"type": "string"
				}
			],
			"stateMutability": "view",
			"type": "function"
		},
		{
			"inputs": [
				{
					"internalType": "uint256",
					"name": "tokenId",
					"type": "uint256"
				}
			],
			"name": "tokenURI",
			"outputs": [
				{
					"internalType": "string",
					"name": "",
					"type": "string"
				}
			],
			"stateMutability": "view",
			"type": "function"
		},
		{
			"inputs": [
				{
					"internalType": "address",
					"name": "from",
					"type": "address"
				},
				{
					"internalType": "address",
					"name": "to",
					"type": "address"
				},
				{
					"internalType": "uint256",
					"name": "tokenId",
					"type": "uint256"
				}
			],
			"name": "transferFrom",
			"outputs": [],
			"stateMutability": "nonpayable",
			"type": "function"
		}
	]
}