{
	"data": {
		"bytecode": {
			"linkReferences": {},
			"object": "608060405234801562000010575f80fd5b506040516200325438038062003254833981810160405281019062000036919062000190565b6040518060400160405280600b81526020017f5156455f7374616b696e670000000000000000000000000000000000000000008152506040518060400160405280600d81526020017f5156455f47554152414e54454500000000000000000000000000000000000000815250815f9081620000b2919062000424565b508060019081620000c4919062000424565b5050508060075f6101000a81548173ffffffffffffffffffffffffffffffffffffffff021916908373ffffffffffffffffffffffffffffffffffffffff16021790555062ed4e006009819055505062000508565b5f80fd5b5f73ffffffffffffffffffffffffffffffffffffffff82169050919050565b5f62000147826200011c565b9050919050565b5f6200015a826200013b565b9050919050565b6200016c816200014e565b811462000177575f80fd5b50565b5f815190506200018a8162000161565b92915050565b5f60208284031215620001a857620001a762000118565b5b5f620001b7848285016200017a565b91505092915050565b5f81519050919050565b7f4e487b71000000000000000000000000000000000000000000000000000000005f52604160045260245ffd5b7f4e487b71000000000000000000000000000000000000000000000000000000005f52602260045260245ffd5b5f60028204905060018216806200023c57607f821691505b602082108103620002525762000251620001f7565b5b50919050565b5f819050815f5260205f209050919050565b5f6020601f8301049050919050565b5f82821b905092915050565b5f60088302620002b67fffffffffffffffffffffffffffffffffffffffffffffffffffffffffffffffff8262000279565b620002c2868362000279565b95508019841693508086168417925050509392505050565b5f819050919050565b5f819050919050565b5f6200030c620003066200030084620002da565b620002e3565b620002da565b9050919050565b5f819050919050565b6200032783620002ec565b6200033f620003368262000313565b84845462000285565b825550505050565b5f90565b6200035562000347565b620003628184846200031c565b505050565b5b8181101562000389576200037d5f826200034b565b60018101905062000368565b5050565b601f821115620003d857620003a28162000258565b620003ad846200026a565b81016020851015620003bd578190505b620003d5620003cc856200026a565b83018262000367565b50505b505050565b5f82821c905092915050565b5f620003fa5f1984600802620003dd565b1980831691505092915050565b5f620004148383620003e9565b9150826002028217905092915050565b6200042f82620001c0565b67ffffffffffffffff8111156200044b576200044a620001ca565b5b62000457825462000224565b620004648282856200038d565b5f60209050601f8311600181146200049a575f841562000485578287015190505b62000491858262000407565b86555062000500565b601f198416620004aa8662000258565b5f5b82811015620004d357848901518255600182019150602085019450602081019050620004ac565b86831015620004f35784890151620004ef601f891682620003e9565b8355505b6001600288020188555050505b505050505050565b612d3e80620005165f395ff3fe608060405234801561000f575f80fd5b506004361061011f575f3560e01c80636352211e116100ab578063a22cb4651161006f578063a22cb4651461032b578063b88d4fde14610347578063c87b56dd14610363578063e985e9c514610393578063fdb06a31146103c35761011f565b80636352211e1461025f5780636547113a1461028f57806370a08231146102ad578063906f09e0146102dd57806395d89b411461030d5761011f565b8063095ea7b3116100f2578063095ea7b3146101bf5780631349d5bd146101db57806323b872dd1461020b57806342842e0e1461022757806342966c68146102435761011f565b806301ffc9a714610123578063053354101461015357806306fdde0314610171578063081812fc1461018f575b5f80fd5b61013d60048036038101906101389190611d93565b6103f3565b60405161014a9190611dd8565b60405180910390f35b61015b6104d4565b6040516101689190611e6b565b60405180910390f35b6101796104f9565b6040516101869190611f0e565b60405180910390f35b6101a960048036038101906101a49190611f61565b610536565b6040516101b69190611fac565b60405180910390f35b6101d960048036038101906101d49190611fef565b610578565b005b6101f560048036038101906101f09190611f61565b61068e565b604051610202919061203c565b60405180910390f35b61022560048036038101906102209190612055565b6106a3565b005b610241600480360381019061023c9190612055565b610703565b005b61025d60048036038101906102589190611f61565b610722565b005b61027960048036038101906102749190611f61565b61077e565b6040516102869190611fac565b60405180910390f35b610297610802565b6040516102a49190611fac565b60405180910390f35b6102c760048036038101906102c291906120a5565b610827565b6040516102d4919061203c565b60405180910390f35b6102f760048036038101906102f291906120a5565b6108db565b604051610304919061203c565b60405180910390f35b61031561092b565b6040516103229190611f0e565b60405180910390f35b610345600480360381019061034091906120fa565b6109bb565b005b610361600480360381019061035c9190612264565b6109d1565b005b61037d60048036038101906103789190611f61565b610a33565b60405161038a9190611f0e565b60405180910390f35b6103ad60048036038101906103a891906122e4565b610a98565b6040516103ba9190611dd8565b60405180910390f35b6103dd60048036038101906103d89190612322565b610b26565b6040516103ea9190611dd8565b60405180910390f35b5f7f80ac58cd000000000000000000000000000000000000000000000000000000007bffffffffffffffffffffffffffffffffffffffffffffffffffffffff1916827bffffffffffffffffffffffffffffffffffffffffffffffffffffffff191614806104bd57507f5b5e139f000000000000000000000000000000000000000000000000000000007bffffffffffffffffffffffffffffffffffffffffffffffffffffffff1916827bffffffffffffffffffffffffffffffffffffffffffffffffffffffff1916145b806104cd57506104cc82610c43565b5b9050919050565b60075f9054906101000a900473ffffffffffffffffffffffffffffffffffffffff1681565b60606040518060400160405280600381526020017f6e66740000000000000000000000000000000000000000000000000000000000815250905090565b5f61054082610cac565b60045f8381526020019081526020015f205f9054906101000a900473ffffffffffffffffffffffffffffffffffffffff169050919050565b5f6105828261077e565b90508073ffffffffffffffffffffffffffffffffffffffff168373ffffffffffffffffffffffffffffffffffffffff16036105f2576040517f08c379a00000000000000000000000000000000000000000000000000000000081526004016105e9906123d0565b60405180910390fd5b8073ffffffffffffffffffffffffffffffffffffffff16610611610cf7565b73ffffffffffffffffffffffffffffffffffffffff161480610640575061063f8161063a610cf7565b610a98565b5b61067f576040517f08c379a00000000000000000000000000000000000000000000000000000000081526004016106769061245e565b60405180910390fd5b6106898383610cfe565b505050565b600a602052805f5260405f205f915090505481565b6106b46106ae610cf7565b82610db4565b6106f3576040517f08c379a00000000000000000000000000000000000000000000000000000000081526004016106ea906124ec565b60405180910390fd5b6106fe838383610e48565b505050565b61071d83838360405180602001604052805f8152506109d1565b505050565b61073361072d610cf7565b82610db4565b610772576040517f08c379a0000000000000000000000000000000000000000000000000000000008152600401610769906124ec565b60405180910390fd5b61077b81611134565b50565b5f8061078983611275565b90505f73ffffffffffffffffffffffffffffffffffffffff168173ffffffffffffffffffffffffffffffffffffffff16036107f9576040517f08c379a00000000000000000000000000000000000000000000000000000000081526004016107f090612554565b60405180910390fd5b80915050919050565b60085f9054906101000a900473ffffffffffffffffffffffffffffffffffffffff1681565b5f8073ffffffffffffffffffffffffffffffffffffffff168273ffffffffffffffffffffffffffffffffffffffff1603610896576040517f08c379a000000000000000000000000000000000000000000000000000000000815260040161088d906125e2565b60405180910390fd5b60035f8373ffffffffffffffffffffffffffffffffffffffff1673ffffffffffffffffffffffffffffffffffffffff1681526020019081526020015f20549050919050565b5f806108e760066112ae565b9050610902838260405180602001604052805f8152506112ba565b42600a5f8381526020019081526020015f20819055506109226006611314565b80915050919050565b60606001805461093a9061262d565b80601f01602080910402602001604051908101604052809291908181526020018280546109669061262d565b80156109b15780601f10610988576101008083540402835291602001916109b1565b820191905f5260205f20905b81548152906001019060200180831161099457829003601f168201915b5050505050905090565b6109cd6109c6610cf7565b8383611328565b5050565b6109e26109dc610cf7565b83610db4565b610a21576040517f08c379a0000000000000000000000000000000000000000000000000000000008152600401610a18906124ec565b60405180910390fd5b610a2d8484848461148f565b50505050565b6060610a3e82610cac565b5f610a476114eb565b90505f815111610a655760405180602001604052805f815250610a90565b80610a6f8461150b565b604051602001610a80929190612697565b6040516020818303038152906040525b915050919050565b5f60055f8473ffffffffffffffffffffffffffffffffffffffff1673ffffffffffffffffffffffffffffffffffffffff1681526020019081526020015f205f8373ffffffffffffffffffffffffffffffffffffffff1673ffffffffffffffffffffffffffffffffffffffff1681526020019081526020015f205f9054906101000a900460ff16905092915050565b5f610b30826115d5565b5060075f9054906101000a900473ffffffffffffffffffffffffffffffffffffffff1673ffffffffffffffffffffffffffffffffffffffff1663469895c83360085f9054906101000a900473ffffffffffffffffffffffffffffffffffffffff16866040518463ffffffff1660e01b8152600401610bb0939291906126ba565b6020604051808303815f875af1158015610bcc573d5f803e3d5ffd5b505050506040513d601f19601f82011682018060405250810190610bf09190612703565b610c2f576040517f08c379a0000000000000000000000000000000000000000000000000000000008152600401610c2690612778565b60405180910390fd5b610c388361168d565b506001905092915050565b5f7f01ffc9a7000000000000000000000000000000000000000000000000000000007bffffffffffffffffffffffffffffffffffffffffffffffffffffffff1916827bffffffffffffffffffffffffffffffffffffffffffffffffffffffff1916149050919050565b610cb5816116eb565b610cf4576040517f08c379a0000000000000000000000000000000000000000000000000000000008152600401610ceb90612554565b60405180910390fd5b50565b5f33905090565b8160045f8381526020019081526020015f205f6101000a81548173ffffffffffffffffffffffffffffffffffffffff021916908373ffffffffffffffffffffffffffffffffffffffff160217905550808273ffffffffffffffffffffffffffffffffffffffff16610d6e8361077e565b73ffffffffffffffffffffffffffffffffffffffff167f8c5be1e5ebec7d5bd14f71427d1e84f3dd0314c0f7b2291e5b200ac8c7c3b92560405160405180910390a45050565b5f80610dbf8361077e565b90508073ffffffffffffffffffffffffffffffffffffffff168473ffffffffffffffffffffffffffffffffffffffff161480610e015750610e008185610a98565b5b80610e3f57508373ffffffffffffffffffffffffffffffffffffffff16610e2784610536565b73ffffffffffffffffffffffffffffffffffffffff16145b91505092915050565b8273ffffffffffffffffffffffffffffffffffffffff16610e688261077e565b73ffffffffffffffffffffffffffffffffffffffff1614610ebe576040517f08c379a0000000000000000000000000000000000000000000000000000000008152600401610eb590612806565b60405180910390fd5b5f73ffffffffffffffffffffffffffffffffffffffff168273ffffffffffffffffffffffffffffffffffffffff1603610f2c576040517f08c379a0000000000000000000000000000000000000000000000000000000008152600401610f2390612894565b60405180910390fd5b610f39838383600161172b565b8273ffffffffffffffffffffffffffffffffffffffff16610f598261077e565b73ffffffffffffffffffffffffffffffffffffffff1614610faf576040517f08c379a0000000000000000000000000000000000000000000000000000000008152600401610fa690612806565b60405180910390fd5b60045f8281526020019081526020015f205f6101000a81549073ffffffffffffffffffffffffffffffffffffffff0219169055600160035f8573ffffffffffffffffffffffffffffffffffffffff1673ffffffffffffffffffffffffffffffffffffffff1681526020019081526020015f205f8282540392505081905550600160035f8473ffffffffffffffffffffffffffffffffffffffff1673ffffffffffffffffffffffffffffffffffffffff1681526020019081526020015f205f82825401925050819055508160025f8381526020019081526020015f205f6101000a81548173ffffffffffffffffffffffffffffffffffffffff021916908373ffffffffffffffffffffffffffffffffffffffff160217905550808273ffffffffffffffffffffffffffffffffffffffff168473ffffffffffffffffffffffffffffffffffffffff167fddf252ad1be2c89b69c2b068fc378daa952ba7f163c4a11628f55a4df523b3ef60405160405180910390a461112f8383836001611803565b505050565b5f61113e8261077e565b905061114d815f84600161172b565b6111568261077e565b905060045f8381526020019081526020015f205f6101000a81549073ffffffffffffffffffffffffffffffffffffffff0219169055600160035f8373ffffffffffffffffffffffffffffffffffffffff1673ffffffffffffffffffffffffffffffffffffffff1681526020019081526020015f205f828254039250508190555060025f8381526020019081526020015f205f6101000a81549073ffffffffffffffffffffffffffffffffffffffff0219169055815f73ffffffffffffffffffffffffffffffffffffffff168273ffffffffffffffffffffffffffffffffffffffff167fddf252ad1be2c89b69c2b068fc378daa952ba7f163c4a11628f55a4df523b3ef60405160405180910390a4611271815f846001611803565b5050565b5f60025f8381526020019081526020015f205f9054906101000a900473ffffffffffffffffffffffffffffffffffffffff169050919050565b5f815f01549050919050565b6112c48383611819565b6112d05f848484611a2c565b61130f576040517f08c379a000000000000000000000000000000000000000000000000000000000815260040161130690612922565b60405180910390fd5b505050565b6001815f015f828254019250508190555050565b8173ffffffffffffffffffffffffffffffffffffffff168373ffffffffffffffffffffffffffffffffffffffff1603611396576040517f08c379a000000000000000000000000000000000000000000000000000000000815260040161138d9061298a565b60405180910390fd5b8060055f8573ffffffffffffffffffffffffffffffffffffffff1673ffffffffffffffffffffffffffffffffffffffff1681526020019081526020015f205f8473ffffffffffffffffffffffffffffffffffffffff1673ffffffffffffffffffffffffffffffffffffffff1681526020019081526020015f205f6101000a81548160ff0219169083151502179055508173ffffffffffffffffffffffffffffffffffffffff168373ffffffffffffffffffffffffffffffffffffffff167f17307eab39ab6107e8899845ad3d59bd9653f200f220920489ca2b5937696c31836040516114829190611dd8565b60405180910390a3505050565b61149a848484610e48565b6114a684848484611a2c565b6114e5576040517f08c379a00000000000000000000000000000000000000000000000000000000081526004016114dc90612922565b60405180910390fd5b50505050565b6060604051806080016040528060558152602001612cb460559139905090565b60605f600161151984611bae565b0190505f8167ffffffffffffffff81111561153757611536612140565b5b6040519080825280601f01601f1916602001820160405280156115695781602001600182028036833780820191505090505b5090505f82602001820190505b6001156115ca578080600190039150507f3031323334353637383961626364656600000000000000000000000000000000600a86061a8153600a85816115bf576115be6129a8565b5b0494505f8503611576575b819350505050919050565b5f8073ffffffffffffffffffffffffffffffffffffffff168273ffffffffffffffffffffffffffffffffffffffff1603611644576040517f08c379a000000000000000000000000000000000000000000000000000000000815260040161163b90612a1f565b60405180910390fd5b8160085f6101000a81548173ffffffffffffffffffffffffffffffffffffffff021916908373ffffffffffffffffffffffffffffffffffffffff16021790555060019050919050565b5f8082146116d257606482146116c85760c882146116be576103e882146116b75762ed4e006116b9565b5f5b6116c3565b6283d6005b6116cd565b62ab63005b6116d7565b62ed4e005b62ffffff1660098190555060019050919050565b5f8073ffffffffffffffffffffffffffffffffffffffff1661170c83611275565b73ffffffffffffffffffffffffffffffffffffffff1614159050919050565b61173b8484846001945084611cff565b5f73ffffffffffffffffffffffffffffffffffffffff168473ffffffffffffffffffffffffffffffffffffffff16146117fd57600954600a5f8481526020019081526020015f205461178d9190612a6a565b42101561179b60095461150b565b6040516020016117ab9190612ae7565b604051602081830303815290604052906117fb576040517f08c379a00000000000000000000000000000000000000000000000000000000081526004016117f29190611f0e565b60405180910390fd5b505b50505050565b6118138484846001945084611d05565b50505050565b5f73ffffffffffffffffffffffffffffffffffffffff168273ffffffffffffffffffffffffffffffffffffffff1603611887576040517f08c379a000000000000000000000000000000000000000000000000000000000815260040161187e90612b52565b60405180910390fd5b611890816116eb565b156118d0576040517f08c379a00000000000000000000000000000000000000000000000000000000081526004016118c790612bba565b60405180910390fd5b6118dd5f8383600161172b565b6118e6816116eb565b15611926576040517f08c379a000000000000000000000000000000000000000000000000000000000815260040161191d90612bba565b60405180910390fd5b600160035f8473ffffffffffffffffffffffffffffffffffffffff1673ffffffffffffffffffffffffffffffffffffffff1681526020019081526020015f205f82825401925050819055508160025f8381526020019081526020015f205f6101000a81548173ffffffffffffffffffffffffffffffffffffffff021916908373ffffffffffffffffffffffffffffffffffffffff160217905550808273ffffffffffffffffffffffffffffffffffffffff165f73ffffffffffffffffffffffffffffffffffffffff167fddf252ad1be2c89b69c2b068fc378daa952ba7f163c4a11628f55a4df523b3ef60405160405180910390a4611a285f83836001611803565b5050565b5f611a4c8473ffffffffffffffffffffffffffffffffffffffff16611d0b565b15611ba1578373ffffffffffffffffffffffffffffffffffffffff1663150b7a02611a75610cf7565b8786866040518563ffffffff1660e01b8152600401611a979493929190612c2a565b6020604051808303815f875af1925050508015611ad257506040513d601f19601f82011682018060405250810190611acf9190612c88565b60015b611b51573d805f8114611b00576040519150601f19603f3d011682016040523d82523d5f602084013e611b05565b606091505b505f815103611b49576040517f08c379a0000000000000000000000000000000000000000000000000000000008152600401611b4090612922565b60405180910390fd5b805181602001fd5b63150b7a0260e01b7bffffffffffffffffffffffffffffffffffffffffffffffffffffffff1916817bffffffffffffffffffffffffffffffffffffffffffffffffffffffff191614915050611ba6565b600190505b949350505050565b5f805f90507a184f03e93ff9f4daa797ed6e38ed64bf6a1f0100000000000000008310611c0a577a184f03e93ff9f4daa797ed6e38ed64bf6a1f0100000000000000008381611c0057611bff6129a8565b5b0492506040810190505b6d04ee2d6d415b85acef81000000008310611c47576d04ee2d6d415b85acef81000000008381611c3d57611c3c6129a8565b5b0492506020810190505b662386f26fc100008310611c7657662386f26fc100008381611c6c57611c6b6129a8565b5b0492506010810190505b6305f5e1008310611c9f576305f5e1008381611c9557611c946129a8565b5b0492506008810190505b6127108310611cc4576127108381611cba57611cb96129a8565b5b0492506004810190505b60648310611ce75760648381611cdd57611cdc6129a8565b5b0492506002810190505b600a8310611cf6576001810190505b80915050919050565b50505050565b50505050565b5f808273ffffffffffffffffffffffffffffffffffffffff163b119050919050565b5f604051905090565b5f80fd5b5f80fd5b5f7fffffffff0000000000000000000000000000000000000000000000000000000082169050919050565b611d7281611d3e565b8114611d7c575f80fd5b50565b5f81359050611d8d81611d69565b92915050565b5f60208284031215611da857611da7611d36565b5b5f611db584828501611d7f565b91505092915050565b5f8115159050919050565b611dd281611dbe565b82525050565b5f602082019050611deb5f830184611dc9565b92915050565b5f73ffffffffffffffffffffffffffffffffffffffff82169050919050565b5f819050919050565b5f611e33611e2e611e2984611df1565b611e10565b611df1565b9050919050565b5f611e4482611e19565b9050919050565b5f611e5582611e3a565b9050919050565b611e6581611e4b565b82525050565b5f602082019050611e7e5f830184611e5c565b92915050565b5f81519050919050565b5f82825260208201905092915050565b5f5b83811015611ebb578082015181840152602081019050611ea0565b5f8484015250505050565b5f601f19601f8301169050919050565b5f611ee082611e84565b611eea8185611e8e565b9350611efa818560208601611e9e565b611f0381611ec6565b840191505092915050565b5f6020820190508181035f830152611f268184611ed6565b905092915050565b5f819050919050565b611f4081611f2e565b8114611f4a575f80fd5b50565b5f81359050611f5b81611f37565b92915050565b5f60208284031215611f7657611f75611d36565b5b5f611f8384828501611f4d565b91505092915050565b5f611f9682611df1565b9050919050565b611fa681611f8c565b82525050565b5f602082019050611fbf5f830184611f9d565b92915050565b611fce81611f8c565b8114611fd8575f80fd5b50565b5f81359050611fe981611fc5565b92915050565b5f806040838503121561200557612004611d36565b5b5f61201285828601611fdb565b925050602061202385828601611f4d565b9150509250929050565b61203681611f2e565b82525050565b5f60208201905061204f5f83018461202d565b92915050565b5f805f6060848603121561206c5761206b611d36565b5b5f61207986828701611fdb565b935050602061208a86828701611fdb565b925050604061209b86828701611f4d565b9150509250925092565b5f602082840312156120ba576120b9611d36565b5b5f6120c784828501611fdb565b91505092915050565b6120d981611dbe565b81146120e3575f80fd5b50565b5f813590506120f4816120d0565b92915050565b5f80604083850312156121105761210f611d36565b5b5f61211d85828601611fdb565b925050602061212e858286016120e6565b9150509250929050565b5f80fd5b5f80fd5b7f4e487b71000000000000000000000000000000000000000000000000000000005f52604160045260245ffd5b61217682611ec6565b810181811067ffffffffffffffff8211171561219557612194612140565b5b80604052505050565b5f6121a7611d2d565b90506121b3828261216d565b919050565b5f67ffffffffffffffff8211156121d2576121d1612140565b5b6121db82611ec6565b9050602081019050919050565b828183375f83830152505050565b5f612208612203846121b8565b61219e565b9050828152602081018484840111156122245761222361213c565b5b61222f8482856121e8565b509392505050565b5f82601f83011261224b5761224a612138565b5b813561225b8482602086016121f6565b91505092915050565b5f805f806080858703121561227c5761227b611d36565b5b5f61228987828801611fdb565b945050602061229a87828801611fdb565b93505060406122ab87828801611f4d565b925050606085013567ffffffffffffffff8111156122cc576122cb611d3a565b5b6122d887828801612237565b91505092959194509250565b5f80604083850312156122fa576122f9611d36565b5b5f61230785828601611fdb565b925050602061231885828601611fdb565b9150509250929050565b5f806040838503121561233857612337611d36565b5b5f61234585828601611f4d565b925050602061235685828601611fdb565b9150509250929050565b7f4552433732313a20617070726f76616c20746f2063757272656e74206f776e655f8201527f7200000000000000000000000000000000000000000000000000000000000000602082015250565b5f6123ba602183611e8e565b91506123c582612360565b604082019050919050565b5f6020820190508181035f8301526123e7816123ae565b9050919050565b7f4552433732313a20617070726f76652063616c6c6572206973206e6f7420746f5f8201527f6b656e206f776e6572206f7220617070726f76656420666f7220616c6c000000602082015250565b5f612448603d83611e8e565b9150612453826123ee565b604082019050919050565b5f6020820190508181035f8301526124758161243c565b9050919050565b7f4552433732313a2063616c6c6572206973206e6f7420746f6b656e206f776e655f8201527f72206f7220617070726f76656400000000000000000000000000000000000000602082015250565b5f6124d6602d83611e8e565b91506124e18261247c565b604082019050919050565b5f6020820190508181035f830152612503816124ca565b9050919050565b7f4552433732313a20696e76616c696420746f6b656e20494400000000000000005f82015250565b5f61253e601883611e8e565b91506125498261250a565b602082019050919050565b5f6020820190508181035f83015261256b81612532565b9050919050565b7f4552433732313a2061646472657373207a65726f206973206e6f7420612076615f8201527f6c6964206f776e65720000000000000000000000000000000000000000000000602082015250565b5f6125cc602983611e8e565b91506125d782612572565b604082019050919050565b5f6020820190508181035f8301526125f9816125c0565b9050919050565b7f4e487b71000000000000000000000000000000000000000000000000000000005f52602260045260245ffd5b5f600282049050600182168061264457607f821691505b60208210810361265757612656612600565b5b50919050565b5f81905092915050565b5f61267182611e84565b61267b818561265d565b935061268b818560208601611e9e565b80840191505092915050565b5f6126a28285612667565b91506126ae8284612667565b91508190509392505050565b5f6060820190506126cd5f830186611f9d565b6126da6020830185611f9d565b6126e7604083018461202d565b949350505050565b5f815190506126fd816120d0565b92915050565b5f6020828403121561271857612717611d36565b5b5f612725848285016126ef565b91505092915050565b7f717665546f6b656e207472616e73666572206572726f720000000000000000005f82015250565b5f612762601783611e8e565b915061276d8261272e565b602082019050919050565b5f6020820190508181035f83015261278f81612756565b9050919050565b7f4552433732313a207472616e736665722066726f6d20696e636f7272656374205f8201527f6f776e6572000000000000000000000000000000000000000000000000000000602082015250565b5f6127f0602583611e8e565b91506127fb82612796565b604082019050919050565b5f6020820190508181035f83015261281d816127e4565b9050919050565b7f4552433732313a207472616e7366657220746f20746865207a65726f206164645f8201527f7265737300000000000000000000000000000000000000000000000000000000602082015250565b5f61287e602483611e8e565b915061288982612824565b604082019050919050565b5f6020820190508181035f8301526128ab81612872565b9050919050565b7f4552433732313a207472616e7366657220746f206e6f6e2045524337323152655f8201527f63656976657220696d706c656d656e7465720000000000000000000000000000602082015250565b5f61290c603283611e8e565b9150612917826128b2565b604082019050919050565b5f6020820190508181035f83015261293981612900565b9050919050565b7f4552433732313a20617070726f766520746f2063616c6c6572000000000000005f82015250565b5f612974601983611e8e565b915061297f82612940565b602082019050919050565b5f6020820190508181035f8301526129a181612968565b9050919050565b7f4e487b71000000000000000000000000000000000000000000000000000000005f52601260045260245ffd5b7f5f73657451564564656669206572726f720000000000000000000000000000005f82015250565b5f612a09601183611e8e565b9150612a14826129d5565b602082019050919050565b5f6020820190508181035f830152612a36816129fd565b9050919050565b7f4e487b71000000000000000000000000000000000000000000000000000000005f52601160045260245ffd5b5f612a7482611f2e565b9150612a7f83611f2e565b9250828201905080821115612a9757612a96612a3d565b5b92915050565b7f746f6b656e206973207374696c6c20696e206c6f636b20706572696f640000005f82015250565b5f612ad1601d8361265d565b9150612adc82612a9d565b601d82019050919050565b5f612af182612ac5565b9150612afd8284612667565b915081905092915050565b7f4552433732313a206d696e7420746f20746865207a65726f20616464726573735f82015250565b5f612b3c602083611e8e565b9150612b4782612b08565b602082019050919050565b5f6020820190508181035f830152612b6981612b30565b9050919050565b7f4552433732313a20746f6b656e20616c7265616479206d696e746564000000005f82015250565b5f612ba4601c83611e8e565b9150612baf82612b70565b602082019050919050565b5f6020820190508181035f830152612bd181612b98565b9050919050565b5f81519050919050565b5f82825260208201905092915050565b5f612bfc82612bd8565b612c068185612be2565b9350612c16818560208601611e9e565b612c1f81611ec6565b840191505092915050565b5f608082019050612c3d5f830187611f9d565b612c4a6020830186611f9d565b612c57604083018561202d565b8181036060830152612c698184612bf2565b905095945050505050565b5f81519050612c8281611d69565b92915050565b5f60208284031215612c9d57612c9c611d36565b5b5f612caa84828501612c74565b9150509291505056fe68747470733a2f2f697066732e696f2f697066732f516d57746d544673325571623733366a575131574871386656344e43583357757a317a724b507a396a6a38745a743f66696c656e616d653d5156452e6a736f6ea2646970667358221220a394f77880bc846f878898589dd55e9e6f26a14ef75c6d67ce97c9767b47368364736f6c63430008140033",
			"opcodes": "PUSH1 0x80 PUSH1 0x40 MSTORE CALLVALUE DUP1 ISZERO PUSH3 0x10 JUMPI PUSH0 DUP1 REVERT JUMPDEST POP PUSH1 0x40 MLOAD PUSH3 0x3254 CODESIZE SUB DUP1 PUSH3 0x3254 DUP4 CODECOPY DUP2 DUP2 ADD PUSH1 0x40 MSTORE DUP2 ADD SWAP1 PUSH3 0x36 SWAP2 SWAP1 PUSH3 0x190 JUMP JUMPDEST PUSH1 0x40 MLOAD DUP1 PUSH1 0x40 ADD PUSH1 0x40 MSTORE DUP1 PUSH1 0xB DUP2 MSTORE PUSH1 0x20 ADD PUSH32 0x5156455F7374616B696E67000000000000000000000000000000000000000000 DUP2 MSTORE POP PUSH1 0x40 MLOAD DUP1 PUSH1 0x40 ADD PUSH1 0x40 MSTORE DUP1 PUSH1 0xD DUP2 MSTORE PUSH1 0x20 ADD PUSH32 0x5156455F47554152414E54454500000000000000000000000000000000000000 DUP2 MSTORE POP DUP2 PUSH0 SWAP1 DUP2 PUSH3 0xB2 SWAP2 SWAP1 PUSH3 0x424 JUMP JUMPDEST POP DUP1 PUSH1 0x1 SWAP1 DUP2 PUSH3 0xC4 SWAP2 SWAP1 PUSH3 0x424 JUMP JUMPDEST POP POP POP DUP1 PUSH1 0x7 PUSH0 PUSH2 0x100 EXP DUP2 SLOAD DUP2 PUSH20 0xFFFFFFFFFFFFFFFFFFFFFFFFFFFFFFFFFFFFFFFF MUL NOT AND SWAP1 DUP4 PUSH20 0xFFFFFFFFFFFFFFFFFFFFFFFFFFFFFFFFFFFFFFFF AND MUL OR SWAP1 SSTORE POP PUSH3 0xED4E00 PUSH1 0x9 DUP2 SWAP1 SSTORE POP POP PUSH3 0x508 JUMP JUMPDEST PUSH0 DUP1 REVERT JUMPDEST PUSH0 PUSH20 0xFFFFFFFFFFFFFFFFFFFFFFFFFFFFFFFFFFFFFFFF DUP3 AND SWAP1 POP SWAP2 SWAP1 POP JUMP JUMPDEST PUSH0 PUSH3 0x147 DUP3 PUSH3 0x11C JUMP JUMPDEST SWAP1 POP SWAP2 SWAP1 POP JUMP JUMPDEST PUSH0 PUSH3 0x15A DUP3 PUSH3 0x13B JUMP JUMPDEST SWAP1 POP SWAP2 SWAP1 POP JUMP JUMPDEST PUSH3 0x16C DUP2 PUSH3 0x14E JUMP JUMPDEST DUP2 EQ PUSH3 0x177 JUMPI PUSH0 DUP1 REVERT JUMPDEST POP JUMP JUMPDEST PUSH0 DUP2 MLOAD SWAP1 POP PUSH3 0x18A DUP2 PUSH3 0x161 JUMP JUMPDEST SWAP3 SWAP2 POP POP JUMP JUMPDEST PUSH0 PUSH1 0x20 DUP3 DUP5 SUB SLT ISZERO PUSH3 0x1A8 JUMPI PUSH3 0x1A7 PUSH3 0x118 JUMP JUMPDEST JUMPDEST PUSH0 PUSH3 0x1B7 DUP5 DUP3 DUP6 ADD PUSH3 0x17A JUMP JUMPDEST SWAP2 POP POP SWAP3 SWAP2 POP POP JUMP JUMPDEST PUSH0 DUP2 MLOAD SWAP1 POP SWAP2 SWAP1 POP JUMP JUMPDEST PUSH32 0x4E487B7100000000000000000000000000000000000000000000000000000000 PUSH0 MSTORE PUSH1 0x41 PUSH1 0x4 MSTORE PUSH1 0x24 PUSH0 REVERT JUMPDEST PUSH32 0x4E487B7100000000000000000000000000000000000000000000000000000000 PUSH0 MSTORE PUSH1 0x22 PUSH1 0x4 MSTORE PUSH1 0x24 PUSH0 REVERT JUMPDEST PUSH0 PUSH1 0x2 DUP3 DIV SWAP1 POP PUSH1 0x1 DUP3 AND DUP1 PUSH3 0x23C JUMPI PUSH1 0x7F DUP3 AND SWAP2 POP JUMPDEST PUSH1 0x20 DUP3 LT DUP2 SUB PUSH3 0x252 JUMPI PUSH3 0x251 PUSH3 0x1F7 JUMP JUMPDEST JUMPDEST POP SWAP2 SWAP1 POP JUMP JUMPDEST PUSH0 DUP2 SWAP1 POP DUP2 PUSH0 MSTORE PUSH1 0x20 PUSH0 KECCAK256 SWAP1 POP SWAP2 SWAP1 POP JUMP JUMPDEST PUSH0 PUSH1 0x20 PUSH1 0x1F DUP4 ADD DIV SWAP1 POP SWAP2 SWAP1 POP JUMP JUMPDEST PUSH0 DUP3 DUP3 SHL SWAP1 POP SWAP3 SWAP2 POP POP JUMP JUMPDEST PUSH0 PUSH1 0x8 DUP4 MUL PUSH3 0x2B6 PUSH32 0xFFFFFFFFFFFFFFFFFFFFFFFFFFFFFFFFFFFFFFFFFFFFFFFFFFFFFFFFFFFFFFFF DUP3 PUSH3 0x279 JUMP JUMPDEST PUSH3 0x2C2 DUP7 DUP4 PUSH3 0x279 JUMP JUMPDEST SWAP6 POP DUP1 NOT DUP5 AND SWAP4 POP DUP1 DUP7 AND DUP5 OR SWAP3 POP POP POP SWAP4 SWAP3 POP POP POP JUMP JUMPDEST PUSH0 DUP2 SWAP1 POP SWAP2 SWAP1 POP JUMP JUMPDEST PUSH0 DUP2 SWAP1 POP SWAP2 SWAP1 POP JUMP JUMPDEST PUSH0 PUSH3 0x30C PUSH3 0x306 PUSH3 0x300 DUP5 PUSH3 0x2DA JUMP JUMPDEST PUSH3 0x2E3 JUMP JUMPDEST PUSH3 0x2DA JUMP JUMPDEST SWAP1 POP SWAP2 SWAP1 POP JUMP JUMPDEST PUSH0 DUP2 SWAP1 POP SWAP2 SWAP1 POP JUMP JUMPDEST PUSH3 0x327 DUP4 PUSH3 0x2EC JUMP JUMPDEST PUSH3 0x33F PUSH3 0x336 DUP3 PUSH3 0x313 JUMP JUMPDEST DUP5 DUP5 SLOAD PUSH3 0x285 JUMP JUMPDEST DUP3 SSTORE POP POP POP POP JUMP JUMPDEST PUSH0 SWAP1 JUMP JUMPDEST PUSH3 0x355 PUSH3 0x347 JUMP JUMPDEST PUSH3 0x362 DUP2 DUP5 DUP5 PUSH3 0x31C JUMP JUMPDEST POP POP POP JUMP JUMPDEST JUMPDEST DUP2 DUP2 LT ISZERO PUSH3 0x389 JUMPI PUSH3 0x37D PUSH0 DUP3 PUSH3 0x34B JUMP JUMPDEST PUSH1 0x1 DUP2 ADD SWAP1 POP PUSH3 0x368 JUMP JUMPDEST POP POP JUMP JUMPDEST PUSH1 0x1F DUP3 GT ISZERO PUSH3 0x3D8 JUMPI PUSH3 0x3A2 DUP2 PUSH3 0x258 JUMP JUMPDEST PUSH3 0x3AD DUP5 PUSH3 0x26A JUMP JUMPDEST DUP2 ADD PUSH1 0x20 DUP6 LT ISZERO PUSH3 0x3BD JUMPI DUP2 SWAP1 POP JUMPDEST PUSH3 0x3D5 PUSH3 0x3CC DUP6 PUSH3 0x26A JUMP JUMPDEST DUP4 ADD DUP3 PUSH3 0x367 JUMP JUMPDEST POP POP JUMPDEST POP POP POP JUMP JUMPDEST PUSH0 DUP3 DUP3 SHR SWAP1 POP SWAP3 SWAP2 POP POP JUMP JUMPDEST PUSH0 PUSH3 0x3FA PUSH0 NOT DUP5 PUSH1 0x8 MUL PUSH3 0x3DD JUMP JUMPDEST NOT DUP1 DUP4 AND SWAP2 POP POP SWAP3 SWAP2 POP POP JUMP JUMPDEST PUSH0 PUSH3 0x414 DUP4 DUP4 PUSH3 0x3E9 JUMP JUMPDEST SWAP2 POP DUP3 PUSH1 0x2 MUL DUP3 OR SWAP1 POP SWAP3 SWAP2 POP POP JUMP JUMPDEST PUSH3 0x42F DUP3 PUSH3 0x1C0 JUMP JUMPDEST PUSH8 0xFFFFFFFFFFFFFFFF DUP2 GT ISZERO PUSH3 0x44B JUMPI PUSH3 0x44A PUSH3 0x1CA JUMP JUMPDEST JUMPDEST PUSH3 0x457 DUP3 SLOAD PUSH3 0x224 JUMP JUMPDEST PUSH3 0x464 DUP3 DUP3 DUP6 PUSH3 0x38D JUMP JUMPDEST PUSH0 PUSH1 0x20 SWAP1 POP PUSH1 0x1F DUP4 GT PUSH1 0x1 DUP2 EQ PUSH3 0x49A JUMPI PUSH0 DUP5 ISZERO PUSH3 0x485 JUMPI DUP3 DUP8 ADD MLOAD SWAP1 POP JUMPDEST PUSH3 0x491 DUP6 DUP3 PUSH3 0x407 JUMP JUMPDEST DUP7 SSTORE POP PUSH3 0x500 JUMP JUMPDEST PUSH1 0x1F NOT DUP5 AND PUSH3 0x4AA DUP7 PUSH3 0x258 JUMP JUMPDEST PUSH0 JUMPDEST DUP3 DUP2 LT ISZERO PUSH3 0x4D3 JUMPI DUP5 DUP10 ADD MLOAD DUP3 SSTORE PUSH1 0x1 DUP3 ADD SWAP2 POP PUSH1 0x20 DUP6 ADD SWAP5 POP PUSH1 0x20 DUP2 ADD SWAP1 POP PUSH3 0x4AC JUMP JUMPDEST DUP7 DUP4 LT ISZERO PUSH3 0x4F3 JUMPI DUP5 DUP10 ADD MLOAD PUSH3 0x4EF PUSH1 0x1F DUP10 AND DUP3 PUSH3 0x3E9 JUMP JUMPDEST DUP4 SSTORE POP JUMPDEST PUSH1 0x1 PUSH1 0x2 DUP9 MUL ADD DUP9 SSTORE POP POP POP JUMPDEST POP POP POP POP POP POP JUMP JUMPDEST PUSH2 0x2D3E DUP1 PUSH3 0x516 PUSH0 CODECOPY PUSH0 RETURN INVALID PUSH1 0x80 PUSH1 0x40 MSTORE CALLVALUE DUP1 ISZERO PUSH2 0xF JUMPI PUSH0 DUP1 REVERT JUMPDEST POP PUSH1 0x4 CALLDATASIZE LT PUSH2 0x11F JUMPI PUSH0 CALLDATALOAD PUSH1 0xE0 SHR DUP1 PUSH4 0x6352211E GT PUSH2 0xAB JUMPI DUP1 PUSH4 0xA22CB465 GT PUSH2 0x6F JUMPI DUP1 PUSH4 0xA22CB465 EQ PUSH2 0x32B JUMPI DUP1 PUSH4 0xB88D4FDE EQ PUSH2 0x347 JUMPI DUP1 PUSH4 0xC87B56DD EQ PUSH2 0x363 JUMPI DUP1 PUSH4 0xE985E9C5 EQ PUSH2 0x393 JUMPI DUP1 PUSH4 0xFDB06A31 EQ PUSH2 0x3C3 JUMPI PUSH2 0x11F JUMP JUMPDEST DUP1 PUSH4 0x6352211E EQ PUSH2 0x25F JUMPI DUP1 PUSH4 0x6547113A EQ PUSH2 0x28F JUMPI DUP1 PUSH4 0x70A08231 EQ PUSH2 0x2AD JUMPI DUP1 PUSH4 0x906F09E0 EQ PUSH2 0x2DD JUMPI DUP1 PUSH4 0x95D89B41 EQ PUSH2 0x30D JUMPI PUSH2 0x11F JUMP JUMPDEST DUP1 PUSH4 0x95EA7B3 GT PUSH2 0xF2 JUMPI DUP1 PUSH4 0x95EA7B3 EQ PUSH2 0x1BF JUMPI DUP1 PUSH4 0x1349D5BD EQ PUSH2 0x1DB JUMPI DUP1 PUSH4 0x23B872DD EQ PUSH2 0x20B JUMPI DUP1 PUSH4 0x42842E0E EQ PUSH2 0x227 JUMPI DUP1 PUSH4 0x42966C68 EQ PUSH2 0x243 JUMPI PUSH2 0x11F JUMP JUMPDEST DUP1 PUSH4 0x1FFC9A7 EQ PUSH2 0x123 JUMPI DUP1 PUSH4 0x5335410 EQ PUSH2 0x153 JUMPI DUP1 PUSH4 0x6FDDE03 EQ PUSH2 0x171 JUMPI DUP1 PUSH4 0x81812FC EQ PUSH2 0x18F JUMPI JUMPDEST PUSH0 DUP1 REVERT JUMPDEST PUSH2 0x13D PUSH1 0x4 DUP1 CALLDATASIZE SUB DUP2 ADD SWAP1 PUSH2 0x138 SWAP2 SWAP1 PUSH2 0x1D93 JUMP JUMPDEST PUSH2 0x3F3 JUMP JUMPDEST PUSH1 0x40 MLOAD PUSH2 0x14A SWAP2 SWAP1 PUSH2 0x1DD8 JUMP JUMPDEST PUSH1 0x40 MLOAD DUP1 SWAP2 SUB SWAP1 RETURN JUMPDEST PUSH2 0x15B PUSH2 0x4D4 JUMP JUMPDEST PUSH1 0x40 MLOAD PUSH2 0x168 SWAP2 SWAP1 PUSH2 0x1E6B JUMP JUMPDEST PUSH1 0x40 MLOAD DUP1 SWAP2 SUB SWAP1 RETURN JUMPDEST PUSH2 0x179 PUSH2 0x4F9 JUMP JUMPDEST PUSH1 0x40 MLOAD PUSH2 0x186 SWAP2 SWAP1 PUSH2 0x1F0E JUMP JUMPDEST PUSH1 0x40 MLOAD DUP1 SWAP2 SUB SWAP1 RETURN JUMPDEST PUSH2 0x1A9 PUSH1 0x4 DUP1 CALLDATASIZE SUB DUP2 ADD SWAP1 PUSH2 0x1A4 SWAP2 SWAP1 PUSH2 0x1F61 JUMP JUMPDEST PUSH2 0x536 JUMP JUMPDEST PUSH1 0x40 MLOAD PUSH2 0x1B6 SWAP2 SWAP1 PUSH2 0x1FAC JUMP JUMPDEST PUSH1 0x40 MLOAD DUP1 SWAP2 SUB SWAP1 RETURN JUMPDEST PUSH2 0x1D9 PUSH1 0x4 DUP1 CALLDATASIZE SUB DUP2 ADD SWAP1 PUSH2 0x1D4 SWAP2 SWAP1 PUSH2 0x1FEF JUMP JUMPDEST PUSH2 0x578 JUMP JUMPDEST STOP JUMPDEST PUSH2 0x1F5 PUSH1 0x4 DUP1 CALLDATASIZE SUB DUP2 ADD SWAP1 PUSH2 0x1F0 SWAP2 SWAP1 PUSH2 0x1F61 JUMP JUMPDEST PUSH2 0x68E JUMP JUMPDEST PUSH1 0x40 MLOAD PUSH2 0x202 SWAP2 SWAP1 PUSH2 0x203C JUMP JUMPDEST PUSH1 0x40 MLOAD DUP1 SWAP2 SUB SWAP1 RETURN JUMPDEST PUSH2 0x225 PUSH1 0x4 DUP1 CALLDATASIZE SUB DUP2 ADD SWAP1 PUSH2 0x220 SWAP2 SWAP1 PUSH2 0x2055 JUMP JUMPDEST PUSH2 0x6A3 JUMP JUMPDEST STOP JUMPDEST PUSH2 0x241 PUSH1 0x4 DUP1 CALLDATASIZE SUB DUP2 ADD SWAP1 PUSH2 0x23C SWAP2 SWAP1 PUSH2 0x2055 JUMP JUMPDEST PUSH2 0x703 JUMP JUMPDEST STOP JUMPDEST PUSH2 0x25D PUSH1 0x4 DUP1 CALLDATASIZE SUB DUP2 ADD SWAP1 PUSH2 0x258 SWAP2 SWAP1 PUSH2 0x1F61 JUMP JUMPDEST PUSH2 0x722 JUMP JUMPDEST STOP JUMPDEST PUSH2 0x279 PUSH1 0x4 DUP1 CALLDATASIZE SUB DUP2 ADD SWAP1 PUSH2 0x274 SWAP2 SWAP1 PUSH2 0x1F61 JUMP JUMPDEST PUSH2 0x77E JUMP JUMPDEST PUSH1 0x40 MLOAD PUSH2 0x286 SWAP2 SWAP1 PUSH2 0x1FAC JUMP JUMPDEST PUSH1 0x40 MLOAD DUP1 SWAP2 SUB SWAP1 RETURN JUMPDEST PUSH2 0x297 PUSH2 0x802 JUMP JUMPDEST PUSH1 0x40 MLOAD PUSH2 0x2A4 SWAP2 SWAP1 PUSH2 0x1FAC JUMP JUMPDEST PUSH1 0x40 MLOAD DUP1 SWAP2 SUB SWAP1 RETURN JUMPDEST PUSH2 0x2C7 PUSH1 0x4 DUP1 CALLDATASIZE SUB DUP2 ADD SWAP1 PUSH2 0x2C2 SWAP2 SWAP1 PUSH2 0x20A5 JUMP JUMPDEST PUSH2 0x827 JUMP JUMPDEST PUSH1 0x40 MLOAD PUSH2 0x2D4 SWAP2 SWAP1 PUSH2 0x203C JUMP JUMPDEST PUSH1 0x40 MLOAD DUP1 SWAP2 SUB SWAP1 RETURN JUMPDEST PUSH2 0x2F7 PUSH1 0x4 DUP1 CALLDATASIZE SUB DUP2 ADD SWAP1 PUSH2 0x2F2 SWAP2 SWAP1 PUSH2 0x20A5 JUMP JUMPDEST PUSH2 0x8DB JUMP JUMPDEST PUSH1 0x40 MLOAD PUSH2 0x304 SWAP2 SWAP1 PUSH2 0x203C JUMP JUMPDEST PUSH1 0x40 MLOAD DUP1 SWAP2 SUB SWAP1 RETURN JUMPDEST PUSH2 0x315 PUSH2 0x92B JUMP JUMPDEST PUSH1 0x40 MLOAD PUSH2 0x322 SWAP2 SWAP1 PUSH2 0x1F0E JUMP JUMPDEST PUSH1 0x40 MLOAD DUP1 SWAP2 SUB SWAP1 RETURN JUMPDEST PUSH2 0x345 PUSH1 0x4 DUP1 CALLDATASIZE SUB DUP2 ADD SWAP1 PUSH2 0x340 SWAP2 SWAP1 PUSH2 0x20FA JUMP JUMPDEST PUSH2 0x9BB JUMP JUMPDEST STOP JUMPDEST PUSH2 0x361 PUSH1 0x4 DUP1 CALLDATASIZE SUB DUP2 ADD SWAP1 PUSH2 0x35C SWAP2 SWAP1 PUSH2 0x2264 JUMP JUMPDEST PUSH2 0x9D1 JUMP JUMPDEST STOP JUMPDEST PUSH2 0x37D PUSH1 0x4 DUP1 CALLDATASIZE SUB DUP2 ADD SWAP1 PUSH2 0x378 SWAP2 SWAP1 PUSH2 0x1F61 JUMP JUMPDEST PUSH2 0xA33 JUMP JUMPDEST PUSH1 0x40 MLOAD PUSH2 0x38A SWAP2 SWAP1 PUSH2 0x1F0E JUMP JUMPDEST PUSH1 0x40 MLOAD DUP1 SWAP2 SUB SWAP1 RETURN JUMPDEST PUSH2 0x3AD PUSH1 0x4 DUP1 CALLDATASIZE SUB DUP2 ADD SWAP1 PUSH2 0x3A8 SWAP2 SWAP1 PUSH2 0x22E4 JUMP JUMPDEST PUSH2 0xA98 JUMP JUMPDEST PUSH1 0x40 MLOAD PUSH2 0x3BA SWAP2 SWAP1 PUSH2 0x1DD8 JUMP JUMPDEST PUSH1 0x40 MLOAD DUP1 SWAP2 SUB SWAP1 RETURN JUMPDEST PUSH2 0x3DD PUSH1 0x4 DUP1 CALLDATASIZE SUB DUP2 ADD SWAP1 PUSH2 0x3D8 SWAP2 SWAP1 PUSH2 0x2322 JUMP JUMPDEST PUSH2 0xB26 JUMP JUMPDEST PUSH1 0x40 MLOAD PUSH2 0x3EA SWAP2 SWAP1 PUSH2 0x1DD8 JUMP JUMPDEST PUSH1 0x40 MLOAD DUP1 SWAP2 SUB SWAP1 RETURN JUMPDEST PUSH0 PUSH32 0x80AC58CD00000000000000000000000000000000000000000000000000000000 PUSH28 0xFFFFFFFFFFFFFFFFFFFFFFFFFFFFFFFFFFFFFFFFFFFFFFFFFFFFFFFF NOT AND DUP3 PUSH28 0xFFFFFFFFFFFFFFFFFFFFFFFFFFFFFFFFFFFFFFFFFFFFFFFFFFFFFFFF NOT AND EQ DUP1 PUSH2 0x4BD JUMPI POP PUSH32 0x5B5E139F00000000000000000000000000000000000000000000000000000000 PUSH28 0xFFFFFFFFFFFFFFFFFFFFFFFFFFFFFFFFFFFFFFFFFFFFFFFFFFFFFFFF NOT AND DUP3 PUSH28 0xFFFFFFFFFFFFFFFFFFFFFFFFFFFFFFFFFFFFFFFFFFFFFFFFFFFFFFFF NOT AND EQ JUMPDEST DUP1 PUSH2 0x4CD JUMPI POP PUSH2 0x4CC DUP3 PUSH2 0xC43 JUMP JUMPDEST JUMPDEST SWAP1 POP SWAP2 SWAP1 POP JUMP JUMPDEST PUSH1 0x7 PUSH0 SWAP1 SLOAD SWAP1 PUSH2 0x100 EXP SWAP1 DIV PUSH20 0xFFFFFFFFFFFFFFFFFFFFFFFFFFFFFFFFFFFFFFFF AND DUP2 JUMP JUMPDEST PUSH1 0x60 PUSH1 0x40 MLOAD DUP1 PUSH1 0x40 ADD PUSH1 0x40 MSTORE DUP1 PUSH1 0x3 DUP2 MSTORE PUSH1 0x20 ADD PUSH32 0x6E66740000000000000000000000000000000000000000000000000000000000 DUP2 MSTORE POP SWAP1 POP SWAP1 JUMP JUMPDEST PUSH0 PUSH2 0x540 DUP3 PUSH2 0xCAC JUMP JUMPDEST PUSH1 0x4 PUSH0 DUP4 DUP2 MSTORE PUSH1 0x20 ADD SWAP1 DUP2 MSTORE PUSH1 0x20 ADD PUSH0 KECCAK256 PUSH0 SWAP1 SLOAD SWAP1 PUSH2 0x100 EXP SWAP1 DIV PUSH20 0xFFFFFFFFFFFFFFFFFFFFFFFFFFFFFFFFFFFFFFFF AND SWAP1 POP SWAP2 SWAP1 POP JUMP JUMPDEST PUSH0 PUSH2 0x582 DUP3 PUSH2 0x77E JUMP JUMPDEST SWAP1 POP DUP1 PUSH20 0xFFFFFFFFFFFFFFFFFFFFFFFFFFFFFFFFFFFFFFFF AND DUP4 PUSH20 0xFFFFFFFFFFFFFFFFFFFFFFFFFFFFFFFFFFFFFFFF AND SUB PUSH2 0x5F2 JUMPI PUSH1 0x40 MLOAD PUSH32 0x8C379A000000000000000000000000000000000000000000000000000000000 DUP2 MSTORE PUSH1 0x4 ADD PUSH2 0x5E9 SWAP1 PUSH2 0x23D0 JUMP JUMPDEST PUSH1 0x40 MLOAD DUP1 SWAP2 SUB SWAP1 REVERT JUMPDEST DUP1 PUSH20 0xFFFFFFFFFFFFFFFFFFFFFFFFFFFFFFFFFFFFFFFF AND PUSH2 0x611 PUSH2 0xCF7 JUMP JUMPDEST PUSH20 0xFFFFFFFFFFFFFFFFFFFFFFFFFFFFFFFFFFFFFFFF AND EQ DUP1 PUSH2 0x640 JUMPI POP PUSH2 0x63F DUP2 PUSH2 0x63A PUSH2 0xCF7 JUMP JUMPDEST PUSH2 0xA98 JUMP JUMPDEST JUMPDEST PUSH2 0x67F JUMPI PUSH1 0x40 MLOAD PUSH32 0x8C379A000000000000000000000000000000000000000000000000000000000 DUP2 MSTORE PUSH1 0x4 ADD PUSH2 0x676 SWAP1 PUSH2 0x245E JUMP JUMPDEST PUSH1 0x40 MLOAD DUP1 SWAP2 SUB SWAP1 REVERT JUMPDEST PUSH2 0x689 DUP4 DUP4 PUSH2 0xCFE JUMP JUMPDEST POP POP POP JUMP JUMPDEST PUSH1 0xA PUSH1 0x20 MSTORE DUP1 PUSH0 MSTORE PUSH1 0x40 PUSH0 KECCAK256 PUSH0 SWAP2 POP SWAP1 POP SLOAD DUP2 JUMP JUMPDEST PUSH2 0x6B4 PUSH2 0x6AE PUSH2 0xCF7 JUMP JUMPDEST DUP3 PUSH2 0xDB4 JUMP JUMPDEST PUSH2 0x6F3 JUMPI PUSH1 0x40 MLOAD PUSH32 0x8C379A000000000000000000000000000000000000000000000000000000000 DUP2 MSTORE PUSH1 0x4 ADD PUSH2 0x6EA SWAP1 PUSH2 0x24EC JUMP JUMPDEST PUSH1 0x40 MLOAD DUP1 SWAP2 SUB SWAP1 REVERT JUMPDEST PUSH2 0x6FE DUP4 DUP4 DUP4 PUSH2 0xE48 JUMP JUMPDEST POP POP POP JUMP JUMPDEST PUSH2 0x71D DUP4 DUP4 DUP4 PUSH1 0x40 MLOAD DUP1 PUSH1 0x20 ADD PUSH1 0x40 MSTORE DUP1 PUSH0 DUP2 MSTORE POP PUSH2 0x9D1 JUMP JUMPDEST POP POP POP JUMP JUMPDEST PUSH2 0x733 PUSH2 0x72D PUSH2 0xCF7 JUMP JUMPDEST DUP3 PUSH2 0xDB4 JUMP JUMPDEST PUSH2 0x772 JUMPI PUSH1 0x40 MLOAD PUSH32 0x8C379A000000000000000000000000000000000000000000000000000000000 DUP2 MSTORE PUSH1 0x4 ADD PUSH2 0x769 SWAP1 PUSH2 0x24EC JUMP JUMPDEST PUSH1 0x40 MLOAD DUP1 SWAP2 SUB SWAP1 REVERT JUMPDEST PUSH2 0x77B DUP2 PUSH2 0x1134 JUMP JUMPDEST POP JUMP JUMPDEST PUSH0 DUP1 PUSH2 0x789 DUP4 PUSH2 0x1275 JUMP JUMPDEST SWAP1 POP PUSH0 PUSH20 0xFFFFFFFFFFFFFFFFFFFFFFFFFFFFFFFFFFFFFFFF AND DUP2 PUSH20 0xFFFFFFFFFFFFFFFFFFFFFFFFFFFFFFFFFFFFFFFF AND SUB PUSH2 0x7F9 JUMPI PUSH1 0x40 MLOAD PUSH32 0x8C379A000000000000000000000000000000000000000000000000000000000 DUP2 MSTORE PUSH1 0x4 ADD PUSH2 0x7F0 SWAP1 PUSH2 0x2554 JUMP JUMPDEST PUSH1 0x40 MLOAD DUP1 SWAP2 SUB SWAP1 REVERT JUMPDEST DUP1 SWAP2 POP POP SWAP2 SWAP1 POP JUMP JUMPDEST PUSH1 0x8 PUSH0 SWAP1 SLOAD SWAP1 PUSH2 0x100 EXP SWAP1 DIV PUSH20 0xFFFFFFFFFFFFFFFFFFFFFFFFFFFFFFFFFFFFFFFF AND DUP2 JUMP JUMPDEST PUSH0 DUP1 PUSH20 0xFFFFFFFFFFFFFFFFFFFFFFFFFFFFFFFFFFFFFFFF AND DUP3 PUSH20 0xFFFFFFFFFFFFFFFFFFFFFFFFFFFFFFFFFFFFFFFF AND SUB PUSH2 0x896 JUMPI PUSH1 0x40 MLOAD PUSH32 0x8C379A000000000000000000000000000000000000000000000000000000000 DUP2 MSTORE PUSH1 0x4 ADD PUSH2 0x88D SWAP1 PUSH2 0x25E2 JUMP JUMPDEST PUSH1 0x40 MLOAD DUP1 SWAP2 SUB SWAP1 REVERT JUMPDEST PUSH1 0x3 PUSH0 DUP4 PUSH20 0xFFFFFFFFFFFFFFFFFFFFFFFFFFFFFFFFFFFFFFFF AND PUSH20 0xFFFFFFFFFFFFFFFFFFFFFFFFFFFFFFFFFFFFFFFF AND DUP2 MSTORE PUSH1 0x20 ADD SWAP1 DUP2 MSTORE PUSH1 0x20 ADD PUSH0 KECCAK256 SLOAD SWAP1 POP SWAP2 SWAP1 POP JUMP JUMPDEST PUSH0 DUP1 PUSH2 0x8E7 PUSH1 0x6 PUSH2 0x12AE JUMP JUMPDEST SWAP1 POP PUSH2 0x902 DUP4 DUP3 PUSH1 0x40 MLOAD DUP1 PUSH1 0x20 ADD PUSH1 0x40 MSTORE DUP1 PUSH0 DUP2 MSTORE POP PUSH2 0x12BA JUMP JUMPDEST TIMESTAMP PUSH1 0xA PUSH0 DUP4 DUP2 MSTORE PUSH1 0x20 ADD SWAP1 DUP2 MSTORE PUSH1 0x20 ADD PUSH0 KECCAK256 DUP2 SWAP1 SSTORE POP PUSH2 0x922 PUSH1 0x6 PUSH2 0x1314 JUMP JUMPDEST DUP1 SWAP2 POP POP SWAP2 SWAP1 POP JUMP JUMPDEST PUSH1 0x60 PUSH1 0x1 DUP1 SLOAD PUSH2 0x93A SWAP1 PUSH2 0x262D JUMP JUMPDEST DUP1 PUSH1 0x1F ADD PUSH1 0x20 DUP1 SWAP2 DIV MUL PUSH1 0x20 ADD PUSH1 0x40 MLOAD SWAP1 DUP2 ADD PUSH1 0x40 MSTORE DUP1 SWAP3 SWAP2 SWAP1 DUP2 DUP2 MSTORE PUSH1 0x20 ADD DUP3 DUP1 SLOAD PUSH2 0x966 SWAP1 PUSH2 0x262D JUMP JUMPDEST DUP1 ISZERO PUSH2 0x9B1 JUMPI DUP1 PUSH1 0x1F LT PUSH2 0x988 JUMPI PUSH2 0x100 DUP1 DUP4 SLOAD DIV MUL DUP4 MSTORE SWAP2 PUSH1 0x20 ADD SWAP2 PUSH2 0x9B1 JUMP JUMPDEST DUP3 ADD SWAP2 SWAP1 PUSH0 MSTORE PUSH1 0x20 PUSH0 KECCAK256 SWAP1 JUMPDEST DUP2 SLOAD DUP2 MSTORE SWAP1 PUSH1 0x1 ADD SWAP1 PUSH1 0x20 ADD DUP1 DUP4 GT PUSH2 0x994 JUMPI DUP3 SWAP1 SUB PUSH1 0x1F AND DUP3 ADD SWAP2 JUMPDEST POP POP POP POP POP SWAP1 POP SWAP1 JUMP JUMPDEST PUSH2 0x9CD PUSH2 0x9C6 PUSH2 0xCF7 JUMP JUMPDEST DUP4 DUP4 PUSH2 0x1328 JUMP JUMPDEST POP POP JUMP JUMPDEST PUSH2 0x9E2 PUSH2 0x9DC PUSH2 0xCF7 JUMP JUMPDEST DUP4 PUSH2 0xDB4 JUMP JUMPDEST PUSH2 0xA21 JUMPI PUSH1 0x40 MLOAD PUSH32 0x8C379A000000000000000000000000000000000000000000000000000000000 DUP2 MSTORE PUSH1 0x4 ADD PUSH2 0xA18 SWAP1 PUSH2 0x24EC JUMP JUMPDEST PUSH1 0x40 MLOAD DUP1 SWAP2 SUB SWAP1 REVERT JUMPDEST PUSH2 0xA2D DUP5 DUP5 DUP5 DUP5 PUSH2 0x148F JUMP JUMPDEST POP POP POP POP JUMP JUMPDEST PUSH1 0x60 PUSH2 0xA3E DUP3 PUSH2 0xCAC JUMP JUMPDEST PUSH0 PUSH2 0xA47 PUSH2 0x14EB JUMP JUMPDEST SWAP1 POP PUSH0 DUP2 MLOAD GT PUSH2 0xA65 JUMPI PUSH1 0x40 MLOAD DUP1 PUSH1 0x20 ADD PUSH1 0x40 MSTORE DUP1 PUSH0 DUP2 MSTORE POP PUSH2 0xA90 JUMP JUMPDEST DUP1 PUSH2 0xA6F DUP5 PUSH2 0x150B JUMP JUMPDEST PUSH1 0x40 MLOAD PUSH1 0x20 ADD PUSH2 0xA80 SWAP3 SWAP2 SWAP1 PUSH2 0x2697 JUMP JUMPDEST PUSH1 0x40 MLOAD PUSH1 0x20 DUP2 DUP4 SUB SUB DUP2 MSTORE SWAP1 PUSH1 0x40 MSTORE JUMPDEST SWAP2 POP POP SWAP2 SWAP1 POP JUMP JUMPDEST PUSH0 PUSH1 0x5 PUSH0 DUP5 PUSH20 0xFFFFFFFFFFFFFFFFFFFFFFFFFFFFFFFFFFFFFFFF AND PUSH20 0xFFFFFFFFFFFFFFFFFFFFFFFFFFFFFFFFFFFFFFFF AND DUP2 MSTORE PUSH1 0x20 ADD SWAP1 DUP2 MSTORE PUSH1 0x20 ADD PUSH0 KECCAK256 PUSH0 DUP4 PUSH20 0xFFFFFFFFFFFFFFFFFFFFFFFFFFFFFFFFFFFFFFFF AND PUSH20 0xFFFFFFFFFFFFFFFFFFFFFFFFFFFFFFFFFFFFFFFF AND DUP2 MSTORE PUSH1 0x20 ADD SWAP1 DUP2 MSTORE PUSH1 0x20 ADD PUSH0 KECCAK256 PUSH0 SWAP1 SLOAD SWAP1 PUSH2 0x100 EXP SWAP1 DIV PUSH1 0xFF AND SWAP1 POP SWAP3 SWAP2 POP POP JUMP JUMPDEST PUSH0 PUSH2 0xB30 DUP3 PUSH2 0x15D5 JUMP JUMPDEST POP PUSH1 0x7 PUSH0 SWAP1 SLOAD SWAP1 PUSH2 0x100 EXP SWAP1 DIV PUSH20 0xFFFFFFFFFFFFFFFFFFFFFFFFFFFFFFFFFFFFFFFF AND PUSH20 0xFFFFFFFFFFFFFFFFFFFFFFFFFFFFFFFFFFFFFFFF AND PUSH4 0x469895C8 CALLER PUSH1 0x8 PUSH0 SWAP1 SLOAD SWAP1 PUSH2 0x100 EXP SWAP1 DIV PUSH20 0xFFFFFFFFFFFFFFFFFFFFFFFFFFFFFFFFFFFFFFFF AND DUP7 PUSH1 0x40 MLOAD DUP5 PUSH4 0xFFFFFFFF AND PUSH1 0xE0 SHL DUP2 MSTORE PUSH1 0x4 ADD PUSH2 0xBB0 SWAP4 SWAP3 SWAP2 SWAP1 PUSH2 0x26BA JUMP JUMPDEST PUSH1 0x20 PUSH1 0x40 MLOAD DUP1 DUP4 SUB DUP2 PUSH0 DUP8 GAS CALL ISZERO DUP1 ISZERO PUSH2 0xBCC JUMPI RETURNDATASIZE PUSH0 DUP1 RETURNDATACOPY RETURNDATASIZE PUSH0 REVERT JUMPDEST POP POP POP POP PUSH1 0x40 MLOAD RETURNDATASIZE PUSH1 0x1F NOT PUSH1 0x1F DUP3 ADD AND DUP3 ADD DUP1 PUSH1 0x40 MSTORE POP DUP2 ADD SWAP1 PUSH2 0xBF0 SWAP2 SWAP1 PUSH2 0x2703 JUMP JUMPDEST PUSH2 0xC2F JUMPI PUSH1 0x40 MLOAD PUSH32 0x8C379A000000000000000000000000000000000000000000000000000000000 DUP2 MSTORE PUSH1 0x4 ADD PUSH2 0xC26 SWAP1 PUSH2 0x2778 JUMP JUMPDEST PUSH1 0x40 MLOAD DUP1 SWAP2 SUB SWAP1 REVERT JUMPDEST PUSH2 0xC38 DUP4 PUSH2 0x168D JUMP JUMPDEST POP PUSH1 0x1 SWAP1 POP SWAP3 SWAP2 POP POP JUMP JUMPDEST PUSH0 PUSH32 0x1FFC9A700000000000000000000000000000000000000000000000000000000 PUSH28 0xFFFFFFFFFFFFFFFFFFFFFFFFFFFFFFFFFFFFFFFFFFFFFFFFFFFFFFFF NOT AND DUP3 PUSH28 0xFFFFFFFFFFFFFFFFFFFFFFFFFFFFFFFFFFFFFFFFFFFFFFFFFFFFFFFF NOT AND EQ SWAP1 POP SWAP2 SWAP1 POP JUMP JUMPDEST PUSH2 0xCB5 DUP2 PUSH2 0x16EB JUMP JUMPDEST PUSH2 0xCF4 JUMPI PUSH1 0x40 MLOAD PUSH32 0x8C379A000000000000000000000000000000000000000000000000000000000 DUP2 MSTORE PUSH1 0x4 ADD PUSH2 0xCEB SWAP1 PUSH2 0x2554 JUMP JUMPDEST PUSH1 0x40 MLOAD DUP1 SWAP2 SUB SWAP1 REVERT JUMPDEST POP JUMP JUMPDEST PUSH0 CALLER SWAP1 POP SWAP1 JUMP JUMPDEST DUP2 PUSH1 0x4 PUSH0 DUP4 DUP2 MSTORE PUSH1 0x20 ADD SWAP1 DUP2 MSTORE PUSH1 0x20 ADD PUSH0 KECCAK256 PUSH0 PUSH2 0x100 EXP DUP2 SLOAD DUP2 PUSH20 0xFFFFFFFFFFFFFFFFFFFFFFFFFFFFFFFFFFFFFFFF MUL NOT AND SWAP1 DUP4 PUSH20 0xFFFFFFFFFFFFFFFFFFFFFFFFFFFFFFFFFFFFFFFF AND MUL OR SWAP1 SSTORE POP DUP1 DUP3 PUSH20 0xFFFFFFFFFFFFFFFFFFFFFFFFFFFFFFFFFFFFFFFF AND PUSH2 0xD6E DUP4 PUSH2 0x77E JUMP JUMPDEST PUSH20 0xFFFFFFFFFFFFFFFFFFFFFFFFFFFFFFFFFFFFFFFF AND PUSH32 0x8C5BE1E5EBEC7D5BD14F71427D1E84F3DD0314C0F7B2291E5B200AC8C7C3B925 PUSH1 0x40 MLOAD PUSH1 0x40 MLOAD DUP1 SWAP2 SUB SWAP1 LOG4 POP POP JUMP JUMPDEST PUSH0 DUP1 PUSH2 0xDBF DUP4 PUSH2 0x77E JUMP JUMPDEST SWAP1 POP DUP1 PUSH20 0xFFFFFFFFFFFFFFFFFFFFFFFFFFFFFFFFFFFFFFFF AND DUP5 PUSH20 0xFFFFFFFFFFFFFFFFFFFFFFFFFFFFFFFFFFFFFFFF AND EQ DUP1 PUSH2 0xE01 JUMPI POP PUSH2 0xE00 DUP2 DUP6 PUSH2 0xA98 JUMP JUMPDEST JUMPDEST DUP1 PUSH2 0xE3F JUMPI POP DUP4 PUSH20 0xFFFFFFFFFFFFFFFFFFFFFFFFFFFFFFFFFFFFFFFF AND PUSH2 0xE27 DUP5 PUSH2 0x536 JUMP JUMPDEST PUSH20 0xFFFFFFFFFFFFFFFFFFFFFFFFFFFFFFFFFFFFFFFF AND EQ JUMPDEST SWAP2 POP POP SWAP3 SWAP2 POP POP JUMP JUMPDEST DUP3 PUSH20 0xFFFFFFFFFFFFFFFFFFFFFFFFFFFFFFFFFFFFFFFF AND PUSH2 0xE68 DUP3 PUSH2 0x77E JUMP JUMPDEST PUSH20 0xFFFFFFFFFFFFFFFFFFFFFFFFFFFFFFFFFFFFFFFF AND EQ PUSH2 0xEBE JUMPI PUSH1 0x40 MLOAD PUSH32 0x8C379A000000000000000000000000000000000000000000000000000000000 DUP2 MSTORE PUSH1 0x4 ADD PUSH2 0xEB5 SWAP1 PUSH2 0x2806 JUMP JUMPDEST PUSH1 0x40 MLOAD DUP1 SWAP2 SUB SWAP1 REVERT JUMPDEST PUSH0 PUSH20 0xFFFFFFFFFFFFFFFFFFFFFFFFFFFFFFFFFFFFFFFF AND DUP3 PUSH20 0xFFFFFFFFFFFFFFFFFFFFFFFFFFFFFFFFFFFFFFFF AND SUB PUSH2 0xF2C JUMPI PUSH1 0x40 MLOAD PUSH32 0x8C379A000000000000000000000000000000000000000000000000000000000 DUP2 MSTORE PUSH1 0x4 ADD PUSH2 0xF23 SWAP1 PUSH2 0x2894 JUMP JUMPDEST PUSH1 0x40 MLOAD DUP1 SWAP2 SUB SWAP1 REVERT JUMPDEST PUSH2 0xF39 DUP4 DUP4 DUP4 PUSH1 0x1 PUSH2 0x172B JUMP JUMPDEST DUP3 PUSH20 0xFFFFFFFFFFFFFFFFFFFFFFFFFFFFFFFFFFFFFFFF AND PUSH2 0xF59 DUP3 PUSH2 0x77E JUMP JUMPDEST PUSH20 0xFFFFFFFFFFFFFFFFFFFFFFFFFFFFFFFFFFFFFFFF AND EQ PUSH2 0xFAF JUMPI PUSH1 0x40 MLOAD PUSH32 0x8C379A000000000000000000000000000000000000000000000000000000000 DUP2 MSTORE PUSH1 0x4 ADD PUSH2 0xFA6 SWAP1 PUSH2 0x2806 JUMP JUMPDEST PUSH1 0x40 MLOAD DUP1 SWAP2 SUB SWAP1 REVERT JUMPDEST PUSH1 0x4 PUSH0 DUP3 DUP2 MSTORE PUSH1 0x20 ADD SWAP1 DUP2 MSTORE PUSH1 0x20 ADD PUSH0 KECCAK256 PUSH0 PUSH2 0x100 EXP DUP2 SLOAD SWAP1 PUSH20 0xFFFFFFFFFFFFFFFFFFFFFFFFFFFFFFFFFFFFFFFF MUL NOT AND SWAP1 SSTORE PUSH1 0x1 PUSH1 0x3 PUSH0 DUP6 PUSH20 0xFFFFFFFFFFFFFFFFFFFFFFFFFFFFFFFFFFFFFFFF AND PUSH20 0xFFFFFFFFFFFFFFFFFFFFFFFFFFFFFFFFFFFFFFFF AND DUP2 MSTORE PUSH1 0x20 ADD SWAP1 DUP2 MSTORE PUSH1 0x20 ADD PUSH0 KECCAK256 PUSH0 DUP3 DUP3 SLOAD SUB SWAP3 POP POP DUP2 SWAP1 SSTORE POP PUSH1 0x1 PUSH1 0x3 PUSH0 DUP5 PUSH20 0xFFFFFFFFFFFFFFFFFFFFFFFFFFFFFFFFFFFFFFFF AND PUSH20 0xFFFFFFFFFFFFFFFFFFFFFFFFFFFFFFFFFFFFFFFF AND DUP2 MSTORE PUSH1 0x20 ADD SWAP1 DUP2 MSTORE PUSH1 0x20 ADD PUSH0 KECCAK256 PUSH0 DUP3 DUP3 SLOAD ADD SWAP3 POP POP DUP2 SWAP1 SSTORE POP DUP2 PUSH1 0x2 PUSH0 DUP4 DUP2 MSTORE PUSH1 0x20 ADD SWAP1 DUP2 MSTORE PUSH1 0x20 ADD PUSH0 KECCAK256 PUSH0 PUSH2 0x100 EXP DUP2 SLOAD DUP2 PUSH20 0xFFFFFFFFFFFFFFFFFFFFFFFFFFFFFFFFFFFFFFFF MUL NOT AND SWAP1 DUP4 PUSH20 0xFFFFFFFFFFFFFFFFFFFFFFFFFFFFFFFFFFFFFFFF AND MUL OR SWAP1 SSTORE POP DUP1 DUP3 PUSH20 0xFFFFFFFFFFFFFFFFFFFFFFFFFFFFFFFFFFFFFFFF AND DUP5 PUSH20 0xFFFFFFFFFFFFFFFFFFFFFFFFFFFFFFFFFFFFFFFF AND PUSH32 0xDDF252AD1BE2C89B69C2B068FC378DAA952BA7F163C4A11628F55A4DF523B3EF PUSH1 0x40 MLOAD PUSH1 0x40 MLOAD DUP1 SWAP2 SUB SWAP1 LOG4 PUSH2 0x112F DUP4 DUP4 DUP4 PUSH1 0x1 PUSH2 0x1803 JUMP JUMPDEST POP POP POP JUMP JUMPDEST PUSH0 PUSH2 0x113E DUP3 PUSH2 0x77E JUMP JUMPDEST SWAP1 POP PUSH2 0x114D DUP2 PUSH0 DUP5 PUSH1 0x1 PUSH2 0x172B JUMP JUMPDEST PUSH2 0x1156 DUP3 PUSH2 0x77E JUMP JUMPDEST SWAP1 POP PUSH1 0x4 PUSH0 DUP4 DUP2 MSTORE PUSH1 0x20 ADD SWAP1 DUP2 MSTORE PUSH1 0x20 ADD PUSH0 KECCAK256 PUSH0 PUSH2 0x100 EXP DUP2 SLOAD SWAP1 PUSH20 0xFFFFFFFFFFFFFFFFFFFFFFFFFFFFFFFFFFFFFFFF MUL NOT AND SWAP1 SSTORE PUSH1 0x1 PUSH1 0x3 PUSH0 DUP4 PUSH20 0xFFFFFFFFFFFFFFFFFFFFFFFFFFFFFFFFFFFFFFFF AND PUSH20 0xFFFFFFFFFFFFFFFFFFFFFFFFFFFFFFFFFFFFFFFF AND DUP2 MSTORE PUSH1 0x20 ADD SWAP1 DUP2 MSTORE PUSH1 0x20 ADD PUSH0 KECCAK256 PUSH0 DUP3 DUP3 SLOAD SUB SWAP3 POP POP DUP2 SWAP1 SSTORE POP PUSH1 0x2 PUSH0 DUP4 DUP2 MSTORE PUSH1 0x20 ADD SWAP1 DUP2 MSTORE PUSH1 0x20 ADD PUSH0 KECCAK256 PUSH0 PUSH2 0x100 EXP DUP2 SLOAD SWAP1 PUSH20 0xFFFFFFFFFFFFFFFFFFFFFFFFFFFFFFFFFFFFFFFF MUL NOT AND SWAP1 SSTORE DUP2 PUSH0 PUSH20 0xFFFFFFFFFFFFFFFFFFFFFFFFFFFFFFFFFFFFFFFF AND DUP3 PUSH20 0xFFFFFFFFFFFFFFFFFFFFFFFFFFFFFFFFFFFFFFFF AND PUSH32 0xDDF252AD1BE2C89B69C2B068FC378DAA952BA7F163C4A11628F55A4DF523B3EF PUSH1 0x40 MLOAD PUSH1 0x40 MLOAD DUP1 SWAP2 SUB SWAP1 LOG4 PUSH2 0x1271 DUP2 PUSH0 DUP5 PUSH1 0x1 PUSH2 0x1803 JUMP JUMPDEST POP POP JUMP JUMPDEST PUSH0 PUSH1 0x2 PUSH0 DUP4 DUP2 MSTORE PUSH1 0x20 ADD SWAP1 DUP2 MSTORE PUSH1 0x20 ADD PUSH0 KECCAK256 PUSH0 SWAP1 SLOAD SWAP1 PUSH2 0x100 EXP SWAP1 DIV PUSH20 0xFFFFFFFFFFFFFFFFFFFFFFFFFFFFFFFFFFFFFFFF AND SWAP1 POP SWAP2 SWAP1 POP JUMP JUMPDEST PUSH0 DUP2 PUSH0 ADD SLOAD SWAP1 POP SWAP2 SWAP1 POP JUMP JUMPDEST PUSH2 0x12C4 DUP4 DUP4 PUSH2 0x1819 JUMP JUMPDEST PUSH2 0x12D0 PUSH0 DUP5 DUP5 DUP5 PUSH2 0x1A2C JUMP JUMPDEST PUSH2 0x130F JUMPI PUSH1 0x40 MLOAD PUSH32 0x8C379A000000000000000000000000000000000000000000000000000000000 DUP2 MSTORE PUSH1 0x4 ADD PUSH2 0x1306 SWAP1 PUSH2 0x2922 JUMP JUMPDEST PUSH1 0x40 MLOAD DUP1 SWAP2 SUB SWAP1 REVERT JUMPDEST POP POP POP JUMP JUMPDEST PUSH1 0x1 DUP2 PUSH0 ADD PUSH0 DUP3 DUP3 SLOAD ADD SWAP3 POP POP DUP2 SWAP1 SSTORE POP POP JUMP JUMPDEST DUP2 PUSH20 0xFFFFFFFFFFFFFFFFFFFFFFFFFFFFFFFFFFFFFFFF AND DUP4 PUSH20 0xFFFFFFFFFFFFFFFFFFFFFFFFFFFFFFFFFFFFFFFF AND SUB PUSH2 0x1396 JUMPI PUSH1 0x40 MLOAD PUSH32 0x8C379A000000000000000000000000000000000000000000000000000000000 DUP2 MSTORE PUSH1 0x4 ADD PUSH2 0x138D SWAP1 PUSH2 0x298A JUMP JUMPDEST PUSH1 0x40 MLOAD DUP1 SWAP2 SUB SWAP1 REVERT JUMPDEST DUP1 PUSH1 0x5 PUSH0 DUP6 PUSH20 0xFFFFFFFFFFFFFFFFFFFFFFFFFFFFFFFFFFFFFFFF AND PUSH20 0xFFFFFFFFFFFFFFFFFFFFFFFFFFFFFFFFFFFFFFFF AND DUP2 MSTORE PUSH1 0x20 ADD SWAP1 DUP2 MSTORE PUSH1 0x20 ADD PUSH0 KECCAK256 PUSH0 DUP5 PUSH20 0xFFFFFFFFFFFFFFFFFFFFFFFFFFFFFFFFFFFFFFFF AND PUSH20 0xFFFFFFFFFFFFFFFFFFFFFFFFFFFFFFFFFFFFFFFF AND DUP2 MSTORE PUSH1 0x20 ADD SWAP1 DUP2 MSTORE PUSH1 0x20 ADD PUSH0 KECCAK256 PUSH0 PUSH2 0x100 EXP DUP2 SLOAD DUP2 PUSH1 0xFF MUL NOT AND SWAP1 DUP4 ISZERO ISZERO MUL OR SWAP1 SSTORE POP DUP2 PUSH20 0xFFFFFFFFFFFFFFFFFFFFFFFFFFFFFFFFFFFFFFFF AND DUP4 PUSH20 0xFFFFFFFFFFFFFFFFFFFFFFFFFFFFFFFFFFFFFFFF AND PUSH32 0x17307EAB39AB6107E8899845AD3D59BD9653F200F220920489CA2B5937696C31 DUP4 PUSH1 0x40 MLOAD PUSH2 0x1482 SWAP2 SWAP1 PUSH2 0x1DD8 JUMP JUMPDEST PUSH1 0x40 MLOAD DUP1 SWAP2 SUB SWAP1 LOG3 POP POP POP JUMP JUMPDEST PUSH2 0x149A DUP5 DUP5 DUP5 PUSH2 0xE48 JUMP JUMPDEST PUSH2 0x14A6 DUP5 DUP5 DUP5 DUP5 PUSH2 0x1A2C JUMP JUMPDEST PUSH2 0x14E5 JUMPI PUSH1 0x40 MLOAD PUSH32 0x8C379A000000000000000000000000000000000000000000000000000000000 DUP2 MSTORE PUSH1 0x4 ADD PUSH2 0x14DC SWAP1 PUSH2 0x2922 JUMP JUMPDEST PUSH1 0x40 MLOAD DUP1 SWAP2 SUB SWAP1 REVERT JUMPDEST POP POP POP POP JUMP JUMPDEST PUSH1 0x60 PUSH1 0x40 MLOAD DUP1 PUSH1 0x80 ADD PUSH1 0x40 MSTORE DUP1 PUSH1 0x55 DUP2 MSTORE PUSH1 0x20 ADD PUSH2 0x2CB4 PUSH1 0x55 SWAP2 CODECOPY SWAP1 POP SWAP1 JUMP JUMPDEST PUSH1 0x60 PUSH0 PUSH1 0x1 PUSH2 0x1519 DUP5 PUSH2 0x1BAE JUMP JUMPDEST ADD SWAP1 POP PUSH0 DUP2 PUSH8 0xFFFFFFFFFFFFFFFF DUP2 GT ISZERO PUSH2 0x1537 JUMPI PUSH2 0x1536 PUSH2 0x2140 JUMP JUMPDEST JUMPDEST PUSH1 0x40 MLOAD SWAP1 DUP1 DUP3 MSTORE DUP1 PUSH1 0x1F ADD PUSH1 0x1F NOT AND PUSH1 0x20 ADD DUP3 ADD PUSH1 0x40 MSTORE DUP1 ISZERO PUSH2 0x1569 JUMPI DUP2 PUSH1 0x20 ADD PUSH1 0x1 DUP3 MUL DUP1 CALLDATASIZE DUP4 CALLDATACOPY DUP1 DUP3 ADD SWAP2 POP POP SWAP1 POP JUMPDEST POP SWAP1 POP PUSH0 DUP3 PUSH1 0x20 ADD DUP3 ADD SWAP1 POP JUMPDEST PUSH1 0x1 ISZERO PUSH2 0x15CA JUMPI DUP1 DUP1 PUSH1 0x1 SWAP1 SUB SWAP2 POP POP PUSH32 0x3031323334353637383961626364656600000000000000000000000000000000 PUSH1 0xA DUP7 MOD BYTE DUP2 MSTORE8 PUSH1 0xA DUP6 DUP2 PUSH2 0x15BF JUMPI PUSH2 0x15BE PUSH2 0x29A8 JUMP JUMPDEST JUMPDEST DIV SWAP5 POP PUSH0 DUP6 SUB PUSH2 0x1576 JUMPI JUMPDEST DUP2 SWAP4 POP POP POP POP SWAP2 SWAP1 POP JUMP JUMPDEST PUSH0 DUP1 PUSH20 0xFFFFFFFFFFFFFFFFFFFFFFFFFFFFFFFFFFFFFFFF AND DUP3 PUSH20 0xFFFFFFFFFFFFFFFFFFFFFFFFFFFFFFFFFFFFFFFF AND SUB PUSH2 0x1644 JUMPI PUSH1 0x40 MLOAD PUSH32 0x8C379A000000000000000000000000000000000000000000000000000000000 DUP2 MSTORE PUSH1 0x4 ADD PUSH2 0x163B SWAP1 PUSH2 0x2A1F JUMP JUMPDEST PUSH1 0x40 MLOAD DUP1 SWAP2 SUB SWAP1 REVERT JUMPDEST DUP2 PUSH1 0x8 PUSH0 PUSH2 0x100 EXP DUP2 SLOAD DUP2 PUSH20 0xFFFFFFFFFFFFFFFFFFFFFFFFFFFFFFFFFFFFFFFF MUL NOT AND SWAP1 DUP4 PUSH20 0xFFFFFFFFFFFFFFFFFFFFFFFFFFFFFFFFFFFFFFFF AND MUL OR SWAP1 SSTORE POP PUSH1 0x1 SWAP1 POP SWAP2 SWAP1 POP JUMP JUMPDEST PUSH0 DUP1 DUP3 EQ PUSH2 0x16D2 JUMPI PUSH1 0x64 DUP3 EQ PUSH2 0x16C8 JUMPI PUSH1 0xC8 DUP3 EQ PUSH2 0x16BE JUMPI PUSH2 0x3E8 DUP3 EQ PUSH2 0x16B7 JUMPI PUSH3 0xED4E00 PUSH2 0x16B9 JUMP JUMPDEST PUSH0 JUMPDEST PUSH2 0x16C3 JUMP JUMPDEST PUSH3 0x83D600 JUMPDEST PUSH2 0x16CD JUMP JUMPDEST PUSH3 0xAB6300 JUMPDEST PUSH2 0x16D7 JUMP JUMPDEST PUSH3 0xED4E00 JUMPDEST PUSH3 0xFFFFFF AND PUSH1 0x9 DUP2 SWAP1 SSTORE POP PUSH1 0x1 SWAP1 POP SWAP2 SWAP1 POP JUMP JUMPDEST PUSH0 DUP1 PUSH20 0xFFFFFFFFFFFFFFFFFFFFFFFFFFFFFFFFFFFFFFFF AND PUSH2 0x170C DUP4 PUSH2 0x1275 JUMP JUMPDEST PUSH20 0xFFFFFFFFFFFFFFFFFFFFFFFFFFFFFFFFFFFFFFFF AND EQ ISZERO SWAP1 POP SWAP2 SWAP1 POP JUMP JUMPDEST PUSH2 0x173B DUP5 DUP5 DUP5 PUSH1 0x1 SWAP5 POP DUP5 PUSH2 0x1CFF JUMP JUMPDEST PUSH0 PUSH20 0xFFFFFFFFFFFFFFFFFFFFFFFFFFFFFFFFFFFFFFFF AND DUP5 PUSH20 0xFFFFFFFFFFFFFFFFFFFFFFFFFFFFFFFFFFFFFFFF AND EQ PUSH2 0x17FD JUMPI PUSH1 0x9 SLOAD PUSH1 0xA PUSH0 DUP5 DUP2 MSTORE PUSH1 0x20 ADD SWAP1 DUP2 MSTORE PUSH1 0x20 ADD PUSH0 KECCAK256 SLOAD PUSH2 0x178D SWAP2 SWAP1 PUSH2 0x2A6A JUMP JUMPDEST TIMESTAMP LT ISZERO PUSH2 0x179B PUSH1 0x9 SLOAD PUSH2 0x150B JUMP JUMPDEST PUSH1 0x40 MLOAD PUSH1 0x20 ADD PUSH2 0x17AB SWAP2 SWAP1 PUSH2 0x2AE7 JUMP JUMPDEST PUSH1 0x40 MLOAD PUSH1 0x20 DUP2 DUP4 SUB SUB DUP2 MSTORE SWAP1 PUSH1 0x40 MSTORE SWAP1 PUSH2 0x17FB JUMPI PUSH1 0x40 MLOAD PUSH32 0x8C379A000000000000000000000000000000000000000000000000000000000 DUP2 MSTORE PUSH1 0x4 ADD PUSH2 0x17F2 SWAP2 SWAP1 PUSH2 0x1F0E JUMP JUMPDEST PUSH1 0x40 MLOAD DUP1 SWAP2 SUB SWAP1 REVERT JUMPDEST POP JUMPDEST POP POP POP POP JUMP JUMPDEST PUSH2 0x1813 DUP5 DUP5 DUP5 PUSH1 0x1 SWAP5 POP DUP5 PUSH2 0x1D05 JUMP JUMPDEST POP POP POP POP JUMP JUMPDEST PUSH0 PUSH20 0xFFFFFFFFFFFFFFFFFFFFFFFFFFFFFFFFFFFFFFFF AND DUP3 PUSH20 0xFFFFFFFFFFFFFFFFFFFFFFFFFFFFFFFFFFFFFFFF AND SUB PUSH2 0x1887 JUMPI PUSH1 0x40 MLOAD PUSH32 0x8C379A000000000000000000000000000000000000000000000000000000000 DUP2 MSTORE PUSH1 0x4 ADD PUSH2 0x187E SWAP1 PUSH2 0x2B52 JUMP JUMPDEST PUSH1 0x40 MLOAD DUP1 SWAP2 SUB SWAP1 REVERT JUMPDEST PUSH2 0x1890 DUP2 PUSH2 0x16EB JUMP JUMPDEST ISZERO PUSH2 0x18D0 JUMPI PUSH1 0x40 MLOAD PUSH32 0x8C379A000000000000000000000000000000000000000000000000000000000 DUP2 MSTORE PUSH1 0x4 ADD PUSH2 0x18C7 SWAP1 PUSH2 0x2BBA JUMP JUMPDEST PUSH1 0x40 MLOAD DUP1 SWAP2 SUB SWAP1 REVERT JUMPDEST PUSH2 0x18DD PUSH0 DUP4 DUP4 PUSH1 0x1 PUSH2 0x172B JUMP JUMPDEST PUSH2 0x18E6 DUP2 PUSH2 0x16EB JUMP JUMPDEST ISZERO PUSH2 0x1926 JUMPI PUSH1 0x40 MLOAD PUSH32 0x8C379A000000000000000000000000000000000000000000000000000000000 DUP2 MSTORE PUSH1 0x4 ADD PUSH2 0x191D SWAP1 PUSH2 0x2BBA JUMP JUMPDEST PUSH1 0x40 MLOAD DUP1 SWAP2 SUB SWAP1 REVERT JUMPDEST PUSH1 0x1 PUSH1 0x3 PUSH0 DUP5 PUSH20 0xFFFFFFFFFFFFFFFFFFFFFFFFFFFFFFFFFFFFFFFF AND PUSH20 0xFFFFFFFFFFFFFFFFFFFFFFFFFFFFFFFFFFFFFFFF AND DUP2 MSTORE PUSH1 0x20 ADD SWAP1 DUP2 MSTORE PUSH1 0x20 ADD PUSH0 KECCAK256 PUSH0 DUP3 DUP3 SLOAD ADD SWAP3 POP POP DUP2 SWAP1 SSTORE POP DUP2 PUSH1 0x2 PUSH0 DUP4 DUP2 MSTORE PUSH1 0x20 ADD SWAP1 DUP2 MSTORE PUSH1 0x20 ADD PUSH0 KECCAK256 PUSH0 PUSH2 0x100 EXP DUP2 SLOAD DUP2 PUSH20 0xFFFFFFFFFFFFFFFFFFFFFFFFFFFFFFFFFFFFFFFF MUL NOT AND SWAP1 DUP4 PUSH20 0xFFFFFFFFFFFFFFFFFFFFFFFFFFFFFFFFFFFFFFFF AND MUL OR SWAP1 SSTORE POP DUP1 DUP3 PUSH20 0xFFFFFFFFFFFFFFFFFFFFFFFFFFFFFFFFFFFFFFFF AND PUSH0 PUSH20 0xFFFFFFFFFFFFFFFFFFFFFFFFFFFFFFFFFFFFFFFF AND PUSH32 0xDDF252AD1BE2C89B69C2B068FC378DAA952BA7F163C4A11628F55A4DF523B3EF PUSH1 0x40 MLOAD PUSH1 0x40 MLOAD DUP1 SWAP2 SUB SWAP1 LOG4 PUSH2 0x1A28 PUSH0 DUP4 DUP4 PUSH1 0x1 PUSH2 0x1803 JUMP JUMPDEST POP POP JUMP JUMPDEST PUSH0 PUSH2 0x1A4C DUP5 PUSH20 0xFFFFFFFFFFFFFFFFFFFFFFFFFFFFFFFFFFFFFFFF AND PUSH2 0x1D0B JUMP JUMPDEST ISZERO PUSH2 0x1BA1 JUMPI DUP4 PUSH20 0xFFFFFFFFFFFFFFFFFFFFFFFFFFFFFFFFFFFFFFFF AND PUSH4 0x150B7A02 PUSH2 0x1A75 PUSH2 0xCF7 JUMP JUMPDEST DUP8 DUP7 DUP7 PUSH1 0x40 MLOAD DUP6 PUSH4 0xFFFFFFFF AND PUSH1 0xE0 SHL DUP2 MSTORE PUSH1 0x4 ADD PUSH2 0x1A97 SWAP5 SWAP4 SWAP3 SWAP2 SWAP1 PUSH2 0x2C2A JUMP JUMPDEST PUSH1 0x20 PUSH1 0x40 MLOAD DUP1 DUP4 SUB DUP2 PUSH0 DUP8 GAS CALL SWAP3 POP POP POP DUP1 ISZERO PUSH2 0x1AD2 JUMPI POP PUSH1 0x40 MLOAD RETURNDATASIZE PUSH1 0x1F NOT PUSH1 0x1F DUP3 ADD AND DUP3 ADD DUP1 PUSH1 0x40 MSTORE POP DUP2 ADD SWAP1 PUSH2 0x1ACF SWAP2 SWAP1 PUSH2 0x2C88 JUMP JUMPDEST PUSH1 0x1 JUMPDEST PUSH2 0x1B51 JUMPI RETURNDATASIZE DUP1 PUSH0 DUP2 EQ PUSH2 0x1B00 JUMPI PUSH1 0x40 MLOAD SWAP2 POP PUSH1 0x1F NOT PUSH1 0x3F RETURNDATASIZE ADD AND DUP3 ADD PUSH1 0x40 MSTORE RETURNDATASIZE DUP3 MSTORE RETURNDATASIZE PUSH0 PUSH1 0x20 DUP5 ADD RETURNDATACOPY PUSH2 0x1B05 JUMP JUMPDEST PUSH1 0x60 SWAP2 POP JUMPDEST POP PUSH0 DUP2 MLOAD SUB PUSH2 0x1B49 JUMPI PUSH1 0x40 MLOAD PUSH32 0x8C379A000000000000000000000000000000000000000000000000000000000 DUP2 MSTORE PUSH1 0x4 ADD PUSH2 0x1B40 SWAP1 PUSH2 0x2922 JUMP JUMPDEST PUSH1 0x40 MLOAD DUP1 SWAP2 SUB SWAP1 REVERT JUMPDEST DUP1 MLOAD DUP2 PUSH1 0x20 ADD REVERT JUMPDEST PUSH4 0x150B7A02 PUSH1 0xE0 SHL PUSH28 0xFFFFFFFFFFFFFFFFFFFFFFFFFFFFFFFFFFFFFFFFFFFFFFFFFFFFFFFF NOT AND DUP2 PUSH28 0xFFFFFFFFFFFFFFFFFFFFFFFFFFFFFFFFFFFFFFFFFFFFFFFFFFFFFFFF NOT AND EQ SWAP2 POP POP PUSH2 0x1BA6 JUMP JUMPDEST PUSH1 0x1 SWAP1 POP JUMPDEST SWAP5 SWAP4 POP POP POP POP JUMP JUMPDEST PUSH0 DUP1 PUSH0 SWAP1 POP PUSH27 0x184F03E93FF9F4DAA797ED6E38ED64BF6A1F010000000000000000 DUP4 LT PUSH2 0x1C0A JUMPI PUSH27 0x184F03E93FF9F4DAA797ED6E38ED64BF6A1F010000000000000000 DUP4 DUP2 PUSH2 0x1C00 JUMPI PUSH2 0x1BFF PUSH2 0x29A8 JUMP JUMPDEST JUMPDEST DIV SWAP3 POP PUSH1 0x40 DUP2 ADD SWAP1 POP JUMPDEST PUSH14 0x4EE2D6D415B85ACEF8100000000 DUP4 LT PUSH2 0x1C47 JUMPI PUSH14 0x4EE2D6D415B85ACEF8100000000 DUP4 DUP2 PUSH2 0x1C3D JUMPI PUSH2 0x1C3C PUSH2 0x29A8 JUMP JUMPDEST JUMPDEST DIV SWAP3 POP PUSH1 0x20 DUP2 ADD SWAP1 POP JUMPDEST PUSH7 0x2386F26FC10000 DUP4 LT PUSH2 0x1C76 JUMPI PUSH7 0x2386F26FC10000 DUP4 DUP2 PUSH2 0x1C6C JUMPI PUSH2 0x1C6B PUSH2 0x29A8 JUMP JUMPDEST JUMPDEST DIV SWAP3 POP PUSH1 0x10 DUP2 ADD SWAP1 POP JUMPDEST PUSH4 0x5F5E100 DUP4 LT PUSH2 0x1C9F JUMPI PUSH4 0x5F5E100 DUP4 DUP2 PUSH2 0x1C95 JUMPI PUSH2 0x1C94 PUSH2 0x29A8 JUMP JUMPDEST JUMPDEST DIV SWAP3 POP PUSH1 0x8 DUP2 ADD SWAP1 POP JUMPDEST PUSH2 0x2710 DUP4 LT PUSH2 0x1CC4 JUMPI PUSH2 0x2710 DUP4 DUP2 PUSH2 0x1CBA JUMPI PUSH2 0x1CB9 PUSH2 0x29A8 JUMP JUMPDEST JUMPDEST DIV SWAP3 POP PUSH1 0x4 DUP2 ADD SWAP1 POP JUMPDEST PUSH1 0x64 DUP4 LT PUSH2 0x1CE7 JUMPI PUSH1 0x64 DUP4 DUP2 PUSH2 0x1CDD JUMPI PUSH2 0x1CDC PUSH2 0x29A8 JUMP JUMPDEST JUMPDEST DIV SWAP3 POP PUSH1 0x2 DUP2 ADD SWAP1 POP JUMPDEST PUSH1 0xA DUP4 LT PUSH2 0x1CF6 JUMPI PUSH1 0x1 DUP2 ADD SWAP1 POP JUMPDEST DUP1 SWAP2 POP POP SWAP2 SWAP1 POP JUMP JUMPDEST POP POP POP POP JUMP JUMPDEST POP POP POP POP JUMP JUMPDEST PUSH0 DUP1 DUP3 PUSH20 0xFFFFFFFFFFFFFFFFFFFFFFFFFFFFFFFFFFFFFFFF AND EXTCODESIZE GT SWAP1 POP SWAP2 SWAP1 POP JUMP JUMPDEST PUSH0 PUSH1 0x40 MLOAD SWAP1 POP SWAP1 JUMP JUMPDEST PUSH0 DUP1 REVERT JUMPDEST PUSH0 DUP1 REVERT JUMPDEST PUSH0 PUSH32 0xFFFFFFFF00000000000000000000000000000000000000000000000000000000 DUP3 AND SWAP1 POP SWAP2 SWAP1 POP JUMP JUMPDEST PUSH2 0x1D72 DUP2 PUSH2 0x1D3E JUMP JUMPDEST DUP2 EQ PUSH2 0x1D7C JUMPI PUSH0 DUP1 REVERT JUMPDEST POP JUMP JUMPDEST PUSH0 DUP2 CALLDATALOAD SWAP1 POP PUSH2 0x1D8D DUP2 PUSH2 0x1D69 JUMP JUMPDEST SWAP3 SWAP2 POP POP JUMP JUMPDEST PUSH0 PUSH1 0x20 DUP3 DUP5 SUB SLT ISZERO PUSH2 0x1DA8 JUMPI PUSH2 0x1DA7 PUSH2 0x1D36 JUMP JUMPDEST JUMPDEST PUSH0 PUSH2 0x1DB5 DUP5 DUP3 DUP6 ADD PUSH2 0x1D7F JUMP JUMPDEST SWAP2 POP POP SWAP3 SWAP2 POP POP JUMP JUMPDEST PUSH0 DUP2 ISZERO ISZERO SWAP1 POP SWAP2 SWAP1 POP JUMP JUMPDEST PUSH2 0x1DD2 DUP2 PUSH2 0x1DBE JUMP JUMPDEST DUP3 MSTORE POP POP JUMP JUMPDEST PUSH0 PUSH1 0x20 DUP3 ADD SWAP1 POP PUSH2 0x1DEB PUSH0 DUP4 ADD DUP5 PUSH2 0x1DC9 JUMP JUMPDEST SWAP3 SWAP2 POP POP JUMP JUMPDEST PUSH0 PUSH20 0xFFFFFFFFFFFFFFFFFFFFFFFFFFFFFFFFFFFFFFFF DUP3 AND SWAP1 POP SWAP2 SWAP1 POP JUMP JUMPDEST PUSH0 DUP2 SWAP1 POP SWAP2 SWAP1 POP JUMP JUMPDEST PUSH0 PUSH2 0x1E33 PUSH2 0x1E2E PUSH2 0x1E29 DUP5 PUSH2 0x1DF1 JUMP JUMPDEST PUSH2 0x1E10 JUMP JUMPDEST PUSH2 0x1DF1 JUMP JUMPDEST SWAP1 POP SWAP2 SWAP1 POP JUMP JUMPDEST PUSH0 PUSH2 0x1E44 DUP3 PUSH2 0x1E19 JUMP JUMPDEST SWAP1 POP SWAP2 SWAP1 POP JUMP JUMPDEST PUSH0 PUSH2 0x1E55 DUP3 PUSH2 0x1E3A JUMP JUMPDEST SWAP1 POP SWAP2 SWAP1 POP JUMP JUMPDEST PUSH2 0x1E65 DUP2 PUSH2 0x1E4B JUMP JUMPDEST DUP3 MSTORE POP POP JUMP JUMPDEST PUSH0 PUSH1 0x20 DUP3 ADD SWAP1 POP PUSH2 0x1E7E PUSH0 DUP4 ADD DUP5 PUSH2 0x1E5C JUMP JUMPDEST SWAP3 SWAP2 POP POP JUMP JUMPDEST PUSH0 DUP2 MLOAD SWAP1 POP SWAP2 SWAP1 POP JUMP JUMPDEST PUSH0 DUP3 DUP3 MSTORE PUSH1 0x20 DUP3 ADD SWAP1 POP SWAP3 SWAP2 POP POP JUMP JUMPDEST PUSH0 JUMPDEST DUP4 DUP2 LT ISZERO PUSH2 0x1EBB JUMPI DUP1 DUP3 ADD MLOAD DUP2 DUP5 ADD MSTORE PUSH1 0x20 DUP2 ADD SWAP1 POP PUSH2 0x1EA0 JUMP JUMPDEST PUSH0 DUP5 DUP5 ADD MSTORE POP POP POP POP JUMP JUMPDEST PUSH0 PUSH1 0x1F NOT PUSH1 0x1F DUP4 ADD AND SWAP1 POP SWAP2 SWAP1 POP JUMP JUMPDEST PUSH0 PUSH2 0x1EE0 DUP3 PUSH2 0x1E84 JUMP JUMPDEST PUSH2 0x1EEA DUP2 DUP6 PUSH2 0x1E8E JUMP JUMPDEST SWAP4 POP PUSH2 0x1EFA DUP2 DUP6 PUSH1 0x20 DUP7 ADD PUSH2 0x1E9E JUMP JUMPDEST PUSH2 0x1F03 DUP2 PUSH2 0x1EC6 JUMP JUMPDEST DUP5 ADD SWAP2 POP POP SWAP3 SWAP2 POP POP JUMP JUMPDEST PUSH0 PUSH1 0x20 DUP3 ADD SWAP1 POP DUP2 DUP2 SUB PUSH0 DUP4 ADD MSTORE PUSH2 0x1F26 DUP2 DUP5 PUSH2 0x1ED6 JUMP JUMPDEST SWAP1 POP SWAP3 SWAP2 POP POP JUMP JUMPDEST PUSH0 DUP2 SWAP1 POP SWAP2 SWAP1 POP JUMP JUMPDEST PUSH2 0x1F40 DUP2 PUSH2 0x1F2E JUMP JUMPDEST DUP2 EQ PUSH2 0x1F4A JUMPI PUSH0 DUP1 REVERT JUMPDEST POP JUMP JUMPDEST PUSH0 DUP2 CALLDATALOAD SWAP1 POP PUSH2 0x1F5B DUP2 PUSH2 0x1F37 JUMP JUMPDEST SWAP3 SWAP2 POP POP JUMP JUMPDEST PUSH0 PUSH1 0x20 DUP3 DUP5 SUB SLT ISZERO PUSH2 0x1F76 JUMPI PUSH2 0x1F75 PUSH2 0x1D36 JUMP JUMPDEST JUMPDEST PUSH0 PUSH2 0x1F83 DUP5 DUP3 DUP6 ADD PUSH2 0x1F4D JUMP JUMPDEST SWAP2 POP POP SWAP3 SWAP2 POP POP JUMP JUMPDEST PUSH0 PUSH2 0x1F96 DUP3 PUSH2 0x1DF1 JUMP JUMPDEST SWAP1 POP SWAP2 SWAP1 POP JUMP JUMPDEST PUSH2 0x1FA6 DUP2 PUSH2 0x1F8C JUMP JUMPDEST DUP3 MSTORE POP POP JUMP JUMPDEST PUSH0 PUSH1 0x20 DUP3 ADD SWAP1 POP PUSH2 0x1FBF PUSH0 DUP4 ADD DUP5 PUSH2 0x1F9D JUMP JUMPDEST SWAP3 SWAP2 POP POP JUMP JUMPDEST PUSH2 0x1FCE DUP2 PUSH2 0x1F8C JUMP JUMPDEST DUP2 EQ PUSH2 0x1FD8 JUMPI PUSH0 DUP1 REVERT JUMPDEST POP JUMP JUMPDEST PUSH0 DUP2 CALLDATALOAD SWAP1 POP PUSH2 0x1FE9 DUP2 PUSH2 0x1FC5 JUMP JUMPDEST SWAP3 SWAP2 POP POP JUMP JUMPDEST PUSH0 DUP1 PUSH1 0x40 DUP4 DUP6 SUB SLT ISZERO PUSH2 0x2005 JUMPI PUSH2 0x2004 PUSH2 0x1D36 JUMP JUMPDEST JUMPDEST PUSH0 PUSH2 0x2012 DUP6 DUP3 DUP7 ADD PUSH2 0x1FDB JUMP JUMPDEST SWAP3 POP POP PUSH1 0x20 PUSH2 0x2023 DUP6 DUP3 DUP7 ADD PUSH2 0x1F4D JUMP JUMPDEST SWAP2 POP POP SWAP3 POP SWAP3 SWAP1 POP JUMP JUMPDEST PUSH2 0x2036 DUP2 PUSH2 0x1F2E JUMP JUMPDEST DUP3 MSTORE POP POP JUMP JUMPDEST PUSH0 PUSH1 0x20 DUP3 ADD SWAP1 POP PUSH2 0x204F PUSH0 DUP4 ADD DUP5 PUSH2 0x202D JUMP JUMPDEST SWAP3 SWAP2 POP POP JUMP JUMPDEST PUSH0 DUP1 PUSH0 PUSH1 0x60 DUP5 DUP7 SUB SLT ISZERO PUSH2 0x206C JUMPI PUSH2 0x206B PUSH2 0x1D36 JUMP JUMPDEST JUMPDEST PUSH0 PUSH2 0x2079 DUP7 DUP3 DUP8 ADD PUSH2 0x1FDB JUMP JUMPDEST SWAP4 POP POP PUSH1 0x20 PUSH2 0x208A DUP7 DUP3 DUP8 ADD PUSH2 0x1FDB JUMP JUMPDEST SWAP3 POP POP PUSH1 0x40 PUSH2 0x209B DUP7 DUP3 DUP8 ADD PUSH2 0x1F4D JUMP JUMPDEST SWAP2 POP POP SWAP3 POP SWAP3 POP SWAP3 JUMP JUMPDEST PUSH0 PUSH1 0x20 DUP3 DUP5 SUB SLT ISZERO PUSH2 0x20BA JUMPI PUSH2 0x20B9 PUSH2 0x1D36 JUMP JUMPDEST JUMPDEST PUSH0 PUSH2 0x20C7 DUP5 DUP3 DUP6 ADD PUSH2 0x1FDB JUMP JUMPDEST SWAP2 POP POP SWAP3 SWAP2 POP POP JUMP JUMPDEST PUSH2 0x20D9 DUP2 PUSH2 0x1DBE JUMP JUMPDEST DUP2 EQ PUSH2 0x20E3 JUMPI PUSH0 DUP1 REVERT JUMPDEST POP JUMP JUMPDEST PUSH0 DUP2 CALLDATALOAD SWAP1 POP PUSH2 0x20F4 DUP2 PUSH2 0x20D0 JUMP JUMPDEST SWAP3 SWAP2 POP POP JUMP JUMPDEST PUSH0 DUP1 PUSH1 0x40 DUP4 DUP6 SUB SLT ISZERO PUSH2 0x2110 JUMPI PUSH2 0x210F PUSH2 0x1D36 JUMP JUMPDEST JUMPDEST PUSH0 PUSH2 0x211D DUP6 DUP3 DUP7 ADD PUSH2 0x1FDB JUMP JUMPDEST SWAP3 POP POP PUSH1 0x20 PUSH2 0x212E DUP6 DUP3 DUP7 ADD PUSH2 0x20E6 JUMP JUMPDEST SWAP2 POP POP SWAP3 POP SWAP3 SWAP1 POP JUMP JUMPDEST PUSH0 DUP1 REVERT JUMPDEST PUSH0 DUP1 REVERT JUMPDEST PUSH32 0x4E487B7100000000000000000000000000000000000000000000000000000000 PUSH0 MSTORE PUSH1 0x41 PUSH1 0x4 MSTORE PUSH1 0x24 PUSH0 REVERT JUMPDEST PUSH2 0x2176 DUP3 PUSH2 0x1EC6 JUMP JUMPDEST DUP2 ADD DUP2 DUP2 LT PUSH8 0xFFFFFFFFFFFFFFFF DUP3 GT OR ISZERO PUSH2 0x2195 JUMPI PUSH2 0x2194 PUSH2 0x2140 JUMP JUMPDEST JUMPDEST DUP1 PUSH1 0x40 MSTORE POP POP POP JUMP JUMPDEST PUSH0 PUSH2 0x21A7 PUSH2 0x1D2D JUMP JUMPDEST SWAP1 POP PUSH2 0x21B3 DUP3 DUP3 PUSH2 0x216D JUMP JUMPDEST SWAP2 SWAP1 POP JUMP JUMPDEST PUSH0 PUSH8 0xFFFFFFFFFFFFFFFF DUP3 GT ISZERO PUSH2 0x21D2 JUMPI PUSH2 0x21D1 PUSH2 0x2140 JUMP JUMPDEST JUMPDEST PUSH2 0x21DB DUP3 PUSH2 0x1EC6 JUMP JUMPDEST SWAP1 POP PUSH1 0x20 DUP2 ADD SWAP1 POP SWAP2 SWAP1 POP JUMP JUMPDEST DUP3 DUP2 DUP4 CALLDATACOPY PUSH0 DUP4 DUP4 ADD MSTORE POP POP POP JUMP JUMPDEST PUSH0 PUSH2 0x2208 PUSH2 0x2203 DUP5 PUSH2 0x21B8 JUMP JUMPDEST PUSH2 0x219E JUMP JUMPDEST SWAP1 POP DUP3 DUP2 MSTORE PUSH1 0x20 DUP2 ADD DUP5 DUP5 DUP5 ADD GT ISZERO PUSH2 0x2224 JUMPI PUSH2 0x2223 PUSH2 0x213C JUMP JUMPDEST JUMPDEST PUSH2 0x222F DUP5 DUP3 DUP6 PUSH2 0x21E8 JUMP JUMPDEST POP SWAP4 SWAP3 POP POP POP JUMP JUMPDEST PUSH0 DUP3 PUSH1 0x1F DUP4 ADD SLT PUSH2 0x224B JUMPI PUSH2 0x224A PUSH2 0x2138 JUMP JUMPDEST JUMPDEST DUP2 CALLDATALOAD PUSH2 0x225B DUP5 DUP3 PUSH1 0x20 DUP7 ADD PUSH2 0x21F6 JUMP JUMPDEST SWAP2 POP POP SWAP3 SWAP2 POP POP JUMP JUMPDEST PUSH0 DUP1 PUSH0 DUP1 PUSH1 0x80 DUP6 DUP8 SUB SLT ISZERO PUSH2 0x227C JUMPI PUSH2 0x227B PUSH2 0x1D36 JUMP JUMPDEST JUMPDEST PUSH0 PUSH2 0x2289 DUP8 DUP3 DUP9 ADD PUSH2 0x1FDB JUMP JUMPDEST SWAP5 POP POP PUSH1 0x20 PUSH2 0x229A DUP8 DUP3 DUP9 ADD PUSH2 0x1FDB JUMP JUMPDEST SWAP4 POP POP PUSH1 0x40 PUSH2 0x22AB DUP8 DUP3 DUP9 ADD PUSH2 0x1F4D JUMP JUMPDEST SWAP3 POP POP PUSH1 0x60 DUP6 ADD CALLDATALOAD PUSH8 0xFFFFFFFFFFFFFFFF DUP2 GT ISZERO PUSH2 0x22CC JUMPI PUSH2 0x22CB PUSH2 0x1D3A JUMP JUMPDEST JUMPDEST PUSH2 0x22D8 DUP8 DUP3 DUP9 ADD PUSH2 0x2237 JUMP JUMPDEST SWAP2 POP POP SWAP3 SWAP6 SWAP2 SWAP5 POP SWAP3 POP JUMP JUMPDEST PUSH0 DUP1 PUSH1 0x40 DUP4 DUP6 SUB SLT ISZERO PUSH2 0x22FA JUMPI PUSH2 0x22F9 PUSH2 0x1D36 JUMP JUMPDEST JUMPDEST PUSH0 PUSH2 0x2307 DUP6 DUP3 DUP7 ADD PUSH2 0x1FDB JUMP JUMPDEST SWAP3 POP POP PUSH1 0x20 PUSH2 0x2318 DUP6 DUP3 DUP7 ADD PUSH2 0x1FDB JUMP JUMPDEST SWAP2 POP POP SWAP3 POP SWAP3 SWAP1 POP JUMP JUMPDEST PUSH0 DUP1 PUSH1 0x40 DUP4 DUP6 SUB SLT ISZERO PUSH2 0x2338 JUMPI PUSH2 0x2337 PUSH2 0x1D36 JUMP JUMPDEST JUMPDEST PUSH0 PUSH2 0x2345 DUP6 DUP3 DUP7 ADD PUSH2 0x1F4D JUMP JUMPDEST SWAP3 POP POP PUSH1 0x20 PUSH2 0x2356 DUP6 DUP3 DUP7 ADD PUSH2 0x1FDB JUMP JUMPDEST SWAP2 POP POP SWAP3 POP SWAP3 SWAP1 POP JUMP JUMPDEST PUSH32 0x4552433732313A20617070726F76616C20746F2063757272656E74206F776E65 PUSH0 DUP3 ADD MSTORE PUSH32 0x7200000000000000000000000000000000000000000000000000000000000000 PUSH1 0x20 DUP3 ADD MSTORE POP JUMP JUMPDEST PUSH0 PUSH2 0x23BA PUSH1 0x21 DUP4 PUSH2 0x1E8E JUMP JUMPDEST SWAP2 POP PUSH2 0x23C5 DUP3 PUSH2 0x2360 JUMP JUMPDEST PUSH1 0x40 DUP3 ADD SWAP1 POP SWAP2 SWAP1 POP JUMP JUMPDEST PUSH0 PUSH1 0x20 DUP3 ADD SWAP1 POP DUP2 DUP2 SUB PUSH0 DUP4 ADD MSTORE PUSH2 0x23E7 DUP2 PUSH2 0x23AE JUMP JUMPDEST SWAP1 POP SWAP2 SWAP1 POP JUMP JUMPDEST PUSH32 0x4552433732313A20617070726F76652063616C6C6572206973206E6F7420746F PUSH0 DUP3 ADD MSTORE PUSH32 0x6B656E206F776E6572206F7220617070726F76656420666F7220616C6C000000 PUSH1 0x20 DUP3 ADD MSTORE POP JUMP JUMPDEST PUSH0 PUSH2 0x2448 PUSH1 0x3D DUP4 PUSH2 0x1E8E JUMP JUMPDEST SWAP2 POP PUSH2 0x2453 DUP3 PUSH2 0x23EE JUMP JUMPDEST PUSH1 0x40 DUP3 ADD SWAP1 POP SWAP2 SWAP1 POP JUMP JUMPDEST PUSH0 PUSH1 0x20 DUP3 ADD SWAP1 POP DUP2 DUP2 SUB PUSH0 DUP4 ADD MSTORE PUSH2 0x2475 DUP2 PUSH2 0x243C JUMP JUMPDEST SWAP1 POP SWAP2 SWAP1 POP JUMP JUMPDEST PUSH32 0x4552433732313A2063616C6C6572206973206E6F7420746F6B656E206F776E65 PUSH0 DUP3 ADD MSTORE PUSH32 0x72206F7220617070726F76656400000000000000000000000000000000000000 PUSH1 0x20 DUP3 ADD MSTORE POP JUMP JUMPDEST PUSH0 PUSH2 0x24D6 PUSH1 0x2D DUP4 PUSH2 0x1E8E JUMP JUMPDEST SWAP2 POP PUSH2 0x24E1 DUP3 PUSH2 0x247C JUMP JUMPDEST PUSH1 0x40 DUP3 ADD SWAP1 POP SWAP2 SWAP1 POP JUMP JUMPDEST PUSH0 PUSH1 0x20 DUP3 ADD SWAP1 POP DUP2 DUP2 SUB PUSH0 DUP4 ADD MSTORE PUSH2 0x2503 DUP2 PUSH2 0x24CA JUMP JUMPDEST SWAP1 POP SWAP2 SWAP1 POP JUMP JUMPDEST PUSH32 0x4552433732313A20696E76616C696420746F6B656E2049440000000000000000 PUSH0 DUP3 ADD MSTORE POP JUMP JUMPDEST PUSH0 PUSH2 0x253E PUSH1 0x18 DUP4 PUSH2 0x1E8E JUMP JUMPDEST SWAP2 POP PUSH2 0x2549 DUP3 PUSH2 0x250A JUMP JUMPDEST PUSH1 0x20 DUP3 ADD SWAP1 POP SWAP2 SWAP1 POP JUMP JUMPDEST PUSH0 PUSH1 0x20 DUP3 ADD SWAP1 POP DUP2 DUP2 SUB PUSH0 DUP4 ADD MSTORE PUSH2 0x256B DUP2 PUSH2 0x2532 JUMP JUMPDEST SWAP1 POP SWAP2 SWAP1 POP JUMP JUMPDEST PUSH32 0x4552433732313A2061646472657373207A65726F206973206E6F742061207661 PUSH0 DUP3 ADD MSTORE PUSH32 0x6C6964206F776E65720000000000000000000000000000000000000000000000 PUSH1 0x20 DUP3 ADD MSTORE POP JUMP JUMPDEST PUSH0 PUSH2 0x25CC PUSH1 0x29 DUP4 PUSH2 0x1E8E JUMP JUMPDEST SWAP2 POP PUSH2 0x25D7 DUP3 PUSH2 0x2572 JUMP JUMPDEST PUSH1 0x40 DUP3 ADD SWAP1 POP SWAP2 SWAP1 POP JUMP JUMPDEST PUSH0 PUSH1 0x20 DUP3 ADD SWAP1 POP DUP2 DUP2 SUB PUSH0 DUP4 ADD MSTORE PUSH2 0x25F9 DUP2 PUSH2 0x25C0 JUMP JUMPDEST SWAP1 POP SWAP2 SWAP1 POP JUMP JUMPDEST PUSH32 0x4E487B7100000000000000000000000000000000000000000000000000000000 PUSH0 MSTORE PUSH1 0x22 PUSH1 0x4 MSTORE PUSH1 0x24 PUSH0 REVERT JUMPDEST PUSH0 PUSH1 0x2 DUP3 DIV SWAP1 POP PUSH1 0x1 DUP3 AND DUP1 PUSH2 0x2644 JUMPI PUSH1 0x7F DUP3 AND SWAP2 POP JUMPDEST PUSH1 0x20 DUP3 LT DUP2 SUB PUSH2 0x2657 JUMPI PUSH2 0x2656 PUSH2 0x2600 JUMP JUMPDEST JUMPDEST POP SWAP2 SWAP1 POP JUMP JUMPDEST PUSH0 DUP2 SWAP1 POP SWAP3 SWAP2 POP POP JUMP JUMPDEST PUSH0 PUSH2 0x2671 DUP3 PUSH2 0x1E84 JUMP JUMPDEST PUSH2 0x267B DUP2 DUP6 PUSH2 0x265D JUMP JUMPDEST SWAP4 POP PUSH2 0x268B DUP2 DUP6 PUSH1 0x20 DUP7 ADD PUSH2 0x1E9E JUMP JUMPDEST DUP1 DUP5 ADD SWAP2 POP POP SWAP3 SWAP2 POP POP JUMP JUMPDEST PUSH0 PUSH2 0x26A2 DUP3 DUP6 PUSH2 0x2667 JUMP JUMPDEST SWAP2 POP PUSH2 0x26AE DUP3 DUP5 PUSH2 0x2667 JUMP JUMPDEST SWAP2 POP DUP2 SWAP1 POP SWAP4 SWAP3 POP POP POP JUMP JUMPDEST PUSH0 PUSH1 0x60 DUP3 ADD SWAP1 POP PUSH2 0x26CD PUSH0 DUP4 ADD DUP7 PUSH2 0x1F9D JUMP JUMPDEST PUSH2 0x26DA PUSH1 0x20 DUP4 ADD DUP6 PUSH2 0x1F9D JUMP JUMPDEST PUSH2 0x26E7 PUSH1 0x40 DUP4 ADD DUP5 PUSH2 0x202D JUMP JUMPDEST SWAP5 SWAP4 POP POP POP POP JUMP JUMPDEST PUSH0 DUP2 MLOAD SWAP1 POP PUSH2 0x26FD DUP2 PUSH2 0x20D0 JUMP JUMPDEST SWAP3 SWAP2 POP POP JUMP JUMPDEST PUSH0 PUSH1 0x20 DUP3 DUP5 SUB SLT ISZERO PUSH2 0x2718 JUMPI PUSH2 0x2717 PUSH2 0x1D36 JUMP JUMPDEST JUMPDEST PUSH0 PUSH2 0x2725 DUP5 DUP3 DUP6 ADD PUSH2 0x26EF JUMP JUMPDEST SWAP2 POP POP SWAP3 SWAP2 POP POP JUMP JUMPDEST PUSH32 0x717665546F6B656E207472616E73666572206572726F72000000000000000000 PUSH0 DUP3 ADD MSTORE POP JUMP JUMPDEST PUSH0 PUSH2 0x2762 PUSH1 0x17 DUP4 PUSH2 0x1E8E JUMP JUMPDEST SWAP2 POP PUSH2 0x276D DUP3 PUSH2 0x272E JUMP JUMPDEST PUSH1 0x20 DUP3 ADD SWAP1 POP SWAP2 SWAP1 POP JUMP JUMPDEST PUSH0 PUSH1 0x20 DUP3 ADD SWAP1 POP DUP2 DUP2 SUB PUSH0 DUP4 ADD MSTORE PUSH2 0x278F DUP2 PUSH2 0x2756 JUMP JUMPDEST SWAP1 POP SWAP2 SWAP1 POP JUMP JUMPDEST PUSH32 0x4552433732313A207472616E736665722066726F6D20696E636F727265637420 PUSH0 DUP3 ADD MSTORE PUSH32 0x6F776E6572000000000000000000000000000000000000000000000000000000 PUSH1 0x20 DUP3 ADD MSTORE POP JUMP JUMPDEST PUSH0 PUSH2 0x27F0 PUSH1 0x25 DUP4 PUSH2 0x1E8E JUMP JUMPDEST SWAP2 POP PUSH2 0x27FB DUP3 PUSH2 0x2796 JUMP JUMPDEST PUSH1 0x40 DUP3 ADD SWAP1 POP SWAP2 SWAP1 POP JUMP JUMPDEST PUSH0 PUSH1 0x20 DUP3 ADD SWAP1 POP DUP2 DUP2 SUB PUSH0 DUP4 ADD MSTORE PUSH2 0x281D DUP2 PUSH2 0x27E4 JUMP JUMPDEST SWAP1 POP SWAP2 SWAP1 POP JUMP JUMPDEST PUSH32 0x4552433732313A207472616E7366657220746F20746865207A65726F20616464 PUSH0 DUP3 ADD MSTORE PUSH32 0x7265737300000000000000000000000000000000000000000000000000000000 PUSH1 0x20 DUP3 ADD MSTORE POP JUMP JUMPDEST PUSH0 PUSH2 0x287E PUSH1 0x24 DUP4 PUSH2 0x1E8E JUMP JUMPDEST SWAP2 POP PUSH2 0x2889 DUP3 PUSH2 0x2824 JUMP JUMPDEST PUSH1 0x40 DUP3 ADD SWAP1 POP SWAP2 SWAP1 POP JUMP JUMPDEST PUSH0 PUSH1 0x20 DUP3 ADD SWAP1 POP DUP2 DUP2 SUB PUSH0 DUP4 ADD MSTORE PUSH2 0x28AB DUP2 PUSH2 0x2872 JUMP JUMPDEST SWAP1 POP SWAP2 SWAP1 POP JUMP JUMPDEST PUSH32 0x4552433732313A207472616E7366657220746F206E6F6E204552433732315265 PUSH0 DUP3 ADD MSTORE PUSH32 0x63656976657220696D706C656D656E7465720000000000000000000000000000 PUSH1 0x20 DUP3 ADD MSTORE POP JUMP JUMPDEST PUSH0 PUSH2 0x290C PUSH1 0x32 DUP4 PUSH2 0x1E8E JUMP JUMPDEST SWAP2 POP PUSH2 0x2917 DUP3 PUSH2 0x28B2 JUMP JUMPDEST PUSH1 0x40 DUP3 ADD SWAP1 POP SWAP2 SWAP1 POP JUMP JUMPDEST PUSH0 PUSH1 0x20 DUP3 ADD SWAP1 POP DUP2 DUP2 SUB PUSH0 DUP4 ADD MSTORE PUSH2 0x2939 DUP2 PUSH2 0x2900 JUMP JUMPDEST SWAP1 POP SWAP2 SWAP1 POP JUMP JUMPDEST PUSH32 0x4552433732313A20617070726F766520746F2063616C6C657200000000000000 PUSH0 DUP3 ADD MSTORE POP JUMP JUMPDEST PUSH0 PUSH2 0x2974 PUSH1 0x19 DUP4 PUSH2 0x1E8E JUMP JUMPDEST SWAP2 POP PUSH2 0x297F DUP3 PUSH2 0x2940 JUMP JUMPDEST PUSH1 0x20 DUP3 ADD SWAP1 POP SWAP2 SWAP1 POP JUMP JUMPDEST PUSH0 PUSH1 0x20 DUP3 ADD SWAP1 POP DUP2 DUP2 SUB PUSH0 DUP4 ADD MSTORE PUSH2 0x29A1 DUP2 PUSH2 0x2968 JUMP JUMPDEST SWAP1 POP SWAP2 SWAP1 POP JUMP JUMPDEST PUSH32 0x4E487B7100000000000000000000000000000000000000000000000000000000 PUSH0 MSTORE PUSH1 0x12 PUSH1 0x4 MSTORE PUSH1 0x24 PUSH0 REVERT JUMPDEST PUSH32 0x5F73657451564564656669206572726F72000000000000000000000000000000 PUSH0 DUP3 ADD MSTORE POP JUMP JUMPDEST PUSH0 PUSH2 0x2A09 PUSH1 0x11 DUP4 PUSH2 0x1E8E JUMP JUMPDEST SWAP2 POP PUSH2 0x2A14 DUP3 PUSH2 0x29D5 JUMP JUMPDEST PUSH1 0x20 DUP3 ADD SWAP1 POP SWAP2 SWAP1 POP JUMP JUMPDEST PUSH0 PUSH1 0x20 DUP3 ADD SWAP1 POP DUP2 DUP2 SUB PUSH0 DUP4 ADD MSTORE PUSH2 0x2A36 DUP2 PUSH2 0x29FD JUMP JUMPDEST SWAP1 POP SWAP2 SWAP1 POP JUMP JUMPDEST PUSH32 0x4E487B7100000000000000000000000000000000000000000000000000000000 PUSH0 MSTORE PUSH1 0x11 PUSH1 0x4 MSTORE PUSH1 0x24 PUSH0 REVERT JUMPDEST PUSH0 PUSH2 0x2A74 DUP3 PUSH2 0x1F2E JUMP JUMPDEST SWAP2 POP PUSH2 0x2A7F DUP4 PUSH2 0x1F2E JUMP JUMPDEST SWAP3 POP DUP3 DUP3 ADD SWAP1 POP DUP1 DUP3 GT ISZERO PUSH2 0x2A97 JUMPI PUSH2 0x2A96 PUSH2 0x2A3D JUMP JUMPDEST JUMPDEST SWAP3 SWAP2 POP POP JUMP JUMPDEST PUSH32 0x746F6B656E206973207374696C6C20696E206C6F636B20706572696F64000000 PUSH0 DUP3 ADD MSTORE POP JUMP JUMPDEST PUSH0 PUSH2 0x2AD1 PUSH1 0x1D DUP4 PUSH2 0x265D JUMP JUMPDEST SWAP2 POP PUSH2 0x2ADC DUP3 PUSH2 0x2A9D JUMP JUMPDEST PUSH1 0x1D DUP3 ADD SWAP1 POP SWAP2 SWAP1 POP JUMP JUMPDEST PUSH0 PUSH2 0x2AF1 DUP3 PUSH2 0x2AC5 JUMP JUMPDEST SWAP2 POP PUSH2 0x2AFD DUP3 DUP5 PUSH2 0x2667 JUMP JUMPDEST SWAP2 POP DUP2 SWAP1 POP SWAP3 SWAP2 POP POP JUMP JUMPDEST PUSH32 0x4552433732313A206D696E7420746F20746865207A65726F2061646472657373 PUSH0 DUP3 ADD MSTORE POP JUMP JUMPDEST PUSH0 PUSH2 0x2B3C PUSH1 0x20 DUP4 PUSH2 0x1E8E JUMP JUMPDEST SWAP2 POP PUSH2 0x2B47 DUP3 PUSH2 0x2B08 JUMP JUMPDEST PUSH1 0x20 DUP3 ADD SWAP1 POP SWAP2 SWAP1 POP JUMP JUMPDEST PUSH0 PUSH1 0x20 DUP3 ADD SWAP1 POP DUP2 DUP2 SUB PUSH0 DUP4 ADD MSTORE PUSH2 0x2B69 DUP2 PUSH2 0x2B30 JUMP JUMPDEST SWAP1 POP SWAP2 SWAP1 POP JUMP JUMPDEST PUSH32 0x4552433732313A20746F6B656E20616C7265616479206D696E74656400000000 PUSH0 DUP3 ADD MSTORE POP JUMP JUMPDEST PUSH0 PUSH2 0x2BA4 PUSH1 0x1C DUP4 PUSH2 0x1E8E JUMP JUMPDEST SWAP2 POP PUSH2 0x2BAF DUP3 PUSH2 0x2B70 JUMP JUMPDEST PUSH1 0x20 DUP3 ADD SWAP1 POP SWAP2 SWAP1 POP JUMP JUMPDEST PUSH0 PUSH1 0x20 DUP3 ADD SWAP1 POP DUP2 DUP2 SUB PUSH0 DUP4 ADD MSTORE PUSH2 0x2BD1 DUP2 PUSH2 0x2B98 JUMP JUMPDEST SWAP1 POP SWAP2 SWAP1 POP JUMP JUMPDEST PUSH0 DUP2 MLOAD SWAP1 POP SWAP2 SWAP1 POP JUMP JUMPDEST PUSH0 DUP3 DUP3 MSTORE PUSH1 0x20 DUP3 ADD SWAP1 POP SWAP3 SWAP2 POP POP JUMP JUMPDEST PUSH0 PUSH2 0x2BFC DUP3 PUSH2 0x2BD8 JUMP JUMPDEST PUSH2 0x2C06 DUP2 DUP6 PUSH2 0x2BE2 JUMP JUMPDEST SWAP4 POP PUSH2 0x2C16 DUP2 DUP6 PUSH1 0x20 DUP7 ADD PUSH2 0x1E9E JUMP JUMPDEST PUSH2 0x2C1F DUP2 PUSH2 0x1EC6 JUMP JUMPDEST DUP5 ADD SWAP2 POP POP SWAP3 SWAP2 POP POP JUMP JUMPDEST PUSH0 PUSH1 0x80 DUP3 ADD SWAP1 POP PUSH2 0x2C3D PUSH0 DUP4 ADD DUP8 PUSH2 0x1F9D JUMP JUMPDEST PUSH2 0x2C4A PUSH1 0x20 DUP4 ADD DUP7 PUSH2 0x1F9D JUMP JUMPDEST PUSH2 0x2C57 PUSH1 0x40 DUP4 ADD DUP6 PUSH2 0x202D JUMP JUMPDEST DUP2 DUP2 SUB PUSH1 0x60 DUP4 ADD MSTORE PUSH2 0x2C69 DUP2 DUP5 PUSH2 0x2BF2 JUMP JUMPDEST SWAP1 POP SWAP6 SWAP5 POP POP POP POP POP JUMP JUMPDEST PUSH0 DUP2 MLOAD SWAP1 POP PUSH2 0x2C82 DUP2 PUSH2 0x1D69 JUMP JUMPDEST SWAP3 SWAP2 POP POP JUMP JUMPDEST PUSH0 PUSH1 0x20 DUP3 DUP5 SUB SLT ISZERO PUSH2 0x2C9D JUMPI PUSH2 0x2C9C PUSH2 0x1D36 JUMP JUMPDEST JUMPDEST PUSH0 PUSH2 0x2CAA DUP5 DUP3 DUP6 ADD PUSH2 0x2C74 JUMP JUMPDEST SWAP2 POP POP SWAP3 SWAP2 POP POP JUMP INVALID PUSH9 0x747470733A2F2F6970 PUSH7 0x732E696F2F6970 PUSH7 0x732F516D57746D SLOAD CHAINID PUSH20 0x325571623733366A575131574871386656344E43 PC CALLER JUMPI PUSH22 0x7A317A724B507A396A6A38745A743F66696C656E616D PUSH6 0x3D5156452E6A PUSH20 0x6F6EA2646970667358221220A394F77880BC846F DUP8 DUP9 SWAP9 PC SWAP14 0xD5 0x5E SWAP15 PUSH16 0x26A14EF75C6D67CE97C9767B47368364 PUSH20 0x6F6C634300081400330000000000000000000000 "
		},
		"gasEstimates": {
			"creation": {
				"codeDepositCost": "2316400",
				"executionCost": "infinite",
				"totalCost": "infinite"
			},
			"external": {
				"_mintTimes(uint256)": "infinite",
				"approve(address,uint256)": "infinite",
				"balanceOf(address)": "2931",
				"burn(uint256)": "infinite",
				"getApproved(uint256)": "5304",
				"isApprovedForAll(address,address)": "infinite",
				"mintStakingGuarantee(address)": "infinite",
				"name()": "infinite",
				"ownerOf(uint256)": "3006",
				"qveDefiAddress()": "2553",
				"qveToken()": "infinite",
				"safeTransferFrom(address,address,uint256)": "infinite",
				"safeTransferFrom(address,address,uint256,bytes)": "infinite",
				"setApprovalForAll(address,bool)": "infinite",
				"shortenLockup(uint256,address)": "infinite",
				"supportsInterface(bytes4)": "787",
				"symbol()": "infinite",
				"tokenURI(uint256)": "infinite",
				"transferFrom(address,address,uint256)": "infinite"
			},
			"internal": {
				"_afterTokenTransfer(address,address,uint256,uint256)": "69",
				"_baseURI()": "infinite",
				"_beforeTokenTransfer(address,address,uint256,uint256)": "infinite",
				"_setLockup(uint256)": "22283",
				"_setQVEdefi(address)": "infinite"
			}
		},
		"methodIdentifiers": {
			"_mintTimes(uint256)": "1349d5bd",
			"approve(address,uint256)": "095ea7b3",
			"balanceOf(address)": "70a08231",
			"burn(uint256)": "42966c68",
			"getApproved(uint256)": "081812fc",
			"isApprovedForAll(address,address)": "e985e9c5",
			"mintStakingGuarantee(address)": "906f09e0",
			"name()": "06fdde03",
			"ownerOf(uint256)": "6352211e",
			"qveDefiAddress()": "6547113a",
			"qveToken()": "05335410",
			"safeTransferFrom(address,address,uint256)": "42842e0e",
			"safeTransferFrom(address,address,uint256,bytes)": "b88d4fde",
			"setApprovalForAll(address,bool)": "a22cb465",
			"shortenLockup(uint256,address)": "fdb06a31",
			"supportsInterface(bytes4)": "01ffc9a7",
			"symbol()": "95d89b41",
			"tokenURI(uint256)": "c87b56dd",
			"transferFrom(address,address,uint256)": "23b872dd"
		}
	},
	"abi": [
		{
			"inputs": [
				{
					"internalType": "contract QVEtoken",
					"name": "_qveToken",
					"type": "address"
				}
			],
			"stateMutability": "nonpayable",
			"type": "constructor"
		},
		{
			"anonymous": false,
			"inputs": [
				{
					"indexed": true,
					"internalType": "address",
					"name": "owner",
					"type": "address"
				},
				{
					"indexed": true,
					"internalType": "address",
					"name": "approved",
					"type": "address"
				},
				{
					"indexed": true,
					"internalType": "uint256",
					"name": "tokenId",
					"type": "uint256"
				}
			],
			"name": "Approval",
			"type": "event"
		},
		{
			"anonymous": false,
			"inputs": [
				{
					"indexed": true,
					"internalType": "address",
					"name": "owner",
					"type": "address"
				},
				{
					"indexed": true,
					"internalType": "address",
					"name": "operator",
					"type": "address"
				},
				{
					"indexed": false,
					"internalType": "bool",
					"name": "approved",
					"type": "bool"
				}
			],
			"name": "ApprovalForAll",
			"type": "event"
		},
		{
			"anonymous": false,
			"inputs": [
				{
					"indexed": true,
					"internalType": "address",
					"name": "from",
					"type": "address"
				},
				{
					"indexed": true,
					"internalType": "address",
					"name": "to",
					"type": "address"
				},
				{
					"indexed": true,
					"internalType": "uint256",
					"name": "tokenId",
					"type": "uint256"
				}
			],
			"name": "Transfer",
			"type": "event"
		},
		{
			"inputs": [
				{
					"internalType": "uint256",
					"name": "",
					"type": "uint256"
				}
			],
			"name": "_mintTimes",
			"outputs": [
				{
					"internalType": "uint256",
					"name": "",
					"type": "uint256"
				}
			],
			"stateMutability": "view",
			"type": "function"
		},
		{
			"inputs": [
				{
					"internalType": "address",
					"name": "to",
					"type": "address"
				},
				{
					"internalType": "uint256",
					"name": "tokenId",
					"type": "uint256"
				}
			],
			"name": "approve",
			"outputs": [],
			"stateMutability": "nonpayable",
			"type": "function"
		},
		{
			"inputs": [
				{
					"internalType": "address",
					"name": "owner",
					"type": "address"
				}
			],
			"name": "balanceOf",
			"outputs": [
				{
					"internalType": "uint256",
					"name": "",
					"type": "uint256"
				}
			],
			"stateMutability": "view",
			"type": "function"
		},
		{
			"inputs": [
				{
					"internalType": "uint256",
					"name": "tokenId",
					"type": "uint256"
				}
			],
			"name": "burn",
			"outputs": [],
			"stateMutability": "nonpayable",
			"type": "function"
		},
		{
			"inputs": [
				{
					"internalType": "uint256",
					"name": "tokenId",
					"type": "uint256"
				}
			],
			"name": "getApproved",
			"outputs": [
				{
					"internalType": "address",
					"name": "",
					"type": "address"
				}
			],
			"stateMutability": "view",
			"type": "function"
		},
		{
			"inputs": [
				{
					"internalType": "address",
					"name": "owner",
					"type": "address"
				},
				{
					"internalType": "address",
					"name": "operator",
					"type": "address"
				}
			],
			"name": "isApprovedForAll",
			"outputs": [
				{
					"internalType": "bool",
					"name": "",
					"type": "bool"
				}
			],
			"stateMutability": "view",
			"type": "function"
		},
		{
			"inputs": [
				{
					"internalType": "address",
					"name": "staker",
					"type": "address"
				}
			],
			"name": "mintStakingGuarantee",
			"outputs": [
				{
					"internalType": "uint256",
					"name": "",
					"type": "uint256"
				}
			],
			"stateMutability": "nonpayable",
			"type": "function"
		},
		{
			"inputs": [],
			"name": "name",
			"outputs": [
				{
					"internalType": "string",
					"name": "",
					"type": "string"
				}
			],
			"stateMutability": "pure",
			"type": "function"
		},
		{
			"inputs": [
				{
					"internalType": "uint256",
					"name": "tokenId",
					"type": "uint256"
				}
			],
			"name": "ownerOf",
			"outputs": [
				{
					"internalType": "address",
					"name": "",
					"type": "address"
				}
			],
			"stateMutability": "view",
			"type": "function"
		},
		{
			"inputs": [],
			"name": "qveDefiAddress",
			"outputs": [
				{
					"internalType": "address",
					"name": "",
					"type": "address"
				}
			],
			"stateMutability": "view",
			"type": "function"
		},
		{
			"inputs": [],
			"name": "qveToken",
			"outputs": [
				{
					"internalType": "contract QVEtoken",
					"name": "",
					"type": "address"
				}
			],
			"stateMutability": "view",
			"type": "function"
		},
		{
			"inputs": [
				{
					"internalType": "address",
					"name": "from",
					"type": "address"
				},
				{
					"internalType": "address",
					"name": "to",
					"type": "address"
				},
				{
					"internalType": "uint256",
					"name": "tokenId",
					"type": "uint256"
				}
			],
			"name": "safeTransferFrom",
			"outputs": [],
			"stateMutability": "nonpayable",
			"type": "function"
		},
		{
			"inputs": [
				{
					"internalType": "address",
					"name": "from",
					"type": "address"
				},
				{
					"internalType": "address",
					"name": "to",
					"type": "address"
				},
				{
					"internalType": "uint256",
					"name": "tokenId",
					"type": "uint256"
				},
				{
					"internalType": "bytes",
					"name": "data",
					"type": "bytes"
				}
			],
			"name": "safeTransferFrom",
			"outputs": [],
			"stateMutability": "nonpayable",
			"type": "function"
		},
		{
			"inputs": [
				{
					"internalType": "address",
					"name": "operator",
					"type": "address"
				},
				{
					"internalType": "bool",
					"name": "approved",
					"type": "bool"
				}
			],
			"name": "setApprovalForAll",
			"outputs": [],
			"stateMutability": "nonpayable",
			"type": "function"
		},
		{
			"inputs": [
				{
					"internalType": "uint256",
					"name": "QVEamount",
					"type": "uint256"
				},
				{
					"internalType": "address",
					"name": "_qveDefiAddress",
					"type": "address"
				}
			],
			"name": "shortenLockup",
			"outputs": [
				{
					"internalType": "bool",
					"name": "",
					"type": "bool"
				}
			],
			"stateMutability": "nonpayable",
			"type": "function"
		},
		{
			"inputs": [
				{
					"internalType": "bytes4",
					"name": "interfaceId",
					"type": "bytes4"
				}
			],
			"name": "supportsInterface",
			"outputs": [
				{
					"internalType": "bool",
					"name": "",
					"type": "bool"
				}
			],
			"stateMutability": "view",
			"type": "function"
		},
		{
			"inputs": [],
			"name": "symbol",
			"outputs": [
				{
					"internalType": "string",
					"name": "",
					"type": "string"
				}
			],
			"stateMutability": "view",
			"type": "function"
		},
		{
			"inputs": [
				{
					"internalType": "uint256",
					"name": "tokenId",
					"type": "uint256"
				}
			],
			"name": "tokenURI",
			"outputs": [
				{
					"internalType": "string",
					"name": "",
					"type": "string"
				}
			],
			"stateMutability": "view",
			"type": "function"
		},
		{
			"inputs": [
				{
					"internalType": "address",
					"name": "from",
					"type": "address"
				},
				{
					"internalType": "address",
					"name": "to",
					"type": "address"
				},
				{
					"internalType": "uint256",
					"name": "tokenId",
					"type": "uint256"
				}
			],
			"name": "transferFrom",
			"outputs": [],
			"stateMutability": "nonpayable",
			"type": "function"
		}
	]
}