{
	"data": {
		"bytecode": {
			"linkReferences": {},
			"object": "608060405234801561001057600080fd5b5060405161020d38038061020d833981810160405281019061003291906100ed565b806000806101000a81548173ffffffffffffffffffffffffffffffffffffffff021916908373ffffffffffffffffffffffffffffffffffffffff1602179055505061011a565b600080fd5b600073ffffffffffffffffffffffffffffffffffffffff82169050919050565b60006100a88261007d565b9050919050565b60006100ba8261009d565b9050919050565b6100ca816100af565b81146100d557600080fd5b50565b6000815190506100e7816100c1565b92915050565b60006020828403121561010357610102610078565b5b6000610111848285016100d8565b91505092915050565b60e5806101286000396000f3fe6080604052348015600f57600080fd5b506004361060325760003560e01c806342220e67146037578063f189f60c146051575b600080fd5b603d606b565b604051604891906096565b60405180910390f35b60576074565b604051606291906096565b60405180910390f35b60006001905090565b60006001905090565b60008115159050919050565b609081607d565b82525050565b600060208201905060a960008301846089565b9291505056fea26469706673582212209da4f753fd8cabc92099528f75eade0a82cef0924b13ab125e668e9df9b3fae364736f6c63430008120033",
			"opcodes": "PUSH1 0x80 PUSH1 0x40 MSTORE CALLVALUE DUP1 ISZERO PUSH2 0x10 JUMPI PUSH1 0x0 DUP1 REVERT JUMPDEST POP PUSH1 0x40 MLOAD PUSH2 0x20D CODESIZE SUB DUP1 PUSH2 0x20D DUP4 CODECOPY DUP2 DUP2 ADD PUSH1 0x40 MSTORE DUP2 ADD SWAP1 PUSH2 0x32 SWAP2 SWAP1 PUSH2 0xED JUMP JUMPDEST DUP1 PUSH1 0x0 DUP1 PUSH2 0x100 EXP DUP2 SLOAD DUP2 PUSH20 0xFFFFFFFFFFFFFFFFFFFFFFFFFFFFFFFFFFFFFFFF MUL NOT AND SWAP1 DUP4 PUSH20 0xFFFFFFFFFFFFFFFFFFFFFFFFFFFFFFFFFFFFFFFF AND MUL OR SWAP1 SSTORE POP POP PUSH2 0x11A JUMP JUMPDEST PUSH1 0x0 DUP1 REVERT JUMPDEST PUSH1 0x0 PUSH20 0xFFFFFFFFFFFFFFFFFFFFFFFFFFFFFFFFFFFFFFFF DUP3 AND SWAP1 POP SWAP2 SWAP1 POP JUMP JUMPDEST PUSH1 0x0 PUSH2 0xA8 DUP3 PUSH2 0x7D JUMP JUMPDEST SWAP1 POP SWAP2 SWAP1 POP JUMP JUMPDEST PUSH1 0x0 PUSH2 0xBA DUP3 PUSH2 0x9D JUMP JUMPDEST SWAP1 POP SWAP2 SWAP1 POP JUMP JUMPDEST PUSH2 0xCA DUP2 PUSH2 0xAF JUMP JUMPDEST DUP2 EQ PUSH2 0xD5 JUMPI PUSH1 0x0 DUP1 REVERT JUMPDEST POP JUMP JUMPDEST PUSH1 0x0 DUP2 MLOAD SWAP1 POP PUSH2 0xE7 DUP2 PUSH2 0xC1 JUMP JUMPDEST SWAP3 SWAP2 POP POP JUMP JUMPDEST PUSH1 0x0 PUSH1 0x20 DUP3 DUP5 SUB SLT ISZERO PUSH2 0x103 JUMPI PUSH2 0x102 PUSH2 0x78 JUMP JUMPDEST JUMPDEST PUSH1 0x0 PUSH2 0x111 DUP5 DUP3 DUP6 ADD PUSH2 0xD8 JUMP JUMPDEST SWAP2 POP POP SWAP3 SWAP2 POP POP JUMP JUMPDEST PUSH1 0xE5 DUP1 PUSH2 0x128 PUSH1 0x0 CODECOPY PUSH1 0x0 RETURN INVALID PUSH1 0x80 PUSH1 0x40 MSTORE CALLVALUE DUP1 ISZERO PUSH1 0xF JUMPI PUSH1 0x0 DUP1 REVERT JUMPDEST POP PUSH1 0x4 CALLDATASIZE LT PUSH1 0x32 JUMPI PUSH1 0x0 CALLDATALOAD PUSH1 0xE0 SHR DUP1 PUSH4 0x42220E67 EQ PUSH1 0x37 JUMPI DUP1 PUSH4 0xF189F60C EQ PUSH1 0x51 JUMPI JUMPDEST PUSH1 0x0 DUP1 REVERT JUMPDEST PUSH1 0x3D PUSH1 0x6B JUMP JUMPDEST PUSH1 0x40 MLOAD PUSH1 0x48 SWAP2 SWAP1 PUSH1 0x96 JUMP JUMPDEST PUSH1 0x40 MLOAD DUP1 SWAP2 SUB SWAP1 RETURN JUMPDEST PUSH1 0x57 PUSH1 0x74 JUMP JUMPDEST PUSH1 0x40 MLOAD PUSH1 0x62 SWAP2 SWAP1 PUSH1 0x96 JUMP JUMPDEST PUSH1 0x40 MLOAD DUP1 SWAP2 SUB SWAP1 RETURN JUMPDEST PUSH1 0x0 PUSH1 0x1 SWAP1 POP SWAP1 JUMP JUMPDEST PUSH1 0x0 PUSH1 0x1 SWAP1 POP SWAP1 JUMP JUMPDEST PUSH1 0x0 DUP2 ISZERO ISZERO SWAP1 POP SWAP2 SWAP1 POP JUMP JUMPDEST PUSH1 0x90 DUP2 PUSH1 0x7D JUMP JUMPDEST DUP3 MSTORE POP POP JUMP JUMPDEST PUSH1 0x0 PUSH1 0x20 DUP3 ADD SWAP1 POP PUSH1 0xA9 PUSH1 0x0 DUP4 ADD DUP5 PUSH1 0x89 JUMP JUMPDEST SWAP3 SWAP2 POP POP JUMP INVALID LOG2 PUSH5 0x6970667358 0x22 SLT KECCAK256 SWAP14 LOG4 0xF7 MSTORE8 REVERT DUP13 0xAB 0xC9 KECCAK256 SWAP10 MSTORE DUP16 PUSH22 0xEADE0A82CEF0924B13AB125E668E9DF9B3FAE364736F PUSH13 0x63430008120033000000000000 "
		},
		"gasEstimates": {
			"creation": {
				"codeDepositCost": "45800",
				"executionCost": "infinite",
				"totalCost": "infinite"
			},
			"external": {
				"swapETHToQVE()": "343",
				"swapQVEtoETH()": "321"
			}
		},
		"methodIdentifiers": {
			"swapETHToQVE()": "f189f60c",
			"swapQVEtoETH()": "42220e67"
		}
	},
	"abi": [
		{
			"inputs": [
				{
					"internalType": "contract QVEtoken",
					"name": "_qveToken",
					"type": "address"
				}
			],
			"stateMutability": "nonpayable",
			"type": "constructor"
		},
		{
			"inputs": [],
			"name": "swapETHToQVE",
			"outputs": [
				{
					"internalType": "bool",
					"name": "",
					"type": "bool"
				}
			],
			"stateMutability": "nonpayable",
			"type": "function"
		},
		{
			"inputs": [],
			"name": "swapQVEtoETH",
			"outputs": [
				{
					"internalType": "bool",
					"name": "",
					"type": "bool"
				}
			],
			"stateMutability": "nonpayable",
			"type": "function"
		}
	]
}