{
	"data": {
		"bytecode": {
			"linkReferences": {},
			"object": "608060405262015180600060156101000a81548162ffffff021916908362ffffff1602179055506276a7006001553480156200003a57600080fd5b506040516200148a3803806200148a833981810160405281019062000060919062000126565b80600060016101000a81548173ffffffffffffffffffffffffffffffffffffffff021916908373ffffffffffffffffffffffffffffffffffffffff1602179055505062000158565b600080fd5b600073ffffffffffffffffffffffffffffffffffffffff82169050919050565b6000620000da82620000ad565b9050919050565b6000620000ee82620000cd565b9050919050565b6200010081620000e1565b81146200010c57600080fd5b50565b6000815190506200012081620000f5565b92915050565b6000602082840312156200013f576200013e620000a8565b5b60006200014f848285016200010f565b91505092915050565b61132280620001686000396000f3fe608060405234801561001057600080fd5b50600436106100625760003560e01c8063051b637a1461006757806305335410146100975780630917e776146100b55780638e5d763f146100d3578063adc9772e146100f1578063d939381414610121575b600080fd5b610081600480360381019061007c9190610b37565b610151565b60405161008e9190610c69565b60405180910390f35b61009f61020c565b6040516100ac9190610cea565b60405180910390f35b6100bd610232565b6040516100ca9190610d14565b60405180910390f35b6100db61023c565b6040516100e89190610d14565b60405180910390f35b61010b60048036038101906101069190610d5b565b61024d565b6040516101189190610db6565b60405180910390f35b61013b60048036038101906101369190610d5b565b61045e565b6040516101489190610db6565b60405180910390f35b610159610aba565b600460008373ffffffffffffffffffffffffffffffffffffffff1673ffffffffffffffffffffffffffffffffffffffff16815260200190815260200160002060405180604001604052908160008201548152602001600182018054806020026020016040519081016040528092919081815260200182805480156101fc57602002820191906000526020600020905b8154815260200190600101908083116101e8575b5050505050815250509050919050565b600060019054906101000a900473ffffffffffffffffffffffffffffffffffffffff1681565b6000600354905090565b600061024860026106e1565b905090565b600081600060019054906101000a900473ffffffffffffffffffffffffffffffffffffffff1673ffffffffffffffffffffffffffffffffffffffff166370a08231856040518263ffffffff1660e01b81526004016102ab9190610de0565b602060405180830381865afa1580156102c8573d6000803e3d6000fd5b505050506040513d601f19601f820116820180604052508101906102ec9190610e10565b101561032d576040517f08c379a000000000000000000000000000000000000000000000000000000000815260040161032490610ec0565b60405180910390fd5b600060019054906101000a900473ffffffffffffffffffffffffffffffffffffffff1673ffffffffffffffffffffffffffffffffffffffff166329f436b6308530866040518563ffffffff1660e01b815260040161038e9493929190610ee0565b6020604051808303816000875af11580156103ad573d6000803e3d6000fd5b505050506040513d601f19601f820116820180604052508101906103d19190610f51565b610410576040517f08c379a000000000000000000000000000000000000000000000000000000000815260040161040790610fca565b60405180910390fd5b61041a83836106ef565b507fb58845b0a64f92dd8d1ba04f905319d6be2021b57783b3d10155e7e36a84e128838360405161044c929190610fea565b60405180910390a16001905092915050565b60008060009054906101000a900460ff16156104af576040517f08c379a00000000000000000000000000000000000000000000000000000000081526004016104a69061105f565b60405180910390fd5b60016000806101000a81548160ff0219169083151502179055506000600460008573ffffffffffffffffffffffffffffffffffffffff1673ffffffffffffffffffffffffffffffffffffffff168152602001908152602001600020600001540361054e576040517f08c379a0000000000000000000000000000000000000000000000000000000008152600401610545906110cb565b60405180910390fd5b81600460008573ffffffffffffffffffffffffffffffffffffffff1673ffffffffffffffffffffffffffffffffffffffff1681526020019081526020016000206000015410156105d3576040517f08c379a00000000000000000000000000000000000000000000000000000000081526004016105ca9061115d565b60405180910390fd5b600060019054906101000a900473ffffffffffffffffffffffffffffffffffffffff1673ffffffffffffffffffffffffffffffffffffffff1663a9059cbb84846040518363ffffffff1660e01b8152600401610630929190610fea565b6020604051808303816000875af115801561064f573d6000803e3d6000fd5b505050506040513d601f19601f820116820180604052508101906106739190610f51565b6106b2576040517f08c379a00000000000000000000000000000000000000000000000000000000081526004016106a9906111c9565b60405180910390fd5b6106bc82846108ba565b506001905060008060006101000a81548160ff02191690831515021790555092915050565b600081600001549050919050565b600061070682600354610a1c90919063ffffffff16565b60038190555061076182600460008673ffffffffffffffffffffffffffffffffffffffff1673ffffffffffffffffffffffffffffffffffffffff16815260200190815260200160002060000154610a1c90919063ffffffff16565b600460008573ffffffffffffffffffffffffffffffffffffffff1673ffffffffffffffffffffffffffffffffffffffff16815260200190815260200160002060000181905550600460008473ffffffffffffffffffffffffffffffffffffffff1673ffffffffffffffffffffffffffffffffffffffff1681526020019081526020016000206001014290806001815401808255809150506001900390600052602060002001600090919091909150556108636001600560008673ffffffffffffffffffffffffffffffffffffffff1673ffffffffffffffffffffffffffffffffffffffff16815260200190815260200160002054610a1c90919063ffffffff16565b600560008573ffffffffffffffffffffffffffffffffffffffff1673ffffffffffffffffffffffffffffffffffffffff168152602001908152602001600020819055506108b06002610a32565b6001905092915050565b60006108d183600354610a4890919063ffffffff16565b60038190555061092c83600460008573ffffffffffffffffffffffffffffffffffffffff1673ffffffffffffffffffffffffffffffffffffffff16815260200190815260200160002060000154610a4890919063ffffffff16565b600460008473ffffffffffffffffffffffffffffffffffffffff1673ffffffffffffffffffffffffffffffffffffffff168152602001908152602001600020600001819055506109c56001600560008573ffffffffffffffffffffffffffffffffffffffff1673ffffffffffffffffffffffffffffffffffffffff16815260200190815260200160002054610a1c90919063ffffffff16565b600560008473ffffffffffffffffffffffffffffffffffffffff1673ffffffffffffffffffffffffffffffffffffffff16815260200190815260200160002081905550610a126002610a5e565b6001905092915050565b60008183610a2a9190611218565b905092915050565b6001816000016000828254019250508190555050565b60008183610a56919061124c565b905092915050565b60008160000154905060008111610aaa576040517f08c379a0000000000000000000000000000000000000000000000000000000008152600401610aa1906112cc565b60405180910390fd5b6001810382600001819055505050565b604051806040016040528060008152602001606081525090565b600080fd5b600073ffffffffffffffffffffffffffffffffffffffff82169050919050565b6000610b0482610ad9565b9050919050565b610b1481610af9565b8114610b1f57600080fd5b50565b600081359050610b3181610b0b565b92915050565b600060208284031215610b4d57610b4c610ad4565b5b6000610b5b84828501610b22565b91505092915050565b6000819050919050565b610b7781610b64565b82525050565b600081519050919050565b600082825260208201905092915050565b6000819050602082019050919050565b6000610bb58383610b6e565b60208301905092915050565b6000602082019050919050565b6000610bd982610b7d565b610be38185610b88565b9350610bee83610b99565b8060005b83811015610c1f578151610c068882610ba9565b9750610c1183610bc1565b925050600181019050610bf2565b5085935050505092915050565b6000604083016000830151610c446000860182610b6e565b5060208301518482036020860152610c5c8282610bce565b9150508091505092915050565b60006020820190508181036000830152610c838184610c2c565b905092915050565b6000819050919050565b6000610cb0610cab610ca684610ad9565b610c8b565b610ad9565b9050919050565b6000610cc282610c95565b9050919050565b6000610cd482610cb7565b9050919050565b610ce481610cc9565b82525050565b6000602082019050610cff6000830184610cdb565b92915050565b610d0e81610b64565b82525050565b6000602082019050610d296000830184610d05565b92915050565b610d3881610b64565b8114610d4357600080fd5b50565b600081359050610d5581610d2f565b92915050565b60008060408385031215610d7257610d71610ad4565b5b6000610d8085828601610b22565b9250506020610d9185828601610d46565b9150509250929050565b60008115159050919050565b610db081610d9b565b82525050565b6000602082019050610dcb6000830184610da7565b92915050565b610dda81610af9565b82525050565b6000602082019050610df56000830184610dd1565b92915050565b600081519050610e0a81610d2f565b92915050565b600060208284031215610e2657610e25610ad4565b5b6000610e3484828501610dfb565b91505092915050565b600082825260208201905092915050565b7f5761726e203a20496e73756666696369656e74205156452062616c616e63652060008201527f746f207374616b65000000000000000000000000000000000000000000000000602082015250565b6000610eaa602883610e3d565b9150610eb582610e4e565b604082019050919050565b60006020820190508181036000830152610ed981610e9d565b9050919050565b6000608082019050610ef56000830187610dd1565b610f026020830186610dd1565b610f0f6040830185610dd1565b610f1c6060830184610d05565b95945050505050565b610f2e81610d9b565b8114610f3957600080fd5b50565b600081519050610f4b81610f25565b92915050565b600060208284031215610f6757610f66610ad4565b5b6000610f7584828501610f3c565b91505092915050565b7f5761726e203a20766961207472616e73666572206661696c6564000000000000600082015250565b6000610fb4601a83610e3d565b9150610fbf82610f7e565b602082019050919050565b60006020820190508181036000830152610fe381610fa7565b9050919050565b6000604082019050610fff6000830185610dd1565b61100c6020830184610d05565b9392505050565b7f4e6f205265456e7472616e637900000000000000000000000000000000000000600082015250565b6000611049600d83610e3d565b915061105482611013565b602082019050919050565b600060208201905081810360008301526110788161103c565b9050919050565b7f5761726e203a2030207374616b65642062616c616e6365000000000000000000600082015250565b60006110b5601783610e3d565b91506110c08261107f565b602082019050919050565b600060208201905081810360008301526110e4816110a8565b9050919050565b7f5761726e203a20496e73756666696369656e74207374616b65642062616c616e60008201527f6365000000000000000000000000000000000000000000000000000000000000602082015250565b6000611147602283610e3d565b9150611152826110eb565b604082019050919050565b600060208201905081810360008301526111768161113a565b9050919050565b7f5761726e203a2053656e6420515645206572726f720000000000000000000000600082015250565b60006111b3601583610e3d565b91506111be8261117d565b602082019050919050565b600060208201905081810360008301526111e2816111a6565b9050919050565b7f4e487b7100000000000000000000000000000000000000000000000000000000600052601160045260246000fd5b600061122382610b64565b915061122e83610b64565b9250828201905080821115611246576112456111e9565b5b92915050565b600061125782610b64565b915061126283610b64565b925082820390508181111561127a576112796111e9565b5b92915050565b7f436f756e7465723a2064656372656d656e74206f766572666c6f770000000000600082015250565b60006112b6601b83610e3d565b91506112c182611280565b602082019050919050565b600060208201905081810360008301526112e5816112a9565b905091905056fea26469706673582212206413b65551625ed29e8d6cfd65108fc4bea9d073f6536554ab6915102ea82c6064736f6c63430008120033",
			"opcodes": "PUSH1 0x80 PUSH1 0x40 MSTORE PUSH3 0x15180 PUSH1 0x0 PUSH1 0x15 PUSH2 0x100 EXP DUP2 SLOAD DUP2 PUSH3 0xFFFFFF MUL NOT AND SWAP1 DUP4 PUSH3 0xFFFFFF AND MUL OR SWAP1 SSTORE POP PUSH3 0x76A700 PUSH1 0x1 SSTORE CALLVALUE DUP1 ISZERO PUSH3 0x3A JUMPI PUSH1 0x0 DUP1 REVERT JUMPDEST POP PUSH1 0x40 MLOAD PUSH3 0x148A CODESIZE SUB DUP1 PUSH3 0x148A DUP4 CODECOPY DUP2 DUP2 ADD PUSH1 0x40 MSTORE DUP2 ADD SWAP1 PUSH3 0x60 SWAP2 SWAP1 PUSH3 0x126 JUMP JUMPDEST DUP1 PUSH1 0x0 PUSH1 0x1 PUSH2 0x100 EXP DUP2 SLOAD DUP2 PUSH20 0xFFFFFFFFFFFFFFFFFFFFFFFFFFFFFFFFFFFFFFFF MUL NOT AND SWAP1 DUP4 PUSH20 0xFFFFFFFFFFFFFFFFFFFFFFFFFFFFFFFFFFFFFFFF AND MUL OR SWAP1 SSTORE POP POP PUSH3 0x158 JUMP JUMPDEST PUSH1 0x0 DUP1 REVERT JUMPDEST PUSH1 0x0 PUSH20 0xFFFFFFFFFFFFFFFFFFFFFFFFFFFFFFFFFFFFFFFF DUP3 AND SWAP1 POP SWAP2 SWAP1 POP JUMP JUMPDEST PUSH1 0x0 PUSH3 0xDA DUP3 PUSH3 0xAD JUMP JUMPDEST SWAP1 POP SWAP2 SWAP1 POP JUMP JUMPDEST PUSH1 0x0 PUSH3 0xEE DUP3 PUSH3 0xCD JUMP JUMPDEST SWAP1 POP SWAP2 SWAP1 POP JUMP JUMPDEST PUSH3 0x100 DUP2 PUSH3 0xE1 JUMP JUMPDEST DUP2 EQ PUSH3 0x10C JUMPI PUSH1 0x0 DUP1 REVERT JUMPDEST POP JUMP JUMPDEST PUSH1 0x0 DUP2 MLOAD SWAP1 POP PUSH3 0x120 DUP2 PUSH3 0xF5 JUMP JUMPDEST SWAP3 SWAP2 POP POP JUMP JUMPDEST PUSH1 0x0 PUSH1 0x20 DUP3 DUP5 SUB SLT ISZERO PUSH3 0x13F JUMPI PUSH3 0x13E PUSH3 0xA8 JUMP JUMPDEST JUMPDEST PUSH1 0x0 PUSH3 0x14F DUP5 DUP3 DUP6 ADD PUSH3 0x10F JUMP JUMPDEST SWAP2 POP POP SWAP3 SWAP2 POP POP JUMP JUMPDEST PUSH2 0x1322 DUP1 PUSH3 0x168 PUSH1 0x0 CODECOPY PUSH1 0x0 RETURN INVALID PUSH1 0x80 PUSH1 0x40 MSTORE CALLVALUE DUP1 ISZERO PUSH2 0x10 JUMPI PUSH1 0x0 DUP1 REVERT JUMPDEST POP PUSH1 0x4 CALLDATASIZE LT PUSH2 0x62 JUMPI PUSH1 0x0 CALLDATALOAD PUSH1 0xE0 SHR DUP1 PUSH4 0x51B637A EQ PUSH2 0x67 JUMPI DUP1 PUSH4 0x5335410 EQ PUSH2 0x97 JUMPI DUP1 PUSH4 0x917E776 EQ PUSH2 0xB5 JUMPI DUP1 PUSH4 0x8E5D763F EQ PUSH2 0xD3 JUMPI DUP1 PUSH4 0xADC9772E EQ PUSH2 0xF1 JUMPI DUP1 PUSH4 0xD9393814 EQ PUSH2 0x121 JUMPI JUMPDEST PUSH1 0x0 DUP1 REVERT JUMPDEST PUSH2 0x81 PUSH1 0x4 DUP1 CALLDATASIZE SUB DUP2 ADD SWAP1 PUSH2 0x7C SWAP2 SWAP1 PUSH2 0xB37 JUMP JUMPDEST PUSH2 0x151 JUMP JUMPDEST PUSH1 0x40 MLOAD PUSH2 0x8E SWAP2 SWAP1 PUSH2 0xC69 JUMP JUMPDEST PUSH1 0x40 MLOAD DUP1 SWAP2 SUB SWAP1 RETURN JUMPDEST PUSH2 0x9F PUSH2 0x20C JUMP JUMPDEST PUSH1 0x40 MLOAD PUSH2 0xAC SWAP2 SWAP1 PUSH2 0xCEA JUMP JUMPDEST PUSH1 0x40 MLOAD DUP1 SWAP2 SUB SWAP1 RETURN JUMPDEST PUSH2 0xBD PUSH2 0x232 JUMP JUMPDEST PUSH1 0x40 MLOAD PUSH2 0xCA SWAP2 SWAP1 PUSH2 0xD14 JUMP JUMPDEST PUSH1 0x40 MLOAD DUP1 SWAP2 SUB SWAP1 RETURN JUMPDEST PUSH2 0xDB PUSH2 0x23C JUMP JUMPDEST PUSH1 0x40 MLOAD PUSH2 0xE8 SWAP2 SWAP1 PUSH2 0xD14 JUMP JUMPDEST PUSH1 0x40 MLOAD DUP1 SWAP2 SUB SWAP1 RETURN JUMPDEST PUSH2 0x10B PUSH1 0x4 DUP1 CALLDATASIZE SUB DUP2 ADD SWAP1 PUSH2 0x106 SWAP2 SWAP1 PUSH2 0xD5B JUMP JUMPDEST PUSH2 0x24D JUMP JUMPDEST PUSH1 0x40 MLOAD PUSH2 0x118 SWAP2 SWAP1 PUSH2 0xDB6 JUMP JUMPDEST PUSH1 0x40 MLOAD DUP1 SWAP2 SUB SWAP1 RETURN JUMPDEST PUSH2 0x13B PUSH1 0x4 DUP1 CALLDATASIZE SUB DUP2 ADD SWAP1 PUSH2 0x136 SWAP2 SWAP1 PUSH2 0xD5B JUMP JUMPDEST PUSH2 0x45E JUMP JUMPDEST PUSH1 0x40 MLOAD PUSH2 0x148 SWAP2 SWAP1 PUSH2 0xDB6 JUMP JUMPDEST PUSH1 0x40 MLOAD DUP1 SWAP2 SUB SWAP1 RETURN JUMPDEST PUSH2 0x159 PUSH2 0xABA JUMP JUMPDEST PUSH1 0x4 PUSH1 0x0 DUP4 PUSH20 0xFFFFFFFFFFFFFFFFFFFFFFFFFFFFFFFFFFFFFFFF AND PUSH20 0xFFFFFFFFFFFFFFFFFFFFFFFFFFFFFFFFFFFFFFFF AND DUP2 MSTORE PUSH1 0x20 ADD SWAP1 DUP2 MSTORE PUSH1 0x20 ADD PUSH1 0x0 KECCAK256 PUSH1 0x40 MLOAD DUP1 PUSH1 0x40 ADD PUSH1 0x40 MSTORE SWAP1 DUP2 PUSH1 0x0 DUP3 ADD SLOAD DUP2 MSTORE PUSH1 0x20 ADD PUSH1 0x1 DUP3 ADD DUP1 SLOAD DUP1 PUSH1 0x20 MUL PUSH1 0x20 ADD PUSH1 0x40 MLOAD SWAP1 DUP2 ADD PUSH1 0x40 MSTORE DUP1 SWAP3 SWAP2 SWAP1 DUP2 DUP2 MSTORE PUSH1 0x20 ADD DUP3 DUP1 SLOAD DUP1 ISZERO PUSH2 0x1FC JUMPI PUSH1 0x20 MUL DUP3 ADD SWAP2 SWAP1 PUSH1 0x0 MSTORE PUSH1 0x20 PUSH1 0x0 KECCAK256 SWAP1 JUMPDEST DUP2 SLOAD DUP2 MSTORE PUSH1 0x20 ADD SWAP1 PUSH1 0x1 ADD SWAP1 DUP1 DUP4 GT PUSH2 0x1E8 JUMPI JUMPDEST POP POP POP POP POP DUP2 MSTORE POP POP SWAP1 POP SWAP2 SWAP1 POP JUMP JUMPDEST PUSH1 0x0 PUSH1 0x1 SWAP1 SLOAD SWAP1 PUSH2 0x100 EXP SWAP1 DIV PUSH20 0xFFFFFFFFFFFFFFFFFFFFFFFFFFFFFFFFFFFFFFFF AND DUP2 JUMP JUMPDEST PUSH1 0x0 PUSH1 0x3 SLOAD SWAP1 POP SWAP1 JUMP JUMPDEST PUSH1 0x0 PUSH2 0x248 PUSH1 0x2 PUSH2 0x6E1 JUMP JUMPDEST SWAP1 POP SWAP1 JUMP JUMPDEST PUSH1 0x0 DUP2 PUSH1 0x0 PUSH1 0x1 SWAP1 SLOAD SWAP1 PUSH2 0x100 EXP SWAP1 DIV PUSH20 0xFFFFFFFFFFFFFFFFFFFFFFFFFFFFFFFFFFFFFFFF AND PUSH20 0xFFFFFFFFFFFFFFFFFFFFFFFFFFFFFFFFFFFFFFFF AND PUSH4 0x70A08231 DUP6 PUSH1 0x40 MLOAD DUP3 PUSH4 0xFFFFFFFF AND PUSH1 0xE0 SHL DUP2 MSTORE PUSH1 0x4 ADD PUSH2 0x2AB SWAP2 SWAP1 PUSH2 0xDE0 JUMP JUMPDEST PUSH1 0x20 PUSH1 0x40 MLOAD DUP1 DUP4 SUB DUP2 DUP7 GAS STATICCALL ISZERO DUP1 ISZERO PUSH2 0x2C8 JUMPI RETURNDATASIZE PUSH1 0x0 DUP1 RETURNDATACOPY RETURNDATASIZE PUSH1 0x0 REVERT JUMPDEST POP POP POP POP PUSH1 0x40 MLOAD RETURNDATASIZE PUSH1 0x1F NOT PUSH1 0x1F DUP3 ADD AND DUP3 ADD DUP1 PUSH1 0x40 MSTORE POP DUP2 ADD SWAP1 PUSH2 0x2EC SWAP2 SWAP1 PUSH2 0xE10 JUMP JUMPDEST LT ISZERO PUSH2 0x32D JUMPI PUSH1 0x40 MLOAD PUSH32 0x8C379A000000000000000000000000000000000000000000000000000000000 DUP2 MSTORE PUSH1 0x4 ADD PUSH2 0x324 SWAP1 PUSH2 0xEC0 JUMP JUMPDEST PUSH1 0x40 MLOAD DUP1 SWAP2 SUB SWAP1 REVERT JUMPDEST PUSH1 0x0 PUSH1 0x1 SWAP1 SLOAD SWAP1 PUSH2 0x100 EXP SWAP1 DIV PUSH20 0xFFFFFFFFFFFFFFFFFFFFFFFFFFFFFFFFFFFFFFFF AND PUSH20 0xFFFFFFFFFFFFFFFFFFFFFFFFFFFFFFFFFFFFFFFF AND PUSH4 0x29F436B6 ADDRESS DUP6 ADDRESS DUP7 PUSH1 0x40 MLOAD DUP6 PUSH4 0xFFFFFFFF AND PUSH1 0xE0 SHL DUP2 MSTORE PUSH1 0x4 ADD PUSH2 0x38E SWAP5 SWAP4 SWAP3 SWAP2 SWAP1 PUSH2 0xEE0 JUMP JUMPDEST PUSH1 0x20 PUSH1 0x40 MLOAD DUP1 DUP4 SUB DUP2 PUSH1 0x0 DUP8 GAS CALL ISZERO DUP1 ISZERO PUSH2 0x3AD JUMPI RETURNDATASIZE PUSH1 0x0 DUP1 RETURNDATACOPY RETURNDATASIZE PUSH1 0x0 REVERT JUMPDEST POP POP POP POP PUSH1 0x40 MLOAD RETURNDATASIZE PUSH1 0x1F NOT PUSH1 0x1F DUP3 ADD AND DUP3 ADD DUP1 PUSH1 0x40 MSTORE POP DUP2 ADD SWAP1 PUSH2 0x3D1 SWAP2 SWAP1 PUSH2 0xF51 JUMP JUMPDEST PUSH2 0x410 JUMPI PUSH1 0x40 MLOAD PUSH32 0x8C379A000000000000000000000000000000000000000000000000000000000 DUP2 MSTORE PUSH1 0x4 ADD PUSH2 0x407 SWAP1 PUSH2 0xFCA JUMP JUMPDEST PUSH1 0x40 MLOAD DUP1 SWAP2 SUB SWAP1 REVERT JUMPDEST PUSH2 0x41A DUP4 DUP4 PUSH2 0x6EF JUMP JUMPDEST POP PUSH32 0xB58845B0A64F92DD8D1BA04F905319D6BE2021B57783B3D10155E7E36A84E128 DUP4 DUP4 PUSH1 0x40 MLOAD PUSH2 0x44C SWAP3 SWAP2 SWAP1 PUSH2 0xFEA JUMP JUMPDEST PUSH1 0x40 MLOAD DUP1 SWAP2 SUB SWAP1 LOG1 PUSH1 0x1 SWAP1 POP SWAP3 SWAP2 POP POP JUMP JUMPDEST PUSH1 0x0 DUP1 PUSH1 0x0 SWAP1 SLOAD SWAP1 PUSH2 0x100 EXP SWAP1 DIV PUSH1 0xFF AND ISZERO PUSH2 0x4AF JUMPI PUSH1 0x40 MLOAD PUSH32 0x8C379A000000000000000000000000000000000000000000000000000000000 DUP2 MSTORE PUSH1 0x4 ADD PUSH2 0x4A6 SWAP1 PUSH2 0x105F JUMP JUMPDEST PUSH1 0x40 MLOAD DUP1 SWAP2 SUB SWAP1 REVERT JUMPDEST PUSH1 0x1 PUSH1 0x0 DUP1 PUSH2 0x100 EXP DUP2 SLOAD DUP2 PUSH1 0xFF MUL NOT AND SWAP1 DUP4 ISZERO ISZERO MUL OR SWAP1 SSTORE POP PUSH1 0x0 PUSH1 0x4 PUSH1 0x0 DUP6 PUSH20 0xFFFFFFFFFFFFFFFFFFFFFFFFFFFFFFFFFFFFFFFF AND PUSH20 0xFFFFFFFFFFFFFFFFFFFFFFFFFFFFFFFFFFFFFFFF AND DUP2 MSTORE PUSH1 0x20 ADD SWAP1 DUP2 MSTORE PUSH1 0x20 ADD PUSH1 0x0 KECCAK256 PUSH1 0x0 ADD SLOAD SUB PUSH2 0x54E JUMPI PUSH1 0x40 MLOAD PUSH32 0x8C379A000000000000000000000000000000000000000000000000000000000 DUP2 MSTORE PUSH1 0x4 ADD PUSH2 0x545 SWAP1 PUSH2 0x10CB JUMP JUMPDEST PUSH1 0x40 MLOAD DUP1 SWAP2 SUB SWAP1 REVERT JUMPDEST DUP2 PUSH1 0x4 PUSH1 0x0 DUP6 PUSH20 0xFFFFFFFFFFFFFFFFFFFFFFFFFFFFFFFFFFFFFFFF AND PUSH20 0xFFFFFFFFFFFFFFFFFFFFFFFFFFFFFFFFFFFFFFFF AND DUP2 MSTORE PUSH1 0x20 ADD SWAP1 DUP2 MSTORE PUSH1 0x20 ADD PUSH1 0x0 KECCAK256 PUSH1 0x0 ADD SLOAD LT ISZERO PUSH2 0x5D3 JUMPI PUSH1 0x40 MLOAD PUSH32 0x8C379A000000000000000000000000000000000000000000000000000000000 DUP2 MSTORE PUSH1 0x4 ADD PUSH2 0x5CA SWAP1 PUSH2 0x115D JUMP JUMPDEST PUSH1 0x40 MLOAD DUP1 SWAP2 SUB SWAP1 REVERT JUMPDEST PUSH1 0x0 PUSH1 0x1 SWAP1 SLOAD SWAP1 PUSH2 0x100 EXP SWAP1 DIV PUSH20 0xFFFFFFFFFFFFFFFFFFFFFFFFFFFFFFFFFFFFFFFF AND PUSH20 0xFFFFFFFFFFFFFFFFFFFFFFFFFFFFFFFFFFFFFFFF AND PUSH4 0xA9059CBB DUP5 DUP5 PUSH1 0x40 MLOAD DUP4 PUSH4 0xFFFFFFFF AND PUSH1 0xE0 SHL DUP2 MSTORE PUSH1 0x4 ADD PUSH2 0x630 SWAP3 SWAP2 SWAP1 PUSH2 0xFEA JUMP JUMPDEST PUSH1 0x20 PUSH1 0x40 MLOAD DUP1 DUP4 SUB DUP2 PUSH1 0x0 DUP8 GAS CALL ISZERO DUP1 ISZERO PUSH2 0x64F JUMPI RETURNDATASIZE PUSH1 0x0 DUP1 RETURNDATACOPY RETURNDATASIZE PUSH1 0x0 REVERT JUMPDEST POP POP POP POP PUSH1 0x40 MLOAD RETURNDATASIZE PUSH1 0x1F NOT PUSH1 0x1F DUP3 ADD AND DUP3 ADD DUP1 PUSH1 0x40 MSTORE POP DUP2 ADD SWAP1 PUSH2 0x673 SWAP2 SWAP1 PUSH2 0xF51 JUMP JUMPDEST PUSH2 0x6B2 JUMPI PUSH1 0x40 MLOAD PUSH32 0x8C379A000000000000000000000000000000000000000000000000000000000 DUP2 MSTORE PUSH1 0x4 ADD PUSH2 0x6A9 SWAP1 PUSH2 0x11C9 JUMP JUMPDEST PUSH1 0x40 MLOAD DUP1 SWAP2 SUB SWAP1 REVERT JUMPDEST PUSH2 0x6BC DUP3 DUP5 PUSH2 0x8BA JUMP JUMPDEST POP PUSH1 0x1 SWAP1 POP PUSH1 0x0 DUP1 PUSH1 0x0 PUSH2 0x100 EXP DUP2 SLOAD DUP2 PUSH1 0xFF MUL NOT AND SWAP1 DUP4 ISZERO ISZERO MUL OR SWAP1 SSTORE POP SWAP3 SWAP2 POP POP JUMP JUMPDEST PUSH1 0x0 DUP2 PUSH1 0x0 ADD SLOAD SWAP1 POP SWAP2 SWAP1 POP JUMP JUMPDEST PUSH1 0x0 PUSH2 0x706 DUP3 PUSH1 0x3 SLOAD PUSH2 0xA1C SWAP1 SWAP2 SWAP1 PUSH4 0xFFFFFFFF AND JUMP JUMPDEST PUSH1 0x3 DUP2 SWAP1 SSTORE POP PUSH2 0x761 DUP3 PUSH1 0x4 PUSH1 0x0 DUP7 PUSH20 0xFFFFFFFFFFFFFFFFFFFFFFFFFFFFFFFFFFFFFFFF AND PUSH20 0xFFFFFFFFFFFFFFFFFFFFFFFFFFFFFFFFFFFFFFFF AND DUP2 MSTORE PUSH1 0x20 ADD SWAP1 DUP2 MSTORE PUSH1 0x20 ADD PUSH1 0x0 KECCAK256 PUSH1 0x0 ADD SLOAD PUSH2 0xA1C SWAP1 SWAP2 SWAP1 PUSH4 0xFFFFFFFF AND JUMP JUMPDEST PUSH1 0x4 PUSH1 0x0 DUP6 PUSH20 0xFFFFFFFFFFFFFFFFFFFFFFFFFFFFFFFFFFFFFFFF AND PUSH20 0xFFFFFFFFFFFFFFFFFFFFFFFFFFFFFFFFFFFFFFFF AND DUP2 MSTORE PUSH1 0x20 ADD SWAP1 DUP2 MSTORE PUSH1 0x20 ADD PUSH1 0x0 KECCAK256 PUSH1 0x0 ADD DUP2 SWAP1 SSTORE POP PUSH1 0x4 PUSH1 0x0 DUP5 PUSH20 0xFFFFFFFFFFFFFFFFFFFFFFFFFFFFFFFFFFFFFFFF AND PUSH20 0xFFFFFFFFFFFFFFFFFFFFFFFFFFFFFFFFFFFFFFFF AND DUP2 MSTORE PUSH1 0x20 ADD SWAP1 DUP2 MSTORE PUSH1 0x20 ADD PUSH1 0x0 KECCAK256 PUSH1 0x1 ADD TIMESTAMP SWAP1 DUP1 PUSH1 0x1 DUP2 SLOAD ADD DUP1 DUP3 SSTORE DUP1 SWAP2 POP POP PUSH1 0x1 SWAP1 SUB SWAP1 PUSH1 0x0 MSTORE PUSH1 0x20 PUSH1 0x0 KECCAK256 ADD PUSH1 0x0 SWAP1 SWAP2 SWAP1 SWAP2 SWAP1 SWAP2 POP SSTORE PUSH2 0x863 PUSH1 0x1 PUSH1 0x5 PUSH1 0x0 DUP7 PUSH20 0xFFFFFFFFFFFFFFFFFFFFFFFFFFFFFFFFFFFFFFFF AND PUSH20 0xFFFFFFFFFFFFFFFFFFFFFFFFFFFFFFFFFFFFFFFF AND DUP2 MSTORE PUSH1 0x20 ADD SWAP1 DUP2 MSTORE PUSH1 0x20 ADD PUSH1 0x0 KECCAK256 SLOAD PUSH2 0xA1C SWAP1 SWAP2 SWAP1 PUSH4 0xFFFFFFFF AND JUMP JUMPDEST PUSH1 0x5 PUSH1 0x0 DUP6 PUSH20 0xFFFFFFFFFFFFFFFFFFFFFFFFFFFFFFFFFFFFFFFF AND PUSH20 0xFFFFFFFFFFFFFFFFFFFFFFFFFFFFFFFFFFFFFFFF AND DUP2 MSTORE PUSH1 0x20 ADD SWAP1 DUP2 MSTORE PUSH1 0x20 ADD PUSH1 0x0 KECCAK256 DUP2 SWAP1 SSTORE POP PUSH2 0x8B0 PUSH1 0x2 PUSH2 0xA32 JUMP JUMPDEST PUSH1 0x1 SWAP1 POP SWAP3 SWAP2 POP POP JUMP JUMPDEST PUSH1 0x0 PUSH2 0x8D1 DUP4 PUSH1 0x3 SLOAD PUSH2 0xA48 SWAP1 SWAP2 SWAP1 PUSH4 0xFFFFFFFF AND JUMP JUMPDEST PUSH1 0x3 DUP2 SWAP1 SSTORE POP PUSH2 0x92C DUP4 PUSH1 0x4 PUSH1 0x0 DUP6 PUSH20 0xFFFFFFFFFFFFFFFFFFFFFFFFFFFFFFFFFFFFFFFF AND PUSH20 0xFFFFFFFFFFFFFFFFFFFFFFFFFFFFFFFFFFFFFFFF AND DUP2 MSTORE PUSH1 0x20 ADD SWAP1 DUP2 MSTORE PUSH1 0x20 ADD PUSH1 0x0 KECCAK256 PUSH1 0x0 ADD SLOAD PUSH2 0xA48 SWAP1 SWAP2 SWAP1 PUSH4 0xFFFFFFFF AND JUMP JUMPDEST PUSH1 0x4 PUSH1 0x0 DUP5 PUSH20 0xFFFFFFFFFFFFFFFFFFFFFFFFFFFFFFFFFFFFFFFF AND PUSH20 0xFFFFFFFFFFFFFFFFFFFFFFFFFFFFFFFFFFFFFFFF AND DUP2 MSTORE PUSH1 0x20 ADD SWAP1 DUP2 MSTORE PUSH1 0x20 ADD PUSH1 0x0 KECCAK256 PUSH1 0x0 ADD DUP2 SWAP1 SSTORE POP PUSH2 0x9C5 PUSH1 0x1 PUSH1 0x5 PUSH1 0x0 DUP6 PUSH20 0xFFFFFFFFFFFFFFFFFFFFFFFFFFFFFFFFFFFFFFFF AND PUSH20 0xFFFFFFFFFFFFFFFFFFFFFFFFFFFFFFFFFFFFFFFF AND DUP2 MSTORE PUSH1 0x20 ADD SWAP1 DUP2 MSTORE PUSH1 0x20 ADD PUSH1 0x0 KECCAK256 SLOAD PUSH2 0xA1C SWAP1 SWAP2 SWAP1 PUSH4 0xFFFFFFFF AND JUMP JUMPDEST PUSH1 0x5 PUSH1 0x0 DUP5 PUSH20 0xFFFFFFFFFFFFFFFFFFFFFFFFFFFFFFFFFFFFFFFF AND PUSH20 0xFFFFFFFFFFFFFFFFFFFFFFFFFFFFFFFFFFFFFFFF AND DUP2 MSTORE PUSH1 0x20 ADD SWAP1 DUP2 MSTORE PUSH1 0x20 ADD PUSH1 0x0 KECCAK256 DUP2 SWAP1 SSTORE POP PUSH2 0xA12 PUSH1 0x2 PUSH2 0xA5E JUMP JUMPDEST PUSH1 0x1 SWAP1 POP SWAP3 SWAP2 POP POP JUMP JUMPDEST PUSH1 0x0 DUP2 DUP4 PUSH2 0xA2A SWAP2 SWAP1 PUSH2 0x1218 JUMP JUMPDEST SWAP1 POP SWAP3 SWAP2 POP POP JUMP JUMPDEST PUSH1 0x1 DUP2 PUSH1 0x0 ADD PUSH1 0x0 DUP3 DUP3 SLOAD ADD SWAP3 POP POP DUP2 SWAP1 SSTORE POP POP JUMP JUMPDEST PUSH1 0x0 DUP2 DUP4 PUSH2 0xA56 SWAP2 SWAP1 PUSH2 0x124C JUMP JUMPDEST SWAP1 POP SWAP3 SWAP2 POP POP JUMP JUMPDEST PUSH1 0x0 DUP2 PUSH1 0x0 ADD SLOAD SWAP1 POP PUSH1 0x0 DUP2 GT PUSH2 0xAAA JUMPI PUSH1 0x40 MLOAD PUSH32 0x8C379A000000000000000000000000000000000000000000000000000000000 DUP2 MSTORE PUSH1 0x4 ADD PUSH2 0xAA1 SWAP1 PUSH2 0x12CC JUMP JUMPDEST PUSH1 0x40 MLOAD DUP1 SWAP2 SUB SWAP1 REVERT JUMPDEST PUSH1 0x1 DUP2 SUB DUP3 PUSH1 0x0 ADD DUP2 SWAP1 SSTORE POP POP POP JUMP JUMPDEST PUSH1 0x40 MLOAD DUP1 PUSH1 0x40 ADD PUSH1 0x40 MSTORE DUP1 PUSH1 0x0 DUP2 MSTORE PUSH1 0x20 ADD PUSH1 0x60 DUP2 MSTORE POP SWAP1 JUMP JUMPDEST PUSH1 0x0 DUP1 REVERT JUMPDEST PUSH1 0x0 PUSH20 0xFFFFFFFFFFFFFFFFFFFFFFFFFFFFFFFFFFFFFFFF DUP3 AND SWAP1 POP SWAP2 SWAP1 POP JUMP JUMPDEST PUSH1 0x0 PUSH2 0xB04 DUP3 PUSH2 0xAD9 JUMP JUMPDEST SWAP1 POP SWAP2 SWAP1 POP JUMP JUMPDEST PUSH2 0xB14 DUP2 PUSH2 0xAF9 JUMP JUMPDEST DUP2 EQ PUSH2 0xB1F JUMPI PUSH1 0x0 DUP1 REVERT JUMPDEST POP JUMP JUMPDEST PUSH1 0x0 DUP2 CALLDATALOAD SWAP1 POP PUSH2 0xB31 DUP2 PUSH2 0xB0B JUMP JUMPDEST SWAP3 SWAP2 POP POP JUMP JUMPDEST PUSH1 0x0 PUSH1 0x20 DUP3 DUP5 SUB SLT ISZERO PUSH2 0xB4D JUMPI PUSH2 0xB4C PUSH2 0xAD4 JUMP JUMPDEST JUMPDEST PUSH1 0x0 PUSH2 0xB5B DUP5 DUP3 DUP6 ADD PUSH2 0xB22 JUMP JUMPDEST SWAP2 POP POP SWAP3 SWAP2 POP POP JUMP JUMPDEST PUSH1 0x0 DUP2 SWAP1 POP SWAP2 SWAP1 POP JUMP JUMPDEST PUSH2 0xB77 DUP2 PUSH2 0xB64 JUMP JUMPDEST DUP3 MSTORE POP POP JUMP JUMPDEST PUSH1 0x0 DUP2 MLOAD SWAP1 POP SWAP2 SWAP1 POP JUMP JUMPDEST PUSH1 0x0 DUP3 DUP3 MSTORE PUSH1 0x20 DUP3 ADD SWAP1 POP SWAP3 SWAP2 POP POP JUMP JUMPDEST PUSH1 0x0 DUP2 SWAP1 POP PUSH1 0x20 DUP3 ADD SWAP1 POP SWAP2 SWAP1 POP JUMP JUMPDEST PUSH1 0x0 PUSH2 0xBB5 DUP4 DUP4 PUSH2 0xB6E JUMP JUMPDEST PUSH1 0x20 DUP4 ADD SWAP1 POP SWAP3 SWAP2 POP POP JUMP JUMPDEST PUSH1 0x0 PUSH1 0x20 DUP3 ADD SWAP1 POP SWAP2 SWAP1 POP JUMP JUMPDEST PUSH1 0x0 PUSH2 0xBD9 DUP3 PUSH2 0xB7D JUMP JUMPDEST PUSH2 0xBE3 DUP2 DUP6 PUSH2 0xB88 JUMP JUMPDEST SWAP4 POP PUSH2 0xBEE DUP4 PUSH2 0xB99 JUMP JUMPDEST DUP1 PUSH1 0x0 JUMPDEST DUP4 DUP2 LT ISZERO PUSH2 0xC1F JUMPI DUP2 MLOAD PUSH2 0xC06 DUP9 DUP3 PUSH2 0xBA9 JUMP JUMPDEST SWAP8 POP PUSH2 0xC11 DUP4 PUSH2 0xBC1 JUMP JUMPDEST SWAP3 POP POP PUSH1 0x1 DUP2 ADD SWAP1 POP PUSH2 0xBF2 JUMP JUMPDEST POP DUP6 SWAP4 POP POP POP POP SWAP3 SWAP2 POP POP JUMP JUMPDEST PUSH1 0x0 PUSH1 0x40 DUP4 ADD PUSH1 0x0 DUP4 ADD MLOAD PUSH2 0xC44 PUSH1 0x0 DUP7 ADD DUP3 PUSH2 0xB6E JUMP JUMPDEST POP PUSH1 0x20 DUP4 ADD MLOAD DUP5 DUP3 SUB PUSH1 0x20 DUP7 ADD MSTORE PUSH2 0xC5C DUP3 DUP3 PUSH2 0xBCE JUMP JUMPDEST SWAP2 POP POP DUP1 SWAP2 POP POP SWAP3 SWAP2 POP POP JUMP JUMPDEST PUSH1 0x0 PUSH1 0x20 DUP3 ADD SWAP1 POP DUP2 DUP2 SUB PUSH1 0x0 DUP4 ADD MSTORE PUSH2 0xC83 DUP2 DUP5 PUSH2 0xC2C JUMP JUMPDEST SWAP1 POP SWAP3 SWAP2 POP POP JUMP JUMPDEST PUSH1 0x0 DUP2 SWAP1 POP SWAP2 SWAP1 POP JUMP JUMPDEST PUSH1 0x0 PUSH2 0xCB0 PUSH2 0xCAB PUSH2 0xCA6 DUP5 PUSH2 0xAD9 JUMP JUMPDEST PUSH2 0xC8B JUMP JUMPDEST PUSH2 0xAD9 JUMP JUMPDEST SWAP1 POP SWAP2 SWAP1 POP JUMP JUMPDEST PUSH1 0x0 PUSH2 0xCC2 DUP3 PUSH2 0xC95 JUMP JUMPDEST SWAP1 POP SWAP2 SWAP1 POP JUMP JUMPDEST PUSH1 0x0 PUSH2 0xCD4 DUP3 PUSH2 0xCB7 JUMP JUMPDEST SWAP1 POP SWAP2 SWAP1 POP JUMP JUMPDEST PUSH2 0xCE4 DUP2 PUSH2 0xCC9 JUMP JUMPDEST DUP3 MSTORE POP POP JUMP JUMPDEST PUSH1 0x0 PUSH1 0x20 DUP3 ADD SWAP1 POP PUSH2 0xCFF PUSH1 0x0 DUP4 ADD DUP5 PUSH2 0xCDB JUMP JUMPDEST SWAP3 SWAP2 POP POP JUMP JUMPDEST PUSH2 0xD0E DUP2 PUSH2 0xB64 JUMP JUMPDEST DUP3 MSTORE POP POP JUMP JUMPDEST PUSH1 0x0 PUSH1 0x20 DUP3 ADD SWAP1 POP PUSH2 0xD29 PUSH1 0x0 DUP4 ADD DUP5 PUSH2 0xD05 JUMP JUMPDEST SWAP3 SWAP2 POP POP JUMP JUMPDEST PUSH2 0xD38 DUP2 PUSH2 0xB64 JUMP JUMPDEST DUP2 EQ PUSH2 0xD43 JUMPI PUSH1 0x0 DUP1 REVERT JUMPDEST POP JUMP JUMPDEST PUSH1 0x0 DUP2 CALLDATALOAD SWAP1 POP PUSH2 0xD55 DUP2 PUSH2 0xD2F JUMP JUMPDEST SWAP3 SWAP2 POP POP JUMP JUMPDEST PUSH1 0x0 DUP1 PUSH1 0x40 DUP4 DUP6 SUB SLT ISZERO PUSH2 0xD72 JUMPI PUSH2 0xD71 PUSH2 0xAD4 JUMP JUMPDEST JUMPDEST PUSH1 0x0 PUSH2 0xD80 DUP6 DUP3 DUP7 ADD PUSH2 0xB22 JUMP JUMPDEST SWAP3 POP POP PUSH1 0x20 PUSH2 0xD91 DUP6 DUP3 DUP7 ADD PUSH2 0xD46 JUMP JUMPDEST SWAP2 POP POP SWAP3 POP SWAP3 SWAP1 POP JUMP JUMPDEST PUSH1 0x0 DUP2 ISZERO ISZERO SWAP1 POP SWAP2 SWAP1 POP JUMP JUMPDEST PUSH2 0xDB0 DUP2 PUSH2 0xD9B JUMP JUMPDEST DUP3 MSTORE POP POP JUMP JUMPDEST PUSH1 0x0 PUSH1 0x20 DUP3 ADD SWAP1 POP PUSH2 0xDCB PUSH1 0x0 DUP4 ADD DUP5 PUSH2 0xDA7 JUMP JUMPDEST SWAP3 SWAP2 POP POP JUMP JUMPDEST PUSH2 0xDDA DUP2 PUSH2 0xAF9 JUMP JUMPDEST DUP3 MSTORE POP POP JUMP JUMPDEST PUSH1 0x0 PUSH1 0x20 DUP3 ADD SWAP1 POP PUSH2 0xDF5 PUSH1 0x0 DUP4 ADD DUP5 PUSH2 0xDD1 JUMP JUMPDEST SWAP3 SWAP2 POP POP JUMP JUMPDEST PUSH1 0x0 DUP2 MLOAD SWAP1 POP PUSH2 0xE0A DUP2 PUSH2 0xD2F JUMP JUMPDEST SWAP3 SWAP2 POP POP JUMP JUMPDEST PUSH1 0x0 PUSH1 0x20 DUP3 DUP5 SUB SLT ISZERO PUSH2 0xE26 JUMPI PUSH2 0xE25 PUSH2 0xAD4 JUMP JUMPDEST JUMPDEST PUSH1 0x0 PUSH2 0xE34 DUP5 DUP3 DUP6 ADD PUSH2 0xDFB JUMP JUMPDEST SWAP2 POP POP SWAP3 SWAP2 POP POP JUMP JUMPDEST PUSH1 0x0 DUP3 DUP3 MSTORE PUSH1 0x20 DUP3 ADD SWAP1 POP SWAP3 SWAP2 POP POP JUMP JUMPDEST PUSH32 0x5761726E203A20496E73756666696369656E74205156452062616C616E636520 PUSH1 0x0 DUP3 ADD MSTORE PUSH32 0x746F207374616B65000000000000000000000000000000000000000000000000 PUSH1 0x20 DUP3 ADD MSTORE POP JUMP JUMPDEST PUSH1 0x0 PUSH2 0xEAA PUSH1 0x28 DUP4 PUSH2 0xE3D JUMP JUMPDEST SWAP2 POP PUSH2 0xEB5 DUP3 PUSH2 0xE4E JUMP JUMPDEST PUSH1 0x40 DUP3 ADD SWAP1 POP SWAP2 SWAP1 POP JUMP JUMPDEST PUSH1 0x0 PUSH1 0x20 DUP3 ADD SWAP1 POP DUP2 DUP2 SUB PUSH1 0x0 DUP4 ADD MSTORE PUSH2 0xED9 DUP2 PUSH2 0xE9D JUMP JUMPDEST SWAP1 POP SWAP2 SWAP1 POP JUMP JUMPDEST PUSH1 0x0 PUSH1 0x80 DUP3 ADD SWAP1 POP PUSH2 0xEF5 PUSH1 0x0 DUP4 ADD DUP8 PUSH2 0xDD1 JUMP JUMPDEST PUSH2 0xF02 PUSH1 0x20 DUP4 ADD DUP7 PUSH2 0xDD1 JUMP JUMPDEST PUSH2 0xF0F PUSH1 0x40 DUP4 ADD DUP6 PUSH2 0xDD1 JUMP JUMPDEST PUSH2 0xF1C PUSH1 0x60 DUP4 ADD DUP5 PUSH2 0xD05 JUMP JUMPDEST SWAP6 SWAP5 POP POP POP POP POP JUMP JUMPDEST PUSH2 0xF2E DUP2 PUSH2 0xD9B JUMP JUMPDEST DUP2 EQ PUSH2 0xF39 JUMPI PUSH1 0x0 DUP1 REVERT JUMPDEST POP JUMP JUMPDEST PUSH1 0x0 DUP2 MLOAD SWAP1 POP PUSH2 0xF4B DUP2 PUSH2 0xF25 JUMP JUMPDEST SWAP3 SWAP2 POP POP JUMP JUMPDEST PUSH1 0x0 PUSH1 0x20 DUP3 DUP5 SUB SLT ISZERO PUSH2 0xF67 JUMPI PUSH2 0xF66 PUSH2 0xAD4 JUMP JUMPDEST JUMPDEST PUSH1 0x0 PUSH2 0xF75 DUP5 DUP3 DUP6 ADD PUSH2 0xF3C JUMP JUMPDEST SWAP2 POP POP SWAP3 SWAP2 POP POP JUMP JUMPDEST PUSH32 0x5761726E203A20766961207472616E73666572206661696C6564000000000000 PUSH1 0x0 DUP3 ADD MSTORE POP JUMP JUMPDEST PUSH1 0x0 PUSH2 0xFB4 PUSH1 0x1A DUP4 PUSH2 0xE3D JUMP JUMPDEST SWAP2 POP PUSH2 0xFBF DUP3 PUSH2 0xF7E JUMP JUMPDEST PUSH1 0x20 DUP3 ADD SWAP1 POP SWAP2 SWAP1 POP JUMP JUMPDEST PUSH1 0x0 PUSH1 0x20 DUP3 ADD SWAP1 POP DUP2 DUP2 SUB PUSH1 0x0 DUP4 ADD MSTORE PUSH2 0xFE3 DUP2 PUSH2 0xFA7 JUMP JUMPDEST SWAP1 POP SWAP2 SWAP1 POP JUMP JUMPDEST PUSH1 0x0 PUSH1 0x40 DUP3 ADD SWAP1 POP PUSH2 0xFFF PUSH1 0x0 DUP4 ADD DUP6 PUSH2 0xDD1 JUMP JUMPDEST PUSH2 0x100C PUSH1 0x20 DUP4 ADD DUP5 PUSH2 0xD05 JUMP JUMPDEST SWAP4 SWAP3 POP POP POP JUMP JUMPDEST PUSH32 0x4E6F205265456E7472616E637900000000000000000000000000000000000000 PUSH1 0x0 DUP3 ADD MSTORE POP JUMP JUMPDEST PUSH1 0x0 PUSH2 0x1049 PUSH1 0xD DUP4 PUSH2 0xE3D JUMP JUMPDEST SWAP2 POP PUSH2 0x1054 DUP3 PUSH2 0x1013 JUMP JUMPDEST PUSH1 0x20 DUP3 ADD SWAP1 POP SWAP2 SWAP1 POP JUMP JUMPDEST PUSH1 0x0 PUSH1 0x20 DUP3 ADD SWAP1 POP DUP2 DUP2 SUB PUSH1 0x0 DUP4 ADD MSTORE PUSH2 0x1078 DUP2 PUSH2 0x103C JUMP JUMPDEST SWAP1 POP SWAP2 SWAP1 POP JUMP JUMPDEST PUSH32 0x5761726E203A2030207374616B65642062616C616E6365000000000000000000 PUSH1 0x0 DUP3 ADD MSTORE POP JUMP JUMPDEST PUSH1 0x0 PUSH2 0x10B5 PUSH1 0x17 DUP4 PUSH2 0xE3D JUMP JUMPDEST SWAP2 POP PUSH2 0x10C0 DUP3 PUSH2 0x107F JUMP JUMPDEST PUSH1 0x20 DUP3 ADD SWAP1 POP SWAP2 SWAP1 POP JUMP JUMPDEST PUSH1 0x0 PUSH1 0x20 DUP3 ADD SWAP1 POP DUP2 DUP2 SUB PUSH1 0x0 DUP4 ADD MSTORE PUSH2 0x10E4 DUP2 PUSH2 0x10A8 JUMP JUMPDEST SWAP1 POP SWAP2 SWAP1 POP JUMP JUMPDEST PUSH32 0x5761726E203A20496E73756666696369656E74207374616B65642062616C616E PUSH1 0x0 DUP3 ADD MSTORE PUSH32 0x6365000000000000000000000000000000000000000000000000000000000000 PUSH1 0x20 DUP3 ADD MSTORE POP JUMP JUMPDEST PUSH1 0x0 PUSH2 0x1147 PUSH1 0x22 DUP4 PUSH2 0xE3D JUMP JUMPDEST SWAP2 POP PUSH2 0x1152 DUP3 PUSH2 0x10EB JUMP JUMPDEST PUSH1 0x40 DUP3 ADD SWAP1 POP SWAP2 SWAP1 POP JUMP JUMPDEST PUSH1 0x0 PUSH1 0x20 DUP3 ADD SWAP1 POP DUP2 DUP2 SUB PUSH1 0x0 DUP4 ADD MSTORE PUSH2 0x1176 DUP2 PUSH2 0x113A JUMP JUMPDEST SWAP1 POP SWAP2 SWAP1 POP JUMP JUMPDEST PUSH32 0x5761726E203A2053656E6420515645206572726F720000000000000000000000 PUSH1 0x0 DUP3 ADD MSTORE POP JUMP JUMPDEST PUSH1 0x0 PUSH2 0x11B3 PUSH1 0x15 DUP4 PUSH2 0xE3D JUMP JUMPDEST SWAP2 POP PUSH2 0x11BE DUP3 PUSH2 0x117D JUMP JUMPDEST PUSH1 0x20 DUP3 ADD SWAP1 POP SWAP2 SWAP1 POP JUMP JUMPDEST PUSH1 0x0 PUSH1 0x20 DUP3 ADD SWAP1 POP DUP2 DUP2 SUB PUSH1 0x0 DUP4 ADD MSTORE PUSH2 0x11E2 DUP2 PUSH2 0x11A6 JUMP JUMPDEST SWAP1 POP SWAP2 SWAP1 POP JUMP JUMPDEST PUSH32 0x4E487B7100000000000000000000000000000000000000000000000000000000 PUSH1 0x0 MSTORE PUSH1 0x11 PUSH1 0x4 MSTORE PUSH1 0x24 PUSH1 0x0 REVERT JUMPDEST PUSH1 0x0 PUSH2 0x1223 DUP3 PUSH2 0xB64 JUMP JUMPDEST SWAP2 POP PUSH2 0x122E DUP4 PUSH2 0xB64 JUMP JUMPDEST SWAP3 POP DUP3 DUP3 ADD SWAP1 POP DUP1 DUP3 GT ISZERO PUSH2 0x1246 JUMPI PUSH2 0x1245 PUSH2 0x11E9 JUMP JUMPDEST JUMPDEST SWAP3 SWAP2 POP POP JUMP JUMPDEST PUSH1 0x0 PUSH2 0x1257 DUP3 PUSH2 0xB64 JUMP JUMPDEST SWAP2 POP PUSH2 0x1262 DUP4 PUSH2 0xB64 JUMP JUMPDEST SWAP3 POP DUP3 DUP3 SUB SWAP1 POP DUP2 DUP2 GT ISZERO PUSH2 0x127A JUMPI PUSH2 0x1279 PUSH2 0x11E9 JUMP JUMPDEST JUMPDEST SWAP3 SWAP2 POP POP JUMP JUMPDEST PUSH32 0x436F756E7465723A2064656372656D656E74206F766572666C6F770000000000 PUSH1 0x0 DUP3 ADD MSTORE POP JUMP JUMPDEST PUSH1 0x0 PUSH2 0x12B6 PUSH1 0x1B DUP4 PUSH2 0xE3D JUMP JUMPDEST SWAP2 POP PUSH2 0x12C1 DUP3 PUSH2 0x1280 JUMP JUMPDEST PUSH1 0x20 DUP3 ADD SWAP1 POP SWAP2 SWAP1 POP JUMP JUMPDEST PUSH1 0x0 PUSH1 0x20 DUP3 ADD SWAP1 POP DUP2 DUP2 SUB PUSH1 0x0 DUP4 ADD MSTORE PUSH2 0x12E5 DUP2 PUSH2 0x12A9 JUMP JUMPDEST SWAP1 POP SWAP2 SWAP1 POP JUMP INVALID LOG2 PUSH5 0x6970667358 0x22 SLT KECCAK256 PUSH5 0x13B6555162 0x5E 0xD2 SWAP15 DUP14 PUSH13 0xFD65108FC4BEA9D073F6536554 0xAB PUSH10 0x15102EA82C6064736F6C PUSH4 0x43000812 STOP CALLER "
		},
		"gasEstimates": {
			"creation": {
				"codeDepositCost": "979600",
				"executionCost": "infinite",
				"totalCost": "infinite"
			},
			"external": {
				"getPersonalStakeInfo(address)": "infinite",
				"getTotalStakeNum()": "2530",
				"getTotalStaked()": "2459",
				"qveToken()": "infinite",
				"stake(address,uint256)": "infinite",
				"unStake(address,uint256)": "infinite"
			},
			"internal": {
				"_stakeAfter(address,uint256)": "infinite",
				"_unstakeAfter(uint256,address)": "infinite"
			}
		},
		"methodIdentifiers": {
			"getPersonalStakeInfo(address)": "051b637a",
			"getTotalStakeNum()": "8e5d763f",
			"getTotalStaked()": "0917e776",
			"qveToken()": "05335410",
			"stake(address,uint256)": "adc9772e",
			"unStake(address,uint256)": "d9393814"
		}
	},
	"abi": [
		{
			"inputs": [
				{
					"internalType": "contract QVEtoken",
					"name": "_qveToken",
					"type": "address"
				}
			],
			"stateMutability": "nonpayable",
			"type": "constructor"
		},
		{
			"anonymous": false,
			"inputs": [
				{
					"indexed": false,
					"internalType": "address",
					"name": "stakerAddress",
					"type": "address"
				},
				{
					"indexed": false,
					"internalType": "uint256",
					"name": "stakeAmount",
					"type": "uint256"
				}
			],
			"name": "StakeEvent",
			"type": "event"
		},
		{
			"anonymous": false,
			"inputs": [
				{
					"indexed": false,
					"internalType": "address",
					"name": "stakerAddress",
					"type": "address"
				},
				{
					"indexed": false,
					"internalType": "uint256",
					"name": "unstakeAmount",
					"type": "uint256"
				}
			],
			"name": "UnStakeEvent",
			"type": "event"
		},
		{
			"inputs": [
				{
					"internalType": "address",
					"name": "sender",
					"type": "address"
				}
			],
			"name": "getPersonalStakeInfo",
			"outputs": [
				{
					"components": [
						{
							"internalType": "uint256",
							"name": "amount",
							"type": "uint256"
						},
						{
							"internalType": "uint256[]",
							"name": "at",
							"type": "uint256[]"
						}
					],
					"internalType": "struct QVEstaking.StakeInfo",
					"name": "",
					"type": "tuple"
				}
			],
			"stateMutability": "view",
			"type": "function"
		},
		{
			"inputs": [],
			"name": "getTotalStakeNum",
			"outputs": [
				{
					"internalType": "uint256",
					"name": "",
					"type": "uint256"
				}
			],
			"stateMutability": "view",
			"type": "function"
		},
		{
			"inputs": [],
			"name": "getTotalStaked",
			"outputs": [
				{
					"internalType": "uint256",
					"name": "",
					"type": "uint256"
				}
			],
			"stateMutability": "view",
			"type": "function"
		},
		{
			"inputs": [],
			"name": "qveToken",
			"outputs": [
				{
					"internalType": "contract QVEtoken",
					"name": "",
					"type": "address"
				}
			],
			"stateMutability": "view",
			"type": "function"
		},
		{
			"inputs": [
				{
					"internalType": "address",
					"name": "staker",
					"type": "address"
				},
				{
					"internalType": "uint256",
					"name": "stakeAmount",
					"type": "uint256"
				}
			],
			"name": "stake",
			"outputs": [
				{
					"internalType": "bool",
					"name": "",
					"type": "bool"
				}
			],
			"stateMutability": "nonpayable",
			"type": "function"
		},
		{
			"inputs": [
				{
					"internalType": "address",
					"name": "staker",
					"type": "address"
				},
				{
					"internalType": "uint256",
					"name": "unstakeAmount",
					"type": "uint256"
				}
			],
			"name": "unStake",
			"outputs": [
				{
					"internalType": "bool",
					"name": "",
					"type": "bool"
				}
			],
			"stateMutability": "nonpayable",
			"type": "function"
		}
	]
}