{
	"data": {
		"bytecode": {
			"linkReferences": {},
			"object": "608060405262015180600060156101000a81548162ffffff021916908362ffffff1602179055506276a7006001553480156200003a57600080fd5b5060405162001a8538038062001a85833981810160405281019062000060919062000126565b80600060016101000a81548173ffffffffffffffffffffffffffffffffffffffff021916908373ffffffffffffffffffffffffffffffffffffffff1602179055505062000158565b600080fd5b600073ffffffffffffffffffffffffffffffffffffffff82169050919050565b6000620000da82620000ad565b9050919050565b6000620000ee82620000cd565b9050919050565b6200010081620000e1565b81146200010c57600080fd5b50565b6000815190506200012081620000f5565b92915050565b6000602082840312156200013f576200013e620000a8565b5b60006200014f848285016200010f565b91505092915050565b61191d80620001686000396000f3fe60806040526004361061007b5760003560e01c806354ef50de1161004e57806354ef50de146101435780638e5d763f1461016e578063adc9772e14610199578063d9393814146101d65761007b565b8063051b637a1461008057806305335410146100bd5780630917e776146100e857806336aac45314610113575b600080fd5b34801561008c57600080fd5b506100a760048036038101906100a29190610eee565b610213565b6040516100b49190611020565b60405180910390f35b3480156100c957600080fd5b506100d26102ce565b6040516100df91906110a1565b60405180910390f35b3480156100f457600080fd5b506100fd6102f4565b60405161010a91906110cb565b60405180910390f35b61012d60048036038101906101289190611112565b6102fe565b60405161013a919061115a565b60405180910390f35b34801561014f57600080fd5b50610158610388565b604051610165919061115a565b60405180910390f35b34801561017a57600080fd5b5061018361051a565b60405161019091906110cb565b60405180910390f35b3480156101a557600080fd5b506101c060048036038101906101bb9190611175565b61052b565b6040516101cd919061115a565b60405180910390f35b3480156101e257600080fd5b506101fd60048036038101906101f89190611175565b61073c565b60405161020a919061115a565b60405180910390f35b61021b610e71565b600560008373ffffffffffffffffffffffffffffffffffffffff1673ffffffffffffffffffffffffffffffffffffffff16815260200190815260200160002060405180604001604052908160008201548152602001600182018054806020026020016040519081016040528092919081815260200182805480156102be57602002820191906000526020600020905b8154815260200190600101908083116102aa575b5050505050815250509050919050565b600060019054906101000a900473ffffffffffffffffffffffffffffffffffffffff1681565b6000600454905090565b6000813414610342576040517f08c379a000000000000000000000000000000000000000000000000000000000815260040161033990611238565b60405180910390fd5b610357826008546109bf90919063ffffffff16565b60088190555081600760004281526020019081526020016000208190555061037f60036109d5565b60019050919050565b6000806103a0600854476109eb90919063ffffffff16565b9050600081116103e5576040517f08c379a00000000000000000000000000000000000000000000000000000000081526004016103dc906112a4565b60405180910390fd5b60005b6009805490508110156105115760006009828154811061040b5761040a6112c4565b5b9060005260206000200160009054906101000a900473ffffffffffffffffffffffffffffffffffffffff1690506000600560008373ffffffffffffffffffffffffffffffffffffffff1673ffffffffffffffffffffffffffffffffffffffff16815260200190815260200160002060000154905060008111156104fc5760006104b16004546104a38488610a0190919063ffffffff16565b610a1790919063ffffffff16565b90508273ffffffffffffffffffffffffffffffffffffffff166108fc829081150290604051600060405180830381858888f193505050501580156104f9573d6000803e3d6000fd5b50505b5050808061050990611322565b9150506103e8565b50600191505090565b60006105266002610a2d565b905090565b600081600060019054906101000a900473ffffffffffffffffffffffffffffffffffffffff1673ffffffffffffffffffffffffffffffffffffffff166370a08231856040518263ffffffff1660e01b81526004016105899190611379565b602060405180830381865afa1580156105a6573d6000803e3d6000fd5b505050506040513d601f19601f820116820180604052508101906105ca91906113a9565b101561060b576040517f08c379a000000000000000000000000000000000000000000000000000000000815260040161060290611448565b60405180910390fd5b600060019054906101000a900473ffffffffffffffffffffffffffffffffffffffff1673ffffffffffffffffffffffffffffffffffffffff166329f436b6308530866040518563ffffffff1660e01b815260040161066c9493929190611468565b6020604051808303816000875af115801561068b573d6000803e3d6000fd5b505050506040513d601f19601f820116820180604052508101906106af91906114d9565b6106ee576040517f08c379a00000000000000000000000000000000000000000000000000000000081526004016106e590611552565b60405180910390fd5b6106f88383610a3b565b507fb58845b0a64f92dd8d1ba04f905319d6be2021b57783b3d10155e7e36a84e128838360405161072a929190611572565b60405180910390a16001905092915050565b60008060009054906101000a900460ff161561078d576040517f08c379a0000000000000000000000000000000000000000000000000000000008152600401610784906115e7565b60405180910390fd5b60016000806101000a81548160ff0219169083151502179055506000600560008573ffffffffffffffffffffffffffffffffffffffff1673ffffffffffffffffffffffffffffffffffffffff168152602001908152602001600020600001540361082c576040517f08c379a000000000000000000000000000000000000000000000000000000000815260040161082390611653565b60405180910390fd5b81600560008573ffffffffffffffffffffffffffffffffffffffff1673ffffffffffffffffffffffffffffffffffffffff1681526020019081526020016000206000015410156108b1576040517f08c379a00000000000000000000000000000000000000000000000000000000081526004016108a8906116e5565b60405180910390fd5b600060019054906101000a900473ffffffffffffffffffffffffffffffffffffffff1673ffffffffffffffffffffffffffffffffffffffff1663a9059cbb84846040518363ffffffff1660e01b815260040161090e929190611572565b6020604051808303816000875af115801561092d573d6000803e3d6000fd5b505050506040513d601f19601f8201168201806040525081019061095191906114d9565b610990576040517f08c379a000000000000000000000000000000000000000000000000000000000815260040161098790611751565b60405180910390fd5b61099a8284610cb3565b506001905060008060006101000a81548160ff02191690831515021790555092915050565b600081836109cd9190611771565b905092915050565b6001816000016000828254019250508190555050565b600081836109f991906117a5565b905092915050565b60008183610a0f91906117d9565b905092915050565b60008183610a25919061184a565b905092915050565b600081600001549050919050565b600080600560008573ffffffffffffffffffffffffffffffffffffffff1673ffffffffffffffffffffffffffffffffffffffff1681526020019081526020016000206000015403610aea576009839080600181540180825580915050600190039060005260206000200160009091909190916101000a81548173ffffffffffffffffffffffffffffffffffffffff021916908373ffffffffffffffffffffffffffffffffffffffff1602179055505b610aff826004546109bf90919063ffffffff16565b600481905550610b5a82600560008673ffffffffffffffffffffffffffffffffffffffff1673ffffffffffffffffffffffffffffffffffffffff168152602001908152602001600020600001546109bf90919063ffffffff16565b600560008573ffffffffffffffffffffffffffffffffffffffff1673ffffffffffffffffffffffffffffffffffffffff16815260200190815260200160002060000181905550600560008473ffffffffffffffffffffffffffffffffffffffff1673ffffffffffffffffffffffffffffffffffffffff168152602001908152602001600020600101429080600181540180825580915050600190039060005260206000200160009091909190915055610c5c6001600660008673ffffffffffffffffffffffffffffffffffffffff1673ffffffffffffffffffffffffffffffffffffffff168152602001908152602001600020546109bf90919063ffffffff16565b600660008573ffffffffffffffffffffffffffffffffffffffff1673ffffffffffffffffffffffffffffffffffffffff16815260200190815260200160002081905550610ca960026109d5565b6001905092915050565b6000610cca836004546109eb90919063ffffffff16565b600481905550610d2583600560008573ffffffffffffffffffffffffffffffffffffffff1673ffffffffffffffffffffffffffffffffffffffff168152602001908152602001600020600001546109eb90919063ffffffff16565b600560008473ffffffffffffffffffffffffffffffffffffffff1673ffffffffffffffffffffffffffffffffffffffff16815260200190815260200160002060000181905550610dbe6001600660008573ffffffffffffffffffffffffffffffffffffffff1673ffffffffffffffffffffffffffffffffffffffff168152602001908152602001600020546109bf90919063ffffffff16565b600660008473ffffffffffffffffffffffffffffffffffffffff1673ffffffffffffffffffffffffffffffffffffffff16815260200190815260200160002081905550610e0b6002610e15565b6001905092915050565b60008160000154905060008111610e61576040517f08c379a0000000000000000000000000000000000000000000000000000000008152600401610e58906118c7565b60405180910390fd5b6001810382600001819055505050565b604051806040016040528060008152602001606081525090565b600080fd5b600073ffffffffffffffffffffffffffffffffffffffff82169050919050565b6000610ebb82610e90565b9050919050565b610ecb81610eb0565b8114610ed657600080fd5b50565b600081359050610ee881610ec2565b92915050565b600060208284031215610f0457610f03610e8b565b5b6000610f1284828501610ed9565b91505092915050565b6000819050919050565b610f2e81610f1b565b82525050565b600081519050919050565b600082825260208201905092915050565b6000819050602082019050919050565b6000610f6c8383610f25565b60208301905092915050565b6000602082019050919050565b6000610f9082610f34565b610f9a8185610f3f565b9350610fa583610f50565b8060005b83811015610fd6578151610fbd8882610f60565b9750610fc883610f78565b925050600181019050610fa9565b5085935050505092915050565b6000604083016000830151610ffb6000860182610f25565b50602083015184820360208601526110138282610f85565b9150508091505092915050565b6000602082019050818103600083015261103a8184610fe3565b905092915050565b6000819050919050565b600061106761106261105d84610e90565b611042565b610e90565b9050919050565b60006110798261104c565b9050919050565b600061108b8261106e565b9050919050565b61109b81611080565b82525050565b60006020820190506110b66000830184611092565b92915050565b6110c581610f1b565b82525050565b60006020820190506110e060008301846110bc565b92915050565b6110ef81610f1b565b81146110fa57600080fd5b50565b60008135905061110c816110e6565b92915050565b60006020828403121561112857611127610e8b565b5b6000611136848285016110fd565b91505092915050565b60008115159050919050565b6111548161113f565b82525050565b600060208201905061116f600083018461114b565b92915050565b6000806040838503121561118c5761118b610e8b565b5b600061119a85828601610ed9565b92505060206111ab858286016110fd565b9150509250929050565b600082825260208201905092915050565b7f5761726e203a20726563656976656420416d6f756e74202c206d73672e76616c60008201527f75652061726520646966666572656e7400000000000000000000000000000000602082015250565b60006112226030836111b5565b915061122d826111c6565b604082019050919050565b6000602082019050818103600083015261125181611215565b9050919050565b7f4e6f2045544820746f2064697374726962757465000000000000000000000000600082015250565b600061128e6014836111b5565b915061129982611258565b602082019050919050565b600060208201905081810360008301526112bd81611281565b9050919050565b7f4e487b7100000000000000000000000000000000000000000000000000000000600052603260045260246000fd5b7f4e487b7100000000000000000000000000000000000000000000000000000000600052601160045260246000fd5b600061132d82610f1b565b91507fffffffffffffffffffffffffffffffffffffffffffffffffffffffffffffffff820361135f5761135e6112f3565b5b600182019050919050565b61137381610eb0565b82525050565b600060208201905061138e600083018461136a565b92915050565b6000815190506113a3816110e6565b92915050565b6000602082840312156113bf576113be610e8b565b5b60006113cd84828501611394565b91505092915050565b7f5761726e203a20496e73756666696369656e74205156452062616c616e63652060008201527f746f207374616b65000000000000000000000000000000000000000000000000602082015250565b60006114326028836111b5565b915061143d826113d6565b604082019050919050565b6000602082019050818103600083015261146181611425565b9050919050565b600060808201905061147d600083018761136a565b61148a602083018661136a565b611497604083018561136a565b6114a460608301846110bc565b95945050505050565b6114b68161113f565b81146114c157600080fd5b50565b6000815190506114d3816114ad565b92915050565b6000602082840312156114ef576114ee610e8b565b5b60006114fd848285016114c4565b91505092915050565b7f5761726e203a20766961207472616e73666572206661696c6564000000000000600082015250565b600061153c601a836111b5565b915061154782611506565b602082019050919050565b6000602082019050818103600083015261156b8161152f565b9050919050565b6000604082019050611587600083018561136a565b61159460208301846110bc565b9392505050565b7f4e6f205265456e7472616e637900000000000000000000000000000000000000600082015250565b60006115d1600d836111b5565b91506115dc8261159b565b602082019050919050565b60006020820190508181036000830152611600816115c4565b9050919050565b7f5761726e203a2030207374616b65642062616c616e6365000000000000000000600082015250565b600061163d6017836111b5565b915061164882611607565b602082019050919050565b6000602082019050818103600083015261166c81611630565b9050919050565b7f5761726e203a20496e73756666696369656e74207374616b65642062616c616e60008201527f6365000000000000000000000000000000000000000000000000000000000000602082015250565b60006116cf6022836111b5565b91506116da82611673565b604082019050919050565b600060208201905081810360008301526116fe816116c2565b9050919050565b7f5761726e203a2053656e6420515645206572726f720000000000000000000000600082015250565b600061173b6015836111b5565b915061174682611705565b602082019050919050565b6000602082019050818103600083015261176a8161172e565b9050919050565b600061177c82610f1b565b915061178783610f1b565b925082820190508082111561179f5761179e6112f3565b5b92915050565b60006117b082610f1b565b91506117bb83610f1b565b92508282039050818111156117d3576117d26112f3565b5b92915050565b60006117e482610f1b565b91506117ef83610f1b565b92508282026117fd81610f1b565b91508282048414831517611814576118136112f3565b5b5092915050565b7f4e487b7100000000000000000000000000000000000000000000000000000000600052601260045260246000fd5b600061185582610f1b565b915061186083610f1b565b9250826118705761186f61181b565b5b828204905092915050565b7f436f756e7465723a2064656372656d656e74206f766572666c6f770000000000600082015250565b60006118b1601b836111b5565b91506118bc8261187b565b602082019050919050565b600060208201905081810360008301526118e0816118a4565b905091905056fea26469706673582212206debc2ca9bb5516b5ce4581e953ebc1a255b4cf3e31f0e487de34dd9de71cca464736f6c63430008120033",
			"opcodes": "PUSH1 0x80 PUSH1 0x40 MSTORE PUSH3 0x15180 PUSH1 0x0 PUSH1 0x15 PUSH2 0x100 EXP DUP2 SLOAD DUP2 PUSH3 0xFFFFFF MUL NOT AND SWAP1 DUP4 PUSH3 0xFFFFFF AND MUL OR SWAP1 SSTORE POP PUSH3 0x76A700 PUSH1 0x1 SSTORE CALLVALUE DUP1 ISZERO PUSH3 0x3A JUMPI PUSH1 0x0 DUP1 REVERT JUMPDEST POP PUSH1 0x40 MLOAD PUSH3 0x1A85 CODESIZE SUB DUP1 PUSH3 0x1A85 DUP4 CODECOPY DUP2 DUP2 ADD PUSH1 0x40 MSTORE DUP2 ADD SWAP1 PUSH3 0x60 SWAP2 SWAP1 PUSH3 0x126 JUMP JUMPDEST DUP1 PUSH1 0x0 PUSH1 0x1 PUSH2 0x100 EXP DUP2 SLOAD DUP2 PUSH20 0xFFFFFFFFFFFFFFFFFFFFFFFFFFFFFFFFFFFFFFFF MUL NOT AND SWAP1 DUP4 PUSH20 0xFFFFFFFFFFFFFFFFFFFFFFFFFFFFFFFFFFFFFFFF AND MUL OR SWAP1 SSTORE POP POP PUSH3 0x158 JUMP JUMPDEST PUSH1 0x0 DUP1 REVERT JUMPDEST PUSH1 0x0 PUSH20 0xFFFFFFFFFFFFFFFFFFFFFFFFFFFFFFFFFFFFFFFF DUP3 AND SWAP1 POP SWAP2 SWAP1 POP JUMP JUMPDEST PUSH1 0x0 PUSH3 0xDA DUP3 PUSH3 0xAD JUMP JUMPDEST SWAP1 POP SWAP2 SWAP1 POP JUMP JUMPDEST PUSH1 0x0 PUSH3 0xEE DUP3 PUSH3 0xCD JUMP JUMPDEST SWAP1 POP SWAP2 SWAP1 POP JUMP JUMPDEST PUSH3 0x100 DUP2 PUSH3 0xE1 JUMP JUMPDEST DUP2 EQ PUSH3 0x10C JUMPI PUSH1 0x0 DUP1 REVERT JUMPDEST POP JUMP JUMPDEST PUSH1 0x0 DUP2 MLOAD SWAP1 POP PUSH3 0x120 DUP2 PUSH3 0xF5 JUMP JUMPDEST SWAP3 SWAP2 POP POP JUMP JUMPDEST PUSH1 0x0 PUSH1 0x20 DUP3 DUP5 SUB SLT ISZERO PUSH3 0x13F JUMPI PUSH3 0x13E PUSH3 0xA8 JUMP JUMPDEST JUMPDEST PUSH1 0x0 PUSH3 0x14F DUP5 DUP3 DUP6 ADD PUSH3 0x10F JUMP JUMPDEST SWAP2 POP POP SWAP3 SWAP2 POP POP JUMP JUMPDEST PUSH2 0x191D DUP1 PUSH3 0x168 PUSH1 0x0 CODECOPY PUSH1 0x0 RETURN INVALID PUSH1 0x80 PUSH1 0x40 MSTORE PUSH1 0x4 CALLDATASIZE LT PUSH2 0x7B JUMPI PUSH1 0x0 CALLDATALOAD PUSH1 0xE0 SHR DUP1 PUSH4 0x54EF50DE GT PUSH2 0x4E JUMPI DUP1 PUSH4 0x54EF50DE EQ PUSH2 0x143 JUMPI DUP1 PUSH4 0x8E5D763F EQ PUSH2 0x16E JUMPI DUP1 PUSH4 0xADC9772E EQ PUSH2 0x199 JUMPI DUP1 PUSH4 0xD9393814 EQ PUSH2 0x1D6 JUMPI PUSH2 0x7B JUMP JUMPDEST DUP1 PUSH4 0x51B637A EQ PUSH2 0x80 JUMPI DUP1 PUSH4 0x5335410 EQ PUSH2 0xBD JUMPI DUP1 PUSH4 0x917E776 EQ PUSH2 0xE8 JUMPI DUP1 PUSH4 0x36AAC453 EQ PUSH2 0x113 JUMPI JUMPDEST PUSH1 0x0 DUP1 REVERT JUMPDEST CALLVALUE DUP1 ISZERO PUSH2 0x8C JUMPI PUSH1 0x0 DUP1 REVERT JUMPDEST POP PUSH2 0xA7 PUSH1 0x4 DUP1 CALLDATASIZE SUB DUP2 ADD SWAP1 PUSH2 0xA2 SWAP2 SWAP1 PUSH2 0xEEE JUMP JUMPDEST PUSH2 0x213 JUMP JUMPDEST PUSH1 0x40 MLOAD PUSH2 0xB4 SWAP2 SWAP1 PUSH2 0x1020 JUMP JUMPDEST PUSH1 0x40 MLOAD DUP1 SWAP2 SUB SWAP1 RETURN JUMPDEST CALLVALUE DUP1 ISZERO PUSH2 0xC9 JUMPI PUSH1 0x0 DUP1 REVERT JUMPDEST POP PUSH2 0xD2 PUSH2 0x2CE JUMP JUMPDEST PUSH1 0x40 MLOAD PUSH2 0xDF SWAP2 SWAP1 PUSH2 0x10A1 JUMP JUMPDEST PUSH1 0x40 MLOAD DUP1 SWAP2 SUB SWAP1 RETURN JUMPDEST CALLVALUE DUP1 ISZERO PUSH2 0xF4 JUMPI PUSH1 0x0 DUP1 REVERT JUMPDEST POP PUSH2 0xFD PUSH2 0x2F4 JUMP JUMPDEST PUSH1 0x40 MLOAD PUSH2 0x10A SWAP2 SWAP1 PUSH2 0x10CB JUMP JUMPDEST PUSH1 0x40 MLOAD DUP1 SWAP2 SUB SWAP1 RETURN JUMPDEST PUSH2 0x12D PUSH1 0x4 DUP1 CALLDATASIZE SUB DUP2 ADD SWAP1 PUSH2 0x128 SWAP2 SWAP1 PUSH2 0x1112 JUMP JUMPDEST PUSH2 0x2FE JUMP JUMPDEST PUSH1 0x40 MLOAD PUSH2 0x13A SWAP2 SWAP1 PUSH2 0x115A JUMP JUMPDEST PUSH1 0x40 MLOAD DUP1 SWAP2 SUB SWAP1 RETURN JUMPDEST CALLVALUE DUP1 ISZERO PUSH2 0x14F JUMPI PUSH1 0x0 DUP1 REVERT JUMPDEST POP PUSH2 0x158 PUSH2 0x388 JUMP JUMPDEST PUSH1 0x40 MLOAD PUSH2 0x165 SWAP2 SWAP1 PUSH2 0x115A JUMP JUMPDEST PUSH1 0x40 MLOAD DUP1 SWAP2 SUB SWAP1 RETURN JUMPDEST CALLVALUE DUP1 ISZERO PUSH2 0x17A JUMPI PUSH1 0x0 DUP1 REVERT JUMPDEST POP PUSH2 0x183 PUSH2 0x51A JUMP JUMPDEST PUSH1 0x40 MLOAD PUSH2 0x190 SWAP2 SWAP1 PUSH2 0x10CB JUMP JUMPDEST PUSH1 0x40 MLOAD DUP1 SWAP2 SUB SWAP1 RETURN JUMPDEST CALLVALUE DUP1 ISZERO PUSH2 0x1A5 JUMPI PUSH1 0x0 DUP1 REVERT JUMPDEST POP PUSH2 0x1C0 PUSH1 0x4 DUP1 CALLDATASIZE SUB DUP2 ADD SWAP1 PUSH2 0x1BB SWAP2 SWAP1 PUSH2 0x1175 JUMP JUMPDEST PUSH2 0x52B JUMP JUMPDEST PUSH1 0x40 MLOAD PUSH2 0x1CD SWAP2 SWAP1 PUSH2 0x115A JUMP JUMPDEST PUSH1 0x40 MLOAD DUP1 SWAP2 SUB SWAP1 RETURN JUMPDEST CALLVALUE DUP1 ISZERO PUSH2 0x1E2 JUMPI PUSH1 0x0 DUP1 REVERT JUMPDEST POP PUSH2 0x1FD PUSH1 0x4 DUP1 CALLDATASIZE SUB DUP2 ADD SWAP1 PUSH2 0x1F8 SWAP2 SWAP1 PUSH2 0x1175 JUMP JUMPDEST PUSH2 0x73C JUMP JUMPDEST PUSH1 0x40 MLOAD PUSH2 0x20A SWAP2 SWAP1 PUSH2 0x115A JUMP JUMPDEST PUSH1 0x40 MLOAD DUP1 SWAP2 SUB SWAP1 RETURN JUMPDEST PUSH2 0x21B PUSH2 0xE71 JUMP JUMPDEST PUSH1 0x5 PUSH1 0x0 DUP4 PUSH20 0xFFFFFFFFFFFFFFFFFFFFFFFFFFFFFFFFFFFFFFFF AND PUSH20 0xFFFFFFFFFFFFFFFFFFFFFFFFFFFFFFFFFFFFFFFF AND DUP2 MSTORE PUSH1 0x20 ADD SWAP1 DUP2 MSTORE PUSH1 0x20 ADD PUSH1 0x0 KECCAK256 PUSH1 0x40 MLOAD DUP1 PUSH1 0x40 ADD PUSH1 0x40 MSTORE SWAP1 DUP2 PUSH1 0x0 DUP3 ADD SLOAD DUP2 MSTORE PUSH1 0x20 ADD PUSH1 0x1 DUP3 ADD DUP1 SLOAD DUP1 PUSH1 0x20 MUL PUSH1 0x20 ADD PUSH1 0x40 MLOAD SWAP1 DUP2 ADD PUSH1 0x40 MSTORE DUP1 SWAP3 SWAP2 SWAP1 DUP2 DUP2 MSTORE PUSH1 0x20 ADD DUP3 DUP1 SLOAD DUP1 ISZERO PUSH2 0x2BE JUMPI PUSH1 0x20 MUL DUP3 ADD SWAP2 SWAP1 PUSH1 0x0 MSTORE PUSH1 0x20 PUSH1 0x0 KECCAK256 SWAP1 JUMPDEST DUP2 SLOAD DUP2 MSTORE PUSH1 0x20 ADD SWAP1 PUSH1 0x1 ADD SWAP1 DUP1 DUP4 GT PUSH2 0x2AA JUMPI JUMPDEST POP POP POP POP POP DUP2 MSTORE POP POP SWAP1 POP SWAP2 SWAP1 POP JUMP JUMPDEST PUSH1 0x0 PUSH1 0x1 SWAP1 SLOAD SWAP1 PUSH2 0x100 EXP SWAP1 DIV PUSH20 0xFFFFFFFFFFFFFFFFFFFFFFFFFFFFFFFFFFFFFFFF AND DUP2 JUMP JUMPDEST PUSH1 0x0 PUSH1 0x4 SLOAD SWAP1 POP SWAP1 JUMP JUMPDEST PUSH1 0x0 DUP2 CALLVALUE EQ PUSH2 0x342 JUMPI PUSH1 0x40 MLOAD PUSH32 0x8C379A000000000000000000000000000000000000000000000000000000000 DUP2 MSTORE PUSH1 0x4 ADD PUSH2 0x339 SWAP1 PUSH2 0x1238 JUMP JUMPDEST PUSH1 0x40 MLOAD DUP1 SWAP2 SUB SWAP1 REVERT JUMPDEST PUSH2 0x357 DUP3 PUSH1 0x8 SLOAD PUSH2 0x9BF SWAP1 SWAP2 SWAP1 PUSH4 0xFFFFFFFF AND JUMP JUMPDEST PUSH1 0x8 DUP2 SWAP1 SSTORE POP DUP2 PUSH1 0x7 PUSH1 0x0 TIMESTAMP DUP2 MSTORE PUSH1 0x20 ADD SWAP1 DUP2 MSTORE PUSH1 0x20 ADD PUSH1 0x0 KECCAK256 DUP2 SWAP1 SSTORE POP PUSH2 0x37F PUSH1 0x3 PUSH2 0x9D5 JUMP JUMPDEST PUSH1 0x1 SWAP1 POP SWAP2 SWAP1 POP JUMP JUMPDEST PUSH1 0x0 DUP1 PUSH2 0x3A0 PUSH1 0x8 SLOAD SELFBALANCE PUSH2 0x9EB SWAP1 SWAP2 SWAP1 PUSH4 0xFFFFFFFF AND JUMP JUMPDEST SWAP1 POP PUSH1 0x0 DUP2 GT PUSH2 0x3E5 JUMPI PUSH1 0x40 MLOAD PUSH32 0x8C379A000000000000000000000000000000000000000000000000000000000 DUP2 MSTORE PUSH1 0x4 ADD PUSH2 0x3DC SWAP1 PUSH2 0x12A4 JUMP JUMPDEST PUSH1 0x40 MLOAD DUP1 SWAP2 SUB SWAP1 REVERT JUMPDEST PUSH1 0x0 JUMPDEST PUSH1 0x9 DUP1 SLOAD SWAP1 POP DUP2 LT ISZERO PUSH2 0x511 JUMPI PUSH1 0x0 PUSH1 0x9 DUP3 DUP2 SLOAD DUP2 LT PUSH2 0x40B JUMPI PUSH2 0x40A PUSH2 0x12C4 JUMP JUMPDEST JUMPDEST SWAP1 PUSH1 0x0 MSTORE PUSH1 0x20 PUSH1 0x0 KECCAK256 ADD PUSH1 0x0 SWAP1 SLOAD SWAP1 PUSH2 0x100 EXP SWAP1 DIV PUSH20 0xFFFFFFFFFFFFFFFFFFFFFFFFFFFFFFFFFFFFFFFF AND SWAP1 POP PUSH1 0x0 PUSH1 0x5 PUSH1 0x0 DUP4 PUSH20 0xFFFFFFFFFFFFFFFFFFFFFFFFFFFFFFFFFFFFFFFF AND PUSH20 0xFFFFFFFFFFFFFFFFFFFFFFFFFFFFFFFFFFFFFFFF AND DUP2 MSTORE PUSH1 0x20 ADD SWAP1 DUP2 MSTORE PUSH1 0x20 ADD PUSH1 0x0 KECCAK256 PUSH1 0x0 ADD SLOAD SWAP1 POP PUSH1 0x0 DUP2 GT ISZERO PUSH2 0x4FC JUMPI PUSH1 0x0 PUSH2 0x4B1 PUSH1 0x4 SLOAD PUSH2 0x4A3 DUP5 DUP9 PUSH2 0xA01 SWAP1 SWAP2 SWAP1 PUSH4 0xFFFFFFFF AND JUMP JUMPDEST PUSH2 0xA17 SWAP1 SWAP2 SWAP1 PUSH4 0xFFFFFFFF AND JUMP JUMPDEST SWAP1 POP DUP3 PUSH20 0xFFFFFFFFFFFFFFFFFFFFFFFFFFFFFFFFFFFFFFFF AND PUSH2 0x8FC DUP3 SWAP1 DUP2 ISZERO MUL SWAP1 PUSH1 0x40 MLOAD PUSH1 0x0 PUSH1 0x40 MLOAD DUP1 DUP4 SUB DUP2 DUP6 DUP9 DUP9 CALL SWAP4 POP POP POP POP ISZERO DUP1 ISZERO PUSH2 0x4F9 JUMPI RETURNDATASIZE PUSH1 0x0 DUP1 RETURNDATACOPY RETURNDATASIZE PUSH1 0x0 REVERT JUMPDEST POP POP JUMPDEST POP POP DUP1 DUP1 PUSH2 0x509 SWAP1 PUSH2 0x1322 JUMP JUMPDEST SWAP2 POP POP PUSH2 0x3E8 JUMP JUMPDEST POP PUSH1 0x1 SWAP2 POP POP SWAP1 JUMP JUMPDEST PUSH1 0x0 PUSH2 0x526 PUSH1 0x2 PUSH2 0xA2D JUMP JUMPDEST SWAP1 POP SWAP1 JUMP JUMPDEST PUSH1 0x0 DUP2 PUSH1 0x0 PUSH1 0x1 SWAP1 SLOAD SWAP1 PUSH2 0x100 EXP SWAP1 DIV PUSH20 0xFFFFFFFFFFFFFFFFFFFFFFFFFFFFFFFFFFFFFFFF AND PUSH20 0xFFFFFFFFFFFFFFFFFFFFFFFFFFFFFFFFFFFFFFFF AND PUSH4 0x70A08231 DUP6 PUSH1 0x40 MLOAD DUP3 PUSH4 0xFFFFFFFF AND PUSH1 0xE0 SHL DUP2 MSTORE PUSH1 0x4 ADD PUSH2 0x589 SWAP2 SWAP1 PUSH2 0x1379 JUMP JUMPDEST PUSH1 0x20 PUSH1 0x40 MLOAD DUP1 DUP4 SUB DUP2 DUP7 GAS STATICCALL ISZERO DUP1 ISZERO PUSH2 0x5A6 JUMPI RETURNDATASIZE PUSH1 0x0 DUP1 RETURNDATACOPY RETURNDATASIZE PUSH1 0x0 REVERT JUMPDEST POP POP POP POP PUSH1 0x40 MLOAD RETURNDATASIZE PUSH1 0x1F NOT PUSH1 0x1F DUP3 ADD AND DUP3 ADD DUP1 PUSH1 0x40 MSTORE POP DUP2 ADD SWAP1 PUSH2 0x5CA SWAP2 SWAP1 PUSH2 0x13A9 JUMP JUMPDEST LT ISZERO PUSH2 0x60B JUMPI PUSH1 0x40 MLOAD PUSH32 0x8C379A000000000000000000000000000000000000000000000000000000000 DUP2 MSTORE PUSH1 0x4 ADD PUSH2 0x602 SWAP1 PUSH2 0x1448 JUMP JUMPDEST PUSH1 0x40 MLOAD DUP1 SWAP2 SUB SWAP1 REVERT JUMPDEST PUSH1 0x0 PUSH1 0x1 SWAP1 SLOAD SWAP1 PUSH2 0x100 EXP SWAP1 DIV PUSH20 0xFFFFFFFFFFFFFFFFFFFFFFFFFFFFFFFFFFFFFFFF AND PUSH20 0xFFFFFFFFFFFFFFFFFFFFFFFFFFFFFFFFFFFFFFFF AND PUSH4 0x29F436B6 ADDRESS DUP6 ADDRESS DUP7 PUSH1 0x40 MLOAD DUP6 PUSH4 0xFFFFFFFF AND PUSH1 0xE0 SHL DUP2 MSTORE PUSH1 0x4 ADD PUSH2 0x66C SWAP5 SWAP4 SWAP3 SWAP2 SWAP1 PUSH2 0x1468 JUMP JUMPDEST PUSH1 0x20 PUSH1 0x40 MLOAD DUP1 DUP4 SUB DUP2 PUSH1 0x0 DUP8 GAS CALL ISZERO DUP1 ISZERO PUSH2 0x68B JUMPI RETURNDATASIZE PUSH1 0x0 DUP1 RETURNDATACOPY RETURNDATASIZE PUSH1 0x0 REVERT JUMPDEST POP POP POP POP PUSH1 0x40 MLOAD RETURNDATASIZE PUSH1 0x1F NOT PUSH1 0x1F DUP3 ADD AND DUP3 ADD DUP1 PUSH1 0x40 MSTORE POP DUP2 ADD SWAP1 PUSH2 0x6AF SWAP2 SWAP1 PUSH2 0x14D9 JUMP JUMPDEST PUSH2 0x6EE JUMPI PUSH1 0x40 MLOAD PUSH32 0x8C379A000000000000000000000000000000000000000000000000000000000 DUP2 MSTORE PUSH1 0x4 ADD PUSH2 0x6E5 SWAP1 PUSH2 0x1552 JUMP JUMPDEST PUSH1 0x40 MLOAD DUP1 SWAP2 SUB SWAP1 REVERT JUMPDEST PUSH2 0x6F8 DUP4 DUP4 PUSH2 0xA3B JUMP JUMPDEST POP PUSH32 0xB58845B0A64F92DD8D1BA04F905319D6BE2021B57783B3D10155E7E36A84E128 DUP4 DUP4 PUSH1 0x40 MLOAD PUSH2 0x72A SWAP3 SWAP2 SWAP1 PUSH2 0x1572 JUMP JUMPDEST PUSH1 0x40 MLOAD DUP1 SWAP2 SUB SWAP1 LOG1 PUSH1 0x1 SWAP1 POP SWAP3 SWAP2 POP POP JUMP JUMPDEST PUSH1 0x0 DUP1 PUSH1 0x0 SWAP1 SLOAD SWAP1 PUSH2 0x100 EXP SWAP1 DIV PUSH1 0xFF AND ISZERO PUSH2 0x78D JUMPI PUSH1 0x40 MLOAD PUSH32 0x8C379A000000000000000000000000000000000000000000000000000000000 DUP2 MSTORE PUSH1 0x4 ADD PUSH2 0x784 SWAP1 PUSH2 0x15E7 JUMP JUMPDEST PUSH1 0x40 MLOAD DUP1 SWAP2 SUB SWAP1 REVERT JUMPDEST PUSH1 0x1 PUSH1 0x0 DUP1 PUSH2 0x100 EXP DUP2 SLOAD DUP2 PUSH1 0xFF MUL NOT AND SWAP1 DUP4 ISZERO ISZERO MUL OR SWAP1 SSTORE POP PUSH1 0x0 PUSH1 0x5 PUSH1 0x0 DUP6 PUSH20 0xFFFFFFFFFFFFFFFFFFFFFFFFFFFFFFFFFFFFFFFF AND PUSH20 0xFFFFFFFFFFFFFFFFFFFFFFFFFFFFFFFFFFFFFFFF AND DUP2 MSTORE PUSH1 0x20 ADD SWAP1 DUP2 MSTORE PUSH1 0x20 ADD PUSH1 0x0 KECCAK256 PUSH1 0x0 ADD SLOAD SUB PUSH2 0x82C JUMPI PUSH1 0x40 MLOAD PUSH32 0x8C379A000000000000000000000000000000000000000000000000000000000 DUP2 MSTORE PUSH1 0x4 ADD PUSH2 0x823 SWAP1 PUSH2 0x1653 JUMP JUMPDEST PUSH1 0x40 MLOAD DUP1 SWAP2 SUB SWAP1 REVERT JUMPDEST DUP2 PUSH1 0x5 PUSH1 0x0 DUP6 PUSH20 0xFFFFFFFFFFFFFFFFFFFFFFFFFFFFFFFFFFFFFFFF AND PUSH20 0xFFFFFFFFFFFFFFFFFFFFFFFFFFFFFFFFFFFFFFFF AND DUP2 MSTORE PUSH1 0x20 ADD SWAP1 DUP2 MSTORE PUSH1 0x20 ADD PUSH1 0x0 KECCAK256 PUSH1 0x0 ADD SLOAD LT ISZERO PUSH2 0x8B1 JUMPI PUSH1 0x40 MLOAD PUSH32 0x8C379A000000000000000000000000000000000000000000000000000000000 DUP2 MSTORE PUSH1 0x4 ADD PUSH2 0x8A8 SWAP1 PUSH2 0x16E5 JUMP JUMPDEST PUSH1 0x40 MLOAD DUP1 SWAP2 SUB SWAP1 REVERT JUMPDEST PUSH1 0x0 PUSH1 0x1 SWAP1 SLOAD SWAP1 PUSH2 0x100 EXP SWAP1 DIV PUSH20 0xFFFFFFFFFFFFFFFFFFFFFFFFFFFFFFFFFFFFFFFF AND PUSH20 0xFFFFFFFFFFFFFFFFFFFFFFFFFFFFFFFFFFFFFFFF AND PUSH4 0xA9059CBB DUP5 DUP5 PUSH1 0x40 MLOAD DUP4 PUSH4 0xFFFFFFFF AND PUSH1 0xE0 SHL DUP2 MSTORE PUSH1 0x4 ADD PUSH2 0x90E SWAP3 SWAP2 SWAP1 PUSH2 0x1572 JUMP JUMPDEST PUSH1 0x20 PUSH1 0x40 MLOAD DUP1 DUP4 SUB DUP2 PUSH1 0x0 DUP8 GAS CALL ISZERO DUP1 ISZERO PUSH2 0x92D JUMPI RETURNDATASIZE PUSH1 0x0 DUP1 RETURNDATACOPY RETURNDATASIZE PUSH1 0x0 REVERT JUMPDEST POP POP POP POP PUSH1 0x40 MLOAD RETURNDATASIZE PUSH1 0x1F NOT PUSH1 0x1F DUP3 ADD AND DUP3 ADD DUP1 PUSH1 0x40 MSTORE POP DUP2 ADD SWAP1 PUSH2 0x951 SWAP2 SWAP1 PUSH2 0x14D9 JUMP JUMPDEST PUSH2 0x990 JUMPI PUSH1 0x40 MLOAD PUSH32 0x8C379A000000000000000000000000000000000000000000000000000000000 DUP2 MSTORE PUSH1 0x4 ADD PUSH2 0x987 SWAP1 PUSH2 0x1751 JUMP JUMPDEST PUSH1 0x40 MLOAD DUP1 SWAP2 SUB SWAP1 REVERT JUMPDEST PUSH2 0x99A DUP3 DUP5 PUSH2 0xCB3 JUMP JUMPDEST POP PUSH1 0x1 SWAP1 POP PUSH1 0x0 DUP1 PUSH1 0x0 PUSH2 0x100 EXP DUP2 SLOAD DUP2 PUSH1 0xFF MUL NOT AND SWAP1 DUP4 ISZERO ISZERO MUL OR SWAP1 SSTORE POP SWAP3 SWAP2 POP POP JUMP JUMPDEST PUSH1 0x0 DUP2 DUP4 PUSH2 0x9CD SWAP2 SWAP1 PUSH2 0x1771 JUMP JUMPDEST SWAP1 POP SWAP3 SWAP2 POP POP JUMP JUMPDEST PUSH1 0x1 DUP2 PUSH1 0x0 ADD PUSH1 0x0 DUP3 DUP3 SLOAD ADD SWAP3 POP POP DUP2 SWAP1 SSTORE POP POP JUMP JUMPDEST PUSH1 0x0 DUP2 DUP4 PUSH2 0x9F9 SWAP2 SWAP1 PUSH2 0x17A5 JUMP JUMPDEST SWAP1 POP SWAP3 SWAP2 POP POP JUMP JUMPDEST PUSH1 0x0 DUP2 DUP4 PUSH2 0xA0F SWAP2 SWAP1 PUSH2 0x17D9 JUMP JUMPDEST SWAP1 POP SWAP3 SWAP2 POP POP JUMP JUMPDEST PUSH1 0x0 DUP2 DUP4 PUSH2 0xA25 SWAP2 SWAP1 PUSH2 0x184A JUMP JUMPDEST SWAP1 POP SWAP3 SWAP2 POP POP JUMP JUMPDEST PUSH1 0x0 DUP2 PUSH1 0x0 ADD SLOAD SWAP1 POP SWAP2 SWAP1 POP JUMP JUMPDEST PUSH1 0x0 DUP1 PUSH1 0x5 PUSH1 0x0 DUP6 PUSH20 0xFFFFFFFFFFFFFFFFFFFFFFFFFFFFFFFFFFFFFFFF AND PUSH20 0xFFFFFFFFFFFFFFFFFFFFFFFFFFFFFFFFFFFFFFFF AND DUP2 MSTORE PUSH1 0x20 ADD SWAP1 DUP2 MSTORE PUSH1 0x20 ADD PUSH1 0x0 KECCAK256 PUSH1 0x0 ADD SLOAD SUB PUSH2 0xAEA JUMPI PUSH1 0x9 DUP4 SWAP1 DUP1 PUSH1 0x1 DUP2 SLOAD ADD DUP1 DUP3 SSTORE DUP1 SWAP2 POP POP PUSH1 0x1 SWAP1 SUB SWAP1 PUSH1 0x0 MSTORE PUSH1 0x20 PUSH1 0x0 KECCAK256 ADD PUSH1 0x0 SWAP1 SWAP2 SWAP1 SWAP2 SWAP1 SWAP2 PUSH2 0x100 EXP DUP2 SLOAD DUP2 PUSH20 0xFFFFFFFFFFFFFFFFFFFFFFFFFFFFFFFFFFFFFFFF MUL NOT AND SWAP1 DUP4 PUSH20 0xFFFFFFFFFFFFFFFFFFFFFFFFFFFFFFFFFFFFFFFF AND MUL OR SWAP1 SSTORE POP JUMPDEST PUSH2 0xAFF DUP3 PUSH1 0x4 SLOAD PUSH2 0x9BF SWAP1 SWAP2 SWAP1 PUSH4 0xFFFFFFFF AND JUMP JUMPDEST PUSH1 0x4 DUP2 SWAP1 SSTORE POP PUSH2 0xB5A DUP3 PUSH1 0x5 PUSH1 0x0 DUP7 PUSH20 0xFFFFFFFFFFFFFFFFFFFFFFFFFFFFFFFFFFFFFFFF AND PUSH20 0xFFFFFFFFFFFFFFFFFFFFFFFFFFFFFFFFFFFFFFFF AND DUP2 MSTORE PUSH1 0x20 ADD SWAP1 DUP2 MSTORE PUSH1 0x20 ADD PUSH1 0x0 KECCAK256 PUSH1 0x0 ADD SLOAD PUSH2 0x9BF SWAP1 SWAP2 SWAP1 PUSH4 0xFFFFFFFF AND JUMP JUMPDEST PUSH1 0x5 PUSH1 0x0 DUP6 PUSH20 0xFFFFFFFFFFFFFFFFFFFFFFFFFFFFFFFFFFFFFFFF AND PUSH20 0xFFFFFFFFFFFFFFFFFFFFFFFFFFFFFFFFFFFFFFFF AND DUP2 MSTORE PUSH1 0x20 ADD SWAP1 DUP2 MSTORE PUSH1 0x20 ADD PUSH1 0x0 KECCAK256 PUSH1 0x0 ADD DUP2 SWAP1 SSTORE POP PUSH1 0x5 PUSH1 0x0 DUP5 PUSH20 0xFFFFFFFFFFFFFFFFFFFFFFFFFFFFFFFFFFFFFFFF AND PUSH20 0xFFFFFFFFFFFFFFFFFFFFFFFFFFFFFFFFFFFFFFFF AND DUP2 MSTORE PUSH1 0x20 ADD SWAP1 DUP2 MSTORE PUSH1 0x20 ADD PUSH1 0x0 KECCAK256 PUSH1 0x1 ADD TIMESTAMP SWAP1 DUP1 PUSH1 0x1 DUP2 SLOAD ADD DUP1 DUP3 SSTORE DUP1 SWAP2 POP POP PUSH1 0x1 SWAP1 SUB SWAP1 PUSH1 0x0 MSTORE PUSH1 0x20 PUSH1 0x0 KECCAK256 ADD PUSH1 0x0 SWAP1 SWAP2 SWAP1 SWAP2 SWAP1 SWAP2 POP SSTORE PUSH2 0xC5C PUSH1 0x1 PUSH1 0x6 PUSH1 0x0 DUP7 PUSH20 0xFFFFFFFFFFFFFFFFFFFFFFFFFFFFFFFFFFFFFFFF AND PUSH20 0xFFFFFFFFFFFFFFFFFFFFFFFFFFFFFFFFFFFFFFFF AND DUP2 MSTORE PUSH1 0x20 ADD SWAP1 DUP2 MSTORE PUSH1 0x20 ADD PUSH1 0x0 KECCAK256 SLOAD PUSH2 0x9BF SWAP1 SWAP2 SWAP1 PUSH4 0xFFFFFFFF AND JUMP JUMPDEST PUSH1 0x6 PUSH1 0x0 DUP6 PUSH20 0xFFFFFFFFFFFFFFFFFFFFFFFFFFFFFFFFFFFFFFFF AND PUSH20 0xFFFFFFFFFFFFFFFFFFFFFFFFFFFFFFFFFFFFFFFF AND DUP2 MSTORE PUSH1 0x20 ADD SWAP1 DUP2 MSTORE PUSH1 0x20 ADD PUSH1 0x0 KECCAK256 DUP2 SWAP1 SSTORE POP PUSH2 0xCA9 PUSH1 0x2 PUSH2 0x9D5 JUMP JUMPDEST PUSH1 0x1 SWAP1 POP SWAP3 SWAP2 POP POP JUMP JUMPDEST PUSH1 0x0 PUSH2 0xCCA DUP4 PUSH1 0x4 SLOAD PUSH2 0x9EB SWAP1 SWAP2 SWAP1 PUSH4 0xFFFFFFFF AND JUMP JUMPDEST PUSH1 0x4 DUP2 SWAP1 SSTORE POP PUSH2 0xD25 DUP4 PUSH1 0x5 PUSH1 0x0 DUP6 PUSH20 0xFFFFFFFFFFFFFFFFFFFFFFFFFFFFFFFFFFFFFFFF AND PUSH20 0xFFFFFFFFFFFFFFFFFFFFFFFFFFFFFFFFFFFFFFFF AND DUP2 MSTORE PUSH1 0x20 ADD SWAP1 DUP2 MSTORE PUSH1 0x20 ADD PUSH1 0x0 KECCAK256 PUSH1 0x0 ADD SLOAD PUSH2 0x9EB SWAP1 SWAP2 SWAP1 PUSH4 0xFFFFFFFF AND JUMP JUMPDEST PUSH1 0x5 PUSH1 0x0 DUP5 PUSH20 0xFFFFFFFFFFFFFFFFFFFFFFFFFFFFFFFFFFFFFFFF AND PUSH20 0xFFFFFFFFFFFFFFFFFFFFFFFFFFFFFFFFFFFFFFFF AND DUP2 MSTORE PUSH1 0x20 ADD SWAP1 DUP2 MSTORE PUSH1 0x20 ADD PUSH1 0x0 KECCAK256 PUSH1 0x0 ADD DUP2 SWAP1 SSTORE POP PUSH2 0xDBE PUSH1 0x1 PUSH1 0x6 PUSH1 0x0 DUP6 PUSH20 0xFFFFFFFFFFFFFFFFFFFFFFFFFFFFFFFFFFFFFFFF AND PUSH20 0xFFFFFFFFFFFFFFFFFFFFFFFFFFFFFFFFFFFFFFFF AND DUP2 MSTORE PUSH1 0x20 ADD SWAP1 DUP2 MSTORE PUSH1 0x20 ADD PUSH1 0x0 KECCAK256 SLOAD PUSH2 0x9BF SWAP1 SWAP2 SWAP1 PUSH4 0xFFFFFFFF AND JUMP JUMPDEST PUSH1 0x6 PUSH1 0x0 DUP5 PUSH20 0xFFFFFFFFFFFFFFFFFFFFFFFFFFFFFFFFFFFFFFFF AND PUSH20 0xFFFFFFFFFFFFFFFFFFFFFFFFFFFFFFFFFFFFFFFF AND DUP2 MSTORE PUSH1 0x20 ADD SWAP1 DUP2 MSTORE PUSH1 0x20 ADD PUSH1 0x0 KECCAK256 DUP2 SWAP1 SSTORE POP PUSH2 0xE0B PUSH1 0x2 PUSH2 0xE15 JUMP JUMPDEST PUSH1 0x1 SWAP1 POP SWAP3 SWAP2 POP POP JUMP JUMPDEST PUSH1 0x0 DUP2 PUSH1 0x0 ADD SLOAD SWAP1 POP PUSH1 0x0 DUP2 GT PUSH2 0xE61 JUMPI PUSH1 0x40 MLOAD PUSH32 0x8C379A000000000000000000000000000000000000000000000000000000000 DUP2 MSTORE PUSH1 0x4 ADD PUSH2 0xE58 SWAP1 PUSH2 0x18C7 JUMP JUMPDEST PUSH1 0x40 MLOAD DUP1 SWAP2 SUB SWAP1 REVERT JUMPDEST PUSH1 0x1 DUP2 SUB DUP3 PUSH1 0x0 ADD DUP2 SWAP1 SSTORE POP POP POP JUMP JUMPDEST PUSH1 0x40 MLOAD DUP1 PUSH1 0x40 ADD PUSH1 0x40 MSTORE DUP1 PUSH1 0x0 DUP2 MSTORE PUSH1 0x20 ADD PUSH1 0x60 DUP2 MSTORE POP SWAP1 JUMP JUMPDEST PUSH1 0x0 DUP1 REVERT JUMPDEST PUSH1 0x0 PUSH20 0xFFFFFFFFFFFFFFFFFFFFFFFFFFFFFFFFFFFFFFFF DUP3 AND SWAP1 POP SWAP2 SWAP1 POP JUMP JUMPDEST PUSH1 0x0 PUSH2 0xEBB DUP3 PUSH2 0xE90 JUMP JUMPDEST SWAP1 POP SWAP2 SWAP1 POP JUMP JUMPDEST PUSH2 0xECB DUP2 PUSH2 0xEB0 JUMP JUMPDEST DUP2 EQ PUSH2 0xED6 JUMPI PUSH1 0x0 DUP1 REVERT JUMPDEST POP JUMP JUMPDEST PUSH1 0x0 DUP2 CALLDATALOAD SWAP1 POP PUSH2 0xEE8 DUP2 PUSH2 0xEC2 JUMP JUMPDEST SWAP3 SWAP2 POP POP JUMP JUMPDEST PUSH1 0x0 PUSH1 0x20 DUP3 DUP5 SUB SLT ISZERO PUSH2 0xF04 JUMPI PUSH2 0xF03 PUSH2 0xE8B JUMP JUMPDEST JUMPDEST PUSH1 0x0 PUSH2 0xF12 DUP5 DUP3 DUP6 ADD PUSH2 0xED9 JUMP JUMPDEST SWAP2 POP POP SWAP3 SWAP2 POP POP JUMP JUMPDEST PUSH1 0x0 DUP2 SWAP1 POP SWAP2 SWAP1 POP JUMP JUMPDEST PUSH2 0xF2E DUP2 PUSH2 0xF1B JUMP JUMPDEST DUP3 MSTORE POP POP JUMP JUMPDEST PUSH1 0x0 DUP2 MLOAD SWAP1 POP SWAP2 SWAP1 POP JUMP JUMPDEST PUSH1 0x0 DUP3 DUP3 MSTORE PUSH1 0x20 DUP3 ADD SWAP1 POP SWAP3 SWAP2 POP POP JUMP JUMPDEST PUSH1 0x0 DUP2 SWAP1 POP PUSH1 0x20 DUP3 ADD SWAP1 POP SWAP2 SWAP1 POP JUMP JUMPDEST PUSH1 0x0 PUSH2 0xF6C DUP4 DUP4 PUSH2 0xF25 JUMP JUMPDEST PUSH1 0x20 DUP4 ADD SWAP1 POP SWAP3 SWAP2 POP POP JUMP JUMPDEST PUSH1 0x0 PUSH1 0x20 DUP3 ADD SWAP1 POP SWAP2 SWAP1 POP JUMP JUMPDEST PUSH1 0x0 PUSH2 0xF90 DUP3 PUSH2 0xF34 JUMP JUMPDEST PUSH2 0xF9A DUP2 DUP6 PUSH2 0xF3F JUMP JUMPDEST SWAP4 POP PUSH2 0xFA5 DUP4 PUSH2 0xF50 JUMP JUMPDEST DUP1 PUSH1 0x0 JUMPDEST DUP4 DUP2 LT ISZERO PUSH2 0xFD6 JUMPI DUP2 MLOAD PUSH2 0xFBD DUP9 DUP3 PUSH2 0xF60 JUMP JUMPDEST SWAP8 POP PUSH2 0xFC8 DUP4 PUSH2 0xF78 JUMP JUMPDEST SWAP3 POP POP PUSH1 0x1 DUP2 ADD SWAP1 POP PUSH2 0xFA9 JUMP JUMPDEST POP DUP6 SWAP4 POP POP POP POP SWAP3 SWAP2 POP POP JUMP JUMPDEST PUSH1 0x0 PUSH1 0x40 DUP4 ADD PUSH1 0x0 DUP4 ADD MLOAD PUSH2 0xFFB PUSH1 0x0 DUP7 ADD DUP3 PUSH2 0xF25 JUMP JUMPDEST POP PUSH1 0x20 DUP4 ADD MLOAD DUP5 DUP3 SUB PUSH1 0x20 DUP7 ADD MSTORE PUSH2 0x1013 DUP3 DUP3 PUSH2 0xF85 JUMP JUMPDEST SWAP2 POP POP DUP1 SWAP2 POP POP SWAP3 SWAP2 POP POP JUMP JUMPDEST PUSH1 0x0 PUSH1 0x20 DUP3 ADD SWAP1 POP DUP2 DUP2 SUB PUSH1 0x0 DUP4 ADD MSTORE PUSH2 0x103A DUP2 DUP5 PUSH2 0xFE3 JUMP JUMPDEST SWAP1 POP SWAP3 SWAP2 POP POP JUMP JUMPDEST PUSH1 0x0 DUP2 SWAP1 POP SWAP2 SWAP1 POP JUMP JUMPDEST PUSH1 0x0 PUSH2 0x1067 PUSH2 0x1062 PUSH2 0x105D DUP5 PUSH2 0xE90 JUMP JUMPDEST PUSH2 0x1042 JUMP JUMPDEST PUSH2 0xE90 JUMP JUMPDEST SWAP1 POP SWAP2 SWAP1 POP JUMP JUMPDEST PUSH1 0x0 PUSH2 0x1079 DUP3 PUSH2 0x104C JUMP JUMPDEST SWAP1 POP SWAP2 SWAP1 POP JUMP JUMPDEST PUSH1 0x0 PUSH2 0x108B DUP3 PUSH2 0x106E JUMP JUMPDEST SWAP1 POP SWAP2 SWAP1 POP JUMP JUMPDEST PUSH2 0x109B DUP2 PUSH2 0x1080 JUMP JUMPDEST DUP3 MSTORE POP POP JUMP JUMPDEST PUSH1 0x0 PUSH1 0x20 DUP3 ADD SWAP1 POP PUSH2 0x10B6 PUSH1 0x0 DUP4 ADD DUP5 PUSH2 0x1092 JUMP JUMPDEST SWAP3 SWAP2 POP POP JUMP JUMPDEST PUSH2 0x10C5 DUP2 PUSH2 0xF1B JUMP JUMPDEST DUP3 MSTORE POP POP JUMP JUMPDEST PUSH1 0x0 PUSH1 0x20 DUP3 ADD SWAP1 POP PUSH2 0x10E0 PUSH1 0x0 DUP4 ADD DUP5 PUSH2 0x10BC JUMP JUMPDEST SWAP3 SWAP2 POP POP JUMP JUMPDEST PUSH2 0x10EF DUP2 PUSH2 0xF1B JUMP JUMPDEST DUP2 EQ PUSH2 0x10FA JUMPI PUSH1 0x0 DUP1 REVERT JUMPDEST POP JUMP JUMPDEST PUSH1 0x0 DUP2 CALLDATALOAD SWAP1 POP PUSH2 0x110C DUP2 PUSH2 0x10E6 JUMP JUMPDEST SWAP3 SWAP2 POP POP JUMP JUMPDEST PUSH1 0x0 PUSH1 0x20 DUP3 DUP5 SUB SLT ISZERO PUSH2 0x1128 JUMPI PUSH2 0x1127 PUSH2 0xE8B JUMP JUMPDEST JUMPDEST PUSH1 0x0 PUSH2 0x1136 DUP5 DUP3 DUP6 ADD PUSH2 0x10FD JUMP JUMPDEST SWAP2 POP POP SWAP3 SWAP2 POP POP JUMP JUMPDEST PUSH1 0x0 DUP2 ISZERO ISZERO SWAP1 POP SWAP2 SWAP1 POP JUMP JUMPDEST PUSH2 0x1154 DUP2 PUSH2 0x113F JUMP JUMPDEST DUP3 MSTORE POP POP JUMP JUMPDEST PUSH1 0x0 PUSH1 0x20 DUP3 ADD SWAP1 POP PUSH2 0x116F PUSH1 0x0 DUP4 ADD DUP5 PUSH2 0x114B JUMP JUMPDEST SWAP3 SWAP2 POP POP JUMP JUMPDEST PUSH1 0x0 DUP1 PUSH1 0x40 DUP4 DUP6 SUB SLT ISZERO PUSH2 0x118C JUMPI PUSH2 0x118B PUSH2 0xE8B JUMP JUMPDEST JUMPDEST PUSH1 0x0 PUSH2 0x119A DUP6 DUP3 DUP7 ADD PUSH2 0xED9 JUMP JUMPDEST SWAP3 POP POP PUSH1 0x20 PUSH2 0x11AB DUP6 DUP3 DUP7 ADD PUSH2 0x10FD JUMP JUMPDEST SWAP2 POP POP SWAP3 POP SWAP3 SWAP1 POP JUMP JUMPDEST PUSH1 0x0 DUP3 DUP3 MSTORE PUSH1 0x20 DUP3 ADD SWAP1 POP SWAP3 SWAP2 POP POP JUMP JUMPDEST PUSH32 0x5761726E203A20726563656976656420416D6F756E74202C206D73672E76616C PUSH1 0x0 DUP3 ADD MSTORE PUSH32 0x75652061726520646966666572656E7400000000000000000000000000000000 PUSH1 0x20 DUP3 ADD MSTORE POP JUMP JUMPDEST PUSH1 0x0 PUSH2 0x1222 PUSH1 0x30 DUP4 PUSH2 0x11B5 JUMP JUMPDEST SWAP2 POP PUSH2 0x122D DUP3 PUSH2 0x11C6 JUMP JUMPDEST PUSH1 0x40 DUP3 ADD SWAP1 POP SWAP2 SWAP1 POP JUMP JUMPDEST PUSH1 0x0 PUSH1 0x20 DUP3 ADD SWAP1 POP DUP2 DUP2 SUB PUSH1 0x0 DUP4 ADD MSTORE PUSH2 0x1251 DUP2 PUSH2 0x1215 JUMP JUMPDEST SWAP1 POP SWAP2 SWAP1 POP JUMP JUMPDEST PUSH32 0x4E6F2045544820746F2064697374726962757465000000000000000000000000 PUSH1 0x0 DUP3 ADD MSTORE POP JUMP JUMPDEST PUSH1 0x0 PUSH2 0x128E PUSH1 0x14 DUP4 PUSH2 0x11B5 JUMP JUMPDEST SWAP2 POP PUSH2 0x1299 DUP3 PUSH2 0x1258 JUMP JUMPDEST PUSH1 0x20 DUP3 ADD SWAP1 POP SWAP2 SWAP1 POP JUMP JUMPDEST PUSH1 0x0 PUSH1 0x20 DUP3 ADD SWAP1 POP DUP2 DUP2 SUB PUSH1 0x0 DUP4 ADD MSTORE PUSH2 0x12BD DUP2 PUSH2 0x1281 JUMP JUMPDEST SWAP1 POP SWAP2 SWAP1 POP JUMP JUMPDEST PUSH32 0x4E487B7100000000000000000000000000000000000000000000000000000000 PUSH1 0x0 MSTORE PUSH1 0x32 PUSH1 0x4 MSTORE PUSH1 0x24 PUSH1 0x0 REVERT JUMPDEST PUSH32 0x4E487B7100000000000000000000000000000000000000000000000000000000 PUSH1 0x0 MSTORE PUSH1 0x11 PUSH1 0x4 MSTORE PUSH1 0x24 PUSH1 0x0 REVERT JUMPDEST PUSH1 0x0 PUSH2 0x132D DUP3 PUSH2 0xF1B JUMP JUMPDEST SWAP2 POP PUSH32 0xFFFFFFFFFFFFFFFFFFFFFFFFFFFFFFFFFFFFFFFFFFFFFFFFFFFFFFFFFFFFFFFF DUP3 SUB PUSH2 0x135F JUMPI PUSH2 0x135E PUSH2 0x12F3 JUMP JUMPDEST JUMPDEST PUSH1 0x1 DUP3 ADD SWAP1 POP SWAP2 SWAP1 POP JUMP JUMPDEST PUSH2 0x1373 DUP2 PUSH2 0xEB0 JUMP JUMPDEST DUP3 MSTORE POP POP JUMP JUMPDEST PUSH1 0x0 PUSH1 0x20 DUP3 ADD SWAP1 POP PUSH2 0x138E PUSH1 0x0 DUP4 ADD DUP5 PUSH2 0x136A JUMP JUMPDEST SWAP3 SWAP2 POP POP JUMP JUMPDEST PUSH1 0x0 DUP2 MLOAD SWAP1 POP PUSH2 0x13A3 DUP2 PUSH2 0x10E6 JUMP JUMPDEST SWAP3 SWAP2 POP POP JUMP JUMPDEST PUSH1 0x0 PUSH1 0x20 DUP3 DUP5 SUB SLT ISZERO PUSH2 0x13BF JUMPI PUSH2 0x13BE PUSH2 0xE8B JUMP JUMPDEST JUMPDEST PUSH1 0x0 PUSH2 0x13CD DUP5 DUP3 DUP6 ADD PUSH2 0x1394 JUMP JUMPDEST SWAP2 POP POP SWAP3 SWAP2 POP POP JUMP JUMPDEST PUSH32 0x5761726E203A20496E73756666696369656E74205156452062616C616E636520 PUSH1 0x0 DUP3 ADD MSTORE PUSH32 0x746F207374616B65000000000000000000000000000000000000000000000000 PUSH1 0x20 DUP3 ADD MSTORE POP JUMP JUMPDEST PUSH1 0x0 PUSH2 0x1432 PUSH1 0x28 DUP4 PUSH2 0x11B5 JUMP JUMPDEST SWAP2 POP PUSH2 0x143D DUP3 PUSH2 0x13D6 JUMP JUMPDEST PUSH1 0x40 DUP3 ADD SWAP1 POP SWAP2 SWAP1 POP JUMP JUMPDEST PUSH1 0x0 PUSH1 0x20 DUP3 ADD SWAP1 POP DUP2 DUP2 SUB PUSH1 0x0 DUP4 ADD MSTORE PUSH2 0x1461 DUP2 PUSH2 0x1425 JUMP JUMPDEST SWAP1 POP SWAP2 SWAP1 POP JUMP JUMPDEST PUSH1 0x0 PUSH1 0x80 DUP3 ADD SWAP1 POP PUSH2 0x147D PUSH1 0x0 DUP4 ADD DUP8 PUSH2 0x136A JUMP JUMPDEST PUSH2 0x148A PUSH1 0x20 DUP4 ADD DUP7 PUSH2 0x136A JUMP JUMPDEST PUSH2 0x1497 PUSH1 0x40 DUP4 ADD DUP6 PUSH2 0x136A JUMP JUMPDEST PUSH2 0x14A4 PUSH1 0x60 DUP4 ADD DUP5 PUSH2 0x10BC JUMP JUMPDEST SWAP6 SWAP5 POP POP POP POP POP JUMP JUMPDEST PUSH2 0x14B6 DUP2 PUSH2 0x113F JUMP JUMPDEST DUP2 EQ PUSH2 0x14C1 JUMPI PUSH1 0x0 DUP1 REVERT JUMPDEST POP JUMP JUMPDEST PUSH1 0x0 DUP2 MLOAD SWAP1 POP PUSH2 0x14D3 DUP2 PUSH2 0x14AD JUMP JUMPDEST SWAP3 SWAP2 POP POP JUMP JUMPDEST PUSH1 0x0 PUSH1 0x20 DUP3 DUP5 SUB SLT ISZERO PUSH2 0x14EF JUMPI PUSH2 0x14EE PUSH2 0xE8B JUMP JUMPDEST JUMPDEST PUSH1 0x0 PUSH2 0x14FD DUP5 DUP3 DUP6 ADD PUSH2 0x14C4 JUMP JUMPDEST SWAP2 POP POP SWAP3 SWAP2 POP POP JUMP JUMPDEST PUSH32 0x5761726E203A20766961207472616E73666572206661696C6564000000000000 PUSH1 0x0 DUP3 ADD MSTORE POP JUMP JUMPDEST PUSH1 0x0 PUSH2 0x153C PUSH1 0x1A DUP4 PUSH2 0x11B5 JUMP JUMPDEST SWAP2 POP PUSH2 0x1547 DUP3 PUSH2 0x1506 JUMP JUMPDEST PUSH1 0x20 DUP3 ADD SWAP1 POP SWAP2 SWAP1 POP JUMP JUMPDEST PUSH1 0x0 PUSH1 0x20 DUP3 ADD SWAP1 POP DUP2 DUP2 SUB PUSH1 0x0 DUP4 ADD MSTORE PUSH2 0x156B DUP2 PUSH2 0x152F JUMP JUMPDEST SWAP1 POP SWAP2 SWAP1 POP JUMP JUMPDEST PUSH1 0x0 PUSH1 0x40 DUP3 ADD SWAP1 POP PUSH2 0x1587 PUSH1 0x0 DUP4 ADD DUP6 PUSH2 0x136A JUMP JUMPDEST PUSH2 0x1594 PUSH1 0x20 DUP4 ADD DUP5 PUSH2 0x10BC JUMP JUMPDEST SWAP4 SWAP3 POP POP POP JUMP JUMPDEST PUSH32 0x4E6F205265456E7472616E637900000000000000000000000000000000000000 PUSH1 0x0 DUP3 ADD MSTORE POP JUMP JUMPDEST PUSH1 0x0 PUSH2 0x15D1 PUSH1 0xD DUP4 PUSH2 0x11B5 JUMP JUMPDEST SWAP2 POP PUSH2 0x15DC DUP3 PUSH2 0x159B JUMP JUMPDEST PUSH1 0x20 DUP3 ADD SWAP1 POP SWAP2 SWAP1 POP JUMP JUMPDEST PUSH1 0x0 PUSH1 0x20 DUP3 ADD SWAP1 POP DUP2 DUP2 SUB PUSH1 0x0 DUP4 ADD MSTORE PUSH2 0x1600 DUP2 PUSH2 0x15C4 JUMP JUMPDEST SWAP1 POP SWAP2 SWAP1 POP JUMP JUMPDEST PUSH32 0x5761726E203A2030207374616B65642062616C616E6365000000000000000000 PUSH1 0x0 DUP3 ADD MSTORE POP JUMP JUMPDEST PUSH1 0x0 PUSH2 0x163D PUSH1 0x17 DUP4 PUSH2 0x11B5 JUMP JUMPDEST SWAP2 POP PUSH2 0x1648 DUP3 PUSH2 0x1607 JUMP JUMPDEST PUSH1 0x20 DUP3 ADD SWAP1 POP SWAP2 SWAP1 POP JUMP JUMPDEST PUSH1 0x0 PUSH1 0x20 DUP3 ADD SWAP1 POP DUP2 DUP2 SUB PUSH1 0x0 DUP4 ADD MSTORE PUSH2 0x166C DUP2 PUSH2 0x1630 JUMP JUMPDEST SWAP1 POP SWAP2 SWAP1 POP JUMP JUMPDEST PUSH32 0x5761726E203A20496E73756666696369656E74207374616B65642062616C616E PUSH1 0x0 DUP3 ADD MSTORE PUSH32 0x6365000000000000000000000000000000000000000000000000000000000000 PUSH1 0x20 DUP3 ADD MSTORE POP JUMP JUMPDEST PUSH1 0x0 PUSH2 0x16CF PUSH1 0x22 DUP4 PUSH2 0x11B5 JUMP JUMPDEST SWAP2 POP PUSH2 0x16DA DUP3 PUSH2 0x1673 JUMP JUMPDEST PUSH1 0x40 DUP3 ADD SWAP1 POP SWAP2 SWAP1 POP JUMP JUMPDEST PUSH1 0x0 PUSH1 0x20 DUP3 ADD SWAP1 POP DUP2 DUP2 SUB PUSH1 0x0 DUP4 ADD MSTORE PUSH2 0x16FE DUP2 PUSH2 0x16C2 JUMP JUMPDEST SWAP1 POP SWAP2 SWAP1 POP JUMP JUMPDEST PUSH32 0x5761726E203A2053656E6420515645206572726F720000000000000000000000 PUSH1 0x0 DUP3 ADD MSTORE POP JUMP JUMPDEST PUSH1 0x0 PUSH2 0x173B PUSH1 0x15 DUP4 PUSH2 0x11B5 JUMP JUMPDEST SWAP2 POP PUSH2 0x1746 DUP3 PUSH2 0x1705 JUMP JUMPDEST PUSH1 0x20 DUP3 ADD SWAP1 POP SWAP2 SWAP1 POP JUMP JUMPDEST PUSH1 0x0 PUSH1 0x20 DUP3 ADD SWAP1 POP DUP2 DUP2 SUB PUSH1 0x0 DUP4 ADD MSTORE PUSH2 0x176A DUP2 PUSH2 0x172E JUMP JUMPDEST SWAP1 POP SWAP2 SWAP1 POP JUMP JUMPDEST PUSH1 0x0 PUSH2 0x177C DUP3 PUSH2 0xF1B JUMP JUMPDEST SWAP2 POP PUSH2 0x1787 DUP4 PUSH2 0xF1B JUMP JUMPDEST SWAP3 POP DUP3 DUP3 ADD SWAP1 POP DUP1 DUP3 GT ISZERO PUSH2 0x179F JUMPI PUSH2 0x179E PUSH2 0x12F3 JUMP JUMPDEST JUMPDEST SWAP3 SWAP2 POP POP JUMP JUMPDEST PUSH1 0x0 PUSH2 0x17B0 DUP3 PUSH2 0xF1B JUMP JUMPDEST SWAP2 POP PUSH2 0x17BB DUP4 PUSH2 0xF1B JUMP JUMPDEST SWAP3 POP DUP3 DUP3 SUB SWAP1 POP DUP2 DUP2 GT ISZERO PUSH2 0x17D3 JUMPI PUSH2 0x17D2 PUSH2 0x12F3 JUMP JUMPDEST JUMPDEST SWAP3 SWAP2 POP POP JUMP JUMPDEST PUSH1 0x0 PUSH2 0x17E4 DUP3 PUSH2 0xF1B JUMP JUMPDEST SWAP2 POP PUSH2 0x17EF DUP4 PUSH2 0xF1B JUMP JUMPDEST SWAP3 POP DUP3 DUP3 MUL PUSH2 0x17FD DUP2 PUSH2 0xF1B JUMP JUMPDEST SWAP2 POP DUP3 DUP3 DIV DUP5 EQ DUP4 ISZERO OR PUSH2 0x1814 JUMPI PUSH2 0x1813 PUSH2 0x12F3 JUMP JUMPDEST JUMPDEST POP SWAP3 SWAP2 POP POP JUMP JUMPDEST PUSH32 0x4E487B7100000000000000000000000000000000000000000000000000000000 PUSH1 0x0 MSTORE PUSH1 0x12 PUSH1 0x4 MSTORE PUSH1 0x24 PUSH1 0x0 REVERT JUMPDEST PUSH1 0x0 PUSH2 0x1855 DUP3 PUSH2 0xF1B JUMP JUMPDEST SWAP2 POP PUSH2 0x1860 DUP4 PUSH2 0xF1B JUMP JUMPDEST SWAP3 POP DUP3 PUSH2 0x1870 JUMPI PUSH2 0x186F PUSH2 0x181B JUMP JUMPDEST JUMPDEST DUP3 DUP3 DIV SWAP1 POP SWAP3 SWAP2 POP POP JUMP JUMPDEST PUSH32 0x436F756E7465723A2064656372656D656E74206F766572666C6F770000000000 PUSH1 0x0 DUP3 ADD MSTORE POP JUMP JUMPDEST PUSH1 0x0 PUSH2 0x18B1 PUSH1 0x1B DUP4 PUSH2 0x11B5 JUMP JUMPDEST SWAP2 POP PUSH2 0x18BC DUP3 PUSH2 0x187B JUMP JUMPDEST PUSH1 0x20 DUP3 ADD SWAP1 POP SWAP2 SWAP1 POP JUMP JUMPDEST PUSH1 0x0 PUSH1 0x20 DUP3 ADD SWAP1 POP DUP2 DUP2 SUB PUSH1 0x0 DUP4 ADD MSTORE PUSH2 0x18E0 DUP2 PUSH2 0x18A4 JUMP JUMPDEST SWAP1 POP SWAP2 SWAP1 POP JUMP INVALID LOG2 PUSH5 0x6970667358 0x22 SLT KECCAK256 PUSH14 0xEBC2CA9BB5516B5CE4581E953EBC BYTE 0x25 JUMPDEST 0x4C RETURN 0xE3 0x1F 0xE BASEFEE PUSH30 0xE34DD9DE71CCA464736F6C63430008120033000000000000000000000000 "
		},
		"gasEstimates": {
			"creation": {
				"codeDepositCost": "1285800",
				"executionCost": "infinite",
				"totalCost": "infinite"
			},
			"external": {
				"distributeToQVEholders()": "infinite",
				"getPersonalStakeInfo(address)": "infinite",
				"getTotalStakeNum()": "2508",
				"getTotalStaked()": "2482",
				"qveToken()": "infinite",
				"receiveSettledEth(uint256)": "infinite",
				"stake(address,uint256)": "infinite",
				"unStake(address,uint256)": "infinite"
			},
			"internal": {
				"_stakeAfter(address,uint256)": "infinite",
				"_unstakeAfter(uint256,address)": "infinite"
			}
		},
		"methodIdentifiers": {
			"distributeToQVEholders()": "54ef50de",
			"getPersonalStakeInfo(address)": "051b637a",
			"getTotalStakeNum()": "8e5d763f",
			"getTotalStaked()": "0917e776",
			"qveToken()": "05335410",
			"receiveSettledEth(uint256)": "36aac453",
			"stake(address,uint256)": "adc9772e",
			"unStake(address,uint256)": "d9393814"
		}
	},
	"abi": [
		{
			"inputs": [
				{
					"internalType": "contract QVEtoken",
					"name": "_qveToken",
					"type": "address"
				}
			],
			"stateMutability": "nonpayable",
			"type": "constructor"
		},
		{
			"anonymous": false,
			"inputs": [
				{
					"indexed": false,
					"internalType": "address",
					"name": "stakerAddress",
					"type": "address"
				},
				{
					"indexed": false,
					"internalType": "uint256",
					"name": "stakeAmount",
					"type": "uint256"
				}
			],
			"name": "StakeEvent",
			"type": "event"
		},
		{
			"anonymous": false,
			"inputs": [
				{
					"indexed": false,
					"internalType": "address",
					"name": "stakerAddress",
					"type": "address"
				},
				{
					"indexed": false,
					"internalType": "uint256",
					"name": "unstakeAmount",
					"type": "uint256"
				}
			],
			"name": "UnStakeEvent",
			"type": "event"
		},
		{
			"inputs": [],
			"name": "distributeToQVEholders",
			"outputs": [
				{
					"internalType": "bool",
					"name": "",
					"type": "bool"
				}
			],
			"stateMutability": "nonpayable",
			"type": "function"
		},
		{
			"inputs": [
				{
					"internalType": "address",
					"name": "sender",
					"type": "address"
				}
			],
			"name": "getPersonalStakeInfo",
			"outputs": [
				{
					"components": [
						{
							"internalType": "uint256",
							"name": "amount",
							"type": "uint256"
						},
						{
							"internalType": "uint256[]",
							"name": "at",
							"type": "uint256[]"
						}
					],
					"internalType": "struct QVEstaking.StakeInfo",
					"name": "",
					"type": "tuple"
				}
			],
			"stateMutability": "view",
			"type": "function"
		},
		{
			"inputs": [],
			"name": "getTotalStakeNum",
			"outputs": [
				{
					"internalType": "uint256",
					"name": "",
					"type": "uint256"
				}
			],
			"stateMutability": "view",
			"type": "function"
		},
		{
			"inputs": [],
			"name": "getTotalStaked",
			"outputs": [
				{
					"internalType": "uint256",
					"name": "",
					"type": "uint256"
				}
			],
			"stateMutability": "view",
			"type": "function"
		},
		{
			"inputs": [],
			"name": "qveToken",
			"outputs": [
				{
					"internalType": "contract QVEtoken",
					"name": "",
					"type": "address"
				}
			],
			"stateMutability": "view",
			"type": "function"
		},
		{
			"inputs": [
				{
					"internalType": "uint256",
					"name": "receivedAmount",
					"type": "uint256"
				}
			],
			"name": "receiveSettledEth",
			"outputs": [
				{
					"internalType": "bool",
					"name": "",
					"type": "bool"
				}
			],
			"stateMutability": "payable",
			"type": "function"
		},
		{
			"inputs": [
				{
					"internalType": "address",
					"name": "staker",
					"type": "address"
				},
				{
					"internalType": "uint256",
					"name": "stakeAmount",
					"type": "uint256"
				}
			],
			"name": "stake",
			"outputs": [
				{
					"internalType": "bool",
					"name": "",
					"type": "bool"
				}
			],
			"stateMutability": "nonpayable",
			"type": "function"
		},
		{
			"inputs": [
				{
					"internalType": "address",
					"name": "staker",
					"type": "address"
				},
				{
					"internalType": "uint256",
					"name": "unstakeAmount",
					"type": "uint256"
				}
			],
			"name": "unStake",
			"outputs": [
				{
					"internalType": "bool",
					"name": "",
					"type": "bool"
				}
			],
			"stateMutability": "nonpayable",
			"type": "function"
		}
	]
}