{
	"data": {
		"bytecode": {
			"linkReferences": {},
			"object": "60806040525f60065534801562000014575f80fd5b50604051620019e6380380620019e683398181016040528101906200003a919062000227565b5f73ffffffffffffffffffffffffffffffffffffffff168273ffffffffffffffffffffffffffffffffffffffff1614156040518060400160405280601b81526020017f496e76616c69642062656e65666963696172792061646472657373000000000081525090620000e4576040517f08c379a0000000000000000000000000000000000000000000000000000000008152600401620000db919062000300565b60405180910390fd5b508160025f6101000a81548173ffffffffffffffffffffffffffffffffffffffff021916908373ffffffffffffffffffffffffffffffffffffffff1602179055508060035f6101000a81548173ffffffffffffffffffffffffffffffffffffffff021916908373ffffffffffffffffffffffffffffffffffffffff160217905550505062000322565b5f80fd5b5f73ffffffffffffffffffffffffffffffffffffffff82169050919050565b5f6200019c8262000171565b9050919050565b5f620001af8262000190565b9050919050565b620001c181620001a3565b8114620001cc575f80fd5b50565b5f81519050620001df81620001b6565b92915050565b5f620001f18262000190565b9050919050565b6200020381620001e5565b81146200020e575f80fd5b50565b5f815190506200022181620001f8565b92915050565b5f806040838503121562000240576200023f6200016d565b5b5f6200024f85828601620001cf565b9250506020620002628582860162000211565b9150509250929050565b5f81519050919050565b5f82825260208201905092915050565b5f5b83811015620002a557808201518184015260208101905062000288565b5f8484015250505050565b5f601f19601f8301169050919050565b5f620002cc826200026c565b620002d8818562000276565b9350620002ea81856020860162000286565b620002f581620002b0565b840191505092915050565b5f6020820190508181035f8301526200031a8184620002c0565b905092915050565b6116b680620003305f395ff3fe608060405234801561000f575f80fd5b50600436106100a7575f3560e01c80638bf7d7001161006f5780638bf7d7001461018c578063b1e6abc5146101a8578063c4730d5d146101d8578063cbd09371146101f6578063cdb51cdf14610226578063fc0c546a14610242576100a7565b80630197d972146100ab578063195ae1f1146100c9578063302df083146100f957806355f9ecba14610129578063821bee7314610159575b5f80fd5b6100b3610260565b6040516100c09190611083565b60405180910390f35b6100e360048036038101906100de91906110ca565b610267565b6040516100f09190611083565b60405180910390f35b610113600480360381019061010e91906110ca565b6102b2565b6040516101209190611134565b60405180910390f35b610143600480360381019061013e91906110ca565b6102ee565b6040516101509190611083565b60405180910390f35b610173600480360381019061016e91906110ca565b61030a565b6040516101839493929190611167565b60405180910390f35b6101a660048036038101906101a191906111d4565b610362565b005b6101c260048036038101906101bd9190611212565b6106bf565b6040516101cf9190611083565b60405180910390f35b6101e06106ea565b6040516101ed9190611083565b60405180910390f35b610210600480360381019061020b91906110ca565b6106f0565b60405161021d9190611083565b60405180910390f35b610240600480360381019061023b91906111d4565b61070d565b005b61024a610a04565b60405161025791906112ab565b60405180910390f35b6276a70081565b5f8061028f60045f8581526020019081526020015f205f015442610a2c90919063ffffffff16565b90506102aa655af3107a400082610a4190919063ffffffff16565b915050919050565b5f60045f8381526020019081526020015f206002015f9054906101000a900473ffffffffffffffffffffffffffffffffffffffff169050919050565b5f60045f8381526020019081526020015f205f01549050919050565b6004602052805f5260405f205f91509050805f015490806001015490806002015f9054906101000a900473ffffffffffffffffffffffffffffffffffffffff16908060020160149054906101000a900460ff16905084565b5f8054906101000a900460ff16156103af576040517f08c379a00000000000000000000000000000000000000000000000000000000081526004016103a69061131e565b60405180910390fd5b60015f806101000a81548160ff0219169083151502179055505f60045f8481526020019081526020015f209050805f01544210156040518060400160405280601a81526020017f546f6b656e732068617665206e6f7420766573746564207965740000000000008152509061045a576040517f08c379a000000000000000000000000000000000000000000000000000000000815260040161045191906113b6565b60405180910390fd5b506276a700815f01544261046e9190611403565b10156040518060400160405280601e81526020017f5765206861766520546f6b656e27732076657374696e6720706572696f640000815250906104e7576040517f08c379a00000000000000000000000000000000000000000000000000000000081526004016104de91906113b6565b60405180910390fd5b508060020160149054906101000a900460ff16156040518060400160405280601881526020017f56657374696e6720616c72656164792072656c6561736564000000000000000081525090610572576040517f08c379a000000000000000000000000000000000000000000000000000000000815260040161056991906113b6565b60405180910390fd5b5061057d8383610a56565b5060035f9054906101000a900473ffffffffffffffffffffffffffffffffffffffff1673ffffffffffffffffffffffffffffffffffffffff1663fc029c8f8260010154306040518363ffffffff1660e01b81526004016105de929190611436565b6020604051808303815f875af11580156105fa573d5f803e3d5ffd5b505050506040513d601f19601f8201168201806040525081019061061e9190611487565b5061062b83836001610ba0565b50806002015f9054906101000a900473ffffffffffffffffffffffffffffffffffffffff1673ffffffffffffffffffffffffffffffffffffffff16837f295ac83a3c5cf518a125ba974be97dca6a668bae6dd90b6902b2618cdff1fcc6836001015460405161069a9190611083565b60405180910390a3505f805f6101000a81548160ff0219169083151502179055505050565b6005602052815f5260405f2081815481106106d8575f80fd5b905f5260205f20015f91509150505481565b60065481565b5f60045f8381526020019081526020015f20600101549050919050565b5f8054906101000a900460ff161561075a576040517f08c379a00000000000000000000000000000000000000000000000000000000081526004016107519061131e565b60405180910390fd5b60015f806101000a81548160ff02191690831515021790555060035f9054906101000a900473ffffffffffffffffffffffffffffffffffffffff1673ffffffffffffffffffffffffffffffffffffffff1663469895c882306107cd670de0b6b3a764000087610a4190919063ffffffff16565b6040518463ffffffff1660e01b81526004016107eb939291906114b2565b6020604051808303815f875af1158015610807573d5f803e3d5ffd5b505050506040513d601f19601f8201168201806040525081019061082b9190611487565b610833575f80fd5b61084882600654610f7e90919063ffffffff16565b60068190555060405180608001604052804281526020018381526020018273ffffffffffffffffffffffffffffffffffffffff1681526020015f151581525060045f6108946001610f93565b81526020019081526020015f205f820151815f0155602082015181600101556040820151816002015f6101000a81548173ffffffffffffffffffffffffffffffffffffffff021916908373ffffffffffffffffffffffffffffffffffffffff16021790555060608201518160020160146101000a81548160ff02191690831515021790555090505060055f8273ffffffffffffffffffffffffffffffffffffffff1673ffffffffffffffffffffffffffffffffffffffff1681526020019081526020015f206109636001610f93565b908060018154018082558091505060019003905f5260205f20015f90919091909150558073ffffffffffffffffffffffffffffffffffffffff166109a76001610f93565b7ffbd41c6118c5ed14f196c270a1793d95e8517e43031d9bb61aa71cb2a38bf557846040516109d69190611083565b60405180910390a36109e86001610f9f565b5f805f6101000a81548160ff0219169083151502179055505050565b5f60025f9054906101000a900473ffffffffffffffffffffffffffffffffffffffff16905090565b5f8183610a399190611403565b905092915050565b5f8183610a4e91906114e7565b905092915050565b5f80610a7e60045f8681526020019081526020015f205f015442610a2c90919063ffffffff16565b9050610a8981610fb3565b60025f9054906101000a900473ffffffffffffffffffffffffffffffffffffffff1673ffffffffffffffffffffffffffffffffffffffff16635f367b038460045f8881526020019081526020015f206001015460045f8981526020019081526020015f20600101546103e86003655af3107a400088610b0891906114e7565b610b1291906114e7565b610b1c9190611555565b610b2691906114e7565b610b309190611585565b6040518363ffffffff1660e01b8152600401610b4d9291906115b8565b6020604051808303815f875af1158015610b69573d5f803e3d5ffd5b505050506040513d601f19601f82011682018060405250810190610b8d9190611487565b610b95575f80fd5b600191505092915050565b5f825f60055f8373ffffffffffffffffffffffffffffffffffffffff1673ffffffffffffffffffffffffffffffffffffffff1681526020019081526020015f2080549050116040518060400160405280601a81526020017f546f6b656e732068617665206e6f74207665737465642079657400000000000081525090610c5c576040517f08c379a0000000000000000000000000000000000000000000000000000000008152600401610c5391906113b6565b60405180910390fd5b505f60055f8673ffffffffffffffffffffffffffffffffffffffff1673ffffffffffffffffffffffffffffffffffffffff1681526020019081526020015f2090505f60045f8881526020019081526020015f2090505f73ffffffffffffffffffffffffffffffffffffffff16816002015f9054906101000a900473ffffffffffffffffffffffffffffffffffffffff1673ffffffffffffffffffffffffffffffffffffffff1614156040518060400160405280601b81526020017f496e76616c69642062656e65666963696172792061646472657373000000000081525090610d7b576040517f08c379a0000000000000000000000000000000000000000000000000000000008152600401610d7291906113b6565b60405180910390fd5b508060020160149054906101000a900460ff16156040518060400160405280601881526020017f56657374696e6720616c72656164792072656c6561736564000000000000000081525090610e06576040517f08c379a0000000000000000000000000000000000000000000000000000000008152600401610dfd91906113b6565b60405180910390fd5b50610e208160010154600654610a2c90919063ffffffff16565b6006819055505f5b8280549050811015610ef95787838281548110610e4857610e476115df565b5b905f5260205f20015403610ee6578260018480549050610e689190611403565b81548110610e7957610e786115df565b5b905f5260205f200154838281548110610e9557610e946115df565b5b905f5260205f20018190555082805480610eb257610eb161160c565b5b600190038181905f5260205f20015f90559055858260020160146101000a81548160ff021916908315150217905550610ef9565b8080610ef190611639565b915050610e28565b50806002015f9054906101000a900473ffffffffffffffffffffffffffffffffffffffff1673ffffffffffffffffffffffffffffffffffffffff16877fdc8b9c8cc0c8d05e10824e69ee88995716a539af94a1c60fb9898367f613477c8360010154604051610f689190611083565b60405180910390a3600193505050509392505050565b5f8183610f8b9190611585565b905092915050565b5f815f01549050919050565b6001815f015f828254019250508190555050565b61104981604051602401610fc79190611083565b6040516020818303038152906040527ff82c50f1000000000000000000000000000000000000000000000000000000007bffffffffffffffffffffffffffffffffffffffffffffffffffffffff19166020820180517bffffffffffffffffffffffffffffffffffffffffffffffffffffffff838183161783525050505061104c565b50565b5f6a636f6e736f6c652e6c6f6790505f80835160208501845afa505050565b5f819050919050565b61107d8161106b565b82525050565b5f6020820190506110965f830184611074565b92915050565b5f80fd5b6110a98161106b565b81146110b3575f80fd5b50565b5f813590506110c4816110a0565b92915050565b5f602082840312156110df576110de61109c565b5b5f6110ec848285016110b6565b91505092915050565b5f73ffffffffffffffffffffffffffffffffffffffff82169050919050565b5f61111e826110f5565b9050919050565b61112e81611114565b82525050565b5f6020820190506111475f830184611125565b92915050565b5f8115159050919050565b6111618161114d565b82525050565b5f60808201905061117a5f830187611074565b6111876020830186611074565b6111946040830185611125565b6111a16060830184611158565b95945050505050565b6111b381611114565b81146111bd575f80fd5b50565b5f813590506111ce816111aa565b92915050565b5f80604083850312156111ea576111e961109c565b5b5f6111f7858286016110b6565b9250506020611208858286016111c0565b9150509250929050565b5f80604083850312156112285761122761109c565b5b5f611235858286016111c0565b9250506020611246858286016110b6565b9150509250929050565b5f819050919050565b5f61127361126e611269846110f5565b611250565b6110f5565b9050919050565b5f61128482611259565b9050919050565b5f6112958261127a565b9050919050565b6112a58161128b565b82525050565b5f6020820190506112be5f83018461129c565b92915050565b5f82825260208201905092915050565b7f4e6f205265456e7472616e6379000000000000000000000000000000000000005f82015250565b5f611308600d836112c4565b9150611313826112d4565b602082019050919050565b5f6020820190508181035f830152611335816112fc565b9050919050565b5f81519050919050565b5f5b83811015611363578082015181840152602081019050611348565b5f8484015250505050565b5f601f19601f8301169050919050565b5f6113888261133c565b61139281856112c4565b93506113a2818560208601611346565b6113ab8161136e565b840191505092915050565b5f6020820190508181035f8301526113ce818461137e565b905092915050565b7f4e487b71000000000000000000000000000000000000000000000000000000005f52601160045260245ffd5b5f61140d8261106b565b91506114188361106b565b92508282039050818111156114305761142f6113d6565b5b92915050565b5f6040820190506114495f830185611074565b6114566020830184611125565b9392505050565b6114668161114d565b8114611470575f80fd5b50565b5f815190506114818161145d565b92915050565b5f6020828403121561149c5761149b61109c565b5b5f6114a984828501611473565b91505092915050565b5f6060820190506114c55f830186611125565b6114d26020830185611125565b6114df6040830184611074565b949350505050565b5f6114f18261106b565b91506114fc8361106b565b925082820261150a8161106b565b91508282048414831517611521576115206113d6565b5b5092915050565b7f4e487b71000000000000000000000000000000000000000000000000000000005f52601260045260245ffd5b5f61155f8261106b565b915061156a8361106b565b92508261157a57611579611528565b5b828204905092915050565b5f61158f8261106b565b915061159a8361106b565b92508282019050808211156115b2576115b16113d6565b5b92915050565b5f6040820190506115cb5f830185611125565b6115d86020830184611074565b9392505050565b7f4e487b71000000000000000000000000000000000000000000000000000000005f52603260045260245ffd5b7f4e487b71000000000000000000000000000000000000000000000000000000005f52603160045260245ffd5b5f6116438261106b565b91507fffffffffffffffffffffffffffffffffffffffffffffffffffffffffffffffff8203611675576116746113d6565b5b60018201905091905056fea2646970667358221220dbb8f97fccb62477bda17181c47b09e57aa6685543f47aed0807d18945fc9bf664736f6c63430008150033",
			"opcodes": "PUSH1 0x80 PUSH1 0x40 MSTORE PUSH0 PUSH1 0x6 SSTORE CALLVALUE DUP1 ISZERO PUSH3 0x14 JUMPI PUSH0 DUP1 REVERT JUMPDEST POP PUSH1 0x40 MLOAD PUSH3 0x19E6 CODESIZE SUB DUP1 PUSH3 0x19E6 DUP4 CODECOPY DUP2 DUP2 ADD PUSH1 0x40 MSTORE DUP2 ADD SWAP1 PUSH3 0x3A SWAP2 SWAP1 PUSH3 0x227 JUMP JUMPDEST PUSH0 PUSH20 0xFFFFFFFFFFFFFFFFFFFFFFFFFFFFFFFFFFFFFFFF AND DUP3 PUSH20 0xFFFFFFFFFFFFFFFFFFFFFFFFFFFFFFFFFFFFFFFF AND EQ ISZERO PUSH1 0x40 MLOAD DUP1 PUSH1 0x40 ADD PUSH1 0x40 MSTORE DUP1 PUSH1 0x1B DUP2 MSTORE PUSH1 0x20 ADD PUSH32 0x496E76616C69642062656E656669636961727920616464726573730000000000 DUP2 MSTORE POP SWAP1 PUSH3 0xE4 JUMPI PUSH1 0x40 MLOAD PUSH32 0x8C379A000000000000000000000000000000000000000000000000000000000 DUP2 MSTORE PUSH1 0x4 ADD PUSH3 0xDB SWAP2 SWAP1 PUSH3 0x300 JUMP JUMPDEST PUSH1 0x40 MLOAD DUP1 SWAP2 SUB SWAP1 REVERT JUMPDEST POP DUP2 PUSH1 0x2 PUSH0 PUSH2 0x100 EXP DUP2 SLOAD DUP2 PUSH20 0xFFFFFFFFFFFFFFFFFFFFFFFFFFFFFFFFFFFFFFFF MUL NOT AND SWAP1 DUP4 PUSH20 0xFFFFFFFFFFFFFFFFFFFFFFFFFFFFFFFFFFFFFFFF AND MUL OR SWAP1 SSTORE POP DUP1 PUSH1 0x3 PUSH0 PUSH2 0x100 EXP DUP2 SLOAD DUP2 PUSH20 0xFFFFFFFFFFFFFFFFFFFFFFFFFFFFFFFFFFFFFFFF MUL NOT AND SWAP1 DUP4 PUSH20 0xFFFFFFFFFFFFFFFFFFFFFFFFFFFFFFFFFFFFFFFF AND MUL OR SWAP1 SSTORE POP POP POP PUSH3 0x322 JUMP JUMPDEST PUSH0 DUP1 REVERT JUMPDEST PUSH0 PUSH20 0xFFFFFFFFFFFFFFFFFFFFFFFFFFFFFFFFFFFFFFFF DUP3 AND SWAP1 POP SWAP2 SWAP1 POP JUMP JUMPDEST PUSH0 PUSH3 0x19C DUP3 PUSH3 0x171 JUMP JUMPDEST SWAP1 POP SWAP2 SWAP1 POP JUMP JUMPDEST PUSH0 PUSH3 0x1AF DUP3 PUSH3 0x190 JUMP JUMPDEST SWAP1 POP SWAP2 SWAP1 POP JUMP JUMPDEST PUSH3 0x1C1 DUP2 PUSH3 0x1A3 JUMP JUMPDEST DUP2 EQ PUSH3 0x1CC JUMPI PUSH0 DUP1 REVERT JUMPDEST POP JUMP JUMPDEST PUSH0 DUP2 MLOAD SWAP1 POP PUSH3 0x1DF DUP2 PUSH3 0x1B6 JUMP JUMPDEST SWAP3 SWAP2 POP POP JUMP JUMPDEST PUSH0 PUSH3 0x1F1 DUP3 PUSH3 0x190 JUMP JUMPDEST SWAP1 POP SWAP2 SWAP1 POP JUMP JUMPDEST PUSH3 0x203 DUP2 PUSH3 0x1E5 JUMP JUMPDEST DUP2 EQ PUSH3 0x20E JUMPI PUSH0 DUP1 REVERT JUMPDEST POP JUMP JUMPDEST PUSH0 DUP2 MLOAD SWAP1 POP PUSH3 0x221 DUP2 PUSH3 0x1F8 JUMP JUMPDEST SWAP3 SWAP2 POP POP JUMP JUMPDEST PUSH0 DUP1 PUSH1 0x40 DUP4 DUP6 SUB SLT ISZERO PUSH3 0x240 JUMPI PUSH3 0x23F PUSH3 0x16D JUMP JUMPDEST JUMPDEST PUSH0 PUSH3 0x24F DUP6 DUP3 DUP7 ADD PUSH3 0x1CF JUMP JUMPDEST SWAP3 POP POP PUSH1 0x20 PUSH3 0x262 DUP6 DUP3 DUP7 ADD PUSH3 0x211 JUMP JUMPDEST SWAP2 POP POP SWAP3 POP SWAP3 SWAP1 POP JUMP JUMPDEST PUSH0 DUP2 MLOAD SWAP1 POP SWAP2 SWAP1 POP JUMP JUMPDEST PUSH0 DUP3 DUP3 MSTORE PUSH1 0x20 DUP3 ADD SWAP1 POP SWAP3 SWAP2 POP POP JUMP JUMPDEST PUSH0 JUMPDEST DUP4 DUP2 LT ISZERO PUSH3 0x2A5 JUMPI DUP1 DUP3 ADD MLOAD DUP2 DUP5 ADD MSTORE PUSH1 0x20 DUP2 ADD SWAP1 POP PUSH3 0x288 JUMP JUMPDEST PUSH0 DUP5 DUP5 ADD MSTORE POP POP POP POP JUMP JUMPDEST PUSH0 PUSH1 0x1F NOT PUSH1 0x1F DUP4 ADD AND SWAP1 POP SWAP2 SWAP1 POP JUMP JUMPDEST PUSH0 PUSH3 0x2CC DUP3 PUSH3 0x26C JUMP JUMPDEST PUSH3 0x2D8 DUP2 DUP6 PUSH3 0x276 JUMP JUMPDEST SWAP4 POP PUSH3 0x2EA DUP2 DUP6 PUSH1 0x20 DUP7 ADD PUSH3 0x286 JUMP JUMPDEST PUSH3 0x2F5 DUP2 PUSH3 0x2B0 JUMP JUMPDEST DUP5 ADD SWAP2 POP POP SWAP3 SWAP2 POP POP JUMP JUMPDEST PUSH0 PUSH1 0x20 DUP3 ADD SWAP1 POP DUP2 DUP2 SUB PUSH0 DUP4 ADD MSTORE PUSH3 0x31A DUP2 DUP5 PUSH3 0x2C0 JUMP JUMPDEST SWAP1 POP SWAP3 SWAP2 POP POP JUMP JUMPDEST PUSH2 0x16B6 DUP1 PUSH3 0x330 PUSH0 CODECOPY PUSH0 RETURN INVALID PUSH1 0x80 PUSH1 0x40 MSTORE CALLVALUE DUP1 ISZERO PUSH2 0xF JUMPI PUSH0 DUP1 REVERT JUMPDEST POP PUSH1 0x4 CALLDATASIZE LT PUSH2 0xA7 JUMPI PUSH0 CALLDATALOAD PUSH1 0xE0 SHR DUP1 PUSH4 0x8BF7D700 GT PUSH2 0x6F JUMPI DUP1 PUSH4 0x8BF7D700 EQ PUSH2 0x18C JUMPI DUP1 PUSH4 0xB1E6ABC5 EQ PUSH2 0x1A8 JUMPI DUP1 PUSH4 0xC4730D5D EQ PUSH2 0x1D8 JUMPI DUP1 PUSH4 0xCBD09371 EQ PUSH2 0x1F6 JUMPI DUP1 PUSH4 0xCDB51CDF EQ PUSH2 0x226 JUMPI DUP1 PUSH4 0xFC0C546A EQ PUSH2 0x242 JUMPI PUSH2 0xA7 JUMP JUMPDEST DUP1 PUSH4 0x197D972 EQ PUSH2 0xAB JUMPI DUP1 PUSH4 0x195AE1F1 EQ PUSH2 0xC9 JUMPI DUP1 PUSH4 0x302DF083 EQ PUSH2 0xF9 JUMPI DUP1 PUSH4 0x55F9ECBA EQ PUSH2 0x129 JUMPI DUP1 PUSH4 0x821BEE73 EQ PUSH2 0x159 JUMPI JUMPDEST PUSH0 DUP1 REVERT JUMPDEST PUSH2 0xB3 PUSH2 0x260 JUMP JUMPDEST PUSH1 0x40 MLOAD PUSH2 0xC0 SWAP2 SWAP1 PUSH2 0x1083 JUMP JUMPDEST PUSH1 0x40 MLOAD DUP1 SWAP2 SUB SWAP1 RETURN JUMPDEST PUSH2 0xE3 PUSH1 0x4 DUP1 CALLDATASIZE SUB DUP2 ADD SWAP1 PUSH2 0xDE SWAP2 SWAP1 PUSH2 0x10CA JUMP JUMPDEST PUSH2 0x267 JUMP JUMPDEST PUSH1 0x40 MLOAD PUSH2 0xF0 SWAP2 SWAP1 PUSH2 0x1083 JUMP JUMPDEST PUSH1 0x40 MLOAD DUP1 SWAP2 SUB SWAP1 RETURN JUMPDEST PUSH2 0x113 PUSH1 0x4 DUP1 CALLDATASIZE SUB DUP2 ADD SWAP1 PUSH2 0x10E SWAP2 SWAP1 PUSH2 0x10CA JUMP JUMPDEST PUSH2 0x2B2 JUMP JUMPDEST PUSH1 0x40 MLOAD PUSH2 0x120 SWAP2 SWAP1 PUSH2 0x1134 JUMP JUMPDEST PUSH1 0x40 MLOAD DUP1 SWAP2 SUB SWAP1 RETURN JUMPDEST PUSH2 0x143 PUSH1 0x4 DUP1 CALLDATASIZE SUB DUP2 ADD SWAP1 PUSH2 0x13E SWAP2 SWAP1 PUSH2 0x10CA JUMP JUMPDEST PUSH2 0x2EE JUMP JUMPDEST PUSH1 0x40 MLOAD PUSH2 0x150 SWAP2 SWAP1 PUSH2 0x1083 JUMP JUMPDEST PUSH1 0x40 MLOAD DUP1 SWAP2 SUB SWAP1 RETURN JUMPDEST PUSH2 0x173 PUSH1 0x4 DUP1 CALLDATASIZE SUB DUP2 ADD SWAP1 PUSH2 0x16E SWAP2 SWAP1 PUSH2 0x10CA JUMP JUMPDEST PUSH2 0x30A JUMP JUMPDEST PUSH1 0x40 MLOAD PUSH2 0x183 SWAP5 SWAP4 SWAP3 SWAP2 SWAP1 PUSH2 0x1167 JUMP JUMPDEST PUSH1 0x40 MLOAD DUP1 SWAP2 SUB SWAP1 RETURN JUMPDEST PUSH2 0x1A6 PUSH1 0x4 DUP1 CALLDATASIZE SUB DUP2 ADD SWAP1 PUSH2 0x1A1 SWAP2 SWAP1 PUSH2 0x11D4 JUMP JUMPDEST PUSH2 0x362 JUMP JUMPDEST STOP JUMPDEST PUSH2 0x1C2 PUSH1 0x4 DUP1 CALLDATASIZE SUB DUP2 ADD SWAP1 PUSH2 0x1BD SWAP2 SWAP1 PUSH2 0x1212 JUMP JUMPDEST PUSH2 0x6BF JUMP JUMPDEST PUSH1 0x40 MLOAD PUSH2 0x1CF SWAP2 SWAP1 PUSH2 0x1083 JUMP JUMPDEST PUSH1 0x40 MLOAD DUP1 SWAP2 SUB SWAP1 RETURN JUMPDEST PUSH2 0x1E0 PUSH2 0x6EA JUMP JUMPDEST PUSH1 0x40 MLOAD PUSH2 0x1ED SWAP2 SWAP1 PUSH2 0x1083 JUMP JUMPDEST PUSH1 0x40 MLOAD DUP1 SWAP2 SUB SWAP1 RETURN JUMPDEST PUSH2 0x210 PUSH1 0x4 DUP1 CALLDATASIZE SUB DUP2 ADD SWAP1 PUSH2 0x20B SWAP2 SWAP1 PUSH2 0x10CA JUMP JUMPDEST PUSH2 0x6F0 JUMP JUMPDEST PUSH1 0x40 MLOAD PUSH2 0x21D SWAP2 SWAP1 PUSH2 0x1083 JUMP JUMPDEST PUSH1 0x40 MLOAD DUP1 SWAP2 SUB SWAP1 RETURN JUMPDEST PUSH2 0x240 PUSH1 0x4 DUP1 CALLDATASIZE SUB DUP2 ADD SWAP1 PUSH2 0x23B SWAP2 SWAP1 PUSH2 0x11D4 JUMP JUMPDEST PUSH2 0x70D JUMP JUMPDEST STOP JUMPDEST PUSH2 0x24A PUSH2 0xA04 JUMP JUMPDEST PUSH1 0x40 MLOAD PUSH2 0x257 SWAP2 SWAP1 PUSH2 0x12AB JUMP JUMPDEST PUSH1 0x40 MLOAD DUP1 SWAP2 SUB SWAP1 RETURN JUMPDEST PUSH3 0x76A700 DUP2 JUMP JUMPDEST PUSH0 DUP1 PUSH2 0x28F PUSH1 0x4 PUSH0 DUP6 DUP2 MSTORE PUSH1 0x20 ADD SWAP1 DUP2 MSTORE PUSH1 0x20 ADD PUSH0 KECCAK256 PUSH0 ADD SLOAD TIMESTAMP PUSH2 0xA2C SWAP1 SWAP2 SWAP1 PUSH4 0xFFFFFFFF AND JUMP JUMPDEST SWAP1 POP PUSH2 0x2AA PUSH6 0x5AF3107A4000 DUP3 PUSH2 0xA41 SWAP1 SWAP2 SWAP1 PUSH4 0xFFFFFFFF AND JUMP JUMPDEST SWAP2 POP POP SWAP2 SWAP1 POP JUMP JUMPDEST PUSH0 PUSH1 0x4 PUSH0 DUP4 DUP2 MSTORE PUSH1 0x20 ADD SWAP1 DUP2 MSTORE PUSH1 0x20 ADD PUSH0 KECCAK256 PUSH1 0x2 ADD PUSH0 SWAP1 SLOAD SWAP1 PUSH2 0x100 EXP SWAP1 DIV PUSH20 0xFFFFFFFFFFFFFFFFFFFFFFFFFFFFFFFFFFFFFFFF AND SWAP1 POP SWAP2 SWAP1 POP JUMP JUMPDEST PUSH0 PUSH1 0x4 PUSH0 DUP4 DUP2 MSTORE PUSH1 0x20 ADD SWAP1 DUP2 MSTORE PUSH1 0x20 ADD PUSH0 KECCAK256 PUSH0 ADD SLOAD SWAP1 POP SWAP2 SWAP1 POP JUMP JUMPDEST PUSH1 0x4 PUSH1 0x20 MSTORE DUP1 PUSH0 MSTORE PUSH1 0x40 PUSH0 KECCAK256 PUSH0 SWAP2 POP SWAP1 POP DUP1 PUSH0 ADD SLOAD SWAP1 DUP1 PUSH1 0x1 ADD SLOAD SWAP1 DUP1 PUSH1 0x2 ADD PUSH0 SWAP1 SLOAD SWAP1 PUSH2 0x100 EXP SWAP1 DIV PUSH20 0xFFFFFFFFFFFFFFFFFFFFFFFFFFFFFFFFFFFFFFFF AND SWAP1 DUP1 PUSH1 0x2 ADD PUSH1 0x14 SWAP1 SLOAD SWAP1 PUSH2 0x100 EXP SWAP1 DIV PUSH1 0xFF AND SWAP1 POP DUP5 JUMP JUMPDEST PUSH0 DUP1 SLOAD SWAP1 PUSH2 0x100 EXP SWAP1 DIV PUSH1 0xFF AND ISZERO PUSH2 0x3AF JUMPI PUSH1 0x40 MLOAD PUSH32 0x8C379A000000000000000000000000000000000000000000000000000000000 DUP2 MSTORE PUSH1 0x4 ADD PUSH2 0x3A6 SWAP1 PUSH2 0x131E JUMP JUMPDEST PUSH1 0x40 MLOAD DUP1 SWAP2 SUB SWAP1 REVERT JUMPDEST PUSH1 0x1 PUSH0 DUP1 PUSH2 0x100 EXP DUP2 SLOAD DUP2 PUSH1 0xFF MUL NOT AND SWAP1 DUP4 ISZERO ISZERO MUL OR SWAP1 SSTORE POP PUSH0 PUSH1 0x4 PUSH0 DUP5 DUP2 MSTORE PUSH1 0x20 ADD SWAP1 DUP2 MSTORE PUSH1 0x20 ADD PUSH0 KECCAK256 SWAP1 POP DUP1 PUSH0 ADD SLOAD TIMESTAMP LT ISZERO PUSH1 0x40 MLOAD DUP1 PUSH1 0x40 ADD PUSH1 0x40 MSTORE DUP1 PUSH1 0x1A DUP2 MSTORE PUSH1 0x20 ADD PUSH32 0x546F6B656E732068617665206E6F742076657374656420796574000000000000 DUP2 MSTORE POP SWAP1 PUSH2 0x45A JUMPI PUSH1 0x40 MLOAD PUSH32 0x8C379A000000000000000000000000000000000000000000000000000000000 DUP2 MSTORE PUSH1 0x4 ADD PUSH2 0x451 SWAP2 SWAP1 PUSH2 0x13B6 JUMP JUMPDEST PUSH1 0x40 MLOAD DUP1 SWAP2 SUB SWAP1 REVERT JUMPDEST POP PUSH3 0x76A700 DUP2 PUSH0 ADD SLOAD TIMESTAMP PUSH2 0x46E SWAP2 SWAP1 PUSH2 0x1403 JUMP JUMPDEST LT ISZERO PUSH1 0x40 MLOAD DUP1 PUSH1 0x40 ADD PUSH1 0x40 MSTORE DUP1 PUSH1 0x1E DUP2 MSTORE PUSH1 0x20 ADD PUSH32 0x5765206861766520546F6B656E27732076657374696E6720706572696F640000 DUP2 MSTORE POP SWAP1 PUSH2 0x4E7 JUMPI PUSH1 0x40 MLOAD PUSH32 0x8C379A000000000000000000000000000000000000000000000000000000000 DUP2 MSTORE PUSH1 0x4 ADD PUSH2 0x4DE SWAP2 SWAP1 PUSH2 0x13B6 JUMP JUMPDEST PUSH1 0x40 MLOAD DUP1 SWAP2 SUB SWAP1 REVERT JUMPDEST POP DUP1 PUSH1 0x2 ADD PUSH1 0x14 SWAP1 SLOAD SWAP1 PUSH2 0x100 EXP SWAP1 DIV PUSH1 0xFF AND ISZERO PUSH1 0x40 MLOAD DUP1 PUSH1 0x40 ADD PUSH1 0x40 MSTORE DUP1 PUSH1 0x18 DUP2 MSTORE PUSH1 0x20 ADD PUSH32 0x56657374696E6720616C72656164792072656C65617365640000000000000000 DUP2 MSTORE POP SWAP1 PUSH2 0x572 JUMPI PUSH1 0x40 MLOAD PUSH32 0x8C379A000000000000000000000000000000000000000000000000000000000 DUP2 MSTORE PUSH1 0x4 ADD PUSH2 0x569 SWAP2 SWAP1 PUSH2 0x13B6 JUMP JUMPDEST PUSH1 0x40 MLOAD DUP1 SWAP2 SUB SWAP1 REVERT JUMPDEST POP PUSH2 0x57D DUP4 DUP4 PUSH2 0xA56 JUMP JUMPDEST POP PUSH1 0x3 PUSH0 SWAP1 SLOAD SWAP1 PUSH2 0x100 EXP SWAP1 DIV PUSH20 0xFFFFFFFFFFFFFFFFFFFFFFFFFFFFFFFFFFFFFFFF AND PUSH20 0xFFFFFFFFFFFFFFFFFFFFFFFFFFFFFFFFFFFFFFFF AND PUSH4 0xFC029C8F DUP3 PUSH1 0x1 ADD SLOAD ADDRESS PUSH1 0x40 MLOAD DUP4 PUSH4 0xFFFFFFFF AND PUSH1 0xE0 SHL DUP2 MSTORE PUSH1 0x4 ADD PUSH2 0x5DE SWAP3 SWAP2 SWAP1 PUSH2 0x1436 JUMP JUMPDEST PUSH1 0x20 PUSH1 0x40 MLOAD DUP1 DUP4 SUB DUP2 PUSH0 DUP8 GAS CALL ISZERO DUP1 ISZERO PUSH2 0x5FA JUMPI RETURNDATASIZE PUSH0 DUP1 RETURNDATACOPY RETURNDATASIZE PUSH0 REVERT JUMPDEST POP POP POP POP PUSH1 0x40 MLOAD RETURNDATASIZE PUSH1 0x1F NOT PUSH1 0x1F DUP3 ADD AND DUP3 ADD DUP1 PUSH1 0x40 MSTORE POP DUP2 ADD SWAP1 PUSH2 0x61E SWAP2 SWAP1 PUSH2 0x1487 JUMP JUMPDEST POP PUSH2 0x62B DUP4 DUP4 PUSH1 0x1 PUSH2 0xBA0 JUMP JUMPDEST POP DUP1 PUSH1 0x2 ADD PUSH0 SWAP1 SLOAD SWAP1 PUSH2 0x100 EXP SWAP1 DIV PUSH20 0xFFFFFFFFFFFFFFFFFFFFFFFFFFFFFFFFFFFFFFFF AND PUSH20 0xFFFFFFFFFFFFFFFFFFFFFFFFFFFFFFFFFFFFFFFF AND DUP4 PUSH32 0x295AC83A3C5CF518A125BA974BE97DCA6A668BAE6DD90B6902B2618CDFF1FCC6 DUP4 PUSH1 0x1 ADD SLOAD PUSH1 0x40 MLOAD PUSH2 0x69A SWAP2 SWAP1 PUSH2 0x1083 JUMP JUMPDEST PUSH1 0x40 MLOAD DUP1 SWAP2 SUB SWAP1 LOG3 POP PUSH0 DUP1 PUSH0 PUSH2 0x100 EXP DUP2 SLOAD DUP2 PUSH1 0xFF MUL NOT AND SWAP1 DUP4 ISZERO ISZERO MUL OR SWAP1 SSTORE POP POP POP JUMP JUMPDEST PUSH1 0x5 PUSH1 0x20 MSTORE DUP2 PUSH0 MSTORE PUSH1 0x40 PUSH0 KECCAK256 DUP2 DUP2 SLOAD DUP2 LT PUSH2 0x6D8 JUMPI PUSH0 DUP1 REVERT JUMPDEST SWAP1 PUSH0 MSTORE PUSH1 0x20 PUSH0 KECCAK256 ADD PUSH0 SWAP2 POP SWAP2 POP POP SLOAD DUP2 JUMP JUMPDEST PUSH1 0x6 SLOAD DUP2 JUMP JUMPDEST PUSH0 PUSH1 0x4 PUSH0 DUP4 DUP2 MSTORE PUSH1 0x20 ADD SWAP1 DUP2 MSTORE PUSH1 0x20 ADD PUSH0 KECCAK256 PUSH1 0x1 ADD SLOAD SWAP1 POP SWAP2 SWAP1 POP JUMP JUMPDEST PUSH0 DUP1 SLOAD SWAP1 PUSH2 0x100 EXP SWAP1 DIV PUSH1 0xFF AND ISZERO PUSH2 0x75A JUMPI PUSH1 0x40 MLOAD PUSH32 0x8C379A000000000000000000000000000000000000000000000000000000000 DUP2 MSTORE PUSH1 0x4 ADD PUSH2 0x751 SWAP1 PUSH2 0x131E JUMP JUMPDEST PUSH1 0x40 MLOAD DUP1 SWAP2 SUB SWAP1 REVERT JUMPDEST PUSH1 0x1 PUSH0 DUP1 PUSH2 0x100 EXP DUP2 SLOAD DUP2 PUSH1 0xFF MUL NOT AND SWAP1 DUP4 ISZERO ISZERO MUL OR SWAP1 SSTORE POP PUSH1 0x3 PUSH0 SWAP1 SLOAD SWAP1 PUSH2 0x100 EXP SWAP1 DIV PUSH20 0xFFFFFFFFFFFFFFFFFFFFFFFFFFFFFFFFFFFFFFFF AND PUSH20 0xFFFFFFFFFFFFFFFFFFFFFFFFFFFFFFFFFFFFFFFF AND PUSH4 0x469895C8 DUP3 ADDRESS PUSH2 0x7CD PUSH8 0xDE0B6B3A7640000 DUP8 PUSH2 0xA41 SWAP1 SWAP2 SWAP1 PUSH4 0xFFFFFFFF AND JUMP JUMPDEST PUSH1 0x40 MLOAD DUP5 PUSH4 0xFFFFFFFF AND PUSH1 0xE0 SHL DUP2 MSTORE PUSH1 0x4 ADD PUSH2 0x7EB SWAP4 SWAP3 SWAP2 SWAP1 PUSH2 0x14B2 JUMP JUMPDEST PUSH1 0x20 PUSH1 0x40 MLOAD DUP1 DUP4 SUB DUP2 PUSH0 DUP8 GAS CALL ISZERO DUP1 ISZERO PUSH2 0x807 JUMPI RETURNDATASIZE PUSH0 DUP1 RETURNDATACOPY RETURNDATASIZE PUSH0 REVERT JUMPDEST POP POP POP POP PUSH1 0x40 MLOAD RETURNDATASIZE PUSH1 0x1F NOT PUSH1 0x1F DUP3 ADD AND DUP3 ADD DUP1 PUSH1 0x40 MSTORE POP DUP2 ADD SWAP1 PUSH2 0x82B SWAP2 SWAP1 PUSH2 0x1487 JUMP JUMPDEST PUSH2 0x833 JUMPI PUSH0 DUP1 REVERT JUMPDEST PUSH2 0x848 DUP3 PUSH1 0x6 SLOAD PUSH2 0xF7E SWAP1 SWAP2 SWAP1 PUSH4 0xFFFFFFFF AND JUMP JUMPDEST PUSH1 0x6 DUP2 SWAP1 SSTORE POP PUSH1 0x40 MLOAD DUP1 PUSH1 0x80 ADD PUSH1 0x40 MSTORE DUP1 TIMESTAMP DUP2 MSTORE PUSH1 0x20 ADD DUP4 DUP2 MSTORE PUSH1 0x20 ADD DUP3 PUSH20 0xFFFFFFFFFFFFFFFFFFFFFFFFFFFFFFFFFFFFFFFF AND DUP2 MSTORE PUSH1 0x20 ADD PUSH0 ISZERO ISZERO DUP2 MSTORE POP PUSH1 0x4 PUSH0 PUSH2 0x894 PUSH1 0x1 PUSH2 0xF93 JUMP JUMPDEST DUP2 MSTORE PUSH1 0x20 ADD SWAP1 DUP2 MSTORE PUSH1 0x20 ADD PUSH0 KECCAK256 PUSH0 DUP3 ADD MLOAD DUP2 PUSH0 ADD SSTORE PUSH1 0x20 DUP3 ADD MLOAD DUP2 PUSH1 0x1 ADD SSTORE PUSH1 0x40 DUP3 ADD MLOAD DUP2 PUSH1 0x2 ADD PUSH0 PUSH2 0x100 EXP DUP2 SLOAD DUP2 PUSH20 0xFFFFFFFFFFFFFFFFFFFFFFFFFFFFFFFFFFFFFFFF MUL NOT AND SWAP1 DUP4 PUSH20 0xFFFFFFFFFFFFFFFFFFFFFFFFFFFFFFFFFFFFFFFF AND MUL OR SWAP1 SSTORE POP PUSH1 0x60 DUP3 ADD MLOAD DUP2 PUSH1 0x2 ADD PUSH1 0x14 PUSH2 0x100 EXP DUP2 SLOAD DUP2 PUSH1 0xFF MUL NOT AND SWAP1 DUP4 ISZERO ISZERO MUL OR SWAP1 SSTORE POP SWAP1 POP POP PUSH1 0x5 PUSH0 DUP3 PUSH20 0xFFFFFFFFFFFFFFFFFFFFFFFFFFFFFFFFFFFFFFFF AND PUSH20 0xFFFFFFFFFFFFFFFFFFFFFFFFFFFFFFFFFFFFFFFF AND DUP2 MSTORE PUSH1 0x20 ADD SWAP1 DUP2 MSTORE PUSH1 0x20 ADD PUSH0 KECCAK256 PUSH2 0x963 PUSH1 0x1 PUSH2 0xF93 JUMP JUMPDEST SWAP1 DUP1 PUSH1 0x1 DUP2 SLOAD ADD DUP1 DUP3 SSTORE DUP1 SWAP2 POP POP PUSH1 0x1 SWAP1 SUB SWAP1 PUSH0 MSTORE PUSH1 0x20 PUSH0 KECCAK256 ADD PUSH0 SWAP1 SWAP2 SWAP1 SWAP2 SWAP1 SWAP2 POP SSTORE DUP1 PUSH20 0xFFFFFFFFFFFFFFFFFFFFFFFFFFFFFFFFFFFFFFFF AND PUSH2 0x9A7 PUSH1 0x1 PUSH2 0xF93 JUMP JUMPDEST PUSH32 0xFBD41C6118C5ED14F196C270A1793D95E8517E43031D9BB61AA71CB2A38BF557 DUP5 PUSH1 0x40 MLOAD PUSH2 0x9D6 SWAP2 SWAP1 PUSH2 0x1083 JUMP JUMPDEST PUSH1 0x40 MLOAD DUP1 SWAP2 SUB SWAP1 LOG3 PUSH2 0x9E8 PUSH1 0x1 PUSH2 0xF9F JUMP JUMPDEST PUSH0 DUP1 PUSH0 PUSH2 0x100 EXP DUP2 SLOAD DUP2 PUSH1 0xFF MUL NOT AND SWAP1 DUP4 ISZERO ISZERO MUL OR SWAP1 SSTORE POP POP POP JUMP JUMPDEST PUSH0 PUSH1 0x2 PUSH0 SWAP1 SLOAD SWAP1 PUSH2 0x100 EXP SWAP1 DIV PUSH20 0xFFFFFFFFFFFFFFFFFFFFFFFFFFFFFFFFFFFFFFFF AND SWAP1 POP SWAP1 JUMP JUMPDEST PUSH0 DUP2 DUP4 PUSH2 0xA39 SWAP2 SWAP1 PUSH2 0x1403 JUMP JUMPDEST SWAP1 POP SWAP3 SWAP2 POP POP JUMP JUMPDEST PUSH0 DUP2 DUP4 PUSH2 0xA4E SWAP2 SWAP1 PUSH2 0x14E7 JUMP JUMPDEST SWAP1 POP SWAP3 SWAP2 POP POP JUMP JUMPDEST PUSH0 DUP1 PUSH2 0xA7E PUSH1 0x4 PUSH0 DUP7 DUP2 MSTORE PUSH1 0x20 ADD SWAP1 DUP2 MSTORE PUSH1 0x20 ADD PUSH0 KECCAK256 PUSH0 ADD SLOAD TIMESTAMP PUSH2 0xA2C SWAP1 SWAP2 SWAP1 PUSH4 0xFFFFFFFF AND JUMP JUMPDEST SWAP1 POP PUSH2 0xA89 DUP2 PUSH2 0xFB3 JUMP JUMPDEST PUSH1 0x2 PUSH0 SWAP1 SLOAD SWAP1 PUSH2 0x100 EXP SWAP1 DIV PUSH20 0xFFFFFFFFFFFFFFFFFFFFFFFFFFFFFFFFFFFFFFFF AND PUSH20 0xFFFFFFFFFFFFFFFFFFFFFFFFFFFFFFFFFFFFFFFF AND PUSH4 0x5F367B03 DUP5 PUSH1 0x4 PUSH0 DUP9 DUP2 MSTORE PUSH1 0x20 ADD SWAP1 DUP2 MSTORE PUSH1 0x20 ADD PUSH0 KECCAK256 PUSH1 0x1 ADD SLOAD PUSH1 0x4 PUSH0 DUP10 DUP2 MSTORE PUSH1 0x20 ADD SWAP1 DUP2 MSTORE PUSH1 0x20 ADD PUSH0 KECCAK256 PUSH1 0x1 ADD SLOAD PUSH2 0x3E8 PUSH1 0x3 PUSH6 0x5AF3107A4000 DUP9 PUSH2 0xB08 SWAP2 SWAP1 PUSH2 0x14E7 JUMP JUMPDEST PUSH2 0xB12 SWAP2 SWAP1 PUSH2 0x14E7 JUMP JUMPDEST PUSH2 0xB1C SWAP2 SWAP1 PUSH2 0x1555 JUMP JUMPDEST PUSH2 0xB26 SWAP2 SWAP1 PUSH2 0x14E7 JUMP JUMPDEST PUSH2 0xB30 SWAP2 SWAP1 PUSH2 0x1585 JUMP JUMPDEST PUSH1 0x40 MLOAD DUP4 PUSH4 0xFFFFFFFF AND PUSH1 0xE0 SHL DUP2 MSTORE PUSH1 0x4 ADD PUSH2 0xB4D SWAP3 SWAP2 SWAP1 PUSH2 0x15B8 JUMP JUMPDEST PUSH1 0x20 PUSH1 0x40 MLOAD DUP1 DUP4 SUB DUP2 PUSH0 DUP8 GAS CALL ISZERO DUP1 ISZERO PUSH2 0xB69 JUMPI RETURNDATASIZE PUSH0 DUP1 RETURNDATACOPY RETURNDATASIZE PUSH0 REVERT JUMPDEST POP POP POP POP PUSH1 0x40 MLOAD RETURNDATASIZE PUSH1 0x1F NOT PUSH1 0x1F DUP3 ADD AND DUP3 ADD DUP1 PUSH1 0x40 MSTORE POP DUP2 ADD SWAP1 PUSH2 0xB8D SWAP2 SWAP1 PUSH2 0x1487 JUMP JUMPDEST PUSH2 0xB95 JUMPI PUSH0 DUP1 REVERT JUMPDEST PUSH1 0x1 SWAP2 POP POP SWAP3 SWAP2 POP POP JUMP JUMPDEST PUSH0 DUP3 PUSH0 PUSH1 0x5 PUSH0 DUP4 PUSH20 0xFFFFFFFFFFFFFFFFFFFFFFFFFFFFFFFFFFFFFFFF AND PUSH20 0xFFFFFFFFFFFFFFFFFFFFFFFFFFFFFFFFFFFFFFFF AND DUP2 MSTORE PUSH1 0x20 ADD SWAP1 DUP2 MSTORE PUSH1 0x20 ADD PUSH0 KECCAK256 DUP1 SLOAD SWAP1 POP GT PUSH1 0x40 MLOAD DUP1 PUSH1 0x40 ADD PUSH1 0x40 MSTORE DUP1 PUSH1 0x1A DUP2 MSTORE PUSH1 0x20 ADD PUSH32 0x546F6B656E732068617665206E6F742076657374656420796574000000000000 DUP2 MSTORE POP SWAP1 PUSH2 0xC5C JUMPI PUSH1 0x40 MLOAD PUSH32 0x8C379A000000000000000000000000000000000000000000000000000000000 DUP2 MSTORE PUSH1 0x4 ADD PUSH2 0xC53 SWAP2 SWAP1 PUSH2 0x13B6 JUMP JUMPDEST PUSH1 0x40 MLOAD DUP1 SWAP2 SUB SWAP1 REVERT JUMPDEST POP PUSH0 PUSH1 0x5 PUSH0 DUP7 PUSH20 0xFFFFFFFFFFFFFFFFFFFFFFFFFFFFFFFFFFFFFFFF AND PUSH20 0xFFFFFFFFFFFFFFFFFFFFFFFFFFFFFFFFFFFFFFFF AND DUP2 MSTORE PUSH1 0x20 ADD SWAP1 DUP2 MSTORE PUSH1 0x20 ADD PUSH0 KECCAK256 SWAP1 POP PUSH0 PUSH1 0x4 PUSH0 DUP9 DUP2 MSTORE PUSH1 0x20 ADD SWAP1 DUP2 MSTORE PUSH1 0x20 ADD PUSH0 KECCAK256 SWAP1 POP PUSH0 PUSH20 0xFFFFFFFFFFFFFFFFFFFFFFFFFFFFFFFFFFFFFFFF AND DUP2 PUSH1 0x2 ADD PUSH0 SWAP1 SLOAD SWAP1 PUSH2 0x100 EXP SWAP1 DIV PUSH20 0xFFFFFFFFFFFFFFFFFFFFFFFFFFFFFFFFFFFFFFFF AND PUSH20 0xFFFFFFFFFFFFFFFFFFFFFFFFFFFFFFFFFFFFFFFF AND EQ ISZERO PUSH1 0x40 MLOAD DUP1 PUSH1 0x40 ADD PUSH1 0x40 MSTORE DUP1 PUSH1 0x1B DUP2 MSTORE PUSH1 0x20 ADD PUSH32 0x496E76616C69642062656E656669636961727920616464726573730000000000 DUP2 MSTORE POP SWAP1 PUSH2 0xD7B JUMPI PUSH1 0x40 MLOAD PUSH32 0x8C379A000000000000000000000000000000000000000000000000000000000 DUP2 MSTORE PUSH1 0x4 ADD PUSH2 0xD72 SWAP2 SWAP1 PUSH2 0x13B6 JUMP JUMPDEST PUSH1 0x40 MLOAD DUP1 SWAP2 SUB SWAP1 REVERT JUMPDEST POP DUP1 PUSH1 0x2 ADD PUSH1 0x14 SWAP1 SLOAD SWAP1 PUSH2 0x100 EXP SWAP1 DIV PUSH1 0xFF AND ISZERO PUSH1 0x40 MLOAD DUP1 PUSH1 0x40 ADD PUSH1 0x40 MSTORE DUP1 PUSH1 0x18 DUP2 MSTORE PUSH1 0x20 ADD PUSH32 0x56657374696E6720616C72656164792072656C65617365640000000000000000 DUP2 MSTORE POP SWAP1 PUSH2 0xE06 JUMPI PUSH1 0x40 MLOAD PUSH32 0x8C379A000000000000000000000000000000000000000000000000000000000 DUP2 MSTORE PUSH1 0x4 ADD PUSH2 0xDFD SWAP2 SWAP1 PUSH2 0x13B6 JUMP JUMPDEST PUSH1 0x40 MLOAD DUP1 SWAP2 SUB SWAP1 REVERT JUMPDEST POP PUSH2 0xE20 DUP2 PUSH1 0x1 ADD SLOAD PUSH1 0x6 SLOAD PUSH2 0xA2C SWAP1 SWAP2 SWAP1 PUSH4 0xFFFFFFFF AND JUMP JUMPDEST PUSH1 0x6 DUP2 SWAP1 SSTORE POP PUSH0 JUMPDEST DUP3 DUP1 SLOAD SWAP1 POP DUP2 LT ISZERO PUSH2 0xEF9 JUMPI DUP8 DUP4 DUP3 DUP2 SLOAD DUP2 LT PUSH2 0xE48 JUMPI PUSH2 0xE47 PUSH2 0x15DF JUMP JUMPDEST JUMPDEST SWAP1 PUSH0 MSTORE PUSH1 0x20 PUSH0 KECCAK256 ADD SLOAD SUB PUSH2 0xEE6 JUMPI DUP3 PUSH1 0x1 DUP5 DUP1 SLOAD SWAP1 POP PUSH2 0xE68 SWAP2 SWAP1 PUSH2 0x1403 JUMP JUMPDEST DUP2 SLOAD DUP2 LT PUSH2 0xE79 JUMPI PUSH2 0xE78 PUSH2 0x15DF JUMP JUMPDEST JUMPDEST SWAP1 PUSH0 MSTORE PUSH1 0x20 PUSH0 KECCAK256 ADD SLOAD DUP4 DUP3 DUP2 SLOAD DUP2 LT PUSH2 0xE95 JUMPI PUSH2 0xE94 PUSH2 0x15DF JUMP JUMPDEST JUMPDEST SWAP1 PUSH0 MSTORE PUSH1 0x20 PUSH0 KECCAK256 ADD DUP2 SWAP1 SSTORE POP DUP3 DUP1 SLOAD DUP1 PUSH2 0xEB2 JUMPI PUSH2 0xEB1 PUSH2 0x160C JUMP JUMPDEST JUMPDEST PUSH1 0x1 SWAP1 SUB DUP2 DUP2 SWAP1 PUSH0 MSTORE PUSH1 0x20 PUSH0 KECCAK256 ADD PUSH0 SWAP1 SSTORE SWAP1 SSTORE DUP6 DUP3 PUSH1 0x2 ADD PUSH1 0x14 PUSH2 0x100 EXP DUP2 SLOAD DUP2 PUSH1 0xFF MUL NOT AND SWAP1 DUP4 ISZERO ISZERO MUL OR SWAP1 SSTORE POP PUSH2 0xEF9 JUMP JUMPDEST DUP1 DUP1 PUSH2 0xEF1 SWAP1 PUSH2 0x1639 JUMP JUMPDEST SWAP2 POP POP PUSH2 0xE28 JUMP JUMPDEST POP DUP1 PUSH1 0x2 ADD PUSH0 SWAP1 SLOAD SWAP1 PUSH2 0x100 EXP SWAP1 DIV PUSH20 0xFFFFFFFFFFFFFFFFFFFFFFFFFFFFFFFFFFFFFFFF AND PUSH20 0xFFFFFFFFFFFFFFFFFFFFFFFFFFFFFFFFFFFFFFFF AND DUP8 PUSH32 0xDC8B9C8CC0C8D05E10824E69EE88995716A539AF94A1C60FB9898367F613477C DUP4 PUSH1 0x1 ADD SLOAD PUSH1 0x40 MLOAD PUSH2 0xF68 SWAP2 SWAP1 PUSH2 0x1083 JUMP JUMPDEST PUSH1 0x40 MLOAD DUP1 SWAP2 SUB SWAP1 LOG3 PUSH1 0x1 SWAP4 POP POP POP POP SWAP4 SWAP3 POP POP POP JUMP JUMPDEST PUSH0 DUP2 DUP4 PUSH2 0xF8B SWAP2 SWAP1 PUSH2 0x1585 JUMP JUMPDEST SWAP1 POP SWAP3 SWAP2 POP POP JUMP JUMPDEST PUSH0 DUP2 PUSH0 ADD SLOAD SWAP1 POP SWAP2 SWAP1 POP JUMP JUMPDEST PUSH1 0x1 DUP2 PUSH0 ADD PUSH0 DUP3 DUP3 SLOAD ADD SWAP3 POP POP DUP2 SWAP1 SSTORE POP POP JUMP JUMPDEST PUSH2 0x1049 DUP2 PUSH1 0x40 MLOAD PUSH1 0x24 ADD PUSH2 0xFC7 SWAP2 SWAP1 PUSH2 0x1083 JUMP JUMPDEST PUSH1 0x40 MLOAD PUSH1 0x20 DUP2 DUP4 SUB SUB DUP2 MSTORE SWAP1 PUSH1 0x40 MSTORE PUSH32 0xF82C50F100000000000000000000000000000000000000000000000000000000 PUSH28 0xFFFFFFFFFFFFFFFFFFFFFFFFFFFFFFFFFFFFFFFFFFFFFFFFFFFFFFFF NOT AND PUSH1 0x20 DUP3 ADD DUP1 MLOAD PUSH28 0xFFFFFFFFFFFFFFFFFFFFFFFFFFFFFFFFFFFFFFFFFFFFFFFFFFFFFFFF DUP4 DUP2 DUP4 AND OR DUP4 MSTORE POP POP POP POP PUSH2 0x104C JUMP JUMPDEST POP JUMP JUMPDEST PUSH0 PUSH11 0x636F6E736F6C652E6C6F67 SWAP1 POP PUSH0 DUP1 DUP4 MLOAD PUSH1 0x20 DUP6 ADD DUP5 GAS STATICCALL POP POP POP JUMP JUMPDEST PUSH0 DUP2 SWAP1 POP SWAP2 SWAP1 POP JUMP JUMPDEST PUSH2 0x107D DUP2 PUSH2 0x106B JUMP JUMPDEST DUP3 MSTORE POP POP JUMP JUMPDEST PUSH0 PUSH1 0x20 DUP3 ADD SWAP1 POP PUSH2 0x1096 PUSH0 DUP4 ADD DUP5 PUSH2 0x1074 JUMP JUMPDEST SWAP3 SWAP2 POP POP JUMP JUMPDEST PUSH0 DUP1 REVERT JUMPDEST PUSH2 0x10A9 DUP2 PUSH2 0x106B JUMP JUMPDEST DUP2 EQ PUSH2 0x10B3 JUMPI PUSH0 DUP1 REVERT JUMPDEST POP JUMP JUMPDEST PUSH0 DUP2 CALLDATALOAD SWAP1 POP PUSH2 0x10C4 DUP2 PUSH2 0x10A0 JUMP JUMPDEST SWAP3 SWAP2 POP POP JUMP JUMPDEST PUSH0 PUSH1 0x20 DUP3 DUP5 SUB SLT ISZERO PUSH2 0x10DF JUMPI PUSH2 0x10DE PUSH2 0x109C JUMP JUMPDEST JUMPDEST PUSH0 PUSH2 0x10EC DUP5 DUP3 DUP6 ADD PUSH2 0x10B6 JUMP JUMPDEST SWAP2 POP POP SWAP3 SWAP2 POP POP JUMP JUMPDEST PUSH0 PUSH20 0xFFFFFFFFFFFFFFFFFFFFFFFFFFFFFFFFFFFFFFFF DUP3 AND SWAP1 POP SWAP2 SWAP1 POP JUMP JUMPDEST PUSH0 PUSH2 0x111E DUP3 PUSH2 0x10F5 JUMP JUMPDEST SWAP1 POP SWAP2 SWAP1 POP JUMP JUMPDEST PUSH2 0x112E DUP2 PUSH2 0x1114 JUMP JUMPDEST DUP3 MSTORE POP POP JUMP JUMPDEST PUSH0 PUSH1 0x20 DUP3 ADD SWAP1 POP PUSH2 0x1147 PUSH0 DUP4 ADD DUP5 PUSH2 0x1125 JUMP JUMPDEST SWAP3 SWAP2 POP POP JUMP JUMPDEST PUSH0 DUP2 ISZERO ISZERO SWAP1 POP SWAP2 SWAP1 POP JUMP JUMPDEST PUSH2 0x1161 DUP2 PUSH2 0x114D JUMP JUMPDEST DUP3 MSTORE POP POP JUMP JUMPDEST PUSH0 PUSH1 0x80 DUP3 ADD SWAP1 POP PUSH2 0x117A PUSH0 DUP4 ADD DUP8 PUSH2 0x1074 JUMP JUMPDEST PUSH2 0x1187 PUSH1 0x20 DUP4 ADD DUP7 PUSH2 0x1074 JUMP JUMPDEST PUSH2 0x1194 PUSH1 0x40 DUP4 ADD DUP6 PUSH2 0x1125 JUMP JUMPDEST PUSH2 0x11A1 PUSH1 0x60 DUP4 ADD DUP5 PUSH2 0x1158 JUMP JUMPDEST SWAP6 SWAP5 POP POP POP POP POP JUMP JUMPDEST PUSH2 0x11B3 DUP2 PUSH2 0x1114 JUMP JUMPDEST DUP2 EQ PUSH2 0x11BD JUMPI PUSH0 DUP1 REVERT JUMPDEST POP JUMP JUMPDEST PUSH0 DUP2 CALLDATALOAD SWAP1 POP PUSH2 0x11CE DUP2 PUSH2 0x11AA JUMP JUMPDEST SWAP3 SWAP2 POP POP JUMP JUMPDEST PUSH0 DUP1 PUSH1 0x40 DUP4 DUP6 SUB SLT ISZERO PUSH2 0x11EA JUMPI PUSH2 0x11E9 PUSH2 0x109C JUMP JUMPDEST JUMPDEST PUSH0 PUSH2 0x11F7 DUP6 DUP3 DUP7 ADD PUSH2 0x10B6 JUMP JUMPDEST SWAP3 POP POP PUSH1 0x20 PUSH2 0x1208 DUP6 DUP3 DUP7 ADD PUSH2 0x11C0 JUMP JUMPDEST SWAP2 POP POP SWAP3 POP SWAP3 SWAP1 POP JUMP JUMPDEST PUSH0 DUP1 PUSH1 0x40 DUP4 DUP6 SUB SLT ISZERO PUSH2 0x1228 JUMPI PUSH2 0x1227 PUSH2 0x109C JUMP JUMPDEST JUMPDEST PUSH0 PUSH2 0x1235 DUP6 DUP3 DUP7 ADD PUSH2 0x11C0 JUMP JUMPDEST SWAP3 POP POP PUSH1 0x20 PUSH2 0x1246 DUP6 DUP3 DUP7 ADD PUSH2 0x10B6 JUMP JUMPDEST SWAP2 POP POP SWAP3 POP SWAP3 SWAP1 POP JUMP JUMPDEST PUSH0 DUP2 SWAP1 POP SWAP2 SWAP1 POP JUMP JUMPDEST PUSH0 PUSH2 0x1273 PUSH2 0x126E PUSH2 0x1269 DUP5 PUSH2 0x10F5 JUMP JUMPDEST PUSH2 0x1250 JUMP JUMPDEST PUSH2 0x10F5 JUMP JUMPDEST SWAP1 POP SWAP2 SWAP1 POP JUMP JUMPDEST PUSH0 PUSH2 0x1284 DUP3 PUSH2 0x1259 JUMP JUMPDEST SWAP1 POP SWAP2 SWAP1 POP JUMP JUMPDEST PUSH0 PUSH2 0x1295 DUP3 PUSH2 0x127A JUMP JUMPDEST SWAP1 POP SWAP2 SWAP1 POP JUMP JUMPDEST PUSH2 0x12A5 DUP2 PUSH2 0x128B JUMP JUMPDEST DUP3 MSTORE POP POP JUMP JUMPDEST PUSH0 PUSH1 0x20 DUP3 ADD SWAP1 POP PUSH2 0x12BE PUSH0 DUP4 ADD DUP5 PUSH2 0x129C JUMP JUMPDEST SWAP3 SWAP2 POP POP JUMP JUMPDEST PUSH0 DUP3 DUP3 MSTORE PUSH1 0x20 DUP3 ADD SWAP1 POP SWAP3 SWAP2 POP POP JUMP JUMPDEST PUSH32 0x4E6F205265456E7472616E637900000000000000000000000000000000000000 PUSH0 DUP3 ADD MSTORE POP JUMP JUMPDEST PUSH0 PUSH2 0x1308 PUSH1 0xD DUP4 PUSH2 0x12C4 JUMP JUMPDEST SWAP2 POP PUSH2 0x1313 DUP3 PUSH2 0x12D4 JUMP JUMPDEST PUSH1 0x20 DUP3 ADD SWAP1 POP SWAP2 SWAP1 POP JUMP JUMPDEST PUSH0 PUSH1 0x20 DUP3 ADD SWAP1 POP DUP2 DUP2 SUB PUSH0 DUP4 ADD MSTORE PUSH2 0x1335 DUP2 PUSH2 0x12FC JUMP JUMPDEST SWAP1 POP SWAP2 SWAP1 POP JUMP JUMPDEST PUSH0 DUP2 MLOAD SWAP1 POP SWAP2 SWAP1 POP JUMP JUMPDEST PUSH0 JUMPDEST DUP4 DUP2 LT ISZERO PUSH2 0x1363 JUMPI DUP1 DUP3 ADD MLOAD DUP2 DUP5 ADD MSTORE PUSH1 0x20 DUP2 ADD SWAP1 POP PUSH2 0x1348 JUMP JUMPDEST PUSH0 DUP5 DUP5 ADD MSTORE POP POP POP POP JUMP JUMPDEST PUSH0 PUSH1 0x1F NOT PUSH1 0x1F DUP4 ADD AND SWAP1 POP SWAP2 SWAP1 POP JUMP JUMPDEST PUSH0 PUSH2 0x1388 DUP3 PUSH2 0x133C JUMP JUMPDEST PUSH2 0x1392 DUP2 DUP6 PUSH2 0x12C4 JUMP JUMPDEST SWAP4 POP PUSH2 0x13A2 DUP2 DUP6 PUSH1 0x20 DUP7 ADD PUSH2 0x1346 JUMP JUMPDEST PUSH2 0x13AB DUP2 PUSH2 0x136E JUMP JUMPDEST DUP5 ADD SWAP2 POP POP SWAP3 SWAP2 POP POP JUMP JUMPDEST PUSH0 PUSH1 0x20 DUP3 ADD SWAP1 POP DUP2 DUP2 SUB PUSH0 DUP4 ADD MSTORE PUSH2 0x13CE DUP2 DUP5 PUSH2 0x137E JUMP JUMPDEST SWAP1 POP SWAP3 SWAP2 POP POP JUMP JUMPDEST PUSH32 0x4E487B7100000000000000000000000000000000000000000000000000000000 PUSH0 MSTORE PUSH1 0x11 PUSH1 0x4 MSTORE PUSH1 0x24 PUSH0 REVERT JUMPDEST PUSH0 PUSH2 0x140D DUP3 PUSH2 0x106B JUMP JUMPDEST SWAP2 POP PUSH2 0x1418 DUP4 PUSH2 0x106B JUMP JUMPDEST SWAP3 POP DUP3 DUP3 SUB SWAP1 POP DUP2 DUP2 GT ISZERO PUSH2 0x1430 JUMPI PUSH2 0x142F PUSH2 0x13D6 JUMP JUMPDEST JUMPDEST SWAP3 SWAP2 POP POP JUMP JUMPDEST PUSH0 PUSH1 0x40 DUP3 ADD SWAP1 POP PUSH2 0x1449 PUSH0 DUP4 ADD DUP6 PUSH2 0x1074 JUMP JUMPDEST PUSH2 0x1456 PUSH1 0x20 DUP4 ADD DUP5 PUSH2 0x1125 JUMP JUMPDEST SWAP4 SWAP3 POP POP POP JUMP JUMPDEST PUSH2 0x1466 DUP2 PUSH2 0x114D JUMP JUMPDEST DUP2 EQ PUSH2 0x1470 JUMPI PUSH0 DUP1 REVERT JUMPDEST POP JUMP JUMPDEST PUSH0 DUP2 MLOAD SWAP1 POP PUSH2 0x1481 DUP2 PUSH2 0x145D JUMP JUMPDEST SWAP3 SWAP2 POP POP JUMP JUMPDEST PUSH0 PUSH1 0x20 DUP3 DUP5 SUB SLT ISZERO PUSH2 0x149C JUMPI PUSH2 0x149B PUSH2 0x109C JUMP JUMPDEST JUMPDEST PUSH0 PUSH2 0x14A9 DUP5 DUP3 DUP6 ADD PUSH2 0x1473 JUMP JUMPDEST SWAP2 POP POP SWAP3 SWAP2 POP POP JUMP JUMPDEST PUSH0 PUSH1 0x60 DUP3 ADD SWAP1 POP PUSH2 0x14C5 PUSH0 DUP4 ADD DUP7 PUSH2 0x1125 JUMP JUMPDEST PUSH2 0x14D2 PUSH1 0x20 DUP4 ADD DUP6 PUSH2 0x1125 JUMP JUMPDEST PUSH2 0x14DF PUSH1 0x40 DUP4 ADD DUP5 PUSH2 0x1074 JUMP JUMPDEST SWAP5 SWAP4 POP POP POP POP JUMP JUMPDEST PUSH0 PUSH2 0x14F1 DUP3 PUSH2 0x106B JUMP JUMPDEST SWAP2 POP PUSH2 0x14FC DUP4 PUSH2 0x106B JUMP JUMPDEST SWAP3 POP DUP3 DUP3 MUL PUSH2 0x150A DUP2 PUSH2 0x106B JUMP JUMPDEST SWAP2 POP DUP3 DUP3 DIV DUP5 EQ DUP4 ISZERO OR PUSH2 0x1521 JUMPI PUSH2 0x1520 PUSH2 0x13D6 JUMP JUMPDEST JUMPDEST POP SWAP3 SWAP2 POP POP JUMP JUMPDEST PUSH32 0x4E487B7100000000000000000000000000000000000000000000000000000000 PUSH0 MSTORE PUSH1 0x12 PUSH1 0x4 MSTORE PUSH1 0x24 PUSH0 REVERT JUMPDEST PUSH0 PUSH2 0x155F DUP3 PUSH2 0x106B JUMP JUMPDEST SWAP2 POP PUSH2 0x156A DUP4 PUSH2 0x106B JUMP JUMPDEST SWAP3 POP DUP3 PUSH2 0x157A JUMPI PUSH2 0x1579 PUSH2 0x1528 JUMP JUMPDEST JUMPDEST DUP3 DUP3 DIV SWAP1 POP SWAP3 SWAP2 POP POP JUMP JUMPDEST PUSH0 PUSH2 0x158F DUP3 PUSH2 0x106B JUMP JUMPDEST SWAP2 POP PUSH2 0x159A DUP4 PUSH2 0x106B JUMP JUMPDEST SWAP3 POP DUP3 DUP3 ADD SWAP1 POP DUP1 DUP3 GT ISZERO PUSH2 0x15B2 JUMPI PUSH2 0x15B1 PUSH2 0x13D6 JUMP JUMPDEST JUMPDEST SWAP3 SWAP2 POP POP JUMP JUMPDEST PUSH0 PUSH1 0x40 DUP3 ADD SWAP1 POP PUSH2 0x15CB PUSH0 DUP4 ADD DUP6 PUSH2 0x1125 JUMP JUMPDEST PUSH2 0x15D8 PUSH1 0x20 DUP4 ADD DUP5 PUSH2 0x1074 JUMP JUMPDEST SWAP4 SWAP3 POP POP POP JUMP JUMPDEST PUSH32 0x4E487B7100000000000000000000000000000000000000000000000000000000 PUSH0 MSTORE PUSH1 0x32 PUSH1 0x4 MSTORE PUSH1 0x24 PUSH0 REVERT JUMPDEST PUSH32 0x4E487B7100000000000000000000000000000000000000000000000000000000 PUSH0 MSTORE PUSH1 0x31 PUSH1 0x4 MSTORE PUSH1 0x24 PUSH0 REVERT JUMPDEST PUSH0 PUSH2 0x1643 DUP3 PUSH2 0x106B JUMP JUMPDEST SWAP2 POP PUSH32 0xFFFFFFFFFFFFFFFFFFFFFFFFFFFFFFFFFFFFFFFFFFFFFFFFFFFFFFFFFFFFFFFF DUP3 SUB PUSH2 0x1675 JUMPI PUSH2 0x1674 PUSH2 0x13D6 JUMP JUMPDEST JUMPDEST PUSH1 0x1 DUP3 ADD SWAP1 POP SWAP2 SWAP1 POP JUMP INVALID LOG2 PUSH5 0x6970667358 0x22 SLT KECCAK256 0xDB 0xB8 0xF9 PUSH32 0xCCB62477BDA17181C47B09E57AA6685543F47AED0807D18945FC9BF664736F6C PUSH4 0x43000815 STOP CALLER "
		},
		"gasEstimates": {
			"creation": {
				"codeDepositCost": "1162800",
				"executionCost": "infinite",
				"totalCost": "infinite"
			},
			"external": {
				"VESTING_PERIOD()": "326",
				"addVesting(uint256,address)": "infinite",
				"getBeneficiary(uint256)": "2903",
				"getExpectedQVE(uint256)": "infinite",
				"getVestedTime(uint256)": "infinite",
				"getVestingAmount(uint256)": "infinite",
				"ownedVestings(address,uint256)": "infinite",
				"releaseVestedQVE(uint256,address)": "infinite",
				"token()": "infinite",
				"tokensToVest()": "2469",
				"vestings(uint256)": "infinite"
			},
			"internal": {
				"claimForQVE(uint256,address)": "infinite",
				"getVestingId(address)": "infinite",
				"removeVesting(uint256,address,bool)": "infinite"
			}
		},
		"methodIdentifiers": {
			"VESTING_PERIOD()": "0197d972",
			"addVesting(uint256,address)": "cdb51cdf",
			"getBeneficiary(uint256)": "302df083",
			"getExpectedQVE(uint256)": "195ae1f1",
			"getVestedTime(uint256)": "55f9ecba",
			"getVestingAmount(uint256)": "cbd09371",
			"ownedVestings(address,uint256)": "b1e6abc5",
			"releaseVestedQVE(uint256,address)": "8bf7d700",
			"token()": "fc0c546a",
			"tokensToVest()": "c4730d5d",
			"vestings(uint256)": "821bee73"
		}
	},
	"abi": [
		{
			"inputs": [
				{
					"internalType": "contract QVEtoken",
					"name": "_qveToken",
					"type": "address"
				},
				{
					"internalType": "contract QVEescrow",
					"name": "_qveEscrow",
					"type": "address"
				}
			],
			"stateMutability": "nonpayable",
			"type": "constructor"
		},
		{
			"anonymous": false,
			"inputs": [
				{
					"indexed": true,
					"internalType": "uint256",
					"name": "vesting",
					"type": "uint256"
				},
				{
					"indexed": true,
					"internalType": "address",
					"name": "beneficiary",
					"type": "address"
				},
				{
					"indexed": false,
					"internalType": "uint256",
					"name": "amount",
					"type": "uint256"
				}
			],
			"name": "TokenVestingAdded",
			"type": "event"
		},
		{
			"anonymous": false,
			"inputs": [
				{
					"indexed": true,
					"internalType": "uint256",
					"name": "vesting",
					"type": "uint256"
				},
				{
					"indexed": true,
					"internalType": "address",
					"name": "beneficiary",
					"type": "address"
				},
				{
					"indexed": false,
					"internalType": "uint256",
					"name": "amount",
					"type": "uint256"
				}
			],
			"name": "TokenVestingReleased",
			"type": "event"
		},
		{
			"anonymous": false,
			"inputs": [
				{
					"indexed": true,
					"internalType": "uint256",
					"name": "vesting",
					"type": "uint256"
				},
				{
					"indexed": true,
					"internalType": "address",
					"name": "beneficiary",
					"type": "address"
				},
				{
					"indexed": false,
					"internalType": "uint256",
					"name": "amount",
					"type": "uint256"
				}
			],
			"name": "TokenVestingRemoved",
			"type": "event"
		},
		{
			"inputs": [],
			"name": "VESTING_PERIOD",
			"outputs": [
				{
					"internalType": "uint256",
					"name": "",
					"type": "uint256"
				}
			],
			"stateMutability": "view",
			"type": "function"
		},
		{
			"inputs": [
				{
					"internalType": "uint256",
					"name": "_amount",
					"type": "uint256"
				},
				{
					"internalType": "address",
					"name": "sender",
					"type": "address"
				}
			],
			"name": "addVesting",
			"outputs": [],
			"stateMutability": "nonpayable",
			"type": "function"
		},
		{
			"inputs": [
				{
					"internalType": "uint256",
					"name": "_vestingId",
					"type": "uint256"
				}
			],
			"name": "getBeneficiary",
			"outputs": [
				{
					"internalType": "address",
					"name": "",
					"type": "address"
				}
			],
			"stateMutability": "view",
			"type": "function"
		},
		{
			"inputs": [
				{
					"internalType": "uint256",
					"name": "_vestingId",
					"type": "uint256"
				}
			],
			"name": "getExpectedQVE",
			"outputs": [
				{
					"internalType": "uint256",
					"name": "",
					"type": "uint256"
				}
			],
			"stateMutability": "view",
			"type": "function"
		},
		{
			"inputs": [
				{
					"internalType": "uint256",
					"name": "_vestingId",
					"type": "uint256"
				}
			],
			"name": "getVestedTime",
			"outputs": [
				{
					"internalType": "uint256",
					"name": "",
					"type": "uint256"
				}
			],
			"stateMutability": "view",
			"type": "function"
		},
		{
			"inputs": [
				{
					"internalType": "uint256",
					"name": "_vestingId",
					"type": "uint256"
				}
			],
			"name": "getVestingAmount",
			"outputs": [
				{
					"internalType": "uint256",
					"name": "",
					"type": "uint256"
				}
			],
			"stateMutability": "view",
			"type": "function"
		},
		{
			"inputs": [
				{
					"internalType": "address",
					"name": "",
					"type": "address"
				},
				{
					"internalType": "uint256",
					"name": "",
					"type": "uint256"
				}
			],
			"name": "ownedVestings",
			"outputs": [
				{
					"internalType": "uint256",
					"name": "",
					"type": "uint256"
				}
			],
			"stateMutability": "view",
			"type": "function"
		},
		{
			"inputs": [
				{
					"internalType": "uint256",
					"name": "_vestingId",
					"type": "uint256"
				},
				{
					"internalType": "address",
					"name": "sender",
					"type": "address"
				}
			],
			"name": "releaseVestedQVE",
			"outputs": [],
			"stateMutability": "nonpayable",
			"type": "function"
		},
		{
			"inputs": [],
			"name": "token",
			"outputs": [
				{
					"internalType": "contract ERC20",
					"name": "",
					"type": "address"
				}
			],
			"stateMutability": "view",
			"type": "function"
		},
		{
			"inputs": [],
			"name": "tokensToVest",
			"outputs": [
				{
					"internalType": "uint256",
					"name": "",
					"type": "uint256"
				}
			],
			"stateMutability": "view",
			"type": "function"
		},
		{
			"inputs": [
				{
					"internalType": "uint256",
					"name": "",
					"type": "uint256"
				}
			],
			"name": "vestings",
			"outputs": [
				{
					"internalType": "uint256",
					"name": "vestedTime",
					"type": "uint256"
				},
				{
					"internalType": "uint256",
					"name": "amount",
					"type": "uint256"
				},
				{
					"internalType": "address",
					"name": "beneficiary",
					"type": "address"
				},
				{
					"internalType": "bool",
					"name": "released",
					"type": "bool"
				}
			],
			"stateMutability": "view",
			"type": "function"
		}
	]
}