{
	"data": {
		"bytecode": {
			"linkReferences": {},
			"object": "608060405260006004553480156200001657600080fd5b5060405162001ad538038062001ad583398181016040528101906200003c919062000260565b6200005c620000506200011660201b60201c565b6200011e60201b60201c565b600073ffffffffffffffffffffffffffffffffffffffff168173ffffffffffffffffffffffffffffffffffffffff1603620000ce576040517f08c379a0000000000000000000000000000000000000000000000000000000008152600401620000c59062000319565b60405180910390fd5b80600260006101000a81548173ffffffffffffffffffffffffffffffffffffffff021916908373ffffffffffffffffffffffffffffffffffffffff160217905550506200033b565b600033905090565b60008060009054906101000a900473ffffffffffffffffffffffffffffffffffffffff169050816000806101000a81548173ffffffffffffffffffffffffffffffffffffffff021916908373ffffffffffffffffffffffffffffffffffffffff1602179055508173ffffffffffffffffffffffffffffffffffffffff168173ffffffffffffffffffffffffffffffffffffffff167f8be0079c531659141344cd1fd0a4f28419497f9722a3daafe3b4186f6b6457e060405160405180910390a35050565b600080fd5b600073ffffffffffffffffffffffffffffffffffffffff82169050919050565b60006200021482620001e7565b9050919050565b6000620002288262000207565b9050919050565b6200023a816200021b565b81146200024657600080fd5b50565b6000815190506200025a816200022f565b92915050565b600060208284031215620002795762000278620001e2565b5b6000620002898482850162000249565b91505092915050565b600082825260208201905092915050565b7f455243323020546f6b656e20616464726573732069732061646472657373283060008201527f2900000000000000000000000000000000000000000000000000000000000000602082015250565b60006200030160218362000292565b91506200030e82620002a3565b604082019050919050565b600060208201905081810360008301526200033481620002f2565b9050919050565b61178a806200034b6000396000f3fe608060405234801561001057600080fd5b50600436106100cf5760003560e01c8063715018a61161008c578063cbd0937111610066578063cbd09371146101ff578063cf3090121461022f578063f2fde38b1461024d578063fc0c546a14610269576100cf565b8063715018a6146101a4578063821bee73146101ae5780638da5cb5b146101e1576100cf565b80631bcde4ec146100d4578063302df083146100f057806337bdc99b146101205780634691a9981461013c57806352db191f146101585780636eb4809614610188575b600080fd5b6100ee60048036038101906100e9919061110f565b610287565b005b61010a6004803603810190610105919061110f565b6104b5565b604051610117919061117d565b60405180910390f35b61013a6004803603810190610135919061110f565b6104f5565b005b610156600480360381019061015191906111c4565b610981565b005b610172600480360381019061016d919061110f565b610bd6565b60405161017f9190611226565b60405180910390f35b6101a2600480360381019061019d919061110f565b610bf6565b005b6101ac610dd6565b005b6101c860048036038101906101c3919061110f565b610dea565b6040516101d8949392919061125c565b60405180910390f35b6101e9610e47565b6040516101f6919061117d565b60405180910390f35b6102196004803603810190610214919061110f565b610e70565b6040516102269190611226565b60405180910390f35b610237610e90565b60405161024491906112a1565b60405180910390f35b610267600480360381019061026291906112bc565b610ea3565b005b610271610f26565b60405161027e9190611348565b60405180910390f35b61028f610f50565b6000600360008381526020019081526020016000209050600073ffffffffffffffffffffffffffffffffffffffff168160020160009054906101000a900473ffffffffffffffffffffffffffffffffffffffff1673ffffffffffffffffffffffffffffffffffffffff1614156040518060400160405280601b81526020017f496e76616c69642062656e65666963696172792061646472657373000000000081525090610372576040517f08c379a000000000000000000000000000000000000000000000000000000000815260040161036991906113f3565b60405180910390fd5b508060020160149054906101000a900460ff16156040518060400160405280601881526020017f56657374696e6720616c72656164792072656c65617365640000000000000000815250906103fd576040517f08c379a00000000000000000000000000000000000000000000000000000000081526004016103f491906113f3565b60405180910390fd5b506104178160010154600454610fce90919063ffffffff16565b60048190555060018160020160146101000a81548160ff0219169083151502179055508060020160009054906101000a900473ffffffffffffffffffffffffffffffffffffffff1673ffffffffffffffffffffffffffffffffffffffff16827f295ac83a3c5cf518a125ba974be97dca6a668bae6dd90b6902b2618cdff1fcc683600101546040516104a99190611226565b60405180910390a35050565b60006003600083815260200190815260200160002060020160009054906101000a900473ffffffffffffffffffffffffffffffffffffffff169050919050565b6000600360008381526020019081526020016000209050600073ffffffffffffffffffffffffffffffffffffffff168160020160009054906101000a900473ffffffffffffffffffffffffffffffffffffffff1673ffffffffffffffffffffffffffffffffffffffff1614156040518060400160405280601281526020017f496e76616c69642076657374696e672069640000000000000000000000000000815250906105d8576040517f08c379a00000000000000000000000000000000000000000000000000000000081526004016105cf91906113f3565b60405180910390fd5b508060020160149054906101000a900460ff16156040518060400160405280601881526020017f56657374696e6720616c72656164792072656c6561736564000000000000000081525090610663576040517f08c379a000000000000000000000000000000000000000000000000000000000815260040161065a91906113f3565b60405180910390fd5b5080600001544210156040518060400160405280601a81526020017f546f6b656e732068617665206e6f742076657374656420796574000000000000815250906106e3576040517f08c379a00000000000000000000000000000000000000000000000000000000081526004016106da91906113f3565b60405180910390fd5b508060010154600260009054906101000a900473ffffffffffffffffffffffffffffffffffffffff1673ffffffffffffffffffffffffffffffffffffffff166370a08231306040518263ffffffff1660e01b8152600401610744919061117d565b602060405180830381865afa158015610761573d6000803e3d6000fd5b505050506040513d601f19601f82011682018060405250810190610785919061142a565b10156040518060400160405280601481526020017f496e73756666696369656e742062616c616e6365000000000000000000000000815250906107fe576040517f08c379a00000000000000000000000000000000000000000000000000000000081526004016107f591906113f3565b60405180910390fd5b5060018160020160146101000a81548160ff0219169083151502179055506108358160010154600454610fce90919063ffffffff16565b600481905550600260009054906101000a900473ffffffffffffffffffffffffffffffffffffffff1673ffffffffffffffffffffffffffffffffffffffff1663469895c8308360020160009054906101000a900473ffffffffffffffffffffffffffffffffffffffff1684600101546040518463ffffffff1660e01b81526004016108c293929190611457565b6020604051808303816000875af11580156108e1573d6000803e3d6000fd5b505050506040513d601f19601f8201168201806040525081019061090591906114ba565b508060020160009054906101000a900473ffffffffffffffffffffffffffffffffffffffff1673ffffffffffffffffffffffffffffffffffffffff16827f295ac83a3c5cf518a125ba974be97dca6a668bae6dd90b6902b2618cdff1fcc683600101546040516109759190611226565b60405180910390a35050565b610989610f50565b600060149054906101000a900460ff16156109d9576040517f08c379a00000000000000000000000000000000000000000000000000000000081526004016109d090611533565b60405180910390fd5b6001600060146101000a81548160ff021916908315150217905550600073ffffffffffffffffffffffffffffffffffffffff168373ffffffffffffffffffffffffffffffffffffffff1603610a63576040517f08c379a0000000000000000000000000000000000000000000000000000000008152600401610a5a9061159f565b60405180910390fd5b8060046000828254610a7591906115ee565b92505081905560048190555060405180608001604052808381526020018281526020018473ffffffffffffffffffffffffffffffffffffffff1681526020016000151581525060036000610ac96001610fe4565b8152602001908152602001600020600082015181600001556020820151816001015560408201518160020160006101000a81548173ffffffffffffffffffffffffffffffffffffffff021916908373ffffffffffffffffffffffffffffffffffffffff16021790555060608201518160020160146101000a81548160ff0219169083151502179055509050508273ffffffffffffffffffffffffffffffffffffffff16610b766001610fe4565b7f295ac83a3c5cf518a125ba974be97dca6a668bae6dd90b6902b2618cdff1fcc683604051610ba59190611226565b60405180910390a3610bb76001610ff2565b60008060146101000a81548160ff021916908315150217905550505050565b600060036000838152602001908152602001600020600001549050919050565b610bfe610f50565b610cae600454600260009054906101000a900473ffffffffffffffffffffffffffffffffffffffff1673ffffffffffffffffffffffffffffffffffffffff166370a08231306040518263ffffffff1660e01b8152600401610c5f919061117d565b602060405180830381865afa158015610c7c573d6000803e3d6000fd5b505050506040513d601f19601f82011682018060405250810190610ca0919061142a565b610fce90919063ffffffff16565b8111156040518060400160405280601481526020017f496e73756666696369656e742062616c616e636500000000000000000000000081525090610d28576040517f08c379a0000000000000000000000000000000000000000000000000000000008152600401610d1f91906113f3565b60405180910390fd5b50600260009054906101000a900473ffffffffffffffffffffffffffffffffffffffff1673ffffffffffffffffffffffffffffffffffffffff1663469895c830610d70610e47565b846040518463ffffffff1660e01b8152600401610d8f93929190611457565b6020604051808303816000875af1158015610dae573d6000803e3d6000fd5b505050506040513d601f19601f82011682018060405250810190610dd291906114ba565b5050565b610dde610f50565b610de86000611008565b565b60036020528060005260406000206000915090508060000154908060010154908060020160009054906101000a900473ffffffffffffffffffffffffffffffffffffffff16908060020160149054906101000a900460ff16905084565b60008060009054906101000a900473ffffffffffffffffffffffffffffffffffffffff16905090565b600060036000838152602001908152602001600020600101549050919050565b600060149054906101000a900460ff1681565b610eab610f50565b600073ffffffffffffffffffffffffffffffffffffffff168173ffffffffffffffffffffffffffffffffffffffff1603610f1a576040517f08c379a0000000000000000000000000000000000000000000000000000000008152600401610f1190611694565b60405180910390fd5b610f2381611008565b50565b6000600260009054906101000a900473ffffffffffffffffffffffffffffffffffffffff16905090565b610f586110cc565b73ffffffffffffffffffffffffffffffffffffffff16610f76610e47565b73ffffffffffffffffffffffffffffffffffffffff1614610fcc576040517f08c379a0000000000000000000000000000000000000000000000000000000008152600401610fc390611700565b60405180910390fd5b565b60008183610fdc9190611720565b905092915050565b600081600001549050919050565b6001816000016000828254019250508190555050565b60008060009054906101000a900473ffffffffffffffffffffffffffffffffffffffff169050816000806101000a81548173ffffffffffffffffffffffffffffffffffffffff021916908373ffffffffffffffffffffffffffffffffffffffff1602179055508173ffffffffffffffffffffffffffffffffffffffff168173ffffffffffffffffffffffffffffffffffffffff167f8be0079c531659141344cd1fd0a4f28419497f9722a3daafe3b4186f6b6457e060405160405180910390a35050565b600033905090565b600080fd5b6000819050919050565b6110ec816110d9565b81146110f757600080fd5b50565b600081359050611109816110e3565b92915050565b600060208284031215611125576111246110d4565b5b6000611133848285016110fa565b91505092915050565b600073ffffffffffffffffffffffffffffffffffffffff82169050919050565b60006111678261113c565b9050919050565b6111778161115c565b82525050565b6000602082019050611192600083018461116e565b92915050565b6111a18161115c565b81146111ac57600080fd5b50565b6000813590506111be81611198565b92915050565b6000806000606084860312156111dd576111dc6110d4565b5b60006111eb868287016111af565b93505060206111fc868287016110fa565b925050604061120d868287016110fa565b9150509250925092565b611220816110d9565b82525050565b600060208201905061123b6000830184611217565b92915050565b60008115159050919050565b61125681611241565b82525050565b60006080820190506112716000830187611217565b61127e6020830186611217565b61128b604083018561116e565b611298606083018461124d565b95945050505050565b60006020820190506112b6600083018461124d565b92915050565b6000602082840312156112d2576112d16110d4565b5b60006112e0848285016111af565b91505092915050565b6000819050919050565b600061130e6113096113048461113c565b6112e9565b61113c565b9050919050565b6000611320826112f3565b9050919050565b600061133282611315565b9050919050565b61134281611327565b82525050565b600060208201905061135d6000830184611339565b92915050565b600081519050919050565b600082825260208201905092915050565b60005b8381101561139d578082015181840152602081019050611382565b60008484015250505050565b6000601f19601f8301169050919050565b60006113c582611363565b6113cf818561136e565b93506113df81856020860161137f565b6113e8816113a9565b840191505092915050565b6000602082019050818103600083015261140d81846113ba565b905092915050565b600081519050611424816110e3565b92915050565b6000602082840312156114405761143f6110d4565b5b600061144e84828501611415565b91505092915050565b600060608201905061146c600083018661116e565b611479602083018561116e565b6114866040830184611217565b949350505050565b61149781611241565b81146114a257600080fd5b50565b6000815190506114b48161148e565b92915050565b6000602082840312156114d0576114cf6110d4565b5b60006114de848285016114a5565b91505092915050565b7f4e6f205265456e7472616e637900000000000000000000000000000000000000600082015250565b600061151d600d8361136e565b9150611528826114e7565b602082019050919050565b6000602082019050818103600083015261154c81611510565b9050919050565b7f5156452072656365697665722069732061646472657373283029000000000000600082015250565b6000611589601a8361136e565b915061159482611553565b602082019050919050565b600060208201905081810360008301526115b88161157c565b9050919050565b7f4e487b7100000000000000000000000000000000000000000000000000000000600052601160045260246000fd5b60006115f9826110d9565b9150611604836110d9565b925082820190508082111561161c5761161b6115bf565b5b92915050565b7f4f776e61626c653a206e6577206f776e657220697320746865207a65726f206160008201527f6464726573730000000000000000000000000000000000000000000000000000602082015250565b600061167e60268361136e565b915061168982611622565b604082019050919050565b600060208201905081810360008301526116ad81611671565b9050919050565b7f4f776e61626c653a2063616c6c6572206973206e6f7420746865206f776e6572600082015250565b60006116ea60208361136e565b91506116f5826116b4565b602082019050919050565b60006020820190508181036000830152611719816116dd565b9050919050565b600061172b826110d9565b9150611736836110d9565b925082820390508181111561174e5761174d6115bf565b5b9291505056fea264697066735822122078a8565473d050370a96bcbdd9aea96b6a52a45b87a6bcec328d7dfaf25e576c64736f6c63430008120033",
			"opcodes": "PUSH1 0x80 PUSH1 0x40 MSTORE PUSH1 0x0 PUSH1 0x4 SSTORE CALLVALUE DUP1 ISZERO PUSH3 0x16 JUMPI PUSH1 0x0 DUP1 REVERT JUMPDEST POP PUSH1 0x40 MLOAD PUSH3 0x1AD5 CODESIZE SUB DUP1 PUSH3 0x1AD5 DUP4 CODECOPY DUP2 DUP2 ADD PUSH1 0x40 MSTORE DUP2 ADD SWAP1 PUSH3 0x3C SWAP2 SWAP1 PUSH3 0x260 JUMP JUMPDEST PUSH3 0x5C PUSH3 0x50 PUSH3 0x116 PUSH1 0x20 SHL PUSH1 0x20 SHR JUMP JUMPDEST PUSH3 0x11E PUSH1 0x20 SHL PUSH1 0x20 SHR JUMP JUMPDEST PUSH1 0x0 PUSH20 0xFFFFFFFFFFFFFFFFFFFFFFFFFFFFFFFFFFFFFFFF AND DUP2 PUSH20 0xFFFFFFFFFFFFFFFFFFFFFFFFFFFFFFFFFFFFFFFF AND SUB PUSH3 0xCE JUMPI PUSH1 0x40 MLOAD PUSH32 0x8C379A000000000000000000000000000000000000000000000000000000000 DUP2 MSTORE PUSH1 0x4 ADD PUSH3 0xC5 SWAP1 PUSH3 0x319 JUMP JUMPDEST PUSH1 0x40 MLOAD DUP1 SWAP2 SUB SWAP1 REVERT JUMPDEST DUP1 PUSH1 0x2 PUSH1 0x0 PUSH2 0x100 EXP DUP2 SLOAD DUP2 PUSH20 0xFFFFFFFFFFFFFFFFFFFFFFFFFFFFFFFFFFFFFFFF MUL NOT AND SWAP1 DUP4 PUSH20 0xFFFFFFFFFFFFFFFFFFFFFFFFFFFFFFFFFFFFFFFF AND MUL OR SWAP1 SSTORE POP POP PUSH3 0x33B JUMP JUMPDEST PUSH1 0x0 CALLER SWAP1 POP SWAP1 JUMP JUMPDEST PUSH1 0x0 DUP1 PUSH1 0x0 SWAP1 SLOAD SWAP1 PUSH2 0x100 EXP SWAP1 DIV PUSH20 0xFFFFFFFFFFFFFFFFFFFFFFFFFFFFFFFFFFFFFFFF AND SWAP1 POP DUP2 PUSH1 0x0 DUP1 PUSH2 0x100 EXP DUP2 SLOAD DUP2 PUSH20 0xFFFFFFFFFFFFFFFFFFFFFFFFFFFFFFFFFFFFFFFF MUL NOT AND SWAP1 DUP4 PUSH20 0xFFFFFFFFFFFFFFFFFFFFFFFFFFFFFFFFFFFFFFFF AND MUL OR SWAP1 SSTORE POP DUP2 PUSH20 0xFFFFFFFFFFFFFFFFFFFFFFFFFFFFFFFFFFFFFFFF AND DUP2 PUSH20 0xFFFFFFFFFFFFFFFFFFFFFFFFFFFFFFFFFFFFFFFF AND PUSH32 0x8BE0079C531659141344CD1FD0A4F28419497F9722A3DAAFE3B4186F6B6457E0 PUSH1 0x40 MLOAD PUSH1 0x40 MLOAD DUP1 SWAP2 SUB SWAP1 LOG3 POP POP JUMP JUMPDEST PUSH1 0x0 DUP1 REVERT JUMPDEST PUSH1 0x0 PUSH20 0xFFFFFFFFFFFFFFFFFFFFFFFFFFFFFFFFFFFFFFFF DUP3 AND SWAP1 POP SWAP2 SWAP1 POP JUMP JUMPDEST PUSH1 0x0 PUSH3 0x214 DUP3 PUSH3 0x1E7 JUMP JUMPDEST SWAP1 POP SWAP2 SWAP1 POP JUMP JUMPDEST PUSH1 0x0 PUSH3 0x228 DUP3 PUSH3 0x207 JUMP JUMPDEST SWAP1 POP SWAP2 SWAP1 POP JUMP JUMPDEST PUSH3 0x23A DUP2 PUSH3 0x21B JUMP JUMPDEST DUP2 EQ PUSH3 0x246 JUMPI PUSH1 0x0 DUP1 REVERT JUMPDEST POP JUMP JUMPDEST PUSH1 0x0 DUP2 MLOAD SWAP1 POP PUSH3 0x25A DUP2 PUSH3 0x22F JUMP JUMPDEST SWAP3 SWAP2 POP POP JUMP JUMPDEST PUSH1 0x0 PUSH1 0x20 DUP3 DUP5 SUB SLT ISZERO PUSH3 0x279 JUMPI PUSH3 0x278 PUSH3 0x1E2 JUMP JUMPDEST JUMPDEST PUSH1 0x0 PUSH3 0x289 DUP5 DUP3 DUP6 ADD PUSH3 0x249 JUMP JUMPDEST SWAP2 POP POP SWAP3 SWAP2 POP POP JUMP JUMPDEST PUSH1 0x0 DUP3 DUP3 MSTORE PUSH1 0x20 DUP3 ADD SWAP1 POP SWAP3 SWAP2 POP POP JUMP JUMPDEST PUSH32 0x455243323020546F6B656E206164647265737320697320616464726573732830 PUSH1 0x0 DUP3 ADD MSTORE PUSH32 0x2900000000000000000000000000000000000000000000000000000000000000 PUSH1 0x20 DUP3 ADD MSTORE POP JUMP JUMPDEST PUSH1 0x0 PUSH3 0x301 PUSH1 0x21 DUP4 PUSH3 0x292 JUMP JUMPDEST SWAP2 POP PUSH3 0x30E DUP3 PUSH3 0x2A3 JUMP JUMPDEST PUSH1 0x40 DUP3 ADD SWAP1 POP SWAP2 SWAP1 POP JUMP JUMPDEST PUSH1 0x0 PUSH1 0x20 DUP3 ADD SWAP1 POP DUP2 DUP2 SUB PUSH1 0x0 DUP4 ADD MSTORE PUSH3 0x334 DUP2 PUSH3 0x2F2 JUMP JUMPDEST SWAP1 POP SWAP2 SWAP1 POP JUMP JUMPDEST PUSH2 0x178A DUP1 PUSH3 0x34B PUSH1 0x0 CODECOPY PUSH1 0x0 RETURN INVALID PUSH1 0x80 PUSH1 0x40 MSTORE CALLVALUE DUP1 ISZERO PUSH2 0x10 JUMPI PUSH1 0x0 DUP1 REVERT JUMPDEST POP PUSH1 0x4 CALLDATASIZE LT PUSH2 0xCF JUMPI PUSH1 0x0 CALLDATALOAD PUSH1 0xE0 SHR DUP1 PUSH4 0x715018A6 GT PUSH2 0x8C JUMPI DUP1 PUSH4 0xCBD09371 GT PUSH2 0x66 JUMPI DUP1 PUSH4 0xCBD09371 EQ PUSH2 0x1FF JUMPI DUP1 PUSH4 0xCF309012 EQ PUSH2 0x22F JUMPI DUP1 PUSH4 0xF2FDE38B EQ PUSH2 0x24D JUMPI DUP1 PUSH4 0xFC0C546A EQ PUSH2 0x269 JUMPI PUSH2 0xCF JUMP JUMPDEST DUP1 PUSH4 0x715018A6 EQ PUSH2 0x1A4 JUMPI DUP1 PUSH4 0x821BEE73 EQ PUSH2 0x1AE JUMPI DUP1 PUSH4 0x8DA5CB5B EQ PUSH2 0x1E1 JUMPI PUSH2 0xCF JUMP JUMPDEST DUP1 PUSH4 0x1BCDE4EC EQ PUSH2 0xD4 JUMPI DUP1 PUSH4 0x302DF083 EQ PUSH2 0xF0 JUMPI DUP1 PUSH4 0x37BDC99B EQ PUSH2 0x120 JUMPI DUP1 PUSH4 0x4691A998 EQ PUSH2 0x13C JUMPI DUP1 PUSH4 0x52DB191F EQ PUSH2 0x158 JUMPI DUP1 PUSH4 0x6EB48096 EQ PUSH2 0x188 JUMPI JUMPDEST PUSH1 0x0 DUP1 REVERT JUMPDEST PUSH2 0xEE PUSH1 0x4 DUP1 CALLDATASIZE SUB DUP2 ADD SWAP1 PUSH2 0xE9 SWAP2 SWAP1 PUSH2 0x110F JUMP JUMPDEST PUSH2 0x287 JUMP JUMPDEST STOP JUMPDEST PUSH2 0x10A PUSH1 0x4 DUP1 CALLDATASIZE SUB DUP2 ADD SWAP1 PUSH2 0x105 SWAP2 SWAP1 PUSH2 0x110F JUMP JUMPDEST PUSH2 0x4B5 JUMP JUMPDEST PUSH1 0x40 MLOAD PUSH2 0x117 SWAP2 SWAP1 PUSH2 0x117D JUMP JUMPDEST PUSH1 0x40 MLOAD DUP1 SWAP2 SUB SWAP1 RETURN JUMPDEST PUSH2 0x13A PUSH1 0x4 DUP1 CALLDATASIZE SUB DUP2 ADD SWAP1 PUSH2 0x135 SWAP2 SWAP1 PUSH2 0x110F JUMP JUMPDEST PUSH2 0x4F5 JUMP JUMPDEST STOP JUMPDEST PUSH2 0x156 PUSH1 0x4 DUP1 CALLDATASIZE SUB DUP2 ADD SWAP1 PUSH2 0x151 SWAP2 SWAP1 PUSH2 0x11C4 JUMP JUMPDEST PUSH2 0x981 JUMP JUMPDEST STOP JUMPDEST PUSH2 0x172 PUSH1 0x4 DUP1 CALLDATASIZE SUB DUP2 ADD SWAP1 PUSH2 0x16D SWAP2 SWAP1 PUSH2 0x110F JUMP JUMPDEST PUSH2 0xBD6 JUMP JUMPDEST PUSH1 0x40 MLOAD PUSH2 0x17F SWAP2 SWAP1 PUSH2 0x1226 JUMP JUMPDEST PUSH1 0x40 MLOAD DUP1 SWAP2 SUB SWAP1 RETURN JUMPDEST PUSH2 0x1A2 PUSH1 0x4 DUP1 CALLDATASIZE SUB DUP2 ADD SWAP1 PUSH2 0x19D SWAP2 SWAP1 PUSH2 0x110F JUMP JUMPDEST PUSH2 0xBF6 JUMP JUMPDEST STOP JUMPDEST PUSH2 0x1AC PUSH2 0xDD6 JUMP JUMPDEST STOP JUMPDEST PUSH2 0x1C8 PUSH1 0x4 DUP1 CALLDATASIZE SUB DUP2 ADD SWAP1 PUSH2 0x1C3 SWAP2 SWAP1 PUSH2 0x110F JUMP JUMPDEST PUSH2 0xDEA JUMP JUMPDEST PUSH1 0x40 MLOAD PUSH2 0x1D8 SWAP5 SWAP4 SWAP3 SWAP2 SWAP1 PUSH2 0x125C JUMP JUMPDEST PUSH1 0x40 MLOAD DUP1 SWAP2 SUB SWAP1 RETURN JUMPDEST PUSH2 0x1E9 PUSH2 0xE47 JUMP JUMPDEST PUSH1 0x40 MLOAD PUSH2 0x1F6 SWAP2 SWAP1 PUSH2 0x117D JUMP JUMPDEST PUSH1 0x40 MLOAD DUP1 SWAP2 SUB SWAP1 RETURN JUMPDEST PUSH2 0x219 PUSH1 0x4 DUP1 CALLDATASIZE SUB DUP2 ADD SWAP1 PUSH2 0x214 SWAP2 SWAP1 PUSH2 0x110F JUMP JUMPDEST PUSH2 0xE70 JUMP JUMPDEST PUSH1 0x40 MLOAD PUSH2 0x226 SWAP2 SWAP1 PUSH2 0x1226 JUMP JUMPDEST PUSH1 0x40 MLOAD DUP1 SWAP2 SUB SWAP1 RETURN JUMPDEST PUSH2 0x237 PUSH2 0xE90 JUMP JUMPDEST PUSH1 0x40 MLOAD PUSH2 0x244 SWAP2 SWAP1 PUSH2 0x12A1 JUMP JUMPDEST PUSH1 0x40 MLOAD DUP1 SWAP2 SUB SWAP1 RETURN JUMPDEST PUSH2 0x267 PUSH1 0x4 DUP1 CALLDATASIZE SUB DUP2 ADD SWAP1 PUSH2 0x262 SWAP2 SWAP1 PUSH2 0x12BC JUMP JUMPDEST PUSH2 0xEA3 JUMP JUMPDEST STOP JUMPDEST PUSH2 0x271 PUSH2 0xF26 JUMP JUMPDEST PUSH1 0x40 MLOAD PUSH2 0x27E SWAP2 SWAP1 PUSH2 0x1348 JUMP JUMPDEST PUSH1 0x40 MLOAD DUP1 SWAP2 SUB SWAP1 RETURN JUMPDEST PUSH2 0x28F PUSH2 0xF50 JUMP JUMPDEST PUSH1 0x0 PUSH1 0x3 PUSH1 0x0 DUP4 DUP2 MSTORE PUSH1 0x20 ADD SWAP1 DUP2 MSTORE PUSH1 0x20 ADD PUSH1 0x0 KECCAK256 SWAP1 POP PUSH1 0x0 PUSH20 0xFFFFFFFFFFFFFFFFFFFFFFFFFFFFFFFFFFFFFFFF AND DUP2 PUSH1 0x2 ADD PUSH1 0x0 SWAP1 SLOAD SWAP1 PUSH2 0x100 EXP SWAP1 DIV PUSH20 0xFFFFFFFFFFFFFFFFFFFFFFFFFFFFFFFFFFFFFFFF AND PUSH20 0xFFFFFFFFFFFFFFFFFFFFFFFFFFFFFFFFFFFFFFFF AND EQ ISZERO PUSH1 0x40 MLOAD DUP1 PUSH1 0x40 ADD PUSH1 0x40 MSTORE DUP1 PUSH1 0x1B DUP2 MSTORE PUSH1 0x20 ADD PUSH32 0x496E76616C69642062656E656669636961727920616464726573730000000000 DUP2 MSTORE POP SWAP1 PUSH2 0x372 JUMPI PUSH1 0x40 MLOAD PUSH32 0x8C379A000000000000000000000000000000000000000000000000000000000 DUP2 MSTORE PUSH1 0x4 ADD PUSH2 0x369 SWAP2 SWAP1 PUSH2 0x13F3 JUMP JUMPDEST PUSH1 0x40 MLOAD DUP1 SWAP2 SUB SWAP1 REVERT JUMPDEST POP DUP1 PUSH1 0x2 ADD PUSH1 0x14 SWAP1 SLOAD SWAP1 PUSH2 0x100 EXP SWAP1 DIV PUSH1 0xFF AND ISZERO PUSH1 0x40 MLOAD DUP1 PUSH1 0x40 ADD PUSH1 0x40 MSTORE DUP1 PUSH1 0x18 DUP2 MSTORE PUSH1 0x20 ADD PUSH32 0x56657374696E6720616C72656164792072656C65617365640000000000000000 DUP2 MSTORE POP SWAP1 PUSH2 0x3FD JUMPI PUSH1 0x40 MLOAD PUSH32 0x8C379A000000000000000000000000000000000000000000000000000000000 DUP2 MSTORE PUSH1 0x4 ADD PUSH2 0x3F4 SWAP2 SWAP1 PUSH2 0x13F3 JUMP JUMPDEST PUSH1 0x40 MLOAD DUP1 SWAP2 SUB SWAP1 REVERT JUMPDEST POP PUSH2 0x417 DUP2 PUSH1 0x1 ADD SLOAD PUSH1 0x4 SLOAD PUSH2 0xFCE SWAP1 SWAP2 SWAP1 PUSH4 0xFFFFFFFF AND JUMP JUMPDEST PUSH1 0x4 DUP2 SWAP1 SSTORE POP PUSH1 0x1 DUP2 PUSH1 0x2 ADD PUSH1 0x14 PUSH2 0x100 EXP DUP2 SLOAD DUP2 PUSH1 0xFF MUL NOT AND SWAP1 DUP4 ISZERO ISZERO MUL OR SWAP1 SSTORE POP DUP1 PUSH1 0x2 ADD PUSH1 0x0 SWAP1 SLOAD SWAP1 PUSH2 0x100 EXP SWAP1 DIV PUSH20 0xFFFFFFFFFFFFFFFFFFFFFFFFFFFFFFFFFFFFFFFF AND PUSH20 0xFFFFFFFFFFFFFFFFFFFFFFFFFFFFFFFFFFFFFFFF AND DUP3 PUSH32 0x295AC83A3C5CF518A125BA974BE97DCA6A668BAE6DD90B6902B2618CDFF1FCC6 DUP4 PUSH1 0x1 ADD SLOAD PUSH1 0x40 MLOAD PUSH2 0x4A9 SWAP2 SWAP1 PUSH2 0x1226 JUMP JUMPDEST PUSH1 0x40 MLOAD DUP1 SWAP2 SUB SWAP1 LOG3 POP POP JUMP JUMPDEST PUSH1 0x0 PUSH1 0x3 PUSH1 0x0 DUP4 DUP2 MSTORE PUSH1 0x20 ADD SWAP1 DUP2 MSTORE PUSH1 0x20 ADD PUSH1 0x0 KECCAK256 PUSH1 0x2 ADD PUSH1 0x0 SWAP1 SLOAD SWAP1 PUSH2 0x100 EXP SWAP1 DIV PUSH20 0xFFFFFFFFFFFFFFFFFFFFFFFFFFFFFFFFFFFFFFFF AND SWAP1 POP SWAP2 SWAP1 POP JUMP JUMPDEST PUSH1 0x0 PUSH1 0x3 PUSH1 0x0 DUP4 DUP2 MSTORE PUSH1 0x20 ADD SWAP1 DUP2 MSTORE PUSH1 0x20 ADD PUSH1 0x0 KECCAK256 SWAP1 POP PUSH1 0x0 PUSH20 0xFFFFFFFFFFFFFFFFFFFFFFFFFFFFFFFFFFFFFFFF AND DUP2 PUSH1 0x2 ADD PUSH1 0x0 SWAP1 SLOAD SWAP1 PUSH2 0x100 EXP SWAP1 DIV PUSH20 0xFFFFFFFFFFFFFFFFFFFFFFFFFFFFFFFFFFFFFFFF AND PUSH20 0xFFFFFFFFFFFFFFFFFFFFFFFFFFFFFFFFFFFFFFFF AND EQ ISZERO PUSH1 0x40 MLOAD DUP1 PUSH1 0x40 ADD PUSH1 0x40 MSTORE DUP1 PUSH1 0x12 DUP2 MSTORE PUSH1 0x20 ADD PUSH32 0x496E76616C69642076657374696E672069640000000000000000000000000000 DUP2 MSTORE POP SWAP1 PUSH2 0x5D8 JUMPI PUSH1 0x40 MLOAD PUSH32 0x8C379A000000000000000000000000000000000000000000000000000000000 DUP2 MSTORE PUSH1 0x4 ADD PUSH2 0x5CF SWAP2 SWAP1 PUSH2 0x13F3 JUMP JUMPDEST PUSH1 0x40 MLOAD DUP1 SWAP2 SUB SWAP1 REVERT JUMPDEST POP DUP1 PUSH1 0x2 ADD PUSH1 0x14 SWAP1 SLOAD SWAP1 PUSH2 0x100 EXP SWAP1 DIV PUSH1 0xFF AND ISZERO PUSH1 0x40 MLOAD DUP1 PUSH1 0x40 ADD PUSH1 0x40 MSTORE DUP1 PUSH1 0x18 DUP2 MSTORE PUSH1 0x20 ADD PUSH32 0x56657374696E6720616C72656164792072656C65617365640000000000000000 DUP2 MSTORE POP SWAP1 PUSH2 0x663 JUMPI PUSH1 0x40 MLOAD PUSH32 0x8C379A000000000000000000000000000000000000000000000000000000000 DUP2 MSTORE PUSH1 0x4 ADD PUSH2 0x65A SWAP2 SWAP1 PUSH2 0x13F3 JUMP JUMPDEST PUSH1 0x40 MLOAD DUP1 SWAP2 SUB SWAP1 REVERT JUMPDEST POP DUP1 PUSH1 0x0 ADD SLOAD TIMESTAMP LT ISZERO PUSH1 0x40 MLOAD DUP1 PUSH1 0x40 ADD PUSH1 0x40 MSTORE DUP1 PUSH1 0x1A DUP2 MSTORE PUSH1 0x20 ADD PUSH32 0x546F6B656E732068617665206E6F742076657374656420796574000000000000 DUP2 MSTORE POP SWAP1 PUSH2 0x6E3 JUMPI PUSH1 0x40 MLOAD PUSH32 0x8C379A000000000000000000000000000000000000000000000000000000000 DUP2 MSTORE PUSH1 0x4 ADD PUSH2 0x6DA SWAP2 SWAP1 PUSH2 0x13F3 JUMP JUMPDEST PUSH1 0x40 MLOAD DUP1 SWAP2 SUB SWAP1 REVERT JUMPDEST POP DUP1 PUSH1 0x1 ADD SLOAD PUSH1 0x2 PUSH1 0x0 SWAP1 SLOAD SWAP1 PUSH2 0x100 EXP SWAP1 DIV PUSH20 0xFFFFFFFFFFFFFFFFFFFFFFFFFFFFFFFFFFFFFFFF AND PUSH20 0xFFFFFFFFFFFFFFFFFFFFFFFFFFFFFFFFFFFFFFFF AND PUSH4 0x70A08231 ADDRESS PUSH1 0x40 MLOAD DUP3 PUSH4 0xFFFFFFFF AND PUSH1 0xE0 SHL DUP2 MSTORE PUSH1 0x4 ADD PUSH2 0x744 SWAP2 SWAP1 PUSH2 0x117D JUMP JUMPDEST PUSH1 0x20 PUSH1 0x40 MLOAD DUP1 DUP4 SUB DUP2 DUP7 GAS STATICCALL ISZERO DUP1 ISZERO PUSH2 0x761 JUMPI RETURNDATASIZE PUSH1 0x0 DUP1 RETURNDATACOPY RETURNDATASIZE PUSH1 0x0 REVERT JUMPDEST POP POP POP POP PUSH1 0x40 MLOAD RETURNDATASIZE PUSH1 0x1F NOT PUSH1 0x1F DUP3 ADD AND DUP3 ADD DUP1 PUSH1 0x40 MSTORE POP DUP2 ADD SWAP1 PUSH2 0x785 SWAP2 SWAP1 PUSH2 0x142A JUMP JUMPDEST LT ISZERO PUSH1 0x40 MLOAD DUP1 PUSH1 0x40 ADD PUSH1 0x40 MSTORE DUP1 PUSH1 0x14 DUP2 MSTORE PUSH1 0x20 ADD PUSH32 0x496E73756666696369656E742062616C616E6365000000000000000000000000 DUP2 MSTORE POP SWAP1 PUSH2 0x7FE JUMPI PUSH1 0x40 MLOAD PUSH32 0x8C379A000000000000000000000000000000000000000000000000000000000 DUP2 MSTORE PUSH1 0x4 ADD PUSH2 0x7F5 SWAP2 SWAP1 PUSH2 0x13F3 JUMP JUMPDEST PUSH1 0x40 MLOAD DUP1 SWAP2 SUB SWAP1 REVERT JUMPDEST POP PUSH1 0x1 DUP2 PUSH1 0x2 ADD PUSH1 0x14 PUSH2 0x100 EXP DUP2 SLOAD DUP2 PUSH1 0xFF MUL NOT AND SWAP1 DUP4 ISZERO ISZERO MUL OR SWAP1 SSTORE POP PUSH2 0x835 DUP2 PUSH1 0x1 ADD SLOAD PUSH1 0x4 SLOAD PUSH2 0xFCE SWAP1 SWAP2 SWAP1 PUSH4 0xFFFFFFFF AND JUMP JUMPDEST PUSH1 0x4 DUP2 SWAP1 SSTORE POP PUSH1 0x2 PUSH1 0x0 SWAP1 SLOAD SWAP1 PUSH2 0x100 EXP SWAP1 DIV PUSH20 0xFFFFFFFFFFFFFFFFFFFFFFFFFFFFFFFFFFFFFFFF AND PUSH20 0xFFFFFFFFFFFFFFFFFFFFFFFFFFFFFFFFFFFFFFFF AND PUSH4 0x469895C8 ADDRESS DUP4 PUSH1 0x2 ADD PUSH1 0x0 SWAP1 SLOAD SWAP1 PUSH2 0x100 EXP SWAP1 DIV PUSH20 0xFFFFFFFFFFFFFFFFFFFFFFFFFFFFFFFFFFFFFFFF AND DUP5 PUSH1 0x1 ADD SLOAD PUSH1 0x40 MLOAD DUP5 PUSH4 0xFFFFFFFF AND PUSH1 0xE0 SHL DUP2 MSTORE PUSH1 0x4 ADD PUSH2 0x8C2 SWAP4 SWAP3 SWAP2 SWAP1 PUSH2 0x1457 JUMP JUMPDEST PUSH1 0x20 PUSH1 0x40 MLOAD DUP1 DUP4 SUB DUP2 PUSH1 0x0 DUP8 GAS CALL ISZERO DUP1 ISZERO PUSH2 0x8E1 JUMPI RETURNDATASIZE PUSH1 0x0 DUP1 RETURNDATACOPY RETURNDATASIZE PUSH1 0x0 REVERT JUMPDEST POP POP POP POP PUSH1 0x40 MLOAD RETURNDATASIZE PUSH1 0x1F NOT PUSH1 0x1F DUP3 ADD AND DUP3 ADD DUP1 PUSH1 0x40 MSTORE POP DUP2 ADD SWAP1 PUSH2 0x905 SWAP2 SWAP1 PUSH2 0x14BA JUMP JUMPDEST POP DUP1 PUSH1 0x2 ADD PUSH1 0x0 SWAP1 SLOAD SWAP1 PUSH2 0x100 EXP SWAP1 DIV PUSH20 0xFFFFFFFFFFFFFFFFFFFFFFFFFFFFFFFFFFFFFFFF AND PUSH20 0xFFFFFFFFFFFFFFFFFFFFFFFFFFFFFFFFFFFFFFFF AND DUP3 PUSH32 0x295AC83A3C5CF518A125BA974BE97DCA6A668BAE6DD90B6902B2618CDFF1FCC6 DUP4 PUSH1 0x1 ADD SLOAD PUSH1 0x40 MLOAD PUSH2 0x975 SWAP2 SWAP1 PUSH2 0x1226 JUMP JUMPDEST PUSH1 0x40 MLOAD DUP1 SWAP2 SUB SWAP1 LOG3 POP POP JUMP JUMPDEST PUSH2 0x989 PUSH2 0xF50 JUMP JUMPDEST PUSH1 0x0 PUSH1 0x14 SWAP1 SLOAD SWAP1 PUSH2 0x100 EXP SWAP1 DIV PUSH1 0xFF AND ISZERO PUSH2 0x9D9 JUMPI PUSH1 0x40 MLOAD PUSH32 0x8C379A000000000000000000000000000000000000000000000000000000000 DUP2 MSTORE PUSH1 0x4 ADD PUSH2 0x9D0 SWAP1 PUSH2 0x1533 JUMP JUMPDEST PUSH1 0x40 MLOAD DUP1 SWAP2 SUB SWAP1 REVERT JUMPDEST PUSH1 0x1 PUSH1 0x0 PUSH1 0x14 PUSH2 0x100 EXP DUP2 SLOAD DUP2 PUSH1 0xFF MUL NOT AND SWAP1 DUP4 ISZERO ISZERO MUL OR SWAP1 SSTORE POP PUSH1 0x0 PUSH20 0xFFFFFFFFFFFFFFFFFFFFFFFFFFFFFFFFFFFFFFFF AND DUP4 PUSH20 0xFFFFFFFFFFFFFFFFFFFFFFFFFFFFFFFFFFFFFFFF AND SUB PUSH2 0xA63 JUMPI PUSH1 0x40 MLOAD PUSH32 0x8C379A000000000000000000000000000000000000000000000000000000000 DUP2 MSTORE PUSH1 0x4 ADD PUSH2 0xA5A SWAP1 PUSH2 0x159F JUMP JUMPDEST PUSH1 0x40 MLOAD DUP1 SWAP2 SUB SWAP1 REVERT JUMPDEST DUP1 PUSH1 0x4 PUSH1 0x0 DUP3 DUP3 SLOAD PUSH2 0xA75 SWAP2 SWAP1 PUSH2 0x15EE JUMP JUMPDEST SWAP3 POP POP DUP2 SWAP1 SSTORE PUSH1 0x4 DUP2 SWAP1 SSTORE POP PUSH1 0x40 MLOAD DUP1 PUSH1 0x80 ADD PUSH1 0x40 MSTORE DUP1 DUP4 DUP2 MSTORE PUSH1 0x20 ADD DUP3 DUP2 MSTORE PUSH1 0x20 ADD DUP5 PUSH20 0xFFFFFFFFFFFFFFFFFFFFFFFFFFFFFFFFFFFFFFFF AND DUP2 MSTORE PUSH1 0x20 ADD PUSH1 0x0 ISZERO ISZERO DUP2 MSTORE POP PUSH1 0x3 PUSH1 0x0 PUSH2 0xAC9 PUSH1 0x1 PUSH2 0xFE4 JUMP JUMPDEST DUP2 MSTORE PUSH1 0x20 ADD SWAP1 DUP2 MSTORE PUSH1 0x20 ADD PUSH1 0x0 KECCAK256 PUSH1 0x0 DUP3 ADD MLOAD DUP2 PUSH1 0x0 ADD SSTORE PUSH1 0x20 DUP3 ADD MLOAD DUP2 PUSH1 0x1 ADD SSTORE PUSH1 0x40 DUP3 ADD MLOAD DUP2 PUSH1 0x2 ADD PUSH1 0x0 PUSH2 0x100 EXP DUP2 SLOAD DUP2 PUSH20 0xFFFFFFFFFFFFFFFFFFFFFFFFFFFFFFFFFFFFFFFF MUL NOT AND SWAP1 DUP4 PUSH20 0xFFFFFFFFFFFFFFFFFFFFFFFFFFFFFFFFFFFFFFFF AND MUL OR SWAP1 SSTORE POP PUSH1 0x60 DUP3 ADD MLOAD DUP2 PUSH1 0x2 ADD PUSH1 0x14 PUSH2 0x100 EXP DUP2 SLOAD DUP2 PUSH1 0xFF MUL NOT AND SWAP1 DUP4 ISZERO ISZERO MUL OR SWAP1 SSTORE POP SWAP1 POP POP DUP3 PUSH20 0xFFFFFFFFFFFFFFFFFFFFFFFFFFFFFFFFFFFFFFFF AND PUSH2 0xB76 PUSH1 0x1 PUSH2 0xFE4 JUMP JUMPDEST PUSH32 0x295AC83A3C5CF518A125BA974BE97DCA6A668BAE6DD90B6902B2618CDFF1FCC6 DUP4 PUSH1 0x40 MLOAD PUSH2 0xBA5 SWAP2 SWAP1 PUSH2 0x1226 JUMP JUMPDEST PUSH1 0x40 MLOAD DUP1 SWAP2 SUB SWAP1 LOG3 PUSH2 0xBB7 PUSH1 0x1 PUSH2 0xFF2 JUMP JUMPDEST PUSH1 0x0 DUP1 PUSH1 0x14 PUSH2 0x100 EXP DUP2 SLOAD DUP2 PUSH1 0xFF MUL NOT AND SWAP1 DUP4 ISZERO ISZERO MUL OR SWAP1 SSTORE POP POP POP POP JUMP JUMPDEST PUSH1 0x0 PUSH1 0x3 PUSH1 0x0 DUP4 DUP2 MSTORE PUSH1 0x20 ADD SWAP1 DUP2 MSTORE PUSH1 0x20 ADD PUSH1 0x0 KECCAK256 PUSH1 0x0 ADD SLOAD SWAP1 POP SWAP2 SWAP1 POP JUMP JUMPDEST PUSH2 0xBFE PUSH2 0xF50 JUMP JUMPDEST PUSH2 0xCAE PUSH1 0x4 SLOAD PUSH1 0x2 PUSH1 0x0 SWAP1 SLOAD SWAP1 PUSH2 0x100 EXP SWAP1 DIV PUSH20 0xFFFFFFFFFFFFFFFFFFFFFFFFFFFFFFFFFFFFFFFF AND PUSH20 0xFFFFFFFFFFFFFFFFFFFFFFFFFFFFFFFFFFFFFFFF AND PUSH4 0x70A08231 ADDRESS PUSH1 0x40 MLOAD DUP3 PUSH4 0xFFFFFFFF AND PUSH1 0xE0 SHL DUP2 MSTORE PUSH1 0x4 ADD PUSH2 0xC5F SWAP2 SWAP1 PUSH2 0x117D JUMP JUMPDEST PUSH1 0x20 PUSH1 0x40 MLOAD DUP1 DUP4 SUB DUP2 DUP7 GAS STATICCALL ISZERO DUP1 ISZERO PUSH2 0xC7C JUMPI RETURNDATASIZE PUSH1 0x0 DUP1 RETURNDATACOPY RETURNDATASIZE PUSH1 0x0 REVERT JUMPDEST POP POP POP POP PUSH1 0x40 MLOAD RETURNDATASIZE PUSH1 0x1F NOT PUSH1 0x1F DUP3 ADD AND DUP3 ADD DUP1 PUSH1 0x40 MSTORE POP DUP2 ADD SWAP1 PUSH2 0xCA0 SWAP2 SWAP1 PUSH2 0x142A JUMP JUMPDEST PUSH2 0xFCE SWAP1 SWAP2 SWAP1 PUSH4 0xFFFFFFFF AND JUMP JUMPDEST DUP2 GT ISZERO PUSH1 0x40 MLOAD DUP1 PUSH1 0x40 ADD PUSH1 0x40 MSTORE DUP1 PUSH1 0x14 DUP2 MSTORE PUSH1 0x20 ADD PUSH32 0x496E73756666696369656E742062616C616E6365000000000000000000000000 DUP2 MSTORE POP SWAP1 PUSH2 0xD28 JUMPI PUSH1 0x40 MLOAD PUSH32 0x8C379A000000000000000000000000000000000000000000000000000000000 DUP2 MSTORE PUSH1 0x4 ADD PUSH2 0xD1F SWAP2 SWAP1 PUSH2 0x13F3 JUMP JUMPDEST PUSH1 0x40 MLOAD DUP1 SWAP2 SUB SWAP1 REVERT JUMPDEST POP PUSH1 0x2 PUSH1 0x0 SWAP1 SLOAD SWAP1 PUSH2 0x100 EXP SWAP1 DIV PUSH20 0xFFFFFFFFFFFFFFFFFFFFFFFFFFFFFFFFFFFFFFFF AND PUSH20 0xFFFFFFFFFFFFFFFFFFFFFFFFFFFFFFFFFFFFFFFF AND PUSH4 0x469895C8 ADDRESS PUSH2 0xD70 PUSH2 0xE47 JUMP JUMPDEST DUP5 PUSH1 0x40 MLOAD DUP5 PUSH4 0xFFFFFFFF AND PUSH1 0xE0 SHL DUP2 MSTORE PUSH1 0x4 ADD PUSH2 0xD8F SWAP4 SWAP3 SWAP2 SWAP1 PUSH2 0x1457 JUMP JUMPDEST PUSH1 0x20 PUSH1 0x40 MLOAD DUP1 DUP4 SUB DUP2 PUSH1 0x0 DUP8 GAS CALL ISZERO DUP1 ISZERO PUSH2 0xDAE JUMPI RETURNDATASIZE PUSH1 0x0 DUP1 RETURNDATACOPY RETURNDATASIZE PUSH1 0x0 REVERT JUMPDEST POP POP POP POP PUSH1 0x40 MLOAD RETURNDATASIZE PUSH1 0x1F NOT PUSH1 0x1F DUP3 ADD AND DUP3 ADD DUP1 PUSH1 0x40 MSTORE POP DUP2 ADD SWAP1 PUSH2 0xDD2 SWAP2 SWAP1 PUSH2 0x14BA JUMP JUMPDEST POP POP JUMP JUMPDEST PUSH2 0xDDE PUSH2 0xF50 JUMP JUMPDEST PUSH2 0xDE8 PUSH1 0x0 PUSH2 0x1008 JUMP JUMPDEST JUMP JUMPDEST PUSH1 0x3 PUSH1 0x20 MSTORE DUP1 PUSH1 0x0 MSTORE PUSH1 0x40 PUSH1 0x0 KECCAK256 PUSH1 0x0 SWAP2 POP SWAP1 POP DUP1 PUSH1 0x0 ADD SLOAD SWAP1 DUP1 PUSH1 0x1 ADD SLOAD SWAP1 DUP1 PUSH1 0x2 ADD PUSH1 0x0 SWAP1 SLOAD SWAP1 PUSH2 0x100 EXP SWAP1 DIV PUSH20 0xFFFFFFFFFFFFFFFFFFFFFFFFFFFFFFFFFFFFFFFF AND SWAP1 DUP1 PUSH1 0x2 ADD PUSH1 0x14 SWAP1 SLOAD SWAP1 PUSH2 0x100 EXP SWAP1 DIV PUSH1 0xFF AND SWAP1 POP DUP5 JUMP JUMPDEST PUSH1 0x0 DUP1 PUSH1 0x0 SWAP1 SLOAD SWAP1 PUSH2 0x100 EXP SWAP1 DIV PUSH20 0xFFFFFFFFFFFFFFFFFFFFFFFFFFFFFFFFFFFFFFFF AND SWAP1 POP SWAP1 JUMP JUMPDEST PUSH1 0x0 PUSH1 0x3 PUSH1 0x0 DUP4 DUP2 MSTORE PUSH1 0x20 ADD SWAP1 DUP2 MSTORE PUSH1 0x20 ADD PUSH1 0x0 KECCAK256 PUSH1 0x1 ADD SLOAD SWAP1 POP SWAP2 SWAP1 POP JUMP JUMPDEST PUSH1 0x0 PUSH1 0x14 SWAP1 SLOAD SWAP1 PUSH2 0x100 EXP SWAP1 DIV PUSH1 0xFF AND DUP2 JUMP JUMPDEST PUSH2 0xEAB PUSH2 0xF50 JUMP JUMPDEST PUSH1 0x0 PUSH20 0xFFFFFFFFFFFFFFFFFFFFFFFFFFFFFFFFFFFFFFFF AND DUP2 PUSH20 0xFFFFFFFFFFFFFFFFFFFFFFFFFFFFFFFFFFFFFFFF AND SUB PUSH2 0xF1A JUMPI PUSH1 0x40 MLOAD PUSH32 0x8C379A000000000000000000000000000000000000000000000000000000000 DUP2 MSTORE PUSH1 0x4 ADD PUSH2 0xF11 SWAP1 PUSH2 0x1694 JUMP JUMPDEST PUSH1 0x40 MLOAD DUP1 SWAP2 SUB SWAP1 REVERT JUMPDEST PUSH2 0xF23 DUP2 PUSH2 0x1008 JUMP JUMPDEST POP JUMP JUMPDEST PUSH1 0x0 PUSH1 0x2 PUSH1 0x0 SWAP1 SLOAD SWAP1 PUSH2 0x100 EXP SWAP1 DIV PUSH20 0xFFFFFFFFFFFFFFFFFFFFFFFFFFFFFFFFFFFFFFFF AND SWAP1 POP SWAP1 JUMP JUMPDEST PUSH2 0xF58 PUSH2 0x10CC JUMP JUMPDEST PUSH20 0xFFFFFFFFFFFFFFFFFFFFFFFFFFFFFFFFFFFFFFFF AND PUSH2 0xF76 PUSH2 0xE47 JUMP JUMPDEST PUSH20 0xFFFFFFFFFFFFFFFFFFFFFFFFFFFFFFFFFFFFFFFF AND EQ PUSH2 0xFCC JUMPI PUSH1 0x40 MLOAD PUSH32 0x8C379A000000000000000000000000000000000000000000000000000000000 DUP2 MSTORE PUSH1 0x4 ADD PUSH2 0xFC3 SWAP1 PUSH2 0x1700 JUMP JUMPDEST PUSH1 0x40 MLOAD DUP1 SWAP2 SUB SWAP1 REVERT JUMPDEST JUMP JUMPDEST PUSH1 0x0 DUP2 DUP4 PUSH2 0xFDC SWAP2 SWAP1 PUSH2 0x1720 JUMP JUMPDEST SWAP1 POP SWAP3 SWAP2 POP POP JUMP JUMPDEST PUSH1 0x0 DUP2 PUSH1 0x0 ADD SLOAD SWAP1 POP SWAP2 SWAP1 POP JUMP JUMPDEST PUSH1 0x1 DUP2 PUSH1 0x0 ADD PUSH1 0x0 DUP3 DUP3 SLOAD ADD SWAP3 POP POP DUP2 SWAP1 SSTORE POP POP JUMP JUMPDEST PUSH1 0x0 DUP1 PUSH1 0x0 SWAP1 SLOAD SWAP1 PUSH2 0x100 EXP SWAP1 DIV PUSH20 0xFFFFFFFFFFFFFFFFFFFFFFFFFFFFFFFFFFFFFFFF AND SWAP1 POP DUP2 PUSH1 0x0 DUP1 PUSH2 0x100 EXP DUP2 SLOAD DUP2 PUSH20 0xFFFFFFFFFFFFFFFFFFFFFFFFFFFFFFFFFFFFFFFF MUL NOT AND SWAP1 DUP4 PUSH20 0xFFFFFFFFFFFFFFFFFFFFFFFFFFFFFFFFFFFFFFFF AND MUL OR SWAP1 SSTORE POP DUP2 PUSH20 0xFFFFFFFFFFFFFFFFFFFFFFFFFFFFFFFFFFFFFFFF AND DUP2 PUSH20 0xFFFFFFFFFFFFFFFFFFFFFFFFFFFFFFFFFFFFFFFF AND PUSH32 0x8BE0079C531659141344CD1FD0A4F28419497F9722A3DAAFE3B4186F6B6457E0 PUSH1 0x40 MLOAD PUSH1 0x40 MLOAD DUP1 SWAP2 SUB SWAP1 LOG3 POP POP JUMP JUMPDEST PUSH1 0x0 CALLER SWAP1 POP SWAP1 JUMP JUMPDEST PUSH1 0x0 DUP1 REVERT JUMPDEST PUSH1 0x0 DUP2 SWAP1 POP SWAP2 SWAP1 POP JUMP JUMPDEST PUSH2 0x10EC DUP2 PUSH2 0x10D9 JUMP JUMPDEST DUP2 EQ PUSH2 0x10F7 JUMPI PUSH1 0x0 DUP1 REVERT JUMPDEST POP JUMP JUMPDEST PUSH1 0x0 DUP2 CALLDATALOAD SWAP1 POP PUSH2 0x1109 DUP2 PUSH2 0x10E3 JUMP JUMPDEST SWAP3 SWAP2 POP POP JUMP JUMPDEST PUSH1 0x0 PUSH1 0x20 DUP3 DUP5 SUB SLT ISZERO PUSH2 0x1125 JUMPI PUSH2 0x1124 PUSH2 0x10D4 JUMP JUMPDEST JUMPDEST PUSH1 0x0 PUSH2 0x1133 DUP5 DUP3 DUP6 ADD PUSH2 0x10FA JUMP JUMPDEST SWAP2 POP POP SWAP3 SWAP2 POP POP JUMP JUMPDEST PUSH1 0x0 PUSH20 0xFFFFFFFFFFFFFFFFFFFFFFFFFFFFFFFFFFFFFFFF DUP3 AND SWAP1 POP SWAP2 SWAP1 POP JUMP JUMPDEST PUSH1 0x0 PUSH2 0x1167 DUP3 PUSH2 0x113C JUMP JUMPDEST SWAP1 POP SWAP2 SWAP1 POP JUMP JUMPDEST PUSH2 0x1177 DUP2 PUSH2 0x115C JUMP JUMPDEST DUP3 MSTORE POP POP JUMP JUMPDEST PUSH1 0x0 PUSH1 0x20 DUP3 ADD SWAP1 POP PUSH2 0x1192 PUSH1 0x0 DUP4 ADD DUP5 PUSH2 0x116E JUMP JUMPDEST SWAP3 SWAP2 POP POP JUMP JUMPDEST PUSH2 0x11A1 DUP2 PUSH2 0x115C JUMP JUMPDEST DUP2 EQ PUSH2 0x11AC JUMPI PUSH1 0x0 DUP1 REVERT JUMPDEST POP JUMP JUMPDEST PUSH1 0x0 DUP2 CALLDATALOAD SWAP1 POP PUSH2 0x11BE DUP2 PUSH2 0x1198 JUMP JUMPDEST SWAP3 SWAP2 POP POP JUMP JUMPDEST PUSH1 0x0 DUP1 PUSH1 0x0 PUSH1 0x60 DUP5 DUP7 SUB SLT ISZERO PUSH2 0x11DD JUMPI PUSH2 0x11DC PUSH2 0x10D4 JUMP JUMPDEST JUMPDEST PUSH1 0x0 PUSH2 0x11EB DUP7 DUP3 DUP8 ADD PUSH2 0x11AF JUMP JUMPDEST SWAP4 POP POP PUSH1 0x20 PUSH2 0x11FC DUP7 DUP3 DUP8 ADD PUSH2 0x10FA JUMP JUMPDEST SWAP3 POP POP PUSH1 0x40 PUSH2 0x120D DUP7 DUP3 DUP8 ADD PUSH2 0x10FA JUMP JUMPDEST SWAP2 POP POP SWAP3 POP SWAP3 POP SWAP3 JUMP JUMPDEST PUSH2 0x1220 DUP2 PUSH2 0x10D9 JUMP JUMPDEST DUP3 MSTORE POP POP JUMP JUMPDEST PUSH1 0x0 PUSH1 0x20 DUP3 ADD SWAP1 POP PUSH2 0x123B PUSH1 0x0 DUP4 ADD DUP5 PUSH2 0x1217 JUMP JUMPDEST SWAP3 SWAP2 POP POP JUMP JUMPDEST PUSH1 0x0 DUP2 ISZERO ISZERO SWAP1 POP SWAP2 SWAP1 POP JUMP JUMPDEST PUSH2 0x1256 DUP2 PUSH2 0x1241 JUMP JUMPDEST DUP3 MSTORE POP POP JUMP JUMPDEST PUSH1 0x0 PUSH1 0x80 DUP3 ADD SWAP1 POP PUSH2 0x1271 PUSH1 0x0 DUP4 ADD DUP8 PUSH2 0x1217 JUMP JUMPDEST PUSH2 0x127E PUSH1 0x20 DUP4 ADD DUP7 PUSH2 0x1217 JUMP JUMPDEST PUSH2 0x128B PUSH1 0x40 DUP4 ADD DUP6 PUSH2 0x116E JUMP JUMPDEST PUSH2 0x1298 PUSH1 0x60 DUP4 ADD DUP5 PUSH2 0x124D JUMP JUMPDEST SWAP6 SWAP5 POP POP POP POP POP JUMP JUMPDEST PUSH1 0x0 PUSH1 0x20 DUP3 ADD SWAP1 POP PUSH2 0x12B6 PUSH1 0x0 DUP4 ADD DUP5 PUSH2 0x124D JUMP JUMPDEST SWAP3 SWAP2 POP POP JUMP JUMPDEST PUSH1 0x0 PUSH1 0x20 DUP3 DUP5 SUB SLT ISZERO PUSH2 0x12D2 JUMPI PUSH2 0x12D1 PUSH2 0x10D4 JUMP JUMPDEST JUMPDEST PUSH1 0x0 PUSH2 0x12E0 DUP5 DUP3 DUP6 ADD PUSH2 0x11AF JUMP JUMPDEST SWAP2 POP POP SWAP3 SWAP2 POP POP JUMP JUMPDEST PUSH1 0x0 DUP2 SWAP1 POP SWAP2 SWAP1 POP JUMP JUMPDEST PUSH1 0x0 PUSH2 0x130E PUSH2 0x1309 PUSH2 0x1304 DUP5 PUSH2 0x113C JUMP JUMPDEST PUSH2 0x12E9 JUMP JUMPDEST PUSH2 0x113C JUMP JUMPDEST SWAP1 POP SWAP2 SWAP1 POP JUMP JUMPDEST PUSH1 0x0 PUSH2 0x1320 DUP3 PUSH2 0x12F3 JUMP JUMPDEST SWAP1 POP SWAP2 SWAP1 POP JUMP JUMPDEST PUSH1 0x0 PUSH2 0x1332 DUP3 PUSH2 0x1315 JUMP JUMPDEST SWAP1 POP SWAP2 SWAP1 POP JUMP JUMPDEST PUSH2 0x1342 DUP2 PUSH2 0x1327 JUMP JUMPDEST DUP3 MSTORE POP POP JUMP JUMPDEST PUSH1 0x0 PUSH1 0x20 DUP3 ADD SWAP1 POP PUSH2 0x135D PUSH1 0x0 DUP4 ADD DUP5 PUSH2 0x1339 JUMP JUMPDEST SWAP3 SWAP2 POP POP JUMP JUMPDEST PUSH1 0x0 DUP2 MLOAD SWAP1 POP SWAP2 SWAP1 POP JUMP JUMPDEST PUSH1 0x0 DUP3 DUP3 MSTORE PUSH1 0x20 DUP3 ADD SWAP1 POP SWAP3 SWAP2 POP POP JUMP JUMPDEST PUSH1 0x0 JUMPDEST DUP4 DUP2 LT ISZERO PUSH2 0x139D JUMPI DUP1 DUP3 ADD MLOAD DUP2 DUP5 ADD MSTORE PUSH1 0x20 DUP2 ADD SWAP1 POP PUSH2 0x1382 JUMP JUMPDEST PUSH1 0x0 DUP5 DUP5 ADD MSTORE POP POP POP POP JUMP JUMPDEST PUSH1 0x0 PUSH1 0x1F NOT PUSH1 0x1F DUP4 ADD AND SWAP1 POP SWAP2 SWAP1 POP JUMP JUMPDEST PUSH1 0x0 PUSH2 0x13C5 DUP3 PUSH2 0x1363 JUMP JUMPDEST PUSH2 0x13CF DUP2 DUP6 PUSH2 0x136E JUMP JUMPDEST SWAP4 POP PUSH2 0x13DF DUP2 DUP6 PUSH1 0x20 DUP7 ADD PUSH2 0x137F JUMP JUMPDEST PUSH2 0x13E8 DUP2 PUSH2 0x13A9 JUMP JUMPDEST DUP5 ADD SWAP2 POP POP SWAP3 SWAP2 POP POP JUMP JUMPDEST PUSH1 0x0 PUSH1 0x20 DUP3 ADD SWAP1 POP DUP2 DUP2 SUB PUSH1 0x0 DUP4 ADD MSTORE PUSH2 0x140D DUP2 DUP5 PUSH2 0x13BA JUMP JUMPDEST SWAP1 POP SWAP3 SWAP2 POP POP JUMP JUMPDEST PUSH1 0x0 DUP2 MLOAD SWAP1 POP PUSH2 0x1424 DUP2 PUSH2 0x10E3 JUMP JUMPDEST SWAP3 SWAP2 POP POP JUMP JUMPDEST PUSH1 0x0 PUSH1 0x20 DUP3 DUP5 SUB SLT ISZERO PUSH2 0x1440 JUMPI PUSH2 0x143F PUSH2 0x10D4 JUMP JUMPDEST JUMPDEST PUSH1 0x0 PUSH2 0x144E DUP5 DUP3 DUP6 ADD PUSH2 0x1415 JUMP JUMPDEST SWAP2 POP POP SWAP3 SWAP2 POP POP JUMP JUMPDEST PUSH1 0x0 PUSH1 0x60 DUP3 ADD SWAP1 POP PUSH2 0x146C PUSH1 0x0 DUP4 ADD DUP7 PUSH2 0x116E JUMP JUMPDEST PUSH2 0x1479 PUSH1 0x20 DUP4 ADD DUP6 PUSH2 0x116E JUMP JUMPDEST PUSH2 0x1486 PUSH1 0x40 DUP4 ADD DUP5 PUSH2 0x1217 JUMP JUMPDEST SWAP5 SWAP4 POP POP POP POP JUMP JUMPDEST PUSH2 0x1497 DUP2 PUSH2 0x1241 JUMP JUMPDEST DUP2 EQ PUSH2 0x14A2 JUMPI PUSH1 0x0 DUP1 REVERT JUMPDEST POP JUMP JUMPDEST PUSH1 0x0 DUP2 MLOAD SWAP1 POP PUSH2 0x14B4 DUP2 PUSH2 0x148E JUMP JUMPDEST SWAP3 SWAP2 POP POP JUMP JUMPDEST PUSH1 0x0 PUSH1 0x20 DUP3 DUP5 SUB SLT ISZERO PUSH2 0x14D0 JUMPI PUSH2 0x14CF PUSH2 0x10D4 JUMP JUMPDEST JUMPDEST PUSH1 0x0 PUSH2 0x14DE DUP5 DUP3 DUP6 ADD PUSH2 0x14A5 JUMP JUMPDEST SWAP2 POP POP SWAP3 SWAP2 POP POP JUMP JUMPDEST PUSH32 0x4E6F205265456E7472616E637900000000000000000000000000000000000000 PUSH1 0x0 DUP3 ADD MSTORE POP JUMP JUMPDEST PUSH1 0x0 PUSH2 0x151D PUSH1 0xD DUP4 PUSH2 0x136E JUMP JUMPDEST SWAP2 POP PUSH2 0x1528 DUP3 PUSH2 0x14E7 JUMP JUMPDEST PUSH1 0x20 DUP3 ADD SWAP1 POP SWAP2 SWAP1 POP JUMP JUMPDEST PUSH1 0x0 PUSH1 0x20 DUP3 ADD SWAP1 POP DUP2 DUP2 SUB PUSH1 0x0 DUP4 ADD MSTORE PUSH2 0x154C DUP2 PUSH2 0x1510 JUMP JUMPDEST SWAP1 POP SWAP2 SWAP1 POP JUMP JUMPDEST PUSH32 0x5156452072656365697665722069732061646472657373283029000000000000 PUSH1 0x0 DUP3 ADD MSTORE POP JUMP JUMPDEST PUSH1 0x0 PUSH2 0x1589 PUSH1 0x1A DUP4 PUSH2 0x136E JUMP JUMPDEST SWAP2 POP PUSH2 0x1594 DUP3 PUSH2 0x1553 JUMP JUMPDEST PUSH1 0x20 DUP3 ADD SWAP1 POP SWAP2 SWAP1 POP JUMP JUMPDEST PUSH1 0x0 PUSH1 0x20 DUP3 ADD SWAP1 POP DUP2 DUP2 SUB PUSH1 0x0 DUP4 ADD MSTORE PUSH2 0x15B8 DUP2 PUSH2 0x157C JUMP JUMPDEST SWAP1 POP SWAP2 SWAP1 POP JUMP JUMPDEST PUSH32 0x4E487B7100000000000000000000000000000000000000000000000000000000 PUSH1 0x0 MSTORE PUSH1 0x11 PUSH1 0x4 MSTORE PUSH1 0x24 PUSH1 0x0 REVERT JUMPDEST PUSH1 0x0 PUSH2 0x15F9 DUP3 PUSH2 0x10D9 JUMP JUMPDEST SWAP2 POP PUSH2 0x1604 DUP4 PUSH2 0x10D9 JUMP JUMPDEST SWAP3 POP DUP3 DUP3 ADD SWAP1 POP DUP1 DUP3 GT ISZERO PUSH2 0x161C JUMPI PUSH2 0x161B PUSH2 0x15BF JUMP JUMPDEST JUMPDEST SWAP3 SWAP2 POP POP JUMP JUMPDEST PUSH32 0x4F776E61626C653A206E6577206F776E657220697320746865207A65726F2061 PUSH1 0x0 DUP3 ADD MSTORE PUSH32 0x6464726573730000000000000000000000000000000000000000000000000000 PUSH1 0x20 DUP3 ADD MSTORE POP JUMP JUMPDEST PUSH1 0x0 PUSH2 0x167E PUSH1 0x26 DUP4 PUSH2 0x136E JUMP JUMPDEST SWAP2 POP PUSH2 0x1689 DUP3 PUSH2 0x1622 JUMP JUMPDEST PUSH1 0x40 DUP3 ADD SWAP1 POP SWAP2 SWAP1 POP JUMP JUMPDEST PUSH1 0x0 PUSH1 0x20 DUP3 ADD SWAP1 POP DUP2 DUP2 SUB PUSH1 0x0 DUP4 ADD MSTORE PUSH2 0x16AD DUP2 PUSH2 0x1671 JUMP JUMPDEST SWAP1 POP SWAP2 SWAP1 POP JUMP JUMPDEST PUSH32 0x4F776E61626C653A2063616C6C6572206973206E6F7420746865206F776E6572 PUSH1 0x0 DUP3 ADD MSTORE POP JUMP JUMPDEST PUSH1 0x0 PUSH2 0x16EA PUSH1 0x20 DUP4 PUSH2 0x136E JUMP JUMPDEST SWAP2 POP PUSH2 0x16F5 DUP3 PUSH2 0x16B4 JUMP JUMPDEST PUSH1 0x20 DUP3 ADD SWAP1 POP SWAP2 SWAP1 POP JUMP JUMPDEST PUSH1 0x0 PUSH1 0x20 DUP3 ADD SWAP1 POP DUP2 DUP2 SUB PUSH1 0x0 DUP4 ADD MSTORE PUSH2 0x1719 DUP2 PUSH2 0x16DD JUMP JUMPDEST SWAP1 POP SWAP2 SWAP1 POP JUMP JUMPDEST PUSH1 0x0 PUSH2 0x172B DUP3 PUSH2 0x10D9 JUMP JUMPDEST SWAP2 POP PUSH2 0x1736 DUP4 PUSH2 0x10D9 JUMP JUMPDEST SWAP3 POP DUP3 DUP3 SUB SWAP1 POP DUP2 DUP2 GT ISZERO PUSH2 0x174E JUMPI PUSH2 0x174D PUSH2 0x15BF JUMP JUMPDEST JUMPDEST SWAP3 SWAP2 POP POP JUMP INVALID LOG2 PUSH5 0x6970667358 0x22 SLT KECCAK256 PUSH25 0xA8565473D050370A96BCBDD9AEA96B6A52A45B87A6BCEC328D PUSH30 0xFAF25E576C64736F6C634300081200330000000000000000000000000000 "
		},
		"gasEstimates": {
			"creation": {
				"codeDepositCost": "1205200",
				"executionCost": "infinite",
				"totalCost": "infinite"
			},
			"external": {
				"addVesting(address,uint256,uint256)": "infinite",
				"getBeneficiary(uint256)": "2894",
				"getReleaseTime(uint256)": "infinite",
				"getVestingAmount(uint256)": "infinite",
				"locked()": "2565",
				"owner()": "2589",
				"release(uint256)": "infinite",
				"removeVesting(uint256)": "infinite",
				"renounceOwnership()": "30421",
				"retrieveExcessTokens(uint256)": "infinite",
				"token()": "infinite",
				"transferOwnership(address)": "30810",
				"vestings(uint256)": "infinite"
			}
		},
		"methodIdentifiers": {
			"addVesting(address,uint256,uint256)": "4691a998",
			"getBeneficiary(uint256)": "302df083",
			"getReleaseTime(uint256)": "52db191f",
			"getVestingAmount(uint256)": "cbd09371",
			"locked()": "cf309012",
			"owner()": "8da5cb5b",
			"release(uint256)": "37bdc99b",
			"removeVesting(uint256)": "1bcde4ec",
			"renounceOwnership()": "715018a6",
			"retrieveExcessTokens(uint256)": "6eb48096",
			"token()": "fc0c546a",
			"transferOwnership(address)": "f2fde38b",
			"vestings(uint256)": "821bee73"
		}
	},
	"abi": [
		{
			"inputs": [
				{
					"internalType": "contract QVEtoken",
					"name": "_qveToken",
					"type": "address"
				}
			],
			"stateMutability": "nonpayable",
			"type": "constructor"
		},
		{
			"anonymous": false,
			"inputs": [
				{
					"indexed": true,
					"internalType": "address",
					"name": "previousOwner",
					"type": "address"
				},
				{
					"indexed": true,
					"internalType": "address",
					"name": "newOwner",
					"type": "address"
				}
			],
			"name": "OwnershipTransferred",
			"type": "event"
		},
		{
			"anonymous": false,
			"inputs": [
				{
					"indexed": true,
					"internalType": "uint256",
					"name": "vesting",
					"type": "uint256"
				},
				{
					"indexed": true,
					"internalType": "address",
					"name": "beneficiary",
					"type": "address"
				},
				{
					"indexed": false,
					"internalType": "uint256",
					"name": "amount",
					"type": "uint256"
				}
			],
			"name": "TokenVestingAdded",
			"type": "event"
		},
		{
			"anonymous": false,
			"inputs": [
				{
					"indexed": true,
					"internalType": "uint256",
					"name": "vesting",
					"type": "uint256"
				},
				{
					"indexed": true,
					"internalType": "address",
					"name": "beneficiary",
					"type": "address"
				},
				{
					"indexed": false,
					"internalType": "uint256",
					"name": "amount",
					"type": "uint256"
				}
			],
			"name": "TokenVestingReleased",
			"type": "event"
		},
		{
			"anonymous": false,
			"inputs": [
				{
					"indexed": true,
					"internalType": "uint256",
					"name": "vesting",
					"type": "uint256"
				},
				{
					"indexed": true,
					"internalType": "address",
					"name": "beneficiary",
					"type": "address"
				},
				{
					"indexed": false,
					"internalType": "uint256",
					"name": "amount",
					"type": "uint256"
				}
			],
			"name": "TokenVestingRemoved",
			"type": "event"
		},
		{
			"inputs": [
				{
					"internalType": "address",
					"name": "_beneficiary",
					"type": "address"
				},
				{
					"internalType": "uint256",
					"name": "_releaseTime",
					"type": "uint256"
				},
				{
					"internalType": "uint256",
					"name": "_amount",
					"type": "uint256"
				}
			],
			"name": "addVesting",
			"outputs": [],
			"stateMutability": "nonpayable",
			"type": "function"
		},
		{
			"inputs": [
				{
					"internalType": "uint256",
					"name": "_vestingId",
					"type": "uint256"
				}
			],
			"name": "getBeneficiary",
			"outputs": [
				{
					"internalType": "address",
					"name": "",
					"type": "address"
				}
			],
			"stateMutability": "view",
			"type": "function"
		},
		{
			"inputs": [
				{
					"internalType": "uint256",
					"name": "_vestingId",
					"type": "uint256"
				}
			],
			"name": "getReleaseTime",
			"outputs": [
				{
					"internalType": "uint256",
					"name": "",
					"type": "uint256"
				}
			],
			"stateMutability": "view",
			"type": "function"
		},
		{
			"inputs": [
				{
					"internalType": "uint256",
					"name": "_vestingId",
					"type": "uint256"
				}
			],
			"name": "getVestingAmount",
			"outputs": [
				{
					"internalType": "uint256",
					"name": "",
					"type": "uint256"
				}
			],
			"stateMutability": "view",
			"type": "function"
		},
		{
			"inputs": [],
			"name": "locked",
			"outputs": [
				{
					"internalType": "bool",
					"name": "",
					"type": "bool"
				}
			],
			"stateMutability": "view",
			"type": "function"
		},
		{
			"inputs": [],
			"name": "owner",
			"outputs": [
				{
					"internalType": "address",
					"name": "",
					"type": "address"
				}
			],
			"stateMutability": "view",
			"type": "function"
		},
		{
			"inputs": [
				{
					"internalType": "uint256",
					"name": "_vestingId",
					"type": "uint256"
				}
			],
			"name": "release",
			"outputs": [],
			"stateMutability": "nonpayable",
			"type": "function"
		},
		{
			"inputs": [
				{
					"internalType": "uint256",
					"name": "_vestingId",
					"type": "uint256"
				}
			],
			"name": "removeVesting",
			"outputs": [],
			"stateMutability": "nonpayable",
			"type": "function"
		},
		{
			"inputs": [],
			"name": "renounceOwnership",
			"outputs": [],
			"stateMutability": "nonpayable",
			"type": "function"
		},
		{
			"inputs": [
				{
					"internalType": "uint256",
					"name": "_amount",
					"type": "uint256"
				}
			],
			"name": "retrieveExcessTokens",
			"outputs": [],
			"stateMutability": "nonpayable",
			"type": "function"
		},
		{
			"inputs": [],
			"name": "token",
			"outputs": [
				{
					"internalType": "contract ERC20",
					"name": "",
					"type": "address"
				}
			],
			"stateMutability": "view",
			"type": "function"
		},
		{
			"inputs": [
				{
					"internalType": "address",
					"name": "newOwner",
					"type": "address"
				}
			],
			"name": "transferOwnership",
			"outputs": [],
			"stateMutability": "nonpayable",
			"type": "function"
		},
		{
			"inputs": [
				{
					"internalType": "uint256",
					"name": "",
					"type": "uint256"
				}
			],
			"name": "vestings",
			"outputs": [
				{
					"internalType": "uint256",
					"name": "releaseTime",
					"type": "uint256"
				},
				{
					"internalType": "uint256",
					"name": "amount",
					"type": "uint256"
				},
				{
					"internalType": "address",
					"name": "beneficiary",
					"type": "address"
				},
				{
					"internalType": "bool",
					"name": "released",
					"type": "bool"
				}
			],
			"stateMutability": "view",
			"type": "function"
		}
	]
}