{
	"gist-e69a4d62287211e39cb91b3b65937ff5/StakedGlp.sol": {
		"StakedGlp": {
			"abi": [
				{
					"inputs": [
						{
							"internalType": "address",
							"name": "_glp",
							"type": "address"
						},
						{
							"internalType": "contract IGlpManager",
							"name": "_glpManager",
							"type": "address"
						},
						{
							"internalType": "address",
							"name": "_stakedGlpTracker",
							"type": "address"
						},
						{
							"internalType": "address",
							"name": "_feeGlpTracker",
							"type": "address"
						}
					],
					"stateMutability": "nonpayable",
					"type": "constructor"
				},
				{
					"anonymous": false,
					"inputs": [
						{
							"indexed": true,
							"internalType": "address",
							"name": "owner",
							"type": "address"
						},
						{
							"indexed": true,
							"internalType": "address",
							"name": "spender",
							"type": "address"
						},
						{
							"indexed": false,
							"internalType": "uint256",
							"name": "value",
							"type": "uint256"
						}
					],
					"name": "Approval",
					"type": "event"
				},
				{
					"inputs": [
						{
							"internalType": "address",
							"name": "_owner",
							"type": "address"
						},
						{
							"internalType": "address",
							"name": "_spender",
							"type": "address"
						}
					],
					"name": "allowance",
					"outputs": [
						{
							"internalType": "uint256",
							"name": "",
							"type": "uint256"
						}
					],
					"stateMutability": "view",
					"type": "function"
				},
				{
					"inputs": [
						{
							"internalType": "address",
							"name": "",
							"type": "address"
						},
						{
							"internalType": "address",
							"name": "",
							"type": "address"
						}
					],
					"name": "allowances",
					"outputs": [
						{
							"internalType": "uint256",
							"name": "",
							"type": "uint256"
						}
					],
					"stateMutability": "view",
					"type": "function"
				},
				{
					"inputs": [
						{
							"internalType": "address",
							"name": "_spender",
							"type": "address"
						},
						{
							"internalType": "uint256",
							"name": "_amount",
							"type": "uint256"
						}
					],
					"name": "approve",
					"outputs": [
						{
							"internalType": "bool",
							"name": "",
							"type": "bool"
						}
					],
					"stateMutability": "nonpayable",
					"type": "function"
				},
				{
					"inputs": [
						{
							"internalType": "address",
							"name": "_account",
							"type": "address"
						}
					],
					"name": "balanceOf",
					"outputs": [
						{
							"internalType": "uint256",
							"name": "",
							"type": "uint256"
						}
					],
					"stateMutability": "view",
					"type": "function"
				},
				{
					"inputs": [],
					"name": "decimals",
					"outputs": [
						{
							"internalType": "uint8",
							"name": "",
							"type": "uint8"
						}
					],
					"stateMutability": "view",
					"type": "function"
				},
				{
					"inputs": [],
					"name": "feeGlpTracker",
					"outputs": [
						{
							"internalType": "address",
							"name": "",
							"type": "address"
						}
					],
					"stateMutability": "view",
					"type": "function"
				},
				{
					"inputs": [],
					"name": "glp",
					"outputs": [
						{
							"internalType": "address",
							"name": "",
							"type": "address"
						}
					],
					"stateMutability": "view",
					"type": "function"
				},
				{
					"inputs": [],
					"name": "glpManager",
					"outputs": [
						{
							"internalType": "contract IGlpManager",
							"name": "",
							"type": "address"
						}
					],
					"stateMutability": "view",
					"type": "function"
				},
				{
					"inputs": [],
					"name": "name",
					"outputs": [
						{
							"internalType": "string",
							"name": "",
							"type": "string"
						}
					],
					"stateMutability": "view",
					"type": "function"
				},
				{
					"inputs": [],
					"name": "stakedGlpTracker",
					"outputs": [
						{
							"internalType": "address",
							"name": "",
							"type": "address"
						}
					],
					"stateMutability": "view",
					"type": "function"
				},
				{
					"inputs": [],
					"name": "symbol",
					"outputs": [
						{
							"internalType": "string",
							"name": "",
							"type": "string"
						}
					],
					"stateMutability": "view",
					"type": "function"
				},
				{
					"inputs": [],
					"name": "totalSupply",
					"outputs": [
						{
							"internalType": "uint256",
							"name": "",
							"type": "uint256"
						}
					],
					"stateMutability": "view",
					"type": "function"
				},
				{
					"inputs": [
						{
							"internalType": "address",
							"name": "_recipient",
							"type": "address"
						},
						{
							"internalType": "uint256",
							"name": "_amount",
							"type": "uint256"
						}
					],
					"name": "transfer",
					"outputs": [
						{
							"internalType": "bool",
							"name": "",
							"type": "bool"
						}
					],
					"stateMutability": "nonpayable",
					"type": "function"
				},
				{
					"inputs": [
						{
							"internalType": "address",
							"name": "_sender",
							"type": "address"
						},
						{
							"internalType": "address",
							"name": "_recipient",
							"type": "address"
						},
						{
							"internalType": "uint256",
							"name": "_amount",
							"type": "uint256"
						}
					],
					"name": "transferFrom",
					"outputs": [
						{
							"internalType": "bool",
							"name": "",
							"type": "bool"
						}
					],
					"stateMutability": "nonpayable",
					"type": "function"
				}
			],
			"devdoc": {
				"kind": "dev",
				"methods": {},
				"version": 1
			},
			"evm": {
				"assembly": "    /* \"gist-e69a4d62287211e39cb91b3b65937ff5/StakedGlp.sol\":1582:4666  contract StakedGlp {... */\n  mstore(0x40, 0x80)\n    /* \"gist-e69a4d62287211e39cb91b3b65937ff5/StakedGlp.sol\":2062:2356  constructor(... */\n  callvalue\n  dup1\n  iszero\n  tag_1\n  jumpi\n  0x00\n  dup1\n  revert\ntag_1:\n  pop\n  mload(0x40)\n  sub(codesize, bytecodeSize)\n  dup1\n  bytecodeSize\n  dup4\n  codecopy\n  dup2\n  dup2\n  add\n  0x40\n  mstore\n  0x80\n  dup2\n  lt\n  iszero\n  tag_2\n  jumpi\n  0x00\n  dup1\n  revert\ntag_2:\n  dup2\n  add\n  swap1\n  dup1\n  dup1\n  mload\n  swap1\n  0x20\n  add\n  swap1\n  swap3\n  swap2\n  swap1\n  dup1\n  mload\n  swap1\n  0x20\n  add\n  swap1\n  swap3\n  swap2\n  swap1\n  dup1\n  mload\n  swap1\n  0x20\n  add\n  swap1\n  swap3\n  swap2\n  swap1\n  dup1\n  mload\n  swap1\n  0x20\n  add\n  swap1\n  swap3\n  swap2\n  swap1\n  pop\n  pop\n  pop\n    /* \"gist-e69a4d62287211e39cb91b3b65937ff5/StakedGlp.sol\":2225:2229  _glp */\n  dup4\n    /* \"gist-e69a4d62287211e39cb91b3b65937ff5/StakedGlp.sol\":2219:2222  glp */\n  0x00\n  dup1\n    /* \"gist-e69a4d62287211e39cb91b3b65937ff5/StakedGlp.sol\":2219:2229  glp = _glp */\n  0x0100\n  exp\n  dup2\n  sload\n  dup2\n  0xffffffffffffffffffffffffffffffffffffffff\n  mul\n  not\n  and\n  swap1\n  dup4\n  0xffffffffffffffffffffffffffffffffffffffff\n  and\n  mul\n  or\n  swap1\n  sstore\n  pop\n    /* \"gist-e69a4d62287211e39cb91b3b65937ff5/StakedGlp.sol\":2252:2263  _glpManager */\n  dup3\n    /* \"gist-e69a4d62287211e39cb91b3b65937ff5/StakedGlp.sol\":2239:2249  glpManager */\n  0x01\n  0x00\n    /* \"gist-e69a4d62287211e39cb91b3b65937ff5/StakedGlp.sol\":2239:2263  glpManager = _glpManager */\n  0x0100\n  exp\n  dup2\n  sload\n  dup2\n  0xffffffffffffffffffffffffffffffffffffffff\n  mul\n  not\n  and\n  swap1\n  dup4\n  0xffffffffffffffffffffffffffffffffffffffff\n  and\n  mul\n  or\n  swap1\n  sstore\n  pop\n    /* \"gist-e69a4d62287211e39cb91b3b65937ff5/StakedGlp.sol\":2292:2309  _stakedGlpTracker */\n  dup2\n    /* \"gist-e69a4d62287211e39cb91b3b65937ff5/StakedGlp.sol\":2273:2289  stakedGlpTracker */\n  0x02\n  0x00\n    /* \"gist-e69a4d62287211e39cb91b3b65937ff5/StakedGlp.sol\":2273:2309  stakedGlpTracker = _stakedGlpTracker */\n  0x0100\n  exp\n  dup2\n  sload\n  dup2\n  0xffffffffffffffffffffffffffffffffffffffff\n  mul\n  not\n  and\n  swap1\n  dup4\n  0xffffffffffffffffffffffffffffffffffffffff\n  and\n  mul\n  or\n  swap1\n  sstore\n  pop\n    /* \"gist-e69a4d62287211e39cb91b3b65937ff5/StakedGlp.sol\":2335:2349  _feeGlpTracker */\n  dup1\n    /* \"gist-e69a4d62287211e39cb91b3b65937ff5/StakedGlp.sol\":2319:2332  feeGlpTracker */\n  0x03\n  0x00\n    /* \"gist-e69a4d62287211e39cb91b3b65937ff5/StakedGlp.sol\":2319:2349  feeGlpTracker = _feeGlpTracker */\n  0x0100\n  exp\n  dup2\n  sload\n  dup2\n  0xffffffffffffffffffffffffffffffffffffffff\n  mul\n  not\n  and\n  swap1\n  dup4\n  0xffffffffffffffffffffffffffffffffffffffff\n  and\n  mul\n  or\n  swap1\n  sstore\n  pop\n    /* \"gist-e69a4d62287211e39cb91b3b65937ff5/StakedGlp.sol\":2062:2356  constructor(... */\n  pop\n  pop\n  pop\n  pop\n    /* \"gist-e69a4d62287211e39cb91b3b65937ff5/StakedGlp.sol\":1582:4666  contract StakedGlp {... */\n  dataSize(sub_0)\n  dup1\n  dataOffset(sub_0)\n  0x00\n  codecopy\n  0x00\n  return\nstop\n\nsub_0: assembly {\n        /* \"gist-e69a4d62287211e39cb91b3b65937ff5/StakedGlp.sol\":1582:4666  contract StakedGlp {... */\n      mstore(0x40, 0x80)\n      callvalue\n      dup1\n      iszero\n      tag_1\n      jumpi\n      0x00\n      dup1\n      revert\n    tag_1:\n      pop\n      jumpi(tag_2, lt(calldatasize, 0x04))\n      shr(0xe0, calldataload(0x00))\n      dup1\n      0x78a207ee\n      gt\n      tag_17\n      jumpi\n      dup1\n      0xaf394d00\n      gt\n      tag_18\n      jumpi\n      dup1\n      0xaf394d00\n      eq\n      tag_13\n      jumpi\n      dup1\n      0xdd62ed3e\n      eq\n      tag_14\n      jumpi\n      dup1\n      0xe1c363b7\n      eq\n      tag_15\n      jumpi\n      dup1\n      0xfa6db1bc\n      eq\n      tag_16\n      jumpi\n      jump(tag_2)\n    tag_18:\n      dup1\n      0x78a207ee\n      eq\n      tag_10\n      jumpi\n      dup1\n      0x95d89b41\n      eq\n      tag_11\n      jumpi\n      dup1\n      0xa9059cbb\n      eq\n      tag_12\n      jumpi\n      jump(tag_2)\n    tag_17:\n      dup1\n      0x23b872dd\n      gt\n      tag_19\n      jumpi\n      dup1\n      0x23b872dd\n      eq\n      tag_6\n      jumpi\n      dup1\n      0x313ce567\n      eq\n      tag_7\n      jumpi\n      dup1\n      0x55b6ed5c\n      eq\n      tag_8\n      jumpi\n      dup1\n      0x70a08231\n      eq\n      tag_9\n      jumpi\n      jump(tag_2)\n    tag_19:\n      dup1\n      0x06fdde03\n      eq\n      tag_3\n      jumpi\n      dup1\n      0x095ea7b3\n      eq\n      tag_4\n      jumpi\n      dup1\n      0x18160ddd\n      eq\n      tag_5\n      jumpi\n    tag_2:\n      0x00\n      dup1\n      revert\n        /* \"gist-e69a4d62287211e39cb91b3b65937ff5/StakedGlp.sol\":1640:1681  string public constant name = \"StakedGlp\" */\n    tag_3:\n      tag_20\n      tag_21\n      jump\t// in\n    tag_20:\n      mload(0x40)\n      dup1\n      dup1\n      0x20\n      add\n      dup3\n      dup2\n      sub\n      dup3\n      mstore\n      dup4\n      dup2\n      dup2\n      mload\n      dup2\n      mstore\n      0x20\n      add\n      swap2\n      pop\n      dup1\n      mload\n      swap1\n      0x20\n      add\n      swap1\n      dup1\n      dup4\n      dup4\n      0x00\n    tag_22:\n      dup4\n      dup2\n      lt\n      iszero\n      tag_24\n      jumpi\n      dup1\n      dup3\n      add\n      mload\n      dup2\n      dup5\n      add\n      mstore\n      0x20\n      dup2\n      add\n      swap1\n      pop\n      jump(tag_22)\n    tag_24:\n      pop\n      pop\n      pop\n      pop\n      swap1\n      pop\n      swap1\n      dup2\n      add\n      swap1\n      0x1f\n      and\n      dup1\n      iszero\n      tag_25\n      jumpi\n      dup1\n      dup3\n      sub\n      dup1\n      mload\n      0x01\n      dup4\n      0x20\n      sub\n      0x0100\n      exp\n      sub\n      not\n      and\n      dup2\n      mstore\n      0x20\n      add\n      swap2\n      pop\n    tag_25:\n      pop\n      swap3\n      pop\n      pop\n      pop\n      mload(0x40)\n      dup1\n      swap2\n      sub\n      swap1\n      return\n        /* \"gist-e69a4d62287211e39cb91b3b65937ff5/StakedGlp.sol\":2505:2658  function approve(address _spender, uint256 _amount) external returns (bool) {... */\n    tag_4:\n      tag_26\n      0x04\n      dup1\n      calldatasize\n      sub\n      0x40\n      dup2\n      lt\n      iszero\n      tag_27\n      jumpi\n      0x00\n      dup1\n      revert\n    tag_27:\n      dup2\n      add\n      swap1\n      dup1\n      dup1\n      calldataload\n      0xffffffffffffffffffffffffffffffffffffffff\n      and\n      swap1\n      0x20\n      add\n      swap1\n      swap3\n      swap2\n      swap1\n      dup1\n      calldataload\n      swap1\n      0x20\n      add\n      swap1\n      swap3\n      swap2\n      swap1\n      pop\n      pop\n      pop\n      tag_28\n      jump\t// in\n    tag_26:\n      mload(0x40)\n      dup1\n      dup3\n      iszero\n      iszero\n      dup2\n      mstore\n      0x20\n      add\n      swap2\n      pop\n      pop\n      mload(0x40)\n      dup1\n      swap2\n      sub\n      swap1\n      return\n        /* \"gist-e69a4d62287211e39cb91b3b65937ff5/StakedGlp.sol\":3351:3468  function totalSupply() external view returns (uint256) {... */\n    tag_5:\n      tag_29\n      tag_30\n      jump\t// in\n    tag_29:\n      mload(0x40)\n      dup1\n      dup3\n      dup2\n      mstore\n      0x20\n      add\n      swap2\n      pop\n      pop\n      mload(0x40)\n      dup1\n      swap2\n      sub\n      swap1\n      return\n        /* \"gist-e69a4d62287211e39cb91b3b65937ff5/StakedGlp.sol\":2829:3186  function transferFrom(address _sender, address _recipient, uint256 _amount) external returns (bool) {... */\n    tag_6:\n      tag_31\n      0x04\n      dup1\n      calldatasize\n      sub\n      0x60\n      dup2\n      lt\n      iszero\n      tag_32\n      jumpi\n      0x00\n      dup1\n      revert\n    tag_32:\n      dup2\n      add\n      swap1\n      dup1\n      dup1\n      calldataload\n      0xffffffffffffffffffffffffffffffffffffffff\n      and\n      swap1\n      0x20\n      add\n      swap1\n      swap3\n      swap2\n      swap1\n      dup1\n      calldataload\n      0xffffffffffffffffffffffffffffffffffffffff\n      and\n      swap1\n      0x20\n      add\n      swap1\n      swap3\n      swap2\n      swap1\n      dup1\n      calldataload\n      swap1\n      0x20\n      add\n      swap1\n      swap3\n      swap2\n      swap1\n      pop\n      pop\n      pop\n      tag_33\n      jump\t// in\n    tag_31:\n      mload(0x40)\n      dup1\n      dup3\n      iszero\n      iszero\n      dup2\n      mstore\n      0x20\n      add\n      swap2\n      pop\n      pop\n      mload(0x40)\n      dup1\n      swap2\n      sub\n      swap1\n      return\n        /* \"gist-e69a4d62287211e39cb91b3b65937ff5/StakedGlp.sol\":1731:1766  uint8 public constant decimals = 18 */\n    tag_7:\n      tag_34\n      tag_35\n      jump\t// in\n    tag_34:\n      mload(0x40)\n      dup1\n      dup3\n      0xff\n      and\n      dup2\n      mstore\n      0x20\n      add\n      swap2\n      pop\n      pop\n      mload(0x40)\n      dup1\n      swap2\n      sub\n      swap1\n      return\n        /* \"gist-e69a4d62287211e39cb91b3b65937ff5/StakedGlp.sol\":1904:1971  mapping (address => mapping (address => uint256)) public allowances */\n    tag_8:\n      tag_36\n      0x04\n      dup1\n      calldatasize\n      sub\n      0x40\n      dup2\n      lt\n      iszero\n      tag_37\n      jumpi\n      0x00\n      dup1\n      revert\n    tag_37:\n      dup2\n      add\n      swap1\n      dup1\n      dup1\n      calldataload\n      0xffffffffffffffffffffffffffffffffffffffff\n      and\n      swap1\n      0x20\n      add\n      swap1\n      swap3\n      swap2\n      swap1\n      dup1\n      calldataload\n      0xffffffffffffffffffffffffffffffffffffffff\n      and\n      swap1\n      0x20\n      add\n      swap1\n      swap3\n      swap2\n      swap1\n      pop\n      pop\n      pop\n      tag_38\n      jump\t// in\n    tag_36:\n      mload(0x40)\n      dup1\n      dup3\n      dup2\n      mstore\n      0x20\n      add\n      swap2\n      pop\n      pop\n      mload(0x40)\n      dup1\n      swap2\n      sub\n      swap1\n      return\n        /* \"gist-e69a4d62287211e39cb91b3b65937ff5/StakedGlp.sol\":3192:3345  function balanceOf(address _account) external view returns (uint256) {... */\n    tag_9:\n      tag_39\n      0x04\n      dup1\n      calldatasize\n      sub\n      0x20\n      dup2\n      lt\n      iszero\n      tag_40\n      jumpi\n      0x00\n      dup1\n      revert\n    tag_40:\n      dup2\n      add\n      swap1\n      dup1\n      dup1\n      calldataload\n      0xffffffffffffffffffffffffffffffffffffffff\n      and\n      swap1\n      0x20\n      add\n      swap1\n      swap3\n      swap2\n      swap1\n      pop\n      pop\n      pop\n      tag_41\n      jump\t// in\n    tag_39:\n      mload(0x40)\n      dup1\n      dup3\n      dup2\n      mstore\n      0x20\n      add\n      swap2\n      pop\n      pop\n      mload(0x40)\n      dup1\n      swap2\n      sub\n      swap1\n      return\n        /* \"gist-e69a4d62287211e39cb91b3b65937ff5/StakedGlp.sol\":1773:1791  address public glp */\n    tag_10:\n      tag_42\n      tag_43\n      jump\t// in\n    tag_42:\n      mload(0x40)\n      dup1\n      dup3\n      0xffffffffffffffffffffffffffffffffffffffff\n      and\n      dup2\n      mstore\n      0x20\n      add\n      swap2\n      pop\n      pop\n      mload(0x40)\n      dup1\n      swap2\n      sub\n      swap1\n      return\n        /* \"gist-e69a4d62287211e39cb91b3b65937ff5/StakedGlp.sol\":1687:1725  string public constant symbol = \"sGLP\" */\n    tag_11:\n      tag_44\n      tag_45\n      jump\t// in\n    tag_44:\n      mload(0x40)\n      dup1\n      dup1\n      0x20\n      add\n      dup3\n      dup2\n      sub\n      dup3\n      mstore\n      dup4\n      dup2\n      dup2\n      mload\n      dup2\n      mstore\n      0x20\n      add\n      swap2\n      pop\n      dup1\n      mload\n      swap1\n      0x20\n      add\n      swap1\n      dup1\n      dup4\n      dup4\n      0x00\n    tag_46:\n      dup4\n      dup2\n      lt\n      iszero\n      tag_48\n      jumpi\n      dup1\n      dup3\n      add\n      mload\n      dup2\n      dup5\n      add\n      mstore\n      0x20\n      dup2\n      add\n      swap1\n      pop\n      jump(tag_46)\n    tag_48:\n      pop\n      pop\n      pop\n      pop\n      swap1\n      pop\n      swap1\n      dup2\n      add\n      swap1\n      0x1f\n      and\n      dup1\n      iszero\n      tag_49\n      jumpi\n      dup1\n      dup3\n      sub\n      dup1\n      mload\n      0x01\n      dup4\n      0x20\n      sub\n      0x0100\n      exp\n      sub\n      not\n      and\n      dup2\n      mstore\n      0x20\n      add\n      swap2\n      pop\n    tag_49:\n      pop\n      swap3\n      pop\n      pop\n      pop\n      mload(0x40)\n      dup1\n      swap2\n      sub\n      swap1\n      return\n        /* \"gist-e69a4d62287211e39cb91b3b65937ff5/StakedGlp.sol\":2664:2823  function transfer(address _recipient, uint256 _amount) external returns (bool) {... */\n    tag_12:\n      tag_50\n      0x04\n      dup1\n      calldatasize\n      sub\n      0x40\n      dup2\n      lt\n      iszero\n      tag_51\n      jumpi\n      0x00\n      dup1\n      revert\n    tag_51:\n      dup2\n      add\n      swap1\n      dup1\n      dup1\n      calldataload\n      0xffffffffffffffffffffffffffffffffffffffff\n      and\n      swap1\n      0x20\n      add\n      swap1\n      swap3\n      swap2\n      swap1\n      dup1\n      calldataload\n      swap1\n      0x20\n      add\n      swap1\n      swap3\n      swap2\n      swap1\n      pop\n      pop\n      pop\n      tag_52\n      jump\t// in\n    tag_50:\n      mload(0x40)\n      dup1\n      dup3\n      iszero\n      iszero\n      dup2\n      mstore\n      0x20\n      add\n      swap2\n      pop\n      pop\n      mload(0x40)\n      dup1\n      swap2\n      sub\n      swap1\n      return\n        /* \"gist-e69a4d62287211e39cb91b3b65937ff5/StakedGlp.sol\":1832:1863  address public stakedGlpTracker */\n    tag_13:\n      tag_53\n      tag_54\n      jump\t// in\n    tag_53:\n      mload(0x40)\n      dup1\n      dup3\n      0xffffffffffffffffffffffffffffffffffffffff\n      and\n      dup2\n      mstore\n      0x20\n      add\n      swap2\n      pop\n      pop\n      mload(0x40)\n      dup1\n      swap2\n      sub\n      swap1\n      return\n        /* \"gist-e69a4d62287211e39cb91b3b65937ff5/StakedGlp.sol\":2362:2499  function allowance(address _owner, address _spender) external view returns (uint256) {... */\n    tag_14:\n      tag_55\n      0x04\n      dup1\n      calldatasize\n      sub\n      0x40\n      dup2\n      lt\n      iszero\n      tag_56\n      jumpi\n      0x00\n      dup1\n      revert\n    tag_56:\n      dup2\n      add\n      swap1\n      dup1\n      dup1\n      calldataload\n      0xffffffffffffffffffffffffffffffffffffffff\n      and\n      swap1\n      0x20\n      add\n      swap1\n      swap3\n      swap2\n      swap1\n      dup1\n      calldataload\n      0xffffffffffffffffffffffffffffffffffffffff\n      and\n      swap1\n      0x20\n      add\n      swap1\n      swap3\n      swap2\n      swap1\n      pop\n      pop\n      pop\n      tag_57\n      jump\t// in\n    tag_55:\n      mload(0x40)\n      dup1\n      dup3\n      dup2\n      mstore\n      0x20\n      add\n      swap2\n      pop\n      pop\n      mload(0x40)\n      dup1\n      swap2\n      sub\n      swap1\n      return\n        /* \"gist-e69a4d62287211e39cb91b3b65937ff5/StakedGlp.sol\":1869:1897  address public feeGlpTracker */\n    tag_15:\n      tag_58\n      tag_59\n      jump\t// in\n    tag_58:\n      mload(0x40)\n      dup1\n      dup3\n      0xffffffffffffffffffffffffffffffffffffffff\n      and\n      dup2\n      mstore\n      0x20\n      add\n      swap2\n      pop\n      pop\n      mload(0x40)\n      dup1\n      swap2\n      sub\n      swap1\n      return\n        /* \"gist-e69a4d62287211e39cb91b3b65937ff5/StakedGlp.sol\":1797:1826  IGlpManager public glpManager */\n    tag_16:\n      tag_60\n      tag_61\n      jump\t// in\n    tag_60:\n      mload(0x40)\n      dup1\n      dup3\n      0xffffffffffffffffffffffffffffffffffffffff\n      and\n      dup2\n      mstore\n      0x20\n      add\n      swap2\n      pop\n      pop\n      mload(0x40)\n      dup1\n      swap2\n      sub\n      swap1\n      return\n        /* \"gist-e69a4d62287211e39cb91b3b65937ff5/StakedGlp.sol\":1640:1681  string public constant name = \"StakedGlp\" */\n    tag_21:\n      mload(0x40)\n      dup1\n      0x40\n      add\n      0x40\n      mstore\n      dup1\n      0x09\n      dup2\n      mstore\n      0x20\n      add\n      0x5374616b6564476c700000000000000000000000000000000000000000000000\n      dup2\n      mstore\n      pop\n      dup2\n      jump\t// out\n        /* \"gist-e69a4d62287211e39cb91b3b65937ff5/StakedGlp.sol\":2505:2658  function approve(address _spender, uint256 _amount) external returns (bool) {... */\n    tag_28:\n        /* \"gist-e69a4d62287211e39cb91b3b65937ff5/StakedGlp.sol\":2575:2579  bool */\n      0x00\n        /* \"gist-e69a4d62287211e39cb91b3b65937ff5/StakedGlp.sol\":2591:2630  _approve(msg.sender, _spender, _amount) */\n      tag_63\n        /* \"gist-e69a4d62287211e39cb91b3b65937ff5/StakedGlp.sol\":2600:2610  msg.sender */\n      caller\n        /* \"gist-e69a4d62287211e39cb91b3b65937ff5/StakedGlp.sol\":2612:2620  _spender */\n      dup5\n        /* \"gist-e69a4d62287211e39cb91b3b65937ff5/StakedGlp.sol\":2622:2629  _amount */\n      dup5\n        /* \"gist-e69a4d62287211e39cb91b3b65937ff5/StakedGlp.sol\":2591:2599  _approve */\n      tag_64\n        /* \"gist-e69a4d62287211e39cb91b3b65937ff5/StakedGlp.sol\":2591:2630  _approve(msg.sender, _spender, _amount) */\n      jump\t// in\n    tag_63:\n        /* \"gist-e69a4d62287211e39cb91b3b65937ff5/StakedGlp.sol\":2647:2651  true */\n      0x01\n        /* \"gist-e69a4d62287211e39cb91b3b65937ff5/StakedGlp.sol\":2640:2651  return true */\n      swap1\n      pop\n        /* \"gist-e69a4d62287211e39cb91b3b65937ff5/StakedGlp.sol\":2505:2658  function approve(address _spender, uint256 _amount) external returns (bool) {... */\n      swap3\n      swap2\n      pop\n      pop\n      jump\t// out\n        /* \"gist-e69a4d62287211e39cb91b3b65937ff5/StakedGlp.sol\":3351:3468  function totalSupply() external view returns (uint256) {... */\n    tag_30:\n        /* \"gist-e69a4d62287211e39cb91b3b65937ff5/StakedGlp.sol\":3397:3404  uint256 */\n      0x00\n        /* \"gist-e69a4d62287211e39cb91b3b65937ff5/StakedGlp.sol\":3430:3446  stakedGlpTracker */\n      0x02\n      0x00\n      swap1\n      sload\n      swap1\n      0x0100\n      exp\n      swap1\n      div\n      0xffffffffffffffffffffffffffffffffffffffff\n      and\n        /* \"gist-e69a4d62287211e39cb91b3b65937ff5/StakedGlp.sol\":3423:3459  IERC20(stakedGlpTracker).totalSupply */\n      0xffffffffffffffffffffffffffffffffffffffff\n      and\n      0x18160ddd\n        /* \"gist-e69a4d62287211e39cb91b3b65937ff5/StakedGlp.sol\":3423:3461  IERC20(stakedGlpTracker).totalSupply() */\n      mload(0x40)\n      dup2\n      0xffffffff\n      and\n      0xe0\n      shl\n      dup2\n      mstore\n      0x04\n      add\n      0x20\n      mload(0x40)\n      dup1\n      dup4\n      sub\n      dup2\n      dup7\n      dup1\n      extcodesize\n      iszero\n      dup1\n      iszero\n      tag_66\n      jumpi\n      0x00\n      dup1\n      revert\n    tag_66:\n      pop\n      gas\n      staticcall\n      iszero\n      dup1\n      iszero\n      tag_68\n      jumpi\n      returndatasize\n      0x00\n      dup1\n      returndatacopy\n      revert(0x00, returndatasize)\n    tag_68:\n      pop\n      pop\n      pop\n      pop\n      mload(0x40)\n      returndatasize\n      0x20\n      dup2\n      lt\n      iszero\n      tag_69\n      jumpi\n      0x00\n      dup1\n      revert\n    tag_69:\n      dup2\n      add\n      swap1\n      dup1\n      dup1\n      mload\n      swap1\n      0x20\n      add\n      swap1\n      swap3\n      swap2\n      swap1\n      pop\n      pop\n      pop\n        /* \"gist-e69a4d62287211e39cb91b3b65937ff5/StakedGlp.sol\":3416:3461  return IERC20(stakedGlpTracker).totalSupply() */\n      swap1\n      pop\n        /* \"gist-e69a4d62287211e39cb91b3b65937ff5/StakedGlp.sol\":3351:3468  function totalSupply() external view returns (uint256) {... */\n      swap1\n      jump\t// out\n        /* \"gist-e69a4d62287211e39cb91b3b65937ff5/StakedGlp.sol\":2829:3186  function transferFrom(address _sender, address _recipient, uint256 _amount) external returns (bool) {... */\n    tag_33:\n        /* \"gist-e69a4d62287211e39cb91b3b65937ff5/StakedGlp.sol\":2923:2927  bool */\n      0x00\n        /* \"gist-e69a4d62287211e39cb91b3b65937ff5/StakedGlp.sol\":2939:2960  uint256 nextAllowance */\n      dup1\n        /* \"gist-e69a4d62287211e39cb91b3b65937ff5/StakedGlp.sol\":2963:3055  allowances[_sender][msg.sender].sub(_amount, \"StakedGlp: transfer amount exceeds allowance\") */\n      tag_71\n        /* \"gist-e69a4d62287211e39cb91b3b65937ff5/StakedGlp.sol\":2999:3006  _amount */\n      dup4\n        /* \"gist-e69a4d62287211e39cb91b3b65937ff5/StakedGlp.sol\":2963:3055  allowances[_sender][msg.sender].sub(_amount, \"StakedGlp: transfer amount exceeds allowance\") */\n      mload(0x40)\n      dup1\n      0x60\n      add\n      0x40\n      mstore\n      dup1\n      0x2c\n      dup2\n      mstore\n      0x20\n      add\n      data_ba113124c0478f50d9c7f1b214ac98e6fc6876ceaa580cc9c40a4d35aa2ac47f\n      0x2c\n      swap2\n      codecopy\n        /* \"gist-e69a4d62287211e39cb91b3b65937ff5/StakedGlp.sol\":2963:2973  allowances */\n      0x04\n        /* \"gist-e69a4d62287211e39cb91b3b65937ff5/StakedGlp.sol\":2963:2982  allowances[_sender] */\n      0x00\n        /* \"gist-e69a4d62287211e39cb91b3b65937ff5/StakedGlp.sol\":2974:2981  _sender */\n      dup10\n        /* \"gist-e69a4d62287211e39cb91b3b65937ff5/StakedGlp.sol\":2963:2982  allowances[_sender] */\n      0xffffffffffffffffffffffffffffffffffffffff\n      and\n      0xffffffffffffffffffffffffffffffffffffffff\n      and\n      dup2\n      mstore\n      0x20\n      add\n      swap1\n      dup2\n      mstore\n      0x20\n      add\n      0x00\n      keccak256\n        /* \"gist-e69a4d62287211e39cb91b3b65937ff5/StakedGlp.sol\":2963:2994  allowances[_sender][msg.sender] */\n      0x00\n        /* \"gist-e69a4d62287211e39cb91b3b65937ff5/StakedGlp.sol\":2983:2993  msg.sender */\n      caller\n        /* \"gist-e69a4d62287211e39cb91b3b65937ff5/StakedGlp.sol\":2963:2994  allowances[_sender][msg.sender] */\n      0xffffffffffffffffffffffffffffffffffffffff\n      and\n      0xffffffffffffffffffffffffffffffffffffffff\n      and\n      dup2\n      mstore\n      0x20\n      add\n      swap1\n      dup2\n      mstore\n      0x20\n      add\n      0x00\n      keccak256\n      sload\n        /* \"gist-e69a4d62287211e39cb91b3b65937ff5/StakedGlp.sol\":2963:2998  allowances[_sender][msg.sender].sub */\n      tag_72\n      swap1\n        /* \"gist-e69a4d62287211e39cb91b3b65937ff5/StakedGlp.sol\":2963:3055  allowances[_sender][msg.sender].sub(_amount, \"StakedGlp: transfer amount exceeds allowance\") */\n      swap3\n      swap2\n      swap1\n      0xffffffff\n      and\n      jump\t// in\n    tag_71:\n        /* \"gist-e69a4d62287211e39cb91b3b65937ff5/StakedGlp.sol\":2939:3055  uint256 nextAllowance = allowances[_sender][msg.sender].sub(_amount, \"StakedGlp: transfer amount exceeds allowance\") */\n      swap1\n      pop\n        /* \"gist-e69a4d62287211e39cb91b3b65937ff5/StakedGlp.sol\":3065:3109  _approve(_sender, msg.sender, nextAllowance) */\n      tag_73\n        /* \"gist-e69a4d62287211e39cb91b3b65937ff5/StakedGlp.sol\":3074:3081  _sender */\n      dup6\n        /* \"gist-e69a4d62287211e39cb91b3b65937ff5/StakedGlp.sol\":3083:3093  msg.sender */\n      caller\n        /* \"gist-e69a4d62287211e39cb91b3b65937ff5/StakedGlp.sol\":3095:3108  nextAllowance */\n      dup4\n        /* \"gist-e69a4d62287211e39cb91b3b65937ff5/StakedGlp.sol\":3065:3073  _approve */\n      tag_64\n        /* \"gist-e69a4d62287211e39cb91b3b65937ff5/StakedGlp.sol\":3065:3109  _approve(_sender, msg.sender, nextAllowance) */\n      jump\t// in\n    tag_73:\n        /* \"gist-e69a4d62287211e39cb91b3b65937ff5/StakedGlp.sol\":3119:3158  _transfer(_sender, _recipient, _amount) */\n      tag_74\n        /* \"gist-e69a4d62287211e39cb91b3b65937ff5/StakedGlp.sol\":3129:3136  _sender */\n      dup6\n        /* \"gist-e69a4d62287211e39cb91b3b65937ff5/StakedGlp.sol\":3138:3148  _recipient */\n      dup6\n        /* \"gist-e69a4d62287211e39cb91b3b65937ff5/StakedGlp.sol\":3150:3157  _amount */\n      dup6\n        /* \"gist-e69a4d62287211e39cb91b3b65937ff5/StakedGlp.sol\":3119:3128  _transfer */\n      tag_75\n        /* \"gist-e69a4d62287211e39cb91b3b65937ff5/StakedGlp.sol\":3119:3158  _transfer(_sender, _recipient, _amount) */\n      jump\t// in\n    tag_74:\n        /* \"gist-e69a4d62287211e39cb91b3b65937ff5/StakedGlp.sol\":3175:3179  true */\n      0x01\n        /* \"gist-e69a4d62287211e39cb91b3b65937ff5/StakedGlp.sol\":3168:3179  return true */\n      swap2\n      pop\n      pop\n        /* \"gist-e69a4d62287211e39cb91b3b65937ff5/StakedGlp.sol\":2829:3186  function transferFrom(address _sender, address _recipient, uint256 _amount) external returns (bool) {... */\n      swap4\n      swap3\n      pop\n      pop\n      pop\n      jump\t// out\n        /* \"gist-e69a4d62287211e39cb91b3b65937ff5/StakedGlp.sol\":1731:1766  uint8 public constant decimals = 18 */\n    tag_35:\n        /* \"gist-e69a4d62287211e39cb91b3b65937ff5/StakedGlp.sol\":1764:1766  18 */\n      0x12\n        /* \"gist-e69a4d62287211e39cb91b3b65937ff5/StakedGlp.sol\":1731:1766  uint8 public constant decimals = 18 */\n      dup2\n      jump\t// out\n        /* \"gist-e69a4d62287211e39cb91b3b65937ff5/StakedGlp.sol\":1904:1971  mapping (address => mapping (address => uint256)) public allowances */\n    tag_38:\n      mstore(0x20, 0x04)\n      dup2\n      0x00\n      mstore\n      mstore(0x20, keccak256(0x00, 0x40))\n      dup1\n      0x00\n      mstore\n      keccak256(0x00, 0x40)\n      0x00\n      swap2\n      pop\n      swap2\n      pop\n      pop\n      sload\n      dup2\n      jump\t// out\n        /* \"gist-e69a4d62287211e39cb91b3b65937ff5/StakedGlp.sol\":3192:3345  function balanceOf(address _account) external view returns (uint256) {... */\n    tag_41:\n        /* \"gist-e69a4d62287211e39cb91b3b65937ff5/StakedGlp.sol\":3252:3259  uint256 */\n      0x00\n        /* \"gist-e69a4d62287211e39cb91b3b65937ff5/StakedGlp.sol\":3293:3306  feeGlpTracker */\n      0x03\n      0x00\n      swap1\n      sload\n      swap1\n      0x0100\n      exp\n      swap1\n      div\n      0xffffffffffffffffffffffffffffffffffffffff\n      and\n        /* \"gist-e69a4d62287211e39cb91b3b65937ff5/StakedGlp.sol\":3278:3323  IRewardTracker(feeGlpTracker).depositBalances */\n      0xffffffffffffffffffffffffffffffffffffffff\n      and\n      0xf5d9d63e\n        /* \"gist-e69a4d62287211e39cb91b3b65937ff5/StakedGlp.sol\":3324:3332  _account */\n      dup4\n        /* \"gist-e69a4d62287211e39cb91b3b65937ff5/StakedGlp.sol\":3334:3337  glp */\n      0x00\n      dup1\n      sload\n      swap1\n      0x0100\n      exp\n      swap1\n      div\n      0xffffffffffffffffffffffffffffffffffffffff\n      and\n        /* \"gist-e69a4d62287211e39cb91b3b65937ff5/StakedGlp.sol\":3278:3338  IRewardTracker(feeGlpTracker).depositBalances(_account, glp) */\n      mload(0x40)\n      dup4\n      0xffffffff\n      and\n      0xe0\n      shl\n      dup2\n      mstore\n      0x04\n      add\n      dup1\n      dup4\n      0xffffffffffffffffffffffffffffffffffffffff\n      and\n      dup2\n      mstore\n      0x20\n      add\n      dup3\n      0xffffffffffffffffffffffffffffffffffffffff\n      and\n      dup2\n      mstore\n      0x20\n      add\n      swap3\n      pop\n      pop\n      pop\n      0x20\n      mload(0x40)\n      dup1\n      dup4\n      sub\n      dup2\n      dup7\n      dup1\n      extcodesize\n      iszero\n      dup1\n      iszero\n      tag_77\n      jumpi\n      0x00\n      dup1\n      revert\n    tag_77:\n      pop\n      gas\n      staticcall\n      iszero\n      dup1\n      iszero\n      tag_79\n      jumpi\n      returndatasize\n      0x00\n      dup1\n      returndatacopy\n      revert(0x00, returndatasize)\n    tag_79:\n      pop\n      pop\n      pop\n      pop\n      mload(0x40)\n      returndatasize\n      0x20\n      dup2\n      lt\n      iszero\n      tag_80\n      jumpi\n      0x00\n      dup1\n      revert\n    tag_80:\n      dup2\n      add\n      swap1\n      dup1\n      dup1\n      mload\n      swap1\n      0x20\n      add\n      swap1\n      swap3\n      swap2\n      swap1\n      pop\n      pop\n      pop\n        /* \"gist-e69a4d62287211e39cb91b3b65937ff5/StakedGlp.sol\":3271:3338  return IRewardTracker(feeGlpTracker).depositBalances(_account, glp) */\n      swap1\n      pop\n        /* \"gist-e69a4d62287211e39cb91b3b65937ff5/StakedGlp.sol\":3192:3345  function balanceOf(address _account) external view returns (uint256) {... */\n      swap2\n      swap1\n      pop\n      jump\t// out\n        /* \"gist-e69a4d62287211e39cb91b3b65937ff5/StakedGlp.sol\":1773:1791  address public glp */\n    tag_43:\n      0x00\n      dup1\n      sload\n      swap1\n      0x0100\n      exp\n      swap1\n      div\n      0xffffffffffffffffffffffffffffffffffffffff\n      and\n      dup2\n      jump\t// out\n        /* \"gist-e69a4d62287211e39cb91b3b65937ff5/StakedGlp.sol\":1687:1725  string public constant symbol = \"sGLP\" */\n    tag_45:\n      mload(0x40)\n      dup1\n      0x40\n      add\n      0x40\n      mstore\n      dup1\n      0x04\n      dup2\n      mstore\n      0x20\n      add\n      0x73474c5000000000000000000000000000000000000000000000000000000000\n      dup2\n      mstore\n      pop\n      dup2\n      jump\t// out\n        /* \"gist-e69a4d62287211e39cb91b3b65937ff5/StakedGlp.sol\":2664:2823  function transfer(address _recipient, uint256 _amount) external returns (bool) {... */\n    tag_52:\n        /* \"gist-e69a4d62287211e39cb91b3b65937ff5/StakedGlp.sol\":2737:2741  bool */\n      0x00\n        /* \"gist-e69a4d62287211e39cb91b3b65937ff5/StakedGlp.sol\":2753:2795  _transfer(msg.sender, _recipient, _amount) */\n      tag_82\n        /* \"gist-e69a4d62287211e39cb91b3b65937ff5/StakedGlp.sol\":2763:2773  msg.sender */\n      caller\n        /* \"gist-e69a4d62287211e39cb91b3b65937ff5/StakedGlp.sol\":2775:2785  _recipient */\n      dup5\n        /* \"gist-e69a4d62287211e39cb91b3b65937ff5/StakedGlp.sol\":2787:2794  _amount */\n      dup5\n        /* \"gist-e69a4d62287211e39cb91b3b65937ff5/StakedGlp.sol\":2753:2762  _transfer */\n      tag_75\n        /* \"gist-e69a4d62287211e39cb91b3b65937ff5/StakedGlp.sol\":2753:2795  _transfer(msg.sender, _recipient, _amount) */\n      jump\t// in\n    tag_82:\n        /* \"gist-e69a4d62287211e39cb91b3b65937ff5/StakedGlp.sol\":2812:2816  true */\n      0x01\n        /* \"gist-e69a4d62287211e39cb91b3b65937ff5/StakedGlp.sol\":2805:2816  return true */\n      swap1\n      pop\n        /* \"gist-e69a4d62287211e39cb91b3b65937ff5/StakedGlp.sol\":2664:2823  function transfer(address _recipient, uint256 _amount) external returns (bool) {... */\n      swap3\n      swap2\n      pop\n      pop\n      jump\t// out\n        /* \"gist-e69a4d62287211e39cb91b3b65937ff5/StakedGlp.sol\":1832:1863  address public stakedGlpTracker */\n    tag_54:\n      0x02\n      0x00\n      swap1\n      sload\n      swap1\n      0x0100\n      exp\n      swap1\n      div\n      0xffffffffffffffffffffffffffffffffffffffff\n      and\n      dup2\n      jump\t// out\n        /* \"gist-e69a4d62287211e39cb91b3b65937ff5/StakedGlp.sol\":2362:2499  function allowance(address _owner, address _spender) external view returns (uint256) {... */\n    tag_57:\n        /* \"gist-e69a4d62287211e39cb91b3b65937ff5/StakedGlp.sol\":2438:2445  uint256 */\n      0x00\n        /* \"gist-e69a4d62287211e39cb91b3b65937ff5/StakedGlp.sol\":2464:2474  allowances */\n      0x04\n        /* \"gist-e69a4d62287211e39cb91b3b65937ff5/StakedGlp.sol\":2464:2482  allowances[_owner] */\n      0x00\n        /* \"gist-e69a4d62287211e39cb91b3b65937ff5/StakedGlp.sol\":2475:2481  _owner */\n      dup5\n        /* \"gist-e69a4d62287211e39cb91b3b65937ff5/StakedGlp.sol\":2464:2482  allowances[_owner] */\n      0xffffffffffffffffffffffffffffffffffffffff\n      and\n      0xffffffffffffffffffffffffffffffffffffffff\n      and\n      dup2\n      mstore\n      0x20\n      add\n      swap1\n      dup2\n      mstore\n      0x20\n      add\n      0x00\n      keccak256\n        /* \"gist-e69a4d62287211e39cb91b3b65937ff5/StakedGlp.sol\":2464:2492  allowances[_owner][_spender] */\n      0x00\n        /* \"gist-e69a4d62287211e39cb91b3b65937ff5/StakedGlp.sol\":2483:2491  _spender */\n      dup4\n        /* \"gist-e69a4d62287211e39cb91b3b65937ff5/StakedGlp.sol\":2464:2492  allowances[_owner][_spender] */\n      0xffffffffffffffffffffffffffffffffffffffff\n      and\n      0xffffffffffffffffffffffffffffffffffffffff\n      and\n      dup2\n      mstore\n      0x20\n      add\n      swap1\n      dup2\n      mstore\n      0x20\n      add\n      0x00\n      keccak256\n      sload\n        /* \"gist-e69a4d62287211e39cb91b3b65937ff5/StakedGlp.sol\":2457:2492  return allowances[_owner][_spender] */\n      swap1\n      pop\n        /* \"gist-e69a4d62287211e39cb91b3b65937ff5/StakedGlp.sol\":2362:2499  function allowance(address _owner, address _spender) external view returns (uint256) {... */\n      swap3\n      swap2\n      pop\n      pop\n      jump\t// out\n        /* \"gist-e69a4d62287211e39cb91b3b65937ff5/StakedGlp.sol\":1869:1897  address public feeGlpTracker */\n    tag_59:\n      0x03\n      0x00\n      swap1\n      sload\n      swap1\n      0x0100\n      exp\n      swap1\n      div\n      0xffffffffffffffffffffffffffffffffffffffff\n      and\n      dup2\n      jump\t// out\n        /* \"gist-e69a4d62287211e39cb91b3b65937ff5/StakedGlp.sol\":1797:1826  IGlpManager public glpManager */\n    tag_61:\n      0x01\n      0x00\n      swap1\n      sload\n      swap1\n      0x0100\n      exp\n      swap1\n      div\n      0xffffffffffffffffffffffffffffffffffffffff\n      and\n      dup2\n      jump\t// out\n        /* \"gist-e69a4d62287211e39cb91b3b65937ff5/StakedGlp.sol\":3474:3824  function _approve(address _owner, address _spender, uint256 _amount) private {... */\n    tag_64:\n        /* \"gist-e69a4d62287211e39cb91b3b65937ff5/StakedGlp.sol\":3587:3588  0 */\n      0x00\n        /* \"gist-e69a4d62287211e39cb91b3b65937ff5/StakedGlp.sol\":3569:3589  _owner != address(0) */\n      0xffffffffffffffffffffffffffffffffffffffff\n      and\n        /* \"gist-e69a4d62287211e39cb91b3b65937ff5/StakedGlp.sol\":3569:3575  _owner */\n      dup4\n        /* \"gist-e69a4d62287211e39cb91b3b65937ff5/StakedGlp.sol\":3569:3589  _owner != address(0) */\n      0xffffffffffffffffffffffffffffffffffffffff\n      and\n      eq\n      iszero\n        /* \"gist-e69a4d62287211e39cb91b3b65937ff5/StakedGlp.sol\":3561:3634  require(_owner != address(0), \"StakedGlp: approve from the zero address\") */\n      tag_85\n      jumpi\n      mload(0x40)\n      0x08c379a000000000000000000000000000000000000000000000000000000000\n      dup2\n      mstore\n      0x04\n      add\n      dup1\n      dup1\n      0x20\n      add\n      dup3\n      dup2\n      sub\n      dup3\n      mstore\n      0x28\n      dup2\n      mstore\n      0x20\n      add\n      dup1\n      data_62bc4531f76cf9b5c8e85ff95071b903d80067837014151dab496bcff6d909ed\n      0x28\n      swap2\n      codecopy\n      0x40\n      add\n      swap2\n      pop\n      pop\n      mload(0x40)\n      dup1\n      swap2\n      sub\n      swap1\n      revert\n    tag_85:\n        /* \"gist-e69a4d62287211e39cb91b3b65937ff5/StakedGlp.sol\":3672:3673  0 */\n      0x00\n        /* \"gist-e69a4d62287211e39cb91b3b65937ff5/StakedGlp.sol\":3652:3674  _spender != address(0) */\n      0xffffffffffffffffffffffffffffffffffffffff\n      and\n        /* \"gist-e69a4d62287211e39cb91b3b65937ff5/StakedGlp.sol\":3652:3660  _spender */\n      dup3\n        /* \"gist-e69a4d62287211e39cb91b3b65937ff5/StakedGlp.sol\":3652:3674  _spender != address(0) */\n      0xffffffffffffffffffffffffffffffffffffffff\n      and\n      eq\n      iszero\n        /* \"gist-e69a4d62287211e39cb91b3b65937ff5/StakedGlp.sol\":3644:3717  require(_spender != address(0), \"StakedGlp: approve to the zero address\") */\n      tag_86\n      jumpi\n      mload(0x40)\n      0x08c379a000000000000000000000000000000000000000000000000000000000\n      dup2\n      mstore\n      0x04\n      add\n      dup1\n      dup1\n      0x20\n      add\n      dup3\n      dup2\n      sub\n      dup3\n      mstore\n      0x26\n      dup2\n      mstore\n      0x20\n      add\n      dup1\n      data_63eb773bac5cb8f972fef43c74723e7ad02f1f2a4441d8ee3654ab7581be14b9\n      0x26\n      swap2\n      codecopy\n      0x40\n      add\n      swap2\n      pop\n      pop\n      mload(0x40)\n      dup1\n      swap2\n      sub\n      swap1\n      revert\n    tag_86:\n        /* \"gist-e69a4d62287211e39cb91b3b65937ff5/StakedGlp.sol\":3759:3766  _amount */\n      dup1\n        /* \"gist-e69a4d62287211e39cb91b3b65937ff5/StakedGlp.sol\":3728:3738  allowances */\n      0x04\n        /* \"gist-e69a4d62287211e39cb91b3b65937ff5/StakedGlp.sol\":3728:3746  allowances[_owner] */\n      0x00\n        /* \"gist-e69a4d62287211e39cb91b3b65937ff5/StakedGlp.sol\":3739:3745  _owner */\n      dup6\n        /* \"gist-e69a4d62287211e39cb91b3b65937ff5/StakedGlp.sol\":3728:3746  allowances[_owner] */\n      0xffffffffffffffffffffffffffffffffffffffff\n      and\n      0xffffffffffffffffffffffffffffffffffffffff\n      and\n      dup2\n      mstore\n      0x20\n      add\n      swap1\n      dup2\n      mstore\n      0x20\n      add\n      0x00\n      keccak256\n        /* \"gist-e69a4d62287211e39cb91b3b65937ff5/StakedGlp.sol\":3728:3756  allowances[_owner][_spender] */\n      0x00\n        /* \"gist-e69a4d62287211e39cb91b3b65937ff5/StakedGlp.sol\":3747:3755  _spender */\n      dup5\n        /* \"gist-e69a4d62287211e39cb91b3b65937ff5/StakedGlp.sol\":3728:3756  allowances[_owner][_spender] */\n      0xffffffffffffffffffffffffffffffffffffffff\n      and\n      0xffffffffffffffffffffffffffffffffffffffff\n      and\n      dup2\n      mstore\n      0x20\n      add\n      swap1\n      dup2\n      mstore\n      0x20\n      add\n      0x00\n      keccak256\n        /* \"gist-e69a4d62287211e39cb91b3b65937ff5/StakedGlp.sol\":3728:3766  allowances[_owner][_spender] = _amount */\n      dup2\n      swap1\n      sstore\n      pop\n        /* \"gist-e69a4d62287211e39cb91b3b65937ff5/StakedGlp.sol\":3799:3807  _spender */\n      dup2\n        /* \"gist-e69a4d62287211e39cb91b3b65937ff5/StakedGlp.sol\":3782:3817  Approval(_owner, _spender, _amount) */\n      0xffffffffffffffffffffffffffffffffffffffff\n      and\n        /* \"gist-e69a4d62287211e39cb91b3b65937ff5/StakedGlp.sol\":3791:3797  _owner */\n      dup4\n        /* \"gist-e69a4d62287211e39cb91b3b65937ff5/StakedGlp.sol\":3782:3817  Approval(_owner, _spender, _amount) */\n      0xffffffffffffffffffffffffffffffffffffffff\n      and\n      0x8c5be1e5ebec7d5bd14f71427d1e84f3dd0314c0f7b2291e5b200ac8c7c3b925\n        /* \"gist-e69a4d62287211e39cb91b3b65937ff5/StakedGlp.sol\":3809:3816  _amount */\n      dup4\n        /* \"gist-e69a4d62287211e39cb91b3b65937ff5/StakedGlp.sol\":3782:3817  Approval(_owner, _spender, _amount) */\n      mload(0x40)\n      dup1\n      dup3\n      dup2\n      mstore\n      0x20\n      add\n      swap2\n      pop\n      pop\n      mload(0x40)\n      dup1\n      swap2\n      sub\n      swap1\n      log3\n        /* \"gist-e69a4d62287211e39cb91b3b65937ff5/StakedGlp.sol\":3474:3824  function _approve(address _owner, address _spender, uint256 _amount) private {... */\n      pop\n      pop\n      pop\n      jump\t// out\n        /* \"gist-e69a4d62287211e39cb91b3b65937ff5/SafeMath.sol\":2991:3178  function sub(uint256 a, uint256 b, string memory errorMessage) internal pure returns (uint256) {... */\n    tag_72:\n        /* \"gist-e69a4d62287211e39cb91b3b65937ff5/SafeMath.sol\":3077:3084  uint256 */\n      0x00\n        /* \"gist-e69a4d62287211e39cb91b3b65937ff5/SafeMath.sol\":3109:3110  a */\n      dup4\n        /* \"gist-e69a4d62287211e39cb91b3b65937ff5/SafeMath.sol\":3104:3105  b */\n      dup4\n        /* \"gist-e69a4d62287211e39cb91b3b65937ff5/SafeMath.sol\":3104:3110  b <= a */\n      gt\n      iszero\n        /* \"gist-e69a4d62287211e39cb91b3b65937ff5/SafeMath.sol\":3112:3124  errorMessage */\n      dup3\n        /* \"gist-e69a4d62287211e39cb91b3b65937ff5/SafeMath.sol\":3096:3125  require(b <= a, errorMessage) */\n      swap1\n      tag_88\n      jumpi\n      mload(0x40)\n      0x08c379a000000000000000000000000000000000000000000000000000000000\n      dup2\n      mstore\n      0x04\n      add\n      dup1\n      dup1\n      0x20\n      add\n      dup3\n      dup2\n      sub\n      dup3\n      mstore\n      dup4\n      dup2\n      dup2\n      mload\n      dup2\n      mstore\n      0x20\n      add\n      swap2\n      pop\n      dup1\n      mload\n      swap1\n      0x20\n      add\n      swap1\n      dup1\n      dup4\n      dup4\n      0x00\n    tag_89:\n      dup4\n      dup2\n      lt\n      iszero\n      tag_91\n      jumpi\n      dup1\n      dup3\n      add\n      mload\n      dup2\n      dup5\n      add\n      mstore\n      0x20\n      dup2\n      add\n      swap1\n      pop\n      jump(tag_89)\n    tag_91:\n      pop\n      pop\n      pop\n      pop\n      swap1\n      pop\n      swap1\n      dup2\n      add\n      swap1\n      0x1f\n      and\n      dup1\n      iszero\n      tag_92\n      jumpi\n      dup1\n      dup3\n      sub\n      dup1\n      mload\n      0x01\n      dup4\n      0x20\n      sub\n      0x0100\n      exp\n      sub\n      not\n      and\n      dup2\n      mstore\n      0x20\n      add\n      swap2\n      pop\n    tag_92:\n      pop\n      swap3\n      pop\n      pop\n      pop\n      mload(0x40)\n      dup1\n      swap2\n      sub\n      swap1\n      revert\n    tag_88:\n      pop\n        /* \"gist-e69a4d62287211e39cb91b3b65937ff5/SafeMath.sol\":3135:3144  uint256 c */\n      0x00\n        /* \"gist-e69a4d62287211e39cb91b3b65937ff5/SafeMath.sol\":3151:3152  b */\n      dup4\n        /* \"gist-e69a4d62287211e39cb91b3b65937ff5/SafeMath.sol\":3147:3148  a */\n      dup6\n        /* \"gist-e69a4d62287211e39cb91b3b65937ff5/SafeMath.sol\":3147:3152  a - b */\n      sub\n        /* \"gist-e69a4d62287211e39cb91b3b65937ff5/SafeMath.sol\":3135:3152  uint256 c = a - b */\n      swap1\n      pop\n        /* \"gist-e69a4d62287211e39cb91b3b65937ff5/SafeMath.sol\":3170:3171  c */\n      dup1\n        /* \"gist-e69a4d62287211e39cb91b3b65937ff5/SafeMath.sol\":3163:3171  return c */\n      swap2\n      pop\n      pop\n        /* \"gist-e69a4d62287211e39cb91b3b65937ff5/SafeMath.sol\":2991:3178  function sub(uint256 a, uint256 b, string memory errorMessage) internal pure returns (uint256) {... */\n      swap4\n      swap3\n      pop\n      pop\n      pop\n      jump\t// out\n        /* \"gist-e69a4d62287211e39cb91b3b65937ff5/StakedGlp.sol\":3830:4664  function _transfer(address _sender, address _recipient, uint256 _amount) private {... */\n    tag_75:\n        /* \"gist-e69a4d62287211e39cb91b3b65937ff5/StakedGlp.sol\":3948:3949  0 */\n      0x00\n        /* \"gist-e69a4d62287211e39cb91b3b65937ff5/StakedGlp.sol\":3929:3950  _sender != address(0) */\n      0xffffffffffffffffffffffffffffffffffffffff\n      and\n        /* \"gist-e69a4d62287211e39cb91b3b65937ff5/StakedGlp.sol\":3929:3936  _sender */\n      dup4\n        /* \"gist-e69a4d62287211e39cb91b3b65937ff5/StakedGlp.sol\":3929:3950  _sender != address(0) */\n      0xffffffffffffffffffffffffffffffffffffffff\n      and\n      eq\n      iszero\n        /* \"gist-e69a4d62287211e39cb91b3b65937ff5/StakedGlp.sol\":3921:3996  require(_sender != address(0), \"StakedGlp: transfer from the zero address\") */\n      tag_94\n      jumpi\n      mload(0x40)\n      0x08c379a000000000000000000000000000000000000000000000000000000000\n      dup2\n      mstore\n      0x04\n      add\n      dup1\n      dup1\n      0x20\n      add\n      dup3\n      dup2\n      sub\n      dup3\n      mstore\n      0x29\n      dup2\n      mstore\n      0x20\n      add\n      dup1\n      data_3b4c8f7b57c708ca8c7b2bceb1c6871ef5a45f51d88d941f7b44bbde3082d5fb\n      0x29\n      swap2\n      codecopy\n      0x40\n      add\n      swap2\n      pop\n      pop\n      mload(0x40)\n      dup1\n      swap2\n      sub\n      swap1\n      revert\n    tag_94:\n        /* \"gist-e69a4d62287211e39cb91b3b65937ff5/StakedGlp.sol\":4036:4037  0 */\n      0x00\n        /* \"gist-e69a4d62287211e39cb91b3b65937ff5/StakedGlp.sol\":4014:4038  _recipient != address(0) */\n      0xffffffffffffffffffffffffffffffffffffffff\n      and\n        /* \"gist-e69a4d62287211e39cb91b3b65937ff5/StakedGlp.sol\":4014:4024  _recipient */\n      dup3\n        /* \"gist-e69a4d62287211e39cb91b3b65937ff5/StakedGlp.sol\":4014:4038  _recipient != address(0) */\n      0xffffffffffffffffffffffffffffffffffffffff\n      and\n      eq\n      iszero\n        /* \"gist-e69a4d62287211e39cb91b3b65937ff5/StakedGlp.sol\":4006:4082  require(_recipient != address(0), \"StakedGlp: transfer to the zero address\") */\n      tag_95\n      jumpi\n      mload(0x40)\n      0x08c379a000000000000000000000000000000000000000000000000000000000\n      dup2\n      mstore\n      0x04\n      add\n      dup1\n      dup1\n      0x20\n      add\n      dup3\n      dup2\n      sub\n      dup3\n      mstore\n      0x27\n      dup2\n      mstore\n      0x20\n      add\n      dup1\n      data_6fefa4209d28cac4597c668b3e4652827e8bbeee0a561496891105d8ab43cf48\n      0x27\n      swap2\n      codecopy\n      0x40\n      add\n      swap2\n      pop\n      pop\n      mload(0x40)\n      dup1\n      swap2\n      sub\n      swap1\n      revert\n    tag_95:\n        /* \"gist-e69a4d62287211e39cb91b3b65937ff5/StakedGlp.sol\":4184:4199  block.timestamp */\n      timestamp\n        /* \"gist-e69a4d62287211e39cb91b3b65937ff5/StakedGlp.sol\":4114:4180  glpManager.lastAddedAt(_sender).add(glpManager.cooldownDuration()) */\n      tag_96\n        /* \"gist-e69a4d62287211e39cb91b3b65937ff5/StakedGlp.sol\":4150:4160  glpManager */\n      0x01\n      0x00\n      swap1\n      sload\n      swap1\n      0x0100\n      exp\n      swap1\n      div\n      0xffffffffffffffffffffffffffffffffffffffff\n      and\n        /* \"gist-e69a4d62287211e39cb91b3b65937ff5/StakedGlp.sol\":4150:4177  glpManager.cooldownDuration */\n      0xffffffffffffffffffffffffffffffffffffffff\n      and\n      0x35269315\n        /* \"gist-e69a4d62287211e39cb91b3b65937ff5/StakedGlp.sol\":4150:4179  glpManager.cooldownDuration() */\n      mload(0x40)\n      dup2\n      0xffffffff\n      and\n      0xe0\n      shl\n      dup2\n      mstore\n      0x04\n      add\n      0x20\n      mload(0x40)\n      dup1\n      dup4\n      sub\n      dup2\n      0x00\n      dup8\n      dup1\n      extcodesize\n      iszero\n      dup1\n      iszero\n      tag_97\n      jumpi\n      0x00\n      dup1\n      revert\n    tag_97:\n      pop\n      gas\n      call\n      iszero\n      dup1\n      iszero\n      tag_99\n      jumpi\n      returndatasize\n      0x00\n      dup1\n      returndatacopy\n      revert(0x00, returndatasize)\n    tag_99:\n      pop\n      pop\n      pop\n      pop\n      mload(0x40)\n      returndatasize\n      0x20\n      dup2\n      lt\n      iszero\n      tag_100\n      jumpi\n      0x00\n      dup1\n      revert\n    tag_100:\n      dup2\n      add\n      swap1\n      dup1\n      dup1\n      mload\n      swap1\n      0x20\n      add\n      swap1\n      swap3\n      swap2\n      swap1\n      pop\n      pop\n      pop\n        /* \"gist-e69a4d62287211e39cb91b3b65937ff5/StakedGlp.sol\":4114:4124  glpManager */\n      0x01\n      0x00\n      swap1\n      sload\n      swap1\n      0x0100\n      exp\n      swap1\n      div\n      0xffffffffffffffffffffffffffffffffffffffff\n      and\n        /* \"gist-e69a4d62287211e39cb91b3b65937ff5/StakedGlp.sol\":4114:4136  glpManager.lastAddedAt */\n      0xffffffffffffffffffffffffffffffffffffffff\n      and\n      0x8b770e11\n        /* \"gist-e69a4d62287211e39cb91b3b65937ff5/StakedGlp.sol\":4137:4144  _sender */\n      dup8\n        /* \"gist-e69a4d62287211e39cb91b3b65937ff5/StakedGlp.sol\":4114:4145  glpManager.lastAddedAt(_sender) */\n      mload(0x40)\n      dup3\n      0xffffffff\n      and\n      0xe0\n      shl\n      dup2\n      mstore\n      0x04\n      add\n      dup1\n      dup3\n      0xffffffffffffffffffffffffffffffffffffffff\n      and\n      dup2\n      mstore\n      0x20\n      add\n      swap2\n      pop\n      pop\n      0x20\n      mload(0x40)\n      dup1\n      dup4\n      sub\n      dup2\n      0x00\n      dup8\n      dup1\n      extcodesize\n      iszero\n      dup1\n      iszero\n      tag_101\n      jumpi\n      0x00\n      dup1\n      revert\n    tag_101:\n      pop\n      gas\n      call\n      iszero\n      dup1\n      iszero\n      tag_103\n      jumpi\n      returndatasize\n      0x00\n      dup1\n      returndatacopy\n      revert(0x00, returndatasize)\n    tag_103:\n      pop\n      pop\n      pop\n      pop\n      mload(0x40)\n      returndatasize\n      0x20\n      dup2\n      lt\n      iszero\n      tag_104\n      jumpi\n      0x00\n      dup1\n      revert\n    tag_104:\n      dup2\n      add\n      swap1\n      dup1\n      dup1\n      mload\n      swap1\n      0x20\n      add\n      swap1\n      swap3\n      swap2\n      swap1\n      pop\n      pop\n      pop\n        /* \"gist-e69a4d62287211e39cb91b3b65937ff5/StakedGlp.sol\":4114:4149  glpManager.lastAddedAt(_sender).add */\n      tag_105\n      swap1\n        /* \"gist-e69a4d62287211e39cb91b3b65937ff5/StakedGlp.sol\":4114:4180  glpManager.lastAddedAt(_sender).add(glpManager.cooldownDuration()) */\n      swap2\n      swap1\n      0xffffffff\n      and\n      jump\t// in\n    tag_96:\n        /* \"gist-e69a4d62287211e39cb91b3b65937ff5/StakedGlp.sol\":4114:4199  glpManager.lastAddedAt(_sender).add(glpManager.cooldownDuration()) <= block.timestamp */\n      gt\n      iszero\n        /* \"gist-e69a4d62287211e39cb91b3b65937ff5/StakedGlp.sol\":4093:4268  require(... */\n      tag_106\n      jumpi\n      mload(0x40)\n      0x08c379a000000000000000000000000000000000000000000000000000000000\n      dup2\n      mstore\n      0x04\n      add\n      dup1\n      dup1\n      0x20\n      add\n      dup3\n      dup2\n      sub\n      dup3\n      mstore\n      0x2b\n      dup2\n      mstore\n      0x20\n      add\n      dup1\n      data_eee70ed5ab4922888d7e0c975b30d8c6f1b319dfbb828e7f2718d54c28bdef9b\n      0x2b\n      swap2\n      codecopy\n      0x40\n      add\n      swap2\n      pop\n      pop\n      mload(0x40)\n      dup1\n      swap2\n      sub\n      swap1\n      revert\n    tag_106:\n        /* \"gist-e69a4d62287211e39cb91b3b65937ff5/StakedGlp.sol\":4294:4310  stakedGlpTracker */\n      0x02\n      0x00\n      swap1\n      sload\n      swap1\n      0x0100\n      exp\n      swap1\n      div\n      0xffffffffffffffffffffffffffffffffffffffff\n      and\n        /* \"gist-e69a4d62287211e39cb91b3b65937ff5/StakedGlp.sol\":4279:4329  IRewardTracker(stakedGlpTracker).unstakeForAccount */\n      0xffffffffffffffffffffffffffffffffffffffff\n      and\n      0x098bf59d\n        /* \"gist-e69a4d62287211e39cb91b3b65937ff5/StakedGlp.sol\":4330:4337  _sender */\n      dup5\n        /* \"gist-e69a4d62287211e39cb91b3b65937ff5/StakedGlp.sol\":4339:4352  feeGlpTracker */\n      0x03\n      0x00\n      swap1\n      sload\n      swap1\n      0x0100\n      exp\n      swap1\n      div\n      0xffffffffffffffffffffffffffffffffffffffff\n      and\n        /* \"gist-e69a4d62287211e39cb91b3b65937ff5/StakedGlp.sol\":4354:4361  _amount */\n      dup5\n        /* \"gist-e69a4d62287211e39cb91b3b65937ff5/StakedGlp.sol\":4363:4370  _sender */\n      dup8\n        /* \"gist-e69a4d62287211e39cb91b3b65937ff5/StakedGlp.sol\":4279:4371  IRewardTracker(stakedGlpTracker).unstakeForAccount(_sender, feeGlpTracker, _amount, _sender) */\n      mload(0x40)\n      dup6\n      0xffffffff\n      and\n      0xe0\n      shl\n      dup2\n      mstore\n      0x04\n      add\n      dup1\n      dup6\n      0xffffffffffffffffffffffffffffffffffffffff\n      and\n      dup2\n      mstore\n      0x20\n      add\n      dup5\n      0xffffffffffffffffffffffffffffffffffffffff\n      and\n      dup2\n      mstore\n      0x20\n      add\n      dup4\n      dup2\n      mstore\n      0x20\n      add\n      dup3\n      0xffffffffffffffffffffffffffffffffffffffff\n      and\n      dup2\n      mstore\n      0x20\n      add\n      swap5\n      pop\n      pop\n      pop\n      pop\n      pop\n      0x00\n      mload(0x40)\n      dup1\n      dup4\n      sub\n      dup2\n      0x00\n      dup8\n      dup1\n      extcodesize\n      iszero\n      dup1\n      iszero\n      tag_107\n      jumpi\n      0x00\n      dup1\n      revert\n    tag_107:\n      pop\n      gas\n      call\n      iszero\n      dup1\n      iszero\n      tag_109\n      jumpi\n      returndatasize\n      0x00\n      dup1\n      returndatacopy\n      revert(0x00, returndatasize)\n    tag_109:\n      pop\n      pop\n      pop\n      pop\n        /* \"gist-e69a4d62287211e39cb91b3b65937ff5/StakedGlp.sol\":4396:4409  feeGlpTracker */\n      0x03\n      0x00\n      swap1\n      sload\n      swap1\n      0x0100\n      exp\n      swap1\n      div\n      0xffffffffffffffffffffffffffffffffffffffff\n      and\n        /* \"gist-e69a4d62287211e39cb91b3b65937ff5/StakedGlp.sol\":4381:4428  IRewardTracker(feeGlpTracker).unstakeForAccount */\n      0xffffffffffffffffffffffffffffffffffffffff\n      and\n      0x098bf59d\n        /* \"gist-e69a4d62287211e39cb91b3b65937ff5/StakedGlp.sol\":4429:4436  _sender */\n      dup5\n        /* \"gist-e69a4d62287211e39cb91b3b65937ff5/StakedGlp.sol\":4438:4441  glp */\n      0x00\n      dup1\n      sload\n      swap1\n      0x0100\n      exp\n      swap1\n      div\n      0xffffffffffffffffffffffffffffffffffffffff\n      and\n        /* \"gist-e69a4d62287211e39cb91b3b65937ff5/StakedGlp.sol\":4443:4450  _amount */\n      dup5\n        /* \"gist-e69a4d62287211e39cb91b3b65937ff5/StakedGlp.sol\":4452:4459  _sender */\n      dup8\n        /* \"gist-e69a4d62287211e39cb91b3b65937ff5/StakedGlp.sol\":4381:4460  IRewardTracker(feeGlpTracker).unstakeForAccount(_sender, glp, _amount, _sender) */\n      mload(0x40)\n      dup6\n      0xffffffff\n      and\n      0xe0\n      shl\n      dup2\n      mstore\n      0x04\n      add\n      dup1\n      dup6\n      0xffffffffffffffffffffffffffffffffffffffff\n      and\n      dup2\n      mstore\n      0x20\n      add\n      dup5\n      0xffffffffffffffffffffffffffffffffffffffff\n      and\n      dup2\n      mstore\n      0x20\n      add\n      dup4\n      dup2\n      mstore\n      0x20\n      add\n      dup3\n      0xffffffffffffffffffffffffffffffffffffffff\n      and\n      dup2\n      mstore\n      0x20\n      add\n      swap5\n      pop\n      pop\n      pop\n      pop\n      pop\n      0x00\n      mload(0x40)\n      dup1\n      dup4\n      sub\n      dup2\n      0x00\n      dup8\n      dup1\n      extcodesize\n      iszero\n      dup1\n      iszero\n      tag_110\n      jumpi\n      0x00\n      dup1\n      revert\n    tag_110:\n      pop\n      gas\n      call\n      iszero\n      dup1\n      iszero\n      tag_112\n      jumpi\n      returndatasize\n      0x00\n      dup1\n      returndatacopy\n      revert(0x00, returndatasize)\n    tag_112:\n      pop\n      pop\n      pop\n      pop\n        /* \"gist-e69a4d62287211e39cb91b3b65937ff5/StakedGlp.sol\":4486:4499  feeGlpTracker */\n      0x03\n      0x00\n      swap1\n      sload\n      swap1\n      0x0100\n      exp\n      swap1\n      div\n      0xffffffffffffffffffffffffffffffffffffffff\n      and\n        /* \"gist-e69a4d62287211e39cb91b3b65937ff5/StakedGlp.sol\":4471:4516  IRewardTracker(feeGlpTracker).stakeForAccount */\n      0xffffffffffffffffffffffffffffffffffffffff\n      and\n      0x790b5a6c\n        /* \"gist-e69a4d62287211e39cb91b3b65937ff5/StakedGlp.sol\":4517:4524  _sender */\n      dup5\n        /* \"gist-e69a4d62287211e39cb91b3b65937ff5/StakedGlp.sol\":4526:4536  _recipient */\n      dup5\n        /* \"gist-e69a4d62287211e39cb91b3b65937ff5/StakedGlp.sol\":4538:4541  glp */\n      0x00\n      dup1\n      sload\n      swap1\n      0x0100\n      exp\n      swap1\n      div\n      0xffffffffffffffffffffffffffffffffffffffff\n      and\n        /* \"gist-e69a4d62287211e39cb91b3b65937ff5/StakedGlp.sol\":4543:4550  _amount */\n      dup6\n        /* \"gist-e69a4d62287211e39cb91b3b65937ff5/StakedGlp.sol\":4471:4551  IRewardTracker(feeGlpTracker).stakeForAccount(_sender, _recipient, glp, _amount) */\n      mload(0x40)\n      dup6\n      0xffffffff\n      and\n      0xe0\n      shl\n      dup2\n      mstore\n      0x04\n      add\n      dup1\n      dup6\n      0xffffffffffffffffffffffffffffffffffffffff\n      and\n      dup2\n      mstore\n      0x20\n      add\n      dup5\n      0xffffffffffffffffffffffffffffffffffffffff\n      and\n      dup2\n      mstore\n      0x20\n      add\n      dup4\n      0xffffffffffffffffffffffffffffffffffffffff\n      and\n      dup2\n      mstore\n      0x20\n      add\n      dup3\n      dup2\n      mstore\n      0x20\n      add\n      swap5\n      pop\n      pop\n      pop\n      pop\n      pop\n      0x00\n      mload(0x40)\n      dup1\n      dup4\n      sub\n      dup2\n      0x00\n      dup8\n      dup1\n      extcodesize\n      iszero\n      dup1\n      iszero\n      tag_113\n      jumpi\n      0x00\n      dup1\n      revert\n    tag_113:\n      pop\n      gas\n      call\n      iszero\n      dup1\n      iszero\n      tag_115\n      jumpi\n      returndatasize\n      0x00\n      dup1\n      returndatacopy\n      revert(0x00, returndatasize)\n    tag_115:\n      pop\n      pop\n      pop\n      pop\n        /* \"gist-e69a4d62287211e39cb91b3b65937ff5/StakedGlp.sol\":4576:4592  stakedGlpTracker */\n      0x02\n      0x00\n      swap1\n      sload\n      swap1\n      0x0100\n      exp\n      swap1\n      div\n      0xffffffffffffffffffffffffffffffffffffffff\n      and\n        /* \"gist-e69a4d62287211e39cb91b3b65937ff5/StakedGlp.sol\":4561:4609  IRewardTracker(stakedGlpTracker).stakeForAccount */\n      0xffffffffffffffffffffffffffffffffffffffff\n      and\n      0x790b5a6c\n        /* \"gist-e69a4d62287211e39cb91b3b65937ff5/StakedGlp.sol\":4610:4620  _recipient */\n      dup4\n        /* \"gist-e69a4d62287211e39cb91b3b65937ff5/StakedGlp.sol\":4622:4632  _recipient */\n      dup5\n        /* \"gist-e69a4d62287211e39cb91b3b65937ff5/StakedGlp.sol\":4634:4647  feeGlpTracker */\n      0x03\n      0x00\n      swap1\n      sload\n      swap1\n      0x0100\n      exp\n      swap1\n      div\n      0xffffffffffffffffffffffffffffffffffffffff\n      and\n        /* \"gist-e69a4d62287211e39cb91b3b65937ff5/StakedGlp.sol\":4649:4656  _amount */\n      dup6\n        /* \"gist-e69a4d62287211e39cb91b3b65937ff5/StakedGlp.sol\":4561:4657  IRewardTracker(stakedGlpTracker).stakeForAccount(_recipient, _recipient, feeGlpTracker, _amount) */\n      mload(0x40)\n      dup6\n      0xffffffff\n      and\n      0xe0\n      shl\n      dup2\n      mstore\n      0x04\n      add\n      dup1\n      dup6\n      0xffffffffffffffffffffffffffffffffffffffff\n      and\n      dup2\n      mstore\n      0x20\n      add\n      dup5\n      0xffffffffffffffffffffffffffffffffffffffff\n      and\n      dup2\n      mstore\n      0x20\n      add\n      dup4\n      0xffffffffffffffffffffffffffffffffffffffff\n      and\n      dup2\n      mstore\n      0x20\n      add\n      dup3\n      dup2\n      mstore\n      0x20\n      add\n      swap5\n      pop\n      pop\n      pop\n      pop\n      pop\n      0x00\n      mload(0x40)\n      dup1\n      dup4\n      sub\n      dup2\n      0x00\n      dup8\n      dup1\n      extcodesize\n      iszero\n      dup1\n      iszero\n      tag_116\n      jumpi\n      0x00\n      dup1\n      revert\n    tag_116:\n      pop\n      gas\n      call\n      iszero\n      dup1\n      iszero\n      tag_118\n      jumpi\n      returndatasize\n      0x00\n      dup1\n      returndatacopy\n      revert(0x00, returndatasize)\n    tag_118:\n      pop\n      pop\n      pop\n      pop\n        /* \"gist-e69a4d62287211e39cb91b3b65937ff5/StakedGlp.sol\":3830:4664  function _transfer(address _sender, address _recipient, uint256 _amount) private {... */\n      pop\n      pop\n      pop\n      jump\t// out\n        /* \"gist-e69a4d62287211e39cb91b3b65937ff5/SafeMath.sol\":2119:2295  function add(uint256 a, uint256 b) internal pure returns (uint256) {... */\n    tag_105:\n        /* \"gist-e69a4d62287211e39cb91b3b65937ff5/SafeMath.sol\":2177:2184  uint256 */\n      0x00\n        /* \"gist-e69a4d62287211e39cb91b3b65937ff5/SafeMath.sol\":2196:2205  uint256 c */\n      dup1\n        /* \"gist-e69a4d62287211e39cb91b3b65937ff5/SafeMath.sol\":2212:2213  b */\n      dup3\n        /* \"gist-e69a4d62287211e39cb91b3b65937ff5/SafeMath.sol\":2208:2209  a */\n      dup5\n        /* \"gist-e69a4d62287211e39cb91b3b65937ff5/SafeMath.sol\":2208:2213  a + b */\n      add\n        /* \"gist-e69a4d62287211e39cb91b3b65937ff5/SafeMath.sol\":2196:2213  uint256 c = a + b */\n      swap1\n      pop\n        /* \"gist-e69a4d62287211e39cb91b3b65937ff5/SafeMath.sol\":2236:2237  a */\n      dup4\n        /* \"gist-e69a4d62287211e39cb91b3b65937ff5/SafeMath.sol\":2231:2232  c */\n      dup2\n        /* \"gist-e69a4d62287211e39cb91b3b65937ff5/SafeMath.sol\":2231:2237  c >= a */\n      lt\n      iszero\n        /* \"gist-e69a4d62287211e39cb91b3b65937ff5/SafeMath.sol\":2223:2269  require(c >= a, \"SafeMath: addition overflow\") */\n      tag_120\n      jumpi\n      mload(0x40)\n      0x08c379a000000000000000000000000000000000000000000000000000000000\n      dup2\n      mstore\n      0x04\n      add\n      dup1\n      dup1\n      0x20\n      add\n      dup3\n      dup2\n      sub\n      dup3\n      mstore\n      0x1b\n      dup2\n      mstore\n      0x20\n      add\n      dup1\n      0x536166654d6174683a206164646974696f6e206f766572666c6f770000000000\n      dup2\n      mstore\n      pop\n      0x20\n      add\n      swap2\n      pop\n      pop\n      mload(0x40)\n      dup1\n      swap2\n      sub\n      swap1\n      revert\n    tag_120:\n        /* \"gist-e69a4d62287211e39cb91b3b65937ff5/SafeMath.sol\":2287:2288  c */\n      dup1\n        /* \"gist-e69a4d62287211e39cb91b3b65937ff5/SafeMath.sol\":2280:2288  return c */\n      swap2\n      pop\n      pop\n        /* \"gist-e69a4d62287211e39cb91b3b65937ff5/SafeMath.sol\":2119:2295  function add(uint256 a, uint256 b) internal pure returns (uint256) {... */\n      swap3\n      swap2\n      pop\n      pop\n      jump\t// out\n    stop\n    data_3b4c8f7b57c708ca8c7b2bceb1c6871ef5a45f51d88d941f7b44bbde3082d5fb 5374616b6564476c703a207472616e736665722066726f6d20746865207a65726f2061646472657373\n    data_62bc4531f76cf9b5c8e85ff95071b903d80067837014151dab496bcff6d909ed 5374616b6564476c703a20617070726f76652066726f6d20746865207a65726f2061646472657373\n    data_63eb773bac5cb8f972fef43c74723e7ad02f1f2a4441d8ee3654ab7581be14b9 5374616b6564476c703a20617070726f766520746f20746865207a65726f2061646472657373\n    data_6fefa4209d28cac4597c668b3e4652827e8bbeee0a561496891105d8ab43cf48 5374616b6564476c703a207472616e7366657220746f20746865207a65726f2061646472657373\n    data_ba113124c0478f50d9c7f1b214ac98e6fc6876ceaa580cc9c40a4d35aa2ac47f 5374616b6564476c703a207472616e7366657220616d6f756e74206578636565647320616c6c6f77616e6365\n    data_eee70ed5ab4922888d7e0c975b30d8c6f1b319dfbb828e7f2718d54c28bdef9b 5374616b6564476c703a20636f6f6c646f776e206475726174696f6e206e6f742079657420706173736564\n\n    auxdata: 0xa26469706673582212207014d527a098114dc300aaaf05f18ffb2c92f0fd9dfddf74dc0c3a88fc00117864736f6c634300060c0033\n}\n",
				"bytecode": {
					"linkReferences": {},
					"object": "608060405234801561001057600080fd5b506040516116eb3803806116eb8339818101604052608081101561003357600080fd5b8101908080519060200190929190805190602001909291908051906020019092919080519060200190929190505050836000806101000a81548173ffffffffffffffffffffffffffffffffffffffff021916908373ffffffffffffffffffffffffffffffffffffffff16021790555082600160006101000a81548173ffffffffffffffffffffffffffffffffffffffff021916908373ffffffffffffffffffffffffffffffffffffffff16021790555081600260006101000a81548173ffffffffffffffffffffffffffffffffffffffff021916908373ffffffffffffffffffffffffffffffffffffffff16021790555080600360006101000a81548173ffffffffffffffffffffffffffffffffffffffff021916908373ffffffffffffffffffffffffffffffffffffffff16021790555050505050611573806101786000396000f3fe608060405234801561001057600080fd5b50600436106100ea5760003560e01c806378a207ee1161008c578063af394d0011610066578063af394d0014610484578063dd62ed3e146104b8578063e1c363b714610530578063fa6db1bc14610564576100ea565b806378a207ee1461036957806395d89b411461039d578063a9059cbb14610420576100ea565b806323b872dd116100c857806323b872dd146101f4578063313ce5671461027857806355b6ed5c1461029957806370a0823114610311576100ea565b806306fdde03146100ef578063095ea7b31461017257806318160ddd146101d6575b600080fd5b6100f7610598565b6040518080602001828103825283818151815260200191508051906020019080838360005b8381101561013757808201518184015260208101905061011c565b50505050905090810190601f1680156101645780820380516001836020036101000a031916815260200191505b509250505060405180910390f35b6101be6004803603604081101561018857600080fd5b81019080803573ffffffffffffffffffffffffffffffffffffffff169060200190929190803590602001909291905050506105d1565b60405180821515815260200191505060405180910390f35b6101de6105e8565b6040518082815260200191505060405180910390f35b6102606004803603606081101561020a57600080fd5b81019080803573ffffffffffffffffffffffffffffffffffffffff169060200190929190803573ffffffffffffffffffffffffffffffffffffffff16906020019092919080359060200190929190505050610692565b60405180821515815260200191505060405180910390f35b610280610762565b604051808260ff16815260200191505060405180910390f35b6102fb600480360360408110156102af57600080fd5b81019080803573ffffffffffffffffffffffffffffffffffffffff169060200190929190803573ffffffffffffffffffffffffffffffffffffffff169060200190929190505050610767565b6040518082815260200191505060405180910390f35b6103536004803603602081101561032757600080fd5b81019080803573ffffffffffffffffffffffffffffffffffffffff16906020019092919050505061078c565b6040518082815260200191505060405180910390f35b610371610897565b604051808273ffffffffffffffffffffffffffffffffffffffff16815260200191505060405180910390f35b6103a56108bb565b6040518080602001828103825283818151815260200191508051906020019080838360005b838110156103e55780820151818401526020810190506103ca565b50505050905090810190601f1680156104125780820380516001836020036101000a031916815260200191505b509250505060405180910390f35b61046c6004803603604081101561043657600080fd5b81019080803573ffffffffffffffffffffffffffffffffffffffff169060200190929190803590602001909291905050506108f4565b60405180821515815260200191505060405180910390f35b61048c61090b565b604051808273ffffffffffffffffffffffffffffffffffffffff16815260200191505060405180910390f35b61051a600480360360408110156104ce57600080fd5b81019080803573ffffffffffffffffffffffffffffffffffffffff169060200190929190803573ffffffffffffffffffffffffffffffffffffffff169060200190929190505050610931565b6040518082815260200191505060405180910390f35b6105386109b8565b604051808273ffffffffffffffffffffffffffffffffffffffff16815260200191505060405180910390f35b61056c6109de565b604051808273ffffffffffffffffffffffffffffffffffffffff16815260200191505060405180910390f35b6040518060400160405280600981526020017f5374616b6564476c70000000000000000000000000000000000000000000000081525081565b60006105de338484610a04565b6001905092915050565b6000600260009054906101000a900473ffffffffffffffffffffffffffffffffffffffff1673ffffffffffffffffffffffffffffffffffffffff166318160ddd6040518163ffffffff1660e01b815260040160206040518083038186803b15801561065257600080fd5b505afa158015610666573d6000803e3d6000fd5b505050506040513d602081101561067c57600080fd5b8101908080519060200190929190505050905090565b60008061073e836040518060600160405280602c81526020016114e7602c9139600460008973ffffffffffffffffffffffffffffffffffffffff1673ffffffffffffffffffffffffffffffffffffffff16815260200190815260200160002060003373ffffffffffffffffffffffffffffffffffffffff1673ffffffffffffffffffffffffffffffffffffffff16815260200190815260200160002054610bfb9092919063ffffffff16565b905061074b853383610a04565b610756858585610cbb565b60019150509392505050565b601281565b6004602052816000526040600020602052806000526040600020600091509150505481565b6000600360009054906101000a900473ffffffffffffffffffffffffffffffffffffffff1673ffffffffffffffffffffffffffffffffffffffff1663f5d9d63e8360008054906101000a900473ffffffffffffffffffffffffffffffffffffffff166040518363ffffffff1660e01b8152600401808373ffffffffffffffffffffffffffffffffffffffff1681526020018273ffffffffffffffffffffffffffffffffffffffff1681526020019250505060206040518083038186803b15801561085557600080fd5b505afa158015610869573d6000803e3d6000fd5b505050506040513d602081101561087f57600080fd5b81019080805190602001909291905050509050919050565b60008054906101000a900473ffffffffffffffffffffffffffffffffffffffff1681565b6040518060400160405280600481526020017f73474c500000000000000000000000000000000000000000000000000000000081525081565b6000610901338484610cbb565b6001905092915050565b600260009054906101000a900473ffffffffffffffffffffffffffffffffffffffff1681565b6000600460008473ffffffffffffffffffffffffffffffffffffffff1673ffffffffffffffffffffffffffffffffffffffff16815260200190815260200160002060008373ffffffffffffffffffffffffffffffffffffffff1673ffffffffffffffffffffffffffffffffffffffff16815260200190815260200160002054905092915050565b600360009054906101000a900473ffffffffffffffffffffffffffffffffffffffff1681565b600160009054906101000a900473ffffffffffffffffffffffffffffffffffffffff1681565b600073ffffffffffffffffffffffffffffffffffffffff168373ffffffffffffffffffffffffffffffffffffffff161415610a8a576040517f08c379a00000000000000000000000000000000000000000000000000000000081526004018080602001828103825260288152602001806114726028913960400191505060405180910390fd5b600073ffffffffffffffffffffffffffffffffffffffff168273ffffffffffffffffffffffffffffffffffffffff161415610b10576040517f08c379a000000000000000000000000000000000000000000000000000000000815260040180806020018281038252602681526020018061149a6026913960400191505060405180910390fd5b80600460008573ffffffffffffffffffffffffffffffffffffffff1673ffffffffffffffffffffffffffffffffffffffff16815260200190815260200160002060008473ffffffffffffffffffffffffffffffffffffffff1673ffffffffffffffffffffffffffffffffffffffff168152602001908152602001600020819055508173ffffffffffffffffffffffffffffffffffffffff168373ffffffffffffffffffffffffffffffffffffffff167f8c5be1e5ebec7d5bd14f71427d1e84f3dd0314c0f7b2291e5b200ac8c7c3b925836040518082815260200191505060405180910390a3505050565b6000838311158290610ca8576040517f08c379a00000000000000000000000000000000000000000000000000000000081526004018080602001828103825283818151815260200191508051906020019080838360005b83811015610c6d578082015181840152602081019050610c52565b50505050905090810190601f168015610c9a5780820380516001836020036101000a031916815260200191505b509250505060405180910390fd5b5060008385039050809150509392505050565b600073ffffffffffffffffffffffffffffffffffffffff168373ffffffffffffffffffffffffffffffffffffffff161415610d41576040517f08c379a00000000000000000000000000000000000000000000000000000000081526004018080602001828103825260298152602001806114496029913960400191505060405180910390fd5b600073ffffffffffffffffffffffffffffffffffffffff168273ffffffffffffffffffffffffffffffffffffffff161415610dc7576040517f08c379a00000000000000000000000000000000000000000000000000000000081526004018080602001828103825260278152602001806114c06027913960400191505060405180910390fd5b42610f44600160009054906101000a900473ffffffffffffffffffffffffffffffffffffffff1673ffffffffffffffffffffffffffffffffffffffff1663352693156040518163ffffffff1660e01b8152600401602060405180830381600087803b158015610e3557600080fd5b505af1158015610e49573d6000803e3d6000fd5b505050506040513d6020811015610e5f57600080fd5b8101908080519060200190929190505050600160009054906101000a900473ffffffffffffffffffffffffffffffffffffffff1673ffffffffffffffffffffffffffffffffffffffff16638b770e11876040518263ffffffff1660e01b8152600401808273ffffffffffffffffffffffffffffffffffffffff168152602001915050602060405180830381600087803b158015610efb57600080fd5b505af1158015610f0f573d6000803e3d6000fd5b505050506040513d6020811015610f2557600080fd5b81019080805190602001909291905050506113c090919063ffffffff16565b1115610f9b576040517f08c379a000000000000000000000000000000000000000000000000000000000815260040180806020018281038252602b815260200180611513602b913960400191505060405180910390fd5b600260009054906101000a900473ffffffffffffffffffffffffffffffffffffffff1673ffffffffffffffffffffffffffffffffffffffff1663098bf59d84600360009054906101000a900473ffffffffffffffffffffffffffffffffffffffff1684876040518563ffffffff1660e01b8152600401808573ffffffffffffffffffffffffffffffffffffffff1681526020018473ffffffffffffffffffffffffffffffffffffffff1681526020018381526020018273ffffffffffffffffffffffffffffffffffffffff168152602001945050505050600060405180830381600087803b15801561108c57600080fd5b505af11580156110a0573d6000803e3d6000fd5b50505050600360009054906101000a900473ffffffffffffffffffffffffffffffffffffffff1673ffffffffffffffffffffffffffffffffffffffff1663098bf59d8460008054906101000a900473ffffffffffffffffffffffffffffffffffffffff1684876040518563ffffffff1660e01b8152600401808573ffffffffffffffffffffffffffffffffffffffff1681526020018473ffffffffffffffffffffffffffffffffffffffff1681526020018381526020018273ffffffffffffffffffffffffffffffffffffffff168152602001945050505050600060405180830381600087803b15801561119357600080fd5b505af11580156111a7573d6000803e3d6000fd5b50505050600360009054906101000a900473ffffffffffffffffffffffffffffffffffffffff1673ffffffffffffffffffffffffffffffffffffffff1663790b5a6c848460008054906101000a900473ffffffffffffffffffffffffffffffffffffffff16856040518563ffffffff1660e01b8152600401808573ffffffffffffffffffffffffffffffffffffffff1681526020018473ffffffffffffffffffffffffffffffffffffffff1681526020018373ffffffffffffffffffffffffffffffffffffffff168152602001828152602001945050505050600060405180830381600087803b15801561129a57600080fd5b505af11580156112ae573d6000803e3d6000fd5b50505050600260009054906101000a900473ffffffffffffffffffffffffffffffffffffffff1673ffffffffffffffffffffffffffffffffffffffff1663790b5a6c8384600360009054906101000a900473ffffffffffffffffffffffffffffffffffffffff16856040518563ffffffff1660e01b8152600401808573ffffffffffffffffffffffffffffffffffffffff1681526020018473ffffffffffffffffffffffffffffffffffffffff1681526020018373ffffffffffffffffffffffffffffffffffffffff168152602001828152602001945050505050600060405180830381600087803b1580156113a357600080fd5b505af11580156113b7573d6000803e3d6000fd5b50505050505050565b60008082840190508381101561143e576040517f08c379a000000000000000000000000000000000000000000000000000000000815260040180806020018281038252601b8152602001807f536166654d6174683a206164646974696f6e206f766572666c6f77000000000081525060200191505060405180910390fd5b809150509291505056fe5374616b6564476c703a207472616e736665722066726f6d20746865207a65726f20616464726573735374616b6564476c703a20617070726f76652066726f6d20746865207a65726f20616464726573735374616b6564476c703a20617070726f766520746f20746865207a65726f20616464726573735374616b6564476c703a207472616e7366657220746f20746865207a65726f20616464726573735374616b6564476c703a207472616e7366657220616d6f756e74206578636565647320616c6c6f77616e63655374616b6564476c703a20636f6f6c646f776e206475726174696f6e206e6f742079657420706173736564a26469706673582212207014d527a098114dc300aaaf05f18ffb2c92f0fd9dfddf74dc0c3a88fc00117864736f6c634300060c0033",
					"opcodes": "PUSH1 0x80 PUSH1 0x40 MSTORE CALLVALUE DUP1 ISZERO PUSH2 0x10 JUMPI PUSH1 0x0 DUP1 REVERT JUMPDEST POP PUSH1 0x40 MLOAD PUSH2 0x16EB CODESIZE SUB DUP1 PUSH2 0x16EB DUP4 CODECOPY DUP2 DUP2 ADD PUSH1 0x40 MSTORE PUSH1 0x80 DUP2 LT ISZERO PUSH2 0x33 JUMPI PUSH1 0x0 DUP1 REVERT JUMPDEST DUP2 ADD SWAP1 DUP1 DUP1 MLOAD SWAP1 PUSH1 0x20 ADD SWAP1 SWAP3 SWAP2 SWAP1 DUP1 MLOAD SWAP1 PUSH1 0x20 ADD SWAP1 SWAP3 SWAP2 SWAP1 DUP1 MLOAD SWAP1 PUSH1 0x20 ADD SWAP1 SWAP3 SWAP2 SWAP1 DUP1 MLOAD SWAP1 PUSH1 0x20 ADD SWAP1 SWAP3 SWAP2 SWAP1 POP POP POP DUP4 PUSH1 0x0 DUP1 PUSH2 0x100 EXP DUP2 SLOAD DUP2 PUSH20 0xFFFFFFFFFFFFFFFFFFFFFFFFFFFFFFFFFFFFFFFF MUL NOT AND SWAP1 DUP4 PUSH20 0xFFFFFFFFFFFFFFFFFFFFFFFFFFFFFFFFFFFFFFFF AND MUL OR SWAP1 SSTORE POP DUP3 PUSH1 0x1 PUSH1 0x0 PUSH2 0x100 EXP DUP2 SLOAD DUP2 PUSH20 0xFFFFFFFFFFFFFFFFFFFFFFFFFFFFFFFFFFFFFFFF MUL NOT AND SWAP1 DUP4 PUSH20 0xFFFFFFFFFFFFFFFFFFFFFFFFFFFFFFFFFFFFFFFF AND MUL OR SWAP1 SSTORE POP DUP2 PUSH1 0x2 PUSH1 0x0 PUSH2 0x100 EXP DUP2 SLOAD DUP2 PUSH20 0xFFFFFFFFFFFFFFFFFFFFFFFFFFFFFFFFFFFFFFFF MUL NOT AND SWAP1 DUP4 PUSH20 0xFFFFFFFFFFFFFFFFFFFFFFFFFFFFFFFFFFFFFFFF AND MUL OR SWAP1 SSTORE POP DUP1 PUSH1 0x3 PUSH1 0x0 PUSH2 0x100 EXP DUP2 SLOAD DUP2 PUSH20 0xFFFFFFFFFFFFFFFFFFFFFFFFFFFFFFFFFFFFFFFF MUL NOT AND SWAP1 DUP4 PUSH20 0xFFFFFFFFFFFFFFFFFFFFFFFFFFFFFFFFFFFFFFFF AND MUL OR SWAP1 SSTORE POP POP POP POP POP PUSH2 0x1573 DUP1 PUSH2 0x178 PUSH1 0x0 CODECOPY PUSH1 0x0 RETURN INVALID PUSH1 0x80 PUSH1 0x40 MSTORE CALLVALUE DUP1 ISZERO PUSH2 0x10 JUMPI PUSH1 0x0 DUP1 REVERT JUMPDEST POP PUSH1 0x4 CALLDATASIZE LT PUSH2 0xEA JUMPI PUSH1 0x0 CALLDATALOAD PUSH1 0xE0 SHR DUP1 PUSH4 0x78A207EE GT PUSH2 0x8C JUMPI DUP1 PUSH4 0xAF394D00 GT PUSH2 0x66 JUMPI DUP1 PUSH4 0xAF394D00 EQ PUSH2 0x484 JUMPI DUP1 PUSH4 0xDD62ED3E EQ PUSH2 0x4B8 JUMPI DUP1 PUSH4 0xE1C363B7 EQ PUSH2 0x530 JUMPI DUP1 PUSH4 0xFA6DB1BC EQ PUSH2 0x564 JUMPI PUSH2 0xEA JUMP JUMPDEST DUP1 PUSH4 0x78A207EE EQ PUSH2 0x369 JUMPI DUP1 PUSH4 0x95D89B41 EQ PUSH2 0x39D JUMPI DUP1 PUSH4 0xA9059CBB EQ PUSH2 0x420 JUMPI PUSH2 0xEA JUMP JUMPDEST DUP1 PUSH4 0x23B872DD GT PUSH2 0xC8 JUMPI DUP1 PUSH4 0x23B872DD EQ PUSH2 0x1F4 JUMPI DUP1 PUSH4 0x313CE567 EQ PUSH2 0x278 JUMPI DUP1 PUSH4 0x55B6ED5C EQ PUSH2 0x299 JUMPI DUP1 PUSH4 0x70A08231 EQ PUSH2 0x311 JUMPI PUSH2 0xEA JUMP JUMPDEST DUP1 PUSH4 0x6FDDE03 EQ PUSH2 0xEF JUMPI DUP1 PUSH4 0x95EA7B3 EQ PUSH2 0x172 JUMPI DUP1 PUSH4 0x18160DDD EQ PUSH2 0x1D6 JUMPI JUMPDEST PUSH1 0x0 DUP1 REVERT JUMPDEST PUSH2 0xF7 PUSH2 0x598 JUMP JUMPDEST PUSH1 0x40 MLOAD DUP1 DUP1 PUSH1 0x20 ADD DUP3 DUP2 SUB DUP3 MSTORE DUP4 DUP2 DUP2 MLOAD DUP2 MSTORE PUSH1 0x20 ADD SWAP2 POP DUP1 MLOAD SWAP1 PUSH1 0x20 ADD SWAP1 DUP1 DUP4 DUP4 PUSH1 0x0 JUMPDEST DUP4 DUP2 LT ISZERO PUSH2 0x137 JUMPI DUP1 DUP3 ADD MLOAD DUP2 DUP5 ADD MSTORE PUSH1 0x20 DUP2 ADD SWAP1 POP PUSH2 0x11C JUMP JUMPDEST POP POP POP POP SWAP1 POP SWAP1 DUP2 ADD SWAP1 PUSH1 0x1F AND DUP1 ISZERO PUSH2 0x164 JUMPI DUP1 DUP3 SUB DUP1 MLOAD PUSH1 0x1 DUP4 PUSH1 0x20 SUB PUSH2 0x100 EXP SUB NOT AND DUP2 MSTORE PUSH1 0x20 ADD SWAP2 POP JUMPDEST POP SWAP3 POP POP POP PUSH1 0x40 MLOAD DUP1 SWAP2 SUB SWAP1 RETURN JUMPDEST PUSH2 0x1BE PUSH1 0x4 DUP1 CALLDATASIZE SUB PUSH1 0x40 DUP2 LT ISZERO PUSH2 0x188 JUMPI PUSH1 0x0 DUP1 REVERT JUMPDEST DUP2 ADD SWAP1 DUP1 DUP1 CALLDATALOAD PUSH20 0xFFFFFFFFFFFFFFFFFFFFFFFFFFFFFFFFFFFFFFFF AND SWAP1 PUSH1 0x20 ADD SWAP1 SWAP3 SWAP2 SWAP1 DUP1 CALLDATALOAD SWAP1 PUSH1 0x20 ADD SWAP1 SWAP3 SWAP2 SWAP1 POP POP POP PUSH2 0x5D1 JUMP JUMPDEST PUSH1 0x40 MLOAD DUP1 DUP3 ISZERO ISZERO DUP2 MSTORE PUSH1 0x20 ADD SWAP2 POP POP PUSH1 0x40 MLOAD DUP1 SWAP2 SUB SWAP1 RETURN JUMPDEST PUSH2 0x1DE PUSH2 0x5E8 JUMP JUMPDEST PUSH1 0x40 MLOAD DUP1 DUP3 DUP2 MSTORE PUSH1 0x20 ADD SWAP2 POP POP PUSH1 0x40 MLOAD DUP1 SWAP2 SUB SWAP1 RETURN JUMPDEST PUSH2 0x260 PUSH1 0x4 DUP1 CALLDATASIZE SUB PUSH1 0x60 DUP2 LT ISZERO PUSH2 0x20A JUMPI PUSH1 0x0 DUP1 REVERT JUMPDEST DUP2 ADD SWAP1 DUP1 DUP1 CALLDATALOAD PUSH20 0xFFFFFFFFFFFFFFFFFFFFFFFFFFFFFFFFFFFFFFFF AND SWAP1 PUSH1 0x20 ADD SWAP1 SWAP3 SWAP2 SWAP1 DUP1 CALLDATALOAD PUSH20 0xFFFFFFFFFFFFFFFFFFFFFFFFFFFFFFFFFFFFFFFF AND SWAP1 PUSH1 0x20 ADD SWAP1 SWAP3 SWAP2 SWAP1 DUP1 CALLDATALOAD SWAP1 PUSH1 0x20 ADD SWAP1 SWAP3 SWAP2 SWAP1 POP POP POP PUSH2 0x692 JUMP JUMPDEST PUSH1 0x40 MLOAD DUP1 DUP3 ISZERO ISZERO DUP2 MSTORE PUSH1 0x20 ADD SWAP2 POP POP PUSH1 0x40 MLOAD DUP1 SWAP2 SUB SWAP1 RETURN JUMPDEST PUSH2 0x280 PUSH2 0x762 JUMP JUMPDEST PUSH1 0x40 MLOAD DUP1 DUP3 PUSH1 0xFF AND DUP2 MSTORE PUSH1 0x20 ADD SWAP2 POP POP PUSH1 0x40 MLOAD DUP1 SWAP2 SUB SWAP1 RETURN JUMPDEST PUSH2 0x2FB PUSH1 0x4 DUP1 CALLDATASIZE SUB PUSH1 0x40 DUP2 LT ISZERO PUSH2 0x2AF JUMPI PUSH1 0x0 DUP1 REVERT JUMPDEST DUP2 ADD SWAP1 DUP1 DUP1 CALLDATALOAD PUSH20 0xFFFFFFFFFFFFFFFFFFFFFFFFFFFFFFFFFFFFFFFF AND SWAP1 PUSH1 0x20 ADD SWAP1 SWAP3 SWAP2 SWAP1 DUP1 CALLDATALOAD PUSH20 0xFFFFFFFFFFFFFFFFFFFFFFFFFFFFFFFFFFFFFFFF AND SWAP1 PUSH1 0x20 ADD SWAP1 SWAP3 SWAP2 SWAP1 POP POP POP PUSH2 0x767 JUMP JUMPDEST PUSH1 0x40 MLOAD DUP1 DUP3 DUP2 MSTORE PUSH1 0x20 ADD SWAP2 POP POP PUSH1 0x40 MLOAD DUP1 SWAP2 SUB SWAP1 RETURN JUMPDEST PUSH2 0x353 PUSH1 0x4 DUP1 CALLDATASIZE SUB PUSH1 0x20 DUP2 LT ISZERO PUSH2 0x327 JUMPI PUSH1 0x0 DUP1 REVERT JUMPDEST DUP2 ADD SWAP1 DUP1 DUP1 CALLDATALOAD PUSH20 0xFFFFFFFFFFFFFFFFFFFFFFFFFFFFFFFFFFFFFFFF AND SWAP1 PUSH1 0x20 ADD SWAP1 SWAP3 SWAP2 SWAP1 POP POP POP PUSH2 0x78C JUMP JUMPDEST PUSH1 0x40 MLOAD DUP1 DUP3 DUP2 MSTORE PUSH1 0x20 ADD SWAP2 POP POP PUSH1 0x40 MLOAD DUP1 SWAP2 SUB SWAP1 RETURN JUMPDEST PUSH2 0x371 PUSH2 0x897 JUMP JUMPDEST PUSH1 0x40 MLOAD DUP1 DUP3 PUSH20 0xFFFFFFFFFFFFFFFFFFFFFFFFFFFFFFFFFFFFFFFF AND DUP2 MSTORE PUSH1 0x20 ADD SWAP2 POP POP PUSH1 0x40 MLOAD DUP1 SWAP2 SUB SWAP1 RETURN JUMPDEST PUSH2 0x3A5 PUSH2 0x8BB JUMP JUMPDEST PUSH1 0x40 MLOAD DUP1 DUP1 PUSH1 0x20 ADD DUP3 DUP2 SUB DUP3 MSTORE DUP4 DUP2 DUP2 MLOAD DUP2 MSTORE PUSH1 0x20 ADD SWAP2 POP DUP1 MLOAD SWAP1 PUSH1 0x20 ADD SWAP1 DUP1 DUP4 DUP4 PUSH1 0x0 JUMPDEST DUP4 DUP2 LT ISZERO PUSH2 0x3E5 JUMPI DUP1 DUP3 ADD MLOAD DUP2 DUP5 ADD MSTORE PUSH1 0x20 DUP2 ADD SWAP1 POP PUSH2 0x3CA JUMP JUMPDEST POP POP POP POP SWAP1 POP SWAP1 DUP2 ADD SWAP1 PUSH1 0x1F AND DUP1 ISZERO PUSH2 0x412 JUMPI DUP1 DUP3 SUB DUP1 MLOAD PUSH1 0x1 DUP4 PUSH1 0x20 SUB PUSH2 0x100 EXP SUB NOT AND DUP2 MSTORE PUSH1 0x20 ADD SWAP2 POP JUMPDEST POP SWAP3 POP POP POP PUSH1 0x40 MLOAD DUP1 SWAP2 SUB SWAP1 RETURN JUMPDEST PUSH2 0x46C PUSH1 0x4 DUP1 CALLDATASIZE SUB PUSH1 0x40 DUP2 LT ISZERO PUSH2 0x436 JUMPI PUSH1 0x0 DUP1 REVERT JUMPDEST DUP2 ADD SWAP1 DUP1 DUP1 CALLDATALOAD PUSH20 0xFFFFFFFFFFFFFFFFFFFFFFFFFFFFFFFFFFFFFFFF AND SWAP1 PUSH1 0x20 ADD SWAP1 SWAP3 SWAP2 SWAP1 DUP1 CALLDATALOAD SWAP1 PUSH1 0x20 ADD SWAP1 SWAP3 SWAP2 SWAP1 POP POP POP PUSH2 0x8F4 JUMP JUMPDEST PUSH1 0x40 MLOAD DUP1 DUP3 ISZERO ISZERO DUP2 MSTORE PUSH1 0x20 ADD SWAP2 POP POP PUSH1 0x40 MLOAD DUP1 SWAP2 SUB SWAP1 RETURN JUMPDEST PUSH2 0x48C PUSH2 0x90B JUMP JUMPDEST PUSH1 0x40 MLOAD DUP1 DUP3 PUSH20 0xFFFFFFFFFFFFFFFFFFFFFFFFFFFFFFFFFFFFFFFF AND DUP2 MSTORE PUSH1 0x20 ADD SWAP2 POP POP PUSH1 0x40 MLOAD DUP1 SWAP2 SUB SWAP1 RETURN JUMPDEST PUSH2 0x51A PUSH1 0x4 DUP1 CALLDATASIZE SUB PUSH1 0x40 DUP2 LT ISZERO PUSH2 0x4CE JUMPI PUSH1 0x0 DUP1 REVERT JUMPDEST DUP2 ADD SWAP1 DUP1 DUP1 CALLDATALOAD PUSH20 0xFFFFFFFFFFFFFFFFFFFFFFFFFFFFFFFFFFFFFFFF AND SWAP1 PUSH1 0x20 ADD SWAP1 SWAP3 SWAP2 SWAP1 DUP1 CALLDATALOAD PUSH20 0xFFFFFFFFFFFFFFFFFFFFFFFFFFFFFFFFFFFFFFFF AND SWAP1 PUSH1 0x20 ADD SWAP1 SWAP3 SWAP2 SWAP1 POP POP POP PUSH2 0x931 JUMP JUMPDEST PUSH1 0x40 MLOAD DUP1 DUP3 DUP2 MSTORE PUSH1 0x20 ADD SWAP2 POP POP PUSH1 0x40 MLOAD DUP1 SWAP2 SUB SWAP1 RETURN JUMPDEST PUSH2 0x538 PUSH2 0x9B8 JUMP JUMPDEST PUSH1 0x40 MLOAD DUP1 DUP3 PUSH20 0xFFFFFFFFFFFFFFFFFFFFFFFFFFFFFFFFFFFFFFFF AND DUP2 MSTORE PUSH1 0x20 ADD SWAP2 POP POP PUSH1 0x40 MLOAD DUP1 SWAP2 SUB SWAP1 RETURN JUMPDEST PUSH2 0x56C PUSH2 0x9DE JUMP JUMPDEST PUSH1 0x40 MLOAD DUP1 DUP3 PUSH20 0xFFFFFFFFFFFFFFFFFFFFFFFFFFFFFFFFFFFFFFFF AND DUP2 MSTORE PUSH1 0x20 ADD SWAP2 POP POP PUSH1 0x40 MLOAD DUP1 SWAP2 SUB SWAP1 RETURN JUMPDEST PUSH1 0x40 MLOAD DUP1 PUSH1 0x40 ADD PUSH1 0x40 MSTORE DUP1 PUSH1 0x9 DUP2 MSTORE PUSH1 0x20 ADD PUSH32 0x5374616B6564476C700000000000000000000000000000000000000000000000 DUP2 MSTORE POP DUP2 JUMP JUMPDEST PUSH1 0x0 PUSH2 0x5DE CALLER DUP5 DUP5 PUSH2 0xA04 JUMP JUMPDEST PUSH1 0x1 SWAP1 POP SWAP3 SWAP2 POP POP JUMP JUMPDEST PUSH1 0x0 PUSH1 0x2 PUSH1 0x0 SWAP1 SLOAD SWAP1 PUSH2 0x100 EXP SWAP1 DIV PUSH20 0xFFFFFFFFFFFFFFFFFFFFFFFFFFFFFFFFFFFFFFFF AND PUSH20 0xFFFFFFFFFFFFFFFFFFFFFFFFFFFFFFFFFFFFFFFF AND PUSH4 0x18160DDD PUSH1 0x40 MLOAD DUP2 PUSH4 0xFFFFFFFF AND PUSH1 0xE0 SHL DUP2 MSTORE PUSH1 0x4 ADD PUSH1 0x20 PUSH1 0x40 MLOAD DUP1 DUP4 SUB DUP2 DUP7 DUP1 EXTCODESIZE ISZERO DUP1 ISZERO PUSH2 0x652 JUMPI PUSH1 0x0 DUP1 REVERT JUMPDEST POP GAS STATICCALL ISZERO DUP1 ISZERO PUSH2 0x666 JUMPI RETURNDATASIZE PUSH1 0x0 DUP1 RETURNDATACOPY RETURNDATASIZE PUSH1 0x0 REVERT JUMPDEST POP POP POP POP PUSH1 0x40 MLOAD RETURNDATASIZE PUSH1 0x20 DUP2 LT ISZERO PUSH2 0x67C JUMPI PUSH1 0x0 DUP1 REVERT JUMPDEST DUP2 ADD SWAP1 DUP1 DUP1 MLOAD SWAP1 PUSH1 0x20 ADD SWAP1 SWAP3 SWAP2 SWAP1 POP POP POP SWAP1 POP SWAP1 JUMP JUMPDEST PUSH1 0x0 DUP1 PUSH2 0x73E DUP4 PUSH1 0x40 MLOAD DUP1 PUSH1 0x60 ADD PUSH1 0x40 MSTORE DUP1 PUSH1 0x2C DUP2 MSTORE PUSH1 0x20 ADD PUSH2 0x14E7 PUSH1 0x2C SWAP2 CODECOPY PUSH1 0x4 PUSH1 0x0 DUP10 PUSH20 0xFFFFFFFFFFFFFFFFFFFFFFFFFFFFFFFFFFFFFFFF AND PUSH20 0xFFFFFFFFFFFFFFFFFFFFFFFFFFFFFFFFFFFFFFFF AND DUP2 MSTORE PUSH1 0x20 ADD SWAP1 DUP2 MSTORE PUSH1 0x20 ADD PUSH1 0x0 KECCAK256 PUSH1 0x0 CALLER PUSH20 0xFFFFFFFFFFFFFFFFFFFFFFFFFFFFFFFFFFFFFFFF AND PUSH20 0xFFFFFFFFFFFFFFFFFFFFFFFFFFFFFFFFFFFFFFFF AND DUP2 MSTORE PUSH1 0x20 ADD SWAP1 DUP2 MSTORE PUSH1 0x20 ADD PUSH1 0x0 KECCAK256 SLOAD PUSH2 0xBFB SWAP1 SWAP3 SWAP2 SWAP1 PUSH4 0xFFFFFFFF AND JUMP JUMPDEST SWAP1 POP PUSH2 0x74B DUP6 CALLER DUP4 PUSH2 0xA04 JUMP JUMPDEST PUSH2 0x756 DUP6 DUP6 DUP6 PUSH2 0xCBB JUMP JUMPDEST PUSH1 0x1 SWAP2 POP POP SWAP4 SWAP3 POP POP POP JUMP JUMPDEST PUSH1 0x12 DUP2 JUMP JUMPDEST PUSH1 0x4 PUSH1 0x20 MSTORE DUP2 PUSH1 0x0 MSTORE PUSH1 0x40 PUSH1 0x0 KECCAK256 PUSH1 0x20 MSTORE DUP1 PUSH1 0x0 MSTORE PUSH1 0x40 PUSH1 0x0 KECCAK256 PUSH1 0x0 SWAP2 POP SWAP2 POP POP SLOAD DUP2 JUMP JUMPDEST PUSH1 0x0 PUSH1 0x3 PUSH1 0x0 SWAP1 SLOAD SWAP1 PUSH2 0x100 EXP SWAP1 DIV PUSH20 0xFFFFFFFFFFFFFFFFFFFFFFFFFFFFFFFFFFFFFFFF AND PUSH20 0xFFFFFFFFFFFFFFFFFFFFFFFFFFFFFFFFFFFFFFFF AND PUSH4 0xF5D9D63E DUP4 PUSH1 0x0 DUP1 SLOAD SWAP1 PUSH2 0x100 EXP SWAP1 DIV PUSH20 0xFFFFFFFFFFFFFFFFFFFFFFFFFFFFFFFFFFFFFFFF AND PUSH1 0x40 MLOAD DUP4 PUSH4 0xFFFFFFFF AND PUSH1 0xE0 SHL DUP2 MSTORE PUSH1 0x4 ADD DUP1 DUP4 PUSH20 0xFFFFFFFFFFFFFFFFFFFFFFFFFFFFFFFFFFFFFFFF AND DUP2 MSTORE PUSH1 0x20 ADD DUP3 PUSH20 0xFFFFFFFFFFFFFFFFFFFFFFFFFFFFFFFFFFFFFFFF AND DUP2 MSTORE PUSH1 0x20 ADD SWAP3 POP POP POP PUSH1 0x20 PUSH1 0x40 MLOAD DUP1 DUP4 SUB DUP2 DUP7 DUP1 EXTCODESIZE ISZERO DUP1 ISZERO PUSH2 0x855 JUMPI PUSH1 0x0 DUP1 REVERT JUMPDEST POP GAS STATICCALL ISZERO DUP1 ISZERO PUSH2 0x869 JUMPI RETURNDATASIZE PUSH1 0x0 DUP1 RETURNDATACOPY RETURNDATASIZE PUSH1 0x0 REVERT JUMPDEST POP POP POP POP PUSH1 0x40 MLOAD RETURNDATASIZE PUSH1 0x20 DUP2 LT ISZERO PUSH2 0x87F JUMPI PUSH1 0x0 DUP1 REVERT JUMPDEST DUP2 ADD SWAP1 DUP1 DUP1 MLOAD SWAP1 PUSH1 0x20 ADD SWAP1 SWAP3 SWAP2 SWAP1 POP POP POP SWAP1 POP SWAP2 SWAP1 POP JUMP JUMPDEST PUSH1 0x0 DUP1 SLOAD SWAP1 PUSH2 0x100 EXP SWAP1 DIV PUSH20 0xFFFFFFFFFFFFFFFFFFFFFFFFFFFFFFFFFFFFFFFF AND DUP2 JUMP JUMPDEST PUSH1 0x40 MLOAD DUP1 PUSH1 0x40 ADD PUSH1 0x40 MSTORE DUP1 PUSH1 0x4 DUP2 MSTORE PUSH1 0x20 ADD PUSH32 0x73474C5000000000000000000000000000000000000000000000000000000000 DUP2 MSTORE POP DUP2 JUMP JUMPDEST PUSH1 0x0 PUSH2 0x901 CALLER DUP5 DUP5 PUSH2 0xCBB JUMP JUMPDEST PUSH1 0x1 SWAP1 POP SWAP3 SWAP2 POP POP JUMP JUMPDEST PUSH1 0x2 PUSH1 0x0 SWAP1 SLOAD SWAP1 PUSH2 0x100 EXP SWAP1 DIV PUSH20 0xFFFFFFFFFFFFFFFFFFFFFFFFFFFFFFFFFFFFFFFF AND DUP2 JUMP JUMPDEST PUSH1 0x0 PUSH1 0x4 PUSH1 0x0 DUP5 PUSH20 0xFFFFFFFFFFFFFFFFFFFFFFFFFFFFFFFFFFFFFFFF AND PUSH20 0xFFFFFFFFFFFFFFFFFFFFFFFFFFFFFFFFFFFFFFFF AND DUP2 MSTORE PUSH1 0x20 ADD SWAP1 DUP2 MSTORE PUSH1 0x20 ADD PUSH1 0x0 KECCAK256 PUSH1 0x0 DUP4 PUSH20 0xFFFFFFFFFFFFFFFFFFFFFFFFFFFFFFFFFFFFFFFF AND PUSH20 0xFFFFFFFFFFFFFFFFFFFFFFFFFFFFFFFFFFFFFFFF AND DUP2 MSTORE PUSH1 0x20 ADD SWAP1 DUP2 MSTORE PUSH1 0x20 ADD PUSH1 0x0 KECCAK256 SLOAD SWAP1 POP SWAP3 SWAP2 POP POP JUMP JUMPDEST PUSH1 0x3 PUSH1 0x0 SWAP1 SLOAD SWAP1 PUSH2 0x100 EXP SWAP1 DIV PUSH20 0xFFFFFFFFFFFFFFFFFFFFFFFFFFFFFFFFFFFFFFFF AND DUP2 JUMP JUMPDEST PUSH1 0x1 PUSH1 0x0 SWAP1 SLOAD SWAP1 PUSH2 0x100 EXP SWAP1 DIV PUSH20 0xFFFFFFFFFFFFFFFFFFFFFFFFFFFFFFFFFFFFFFFF AND DUP2 JUMP JUMPDEST PUSH1 0x0 PUSH20 0xFFFFFFFFFFFFFFFFFFFFFFFFFFFFFFFFFFFFFFFF AND DUP4 PUSH20 0xFFFFFFFFFFFFFFFFFFFFFFFFFFFFFFFFFFFFFFFF AND EQ ISZERO PUSH2 0xA8A JUMPI PUSH1 0x40 MLOAD PUSH32 0x8C379A000000000000000000000000000000000000000000000000000000000 DUP2 MSTORE PUSH1 0x4 ADD DUP1 DUP1 PUSH1 0x20 ADD DUP3 DUP2 SUB DUP3 MSTORE PUSH1 0x28 DUP2 MSTORE PUSH1 0x20 ADD DUP1 PUSH2 0x1472 PUSH1 0x28 SWAP2 CODECOPY PUSH1 0x40 ADD SWAP2 POP POP PUSH1 0x40 MLOAD DUP1 SWAP2 SUB SWAP1 REVERT JUMPDEST PUSH1 0x0 PUSH20 0xFFFFFFFFFFFFFFFFFFFFFFFFFFFFFFFFFFFFFFFF AND DUP3 PUSH20 0xFFFFFFFFFFFFFFFFFFFFFFFFFFFFFFFFFFFFFFFF AND EQ ISZERO PUSH2 0xB10 JUMPI PUSH1 0x40 MLOAD PUSH32 0x8C379A000000000000000000000000000000000000000000000000000000000 DUP2 MSTORE PUSH1 0x4 ADD DUP1 DUP1 PUSH1 0x20 ADD DUP3 DUP2 SUB DUP3 MSTORE PUSH1 0x26 DUP2 MSTORE PUSH1 0x20 ADD DUP1 PUSH2 0x149A PUSH1 0x26 SWAP2 CODECOPY PUSH1 0x40 ADD SWAP2 POP POP PUSH1 0x40 MLOAD DUP1 SWAP2 SUB SWAP1 REVERT JUMPDEST DUP1 PUSH1 0x4 PUSH1 0x0 DUP6 PUSH20 0xFFFFFFFFFFFFFFFFFFFFFFFFFFFFFFFFFFFFFFFF AND PUSH20 0xFFFFFFFFFFFFFFFFFFFFFFFFFFFFFFFFFFFFFFFF AND DUP2 MSTORE PUSH1 0x20 ADD SWAP1 DUP2 MSTORE PUSH1 0x20 ADD PUSH1 0x0 KECCAK256 PUSH1 0x0 DUP5 PUSH20 0xFFFFFFFFFFFFFFFFFFFFFFFFFFFFFFFFFFFFFFFF AND PUSH20 0xFFFFFFFFFFFFFFFFFFFFFFFFFFFFFFFFFFFFFFFF AND DUP2 MSTORE PUSH1 0x20 ADD SWAP1 DUP2 MSTORE PUSH1 0x20 ADD PUSH1 0x0 KECCAK256 DUP2 SWAP1 SSTORE POP DUP2 PUSH20 0xFFFFFFFFFFFFFFFFFFFFFFFFFFFFFFFFFFFFFFFF AND DUP4 PUSH20 0xFFFFFFFFFFFFFFFFFFFFFFFFFFFFFFFFFFFFFFFF AND PUSH32 0x8C5BE1E5EBEC7D5BD14F71427D1E84F3DD0314C0F7B2291E5B200AC8C7C3B925 DUP4 PUSH1 0x40 MLOAD DUP1 DUP3 DUP2 MSTORE PUSH1 0x20 ADD SWAP2 POP POP PUSH1 0x40 MLOAD DUP1 SWAP2 SUB SWAP1 LOG3 POP POP POP JUMP JUMPDEST PUSH1 0x0 DUP4 DUP4 GT ISZERO DUP3 SWAP1 PUSH2 0xCA8 JUMPI PUSH1 0x40 MLOAD PUSH32 0x8C379A000000000000000000000000000000000000000000000000000000000 DUP2 MSTORE PUSH1 0x4 ADD DUP1 DUP1 PUSH1 0x20 ADD DUP3 DUP2 SUB DUP3 MSTORE DUP4 DUP2 DUP2 MLOAD DUP2 MSTORE PUSH1 0x20 ADD SWAP2 POP DUP1 MLOAD SWAP1 PUSH1 0x20 ADD SWAP1 DUP1 DUP4 DUP4 PUSH1 0x0 JUMPDEST DUP4 DUP2 LT ISZERO PUSH2 0xC6D JUMPI DUP1 DUP3 ADD MLOAD DUP2 DUP5 ADD MSTORE PUSH1 0x20 DUP2 ADD SWAP1 POP PUSH2 0xC52 JUMP JUMPDEST POP POP POP POP SWAP1 POP SWAP1 DUP2 ADD SWAP1 PUSH1 0x1F AND DUP1 ISZERO PUSH2 0xC9A JUMPI DUP1 DUP3 SUB DUP1 MLOAD PUSH1 0x1 DUP4 PUSH1 0x20 SUB PUSH2 0x100 EXP SUB NOT AND DUP2 MSTORE PUSH1 0x20 ADD SWAP2 POP JUMPDEST POP SWAP3 POP POP POP PUSH1 0x40 MLOAD DUP1 SWAP2 SUB SWAP1 REVERT JUMPDEST POP PUSH1 0x0 DUP4 DUP6 SUB SWAP1 POP DUP1 SWAP2 POP POP SWAP4 SWAP3 POP POP POP JUMP JUMPDEST PUSH1 0x0 PUSH20 0xFFFFFFFFFFFFFFFFFFFFFFFFFFFFFFFFFFFFFFFF AND DUP4 PUSH20 0xFFFFFFFFFFFFFFFFFFFFFFFFFFFFFFFFFFFFFFFF AND EQ ISZERO PUSH2 0xD41 JUMPI PUSH1 0x40 MLOAD PUSH32 0x8C379A000000000000000000000000000000000000000000000000000000000 DUP2 MSTORE PUSH1 0x4 ADD DUP1 DUP1 PUSH1 0x20 ADD DUP3 DUP2 SUB DUP3 MSTORE PUSH1 0x29 DUP2 MSTORE PUSH1 0x20 ADD DUP1 PUSH2 0x1449 PUSH1 0x29 SWAP2 CODECOPY PUSH1 0x40 ADD SWAP2 POP POP PUSH1 0x40 MLOAD DUP1 SWAP2 SUB SWAP1 REVERT JUMPDEST PUSH1 0x0 PUSH20 0xFFFFFFFFFFFFFFFFFFFFFFFFFFFFFFFFFFFFFFFF AND DUP3 PUSH20 0xFFFFFFFFFFFFFFFFFFFFFFFFFFFFFFFFFFFFFFFF AND EQ ISZERO PUSH2 0xDC7 JUMPI PUSH1 0x40 MLOAD PUSH32 0x8C379A000000000000000000000000000000000000000000000000000000000 DUP2 MSTORE PUSH1 0x4 ADD DUP1 DUP1 PUSH1 0x20 ADD DUP3 DUP2 SUB DUP3 MSTORE PUSH1 0x27 DUP2 MSTORE PUSH1 0x20 ADD DUP1 PUSH2 0x14C0 PUSH1 0x27 SWAP2 CODECOPY PUSH1 0x40 ADD SWAP2 POP POP PUSH1 0x40 MLOAD DUP1 SWAP2 SUB SWAP1 REVERT JUMPDEST TIMESTAMP PUSH2 0xF44 PUSH1 0x1 PUSH1 0x0 SWAP1 SLOAD SWAP1 PUSH2 0x100 EXP SWAP1 DIV PUSH20 0xFFFFFFFFFFFFFFFFFFFFFFFFFFFFFFFFFFFFFFFF AND PUSH20 0xFFFFFFFFFFFFFFFFFFFFFFFFFFFFFFFFFFFFFFFF AND PUSH4 0x35269315 PUSH1 0x40 MLOAD DUP2 PUSH4 0xFFFFFFFF AND PUSH1 0xE0 SHL DUP2 MSTORE PUSH1 0x4 ADD PUSH1 0x20 PUSH1 0x40 MLOAD DUP1 DUP4 SUB DUP2 PUSH1 0x0 DUP8 DUP1 EXTCODESIZE ISZERO DUP1 ISZERO PUSH2 0xE35 JUMPI PUSH1 0x0 DUP1 REVERT JUMPDEST POP GAS CALL ISZERO DUP1 ISZERO PUSH2 0xE49 JUMPI RETURNDATASIZE PUSH1 0x0 DUP1 RETURNDATACOPY RETURNDATASIZE PUSH1 0x0 REVERT JUMPDEST POP POP POP POP PUSH1 0x40 MLOAD RETURNDATASIZE PUSH1 0x20 DUP2 LT ISZERO PUSH2 0xE5F JUMPI PUSH1 0x0 DUP1 REVERT JUMPDEST DUP2 ADD SWAP1 DUP1 DUP1 MLOAD SWAP1 PUSH1 0x20 ADD SWAP1 SWAP3 SWAP2 SWAP1 POP POP POP PUSH1 0x1 PUSH1 0x0 SWAP1 SLOAD SWAP1 PUSH2 0x100 EXP SWAP1 DIV PUSH20 0xFFFFFFFFFFFFFFFFFFFFFFFFFFFFFFFFFFFFFFFF AND PUSH20 0xFFFFFFFFFFFFFFFFFFFFFFFFFFFFFFFFFFFFFFFF AND PUSH4 0x8B770E11 DUP8 PUSH1 0x40 MLOAD DUP3 PUSH4 0xFFFFFFFF AND PUSH1 0xE0 SHL DUP2 MSTORE PUSH1 0x4 ADD DUP1 DUP3 PUSH20 0xFFFFFFFFFFFFFFFFFFFFFFFFFFFFFFFFFFFFFFFF AND DUP2 MSTORE PUSH1 0x20 ADD SWAP2 POP POP PUSH1 0x20 PUSH1 0x40 MLOAD DUP1 DUP4 SUB DUP2 PUSH1 0x0 DUP8 DUP1 EXTCODESIZE ISZERO DUP1 ISZERO PUSH2 0xEFB JUMPI PUSH1 0x0 DUP1 REVERT JUMPDEST POP GAS CALL ISZERO DUP1 ISZERO PUSH2 0xF0F JUMPI RETURNDATASIZE PUSH1 0x0 DUP1 RETURNDATACOPY RETURNDATASIZE PUSH1 0x0 REVERT JUMPDEST POP POP POP POP PUSH1 0x40 MLOAD RETURNDATASIZE PUSH1 0x20 DUP2 LT ISZERO PUSH2 0xF25 JUMPI PUSH1 0x0 DUP1 REVERT JUMPDEST DUP2 ADD SWAP1 DUP1 DUP1 MLOAD SWAP1 PUSH1 0x20 ADD SWAP1 SWAP3 SWAP2 SWAP1 POP POP POP PUSH2 0x13C0 SWAP1 SWAP2 SWAP1 PUSH4 0xFFFFFFFF AND JUMP JUMPDEST GT ISZERO PUSH2 0xF9B JUMPI PUSH1 0x40 MLOAD PUSH32 0x8C379A000000000000000000000000000000000000000000000000000000000 DUP2 MSTORE PUSH1 0x4 ADD DUP1 DUP1 PUSH1 0x20 ADD DUP3 DUP2 SUB DUP3 MSTORE PUSH1 0x2B DUP2 MSTORE PUSH1 0x20 ADD DUP1 PUSH2 0x1513 PUSH1 0x2B SWAP2 CODECOPY PUSH1 0x40 ADD SWAP2 POP POP PUSH1 0x40 MLOAD DUP1 SWAP2 SUB SWAP1 REVERT JUMPDEST PUSH1 0x2 PUSH1 0x0 SWAP1 SLOAD SWAP1 PUSH2 0x100 EXP SWAP1 DIV PUSH20 0xFFFFFFFFFFFFFFFFFFFFFFFFFFFFFFFFFFFFFFFF AND PUSH20 0xFFFFFFFFFFFFFFFFFFFFFFFFFFFFFFFFFFFFFFFF AND PUSH4 0x98BF59D DUP5 PUSH1 0x3 PUSH1 0x0 SWAP1 SLOAD SWAP1 PUSH2 0x100 EXP SWAP1 DIV PUSH20 0xFFFFFFFFFFFFFFFFFFFFFFFFFFFFFFFFFFFFFFFF AND DUP5 DUP8 PUSH1 0x40 MLOAD DUP6 PUSH4 0xFFFFFFFF AND PUSH1 0xE0 SHL DUP2 MSTORE PUSH1 0x4 ADD DUP1 DUP6 PUSH20 0xFFFFFFFFFFFFFFFFFFFFFFFFFFFFFFFFFFFFFFFF AND DUP2 MSTORE PUSH1 0x20 ADD DUP5 PUSH20 0xFFFFFFFFFFFFFFFFFFFFFFFFFFFFFFFFFFFFFFFF AND DUP2 MSTORE PUSH1 0x20 ADD DUP4 DUP2 MSTORE PUSH1 0x20 ADD DUP3 PUSH20 0xFFFFFFFFFFFFFFFFFFFFFFFFFFFFFFFFFFFFFFFF AND DUP2 MSTORE PUSH1 0x20 ADD SWAP5 POP POP POP POP POP PUSH1 0x0 PUSH1 0x40 MLOAD DUP1 DUP4 SUB DUP2 PUSH1 0x0 DUP8 DUP1 EXTCODESIZE ISZERO DUP1 ISZERO PUSH2 0x108C JUMPI PUSH1 0x0 DUP1 REVERT JUMPDEST POP GAS CALL ISZERO DUP1 ISZERO PUSH2 0x10A0 JUMPI RETURNDATASIZE PUSH1 0x0 DUP1 RETURNDATACOPY RETURNDATASIZE PUSH1 0x0 REVERT JUMPDEST POP POP POP POP PUSH1 0x3 PUSH1 0x0 SWAP1 SLOAD SWAP1 PUSH2 0x100 EXP SWAP1 DIV PUSH20 0xFFFFFFFFFFFFFFFFFFFFFFFFFFFFFFFFFFFFFFFF AND PUSH20 0xFFFFFFFFFFFFFFFFFFFFFFFFFFFFFFFFFFFFFFFF AND PUSH4 0x98BF59D DUP5 PUSH1 0x0 DUP1 SLOAD SWAP1 PUSH2 0x100 EXP SWAP1 DIV PUSH20 0xFFFFFFFFFFFFFFFFFFFFFFFFFFFFFFFFFFFFFFFF AND DUP5 DUP8 PUSH1 0x40 MLOAD DUP6 PUSH4 0xFFFFFFFF AND PUSH1 0xE0 SHL DUP2 MSTORE PUSH1 0x4 ADD DUP1 DUP6 PUSH20 0xFFFFFFFFFFFFFFFFFFFFFFFFFFFFFFFFFFFFFFFF AND DUP2 MSTORE PUSH1 0x20 ADD DUP5 PUSH20 0xFFFFFFFFFFFFFFFFFFFFFFFFFFFFFFFFFFFFFFFF AND DUP2 MSTORE PUSH1 0x20 ADD DUP4 DUP2 MSTORE PUSH1 0x20 ADD DUP3 PUSH20 0xFFFFFFFFFFFFFFFFFFFFFFFFFFFFFFFFFFFFFFFF AND DUP2 MSTORE PUSH1 0x20 ADD SWAP5 POP POP POP POP POP PUSH1 0x0 PUSH1 0x40 MLOAD DUP1 DUP4 SUB DUP2 PUSH1 0x0 DUP8 DUP1 EXTCODESIZE ISZERO DUP1 ISZERO PUSH2 0x1193 JUMPI PUSH1 0x0 DUP1 REVERT JUMPDEST POP GAS CALL ISZERO DUP1 ISZERO PUSH2 0x11A7 JUMPI RETURNDATASIZE PUSH1 0x0 DUP1 RETURNDATACOPY RETURNDATASIZE PUSH1 0x0 REVERT JUMPDEST POP POP POP POP PUSH1 0x3 PUSH1 0x0 SWAP1 SLOAD SWAP1 PUSH2 0x100 EXP SWAP1 DIV PUSH20 0xFFFFFFFFFFFFFFFFFFFFFFFFFFFFFFFFFFFFFFFF AND PUSH20 0xFFFFFFFFFFFFFFFFFFFFFFFFFFFFFFFFFFFFFFFF AND PUSH4 0x790B5A6C DUP5 DUP5 PUSH1 0x0 DUP1 SLOAD SWAP1 PUSH2 0x100 EXP SWAP1 DIV PUSH20 0xFFFFFFFFFFFFFFFFFFFFFFFFFFFFFFFFFFFFFFFF AND DUP6 PUSH1 0x40 MLOAD DUP6 PUSH4 0xFFFFFFFF AND PUSH1 0xE0 SHL DUP2 MSTORE PUSH1 0x4 ADD DUP1 DUP6 PUSH20 0xFFFFFFFFFFFFFFFFFFFFFFFFFFFFFFFFFFFFFFFF AND DUP2 MSTORE PUSH1 0x20 ADD DUP5 PUSH20 0xFFFFFFFFFFFFFFFFFFFFFFFFFFFFFFFFFFFFFFFF AND DUP2 MSTORE PUSH1 0x20 ADD DUP4 PUSH20 0xFFFFFFFFFFFFFFFFFFFFFFFFFFFFFFFFFFFFFFFF AND DUP2 MSTORE PUSH1 0x20 ADD DUP3 DUP2 MSTORE PUSH1 0x20 ADD SWAP5 POP POP POP POP POP PUSH1 0x0 PUSH1 0x40 MLOAD DUP1 DUP4 SUB DUP2 PUSH1 0x0 DUP8 DUP1 EXTCODESIZE ISZERO DUP1 ISZERO PUSH2 0x129A JUMPI PUSH1 0x0 DUP1 REVERT JUMPDEST POP GAS CALL ISZERO DUP1 ISZERO PUSH2 0x12AE JUMPI RETURNDATASIZE PUSH1 0x0 DUP1 RETURNDATACOPY RETURNDATASIZE PUSH1 0x0 REVERT JUMPDEST POP POP POP POP PUSH1 0x2 PUSH1 0x0 SWAP1 SLOAD SWAP1 PUSH2 0x100 EXP SWAP1 DIV PUSH20 0xFFFFFFFFFFFFFFFFFFFFFFFFFFFFFFFFFFFFFFFF AND PUSH20 0xFFFFFFFFFFFFFFFFFFFFFFFFFFFFFFFFFFFFFFFF AND PUSH4 0x790B5A6C DUP4 DUP5 PUSH1 0x3 PUSH1 0x0 SWAP1 SLOAD SWAP1 PUSH2 0x100 EXP SWAP1 DIV PUSH20 0xFFFFFFFFFFFFFFFFFFFFFFFFFFFFFFFFFFFFFFFF AND DUP6 PUSH1 0x40 MLOAD DUP6 PUSH4 0xFFFFFFFF AND PUSH1 0xE0 SHL DUP2 MSTORE PUSH1 0x4 ADD DUP1 DUP6 PUSH20 0xFFFFFFFFFFFFFFFFFFFFFFFFFFFFFFFFFFFFFFFF AND DUP2 MSTORE PUSH1 0x20 ADD DUP5 PUSH20 0xFFFFFFFFFFFFFFFFFFFFFFFFFFFFFFFFFFFFFFFF AND DUP2 MSTORE PUSH1 0x20 ADD DUP4 PUSH20 0xFFFFFFFFFFFFFFFFFFFFFFFFFFFFFFFFFFFFFFFF AND DUP2 MSTORE PUSH1 0x20 ADD DUP3 DUP2 MSTORE PUSH1 0x20 ADD SWAP5 POP POP POP POP POP PUSH1 0x0 PUSH1 0x40 MLOAD DUP1 DUP4 SUB DUP2 PUSH1 0x0 DUP8 DUP1 EXTCODESIZE ISZERO DUP1 ISZERO PUSH2 0x13A3 JUMPI PUSH1 0x0 DUP1 REVERT JUMPDEST POP GAS CALL ISZERO DUP1 ISZERO PUSH2 0x13B7 JUMPI RETURNDATASIZE PUSH1 0x0 DUP1 RETURNDATACOPY RETURNDATASIZE PUSH1 0x0 REVERT JUMPDEST POP POP POP POP POP POP POP JUMP JUMPDEST PUSH1 0x0 DUP1 DUP3 DUP5 ADD SWAP1 POP DUP4 DUP2 LT ISZERO PUSH2 0x143E JUMPI PUSH1 0x40 MLOAD PUSH32 0x8C379A000000000000000000000000000000000000000000000000000000000 DUP2 MSTORE PUSH1 0x4 ADD DUP1 DUP1 PUSH1 0x20 ADD DUP3 DUP2 SUB DUP3 MSTORE PUSH1 0x1B DUP2 MSTORE PUSH1 0x20 ADD DUP1 PUSH32 0x536166654D6174683A206164646974696F6E206F766572666C6F770000000000 DUP2 MSTORE POP PUSH1 0x20 ADD SWAP2 POP POP PUSH1 0x40 MLOAD DUP1 SWAP2 SUB SWAP1 REVERT JUMPDEST DUP1 SWAP2 POP POP SWAP3 SWAP2 POP POP JUMP INVALID MSTORE8 PUSH21 0x616B6564476C703A207472616E736665722066726F PUSH14 0x20746865207A65726F2061646472 PUSH6 0x73735374616B PUSH6 0x64476C703A20 PUSH2 0x7070 PUSH19 0x6F76652066726F6D20746865207A65726F2061 PUSH5 0x6472657373 MSTORE8 PUSH21 0x616B6564476C703A20617070726F766520746F2074 PUSH9 0x65207A65726F206164 PUSH5 0x7265737353 PUSH21 0x616B6564476C703A207472616E7366657220746F20 PUSH21 0x6865207A65726F20616464726573735374616B6564 SELFBALANCE PUSH13 0x703A207472616E736665722061 PUSH14 0x6F756E7420657863656564732061 PUSH13 0x6C6F77616E63655374616B6564 SELFBALANCE PUSH13 0x703A20636F6F6C646F776E2064 PUSH22 0x726174696F6E206E6F742079657420706173736564A2 PUSH5 0x6970667358 0x22 SLT KECCAK256 PUSH17 0x14D527A098114DC300AAAF05F18FFB2C92 CREATE REVERT SWAP14 REVERT 0xDF PUSH21 0xDC0C3A88FC00117864736F6C634300060C00330000 "
				},
				"gasEstimates": {
					"creation": {
						"codeDepositCost": "1098200",
						"executionCost": "infinite",
						"totalCost": "infinite"
					},
					"external": {
						"allowance(address,address)": "1365",
						"allowances(address,address)": "1334",
						"approve(address,uint256)": "infinite",
						"balanceOf(address)": "infinite",
						"decimals()": "256",
						"feeGlpTracker()": "1113",
						"glp()": "1067",
						"glpManager()": "1135",
						"name()": "infinite",
						"stakedGlpTracker()": "1069",
						"symbol()": "infinite",
						"totalSupply()": "infinite",
						"transfer(address,uint256)": "infinite",
						"transferFrom(address,address,uint256)": "infinite"
					},
					"internal": {
						"_approve(address,address,uint256)": "infinite",
						"_transfer(address,address,uint256)": "infinite"
					}
				},
				"methodIdentifiers": {
					"allowance(address,address)": "dd62ed3e",
					"allowances(address,address)": "55b6ed5c",
					"approve(address,uint256)": "095ea7b3",
					"balanceOf(address)": "70a08231",
					"decimals()": "313ce567",
					"feeGlpTracker()": "e1c363b7",
					"glp()": "78a207ee",
					"glpManager()": "fa6db1bc",
					"name()": "06fdde03",
					"stakedGlpTracker()": "af394d00",
					"symbol()": "95d89b41",
					"totalSupply()": "18160ddd",
					"transfer(address,uint256)": "a9059cbb",
					"transferFrom(address,address,uint256)": "23b872dd"
				}
			},
			"storageLayout": {
				"storage": [
					{
						"astId": 1282,
						"contract": "gist-e69a4d62287211e39cb91b3b65937ff5/StakedGlp.sol:StakedGlp",
						"label": "glp",
						"offset": 0,
						"slot": "0",
						"type": "t_address"
					},
					{
						"astId": 1284,
						"contract": "gist-e69a4d62287211e39cb91b3b65937ff5/StakedGlp.sol:StakedGlp",
						"label": "glpManager",
						"offset": 0,
						"slot": "1",
						"type": "t_contract(IGlpManager)183"
					},
					{
						"astId": 1286,
						"contract": "gist-e69a4d62287211e39cb91b3b65937ff5/StakedGlp.sol:StakedGlp",
						"label": "stakedGlpTracker",
						"offset": 0,
						"slot": "2",
						"type": "t_address"
					},
					{
						"astId": 1288,
						"contract": "gist-e69a4d62287211e39cb91b3b65937ff5/StakedGlp.sol:StakedGlp",
						"label": "feeGlpTracker",
						"offset": 0,
						"slot": "3",
						"type": "t_address"
					},
					{
						"astId": 1294,
						"contract": "gist-e69a4d62287211e39cb91b3b65937ff5/StakedGlp.sol:StakedGlp",
						"label": "allowances",
						"offset": 0,
						"slot": "4",
						"type": "t_mapping(t_address,t_mapping(t_address,t_uint256))"
					}
				],
				"types": {
					"t_address": {
						"encoding": "inplace",
						"label": "address",
						"numberOfBytes": "20"
					},
					"t_contract(IGlpManager)183": {
						"encoding": "inplace",
						"label": "contract IGlpManager",
						"numberOfBytes": "20"
					},
					"t_mapping(t_address,t_mapping(t_address,t_uint256))": {
						"encoding": "mapping",
						"key": "t_address",
						"label": "mapping(address => mapping(address => uint256))",
						"numberOfBytes": "32",
						"value": "t_mapping(t_address,t_uint256)"
					},
					"t_mapping(t_address,t_uint256)": {
						"encoding": "mapping",
						"key": "t_address",
						"label": "mapping(address => uint256)",
						"numberOfBytes": "32",
						"value": "t_uint256"
					},
					"t_uint256": {
						"encoding": "inplace",
						"label": "uint256",
						"numberOfBytes": "32"
					}
				}
			},
			"userdoc": {
				"kind": "user",
				"methods": {},
				"version": 1
			}
		}
	}
}