{
	"gist-b9df1f47d280e3707a3b6d35cd582bc9/GlpManager.sol": {
		"GlpManager": {
			"abi": [
				{
					"inputs": [
						{
							"internalType": "address",
							"name": "_vault",
							"type": "address"
						},
						{
							"internalType": "address",
							"name": "_usdg",
							"type": "address"
						},
						{
							"internalType": "address",
							"name": "_glp",
							"type": "address"
						},
						{
							"internalType": "address",
							"name": "_shortsTracker",
							"type": "address"
						},
						{
							"internalType": "uint256",
							"name": "_cooldownDuration",
							"type": "uint256"
						}
					],
					"stateMutability": "nonpayable",
					"type": "constructor"
				},
				{
					"anonymous": false,
					"inputs": [
						{
							"indexed": false,
							"internalType": "address",
							"name": "account",
							"type": "address"
						},
						{
							"indexed": false,
							"internalType": "address",
							"name": "token",
							"type": "address"
						},
						{
							"indexed": false,
							"internalType": "uint256",
							"name": "amount",
							"type": "uint256"
						},
						{
							"indexed": false,
							"internalType": "uint256",
							"name": "aumInUsdg",
							"type": "uint256"
						},
						{
							"indexed": false,
							"internalType": "uint256",
							"name": "glpSupply",
							"type": "uint256"
						},
						{
							"indexed": false,
							"internalType": "uint256",
							"name": "usdgAmount",
							"type": "uint256"
						},
						{
							"indexed": false,
							"internalType": "uint256",
							"name": "mintAmount",
							"type": "uint256"
						}
					],
					"name": "AddLiquidity",
					"type": "event"
				},
				{
					"anonymous": false,
					"inputs": [
						{
							"indexed": false,
							"internalType": "address",
							"name": "account",
							"type": "address"
						},
						{
							"indexed": false,
							"internalType": "address",
							"name": "token",
							"type": "address"
						},
						{
							"indexed": false,
							"internalType": "uint256",
							"name": "glpAmount",
							"type": "uint256"
						},
						{
							"indexed": false,
							"internalType": "uint256",
							"name": "aumInUsdg",
							"type": "uint256"
						},
						{
							"indexed": false,
							"internalType": "uint256",
							"name": "glpSupply",
							"type": "uint256"
						},
						{
							"indexed": false,
							"internalType": "uint256",
							"name": "usdgAmount",
							"type": "uint256"
						},
						{
							"indexed": false,
							"internalType": "uint256",
							"name": "amountOut",
							"type": "uint256"
						}
					],
					"name": "RemoveLiquidity",
					"type": "event"
				},
				{
					"inputs": [],
					"name": "BASIS_POINTS_DIVISOR",
					"outputs": [
						{
							"internalType": "uint256",
							"name": "",
							"type": "uint256"
						}
					],
					"stateMutability": "view",
					"type": "function"
				},
				{
					"inputs": [],
					"name": "GLP_PRECISION",
					"outputs": [
						{
							"internalType": "uint256",
							"name": "",
							"type": "uint256"
						}
					],
					"stateMutability": "view",
					"type": "function"
				},
				{
					"inputs": [],
					"name": "MAX_COOLDOWN_DURATION",
					"outputs": [
						{
							"internalType": "uint256",
							"name": "",
							"type": "uint256"
						}
					],
					"stateMutability": "view",
					"type": "function"
				},
				{
					"inputs": [],
					"name": "PRICE_PRECISION",
					"outputs": [
						{
							"internalType": "uint256",
							"name": "",
							"type": "uint256"
						}
					],
					"stateMutability": "view",
					"type": "function"
				},
				{
					"inputs": [],
					"name": "USDG_DECIMALS",
					"outputs": [
						{
							"internalType": "uint256",
							"name": "",
							"type": "uint256"
						}
					],
					"stateMutability": "view",
					"type": "function"
				},
				{
					"inputs": [
						{
							"internalType": "address",
							"name": "_token",
							"type": "address"
						},
						{
							"internalType": "uint256",
							"name": "_amount",
							"type": "uint256"
						},
						{
							"internalType": "uint256",
							"name": "_minUsdg",
							"type": "uint256"
						},
						{
							"internalType": "uint256",
							"name": "_minGlp",
							"type": "uint256"
						}
					],
					"name": "addLiquidity",
					"outputs": [
						{
							"internalType": "uint256",
							"name": "",
							"type": "uint256"
						}
					],
					"stateMutability": "nonpayable",
					"type": "function"
				},
				{
					"inputs": [
						{
							"internalType": "address",
							"name": "_fundingAccount",
							"type": "address"
						},
						{
							"internalType": "address",
							"name": "_account",
							"type": "address"
						},
						{
							"internalType": "address",
							"name": "_token",
							"type": "address"
						},
						{
							"internalType": "uint256",
							"name": "_amount",
							"type": "uint256"
						},
						{
							"internalType": "uint256",
							"name": "_minUsdg",
							"type": "uint256"
						},
						{
							"internalType": "uint256",
							"name": "_minGlp",
							"type": "uint256"
						}
					],
					"name": "addLiquidityForAccount",
					"outputs": [
						{
							"internalType": "uint256",
							"name": "",
							"type": "uint256"
						}
					],
					"stateMutability": "nonpayable",
					"type": "function"
				},
				{
					"inputs": [],
					"name": "aumAddition",
					"outputs": [
						{
							"internalType": "uint256",
							"name": "",
							"type": "uint256"
						}
					],
					"stateMutability": "view",
					"type": "function"
				},
				{
					"inputs": [],
					"name": "aumDeduction",
					"outputs": [
						{
							"internalType": "uint256",
							"name": "",
							"type": "uint256"
						}
					],
					"stateMutability": "view",
					"type": "function"
				},
				{
					"inputs": [],
					"name": "cooldownDuration",
					"outputs": [
						{
							"internalType": "uint256",
							"name": "",
							"type": "uint256"
						}
					],
					"stateMutability": "view",
					"type": "function"
				},
				{
					"inputs": [
						{
							"internalType": "bool",
							"name": "maximise",
							"type": "bool"
						}
					],
					"name": "getAum",
					"outputs": [
						{
							"internalType": "uint256",
							"name": "",
							"type": "uint256"
						}
					],
					"stateMutability": "view",
					"type": "function"
				},
				{
					"inputs": [
						{
							"internalType": "bool",
							"name": "maximise",
							"type": "bool"
						}
					],
					"name": "getAumInUsdg",
					"outputs": [
						{
							"internalType": "uint256",
							"name": "",
							"type": "uint256"
						}
					],
					"stateMutability": "view",
					"type": "function"
				},
				{
					"inputs": [],
					"name": "getAums",
					"outputs": [
						{
							"internalType": "uint256[]",
							"name": "",
							"type": "uint256[]"
						}
					],
					"stateMutability": "view",
					"type": "function"
				},
				{
					"inputs": [
						{
							"internalType": "address",
							"name": "_token",
							"type": "address"
						}
					],
					"name": "getGlobalShortAveragePrice",
					"outputs": [
						{
							"internalType": "uint256",
							"name": "",
							"type": "uint256"
						}
					],
					"stateMutability": "view",
					"type": "function"
				},
				{
					"inputs": [
						{
							"internalType": "address",
							"name": "_token",
							"type": "address"
						},
						{
							"internalType": "uint256",
							"name": "_price",
							"type": "uint256"
						},
						{
							"internalType": "uint256",
							"name": "_size",
							"type": "uint256"
						}
					],
					"name": "getGlobalShortDelta",
					"outputs": [
						{
							"internalType": "uint256",
							"name": "",
							"type": "uint256"
						},
						{
							"internalType": "bool",
							"name": "",
							"type": "bool"
						}
					],
					"stateMutability": "view",
					"type": "function"
				},
				{
					"inputs": [
						{
							"internalType": "bool",
							"name": "_maximise",
							"type": "bool"
						}
					],
					"name": "getPrice",
					"outputs": [
						{
							"internalType": "uint256",
							"name": "",
							"type": "uint256"
						}
					],
					"stateMutability": "view",
					"type": "function"
				},
				{
					"inputs": [],
					"name": "glp",
					"outputs": [
						{
							"internalType": "address",
							"name": "",
							"type": "address"
						}
					],
					"stateMutability": "view",
					"type": "function"
				},
				{
					"inputs": [],
					"name": "gov",
					"outputs": [
						{
							"internalType": "address",
							"name": "",
							"type": "address"
						}
					],
					"stateMutability": "view",
					"type": "function"
				},
				{
					"inputs": [],
					"name": "inPrivateMode",
					"outputs": [
						{
							"internalType": "bool",
							"name": "",
							"type": "bool"
						}
					],
					"stateMutability": "view",
					"type": "function"
				},
				{
					"inputs": [
						{
							"internalType": "address",
							"name": "",
							"type": "address"
						}
					],
					"name": "isHandler",
					"outputs": [
						{
							"internalType": "bool",
							"name": "",
							"type": "bool"
						}
					],
					"stateMutability": "view",
					"type": "function"
				},
				{
					"inputs": [
						{
							"internalType": "address",
							"name": "",
							"type": "address"
						}
					],
					"name": "lastAddedAt",
					"outputs": [
						{
							"internalType": "uint256",
							"name": "",
							"type": "uint256"
						}
					],
					"stateMutability": "view",
					"type": "function"
				},
				{
					"inputs": [
						{
							"internalType": "address",
							"name": "_tokenOut",
							"type": "address"
						},
						{
							"internalType": "uint256",
							"name": "_glpAmount",
							"type": "uint256"
						},
						{
							"internalType": "uint256",
							"name": "_minOut",
							"type": "uint256"
						},
						{
							"internalType": "address",
							"name": "_receiver",
							"type": "address"
						}
					],
					"name": "removeLiquidity",
					"outputs": [
						{
							"internalType": "uint256",
							"name": "",
							"type": "uint256"
						}
					],
					"stateMutability": "nonpayable",
					"type": "function"
				},
				{
					"inputs": [
						{
							"internalType": "address",
							"name": "_account",
							"type": "address"
						},
						{
							"internalType": "address",
							"name": "_tokenOut",
							"type": "address"
						},
						{
							"internalType": "uint256",
							"name": "_glpAmount",
							"type": "uint256"
						},
						{
							"internalType": "uint256",
							"name": "_minOut",
							"type": "uint256"
						},
						{
							"internalType": "address",
							"name": "_receiver",
							"type": "address"
						}
					],
					"name": "removeLiquidityForAccount",
					"outputs": [
						{
							"internalType": "uint256",
							"name": "",
							"type": "uint256"
						}
					],
					"stateMutability": "nonpayable",
					"type": "function"
				},
				{
					"inputs": [
						{
							"internalType": "uint256",
							"name": "_aumAddition",
							"type": "uint256"
						},
						{
							"internalType": "uint256",
							"name": "_aumDeduction",
							"type": "uint256"
						}
					],
					"name": "setAumAdjustment",
					"outputs": [],
					"stateMutability": "nonpayable",
					"type": "function"
				},
				{
					"inputs": [
						{
							"internalType": "uint256",
							"name": "_cooldownDuration",
							"type": "uint256"
						}
					],
					"name": "setCooldownDuration",
					"outputs": [],
					"stateMutability": "nonpayable",
					"type": "function"
				},
				{
					"inputs": [
						{
							"internalType": "address",
							"name": "_gov",
							"type": "address"
						}
					],
					"name": "setGov",
					"outputs": [],
					"stateMutability": "nonpayable",
					"type": "function"
				},
				{
					"inputs": [
						{
							"internalType": "address",
							"name": "_handler",
							"type": "address"
						},
						{
							"internalType": "bool",
							"name": "_isActive",
							"type": "bool"
						}
					],
					"name": "setHandler",
					"outputs": [],
					"stateMutability": "nonpayable",
					"type": "function"
				},
				{
					"inputs": [
						{
							"internalType": "bool",
							"name": "_inPrivateMode",
							"type": "bool"
						}
					],
					"name": "setInPrivateMode",
					"outputs": [],
					"stateMutability": "nonpayable",
					"type": "function"
				},
				{
					"inputs": [
						{
							"internalType": "contract IShortsTracker",
							"name": "_shortsTracker",
							"type": "address"
						}
					],
					"name": "setShortsTracker",
					"outputs": [],
					"stateMutability": "nonpayable",
					"type": "function"
				},
				{
					"inputs": [
						{
							"internalType": "uint256",
							"name": "_shortsTrackerAveragePriceWeight",
							"type": "uint256"
						}
					],
					"name": "setShortsTrackerAveragePriceWeight",
					"outputs": [],
					"stateMutability": "nonpayable",
					"type": "function"
				},
				{
					"inputs": [],
					"name": "shortsTracker",
					"outputs": [
						{
							"internalType": "contract IShortsTracker",
							"name": "",
							"type": "address"
						}
					],
					"stateMutability": "view",
					"type": "function"
				},
				{
					"inputs": [],
					"name": "shortsTrackerAveragePriceWeight",
					"outputs": [
						{
							"internalType": "uint256",
							"name": "",
							"type": "uint256"
						}
					],
					"stateMutability": "view",
					"type": "function"
				},
				{
					"inputs": [],
					"name": "usdg",
					"outputs": [
						{
							"internalType": "address",
							"name": "",
							"type": "address"
						}
					],
					"stateMutability": "view",
					"type": "function"
				},
				{
					"inputs": [],
					"name": "vault",
					"outputs": [
						{
							"internalType": "contract IVault",
							"name": "",
							"type": "address"
						}
					],
					"stateMutability": "view",
					"type": "function"
				}
			],
			"devdoc": {
				"kind": "dev",
				"methods": {},
				"version": 1
			},
			"evm": {
				"assembly": "    /* \"gist-b9df1f47d280e3707a3b6d35cd582bc9/GlpManager.sol\":1569:11676  contract GlpManager is ReentrancyGuard, Governable, IGlpManager {... */\n  mstore(0x40, 0x80)\n    /* \"gist-b9df1f47d280e3707a3b6d35cd582bc9/GlpManager.sol\":2864:3188  constructor(address _vault, address _usdg, address _glp, address _shortsTracker, uint256 _cooldownDuration) public {... */\n  callvalue\n  dup1\n  iszero\n  tag_1\n  jumpi\n  0x00\n  dup1\n  revert\ntag_1:\n  pop\n  mload(0x40)\n  sub(codesize, bytecodeSize)\n  dup1\n  bytecodeSize\n  dup4\n  codecopy\n  dup2\n  dup2\n  add\n  0x40\n  mstore\n  0xa0\n  dup2\n  lt\n  iszero\n  tag_2\n  jumpi\n  0x00\n  dup1\n  revert\ntag_2:\n  dup2\n  add\n  swap1\n  dup1\n  dup1\n  mload\n  swap1\n  0x20\n  add\n  swap1\n  swap3\n  swap2\n  swap1\n  dup1\n  mload\n  swap1\n  0x20\n  add\n  swap1\n  swap3\n  swap2\n  swap1\n  dup1\n  mload\n  swap1\n  0x20\n  add\n  swap1\n  swap3\n  swap2\n  swap1\n  dup1\n  mload\n  swap1\n  0x20\n  add\n  swap1\n  swap3\n  swap2\n  swap1\n  dup1\n  mload\n  swap1\n  0x20\n  add\n  swap1\n  swap3\n  swap2\n  swap1\n  pop\n  pop\n  pop\n    /* \"gist-b9df1f47d280e3707a3b6d35cd582bc9/ReentrancyGuard.sol\":2874:2875  1 */\n  0x01\n    /* \"gist-b9df1f47d280e3707a3b6d35cd582bc9/ReentrancyGuard.sol\":2989:2996  _status */\n  0x00\n    /* \"gist-b9df1f47d280e3707a3b6d35cd582bc9/ReentrancyGuard.sol\":2989:3011  _status = _NOT_ENTERED */\n  dup2\n  swap1\n  sstore\n  pop\n    /* \"gist-b9df1f47d280e3707a3b6d35cd582bc9/Governable.sol\":1392:1402  msg.sender */\n  caller\n    /* \"gist-b9df1f47d280e3707a3b6d35cd582bc9/Governable.sol\":1386:1389  gov */\n  0x01\n  0x00\n    /* \"gist-b9df1f47d280e3707a3b6d35cd582bc9/Governable.sol\":1386:1402  gov = msg.sender */\n  0x0100\n  exp\n  dup2\n  sload\n  dup2\n  0xffffffffffffffffffffffffffffffffffffffff\n  mul\n  not\n  and\n  swap1\n  dup4\n  0xffffffffffffffffffffffffffffffffffffffff\n  and\n  mul\n  or\n  swap1\n  sstore\n  pop\n    /* \"gist-b9df1f47d280e3707a3b6d35cd582bc9/GlpManager.sol\":2995:3005  msg.sender */\n  caller\n    /* \"gist-b9df1f47d280e3707a3b6d35cd582bc9/GlpManager.sol\":2989:2992  gov */\n  0x01\n  0x00\n    /* \"gist-b9df1f47d280e3707a3b6d35cd582bc9/GlpManager.sol\":2989:3005  gov = msg.sender */\n  0x0100\n  exp\n  dup2\n  sload\n  dup2\n  0xffffffffffffffffffffffffffffffffffffffff\n  mul\n  not\n  and\n  swap1\n  dup4\n  0xffffffffffffffffffffffffffffffffffffffff\n  and\n  mul\n  or\n  swap1\n  sstore\n  pop\n    /* \"gist-b9df1f47d280e3707a3b6d35cd582bc9/GlpManager.sol\":3030:3036  _vault */\n  dup5\n    /* \"gist-b9df1f47d280e3707a3b6d35cd582bc9/GlpManager.sol\":3015:3020  vault */\n  0x02\n  0x00\n    /* \"gist-b9df1f47d280e3707a3b6d35cd582bc9/GlpManager.sol\":3015:3037  vault = IVault(_vault) */\n  0x0100\n  exp\n  dup2\n  sload\n  dup2\n  0xffffffffffffffffffffffffffffffffffffffff\n  mul\n  not\n  and\n  swap1\n  dup4\n  0xffffffffffffffffffffffffffffffffffffffff\n  and\n  mul\n  or\n  swap1\n  sstore\n  pop\n    /* \"gist-b9df1f47d280e3707a3b6d35cd582bc9/GlpManager.sol\":3054:3059  _usdg */\n  dup4\n    /* \"gist-b9df1f47d280e3707a3b6d35cd582bc9/GlpManager.sol\":3047:3051  usdg */\n  0x04\n  0x00\n    /* \"gist-b9df1f47d280e3707a3b6d35cd582bc9/GlpManager.sol\":3047:3059  usdg = _usdg */\n  0x0100\n  exp\n  dup2\n  sload\n  dup2\n  0xffffffffffffffffffffffffffffffffffffffff\n  mul\n  not\n  and\n  swap1\n  dup4\n  0xffffffffffffffffffffffffffffffffffffffff\n  and\n  mul\n  or\n  swap1\n  sstore\n  pop\n    /* \"gist-b9df1f47d280e3707a3b6d35cd582bc9/GlpManager.sol\":3075:3079  _glp */\n  dup3\n    /* \"gist-b9df1f47d280e3707a3b6d35cd582bc9/GlpManager.sol\":3069:3072  glp */\n  0x05\n  0x00\n    /* \"gist-b9df1f47d280e3707a3b6d35cd582bc9/GlpManager.sol\":3069:3079  glp = _glp */\n  0x0100\n  exp\n  dup2\n  sload\n  dup2\n  0xffffffffffffffffffffffffffffffffffffffff\n  mul\n  not\n  and\n  swap1\n  dup4\n  0xffffffffffffffffffffffffffffffffffffffff\n  and\n  mul\n  or\n  swap1\n  sstore\n  pop\n    /* \"gist-b9df1f47d280e3707a3b6d35cd582bc9/GlpManager.sol\":3120:3134  _shortsTracker */\n  dup2\n    /* \"gist-b9df1f47d280e3707a3b6d35cd582bc9/GlpManager.sol\":3089:3102  shortsTracker */\n  0x03\n  0x00\n    /* \"gist-b9df1f47d280e3707a3b6d35cd582bc9/GlpManager.sol\":3089:3135  shortsTracker = IShortsTracker(_shortsTracker) */\n  0x0100\n  exp\n  dup2\n  sload\n  dup2\n  0xffffffffffffffffffffffffffffffffffffffff\n  mul\n  not\n  and\n  swap1\n  dup4\n  0xffffffffffffffffffffffffffffffffffffffff\n  and\n  mul\n  or\n  swap1\n  sstore\n  pop\n    /* \"gist-b9df1f47d280e3707a3b6d35cd582bc9/GlpManager.sol\":3164:3181  _cooldownDuration */\n  dup1\n    /* \"gist-b9df1f47d280e3707a3b6d35cd582bc9/GlpManager.sol\":3145:3161  cooldownDuration */\n  0x06\n    /* \"gist-b9df1f47d280e3707a3b6d35cd582bc9/GlpManager.sol\":3145:3181  cooldownDuration = _cooldownDuration */\n  dup2\n  swap1\n  sstore\n  pop\n    /* \"gist-b9df1f47d280e3707a3b6d35cd582bc9/GlpManager.sol\":2864:3188  constructor(address _vault, address _usdg, address _glp, address _shortsTracker, uint256 _cooldownDuration) public {... */\n  pop\n  pop\n  pop\n  pop\n  pop\n    /* \"gist-b9df1f47d280e3707a3b6d35cd582bc9/GlpManager.sol\":1569:11676  contract GlpManager is ReentrancyGuard, Governable, IGlpManager {... */\n  dataSize(sub_0)\n  dup1\n  dataOffset(sub_0)\n  0x00\n  codecopy\n  0x00\n  return\nstop\n\nsub_0: assembly {\n        /* \"gist-b9df1f47d280e3707a3b6d35cd582bc9/GlpManager.sol\":1569:11676  contract GlpManager is ReentrancyGuard, Governable, IGlpManager {... */\n      mstore(0x40, 0x80)\n      callvalue\n      dup1\n      iszero\n      tag_1\n      jumpi\n      0x00\n      dup1\n      revert\n    tag_1:\n      pop\n      jumpi(tag_2, lt(calldatasize, 0x04))\n      shr(0xe0, calldataload(0x00))\n      dup1\n      0x71d597ad\n      gt\n      tag_37\n      jumpi\n      dup1\n      0x9cb7de4b\n      gt\n      tag_38\n      jumpi\n      dup1\n      0xd34ee093\n      gt\n      tag_39\n      jumpi\n      dup1\n      0xd34ee093\n      eq\n      tag_32\n      jumpi\n      dup1\n      0xe245b5af\n      eq\n      tag_33\n      jumpi\n      dup1\n      0xed0d1c04\n      eq\n      tag_34\n      jumpi\n      dup1\n      0xf5b91b7b\n      eq\n      tag_35\n      jumpi\n      dup1\n      0xfbfa77cf\n      eq\n      tag_36\n      jumpi\n      jump(tag_2)\n    tag_39:\n      dup1\n      0x9cb7de4b\n      eq\n      tag_28\n      jumpi\n      dup1\n      0xa1acd3d5\n      eq\n      tag_29\n      jumpi\n      dup1\n      0xb172bb0c\n      eq\n      tag_30\n      jumpi\n      dup1\n      0xcfad57a2\n      eq\n      tag_31\n      jumpi\n      jump(tag_2)\n    tag_38:\n      dup1\n      0x8fed0b2c\n      gt\n      tag_40\n      jumpi\n      dup1\n      0x8fed0b2c\n      eq\n      tag_24\n      jumpi\n      dup1\n      0x9116c4ae\n      eq\n      tag_25\n      jumpi\n      dup1\n      0x95082d25\n      eq\n      tag_26\n      jumpi\n      dup1\n      0x966be075\n      eq\n      tag_27\n      jumpi\n      jump(tag_2)\n    tag_40:\n      dup1\n      0x71d597ad\n      eq\n      tag_20\n      jumpi\n      dup1\n      0x78a207ee\n      eq\n      tag_21\n      jumpi\n      dup1\n      0x870d917c\n      eq\n      tag_22\n      jumpi\n      dup1\n      0x8b770e11\n      eq\n      tag_23\n      jumpi\n      jump(tag_2)\n    tag_37:\n      dup1\n      0x35269315\n      gt\n      tag_41\n      jumpi\n      dup1\n      0x64e6617f\n      gt\n      tag_42\n      jumpi\n      dup1\n      0x64e6617f\n      eq\n      tag_15\n      jumpi\n      dup1\n      0x657bc5d0\n      eq\n      tag_16\n      jumpi\n      dup1\n      0x662f1c68\n      eq\n      tag_17\n      jumpi\n      dup1\n      0x68a0a3e0\n      eq\n      tag_18\n      jumpi\n      dup1\n      0x6a86da19\n      eq\n      tag_19\n      jumpi\n      jump(tag_2)\n    tag_42:\n      dup1\n      0x35269315\n      eq\n      tag_11\n      jumpi\n      dup1\n      0x440d828a\n      eq\n      tag_12\n      jumpi\n      dup1\n      0x46ea87af\n      eq\n      tag_13\n      jumpi\n      dup1\n      0x4f5f6b5e\n      eq\n      tag_14\n      jumpi\n      jump(tag_2)\n    tag_41:\n      dup1\n      0x17eb2a15\n      gt\n      tag_43\n      jumpi\n      dup1\n      0x17eb2a15\n      eq\n      tag_7\n      jumpi\n      dup1\n      0x196b68cb\n      eq\n      tag_8\n      jumpi\n      dup1\n      0x1e9049cf\n      eq\n      tag_9\n      jumpi\n      dup1\n      0x1ece366a\n      eq\n      tag_10\n      jumpi\n      jump(tag_2)\n    tag_43:\n      dup1\n      0x03391476\n      eq\n      tag_3\n      jumpi\n      dup1\n      0x070eacee\n      eq\n      tag_4\n      jumpi\n      dup1\n      0x126082cf\n      eq\n      tag_5\n      jumpi\n      dup1\n      0x12d43a51\n      eq\n      tag_6\n      jumpi\n    tag_2:\n      0x00\n      dup1\n      revert\n        /* \"gist-b9df1f47d280e3707a3b6d35cd582bc9/GlpManager.sol\":6191:7910  function getAum(bool maximise) public view returns (uint256) {... */\n    tag_3:\n      tag_44\n      0x04\n      dup1\n      calldatasize\n      sub\n      0x20\n      dup2\n      lt\n      iszero\n      tag_45\n      jumpi\n      0x00\n      dup1\n      revert\n    tag_45:\n      dup2\n      add\n      swap1\n      dup1\n      dup1\n      calldataload\n      iszero\n      iszero\n      swap1\n      0x20\n      add\n      swap1\n      swap3\n      swap2\n      swap1\n      pop\n      pop\n      pop\n      tag_46\n      jump\t// in\n    tag_44:\n      mload(0x40)\n      dup1\n      dup3\n      dup2\n      mstore\n      0x20\n      add\n      swap2\n      pop\n      pop\n      mload(0x40)\n      dup1\n      swap2\n      sub\n      swap1\n      return\n        /* \"gist-b9df1f47d280e3707a3b6d35cd582bc9/GlpManager.sol\":2301:2326  bool public inPrivateMode */\n    tag_4:\n      tag_47\n      tag_48\n      jump\t// in\n    tag_47:\n      mload(0x40)\n      dup1\n      dup3\n      iszero\n      iszero\n      dup2\n      mstore\n      0x20\n      add\n      swap2\n      pop\n      pop\n      mload(0x40)\n      dup1\n      swap2\n      sub\n      swap1\n      return\n        /* \"gist-b9df1f47d280e3707a3b6d35cd582bc9/GlpManager.sol\":1924:1976  uint256 public constant BASIS_POINTS_DIVISOR = 10000 */\n    tag_5:\n      tag_49\n      tag_50\n      jump\t// in\n    tag_49:\n      mload(0x40)\n      dup1\n      dup3\n      dup2\n      mstore\n      0x20\n      add\n      swap2\n      pop\n      pop\n      mload(0x40)\n      dup1\n      swap2\n      sub\n      swap1\n      return\n        /* \"gist-b9df1f47d280e3707a3b6d35cd582bc9/Governable.sol\":1330:1348  address public gov */\n    tag_6:\n      tag_51\n      tag_52\n      jump\t// in\n    tag_51:\n      mload(0x40)\n      dup1\n      dup3\n      0xffffffffffffffffffffffffffffffffffffffff\n      and\n      dup2\n      mstore\n      0x20\n      add\n      swap2\n      pop\n      pop\n      mload(0x40)\n      dup1\n      swap2\n      sub\n      swap1\n      return\n        /* \"gist-b9df1f47d280e3707a3b6d35cd582bc9/GlpManager.sol\":4601:4921  function addLiquidityForAccount(address _fundingAccount, address _account, address _token, uint256 _amount, uint256 _minUsdg, uint256 _minGlp) external override nonReentrant returns (uint256) {... */\n    tag_7:\n      tag_53\n      0x04\n      dup1\n      calldatasize\n      sub\n      0xc0\n      dup2\n      lt\n      iszero\n      tag_54\n      jumpi\n      0x00\n      dup1\n      revert\n    tag_54:\n      dup2\n      add\n      swap1\n      dup1\n      dup1\n      calldataload\n      0xffffffffffffffffffffffffffffffffffffffff\n      and\n      swap1\n      0x20\n      add\n      swap1\n      swap3\n      swap2\n      swap1\n      dup1\n      calldataload\n      0xffffffffffffffffffffffffffffffffffffffff\n      and\n      swap1\n      0x20\n      add\n      swap1\n      swap3\n      swap2\n      swap1\n      dup1\n      calldataload\n      0xffffffffffffffffffffffffffffffffffffffff\n      and\n      swap1\n      0x20\n      add\n      swap1\n      swap3\n      swap2\n      swap1\n      dup1\n      calldataload\n      swap1\n      0x20\n      add\n      swap1\n      swap3\n      swap2\n      swap1\n      dup1\n      calldataload\n      swap1\n      0x20\n      add\n      swap1\n      swap3\n      swap2\n      swap1\n      dup1\n      calldataload\n      swap1\n      0x20\n      add\n      swap1\n      swap3\n      swap2\n      swap1\n      pop\n      pop\n      pop\n      tag_55\n      jump\t// in\n    tag_53:\n      mload(0x40)\n      dup1\n      dup3\n      dup2\n      mstore\n      0x20\n      add\n      swap2\n      pop\n      pop\n      mload(0x40)\n      dup1\n      swap2\n      sub\n      swap1\n      return\n        /* \"gist-b9df1f47d280e3707a3b6d35cd582bc9/GlpManager.sol\":2235:2261  uint256 public aumAddition */\n    tag_8:\n      tag_56\n      tag_57\n      jump\t// in\n    tag_56:\n      mload(0x40)\n      dup1\n      dup3\n      dup2\n      mstore\n      0x20\n      add\n      swap2\n      pop\n      pop\n      mload(0x40)\n      dup1\n      swap2\n      sub\n      swap1\n      return\n        /* \"gist-b9df1f47d280e3707a3b6d35cd582bc9/GlpManager.sol\":1862:1918  uint256 public constant MAX_COOLDOWN_DURATION = 48 hours */\n    tag_9:\n      tag_58\n      tag_59\n      jump\t// in\n    tag_58:\n      mload(0x40)\n      dup1\n      dup3\n      dup2\n      mstore\n      0x20\n      add\n      swap2\n      pop\n      pop\n      mload(0x40)\n      dup1\n      swap2\n      sub\n      swap1\n      return\n        /* \"gist-b9df1f47d280e3707a3b6d35cd582bc9/GlpManager.sol\":4286:4595  function addLiquidity(address _token, uint256 _amount, uint256 _minUsdg, uint256 _minGlp) external override nonReentrant returns (uint256) {... */\n    tag_10:\n      tag_60\n      0x04\n      dup1\n      calldatasize\n      sub\n      0x80\n      dup2\n      lt\n      iszero\n      tag_61\n      jumpi\n      0x00\n      dup1\n      revert\n    tag_61:\n      dup2\n      add\n      swap1\n      dup1\n      dup1\n      calldataload\n      0xffffffffffffffffffffffffffffffffffffffff\n      and\n      swap1\n      0x20\n      add\n      swap1\n      swap3\n      swap2\n      swap1\n      dup1\n      calldataload\n      swap1\n      0x20\n      add\n      swap1\n      swap3\n      swap2\n      swap1\n      dup1\n      calldataload\n      swap1\n      0x20\n      add\n      swap1\n      swap3\n      swap2\n      swap1\n      dup1\n      calldataload\n      swap1\n      0x20\n      add\n      swap1\n      swap3\n      swap2\n      swap1\n      pop\n      pop\n      pop\n      tag_62\n      jump\t// in\n    tag_60:\n      mload(0x40)\n      dup1\n      dup3\n      dup2\n      mstore\n      0x20\n      add\n      swap2\n      pop\n      pop\n      mload(0x40)\n      dup1\n      swap2\n      sub\n      swap1\n      return\n        /* \"gist-b9df1f47d280e3707a3b6d35cd582bc9/GlpManager.sol\":2126:2166  uint256 public override cooldownDuration */\n    tag_11:\n      tag_63\n      tag_64\n      jump\t// in\n    tag_63:\n      mload(0x40)\n      dup1\n      dup3\n      dup2\n      mstore\n      0x20\n      add\n      swap2\n      pop\n      pop\n      mload(0x40)\n      dup1\n      swap2\n      sub\n      swap1\n      return\n        /* \"gist-b9df1f47d280e3707a3b6d35cd582bc9/GlpManager.sol\":8326:9380  function getGlobalShortAveragePrice(address _token) public view returns (uint256) {... */\n    tag_12:\n      tag_65\n      0x04\n      dup1\n      calldatasize\n      sub\n      0x20\n      dup2\n      lt\n      iszero\n      tag_66\n      jumpi\n      0x00\n      dup1\n      revert\n    tag_66:\n      dup2\n      add\n      swap1\n      dup1\n      dup1\n      calldataload\n      0xffffffffffffffffffffffffffffffffffffffff\n      and\n      swap1\n      0x20\n      add\n      swap1\n      swap3\n      swap2\n      swap1\n      pop\n      pop\n      pop\n      tag_67\n      jump\t// in\n    tag_65:\n      mload(0x40)\n      dup1\n      dup3\n      dup2\n      mstore\n      0x20\n      add\n      swap2\n      pop\n      pop\n      mload(0x40)\n      dup1\n      swap2\n      sub\n      swap1\n      return\n        /* \"gist-b9df1f47d280e3707a3b6d35cd582bc9/GlpManager.sol\":2384:2426  mapping (address => bool) public isHandler */\n    tag_13:\n      tag_68\n      0x04\n      dup1\n      calldatasize\n      sub\n      0x20\n      dup2\n      lt\n      iszero\n      tag_69\n      jumpi\n      0x00\n      dup1\n      revert\n    tag_69:\n      dup2\n      add\n      swap1\n      dup1\n      dup1\n      calldataload\n      0xffffffffffffffffffffffffffffffffffffffff\n      and\n      swap1\n      0x20\n      add\n      swap1\n      swap3\n      swap2\n      swap1\n      pop\n      pop\n      pop\n      tag_70\n      jump\t// in\n    tag_68:\n      mload(0x40)\n      dup1\n      dup3\n      iszero\n      iszero\n      dup2\n      mstore\n      0x20\n      add\n      swap2\n      pop\n      pop\n      mload(0x40)\n      dup1\n      swap2\n      sub\n      swap1\n      return\n        /* \"gist-b9df1f47d280e3707a3b6d35cd582bc9/GlpManager.sol\":3438:3737  function setShortsTrackerAveragePriceWeight(uint256 _shortsTrackerAveragePriceWeight) external override onlyGov {... */\n    tag_14:\n      tag_71\n      0x04\n      dup1\n      calldatasize\n      sub\n      0x20\n      dup2\n      lt\n      iszero\n      tag_72\n      jumpi\n      0x00\n      dup1\n      revert\n    tag_72:\n      dup2\n      add\n      swap1\n      dup1\n      dup1\n      calldataload\n      swap1\n      0x20\n      add\n      swap1\n      swap3\n      swap2\n      swap1\n      pop\n      pop\n      pop\n      tag_73\n      jump\t// in\n    tag_71:\n      stop\n        /* \"gist-b9df1f47d280e3707a3b6d35cd582bc9/GlpManager.sol\":2332:2378  uint256 public shortsTrackerAveragePriceWeight */\n    tag_15:\n      tag_74\n      tag_75\n      jump\t// in\n    tag_74:\n      mload(0x40)\n      dup1\n      dup3\n      dup2\n      mstore\n      0x20\n      add\n      swap2\n      pop\n      pop\n      mload(0x40)\n      dup1\n      swap2\n      sub\n      swap1\n      return\n        /* \"gist-b9df1f47d280e3707a3b6d35cd582bc9/GlpManager.sol\":2017:2052  IShortsTracker public shortsTracker */\n    tag_16:\n      tag_76\n      tag_77\n      jump\t// in\n    tag_76:\n      mload(0x40)\n      dup1\n      dup3\n      0xffffffffffffffffffffffffffffffffffffffff\n      and\n      dup2\n      mstore\n      0x20\n      add\n      swap2\n      pop\n      pop\n      mload(0x40)\n      dup1\n      swap2\n      sub\n      swap1\n      return\n        /* \"gist-b9df1f47d280e3707a3b6d35cd582bc9/GlpManager.sol\":1808:1856  uint256 public constant GLP_PRECISION = 10 ** 18 */\n    tag_17:\n      tag_78\n      tag_79\n      jump\t// in\n    tag_78:\n      mload(0x40)\n      dup1\n      dup3\n      dup2\n      mstore\n      0x20\n      add\n      swap2\n      pop\n      pop\n      mload(0x40)\n      dup1\n      swap2\n      sub\n      swap1\n      return\n        /* \"gist-b9df1f47d280e3707a3b6d35cd582bc9/GlpManager.sol\":5996:6185  function getAumInUsdg(bool maximise) public override view returns (uint256) {... */\n    tag_18:\n      tag_80\n      0x04\n      dup1\n      calldatasize\n      sub\n      0x20\n      dup2\n      lt\n      iszero\n      tag_81\n      jumpi\n      0x00\n      dup1\n      revert\n    tag_81:\n      dup2\n      add\n      swap1\n      dup1\n      dup1\n      calldataload\n      iszero\n      iszero\n      swap1\n      0x20\n      add\n      swap1\n      swap3\n      swap2\n      swap1\n      pop\n      pop\n      pop\n      tag_82\n      jump\t// in\n    tag_80:\n      mload(0x40)\n      dup1\n      dup3\n      dup2\n      mstore\n      0x20\n      add\n      swap2\n      pop\n      pop\n      mload(0x40)\n      dup1\n      swap2\n      sub\n      swap1\n      return\n        /* \"gist-b9df1f47d280e3707a3b6d35cd582bc9/GlpManager.sol\":3194:3305  function setInPrivateMode(bool _inPrivateMode) external onlyGov {... */\n    tag_19:\n      tag_83\n      0x04\n      dup1\n      calldatasize\n      sub\n      0x20\n      dup2\n      lt\n      iszero\n      tag_84\n      jumpi\n      0x00\n      dup1\n      revert\n    tag_84:\n      dup2\n      add\n      swap1\n      dup1\n      dup1\n      calldataload\n      iszero\n      iszero\n      swap1\n      0x20\n      add\n      swap1\n      swap3\n      swap2\n      swap1\n      pop\n      pop\n      pop\n      tag_85\n      jump\t// in\n    tag_83:\n      stop\n        /* \"gist-b9df1f47d280e3707a3b6d35cd582bc9/GlpManager.sol\":5250:5548  function removeLiquidityForAccount(address _account, address _tokenOut, uint256 _glpAmount, uint256 _minOut, address _receiver) external override nonReentrant returns (uint256) {... */\n    tag_20:\n      tag_86\n      0x04\n      dup1\n      calldatasize\n      sub\n      0xa0\n      dup2\n      lt\n      iszero\n      tag_87\n      jumpi\n      0x00\n      dup1\n      revert\n    tag_87:\n      dup2\n      add\n      swap1\n      dup1\n      dup1\n      calldataload\n      0xffffffffffffffffffffffffffffffffffffffff\n      and\n      swap1\n      0x20\n      add\n      swap1\n      swap3\n      swap2\n      swap1\n      dup1\n      calldataload\n      0xffffffffffffffffffffffffffffffffffffffff\n      and\n      swap1\n      0x20\n      add\n      swap1\n      swap3\n      swap2\n      swap1\n      dup1\n      calldataload\n      swap1\n      0x20\n      add\n      swap1\n      swap3\n      swap2\n      swap1\n      dup1\n      calldataload\n      swap1\n      0x20\n      add\n      swap1\n      swap3\n      swap2\n      swap1\n      dup1\n      calldataload\n      0xffffffffffffffffffffffffffffffffffffffff\n      and\n      swap1\n      0x20\n      add\n      swap1\n      swap3\n      swap2\n      swap1\n      pop\n      pop\n      pop\n      tag_88\n      jump\t// in\n    tag_86:\n      mload(0x40)\n      dup1\n      dup3\n      dup2\n      mstore\n      0x20\n      add\n      swap2\n      pop\n      pop\n      mload(0x40)\n      dup1\n      swap2\n      sub\n      swap1\n      return\n        /* \"gist-b9df1f47d280e3707a3b6d35cd582bc9/GlpManager.sol\":2092:2119  address public override glp */\n    tag_21:\n      tag_89\n      tag_90\n      jump\t// in\n    tag_89:\n      mload(0x40)\n      dup1\n      dup3\n      0xffffffffffffffffffffffffffffffffffffffff\n      and\n      dup2\n      mstore\n      0x20\n      add\n      swap2\n      pop\n      pop\n      mload(0x40)\n      dup1\n      swap2\n      sub\n      swap1\n      return\n        /* \"gist-b9df1f47d280e3707a3b6d35cd582bc9/GlpManager.sol\":1760:1802  uint256 public constant USDG_DECIMALS = 18 */\n    tag_22:\n      tag_91\n      tag_92\n      jump\t// in\n    tag_91:\n      mload(0x40)\n      dup1\n      dup3\n      dup2\n      mstore\n      0x20\n      add\n      swap2\n      pop\n      pop\n      mload(0x40)\n      dup1\n      swap2\n      sub\n      swap1\n      return\n        /* \"gist-b9df1f47d280e3707a3b6d35cd582bc9/GlpManager.sol\":2172:2228  mapping (address => uint256) public override lastAddedAt */\n    tag_23:\n      tag_93\n      0x04\n      dup1\n      calldatasize\n      sub\n      0x20\n      dup2\n      lt\n      iszero\n      tag_94\n      jumpi\n      0x00\n      dup1\n      revert\n    tag_94:\n      dup2\n      add\n      swap1\n      dup1\n      dup1\n      calldataload\n      0xffffffffffffffffffffffffffffffffffffffff\n      and\n      swap1\n      0x20\n      add\n      swap1\n      swap3\n      swap2\n      swap1\n      pop\n      pop\n      pop\n      tag_95\n      jump\t// in\n    tag_93:\n      mload(0x40)\n      dup1\n      dup3\n      dup2\n      mstore\n      0x20\n      add\n      swap2\n      pop\n      pop\n      mload(0x40)\n      dup1\n      swap2\n      sub\n      swap1\n      return\n        /* \"gist-b9df1f47d280e3707a3b6d35cd582bc9/GlpManager.sol\":4927:5244  function removeLiquidity(address _tokenOut, uint256 _glpAmount, uint256 _minOut, address _receiver) external override nonReentrant returns (uint256) {... */\n    tag_24:\n      tag_96\n      0x04\n      dup1\n      calldatasize\n      sub\n      0x80\n      dup2\n      lt\n      iszero\n      tag_97\n      jumpi\n      0x00\n      dup1\n      revert\n    tag_97:\n      dup2\n      add\n      swap1\n      dup1\n      dup1\n      calldataload\n      0xffffffffffffffffffffffffffffffffffffffff\n      and\n      swap1\n      0x20\n      add\n      swap1\n      swap3\n      swap2\n      swap1\n      dup1\n      calldataload\n      swap1\n      0x20\n      add\n      swap1\n      swap3\n      swap2\n      swap1\n      dup1\n      calldataload\n      swap1\n      0x20\n      add\n      swap1\n      swap3\n      swap2\n      swap1\n      dup1\n      calldataload\n      0xffffffffffffffffffffffffffffffffffffffff\n      and\n      swap1\n      0x20\n      add\n      swap1\n      swap3\n      swap2\n      swap1\n      pop\n      pop\n      pop\n      tag_98\n      jump\t// in\n    tag_96:\n      mload(0x40)\n      dup1\n      dup3\n      dup2\n      mstore\n      0x20\n      add\n      swap2\n      pop\n      pop\n      mload(0x40)\n      dup1\n      swap2\n      sub\n      swap1\n      return\n        /* \"gist-b9df1f47d280e3707a3b6d35cd582bc9/GlpManager.sol\":4111:4280  function setAumAdjustment(uint256 _aumAddition, uint256 _aumDeduction) external onlyGov {... */\n    tag_25:\n      tag_99\n      0x04\n      dup1\n      calldatasize\n      sub\n      0x40\n      dup2\n      lt\n      iszero\n      tag_100\n      jumpi\n      0x00\n      dup1\n      revert\n    tag_100:\n      dup2\n      add\n      swap1\n      dup1\n      dup1\n      calldataload\n      swap1\n      0x20\n      add\n      swap1\n      swap3\n      swap2\n      swap1\n      dup1\n      calldataload\n      swap1\n      0x20\n      add\n      swap1\n      swap3\n      swap2\n      swap1\n      pop\n      pop\n      pop\n      tag_101\n      jump\t// in\n    tag_99:\n      stop\n        /* \"gist-b9df1f47d280e3707a3b6d35cd582bc9/GlpManager.sol\":1704:1754  uint256 public constant PRICE_PRECISION = 10 ** 30 */\n    tag_26:\n      tag_102\n      tag_103\n      jump\t// in\n    tag_102:\n      mload(0x40)\n      dup1\n      dup3\n      dup2\n      mstore\n      0x20\n      add\n      swap2\n      pop\n      pop\n      mload(0x40)\n      dup1\n      swap2\n      sub\n      swap1\n      return\n        /* \"gist-b9df1f47d280e3707a3b6d35cd582bc9/GlpManager.sol\":3868:4105  function setCooldownDuration(uint256 _cooldownDuration) external override onlyGov {... */\n    tag_27:\n      tag_104\n      0x04\n      dup1\n      calldatasize\n      sub\n      0x20\n      dup2\n      lt\n      iszero\n      tag_105\n      jumpi\n      0x00\n      dup1\n      revert\n    tag_105:\n      dup2\n      add\n      swap1\n      dup1\n      dup1\n      calldataload\n      swap1\n      0x20\n      add\n      swap1\n      swap3\n      swap2\n      swap1\n      pop\n      pop\n      pop\n      tag_106\n      jump\t// in\n    tag_104:\n      stop\n        /* \"gist-b9df1f47d280e3707a3b6d35cd582bc9/GlpManager.sol\":3743:3862  function setHandler(address _handler, bool _isActive) external onlyGov {... */\n    tag_28:\n      tag_107\n      0x04\n      dup1\n      calldatasize\n      sub\n      0x40\n      dup2\n      lt\n      iszero\n      tag_108\n      jumpi\n      0x00\n      dup1\n      revert\n    tag_108:\n      dup2\n      add\n      swap1\n      dup1\n      dup1\n      calldataload\n      0xffffffffffffffffffffffffffffffffffffffff\n      and\n      swap1\n      0x20\n      add\n      swap1\n      swap3\n      swap2\n      swap1\n      dup1\n      calldataload\n      iszero\n      iszero\n      swap1\n      0x20\n      add\n      swap1\n      swap3\n      swap2\n      swap1\n      pop\n      pop\n      pop\n      tag_109\n      jump\t// in\n    tag_107:\n      stop\n        /* \"gist-b9df1f47d280e3707a3b6d35cd582bc9/GlpManager.sol\":7916:8320  function getGlobalShortDelta(address _token, uint256 _price, uint256 _size) public view returns (uint256, bool) {... */\n    tag_29:\n      tag_110\n      0x04\n      dup1\n      calldatasize\n      sub\n      0x60\n      dup2\n      lt\n      iszero\n      tag_111\n      jumpi\n      0x00\n      dup1\n      revert\n    tag_111:\n      dup2\n      add\n      swap1\n      dup1\n      dup1\n      calldataload\n      0xffffffffffffffffffffffffffffffffffffffff\n      and\n      swap1\n      0x20\n      add\n      swap1\n      swap3\n      swap2\n      swap1\n      dup1\n      calldataload\n      swap1\n      0x20\n      add\n      swap1\n      swap3\n      swap2\n      swap1\n      dup1\n      calldataload\n      swap1\n      0x20\n      add\n      swap1\n      swap3\n      swap2\n      swap1\n      pop\n      pop\n      pop\n      tag_112\n      jump\t// in\n    tag_110:\n      mload(0x40)\n      dup1\n      dup4\n      dup2\n      mstore\n      0x20\n      add\n      dup3\n      iszero\n      iszero\n      dup2\n      mstore\n      0x20\n      add\n      swap3\n      pop\n      pop\n      pop\n      mload(0x40)\n      dup1\n      swap2\n      sub\n      swap1\n      return\n        /* \"gist-b9df1f47d280e3707a3b6d35cd582bc9/GlpManager.sol\":2267:2294  uint256 public aumDeduction */\n    tag_30:\n      tag_113\n      tag_114\n      jump\t// in\n    tag_113:\n      mload(0x40)\n      dup1\n      dup3\n      dup2\n      mstore\n      0x20\n      add\n      swap2\n      pop\n      pop\n      mload(0x40)\n      dup1\n      swap2\n      sub\n      swap1\n      return\n        /* \"gist-b9df1f47d280e3707a3b6d35cd582bc9/Governable.sol\":1519:1593  function setGov(address _gov) external onlyGov {... */\n    tag_31:\n      tag_115\n      0x04\n      dup1\n      calldatasize\n      sub\n      0x20\n      dup2\n      lt\n      iszero\n      tag_116\n      jumpi\n      0x00\n      dup1\n      revert\n    tag_116:\n      dup2\n      add\n      swap1\n      dup1\n      dup1\n      calldataload\n      0xffffffffffffffffffffffffffffffffffffffff\n      and\n      swap1\n      0x20\n      add\n      swap1\n      swap3\n      swap2\n      swap1\n      pop\n      pop\n      pop\n      tag_117\n      jump\t// in\n    tag_115:\n      stop\n        /* \"gist-b9df1f47d280e3707a3b6d35cd582bc9/GlpManager.sol\":3311:3432  function setShortsTracker(IShortsTracker _shortsTracker) external onlyGov {... */\n    tag_32:\n      tag_118\n      0x04\n      dup1\n      calldatasize\n      sub\n      0x20\n      dup2\n      lt\n      iszero\n      tag_119\n      jumpi\n      0x00\n      dup1\n      revert\n    tag_119:\n      dup2\n      add\n      swap1\n      dup1\n      dup1\n      calldataload\n      0xffffffffffffffffffffffffffffffffffffffff\n      and\n      swap1\n      0x20\n      add\n      swap1\n      swap3\n      swap2\n      swap1\n      pop\n      pop\n      pop\n      tag_120\n      jump\t// in\n    tag_118:\n      stop\n        /* \"gist-b9df1f47d280e3707a3b6d35cd582bc9/GlpManager.sol\":5554:5771  function getPrice(bool _maximise) external view returns (uint256) {... */\n    tag_33:\n      tag_121\n      0x04\n      dup1\n      calldatasize\n      sub\n      0x20\n      dup2\n      lt\n      iszero\n      tag_122\n      jumpi\n      0x00\n      dup1\n      revert\n    tag_122:\n      dup2\n      add\n      swap1\n      dup1\n      dup1\n      calldataload\n      iszero\n      iszero\n      swap1\n      0x20\n      add\n      swap1\n      swap3\n      swap2\n      swap1\n      pop\n      pop\n      pop\n      tag_123\n      jump\t// in\n    tag_121:\n      mload(0x40)\n      dup1\n      dup3\n      dup2\n      mstore\n      0x20\n      add\n      swap2\n      pop\n      pop\n      mload(0x40)\n      dup1\n      swap2\n      sub\n      swap1\n      return\n        /* \"gist-b9df1f47d280e3707a3b6d35cd582bc9/GlpManager.sol\":5777:5990  function getAums() public view returns (uint256[] memory) {... */\n    tag_34:\n      tag_124\n      tag_125\n      jump\t// in\n    tag_124:\n      mload(0x40)\n      dup1\n      dup1\n      0x20\n      add\n      dup3\n      dup2\n      sub\n      dup3\n      mstore\n      dup4\n      dup2\n      dup2\n      mload\n      dup2\n      mstore\n      0x20\n      add\n      swap2\n      pop\n      dup1\n      mload\n      swap1\n      0x20\n      add\n      swap1\n      0x20\n      mul\n      dup1\n      dup4\n      dup4\n      0x00\n    tag_126:\n      dup4\n      dup2\n      lt\n      iszero\n      tag_128\n      jumpi\n      dup1\n      dup3\n      add\n      mload\n      dup2\n      dup5\n      add\n      mstore\n      0x20\n      dup2\n      add\n      swap1\n      pop\n      jump(tag_126)\n    tag_128:\n      pop\n      pop\n      pop\n      pop\n      swap1\n      pop\n      add\n      swap3\n      pop\n      pop\n      pop\n      mload(0x40)\n      dup1\n      swap2\n      sub\n      swap1\n      return\n        /* \"gist-b9df1f47d280e3707a3b6d35cd582bc9/GlpManager.sol\":2058:2086  address public override usdg */\n    tag_35:\n      tag_129\n      tag_130\n      jump\t// in\n    tag_129:\n      mload(0x40)\n      dup1\n      dup3\n      0xffffffffffffffffffffffffffffffffffffffff\n      and\n      dup2\n      mstore\n      0x20\n      add\n      swap2\n      pop\n      pop\n      mload(0x40)\n      dup1\n      swap2\n      sub\n      swap1\n      return\n        /* \"gist-b9df1f47d280e3707a3b6d35cd582bc9/GlpManager.sol\":1983:2011  IVault public override vault */\n    tag_36:\n      tag_131\n      tag_132\n      jump\t// in\n    tag_131:\n      mload(0x40)\n      dup1\n      dup3\n      0xffffffffffffffffffffffffffffffffffffffff\n      and\n      dup2\n      mstore\n      0x20\n      add\n      swap2\n      pop\n      pop\n      mload(0x40)\n      dup1\n      swap2\n      sub\n      swap1\n      return\n        /* \"gist-b9df1f47d280e3707a3b6d35cd582bc9/GlpManager.sol\":6191:7910  function getAum(bool maximise) public view returns (uint256) {... */\n    tag_46:\n        /* \"gist-b9df1f47d280e3707a3b6d35cd582bc9/GlpManager.sol\":6243:6250  uint256 */\n      0x00\n        /* \"gist-b9df1f47d280e3707a3b6d35cd582bc9/GlpManager.sol\":6262:6276  uint256 length */\n      dup1\n        /* \"gist-b9df1f47d280e3707a3b6d35cd582bc9/GlpManager.sol\":6279:6284  vault */\n      0x02\n      0x00\n      swap1\n      sload\n      swap1\n      0x0100\n      exp\n      swap1\n      div\n      0xffffffffffffffffffffffffffffffffffffffff\n      and\n        /* \"gist-b9df1f47d280e3707a3b6d35cd582bc9/GlpManager.sol\":6279:6311  vault.allWhitelistedTokensLength */\n      0xffffffffffffffffffffffffffffffffffffffff\n      and\n      0x0842b076\n        /* \"gist-b9df1f47d280e3707a3b6d35cd582bc9/GlpManager.sol\":6279:6313  vault.allWhitelistedTokensLength() */\n      mload(0x40)\n      dup2\n      0xffffffff\n      and\n      0xe0\n      shl\n      dup2\n      mstore\n      0x04\n      add\n      0x20\n      mload(0x40)\n      dup1\n      dup4\n      sub\n      dup2\n      dup7\n      dup1\n      extcodesize\n      iszero\n      dup1\n      iszero\n      tag_134\n      jumpi\n      0x00\n      dup1\n      revert\n    tag_134:\n      pop\n      gas\n      staticcall\n      iszero\n      dup1\n      iszero\n      tag_136\n      jumpi\n      returndatasize\n      0x00\n      dup1\n      returndatacopy\n      revert(0x00, returndatasize)\n    tag_136:\n      pop\n      pop\n      pop\n      pop\n      mload(0x40)\n      returndatasize\n      0x20\n      dup2\n      lt\n      iszero\n      tag_137\n      jumpi\n      0x00\n      dup1\n      revert\n    tag_137:\n      dup2\n      add\n      swap1\n      dup1\n      dup1\n      mload\n      swap1\n      0x20\n      add\n      swap1\n      swap3\n      swap2\n      swap1\n      pop\n      pop\n      pop\n        /* \"gist-b9df1f47d280e3707a3b6d35cd582bc9/GlpManager.sol\":6262:6313  uint256 length = vault.allWhitelistedTokensLength() */\n      swap1\n      pop\n        /* \"gist-b9df1f47d280e3707a3b6d35cd582bc9/GlpManager.sol\":6323:6334  uint256 aum */\n      0x00\n        /* \"gist-b9df1f47d280e3707a3b6d35cd582bc9/GlpManager.sol\":6337:6348  aumAddition */\n      sload(0x08)\n        /* \"gist-b9df1f47d280e3707a3b6d35cd582bc9/GlpManager.sol\":6323:6348  uint256 aum = aumAddition */\n      swap1\n      pop\n        /* \"gist-b9df1f47d280e3707a3b6d35cd582bc9/GlpManager.sol\":6358:6378  uint256 shortProfits */\n      0x00\n        /* \"gist-b9df1f47d280e3707a3b6d35cd582bc9/GlpManager.sol\":6392:6405  IVault _vault */\n      dup1\n        /* \"gist-b9df1f47d280e3707a3b6d35cd582bc9/GlpManager.sol\":6408:6413  vault */\n      0x02\n      0x00\n      swap1\n      sload\n      swap1\n      0x0100\n      exp\n      swap1\n      div\n      0xffffffffffffffffffffffffffffffffffffffff\n      and\n        /* \"gist-b9df1f47d280e3707a3b6d35cd582bc9/GlpManager.sol\":6392:6413  IVault _vault = vault */\n      swap1\n      pop\n        /* \"gist-b9df1f47d280e3707a3b6d35cd582bc9/GlpManager.sol\":6429:6438  uint256 i */\n      0x00\n        /* \"gist-b9df1f47d280e3707a3b6d35cd582bc9/GlpManager.sol\":6424:7778  for (uint256 i = 0; i < length; i++) {... */\n    tag_138:\n        /* \"gist-b9df1f47d280e3707a3b6d35cd582bc9/GlpManager.sol\":6448:6454  length */\n      dup5\n        /* \"gist-b9df1f47d280e3707a3b6d35cd582bc9/GlpManager.sol\":6444:6445  i */\n      dup2\n        /* \"gist-b9df1f47d280e3707a3b6d35cd582bc9/GlpManager.sol\":6444:6454  i < length */\n      lt\n        /* \"gist-b9df1f47d280e3707a3b6d35cd582bc9/GlpManager.sol\":6424:7778  for (uint256 i = 0; i < length; i++) {... */\n      iszero\n      tag_139\n      jumpi\n        /* \"gist-b9df1f47d280e3707a3b6d35cd582bc9/GlpManager.sol\":6475:6488  address token */\n      0x00\n        /* \"gist-b9df1f47d280e3707a3b6d35cd582bc9/GlpManager.sol\":6491:6496  vault */\n      0x02\n      0x00\n      swap1\n      sload\n      swap1\n      0x0100\n      exp\n      swap1\n      div\n      0xffffffffffffffffffffffffffffffffffffffff\n      and\n        /* \"gist-b9df1f47d280e3707a3b6d35cd582bc9/GlpManager.sol\":6491:6517  vault.allWhitelistedTokens */\n      0xffffffffffffffffffffffffffffffffffffffff\n      and\n      0xe468baf0\n        /* \"gist-b9df1f47d280e3707a3b6d35cd582bc9/GlpManager.sol\":6518:6519  i */\n      dup4\n        /* \"gist-b9df1f47d280e3707a3b6d35cd582bc9/GlpManager.sol\":6491:6520  vault.allWhitelistedTokens(i) */\n      mload(0x40)\n      dup3\n      0xffffffff\n      and\n      0xe0\n      shl\n      dup2\n      mstore\n      0x04\n      add\n      dup1\n      dup3\n      dup2\n      mstore\n      0x20\n      add\n      swap2\n      pop\n      pop\n      0x20\n      mload(0x40)\n      dup1\n      dup4\n      sub\n      dup2\n      dup7\n      dup1\n      extcodesize\n      iszero\n      dup1\n      iszero\n      tag_141\n      jumpi\n      0x00\n      dup1\n      revert\n    tag_141:\n      pop\n      gas\n      staticcall\n      iszero\n      dup1\n      iszero\n      tag_143\n      jumpi\n      returndatasize\n      0x00\n      dup1\n      returndatacopy\n      revert(0x00, returndatasize)\n    tag_143:\n      pop\n      pop\n      pop\n      pop\n      mload(0x40)\n      returndatasize\n      0x20\n      dup2\n      lt\n      iszero\n      tag_144\n      jumpi\n      0x00\n      dup1\n      revert\n    tag_144:\n      dup2\n      add\n      swap1\n      dup1\n      dup1\n      mload\n      swap1\n      0x20\n      add\n      swap1\n      swap3\n      swap2\n      swap1\n      pop\n      pop\n      pop\n        /* \"gist-b9df1f47d280e3707a3b6d35cd582bc9/GlpManager.sol\":6475:6520  address token = vault.allWhitelistedTokens(i) */\n      swap1\n      pop\n        /* \"gist-b9df1f47d280e3707a3b6d35cd582bc9/GlpManager.sol\":6534:6552  bool isWhitelisted */\n      0x00\n        /* \"gist-b9df1f47d280e3707a3b6d35cd582bc9/GlpManager.sol\":6555:6560  vault */\n      0x02\n      0x00\n      swap1\n      sload\n      swap1\n      0x0100\n      exp\n      swap1\n      div\n      0xffffffffffffffffffffffffffffffffffffffff\n      and\n        /* \"gist-b9df1f47d280e3707a3b6d35cd582bc9/GlpManager.sol\":6555:6578  vault.whitelistedTokens */\n      0xffffffffffffffffffffffffffffffffffffffff\n      and\n      0xdaf9c210\n        /* \"gist-b9df1f47d280e3707a3b6d35cd582bc9/GlpManager.sol\":6579:6584  token */\n      dup4\n        /* \"gist-b9df1f47d280e3707a3b6d35cd582bc9/GlpManager.sol\":6555:6585  vault.whitelistedTokens(token) */\n      mload(0x40)\n      dup3\n      0xffffffff\n      and\n      0xe0\n      shl\n      dup2\n      mstore\n      0x04\n      add\n      dup1\n      dup3\n      0xffffffffffffffffffffffffffffffffffffffff\n      and\n      dup2\n      mstore\n      0x20\n      add\n      swap2\n      pop\n      pop\n      0x20\n      mload(0x40)\n      dup1\n      dup4\n      sub\n      dup2\n      dup7\n      dup1\n      extcodesize\n      iszero\n      dup1\n      iszero\n      tag_145\n      jumpi\n      0x00\n      dup1\n      revert\n    tag_145:\n      pop\n      gas\n      staticcall\n      iszero\n      dup1\n      iszero\n      tag_147\n      jumpi\n      returndatasize\n      0x00\n      dup1\n      returndatacopy\n      revert(0x00, returndatasize)\n    tag_147:\n      pop\n      pop\n      pop\n      pop\n      mload(0x40)\n      returndatasize\n      0x20\n      dup2\n      lt\n      iszero\n      tag_148\n      jumpi\n      0x00\n      dup1\n      revert\n    tag_148:\n      dup2\n      add\n      swap1\n      dup1\n      dup1\n      mload\n      swap1\n      0x20\n      add\n      swap1\n      swap3\n      swap2\n      swap1\n      pop\n      pop\n      pop\n        /* \"gist-b9df1f47d280e3707a3b6d35cd582bc9/GlpManager.sol\":6534:6585  bool isWhitelisted = vault.whitelistedTokens(token) */\n      swap1\n      pop\n        /* \"gist-b9df1f47d280e3707a3b6d35cd582bc9/GlpManager.sol\":6605:6618  isWhitelisted */\n      dup1\n        /* \"gist-b9df1f47d280e3707a3b6d35cd582bc9/GlpManager.sol\":6600:6661  if (!isWhitelisted) {... */\n      tag_149\n      jumpi\n        /* \"gist-b9df1f47d280e3707a3b6d35cd582bc9/GlpManager.sol\":6638:6646  continue */\n      pop\n      pop\n      jump(tag_140)\n        /* \"gist-b9df1f47d280e3707a3b6d35cd582bc9/GlpManager.sol\":6600:6661  if (!isWhitelisted) {... */\n    tag_149:\n        /* \"gist-b9df1f47d280e3707a3b6d35cd582bc9/GlpManager.sol\":6675:6688  uint256 price */\n      0x00\n        /* \"gist-b9df1f47d280e3707a3b6d35cd582bc9/GlpManager.sol\":6691:6699  maximise */\n      dup10\n        /* \"gist-b9df1f47d280e3707a3b6d35cd582bc9/GlpManager.sol\":6691:6755  maximise ? _vault.getMaxPrice(token) : _vault.getMinPrice(token) */\n      tag_150\n      jumpi\n        /* \"gist-b9df1f47d280e3707a3b6d35cd582bc9/GlpManager.sol\":6730:6736  _vault */\n      dup5\n        /* \"gist-b9df1f47d280e3707a3b6d35cd582bc9/GlpManager.sol\":6730:6748  _vault.getMinPrice */\n      0xffffffffffffffffffffffffffffffffffffffff\n      and\n      0x81a612d6\n        /* \"gist-b9df1f47d280e3707a3b6d35cd582bc9/GlpManager.sol\":6749:6754  token */\n      dup5\n        /* \"gist-b9df1f47d280e3707a3b6d35cd582bc9/GlpManager.sol\":6730:6755  _vault.getMinPrice(token) */\n      mload(0x40)\n      dup3\n      0xffffffff\n      and\n      0xe0\n      shl\n      dup2\n      mstore\n      0x04\n      add\n      dup1\n      dup3\n      0xffffffffffffffffffffffffffffffffffffffff\n      and\n      dup2\n      mstore\n      0x20\n      add\n      swap2\n      pop\n      pop\n      0x20\n      mload(0x40)\n      dup1\n      dup4\n      sub\n      dup2\n      dup7\n      dup1\n      extcodesize\n      iszero\n      dup1\n      iszero\n      tag_151\n      jumpi\n      0x00\n      dup1\n      revert\n    tag_151:\n      pop\n      gas\n      staticcall\n      iszero\n      dup1\n      iszero\n      tag_153\n      jumpi\n      returndatasize\n      0x00\n      dup1\n      returndatacopy\n      revert(0x00, returndatasize)\n    tag_153:\n      pop\n      pop\n      pop\n      pop\n      mload(0x40)\n      returndatasize\n      0x20\n      dup2\n      lt\n      iszero\n      tag_154\n      jumpi\n      0x00\n      dup1\n      revert\n    tag_154:\n      dup2\n      add\n      swap1\n      dup1\n      dup1\n      mload\n      swap1\n      0x20\n      add\n      swap1\n      swap3\n      swap2\n      swap1\n      pop\n      pop\n      pop\n        /* \"gist-b9df1f47d280e3707a3b6d35cd582bc9/GlpManager.sol\":6691:6755  maximise ? _vault.getMaxPrice(token) : _vault.getMinPrice(token) */\n      jump(tag_155)\n    tag_150:\n        /* \"gist-b9df1f47d280e3707a3b6d35cd582bc9/GlpManager.sol\":6702:6708  _vault */\n      dup5\n        /* \"gist-b9df1f47d280e3707a3b6d35cd582bc9/GlpManager.sol\":6702:6720  _vault.getMaxPrice */\n      0xffffffffffffffffffffffffffffffffffffffff\n      and\n      0xe124e6d2\n        /* \"gist-b9df1f47d280e3707a3b6d35cd582bc9/GlpManager.sol\":6721:6726  token */\n      dup5\n        /* \"gist-b9df1f47d280e3707a3b6d35cd582bc9/GlpManager.sol\":6702:6727  _vault.getMaxPrice(token) */\n      mload(0x40)\n      dup3\n      0xffffffff\n      and\n      0xe0\n      shl\n      dup2\n      mstore\n      0x04\n      add\n      dup1\n      dup3\n      0xffffffffffffffffffffffffffffffffffffffff\n      and\n      dup2\n      mstore\n      0x20\n      add\n      swap2\n      pop\n      pop\n      0x20\n      mload(0x40)\n      dup1\n      dup4\n      sub\n      dup2\n      dup7\n      dup1\n      extcodesize\n      iszero\n      dup1\n      iszero\n      tag_156\n      jumpi\n      0x00\n      dup1\n      revert\n    tag_156:\n      pop\n      gas\n      staticcall\n      iszero\n      dup1\n      iszero\n      tag_158\n      jumpi\n      returndatasize\n      0x00\n      dup1\n      returndatacopy\n      revert(0x00, returndatasize)\n    tag_158:\n      pop\n      pop\n      pop\n      pop\n      mload(0x40)\n      returndatasize\n      0x20\n      dup2\n      lt\n      iszero\n      tag_159\n      jumpi\n      0x00\n      dup1\n      revert\n    tag_159:\n      dup2\n      add\n      swap1\n      dup1\n      dup1\n      mload\n      swap1\n      0x20\n      add\n      swap1\n      swap3\n      swap2\n      swap1\n      pop\n      pop\n      pop\n        /* \"gist-b9df1f47d280e3707a3b6d35cd582bc9/GlpManager.sol\":6691:6755  maximise ? _vault.getMaxPrice(token) : _vault.getMinPrice(token) */\n    tag_155:\n        /* \"gist-b9df1f47d280e3707a3b6d35cd582bc9/GlpManager.sol\":6675:6755  uint256 price = maximise ? _vault.getMaxPrice(token) : _vault.getMinPrice(token) */\n      swap1\n      pop\n        /* \"gist-b9df1f47d280e3707a3b6d35cd582bc9/GlpManager.sol\":6769:6787  uint256 poolAmount */\n      0x00\n        /* \"gist-b9df1f47d280e3707a3b6d35cd582bc9/GlpManager.sol\":6790:6796  _vault */\n      dup6\n        /* \"gist-b9df1f47d280e3707a3b6d35cd582bc9/GlpManager.sol\":6790:6808  _vault.poolAmounts */\n      0xffffffffffffffffffffffffffffffffffffffff\n      and\n      0x52f55eed\n        /* \"gist-b9df1f47d280e3707a3b6d35cd582bc9/GlpManager.sol\":6809:6814  token */\n      dup6\n        /* \"gist-b9df1f47d280e3707a3b6d35cd582bc9/GlpManager.sol\":6790:6815  _vault.poolAmounts(token) */\n      mload(0x40)\n      dup3\n      0xffffffff\n      and\n      0xe0\n      shl\n      dup2\n      mstore\n      0x04\n      add\n      dup1\n      dup3\n      0xffffffffffffffffffffffffffffffffffffffff\n      and\n      dup2\n      mstore\n      0x20\n      add\n      swap2\n      pop\n      pop\n      0x20\n      mload(0x40)\n      dup1\n      dup4\n      sub\n      dup2\n      dup7\n      dup1\n      extcodesize\n      iszero\n      dup1\n      iszero\n      tag_160\n      jumpi\n      0x00\n      dup1\n      revert\n    tag_160:\n      pop\n      gas\n      staticcall\n      iszero\n      dup1\n      iszero\n      tag_162\n      jumpi\n      returndatasize\n      0x00\n      dup1\n      returndatacopy\n      revert(0x00, returndatasize)\n    tag_162:\n      pop\n      pop\n      pop\n      pop\n      mload(0x40)\n      returndatasize\n      0x20\n      dup2\n      lt\n      iszero\n      tag_163\n      jumpi\n      0x00\n      dup1\n      revert\n    tag_163:\n      dup2\n      add\n      swap1\n      dup1\n      dup1\n      mload\n      swap1\n      0x20\n      add\n      swap1\n      swap3\n      swap2\n      swap1\n      pop\n      pop\n      pop\n        /* \"gist-b9df1f47d280e3707a3b6d35cd582bc9/GlpManager.sol\":6769:6815  uint256 poolAmount = _vault.poolAmounts(token) */\n      swap1\n      pop\n        /* \"gist-b9df1f47d280e3707a3b6d35cd582bc9/GlpManager.sol\":6829:6845  uint256 decimals */\n      0x00\n        /* \"gist-b9df1f47d280e3707a3b6d35cd582bc9/GlpManager.sol\":6848:6854  _vault */\n      dup7\n        /* \"gist-b9df1f47d280e3707a3b6d35cd582bc9/GlpManager.sol\":6848:6868  _vault.tokenDecimals */\n      0xffffffffffffffffffffffffffffffffffffffff\n      and\n      0x8ee573ac\n        /* \"gist-b9df1f47d280e3707a3b6d35cd582bc9/GlpManager.sol\":6869:6874  token */\n      dup7\n        /* \"gist-b9df1f47d280e3707a3b6d35cd582bc9/GlpManager.sol\":6848:6875  _vault.tokenDecimals(token) */\n      mload(0x40)\n      dup3\n      0xffffffff\n      and\n      0xe0\n      shl\n      dup2\n      mstore\n      0x04\n      add\n      dup1\n      dup3\n      0xffffffffffffffffffffffffffffffffffffffff\n      and\n      dup2\n      mstore\n      0x20\n      add\n      swap2\n      pop\n      pop\n      0x20\n      mload(0x40)\n      dup1\n      dup4\n      sub\n      dup2\n      dup7\n      dup1\n      extcodesize\n      iszero\n      dup1\n      iszero\n      tag_164\n      jumpi\n      0x00\n      dup1\n      revert\n    tag_164:\n      pop\n      gas\n      staticcall\n      iszero\n      dup1\n      iszero\n      tag_166\n      jumpi\n      returndatasize\n      0x00\n      dup1\n      returndatacopy\n      revert(0x00, returndatasize)\n    tag_166:\n      pop\n      pop\n      pop\n      pop\n      mload(0x40)\n      returndatasize\n      0x20\n      dup2\n      lt\n      iszero\n      tag_167\n      jumpi\n      0x00\n      dup1\n      revert\n    tag_167:\n      dup2\n      add\n      swap1\n      dup1\n      dup1\n      mload\n      swap1\n      0x20\n      add\n      swap1\n      swap3\n      swap2\n      swap1\n      pop\n      pop\n      pop\n        /* \"gist-b9df1f47d280e3707a3b6d35cd582bc9/GlpManager.sol\":6829:6875  uint256 decimals = _vault.tokenDecimals(token) */\n      swap1\n      pop\n        /* \"gist-b9df1f47d280e3707a3b6d35cd582bc9/GlpManager.sol\":6894:6900  _vault */\n      dup7\n        /* \"gist-b9df1f47d280e3707a3b6d35cd582bc9/GlpManager.sol\":6894:6913  _vault.stableTokens */\n      0xffffffffffffffffffffffffffffffffffffffff\n      and\n      0x42b60b03\n        /* \"gist-b9df1f47d280e3707a3b6d35cd582bc9/GlpManager.sol\":6914:6919  token */\n      dup7\n        /* \"gist-b9df1f47d280e3707a3b6d35cd582bc9/GlpManager.sol\":6894:6920  _vault.stableTokens(token) */\n      mload(0x40)\n      dup3\n      0xffffffff\n      and\n      0xe0\n      shl\n      dup2\n      mstore\n      0x04\n      add\n      dup1\n      dup3\n      0xffffffffffffffffffffffffffffffffffffffff\n      and\n      dup2\n      mstore\n      0x20\n      add\n      swap2\n      pop\n      pop\n      0x20\n      mload(0x40)\n      dup1\n      dup4\n      sub\n      dup2\n      dup7\n      dup1\n      extcodesize\n      iszero\n      dup1\n      iszero\n      tag_168\n      jumpi\n      0x00\n      dup1\n      revert\n    tag_168:\n      pop\n      gas\n      staticcall\n      iszero\n      dup1\n      iszero\n      tag_170\n      jumpi\n      returndatasize\n      0x00\n      dup1\n      returndatacopy\n      revert(0x00, returndatasize)\n    tag_170:\n      pop\n      pop\n      pop\n      pop\n      mload(0x40)\n      returndatasize\n      0x20\n      dup2\n      lt\n      iszero\n      tag_171\n      jumpi\n      0x00\n      dup1\n      revert\n    tag_171:\n      dup2\n      add\n      swap1\n      dup1\n      dup1\n      mload\n      swap1\n      0x20\n      add\n      swap1\n      swap3\n      swap2\n      swap1\n      pop\n      pop\n      pop\n        /* \"gist-b9df1f47d280e3707a3b6d35cd582bc9/GlpManager.sol\":6890:7768  if (_vault.stableTokens(token)) {... */\n      iszero\n      tag_172\n      jumpi\n        /* \"gist-b9df1f47d280e3707a3b6d35cd582bc9/GlpManager.sol\":6946:6996  aum.add(poolAmount.mul(price).div(10 ** decimals)) */\n      tag_173\n        /* \"gist-b9df1f47d280e3707a3b6d35cd582bc9/GlpManager.sol\":6954:6995  poolAmount.mul(price).div(10 ** decimals) */\n      tag_174\n        /* \"gist-b9df1f47d280e3707a3b6d35cd582bc9/GlpManager.sol\":6986:6994  decimals */\n      dup3\n        /* \"gist-b9df1f47d280e3707a3b6d35cd582bc9/GlpManager.sol\":6980:6982  10 */\n      0x0a\n        /* \"gist-b9df1f47d280e3707a3b6d35cd582bc9/GlpManager.sol\":6980:6994  10 ** decimals */\n      exp\n        /* \"gist-b9df1f47d280e3707a3b6d35cd582bc9/GlpManager.sol\":6954:6975  poolAmount.mul(price) */\n      tag_175\n        /* \"gist-b9df1f47d280e3707a3b6d35cd582bc9/GlpManager.sol\":6969:6974  price */\n      dup7\n        /* \"gist-b9df1f47d280e3707a3b6d35cd582bc9/GlpManager.sol\":6954:6964  poolAmount */\n      dup7\n        /* \"gist-b9df1f47d280e3707a3b6d35cd582bc9/GlpManager.sol\":6954:6968  poolAmount.mul */\n      tag_176\n      swap1\n        /* \"gist-b9df1f47d280e3707a3b6d35cd582bc9/GlpManager.sol\":6954:6975  poolAmount.mul(price) */\n      swap2\n      swap1\n      0xffffffff\n      and\n      jump\t// in\n    tag_175:\n        /* \"gist-b9df1f47d280e3707a3b6d35cd582bc9/GlpManager.sol\":6954:6979  poolAmount.mul(price).div */\n      tag_177\n      swap1\n        /* \"gist-b9df1f47d280e3707a3b6d35cd582bc9/GlpManager.sol\":6954:6995  poolAmount.mul(price).div(10 ** decimals) */\n      swap2\n      swap1\n      0xffffffff\n      and\n      jump\t// in\n    tag_174:\n        /* \"gist-b9df1f47d280e3707a3b6d35cd582bc9/GlpManager.sol\":6946:6949  aum */\n      dup11\n        /* \"gist-b9df1f47d280e3707a3b6d35cd582bc9/GlpManager.sol\":6946:6953  aum.add */\n      tag_178\n      swap1\n        /* \"gist-b9df1f47d280e3707a3b6d35cd582bc9/GlpManager.sol\":6946:6996  aum.add(poolAmount.mul(price).div(10 ** decimals)) */\n      swap2\n      swap1\n      0xffffffff\n      and\n      jump\t// in\n    tag_173:\n        /* \"gist-b9df1f47d280e3707a3b6d35cd582bc9/GlpManager.sol\":6940:6996  aum = aum.add(poolAmount.mul(price).div(10 ** decimals)) */\n      swap9\n      pop\n        /* \"gist-b9df1f47d280e3707a3b6d35cd582bc9/GlpManager.sol\":6890:7768  if (_vault.stableTokens(token)) {... */\n      jump(tag_179)\n    tag_172:\n        /* \"gist-b9df1f47d280e3707a3b6d35cd582bc9/GlpManager.sol\":7085:7097  uint256 size */\n      0x00\n        /* \"gist-b9df1f47d280e3707a3b6d35cd582bc9/GlpManager.sol\":7100:7106  _vault */\n      dup8\n        /* \"gist-b9df1f47d280e3707a3b6d35cd582bc9/GlpManager.sol\":7100:7123  _vault.globalShortSizes */\n      0xffffffffffffffffffffffffffffffffffffffff\n      and\n      0x8a78daa8\n        /* \"gist-b9df1f47d280e3707a3b6d35cd582bc9/GlpManager.sol\":7124:7129  token */\n      dup8\n        /* \"gist-b9df1f47d280e3707a3b6d35cd582bc9/GlpManager.sol\":7100:7130  _vault.globalShortSizes(token) */\n      mload(0x40)\n      dup3\n      0xffffffff\n      and\n      0xe0\n      shl\n      dup2\n      mstore\n      0x04\n      add\n      dup1\n      dup3\n      0xffffffffffffffffffffffffffffffffffffffff\n      and\n      dup2\n      mstore\n      0x20\n      add\n      swap2\n      pop\n      pop\n      0x20\n      mload(0x40)\n      dup1\n      dup4\n      sub\n      dup2\n      dup7\n      dup1\n      extcodesize\n      iszero\n      dup1\n      iszero\n      tag_180\n      jumpi\n      0x00\n      dup1\n      revert\n    tag_180:\n      pop\n      gas\n      staticcall\n      iszero\n      dup1\n      iszero\n      tag_182\n      jumpi\n      returndatasize\n      0x00\n      dup1\n      returndatacopy\n      revert(0x00, returndatasize)\n    tag_182:\n      pop\n      pop\n      pop\n      pop\n      mload(0x40)\n      returndatasize\n      0x20\n      dup2\n      lt\n      iszero\n      tag_183\n      jumpi\n      0x00\n      dup1\n      revert\n    tag_183:\n      dup2\n      add\n      swap1\n      dup1\n      dup1\n      mload\n      swap1\n      0x20\n      add\n      swap1\n      swap3\n      swap2\n      swap1\n      pop\n      pop\n      pop\n        /* \"gist-b9df1f47d280e3707a3b6d35cd582bc9/GlpManager.sol\":7085:7130  uint256 size = _vault.globalShortSizes(token) */\n      swap1\n      pop\n        /* \"gist-b9df1f47d280e3707a3b6d35cd582bc9/GlpManager.sol\":7160:7161  0 */\n      0x00\n        /* \"gist-b9df1f47d280e3707a3b6d35cd582bc9/GlpManager.sol\":7153:7157  size */\n      dup2\n        /* \"gist-b9df1f47d280e3707a3b6d35cd582bc9/GlpManager.sol\":7153:7161  size > 0 */\n      gt\n        /* \"gist-b9df1f47d280e3707a3b6d35cd582bc9/GlpManager.sol\":7149:7526  if (size > 0) {... */\n      iszero\n      tag_184\n      jumpi\n        /* \"gist-b9df1f47d280e3707a3b6d35cd582bc9/GlpManager.sol\":7186:7199  uint256 delta */\n      0x00\n        /* \"gist-b9df1f47d280e3707a3b6d35cd582bc9/GlpManager.sol\":7201:7215  bool hasProfit */\n      dup1\n        /* \"gist-b9df1f47d280e3707a3b6d35cd582bc9/GlpManager.sol\":7219:7258  getGlobalShortDelta(token, price, size) */\n      tag_185\n        /* \"gist-b9df1f47d280e3707a3b6d35cd582bc9/GlpManager.sol\":7239:7244  token */\n      dup9\n        /* \"gist-b9df1f47d280e3707a3b6d35cd582bc9/GlpManager.sol\":7246:7251  price */\n      dup8\n        /* \"gist-b9df1f47d280e3707a3b6d35cd582bc9/GlpManager.sol\":7253:7257  size */\n      dup6\n        /* \"gist-b9df1f47d280e3707a3b6d35cd582bc9/GlpManager.sol\":7219:7238  getGlobalShortDelta */\n      tag_112\n        /* \"gist-b9df1f47d280e3707a3b6d35cd582bc9/GlpManager.sol\":7219:7258  getGlobalShortDelta(token, price, size) */\n      jump\t// in\n    tag_185:\n        /* \"gist-b9df1f47d280e3707a3b6d35cd582bc9/GlpManager.sol\":7185:7258  (uint256 delta, bool hasProfit) = getGlobalShortDelta(token, price, size) */\n      swap2\n      pop\n      swap2\n      pop\n        /* \"gist-b9df1f47d280e3707a3b6d35cd582bc9/GlpManager.sol\":7285:7294  hasProfit */\n      dup1\n        /* \"gist-b9df1f47d280e3707a3b6d35cd582bc9/GlpManager.sol\":7280:7508  if (!hasProfit) {... */\n      tag_186\n      jumpi\n        /* \"gist-b9df1f47d280e3707a3b6d35cd582bc9/GlpManager.sol\":7378:7392  aum.add(delta) */\n      tag_187\n        /* \"gist-b9df1f47d280e3707a3b6d35cd582bc9/GlpManager.sol\":7386:7391  delta */\n      dup3\n        /* \"gist-b9df1f47d280e3707a3b6d35cd582bc9/GlpManager.sol\":7378:7381  aum */\n      dup14\n        /* \"gist-b9df1f47d280e3707a3b6d35cd582bc9/GlpManager.sol\":7378:7385  aum.add */\n      tag_178\n      swap1\n        /* \"gist-b9df1f47d280e3707a3b6d35cd582bc9/GlpManager.sol\":7378:7392  aum.add(delta) */\n      swap2\n      swap1\n      0xffffffff\n      and\n      jump\t// in\n    tag_187:\n        /* \"gist-b9df1f47d280e3707a3b6d35cd582bc9/GlpManager.sol\":7372:7392  aum = aum.add(delta) */\n      swap12\n      pop\n        /* \"gist-b9df1f47d280e3707a3b6d35cd582bc9/GlpManager.sol\":7280:7508  if (!hasProfit) {... */\n      jump(tag_188)\n    tag_186:\n        /* \"gist-b9df1f47d280e3707a3b6d35cd582bc9/GlpManager.sol\":7462:7485  shortProfits.add(delta) */\n      tag_189\n        /* \"gist-b9df1f47d280e3707a3b6d35cd582bc9/GlpManager.sol\":7479:7484  delta */\n      dup3\n        /* \"gist-b9df1f47d280e3707a3b6d35cd582bc9/GlpManager.sol\":7462:7474  shortProfits */\n      dup13\n        /* \"gist-b9df1f47d280e3707a3b6d35cd582bc9/GlpManager.sol\":7462:7478  shortProfits.add */\n      tag_178\n      swap1\n        /* \"gist-b9df1f47d280e3707a3b6d35cd582bc9/GlpManager.sol\":7462:7485  shortProfits.add(delta) */\n      swap2\n      swap1\n      0xffffffff\n      and\n      jump\t// in\n    tag_189:\n        /* \"gist-b9df1f47d280e3707a3b6d35cd582bc9/GlpManager.sol\":7447:7485  shortProfits = shortProfits.add(delta) */\n      swap11\n      pop\n        /* \"gist-b9df1f47d280e3707a3b6d35cd582bc9/GlpManager.sol\":7280:7508  if (!hasProfit) {... */\n    tag_188:\n        /* \"gist-b9df1f47d280e3707a3b6d35cd582bc9/GlpManager.sol\":7149:7526  if (size > 0) {... */\n      pop\n      pop\n    tag_184:\n        /* \"gist-b9df1f47d280e3707a3b6d35cd582bc9/GlpManager.sol\":7550:7586  aum.add(_vault.guaranteedUsd(token)) */\n      tag_190\n        /* \"gist-b9df1f47d280e3707a3b6d35cd582bc9/GlpManager.sol\":7558:7564  _vault */\n      dup9\n        /* \"gist-b9df1f47d280e3707a3b6d35cd582bc9/GlpManager.sol\":7558:7578  _vault.guaranteedUsd */\n      0xffffffffffffffffffffffffffffffffffffffff\n      and\n      0xf07456ce\n        /* \"gist-b9df1f47d280e3707a3b6d35cd582bc9/GlpManager.sol\":7579:7584  token */\n      dup9\n        /* \"gist-b9df1f47d280e3707a3b6d35cd582bc9/GlpManager.sol\":7558:7585  _vault.guaranteedUsd(token) */\n      mload(0x40)\n      dup3\n      0xffffffff\n      and\n      0xe0\n      shl\n      dup2\n      mstore\n      0x04\n      add\n      dup1\n      dup3\n      0xffffffffffffffffffffffffffffffffffffffff\n      and\n      dup2\n      mstore\n      0x20\n      add\n      swap2\n      pop\n      pop\n      0x20\n      mload(0x40)\n      dup1\n      dup4\n      sub\n      dup2\n      dup7\n      dup1\n      extcodesize\n      iszero\n      dup1\n      iszero\n      tag_191\n      jumpi\n      0x00\n      dup1\n      revert\n    tag_191:\n      pop\n      gas\n      staticcall\n      iszero\n      dup1\n      iszero\n      tag_193\n      jumpi\n      returndatasize\n      0x00\n      dup1\n      returndatacopy\n      revert(0x00, returndatasize)\n    tag_193:\n      pop\n      pop\n      pop\n      pop\n      mload(0x40)\n      returndatasize\n      0x20\n      dup2\n      lt\n      iszero\n      tag_194\n      jumpi\n      0x00\n      dup1\n      revert\n    tag_194:\n      dup2\n      add\n      swap1\n      dup1\n      dup1\n      mload\n      swap1\n      0x20\n      add\n      swap1\n      swap3\n      swap2\n      swap1\n      pop\n      pop\n      pop\n        /* \"gist-b9df1f47d280e3707a3b6d35cd582bc9/GlpManager.sol\":7550:7553  aum */\n      dup12\n        /* \"gist-b9df1f47d280e3707a3b6d35cd582bc9/GlpManager.sol\":7550:7557  aum.add */\n      tag_178\n      swap1\n        /* \"gist-b9df1f47d280e3707a3b6d35cd582bc9/GlpManager.sol\":7550:7586  aum.add(_vault.guaranteedUsd(token)) */\n      swap2\n      swap1\n      0xffffffff\n      and\n      jump\t// in\n    tag_190:\n        /* \"gist-b9df1f47d280e3707a3b6d35cd582bc9/GlpManager.sol\":7544:7586  aum = aum.add(_vault.guaranteedUsd(token)) */\n      swap10\n      pop\n        /* \"gist-b9df1f47d280e3707a3b6d35cd582bc9/GlpManager.sol\":7605:7627  uint256 reservedAmount */\n      0x00\n        /* \"gist-b9df1f47d280e3707a3b6d35cd582bc9/GlpManager.sol\":7630:7636  _vault */\n      dup9\n        /* \"gist-b9df1f47d280e3707a3b6d35cd582bc9/GlpManager.sol\":7630:7652  _vault.reservedAmounts */\n      0xffffffffffffffffffffffffffffffffffffffff\n      and\n      0xc3c7b9e9\n        /* \"gist-b9df1f47d280e3707a3b6d35cd582bc9/GlpManager.sol\":7653:7658  token */\n      dup9\n        /* \"gist-b9df1f47d280e3707a3b6d35cd582bc9/GlpManager.sol\":7630:7659  _vault.reservedAmounts(token) */\n      mload(0x40)\n      dup3\n      0xffffffff\n      and\n      0xe0\n      shl\n      dup2\n      mstore\n      0x04\n      add\n      dup1\n      dup3\n      0xffffffffffffffffffffffffffffffffffffffff\n      and\n      dup2\n      mstore\n      0x20\n      add\n      swap2\n      pop\n      pop\n      0x20\n      mload(0x40)\n      dup1\n      dup4\n      sub\n      dup2\n      dup7\n      dup1\n      extcodesize\n      iszero\n      dup1\n      iszero\n      tag_195\n      jumpi\n      0x00\n      dup1\n      revert\n    tag_195:\n      pop\n      gas\n      staticcall\n      iszero\n      dup1\n      iszero\n      tag_197\n      jumpi\n      returndatasize\n      0x00\n      dup1\n      returndatacopy\n      revert(0x00, returndatasize)\n    tag_197:\n      pop\n      pop\n      pop\n      pop\n      mload(0x40)\n      returndatasize\n      0x20\n      dup2\n      lt\n      iszero\n      tag_198\n      jumpi\n      0x00\n      dup1\n      revert\n    tag_198:\n      dup2\n      add\n      swap1\n      dup1\n      dup1\n      mload\n      swap1\n      0x20\n      add\n      swap1\n      swap3\n      swap2\n      swap1\n      pop\n      pop\n      pop\n        /* \"gist-b9df1f47d280e3707a3b6d35cd582bc9/GlpManager.sol\":7605:7659  uint256 reservedAmount = _vault.reservedAmounts(token) */\n      swap1\n      pop\n        /* \"gist-b9df1f47d280e3707a3b6d35cd582bc9/GlpManager.sol\":7683:7753  aum.add(poolAmount.sub(reservedAmount).mul(price).div(10 ** decimals)) */\n      tag_199\n        /* \"gist-b9df1f47d280e3707a3b6d35cd582bc9/GlpManager.sol\":7691:7752  poolAmount.sub(reservedAmount).mul(price).div(10 ** decimals) */\n      tag_200\n        /* \"gist-b9df1f47d280e3707a3b6d35cd582bc9/GlpManager.sol\":7743:7751  decimals */\n      dup5\n        /* \"gist-b9df1f47d280e3707a3b6d35cd582bc9/GlpManager.sol\":7737:7739  10 */\n      0x0a\n        /* \"gist-b9df1f47d280e3707a3b6d35cd582bc9/GlpManager.sol\":7737:7751  10 ** decimals */\n      exp\n        /* \"gist-b9df1f47d280e3707a3b6d35cd582bc9/GlpManager.sol\":7691:7732  poolAmount.sub(reservedAmount).mul(price) */\n      tag_201\n        /* \"gist-b9df1f47d280e3707a3b6d35cd582bc9/GlpManager.sol\":7726:7731  price */\n      dup9\n        /* \"gist-b9df1f47d280e3707a3b6d35cd582bc9/GlpManager.sol\":7691:7721  poolAmount.sub(reservedAmount) */\n      tag_202\n        /* \"gist-b9df1f47d280e3707a3b6d35cd582bc9/GlpManager.sol\":7706:7720  reservedAmount */\n      dup7\n        /* \"gist-b9df1f47d280e3707a3b6d35cd582bc9/GlpManager.sol\":7691:7701  poolAmount */\n      dup11\n        /* \"gist-b9df1f47d280e3707a3b6d35cd582bc9/GlpManager.sol\":7691:7705  poolAmount.sub */\n      tag_203\n      swap1\n        /* \"gist-b9df1f47d280e3707a3b6d35cd582bc9/GlpManager.sol\":7691:7721  poolAmount.sub(reservedAmount) */\n      swap2\n      swap1\n      0xffffffff\n      and\n      jump\t// in\n    tag_202:\n        /* \"gist-b9df1f47d280e3707a3b6d35cd582bc9/GlpManager.sol\":7691:7725  poolAmount.sub(reservedAmount).mul */\n      tag_176\n      swap1\n        /* \"gist-b9df1f47d280e3707a3b6d35cd582bc9/GlpManager.sol\":7691:7732  poolAmount.sub(reservedAmount).mul(price) */\n      swap2\n      swap1\n      0xffffffff\n      and\n      jump\t// in\n    tag_201:\n        /* \"gist-b9df1f47d280e3707a3b6d35cd582bc9/GlpManager.sol\":7691:7736  poolAmount.sub(reservedAmount).mul(price).div */\n      tag_177\n      swap1\n        /* \"gist-b9df1f47d280e3707a3b6d35cd582bc9/GlpManager.sol\":7691:7752  poolAmount.sub(reservedAmount).mul(price).div(10 ** decimals) */\n      swap2\n      swap1\n      0xffffffff\n      and\n      jump\t// in\n    tag_200:\n        /* \"gist-b9df1f47d280e3707a3b6d35cd582bc9/GlpManager.sol\":7683:7686  aum */\n      dup13\n        /* \"gist-b9df1f47d280e3707a3b6d35cd582bc9/GlpManager.sol\":7683:7690  aum.add */\n      tag_178\n      swap1\n        /* \"gist-b9df1f47d280e3707a3b6d35cd582bc9/GlpManager.sol\":7683:7753  aum.add(poolAmount.sub(reservedAmount).mul(price).div(10 ** decimals)) */\n      swap2\n      swap1\n      0xffffffff\n      and\n      jump\t// in\n    tag_199:\n        /* \"gist-b9df1f47d280e3707a3b6d35cd582bc9/GlpManager.sol\":7677:7753  aum = aum.add(poolAmount.sub(reservedAmount).mul(price).div(10 ** decimals)) */\n      swap11\n      pop\n        /* \"gist-b9df1f47d280e3707a3b6d35cd582bc9/GlpManager.sol\":6890:7768  if (_vault.stableTokens(token)) {... */\n      pop\n      pop\n    tag_179:\n        /* \"gist-b9df1f47d280e3707a3b6d35cd582bc9/GlpManager.sol\":6424:7778  for (uint256 i = 0; i < length; i++) {... */\n      pop\n      pop\n      pop\n      pop\n      pop\n    tag_140:\n        /* \"gist-b9df1f47d280e3707a3b6d35cd582bc9/GlpManager.sol\":6456:6459  i++ */\n      dup1\n      dup1\n      0x01\n      add\n      swap2\n      pop\n      pop\n        /* \"gist-b9df1f47d280e3707a3b6d35cd582bc9/GlpManager.sol\":6424:7778  for (uint256 i = 0; i < length; i++) {... */\n      jump(tag_138)\n    tag_139:\n      pop\n        /* \"gist-b9df1f47d280e3707a3b6d35cd582bc9/GlpManager.sol\":7809:7812  aum */\n      dup3\n        /* \"gist-b9df1f47d280e3707a3b6d35cd582bc9/GlpManager.sol\":7794:7806  shortProfits */\n      dup3\n        /* \"gist-b9df1f47d280e3707a3b6d35cd582bc9/GlpManager.sol\":7794:7812  shortProfits > aum */\n      gt\n        /* \"gist-b9df1f47d280e3707a3b6d35cd582bc9/GlpManager.sol\":7794:7840  shortProfits > aum ? 0 : aum.sub(shortProfits) */\n      tag_204\n      jumpi\n        /* \"gist-b9df1f47d280e3707a3b6d35cd582bc9/GlpManager.sol\":7819:7840  aum.sub(shortProfits) */\n      tag_205\n        /* \"gist-b9df1f47d280e3707a3b6d35cd582bc9/GlpManager.sol\":7827:7839  shortProfits */\n      dup3\n        /* \"gist-b9df1f47d280e3707a3b6d35cd582bc9/GlpManager.sol\":7819:7822  aum */\n      dup5\n        /* \"gist-b9df1f47d280e3707a3b6d35cd582bc9/GlpManager.sol\":7819:7826  aum.sub */\n      tag_203\n      swap1\n        /* \"gist-b9df1f47d280e3707a3b6d35cd582bc9/GlpManager.sol\":7819:7840  aum.sub(shortProfits) */\n      swap2\n      swap1\n      0xffffffff\n      and\n      jump\t// in\n    tag_205:\n        /* \"gist-b9df1f47d280e3707a3b6d35cd582bc9/GlpManager.sol\":7794:7840  shortProfits > aum ? 0 : aum.sub(shortProfits) */\n      jump(tag_206)\n    tag_204:\n        /* \"gist-b9df1f47d280e3707a3b6d35cd582bc9/GlpManager.sol\":7815:7816  0 */\n      0x00\n        /* \"gist-b9df1f47d280e3707a3b6d35cd582bc9/GlpManager.sol\":7794:7840  shortProfits > aum ? 0 : aum.sub(shortProfits) */\n    tag_206:\n        /* \"gist-b9df1f47d280e3707a3b6d35cd582bc9/GlpManager.sol\":7788:7840  aum = shortProfits > aum ? 0 : aum.sub(shortProfits) */\n      swap3\n      pop\n        /* \"gist-b9df1f47d280e3707a3b6d35cd582bc9/GlpManager.sol\":7872:7875  aum */\n      dup3\n        /* \"gist-b9df1f47d280e3707a3b6d35cd582bc9/GlpManager.sol\":7857:7869  aumDeduction */\n      sload(0x09)\n        /* \"gist-b9df1f47d280e3707a3b6d35cd582bc9/GlpManager.sol\":7857:7875  aumDeduction > aum */\n      gt\n        /* \"gist-b9df1f47d280e3707a3b6d35cd582bc9/GlpManager.sol\":7857:7903  aumDeduction > aum ? 0 : aum.sub(aumDeduction) */\n      tag_207\n      jumpi\n        /* \"gist-b9df1f47d280e3707a3b6d35cd582bc9/GlpManager.sol\":7882:7903  aum.sub(aumDeduction) */\n      tag_208\n        /* \"gist-b9df1f47d280e3707a3b6d35cd582bc9/GlpManager.sol\":7890:7902  aumDeduction */\n      sload(0x09)\n        /* \"gist-b9df1f47d280e3707a3b6d35cd582bc9/GlpManager.sol\":7882:7885  aum */\n      dup5\n        /* \"gist-b9df1f47d280e3707a3b6d35cd582bc9/GlpManager.sol\":7882:7889  aum.sub */\n      tag_203\n      swap1\n        /* \"gist-b9df1f47d280e3707a3b6d35cd582bc9/GlpManager.sol\":7882:7903  aum.sub(aumDeduction) */\n      swap2\n      swap1\n      0xffffffff\n      and\n      jump\t// in\n    tag_208:\n        /* \"gist-b9df1f47d280e3707a3b6d35cd582bc9/GlpManager.sol\":7857:7903  aumDeduction > aum ? 0 : aum.sub(aumDeduction) */\n      jump(tag_209)\n    tag_207:\n        /* \"gist-b9df1f47d280e3707a3b6d35cd582bc9/GlpManager.sol\":7878:7879  0 */\n      0x00\n        /* \"gist-b9df1f47d280e3707a3b6d35cd582bc9/GlpManager.sol\":7857:7903  aumDeduction > aum ? 0 : aum.sub(aumDeduction) */\n    tag_209:\n        /* \"gist-b9df1f47d280e3707a3b6d35cd582bc9/GlpManager.sol\":7850:7903  return aumDeduction > aum ? 0 : aum.sub(aumDeduction) */\n      swap5\n      pop\n      pop\n      pop\n      pop\n      pop\n        /* \"gist-b9df1f47d280e3707a3b6d35cd582bc9/GlpManager.sol\":6191:7910  function getAum(bool maximise) public view returns (uint256) {... */\n      swap2\n      swap1\n      pop\n      jump\t// out\n        /* \"gist-b9df1f47d280e3707a3b6d35cd582bc9/GlpManager.sol\":2301:2326  bool public inPrivateMode */\n    tag_48:\n      0x0a\n      0x00\n      swap1\n      sload\n      swap1\n      0x0100\n      exp\n      swap1\n      div\n      0xff\n      and\n      dup2\n      jump\t// out\n        /* \"gist-b9df1f47d280e3707a3b6d35cd582bc9/GlpManager.sol\":1924:1976  uint256 public constant BASIS_POINTS_DIVISOR = 10000 */\n    tag_50:\n        /* \"gist-b9df1f47d280e3707a3b6d35cd582bc9/GlpManager.sol\":1971:1976  10000 */\n      0x2710\n        /* \"gist-b9df1f47d280e3707a3b6d35cd582bc9/GlpManager.sol\":1924:1976  uint256 public constant BASIS_POINTS_DIVISOR = 10000 */\n      dup2\n      jump\t// out\n        /* \"gist-b9df1f47d280e3707a3b6d35cd582bc9/Governable.sol\":1330:1348  address public gov */\n    tag_52:\n      0x01\n      0x00\n      swap1\n      sload\n      swap1\n      0x0100\n      exp\n      swap1\n      div\n      0xffffffffffffffffffffffffffffffffffffffff\n      and\n      dup2\n      jump\t// out\n        /* \"gist-b9df1f47d280e3707a3b6d35cd582bc9/GlpManager.sol\":4601:4921  function addLiquidityForAccount(address _fundingAccount, address _account, address _token, uint256 _amount, uint256 _minUsdg, uint256 _minGlp) external override nonReentrant returns (uint256) {... */\n    tag_55:\n        /* \"gist-b9df1f47d280e3707a3b6d35cd582bc9/GlpManager.sol\":4784:4791  uint256 */\n      0x00\n        /* \"gist-b9df1f47d280e3707a3b6d35cd582bc9/ReentrancyGuard.sol\":2917:2918  2 */\n      0x02\n        /* \"gist-b9df1f47d280e3707a3b6d35cd582bc9/ReentrancyGuard.sol\":3506:3513  _status */\n      sload(0x00)\n        /* \"gist-b9df1f47d280e3707a3b6d35cd582bc9/ReentrancyGuard.sol\":3506:3525  _status != _ENTERED */\n      eq\n      iszero\n        /* \"gist-b9df1f47d280e3707a3b6d35cd582bc9/ReentrancyGuard.sol\":3498:3561  require(_status != _ENTERED, \"ReentrancyGuard: reentrant call\") */\n      tag_211\n      jumpi\n      mload(0x40)\n      0x08c379a000000000000000000000000000000000000000000000000000000000\n      dup2\n      mstore\n      0x04\n      add\n      dup1\n      dup1\n      0x20\n      add\n      dup3\n      dup2\n      sub\n      dup3\n      mstore\n      0x1f\n      dup2\n      mstore\n      0x20\n      add\n      dup1\n      0x5265656e7472616e637947756172643a207265656e7472616e742063616c6c00\n      dup2\n      mstore\n      pop\n      0x20\n      add\n      swap2\n      pop\n      pop\n      mload(0x40)\n      dup1\n      swap2\n      sub\n      swap1\n      revert\n    tag_211:\n        /* \"gist-b9df1f47d280e3707a3b6d35cd582bc9/ReentrancyGuard.sol\":2917:2918  2 */\n      0x02\n        /* \"gist-b9df1f47d280e3707a3b6d35cd582bc9/ReentrancyGuard.sol\":3636:3643  _status */\n      0x00\n        /* \"gist-b9df1f47d280e3707a3b6d35cd582bc9/ReentrancyGuard.sol\":3636:3654  _status = _ENTERED */\n      dup2\n      swap1\n      sstore\n      pop\n        /* \"gist-b9df1f47d280e3707a3b6d35cd582bc9/GlpManager.sol\":4803:4821  _validateHandler() */\n      tag_213\n        /* \"gist-b9df1f47d280e3707a3b6d35cd582bc9/GlpManager.sol\":4803:4819  _validateHandler */\n      tag_214\n        /* \"gist-b9df1f47d280e3707a3b6d35cd582bc9/GlpManager.sol\":4803:4821  _validateHandler() */\n      jump\t// in\n    tag_213:\n        /* \"gist-b9df1f47d280e3707a3b6d35cd582bc9/GlpManager.sol\":4838:4914  _addLiquidity(_fundingAccount, _account, _token, _amount, _minUsdg, _minGlp) */\n      tag_215\n        /* \"gist-b9df1f47d280e3707a3b6d35cd582bc9/GlpManager.sol\":4852:4867  _fundingAccount */\n      dup8\n        /* \"gist-b9df1f47d280e3707a3b6d35cd582bc9/GlpManager.sol\":4869:4877  _account */\n      dup8\n        /* \"gist-b9df1f47d280e3707a3b6d35cd582bc9/GlpManager.sol\":4879:4885  _token */\n      dup8\n        /* \"gist-b9df1f47d280e3707a3b6d35cd582bc9/GlpManager.sol\":4887:4894  _amount */\n      dup8\n        /* \"gist-b9df1f47d280e3707a3b6d35cd582bc9/GlpManager.sol\":4896:4904  _minUsdg */\n      dup8\n        /* \"gist-b9df1f47d280e3707a3b6d35cd582bc9/GlpManager.sol\":4906:4913  _minGlp */\n      dup8\n        /* \"gist-b9df1f47d280e3707a3b6d35cd582bc9/GlpManager.sol\":4838:4851  _addLiquidity */\n      tag_216\n        /* \"gist-b9df1f47d280e3707a3b6d35cd582bc9/GlpManager.sol\":4838:4914  _addLiquidity(_fundingAccount, _account, _token, _amount, _minUsdg, _minGlp) */\n      jump\t// in\n    tag_215:\n        /* \"gist-b9df1f47d280e3707a3b6d35cd582bc9/GlpManager.sol\":4831:4914  return _addLiquidity(_fundingAccount, _account, _token, _amount, _minUsdg, _minGlp) */\n      swap1\n      pop\n        /* \"gist-b9df1f47d280e3707a3b6d35cd582bc9/ReentrancyGuard.sol\":2874:2875  1 */\n      0x01\n        /* \"gist-b9df1f47d280e3707a3b6d35cd582bc9/ReentrancyGuard.sol\":3809:3816  _status */\n      0x00\n        /* \"gist-b9df1f47d280e3707a3b6d35cd582bc9/ReentrancyGuard.sol\":3809:3831  _status = _NOT_ENTERED */\n      dup2\n      swap1\n      sstore\n      pop\n        /* \"gist-b9df1f47d280e3707a3b6d35cd582bc9/GlpManager.sol\":4601:4921  function addLiquidityForAccount(address _fundingAccount, address _account, address _token, uint256 _amount, uint256 _minUsdg, uint256 _minGlp) external override nonReentrant returns (uint256) {... */\n      swap7\n      swap6\n      pop\n      pop\n      pop\n      pop\n      pop\n      pop\n      jump\t// out\n        /* \"gist-b9df1f47d280e3707a3b6d35cd582bc9/GlpManager.sol\":2235:2261  uint256 public aumAddition */\n    tag_57:\n      sload(0x08)\n      dup2\n      jump\t// out\n        /* \"gist-b9df1f47d280e3707a3b6d35cd582bc9/GlpManager.sol\":1862:1918  uint256 public constant MAX_COOLDOWN_DURATION = 48 hours */\n    tag_59:\n        /* \"gist-b9df1f47d280e3707a3b6d35cd582bc9/GlpManager.sol\":1910:1918  48 hours */\n      0x02a300\n        /* \"gist-b9df1f47d280e3707a3b6d35cd582bc9/GlpManager.sol\":1862:1918  uint256 public constant MAX_COOLDOWN_DURATION = 48 hours */\n      dup2\n      jump\t// out\n        /* \"gist-b9df1f47d280e3707a3b6d35cd582bc9/GlpManager.sol\":4286:4595  function addLiquidity(address _token, uint256 _amount, uint256 _minUsdg, uint256 _minGlp) external override nonReentrant returns (uint256) {... */\n    tag_62:\n        /* \"gist-b9df1f47d280e3707a3b6d35cd582bc9/GlpManager.sol\":4416:4423  uint256 */\n      0x00\n        /* \"gist-b9df1f47d280e3707a3b6d35cd582bc9/ReentrancyGuard.sol\":2917:2918  2 */\n      0x02\n        /* \"gist-b9df1f47d280e3707a3b6d35cd582bc9/ReentrancyGuard.sol\":3506:3513  _status */\n      sload(0x00)\n        /* \"gist-b9df1f47d280e3707a3b6d35cd582bc9/ReentrancyGuard.sol\":3506:3525  _status != _ENTERED */\n      eq\n      iszero\n        /* \"gist-b9df1f47d280e3707a3b6d35cd582bc9/ReentrancyGuard.sol\":3498:3561  require(_status != _ENTERED, \"ReentrancyGuard: reentrant call\") */\n      tag_218\n      jumpi\n      mload(0x40)\n      0x08c379a000000000000000000000000000000000000000000000000000000000\n      dup2\n      mstore\n      0x04\n      add\n      dup1\n      dup1\n      0x20\n      add\n      dup3\n      dup2\n      sub\n      dup3\n      mstore\n      0x1f\n      dup2\n      mstore\n      0x20\n      add\n      dup1\n      0x5265656e7472616e637947756172643a207265656e7472616e742063616c6c00\n      dup2\n      mstore\n      pop\n      0x20\n      add\n      swap2\n      pop\n      pop\n      mload(0x40)\n      dup1\n      swap2\n      sub\n      swap1\n      revert\n    tag_218:\n        /* \"gist-b9df1f47d280e3707a3b6d35cd582bc9/ReentrancyGuard.sol\":2917:2918  2 */\n      0x02\n        /* \"gist-b9df1f47d280e3707a3b6d35cd582bc9/ReentrancyGuard.sol\":3636:3643  _status */\n      0x00\n        /* \"gist-b9df1f47d280e3707a3b6d35cd582bc9/ReentrancyGuard.sol\":3636:3654  _status = _ENTERED */\n      dup2\n      swap1\n      sstore\n      pop\n        /* \"gist-b9df1f47d280e3707a3b6d35cd582bc9/GlpManager.sol\":4439:4452  inPrivateMode */\n      0x0a\n      0x00\n      swap1\n      sload\n      swap1\n      0x0100\n      exp\n      swap1\n      div\n      0xff\n      and\n        /* \"gist-b9df1f47d280e3707a3b6d35cd582bc9/GlpManager.sol\":4435:4499  if (inPrivateMode) { revert(\"GlpManager: action not enabled\"); } */\n      iszero\n      tag_220\n      jumpi\n        /* \"gist-b9df1f47d280e3707a3b6d35cd582bc9/GlpManager.sol\":4456:4496  revert(\"GlpManager: action not enabled\") */\n      mload(0x40)\n      0x08c379a000000000000000000000000000000000000000000000000000000000\n      dup2\n      mstore\n      0x04\n      add\n      dup1\n      dup1\n      0x20\n      add\n      dup3\n      dup2\n      sub\n      dup3\n      mstore\n      0x1e\n      dup2\n      mstore\n      0x20\n      add\n      dup1\n      0x476c704d616e616765723a20616374696f6e206e6f7420656e61626c65640000\n      dup2\n      mstore\n      pop\n      0x20\n      add\n      swap2\n      pop\n      pop\n      mload(0x40)\n      dup1\n      swap2\n      sub\n      swap1\n      revert\n        /* \"gist-b9df1f47d280e3707a3b6d35cd582bc9/GlpManager.sol\":4435:4499  if (inPrivateMode) { revert(\"GlpManager: action not enabled\"); } */\n    tag_220:\n        /* \"gist-b9df1f47d280e3707a3b6d35cd582bc9/GlpManager.sol\":4515:4588  _addLiquidity(msg.sender, msg.sender, _token, _amount, _minUsdg, _minGlp) */\n      tag_221\n        /* \"gist-b9df1f47d280e3707a3b6d35cd582bc9/GlpManager.sol\":4529:4539  msg.sender */\n      caller\n        /* \"gist-b9df1f47d280e3707a3b6d35cd582bc9/GlpManager.sol\":4541:4551  msg.sender */\n      caller\n        /* \"gist-b9df1f47d280e3707a3b6d35cd582bc9/GlpManager.sol\":4553:4559  _token */\n      dup8\n        /* \"gist-b9df1f47d280e3707a3b6d35cd582bc9/GlpManager.sol\":4561:4568  _amount */\n      dup8\n        /* \"gist-b9df1f47d280e3707a3b6d35cd582bc9/GlpManager.sol\":4570:4578  _minUsdg */\n      dup8\n        /* \"gist-b9df1f47d280e3707a3b6d35cd582bc9/GlpManager.sol\":4580:4587  _minGlp */\n      dup8\n        /* \"gist-b9df1f47d280e3707a3b6d35cd582bc9/GlpManager.sol\":4515:4528  _addLiquidity */\n      tag_216\n        /* \"gist-b9df1f47d280e3707a3b6d35cd582bc9/GlpManager.sol\":4515:4588  _addLiquidity(msg.sender, msg.sender, _token, _amount, _minUsdg, _minGlp) */\n      jump\t// in\n    tag_221:\n        /* \"gist-b9df1f47d280e3707a3b6d35cd582bc9/GlpManager.sol\":4508:4588  return _addLiquidity(msg.sender, msg.sender, _token, _amount, _minUsdg, _minGlp) */\n      swap1\n      pop\n        /* \"gist-b9df1f47d280e3707a3b6d35cd582bc9/ReentrancyGuard.sol\":2874:2875  1 */\n      0x01\n        /* \"gist-b9df1f47d280e3707a3b6d35cd582bc9/ReentrancyGuard.sol\":3809:3816  _status */\n      0x00\n        /* \"gist-b9df1f47d280e3707a3b6d35cd582bc9/ReentrancyGuard.sol\":3809:3831  _status = _NOT_ENTERED */\n      dup2\n      swap1\n      sstore\n      pop\n        /* \"gist-b9df1f47d280e3707a3b6d35cd582bc9/GlpManager.sol\":4286:4595  function addLiquidity(address _token, uint256 _amount, uint256 _minUsdg, uint256 _minGlp) external override nonReentrant returns (uint256) {... */\n      swap5\n      swap4\n      pop\n      pop\n      pop\n      pop\n      jump\t// out\n        /* \"gist-b9df1f47d280e3707a3b6d35cd582bc9/GlpManager.sol\":2126:2166  uint256 public override cooldownDuration */\n    tag_64:\n      sload(0x06)\n      dup2\n      jump\t// out\n        /* \"gist-b9df1f47d280e3707a3b6d35cd582bc9/GlpManager.sol\":8326:9380  function getGlobalShortAveragePrice(address _token) public view returns (uint256) {... */\n    tag_67:\n        /* \"gist-b9df1f47d280e3707a3b6d35cd582bc9/GlpManager.sol\":8399:8406  uint256 */\n      0x00\n        /* \"gist-b9df1f47d280e3707a3b6d35cd582bc9/GlpManager.sol\":8418:8447  IShortsTracker _shortsTracker */\n      dup1\n        /* \"gist-b9df1f47d280e3707a3b6d35cd582bc9/GlpManager.sol\":8450:8463  shortsTracker */\n      0x03\n      0x00\n      swap1\n      sload\n      swap1\n      0x0100\n      exp\n      swap1\n      div\n      0xffffffffffffffffffffffffffffffffffffffff\n      and\n        /* \"gist-b9df1f47d280e3707a3b6d35cd582bc9/GlpManager.sol\":8418:8463  IShortsTracker _shortsTracker = shortsTracker */\n      swap1\n      pop\n        /* \"gist-b9df1f47d280e3707a3b6d35cd582bc9/GlpManager.sol\":8512:8513  0 */\n      0x00\n        /* \"gist-b9df1f47d280e3707a3b6d35cd582bc9/GlpManager.sol\":8477:8514  address(_shortsTracker) == address(0) */\n      0xffffffffffffffffffffffffffffffffffffffff\n      and\n        /* \"gist-b9df1f47d280e3707a3b6d35cd582bc9/GlpManager.sol\":8485:8499  _shortsTracker */\n      dup2\n        /* \"gist-b9df1f47d280e3707a3b6d35cd582bc9/GlpManager.sol\":8477:8514  address(_shortsTracker) == address(0) */\n      0xffffffffffffffffffffffffffffffffffffffff\n      and\n      eq\n        /* \"gist-b9df1f47d280e3707a3b6d35cd582bc9/GlpManager.sol\":8477:8558  address(_shortsTracker) == address(0) || !_shortsTracker.isGlobalShortDataReady() */\n      dup1\n      tag_223\n      jumpi\n      pop\n        /* \"gist-b9df1f47d280e3707a3b6d35cd582bc9/GlpManager.sol\":8519:8533  _shortsTracker */\n      dup1\n        /* \"gist-b9df1f47d280e3707a3b6d35cd582bc9/GlpManager.sol\":8519:8556  _shortsTracker.isGlobalShortDataReady */\n      0xffffffffffffffffffffffffffffffffffffffff\n      and\n      0x9a11178f\n        /* \"gist-b9df1f47d280e3707a3b6d35cd582bc9/GlpManager.sol\":8519:8558  _shortsTracker.isGlobalShortDataReady() */\n      mload(0x40)\n      dup2\n      0xffffffff\n      and\n      0xe0\n      shl\n      dup2\n      mstore\n      0x04\n      add\n      0x20\n      mload(0x40)\n      dup1\n      dup4\n      sub\n      dup2\n      dup7\n      dup1\n      extcodesize\n      iszero\n      dup1\n      iszero\n      tag_224\n      jumpi\n      0x00\n      dup1\n      revert\n    tag_224:\n      pop\n      gas\n      staticcall\n      iszero\n      dup1\n      iszero\n      tag_226\n      jumpi\n      returndatasize\n      0x00\n      dup1\n      returndatacopy\n      revert(0x00, returndatasize)\n    tag_226:\n      pop\n      pop\n      pop\n      pop\n      mload(0x40)\n      returndatasize\n      0x20\n      dup2\n      lt\n      iszero\n      tag_227\n      jumpi\n      0x00\n      dup1\n      revert\n    tag_227:\n      dup2\n      add\n      swap1\n      dup1\n      dup1\n      mload\n      swap1\n      0x20\n      add\n      swap1\n      swap3\n      swap2\n      swap1\n      pop\n      pop\n      pop\n        /* \"gist-b9df1f47d280e3707a3b6d35cd582bc9/GlpManager.sol\":8518:8558  !_shortsTracker.isGlobalShortDataReady() */\n      iszero\n        /* \"gist-b9df1f47d280e3707a3b6d35cd582bc9/GlpManager.sol\":8477:8558  address(_shortsTracker) == address(0) || !_shortsTracker.isGlobalShortDataReady() */\n    tag_223:\n        /* \"gist-b9df1f47d280e3707a3b6d35cd582bc9/GlpManager.sol\":8473:8630  if (address(_shortsTracker) == address(0) || !_shortsTracker.isGlobalShortDataReady()) {... */\n      iszero\n      tag_228\n      jumpi\n        /* \"gist-b9df1f47d280e3707a3b6d35cd582bc9/GlpManager.sol\":8581:8586  vault */\n      0x02\n      0x00\n      swap1\n      sload\n      swap1\n      0x0100\n      exp\n      swap1\n      div\n      0xffffffffffffffffffffffffffffffffffffffff\n      and\n        /* \"gist-b9df1f47d280e3707a3b6d35cd582bc9/GlpManager.sol\":8581:8611  vault.globalShortAveragePrices */\n      0xffffffffffffffffffffffffffffffffffffffff\n      and\n      0x62749803\n        /* \"gist-b9df1f47d280e3707a3b6d35cd582bc9/GlpManager.sol\":8612:8618  _token */\n      dup5\n        /* \"gist-b9df1f47d280e3707a3b6d35cd582bc9/GlpManager.sol\":8581:8619  vault.globalShortAveragePrices(_token) */\n      mload(0x40)\n      dup3\n      0xffffffff\n      and\n      0xe0\n      shl\n      dup2\n      mstore\n      0x04\n      add\n      dup1\n      dup3\n      0xffffffffffffffffffffffffffffffffffffffff\n      and\n      dup2\n      mstore\n      0x20\n      add\n      swap2\n      pop\n      pop\n      0x20\n      mload(0x40)\n      dup1\n      dup4\n      sub\n      dup2\n      dup7\n      dup1\n      extcodesize\n      iszero\n      dup1\n      iszero\n      tag_229\n      jumpi\n      0x00\n      dup1\n      revert\n    tag_229:\n      pop\n      gas\n      staticcall\n      iszero\n      dup1\n      iszero\n      tag_231\n      jumpi\n      returndatasize\n      0x00\n      dup1\n      returndatacopy\n      revert(0x00, returndatasize)\n    tag_231:\n      pop\n      pop\n      pop\n      pop\n      mload(0x40)\n      returndatasize\n      0x20\n      dup2\n      lt\n      iszero\n      tag_232\n      jumpi\n      0x00\n      dup1\n      revert\n    tag_232:\n      dup2\n      add\n      swap1\n      dup1\n      dup1\n      mload\n      swap1\n      0x20\n      add\n      swap1\n      swap3\n      swap2\n      swap1\n      pop\n      pop\n      pop\n        /* \"gist-b9df1f47d280e3707a3b6d35cd582bc9/GlpManager.sol\":8574:8619  return vault.globalShortAveragePrices(_token) */\n      swap2\n      pop\n      pop\n      jump(tag_222)\n        /* \"gist-b9df1f47d280e3707a3b6d35cd582bc9/GlpManager.sol\":8473:8630  if (address(_shortsTracker) == address(0) || !_shortsTracker.isGlobalShortDataReady()) {... */\n    tag_228:\n        /* \"gist-b9df1f47d280e3707a3b6d35cd582bc9/GlpManager.sol\":8640:8680  uint256 _shortsTrackerAveragePriceWeight */\n      0x00\n        /* \"gist-b9df1f47d280e3707a3b6d35cd582bc9/GlpManager.sol\":8683:8714  shortsTrackerAveragePriceWeight */\n      sload(0x0b)\n        /* \"gist-b9df1f47d280e3707a3b6d35cd582bc9/GlpManager.sol\":8640:8714  uint256 _shortsTrackerAveragePriceWeight = shortsTrackerAveragePriceWeight */\n      swap1\n      pop\n        /* \"gist-b9df1f47d280e3707a3b6d35cd582bc9/GlpManager.sol\":8764:8765  0 */\n      0x00\n        /* \"gist-b9df1f47d280e3707a3b6d35cd582bc9/GlpManager.sol\":8728:8760  _shortsTrackerAveragePriceWeight */\n      dup2\n        /* \"gist-b9df1f47d280e3707a3b6d35cd582bc9/GlpManager.sol\":8728:8765  _shortsTrackerAveragePriceWeight == 0 */\n      eq\n        /* \"gist-b9df1f47d280e3707a3b6d35cd582bc9/GlpManager.sol\":8724:8984  if (_shortsTrackerAveragePriceWeight == 0) {... */\n      iszero\n      tag_233\n      jumpi\n        /* \"gist-b9df1f47d280e3707a3b6d35cd582bc9/GlpManager.sol\":8788:8793  vault */\n      0x02\n      0x00\n      swap1\n      sload\n      swap1\n      0x0100\n      exp\n      swap1\n      div\n      0xffffffffffffffffffffffffffffffffffffffff\n      and\n        /* \"gist-b9df1f47d280e3707a3b6d35cd582bc9/GlpManager.sol\":8788:8818  vault.globalShortAveragePrices */\n      0xffffffffffffffffffffffffffffffffffffffff\n      and\n      0x62749803\n        /* \"gist-b9df1f47d280e3707a3b6d35cd582bc9/GlpManager.sol\":8819:8825  _token */\n      dup6\n        /* \"gist-b9df1f47d280e3707a3b6d35cd582bc9/GlpManager.sol\":8788:8826  vault.globalShortAveragePrices(_token) */\n      mload(0x40)\n      dup3\n      0xffffffff\n      and\n      0xe0\n      shl\n      dup2\n      mstore\n      0x04\n      add\n      dup1\n      dup3\n      0xffffffffffffffffffffffffffffffffffffffff\n      and\n      dup2\n      mstore\n      0x20\n      add\n      swap2\n      pop\n      pop\n      0x20\n      mload(0x40)\n      dup1\n      dup4\n      sub\n      dup2\n      dup7\n      dup1\n      extcodesize\n      iszero\n      dup1\n      iszero\n      tag_234\n      jumpi\n      0x00\n      dup1\n      revert\n    tag_234:\n      pop\n      gas\n      staticcall\n      iszero\n      dup1\n      iszero\n      tag_236\n      jumpi\n      returndatasize\n      0x00\n      dup1\n      returndatacopy\n      revert(0x00, returndatasize)\n    tag_236:\n      pop\n      pop\n      pop\n      pop\n      mload(0x40)\n      returndatasize\n      0x20\n      dup2\n      lt\n      iszero\n      tag_237\n      jumpi\n      0x00\n      dup1\n      revert\n    tag_237:\n      dup2\n      add\n      swap1\n      dup1\n      dup1\n      mload\n      swap1\n      0x20\n      add\n      swap1\n      swap3\n      swap2\n      swap1\n      pop\n      pop\n      pop\n        /* \"gist-b9df1f47d280e3707a3b6d35cd582bc9/GlpManager.sol\":8781:8826  return vault.globalShortAveragePrices(_token) */\n      swap3\n      pop\n      pop\n      pop\n      jump(tag_222)\n        /* \"gist-b9df1f47d280e3707a3b6d35cd582bc9/GlpManager.sol\":8724:8984  if (_shortsTrackerAveragePriceWeight == 0) {... */\n    tag_233:\n        /* \"gist-b9df1f47d280e3707a3b6d35cd582bc9/GlpManager.sol\":1971:1976  10000 */\n      0x2710\n        /* \"gist-b9df1f47d280e3707a3b6d35cd582bc9/GlpManager.sol\":8847:8879  _shortsTrackerAveragePriceWeight */\n      dup2\n        /* \"gist-b9df1f47d280e3707a3b6d35cd582bc9/GlpManager.sol\":8847:8903  _shortsTrackerAveragePriceWeight == BASIS_POINTS_DIVISOR */\n      eq\n        /* \"gist-b9df1f47d280e3707a3b6d35cd582bc9/GlpManager.sol\":8843:8984  if (_shortsTrackerAveragePriceWeight == BASIS_POINTS_DIVISOR) {... */\n      iszero\n      tag_239\n      jumpi\n        /* \"gist-b9df1f47d280e3707a3b6d35cd582bc9/GlpManager.sol\":8926:8940  _shortsTracker */\n      dup2\n        /* \"gist-b9df1f47d280e3707a3b6d35cd582bc9/GlpManager.sol\":8926:8965  _shortsTracker.globalShortAveragePrices */\n      0xffffffffffffffffffffffffffffffffffffffff\n      and\n      0x62749803\n        /* \"gist-b9df1f47d280e3707a3b6d35cd582bc9/GlpManager.sol\":8966:8972  _token */\n      dup6\n        /* \"gist-b9df1f47d280e3707a3b6d35cd582bc9/GlpManager.sol\":8926:8973  _shortsTracker.globalShortAveragePrices(_token) */\n      mload(0x40)\n      dup3\n      0xffffffff\n      and\n      0xe0\n      shl\n      dup2\n      mstore\n      0x04\n      add\n      dup1\n      dup3\n      0xffffffffffffffffffffffffffffffffffffffff\n      and\n      dup2\n      mstore\n      0x20\n      add\n      swap2\n      pop\n      pop\n      0x20\n      mload(0x40)\n      dup1\n      dup4\n      sub\n      dup2\n      dup7\n      dup1\n      extcodesize\n      iszero\n      dup1\n      iszero\n      tag_240\n      jumpi\n      0x00\n      dup1\n      revert\n    tag_240:\n      pop\n      gas\n      staticcall\n      iszero\n      dup1\n      iszero\n      tag_242\n      jumpi\n      returndatasize\n      0x00\n      dup1\n      returndatacopy\n      revert(0x00, returndatasize)\n    tag_242:\n      pop\n      pop\n      pop\n      pop\n      mload(0x40)\n      returndatasize\n      0x20\n      dup2\n      lt\n      iszero\n      tag_243\n      jumpi\n      0x00\n      dup1\n      revert\n    tag_243:\n      dup2\n      add\n      swap1\n      dup1\n      dup1\n      mload\n      swap1\n      0x20\n      add\n      swap1\n      swap3\n      swap2\n      swap1\n      pop\n      pop\n      pop\n        /* \"gist-b9df1f47d280e3707a3b6d35cd582bc9/GlpManager.sol\":8919:8973  return _shortsTracker.globalShortAveragePrices(_token) */\n      swap3\n      pop\n      pop\n      pop\n      jump(tag_222)\n        /* \"gist-b9df1f47d280e3707a3b6d35cd582bc9/GlpManager.sol\":8843:8984  if (_shortsTrackerAveragePriceWeight == BASIS_POINTS_DIVISOR) {... */\n    tag_239:\n        /* \"gist-b9df1f47d280e3707a3b6d35cd582bc9/GlpManager.sol\":8994:9019  uint256 vaultAveragePrice */\n      0x00\n        /* \"gist-b9df1f47d280e3707a3b6d35cd582bc9/GlpManager.sol\":9022:9027  vault */\n      0x02\n      0x00\n      swap1\n      sload\n      swap1\n      0x0100\n      exp\n      swap1\n      div\n      0xffffffffffffffffffffffffffffffffffffffff\n      and\n        /* \"gist-b9df1f47d280e3707a3b6d35cd582bc9/GlpManager.sol\":9022:9052  vault.globalShortAveragePrices */\n      0xffffffffffffffffffffffffffffffffffffffff\n      and\n      0x62749803\n        /* \"gist-b9df1f47d280e3707a3b6d35cd582bc9/GlpManager.sol\":9053:9059  _token */\n      dup7\n        /* \"gist-b9df1f47d280e3707a3b6d35cd582bc9/GlpManager.sol\":9022:9060  vault.globalShortAveragePrices(_token) */\n      mload(0x40)\n      dup3\n      0xffffffff\n      and\n      0xe0\n      shl\n      dup2\n      mstore\n      0x04\n      add\n      dup1\n      dup3\n      0xffffffffffffffffffffffffffffffffffffffff\n      and\n      dup2\n      mstore\n      0x20\n      add\n      swap2\n      pop\n      pop\n      0x20\n      mload(0x40)\n      dup1\n      dup4\n      sub\n      dup2\n      dup7\n      dup1\n      extcodesize\n      iszero\n      dup1\n      iszero\n      tag_244\n      jumpi\n      0x00\n      dup1\n      revert\n    tag_244:\n      pop\n      gas\n      staticcall\n      iszero\n      dup1\n      iszero\n      tag_246\n      jumpi\n      returndatasize\n      0x00\n      dup1\n      returndatacopy\n      revert(0x00, returndatasize)\n    tag_246:\n      pop\n      pop\n      pop\n      pop\n      mload(0x40)\n      returndatasize\n      0x20\n      dup2\n      lt\n      iszero\n      tag_247\n      jumpi\n      0x00\n      dup1\n      revert\n    tag_247:\n      dup2\n      add\n      swap1\n      dup1\n      dup1\n      mload\n      swap1\n      0x20\n      add\n      swap1\n      swap3\n      swap2\n      swap1\n      pop\n      pop\n      pop\n        /* \"gist-b9df1f47d280e3707a3b6d35cd582bc9/GlpManager.sol\":8994:9060  uint256 vaultAveragePrice = vault.globalShortAveragePrices(_token) */\n      swap1\n      pop\n        /* \"gist-b9df1f47d280e3707a3b6d35cd582bc9/GlpManager.sol\":9070:9103  uint256 shortsTrackerAveragePrice */\n      0x00\n        /* \"gist-b9df1f47d280e3707a3b6d35cd582bc9/GlpManager.sol\":9106:9120  _shortsTracker */\n      dup4\n        /* \"gist-b9df1f47d280e3707a3b6d35cd582bc9/GlpManager.sol\":9106:9145  _shortsTracker.globalShortAveragePrices */\n      0xffffffffffffffffffffffffffffffffffffffff\n      and\n      0x62749803\n        /* \"gist-b9df1f47d280e3707a3b6d35cd582bc9/GlpManager.sol\":9146:9152  _token */\n      dup8\n        /* \"gist-b9df1f47d280e3707a3b6d35cd582bc9/GlpManager.sol\":9106:9153  _shortsTracker.globalShortAveragePrices(_token) */\n      mload(0x40)\n      dup3\n      0xffffffff\n      and\n      0xe0\n      shl\n      dup2\n      mstore\n      0x04\n      add\n      dup1\n      dup3\n      0xffffffffffffffffffffffffffffffffffffffff\n      and\n      dup2\n      mstore\n      0x20\n      add\n      swap2\n      pop\n      pop\n      0x20\n      mload(0x40)\n      dup1\n      dup4\n      sub\n      dup2\n      dup7\n      dup1\n      extcodesize\n      iszero\n      dup1\n      iszero\n      tag_248\n      jumpi\n      0x00\n      dup1\n      revert\n    tag_248:\n      pop\n      gas\n      staticcall\n      iszero\n      dup1\n      iszero\n      tag_250\n      jumpi\n      returndatasize\n      0x00\n      dup1\n      returndatacopy\n      revert(0x00, returndatasize)\n    tag_250:\n      pop\n      pop\n      pop\n      pop\n      mload(0x40)\n      returndatasize\n      0x20\n      dup2\n      lt\n      iszero\n      tag_251\n      jumpi\n      0x00\n      dup1\n      revert\n    tag_251:\n      dup2\n      add\n      swap1\n      dup1\n      dup1\n      mload\n      swap1\n      0x20\n      add\n      swap1\n      swap3\n      swap2\n      swap1\n      pop\n      pop\n      pop\n        /* \"gist-b9df1f47d280e3707a3b6d35cd582bc9/GlpManager.sol\":9070:9153  uint256 shortsTrackerAveragePrice = _shortsTracker.globalShortAveragePrices(_token) */\n      swap1\n      pop\n        /* \"gist-b9df1f47d280e3707a3b6d35cd582bc9/GlpManager.sol\":9171:9373  vaultAveragePrice.mul(BASIS_POINTS_DIVISOR.sub(_shortsTrackerAveragePriceWeight))... */\n      tag_252\n        /* \"gist-b9df1f47d280e3707a3b6d35cd582bc9/GlpManager.sol\":1971:1976  10000 */\n      0x2710\n        /* \"gist-b9df1f47d280e3707a3b6d35cd582bc9/GlpManager.sol\":9171:9334  vaultAveragePrice.mul(BASIS_POINTS_DIVISOR.sub(_shortsTrackerAveragePriceWeight))... */\n      tag_253\n        /* \"gist-b9df1f47d280e3707a3b6d35cd582bc9/GlpManager.sol\":9270:9333  shortsTrackerAveragePrice.mul(_shortsTrackerAveragePriceWeight) */\n      tag_254\n        /* \"gist-b9df1f47d280e3707a3b6d35cd582bc9/GlpManager.sol\":9300:9332  _shortsTrackerAveragePriceWeight */\n      dup7\n        /* \"gist-b9df1f47d280e3707a3b6d35cd582bc9/GlpManager.sol\":9270:9295  shortsTrackerAveragePrice */\n      dup6\n        /* \"gist-b9df1f47d280e3707a3b6d35cd582bc9/GlpManager.sol\":9270:9299  shortsTrackerAveragePrice.mul */\n      tag_176\n      swap1\n        /* \"gist-b9df1f47d280e3707a3b6d35cd582bc9/GlpManager.sol\":9270:9333  shortsTrackerAveragePrice.mul(_shortsTrackerAveragePriceWeight) */\n      swap2\n      swap1\n      0xffffffff\n      and\n      jump\t// in\n    tag_254:\n        /* \"gist-b9df1f47d280e3707a3b6d35cd582bc9/GlpManager.sol\":9171:9252  vaultAveragePrice.mul(BASIS_POINTS_DIVISOR.sub(_shortsTrackerAveragePriceWeight)) */\n      tag_255\n        /* \"gist-b9df1f47d280e3707a3b6d35cd582bc9/GlpManager.sol\":9193:9251  BASIS_POINTS_DIVISOR.sub(_shortsTrackerAveragePriceWeight) */\n      tag_256\n        /* \"gist-b9df1f47d280e3707a3b6d35cd582bc9/GlpManager.sol\":9218:9250  _shortsTrackerAveragePriceWeight */\n      dup9\n        /* \"gist-b9df1f47d280e3707a3b6d35cd582bc9/GlpManager.sol\":1971:1976  10000 */\n      0x2710\n        /* \"gist-b9df1f47d280e3707a3b6d35cd582bc9/GlpManager.sol\":9193:9217  BASIS_POINTS_DIVISOR.sub */\n      tag_203\n      swap1\n        /* \"gist-b9df1f47d280e3707a3b6d35cd582bc9/GlpManager.sol\":9193:9251  BASIS_POINTS_DIVISOR.sub(_shortsTrackerAveragePriceWeight) */\n      swap2\n      swap1\n      0xffffffff\n      and\n      jump\t// in\n    tag_256:\n        /* \"gist-b9df1f47d280e3707a3b6d35cd582bc9/GlpManager.sol\":9171:9188  vaultAveragePrice */\n      dup8\n        /* \"gist-b9df1f47d280e3707a3b6d35cd582bc9/GlpManager.sol\":9171:9192  vaultAveragePrice.mul */\n      tag_176\n      swap1\n        /* \"gist-b9df1f47d280e3707a3b6d35cd582bc9/GlpManager.sol\":9171:9252  vaultAveragePrice.mul(BASIS_POINTS_DIVISOR.sub(_shortsTrackerAveragePriceWeight)) */\n      swap2\n      swap1\n      0xffffffff\n      and\n      jump\t// in\n    tag_255:\n        /* \"gist-b9df1f47d280e3707a3b6d35cd582bc9/GlpManager.sol\":9171:9269  vaultAveragePrice.mul(BASIS_POINTS_DIVISOR.sub(_shortsTrackerAveragePriceWeight))... */\n      tag_178\n      swap1\n        /* \"gist-b9df1f47d280e3707a3b6d35cd582bc9/GlpManager.sol\":9171:9334  vaultAveragePrice.mul(BASIS_POINTS_DIVISOR.sub(_shortsTrackerAveragePriceWeight))... */\n      swap2\n      swap1\n      0xffffffff\n      and\n      jump\t// in\n    tag_253:\n        /* \"gist-b9df1f47d280e3707a3b6d35cd582bc9/GlpManager.sol\":9171:9351  vaultAveragePrice.mul(BASIS_POINTS_DIVISOR.sub(_shortsTrackerAveragePriceWeight))... */\n      tag_177\n      swap1\n        /* \"gist-b9df1f47d280e3707a3b6d35cd582bc9/GlpManager.sol\":9171:9373  vaultAveragePrice.mul(BASIS_POINTS_DIVISOR.sub(_shortsTrackerAveragePriceWeight))... */\n      swap2\n      swap1\n      0xffffffff\n      and\n      jump\t// in\n    tag_252:\n        /* \"gist-b9df1f47d280e3707a3b6d35cd582bc9/GlpManager.sol\":9164:9373  return vaultAveragePrice.mul(BASIS_POINTS_DIVISOR.sub(_shortsTrackerAveragePriceWeight))... */\n      swap5\n      pop\n      pop\n      pop\n      pop\n      pop\n        /* \"gist-b9df1f47d280e3707a3b6d35cd582bc9/GlpManager.sol\":8326:9380  function getGlobalShortAveragePrice(address _token) public view returns (uint256) {... */\n    tag_222:\n      swap2\n      swap1\n      pop\n      jump\t// out\n        /* \"gist-b9df1f47d280e3707a3b6d35cd582bc9/GlpManager.sol\":2384:2426  mapping (address => bool) public isHandler */\n    tag_70:\n      mstore(0x20, 0x0c)\n      dup1\n      0x00\n      mstore\n      keccak256(0x00, 0x40)\n      0x00\n      swap2\n      pop\n      sload\n      swap1\n      0x0100\n      exp\n      swap1\n      div\n      0xff\n      and\n      dup2\n      jump\t// out\n        /* \"gist-b9df1f47d280e3707a3b6d35cd582bc9/GlpManager.sol\":3438:3737  function setShortsTrackerAveragePriceWeight(uint256 _shortsTrackerAveragePriceWeight) external override onlyGov {... */\n    tag_73:\n        /* \"gist-b9df1f47d280e3707a3b6d35cd582bc9/Governable.sol\":1466:1469  gov */\n      0x01\n      0x00\n      swap1\n      sload\n      swap1\n      0x0100\n      exp\n      swap1\n      div\n      0xffffffffffffffffffffffffffffffffffffffff\n      and\n        /* \"gist-b9df1f47d280e3707a3b6d35cd582bc9/Governable.sol\":1452:1469  msg.sender == gov */\n      0xffffffffffffffffffffffffffffffffffffffff\n      and\n        /* \"gist-b9df1f47d280e3707a3b6d35cd582bc9/Governable.sol\":1452:1462  msg.sender */\n      caller\n        /* \"gist-b9df1f47d280e3707a3b6d35cd582bc9/Governable.sol\":1452:1469  msg.sender == gov */\n      0xffffffffffffffffffffffffffffffffffffffff\n      and\n      eq\n        /* \"gist-b9df1f47d280e3707a3b6d35cd582bc9/Governable.sol\":1444:1495  require(msg.sender == gov, \"Governable: forbidden\") */\n      tag_258\n      jumpi\n      mload(0x40)\n      0x08c379a000000000000000000000000000000000000000000000000000000000\n      dup2\n      mstore\n      0x04\n      add\n      dup1\n      dup1\n      0x20\n      add\n      dup3\n      dup2\n      sub\n      dup3\n      mstore\n      0x15\n      dup2\n      mstore\n      0x20\n      add\n      dup1\n      0x476f7665726e61626c653a20666f7262696464656e0000000000000000000000\n      dup2\n      mstore\n      pop\n      0x20\n      add\n      swap2\n      pop\n      pop\n      mload(0x40)\n      dup1\n      swap2\n      sub\n      swap1\n      revert\n    tag_258:\n        /* \"gist-b9df1f47d280e3707a3b6d35cd582bc9/GlpManager.sol\":1971:1976  10000 */\n      0x2710\n        /* \"gist-b9df1f47d280e3707a3b6d35cd582bc9/GlpManager.sol\":3568:3599  shortsTrackerAveragePriceWeight */\n      sload(0x0b)\n        /* \"gist-b9df1f47d280e3707a3b6d35cd582bc9/GlpManager.sol\":3568:3623  shortsTrackerAveragePriceWeight <= BASIS_POINTS_DIVISOR */\n      gt\n      iszero\n        /* \"gist-b9df1f47d280e3707a3b6d35cd582bc9/GlpManager.sol\":3560:3654  require(shortsTrackerAveragePriceWeight <= BASIS_POINTS_DIVISOR, \"GlpManager: invalid weight\") */\n      tag_260\n      jumpi\n      mload(0x40)\n      0x08c379a000000000000000000000000000000000000000000000000000000000\n      dup2\n      mstore\n      0x04\n      add\n      dup1\n      dup1\n      0x20\n      add\n      dup3\n      dup2\n      sub\n      dup3\n      mstore\n      0x1a\n      dup2\n      mstore\n      0x20\n      add\n      dup1\n      0x476c704d616e616765723a20696e76616c696420776569676874000000000000\n      dup2\n      mstore\n      pop\n      0x20\n      add\n      swap2\n      pop\n      pop\n      mload(0x40)\n      dup1\n      swap2\n      sub\n      swap1\n      revert\n    tag_260:\n        /* \"gist-b9df1f47d280e3707a3b6d35cd582bc9/GlpManager.sol\":3698:3730  _shortsTrackerAveragePriceWeight */\n      dup1\n        /* \"gist-b9df1f47d280e3707a3b6d35cd582bc9/GlpManager.sol\":3664:3695  shortsTrackerAveragePriceWeight */\n      0x0b\n        /* \"gist-b9df1f47d280e3707a3b6d35cd582bc9/GlpManager.sol\":3664:3730  shortsTrackerAveragePriceWeight = _shortsTrackerAveragePriceWeight */\n      dup2\n      swap1\n      sstore\n      pop\n        /* \"gist-b9df1f47d280e3707a3b6d35cd582bc9/GlpManager.sol\":3438:3737  function setShortsTrackerAveragePriceWeight(uint256 _shortsTrackerAveragePriceWeight) external override onlyGov {... */\n      pop\n      jump\t// out\n        /* \"gist-b9df1f47d280e3707a3b6d35cd582bc9/GlpManager.sol\":2332:2378  uint256 public shortsTrackerAveragePriceWeight */\n    tag_75:\n      sload(0x0b)\n      dup2\n      jump\t// out\n        /* \"gist-b9df1f47d280e3707a3b6d35cd582bc9/GlpManager.sol\":2017:2052  IShortsTracker public shortsTracker */\n    tag_77:\n      0x03\n      0x00\n      swap1\n      sload\n      swap1\n      0x0100\n      exp\n      swap1\n      div\n      0xffffffffffffffffffffffffffffffffffffffff\n      and\n      dup2\n      jump\t// out\n        /* \"gist-b9df1f47d280e3707a3b6d35cd582bc9/GlpManager.sol\":1808:1856  uint256 public constant GLP_PRECISION = 10 ** 18 */\n    tag_79:\n        /* \"gist-b9df1f47d280e3707a3b6d35cd582bc9/GlpManager.sol\":1848:1856  10 ** 18 */\n      0x0de0b6b3a7640000\n        /* \"gist-b9df1f47d280e3707a3b6d35cd582bc9/GlpManager.sol\":1808:1856  uint256 public constant GLP_PRECISION = 10 ** 18 */\n      dup2\n      jump\t// out\n        /* \"gist-b9df1f47d280e3707a3b6d35cd582bc9/GlpManager.sol\":5996:6185  function getAumInUsdg(bool maximise) public override view returns (uint256) {... */\n    tag_82:\n        /* \"gist-b9df1f47d280e3707a3b6d35cd582bc9/GlpManager.sol\":6063:6070  uint256 */\n      0x00\n        /* \"gist-b9df1f47d280e3707a3b6d35cd582bc9/GlpManager.sol\":6082:6093  uint256 aum */\n      dup1\n        /* \"gist-b9df1f47d280e3707a3b6d35cd582bc9/GlpManager.sol\":6096:6112  getAum(maximise) */\n      tag_262\n        /* \"gist-b9df1f47d280e3707a3b6d35cd582bc9/GlpManager.sol\":6103:6111  maximise */\n      dup4\n        /* \"gist-b9df1f47d280e3707a3b6d35cd582bc9/GlpManager.sol\":6096:6102  getAum */\n      tag_46\n        /* \"gist-b9df1f47d280e3707a3b6d35cd582bc9/GlpManager.sol\":6096:6112  getAum(maximise) */\n      jump\t// in\n    tag_262:\n        /* \"gist-b9df1f47d280e3707a3b6d35cd582bc9/GlpManager.sol\":6082:6112  uint256 aum = getAum(maximise) */\n      swap1\n      pop\n        /* \"gist-b9df1f47d280e3707a3b6d35cd582bc9/GlpManager.sol\":6129:6178  aum.mul(10 ** USDG_DECIMALS).div(PRICE_PRECISION) */\n      tag_263\n        /* \"gist-b9df1f47d280e3707a3b6d35cd582bc9/GlpManager.sol\":1746:1754  10 ** 30 */\n      0x0c9f2c9cd04674edea40000000\n        /* \"gist-b9df1f47d280e3707a3b6d35cd582bc9/GlpManager.sol\":6129:6157  aum.mul(10 ** USDG_DECIMALS) */\n      tag_264\n        /* \"gist-b9df1f47d280e3707a3b6d35cd582bc9/GlpManager.sol\":1800:1802  18 */\n      0x12\n        /* \"gist-b9df1f47d280e3707a3b6d35cd582bc9/GlpManager.sol\":6137:6139  10 */\n      0x0a\n        /* \"gist-b9df1f47d280e3707a3b6d35cd582bc9/GlpManager.sol\":6137:6156  10 ** USDG_DECIMALS */\n      exp\n        /* \"gist-b9df1f47d280e3707a3b6d35cd582bc9/GlpManager.sol\":6129:6132  aum */\n      dup5\n        /* \"gist-b9df1f47d280e3707a3b6d35cd582bc9/GlpManager.sol\":6129:6136  aum.mul */\n      tag_176\n      swap1\n        /* \"gist-b9df1f47d280e3707a3b6d35cd582bc9/GlpManager.sol\":6129:6157  aum.mul(10 ** USDG_DECIMALS) */\n      swap2\n      swap1\n      0xffffffff\n      and\n      jump\t// in\n    tag_264:\n        /* \"gist-b9df1f47d280e3707a3b6d35cd582bc9/GlpManager.sol\":6129:6161  aum.mul(10 ** USDG_DECIMALS).div */\n      tag_177\n      swap1\n        /* \"gist-b9df1f47d280e3707a3b6d35cd582bc9/GlpManager.sol\":6129:6178  aum.mul(10 ** USDG_DECIMALS).div(PRICE_PRECISION) */\n      swap2\n      swap1\n      0xffffffff\n      and\n      jump\t// in\n    tag_263:\n        /* \"gist-b9df1f47d280e3707a3b6d35cd582bc9/GlpManager.sol\":6122:6178  return aum.mul(10 ** USDG_DECIMALS).div(PRICE_PRECISION) */\n      swap2\n      pop\n      pop\n        /* \"gist-b9df1f47d280e3707a3b6d35cd582bc9/GlpManager.sol\":5996:6185  function getAumInUsdg(bool maximise) public override view returns (uint256) {... */\n      swap2\n      swap1\n      pop\n      jump\t// out\n        /* \"gist-b9df1f47d280e3707a3b6d35cd582bc9/GlpManager.sol\":3194:3305  function setInPrivateMode(bool _inPrivateMode) external onlyGov {... */\n    tag_85:\n        /* \"gist-b9df1f47d280e3707a3b6d35cd582bc9/Governable.sol\":1466:1469  gov */\n      0x01\n      0x00\n      swap1\n      sload\n      swap1\n      0x0100\n      exp\n      swap1\n      div\n      0xffffffffffffffffffffffffffffffffffffffff\n      and\n        /* \"gist-b9df1f47d280e3707a3b6d35cd582bc9/Governable.sol\":1452:1469  msg.sender == gov */\n      0xffffffffffffffffffffffffffffffffffffffff\n      and\n        /* \"gist-b9df1f47d280e3707a3b6d35cd582bc9/Governable.sol\":1452:1462  msg.sender */\n      caller\n        /* \"gist-b9df1f47d280e3707a3b6d35cd582bc9/Governable.sol\":1452:1469  msg.sender == gov */\n      0xffffffffffffffffffffffffffffffffffffffff\n      and\n      eq\n        /* \"gist-b9df1f47d280e3707a3b6d35cd582bc9/Governable.sol\":1444:1495  require(msg.sender == gov, \"Governable: forbidden\") */\n      tag_266\n      jumpi\n      mload(0x40)\n      0x08c379a000000000000000000000000000000000000000000000000000000000\n      dup2\n      mstore\n      0x04\n      add\n      dup1\n      dup1\n      0x20\n      add\n      dup3\n      dup2\n      sub\n      dup3\n      mstore\n      0x15\n      dup2\n      mstore\n      0x20\n      add\n      dup1\n      0x476f7665726e61626c653a20666f7262696464656e0000000000000000000000\n      dup2\n      mstore\n      pop\n      0x20\n      add\n      swap2\n      pop\n      pop\n      mload(0x40)\n      dup1\n      swap2\n      sub\n      swap1\n      revert\n    tag_266:\n        /* \"gist-b9df1f47d280e3707a3b6d35cd582bc9/GlpManager.sol\":3284:3298  _inPrivateMode */\n      dup1\n        /* \"gist-b9df1f47d280e3707a3b6d35cd582bc9/GlpManager.sol\":3268:3281  inPrivateMode */\n      0x0a\n      0x00\n        /* \"gist-b9df1f47d280e3707a3b6d35cd582bc9/GlpManager.sol\":3268:3298  inPrivateMode = _inPrivateMode */\n      0x0100\n      exp\n      dup2\n      sload\n      dup2\n      0xff\n      mul\n      not\n      and\n      swap1\n      dup4\n      iszero\n      iszero\n      mul\n      or\n      swap1\n      sstore\n      pop\n        /* \"gist-b9df1f47d280e3707a3b6d35cd582bc9/GlpManager.sol\":3194:3305  function setInPrivateMode(bool _inPrivateMode) external onlyGov {... */\n      pop\n      jump\t// out\n        /* \"gist-b9df1f47d280e3707a3b6d35cd582bc9/GlpManager.sol\":5250:5548  function removeLiquidityForAccount(address _account, address _tokenOut, uint256 _glpAmount, uint256 _minOut, address _receiver) external override nonReentrant returns (uint256) {... */\n    tag_88:\n        /* \"gist-b9df1f47d280e3707a3b6d35cd582bc9/GlpManager.sol\":5418:5425  uint256 */\n      0x00\n        /* \"gist-b9df1f47d280e3707a3b6d35cd582bc9/ReentrancyGuard.sol\":2917:2918  2 */\n      0x02\n        /* \"gist-b9df1f47d280e3707a3b6d35cd582bc9/ReentrancyGuard.sol\":3506:3513  _status */\n      sload(0x00)\n        /* \"gist-b9df1f47d280e3707a3b6d35cd582bc9/ReentrancyGuard.sol\":3506:3525  _status != _ENTERED */\n      eq\n      iszero\n        /* \"gist-b9df1f47d280e3707a3b6d35cd582bc9/ReentrancyGuard.sol\":3498:3561  require(_status != _ENTERED, \"ReentrancyGuard: reentrant call\") */\n      tag_269\n      jumpi\n      mload(0x40)\n      0x08c379a000000000000000000000000000000000000000000000000000000000\n      dup2\n      mstore\n      0x04\n      add\n      dup1\n      dup1\n      0x20\n      add\n      dup3\n      dup2\n      sub\n      dup3\n      mstore\n      0x1f\n      dup2\n      mstore\n      0x20\n      add\n      dup1\n      0x5265656e7472616e637947756172643a207265656e7472616e742063616c6c00\n      dup2\n      mstore\n      pop\n      0x20\n      add\n      swap2\n      pop\n      pop\n      mload(0x40)\n      dup1\n      swap2\n      sub\n      swap1\n      revert\n    tag_269:\n        /* \"gist-b9df1f47d280e3707a3b6d35cd582bc9/ReentrancyGuard.sol\":2917:2918  2 */\n      0x02\n        /* \"gist-b9df1f47d280e3707a3b6d35cd582bc9/ReentrancyGuard.sol\":3636:3643  _status */\n      0x00\n        /* \"gist-b9df1f47d280e3707a3b6d35cd582bc9/ReentrancyGuard.sol\":3636:3654  _status = _ENTERED */\n      dup2\n      swap1\n      sstore\n      pop\n        /* \"gist-b9df1f47d280e3707a3b6d35cd582bc9/GlpManager.sol\":5437:5455  _validateHandler() */\n      tag_271\n        /* \"gist-b9df1f47d280e3707a3b6d35cd582bc9/GlpManager.sol\":5437:5453  _validateHandler */\n      tag_214\n        /* \"gist-b9df1f47d280e3707a3b6d35cd582bc9/GlpManager.sol\":5437:5455  _validateHandler() */\n      jump\t// in\n    tag_271:\n        /* \"gist-b9df1f47d280e3707a3b6d35cd582bc9/GlpManager.sol\":5472:5541  _removeLiquidity(_account, _tokenOut, _glpAmount, _minOut, _receiver) */\n      tag_272\n        /* \"gist-b9df1f47d280e3707a3b6d35cd582bc9/GlpManager.sol\":5489:5497  _account */\n      dup7\n        /* \"gist-b9df1f47d280e3707a3b6d35cd582bc9/GlpManager.sol\":5499:5508  _tokenOut */\n      dup7\n        /* \"gist-b9df1f47d280e3707a3b6d35cd582bc9/GlpManager.sol\":5510:5520  _glpAmount */\n      dup7\n        /* \"gist-b9df1f47d280e3707a3b6d35cd582bc9/GlpManager.sol\":5522:5529  _minOut */\n      dup7\n        /* \"gist-b9df1f47d280e3707a3b6d35cd582bc9/GlpManager.sol\":5531:5540  _receiver */\n      dup7\n        /* \"gist-b9df1f47d280e3707a3b6d35cd582bc9/GlpManager.sol\":5472:5488  _removeLiquidity */\n      tag_273\n        /* \"gist-b9df1f47d280e3707a3b6d35cd582bc9/GlpManager.sol\":5472:5541  _removeLiquidity(_account, _tokenOut, _glpAmount, _minOut, _receiver) */\n      jump\t// in\n    tag_272:\n        /* \"gist-b9df1f47d280e3707a3b6d35cd582bc9/GlpManager.sol\":5465:5541  return _removeLiquidity(_account, _tokenOut, _glpAmount, _minOut, _receiver) */\n      swap1\n      pop\n        /* \"gist-b9df1f47d280e3707a3b6d35cd582bc9/ReentrancyGuard.sol\":2874:2875  1 */\n      0x01\n        /* \"gist-b9df1f47d280e3707a3b6d35cd582bc9/ReentrancyGuard.sol\":3809:3816  _status */\n      0x00\n        /* \"gist-b9df1f47d280e3707a3b6d35cd582bc9/ReentrancyGuard.sol\":3809:3831  _status = _NOT_ENTERED */\n      dup2\n      swap1\n      sstore\n      pop\n        /* \"gist-b9df1f47d280e3707a3b6d35cd582bc9/GlpManager.sol\":5250:5548  function removeLiquidityForAccount(address _account, address _tokenOut, uint256 _glpAmount, uint256 _minOut, address _receiver) external override nonReentrant returns (uint256) {... */\n      swap6\n      swap5\n      pop\n      pop\n      pop\n      pop\n      pop\n      jump\t// out\n        /* \"gist-b9df1f47d280e3707a3b6d35cd582bc9/GlpManager.sol\":2092:2119  address public override glp */\n    tag_90:\n      0x05\n      0x00\n      swap1\n      sload\n      swap1\n      0x0100\n      exp\n      swap1\n      div\n      0xffffffffffffffffffffffffffffffffffffffff\n      and\n      dup2\n      jump\t// out\n        /* \"gist-b9df1f47d280e3707a3b6d35cd582bc9/GlpManager.sol\":1760:1802  uint256 public constant USDG_DECIMALS = 18 */\n    tag_92:\n        /* \"gist-b9df1f47d280e3707a3b6d35cd582bc9/GlpManager.sol\":1800:1802  18 */\n      0x12\n        /* \"gist-b9df1f47d280e3707a3b6d35cd582bc9/GlpManager.sol\":1760:1802  uint256 public constant USDG_DECIMALS = 18 */\n      dup2\n      jump\t// out\n        /* \"gist-b9df1f47d280e3707a3b6d35cd582bc9/GlpManager.sol\":2172:2228  mapping (address => uint256) public override lastAddedAt */\n    tag_95:\n      mstore(0x20, 0x07)\n      dup1\n      0x00\n      mstore\n      keccak256(0x00, 0x40)\n      0x00\n      swap2\n      pop\n      swap1\n      pop\n      sload\n      dup2\n      jump\t// out\n        /* \"gist-b9df1f47d280e3707a3b6d35cd582bc9/GlpManager.sol\":4927:5244  function removeLiquidity(address _tokenOut, uint256 _glpAmount, uint256 _minOut, address _receiver) external override nonReentrant returns (uint256) {... */\n    tag_98:\n        /* \"gist-b9df1f47d280e3707a3b6d35cd582bc9/GlpManager.sol\":5067:5074  uint256 */\n      0x00\n        /* \"gist-b9df1f47d280e3707a3b6d35cd582bc9/ReentrancyGuard.sol\":2917:2918  2 */\n      0x02\n        /* \"gist-b9df1f47d280e3707a3b6d35cd582bc9/ReentrancyGuard.sol\":3506:3513  _status */\n      sload(0x00)\n        /* \"gist-b9df1f47d280e3707a3b6d35cd582bc9/ReentrancyGuard.sol\":3506:3525  _status != _ENTERED */\n      eq\n      iszero\n        /* \"gist-b9df1f47d280e3707a3b6d35cd582bc9/ReentrancyGuard.sol\":3498:3561  require(_status != _ENTERED, \"ReentrancyGuard: reentrant call\") */\n      tag_275\n      jumpi\n      mload(0x40)\n      0x08c379a000000000000000000000000000000000000000000000000000000000\n      dup2\n      mstore\n      0x04\n      add\n      dup1\n      dup1\n      0x20\n      add\n      dup3\n      dup2\n      sub\n      dup3\n      mstore\n      0x1f\n      dup2\n      mstore\n      0x20\n      add\n      dup1\n      0x5265656e7472616e637947756172643a207265656e7472616e742063616c6c00\n      dup2\n      mstore\n      pop\n      0x20\n      add\n      swap2\n      pop\n      pop\n      mload(0x40)\n      dup1\n      swap2\n      sub\n      swap1\n      revert\n    tag_275:\n        /* \"gist-b9df1f47d280e3707a3b6d35cd582bc9/ReentrancyGuard.sol\":2917:2918  2 */\n      0x02\n        /* \"gist-b9df1f47d280e3707a3b6d35cd582bc9/ReentrancyGuard.sol\":3636:3643  _status */\n      0x00\n        /* \"gist-b9df1f47d280e3707a3b6d35cd582bc9/ReentrancyGuard.sol\":3636:3654  _status = _ENTERED */\n      dup2\n      swap1\n      sstore\n      pop\n        /* \"gist-b9df1f47d280e3707a3b6d35cd582bc9/GlpManager.sol\":5090:5103  inPrivateMode */\n      0x0a\n      0x00\n      swap1\n      sload\n      swap1\n      0x0100\n      exp\n      swap1\n      div\n      0xff\n      and\n        /* \"gist-b9df1f47d280e3707a3b6d35cd582bc9/GlpManager.sol\":5086:5150  if (inPrivateMode) { revert(\"GlpManager: action not enabled\"); } */\n      iszero\n      tag_277\n      jumpi\n        /* \"gist-b9df1f47d280e3707a3b6d35cd582bc9/GlpManager.sol\":5107:5147  revert(\"GlpManager: action not enabled\") */\n      mload(0x40)\n      0x08c379a000000000000000000000000000000000000000000000000000000000\n      dup2\n      mstore\n      0x04\n      add\n      dup1\n      dup1\n      0x20\n      add\n      dup3\n      dup2\n      sub\n      dup3\n      mstore\n      0x1e\n      dup2\n      mstore\n      0x20\n      add\n      dup1\n      0x476c704d616e616765723a20616374696f6e206e6f7420656e61626c65640000\n      dup2\n      mstore\n      pop\n      0x20\n      add\n      swap2\n      pop\n      pop\n      mload(0x40)\n      dup1\n      swap2\n      sub\n      swap1\n      revert\n        /* \"gist-b9df1f47d280e3707a3b6d35cd582bc9/GlpManager.sol\":5086:5150  if (inPrivateMode) { revert(\"GlpManager: action not enabled\"); } */\n    tag_277:\n        /* \"gist-b9df1f47d280e3707a3b6d35cd582bc9/GlpManager.sol\":5166:5237  _removeLiquidity(msg.sender, _tokenOut, _glpAmount, _minOut, _receiver) */\n      tag_278\n        /* \"gist-b9df1f47d280e3707a3b6d35cd582bc9/GlpManager.sol\":5183:5193  msg.sender */\n      caller\n        /* \"gist-b9df1f47d280e3707a3b6d35cd582bc9/GlpManager.sol\":5195:5204  _tokenOut */\n      dup7\n        /* \"gist-b9df1f47d280e3707a3b6d35cd582bc9/GlpManager.sol\":5206:5216  _glpAmount */\n      dup7\n        /* \"gist-b9df1f47d280e3707a3b6d35cd582bc9/GlpManager.sol\":5218:5225  _minOut */\n      dup7\n        /* \"gist-b9df1f47d280e3707a3b6d35cd582bc9/GlpManager.sol\":5227:5236  _receiver */\n      dup7\n        /* \"gist-b9df1f47d280e3707a3b6d35cd582bc9/GlpManager.sol\":5166:5182  _removeLiquidity */\n      tag_273\n        /* \"gist-b9df1f47d280e3707a3b6d35cd582bc9/GlpManager.sol\":5166:5237  _removeLiquidity(msg.sender, _tokenOut, _glpAmount, _minOut, _receiver) */\n      jump\t// in\n    tag_278:\n        /* \"gist-b9df1f47d280e3707a3b6d35cd582bc9/GlpManager.sol\":5159:5237  return _removeLiquidity(msg.sender, _tokenOut, _glpAmount, _minOut, _receiver) */\n      swap1\n      pop\n        /* \"gist-b9df1f47d280e3707a3b6d35cd582bc9/ReentrancyGuard.sol\":2874:2875  1 */\n      0x01\n        /* \"gist-b9df1f47d280e3707a3b6d35cd582bc9/ReentrancyGuard.sol\":3809:3816  _status */\n      0x00\n        /* \"gist-b9df1f47d280e3707a3b6d35cd582bc9/ReentrancyGuard.sol\":3809:3831  _status = _NOT_ENTERED */\n      dup2\n      swap1\n      sstore\n      pop\n        /* \"gist-b9df1f47d280e3707a3b6d35cd582bc9/GlpManager.sol\":4927:5244  function removeLiquidity(address _tokenOut, uint256 _glpAmount, uint256 _minOut, address _receiver) external override nonReentrant returns (uint256) {... */\n      swap5\n      swap4\n      pop\n      pop\n      pop\n      pop\n      jump\t// out\n        /* \"gist-b9df1f47d280e3707a3b6d35cd582bc9/GlpManager.sol\":4111:4280  function setAumAdjustment(uint256 _aumAddition, uint256 _aumDeduction) external onlyGov {... */\n    tag_101:\n        /* \"gist-b9df1f47d280e3707a3b6d35cd582bc9/Governable.sol\":1466:1469  gov */\n      0x01\n      0x00\n      swap1\n      sload\n      swap1\n      0x0100\n      exp\n      swap1\n      div\n      0xffffffffffffffffffffffffffffffffffffffff\n      and\n        /* \"gist-b9df1f47d280e3707a3b6d35cd582bc9/Governable.sol\":1452:1469  msg.sender == gov */\n      0xffffffffffffffffffffffffffffffffffffffff\n      and\n        /* \"gist-b9df1f47d280e3707a3b6d35cd582bc9/Governable.sol\":1452:1462  msg.sender */\n      caller\n        /* \"gist-b9df1f47d280e3707a3b6d35cd582bc9/Governable.sol\":1452:1469  msg.sender == gov */\n      0xffffffffffffffffffffffffffffffffffffffff\n      and\n      eq\n        /* \"gist-b9df1f47d280e3707a3b6d35cd582bc9/Governable.sol\":1444:1495  require(msg.sender == gov, \"Governable: forbidden\") */\n      tag_280\n      jumpi\n      mload(0x40)\n      0x08c379a000000000000000000000000000000000000000000000000000000000\n      dup2\n      mstore\n      0x04\n      add\n      dup1\n      dup1\n      0x20\n      add\n      dup3\n      dup2\n      sub\n      dup3\n      mstore\n      0x15\n      dup2\n      mstore\n      0x20\n      add\n      dup1\n      0x476f7665726e61626c653a20666f7262696464656e0000000000000000000000\n      dup2\n      mstore\n      pop\n      0x20\n      add\n      swap2\n      pop\n      pop\n      mload(0x40)\n      dup1\n      swap2\n      sub\n      swap1\n      revert\n    tag_280:\n        /* \"gist-b9df1f47d280e3707a3b6d35cd582bc9/GlpManager.sol\":4223:4235  _aumAddition */\n      dup2\n        /* \"gist-b9df1f47d280e3707a3b6d35cd582bc9/GlpManager.sol\":4209:4220  aumAddition */\n      0x08\n        /* \"gist-b9df1f47d280e3707a3b6d35cd582bc9/GlpManager.sol\":4209:4235  aumAddition = _aumAddition */\n      dup2\n      swap1\n      sstore\n      pop\n        /* \"gist-b9df1f47d280e3707a3b6d35cd582bc9/GlpManager.sol\":4260:4273  _aumDeduction */\n      dup1\n        /* \"gist-b9df1f47d280e3707a3b6d35cd582bc9/GlpManager.sol\":4245:4257  aumDeduction */\n      0x09\n        /* \"gist-b9df1f47d280e3707a3b6d35cd582bc9/GlpManager.sol\":4245:4273  aumDeduction = _aumDeduction */\n      dup2\n      swap1\n      sstore\n      pop\n        /* \"gist-b9df1f47d280e3707a3b6d35cd582bc9/GlpManager.sol\":4111:4280  function setAumAdjustment(uint256 _aumAddition, uint256 _aumDeduction) external onlyGov {... */\n      pop\n      pop\n      jump\t// out\n        /* \"gist-b9df1f47d280e3707a3b6d35cd582bc9/GlpManager.sol\":1704:1754  uint256 public constant PRICE_PRECISION = 10 ** 30 */\n    tag_103:\n        /* \"gist-b9df1f47d280e3707a3b6d35cd582bc9/GlpManager.sol\":1746:1754  10 ** 30 */\n      0x0c9f2c9cd04674edea40000000\n        /* \"gist-b9df1f47d280e3707a3b6d35cd582bc9/GlpManager.sol\":1704:1754  uint256 public constant PRICE_PRECISION = 10 ** 30 */\n      dup2\n      jump\t// out\n        /* \"gist-b9df1f47d280e3707a3b6d35cd582bc9/GlpManager.sol\":3868:4105  function setCooldownDuration(uint256 _cooldownDuration) external override onlyGov {... */\n    tag_106:\n        /* \"gist-b9df1f47d280e3707a3b6d35cd582bc9/Governable.sol\":1466:1469  gov */\n      0x01\n      0x00\n      swap1\n      sload\n      swap1\n      0x0100\n      exp\n      swap1\n      div\n      0xffffffffffffffffffffffffffffffffffffffff\n      and\n        /* \"gist-b9df1f47d280e3707a3b6d35cd582bc9/Governable.sol\":1452:1469  msg.sender == gov */\n      0xffffffffffffffffffffffffffffffffffffffff\n      and\n        /* \"gist-b9df1f47d280e3707a3b6d35cd582bc9/Governable.sol\":1452:1462  msg.sender */\n      caller\n        /* \"gist-b9df1f47d280e3707a3b6d35cd582bc9/Governable.sol\":1452:1469  msg.sender == gov */\n      0xffffffffffffffffffffffffffffffffffffffff\n      and\n      eq\n        /* \"gist-b9df1f47d280e3707a3b6d35cd582bc9/Governable.sol\":1444:1495  require(msg.sender == gov, \"Governable: forbidden\") */\n      tag_283\n      jumpi\n      mload(0x40)\n      0x08c379a000000000000000000000000000000000000000000000000000000000\n      dup2\n      mstore\n      0x04\n      add\n      dup1\n      dup1\n      0x20\n      add\n      dup3\n      dup2\n      sub\n      dup3\n      mstore\n      0x15\n      dup2\n      mstore\n      0x20\n      add\n      dup1\n      0x476f7665726e61626c653a20666f7262696464656e0000000000000000000000\n      dup2\n      mstore\n      pop\n      0x20\n      add\n      swap2\n      pop\n      pop\n      mload(0x40)\n      dup1\n      swap2\n      sub\n      swap1\n      revert\n    tag_283:\n        /* \"gist-b9df1f47d280e3707a3b6d35cd582bc9/GlpManager.sol\":1910:1918  48 hours */\n      0x02a300\n        /* \"gist-b9df1f47d280e3707a3b6d35cd582bc9/GlpManager.sol\":3968:3985  _cooldownDuration */\n      dup2\n        /* \"gist-b9df1f47d280e3707a3b6d35cd582bc9/GlpManager.sol\":3968:4010  _cooldownDuration <= MAX_COOLDOWN_DURATION */\n      gt\n      iszero\n        /* \"gist-b9df1f47d280e3707a3b6d35cd582bc9/GlpManager.sol\":3960:4052  require(_cooldownDuration <= MAX_COOLDOWN_DURATION, \"GlpManager: invalid _cooldownDuration\") */\n      tag_285\n      jumpi\n      mload(0x40)\n      0x08c379a000000000000000000000000000000000000000000000000000000000\n      dup2\n      mstore\n      0x04\n      add\n      dup1\n      dup1\n      0x20\n      add\n      dup3\n      dup2\n      sub\n      dup3\n      mstore\n      0x25\n      dup2\n      mstore\n      0x20\n      add\n      dup1\n      data_0655b22aecde8e8b23418bf8d8d8c8b64012b4dff81aea97cb47871a78143ba2\n      0x25\n      swap2\n      codecopy\n      0x40\n      add\n      swap2\n      pop\n      pop\n      mload(0x40)\n      dup1\n      swap2\n      sub\n      swap1\n      revert\n    tag_285:\n        /* \"gist-b9df1f47d280e3707a3b6d35cd582bc9/GlpManager.sol\":4081:4098  _cooldownDuration */\n      dup1\n        /* \"gist-b9df1f47d280e3707a3b6d35cd582bc9/GlpManager.sol\":4062:4078  cooldownDuration */\n      0x06\n        /* \"gist-b9df1f47d280e3707a3b6d35cd582bc9/GlpManager.sol\":4062:4098  cooldownDuration = _cooldownDuration */\n      dup2\n      swap1\n      sstore\n      pop\n        /* \"gist-b9df1f47d280e3707a3b6d35cd582bc9/GlpManager.sol\":3868:4105  function setCooldownDuration(uint256 _cooldownDuration) external override onlyGov {... */\n      pop\n      jump\t// out\n        /* \"gist-b9df1f47d280e3707a3b6d35cd582bc9/GlpManager.sol\":3743:3862  function setHandler(address _handler, bool _isActive) external onlyGov {... */\n    tag_109:\n        /* \"gist-b9df1f47d280e3707a3b6d35cd582bc9/Governable.sol\":1466:1469  gov */\n      0x01\n      0x00\n      swap1\n      sload\n      swap1\n      0x0100\n      exp\n      swap1\n      div\n      0xffffffffffffffffffffffffffffffffffffffff\n      and\n        /* \"gist-b9df1f47d280e3707a3b6d35cd582bc9/Governable.sol\":1452:1469  msg.sender == gov */\n      0xffffffffffffffffffffffffffffffffffffffff\n      and\n        /* \"gist-b9df1f47d280e3707a3b6d35cd582bc9/Governable.sol\":1452:1462  msg.sender */\n      caller\n        /* \"gist-b9df1f47d280e3707a3b6d35cd582bc9/Governable.sol\":1452:1469  msg.sender == gov */\n      0xffffffffffffffffffffffffffffffffffffffff\n      and\n      eq\n        /* \"gist-b9df1f47d280e3707a3b6d35cd582bc9/Governable.sol\":1444:1495  require(msg.sender == gov, \"Governable: forbidden\") */\n      tag_287\n      jumpi\n      mload(0x40)\n      0x08c379a000000000000000000000000000000000000000000000000000000000\n      dup2\n      mstore\n      0x04\n      add\n      dup1\n      dup1\n      0x20\n      add\n      dup3\n      dup2\n      sub\n      dup3\n      mstore\n      0x15\n      dup2\n      mstore\n      0x20\n      add\n      dup1\n      0x476f7665726e61626c653a20666f7262696464656e0000000000000000000000\n      dup2\n      mstore\n      pop\n      0x20\n      add\n      swap2\n      pop\n      pop\n      mload(0x40)\n      dup1\n      swap2\n      sub\n      swap1\n      revert\n    tag_287:\n        /* \"gist-b9df1f47d280e3707a3b6d35cd582bc9/GlpManager.sol\":3846:3855  _isActive */\n      dup1\n        /* \"gist-b9df1f47d280e3707a3b6d35cd582bc9/GlpManager.sol\":3824:3833  isHandler */\n      0x0c\n        /* \"gist-b9df1f47d280e3707a3b6d35cd582bc9/GlpManager.sol\":3824:3843  isHandler[_handler] */\n      0x00\n        /* \"gist-b9df1f47d280e3707a3b6d35cd582bc9/GlpManager.sol\":3834:3842  _handler */\n      dup5\n        /* \"gist-b9df1f47d280e3707a3b6d35cd582bc9/GlpManager.sol\":3824:3843  isHandler[_handler] */\n      0xffffffffffffffffffffffffffffffffffffffff\n      and\n      0xffffffffffffffffffffffffffffffffffffffff\n      and\n      dup2\n      mstore\n      0x20\n      add\n      swap1\n      dup2\n      mstore\n      0x20\n      add\n      0x00\n      keccak256\n      0x00\n        /* \"gist-b9df1f47d280e3707a3b6d35cd582bc9/GlpManager.sol\":3824:3855  isHandler[_handler] = _isActive */\n      0x0100\n      exp\n      dup2\n      sload\n      dup2\n      0xff\n      mul\n      not\n      and\n      swap1\n      dup4\n      iszero\n      iszero\n      mul\n      or\n      swap1\n      sstore\n      pop\n        /* \"gist-b9df1f47d280e3707a3b6d35cd582bc9/GlpManager.sol\":3743:3862  function setHandler(address _handler, bool _isActive) external onlyGov {... */\n      pop\n      pop\n      jump\t// out\n        /* \"gist-b9df1f47d280e3707a3b6d35cd582bc9/GlpManager.sol\":7916:8320  function getGlobalShortDelta(address _token, uint256 _price, uint256 _size) public view returns (uint256, bool) {... */\n    tag_112:\n        /* \"gist-b9df1f47d280e3707a3b6d35cd582bc9/GlpManager.sol\":8013:8020  uint256 */\n      0x00\n        /* \"gist-b9df1f47d280e3707a3b6d35cd582bc9/GlpManager.sol\":8022:8026  bool */\n      dup1\n        /* \"gist-b9df1f47d280e3707a3b6d35cd582bc9/GlpManager.sol\":8038:8058  uint256 averagePrice */\n      0x00\n        /* \"gist-b9df1f47d280e3707a3b6d35cd582bc9/GlpManager.sol\":8061:8095  getGlobalShortAveragePrice(_token) */\n      tag_290\n        /* \"gist-b9df1f47d280e3707a3b6d35cd582bc9/GlpManager.sol\":8088:8094  _token */\n      dup7\n        /* \"gist-b9df1f47d280e3707a3b6d35cd582bc9/GlpManager.sol\":8061:8087  getGlobalShortAveragePrice */\n      tag_67\n        /* \"gist-b9df1f47d280e3707a3b6d35cd582bc9/GlpManager.sol\":8061:8095  getGlobalShortAveragePrice(_token) */\n      jump\t// in\n    tag_290:\n        /* \"gist-b9df1f47d280e3707a3b6d35cd582bc9/GlpManager.sol\":8038:8095  uint256 averagePrice = getGlobalShortAveragePrice(_token) */\n      swap1\n      pop\n        /* \"gist-b9df1f47d280e3707a3b6d35cd582bc9/GlpManager.sol\":8105:8123  uint256 priceDelta */\n      0x00\n        /* \"gist-b9df1f47d280e3707a3b6d35cd582bc9/GlpManager.sol\":8141:8147  _price */\n      dup6\n        /* \"gist-b9df1f47d280e3707a3b6d35cd582bc9/GlpManager.sol\":8126:8138  averagePrice */\n      dup3\n        /* \"gist-b9df1f47d280e3707a3b6d35cd582bc9/GlpManager.sol\":8126:8147  averagePrice > _price */\n      gt\n        /* \"gist-b9df1f47d280e3707a3b6d35cd582bc9/GlpManager.sol\":8126:8201  averagePrice > _price ? averagePrice.sub(_price) : _price.sub(averagePrice) */\n      tag_291\n      jumpi\n        /* \"gist-b9df1f47d280e3707a3b6d35cd582bc9/GlpManager.sol\":8177:8201  _price.sub(averagePrice) */\n      tag_292\n        /* \"gist-b9df1f47d280e3707a3b6d35cd582bc9/GlpManager.sol\":8188:8200  averagePrice */\n      dup3\n        /* \"gist-b9df1f47d280e3707a3b6d35cd582bc9/GlpManager.sol\":8177:8183  _price */\n      dup8\n        /* \"gist-b9df1f47d280e3707a3b6d35cd582bc9/GlpManager.sol\":8177:8187  _price.sub */\n      tag_203\n      swap1\n        /* \"gist-b9df1f47d280e3707a3b6d35cd582bc9/GlpManager.sol\":8177:8201  _price.sub(averagePrice) */\n      swap2\n      swap1\n      0xffffffff\n      and\n      jump\t// in\n    tag_292:\n        /* \"gist-b9df1f47d280e3707a3b6d35cd582bc9/GlpManager.sol\":8126:8201  averagePrice > _price ? averagePrice.sub(_price) : _price.sub(averagePrice) */\n      jump(tag_293)\n    tag_291:\n        /* \"gist-b9df1f47d280e3707a3b6d35cd582bc9/GlpManager.sol\":8150:8174  averagePrice.sub(_price) */\n      tag_294\n        /* \"gist-b9df1f47d280e3707a3b6d35cd582bc9/GlpManager.sol\":8167:8173  _price */\n      dup7\n        /* \"gist-b9df1f47d280e3707a3b6d35cd582bc9/GlpManager.sol\":8150:8162  averagePrice */\n      dup4\n        /* \"gist-b9df1f47d280e3707a3b6d35cd582bc9/GlpManager.sol\":8150:8166  averagePrice.sub */\n      tag_203\n      swap1\n        /* \"gist-b9df1f47d280e3707a3b6d35cd582bc9/GlpManager.sol\":8150:8174  averagePrice.sub(_price) */\n      swap2\n      swap1\n      0xffffffff\n      and\n      jump\t// in\n    tag_294:\n        /* \"gist-b9df1f47d280e3707a3b6d35cd582bc9/GlpManager.sol\":8126:8201  averagePrice > _price ? averagePrice.sub(_price) : _price.sub(averagePrice) */\n    tag_293:\n        /* \"gist-b9df1f47d280e3707a3b6d35cd582bc9/GlpManager.sol\":8105:8201  uint256 priceDelta = averagePrice > _price ? averagePrice.sub(_price) : _price.sub(averagePrice) */\n      swap1\n      pop\n        /* \"gist-b9df1f47d280e3707a3b6d35cd582bc9/GlpManager.sol\":8211:8224  uint256 delta */\n      0x00\n        /* \"gist-b9df1f47d280e3707a3b6d35cd582bc9/GlpManager.sol\":8227:8266  _size.mul(priceDelta).div(averagePrice) */\n      tag_295\n        /* \"gist-b9df1f47d280e3707a3b6d35cd582bc9/GlpManager.sol\":8253:8265  averagePrice */\n      dup4\n        /* \"gist-b9df1f47d280e3707a3b6d35cd582bc9/GlpManager.sol\":8227:8248  _size.mul(priceDelta) */\n      tag_296\n        /* \"gist-b9df1f47d280e3707a3b6d35cd582bc9/GlpManager.sol\":8237:8247  priceDelta */\n      dup5\n        /* \"gist-b9df1f47d280e3707a3b6d35cd582bc9/GlpManager.sol\":8227:8232  _size */\n      dup10\n        /* \"gist-b9df1f47d280e3707a3b6d35cd582bc9/GlpManager.sol\":8227:8236  _size.mul */\n      tag_176\n      swap1\n        /* \"gist-b9df1f47d280e3707a3b6d35cd582bc9/GlpManager.sol\":8227:8248  _size.mul(priceDelta) */\n      swap2\n      swap1\n      0xffffffff\n      and\n      jump\t// in\n    tag_296:\n        /* \"gist-b9df1f47d280e3707a3b6d35cd582bc9/GlpManager.sol\":8227:8252  _size.mul(priceDelta).div */\n      tag_177\n      swap1\n        /* \"gist-b9df1f47d280e3707a3b6d35cd582bc9/GlpManager.sol\":8227:8266  _size.mul(priceDelta).div(averagePrice) */\n      swap2\n      swap1\n      0xffffffff\n      and\n      jump\t// in\n    tag_295:\n        /* \"gist-b9df1f47d280e3707a3b6d35cd582bc9/GlpManager.sol\":8211:8266  uint256 delta = _size.mul(priceDelta).div(averagePrice) */\n      swap1\n      pop\n        /* \"gist-b9df1f47d280e3707a3b6d35cd582bc9/GlpManager.sol\":8284:8289  delta */\n      dup1\n        /* \"gist-b9df1f47d280e3707a3b6d35cd582bc9/GlpManager.sol\":8306:8312  _price */\n      dup8\n        /* \"gist-b9df1f47d280e3707a3b6d35cd582bc9/GlpManager.sol\":8291:8303  averagePrice */\n      dup5\n        /* \"gist-b9df1f47d280e3707a3b6d35cd582bc9/GlpManager.sol\":8291:8312  averagePrice > _price */\n      gt\n        /* \"gist-b9df1f47d280e3707a3b6d35cd582bc9/GlpManager.sol\":8276:8313  return (delta, averagePrice > _price) */\n      swap5\n      pop\n      swap5\n      pop\n      pop\n      pop\n      pop\n        /* \"gist-b9df1f47d280e3707a3b6d35cd582bc9/GlpManager.sol\":7916:8320  function getGlobalShortDelta(address _token, uint256 _price, uint256 _size) public view returns (uint256, bool) {... */\n      swap4\n      pop\n      swap4\n      swap2\n      pop\n      pop\n      jump\t// out\n        /* \"gist-b9df1f47d280e3707a3b6d35cd582bc9/GlpManager.sol\":2267:2294  uint256 public aumDeduction */\n    tag_114:\n      sload(0x09)\n      dup2\n      jump\t// out\n        /* \"gist-b9df1f47d280e3707a3b6d35cd582bc9/Governable.sol\":1519:1593  function setGov(address _gov) external onlyGov {... */\n    tag_117:\n        /* \"gist-b9df1f47d280e3707a3b6d35cd582bc9/Governable.sol\":1466:1469  gov */\n      0x01\n      0x00\n      swap1\n      sload\n      swap1\n      0x0100\n      exp\n      swap1\n      div\n      0xffffffffffffffffffffffffffffffffffffffff\n      and\n        /* \"gist-b9df1f47d280e3707a3b6d35cd582bc9/Governable.sol\":1452:1469  msg.sender == gov */\n      0xffffffffffffffffffffffffffffffffffffffff\n      and\n        /* \"gist-b9df1f47d280e3707a3b6d35cd582bc9/Governable.sol\":1452:1462  msg.sender */\n      caller\n        /* \"gist-b9df1f47d280e3707a3b6d35cd582bc9/Governable.sol\":1452:1469  msg.sender == gov */\n      0xffffffffffffffffffffffffffffffffffffffff\n      and\n      eq\n        /* \"gist-b9df1f47d280e3707a3b6d35cd582bc9/Governable.sol\":1444:1495  require(msg.sender == gov, \"Governable: forbidden\") */\n      tag_298\n      jumpi\n      mload(0x40)\n      0x08c379a000000000000000000000000000000000000000000000000000000000\n      dup2\n      mstore\n      0x04\n      add\n      dup1\n      dup1\n      0x20\n      add\n      dup3\n      dup2\n      sub\n      dup3\n      mstore\n      0x15\n      dup2\n      mstore\n      0x20\n      add\n      dup1\n      0x476f7665726e61626c653a20666f7262696464656e0000000000000000000000\n      dup2\n      mstore\n      pop\n      0x20\n      add\n      swap2\n      pop\n      pop\n      mload(0x40)\n      dup1\n      swap2\n      sub\n      swap1\n      revert\n    tag_298:\n        /* \"gist-b9df1f47d280e3707a3b6d35cd582bc9/Governable.sol\":1582:1586  _gov */\n      dup1\n        /* \"gist-b9df1f47d280e3707a3b6d35cd582bc9/Governable.sol\":1576:1579  gov */\n      0x01\n      0x00\n        /* \"gist-b9df1f47d280e3707a3b6d35cd582bc9/Governable.sol\":1576:1586  gov = _gov */\n      0x0100\n      exp\n      dup2\n      sload\n      dup2\n      0xffffffffffffffffffffffffffffffffffffffff\n      mul\n      not\n      and\n      swap1\n      dup4\n      0xffffffffffffffffffffffffffffffffffffffff\n      and\n      mul\n      or\n      swap1\n      sstore\n      pop\n        /* \"gist-b9df1f47d280e3707a3b6d35cd582bc9/Governable.sol\":1519:1593  function setGov(address _gov) external onlyGov {... */\n      pop\n      jump\t// out\n        /* \"gist-b9df1f47d280e3707a3b6d35cd582bc9/GlpManager.sol\":3311:3432  function setShortsTracker(IShortsTracker _shortsTracker) external onlyGov {... */\n    tag_120:\n        /* \"gist-b9df1f47d280e3707a3b6d35cd582bc9/Governable.sol\":1466:1469  gov */\n      0x01\n      0x00\n      swap1\n      sload\n      swap1\n      0x0100\n      exp\n      swap1\n      div\n      0xffffffffffffffffffffffffffffffffffffffff\n      and\n        /* \"gist-b9df1f47d280e3707a3b6d35cd582bc9/Governable.sol\":1452:1469  msg.sender == gov */\n      0xffffffffffffffffffffffffffffffffffffffff\n      and\n        /* \"gist-b9df1f47d280e3707a3b6d35cd582bc9/Governable.sol\":1452:1462  msg.sender */\n      caller\n        /* \"gist-b9df1f47d280e3707a3b6d35cd582bc9/Governable.sol\":1452:1469  msg.sender == gov */\n      0xffffffffffffffffffffffffffffffffffffffff\n      and\n      eq\n        /* \"gist-b9df1f47d280e3707a3b6d35cd582bc9/Governable.sol\":1444:1495  require(msg.sender == gov, \"Governable: forbidden\") */\n      tag_301\n      jumpi\n      mload(0x40)\n      0x08c379a000000000000000000000000000000000000000000000000000000000\n      dup2\n      mstore\n      0x04\n      add\n      dup1\n      dup1\n      0x20\n      add\n      dup3\n      dup2\n      sub\n      dup3\n      mstore\n      0x15\n      dup2\n      mstore\n      0x20\n      add\n      dup1\n      0x476f7665726e61626c653a20666f7262696464656e0000000000000000000000\n      dup2\n      mstore\n      pop\n      0x20\n      add\n      swap2\n      pop\n      pop\n      mload(0x40)\n      dup1\n      swap2\n      sub\n      swap1\n      revert\n    tag_301:\n        /* \"gist-b9df1f47d280e3707a3b6d35cd582bc9/GlpManager.sol\":3411:3425  _shortsTracker */\n      dup1\n        /* \"gist-b9df1f47d280e3707a3b6d35cd582bc9/GlpManager.sol\":3395:3408  shortsTracker */\n      0x03\n      0x00\n        /* \"gist-b9df1f47d280e3707a3b6d35cd582bc9/GlpManager.sol\":3395:3425  shortsTracker = _shortsTracker */\n      0x0100\n      exp\n      dup2\n      sload\n      dup2\n      0xffffffffffffffffffffffffffffffffffffffff\n      mul\n      not\n      and\n      swap1\n      dup4\n      0xffffffffffffffffffffffffffffffffffffffff\n      and\n      mul\n      or\n      swap1\n      sstore\n      pop\n        /* \"gist-b9df1f47d280e3707a3b6d35cd582bc9/GlpManager.sol\":3311:3432  function setShortsTracker(IShortsTracker _shortsTracker) external onlyGov {... */\n      pop\n      jump\t// out\n        /* \"gist-b9df1f47d280e3707a3b6d35cd582bc9/GlpManager.sol\":5554:5771  function getPrice(bool _maximise) external view returns (uint256) {... */\n    tag_123:\n        /* \"gist-b9df1f47d280e3707a3b6d35cd582bc9/GlpManager.sol\":5611:5618  uint256 */\n      0x00\n        /* \"gist-b9df1f47d280e3707a3b6d35cd582bc9/GlpManager.sol\":5630:5641  uint256 aum */\n      dup1\n        /* \"gist-b9df1f47d280e3707a3b6d35cd582bc9/GlpManager.sol\":5644:5661  getAum(_maximise) */\n      tag_304\n        /* \"gist-b9df1f47d280e3707a3b6d35cd582bc9/GlpManager.sol\":5651:5660  _maximise */\n      dup4\n        /* \"gist-b9df1f47d280e3707a3b6d35cd582bc9/GlpManager.sol\":5644:5650  getAum */\n      tag_46\n        /* \"gist-b9df1f47d280e3707a3b6d35cd582bc9/GlpManager.sol\":5644:5661  getAum(_maximise) */\n      jump\t// in\n    tag_304:\n        /* \"gist-b9df1f47d280e3707a3b6d35cd582bc9/GlpManager.sol\":5630:5661  uint256 aum = getAum(_maximise) */\n      swap1\n      pop\n        /* \"gist-b9df1f47d280e3707a3b6d35cd582bc9/GlpManager.sol\":5671:5685  uint256 supply */\n      0x00\n        /* \"gist-b9df1f47d280e3707a3b6d35cd582bc9/GlpManager.sol\":5695:5698  glp */\n      0x05\n      0x00\n      swap1\n      sload\n      swap1\n      0x0100\n      exp\n      swap1\n      div\n      0xffffffffffffffffffffffffffffffffffffffff\n      and\n        /* \"gist-b9df1f47d280e3707a3b6d35cd582bc9/GlpManager.sol\":5688:5711  IERC20(glp).totalSupply */\n      0xffffffffffffffffffffffffffffffffffffffff\n      and\n      0x18160ddd\n        /* \"gist-b9df1f47d280e3707a3b6d35cd582bc9/GlpManager.sol\":5688:5713  IERC20(glp).totalSupply() */\n      mload(0x40)\n      dup2\n      0xffffffff\n      and\n      0xe0\n      shl\n      dup2\n      mstore\n      0x04\n      add\n      0x20\n      mload(0x40)\n      dup1\n      dup4\n      sub\n      dup2\n      dup7\n      dup1\n      extcodesize\n      iszero\n      dup1\n      iszero\n      tag_305\n      jumpi\n      0x00\n      dup1\n      revert\n    tag_305:\n      pop\n      gas\n      staticcall\n      iszero\n      dup1\n      iszero\n      tag_307\n      jumpi\n      returndatasize\n      0x00\n      dup1\n      returndatacopy\n      revert(0x00, returndatasize)\n    tag_307:\n      pop\n      pop\n      pop\n      pop\n      mload(0x40)\n      returndatasize\n      0x20\n      dup2\n      lt\n      iszero\n      tag_308\n      jumpi\n      0x00\n      dup1\n      revert\n    tag_308:\n      dup2\n      add\n      swap1\n      dup1\n      dup1\n      mload\n      swap1\n      0x20\n      add\n      swap1\n      swap3\n      swap2\n      swap1\n      pop\n      pop\n      pop\n        /* \"gist-b9df1f47d280e3707a3b6d35cd582bc9/GlpManager.sol\":5671:5713  uint256 supply = IERC20(glp).totalSupply() */\n      swap1\n      pop\n        /* \"gist-b9df1f47d280e3707a3b6d35cd582bc9/GlpManager.sol\":5730:5764  aum.mul(GLP_PRECISION).div(supply) */\n      tag_309\n        /* \"gist-b9df1f47d280e3707a3b6d35cd582bc9/GlpManager.sol\":5757:5763  supply */\n      dup2\n        /* \"gist-b9df1f47d280e3707a3b6d35cd582bc9/GlpManager.sol\":5730:5752  aum.mul(GLP_PRECISION) */\n      tag_310\n        /* \"gist-b9df1f47d280e3707a3b6d35cd582bc9/GlpManager.sol\":1848:1856  10 ** 18 */\n      0x0de0b6b3a7640000\n        /* \"gist-b9df1f47d280e3707a3b6d35cd582bc9/GlpManager.sol\":5730:5733  aum */\n      dup6\n        /* \"gist-b9df1f47d280e3707a3b6d35cd582bc9/GlpManager.sol\":5730:5737  aum.mul */\n      tag_176\n      swap1\n        /* \"gist-b9df1f47d280e3707a3b6d35cd582bc9/GlpManager.sol\":5730:5752  aum.mul(GLP_PRECISION) */\n      swap2\n      swap1\n      0xffffffff\n      and\n      jump\t// in\n    tag_310:\n        /* \"gist-b9df1f47d280e3707a3b6d35cd582bc9/GlpManager.sol\":5730:5756  aum.mul(GLP_PRECISION).div */\n      tag_177\n      swap1\n        /* \"gist-b9df1f47d280e3707a3b6d35cd582bc9/GlpManager.sol\":5730:5764  aum.mul(GLP_PRECISION).div(supply) */\n      swap2\n      swap1\n      0xffffffff\n      and\n      jump\t// in\n    tag_309:\n        /* \"gist-b9df1f47d280e3707a3b6d35cd582bc9/GlpManager.sol\":5723:5764  return aum.mul(GLP_PRECISION).div(supply) */\n      swap3\n      pop\n      pop\n      pop\n        /* \"gist-b9df1f47d280e3707a3b6d35cd582bc9/GlpManager.sol\":5554:5771  function getPrice(bool _maximise) external view returns (uint256) {... */\n      swap2\n      swap1\n      pop\n      jump\t// out\n        /* \"gist-b9df1f47d280e3707a3b6d35cd582bc9/GlpManager.sol\":5777:5990  function getAums() public view returns (uint256[] memory) {... */\n    tag_125:\n        /* \"gist-b9df1f47d280e3707a3b6d35cd582bc9/GlpManager.sol\":5817:5833  uint256[] memory */\n      0x60\n        /* \"gist-b9df1f47d280e3707a3b6d35cd582bc9/GlpManager.sol\":5845:5869  uint256[] memory amounts */\n      dup1\n        /* \"gist-b9df1f47d280e3707a3b6d35cd582bc9/GlpManager.sol\":5886:5887  2 */\n      0x02\n        /* \"gist-b9df1f47d280e3707a3b6d35cd582bc9/GlpManager.sol\":5872:5888  new uint256[](2) */\n      0xffffffffffffffff\n      dup2\n      gt\n      dup1\n      iszero\n      tag_312\n      jumpi\n      0x00\n      dup1\n      revert\n    tag_312:\n      pop\n      mload(0x40)\n      swap1\n      dup1\n      dup3\n      mstore\n      dup1\n      0x20\n      mul\n      0x20\n      add\n      dup3\n      add\n      0x40\n      mstore\n      dup1\n      iszero\n      tag_313\n      jumpi\n      dup2\n      0x20\n      add\n      0x20\n      dup3\n      mul\n      dup1\n      calldatasize\n      dup4\n      calldatacopy\n      dup1\n      dup3\n      add\n      swap2\n      pop\n      pop\n      swap1\n      pop\n    tag_313:\n      pop\n        /* \"gist-b9df1f47d280e3707a3b6d35cd582bc9/GlpManager.sol\":5845:5888  uint256[] memory amounts = new uint256[](2) */\n      swap1\n      pop\n        /* \"gist-b9df1f47d280e3707a3b6d35cd582bc9/GlpManager.sol\":5911:5923  getAum(true) */\n      tag_314\n        /* \"gist-b9df1f47d280e3707a3b6d35cd582bc9/GlpManager.sol\":5918:5922  true */\n      0x01\n        /* \"gist-b9df1f47d280e3707a3b6d35cd582bc9/GlpManager.sol\":5911:5917  getAum */\n      tag_46\n        /* \"gist-b9df1f47d280e3707a3b6d35cd582bc9/GlpManager.sol\":5911:5923  getAum(true) */\n      jump\t// in\n    tag_314:\n        /* \"gist-b9df1f47d280e3707a3b6d35cd582bc9/GlpManager.sol\":5898:5905  amounts */\n      dup2\n        /* \"gist-b9df1f47d280e3707a3b6d35cd582bc9/GlpManager.sol\":5906:5907  0 */\n      0x00\n        /* \"gist-b9df1f47d280e3707a3b6d35cd582bc9/GlpManager.sol\":5898:5908  amounts[0] */\n      dup2\n      mload\n      dup2\n      lt\n      tag_315\n      jumpi\n      invalid\n    tag_315:\n      0x20\n      mul\n      0x20\n      add\n      add\n        /* \"gist-b9df1f47d280e3707a3b6d35cd582bc9/GlpManager.sol\":5898:5923  amounts[0] = getAum(true) */\n      dup2\n      dup2\n      mstore\n      pop\n      pop\n        /* \"gist-b9df1f47d280e3707a3b6d35cd582bc9/GlpManager.sol\":5946:5959  getAum(false) */\n      tag_316\n        /* \"gist-b9df1f47d280e3707a3b6d35cd582bc9/GlpManager.sol\":5953:5958  false */\n      0x00\n        /* \"gist-b9df1f47d280e3707a3b6d35cd582bc9/GlpManager.sol\":5946:5952  getAum */\n      tag_46\n        /* \"gist-b9df1f47d280e3707a3b6d35cd582bc9/GlpManager.sol\":5946:5959  getAum(false) */\n      jump\t// in\n    tag_316:\n        /* \"gist-b9df1f47d280e3707a3b6d35cd582bc9/GlpManager.sol\":5933:5940  amounts */\n      dup2\n        /* \"gist-b9df1f47d280e3707a3b6d35cd582bc9/GlpManager.sol\":5941:5942  1 */\n      0x01\n        /* \"gist-b9df1f47d280e3707a3b6d35cd582bc9/GlpManager.sol\":5933:5943  amounts[1] */\n      dup2\n      mload\n      dup2\n      lt\n      tag_317\n      jumpi\n      invalid\n    tag_317:\n      0x20\n      mul\n      0x20\n      add\n      add\n        /* \"gist-b9df1f47d280e3707a3b6d35cd582bc9/GlpManager.sol\":5933:5959  amounts[1] = getAum(false) */\n      dup2\n      dup2\n      mstore\n      pop\n      pop\n        /* \"gist-b9df1f47d280e3707a3b6d35cd582bc9/GlpManager.sol\":5976:5983  amounts */\n      dup1\n        /* \"gist-b9df1f47d280e3707a3b6d35cd582bc9/GlpManager.sol\":5969:5983  return amounts */\n      swap2\n      pop\n      pop\n        /* \"gist-b9df1f47d280e3707a3b6d35cd582bc9/GlpManager.sol\":5777:5990  function getAums() public view returns (uint256[] memory) {... */\n      swap1\n      jump\t// out\n        /* \"gist-b9df1f47d280e3707a3b6d35cd582bc9/GlpManager.sol\":2058:2086  address public override usdg */\n    tag_130:\n      0x04\n      0x00\n      swap1\n      sload\n      swap1\n      0x0100\n      exp\n      swap1\n      div\n      0xffffffffffffffffffffffffffffffffffffffff\n      and\n      dup2\n      jump\t// out\n        /* \"gist-b9df1f47d280e3707a3b6d35cd582bc9/GlpManager.sol\":1983:2011  IVault public override vault */\n    tag_132:\n      0x02\n      0x00\n      swap1\n      sload\n      swap1\n      0x0100\n      exp\n      swap1\n      div\n      0xffffffffffffffffffffffffffffffffffffffff\n      and\n      dup2\n      jump\t// out\n        /* \"gist-b9df1f47d280e3707a3b6d35cd582bc9/SafeMath.sol\":3426:3885  function mul(uint256 a, uint256 b) internal pure returns (uint256) {... */\n    tag_176:\n        /* \"gist-b9df1f47d280e3707a3b6d35cd582bc9/SafeMath.sol\":3484:3491  uint256 */\n      0x00\n        /* \"gist-b9df1f47d280e3707a3b6d35cd582bc9/SafeMath.sol\":3730:3731  0 */\n      dup1\n        /* \"gist-b9df1f47d280e3707a3b6d35cd582bc9/SafeMath.sol\":3725:3726  a */\n      dup4\n        /* \"gist-b9df1f47d280e3707a3b6d35cd582bc9/SafeMath.sol\":3725:3731  a == 0 */\n      eq\n        /* \"gist-b9df1f47d280e3707a3b6d35cd582bc9/SafeMath.sol\":3721:3766  if (a == 0) {... */\n      iszero\n      tag_319\n      jumpi\n        /* \"gist-b9df1f47d280e3707a3b6d35cd582bc9/SafeMath.sol\":3754:3755  0 */\n      0x00\n        /* \"gist-b9df1f47d280e3707a3b6d35cd582bc9/SafeMath.sol\":3747:3755  return 0 */\n      swap1\n      pop\n      jump(tag_318)\n        /* \"gist-b9df1f47d280e3707a3b6d35cd582bc9/SafeMath.sol\":3721:3766  if (a == 0) {... */\n    tag_319:\n        /* \"gist-b9df1f47d280e3707a3b6d35cd582bc9/SafeMath.sol\":3776:3785  uint256 c */\n      0x00\n        /* \"gist-b9df1f47d280e3707a3b6d35cd582bc9/SafeMath.sol\":3792:3793  b */\n      dup3\n        /* \"gist-b9df1f47d280e3707a3b6d35cd582bc9/SafeMath.sol\":3788:3789  a */\n      dup5\n        /* \"gist-b9df1f47d280e3707a3b6d35cd582bc9/SafeMath.sol\":3788:3793  a * b */\n      mul\n        /* \"gist-b9df1f47d280e3707a3b6d35cd582bc9/SafeMath.sol\":3776:3793  uint256 c = a * b */\n      swap1\n      pop\n        /* \"gist-b9df1f47d280e3707a3b6d35cd582bc9/SafeMath.sol\":3820:3821  b */\n      dup3\n        /* \"gist-b9df1f47d280e3707a3b6d35cd582bc9/SafeMath.sol\":3815:3816  a */\n      dup5\n        /* \"gist-b9df1f47d280e3707a3b6d35cd582bc9/SafeMath.sol\":3811:3812  c */\n      dup3\n        /* \"gist-b9df1f47d280e3707a3b6d35cd582bc9/SafeMath.sol\":3811:3816  c / a */\n      dup2\n      tag_320\n      jumpi\n      invalid\n    tag_320:\n      div\n        /* \"gist-b9df1f47d280e3707a3b6d35cd582bc9/SafeMath.sol\":3811:3821  c / a == b */\n      eq\n        /* \"gist-b9df1f47d280e3707a3b6d35cd582bc9/SafeMath.sol\":3803:3859  require(c / a == b, \"SafeMath: multiplication overflow\") */\n      tag_321\n      jumpi\n      mload(0x40)\n      0x08c379a000000000000000000000000000000000000000000000000000000000\n      dup2\n      mstore\n      0x04\n      add\n      dup1\n      dup1\n      0x20\n      add\n      dup3\n      dup2\n      sub\n      dup3\n      mstore\n      0x21\n      dup2\n      mstore\n      0x20\n      add\n      dup1\n      data_9113bb53c2876a3805b2c9242029423fc540a728243ce887ab24c82cf119fba3\n      0x21\n      swap2\n      codecopy\n      0x40\n      add\n      swap2\n      pop\n      pop\n      mload(0x40)\n      dup1\n      swap2\n      sub\n      swap1\n      revert\n    tag_321:\n        /* \"gist-b9df1f47d280e3707a3b6d35cd582bc9/SafeMath.sol\":3877:3878  c */\n      dup1\n        /* \"gist-b9df1f47d280e3707a3b6d35cd582bc9/SafeMath.sol\":3870:3878  return c */\n      swap2\n      pop\n      pop\n        /* \"gist-b9df1f47d280e3707a3b6d35cd582bc9/SafeMath.sol\":3426:3885  function mul(uint256 a, uint256 b) internal pure returns (uint256) {... */\n    tag_318:\n      swap3\n      swap2\n      pop\n      pop\n      jump\t// out\n        /* \"gist-b9df1f47d280e3707a3b6d35cd582bc9/SafeMath.sol\":4347:4477  function div(uint256 a, uint256 b) internal pure returns (uint256) {... */\n    tag_177:\n        /* \"gist-b9df1f47d280e3707a3b6d35cd582bc9/SafeMath.sol\":4405:4412  uint256 */\n      0x00\n        /* \"gist-b9df1f47d280e3707a3b6d35cd582bc9/SafeMath.sol\":4431:4470  div(a, b, \"SafeMath: division by zero\") */\n      tag_323\n        /* \"gist-b9df1f47d280e3707a3b6d35cd582bc9/SafeMath.sol\":4435:4436  a */\n      dup4\n        /* \"gist-b9df1f47d280e3707a3b6d35cd582bc9/SafeMath.sol\":4438:4439  b */\n      dup4\n        /* \"gist-b9df1f47d280e3707a3b6d35cd582bc9/SafeMath.sol\":4431:4470  div(a, b, \"SafeMath: division by zero\") */\n      mload(0x40)\n      dup1\n      0x40\n      add\n      0x40\n      mstore\n      dup1\n      0x1a\n      dup2\n      mstore\n      0x20\n      add\n      0x536166654d6174683a206469766973696f6e206279207a65726f000000000000\n      dup2\n      mstore\n      pop\n        /* \"gist-b9df1f47d280e3707a3b6d35cd582bc9/SafeMath.sol\":4431:4434  div */\n      tag_324\n        /* \"gist-b9df1f47d280e3707a3b6d35cd582bc9/SafeMath.sol\":4431:4470  div(a, b, \"SafeMath: division by zero\") */\n      jump\t// in\n    tag_323:\n        /* \"gist-b9df1f47d280e3707a3b6d35cd582bc9/SafeMath.sol\":4424:4470  return div(a, b, \"SafeMath: division by zero\") */\n      swap1\n      pop\n        /* \"gist-b9df1f47d280e3707a3b6d35cd582bc9/SafeMath.sol\":4347:4477  function div(uint256 a, uint256 b) internal pure returns (uint256) {... */\n      swap3\n      swap2\n      pop\n      pop\n      jump\t// out\n        /* \"gist-b9df1f47d280e3707a3b6d35cd582bc9/SafeMath.sol\":2120:2296  function add(uint256 a, uint256 b) internal pure returns (uint256) {... */\n    tag_178:\n        /* \"gist-b9df1f47d280e3707a3b6d35cd582bc9/SafeMath.sol\":2178:2185  uint256 */\n      0x00\n        /* \"gist-b9df1f47d280e3707a3b6d35cd582bc9/SafeMath.sol\":2197:2206  uint256 c */\n      dup1\n        /* \"gist-b9df1f47d280e3707a3b6d35cd582bc9/SafeMath.sol\":2213:2214  b */\n      dup3\n        /* \"gist-b9df1f47d280e3707a3b6d35cd582bc9/SafeMath.sol\":2209:2210  a */\n      dup5\n        /* \"gist-b9df1f47d280e3707a3b6d35cd582bc9/SafeMath.sol\":2209:2214  a + b */\n      add\n        /* \"gist-b9df1f47d280e3707a3b6d35cd582bc9/SafeMath.sol\":2197:2214  uint256 c = a + b */\n      swap1\n      pop\n        /* \"gist-b9df1f47d280e3707a3b6d35cd582bc9/SafeMath.sol\":2237:2238  a */\n      dup4\n        /* \"gist-b9df1f47d280e3707a3b6d35cd582bc9/SafeMath.sol\":2232:2233  c */\n      dup2\n        /* \"gist-b9df1f47d280e3707a3b6d35cd582bc9/SafeMath.sol\":2232:2238  c >= a */\n      lt\n      iszero\n        /* \"gist-b9df1f47d280e3707a3b6d35cd582bc9/SafeMath.sol\":2224:2270  require(c >= a, \"SafeMath: addition overflow\") */\n      tag_326\n      jumpi\n      mload(0x40)\n      0x08c379a000000000000000000000000000000000000000000000000000000000\n      dup2\n      mstore\n      0x04\n      add\n      dup1\n      dup1\n      0x20\n      add\n      dup3\n      dup2\n      sub\n      dup3\n      mstore\n      0x1b\n      dup2\n      mstore\n      0x20\n      add\n      dup1\n      0x536166654d6174683a206164646974696f6e206f766572666c6f770000000000\n      dup2\n      mstore\n      pop\n      0x20\n      add\n      swap2\n      pop\n      pop\n      mload(0x40)\n      dup1\n      swap2\n      sub\n      swap1\n      revert\n    tag_326:\n        /* \"gist-b9df1f47d280e3707a3b6d35cd582bc9/SafeMath.sol\":2288:2289  c */\n      dup1\n        /* \"gist-b9df1f47d280e3707a3b6d35cd582bc9/SafeMath.sol\":2281:2289  return c */\n      swap2\n      pop\n      pop\n        /* \"gist-b9df1f47d280e3707a3b6d35cd582bc9/SafeMath.sol\":2120:2296  function add(uint256 a, uint256 b) internal pure returns (uint256) {... */\n      swap3\n      swap2\n      pop\n      pop\n      jump\t// out\n        /* \"gist-b9df1f47d280e3707a3b6d35cd582bc9/SafeMath.sol\":2567:2701  function sub(uint256 a, uint256 b) internal pure returns (uint256) {... */\n    tag_203:\n        /* \"gist-b9df1f47d280e3707a3b6d35cd582bc9/SafeMath.sol\":2625:2632  uint256 */\n      0x00\n        /* \"gist-b9df1f47d280e3707a3b6d35cd582bc9/SafeMath.sol\":2651:2694  sub(a, b, \"SafeMath: subtraction overflow\") */\n      tag_328\n        /* \"gist-b9df1f47d280e3707a3b6d35cd582bc9/SafeMath.sol\":2655:2656  a */\n      dup4\n        /* \"gist-b9df1f47d280e3707a3b6d35cd582bc9/SafeMath.sol\":2658:2659  b */\n      dup4\n        /* \"gist-b9df1f47d280e3707a3b6d35cd582bc9/SafeMath.sol\":2651:2694  sub(a, b, \"SafeMath: subtraction overflow\") */\n      mload(0x40)\n      dup1\n      0x40\n      add\n      0x40\n      mstore\n      dup1\n      0x1e\n      dup2\n      mstore\n      0x20\n      add\n      0x536166654d6174683a207375627472616374696f6e206f766572666c6f770000\n      dup2\n      mstore\n      pop\n        /* \"gist-b9df1f47d280e3707a3b6d35cd582bc9/SafeMath.sol\":2651:2654  sub */\n      tag_329\n        /* \"gist-b9df1f47d280e3707a3b6d35cd582bc9/SafeMath.sol\":2651:2694  sub(a, b, \"SafeMath: subtraction overflow\") */\n      jump\t// in\n    tag_328:\n        /* \"gist-b9df1f47d280e3707a3b6d35cd582bc9/SafeMath.sol\":2644:2694  return sub(a, b, \"SafeMath: subtraction overflow\") */\n      swap1\n      pop\n        /* \"gist-b9df1f47d280e3707a3b6d35cd582bc9/SafeMath.sol\":2567:2701  function sub(uint256 a, uint256 b) internal pure returns (uint256) {... */\n      swap3\n      swap2\n      pop\n      pop\n      jump\t// out\n        /* \"gist-b9df1f47d280e3707a3b6d35cd582bc9/GlpManager.sol\":11561:11674  function _validateHandler() private view {... */\n    tag_214:\n        /* \"gist-b9df1f47d280e3707a3b6d35cd582bc9/GlpManager.sol\":11620:11629  isHandler */\n      0x0c\n        /* \"gist-b9df1f47d280e3707a3b6d35cd582bc9/GlpManager.sol\":11620:11641  isHandler[msg.sender] */\n      0x00\n        /* \"gist-b9df1f47d280e3707a3b6d35cd582bc9/GlpManager.sol\":11630:11640  msg.sender */\n      caller\n        /* \"gist-b9df1f47d280e3707a3b6d35cd582bc9/GlpManager.sol\":11620:11641  isHandler[msg.sender] */\n      0xffffffffffffffffffffffffffffffffffffffff\n      and\n      0xffffffffffffffffffffffffffffffffffffffff\n      and\n      dup2\n      mstore\n      0x20\n      add\n      swap1\n      dup2\n      mstore\n      0x20\n      add\n      0x00\n      keccak256\n      0x00\n      swap1\n      sload\n      swap1\n      0x0100\n      exp\n      swap1\n      div\n      0xff\n      and\n        /* \"gist-b9df1f47d280e3707a3b6d35cd582bc9/GlpManager.sol\":11612:11667  require(isHandler[msg.sender], \"GlpManager: forbidden\") */\n      tag_331\n      jumpi\n      mload(0x40)\n      0x08c379a000000000000000000000000000000000000000000000000000000000\n      dup2\n      mstore\n      0x04\n      add\n      dup1\n      dup1\n      0x20\n      add\n      dup3\n      dup2\n      sub\n      dup3\n      mstore\n      0x15\n      dup2\n      mstore\n      0x20\n      add\n      dup1\n      0x476c704d616e616765723a20666f7262696464656e0000000000000000000000\n      dup2\n      mstore\n      pop\n      0x20\n      add\n      swap2\n      pop\n      pop\n      mload(0x40)\n      dup1\n      swap2\n      sub\n      swap1\n      revert\n    tag_331:\n        /* \"gist-b9df1f47d280e3707a3b6d35cd582bc9/GlpManager.sol\":11561:11674  function _validateHandler() private view {... */\n      jump\t// out\n        /* \"gist-b9df1f47d280e3707a3b6d35cd582bc9/GlpManager.sol\":9386:10402  function _addLiquidity(address _fundingAccount, address _account, address _token, uint256 _amount, uint256 _minUsdg, uint256 _minGlp) private returns (uint256) {... */\n    tag_216:\n        /* \"gist-b9df1f47d280e3707a3b6d35cd582bc9/GlpManager.sol\":9537:9544  uint256 */\n      0x00\n        /* \"gist-b9df1f47d280e3707a3b6d35cd582bc9/GlpManager.sol\":9574:9575  0 */\n      dup1\n        /* \"gist-b9df1f47d280e3707a3b6d35cd582bc9/GlpManager.sol\":9564:9571  _amount */\n      dup5\n        /* \"gist-b9df1f47d280e3707a3b6d35cd582bc9/GlpManager.sol\":9564:9575  _amount > 0 */\n      gt\n        /* \"gist-b9df1f47d280e3707a3b6d35cd582bc9/GlpManager.sol\":9556:9607  require(_amount > 0, \"GlpManager: invalid _amount\") */\n      tag_333\n      jumpi\n      mload(0x40)\n      0x08c379a000000000000000000000000000000000000000000000000000000000\n      dup2\n      mstore\n      0x04\n      add\n      dup1\n      dup1\n      0x20\n      add\n      dup3\n      dup2\n      sub\n      dup3\n      mstore\n      0x1b\n      dup2\n      mstore\n      0x20\n      add\n      dup1\n      0x476c704d616e616765723a20696e76616c6964205f616d6f756e740000000000\n      dup2\n      mstore\n      pop\n      0x20\n      add\n      swap2\n      pop\n      pop\n      mload(0x40)\n      dup1\n      swap2\n      sub\n      swap1\n      revert\n    tag_333:\n        /* \"gist-b9df1f47d280e3707a3b6d35cd582bc9/GlpManager.sol\":9658:9675  uint256 aumInUsdg */\n      0x00\n        /* \"gist-b9df1f47d280e3707a3b6d35cd582bc9/GlpManager.sol\":9678:9696  getAumInUsdg(true) */\n      tag_334\n        /* \"gist-b9df1f47d280e3707a3b6d35cd582bc9/GlpManager.sol\":9691:9695  true */\n      0x01\n        /* \"gist-b9df1f47d280e3707a3b6d35cd582bc9/GlpManager.sol\":9678:9690  getAumInUsdg */\n      tag_82\n        /* \"gist-b9df1f47d280e3707a3b6d35cd582bc9/GlpManager.sol\":9678:9696  getAumInUsdg(true) */\n      jump\t// in\n    tag_334:\n        /* \"gist-b9df1f47d280e3707a3b6d35cd582bc9/GlpManager.sol\":9658:9696  uint256 aumInUsdg = getAumInUsdg(true) */\n      swap1\n      pop\n        /* \"gist-b9df1f47d280e3707a3b6d35cd582bc9/GlpManager.sol\":9706:9723  uint256 glpSupply */\n      0x00\n        /* \"gist-b9df1f47d280e3707a3b6d35cd582bc9/GlpManager.sol\":9733:9736  glp */\n      0x05\n      0x00\n      swap1\n      sload\n      swap1\n      0x0100\n      exp\n      swap1\n      div\n      0xffffffffffffffffffffffffffffffffffffffff\n      and\n        /* \"gist-b9df1f47d280e3707a3b6d35cd582bc9/GlpManager.sol\":9726:9749  IERC20(glp).totalSupply */\n      0xffffffffffffffffffffffffffffffffffffffff\n      and\n      0x18160ddd\n        /* \"gist-b9df1f47d280e3707a3b6d35cd582bc9/GlpManager.sol\":9726:9751  IERC20(glp).totalSupply() */\n      mload(0x40)\n      dup2\n      0xffffffff\n      and\n      0xe0\n      shl\n      dup2\n      mstore\n      0x04\n      add\n      0x20\n      mload(0x40)\n      dup1\n      dup4\n      sub\n      dup2\n      dup7\n      dup1\n      extcodesize\n      iszero\n      dup1\n      iszero\n      tag_335\n      jumpi\n      0x00\n      dup1\n      revert\n    tag_335:\n      pop\n      gas\n      staticcall\n      iszero\n      dup1\n      iszero\n      tag_337\n      jumpi\n      returndatasize\n      0x00\n      dup1\n      returndatacopy\n      revert(0x00, returndatasize)\n    tag_337:\n      pop\n      pop\n      pop\n      pop\n      mload(0x40)\n      returndatasize\n      0x20\n      dup2\n      lt\n      iszero\n      tag_338\n      jumpi\n      0x00\n      dup1\n      revert\n    tag_338:\n      dup2\n      add\n      swap1\n      dup1\n      dup1\n      mload\n      swap1\n      0x20\n      add\n      swap1\n      swap3\n      swap2\n      swap1\n      pop\n      pop\n      pop\n        /* \"gist-b9df1f47d280e3707a3b6d35cd582bc9/GlpManager.sol\":9706:9751  uint256 glpSupply = IERC20(glp).totalSupply() */\n      swap1\n      pop\n        /* \"gist-b9df1f47d280e3707a3b6d35cd582bc9/GlpManager.sol\":9762:9835  IERC20(_token).safeTransferFrom(_fundingAccount, address(vault), _amount) */\n      tag_339\n        /* \"gist-b9df1f47d280e3707a3b6d35cd582bc9/GlpManager.sol\":9794:9809  _fundingAccount */\n      dup10\n        /* \"gist-b9df1f47d280e3707a3b6d35cd582bc9/GlpManager.sol\":9819:9824  vault */\n      0x02\n      0x00\n      swap1\n      sload\n      swap1\n      0x0100\n      exp\n      swap1\n      div\n      0xffffffffffffffffffffffffffffffffffffffff\n      and\n        /* \"gist-b9df1f47d280e3707a3b6d35cd582bc9/GlpManager.sol\":9827:9834  _amount */\n      dup9\n        /* \"gist-b9df1f47d280e3707a3b6d35cd582bc9/GlpManager.sol\":9769:9775  _token */\n      dup11\n        /* \"gist-b9df1f47d280e3707a3b6d35cd582bc9/GlpManager.sol\":9762:9793  IERC20(_token).safeTransferFrom */\n      0xffffffffffffffffffffffffffffffffffffffff\n      and\n      tag_340\n      swap1\n        /* \"gist-b9df1f47d280e3707a3b6d35cd582bc9/GlpManager.sol\":9762:9835  IERC20(_token).safeTransferFrom(_fundingAccount, address(vault), _amount) */\n      swap4\n      swap3\n      swap2\n      swap1\n      0xffffffff\n      and\n      jump\t// in\n    tag_339:\n        /* \"gist-b9df1f47d280e3707a3b6d35cd582bc9/GlpManager.sol\":9845:9863  uint256 usdgAmount */\n      0x00\n        /* \"gist-b9df1f47d280e3707a3b6d35cd582bc9/GlpManager.sol\":9866:9871  vault */\n      0x02\n      0x00\n      swap1\n      sload\n      swap1\n      0x0100\n      exp\n      swap1\n      div\n      0xffffffffffffffffffffffffffffffffffffffff\n      and\n        /* \"gist-b9df1f47d280e3707a3b6d35cd582bc9/GlpManager.sol\":9866:9879  vault.buyUSDG */\n      0xffffffffffffffffffffffffffffffffffffffff\n      and\n      0x817bb857\n        /* \"gist-b9df1f47d280e3707a3b6d35cd582bc9/GlpManager.sol\":9880:9886  _token */\n      dup10\n        /* \"gist-b9df1f47d280e3707a3b6d35cd582bc9/GlpManager.sol\":9896:9900  this */\n      address\n        /* \"gist-b9df1f47d280e3707a3b6d35cd582bc9/GlpManager.sol\":9866:9902  vault.buyUSDG(_token, address(this)) */\n      mload(0x40)\n      dup4\n      0xffffffff\n      and\n      0xe0\n      shl\n      dup2\n      mstore\n      0x04\n      add\n      dup1\n      dup4\n      0xffffffffffffffffffffffffffffffffffffffff\n      and\n      dup2\n      mstore\n      0x20\n      add\n      dup3\n      0xffffffffffffffffffffffffffffffffffffffff\n      and\n      dup2\n      mstore\n      0x20\n      add\n      swap3\n      pop\n      pop\n      pop\n      0x20\n      mload(0x40)\n      dup1\n      dup4\n      sub\n      dup2\n      0x00\n      dup8\n      dup1\n      extcodesize\n      iszero\n      dup1\n      iszero\n      tag_341\n      jumpi\n      0x00\n      dup1\n      revert\n    tag_341:\n      pop\n      gas\n      call\n      iszero\n      dup1\n      iszero\n      tag_343\n      jumpi\n      returndatasize\n      0x00\n      dup1\n      returndatacopy\n      revert(0x00, returndatasize)\n    tag_343:\n      pop\n      pop\n      pop\n      pop\n      mload(0x40)\n      returndatasize\n      0x20\n      dup2\n      lt\n      iszero\n      tag_344\n      jumpi\n      0x00\n      dup1\n      revert\n    tag_344:\n      dup2\n      add\n      swap1\n      dup1\n      dup1\n      mload\n      swap1\n      0x20\n      add\n      swap1\n      swap3\n      swap2\n      swap1\n      pop\n      pop\n      pop\n        /* \"gist-b9df1f47d280e3707a3b6d35cd582bc9/GlpManager.sol\":9845:9902  uint256 usdgAmount = vault.buyUSDG(_token, address(this)) */\n      swap1\n      pop\n        /* \"gist-b9df1f47d280e3707a3b6d35cd582bc9/GlpManager.sol\":9934:9942  _minUsdg */\n      dup6\n        /* \"gist-b9df1f47d280e3707a3b6d35cd582bc9/GlpManager.sol\":9920:9930  usdgAmount */\n      dup2\n        /* \"gist-b9df1f47d280e3707a3b6d35cd582bc9/GlpManager.sol\":9920:9942  usdgAmount >= _minUsdg */\n      lt\n      iszero\n        /* \"gist-b9df1f47d280e3707a3b6d35cd582bc9/GlpManager.sol\":9912:9983  require(usdgAmount >= _minUsdg, \"GlpManager: insufficient USDG output\") */\n      tag_345\n      jumpi\n      mload(0x40)\n      0x08c379a000000000000000000000000000000000000000000000000000000000\n      dup2\n      mstore\n      0x04\n      add\n      dup1\n      dup1\n      0x20\n      add\n      dup3\n      dup2\n      sub\n      dup3\n      mstore\n      0x24\n      dup2\n      mstore\n      0x20\n      add\n      dup1\n      data_db8354f041de2f70bf46d5f915be3be72c84d45eaecb8cdb97bbde2ae0541583\n      0x24\n      swap2\n      codecopy\n      0x40\n      add\n      swap2\n      pop\n      pop\n      mload(0x40)\n      dup1\n      swap2\n      sub\n      swap1\n      revert\n    tag_345:\n        /* \"gist-b9df1f47d280e3707a3b6d35cd582bc9/GlpManager.sol\":9994:10012  uint256 mintAmount */\n      0x00\n        /* \"gist-b9df1f47d280e3707a3b6d35cd582bc9/GlpManager.sol\":10028:10029  0 */\n      dup1\n        /* \"gist-b9df1f47d280e3707a3b6d35cd582bc9/GlpManager.sol\":10015:10024  aumInUsdg */\n      dup5\n        /* \"gist-b9df1f47d280e3707a3b6d35cd582bc9/GlpManager.sol\":10015:10029  aumInUsdg == 0 */\n      eq\n        /* \"gist-b9df1f47d280e3707a3b6d35cd582bc9/GlpManager.sol\":10015:10085  aumInUsdg == 0 ? usdgAmount : usdgAmount.mul(glpSupply).div(aumInUsdg) */\n      tag_346\n      jumpi\n        /* \"gist-b9df1f47d280e3707a3b6d35cd582bc9/GlpManager.sol\":10045:10085  usdgAmount.mul(glpSupply).div(aumInUsdg) */\n      tag_347\n        /* \"gist-b9df1f47d280e3707a3b6d35cd582bc9/GlpManager.sol\":10075:10084  aumInUsdg */\n      dup5\n        /* \"gist-b9df1f47d280e3707a3b6d35cd582bc9/GlpManager.sol\":10045:10070  usdgAmount.mul(glpSupply) */\n      tag_348\n        /* \"gist-b9df1f47d280e3707a3b6d35cd582bc9/GlpManager.sol\":10060:10069  glpSupply */\n      dup6\n        /* \"gist-b9df1f47d280e3707a3b6d35cd582bc9/GlpManager.sol\":10045:10055  usdgAmount */\n      dup6\n        /* \"gist-b9df1f47d280e3707a3b6d35cd582bc9/GlpManager.sol\":10045:10059  usdgAmount.mul */\n      tag_176\n      swap1\n        /* \"gist-b9df1f47d280e3707a3b6d35cd582bc9/GlpManager.sol\":10045:10070  usdgAmount.mul(glpSupply) */\n      swap2\n      swap1\n      0xffffffff\n      and\n      jump\t// in\n    tag_348:\n        /* \"gist-b9df1f47d280e3707a3b6d35cd582bc9/GlpManager.sol\":10045:10074  usdgAmount.mul(glpSupply).div */\n      tag_177\n      swap1\n        /* \"gist-b9df1f47d280e3707a3b6d35cd582bc9/GlpManager.sol\":10045:10085  usdgAmount.mul(glpSupply).div(aumInUsdg) */\n      swap2\n      swap1\n      0xffffffff\n      and\n      jump\t// in\n    tag_347:\n        /* \"gist-b9df1f47d280e3707a3b6d35cd582bc9/GlpManager.sol\":10015:10085  aumInUsdg == 0 ? usdgAmount : usdgAmount.mul(glpSupply).div(aumInUsdg) */\n      jump(tag_349)\n    tag_346:\n        /* \"gist-b9df1f47d280e3707a3b6d35cd582bc9/GlpManager.sol\":10032:10042  usdgAmount */\n      dup2\n        /* \"gist-b9df1f47d280e3707a3b6d35cd582bc9/GlpManager.sol\":10015:10085  aumInUsdg == 0 ? usdgAmount : usdgAmount.mul(glpSupply).div(aumInUsdg) */\n    tag_349:\n        /* \"gist-b9df1f47d280e3707a3b6d35cd582bc9/GlpManager.sol\":9994:10085  uint256 mintAmount = aumInUsdg == 0 ? usdgAmount : usdgAmount.mul(glpSupply).div(aumInUsdg) */\n      swap1\n      pop\n        /* \"gist-b9df1f47d280e3707a3b6d35cd582bc9/GlpManager.sol\":10117:10124  _minGlp */\n      dup6\n        /* \"gist-b9df1f47d280e3707a3b6d35cd582bc9/GlpManager.sol\":10103:10113  mintAmount */\n      dup2\n        /* \"gist-b9df1f47d280e3707a3b6d35cd582bc9/GlpManager.sol\":10103:10124  mintAmount >= _minGlp */\n      lt\n      iszero\n        /* \"gist-b9df1f47d280e3707a3b6d35cd582bc9/GlpManager.sol\":10095:10164  require(mintAmount >= _minGlp, \"GlpManager: insufficient GLP output\") */\n      tag_350\n      jumpi\n      mload(0x40)\n      0x08c379a000000000000000000000000000000000000000000000000000000000\n      dup2\n      mstore\n      0x04\n      add\n      dup1\n      dup1\n      0x20\n      add\n      dup3\n      dup2\n      sub\n      dup3\n      mstore\n      0x23\n      dup2\n      mstore\n      0x20\n      add\n      dup1\n      data_a5c742f98fba69dc8d26d45b7bf7e15c89e44ad7e6e786fcce4934f62e227441\n      0x23\n      swap2\n      codecopy\n      0x40\n      add\n      swap2\n      pop\n      pop\n      mload(0x40)\n      dup1\n      swap2\n      sub\n      swap1\n      revert\n    tag_350:\n        /* \"gist-b9df1f47d280e3707a3b6d35cd582bc9/GlpManager.sol\":10185:10188  glp */\n      0x05\n      0x00\n      swap1\n      sload\n      swap1\n      0x0100\n      exp\n      swap1\n      div\n      0xffffffffffffffffffffffffffffffffffffffff\n      and\n        /* \"gist-b9df1f47d280e3707a3b6d35cd582bc9/GlpManager.sol\":10175:10194  IMintable(glp).mint */\n      0xffffffffffffffffffffffffffffffffffffffff\n      and\n      0x40c10f19\n        /* \"gist-b9df1f47d280e3707a3b6d35cd582bc9/GlpManager.sol\":10195:10203  _account */\n      dup12\n        /* \"gist-b9df1f47d280e3707a3b6d35cd582bc9/GlpManager.sol\":10205:10215  mintAmount */\n      dup4\n        /* \"gist-b9df1f47d280e3707a3b6d35cd582bc9/GlpManager.sol\":10175:10216  IMintable(glp).mint(_account, mintAmount) */\n      mload(0x40)\n      dup4\n      0xffffffff\n      and\n      0xe0\n      shl\n      dup2\n      mstore\n      0x04\n      add\n      dup1\n      dup4\n      0xffffffffffffffffffffffffffffffffffffffff\n      and\n      dup2\n      mstore\n      0x20\n      add\n      dup3\n      dup2\n      mstore\n      0x20\n      add\n      swap3\n      pop\n      pop\n      pop\n      0x00\n      mload(0x40)\n      dup1\n      dup4\n      sub\n      dup2\n      0x00\n      dup8\n      dup1\n      extcodesize\n      iszero\n      dup1\n      iszero\n      tag_351\n      jumpi\n      0x00\n      dup1\n      revert\n    tag_351:\n      pop\n      gas\n      call\n      iszero\n      dup1\n      iszero\n      tag_353\n      jumpi\n      returndatasize\n      0x00\n      dup1\n      returndatacopy\n      revert(0x00, returndatasize)\n    tag_353:\n      pop\n      pop\n      pop\n      pop\n        /* \"gist-b9df1f47d280e3707a3b6d35cd582bc9/GlpManager.sol\":10251:10266  block.timestamp */\n      timestamp\n        /* \"gist-b9df1f47d280e3707a3b6d35cd582bc9/GlpManager.sol\":10227:10238  lastAddedAt */\n      0x07\n        /* \"gist-b9df1f47d280e3707a3b6d35cd582bc9/GlpManager.sol\":10227:10248  lastAddedAt[_account] */\n      0x00\n        /* \"gist-b9df1f47d280e3707a3b6d35cd582bc9/GlpManager.sol\":10239:10247  _account */\n      dup13\n        /* \"gist-b9df1f47d280e3707a3b6d35cd582bc9/GlpManager.sol\":10227:10248  lastAddedAt[_account] */\n      0xffffffffffffffffffffffffffffffffffffffff\n      and\n      0xffffffffffffffffffffffffffffffffffffffff\n      and\n      dup2\n      mstore\n      0x20\n      add\n      swap1\n      dup2\n      mstore\n      0x20\n      add\n      0x00\n      keccak256\n        /* \"gist-b9df1f47d280e3707a3b6d35cd582bc9/GlpManager.sol\":10227:10266  lastAddedAt[_account] = block.timestamp */\n      dup2\n      swap1\n      sstore\n      pop\n        /* \"gist-b9df1f47d280e3707a3b6d35cd582bc9/GlpManager.sol\":10282:10367  AddLiquidity(_account, _token, _amount, aumInUsdg, glpSupply, usdgAmount, mintAmount) */\n      0x38dc38b96482be64113daffd8d464ebda93e856b70ccfc605e69ccf892ab981e\n        /* \"gist-b9df1f47d280e3707a3b6d35cd582bc9/GlpManager.sol\":10295:10303  _account */\n      dup11\n        /* \"gist-b9df1f47d280e3707a3b6d35cd582bc9/GlpManager.sol\":10305:10311  _token */\n      dup11\n        /* \"gist-b9df1f47d280e3707a3b6d35cd582bc9/GlpManager.sol\":10313:10320  _amount */\n      dup11\n        /* \"gist-b9df1f47d280e3707a3b6d35cd582bc9/GlpManager.sol\":10322:10331  aumInUsdg */\n      dup8\n        /* \"gist-b9df1f47d280e3707a3b6d35cd582bc9/GlpManager.sol\":10333:10342  glpSupply */\n      dup8\n        /* \"gist-b9df1f47d280e3707a3b6d35cd582bc9/GlpManager.sol\":10344:10354  usdgAmount */\n      dup8\n        /* \"gist-b9df1f47d280e3707a3b6d35cd582bc9/GlpManager.sol\":10356:10366  mintAmount */\n      dup8\n        /* \"gist-b9df1f47d280e3707a3b6d35cd582bc9/GlpManager.sol\":10282:10367  AddLiquidity(_account, _token, _amount, aumInUsdg, glpSupply, usdgAmount, mintAmount) */\n      mload(0x40)\n      dup1\n      dup9\n      0xffffffffffffffffffffffffffffffffffffffff\n      and\n      dup2\n      mstore\n      0x20\n      add\n      dup8\n      0xffffffffffffffffffffffffffffffffffffffff\n      and\n      dup2\n      mstore\n      0x20\n      add\n      dup7\n      dup2\n      mstore\n      0x20\n      add\n      dup6\n      dup2\n      mstore\n      0x20\n      add\n      dup5\n      dup2\n      mstore\n      0x20\n      add\n      dup4\n      dup2\n      mstore\n      0x20\n      add\n      dup3\n      dup2\n      mstore\n      0x20\n      add\n      swap8\n      pop\n      pop\n      pop\n      pop\n      pop\n      pop\n      pop\n      pop\n      mload(0x40)\n      dup1\n      swap2\n      sub\n      swap1\n      log1\n        /* \"gist-b9df1f47d280e3707a3b6d35cd582bc9/GlpManager.sol\":10385:10395  mintAmount */\n      dup1\n        /* \"gist-b9df1f47d280e3707a3b6d35cd582bc9/GlpManager.sol\":10378:10395  return mintAmount */\n      swap5\n      pop\n      pop\n      pop\n      pop\n      pop\n        /* \"gist-b9df1f47d280e3707a3b6d35cd582bc9/GlpManager.sol\":9386:10402  function _addLiquidity(address _fundingAccount, address _account, address _token, uint256 _amount, uint256 _minUsdg, uint256 _minGlp) private returns (uint256) {... */\n      swap7\n      swap6\n      pop\n      pop\n      pop\n      pop\n      pop\n      pop\n      jump\t// out\n        /* \"gist-b9df1f47d280e3707a3b6d35cd582bc9/GlpManager.sol\":10408:11555  function _removeLiquidity(address _account, address _tokenOut, uint256 _glpAmount, uint256 _minOut, address _receiver) private returns (uint256) {... */\n    tag_273:\n        /* \"gist-b9df1f47d280e3707a3b6d35cd582bc9/GlpManager.sol\":10544:10551  uint256 */\n      0x00\n        /* \"gist-b9df1f47d280e3707a3b6d35cd582bc9/GlpManager.sol\":10584:10585  0 */\n      dup1\n        /* \"gist-b9df1f47d280e3707a3b6d35cd582bc9/GlpManager.sol\":10571:10581  _glpAmount */\n      dup5\n        /* \"gist-b9df1f47d280e3707a3b6d35cd582bc9/GlpManager.sol\":10571:10585  _glpAmount > 0 */\n      gt\n        /* \"gist-b9df1f47d280e3707a3b6d35cd582bc9/GlpManager.sol\":10563:10620  require(_glpAmount > 0, \"GlpManager: invalid _glpAmount\") */\n      tag_355\n      jumpi\n      mload(0x40)\n      0x08c379a000000000000000000000000000000000000000000000000000000000\n      dup2\n      mstore\n      0x04\n      add\n      dup1\n      dup1\n      0x20\n      add\n      dup3\n      dup2\n      sub\n      dup3\n      mstore\n      0x1e\n      dup2\n      mstore\n      0x20\n      add\n      dup1\n      0x476c704d616e616765723a20696e76616c6964205f676c70416d6f756e740000\n      dup2\n      mstore\n      pop\n      0x20\n      add\n      swap2\n      pop\n      pop\n      mload(0x40)\n      dup1\n      swap2\n      sub\n      swap1\n      revert\n    tag_355:\n        /* \"gist-b9df1f47d280e3707a3b6d35cd582bc9/GlpManager.sol\":10685:10700  block.timestamp */\n      timestamp\n        /* \"gist-b9df1f47d280e3707a3b6d35cd582bc9/GlpManager.sol\":10638:10681  lastAddedAt[_account].add(cooldownDuration) */\n      tag_356\n        /* \"gist-b9df1f47d280e3707a3b6d35cd582bc9/GlpManager.sol\":10664:10680  cooldownDuration */\n      sload(0x06)\n        /* \"gist-b9df1f47d280e3707a3b6d35cd582bc9/GlpManager.sol\":10638:10649  lastAddedAt */\n      0x07\n        /* \"gist-b9df1f47d280e3707a3b6d35cd582bc9/GlpManager.sol\":10638:10659  lastAddedAt[_account] */\n      0x00\n        /* \"gist-b9df1f47d280e3707a3b6d35cd582bc9/GlpManager.sol\":10650:10658  _account */\n      dup11\n        /* \"gist-b9df1f47d280e3707a3b6d35cd582bc9/GlpManager.sol\":10638:10659  lastAddedAt[_account] */\n      0xffffffffffffffffffffffffffffffffffffffff\n      and\n      0xffffffffffffffffffffffffffffffffffffffff\n      and\n      dup2\n      mstore\n      0x20\n      add\n      swap1\n      dup2\n      mstore\n      0x20\n      add\n      0x00\n      keccak256\n      sload\n        /* \"gist-b9df1f47d280e3707a3b6d35cd582bc9/GlpManager.sol\":10638:10663  lastAddedAt[_account].add */\n      tag_178\n      swap1\n        /* \"gist-b9df1f47d280e3707a3b6d35cd582bc9/GlpManager.sol\":10638:10681  lastAddedAt[_account].add(cooldownDuration) */\n      swap2\n      swap1\n      0xffffffff\n      and\n      jump\t// in\n    tag_356:\n        /* \"gist-b9df1f47d280e3707a3b6d35cd582bc9/GlpManager.sol\":10638:10700  lastAddedAt[_account].add(cooldownDuration) <= block.timestamp */\n      gt\n      iszero\n        /* \"gist-b9df1f47d280e3707a3b6d35cd582bc9/GlpManager.sol\":10630:10749  require(lastAddedAt[_account].add(cooldownDuration) <= block.timestamp, \"GlpManager: cooldown duration not yet passed\") */\n      tag_357\n      jumpi\n      mload(0x40)\n      0x08c379a000000000000000000000000000000000000000000000000000000000\n      dup2\n      mstore\n      0x04\n      add\n      dup1\n      dup1\n      0x20\n      add\n      dup3\n      dup2\n      sub\n      dup3\n      mstore\n      0x2c\n      dup2\n      mstore\n      0x20\n      add\n      dup1\n      data_6162ea1e632bca85d6d061483aa63ec9761376c9b3d491dfacc8cf226ce51f9e\n      0x2c\n      swap2\n      codecopy\n      0x40\n      add\n      swap2\n      pop\n      pop\n      mload(0x40)\n      dup1\n      swap2\n      sub\n      swap1\n      revert\n    tag_357:\n        /* \"gist-b9df1f47d280e3707a3b6d35cd582bc9/GlpManager.sol\":10801:10818  uint256 aumInUsdg */\n      0x00\n        /* \"gist-b9df1f47d280e3707a3b6d35cd582bc9/GlpManager.sol\":10821:10840  getAumInUsdg(false) */\n      tag_358\n        /* \"gist-b9df1f47d280e3707a3b6d35cd582bc9/GlpManager.sol\":10834:10839  false */\n      0x00\n        /* \"gist-b9df1f47d280e3707a3b6d35cd582bc9/GlpManager.sol\":10821:10833  getAumInUsdg */\n      tag_82\n        /* \"gist-b9df1f47d280e3707a3b6d35cd582bc9/GlpManager.sol\":10821:10840  getAumInUsdg(false) */\n      jump\t// in\n    tag_358:\n        /* \"gist-b9df1f47d280e3707a3b6d35cd582bc9/GlpManager.sol\":10801:10840  uint256 aumInUsdg = getAumInUsdg(false) */\n      swap1\n      pop\n        /* \"gist-b9df1f47d280e3707a3b6d35cd582bc9/GlpManager.sol\":10850:10867  uint256 glpSupply */\n      0x00\n        /* \"gist-b9df1f47d280e3707a3b6d35cd582bc9/GlpManager.sol\":10877:10880  glp */\n      0x05\n      0x00\n      swap1\n      sload\n      swap1\n      0x0100\n      exp\n      swap1\n      div\n      0xffffffffffffffffffffffffffffffffffffffff\n      and\n        /* \"gist-b9df1f47d280e3707a3b6d35cd582bc9/GlpManager.sol\":10870:10893  IERC20(glp).totalSupply */\n      0xffffffffffffffffffffffffffffffffffffffff\n      and\n      0x18160ddd\n        /* \"gist-b9df1f47d280e3707a3b6d35cd582bc9/GlpManager.sol\":10870:10895  IERC20(glp).totalSupply() */\n      mload(0x40)\n      dup2\n      0xffffffff\n      and\n      0xe0\n      shl\n      dup2\n      mstore\n      0x04\n      add\n      0x20\n      mload(0x40)\n      dup1\n      dup4\n      sub\n      dup2\n      dup7\n      dup1\n      extcodesize\n      iszero\n      dup1\n      iszero\n      tag_359\n      jumpi\n      0x00\n      dup1\n      revert\n    tag_359:\n      pop\n      gas\n      staticcall\n      iszero\n      dup1\n      iszero\n      tag_361\n      jumpi\n      returndatasize\n      0x00\n      dup1\n      returndatacopy\n      revert(0x00, returndatasize)\n    tag_361:\n      pop\n      pop\n      pop\n      pop\n      mload(0x40)\n      returndatasize\n      0x20\n      dup2\n      lt\n      iszero\n      tag_362\n      jumpi\n      0x00\n      dup1\n      revert\n    tag_362:\n      dup2\n      add\n      swap1\n      dup1\n      dup1\n      mload\n      swap1\n      0x20\n      add\n      swap1\n      swap3\n      swap2\n      swap1\n      pop\n      pop\n      pop\n        /* \"gist-b9df1f47d280e3707a3b6d35cd582bc9/GlpManager.sol\":10850:10895  uint256 glpSupply = IERC20(glp).totalSupply() */\n      swap1\n      pop\n        /* \"gist-b9df1f47d280e3707a3b6d35cd582bc9/GlpManager.sol\":10906:10924  uint256 usdgAmount */\n      0x00\n        /* \"gist-b9df1f47d280e3707a3b6d35cd582bc9/GlpManager.sol\":10927:10967  _glpAmount.mul(aumInUsdg).div(glpSupply) */\n      tag_363\n        /* \"gist-b9df1f47d280e3707a3b6d35cd582bc9/GlpManager.sol\":10957:10966  glpSupply */\n      dup3\n        /* \"gist-b9df1f47d280e3707a3b6d35cd582bc9/GlpManager.sol\":10927:10952  _glpAmount.mul(aumInUsdg) */\n      tag_364\n        /* \"gist-b9df1f47d280e3707a3b6d35cd582bc9/GlpManager.sol\":10942:10951  aumInUsdg */\n      dup6\n        /* \"gist-b9df1f47d280e3707a3b6d35cd582bc9/GlpManager.sol\":10927:10937  _glpAmount */\n      dup11\n        /* \"gist-b9df1f47d280e3707a3b6d35cd582bc9/GlpManager.sol\":10927:10941  _glpAmount.mul */\n      tag_176\n      swap1\n        /* \"gist-b9df1f47d280e3707a3b6d35cd582bc9/GlpManager.sol\":10927:10952  _glpAmount.mul(aumInUsdg) */\n      swap2\n      swap1\n      0xffffffff\n      and\n      jump\t// in\n    tag_364:\n        /* \"gist-b9df1f47d280e3707a3b6d35cd582bc9/GlpManager.sol\":10927:10956  _glpAmount.mul(aumInUsdg).div */\n      tag_177\n      swap1\n        /* \"gist-b9df1f47d280e3707a3b6d35cd582bc9/GlpManager.sol\":10927:10967  _glpAmount.mul(aumInUsdg).div(glpSupply) */\n      swap2\n      swap1\n      0xffffffff\n      and\n      jump\t// in\n    tag_363:\n        /* \"gist-b9df1f47d280e3707a3b6d35cd582bc9/GlpManager.sol\":10906:10967  uint256 usdgAmount = _glpAmount.mul(aumInUsdg).div(glpSupply) */\n      swap1\n      pop\n        /* \"gist-b9df1f47d280e3707a3b6d35cd582bc9/GlpManager.sol\":10977:10996  uint256 usdgBalance */\n      0x00\n        /* \"gist-b9df1f47d280e3707a3b6d35cd582bc9/GlpManager.sol\":11006:11010  usdg */\n      0x04\n      0x00\n      swap1\n      sload\n      swap1\n      0x0100\n      exp\n      swap1\n      div\n      0xffffffffffffffffffffffffffffffffffffffff\n      and\n        /* \"gist-b9df1f47d280e3707a3b6d35cd582bc9/GlpManager.sol\":10999:11021  IERC20(usdg).balanceOf */\n      0xffffffffffffffffffffffffffffffffffffffff\n      and\n      0x70a08231\n        /* \"gist-b9df1f47d280e3707a3b6d35cd582bc9/GlpManager.sol\":11030:11034  this */\n      address\n        /* \"gist-b9df1f47d280e3707a3b6d35cd582bc9/GlpManager.sol\":10999:11036  IERC20(usdg).balanceOf(address(this)) */\n      mload(0x40)\n      dup3\n      0xffffffff\n      and\n      0xe0\n      shl\n      dup2\n      mstore\n      0x04\n      add\n      dup1\n      dup3\n      0xffffffffffffffffffffffffffffffffffffffff\n      and\n      dup2\n      mstore\n      0x20\n      add\n      swap2\n      pop\n      pop\n      0x20\n      mload(0x40)\n      dup1\n      dup4\n      sub\n      dup2\n      dup7\n      dup1\n      extcodesize\n      iszero\n      dup1\n      iszero\n      tag_365\n      jumpi\n      0x00\n      dup1\n      revert\n    tag_365:\n      pop\n      gas\n      staticcall\n      iszero\n      dup1\n      iszero\n      tag_367\n      jumpi\n      returndatasize\n      0x00\n      dup1\n      returndatacopy\n      revert(0x00, returndatasize)\n    tag_367:\n      pop\n      pop\n      pop\n      pop\n      mload(0x40)\n      returndatasize\n      0x20\n      dup2\n      lt\n      iszero\n      tag_368\n      jumpi\n      0x00\n      dup1\n      revert\n    tag_368:\n      dup2\n      add\n      swap1\n      dup1\n      dup1\n      mload\n      swap1\n      0x20\n      add\n      swap1\n      swap3\n      swap2\n      swap1\n      pop\n      pop\n      pop\n        /* \"gist-b9df1f47d280e3707a3b6d35cd582bc9/GlpManager.sol\":10977:11036  uint256 usdgBalance = IERC20(usdg).balanceOf(address(this)) */\n      swap1\n      pop\n        /* \"gist-b9df1f47d280e3707a3b6d35cd582bc9/GlpManager.sol\":11063:11074  usdgBalance */\n      dup1\n        /* \"gist-b9df1f47d280e3707a3b6d35cd582bc9/GlpManager.sol\":11050:11060  usdgAmount */\n      dup3\n        /* \"gist-b9df1f47d280e3707a3b6d35cd582bc9/GlpManager.sol\":11050:11074  usdgAmount > usdgBalance */\n      gt\n        /* \"gist-b9df1f47d280e3707a3b6d35cd582bc9/GlpManager.sol\":11046:11161  if (usdgAmount > usdgBalance) {... */\n      iszero\n      tag_369\n      jumpi\n        /* \"gist-b9df1f47d280e3707a3b6d35cd582bc9/GlpManager.sol\":11096:11100  usdg */\n      0x04\n      0x00\n      swap1\n      sload\n      swap1\n      0x0100\n      exp\n      swap1\n      div\n      0xffffffffffffffffffffffffffffffffffffffff\n      and\n        /* \"gist-b9df1f47d280e3707a3b6d35cd582bc9/GlpManager.sol\":11090:11106  IUSDG(usdg).mint */\n      0xffffffffffffffffffffffffffffffffffffffff\n      and\n      0x40c10f19\n        /* \"gist-b9df1f47d280e3707a3b6d35cd582bc9/GlpManager.sol\":11115:11119  this */\n      address\n        /* \"gist-b9df1f47d280e3707a3b6d35cd582bc9/GlpManager.sol\":11122:11149  usdgAmount.sub(usdgBalance) */\n      tag_370\n        /* \"gist-b9df1f47d280e3707a3b6d35cd582bc9/GlpManager.sol\":11137:11148  usdgBalance */\n      dup5\n        /* \"gist-b9df1f47d280e3707a3b6d35cd582bc9/GlpManager.sol\":11122:11132  usdgAmount */\n      dup7\n        /* \"gist-b9df1f47d280e3707a3b6d35cd582bc9/GlpManager.sol\":11122:11136  usdgAmount.sub */\n      tag_203\n      swap1\n        /* \"gist-b9df1f47d280e3707a3b6d35cd582bc9/GlpManager.sol\":11122:11149  usdgAmount.sub(usdgBalance) */\n      swap2\n      swap1\n      0xffffffff\n      and\n      jump\t// in\n    tag_370:\n        /* \"gist-b9df1f47d280e3707a3b6d35cd582bc9/GlpManager.sol\":11090:11150  IUSDG(usdg).mint(address(this), usdgAmount.sub(usdgBalance)) */\n      mload(0x40)\n      dup4\n      0xffffffff\n      and\n      0xe0\n      shl\n      dup2\n      mstore\n      0x04\n      add\n      dup1\n      dup4\n      0xffffffffffffffffffffffffffffffffffffffff\n      and\n      dup2\n      mstore\n      0x20\n      add\n      dup3\n      dup2\n      mstore\n      0x20\n      add\n      swap3\n      pop\n      pop\n      pop\n      0x00\n      mload(0x40)\n      dup1\n      dup4\n      sub\n      dup2\n      0x00\n      dup8\n      dup1\n      extcodesize\n      iszero\n      dup1\n      iszero\n      tag_371\n      jumpi\n      0x00\n      dup1\n      revert\n    tag_371:\n      pop\n      gas\n      call\n      iszero\n      dup1\n      iszero\n      tag_373\n      jumpi\n      returndatasize\n      0x00\n      dup1\n      returndatacopy\n      revert(0x00, returndatasize)\n    tag_373:\n      pop\n      pop\n      pop\n      pop\n        /* \"gist-b9df1f47d280e3707a3b6d35cd582bc9/GlpManager.sol\":11046:11161  if (usdgAmount > usdgBalance) {... */\n    tag_369:\n        /* \"gist-b9df1f47d280e3707a3b6d35cd582bc9/GlpManager.sol\":11181:11184  glp */\n      0x05\n      0x00\n      swap1\n      sload\n      swap1\n      0x0100\n      exp\n      swap1\n      div\n      0xffffffffffffffffffffffffffffffffffffffff\n      and\n        /* \"gist-b9df1f47d280e3707a3b6d35cd582bc9/GlpManager.sol\":11171:11190  IMintable(glp).burn */\n      0xffffffffffffffffffffffffffffffffffffffff\n      and\n      0x9dc29fac\n        /* \"gist-b9df1f47d280e3707a3b6d35cd582bc9/GlpManager.sol\":11191:11199  _account */\n      dup12\n        /* \"gist-b9df1f47d280e3707a3b6d35cd582bc9/GlpManager.sol\":11201:11211  _glpAmount */\n      dup11\n        /* \"gist-b9df1f47d280e3707a3b6d35cd582bc9/GlpManager.sol\":11171:11212  IMintable(glp).burn(_account, _glpAmount) */\n      mload(0x40)\n      dup4\n      0xffffffff\n      and\n      0xe0\n      shl\n      dup2\n      mstore\n      0x04\n      add\n      dup1\n      dup4\n      0xffffffffffffffffffffffffffffffffffffffff\n      and\n      dup2\n      mstore\n      0x20\n      add\n      dup3\n      dup2\n      mstore\n      0x20\n      add\n      swap3\n      pop\n      pop\n      pop\n      0x00\n      mload(0x40)\n      dup1\n      dup4\n      sub\n      dup2\n      0x00\n      dup8\n      dup1\n      extcodesize\n      iszero\n      dup1\n      iszero\n      tag_374\n      jumpi\n      0x00\n      dup1\n      revert\n    tag_374:\n      pop\n      gas\n      call\n      iszero\n      dup1\n      iszero\n      tag_376\n      jumpi\n      returndatasize\n      0x00\n      dup1\n      returndatacopy\n      revert(0x00, returndatasize)\n    tag_376:\n      pop\n      pop\n      pop\n      pop\n        /* \"gist-b9df1f47d280e3707a3b6d35cd582bc9/GlpManager.sol\":11230:11234  usdg */\n      0x04\n      0x00\n      swap1\n      sload\n      swap1\n      0x0100\n      exp\n      swap1\n      div\n      0xffffffffffffffffffffffffffffffffffffffff\n      and\n        /* \"gist-b9df1f47d280e3707a3b6d35cd582bc9/GlpManager.sol\":11223:11244  IERC20(usdg).transfer */\n      0xffffffffffffffffffffffffffffffffffffffff\n      and\n      0xa9059cbb\n        /* \"gist-b9df1f47d280e3707a3b6d35cd582bc9/GlpManager.sol\":11253:11258  vault */\n      0x02\n      0x00\n      swap1\n      sload\n      swap1\n      0x0100\n      exp\n      swap1\n      div\n      0xffffffffffffffffffffffffffffffffffffffff\n      and\n        /* \"gist-b9df1f47d280e3707a3b6d35cd582bc9/GlpManager.sol\":11261:11271  usdgAmount */\n      dup5\n        /* \"gist-b9df1f47d280e3707a3b6d35cd582bc9/GlpManager.sol\":11223:11272  IERC20(usdg).transfer(address(vault), usdgAmount) */\n      mload(0x40)\n      dup4\n      0xffffffff\n      and\n      0xe0\n      shl\n      dup2\n      mstore\n      0x04\n      add\n      dup1\n      dup4\n      0xffffffffffffffffffffffffffffffffffffffff\n      and\n      dup2\n      mstore\n      0x20\n      add\n      dup3\n      dup2\n      mstore\n      0x20\n      add\n      swap3\n      pop\n      pop\n      pop\n      0x20\n      mload(0x40)\n      dup1\n      dup4\n      sub\n      dup2\n      0x00\n      dup8\n      dup1\n      extcodesize\n      iszero\n      dup1\n      iszero\n      tag_377\n      jumpi\n      0x00\n      dup1\n      revert\n    tag_377:\n      pop\n      gas\n      call\n      iszero\n      dup1\n      iszero\n      tag_379\n      jumpi\n      returndatasize\n      0x00\n      dup1\n      returndatacopy\n      revert(0x00, returndatasize)\n    tag_379:\n      pop\n      pop\n      pop\n      pop\n      mload(0x40)\n      returndatasize\n      0x20\n      dup2\n      lt\n      iszero\n      tag_380\n      jumpi\n      0x00\n      dup1\n      revert\n    tag_380:\n      dup2\n      add\n      swap1\n      dup1\n      dup1\n      mload\n      swap1\n      0x20\n      add\n      swap1\n      swap3\n      swap2\n      swap1\n      pop\n      pop\n      pop\n      pop\n        /* \"gist-b9df1f47d280e3707a3b6d35cd582bc9/GlpManager.sol\":11282:11299  uint256 amountOut */\n      0x00\n        /* \"gist-b9df1f47d280e3707a3b6d35cd582bc9/GlpManager.sol\":11302:11307  vault */\n      0x02\n      0x00\n      swap1\n      sload\n      swap1\n      0x0100\n      exp\n      swap1\n      div\n      0xffffffffffffffffffffffffffffffffffffffff\n      and\n        /* \"gist-b9df1f47d280e3707a3b6d35cd582bc9/GlpManager.sol\":11302:11316  vault.sellUSDG */\n      0xffffffffffffffffffffffffffffffffffffffff\n      and\n      0x711e6190\n        /* \"gist-b9df1f47d280e3707a3b6d35cd582bc9/GlpManager.sol\":11317:11326  _tokenOut */\n      dup12\n        /* \"gist-b9df1f47d280e3707a3b6d35cd582bc9/GlpManager.sol\":11328:11337  _receiver */\n      dup10\n        /* \"gist-b9df1f47d280e3707a3b6d35cd582bc9/GlpManager.sol\":11302:11338  vault.sellUSDG(_tokenOut, _receiver) */\n      mload(0x40)\n      dup4\n      0xffffffff\n      and\n      0xe0\n      shl\n      dup2\n      mstore\n      0x04\n      add\n      dup1\n      dup4\n      0xffffffffffffffffffffffffffffffffffffffff\n      and\n      dup2\n      mstore\n      0x20\n      add\n      dup3\n      0xffffffffffffffffffffffffffffffffffffffff\n      and\n      dup2\n      mstore\n      0x20\n      add\n      swap3\n      pop\n      pop\n      pop\n      0x20\n      mload(0x40)\n      dup1\n      dup4\n      sub\n      dup2\n      0x00\n      dup8\n      dup1\n      extcodesize\n      iszero\n      dup1\n      iszero\n      tag_381\n      jumpi\n      0x00\n      dup1\n      revert\n    tag_381:\n      pop\n      gas\n      call\n      iszero\n      dup1\n      iszero\n      tag_383\n      jumpi\n      returndatasize\n      0x00\n      dup1\n      returndatacopy\n      revert(0x00, returndatasize)\n    tag_383:\n      pop\n      pop\n      pop\n      pop\n      mload(0x40)\n      returndatasize\n      0x20\n      dup2\n      lt\n      iszero\n      tag_384\n      jumpi\n      0x00\n      dup1\n      revert\n    tag_384:\n      dup2\n      add\n      swap1\n      dup1\n      dup1\n      mload\n      swap1\n      0x20\n      add\n      swap1\n      swap3\n      swap2\n      swap1\n      pop\n      pop\n      pop\n        /* \"gist-b9df1f47d280e3707a3b6d35cd582bc9/GlpManager.sol\":11282:11338  uint256 amountOut = vault.sellUSDG(_tokenOut, _receiver) */\n      swap1\n      pop\n        /* \"gist-b9df1f47d280e3707a3b6d35cd582bc9/GlpManager.sol\":11369:11376  _minOut */\n      dup8\n        /* \"gist-b9df1f47d280e3707a3b6d35cd582bc9/GlpManager.sol\":11356:11365  amountOut */\n      dup2\n        /* \"gist-b9df1f47d280e3707a3b6d35cd582bc9/GlpManager.sol\":11356:11376  amountOut >= _minOut */\n      lt\n      iszero\n        /* \"gist-b9df1f47d280e3707a3b6d35cd582bc9/GlpManager.sol\":11348:11412  require(amountOut >= _minOut, \"GlpManager: insufficient output\") */\n      tag_385\n      jumpi\n      mload(0x40)\n      0x08c379a000000000000000000000000000000000000000000000000000000000\n      dup2\n      mstore\n      0x04\n      add\n      dup1\n      dup1\n      0x20\n      add\n      dup3\n      dup2\n      sub\n      dup3\n      mstore\n      0x1f\n      dup2\n      mstore\n      0x20\n      add\n      dup1\n      0x476c704d616e616765723a20696e73756666696369656e74206f757470757400\n      dup2\n      mstore\n      pop\n      0x20\n      add\n      swap2\n      pop\n      pop\n      mload(0x40)\n      dup1\n      swap2\n      sub\n      swap1\n      revert\n    tag_385:\n        /* \"gist-b9df1f47d280e3707a3b6d35cd582bc9/GlpManager.sol\":11428:11521  RemoveLiquidity(_account, _tokenOut, _glpAmount, aumInUsdg, glpSupply, usdgAmount, amountOut) */\n      0x87b9679bb9a4944bafa98c267e7cd4a00ab29fed48afdefae25f0fca5da27940\n        /* \"gist-b9df1f47d280e3707a3b6d35cd582bc9/GlpManager.sol\":11444:11452  _account */\n      dup12\n        /* \"gist-b9df1f47d280e3707a3b6d35cd582bc9/GlpManager.sol\":11454:11463  _tokenOut */\n      dup12\n        /* \"gist-b9df1f47d280e3707a3b6d35cd582bc9/GlpManager.sol\":11465:11475  _glpAmount */\n      dup12\n        /* \"gist-b9df1f47d280e3707a3b6d35cd582bc9/GlpManager.sol\":11477:11486  aumInUsdg */\n      dup9\n        /* \"gist-b9df1f47d280e3707a3b6d35cd582bc9/GlpManager.sol\":11488:11497  glpSupply */\n      dup9\n        /* \"gist-b9df1f47d280e3707a3b6d35cd582bc9/GlpManager.sol\":11499:11509  usdgAmount */\n      dup9\n        /* \"gist-b9df1f47d280e3707a3b6d35cd582bc9/GlpManager.sol\":11511:11520  amountOut */\n      dup8\n        /* \"gist-b9df1f47d280e3707a3b6d35cd582bc9/GlpManager.sol\":11428:11521  RemoveLiquidity(_account, _tokenOut, _glpAmount, aumInUsdg, glpSupply, usdgAmount, amountOut) */\n      mload(0x40)\n      dup1\n      dup9\n      0xffffffffffffffffffffffffffffffffffffffff\n      and\n      dup2\n      mstore\n      0x20\n      add\n      dup8\n      0xffffffffffffffffffffffffffffffffffffffff\n      and\n      dup2\n      mstore\n      0x20\n      add\n      dup7\n      dup2\n      mstore\n      0x20\n      add\n      dup6\n      dup2\n      mstore\n      0x20\n      add\n      dup5\n      dup2\n      mstore\n      0x20\n      add\n      dup4\n      dup2\n      mstore\n      0x20\n      add\n      dup3\n      dup2\n      mstore\n      0x20\n      add\n      swap8\n      pop\n      pop\n      pop\n      pop\n      pop\n      pop\n      pop\n      pop\n      mload(0x40)\n      dup1\n      swap2\n      sub\n      swap1\n      log1\n        /* \"gist-b9df1f47d280e3707a3b6d35cd582bc9/GlpManager.sol\":11539:11548  amountOut */\n      dup1\n        /* \"gist-b9df1f47d280e3707a3b6d35cd582bc9/GlpManager.sol\":11532:11548  return amountOut */\n      swap6\n      pop\n      pop\n      pop\n      pop\n      pop\n      pop\n        /* \"gist-b9df1f47d280e3707a3b6d35cd582bc9/GlpManager.sol\":10408:11555  function _removeLiquidity(address _account, address _tokenOut, uint256 _glpAmount, uint256 _minOut, address _receiver) private returns (uint256) {... */\n      swap6\n      swap5\n      pop\n      pop\n      pop\n      pop\n      pop\n      jump\t// out\n        /* \"gist-b9df1f47d280e3707a3b6d35cd582bc9/SafeMath.sol\":4959:5231  function div(uint256 a, uint256 b, string memory errorMessage) internal pure returns (uint256) {... */\n    tag_324:\n        /* \"gist-b9df1f47d280e3707a3b6d35cd582bc9/SafeMath.sol\":5045:5052  uint256 */\n      0x00\n        /* \"gist-b9df1f47d280e3707a3b6d35cd582bc9/SafeMath.sol\":5076:5077  0 */\n      dup1\n        /* \"gist-b9df1f47d280e3707a3b6d35cd582bc9/SafeMath.sol\":5072:5073  b */\n      dup4\n        /* \"gist-b9df1f47d280e3707a3b6d35cd582bc9/SafeMath.sol\":5072:5077  b > 0 */\n      gt\n        /* \"gist-b9df1f47d280e3707a3b6d35cd582bc9/SafeMath.sol\":5079:5091  errorMessage */\n      dup3\n        /* \"gist-b9df1f47d280e3707a3b6d35cd582bc9/SafeMath.sol\":5064:5092  require(b > 0, errorMessage) */\n      swap1\n      tag_387\n      jumpi\n      mload(0x40)\n      0x08c379a000000000000000000000000000000000000000000000000000000000\n      dup2\n      mstore\n      0x04\n      add\n      dup1\n      dup1\n      0x20\n      add\n      dup3\n      dup2\n      sub\n      dup3\n      mstore\n      dup4\n      dup2\n      dup2\n      mload\n      dup2\n      mstore\n      0x20\n      add\n      swap2\n      pop\n      dup1\n      mload\n      swap1\n      0x20\n      add\n      swap1\n      dup1\n      dup4\n      dup4\n      0x00\n    tag_388:\n      dup4\n      dup2\n      lt\n      iszero\n      tag_390\n      jumpi\n      dup1\n      dup3\n      add\n      mload\n      dup2\n      dup5\n      add\n      mstore\n      0x20\n      dup2\n      add\n      swap1\n      pop\n      jump(tag_388)\n    tag_390:\n      pop\n      pop\n      pop\n      pop\n      swap1\n      pop\n      swap1\n      dup2\n      add\n      swap1\n      0x1f\n      and\n      dup1\n      iszero\n      tag_391\n      jumpi\n      dup1\n      dup3\n      sub\n      dup1\n      mload\n      0x01\n      dup4\n      0x20\n      sub\n      0x0100\n      exp\n      sub\n      not\n      and\n      dup2\n      mstore\n      0x20\n      add\n      swap2\n      pop\n    tag_391:\n      pop\n      swap3\n      pop\n      pop\n      pop\n      mload(0x40)\n      dup1\n      swap2\n      sub\n      swap1\n      revert\n    tag_387:\n      pop\n        /* \"gist-b9df1f47d280e3707a3b6d35cd582bc9/SafeMath.sol\":5102:5111  uint256 c */\n      0x00\n        /* \"gist-b9df1f47d280e3707a3b6d35cd582bc9/SafeMath.sol\":5118:5119  b */\n      dup4\n        /* \"gist-b9df1f47d280e3707a3b6d35cd582bc9/SafeMath.sol\":5114:5115  a */\n      dup6\n        /* \"gist-b9df1f47d280e3707a3b6d35cd582bc9/SafeMath.sol\":5114:5119  a / b */\n      dup2\n      tag_392\n      jumpi\n      invalid\n    tag_392:\n      div\n        /* \"gist-b9df1f47d280e3707a3b6d35cd582bc9/SafeMath.sol\":5102:5119  uint256 c = a / b */\n      swap1\n      pop\n        /* \"gist-b9df1f47d280e3707a3b6d35cd582bc9/SafeMath.sol\":5223:5224  c */\n      dup1\n        /* \"gist-b9df1f47d280e3707a3b6d35cd582bc9/SafeMath.sol\":5216:5224  return c */\n      swap2\n      pop\n      pop\n        /* \"gist-b9df1f47d280e3707a3b6d35cd582bc9/SafeMath.sol\":4959:5231  function div(uint256 a, uint256 b, string memory errorMessage) internal pure returns (uint256) {... */\n      swap4\n      swap3\n      pop\n      pop\n      pop\n      jump\t// out\n        /* \"gist-b9df1f47d280e3707a3b6d35cd582bc9/SafeMath.sol\":2992:3179  function sub(uint256 a, uint256 b, string memory errorMessage) internal pure returns (uint256) {... */\n    tag_329:\n        /* \"gist-b9df1f47d280e3707a3b6d35cd582bc9/SafeMath.sol\":3078:3085  uint256 */\n      0x00\n        /* \"gist-b9df1f47d280e3707a3b6d35cd582bc9/SafeMath.sol\":3110:3111  a */\n      dup4\n        /* \"gist-b9df1f47d280e3707a3b6d35cd582bc9/SafeMath.sol\":3105:3106  b */\n      dup4\n        /* \"gist-b9df1f47d280e3707a3b6d35cd582bc9/SafeMath.sol\":3105:3111  b <= a */\n      gt\n      iszero\n        /* \"gist-b9df1f47d280e3707a3b6d35cd582bc9/SafeMath.sol\":3113:3125  errorMessage */\n      dup3\n        /* \"gist-b9df1f47d280e3707a3b6d35cd582bc9/SafeMath.sol\":3097:3126  require(b <= a, errorMessage) */\n      swap1\n      tag_394\n      jumpi\n      mload(0x40)\n      0x08c379a000000000000000000000000000000000000000000000000000000000\n      dup2\n      mstore\n      0x04\n      add\n      dup1\n      dup1\n      0x20\n      add\n      dup3\n      dup2\n      sub\n      dup3\n      mstore\n      dup4\n      dup2\n      dup2\n      mload\n      dup2\n      mstore\n      0x20\n      add\n      swap2\n      pop\n      dup1\n      mload\n      swap1\n      0x20\n      add\n      swap1\n      dup1\n      dup4\n      dup4\n      0x00\n    tag_395:\n      dup4\n      dup2\n      lt\n      iszero\n      tag_397\n      jumpi\n      dup1\n      dup3\n      add\n      mload\n      dup2\n      dup5\n      add\n      mstore\n      0x20\n      dup2\n      add\n      swap1\n      pop\n      jump(tag_395)\n    tag_397:\n      pop\n      pop\n      pop\n      pop\n      swap1\n      pop\n      swap1\n      dup2\n      add\n      swap1\n      0x1f\n      and\n      dup1\n      iszero\n      tag_398\n      jumpi\n      dup1\n      dup3\n      sub\n      dup1\n      mload\n      0x01\n      dup4\n      0x20\n      sub\n      0x0100\n      exp\n      sub\n      not\n      and\n      dup2\n      mstore\n      0x20\n      add\n      swap2\n      pop\n    tag_398:\n      pop\n      swap3\n      pop\n      pop\n      pop\n      mload(0x40)\n      dup1\n      swap2\n      sub\n      swap1\n      revert\n    tag_394:\n      pop\n        /* \"gist-b9df1f47d280e3707a3b6d35cd582bc9/SafeMath.sol\":3136:3145  uint256 c */\n      0x00\n        /* \"gist-b9df1f47d280e3707a3b6d35cd582bc9/SafeMath.sol\":3152:3153  b */\n      dup4\n        /* \"gist-b9df1f47d280e3707a3b6d35cd582bc9/SafeMath.sol\":3148:3149  a */\n      dup6\n        /* \"gist-b9df1f47d280e3707a3b6d35cd582bc9/SafeMath.sol\":3148:3153  a - b */\n      sub\n        /* \"gist-b9df1f47d280e3707a3b6d35cd582bc9/SafeMath.sol\":3136:3153  uint256 c = a - b */\n      swap1\n      pop\n        /* \"gist-b9df1f47d280e3707a3b6d35cd582bc9/SafeMath.sol\":3171:3172  c */\n      dup1\n        /* \"gist-b9df1f47d280e3707a3b6d35cd582bc9/SafeMath.sol\":3164:3172  return c */\n      swap2\n      pop\n      pop\n        /* \"gist-b9df1f47d280e3707a3b6d35cd582bc9/SafeMath.sol\":2992:3179  function sub(uint256 a, uint256 b, string memory errorMessage) internal pure returns (uint256) {... */\n      swap4\n      swap3\n      pop\n      pop\n      pop\n      jump\t// out\n        /* \"gist-b9df1f47d280e3707a3b6d35cd582bc9/SafeERC20.sol\":2104:2307  function safeTransferFrom(IERC20 token, address from, address to, uint256 value) internal {... */\n    tag_340:\n        /* \"gist-b9df1f47d280e3707a3b6d35cd582bc9/SafeERC20.sol\":2204:2300  _callOptionalReturn(token, abi.encodeWithSelector(token.transferFrom.selector, from, to, value)) */\n      tag_400\n        /* \"gist-b9df1f47d280e3707a3b6d35cd582bc9/SafeERC20.sol\":2224:2229  token */\n      dup5\n        /* \"gist-b9df1f47d280e3707a3b6d35cd582bc9/SafeERC20.sol\":2254:2281  token.transferFrom.selector */\n      shl(0xe0, 0x23b872dd)\n        /* \"gist-b9df1f47d280e3707a3b6d35cd582bc9/SafeERC20.sol\":2283:2287  from */\n      dup6\n        /* \"gist-b9df1f47d280e3707a3b6d35cd582bc9/SafeERC20.sol\":2289:2291  to */\n      dup6\n        /* \"gist-b9df1f47d280e3707a3b6d35cd582bc9/SafeERC20.sol\":2293:2298  value */\n      dup6\n        /* \"gist-b9df1f47d280e3707a3b6d35cd582bc9/SafeERC20.sol\":2231:2299  abi.encodeWithSelector(token.transferFrom.selector, from, to, value) */\n      add(0x24, mload(0x40))\n      dup1\n      dup5\n      0xffffffffffffffffffffffffffffffffffffffff\n      and\n      dup2\n      mstore\n      0x20\n      add\n      dup4\n      0xffffffffffffffffffffffffffffffffffffffff\n      and\n      dup2\n      mstore\n      0x20\n      add\n      dup3\n      dup2\n      mstore\n      0x20\n      add\n      swap4\n      pop\n      pop\n      pop\n      pop\n      mload(0x40)\n      0x20\n      dup2\n      dup4\n      sub\n      sub\n      dup2\n      mstore\n      swap1\n      0x40\n      mstore\n      swap1\n      not(0xffffffffffffffffffffffffffffffffffffffffffffffffffffffff)\n      and\n      0x20\n      dup3\n      add\n      dup1\n      mload\n      0xffffffffffffffffffffffffffffffffffffffffffffffffffffffff\n      dup4\n      dup2\n      dup4\n      and\n      or\n      dup4\n      mstore\n      pop\n      pop\n      pop\n      pop\n        /* \"gist-b9df1f47d280e3707a3b6d35cd582bc9/SafeERC20.sol\":2204:2223  _callOptionalReturn */\n      tag_401\n        /* \"gist-b9df1f47d280e3707a3b6d35cd582bc9/SafeERC20.sol\":2204:2300  _callOptionalReturn(token, abi.encodeWithSelector(token.transferFrom.selector, from, to, value)) */\n      jump\t// in\n    tag_400:\n        /* \"gist-b9df1f47d280e3707a3b6d35cd582bc9/SafeERC20.sol\":2104:2307  function safeTransferFrom(IERC20 token, address from, address to, uint256 value) internal {... */\n      pop\n      pop\n      pop\n      pop\n      jump\t// out\n        /* \"gist-b9df1f47d280e3707a3b6d35cd582bc9/SafeERC20.sol\":4186:4937  function _callOptionalReturn(IERC20 token, bytes memory data) private {... */\n    tag_401:\n        /* \"gist-b9df1f47d280e3707a3b6d35cd582bc9/SafeERC20.sol\":4605:4628  bytes memory returndata */\n      0x60\n        /* \"gist-b9df1f47d280e3707a3b6d35cd582bc9/SafeERC20.sol\":4631:4700  address(token).functionCall(data, \"SafeERC20: low-level call failed\") */\n      tag_403\n        /* \"gist-b9df1f47d280e3707a3b6d35cd582bc9/SafeERC20.sol\":4659:4663  data */\n      dup3\n        /* \"gist-b9df1f47d280e3707a3b6d35cd582bc9/SafeERC20.sol\":4631:4700  address(token).functionCall(data, \"SafeERC20: low-level call failed\") */\n      mload(0x40)\n      dup1\n      0x40\n      add\n      0x40\n      mstore\n      dup1\n      0x20\n      dup2\n      mstore\n      0x20\n      add\n      0x5361666545524332303a206c6f772d6c6576656c2063616c6c206661696c6564\n      dup2\n      mstore\n      pop\n        /* \"gist-b9df1f47d280e3707a3b6d35cd582bc9/SafeERC20.sol\":4639:4644  token */\n      dup6\n        /* \"gist-b9df1f47d280e3707a3b6d35cd582bc9/SafeERC20.sol\":4631:4658  address(token).functionCall */\n      0xffffffffffffffffffffffffffffffffffffffff\n      and\n      tag_404\n      swap1\n        /* \"gist-b9df1f47d280e3707a3b6d35cd582bc9/SafeERC20.sol\":4631:4700  address(token).functionCall(data, \"SafeERC20: low-level call failed\") */\n      swap3\n      swap2\n      swap1\n      0xffffffff\n      and\n      jump\t// in\n    tag_403:\n        /* \"gist-b9df1f47d280e3707a3b6d35cd582bc9/SafeERC20.sol\":4605:4700  bytes memory returndata = address(token).functionCall(data, \"SafeERC20: low-level call failed\") */\n      swap1\n      pop\n        /* \"gist-b9df1f47d280e3707a3b6d35cd582bc9/SafeERC20.sol\":4734:4735  0 */\n      0x00\n        /* \"gist-b9df1f47d280e3707a3b6d35cd582bc9/SafeERC20.sol\":4714:4724  returndata */\n      dup2\n        /* \"gist-b9df1f47d280e3707a3b6d35cd582bc9/SafeERC20.sol\":4714:4731  returndata.length */\n      mload\n        /* \"gist-b9df1f47d280e3707a3b6d35cd582bc9/SafeERC20.sol\":4714:4735  returndata.length > 0 */\n      gt\n        /* \"gist-b9df1f47d280e3707a3b6d35cd582bc9/SafeERC20.sol\":4710:4931  if (returndata.length > 0) { // Return data is optional... */\n      iszero\n      tag_405\n      jumpi\n        /* \"gist-b9df1f47d280e3707a3b6d35cd582bc9/SafeERC20.sol\":4854:4864  returndata */\n      dup1\n        /* \"gist-b9df1f47d280e3707a3b6d35cd582bc9/SafeERC20.sol\":4843:4873  abi.decode(returndata, (bool)) */\n      dup1\n      0x20\n      add\n      swap1\n      mload\n      0x20\n      dup2\n      lt\n      iszero\n      tag_406\n      jumpi\n      0x00\n      dup1\n      revert\n    tag_406:\n      dup2\n      add\n      swap1\n      dup1\n      dup1\n      mload\n      swap1\n      0x20\n      add\n      swap1\n      swap3\n      swap2\n      swap1\n      pop\n      pop\n      pop\n        /* \"gist-b9df1f47d280e3707a3b6d35cd582bc9/SafeERC20.sol\":4835:4920  require(abi.decode(returndata, (bool)), \"SafeERC20: ERC20 operation did not succeed\") */\n      tag_407\n      jumpi\n      mload(0x40)\n      0x08c379a000000000000000000000000000000000000000000000000000000000\n      dup2\n      mstore\n      0x04\n      add\n      dup1\n      dup1\n      0x20\n      add\n      dup3\n      dup2\n      sub\n      dup3\n      mstore\n      0x2a\n      dup2\n      mstore\n      0x20\n      add\n      dup1\n      data_e11ad79d1e4a7f2e5f376964cb99e8e8f7904e3fc16a109f7a7ecb9aa7956dcd\n      0x2a\n      swap2\n      codecopy\n      0x40\n      add\n      swap2\n      pop\n      pop\n      mload(0x40)\n      dup1\n      swap2\n      sub\n      swap1\n      revert\n    tag_407:\n        /* \"gist-b9df1f47d280e3707a3b6d35cd582bc9/SafeERC20.sol\":4710:4931  if (returndata.length > 0) { // Return data is optional... */\n    tag_405:\n        /* \"gist-b9df1f47d280e3707a3b6d35cd582bc9/SafeERC20.sol\":4186:4937  function _callOptionalReturn(IERC20 token, bytes memory data) private {... */\n      pop\n      pop\n      pop\n      jump\t// out\n        /* \"gist-b9df1f47d280e3707a3b6d35cd582bc9/Address.sol\":4819:5012  function functionCall(address target, bytes memory data, string memory errorMessage) internal returns (bytes memory) {... */\n    tag_404:\n        /* \"gist-b9df1f47d280e3707a3b6d35cd582bc9/Address.sol\":4922:4934  bytes memory */\n      0x60\n        /* \"gist-b9df1f47d280e3707a3b6d35cd582bc9/Address.sol\":4953:5005  functionCallWithValue(target, data, 0, errorMessage) */\n      tag_409\n        /* \"gist-b9df1f47d280e3707a3b6d35cd582bc9/Address.sol\":4975:4981  target */\n      dup5\n        /* \"gist-b9df1f47d280e3707a3b6d35cd582bc9/Address.sol\":4983:4987  data */\n      dup5\n        /* \"gist-b9df1f47d280e3707a3b6d35cd582bc9/Address.sol\":4989:4990  0 */\n      0x00\n        /* \"gist-b9df1f47d280e3707a3b6d35cd582bc9/Address.sol\":4992:5004  errorMessage */\n      dup6\n        /* \"gist-b9df1f47d280e3707a3b6d35cd582bc9/Address.sol\":4953:4974  functionCallWithValue */\n      tag_410\n        /* \"gist-b9df1f47d280e3707a3b6d35cd582bc9/Address.sol\":4953:5005  functionCallWithValue(target, data, 0, errorMessage) */\n      jump\t// in\n    tag_409:\n        /* \"gist-b9df1f47d280e3707a3b6d35cd582bc9/Address.sol\":4946:5005  return functionCallWithValue(target, data, 0, errorMessage) */\n      swap1\n      pop\n        /* \"gist-b9df1f47d280e3707a3b6d35cd582bc9/Address.sol\":4819:5012  function functionCall(address target, bytes memory data, string memory errorMessage) internal returns (bytes memory) {... */\n      swap4\n      swap3\n      pop\n      pop\n      pop\n      jump\t// out\n        /* \"gist-b9df1f47d280e3707a3b6d35cd582bc9/Address.sol\":5846:6369  function functionCallWithValue(address target, bytes memory data, uint256 value, string memory errorMessage) internal returns (bytes memory) {... */\n    tag_410:\n        /* \"gist-b9df1f47d280e3707a3b6d35cd582bc9/Address.sol\":5973:5985  bytes memory */\n      0x60\n        /* \"gist-b9df1f47d280e3707a3b6d35cd582bc9/Address.sol\":6030:6035  value */\n      dup3\n        /* \"gist-b9df1f47d280e3707a3b6d35cd582bc9/Address.sol\":6005:6026  address(this).balance */\n      selfbalance\n        /* \"gist-b9df1f47d280e3707a3b6d35cd582bc9/Address.sol\":6005:6035  address(this).balance >= value */\n      lt\n      iszero\n        /* \"gist-b9df1f47d280e3707a3b6d35cd582bc9/Address.sol\":5997:6078  require(address(this).balance >= value, \"Address: insufficient balance for call\") */\n      tag_412\n      jumpi\n      mload(0x40)\n      0x08c379a000000000000000000000000000000000000000000000000000000000\n      dup2\n      mstore\n      0x04\n      add\n      dup1\n      dup1\n      0x20\n      add\n      dup3\n      dup2\n      sub\n      dup3\n      mstore\n      0x26\n      dup2\n      mstore\n      0x20\n      add\n      dup1\n      data_565f1a77334fc4792800921178c71e4521acffab18ff9e7885b49377ee80ab4c\n      0x26\n      swap2\n      codecopy\n      0x40\n      add\n      swap2\n      pop\n      pop\n      mload(0x40)\n      dup1\n      swap2\n      sub\n      swap1\n      revert\n    tag_412:\n        /* \"gist-b9df1f47d280e3707a3b6d35cd582bc9/Address.sol\":6096:6114  isContract(target) */\n      tag_413\n        /* \"gist-b9df1f47d280e3707a3b6d35cd582bc9/Address.sol\":6107:6113  target */\n      dup6\n        /* \"gist-b9df1f47d280e3707a3b6d35cd582bc9/Address.sol\":6096:6106  isContract */\n      tag_414\n        /* \"gist-b9df1f47d280e3707a3b6d35cd582bc9/Address.sol\":6096:6114  isContract(target) */\n      jump\t// in\n    tag_413:\n        /* \"gist-b9df1f47d280e3707a3b6d35cd582bc9/Address.sol\":6088:6148  require(isContract(target), \"Address: call to non-contract\") */\n      tag_415\n      jumpi\n      mload(0x40)\n      0x08c379a000000000000000000000000000000000000000000000000000000000\n      dup2\n      mstore\n      0x04\n      add\n      dup1\n      dup1\n      0x20\n      add\n      dup3\n      dup2\n      sub\n      dup3\n      mstore\n      0x1d\n      dup2\n      mstore\n      0x20\n      add\n      dup1\n      0x416464726573733a2063616c6c20746f206e6f6e2d636f6e7472616374000000\n      dup2\n      mstore\n      pop\n      0x20\n      add\n      swap2\n      pop\n      pop\n      mload(0x40)\n      dup1\n      swap2\n      sub\n      swap1\n      revert\n    tag_415:\n        /* \"gist-b9df1f47d280e3707a3b6d35cd582bc9/Address.sol\":6219:6231  bool success */\n      0x00\n        /* \"gist-b9df1f47d280e3707a3b6d35cd582bc9/Address.sol\":6233:6256  bytes memory returndata */\n      0x60\n        /* \"gist-b9df1f47d280e3707a3b6d35cd582bc9/Address.sol\":6260:6266  target */\n      dup7\n        /* \"gist-b9df1f47d280e3707a3b6d35cd582bc9/Address.sol\":6260:6271  target.call */\n      0xffffffffffffffffffffffffffffffffffffffff\n      and\n        /* \"gist-b9df1f47d280e3707a3b6d35cd582bc9/Address.sol\":6280:6285  value */\n      dup6\n        /* \"gist-b9df1f47d280e3707a3b6d35cd582bc9/Address.sol\":6288:6292  data */\n      dup8\n        /* \"gist-b9df1f47d280e3707a3b6d35cd582bc9/Address.sol\":6260:6293  target.call{ value: value }(data) */\n      mload(0x40)\n      dup1\n      dup3\n      dup1\n      mload\n      swap1\n      0x20\n      add\n      swap1\n      dup1\n      dup4\n      dup4\n    tag_416:\n      0x20\n      dup4\n      lt\n      tag_418\n      jumpi\n      dup1\n      mload\n      dup3\n      mstore\n      0x20\n      dup3\n      add\n      swap2\n      pop\n      0x20\n      dup2\n      add\n      swap1\n      pop\n      0x20\n      dup4\n      sub\n      swap3\n      pop\n      jump(tag_416)\n    tag_418:\n      0x01\n      dup4\n      0x20\n      sub\n      0x0100\n      exp\n      sub\n      dup1\n      not\n      dup3\n      mload\n      and\n      dup2\n      dup5\n      mload\n      and\n      dup1\n      dup3\n      or\n      dup6\n      mstore\n      pop\n      pop\n      pop\n      pop\n      pop\n      pop\n      swap1\n      pop\n      add\n      swap2\n      pop\n      pop\n      0x00\n      mload(0x40)\n      dup1\n      dup4\n      sub\n      dup2\n      dup6\n      dup8\n      gas\n      call\n      swap3\n      pop\n      pop\n      pop\n      returndatasize\n      dup1\n      0x00\n      dup2\n      eq\n      tag_421\n      jumpi\n      mload(0x40)\n      swap2\n      pop\n      and(add(returndatasize, 0x3f), not(0x1f))\n      dup3\n      add\n      0x40\n      mstore\n      returndatasize\n      dup3\n      mstore\n      returndatasize\n      0x00\n      0x20\n      dup5\n      add\n      returndatacopy\n      jump(tag_420)\n    tag_421:\n      0x60\n      swap2\n      pop\n    tag_420:\n      pop\n        /* \"gist-b9df1f47d280e3707a3b6d35cd582bc9/Address.sol\":6218:6293  (bool success, bytes memory returndata) = target.call{ value: value }(data) */\n      swap2\n      pop\n      swap2\n      pop\n        /* \"gist-b9df1f47d280e3707a3b6d35cd582bc9/Address.sol\":6310:6362  _verifyCallResult(success, returndata, errorMessage) */\n      tag_422\n        /* \"gist-b9df1f47d280e3707a3b6d35cd582bc9/Address.sol\":6328:6335  success */\n      dup3\n        /* \"gist-b9df1f47d280e3707a3b6d35cd582bc9/Address.sol\":6337:6347  returndata */\n      dup3\n        /* \"gist-b9df1f47d280e3707a3b6d35cd582bc9/Address.sol\":6349:6361  errorMessage */\n      dup7\n        /* \"gist-b9df1f47d280e3707a3b6d35cd582bc9/Address.sol\":6310:6327  _verifyCallResult */\n      tag_423\n        /* \"gist-b9df1f47d280e3707a3b6d35cd582bc9/Address.sol\":6310:6362  _verifyCallResult(success, returndata, errorMessage) */\n      jump\t// in\n    tag_422:\n        /* \"gist-b9df1f47d280e3707a3b6d35cd582bc9/Address.sol\":6303:6362  return _verifyCallResult(success, returndata, errorMessage) */\n      swap3\n      pop\n      pop\n      pop\n        /* \"gist-b9df1f47d280e3707a3b6d35cd582bc9/Address.sol\":5846:6369  function functionCallWithValue(address target, bytes memory data, uint256 value, string memory errorMessage) internal returns (bytes memory) {... */\n      swap5\n      swap4\n      pop\n      pop\n      pop\n      pop\n      jump\t// out\n        /* \"gist-b9df1f47d280e3707a3b6d35cd582bc9/Address.sol\":1964:2377  function isContract(address account) internal view returns (bool) {... */\n    tag_414:\n        /* \"gist-b9df1f47d280e3707a3b6d35cd582bc9/Address.sol\":2024:2028  bool */\n      0x00\n        /* \"gist-b9df1f47d280e3707a3b6d35cd582bc9/Address.sol\":2227:2239  uint256 size */\n      dup1\n        /* \"gist-b9df1f47d280e3707a3b6d35cd582bc9/Address.sol\":2336:2343  account */\n      dup3\n        /* \"gist-b9df1f47d280e3707a3b6d35cd582bc9/Address.sol\":2324:2344  extcodesize(account) */\n      extcodesize\n        /* \"gist-b9df1f47d280e3707a3b6d35cd582bc9/Address.sol\":2316:2344  size := extcodesize(account) */\n      swap1\n      pop\n        /* \"gist-b9df1f47d280e3707a3b6d35cd582bc9/Address.sol\":2369:2370  0 */\n      0x00\n        /* \"gist-b9df1f47d280e3707a3b6d35cd582bc9/Address.sol\":2362:2366  size */\n      dup2\n        /* \"gist-b9df1f47d280e3707a3b6d35cd582bc9/Address.sol\":2362:2370  size > 0 */\n      gt\n        /* \"gist-b9df1f47d280e3707a3b6d35cd582bc9/Address.sol\":2355:2370  return size > 0 */\n      swap2\n      pop\n      pop\n        /* \"gist-b9df1f47d280e3707a3b6d35cd582bc9/Address.sol\":1964:2377  function isContract(address account) internal view returns (bool) {... */\n      swap2\n      swap1\n      pop\n      jump\t// out\n        /* \"gist-b9df1f47d280e3707a3b6d35cd582bc9/Address.sol\":8329:9054  function _verifyCallResult(bool success, bytes memory returndata, string memory errorMessage) private pure returns(bytes memory) {... */\n    tag_423:\n        /* \"gist-b9df1f47d280e3707a3b6d35cd582bc9/Address.sol\":8444:8456  bytes memory */\n      0x60\n        /* \"gist-b9df1f47d280e3707a3b6d35cd582bc9/Address.sol\":8472:8479  success */\n      dup4\n        /* \"gist-b9df1f47d280e3707a3b6d35cd582bc9/Address.sol\":8468:9048  if (success) {... */\n      iszero\n      tag_426\n      jumpi\n        /* \"gist-b9df1f47d280e3707a3b6d35cd582bc9/Address.sol\":8502:8512  returndata */\n      dup3\n        /* \"gist-b9df1f47d280e3707a3b6d35cd582bc9/Address.sol\":8495:8512  return returndata */\n      swap1\n      pop\n      jump(tag_425)\n        /* \"gist-b9df1f47d280e3707a3b6d35cd582bc9/Address.sol\":8468:9048  if (success) {... */\n    tag_426:\n        /* \"gist-b9df1f47d280e3707a3b6d35cd582bc9/Address.sol\":8633:8634  0 */\n      0x00\n        /* \"gist-b9df1f47d280e3707a3b6d35cd582bc9/Address.sol\":8613:8623  returndata */\n      dup4\n        /* \"gist-b9df1f47d280e3707a3b6d35cd582bc9/Address.sol\":8613:8630  returndata.length */\n      mload\n        /* \"gist-b9df1f47d280e3707a3b6d35cd582bc9/Address.sol\":8613:8634  returndata.length > 0 */\n      gt\n        /* \"gist-b9df1f47d280e3707a3b6d35cd582bc9/Address.sol\":8609:9038  if (returndata.length > 0) {... */\n      iszero\n      tag_428\n      jumpi\n        /* \"gist-b9df1f47d280e3707a3b6d35cd582bc9/Address.sol\":8871:8881  returndata */\n      dup3\n        /* \"gist-b9df1f47d280e3707a3b6d35cd582bc9/Address.sol\":8865:8882  mload(returndata) */\n      mload\n        /* \"gist-b9df1f47d280e3707a3b6d35cd582bc9/Address.sol\":8931:8946  returndata_size */\n      dup1\n        /* \"gist-b9df1f47d280e3707a3b6d35cd582bc9/Address.sol\":8918:8928  returndata */\n      dup5\n        /* \"gist-b9df1f47d280e3707a3b6d35cd582bc9/Address.sol\":8914:8916  32 */\n      0x20\n        /* \"gist-b9df1f47d280e3707a3b6d35cd582bc9/Address.sol\":8910:8929  add(32, returndata) */\n      add\n        /* \"gist-b9df1f47d280e3707a3b6d35cd582bc9/Address.sol\":8903:8947  revert(add(32, returndata), returndata_size) */\n      revert\n        /* \"gist-b9df1f47d280e3707a3b6d35cd582bc9/Address.sol\":8820:8965  {... */\n    tag_428:\n        /* \"gist-b9df1f47d280e3707a3b6d35cd582bc9/Address.sol\":9010:9022  errorMessage */\n      dup2\n        /* \"gist-b9df1f47d280e3707a3b6d35cd582bc9/Address.sol\":9003:9023  revert(errorMessage) */\n      mload(0x40)\n      0x08c379a000000000000000000000000000000000000000000000000000000000\n      dup2\n      mstore\n      0x04\n      add\n      dup1\n      dup1\n      0x20\n      add\n      dup3\n      dup2\n      sub\n      dup3\n      mstore\n      dup4\n      dup2\n      dup2\n      mload\n      dup2\n      mstore\n      0x20\n      add\n      swap2\n      pop\n      dup1\n      mload\n      swap1\n      0x20\n      add\n      swap1\n      dup1\n      dup4\n      dup4\n      0x00\n    tag_430:\n      dup4\n      dup2\n      lt\n      iszero\n      tag_432\n      jumpi\n      dup1\n      dup3\n      add\n      mload\n      dup2\n      dup5\n      add\n      mstore\n      0x20\n      dup2\n      add\n      swap1\n      pop\n      jump(tag_430)\n    tag_432:\n      pop\n      pop\n      pop\n      pop\n      swap1\n      pop\n      swap1\n      dup2\n      add\n      swap1\n      0x1f\n      and\n      dup1\n      iszero\n      tag_433\n      jumpi\n      dup1\n      dup3\n      sub\n      dup1\n      mload\n      0x01\n      dup4\n      0x20\n      sub\n      0x0100\n      exp\n      sub\n      not\n      and\n      dup2\n      mstore\n      0x20\n      add\n      swap2\n      pop\n    tag_433:\n      pop\n      swap3\n      pop\n      pop\n      pop\n      mload(0x40)\n      dup1\n      swap2\n      sub\n      swap1\n      revert\n        /* \"gist-b9df1f47d280e3707a3b6d35cd582bc9/Address.sol\":8329:9054  function _verifyCallResult(bool success, bytes memory returndata, string memory errorMessage) private pure returns(bytes memory) {... */\n    tag_425:\n      swap4\n      swap3\n      pop\n      pop\n      pop\n      jump\t// out\n    stop\n    data_0655b22aecde8e8b23418bf8d8d8c8b64012b4dff81aea97cb47871a78143ba2 476c704d616e616765723a20696e76616c6964205f636f6f6c646f776e4475726174696f6e\n    data_565f1a77334fc4792800921178c71e4521acffab18ff9e7885b49377ee80ab4c 416464726573733a20696e73756666696369656e742062616c616e636520666f722063616c6c\n    data_6162ea1e632bca85d6d061483aa63ec9761376c9b3d491dfacc8cf226ce51f9e 476c704d616e616765723a20636f6f6c646f776e206475726174696f6e206e6f742079657420706173736564\n    data_9113bb53c2876a3805b2c9242029423fc540a728243ce887ab24c82cf119fba3 536166654d6174683a206d756c7469706c69636174696f6e206f766572666c6f77\n    data_a5c742f98fba69dc8d26d45b7bf7e15c89e44ad7e6e786fcce4934f62e227441 476c704d616e616765723a20696e73756666696369656e7420474c50206f7574707574\n    data_db8354f041de2f70bf46d5f915be3be72c84d45eaecb8cdb97bbde2ae0541583 476c704d616e616765723a20696e73756666696369656e742055534447206f7574707574\n    data_e11ad79d1e4a7f2e5f376964cb99e8e8f7904e3fc16a109f7a7ecb9aa7956dcd 5361666545524332303a204552433230206f7065726174696f6e20646964206e6f742073756363656564\n\n    auxdata: 0xa264697066735822122019be56dea32f0cfe63c52d6d61f7ba5c09daa7e8a3a19f5b7ad3627c3621775b64736f6c634300060c0033\n}\n",
				"bytecode": {
					"linkReferences": {},
					"object": "608060405234801561001057600080fd5b50604051613f33380380613f33833981810160405260a081101561003357600080fd5b810190808051906020019092919080519060200190929190805190602001909291908051906020019092919080519060200190929190505050600160008190555033600160006101000a81548173ffffffffffffffffffffffffffffffffffffffff021916908373ffffffffffffffffffffffffffffffffffffffff16021790555033600160006101000a81548173ffffffffffffffffffffffffffffffffffffffff021916908373ffffffffffffffffffffffffffffffffffffffff16021790555084600260006101000a81548173ffffffffffffffffffffffffffffffffffffffff021916908373ffffffffffffffffffffffffffffffffffffffff16021790555083600460006101000a81548173ffffffffffffffffffffffffffffffffffffffff021916908373ffffffffffffffffffffffffffffffffffffffff16021790555082600560006101000a81548173ffffffffffffffffffffffffffffffffffffffff021916908373ffffffffffffffffffffffffffffffffffffffff16021790555081600360006101000a81548173ffffffffffffffffffffffffffffffffffffffff021916908373ffffffffffffffffffffffffffffffffffffffff160217905550806006819055505050505050613d1e806102156000396000f3fe608060405234801561001057600080fd5b50600436106102065760003560e01c806371d597ad1161011a5780639cb7de4b116100ad578063d34ee0931161007c578063d34ee09314610998578063e245b5af146109dc578063ed0d1c0414610a20578063f5b91b7b14610a7f578063fbfa77cf14610ab357610206565b80639cb7de4b14610871578063a1acd3d5146108c1578063b172bb0c14610936578063cfad57a21461095457610206565b80638fed0b2c116100e95780638fed0b2c146107615780639116c4ae146107ed57806395082d2514610825578063966be0751461084357610206565b806371d597ad1461060b57806378a207ee146106b7578063870d917c146106eb5780638b770e111461070957610206565b8063352693151161019d57806364e6617f1161016c57806364e6617f14610527578063657bc5d014610545578063662f1c681461057957806368a0a3e0146105975780636a86da19146105db57610206565b80633526931514610429578063440d828a1461044757806346ea87af1461049f5780634f5f6b5e146104f957610206565b806317eb2a15116101d957806317eb2a15146102c1578063196b68cb146103775780631e9049cf146103955780631ece366a146103b357610206565b8063033914761461020b578063070eacee1461024f578063126082cf1461026f57806312d43a511461028d575b600080fd5b6102396004803603602081101561022157600080fd5b81019080803515159060200190929190505050610ae7565b6040518082815260200191505060405180910390f35b6102576113e5565b60405180821515815260200191505060405180910390f35b6102776113f8565b6040518082815260200191505060405180910390f35b6102956113fe565b604051808273ffffffffffffffffffffffffffffffffffffffff16815260200191505060405180910390f35b610361600480360360c08110156102d757600080fd5b81019080803573ffffffffffffffffffffffffffffffffffffffff169060200190929190803573ffffffffffffffffffffffffffffffffffffffff169060200190929190803573ffffffffffffffffffffffffffffffffffffffff169060200190929190803590602001909291908035906020019092919080359060200190929190505050611424565b6040518082815260200191505060405180910390f35b61037f6114d1565b6040518082815260200191505060405180910390f35b61039d6114d7565b6040518082815260200191505060405180910390f35b610413600480360360808110156103c957600080fd5b81019080803573ffffffffffffffffffffffffffffffffffffffff1690602001909291908035906020019092919080359060200190929190803590602001909291905050506114de565b6040518082815260200191505060405180910390f35b610431611604565b6040518082815260200191505060405180910390f35b6104896004803603602081101561045d57600080fd5b81019080803573ffffffffffffffffffffffffffffffffffffffff16906020019092919050505061160a565b6040518082815260200191505060405180910390f35b6104e1600480360360208110156104b557600080fd5b81019080803573ffffffffffffffffffffffffffffffffffffffff169060200190929190505050611b27565b60405180821515815260200191505060405180910390f35b6105256004803603602081101561050f57600080fd5b8101908080359060200190929190505050611b47565b005b61052f611c8e565b6040518082815260200191505060405180910390f35b61054d611c94565b604051808273ffffffffffffffffffffffffffffffffffffffff16815260200191505060405180910390f35b610581611cba565b6040518082815260200191505060405180910390f35b6105c5600480360360208110156105ad57600080fd5b81019080803515159060200190929190505050611cc6565b6040518082815260200191505060405180910390f35b610609600480360360208110156105f157600080fd5b81019080803515159060200190929190505050611d12565b005b6106a1600480360360a081101561062157600080fd5b81019080803573ffffffffffffffffffffffffffffffffffffffff169060200190929190803573ffffffffffffffffffffffffffffffffffffffff1690602001909291908035906020019092919080359060200190929190803573ffffffffffffffffffffffffffffffffffffffff169060200190929190505050611df2565b6040518082815260200191505060405180910390f35b6106bf611e9d565b604051808273ffffffffffffffffffffffffffffffffffffffff16815260200191505060405180910390f35b6106f3611ec3565b6040518082815260200191505060405180910390f35b61074b6004803603602081101561071f57600080fd5b81019080803573ffffffffffffffffffffffffffffffffffffffff169060200190929190505050611ec8565b6040518082815260200191505060405180910390f35b6107d76004803603608081101561077757600080fd5b81019080803573ffffffffffffffffffffffffffffffffffffffff1690602001909291908035906020019092919080359060200190929190803573ffffffffffffffffffffffffffffffffffffffff169060200190929190505050611ee0565b6040518082815260200191505060405180910390f35b6108236004803603604081101561080357600080fd5b810190808035906020019092919080359060200190929190505050612005565b005b61082d6120da565b6040518082815260200191505060405180910390f35b61086f6004803603602081101561085957600080fd5b81019080803590602001909291905050506120eb565b005b6108bf6004803603604081101561088757600080fd5b81019080803573ffffffffffffffffffffffffffffffffffffffff169060200190929190803515159060200190929190505050612214565b005b610917600480360360608110156108d757600080fd5b81019080803573ffffffffffffffffffffffffffffffffffffffff1690602001909291908035906020019092919080359060200190929190505050612332565b6040518083815260200182151581526020019250505060405180910390f35b61093e6123b5565b6040518082815260200191505060405180910390f35b6109966004803603602081101561096a57600080fd5b81019080803573ffffffffffffffffffffffffffffffffffffffff1690602001909291905050506123bb565b005b6109da600480360360208110156109ae57600080fd5b81019080803573ffffffffffffffffffffffffffffffffffffffff1690602001909291905050506124c2565b005b610a0a600480360360208110156109f257600080fd5b810190808035151590602001909291905050506125c9565b6040518082815260200191505060405180910390f35b610a286126b4565b6040518080602001828103825283818151815260200191508051906020019060200280838360005b83811015610a6b578082015181840152602081019050610a50565b505050509050019250505060405180910390f35b610a8761274e565b604051808273ffffffffffffffffffffffffffffffffffffffff16815260200191505060405180910390f35b610abb612774565b604051808273ffffffffffffffffffffffffffffffffffffffff16815260200191505060405180910390f35b600080600260009054906101000a900473ffffffffffffffffffffffffffffffffffffffff1673ffffffffffffffffffffffffffffffffffffffff16630842b0766040518163ffffffff1660e01b815260040160206040518083038186803b158015610b5257600080fd5b505afa158015610b66573d6000803e3d6000fd5b505050506040513d6020811015610b7c57600080fd5b8101908080519060200190929190505050905060006008549050600080600260009054906101000a900473ffffffffffffffffffffffffffffffffffffffff16905060005b8481101561138f576000600260009054906101000a900473ffffffffffffffffffffffffffffffffffffffff1673ffffffffffffffffffffffffffffffffffffffff1663e468baf0836040518263ffffffff1660e01b81526004018082815260200191505060206040518083038186803b158015610c3e57600080fd5b505afa158015610c52573d6000803e3d6000fd5b505050506040513d6020811015610c6857600080fd5b810190808051906020019092919050505090506000600260009054906101000a900473ffffffffffffffffffffffffffffffffffffffff1673ffffffffffffffffffffffffffffffffffffffff1663daf9c210836040518263ffffffff1660e01b8152600401808273ffffffffffffffffffffffffffffffffffffffff16815260200191505060206040518083038186803b158015610d0657600080fd5b505afa158015610d1a573d6000803e3d6000fd5b505050506040513d6020811015610d3057600080fd5b8101908080519060200190929190505050905080610d4f575050611382565b600089610dfd578473ffffffffffffffffffffffffffffffffffffffff166381a612d6846040518263ffffffff1660e01b8152600401808273ffffffffffffffffffffffffffffffffffffffff16815260200191505060206040518083038186803b158015610dbd57600080fd5b505afa158015610dd1573d6000803e3d6000fd5b505050506040513d6020811015610de757600080fd5b8101908080519060200190929190505050610ea0565b8473ffffffffffffffffffffffffffffffffffffffff1663e124e6d2846040518263ffffffff1660e01b8152600401808273ffffffffffffffffffffffffffffffffffffffff16815260200191505060206040518083038186803b158015610e6457600080fd5b505afa158015610e78573d6000803e3d6000fd5b505050506040513d6020811015610e8e57600080fd5b81019080805190602001909291905050505b905060008573ffffffffffffffffffffffffffffffffffffffff166352f55eed856040518263ffffffff1660e01b8152600401808273ffffffffffffffffffffffffffffffffffffffff16815260200191505060206040518083038186803b158015610f0b57600080fd5b505afa158015610f1f573d6000803e3d6000fd5b505050506040513d6020811015610f3557600080fd5b8101908080519060200190929190505050905060008673ffffffffffffffffffffffffffffffffffffffff16638ee573ac866040518263ffffffff1660e01b8152600401808273ffffffffffffffffffffffffffffffffffffffff16815260200191505060206040518083038186803b158015610fb157600080fd5b505afa158015610fc5573d6000803e3d6000fd5b505050506040513d6020811015610fdb57600080fd5b810190808051906020019092919050505090508673ffffffffffffffffffffffffffffffffffffffff166342b60b03866040518263ffffffff1660e01b8152600401808273ffffffffffffffffffffffffffffffffffffffff16815260200191505060206040518083038186803b15801561105557600080fd5b505afa158015611069573d6000803e3d6000fd5b505050506040513d602081101561107f57600080fd5b8101908080519060200190929190505050156110d6576110cf6110c082600a0a6110b2868661279a90919063ffffffff16565b61282090919063ffffffff16565b8a61286a90919063ffffffff16565b985061137c565b60008773ffffffffffffffffffffffffffffffffffffffff16638a78daa8876040518263ffffffff1660e01b8152600401808273ffffffffffffffffffffffffffffffffffffffff16815260200191505060206040518083038186803b15801561113f57600080fd5b505afa158015611153573d6000803e3d6000fd5b505050506040513d602081101561116957600080fd5b8101908080519060200190929190505050905060008111156111cf57600080611193888785612332565b91509150806111b6576111af828d61286a90919063ffffffff16565b9b506111cc565b6111c9828c61286a90919063ffffffff16565b9a505b50505b6112838873ffffffffffffffffffffffffffffffffffffffff1663f07456ce886040518263ffffffff1660e01b8152600401808273ffffffffffffffffffffffffffffffffffffffff16815260200191505060206040518083038186803b15801561123957600080fd5b505afa15801561124d573d6000803e3d6000fd5b505050506040513d602081101561126357600080fd5b81019080805190602001909291905050508b61286a90919063ffffffff16565b995060008873ffffffffffffffffffffffffffffffffffffffff1663c3c7b9e9886040518263ffffffff1660e01b8152600401808273ffffffffffffffffffffffffffffffffffffffff16815260200191505060206040518083038186803b1580156112ee57600080fd5b505afa158015611302573d6000803e3d6000fd5b505050506040513d602081101561131857600080fd5b8101908080519060200190929190505050905061137761136884600a0a61135a8861134c868a6128f290919063ffffffff16565b61279a90919063ffffffff16565b61282090919063ffffffff16565b8c61286a90919063ffffffff16565b9a5050505b50505050505b8080600101915050610bc1565b508282116113af576113aa82846128f290919063ffffffff16565b6113b2565b60005b925082600954116113d7576113d2600954846128f290919063ffffffff16565b6113da565b60005b945050505050919050565b600a60009054906101000a900460ff1681565b61271081565b600160009054906101000a900473ffffffffffffffffffffffffffffffffffffffff1681565b60006002600054141561149f576040517f08c379a000000000000000000000000000000000000000000000000000000000815260040180806020018281038252601f8152602001807f5265656e7472616e637947756172643a207265656e7472616e742063616c6c0081525060200191505060405180910390fd5b60026000819055506114af61293c565b6114bd8787878787876129fd565b905060016000819055509695505050505050565b60085481565b6202a30081565b600060026000541415611559576040517f08c379a000000000000000000000000000000000000000000000000000000000815260040180806020018281038252601f8152602001807f5265656e7472616e637947756172643a207265656e7472616e742063616c6c0081525060200191505060405180910390fd5b6002600081905550600a60009054906101000a900460ff16156115e4576040517f08c379a000000000000000000000000000000000000000000000000000000000815260040180806020018281038252601e8152602001807f476c704d616e616765723a20616374696f6e206e6f7420656e61626c6564000081525060200191505060405180910390fd5b6115f23333878787876129fd565b90506001600081905550949350505050565b60065481565b600080600360009054906101000a900473ffffffffffffffffffffffffffffffffffffffff169050600073ffffffffffffffffffffffffffffffffffffffff168173ffffffffffffffffffffffffffffffffffffffff1614806116eb57508073ffffffffffffffffffffffffffffffffffffffff16639a11178f6040518163ffffffff1660e01b815260040160206040518083038186803b1580156116ae57600080fd5b505afa1580156116c2573d6000803e3d6000fd5b505050506040513d60208110156116d857600080fd5b8101908080519060200190929190505050155b156117bc57600260009054906101000a900473ffffffffffffffffffffffffffffffffffffffff1673ffffffffffffffffffffffffffffffffffffffff166362749803846040518263ffffffff1660e01b8152600401808273ffffffffffffffffffffffffffffffffffffffff16815260200191505060206040518083038186803b15801561177957600080fd5b505afa15801561178d573d6000803e3d6000fd5b505050506040513d60208110156117a357600080fd5b8101908080519060200190929190505050915050611b22565b6000600b549050600081141561189957600260009054906101000a900473ffffffffffffffffffffffffffffffffffffffff1673ffffffffffffffffffffffffffffffffffffffff166362749803856040518263ffffffff1660e01b8152600401808273ffffffffffffffffffffffffffffffffffffffff16815260200191505060206040518083038186803b15801561185557600080fd5b505afa158015611869573d6000803e3d6000fd5b505050506040513d602081101561187f57600080fd5b810190808051906020019092919050505092505050611b22565b61271081141561194e578173ffffffffffffffffffffffffffffffffffffffff166362749803856040518263ffffffff1660e01b8152600401808273ffffffffffffffffffffffffffffffffffffffff16815260200191505060206040518083038186803b15801561190a57600080fd5b505afa15801561191e573d6000803e3d6000fd5b505050506040513d602081101561193457600080fd5b810190808051906020019092919050505092505050611b22565b6000600260009054906101000a900473ffffffffffffffffffffffffffffffffffffffff1673ffffffffffffffffffffffffffffffffffffffff166362749803866040518263ffffffff1660e01b8152600401808273ffffffffffffffffffffffffffffffffffffffff16815260200191505060206040518083038186803b1580156119d957600080fd5b505afa1580156119ed573d6000803e3d6000fd5b505050506040513d6020811015611a0357600080fd5b8101908080519060200190929190505050905060008373ffffffffffffffffffffffffffffffffffffffff166362749803876040518263ffffffff1660e01b8152600401808273ffffffffffffffffffffffffffffffffffffffff16815260200191505060206040518083038186803b158015611a7f57600080fd5b505afa158015611a93573d6000803e3d6000fd5b505050506040513d6020811015611aa957600080fd5b81019080805190602001909291905050509050611b1b612710611b0d611ad8868561279a90919063ffffffff16565b611aff611af0886127106128f290919063ffffffff16565b8761279a90919063ffffffff16565b61286a90919063ffffffff16565b61282090919063ffffffff16565b9450505050505b919050565b600c6020528060005260406000206000915054906101000a900460ff1681565b600160009054906101000a900473ffffffffffffffffffffffffffffffffffffffff1673ffffffffffffffffffffffffffffffffffffffff163373ffffffffffffffffffffffffffffffffffffffff1614611c0a576040517f08c379a00000000000000000000000000000000000000000000000000000000081526004018080602001828103825260158152602001807f476f7665726e61626c653a20666f7262696464656e000000000000000000000081525060200191505060405180910390fd5b612710600b541115611c84576040517f08c379a000000000000000000000000000000000000000000000000000000000815260040180806020018281038252601a8152602001807f476c704d616e616765723a20696e76616c69642077656967687400000000000081525060200191505060405180910390fd5b80600b8190555050565b600b5481565b600360009054906101000a900473ffffffffffffffffffffffffffffffffffffffff1681565b670de0b6b3a764000081565b600080611cd283610ae7565b9050611d0a6c0c9f2c9cd04674edea40000000611cfc6012600a0a8461279a90919063ffffffff16565b61282090919063ffffffff16565b915050919050565b600160009054906101000a900473ffffffffffffffffffffffffffffffffffffffff1673ffffffffffffffffffffffffffffffffffffffff163373ffffffffffffffffffffffffffffffffffffffff1614611dd5576040517f08c379a00000000000000000000000000000000000000000000000000000000081526004018080602001828103825260158152602001807f476f7665726e61626c653a20666f7262696464656e000000000000000000000081525060200191505060405180910390fd5b80600a60006101000a81548160ff02191690831515021790555050565b600060026000541415611e6d576040517f08c379a000000000000000000000000000000000000000000000000000000000815260040180806020018281038252601f8152602001807f5265656e7472616e637947756172643a207265656e7472616e742063616c6c0081525060200191505060405180910390fd5b6002600081905550611e7d61293c565b611e8a8686868686612edc565b9050600160008190555095945050505050565b600560009054906101000a900473ffffffffffffffffffffffffffffffffffffffff1681565b601281565b60076020528060005260406000206000915090505481565b600060026000541415611f5b576040517f08c379a000000000000000000000000000000000000000000000000000000000815260040180806020018281038252601f8152602001807f5265656e7472616e637947756172643a207265656e7472616e742063616c6c0081525060200191505060405180910390fd5b6002600081905550600a60009054906101000a900460ff1615611fe6576040517f08c379a000000000000000000000000000000000000000000000000000000000815260040180806020018281038252601e8152602001807f476c704d616e616765723a20616374696f6e206e6f7420656e61626c6564000081525060200191505060405180910390fd5b611ff33386868686612edc565b90506001600081905550949350505050565b600160009054906101000a900473ffffffffffffffffffffffffffffffffffffffff1673ffffffffffffffffffffffffffffffffffffffff163373ffffffffffffffffffffffffffffffffffffffff16146120c8576040517f08c379a00000000000000000000000000000000000000000000000000000000081526004018080602001828103825260158152602001807f476f7665726e61626c653a20666f7262696464656e000000000000000000000081525060200191505060405180910390fd5b81600881905550806009819055505050565b6c0c9f2c9cd04674edea4000000081565b600160009054906101000a900473ffffffffffffffffffffffffffffffffffffffff1673ffffffffffffffffffffffffffffffffffffffff163373ffffffffffffffffffffffffffffffffffffffff16146121ae576040517f08c379a00000000000000000000000000000000000000000000000000000000081526004018080602001828103825260158152602001807f476f7665726e61626c653a20666f7262696464656e000000000000000000000081525060200191505060405180910390fd5b6202a30081111561220a576040517f08c379a0000000000000000000000000000000000000000000000000000000008152600401808060200182810382526025815260200180613be06025913960400191505060405180910390fd5b8060068190555050565b600160009054906101000a900473ffffffffffffffffffffffffffffffffffffffff1673ffffffffffffffffffffffffffffffffffffffff163373ffffffffffffffffffffffffffffffffffffffff16146122d7576040517f08c379a00000000000000000000000000000000000000000000000000000000081526004018080602001828103825260158152602001807f476f7665726e61626c653a20666f7262696464656e000000000000000000000081525060200191505060405180910390fd5b80600c60008473ffffffffffffffffffffffffffffffffffffffff1673ffffffffffffffffffffffffffffffffffffffff16815260200190815260200160002060006101000a81548160ff0219169083151502179055505050565b60008060006123408661160a565b905060008582116123635761235e82876128f290919063ffffffff16565b612377565b61237686836128f290919063ffffffff16565b5b905060006123a083612392848961279a90919063ffffffff16565b61282090919063ffffffff16565b90508087841194509450505050935093915050565b60095481565b600160009054906101000a900473ffffffffffffffffffffffffffffffffffffffff1673ffffffffffffffffffffffffffffffffffffffff163373ffffffffffffffffffffffffffffffffffffffff161461247e576040517f08c379a00000000000000000000000000000000000000000000000000000000081526004018080602001828103825260158152602001807f476f7665726e61626c653a20666f7262696464656e000000000000000000000081525060200191505060405180910390fd5b80600160006101000a81548173ffffffffffffffffffffffffffffffffffffffff021916908373ffffffffffffffffffffffffffffffffffffffff16021790555050565b600160009054906101000a900473ffffffffffffffffffffffffffffffffffffffff1673ffffffffffffffffffffffffffffffffffffffff163373ffffffffffffffffffffffffffffffffffffffff1614612585576040517f08c379a00000000000000000000000000000000000000000000000000000000081526004018080602001828103825260158152602001807f476f7665726e61626c653a20666f7262696464656e000000000000000000000081525060200191505060405180910390fd5b80600360006101000a81548173ffffffffffffffffffffffffffffffffffffffff021916908373ffffffffffffffffffffffffffffffffffffffff16021790555050565b6000806125d583610ae7565b90506000600560009054906101000a900473ffffffffffffffffffffffffffffffffffffffff1673ffffffffffffffffffffffffffffffffffffffff166318160ddd6040518163ffffffff1660e01b815260040160206040518083038186803b15801561264157600080fd5b505afa158015612655573d6000803e3d6000fd5b505050506040513d602081101561266b57600080fd5b810190808051906020019092919050505090506126ab8161269d670de0b6b3a76400008561279a90919063ffffffff16565b61282090919063ffffffff16565b92505050919050565b606080600267ffffffffffffffff811180156126cf57600080fd5b506040519080825280602002602001820160405280156126fe5781602001602082028036833780820191505090505b50905061270b6001610ae7565b8160008151811061271857fe5b60200260200101818152505061272e6000610ae7565b8160018151811061273b57fe5b6020026020010181815250508091505090565b600460009054906101000a900473ffffffffffffffffffffffffffffffffffffffff1681565b600260009054906101000a900473ffffffffffffffffffffffffffffffffffffffff1681565b6000808314156127ad576000905061281a565b60008284029050828482816127be57fe5b0414612815576040517f08c379a0000000000000000000000000000000000000000000000000000000008152600401808060200182810382526021815260200180613c576021913960400191505060405180910390fd5b809150505b92915050565b600061286283836040518060400160405280601a81526020017f536166654d6174683a206469766973696f6e206279207a65726f000000000000815250613609565b905092915050565b6000808284019050838110156128e8576040517f08c379a000000000000000000000000000000000000000000000000000000000815260040180806020018281038252601b8152602001807f536166654d6174683a206164646974696f6e206f766572666c6f77000000000081525060200191505060405180910390fd5b8091505092915050565b600061293483836040518060400160405280601e81526020017f536166654d6174683a207375627472616374696f6e206f766572666c6f7700008152506136cf565b905092915050565b600c60003373ffffffffffffffffffffffffffffffffffffffff1673ffffffffffffffffffffffffffffffffffffffff16815260200190815260200160002060009054906101000a900460ff166129fb576040517f08c379a00000000000000000000000000000000000000000000000000000000081526004018080602001828103825260158152602001807f476c704d616e616765723a20666f7262696464656e000000000000000000000081525060200191505060405180910390fd5b565b6000808411612a74576040517f08c379a000000000000000000000000000000000000000000000000000000000815260040180806020018281038252601b8152602001807f476c704d616e616765723a20696e76616c6964205f616d6f756e74000000000081525060200191505060405180910390fd5b6000612a806001611cc6565b90506000600560009054906101000a900473ffffffffffffffffffffffffffffffffffffffff1673ffffffffffffffffffffffffffffffffffffffff166318160ddd6040518163ffffffff1660e01b815260040160206040518083038186803b158015612aec57600080fd5b505afa158015612b00573d6000803e3d6000fd5b505050506040513d6020811015612b1657600080fd5b81019080805190602001909291905050509050612b7889600260009054906101000a900473ffffffffffffffffffffffffffffffffffffffff16888a73ffffffffffffffffffffffffffffffffffffffff1661378f909392919063ffffffff16565b6000600260009054906101000a900473ffffffffffffffffffffffffffffffffffffffff1673ffffffffffffffffffffffffffffffffffffffff1663817bb85789306040518363ffffffff1660e01b8152600401808373ffffffffffffffffffffffffffffffffffffffff1681526020018273ffffffffffffffffffffffffffffffffffffffff16815260200192505050602060405180830381600087803b158015612c2357600080fd5b505af1158015612c37573d6000803e3d6000fd5b505050506040513d6020811015612c4d57600080fd5b8101908080519060200190929190505050905085811015612cb9576040517f08c379a0000000000000000000000000000000000000000000000000000000008152600401808060200182810382526024815260200180613c9b6024913960400191505060405180910390fd5b6000808414612cec57612ce784612cd9858561279a90919063ffffffff16565b61282090919063ffffffff16565b612cee565b815b905085811015612d49576040517f08c379a0000000000000000000000000000000000000000000000000000000008152600401808060200182810382526023815260200180613c786023913960400191505060405180910390fd5b600560009054906101000a900473ffffffffffffffffffffffffffffffffffffffff1673ffffffffffffffffffffffffffffffffffffffff166340c10f198b836040518363ffffffff1660e01b8152600401808373ffffffffffffffffffffffffffffffffffffffff16815260200182815260200192505050600060405180830381600087803b158015612ddc57600080fd5b505af1158015612df0573d6000803e3d6000fd5b5050505042600760008c73ffffffffffffffffffffffffffffffffffffffff1673ffffffffffffffffffffffffffffffffffffffff168152602001908152602001600020819055507f38dc38b96482be64113daffd8d464ebda93e856b70ccfc605e69ccf892ab981e8a8a8a87878787604051808873ffffffffffffffffffffffffffffffffffffffff1681526020018773ffffffffffffffffffffffffffffffffffffffff16815260200186815260200185815260200184815260200183815260200182815260200197505050505050505060405180910390a1809450505050509695505050505050565b6000808411612f53576040517f08c379a000000000000000000000000000000000000000000000000000000000815260040180806020018281038252601e8152602001807f476c704d616e616765723a20696e76616c6964205f676c70416d6f756e74000081525060200191505060405180910390fd5b42612fa8600654600760008a73ffffffffffffffffffffffffffffffffffffffff1673ffffffffffffffffffffffffffffffffffffffff1681526020019081526020016000205461286a90919063ffffffff16565b1115612fff576040517f08c379a000000000000000000000000000000000000000000000000000000000815260040180806020018281038252602c815260200180613c2b602c913960400191505060405180910390fd5b600061300b6000611cc6565b90506000600560009054906101000a900473ffffffffffffffffffffffffffffffffffffffff1673ffffffffffffffffffffffffffffffffffffffff166318160ddd6040518163ffffffff1660e01b815260040160206040518083038186803b15801561307757600080fd5b505afa15801561308b573d6000803e3d6000fd5b505050506040513d60208110156130a157600080fd5b8101908080519060200190929190505050905060006130db826130cd858a61279a90919063ffffffff16565b61282090919063ffffffff16565b90506000600460009054906101000a900473ffffffffffffffffffffffffffffffffffffffff1673ffffffffffffffffffffffffffffffffffffffff166370a08231306040518263ffffffff1660e01b8152600401808273ffffffffffffffffffffffffffffffffffffffff16815260200191505060206040518083038186803b15801561316857600080fd5b505afa15801561317c573d6000803e3d6000fd5b505050506040513d602081101561319257600080fd5b810190808051906020019092919050505090508082111561326b57600460009054906101000a900473ffffffffffffffffffffffffffffffffffffffff1673ffffffffffffffffffffffffffffffffffffffff166340c10f19306131ff84866128f290919063ffffffff16565b6040518363ffffffff1660e01b8152600401808373ffffffffffffffffffffffffffffffffffffffff16815260200182815260200192505050600060405180830381600087803b15801561325257600080fd5b505af1158015613266573d6000803e3d6000fd5b505050505b600560009054906101000a900473ffffffffffffffffffffffffffffffffffffffff1673ffffffffffffffffffffffffffffffffffffffff16639dc29fac8b8a6040518363ffffffff1660e01b8152600401808373ffffffffffffffffffffffffffffffffffffffff16815260200182815260200192505050600060405180830381600087803b1580156132fe57600080fd5b505af1158015613312573d6000803e3d6000fd5b50505050600460009054906101000a900473ffffffffffffffffffffffffffffffffffffffff1673ffffffffffffffffffffffffffffffffffffffff1663a9059cbb600260009054906101000a900473ffffffffffffffffffffffffffffffffffffffff16846040518363ffffffff1660e01b8152600401808373ffffffffffffffffffffffffffffffffffffffff16815260200182815260200192505050602060405180830381600087803b1580156133cb57600080fd5b505af11580156133df573d6000803e3d6000fd5b505050506040513d60208110156133f557600080fd5b8101908080519060200190929190505050506000600260009054906101000a900473ffffffffffffffffffffffffffffffffffffffff1673ffffffffffffffffffffffffffffffffffffffff1663711e61908b896040518363ffffffff1660e01b8152600401808373ffffffffffffffffffffffffffffffffffffffff1681526020018273ffffffffffffffffffffffffffffffffffffffff16815260200192505050602060405180830381600087803b1580156134b257600080fd5b505af11580156134c6573d6000803e3d6000fd5b505050506040513d60208110156134dc57600080fd5b8101908080519060200190929190505050905087811015613565576040517f08c379a000000000000000000000000000000000000000000000000000000000815260040180806020018281038252601f8152602001807f476c704d616e616765723a20696e73756666696369656e74206f75747075740081525060200191505060405180910390fd5b7f87b9679bb9a4944bafa98c267e7cd4a00ab29fed48afdefae25f0fca5da279408b8b8b88888887604051808873ffffffffffffffffffffffffffffffffffffffff1681526020018773ffffffffffffffffffffffffffffffffffffffff16815260200186815260200185815260200184815260200183815260200182815260200197505050505050505060405180910390a1809550505050505095945050505050565b600080831182906136b5576040517f08c379a00000000000000000000000000000000000000000000000000000000081526004018080602001828103825283818151815260200191508051906020019080838360005b8381101561367a57808201518184015260208101905061365f565b50505050905090810190601f1680156136a75780820380516001836020036101000a031916815260200191505b509250505060405180910390fd5b5060008385816136c157fe5b049050809150509392505050565b600083831115829061377c576040517f08c379a00000000000000000000000000000000000000000000000000000000081526004018080602001828103825283818151815260200191508051906020019080838360005b83811015613741578082015181840152602081019050613726565b50505050905090810190601f16801561376e5780820380516001836020036101000a031916815260200191505b509250505060405180910390fd5b5060008385039050809150509392505050565b61384a846323b872dd60e01b858585604051602401808473ffffffffffffffffffffffffffffffffffffffff1681526020018373ffffffffffffffffffffffffffffffffffffffff1681526020018281526020019350505050604051602081830303815290604052907bffffffffffffffffffffffffffffffffffffffffffffffffffffffff19166020820180517bffffffffffffffffffffffffffffffffffffffffffffffffffffffff8381831617835250505050613850565b50505050565b60606138b2826040518060400160405280602081526020017f5361666545524332303a206c6f772d6c6576656c2063616c6c206661696c65648152508573ffffffffffffffffffffffffffffffffffffffff1661393f9092919063ffffffff16565b905060008151111561393a578080602001905160208110156138d357600080fd5b8101908080519060200190929190505050613939576040517f08c379a000000000000000000000000000000000000000000000000000000000815260040180806020018281038252602a815260200180613cbf602a913960400191505060405180910390fd5b5b505050565b606061394e8484600085613957565b90509392505050565b6060824710156139b2576040517f08c379a0000000000000000000000000000000000000000000000000000000008152600401808060200182810382526026815260200180613c056026913960400191505060405180910390fd5b6139bb85613b00565b613a2d576040517f08c379a000000000000000000000000000000000000000000000000000000000815260040180806020018281038252601d8152602001807f416464726573733a2063616c6c20746f206e6f6e2d636f6e747261637400000081525060200191505060405180910390fd5b600060608673ffffffffffffffffffffffffffffffffffffffff1685876040518082805190602001908083835b60208310613a7d5780518252602082019150602081019050602083039250613a5a565b6001836020036101000a03801982511681845116808217855250505050505090500191505060006040518083038185875af1925050503d8060008114613adf576040519150601f19603f3d011682016040523d82523d6000602084013e613ae4565b606091505b5091509150613af4828286613b13565b92505050949350505050565b600080823b905060008111915050919050565b60608315613b2357829050613bd8565b600083511115613b365782518084602001fd5b816040517f08c379a00000000000000000000000000000000000000000000000000000000081526004018080602001828103825283818151815260200191508051906020019080838360005b83811015613b9d578082015181840152602081019050613b82565b50505050905090810190601f168015613bca5780820380516001836020036101000a031916815260200191505b509250505060405180910390fd5b939250505056fe476c704d616e616765723a20696e76616c6964205f636f6f6c646f776e4475726174696f6e416464726573733a20696e73756666696369656e742062616c616e636520666f722063616c6c476c704d616e616765723a20636f6f6c646f776e206475726174696f6e206e6f742079657420706173736564536166654d6174683a206d756c7469706c69636174696f6e206f766572666c6f77476c704d616e616765723a20696e73756666696369656e7420474c50206f7574707574476c704d616e616765723a20696e73756666696369656e742055534447206f75747075745361666545524332303a204552433230206f7065726174696f6e20646964206e6f742073756363656564a264697066735822122019be56dea32f0cfe63c52d6d61f7ba5c09daa7e8a3a19f5b7ad3627c3621775b64736f6c634300060c0033",
					"opcodes": "PUSH1 0x80 PUSH1 0x40 MSTORE CALLVALUE DUP1 ISZERO PUSH2 0x10 JUMPI PUSH1 0x0 DUP1 REVERT JUMPDEST POP PUSH1 0x40 MLOAD PUSH2 0x3F33 CODESIZE SUB DUP1 PUSH2 0x3F33 DUP4 CODECOPY DUP2 DUP2 ADD PUSH1 0x40 MSTORE PUSH1 0xA0 DUP2 LT ISZERO PUSH2 0x33 JUMPI PUSH1 0x0 DUP1 REVERT JUMPDEST DUP2 ADD SWAP1 DUP1 DUP1 MLOAD SWAP1 PUSH1 0x20 ADD SWAP1 SWAP3 SWAP2 SWAP1 DUP1 MLOAD SWAP1 PUSH1 0x20 ADD SWAP1 SWAP3 SWAP2 SWAP1 DUP1 MLOAD SWAP1 PUSH1 0x20 ADD SWAP1 SWAP3 SWAP2 SWAP1 DUP1 MLOAD SWAP1 PUSH1 0x20 ADD SWAP1 SWAP3 SWAP2 SWAP1 DUP1 MLOAD SWAP1 PUSH1 0x20 ADD SWAP1 SWAP3 SWAP2 SWAP1 POP POP POP PUSH1 0x1 PUSH1 0x0 DUP2 SWAP1 SSTORE POP CALLER PUSH1 0x1 PUSH1 0x0 PUSH2 0x100 EXP DUP2 SLOAD DUP2 PUSH20 0xFFFFFFFFFFFFFFFFFFFFFFFFFFFFFFFFFFFFFFFF MUL NOT AND SWAP1 DUP4 PUSH20 0xFFFFFFFFFFFFFFFFFFFFFFFFFFFFFFFFFFFFFFFF AND MUL OR SWAP1 SSTORE POP CALLER PUSH1 0x1 PUSH1 0x0 PUSH2 0x100 EXP DUP2 SLOAD DUP2 PUSH20 0xFFFFFFFFFFFFFFFFFFFFFFFFFFFFFFFFFFFFFFFF MUL NOT AND SWAP1 DUP4 PUSH20 0xFFFFFFFFFFFFFFFFFFFFFFFFFFFFFFFFFFFFFFFF AND MUL OR SWAP1 SSTORE POP DUP5 PUSH1 0x2 PUSH1 0x0 PUSH2 0x100 EXP DUP2 SLOAD DUP2 PUSH20 0xFFFFFFFFFFFFFFFFFFFFFFFFFFFFFFFFFFFFFFFF MUL NOT AND SWAP1 DUP4 PUSH20 0xFFFFFFFFFFFFFFFFFFFFFFFFFFFFFFFFFFFFFFFF AND MUL OR SWAP1 SSTORE POP DUP4 PUSH1 0x4 PUSH1 0x0 PUSH2 0x100 EXP DUP2 SLOAD DUP2 PUSH20 0xFFFFFFFFFFFFFFFFFFFFFFFFFFFFFFFFFFFFFFFF MUL NOT AND SWAP1 DUP4 PUSH20 0xFFFFFFFFFFFFFFFFFFFFFFFFFFFFFFFFFFFFFFFF AND MUL OR SWAP1 SSTORE POP DUP3 PUSH1 0x5 PUSH1 0x0 PUSH2 0x100 EXP DUP2 SLOAD DUP2 PUSH20 0xFFFFFFFFFFFFFFFFFFFFFFFFFFFFFFFFFFFFFFFF MUL NOT AND SWAP1 DUP4 PUSH20 0xFFFFFFFFFFFFFFFFFFFFFFFFFFFFFFFFFFFFFFFF AND MUL OR SWAP1 SSTORE POP DUP2 PUSH1 0x3 PUSH1 0x0 PUSH2 0x100 EXP DUP2 SLOAD DUP2 PUSH20 0xFFFFFFFFFFFFFFFFFFFFFFFFFFFFFFFFFFFFFFFF MUL NOT AND SWAP1 DUP4 PUSH20 0xFFFFFFFFFFFFFFFFFFFFFFFFFFFFFFFFFFFFFFFF AND MUL OR SWAP1 SSTORE POP DUP1 PUSH1 0x6 DUP2 SWAP1 SSTORE POP POP POP POP POP POP PUSH2 0x3D1E DUP1 PUSH2 0x215 PUSH1 0x0 CODECOPY PUSH1 0x0 RETURN INVALID PUSH1 0x80 PUSH1 0x40 MSTORE CALLVALUE DUP1 ISZERO PUSH2 0x10 JUMPI PUSH1 0x0 DUP1 REVERT JUMPDEST POP PUSH1 0x4 CALLDATASIZE LT PUSH2 0x206 JUMPI PUSH1 0x0 CALLDATALOAD PUSH1 0xE0 SHR DUP1 PUSH4 0x71D597AD GT PUSH2 0x11A JUMPI DUP1 PUSH4 0x9CB7DE4B GT PUSH2 0xAD JUMPI DUP1 PUSH4 0xD34EE093 GT PUSH2 0x7C JUMPI DUP1 PUSH4 0xD34EE093 EQ PUSH2 0x998 JUMPI DUP1 PUSH4 0xE245B5AF EQ PUSH2 0x9DC JUMPI DUP1 PUSH4 0xED0D1C04 EQ PUSH2 0xA20 JUMPI DUP1 PUSH4 0xF5B91B7B EQ PUSH2 0xA7F JUMPI DUP1 PUSH4 0xFBFA77CF EQ PUSH2 0xAB3 JUMPI PUSH2 0x206 JUMP JUMPDEST DUP1 PUSH4 0x9CB7DE4B EQ PUSH2 0x871 JUMPI DUP1 PUSH4 0xA1ACD3D5 EQ PUSH2 0x8C1 JUMPI DUP1 PUSH4 0xB172BB0C EQ PUSH2 0x936 JUMPI DUP1 PUSH4 0xCFAD57A2 EQ PUSH2 0x954 JUMPI PUSH2 0x206 JUMP JUMPDEST DUP1 PUSH4 0x8FED0B2C GT PUSH2 0xE9 JUMPI DUP1 PUSH4 0x8FED0B2C EQ PUSH2 0x761 JUMPI DUP1 PUSH4 0x9116C4AE EQ PUSH2 0x7ED JUMPI DUP1 PUSH4 0x95082D25 EQ PUSH2 0x825 JUMPI DUP1 PUSH4 0x966BE075 EQ PUSH2 0x843 JUMPI PUSH2 0x206 JUMP JUMPDEST DUP1 PUSH4 0x71D597AD EQ PUSH2 0x60B JUMPI DUP1 PUSH4 0x78A207EE EQ PUSH2 0x6B7 JUMPI DUP1 PUSH4 0x870D917C EQ PUSH2 0x6EB JUMPI DUP1 PUSH4 0x8B770E11 EQ PUSH2 0x709 JUMPI PUSH2 0x206 JUMP JUMPDEST DUP1 PUSH4 0x35269315 GT PUSH2 0x19D JUMPI DUP1 PUSH4 0x64E6617F GT PUSH2 0x16C JUMPI DUP1 PUSH4 0x64E6617F EQ PUSH2 0x527 JUMPI DUP1 PUSH4 0x657BC5D0 EQ PUSH2 0x545 JUMPI DUP1 PUSH4 0x662F1C68 EQ PUSH2 0x579 JUMPI DUP1 PUSH4 0x68A0A3E0 EQ PUSH2 0x597 JUMPI DUP1 PUSH4 0x6A86DA19 EQ PUSH2 0x5DB JUMPI PUSH2 0x206 JUMP JUMPDEST DUP1 PUSH4 0x35269315 EQ PUSH2 0x429 JUMPI DUP1 PUSH4 0x440D828A EQ PUSH2 0x447 JUMPI DUP1 PUSH4 0x46EA87AF EQ PUSH2 0x49F JUMPI DUP1 PUSH4 0x4F5F6B5E EQ PUSH2 0x4F9 JUMPI PUSH2 0x206 JUMP JUMPDEST DUP1 PUSH4 0x17EB2A15 GT PUSH2 0x1D9 JUMPI DUP1 PUSH4 0x17EB2A15 EQ PUSH2 0x2C1 JUMPI DUP1 PUSH4 0x196B68CB EQ PUSH2 0x377 JUMPI DUP1 PUSH4 0x1E9049CF EQ PUSH2 0x395 JUMPI DUP1 PUSH4 0x1ECE366A EQ PUSH2 0x3B3 JUMPI PUSH2 0x206 JUMP JUMPDEST DUP1 PUSH4 0x3391476 EQ PUSH2 0x20B JUMPI DUP1 PUSH4 0x70EACEE EQ PUSH2 0x24F JUMPI DUP1 PUSH4 0x126082CF EQ PUSH2 0x26F JUMPI DUP1 PUSH4 0x12D43A51 EQ PUSH2 0x28D JUMPI JUMPDEST PUSH1 0x0 DUP1 REVERT JUMPDEST PUSH2 0x239 PUSH1 0x4 DUP1 CALLDATASIZE SUB PUSH1 0x20 DUP2 LT ISZERO PUSH2 0x221 JUMPI PUSH1 0x0 DUP1 REVERT JUMPDEST DUP2 ADD SWAP1 DUP1 DUP1 CALLDATALOAD ISZERO ISZERO SWAP1 PUSH1 0x20 ADD SWAP1 SWAP3 SWAP2 SWAP1 POP POP POP PUSH2 0xAE7 JUMP JUMPDEST PUSH1 0x40 MLOAD DUP1 DUP3 DUP2 MSTORE PUSH1 0x20 ADD SWAP2 POP POP PUSH1 0x40 MLOAD DUP1 SWAP2 SUB SWAP1 RETURN JUMPDEST PUSH2 0x257 PUSH2 0x13E5 JUMP JUMPDEST PUSH1 0x40 MLOAD DUP1 DUP3 ISZERO ISZERO DUP2 MSTORE PUSH1 0x20 ADD SWAP2 POP POP PUSH1 0x40 MLOAD DUP1 SWAP2 SUB SWAP1 RETURN JUMPDEST PUSH2 0x277 PUSH2 0x13F8 JUMP JUMPDEST PUSH1 0x40 MLOAD DUP1 DUP3 DUP2 MSTORE PUSH1 0x20 ADD SWAP2 POP POP PUSH1 0x40 MLOAD DUP1 SWAP2 SUB SWAP1 RETURN JUMPDEST PUSH2 0x295 PUSH2 0x13FE JUMP JUMPDEST PUSH1 0x40 MLOAD DUP1 DUP3 PUSH20 0xFFFFFFFFFFFFFFFFFFFFFFFFFFFFFFFFFFFFFFFF AND DUP2 MSTORE PUSH1 0x20 ADD SWAP2 POP POP PUSH1 0x40 MLOAD DUP1 SWAP2 SUB SWAP1 RETURN JUMPDEST PUSH2 0x361 PUSH1 0x4 DUP1 CALLDATASIZE SUB PUSH1 0xC0 DUP2 LT ISZERO PUSH2 0x2D7 JUMPI PUSH1 0x0 DUP1 REVERT JUMPDEST DUP2 ADD SWAP1 DUP1 DUP1 CALLDATALOAD PUSH20 0xFFFFFFFFFFFFFFFFFFFFFFFFFFFFFFFFFFFFFFFF AND SWAP1 PUSH1 0x20 ADD SWAP1 SWAP3 SWAP2 SWAP1 DUP1 CALLDATALOAD PUSH20 0xFFFFFFFFFFFFFFFFFFFFFFFFFFFFFFFFFFFFFFFF AND SWAP1 PUSH1 0x20 ADD SWAP1 SWAP3 SWAP2 SWAP1 DUP1 CALLDATALOAD PUSH20 0xFFFFFFFFFFFFFFFFFFFFFFFFFFFFFFFFFFFFFFFF AND SWAP1 PUSH1 0x20 ADD SWAP1 SWAP3 SWAP2 SWAP1 DUP1 CALLDATALOAD SWAP1 PUSH1 0x20 ADD SWAP1 SWAP3 SWAP2 SWAP1 DUP1 CALLDATALOAD SWAP1 PUSH1 0x20 ADD SWAP1 SWAP3 SWAP2 SWAP1 DUP1 CALLDATALOAD SWAP1 PUSH1 0x20 ADD SWAP1 SWAP3 SWAP2 SWAP1 POP POP POP PUSH2 0x1424 JUMP JUMPDEST PUSH1 0x40 MLOAD DUP1 DUP3 DUP2 MSTORE PUSH1 0x20 ADD SWAP2 POP POP PUSH1 0x40 MLOAD DUP1 SWAP2 SUB SWAP1 RETURN JUMPDEST PUSH2 0x37F PUSH2 0x14D1 JUMP JUMPDEST PUSH1 0x40 MLOAD DUP1 DUP3 DUP2 MSTORE PUSH1 0x20 ADD SWAP2 POP POP PUSH1 0x40 MLOAD DUP1 SWAP2 SUB SWAP1 RETURN JUMPDEST PUSH2 0x39D PUSH2 0x14D7 JUMP JUMPDEST PUSH1 0x40 MLOAD DUP1 DUP3 DUP2 MSTORE PUSH1 0x20 ADD SWAP2 POP POP PUSH1 0x40 MLOAD DUP1 SWAP2 SUB SWAP1 RETURN JUMPDEST PUSH2 0x413 PUSH1 0x4 DUP1 CALLDATASIZE SUB PUSH1 0x80 DUP2 LT ISZERO PUSH2 0x3C9 JUMPI PUSH1 0x0 DUP1 REVERT JUMPDEST DUP2 ADD SWAP1 DUP1 DUP1 CALLDATALOAD PUSH20 0xFFFFFFFFFFFFFFFFFFFFFFFFFFFFFFFFFFFFFFFF AND SWAP1 PUSH1 0x20 ADD SWAP1 SWAP3 SWAP2 SWAP1 DUP1 CALLDATALOAD SWAP1 PUSH1 0x20 ADD SWAP1 SWAP3 SWAP2 SWAP1 DUP1 CALLDATALOAD SWAP1 PUSH1 0x20 ADD SWAP1 SWAP3 SWAP2 SWAP1 DUP1 CALLDATALOAD SWAP1 PUSH1 0x20 ADD SWAP1 SWAP3 SWAP2 SWAP1 POP POP POP PUSH2 0x14DE JUMP JUMPDEST PUSH1 0x40 MLOAD DUP1 DUP3 DUP2 MSTORE PUSH1 0x20 ADD SWAP2 POP POP PUSH1 0x40 MLOAD DUP1 SWAP2 SUB SWAP1 RETURN JUMPDEST PUSH2 0x431 PUSH2 0x1604 JUMP JUMPDEST PUSH1 0x40 MLOAD DUP1 DUP3 DUP2 MSTORE PUSH1 0x20 ADD SWAP2 POP POP PUSH1 0x40 MLOAD DUP1 SWAP2 SUB SWAP1 RETURN JUMPDEST PUSH2 0x489 PUSH1 0x4 DUP1 CALLDATASIZE SUB PUSH1 0x20 DUP2 LT ISZERO PUSH2 0x45D JUMPI PUSH1 0x0 DUP1 REVERT JUMPDEST DUP2 ADD SWAP1 DUP1 DUP1 CALLDATALOAD PUSH20 0xFFFFFFFFFFFFFFFFFFFFFFFFFFFFFFFFFFFFFFFF AND SWAP1 PUSH1 0x20 ADD SWAP1 SWAP3 SWAP2 SWAP1 POP POP POP PUSH2 0x160A JUMP JUMPDEST PUSH1 0x40 MLOAD DUP1 DUP3 DUP2 MSTORE PUSH1 0x20 ADD SWAP2 POP POP PUSH1 0x40 MLOAD DUP1 SWAP2 SUB SWAP1 RETURN JUMPDEST PUSH2 0x4E1 PUSH1 0x4 DUP1 CALLDATASIZE SUB PUSH1 0x20 DUP2 LT ISZERO PUSH2 0x4B5 JUMPI PUSH1 0x0 DUP1 REVERT JUMPDEST DUP2 ADD SWAP1 DUP1 DUP1 CALLDATALOAD PUSH20 0xFFFFFFFFFFFFFFFFFFFFFFFFFFFFFFFFFFFFFFFF AND SWAP1 PUSH1 0x20 ADD SWAP1 SWAP3 SWAP2 SWAP1 POP POP POP PUSH2 0x1B27 JUMP JUMPDEST PUSH1 0x40 MLOAD DUP1 DUP3 ISZERO ISZERO DUP2 MSTORE PUSH1 0x20 ADD SWAP2 POP POP PUSH1 0x40 MLOAD DUP1 SWAP2 SUB SWAP1 RETURN JUMPDEST PUSH2 0x525 PUSH1 0x4 DUP1 CALLDATASIZE SUB PUSH1 0x20 DUP2 LT ISZERO PUSH2 0x50F JUMPI PUSH1 0x0 DUP1 REVERT JUMPDEST DUP2 ADD SWAP1 DUP1 DUP1 CALLDATALOAD SWAP1 PUSH1 0x20 ADD SWAP1 SWAP3 SWAP2 SWAP1 POP POP POP PUSH2 0x1B47 JUMP JUMPDEST STOP JUMPDEST PUSH2 0x52F PUSH2 0x1C8E JUMP JUMPDEST PUSH1 0x40 MLOAD DUP1 DUP3 DUP2 MSTORE PUSH1 0x20 ADD SWAP2 POP POP PUSH1 0x40 MLOAD DUP1 SWAP2 SUB SWAP1 RETURN JUMPDEST PUSH2 0x54D PUSH2 0x1C94 JUMP JUMPDEST PUSH1 0x40 MLOAD DUP1 DUP3 PUSH20 0xFFFFFFFFFFFFFFFFFFFFFFFFFFFFFFFFFFFFFFFF AND DUP2 MSTORE PUSH1 0x20 ADD SWAP2 POP POP PUSH1 0x40 MLOAD DUP1 SWAP2 SUB SWAP1 RETURN JUMPDEST PUSH2 0x581 PUSH2 0x1CBA JUMP JUMPDEST PUSH1 0x40 MLOAD DUP1 DUP3 DUP2 MSTORE PUSH1 0x20 ADD SWAP2 POP POP PUSH1 0x40 MLOAD DUP1 SWAP2 SUB SWAP1 RETURN JUMPDEST PUSH2 0x5C5 PUSH1 0x4 DUP1 CALLDATASIZE SUB PUSH1 0x20 DUP2 LT ISZERO PUSH2 0x5AD JUMPI PUSH1 0x0 DUP1 REVERT JUMPDEST DUP2 ADD SWAP1 DUP1 DUP1 CALLDATALOAD ISZERO ISZERO SWAP1 PUSH1 0x20 ADD SWAP1 SWAP3 SWAP2 SWAP1 POP POP POP PUSH2 0x1CC6 JUMP JUMPDEST PUSH1 0x40 MLOAD DUP1 DUP3 DUP2 MSTORE PUSH1 0x20 ADD SWAP2 POP POP PUSH1 0x40 MLOAD DUP1 SWAP2 SUB SWAP1 RETURN JUMPDEST PUSH2 0x609 PUSH1 0x4 DUP1 CALLDATASIZE SUB PUSH1 0x20 DUP2 LT ISZERO PUSH2 0x5F1 JUMPI PUSH1 0x0 DUP1 REVERT JUMPDEST DUP2 ADD SWAP1 DUP1 DUP1 CALLDATALOAD ISZERO ISZERO SWAP1 PUSH1 0x20 ADD SWAP1 SWAP3 SWAP2 SWAP1 POP POP POP PUSH2 0x1D12 JUMP JUMPDEST STOP JUMPDEST PUSH2 0x6A1 PUSH1 0x4 DUP1 CALLDATASIZE SUB PUSH1 0xA0 DUP2 LT ISZERO PUSH2 0x621 JUMPI PUSH1 0x0 DUP1 REVERT JUMPDEST DUP2 ADD SWAP1 DUP1 DUP1 CALLDATALOAD PUSH20 0xFFFFFFFFFFFFFFFFFFFFFFFFFFFFFFFFFFFFFFFF AND SWAP1 PUSH1 0x20 ADD SWAP1 SWAP3 SWAP2 SWAP1 DUP1 CALLDATALOAD PUSH20 0xFFFFFFFFFFFFFFFFFFFFFFFFFFFFFFFFFFFFFFFF AND SWAP1 PUSH1 0x20 ADD SWAP1 SWAP3 SWAP2 SWAP1 DUP1 CALLDATALOAD SWAP1 PUSH1 0x20 ADD SWAP1 SWAP3 SWAP2 SWAP1 DUP1 CALLDATALOAD SWAP1 PUSH1 0x20 ADD SWAP1 SWAP3 SWAP2 SWAP1 DUP1 CALLDATALOAD PUSH20 0xFFFFFFFFFFFFFFFFFFFFFFFFFFFFFFFFFFFFFFFF AND SWAP1 PUSH1 0x20 ADD SWAP1 SWAP3 SWAP2 SWAP1 POP POP POP PUSH2 0x1DF2 JUMP JUMPDEST PUSH1 0x40 MLOAD DUP1 DUP3 DUP2 MSTORE PUSH1 0x20 ADD SWAP2 POP POP PUSH1 0x40 MLOAD DUP1 SWAP2 SUB SWAP1 RETURN JUMPDEST PUSH2 0x6BF PUSH2 0x1E9D JUMP JUMPDEST PUSH1 0x40 MLOAD DUP1 DUP3 PUSH20 0xFFFFFFFFFFFFFFFFFFFFFFFFFFFFFFFFFFFFFFFF AND DUP2 MSTORE PUSH1 0x20 ADD SWAP2 POP POP PUSH1 0x40 MLOAD DUP1 SWAP2 SUB SWAP1 RETURN JUMPDEST PUSH2 0x6F3 PUSH2 0x1EC3 JUMP JUMPDEST PUSH1 0x40 MLOAD DUP1 DUP3 DUP2 MSTORE PUSH1 0x20 ADD SWAP2 POP POP PUSH1 0x40 MLOAD DUP1 SWAP2 SUB SWAP1 RETURN JUMPDEST PUSH2 0x74B PUSH1 0x4 DUP1 CALLDATASIZE SUB PUSH1 0x20 DUP2 LT ISZERO PUSH2 0x71F JUMPI PUSH1 0x0 DUP1 REVERT JUMPDEST DUP2 ADD SWAP1 DUP1 DUP1 CALLDATALOAD PUSH20 0xFFFFFFFFFFFFFFFFFFFFFFFFFFFFFFFFFFFFFFFF AND SWAP1 PUSH1 0x20 ADD SWAP1 SWAP3 SWAP2 SWAP1 POP POP POP PUSH2 0x1EC8 JUMP JUMPDEST PUSH1 0x40 MLOAD DUP1 DUP3 DUP2 MSTORE PUSH1 0x20 ADD SWAP2 POP POP PUSH1 0x40 MLOAD DUP1 SWAP2 SUB SWAP1 RETURN JUMPDEST PUSH2 0x7D7 PUSH1 0x4 DUP1 CALLDATASIZE SUB PUSH1 0x80 DUP2 LT ISZERO PUSH2 0x777 JUMPI PUSH1 0x0 DUP1 REVERT JUMPDEST DUP2 ADD SWAP1 DUP1 DUP1 CALLDATALOAD PUSH20 0xFFFFFFFFFFFFFFFFFFFFFFFFFFFFFFFFFFFFFFFF AND SWAP1 PUSH1 0x20 ADD SWAP1 SWAP3 SWAP2 SWAP1 DUP1 CALLDATALOAD SWAP1 PUSH1 0x20 ADD SWAP1 SWAP3 SWAP2 SWAP1 DUP1 CALLDATALOAD SWAP1 PUSH1 0x20 ADD SWAP1 SWAP3 SWAP2 SWAP1 DUP1 CALLDATALOAD PUSH20 0xFFFFFFFFFFFFFFFFFFFFFFFFFFFFFFFFFFFFFFFF AND SWAP1 PUSH1 0x20 ADD SWAP1 SWAP3 SWAP2 SWAP1 POP POP POP PUSH2 0x1EE0 JUMP JUMPDEST PUSH1 0x40 MLOAD DUP1 DUP3 DUP2 MSTORE PUSH1 0x20 ADD SWAP2 POP POP PUSH1 0x40 MLOAD DUP1 SWAP2 SUB SWAP1 RETURN JUMPDEST PUSH2 0x823 PUSH1 0x4 DUP1 CALLDATASIZE SUB PUSH1 0x40 DUP2 LT ISZERO PUSH2 0x803 JUMPI PUSH1 0x0 DUP1 REVERT JUMPDEST DUP2 ADD SWAP1 DUP1 DUP1 CALLDATALOAD SWAP1 PUSH1 0x20 ADD SWAP1 SWAP3 SWAP2 SWAP1 DUP1 CALLDATALOAD SWAP1 PUSH1 0x20 ADD SWAP1 SWAP3 SWAP2 SWAP1 POP POP POP PUSH2 0x2005 JUMP JUMPDEST STOP JUMPDEST PUSH2 0x82D PUSH2 0x20DA JUMP JUMPDEST PUSH1 0x40 MLOAD DUP1 DUP3 DUP2 MSTORE PUSH1 0x20 ADD SWAP2 POP POP PUSH1 0x40 MLOAD DUP1 SWAP2 SUB SWAP1 RETURN JUMPDEST PUSH2 0x86F PUSH1 0x4 DUP1 CALLDATASIZE SUB PUSH1 0x20 DUP2 LT ISZERO PUSH2 0x859 JUMPI PUSH1 0x0 DUP1 REVERT JUMPDEST DUP2 ADD SWAP1 DUP1 DUP1 CALLDATALOAD SWAP1 PUSH1 0x20 ADD SWAP1 SWAP3 SWAP2 SWAP1 POP POP POP PUSH2 0x20EB JUMP JUMPDEST STOP JUMPDEST PUSH2 0x8BF PUSH1 0x4 DUP1 CALLDATASIZE SUB PUSH1 0x40 DUP2 LT ISZERO PUSH2 0x887 JUMPI PUSH1 0x0 DUP1 REVERT JUMPDEST DUP2 ADD SWAP1 DUP1 DUP1 CALLDATALOAD PUSH20 0xFFFFFFFFFFFFFFFFFFFFFFFFFFFFFFFFFFFFFFFF AND SWAP1 PUSH1 0x20 ADD SWAP1 SWAP3 SWAP2 SWAP1 DUP1 CALLDATALOAD ISZERO ISZERO SWAP1 PUSH1 0x20 ADD SWAP1 SWAP3 SWAP2 SWAP1 POP POP POP PUSH2 0x2214 JUMP JUMPDEST STOP JUMPDEST PUSH2 0x917 PUSH1 0x4 DUP1 CALLDATASIZE SUB PUSH1 0x60 DUP2 LT ISZERO PUSH2 0x8D7 JUMPI PUSH1 0x0 DUP1 REVERT JUMPDEST DUP2 ADD SWAP1 DUP1 DUP1 CALLDATALOAD PUSH20 0xFFFFFFFFFFFFFFFFFFFFFFFFFFFFFFFFFFFFFFFF AND SWAP1 PUSH1 0x20 ADD SWAP1 SWAP3 SWAP2 SWAP1 DUP1 CALLDATALOAD SWAP1 PUSH1 0x20 ADD SWAP1 SWAP3 SWAP2 SWAP1 DUP1 CALLDATALOAD SWAP1 PUSH1 0x20 ADD SWAP1 SWAP3 SWAP2 SWAP1 POP POP POP PUSH2 0x2332 JUMP JUMPDEST PUSH1 0x40 MLOAD DUP1 DUP4 DUP2 MSTORE PUSH1 0x20 ADD DUP3 ISZERO ISZERO DUP2 MSTORE PUSH1 0x20 ADD SWAP3 POP POP POP PUSH1 0x40 MLOAD DUP1 SWAP2 SUB SWAP1 RETURN JUMPDEST PUSH2 0x93E PUSH2 0x23B5 JUMP JUMPDEST PUSH1 0x40 MLOAD DUP1 DUP3 DUP2 MSTORE PUSH1 0x20 ADD SWAP2 POP POP PUSH1 0x40 MLOAD DUP1 SWAP2 SUB SWAP1 RETURN JUMPDEST PUSH2 0x996 PUSH1 0x4 DUP1 CALLDATASIZE SUB PUSH1 0x20 DUP2 LT ISZERO PUSH2 0x96A JUMPI PUSH1 0x0 DUP1 REVERT JUMPDEST DUP2 ADD SWAP1 DUP1 DUP1 CALLDATALOAD PUSH20 0xFFFFFFFFFFFFFFFFFFFFFFFFFFFFFFFFFFFFFFFF AND SWAP1 PUSH1 0x20 ADD SWAP1 SWAP3 SWAP2 SWAP1 POP POP POP PUSH2 0x23BB JUMP JUMPDEST STOP JUMPDEST PUSH2 0x9DA PUSH1 0x4 DUP1 CALLDATASIZE SUB PUSH1 0x20 DUP2 LT ISZERO PUSH2 0x9AE JUMPI PUSH1 0x0 DUP1 REVERT JUMPDEST DUP2 ADD SWAP1 DUP1 DUP1 CALLDATALOAD PUSH20 0xFFFFFFFFFFFFFFFFFFFFFFFFFFFFFFFFFFFFFFFF AND SWAP1 PUSH1 0x20 ADD SWAP1 SWAP3 SWAP2 SWAP1 POP POP POP PUSH2 0x24C2 JUMP JUMPDEST STOP JUMPDEST PUSH2 0xA0A PUSH1 0x4 DUP1 CALLDATASIZE SUB PUSH1 0x20 DUP2 LT ISZERO PUSH2 0x9F2 JUMPI PUSH1 0x0 DUP1 REVERT JUMPDEST DUP2 ADD SWAP1 DUP1 DUP1 CALLDATALOAD ISZERO ISZERO SWAP1 PUSH1 0x20 ADD SWAP1 SWAP3 SWAP2 SWAP1 POP POP POP PUSH2 0x25C9 JUMP JUMPDEST PUSH1 0x40 MLOAD DUP1 DUP3 DUP2 MSTORE PUSH1 0x20 ADD SWAP2 POP POP PUSH1 0x40 MLOAD DUP1 SWAP2 SUB SWAP1 RETURN JUMPDEST PUSH2 0xA28 PUSH2 0x26B4 JUMP JUMPDEST PUSH1 0x40 MLOAD DUP1 DUP1 PUSH1 0x20 ADD DUP3 DUP2 SUB DUP3 MSTORE DUP4 DUP2 DUP2 MLOAD DUP2 MSTORE PUSH1 0x20 ADD SWAP2 POP DUP1 MLOAD SWAP1 PUSH1 0x20 ADD SWAP1 PUSH1 0x20 MUL DUP1 DUP4 DUP4 PUSH1 0x0 JUMPDEST DUP4 DUP2 LT ISZERO PUSH2 0xA6B JUMPI DUP1 DUP3 ADD MLOAD DUP2 DUP5 ADD MSTORE PUSH1 0x20 DUP2 ADD SWAP1 POP PUSH2 0xA50 JUMP JUMPDEST POP POP POP POP SWAP1 POP ADD SWAP3 POP POP POP PUSH1 0x40 MLOAD DUP1 SWAP2 SUB SWAP1 RETURN JUMPDEST PUSH2 0xA87 PUSH2 0x274E JUMP JUMPDEST PUSH1 0x40 MLOAD DUP1 DUP3 PUSH20 0xFFFFFFFFFFFFFFFFFFFFFFFFFFFFFFFFFFFFFFFF AND DUP2 MSTORE PUSH1 0x20 ADD SWAP2 POP POP PUSH1 0x40 MLOAD DUP1 SWAP2 SUB SWAP1 RETURN JUMPDEST PUSH2 0xABB PUSH2 0x2774 JUMP JUMPDEST PUSH1 0x40 MLOAD DUP1 DUP3 PUSH20 0xFFFFFFFFFFFFFFFFFFFFFFFFFFFFFFFFFFFFFFFF AND DUP2 MSTORE PUSH1 0x20 ADD SWAP2 POP POP PUSH1 0x40 MLOAD DUP1 SWAP2 SUB SWAP1 RETURN JUMPDEST PUSH1 0x0 DUP1 PUSH1 0x2 PUSH1 0x0 SWAP1 SLOAD SWAP1 PUSH2 0x100 EXP SWAP1 DIV PUSH20 0xFFFFFFFFFFFFFFFFFFFFFFFFFFFFFFFFFFFFFFFF AND PUSH20 0xFFFFFFFFFFFFFFFFFFFFFFFFFFFFFFFFFFFFFFFF AND PUSH4 0x842B076 PUSH1 0x40 MLOAD DUP2 PUSH4 0xFFFFFFFF AND PUSH1 0xE0 SHL DUP2 MSTORE PUSH1 0x4 ADD PUSH1 0x20 PUSH1 0x40 MLOAD DUP1 DUP4 SUB DUP2 DUP7 DUP1 EXTCODESIZE ISZERO DUP1 ISZERO PUSH2 0xB52 JUMPI PUSH1 0x0 DUP1 REVERT JUMPDEST POP GAS STATICCALL ISZERO DUP1 ISZERO PUSH2 0xB66 JUMPI RETURNDATASIZE PUSH1 0x0 DUP1 RETURNDATACOPY RETURNDATASIZE PUSH1 0x0 REVERT JUMPDEST POP POP POP POP PUSH1 0x40 MLOAD RETURNDATASIZE PUSH1 0x20 DUP2 LT ISZERO PUSH2 0xB7C JUMPI PUSH1 0x0 DUP1 REVERT JUMPDEST DUP2 ADD SWAP1 DUP1 DUP1 MLOAD SWAP1 PUSH1 0x20 ADD SWAP1 SWAP3 SWAP2 SWAP1 POP POP POP SWAP1 POP PUSH1 0x0 PUSH1 0x8 SLOAD SWAP1 POP PUSH1 0x0 DUP1 PUSH1 0x2 PUSH1 0x0 SWAP1 SLOAD SWAP1 PUSH2 0x100 EXP SWAP1 DIV PUSH20 0xFFFFFFFFFFFFFFFFFFFFFFFFFFFFFFFFFFFFFFFF AND SWAP1 POP PUSH1 0x0 JUMPDEST DUP5 DUP2 LT ISZERO PUSH2 0x138F JUMPI PUSH1 0x0 PUSH1 0x2 PUSH1 0x0 SWAP1 SLOAD SWAP1 PUSH2 0x100 EXP SWAP1 DIV PUSH20 0xFFFFFFFFFFFFFFFFFFFFFFFFFFFFFFFFFFFFFFFF AND PUSH20 0xFFFFFFFFFFFFFFFFFFFFFFFFFFFFFFFFFFFFFFFF AND PUSH4 0xE468BAF0 DUP4 PUSH1 0x40 MLOAD DUP3 PUSH4 0xFFFFFFFF AND PUSH1 0xE0 SHL DUP2 MSTORE PUSH1 0x4 ADD DUP1 DUP3 DUP2 MSTORE PUSH1 0x20 ADD SWAP2 POP POP PUSH1 0x20 PUSH1 0x40 MLOAD DUP1 DUP4 SUB DUP2 DUP7 DUP1 EXTCODESIZE ISZERO DUP1 ISZERO PUSH2 0xC3E JUMPI PUSH1 0x0 DUP1 REVERT JUMPDEST POP GAS STATICCALL ISZERO DUP1 ISZERO PUSH2 0xC52 JUMPI RETURNDATASIZE PUSH1 0x0 DUP1 RETURNDATACOPY RETURNDATASIZE PUSH1 0x0 REVERT JUMPDEST POP POP POP POP PUSH1 0x40 MLOAD RETURNDATASIZE PUSH1 0x20 DUP2 LT ISZERO PUSH2 0xC68 JUMPI PUSH1 0x0 DUP1 REVERT JUMPDEST DUP2 ADD SWAP1 DUP1 DUP1 MLOAD SWAP1 PUSH1 0x20 ADD SWAP1 SWAP3 SWAP2 SWAP1 POP POP POP SWAP1 POP PUSH1 0x0 PUSH1 0x2 PUSH1 0x0 SWAP1 SLOAD SWAP1 PUSH2 0x100 EXP SWAP1 DIV PUSH20 0xFFFFFFFFFFFFFFFFFFFFFFFFFFFFFFFFFFFFFFFF AND PUSH20 0xFFFFFFFFFFFFFFFFFFFFFFFFFFFFFFFFFFFFFFFF AND PUSH4 0xDAF9C210 DUP4 PUSH1 0x40 MLOAD DUP3 PUSH4 0xFFFFFFFF AND PUSH1 0xE0 SHL DUP2 MSTORE PUSH1 0x4 ADD DUP1 DUP3 PUSH20 0xFFFFFFFFFFFFFFFFFFFFFFFFFFFFFFFFFFFFFFFF AND DUP2 MSTORE PUSH1 0x20 ADD SWAP2 POP POP PUSH1 0x20 PUSH1 0x40 MLOAD DUP1 DUP4 SUB DUP2 DUP7 DUP1 EXTCODESIZE ISZERO DUP1 ISZERO PUSH2 0xD06 JUMPI PUSH1 0x0 DUP1 REVERT JUMPDEST POP GAS STATICCALL ISZERO DUP1 ISZERO PUSH2 0xD1A JUMPI RETURNDATASIZE PUSH1 0x0 DUP1 RETURNDATACOPY RETURNDATASIZE PUSH1 0x0 REVERT JUMPDEST POP POP POP POP PUSH1 0x40 MLOAD RETURNDATASIZE PUSH1 0x20 DUP2 LT ISZERO PUSH2 0xD30 JUMPI PUSH1 0x0 DUP1 REVERT JUMPDEST DUP2 ADD SWAP1 DUP1 DUP1 MLOAD SWAP1 PUSH1 0x20 ADD SWAP1 SWAP3 SWAP2 SWAP1 POP POP POP SWAP1 POP DUP1 PUSH2 0xD4F JUMPI POP POP PUSH2 0x1382 JUMP JUMPDEST PUSH1 0x0 DUP10 PUSH2 0xDFD JUMPI DUP5 PUSH20 0xFFFFFFFFFFFFFFFFFFFFFFFFFFFFFFFFFFFFFFFF AND PUSH4 0x81A612D6 DUP5 PUSH1 0x40 MLOAD DUP3 PUSH4 0xFFFFFFFF AND PUSH1 0xE0 SHL DUP2 MSTORE PUSH1 0x4 ADD DUP1 DUP3 PUSH20 0xFFFFFFFFFFFFFFFFFFFFFFFFFFFFFFFFFFFFFFFF AND DUP2 MSTORE PUSH1 0x20 ADD SWAP2 POP POP PUSH1 0x20 PUSH1 0x40 MLOAD DUP1 DUP4 SUB DUP2 DUP7 DUP1 EXTCODESIZE ISZERO DUP1 ISZERO PUSH2 0xDBD JUMPI PUSH1 0x0 DUP1 REVERT JUMPDEST POP GAS STATICCALL ISZERO DUP1 ISZERO PUSH2 0xDD1 JUMPI RETURNDATASIZE PUSH1 0x0 DUP1 RETURNDATACOPY RETURNDATASIZE PUSH1 0x0 REVERT JUMPDEST POP POP POP POP PUSH1 0x40 MLOAD RETURNDATASIZE PUSH1 0x20 DUP2 LT ISZERO PUSH2 0xDE7 JUMPI PUSH1 0x0 DUP1 REVERT JUMPDEST DUP2 ADD SWAP1 DUP1 DUP1 MLOAD SWAP1 PUSH1 0x20 ADD SWAP1 SWAP3 SWAP2 SWAP1 POP POP POP PUSH2 0xEA0 JUMP JUMPDEST DUP5 PUSH20 0xFFFFFFFFFFFFFFFFFFFFFFFFFFFFFFFFFFFFFFFF AND PUSH4 0xE124E6D2 DUP5 PUSH1 0x40 MLOAD DUP3 PUSH4 0xFFFFFFFF AND PUSH1 0xE0 SHL DUP2 MSTORE PUSH1 0x4 ADD DUP1 DUP3 PUSH20 0xFFFFFFFFFFFFFFFFFFFFFFFFFFFFFFFFFFFFFFFF AND DUP2 MSTORE PUSH1 0x20 ADD SWAP2 POP POP PUSH1 0x20 PUSH1 0x40 MLOAD DUP1 DUP4 SUB DUP2 DUP7 DUP1 EXTCODESIZE ISZERO DUP1 ISZERO PUSH2 0xE64 JUMPI PUSH1 0x0 DUP1 REVERT JUMPDEST POP GAS STATICCALL ISZERO DUP1 ISZERO PUSH2 0xE78 JUMPI RETURNDATASIZE PUSH1 0x0 DUP1 RETURNDATACOPY RETURNDATASIZE PUSH1 0x0 REVERT JUMPDEST POP POP POP POP PUSH1 0x40 MLOAD RETURNDATASIZE PUSH1 0x20 DUP2 LT ISZERO PUSH2 0xE8E JUMPI PUSH1 0x0 DUP1 REVERT JUMPDEST DUP2 ADD SWAP1 DUP1 DUP1 MLOAD SWAP1 PUSH1 0x20 ADD SWAP1 SWAP3 SWAP2 SWAP1 POP POP POP JUMPDEST SWAP1 POP PUSH1 0x0 DUP6 PUSH20 0xFFFFFFFFFFFFFFFFFFFFFFFFFFFFFFFFFFFFFFFF AND PUSH4 0x52F55EED DUP6 PUSH1 0x40 MLOAD DUP3 PUSH4 0xFFFFFFFF AND PUSH1 0xE0 SHL DUP2 MSTORE PUSH1 0x4 ADD DUP1 DUP3 PUSH20 0xFFFFFFFFFFFFFFFFFFFFFFFFFFFFFFFFFFFFFFFF AND DUP2 MSTORE PUSH1 0x20 ADD SWAP2 POP POP PUSH1 0x20 PUSH1 0x40 MLOAD DUP1 DUP4 SUB DUP2 DUP7 DUP1 EXTCODESIZE ISZERO DUP1 ISZERO PUSH2 0xF0B JUMPI PUSH1 0x0 DUP1 REVERT JUMPDEST POP GAS STATICCALL ISZERO DUP1 ISZERO PUSH2 0xF1F JUMPI RETURNDATASIZE PUSH1 0x0 DUP1 RETURNDATACOPY RETURNDATASIZE PUSH1 0x0 REVERT JUMPDEST POP POP POP POP PUSH1 0x40 MLOAD RETURNDATASIZE PUSH1 0x20 DUP2 LT ISZERO PUSH2 0xF35 JUMPI PUSH1 0x0 DUP1 REVERT JUMPDEST DUP2 ADD SWAP1 DUP1 DUP1 MLOAD SWAP1 PUSH1 0x20 ADD SWAP1 SWAP3 SWAP2 SWAP1 POP POP POP SWAP1 POP PUSH1 0x0 DUP7 PUSH20 0xFFFFFFFFFFFFFFFFFFFFFFFFFFFFFFFFFFFFFFFF AND PUSH4 0x8EE573AC DUP7 PUSH1 0x40 MLOAD DUP3 PUSH4 0xFFFFFFFF AND PUSH1 0xE0 SHL DUP2 MSTORE PUSH1 0x4 ADD DUP1 DUP3 PUSH20 0xFFFFFFFFFFFFFFFFFFFFFFFFFFFFFFFFFFFFFFFF AND DUP2 MSTORE PUSH1 0x20 ADD SWAP2 POP POP PUSH1 0x20 PUSH1 0x40 MLOAD DUP1 DUP4 SUB DUP2 DUP7 DUP1 EXTCODESIZE ISZERO DUP1 ISZERO PUSH2 0xFB1 JUMPI PUSH1 0x0 DUP1 REVERT JUMPDEST POP GAS STATICCALL ISZERO DUP1 ISZERO PUSH2 0xFC5 JUMPI RETURNDATASIZE PUSH1 0x0 DUP1 RETURNDATACOPY RETURNDATASIZE PUSH1 0x0 REVERT JUMPDEST POP POP POP POP PUSH1 0x40 MLOAD RETURNDATASIZE PUSH1 0x20 DUP2 LT ISZERO PUSH2 0xFDB JUMPI PUSH1 0x0 DUP1 REVERT JUMPDEST DUP2 ADD SWAP1 DUP1 DUP1 MLOAD SWAP1 PUSH1 0x20 ADD SWAP1 SWAP3 SWAP2 SWAP1 POP POP POP SWAP1 POP DUP7 PUSH20 0xFFFFFFFFFFFFFFFFFFFFFFFFFFFFFFFFFFFFFFFF AND PUSH4 0x42B60B03 DUP7 PUSH1 0x40 MLOAD DUP3 PUSH4 0xFFFFFFFF AND PUSH1 0xE0 SHL DUP2 MSTORE PUSH1 0x4 ADD DUP1 DUP3 PUSH20 0xFFFFFFFFFFFFFFFFFFFFFFFFFFFFFFFFFFFFFFFF AND DUP2 MSTORE PUSH1 0x20 ADD SWAP2 POP POP PUSH1 0x20 PUSH1 0x40 MLOAD DUP1 DUP4 SUB DUP2 DUP7 DUP1 EXTCODESIZE ISZERO DUP1 ISZERO PUSH2 0x1055 JUMPI PUSH1 0x0 DUP1 REVERT JUMPDEST POP GAS STATICCALL ISZERO DUP1 ISZERO PUSH2 0x1069 JUMPI RETURNDATASIZE PUSH1 0x0 DUP1 RETURNDATACOPY RETURNDATASIZE PUSH1 0x0 REVERT JUMPDEST POP POP POP POP PUSH1 0x40 MLOAD RETURNDATASIZE PUSH1 0x20 DUP2 LT ISZERO PUSH2 0x107F JUMPI PUSH1 0x0 DUP1 REVERT JUMPDEST DUP2 ADD SWAP1 DUP1 DUP1 MLOAD SWAP1 PUSH1 0x20 ADD SWAP1 SWAP3 SWAP2 SWAP1 POP POP POP ISZERO PUSH2 0x10D6 JUMPI PUSH2 0x10CF PUSH2 0x10C0 DUP3 PUSH1 0xA EXP PUSH2 0x10B2 DUP7 DUP7 PUSH2 0x279A SWAP1 SWAP2 SWAP1 PUSH4 0xFFFFFFFF AND JUMP JUMPDEST PUSH2 0x2820 SWAP1 SWAP2 SWAP1 PUSH4 0xFFFFFFFF AND JUMP JUMPDEST DUP11 PUSH2 0x286A SWAP1 SWAP2 SWAP1 PUSH4 0xFFFFFFFF AND JUMP JUMPDEST SWAP9 POP PUSH2 0x137C JUMP JUMPDEST PUSH1 0x0 DUP8 PUSH20 0xFFFFFFFFFFFFFFFFFFFFFFFFFFFFFFFFFFFFFFFF AND PUSH4 0x8A78DAA8 DUP8 PUSH1 0x40 MLOAD DUP3 PUSH4 0xFFFFFFFF AND PUSH1 0xE0 SHL DUP2 MSTORE PUSH1 0x4 ADD DUP1 DUP3 PUSH20 0xFFFFFFFFFFFFFFFFFFFFFFFFFFFFFFFFFFFFFFFF AND DUP2 MSTORE PUSH1 0x20 ADD SWAP2 POP POP PUSH1 0x20 PUSH1 0x40 MLOAD DUP1 DUP4 SUB DUP2 DUP7 DUP1 EXTCODESIZE ISZERO DUP1 ISZERO PUSH2 0x113F JUMPI PUSH1 0x0 DUP1 REVERT JUMPDEST POP GAS STATICCALL ISZERO DUP1 ISZERO PUSH2 0x1153 JUMPI RETURNDATASIZE PUSH1 0x0 DUP1 RETURNDATACOPY RETURNDATASIZE PUSH1 0x0 REVERT JUMPDEST POP POP POP POP PUSH1 0x40 MLOAD RETURNDATASIZE PUSH1 0x20 DUP2 LT ISZERO PUSH2 0x1169 JUMPI PUSH1 0x0 DUP1 REVERT JUMPDEST DUP2 ADD SWAP1 DUP1 DUP1 MLOAD SWAP1 PUSH1 0x20 ADD SWAP1 SWAP3 SWAP2 SWAP1 POP POP POP SWAP1 POP PUSH1 0x0 DUP2 GT ISZERO PUSH2 0x11CF JUMPI PUSH1 0x0 DUP1 PUSH2 0x1193 DUP9 DUP8 DUP6 PUSH2 0x2332 JUMP JUMPDEST SWAP2 POP SWAP2 POP DUP1 PUSH2 0x11B6 JUMPI PUSH2 0x11AF DUP3 DUP14 PUSH2 0x286A SWAP1 SWAP2 SWAP1 PUSH4 0xFFFFFFFF AND JUMP JUMPDEST SWAP12 POP PUSH2 0x11CC JUMP JUMPDEST PUSH2 0x11C9 DUP3 DUP13 PUSH2 0x286A SWAP1 SWAP2 SWAP1 PUSH4 0xFFFFFFFF AND JUMP JUMPDEST SWAP11 POP JUMPDEST POP POP JUMPDEST PUSH2 0x1283 DUP9 PUSH20 0xFFFFFFFFFFFFFFFFFFFFFFFFFFFFFFFFFFFFFFFF AND PUSH4 0xF07456CE DUP9 PUSH1 0x40 MLOAD DUP3 PUSH4 0xFFFFFFFF AND PUSH1 0xE0 SHL DUP2 MSTORE PUSH1 0x4 ADD DUP1 DUP3 PUSH20 0xFFFFFFFFFFFFFFFFFFFFFFFFFFFFFFFFFFFFFFFF AND DUP2 MSTORE PUSH1 0x20 ADD SWAP2 POP POP PUSH1 0x20 PUSH1 0x40 MLOAD DUP1 DUP4 SUB DUP2 DUP7 DUP1 EXTCODESIZE ISZERO DUP1 ISZERO PUSH2 0x1239 JUMPI PUSH1 0x0 DUP1 REVERT JUMPDEST POP GAS STATICCALL ISZERO DUP1 ISZERO PUSH2 0x124D JUMPI RETURNDATASIZE PUSH1 0x0 DUP1 RETURNDATACOPY RETURNDATASIZE PUSH1 0x0 REVERT JUMPDEST POP POP POP POP PUSH1 0x40 MLOAD RETURNDATASIZE PUSH1 0x20 DUP2 LT ISZERO PUSH2 0x1263 JUMPI PUSH1 0x0 DUP1 REVERT JUMPDEST DUP2 ADD SWAP1 DUP1 DUP1 MLOAD SWAP1 PUSH1 0x20 ADD SWAP1 SWAP3 SWAP2 SWAP1 POP POP POP DUP12 PUSH2 0x286A SWAP1 SWAP2 SWAP1 PUSH4 0xFFFFFFFF AND JUMP JUMPDEST SWAP10 POP PUSH1 0x0 DUP9 PUSH20 0xFFFFFFFFFFFFFFFFFFFFFFFFFFFFFFFFFFFFFFFF AND PUSH4 0xC3C7B9E9 DUP9 PUSH1 0x40 MLOAD DUP3 PUSH4 0xFFFFFFFF AND PUSH1 0xE0 SHL DUP2 MSTORE PUSH1 0x4 ADD DUP1 DUP3 PUSH20 0xFFFFFFFFFFFFFFFFFFFFFFFFFFFFFFFFFFFFFFFF AND DUP2 MSTORE PUSH1 0x20 ADD SWAP2 POP POP PUSH1 0x20 PUSH1 0x40 MLOAD DUP1 DUP4 SUB DUP2 DUP7 DUP1 EXTCODESIZE ISZERO DUP1 ISZERO PUSH2 0x12EE JUMPI PUSH1 0x0 DUP1 REVERT JUMPDEST POP GAS STATICCALL ISZERO DUP1 ISZERO PUSH2 0x1302 JUMPI RETURNDATASIZE PUSH1 0x0 DUP1 RETURNDATACOPY RETURNDATASIZE PUSH1 0x0 REVERT JUMPDEST POP POP POP POP PUSH1 0x40 MLOAD RETURNDATASIZE PUSH1 0x20 DUP2 LT ISZERO PUSH2 0x1318 JUMPI PUSH1 0x0 DUP1 REVERT JUMPDEST DUP2 ADD SWAP1 DUP1 DUP1 MLOAD SWAP1 PUSH1 0x20 ADD SWAP1 SWAP3 SWAP2 SWAP1 POP POP POP SWAP1 POP PUSH2 0x1377 PUSH2 0x1368 DUP5 PUSH1 0xA EXP PUSH2 0x135A DUP9 PUSH2 0x134C DUP7 DUP11 PUSH2 0x28F2 SWAP1 SWAP2 SWAP1 PUSH4 0xFFFFFFFF AND JUMP JUMPDEST PUSH2 0x279A SWAP1 SWAP2 SWAP1 PUSH4 0xFFFFFFFF AND JUMP JUMPDEST PUSH2 0x2820 SWAP1 SWAP2 SWAP1 PUSH4 0xFFFFFFFF AND JUMP JUMPDEST DUP13 PUSH2 0x286A SWAP1 SWAP2 SWAP1 PUSH4 0xFFFFFFFF AND JUMP JUMPDEST SWAP11 POP POP POP JUMPDEST POP POP POP POP POP JUMPDEST DUP1 DUP1 PUSH1 0x1 ADD SWAP2 POP POP PUSH2 0xBC1 JUMP JUMPDEST POP DUP3 DUP3 GT PUSH2 0x13AF JUMPI PUSH2 0x13AA DUP3 DUP5 PUSH2 0x28F2 SWAP1 SWAP2 SWAP1 PUSH4 0xFFFFFFFF AND JUMP JUMPDEST PUSH2 0x13B2 JUMP JUMPDEST PUSH1 0x0 JUMPDEST SWAP3 POP DUP3 PUSH1 0x9 SLOAD GT PUSH2 0x13D7 JUMPI PUSH2 0x13D2 PUSH1 0x9 SLOAD DUP5 PUSH2 0x28F2 SWAP1 SWAP2 SWAP1 PUSH4 0xFFFFFFFF AND JUMP JUMPDEST PUSH2 0x13DA JUMP JUMPDEST PUSH1 0x0 JUMPDEST SWAP5 POP POP POP POP POP SWAP2 SWAP1 POP JUMP JUMPDEST PUSH1 0xA PUSH1 0x0 SWAP1 SLOAD SWAP1 PUSH2 0x100 EXP SWAP1 DIV PUSH1 0xFF AND DUP2 JUMP JUMPDEST PUSH2 0x2710 DUP2 JUMP JUMPDEST PUSH1 0x1 PUSH1 0x0 SWAP1 SLOAD SWAP1 PUSH2 0x100 EXP SWAP1 DIV PUSH20 0xFFFFFFFFFFFFFFFFFFFFFFFFFFFFFFFFFFFFFFFF AND DUP2 JUMP JUMPDEST PUSH1 0x0 PUSH1 0x2 PUSH1 0x0 SLOAD EQ ISZERO PUSH2 0x149F JUMPI PUSH1 0x40 MLOAD PUSH32 0x8C379A000000000000000000000000000000000000000000000000000000000 DUP2 MSTORE PUSH1 0x4 ADD DUP1 DUP1 PUSH1 0x20 ADD DUP3 DUP2 SUB DUP3 MSTORE PUSH1 0x1F DUP2 MSTORE PUSH1 0x20 ADD DUP1 PUSH32 0x5265656E7472616E637947756172643A207265656E7472616E742063616C6C00 DUP2 MSTORE POP PUSH1 0x20 ADD SWAP2 POP POP PUSH1 0x40 MLOAD DUP1 SWAP2 SUB SWAP1 REVERT JUMPDEST PUSH1 0x2 PUSH1 0x0 DUP2 SWAP1 SSTORE POP PUSH2 0x14AF PUSH2 0x293C JUMP JUMPDEST PUSH2 0x14BD DUP8 DUP8 DUP8 DUP8 DUP8 DUP8 PUSH2 0x29FD JUMP JUMPDEST SWAP1 POP PUSH1 0x1 PUSH1 0x0 DUP2 SWAP1 SSTORE POP SWAP7 SWAP6 POP POP POP POP POP POP JUMP JUMPDEST PUSH1 0x8 SLOAD DUP2 JUMP JUMPDEST PUSH3 0x2A300 DUP2 JUMP JUMPDEST PUSH1 0x0 PUSH1 0x2 PUSH1 0x0 SLOAD EQ ISZERO PUSH2 0x1559 JUMPI PUSH1 0x40 MLOAD PUSH32 0x8C379A000000000000000000000000000000000000000000000000000000000 DUP2 MSTORE PUSH1 0x4 ADD DUP1 DUP1 PUSH1 0x20 ADD DUP3 DUP2 SUB DUP3 MSTORE PUSH1 0x1F DUP2 MSTORE PUSH1 0x20 ADD DUP1 PUSH32 0x5265656E7472616E637947756172643A207265656E7472616E742063616C6C00 DUP2 MSTORE POP PUSH1 0x20 ADD SWAP2 POP POP PUSH1 0x40 MLOAD DUP1 SWAP2 SUB SWAP1 REVERT JUMPDEST PUSH1 0x2 PUSH1 0x0 DUP2 SWAP1 SSTORE POP PUSH1 0xA PUSH1 0x0 SWAP1 SLOAD SWAP1 PUSH2 0x100 EXP SWAP1 DIV PUSH1 0xFF AND ISZERO PUSH2 0x15E4 JUMPI PUSH1 0x40 MLOAD PUSH32 0x8C379A000000000000000000000000000000000000000000000000000000000 DUP2 MSTORE PUSH1 0x4 ADD DUP1 DUP1 PUSH1 0x20 ADD DUP3 DUP2 SUB DUP3 MSTORE PUSH1 0x1E DUP2 MSTORE PUSH1 0x20 ADD DUP1 PUSH32 0x476C704D616E616765723A20616374696F6E206E6F7420656E61626C65640000 DUP2 MSTORE POP PUSH1 0x20 ADD SWAP2 POP POP PUSH1 0x40 MLOAD DUP1 SWAP2 SUB SWAP1 REVERT JUMPDEST PUSH2 0x15F2 CALLER CALLER DUP8 DUP8 DUP8 DUP8 PUSH2 0x29FD JUMP JUMPDEST SWAP1 POP PUSH1 0x1 PUSH1 0x0 DUP2 SWAP1 SSTORE POP SWAP5 SWAP4 POP POP POP POP JUMP JUMPDEST PUSH1 0x6 SLOAD DUP2 JUMP JUMPDEST PUSH1 0x0 DUP1 PUSH1 0x3 PUSH1 0x0 SWAP1 SLOAD SWAP1 PUSH2 0x100 EXP SWAP1 DIV PUSH20 0xFFFFFFFFFFFFFFFFFFFFFFFFFFFFFFFFFFFFFFFF AND SWAP1 POP PUSH1 0x0 PUSH20 0xFFFFFFFFFFFFFFFFFFFFFFFFFFFFFFFFFFFFFFFF AND DUP2 PUSH20 0xFFFFFFFFFFFFFFFFFFFFFFFFFFFFFFFFFFFFFFFF AND EQ DUP1 PUSH2 0x16EB JUMPI POP DUP1 PUSH20 0xFFFFFFFFFFFFFFFFFFFFFFFFFFFFFFFFFFFFFFFF AND PUSH4 0x9A11178F PUSH1 0x40 MLOAD DUP2 PUSH4 0xFFFFFFFF AND PUSH1 0xE0 SHL DUP2 MSTORE PUSH1 0x4 ADD PUSH1 0x20 PUSH1 0x40 MLOAD DUP1 DUP4 SUB DUP2 DUP7 DUP1 EXTCODESIZE ISZERO DUP1 ISZERO PUSH2 0x16AE JUMPI PUSH1 0x0 DUP1 REVERT JUMPDEST POP GAS STATICCALL ISZERO DUP1 ISZERO PUSH2 0x16C2 JUMPI RETURNDATASIZE PUSH1 0x0 DUP1 RETURNDATACOPY RETURNDATASIZE PUSH1 0x0 REVERT JUMPDEST POP POP POP POP PUSH1 0x40 MLOAD RETURNDATASIZE PUSH1 0x20 DUP2 LT ISZERO PUSH2 0x16D8 JUMPI PUSH1 0x0 DUP1 REVERT JUMPDEST DUP2 ADD SWAP1 DUP1 DUP1 MLOAD SWAP1 PUSH1 0x20 ADD SWAP1 SWAP3 SWAP2 SWAP1 POP POP POP ISZERO JUMPDEST ISZERO PUSH2 0x17BC JUMPI PUSH1 0x2 PUSH1 0x0 SWAP1 SLOAD SWAP1 PUSH2 0x100 EXP SWAP1 DIV PUSH20 0xFFFFFFFFFFFFFFFFFFFFFFFFFFFFFFFFFFFFFFFF AND PUSH20 0xFFFFFFFFFFFFFFFFFFFFFFFFFFFFFFFFFFFFFFFF AND PUSH4 0x62749803 DUP5 PUSH1 0x40 MLOAD DUP3 PUSH4 0xFFFFFFFF AND PUSH1 0xE0 SHL DUP2 MSTORE PUSH1 0x4 ADD DUP1 DUP3 PUSH20 0xFFFFFFFFFFFFFFFFFFFFFFFFFFFFFFFFFFFFFFFF AND DUP2 MSTORE PUSH1 0x20 ADD SWAP2 POP POP PUSH1 0x20 PUSH1 0x40 MLOAD DUP1 DUP4 SUB DUP2 DUP7 DUP1 EXTCODESIZE ISZERO DUP1 ISZERO PUSH2 0x1779 JUMPI PUSH1 0x0 DUP1 REVERT JUMPDEST POP GAS STATICCALL ISZERO DUP1 ISZERO PUSH2 0x178D JUMPI RETURNDATASIZE PUSH1 0x0 DUP1 RETURNDATACOPY RETURNDATASIZE PUSH1 0x0 REVERT JUMPDEST POP POP POP POP PUSH1 0x40 MLOAD RETURNDATASIZE PUSH1 0x20 DUP2 LT ISZERO PUSH2 0x17A3 JUMPI PUSH1 0x0 DUP1 REVERT JUMPDEST DUP2 ADD SWAP1 DUP1 DUP1 MLOAD SWAP1 PUSH1 0x20 ADD SWAP1 SWAP3 SWAP2 SWAP1 POP POP POP SWAP2 POP POP PUSH2 0x1B22 JUMP JUMPDEST PUSH1 0x0 PUSH1 0xB SLOAD SWAP1 POP PUSH1 0x0 DUP2 EQ ISZERO PUSH2 0x1899 JUMPI PUSH1 0x2 PUSH1 0x0 SWAP1 SLOAD SWAP1 PUSH2 0x100 EXP SWAP1 DIV PUSH20 0xFFFFFFFFFFFFFFFFFFFFFFFFFFFFFFFFFFFFFFFF AND PUSH20 0xFFFFFFFFFFFFFFFFFFFFFFFFFFFFFFFFFFFFFFFF AND PUSH4 0x62749803 DUP6 PUSH1 0x40 MLOAD DUP3 PUSH4 0xFFFFFFFF AND PUSH1 0xE0 SHL DUP2 MSTORE PUSH1 0x4 ADD DUP1 DUP3 PUSH20 0xFFFFFFFFFFFFFFFFFFFFFFFFFFFFFFFFFFFFFFFF AND DUP2 MSTORE PUSH1 0x20 ADD SWAP2 POP POP PUSH1 0x20 PUSH1 0x40 MLOAD DUP1 DUP4 SUB DUP2 DUP7 DUP1 EXTCODESIZE ISZERO DUP1 ISZERO PUSH2 0x1855 JUMPI PUSH1 0x0 DUP1 REVERT JUMPDEST POP GAS STATICCALL ISZERO DUP1 ISZERO PUSH2 0x1869 JUMPI RETURNDATASIZE PUSH1 0x0 DUP1 RETURNDATACOPY RETURNDATASIZE PUSH1 0x0 REVERT JUMPDEST POP POP POP POP PUSH1 0x40 MLOAD RETURNDATASIZE PUSH1 0x20 DUP2 LT ISZERO PUSH2 0x187F JUMPI PUSH1 0x0 DUP1 REVERT JUMPDEST DUP2 ADD SWAP1 DUP1 DUP1 MLOAD SWAP1 PUSH1 0x20 ADD SWAP1 SWAP3 SWAP2 SWAP1 POP POP POP SWAP3 POP POP POP PUSH2 0x1B22 JUMP JUMPDEST PUSH2 0x2710 DUP2 EQ ISZERO PUSH2 0x194E JUMPI DUP2 PUSH20 0xFFFFFFFFFFFFFFFFFFFFFFFFFFFFFFFFFFFFFFFF AND PUSH4 0x62749803 DUP6 PUSH1 0x40 MLOAD DUP3 PUSH4 0xFFFFFFFF AND PUSH1 0xE0 SHL DUP2 MSTORE PUSH1 0x4 ADD DUP1 DUP3 PUSH20 0xFFFFFFFFFFFFFFFFFFFFFFFFFFFFFFFFFFFFFFFF AND DUP2 MSTORE PUSH1 0x20 ADD SWAP2 POP POP PUSH1 0x20 PUSH1 0x40 MLOAD DUP1 DUP4 SUB DUP2 DUP7 DUP1 EXTCODESIZE ISZERO DUP1 ISZERO PUSH2 0x190A JUMPI PUSH1 0x0 DUP1 REVERT JUMPDEST POP GAS STATICCALL ISZERO DUP1 ISZERO PUSH2 0x191E JUMPI RETURNDATASIZE PUSH1 0x0 DUP1 RETURNDATACOPY RETURNDATASIZE PUSH1 0x0 REVERT JUMPDEST POP POP POP POP PUSH1 0x40 MLOAD RETURNDATASIZE PUSH1 0x20 DUP2 LT ISZERO PUSH2 0x1934 JUMPI PUSH1 0x0 DUP1 REVERT JUMPDEST DUP2 ADD SWAP1 DUP1 DUP1 MLOAD SWAP1 PUSH1 0x20 ADD SWAP1 SWAP3 SWAP2 SWAP1 POP POP POP SWAP3 POP POP POP PUSH2 0x1B22 JUMP JUMPDEST PUSH1 0x0 PUSH1 0x2 PUSH1 0x0 SWAP1 SLOAD SWAP1 PUSH2 0x100 EXP SWAP1 DIV PUSH20 0xFFFFFFFFFFFFFFFFFFFFFFFFFFFFFFFFFFFFFFFF AND PUSH20 0xFFFFFFFFFFFFFFFFFFFFFFFFFFFFFFFFFFFFFFFF AND PUSH4 0x62749803 DUP7 PUSH1 0x40 MLOAD DUP3 PUSH4 0xFFFFFFFF AND PUSH1 0xE0 SHL DUP2 MSTORE PUSH1 0x4 ADD DUP1 DUP3 PUSH20 0xFFFFFFFFFFFFFFFFFFFFFFFFFFFFFFFFFFFFFFFF AND DUP2 MSTORE PUSH1 0x20 ADD SWAP2 POP POP PUSH1 0x20 PUSH1 0x40 MLOAD DUP1 DUP4 SUB DUP2 DUP7 DUP1 EXTCODESIZE ISZERO DUP1 ISZERO PUSH2 0x19D9 JUMPI PUSH1 0x0 DUP1 REVERT JUMPDEST POP GAS STATICCALL ISZERO DUP1 ISZERO PUSH2 0x19ED JUMPI RETURNDATASIZE PUSH1 0x0 DUP1 RETURNDATACOPY RETURNDATASIZE PUSH1 0x0 REVERT JUMPDEST POP POP POP POP PUSH1 0x40 MLOAD RETURNDATASIZE PUSH1 0x20 DUP2 LT ISZERO PUSH2 0x1A03 JUMPI PUSH1 0x0 DUP1 REVERT JUMPDEST DUP2 ADD SWAP1 DUP1 DUP1 MLOAD SWAP1 PUSH1 0x20 ADD SWAP1 SWAP3 SWAP2 SWAP1 POP POP POP SWAP1 POP PUSH1 0x0 DUP4 PUSH20 0xFFFFFFFFFFFFFFFFFFFFFFFFFFFFFFFFFFFFFFFF AND PUSH4 0x62749803 DUP8 PUSH1 0x40 MLOAD DUP3 PUSH4 0xFFFFFFFF AND PUSH1 0xE0 SHL DUP2 MSTORE PUSH1 0x4 ADD DUP1 DUP3 PUSH20 0xFFFFFFFFFFFFFFFFFFFFFFFFFFFFFFFFFFFFFFFF AND DUP2 MSTORE PUSH1 0x20 ADD SWAP2 POP POP PUSH1 0x20 PUSH1 0x40 MLOAD DUP1 DUP4 SUB DUP2 DUP7 DUP1 EXTCODESIZE ISZERO DUP1 ISZERO PUSH2 0x1A7F JUMPI PUSH1 0x0 DUP1 REVERT JUMPDEST POP GAS STATICCALL ISZERO DUP1 ISZERO PUSH2 0x1A93 JUMPI RETURNDATASIZE PUSH1 0x0 DUP1 RETURNDATACOPY RETURNDATASIZE PUSH1 0x0 REVERT JUMPDEST POP POP POP POP PUSH1 0x40 MLOAD RETURNDATASIZE PUSH1 0x20 DUP2 LT ISZERO PUSH2 0x1AA9 JUMPI PUSH1 0x0 DUP1 REVERT JUMPDEST DUP2 ADD SWAP1 DUP1 DUP1 MLOAD SWAP1 PUSH1 0x20 ADD SWAP1 SWAP3 SWAP2 SWAP1 POP POP POP SWAP1 POP PUSH2 0x1B1B PUSH2 0x2710 PUSH2 0x1B0D PUSH2 0x1AD8 DUP7 DUP6 PUSH2 0x279A SWAP1 SWAP2 SWAP1 PUSH4 0xFFFFFFFF AND JUMP JUMPDEST PUSH2 0x1AFF PUSH2 0x1AF0 DUP9 PUSH2 0x2710 PUSH2 0x28F2 SWAP1 SWAP2 SWAP1 PUSH4 0xFFFFFFFF AND JUMP JUMPDEST DUP8 PUSH2 0x279A SWAP1 SWAP2 SWAP1 PUSH4 0xFFFFFFFF AND JUMP JUMPDEST PUSH2 0x286A SWAP1 SWAP2 SWAP1 PUSH4 0xFFFFFFFF AND JUMP JUMPDEST PUSH2 0x2820 SWAP1 SWAP2 SWAP1 PUSH4 0xFFFFFFFF AND JUMP JUMPDEST SWAP5 POP POP POP POP POP JUMPDEST SWAP2 SWAP1 POP JUMP JUMPDEST PUSH1 0xC PUSH1 0x20 MSTORE DUP1 PUSH1 0x0 MSTORE PUSH1 0x40 PUSH1 0x0 KECCAK256 PUSH1 0x0 SWAP2 POP SLOAD SWAP1 PUSH2 0x100 EXP SWAP1 DIV PUSH1 0xFF AND DUP2 JUMP JUMPDEST PUSH1 0x1 PUSH1 0x0 SWAP1 SLOAD SWAP1 PUSH2 0x100 EXP SWAP1 DIV PUSH20 0xFFFFFFFFFFFFFFFFFFFFFFFFFFFFFFFFFFFFFFFF AND PUSH20 0xFFFFFFFFFFFFFFFFFFFFFFFFFFFFFFFFFFFFFFFF AND CALLER PUSH20 0xFFFFFFFFFFFFFFFFFFFFFFFFFFFFFFFFFFFFFFFF AND EQ PUSH2 0x1C0A JUMPI PUSH1 0x40 MLOAD PUSH32 0x8C379A000000000000000000000000000000000000000000000000000000000 DUP2 MSTORE PUSH1 0x4 ADD DUP1 DUP1 PUSH1 0x20 ADD DUP3 DUP2 SUB DUP3 MSTORE PUSH1 0x15 DUP2 MSTORE PUSH1 0x20 ADD DUP1 PUSH32 0x476F7665726E61626C653A20666F7262696464656E0000000000000000000000 DUP2 MSTORE POP PUSH1 0x20 ADD SWAP2 POP POP PUSH1 0x40 MLOAD DUP1 SWAP2 SUB SWAP1 REVERT JUMPDEST PUSH2 0x2710 PUSH1 0xB SLOAD GT ISZERO PUSH2 0x1C84 JUMPI PUSH1 0x40 MLOAD PUSH32 0x8C379A000000000000000000000000000000000000000000000000000000000 DUP2 MSTORE PUSH1 0x4 ADD DUP1 DUP1 PUSH1 0x20 ADD DUP3 DUP2 SUB DUP3 MSTORE PUSH1 0x1A DUP2 MSTORE PUSH1 0x20 ADD DUP1 PUSH32 0x476C704D616E616765723A20696E76616C696420776569676874000000000000 DUP2 MSTORE POP PUSH1 0x20 ADD SWAP2 POP POP PUSH1 0x40 MLOAD DUP1 SWAP2 SUB SWAP1 REVERT JUMPDEST DUP1 PUSH1 0xB DUP2 SWAP1 SSTORE POP POP JUMP JUMPDEST PUSH1 0xB SLOAD DUP2 JUMP JUMPDEST PUSH1 0x3 PUSH1 0x0 SWAP1 SLOAD SWAP1 PUSH2 0x100 EXP SWAP1 DIV PUSH20 0xFFFFFFFFFFFFFFFFFFFFFFFFFFFFFFFFFFFFFFFF AND DUP2 JUMP JUMPDEST PUSH8 0xDE0B6B3A7640000 DUP2 JUMP JUMPDEST PUSH1 0x0 DUP1 PUSH2 0x1CD2 DUP4 PUSH2 0xAE7 JUMP JUMPDEST SWAP1 POP PUSH2 0x1D0A PUSH13 0xC9F2C9CD04674EDEA40000000 PUSH2 0x1CFC PUSH1 0x12 PUSH1 0xA EXP DUP5 PUSH2 0x279A SWAP1 SWAP2 SWAP1 PUSH4 0xFFFFFFFF AND JUMP JUMPDEST PUSH2 0x2820 SWAP1 SWAP2 SWAP1 PUSH4 0xFFFFFFFF AND JUMP JUMPDEST SWAP2 POP POP SWAP2 SWAP1 POP JUMP JUMPDEST PUSH1 0x1 PUSH1 0x0 SWAP1 SLOAD SWAP1 PUSH2 0x100 EXP SWAP1 DIV PUSH20 0xFFFFFFFFFFFFFFFFFFFFFFFFFFFFFFFFFFFFFFFF AND PUSH20 0xFFFFFFFFFFFFFFFFFFFFFFFFFFFFFFFFFFFFFFFF AND CALLER PUSH20 0xFFFFFFFFFFFFFFFFFFFFFFFFFFFFFFFFFFFFFFFF AND EQ PUSH2 0x1DD5 JUMPI PUSH1 0x40 MLOAD PUSH32 0x8C379A000000000000000000000000000000000000000000000000000000000 DUP2 MSTORE PUSH1 0x4 ADD DUP1 DUP1 PUSH1 0x20 ADD DUP3 DUP2 SUB DUP3 MSTORE PUSH1 0x15 DUP2 MSTORE PUSH1 0x20 ADD DUP1 PUSH32 0x476F7665726E61626C653A20666F7262696464656E0000000000000000000000 DUP2 MSTORE POP PUSH1 0x20 ADD SWAP2 POP POP PUSH1 0x40 MLOAD DUP1 SWAP2 SUB SWAP1 REVERT JUMPDEST DUP1 PUSH1 0xA PUSH1 0x0 PUSH2 0x100 EXP DUP2 SLOAD DUP2 PUSH1 0xFF MUL NOT AND SWAP1 DUP4 ISZERO ISZERO MUL OR SWAP1 SSTORE POP POP JUMP JUMPDEST PUSH1 0x0 PUSH1 0x2 PUSH1 0x0 SLOAD EQ ISZERO PUSH2 0x1E6D JUMPI PUSH1 0x40 MLOAD PUSH32 0x8C379A000000000000000000000000000000000000000000000000000000000 DUP2 MSTORE PUSH1 0x4 ADD DUP1 DUP1 PUSH1 0x20 ADD DUP3 DUP2 SUB DUP3 MSTORE PUSH1 0x1F DUP2 MSTORE PUSH1 0x20 ADD DUP1 PUSH32 0x5265656E7472616E637947756172643A207265656E7472616E742063616C6C00 DUP2 MSTORE POP PUSH1 0x20 ADD SWAP2 POP POP PUSH1 0x40 MLOAD DUP1 SWAP2 SUB SWAP1 REVERT JUMPDEST PUSH1 0x2 PUSH1 0x0 DUP2 SWAP1 SSTORE POP PUSH2 0x1E7D PUSH2 0x293C JUMP JUMPDEST PUSH2 0x1E8A DUP7 DUP7 DUP7 DUP7 DUP7 PUSH2 0x2EDC JUMP JUMPDEST SWAP1 POP PUSH1 0x1 PUSH1 0x0 DUP2 SWAP1 SSTORE POP SWAP6 SWAP5 POP POP POP POP POP JUMP JUMPDEST PUSH1 0x5 PUSH1 0x0 SWAP1 SLOAD SWAP1 PUSH2 0x100 EXP SWAP1 DIV PUSH20 0xFFFFFFFFFFFFFFFFFFFFFFFFFFFFFFFFFFFFFFFF AND DUP2 JUMP JUMPDEST PUSH1 0x12 DUP2 JUMP JUMPDEST PUSH1 0x7 PUSH1 0x20 MSTORE DUP1 PUSH1 0x0 MSTORE PUSH1 0x40 PUSH1 0x0 KECCAK256 PUSH1 0x0 SWAP2 POP SWAP1 POP SLOAD DUP2 JUMP JUMPDEST PUSH1 0x0 PUSH1 0x2 PUSH1 0x0 SLOAD EQ ISZERO PUSH2 0x1F5B JUMPI PUSH1 0x40 MLOAD PUSH32 0x8C379A000000000000000000000000000000000000000000000000000000000 DUP2 MSTORE PUSH1 0x4 ADD DUP1 DUP1 PUSH1 0x20 ADD DUP3 DUP2 SUB DUP3 MSTORE PUSH1 0x1F DUP2 MSTORE PUSH1 0x20 ADD DUP1 PUSH32 0x5265656E7472616E637947756172643A207265656E7472616E742063616C6C00 DUP2 MSTORE POP PUSH1 0x20 ADD SWAP2 POP POP PUSH1 0x40 MLOAD DUP1 SWAP2 SUB SWAP1 REVERT JUMPDEST PUSH1 0x2 PUSH1 0x0 DUP2 SWAP1 SSTORE POP PUSH1 0xA PUSH1 0x0 SWAP1 SLOAD SWAP1 PUSH2 0x100 EXP SWAP1 DIV PUSH1 0xFF AND ISZERO PUSH2 0x1FE6 JUMPI PUSH1 0x40 MLOAD PUSH32 0x8C379A000000000000000000000000000000000000000000000000000000000 DUP2 MSTORE PUSH1 0x4 ADD DUP1 DUP1 PUSH1 0x20 ADD DUP3 DUP2 SUB DUP3 MSTORE PUSH1 0x1E DUP2 MSTORE PUSH1 0x20 ADD DUP1 PUSH32 0x476C704D616E616765723A20616374696F6E206E6F7420656E61626C65640000 DUP2 MSTORE POP PUSH1 0x20 ADD SWAP2 POP POP PUSH1 0x40 MLOAD DUP1 SWAP2 SUB SWAP1 REVERT JUMPDEST PUSH2 0x1FF3 CALLER DUP7 DUP7 DUP7 DUP7 PUSH2 0x2EDC JUMP JUMPDEST SWAP1 POP PUSH1 0x1 PUSH1 0x0 DUP2 SWAP1 SSTORE POP SWAP5 SWAP4 POP POP POP POP JUMP JUMPDEST PUSH1 0x1 PUSH1 0x0 SWAP1 SLOAD SWAP1 PUSH2 0x100 EXP SWAP1 DIV PUSH20 0xFFFFFFFFFFFFFFFFFFFFFFFFFFFFFFFFFFFFFFFF AND PUSH20 0xFFFFFFFFFFFFFFFFFFFFFFFFFFFFFFFFFFFFFFFF AND CALLER PUSH20 0xFFFFFFFFFFFFFFFFFFFFFFFFFFFFFFFFFFFFFFFF AND EQ PUSH2 0x20C8 JUMPI PUSH1 0x40 MLOAD PUSH32 0x8C379A000000000000000000000000000000000000000000000000000000000 DUP2 MSTORE PUSH1 0x4 ADD DUP1 DUP1 PUSH1 0x20 ADD DUP3 DUP2 SUB DUP3 MSTORE PUSH1 0x15 DUP2 MSTORE PUSH1 0x20 ADD DUP1 PUSH32 0x476F7665726E61626C653A20666F7262696464656E0000000000000000000000 DUP2 MSTORE POP PUSH1 0x20 ADD SWAP2 POP POP PUSH1 0x40 MLOAD DUP1 SWAP2 SUB SWAP1 REVERT JUMPDEST DUP2 PUSH1 0x8 DUP2 SWAP1 SSTORE POP DUP1 PUSH1 0x9 DUP2 SWAP1 SSTORE POP POP POP JUMP JUMPDEST PUSH13 0xC9F2C9CD04674EDEA40000000 DUP2 JUMP JUMPDEST PUSH1 0x1 PUSH1 0x0 SWAP1 SLOAD SWAP1 PUSH2 0x100 EXP SWAP1 DIV PUSH20 0xFFFFFFFFFFFFFFFFFFFFFFFFFFFFFFFFFFFFFFFF AND PUSH20 0xFFFFFFFFFFFFFFFFFFFFFFFFFFFFFFFFFFFFFFFF AND CALLER PUSH20 0xFFFFFFFFFFFFFFFFFFFFFFFFFFFFFFFFFFFFFFFF AND EQ PUSH2 0x21AE JUMPI PUSH1 0x40 MLOAD PUSH32 0x8C379A000000000000000000000000000000000000000000000000000000000 DUP2 MSTORE PUSH1 0x4 ADD DUP1 DUP1 PUSH1 0x20 ADD DUP3 DUP2 SUB DUP3 MSTORE PUSH1 0x15 DUP2 MSTORE PUSH1 0x20 ADD DUP1 PUSH32 0x476F7665726E61626C653A20666F7262696464656E0000000000000000000000 DUP2 MSTORE POP PUSH1 0x20 ADD SWAP2 POP POP PUSH1 0x40 MLOAD DUP1 SWAP2 SUB SWAP1 REVERT JUMPDEST PUSH3 0x2A300 DUP2 GT ISZERO PUSH2 0x220A JUMPI PUSH1 0x40 MLOAD PUSH32 0x8C379A000000000000000000000000000000000000000000000000000000000 DUP2 MSTORE PUSH1 0x4 ADD DUP1 DUP1 PUSH1 0x20 ADD DUP3 DUP2 SUB DUP3 MSTORE PUSH1 0x25 DUP2 MSTORE PUSH1 0x20 ADD DUP1 PUSH2 0x3BE0 PUSH1 0x25 SWAP2 CODECOPY PUSH1 0x40 ADD SWAP2 POP POP PUSH1 0x40 MLOAD DUP1 SWAP2 SUB SWAP1 REVERT JUMPDEST DUP1 PUSH1 0x6 DUP2 SWAP1 SSTORE POP POP JUMP JUMPDEST PUSH1 0x1 PUSH1 0x0 SWAP1 SLOAD SWAP1 PUSH2 0x100 EXP SWAP1 DIV PUSH20 0xFFFFFFFFFFFFFFFFFFFFFFFFFFFFFFFFFFFFFFFF AND PUSH20 0xFFFFFFFFFFFFFFFFFFFFFFFFFFFFFFFFFFFFFFFF AND CALLER PUSH20 0xFFFFFFFFFFFFFFFFFFFFFFFFFFFFFFFFFFFFFFFF AND EQ PUSH2 0x22D7 JUMPI PUSH1 0x40 MLOAD PUSH32 0x8C379A000000000000000000000000000000000000000000000000000000000 DUP2 MSTORE PUSH1 0x4 ADD DUP1 DUP1 PUSH1 0x20 ADD DUP3 DUP2 SUB DUP3 MSTORE PUSH1 0x15 DUP2 MSTORE PUSH1 0x20 ADD DUP1 PUSH32 0x476F7665726E61626C653A20666F7262696464656E0000000000000000000000 DUP2 MSTORE POP PUSH1 0x20 ADD SWAP2 POP POP PUSH1 0x40 MLOAD DUP1 SWAP2 SUB SWAP1 REVERT JUMPDEST DUP1 PUSH1 0xC PUSH1 0x0 DUP5 PUSH20 0xFFFFFFFFFFFFFFFFFFFFFFFFFFFFFFFFFFFFFFFF AND PUSH20 0xFFFFFFFFFFFFFFFFFFFFFFFFFFFFFFFFFFFFFFFF AND DUP2 MSTORE PUSH1 0x20 ADD SWAP1 DUP2 MSTORE PUSH1 0x20 ADD PUSH1 0x0 KECCAK256 PUSH1 0x0 PUSH2 0x100 EXP DUP2 SLOAD DUP2 PUSH1 0xFF MUL NOT AND SWAP1 DUP4 ISZERO ISZERO MUL OR SWAP1 SSTORE POP POP POP JUMP JUMPDEST PUSH1 0x0 DUP1 PUSH1 0x0 PUSH2 0x2340 DUP7 PUSH2 0x160A JUMP JUMPDEST SWAP1 POP PUSH1 0x0 DUP6 DUP3 GT PUSH2 0x2363 JUMPI PUSH2 0x235E DUP3 DUP8 PUSH2 0x28F2 SWAP1 SWAP2 SWAP1 PUSH4 0xFFFFFFFF AND JUMP JUMPDEST PUSH2 0x2377 JUMP JUMPDEST PUSH2 0x2376 DUP7 DUP4 PUSH2 0x28F2 SWAP1 SWAP2 SWAP1 PUSH4 0xFFFFFFFF AND JUMP JUMPDEST JUMPDEST SWAP1 POP PUSH1 0x0 PUSH2 0x23A0 DUP4 PUSH2 0x2392 DUP5 DUP10 PUSH2 0x279A SWAP1 SWAP2 SWAP1 PUSH4 0xFFFFFFFF AND JUMP JUMPDEST PUSH2 0x2820 SWAP1 SWAP2 SWAP1 PUSH4 0xFFFFFFFF AND JUMP JUMPDEST SWAP1 POP DUP1 DUP8 DUP5 GT SWAP5 POP SWAP5 POP POP POP POP SWAP4 POP SWAP4 SWAP2 POP POP JUMP JUMPDEST PUSH1 0x9 SLOAD DUP2 JUMP JUMPDEST PUSH1 0x1 PUSH1 0x0 SWAP1 SLOAD SWAP1 PUSH2 0x100 EXP SWAP1 DIV PUSH20 0xFFFFFFFFFFFFFFFFFFFFFFFFFFFFFFFFFFFFFFFF AND PUSH20 0xFFFFFFFFFFFFFFFFFFFFFFFFFFFFFFFFFFFFFFFF AND CALLER PUSH20 0xFFFFFFFFFFFFFFFFFFFFFFFFFFFFFFFFFFFFFFFF AND EQ PUSH2 0x247E JUMPI PUSH1 0x40 MLOAD PUSH32 0x8C379A000000000000000000000000000000000000000000000000000000000 DUP2 MSTORE PUSH1 0x4 ADD DUP1 DUP1 PUSH1 0x20 ADD DUP3 DUP2 SUB DUP3 MSTORE PUSH1 0x15 DUP2 MSTORE PUSH1 0x20 ADD DUP1 PUSH32 0x476F7665726E61626C653A20666F7262696464656E0000000000000000000000 DUP2 MSTORE POP PUSH1 0x20 ADD SWAP2 POP POP PUSH1 0x40 MLOAD DUP1 SWAP2 SUB SWAP1 REVERT JUMPDEST DUP1 PUSH1 0x1 PUSH1 0x0 PUSH2 0x100 EXP DUP2 SLOAD DUP2 PUSH20 0xFFFFFFFFFFFFFFFFFFFFFFFFFFFFFFFFFFFFFFFF MUL NOT AND SWAP1 DUP4 PUSH20 0xFFFFFFFFFFFFFFFFFFFFFFFFFFFFFFFFFFFFFFFF AND MUL OR SWAP1 SSTORE POP POP JUMP JUMPDEST PUSH1 0x1 PUSH1 0x0 SWAP1 SLOAD SWAP1 PUSH2 0x100 EXP SWAP1 DIV PUSH20 0xFFFFFFFFFFFFFFFFFFFFFFFFFFFFFFFFFFFFFFFF AND PUSH20 0xFFFFFFFFFFFFFFFFFFFFFFFFFFFFFFFFFFFFFFFF AND CALLER PUSH20 0xFFFFFFFFFFFFFFFFFFFFFFFFFFFFFFFFFFFFFFFF AND EQ PUSH2 0x2585 JUMPI PUSH1 0x40 MLOAD PUSH32 0x8C379A000000000000000000000000000000000000000000000000000000000 DUP2 MSTORE PUSH1 0x4 ADD DUP1 DUP1 PUSH1 0x20 ADD DUP3 DUP2 SUB DUP3 MSTORE PUSH1 0x15 DUP2 MSTORE PUSH1 0x20 ADD DUP1 PUSH32 0x476F7665726E61626C653A20666F7262696464656E0000000000000000000000 DUP2 MSTORE POP PUSH1 0x20 ADD SWAP2 POP POP PUSH1 0x40 MLOAD DUP1 SWAP2 SUB SWAP1 REVERT JUMPDEST DUP1 PUSH1 0x3 PUSH1 0x0 PUSH2 0x100 EXP DUP2 SLOAD DUP2 PUSH20 0xFFFFFFFFFFFFFFFFFFFFFFFFFFFFFFFFFFFFFFFF MUL NOT AND SWAP1 DUP4 PUSH20 0xFFFFFFFFFFFFFFFFFFFFFFFFFFFFFFFFFFFFFFFF AND MUL OR SWAP1 SSTORE POP POP JUMP JUMPDEST PUSH1 0x0 DUP1 PUSH2 0x25D5 DUP4 PUSH2 0xAE7 JUMP JUMPDEST SWAP1 POP PUSH1 0x0 PUSH1 0x5 PUSH1 0x0 SWAP1 SLOAD SWAP1 PUSH2 0x100 EXP SWAP1 DIV PUSH20 0xFFFFFFFFFFFFFFFFFFFFFFFFFFFFFFFFFFFFFFFF AND PUSH20 0xFFFFFFFFFFFFFFFFFFFFFFFFFFFFFFFFFFFFFFFF AND PUSH4 0x18160DDD PUSH1 0x40 MLOAD DUP2 PUSH4 0xFFFFFFFF AND PUSH1 0xE0 SHL DUP2 MSTORE PUSH1 0x4 ADD PUSH1 0x20 PUSH1 0x40 MLOAD DUP1 DUP4 SUB DUP2 DUP7 DUP1 EXTCODESIZE ISZERO DUP1 ISZERO PUSH2 0x2641 JUMPI PUSH1 0x0 DUP1 REVERT JUMPDEST POP GAS STATICCALL ISZERO DUP1 ISZERO PUSH2 0x2655 JUMPI RETURNDATASIZE PUSH1 0x0 DUP1 RETURNDATACOPY RETURNDATASIZE PUSH1 0x0 REVERT JUMPDEST POP POP POP POP PUSH1 0x40 MLOAD RETURNDATASIZE PUSH1 0x20 DUP2 LT ISZERO PUSH2 0x266B JUMPI PUSH1 0x0 DUP1 REVERT JUMPDEST DUP2 ADD SWAP1 DUP1 DUP1 MLOAD SWAP1 PUSH1 0x20 ADD SWAP1 SWAP3 SWAP2 SWAP1 POP POP POP SWAP1 POP PUSH2 0x26AB DUP2 PUSH2 0x269D PUSH8 0xDE0B6B3A7640000 DUP6 PUSH2 0x279A SWAP1 SWAP2 SWAP1 PUSH4 0xFFFFFFFF AND JUMP JUMPDEST PUSH2 0x2820 SWAP1 SWAP2 SWAP1 PUSH4 0xFFFFFFFF AND JUMP JUMPDEST SWAP3 POP POP POP SWAP2 SWAP1 POP JUMP JUMPDEST PUSH1 0x60 DUP1 PUSH1 0x2 PUSH8 0xFFFFFFFFFFFFFFFF DUP2 GT DUP1 ISZERO PUSH2 0x26CF JUMPI PUSH1 0x0 DUP1 REVERT JUMPDEST POP PUSH1 0x40 MLOAD SWAP1 DUP1 DUP3 MSTORE DUP1 PUSH1 0x20 MUL PUSH1 0x20 ADD DUP3 ADD PUSH1 0x40 MSTORE DUP1 ISZERO PUSH2 0x26FE JUMPI DUP2 PUSH1 0x20 ADD PUSH1 0x20 DUP3 MUL DUP1 CALLDATASIZE DUP4 CALLDATACOPY DUP1 DUP3 ADD SWAP2 POP POP SWAP1 POP JUMPDEST POP SWAP1 POP PUSH2 0x270B PUSH1 0x1 PUSH2 0xAE7 JUMP JUMPDEST DUP2 PUSH1 0x0 DUP2 MLOAD DUP2 LT PUSH2 0x2718 JUMPI INVALID JUMPDEST PUSH1 0x20 MUL PUSH1 0x20 ADD ADD DUP2 DUP2 MSTORE POP POP PUSH2 0x272E PUSH1 0x0 PUSH2 0xAE7 JUMP JUMPDEST DUP2 PUSH1 0x1 DUP2 MLOAD DUP2 LT PUSH2 0x273B JUMPI INVALID JUMPDEST PUSH1 0x20 MUL PUSH1 0x20 ADD ADD DUP2 DUP2 MSTORE POP POP DUP1 SWAP2 POP POP SWAP1 JUMP JUMPDEST PUSH1 0x4 PUSH1 0x0 SWAP1 SLOAD SWAP1 PUSH2 0x100 EXP SWAP1 DIV PUSH20 0xFFFFFFFFFFFFFFFFFFFFFFFFFFFFFFFFFFFFFFFF AND DUP2 JUMP JUMPDEST PUSH1 0x2 PUSH1 0x0 SWAP1 SLOAD SWAP1 PUSH2 0x100 EXP SWAP1 DIV PUSH20 0xFFFFFFFFFFFFFFFFFFFFFFFFFFFFFFFFFFFFFFFF AND DUP2 JUMP JUMPDEST PUSH1 0x0 DUP1 DUP4 EQ ISZERO PUSH2 0x27AD JUMPI PUSH1 0x0 SWAP1 POP PUSH2 0x281A JUMP JUMPDEST PUSH1 0x0 DUP3 DUP5 MUL SWAP1 POP DUP3 DUP5 DUP3 DUP2 PUSH2 0x27BE JUMPI INVALID JUMPDEST DIV EQ PUSH2 0x2815 JUMPI PUSH1 0x40 MLOAD PUSH32 0x8C379A000000000000000000000000000000000000000000000000000000000 DUP2 MSTORE PUSH1 0x4 ADD DUP1 DUP1 PUSH1 0x20 ADD DUP3 DUP2 SUB DUP3 MSTORE PUSH1 0x21 DUP2 MSTORE PUSH1 0x20 ADD DUP1 PUSH2 0x3C57 PUSH1 0x21 SWAP2 CODECOPY PUSH1 0x40 ADD SWAP2 POP POP PUSH1 0x40 MLOAD DUP1 SWAP2 SUB SWAP1 REVERT JUMPDEST DUP1 SWAP2 POP POP JUMPDEST SWAP3 SWAP2 POP POP JUMP JUMPDEST PUSH1 0x0 PUSH2 0x2862 DUP4 DUP4 PUSH1 0x40 MLOAD DUP1 PUSH1 0x40 ADD PUSH1 0x40 MSTORE DUP1 PUSH1 0x1A DUP2 MSTORE PUSH1 0x20 ADD PUSH32 0x536166654D6174683A206469766973696F6E206279207A65726F000000000000 DUP2 MSTORE POP PUSH2 0x3609 JUMP JUMPDEST SWAP1 POP SWAP3 SWAP2 POP POP JUMP JUMPDEST PUSH1 0x0 DUP1 DUP3 DUP5 ADD SWAP1 POP DUP4 DUP2 LT ISZERO PUSH2 0x28E8 JUMPI PUSH1 0x40 MLOAD PUSH32 0x8C379A000000000000000000000000000000000000000000000000000000000 DUP2 MSTORE PUSH1 0x4 ADD DUP1 DUP1 PUSH1 0x20 ADD DUP3 DUP2 SUB DUP3 MSTORE PUSH1 0x1B DUP2 MSTORE PUSH1 0x20 ADD DUP1 PUSH32 0x536166654D6174683A206164646974696F6E206F766572666C6F770000000000 DUP2 MSTORE POP PUSH1 0x20 ADD SWAP2 POP POP PUSH1 0x40 MLOAD DUP1 SWAP2 SUB SWAP1 REVERT JUMPDEST DUP1 SWAP2 POP POP SWAP3 SWAP2 POP POP JUMP JUMPDEST PUSH1 0x0 PUSH2 0x2934 DUP4 DUP4 PUSH1 0x40 MLOAD DUP1 PUSH1 0x40 ADD PUSH1 0x40 MSTORE DUP1 PUSH1 0x1E DUP2 MSTORE PUSH1 0x20 ADD PUSH32 0x536166654D6174683A207375627472616374696F6E206F766572666C6F770000 DUP2 MSTORE POP PUSH2 0x36CF JUMP JUMPDEST SWAP1 POP SWAP3 SWAP2 POP POP JUMP JUMPDEST PUSH1 0xC PUSH1 0x0 CALLER PUSH20 0xFFFFFFFFFFFFFFFFFFFFFFFFFFFFFFFFFFFFFFFF AND PUSH20 0xFFFFFFFFFFFFFFFFFFFFFFFFFFFFFFFFFFFFFFFF AND DUP2 MSTORE PUSH1 0x20 ADD SWAP1 DUP2 MSTORE PUSH1 0x20 ADD PUSH1 0x0 KECCAK256 PUSH1 0x0 SWAP1 SLOAD SWAP1 PUSH2 0x100 EXP SWAP1 DIV PUSH1 0xFF AND PUSH2 0x29FB JUMPI PUSH1 0x40 MLOAD PUSH32 0x8C379A000000000000000000000000000000000000000000000000000000000 DUP2 MSTORE PUSH1 0x4 ADD DUP1 DUP1 PUSH1 0x20 ADD DUP3 DUP2 SUB DUP3 MSTORE PUSH1 0x15 DUP2 MSTORE PUSH1 0x20 ADD DUP1 PUSH32 0x476C704D616E616765723A20666F7262696464656E0000000000000000000000 DUP2 MSTORE POP PUSH1 0x20 ADD SWAP2 POP POP PUSH1 0x40 MLOAD DUP1 SWAP2 SUB SWAP1 REVERT JUMPDEST JUMP JUMPDEST PUSH1 0x0 DUP1 DUP5 GT PUSH2 0x2A74 JUMPI PUSH1 0x40 MLOAD PUSH32 0x8C379A000000000000000000000000000000000000000000000000000000000 DUP2 MSTORE PUSH1 0x4 ADD DUP1 DUP1 PUSH1 0x20 ADD DUP3 DUP2 SUB DUP3 MSTORE PUSH1 0x1B DUP2 MSTORE PUSH1 0x20 ADD DUP1 PUSH32 0x476C704D616E616765723A20696E76616C6964205F616D6F756E740000000000 DUP2 MSTORE POP PUSH1 0x20 ADD SWAP2 POP POP PUSH1 0x40 MLOAD DUP1 SWAP2 SUB SWAP1 REVERT JUMPDEST PUSH1 0x0 PUSH2 0x2A80 PUSH1 0x1 PUSH2 0x1CC6 JUMP JUMPDEST SWAP1 POP PUSH1 0x0 PUSH1 0x5 PUSH1 0x0 SWAP1 SLOAD SWAP1 PUSH2 0x100 EXP SWAP1 DIV PUSH20 0xFFFFFFFFFFFFFFFFFFFFFFFFFFFFFFFFFFFFFFFF AND PUSH20 0xFFFFFFFFFFFFFFFFFFFFFFFFFFFFFFFFFFFFFFFF AND PUSH4 0x18160DDD PUSH1 0x40 MLOAD DUP2 PUSH4 0xFFFFFFFF AND PUSH1 0xE0 SHL DUP2 MSTORE PUSH1 0x4 ADD PUSH1 0x20 PUSH1 0x40 MLOAD DUP1 DUP4 SUB DUP2 DUP7 DUP1 EXTCODESIZE ISZERO DUP1 ISZERO PUSH2 0x2AEC JUMPI PUSH1 0x0 DUP1 REVERT JUMPDEST POP GAS STATICCALL ISZERO DUP1 ISZERO PUSH2 0x2B00 JUMPI RETURNDATASIZE PUSH1 0x0 DUP1 RETURNDATACOPY RETURNDATASIZE PUSH1 0x0 REVERT JUMPDEST POP POP POP POP PUSH1 0x40 MLOAD RETURNDATASIZE PUSH1 0x20 DUP2 LT ISZERO PUSH2 0x2B16 JUMPI PUSH1 0x0 DUP1 REVERT JUMPDEST DUP2 ADD SWAP1 DUP1 DUP1 MLOAD SWAP1 PUSH1 0x20 ADD SWAP1 SWAP3 SWAP2 SWAP1 POP POP POP SWAP1 POP PUSH2 0x2B78 DUP10 PUSH1 0x2 PUSH1 0x0 SWAP1 SLOAD SWAP1 PUSH2 0x100 EXP SWAP1 DIV PUSH20 0xFFFFFFFFFFFFFFFFFFFFFFFFFFFFFFFFFFFFFFFF AND DUP9 DUP11 PUSH20 0xFFFFFFFFFFFFFFFFFFFFFFFFFFFFFFFFFFFFFFFF AND PUSH2 0x378F SWAP1 SWAP4 SWAP3 SWAP2 SWAP1 PUSH4 0xFFFFFFFF AND JUMP JUMPDEST PUSH1 0x0 PUSH1 0x2 PUSH1 0x0 SWAP1 SLOAD SWAP1 PUSH2 0x100 EXP SWAP1 DIV PUSH20 0xFFFFFFFFFFFFFFFFFFFFFFFFFFFFFFFFFFFFFFFF AND PUSH20 0xFFFFFFFFFFFFFFFFFFFFFFFFFFFFFFFFFFFFFFFF AND PUSH4 0x817BB857 DUP10 ADDRESS PUSH1 0x40 MLOAD DUP4 PUSH4 0xFFFFFFFF AND PUSH1 0xE0 SHL DUP2 MSTORE PUSH1 0x4 ADD DUP1 DUP4 PUSH20 0xFFFFFFFFFFFFFFFFFFFFFFFFFFFFFFFFFFFFFFFF AND DUP2 MSTORE PUSH1 0x20 ADD DUP3 PUSH20 0xFFFFFFFFFFFFFFFFFFFFFFFFFFFFFFFFFFFFFFFF AND DUP2 MSTORE PUSH1 0x20 ADD SWAP3 POP POP POP PUSH1 0x20 PUSH1 0x40 MLOAD DUP1 DUP4 SUB DUP2 PUSH1 0x0 DUP8 DUP1 EXTCODESIZE ISZERO DUP1 ISZERO PUSH2 0x2C23 JUMPI PUSH1 0x0 DUP1 REVERT JUMPDEST POP GAS CALL ISZERO DUP1 ISZERO PUSH2 0x2C37 JUMPI RETURNDATASIZE PUSH1 0x0 DUP1 RETURNDATACOPY RETURNDATASIZE PUSH1 0x0 REVERT JUMPDEST POP POP POP POP PUSH1 0x40 MLOAD RETURNDATASIZE PUSH1 0x20 DUP2 LT ISZERO PUSH2 0x2C4D JUMPI PUSH1 0x0 DUP1 REVERT JUMPDEST DUP2 ADD SWAP1 DUP1 DUP1 MLOAD SWAP1 PUSH1 0x20 ADD SWAP1 SWAP3 SWAP2 SWAP1 POP POP POP SWAP1 POP DUP6 DUP2 LT ISZERO PUSH2 0x2CB9 JUMPI PUSH1 0x40 MLOAD PUSH32 0x8C379A000000000000000000000000000000000000000000000000000000000 DUP2 MSTORE PUSH1 0x4 ADD DUP1 DUP1 PUSH1 0x20 ADD DUP3 DUP2 SUB DUP3 MSTORE PUSH1 0x24 DUP2 MSTORE PUSH1 0x20 ADD DUP1 PUSH2 0x3C9B PUSH1 0x24 SWAP2 CODECOPY PUSH1 0x40 ADD SWAP2 POP POP PUSH1 0x40 MLOAD DUP1 SWAP2 SUB SWAP1 REVERT JUMPDEST PUSH1 0x0 DUP1 DUP5 EQ PUSH2 0x2CEC JUMPI PUSH2 0x2CE7 DUP5 PUSH2 0x2CD9 DUP6 DUP6 PUSH2 0x279A SWAP1 SWAP2 SWAP1 PUSH4 0xFFFFFFFF AND JUMP JUMPDEST PUSH2 0x2820 SWAP1 SWAP2 SWAP1 PUSH4 0xFFFFFFFF AND JUMP JUMPDEST PUSH2 0x2CEE JUMP JUMPDEST DUP2 JUMPDEST SWAP1 POP DUP6 DUP2 LT ISZERO PUSH2 0x2D49 JUMPI PUSH1 0x40 MLOAD PUSH32 0x8C379A000000000000000000000000000000000000000000000000000000000 DUP2 MSTORE PUSH1 0x4 ADD DUP1 DUP1 PUSH1 0x20 ADD DUP3 DUP2 SUB DUP3 MSTORE PUSH1 0x23 DUP2 MSTORE PUSH1 0x20 ADD DUP1 PUSH2 0x3C78 PUSH1 0x23 SWAP2 CODECOPY PUSH1 0x40 ADD SWAP2 POP POP PUSH1 0x40 MLOAD DUP1 SWAP2 SUB SWAP1 REVERT JUMPDEST PUSH1 0x5 PUSH1 0x0 SWAP1 SLOAD SWAP1 PUSH2 0x100 EXP SWAP1 DIV PUSH20 0xFFFFFFFFFFFFFFFFFFFFFFFFFFFFFFFFFFFFFFFF AND PUSH20 0xFFFFFFFFFFFFFFFFFFFFFFFFFFFFFFFFFFFFFFFF AND PUSH4 0x40C10F19 DUP12 DUP4 PUSH1 0x40 MLOAD DUP4 PUSH4 0xFFFFFFFF AND PUSH1 0xE0 SHL DUP2 MSTORE PUSH1 0x4 ADD DUP1 DUP4 PUSH20 0xFFFFFFFFFFFFFFFFFFFFFFFFFFFFFFFFFFFFFFFF AND DUP2 MSTORE PUSH1 0x20 ADD DUP3 DUP2 MSTORE PUSH1 0x20 ADD SWAP3 POP POP POP PUSH1 0x0 PUSH1 0x40 MLOAD DUP1 DUP4 SUB DUP2 PUSH1 0x0 DUP8 DUP1 EXTCODESIZE ISZERO DUP1 ISZERO PUSH2 0x2DDC JUMPI PUSH1 0x0 DUP1 REVERT JUMPDEST POP GAS CALL ISZERO DUP1 ISZERO PUSH2 0x2DF0 JUMPI RETURNDATASIZE PUSH1 0x0 DUP1 RETURNDATACOPY RETURNDATASIZE PUSH1 0x0 REVERT JUMPDEST POP POP POP POP TIMESTAMP PUSH1 0x7 PUSH1 0x0 DUP13 PUSH20 0xFFFFFFFFFFFFFFFFFFFFFFFFFFFFFFFFFFFFFFFF AND PUSH20 0xFFFFFFFFFFFFFFFFFFFFFFFFFFFFFFFFFFFFFFFF AND DUP2 MSTORE PUSH1 0x20 ADD SWAP1 DUP2 MSTORE PUSH1 0x20 ADD PUSH1 0x0 KECCAK256 DUP2 SWAP1 SSTORE POP PUSH32 0x38DC38B96482BE64113DAFFD8D464EBDA93E856B70CCFC605E69CCF892AB981E DUP11 DUP11 DUP11 DUP8 DUP8 DUP8 DUP8 PUSH1 0x40 MLOAD DUP1 DUP9 PUSH20 0xFFFFFFFFFFFFFFFFFFFFFFFFFFFFFFFFFFFFFFFF AND DUP2 MSTORE PUSH1 0x20 ADD DUP8 PUSH20 0xFFFFFFFFFFFFFFFFFFFFFFFFFFFFFFFFFFFFFFFF AND DUP2 MSTORE PUSH1 0x20 ADD DUP7 DUP2 MSTORE PUSH1 0x20 ADD DUP6 DUP2 MSTORE PUSH1 0x20 ADD DUP5 DUP2 MSTORE PUSH1 0x20 ADD DUP4 DUP2 MSTORE PUSH1 0x20 ADD DUP3 DUP2 MSTORE PUSH1 0x20 ADD SWAP8 POP POP POP POP POP POP POP POP PUSH1 0x40 MLOAD DUP1 SWAP2 SUB SWAP1 LOG1 DUP1 SWAP5 POP POP POP POP POP SWAP7 SWAP6 POP POP POP POP POP POP JUMP JUMPDEST PUSH1 0x0 DUP1 DUP5 GT PUSH2 0x2F53 JUMPI PUSH1 0x40 MLOAD PUSH32 0x8C379A000000000000000000000000000000000000000000000000000000000 DUP2 MSTORE PUSH1 0x4 ADD DUP1 DUP1 PUSH1 0x20 ADD DUP3 DUP2 SUB DUP3 MSTORE PUSH1 0x1E DUP2 MSTORE PUSH1 0x20 ADD DUP1 PUSH32 0x476C704D616E616765723A20696E76616C6964205F676C70416D6F756E740000 DUP2 MSTORE POP PUSH1 0x20 ADD SWAP2 POP POP PUSH1 0x40 MLOAD DUP1 SWAP2 SUB SWAP1 REVERT JUMPDEST TIMESTAMP PUSH2 0x2FA8 PUSH1 0x6 SLOAD PUSH1 0x7 PUSH1 0x0 DUP11 PUSH20 0xFFFFFFFFFFFFFFFFFFFFFFFFFFFFFFFFFFFFFFFF AND PUSH20 0xFFFFFFFFFFFFFFFFFFFFFFFFFFFFFFFFFFFFFFFF AND DUP2 MSTORE PUSH1 0x20 ADD SWAP1 DUP2 MSTORE PUSH1 0x20 ADD PUSH1 0x0 KECCAK256 SLOAD PUSH2 0x286A SWAP1 SWAP2 SWAP1 PUSH4 0xFFFFFFFF AND JUMP JUMPDEST GT ISZERO PUSH2 0x2FFF JUMPI PUSH1 0x40 MLOAD PUSH32 0x8C379A000000000000000000000000000000000000000000000000000000000 DUP2 MSTORE PUSH1 0x4 ADD DUP1 DUP1 PUSH1 0x20 ADD DUP3 DUP2 SUB DUP3 MSTORE PUSH1 0x2C DUP2 MSTORE PUSH1 0x20 ADD DUP1 PUSH2 0x3C2B PUSH1 0x2C SWAP2 CODECOPY PUSH1 0x40 ADD SWAP2 POP POP PUSH1 0x40 MLOAD DUP1 SWAP2 SUB SWAP1 REVERT JUMPDEST PUSH1 0x0 PUSH2 0x300B PUSH1 0x0 PUSH2 0x1CC6 JUMP JUMPDEST SWAP1 POP PUSH1 0x0 PUSH1 0x5 PUSH1 0x0 SWAP1 SLOAD SWAP1 PUSH2 0x100 EXP SWAP1 DIV PUSH20 0xFFFFFFFFFFFFFFFFFFFFFFFFFFFFFFFFFFFFFFFF AND PUSH20 0xFFFFFFFFFFFFFFFFFFFFFFFFFFFFFFFFFFFFFFFF AND PUSH4 0x18160DDD PUSH1 0x40 MLOAD DUP2 PUSH4 0xFFFFFFFF AND PUSH1 0xE0 SHL DUP2 MSTORE PUSH1 0x4 ADD PUSH1 0x20 PUSH1 0x40 MLOAD DUP1 DUP4 SUB DUP2 DUP7 DUP1 EXTCODESIZE ISZERO DUP1 ISZERO PUSH2 0x3077 JUMPI PUSH1 0x0 DUP1 REVERT JUMPDEST POP GAS STATICCALL ISZERO DUP1 ISZERO PUSH2 0x308B JUMPI RETURNDATASIZE PUSH1 0x0 DUP1 RETURNDATACOPY RETURNDATASIZE PUSH1 0x0 REVERT JUMPDEST POP POP POP POP PUSH1 0x40 MLOAD RETURNDATASIZE PUSH1 0x20 DUP2 LT ISZERO PUSH2 0x30A1 JUMPI PUSH1 0x0 DUP1 REVERT JUMPDEST DUP2 ADD SWAP1 DUP1 DUP1 MLOAD SWAP1 PUSH1 0x20 ADD SWAP1 SWAP3 SWAP2 SWAP1 POP POP POP SWAP1 POP PUSH1 0x0 PUSH2 0x30DB DUP3 PUSH2 0x30CD DUP6 DUP11 PUSH2 0x279A SWAP1 SWAP2 SWAP1 PUSH4 0xFFFFFFFF AND JUMP JUMPDEST PUSH2 0x2820 SWAP1 SWAP2 SWAP1 PUSH4 0xFFFFFFFF AND JUMP JUMPDEST SWAP1 POP PUSH1 0x0 PUSH1 0x4 PUSH1 0x0 SWAP1 SLOAD SWAP1 PUSH2 0x100 EXP SWAP1 DIV PUSH20 0xFFFFFFFFFFFFFFFFFFFFFFFFFFFFFFFFFFFFFFFF AND PUSH20 0xFFFFFFFFFFFFFFFFFFFFFFFFFFFFFFFFFFFFFFFF AND PUSH4 0x70A08231 ADDRESS PUSH1 0x40 MLOAD DUP3 PUSH4 0xFFFFFFFF AND PUSH1 0xE0 SHL DUP2 MSTORE PUSH1 0x4 ADD DUP1 DUP3 PUSH20 0xFFFFFFFFFFFFFFFFFFFFFFFFFFFFFFFFFFFFFFFF AND DUP2 MSTORE PUSH1 0x20 ADD SWAP2 POP POP PUSH1 0x20 PUSH1 0x40 MLOAD DUP1 DUP4 SUB DUP2 DUP7 DUP1 EXTCODESIZE ISZERO DUP1 ISZERO PUSH2 0x3168 JUMPI PUSH1 0x0 DUP1 REVERT JUMPDEST POP GAS STATICCALL ISZERO DUP1 ISZERO PUSH2 0x317C JUMPI RETURNDATASIZE PUSH1 0x0 DUP1 RETURNDATACOPY RETURNDATASIZE PUSH1 0x0 REVERT JUMPDEST POP POP POP POP PUSH1 0x40 MLOAD RETURNDATASIZE PUSH1 0x20 DUP2 LT ISZERO PUSH2 0x3192 JUMPI PUSH1 0x0 DUP1 REVERT JUMPDEST DUP2 ADD SWAP1 DUP1 DUP1 MLOAD SWAP1 PUSH1 0x20 ADD SWAP1 SWAP3 SWAP2 SWAP1 POP POP POP SWAP1 POP DUP1 DUP3 GT ISZERO PUSH2 0x326B JUMPI PUSH1 0x4 PUSH1 0x0 SWAP1 SLOAD SWAP1 PUSH2 0x100 EXP SWAP1 DIV PUSH20 0xFFFFFFFFFFFFFFFFFFFFFFFFFFFFFFFFFFFFFFFF AND PUSH20 0xFFFFFFFFFFFFFFFFFFFFFFFFFFFFFFFFFFFFFFFF AND PUSH4 0x40C10F19 ADDRESS PUSH2 0x31FF DUP5 DUP7 PUSH2 0x28F2 SWAP1 SWAP2 SWAP1 PUSH4 0xFFFFFFFF AND JUMP JUMPDEST PUSH1 0x40 MLOAD DUP4 PUSH4 0xFFFFFFFF AND PUSH1 0xE0 SHL DUP2 MSTORE PUSH1 0x4 ADD DUP1 DUP4 PUSH20 0xFFFFFFFFFFFFFFFFFFFFFFFFFFFFFFFFFFFFFFFF AND DUP2 MSTORE PUSH1 0x20 ADD DUP3 DUP2 MSTORE PUSH1 0x20 ADD SWAP3 POP POP POP PUSH1 0x0 PUSH1 0x40 MLOAD DUP1 DUP4 SUB DUP2 PUSH1 0x0 DUP8 DUP1 EXTCODESIZE ISZERO DUP1 ISZERO PUSH2 0x3252 JUMPI PUSH1 0x0 DUP1 REVERT JUMPDEST POP GAS CALL ISZERO DUP1 ISZERO PUSH2 0x3266 JUMPI RETURNDATASIZE PUSH1 0x0 DUP1 RETURNDATACOPY RETURNDATASIZE PUSH1 0x0 REVERT JUMPDEST POP POP POP POP JUMPDEST PUSH1 0x5 PUSH1 0x0 SWAP1 SLOAD SWAP1 PUSH2 0x100 EXP SWAP1 DIV PUSH20 0xFFFFFFFFFFFFFFFFFFFFFFFFFFFFFFFFFFFFFFFF AND PUSH20 0xFFFFFFFFFFFFFFFFFFFFFFFFFFFFFFFFFFFFFFFF AND PUSH4 0x9DC29FAC DUP12 DUP11 PUSH1 0x40 MLOAD DUP4 PUSH4 0xFFFFFFFF AND PUSH1 0xE0 SHL DUP2 MSTORE PUSH1 0x4 ADD DUP1 DUP4 PUSH20 0xFFFFFFFFFFFFFFFFFFFFFFFFFFFFFFFFFFFFFFFF AND DUP2 MSTORE PUSH1 0x20 ADD DUP3 DUP2 MSTORE PUSH1 0x20 ADD SWAP3 POP POP POP PUSH1 0x0 PUSH1 0x40 MLOAD DUP1 DUP4 SUB DUP2 PUSH1 0x0 DUP8 DUP1 EXTCODESIZE ISZERO DUP1 ISZERO PUSH2 0x32FE JUMPI PUSH1 0x0 DUP1 REVERT JUMPDEST POP GAS CALL ISZERO DUP1 ISZERO PUSH2 0x3312 JUMPI RETURNDATASIZE PUSH1 0x0 DUP1 RETURNDATACOPY RETURNDATASIZE PUSH1 0x0 REVERT JUMPDEST POP POP POP POP PUSH1 0x4 PUSH1 0x0 SWAP1 SLOAD SWAP1 PUSH2 0x100 EXP SWAP1 DIV PUSH20 0xFFFFFFFFFFFFFFFFFFFFFFFFFFFFFFFFFFFFFFFF AND PUSH20 0xFFFFFFFFFFFFFFFFFFFFFFFFFFFFFFFFFFFFFFFF AND PUSH4 0xA9059CBB PUSH1 0x2 PUSH1 0x0 SWAP1 SLOAD SWAP1 PUSH2 0x100 EXP SWAP1 DIV PUSH20 0xFFFFFFFFFFFFFFFFFFFFFFFFFFFFFFFFFFFFFFFF AND DUP5 PUSH1 0x40 MLOAD DUP4 PUSH4 0xFFFFFFFF AND PUSH1 0xE0 SHL DUP2 MSTORE PUSH1 0x4 ADD DUP1 DUP4 PUSH20 0xFFFFFFFFFFFFFFFFFFFFFFFFFFFFFFFFFFFFFFFF AND DUP2 MSTORE PUSH1 0x20 ADD DUP3 DUP2 MSTORE PUSH1 0x20 ADD SWAP3 POP POP POP PUSH1 0x20 PUSH1 0x40 MLOAD DUP1 DUP4 SUB DUP2 PUSH1 0x0 DUP8 DUP1 EXTCODESIZE ISZERO DUP1 ISZERO PUSH2 0x33CB JUMPI PUSH1 0x0 DUP1 REVERT JUMPDEST POP GAS CALL ISZERO DUP1 ISZERO PUSH2 0x33DF JUMPI RETURNDATASIZE PUSH1 0x0 DUP1 RETURNDATACOPY RETURNDATASIZE PUSH1 0x0 REVERT JUMPDEST POP POP POP POP PUSH1 0x40 MLOAD RETURNDATASIZE PUSH1 0x20 DUP2 LT ISZERO PUSH2 0x33F5 JUMPI PUSH1 0x0 DUP1 REVERT JUMPDEST DUP2 ADD SWAP1 DUP1 DUP1 MLOAD SWAP1 PUSH1 0x20 ADD SWAP1 SWAP3 SWAP2 SWAP1 POP POP POP POP PUSH1 0x0 PUSH1 0x2 PUSH1 0x0 SWAP1 SLOAD SWAP1 PUSH2 0x100 EXP SWAP1 DIV PUSH20 0xFFFFFFFFFFFFFFFFFFFFFFFFFFFFFFFFFFFFFFFF AND PUSH20 0xFFFFFFFFFFFFFFFFFFFFFFFFFFFFFFFFFFFFFFFF AND PUSH4 0x711E6190 DUP12 DUP10 PUSH1 0x40 MLOAD DUP4 PUSH4 0xFFFFFFFF AND PUSH1 0xE0 SHL DUP2 MSTORE PUSH1 0x4 ADD DUP1 DUP4 PUSH20 0xFFFFFFFFFFFFFFFFFFFFFFFFFFFFFFFFFFFFFFFF AND DUP2 MSTORE PUSH1 0x20 ADD DUP3 PUSH20 0xFFFFFFFFFFFFFFFFFFFFFFFFFFFFFFFFFFFFFFFF AND DUP2 MSTORE PUSH1 0x20 ADD SWAP3 POP POP POP PUSH1 0x20 PUSH1 0x40 MLOAD DUP1 DUP4 SUB DUP2 PUSH1 0x0 DUP8 DUP1 EXTCODESIZE ISZERO DUP1 ISZERO PUSH2 0x34B2 JUMPI PUSH1 0x0 DUP1 REVERT JUMPDEST POP GAS CALL ISZERO DUP1 ISZERO PUSH2 0x34C6 JUMPI RETURNDATASIZE PUSH1 0x0 DUP1 RETURNDATACOPY RETURNDATASIZE PUSH1 0x0 REVERT JUMPDEST POP POP POP POP PUSH1 0x40 MLOAD RETURNDATASIZE PUSH1 0x20 DUP2 LT ISZERO PUSH2 0x34DC JUMPI PUSH1 0x0 DUP1 REVERT JUMPDEST DUP2 ADD SWAP1 DUP1 DUP1 MLOAD SWAP1 PUSH1 0x20 ADD SWAP1 SWAP3 SWAP2 SWAP1 POP POP POP SWAP1 POP DUP8 DUP2 LT ISZERO PUSH2 0x3565 JUMPI PUSH1 0x40 MLOAD PUSH32 0x8C379A000000000000000000000000000000000000000000000000000000000 DUP2 MSTORE PUSH1 0x4 ADD DUP1 DUP1 PUSH1 0x20 ADD DUP3 DUP2 SUB DUP3 MSTORE PUSH1 0x1F DUP2 MSTORE PUSH1 0x20 ADD DUP1 PUSH32 0x476C704D616E616765723A20696E73756666696369656E74206F757470757400 DUP2 MSTORE POP PUSH1 0x20 ADD SWAP2 POP POP PUSH1 0x40 MLOAD DUP1 SWAP2 SUB SWAP1 REVERT JUMPDEST PUSH32 0x87B9679BB9A4944BAFA98C267E7CD4A00AB29FED48AFDEFAE25F0FCA5DA27940 DUP12 DUP12 DUP12 DUP9 DUP9 DUP9 DUP8 PUSH1 0x40 MLOAD DUP1 DUP9 PUSH20 0xFFFFFFFFFFFFFFFFFFFFFFFFFFFFFFFFFFFFFFFF AND DUP2 MSTORE PUSH1 0x20 ADD DUP8 PUSH20 0xFFFFFFFFFFFFFFFFFFFFFFFFFFFFFFFFFFFFFFFF AND DUP2 MSTORE PUSH1 0x20 ADD DUP7 DUP2 MSTORE PUSH1 0x20 ADD DUP6 DUP2 MSTORE PUSH1 0x20 ADD DUP5 DUP2 MSTORE PUSH1 0x20 ADD DUP4 DUP2 MSTORE PUSH1 0x20 ADD DUP3 DUP2 MSTORE PUSH1 0x20 ADD SWAP8 POP POP POP POP POP POP POP POP PUSH1 0x40 MLOAD DUP1 SWAP2 SUB SWAP1 LOG1 DUP1 SWAP6 POP POP POP POP POP POP SWAP6 SWAP5 POP POP POP POP POP JUMP JUMPDEST PUSH1 0x0 DUP1 DUP4 GT DUP3 SWAP1 PUSH2 0x36B5 JUMPI PUSH1 0x40 MLOAD PUSH32 0x8C379A000000000000000000000000000000000000000000000000000000000 DUP2 MSTORE PUSH1 0x4 ADD DUP1 DUP1 PUSH1 0x20 ADD DUP3 DUP2 SUB DUP3 MSTORE DUP4 DUP2 DUP2 MLOAD DUP2 MSTORE PUSH1 0x20 ADD SWAP2 POP DUP1 MLOAD SWAP1 PUSH1 0x20 ADD SWAP1 DUP1 DUP4 DUP4 PUSH1 0x0 JUMPDEST DUP4 DUP2 LT ISZERO PUSH2 0x367A JUMPI DUP1 DUP3 ADD MLOAD DUP2 DUP5 ADD MSTORE PUSH1 0x20 DUP2 ADD SWAP1 POP PUSH2 0x365F JUMP JUMPDEST POP POP POP POP SWAP1 POP SWAP1 DUP2 ADD SWAP1 PUSH1 0x1F AND DUP1 ISZERO PUSH2 0x36A7 JUMPI DUP1 DUP3 SUB DUP1 MLOAD PUSH1 0x1 DUP4 PUSH1 0x20 SUB PUSH2 0x100 EXP SUB NOT AND DUP2 MSTORE PUSH1 0x20 ADD SWAP2 POP JUMPDEST POP SWAP3 POP POP POP PUSH1 0x40 MLOAD DUP1 SWAP2 SUB SWAP1 REVERT JUMPDEST POP PUSH1 0x0 DUP4 DUP6 DUP2 PUSH2 0x36C1 JUMPI INVALID JUMPDEST DIV SWAP1 POP DUP1 SWAP2 POP POP SWAP4 SWAP3 POP POP POP JUMP JUMPDEST PUSH1 0x0 DUP4 DUP4 GT ISZERO DUP3 SWAP1 PUSH2 0x377C JUMPI PUSH1 0x40 MLOAD PUSH32 0x8C379A000000000000000000000000000000000000000000000000000000000 DUP2 MSTORE PUSH1 0x4 ADD DUP1 DUP1 PUSH1 0x20 ADD DUP3 DUP2 SUB DUP3 MSTORE DUP4 DUP2 DUP2 MLOAD DUP2 MSTORE PUSH1 0x20 ADD SWAP2 POP DUP1 MLOAD SWAP1 PUSH1 0x20 ADD SWAP1 DUP1 DUP4 DUP4 PUSH1 0x0 JUMPDEST DUP4 DUP2 LT ISZERO PUSH2 0x3741 JUMPI DUP1 DUP3 ADD MLOAD DUP2 DUP5 ADD MSTORE PUSH1 0x20 DUP2 ADD SWAP1 POP PUSH2 0x3726 JUMP JUMPDEST POP POP POP POP SWAP1 POP SWAP1 DUP2 ADD SWAP1 PUSH1 0x1F AND DUP1 ISZERO PUSH2 0x376E JUMPI DUP1 DUP3 SUB DUP1 MLOAD PUSH1 0x1 DUP4 PUSH1 0x20 SUB PUSH2 0x100 EXP SUB NOT AND DUP2 MSTORE PUSH1 0x20 ADD SWAP2 POP JUMPDEST POP SWAP3 POP POP POP PUSH1 0x40 MLOAD DUP1 SWAP2 SUB SWAP1 REVERT JUMPDEST POP PUSH1 0x0 DUP4 DUP6 SUB SWAP1 POP DUP1 SWAP2 POP POP SWAP4 SWAP3 POP POP POP JUMP JUMPDEST PUSH2 0x384A DUP5 PUSH4 0x23B872DD PUSH1 0xE0 SHL DUP6 DUP6 DUP6 PUSH1 0x40 MLOAD PUSH1 0x24 ADD DUP1 DUP5 PUSH20 0xFFFFFFFFFFFFFFFFFFFFFFFFFFFFFFFFFFFFFFFF AND DUP2 MSTORE PUSH1 0x20 ADD DUP4 PUSH20 0xFFFFFFFFFFFFFFFFFFFFFFFFFFFFFFFFFFFFFFFF AND DUP2 MSTORE PUSH1 0x20 ADD DUP3 DUP2 MSTORE PUSH1 0x20 ADD SWAP4 POP POP POP POP PUSH1 0x40 MLOAD PUSH1 0x20 DUP2 DUP4 SUB SUB DUP2 MSTORE SWAP1 PUSH1 0x40 MSTORE SWAP1 PUSH28 0xFFFFFFFFFFFFFFFFFFFFFFFFFFFFFFFFFFFFFFFFFFFFFFFFFFFFFFFF NOT AND PUSH1 0x20 DUP3 ADD DUP1 MLOAD PUSH28 0xFFFFFFFFFFFFFFFFFFFFFFFFFFFFFFFFFFFFFFFFFFFFFFFFFFFFFFFF DUP4 DUP2 DUP4 AND OR DUP4 MSTORE POP POP POP POP PUSH2 0x3850 JUMP JUMPDEST POP POP POP POP JUMP JUMPDEST PUSH1 0x60 PUSH2 0x38B2 DUP3 PUSH1 0x40 MLOAD DUP1 PUSH1 0x40 ADD PUSH1 0x40 MSTORE DUP1 PUSH1 0x20 DUP2 MSTORE PUSH1 0x20 ADD PUSH32 0x5361666545524332303A206C6F772D6C6576656C2063616C6C206661696C6564 DUP2 MSTORE POP DUP6 PUSH20 0xFFFFFFFFFFFFFFFFFFFFFFFFFFFFFFFFFFFFFFFF AND PUSH2 0x393F SWAP1 SWAP3 SWAP2 SWAP1 PUSH4 0xFFFFFFFF AND JUMP JUMPDEST SWAP1 POP PUSH1 0x0 DUP2 MLOAD GT ISZERO PUSH2 0x393A JUMPI DUP1 DUP1 PUSH1 0x20 ADD SWAP1 MLOAD PUSH1 0x20 DUP2 LT ISZERO PUSH2 0x38D3 JUMPI PUSH1 0x0 DUP1 REVERT JUMPDEST DUP2 ADD SWAP1 DUP1 DUP1 MLOAD SWAP1 PUSH1 0x20 ADD SWAP1 SWAP3 SWAP2 SWAP1 POP POP POP PUSH2 0x3939 JUMPI PUSH1 0x40 MLOAD PUSH32 0x8C379A000000000000000000000000000000000000000000000000000000000 DUP2 MSTORE PUSH1 0x4 ADD DUP1 DUP1 PUSH1 0x20 ADD DUP3 DUP2 SUB DUP3 MSTORE PUSH1 0x2A DUP2 MSTORE PUSH1 0x20 ADD DUP1 PUSH2 0x3CBF PUSH1 0x2A SWAP2 CODECOPY PUSH1 0x40 ADD SWAP2 POP POP PUSH1 0x40 MLOAD DUP1 SWAP2 SUB SWAP1 REVERT JUMPDEST JUMPDEST POP POP POP JUMP JUMPDEST PUSH1 0x60 PUSH2 0x394E DUP5 DUP5 PUSH1 0x0 DUP6 PUSH2 0x3957 JUMP JUMPDEST SWAP1 POP SWAP4 SWAP3 POP POP POP JUMP JUMPDEST PUSH1 0x60 DUP3 SELFBALANCE LT ISZERO PUSH2 0x39B2 JUMPI PUSH1 0x40 MLOAD PUSH32 0x8C379A000000000000000000000000000000000000000000000000000000000 DUP2 MSTORE PUSH1 0x4 ADD DUP1 DUP1 PUSH1 0x20 ADD DUP3 DUP2 SUB DUP3 MSTORE PUSH1 0x26 DUP2 MSTORE PUSH1 0x20 ADD DUP1 PUSH2 0x3C05 PUSH1 0x26 SWAP2 CODECOPY PUSH1 0x40 ADD SWAP2 POP POP PUSH1 0x40 MLOAD DUP1 SWAP2 SUB SWAP1 REVERT JUMPDEST PUSH2 0x39BB DUP6 PUSH2 0x3B00 JUMP JUMPDEST PUSH2 0x3A2D JUMPI PUSH1 0x40 MLOAD PUSH32 0x8C379A000000000000000000000000000000000000000000000000000000000 DUP2 MSTORE PUSH1 0x4 ADD DUP1 DUP1 PUSH1 0x20 ADD DUP3 DUP2 SUB DUP3 MSTORE PUSH1 0x1D DUP2 MSTORE PUSH1 0x20 ADD DUP1 PUSH32 0x416464726573733A2063616C6C20746F206E6F6E2D636F6E7472616374000000 DUP2 MSTORE POP PUSH1 0x20 ADD SWAP2 POP POP PUSH1 0x40 MLOAD DUP1 SWAP2 SUB SWAP1 REVERT JUMPDEST PUSH1 0x0 PUSH1 0x60 DUP7 PUSH20 0xFFFFFFFFFFFFFFFFFFFFFFFFFFFFFFFFFFFFFFFF AND DUP6 DUP8 PUSH1 0x40 MLOAD DUP1 DUP3 DUP1 MLOAD SWAP1 PUSH1 0x20 ADD SWAP1 DUP1 DUP4 DUP4 JUMPDEST PUSH1 0x20 DUP4 LT PUSH2 0x3A7D JUMPI DUP1 MLOAD DUP3 MSTORE PUSH1 0x20 DUP3 ADD SWAP2 POP PUSH1 0x20 DUP2 ADD SWAP1 POP PUSH1 0x20 DUP4 SUB SWAP3 POP PUSH2 0x3A5A JUMP JUMPDEST PUSH1 0x1 DUP4 PUSH1 0x20 SUB PUSH2 0x100 EXP SUB DUP1 NOT DUP3 MLOAD AND DUP2 DUP5 MLOAD AND DUP1 DUP3 OR DUP6 MSTORE POP POP POP POP POP POP SWAP1 POP ADD SWAP2 POP POP PUSH1 0x0 PUSH1 0x40 MLOAD DUP1 DUP4 SUB DUP2 DUP6 DUP8 GAS CALL SWAP3 POP POP POP RETURNDATASIZE DUP1 PUSH1 0x0 DUP2 EQ PUSH2 0x3ADF JUMPI PUSH1 0x40 MLOAD SWAP2 POP PUSH1 0x1F NOT PUSH1 0x3F RETURNDATASIZE ADD AND DUP3 ADD PUSH1 0x40 MSTORE RETURNDATASIZE DUP3 MSTORE RETURNDATASIZE PUSH1 0x0 PUSH1 0x20 DUP5 ADD RETURNDATACOPY PUSH2 0x3AE4 JUMP JUMPDEST PUSH1 0x60 SWAP2 POP JUMPDEST POP SWAP2 POP SWAP2 POP PUSH2 0x3AF4 DUP3 DUP3 DUP7 PUSH2 0x3B13 JUMP JUMPDEST SWAP3 POP POP POP SWAP5 SWAP4 POP POP POP POP JUMP JUMPDEST PUSH1 0x0 DUP1 DUP3 EXTCODESIZE SWAP1 POP PUSH1 0x0 DUP2 GT SWAP2 POP POP SWAP2 SWAP1 POP JUMP JUMPDEST PUSH1 0x60 DUP4 ISZERO PUSH2 0x3B23 JUMPI DUP3 SWAP1 POP PUSH2 0x3BD8 JUMP JUMPDEST PUSH1 0x0 DUP4 MLOAD GT ISZERO PUSH2 0x3B36 JUMPI DUP3 MLOAD DUP1 DUP5 PUSH1 0x20 ADD REVERT JUMPDEST DUP2 PUSH1 0x40 MLOAD PUSH32 0x8C379A000000000000000000000000000000000000000000000000000000000 DUP2 MSTORE PUSH1 0x4 ADD DUP1 DUP1 PUSH1 0x20 ADD DUP3 DUP2 SUB DUP3 MSTORE DUP4 DUP2 DUP2 MLOAD DUP2 MSTORE PUSH1 0x20 ADD SWAP2 POP DUP1 MLOAD SWAP1 PUSH1 0x20 ADD SWAP1 DUP1 DUP4 DUP4 PUSH1 0x0 JUMPDEST DUP4 DUP2 LT ISZERO PUSH2 0x3B9D JUMPI DUP1 DUP3 ADD MLOAD DUP2 DUP5 ADD MSTORE PUSH1 0x20 DUP2 ADD SWAP1 POP PUSH2 0x3B82 JUMP JUMPDEST POP POP POP POP SWAP1 POP SWAP1 DUP2 ADD SWAP1 PUSH1 0x1F AND DUP1 ISZERO PUSH2 0x3BCA JUMPI DUP1 DUP3 SUB DUP1 MLOAD PUSH1 0x1 DUP4 PUSH1 0x20 SUB PUSH2 0x100 EXP SUB NOT AND DUP2 MSTORE PUSH1 0x20 ADD SWAP2 POP JUMPDEST POP SWAP3 POP POP POP PUSH1 0x40 MLOAD DUP1 SWAP2 SUB SWAP1 REVERT JUMPDEST SWAP4 SWAP3 POP POP POP JUMP INVALID SELFBALANCE PUSH13 0x704D616E616765723A20696E76 PUSH2 0x6C69 PUSH5 0x205F636F6F PUSH13 0x646F776E4475726174696F6E41 PUSH5 0x6472657373 GASPRICE KECCAK256 PUSH10 0x6E73756666696369656E PUSH21 0x2062616C616E636520666F722063616C6C476C704D PUSH2 0x6E61 PUSH8 0x65723A20636F6F6C PUSH5 0x6F776E2064 PUSH22 0x726174696F6E206E6F74207965742070617373656453 PUSH2 0x6665 0x4D PUSH2 0x7468 GASPRICE KECCAK256 PUSH14 0x756C7469706C69636174696F6E20 PUSH16 0x766572666C6F77476C704D616E616765 PUSH19 0x3A20696E73756666696369656E7420474C5020 PUSH16 0x7574707574476C704D616E616765723A KECCAK256 PUSH10 0x6E73756666696369656E PUSH21 0x2055534447206F7574707574536166654552433230 GASPRICE KECCAK256 GASLIMIT MSTORE NUMBER ORIGIN ADDRESS KECCAK256 PUSH16 0x7065726174696F6E20646964206E6F74 KECCAK256 PUSH20 0x756363656564A264697066735822122019BE56DE LOG3 0x2F 0xC INVALID PUSH4 0xC52D6D61 0xF7 0xBA 0x5C MULMOD 0xDA 0xA7 0xE8 LOG3 LOG1 SWAP16 JUMPDEST PUSH27 0xD3627C3621775B64736F6C634300060C0033000000000000000000 "
				},
				"gasEstimates": {
					"creation": {
						"codeDepositCost": "3129200",
						"executionCost": "infinite",
						"totalCost": "infinite"
					},
					"external": {
						"BASIS_POINTS_DIVISOR()": "296",
						"GLP_PRECISION()": "294",
						"MAX_COOLDOWN_DURATION()": "295",
						"PRICE_PRECISION()": "294",
						"USDG_DECIMALS()": "295",
						"addLiquidity(address,uint256,uint256,uint256)": "infinite",
						"addLiquidityForAccount(address,address,address,uint256,uint256,uint256)": "infinite",
						"aumAddition()": "1073",
						"aumDeduction()": "1094",
						"cooldownDuration()": "1051",
						"getAum(bool)": "infinite",
						"getAumInUsdg(bool)": "infinite",
						"getAums()": "infinite",
						"getGlobalShortAveragePrice(address)": "infinite",
						"getGlobalShortDelta(address,uint256,uint256)": "infinite",
						"getPrice(bool)": "infinite",
						"glp()": "1115",
						"gov()": "1160",
						"inPrivateMode()": "1116",
						"isHandler(address)": "1290",
						"lastAddedAt(address)": "1281",
						"removeLiquidity(address,uint256,uint256,address)": "infinite",
						"removeLiquidityForAccount(address,address,uint256,uint256,address)": "infinite",
						"setAumAdjustment(uint256,uint256)": "41222",
						"setCooldownDuration(uint256)": "infinite",
						"setGov(address)": "22082",
						"setHandler(address,bool)": "22141",
						"setInPrivateMode(bool)": "22104",
						"setShortsTracker(address)": "22015",
						"setShortsTrackerAveragePriceWeight(uint256)": "22050",
						"shortsTracker()": "1114",
						"shortsTrackerAveragePriceWeight()": "1050",
						"usdg()": "1157",
						"vault()": "1179"
					},
					"internal": {
						"_addLiquidity(address,address,address,uint256,uint256,uint256)": "infinite",
						"_removeLiquidity(address,address,uint256,uint256,address)": "infinite",
						"_validateHandler()": "infinite"
					}
				},
				"methodIdentifiers": {
					"BASIS_POINTS_DIVISOR()": "126082cf",
					"GLP_PRECISION()": "662f1c68",
					"MAX_COOLDOWN_DURATION()": "1e9049cf",
					"PRICE_PRECISION()": "95082d25",
					"USDG_DECIMALS()": "870d917c",
					"addLiquidity(address,uint256,uint256,uint256)": "1ece366a",
					"addLiquidityForAccount(address,address,address,uint256,uint256,uint256)": "17eb2a15",
					"aumAddition()": "196b68cb",
					"aumDeduction()": "b172bb0c",
					"cooldownDuration()": "35269315",
					"getAum(bool)": "03391476",
					"getAumInUsdg(bool)": "68a0a3e0",
					"getAums()": "ed0d1c04",
					"getGlobalShortAveragePrice(address)": "440d828a",
					"getGlobalShortDelta(address,uint256,uint256)": "a1acd3d5",
					"getPrice(bool)": "e245b5af",
					"glp()": "78a207ee",
					"gov()": "12d43a51",
					"inPrivateMode()": "070eacee",
					"isHandler(address)": "46ea87af",
					"lastAddedAt(address)": "8b770e11",
					"removeLiquidity(address,uint256,uint256,address)": "8fed0b2c",
					"removeLiquidityForAccount(address,address,uint256,uint256,address)": "71d597ad",
					"setAumAdjustment(uint256,uint256)": "9116c4ae",
					"setCooldownDuration(uint256)": "966be075",
					"setGov(address)": "cfad57a2",
					"setHandler(address,bool)": "9cb7de4b",
					"setInPrivateMode(bool)": "6a86da19",
					"setShortsTracker(address)": "d34ee093",
					"setShortsTrackerAveragePriceWeight(uint256)": "4f5f6b5e",
					"shortsTracker()": "657bc5d0",
					"shortsTrackerAveragePriceWeight()": "64e6617f",
					"usdg()": "f5b91b7b",
					"vault()": "fbfa77cf"
				}
			},
			"storageLayout": {
				"storage": [
					{
						"astId": 2513,
						"contract": "gist-b9df1f47d280e3707a3b6d35cd582bc9/GlpManager.sol:GlpManager",
						"label": "_status",
						"offset": 0,
						"slot": "0",
						"type": "t_uint256"
					},
					{
						"astId": 1379,
						"contract": "gist-b9df1f47d280e3707a3b6d35cd582bc9/GlpManager.sol:GlpManager",
						"label": "gov",
						"offset": 0,
						"slot": "1",
						"type": "t_address"
					},
					{
						"astId": 341,
						"contract": "gist-b9df1f47d280e3707a3b6d35cd582bc9/GlpManager.sol:GlpManager",
						"label": "vault",
						"offset": 0,
						"slot": "2",
						"type": "t_contract(IVault)2356"
					},
					{
						"astId": 343,
						"contract": "gist-b9df1f47d280e3707a3b6d35cd582bc9/GlpManager.sol:GlpManager",
						"label": "shortsTracker",
						"offset": 0,
						"slot": "3",
						"type": "t_contract(IShortsTracker)1693"
					},
					{
						"astId": 346,
						"contract": "gist-b9df1f47d280e3707a3b6d35cd582bc9/GlpManager.sol:GlpManager",
						"label": "usdg",
						"offset": 0,
						"slot": "4",
						"type": "t_address"
					},
					{
						"astId": 349,
						"contract": "gist-b9df1f47d280e3707a3b6d35cd582bc9/GlpManager.sol:GlpManager",
						"label": "glp",
						"offset": 0,
						"slot": "5",
						"type": "t_address"
					},
					{
						"astId": 352,
						"contract": "gist-b9df1f47d280e3707a3b6d35cd582bc9/GlpManager.sol:GlpManager",
						"label": "cooldownDuration",
						"offset": 0,
						"slot": "6",
						"type": "t_uint256"
					},
					{
						"astId": 357,
						"contract": "gist-b9df1f47d280e3707a3b6d35cd582bc9/GlpManager.sol:GlpManager",
						"label": "lastAddedAt",
						"offset": 0,
						"slot": "7",
						"type": "t_mapping(t_address,t_uint256)"
					},
					{
						"astId": 359,
						"contract": "gist-b9df1f47d280e3707a3b6d35cd582bc9/GlpManager.sol:GlpManager",
						"label": "aumAddition",
						"offset": 0,
						"slot": "8",
						"type": "t_uint256"
					},
					{
						"astId": 361,
						"contract": "gist-b9df1f47d280e3707a3b6d35cd582bc9/GlpManager.sol:GlpManager",
						"label": "aumDeduction",
						"offset": 0,
						"slot": "9",
						"type": "t_uint256"
					},
					{
						"astId": 363,
						"contract": "gist-b9df1f47d280e3707a3b6d35cd582bc9/GlpManager.sol:GlpManager",
						"label": "inPrivateMode",
						"offset": 0,
						"slot": "10",
						"type": "t_bool"
					},
					{
						"astId": 365,
						"contract": "gist-b9df1f47d280e3707a3b6d35cd582bc9/GlpManager.sol:GlpManager",
						"label": "shortsTrackerAveragePriceWeight",
						"offset": 0,
						"slot": "11",
						"type": "t_uint256"
					},
					{
						"astId": 369,
						"contract": "gist-b9df1f47d280e3707a3b6d35cd582bc9/GlpManager.sol:GlpManager",
						"label": "isHandler",
						"offset": 0,
						"slot": "12",
						"type": "t_mapping(t_address,t_bool)"
					}
				],
				"types": {
					"t_address": {
						"encoding": "inplace",
						"label": "address",
						"numberOfBytes": "20"
					},
					"t_bool": {
						"encoding": "inplace",
						"label": "bool",
						"numberOfBytes": "1"
					},
					"t_contract(IShortsTracker)1693": {
						"encoding": "inplace",
						"label": "contract IShortsTracker",
						"numberOfBytes": "20"
					},
					"t_contract(IVault)2356": {
						"encoding": "inplace",
						"label": "contract IVault",
						"numberOfBytes": "20"
					},
					"t_mapping(t_address,t_bool)": {
						"encoding": "mapping",
						"key": "t_address",
						"label": "mapping(address => bool)",
						"numberOfBytes": "32",
						"value": "t_bool"
					},
					"t_mapping(t_address,t_uint256)": {
						"encoding": "mapping",
						"key": "t_address",
						"label": "mapping(address => uint256)",
						"numberOfBytes": "32",
						"value": "t_uint256"
					},
					"t_uint256": {
						"encoding": "inplace",
						"label": "uint256",
						"numberOfBytes": "32"
					}
				}
			},
			"userdoc": {
				"kind": "user",
				"methods": {},
				"version": 1
			}
		}
	}
}